{
  "contractName": "CarFactory",
  "abi": [
    {
      "inputs": [],
      "stateMutability": "nonpayable",
      "type": "constructor"
    },
    {
      "anonymous": false,
      "inputs": [
        {
          "indexed": true,
          "internalType": "address",
          "name": "previousOwner",
          "type": "address"
        },
        {
          "indexed": true,
          "internalType": "address",
          "name": "newOwner",
          "type": "address"
        }
      ],
      "name": "OwnershipTransferred",
      "type": "event"
    },
    {
      "inputs": [
        {
          "internalType": "uint256",
          "name": "",
          "type": "uint256"
        }
      ],
      "name": "carToOwner",
      "outputs": [
        {
          "internalType": "address",
          "name": "",
          "type": "address"
        }
      ],
      "stateMutability": "view",
      "type": "function"
    },
    {
      "inputs": [
        {
          "internalType": "uint256",
          "name": "",
          "type": "uint256"
        }
      ],
      "name": "cars",
      "outputs": [
        {
          "internalType": "string",
          "name": "model",
          "type": "string"
        },
        {
          "internalType": "uint256",
          "name": "vin",
          "type": "uint256"
        },
        {
          "internalType": "uint256",
          "name": "engineId",
          "type": "uint256"
        },
        {
          "internalType": "uint256",
          "name": "chassisId",
          "type": "uint256"
        },
        {
          "internalType": "uint8",
          "name": "carLevel",
          "type": "uint8"
        },
        {
          "internalType": "uint256",
          "name": "mileage",
          "type": "uint256"
        },
        {
          "internalType": "uint256",
          "name": "winCountOnCurrentLevel",
          "type": "uint256"
        },
        {
          "internalType": "uint256",
          "name": "lossCountOnCurrentLevel",
          "type": "uint256"
        },
        {
          "internalType": "uint256",
          "name": "id",
          "type": "uint256"
        }
      ],
      "stateMutability": "view",
      "type": "function"
    },
    {
      "inputs": [
        {
          "internalType": "uint256",
          "name": "",
          "type": "uint256"
        }
      ],
      "name": "chassis",
      "outputs": [
        {
          "internalType": "uint256",
          "name": "id",
          "type": "uint256"
        },
        {
          "internalType": "uint32",
          "name": "durability",
          "type": "uint32"
        },
        {
          "internalType": "uint32",
          "name": "resource",
          "type": "uint32"
        }
      ],
      "stateMutability": "view",
      "type": "function"
    },
    {
      "inputs": [
        {
          "internalType": "uint256",
          "name": "",
          "type": "uint256"
        }
      ],
      "name": "chassisToOwner",
      "outputs": [
        {
          "internalType": "address",
          "name": "",
          "type": "address"
        }
      ],
      "stateMutability": "view",
      "type": "function"
    },
    {
      "inputs": [],
      "name": "createFuelStation",
      "outputs": [],
      "stateMutability": "nonpayable",
      "type": "function"
    },
    {
      "inputs": [
        {
          "internalType": "uint256",
          "name": "",
          "type": "uint256"
        }
      ],
      "name": "engineToOwner",
      "outputs": [
        {
          "internalType": "address",
          "name": "",
          "type": "address"
        }
      ],
      "stateMutability": "view",
      "type": "function"
    },
    {
      "inputs": [
        {
          "internalType": "uint256",
          "name": "",
          "type": "uint256"
        }
      ],
      "name": "engines",
      "outputs": [
        {
          "internalType": "uint256",
          "name": "id",
          "type": "uint256"
        },
        {
          "internalType": "uint16",
          "name": "horsePowers",
          "type": "uint16"
        },
        {
          "internalType": "uint8",
          "name": "consumtion",
          "type": "uint8"
        }
      ],
      "stateMutability": "view",
      "type": "function"
    },
    {
      "inputs": [
        {
          "internalType": "uint256",
          "name": "",
          "type": "uint256"
        }
      ],
      "name": "fuelStationToOwner",
      "outputs": [
        {
          "internalType": "address",
          "name": "",
          "type": "address"
        }
      ],
      "stateMutability": "view",
      "type": "function"
    },
    {
      "inputs": [],
      "name": "owner",
      "outputs": [
        {
          "internalType": "address",
          "name": "",
          "type": "address"
        }
      ],
      "stateMutability": "view",
      "type": "function"
    },
    {
      "inputs": [
        {
          "internalType": "address",
          "name": "",
          "type": "address"
        }
      ],
      "name": "ownerCarCount",
      "outputs": [
        {
          "internalType": "uint256",
          "name": "",
          "type": "uint256"
        }
      ],
      "stateMutability": "view",
      "type": "function"
    },
    {
      "inputs": [],
      "name": "renounceOwnership",
      "outputs": [],
      "stateMutability": "nonpayable",
      "type": "function"
    },
    {
      "inputs": [
        {
          "internalType": "uint256",
          "name": "",
          "type": "uint256"
        }
      ],
      "name": "stations",
      "outputs": [
        {
          "internalType": "uint256",
          "name": "id",
          "type": "uint256"
        },
        {
          "internalType": "uint8",
          "name": "capacity",
          "type": "uint8"
        },
        {
          "internalType": "uint8",
          "name": "productionPerHour",
          "type": "uint8"
        },
        {
          "internalType": "uint8",
          "name": "currentFullness",
          "type": "uint8"
        },
        {
          "internalType": "uint256",
          "name": "lastUpdate",
          "type": "uint256"
        }
      ],
      "stateMutability": "view",
      "type": "function"
    },
    {
      "inputs": [
        {
          "internalType": "address",
          "name": "newOwner",
          "type": "address"
        }
      ],
      "name": "transferOwnership",
      "outputs": [],
      "stateMutability": "nonpayable",
      "type": "function"
    },
    {
      "inputs": [
        {
          "internalType": "string",
          "name": "model",
          "type": "string"
        }
      ],
      "name": "createCar",
      "outputs": [],
      "stateMutability": "nonpayable",
      "type": "function"
    }
  ],
  "bytecode": "0x6080604052603c600060146101000a81548160ff021916908360ff1602179055506005600060156101000a81548160ff021916908360ff1602179055506001600855600160095534801561005257600080fd5b5061006f6100646100f060201b60201c565b6100f860201b60201c565b6050600381905550605b600481905550600a600560006101000a81548160ff021916908360ff160217905550620186a06006819055506201d4c1600781905550600b60018160018154018082558091505003906000526020600020905050600c600181600181540180825580915050039060005260206000209050506101bc565b600033905090565b60008060009054906101000a900473ffffffffffffffffffffffffffffffffffffffff169050816000806101000a81548173ffffffffffffffffffffffffffffffffffffffff021916908373ffffffffffffffffffffffffffffffffffffffff1602179055508173ffffffffffffffffffffffffffffffffffffffff168173ffffffffffffffffffffffffffffffffffffffff167f8be0079c531659141344cd1fd0a4f28419497f9722a3daafe3b4186f6b6457e060405160405180910390a35050565b611a84806101cb6000396000f3fe608060405234801561001057600080fd5b50600436106100ea5760003560e01c80638da5cb5b1161008c578063b72c0eea11610066578063b72c0eea14610277578063ede6fbf5146102a9578063f2fde38b146102c5578063f7746e36146102e1576100ea565b80638da5cb5b146101f557806392f859db14610213578063b3b29afd14610247576100ea565b806344901490116100c8578063449014901461015b578063594193d71461018b5780635dcc4cc6146101bb578063715018a6146101eb576100ea565b80631c5dde0e146100ef578063224370f01461012157806333ca504b1461012b575b600080fd5b61010960048036038101906101049190611248565b610319565b604051610118939291906112a3565b60405180910390f35b610129610373565b005b61014560048036038101906101409190611248565b6104df565b604051610152919061131b565b60405180910390f35b61017560048036038101906101709190611248565b610512565b604051610182919061131b565b60405180910390f35b6101a560048036038101906101a09190611248565b610545565b6040516101b2919061131b565b60405180910390f35b6101d560048036038101906101d09190611248565b610578565b6040516101e2919061131b565b60405180910390f35b6101f36105ab565b005b6101fd6105bf565b60405161020a919061131b565b60405180910390f35b61022d60048036038101906102289190611248565b6105e8565b60405161023e959493929190611352565b60405180910390f35b610261600480360381019061025c91906113d1565b610655565b60405161026e91906113fe565b60405180910390f35b610291600480360381019061028c9190611248565b61066d565b6040516102a093929190611436565b60405180910390f35b6102c360048036038101906102be91906115b3565b6106c2565b005b6102df60048036038101906102da91906113d1565b610934565b005b6102fb60048036038101906102f69190611248565b6109b7565b60405161031099989796959493929190611684565b60405180910390f35b600c818154811061032957600080fd5b90600052602060002090600202016000915090508060000154908060010160009054906101000a900463ffffffff16908060010160049054906101000a900463ffffffff16905083565b60003390506000600180549050905060016040518060a00160405280838152602001600060149054906101000a900460ff1660ff168152602001600060159054906101000a900460ff1660ff168152602001600060149054906101000a900460ff1660ff1681526020014263ffffffff1681525090806001815401808255809150506001900390600052602060002090600302016000909190919091506000820151816000015560208201518160010160006101000a81548160ff021916908360ff16021790555060408201518160010160016101000a81548160ff021916908360ff16021790555060608201518160010160026101000a81548160ff021916908360ff160217905550608082015181600201555050816002600083815260200190815260200160002060006101000a81548173ffffffffffffffffffffffffffffffffffffffff021916908373ffffffffffffffffffffffffffffffffffffffff1602179055505050565b600d6020528060005260406000206000915054906101000a900473ffffffffffffffffffffffffffffffffffffffff1681565b600f6020528060005260406000206000915054906101000a900473ffffffffffffffffffffffffffffffffffffffff1681565b60026020528060005260406000206000915054906101000a900473ffffffffffffffffffffffffffffffffffffffff1681565b600e6020528060005260406000206000915054906101000a900473ffffffffffffffffffffffffffffffffffffffff1681565b6105b3610aaa565b6105bd6000610b28565b565b60008060009054906101000a900473ffffffffffffffffffffffffffffffffffffffff16905090565b600181815481106105f857600080fd5b90600052602060002090600302016000915090508060000154908060010160009054906101000a900460ff16908060010160019054906101000a900460ff16908060010160029054906101000a900460ff16908060020154905085565b60106020528060005260406000206000915090505481565b600b818154811061067d57600080fd5b90600052602060002090600202016000915090508060000154908060010160009054906101000a900461ffff16908060010160029054906101000a900460ff16905083565b6000601060003373ffffffffffffffffffffffffffffffffffffffff1673ffffffffffffffffffffffffffffffffffffffff168152602001908152602001600020541461070e57600080fd5b60008161071a42610bec565b60405160200161072b929190611754565b604051602081830303815290604052905060008160405160200161074f9190611778565b6040516020818303038152906040528051906020012060001c90506000610774610cba565b90506000610780610e5d565b90506000600a805490509050600a604051806101200160405280888152602001868152602001858152602001848152602001600160ff168152602001600081526020016000815260200160008152602001838152509080600181540180825580915050600190039060005260206000209060090201600090919091909150600082015181600001908051906020019061081a92919061115b565b5060208201518160010155604082015181600201556060820151816003015560808201518160040160006101000a81548160ff021916908360ff16021790555060a0820151816005015560c0820151816006015560e082015181600701556101008201518160080155505033600d600083815260200190815260200160002060006101000a81548173ffffffffffffffffffffffffffffffffffffffff021916908373ffffffffffffffffffffffffffffffffffffffff160217905550601060003373ffffffffffffffffffffffffffffffffffffffff1673ffffffffffffffffffffffffffffffffffffffff1681526020019081526020016000206000815480929190610927906117be565b9190505550505050505050565b61093c610aaa565b600073ffffffffffffffffffffffffffffffffffffffff168173ffffffffffffffffffffffffffffffffffffffff16036109ab576040517f08c379a00000000000000000000000000000000000000000000000000000000081526004016109a290611878565b60405180910390fd5b6109b481610b28565b50565b600a81815481106109c757600080fd5b90600052602060002090600902016000915090508060000180546109ea906118c7565b80601f0160208091040260200160405190810160405280929190818152602001828054610a16906118c7565b8015610a635780601f10610a3857610100808354040283529160200191610a63565b820191906000526020600020905b815481529060010190602001808311610a4657829003601f168201915b5050505050908060010154908060020154908060030154908060040160009054906101000a900460ff16908060050154908060060154908060070154908060080154905089565b610ab2611000565b73ffffffffffffffffffffffffffffffffffffffff16610ad06105bf565b73ffffffffffffffffffffffffffffffffffffffff1614610b26576040517f08c379a0000000000000000000000000000000000000000000000000000000008152600401610b1d90611944565b60405180910390fd5b565b60008060009054906101000a900473ffffffffffffffffffffffffffffffffffffffff169050816000806101000a81548173ffffffffffffffffffffffffffffffffffffffff021916908373ffffffffffffffffffffffffffffffffffffffff1602179055508173ffffffffffffffffffffffffffffffffffffffff168173ffffffffffffffffffffffffffffffffffffffff167f8be0079c531659141344cd1fd0a4f28419497f9722a3daafe3b4186f6b6457e060405160405180910390a35050565b606060006001610bfb84611008565b01905060008167ffffffffffffffff811115610c1a57610c19611488565b5b6040519080825280601f01601f191660200182016040528015610c4c5781602001600182028036833780820191505090505b509050600082602001820190505b600115610caf578080600190039150507f3031323334353637383961626364656600000000000000000000000000000000600a86061a8153600a8581610ca357610ca2611964565b5b04945060008503610c5a575b819350505050919050565b600080600354600454610ccd9190611993565b42610cd891906119c7565b600354610ce591906119f8565b9050600060086000815480929190610cfc906117be565b919050559050600b60405180606001604052808381526020018461ffff168152602001600560009054906101000a900460ff1660ff1681525090806001815401808255809150506001900390600052602060002090600202016000909190919091506000820151816000015560208201518160010160006101000a81548161ffff021916908361ffff16021790555060408201518160010160026101000a81548160ff021916908360ff1602179055505050601160003373ffffffffffffffffffffffffffffffffffffffff1673ffffffffffffffffffffffffffffffffffffffff1681526020019081526020016000206000815480929190610dfe906117be565b919050555033600e600083815260200190815260200160002060006101000a81548173ffffffffffffffffffffffffffffffffffffffff021916908373ffffffffffffffffffffffffffffffffffffffff160217905550809250505090565b600080600654600754610e709190611993565b42610e7b91906119c7565b600654610e8891906119f8565b9050600060096000815480929190610e9f906117be565b919050559050600c60405180606001604052808381526020018463ffffffff1681526020018463ffffffff1681525090806001815401808255809150506001900390600052602060002090600202016000909190919091506000820151816000015560208201518160010160006101000a81548163ffffffff021916908363ffffffff16021790555060408201518160010160046101000a81548163ffffffff021916908363ffffffff1602179055505050601260003373ffffffffffffffffffffffffffffffffffffffff1673ffffffffffffffffffffffffffffffffffffffff1681526020019081526020016000206000815480929190610fa1906117be565b919050555033600f600083815260200190815260200160002060006101000a81548173ffffffffffffffffffffffffffffffffffffffff021916908373ffffffffffffffffffffffffffffffffffffffff160217905550809250505090565b600033905090565b600080600090507a184f03e93ff9f4daa797ed6e38ed64bf6a1f0100000000000000008310611066577a184f03e93ff9f4daa797ed6e38ed64bf6a1f010000000000000000838161105c5761105b611964565b5b0492506040810190505b6d04ee2d6d415b85acef810000000083106110a3576d04ee2d6d415b85acef8100000000838161109957611098611964565b5b0492506020810190505b662386f26fc1000083106110d257662386f26fc1000083816110c8576110c7611964565b5b0492506010810190505b6305f5e10083106110fb576305f5e10083816110f1576110f0611964565b5b0492506008810190505b612710831061112057612710838161111657611115611964565b5b0492506004810190505b60648310611143576064838161113957611138611964565b5b0492506002810190505b600a8310611152576001810190505b80915050919050565b828054611167906118c7565b90600052602060002090601f01602090048101928261118957600085556111d0565b82601f106111a257805160ff19168380011785556111d0565b828001600101855582156111d0579182015b828111156111cf5782518255916020019190600101906111b4565b5b5090506111dd91906111e1565b5090565b5b808211156111fa5760008160009055506001016111e2565b5090565b6000604051905090565b600080fd5b600080fd5b6000819050919050565b61122581611212565b811461123057600080fd5b50565b6000813590506112428161121c565b92915050565b60006020828403121561125e5761125d611208565b5b600061126c84828501611233565b91505092915050565b61127e81611212565b82525050565b600063ffffffff82169050919050565b61129d81611284565b82525050565b60006060820190506112b86000830186611275565b6112c56020830185611294565b6112d26040830184611294565b949350505050565b600073ffffffffffffffffffffffffffffffffffffffff82169050919050565b6000611305826112da565b9050919050565b611315816112fa565b82525050565b6000602082019050611330600083018461130c565b92915050565b600060ff82169050919050565b61134c81611336565b82525050565b600060a0820190506113676000830188611275565b6113746020830187611343565b6113816040830186611343565b61138e6060830185611343565b61139b6080830184611275565b9695505050505050565b6113ae816112fa565b81146113b957600080fd5b50565b6000813590506113cb816113a5565b92915050565b6000602082840312156113e7576113e6611208565b5b60006113f5848285016113bc565b91505092915050565b60006020820190506114136000830184611275565b92915050565b600061ffff82169050919050565b61143081611419565b82525050565b600060608201905061144b6000830186611275565b6114586020830185611427565b6114656040830184611343565b949350505050565b600080fd5b600080fd5b6000601f19601f8301169050919050565b7f4e487b7100000000000000000000000000000000000000000000000000000000600052604160045260246000fd5b6114c082611477565b810181811067ffffffffffffffff821117156114df576114de611488565b5b80604052505050565b60006114f26111fe565b90506114fe82826114b7565b919050565b600067ffffffffffffffff82111561151e5761151d611488565b5b61152782611477565b9050602081019050919050565b82818337600083830152505050565b600061155661155184611503565b6114e8565b90508281526020810184848401111561157257611571611472565b5b61157d848285611534565b509392505050565b600082601f83011261159a5761159961146d565b5b81356115aa848260208601611543565b91505092915050565b6000602082840312156115c9576115c8611208565b5b600082013567ffffffffffffffff8111156115e7576115e661120d565b5b6115f384828501611585565b91505092915050565b600081519050919050565b600082825260208201905092915050565b60005b8381101561163657808201518184015260208101905061161b565b83811115611645576000848401525b50505050565b6000611656826115fc565b6116608185611607565b9350611670818560208601611618565b61167981611477565b840191505092915050565b600061012082019050818103600083015261169f818c61164b565b90506116ae602083018b611275565b6116bb604083018a611275565b6116c86060830189611275565b6116d56080830188611343565b6116e260a0830187611275565b6116ef60c0830186611275565b6116fc60e0830185611275565b61170a610100830184611275565b9a9950505050505050505050565b600081905092915050565b600061172e826115fc565b6117388185611718565b9350611748818560208601611618565b80840191505092915050565b60006117608285611723565b915061176c8284611723565b91508190509392505050565b60006117848284611723565b915081905092915050565b7f4e487b7100000000000000000000000000000000000000000000000000000000600052601160045260246000fd5b60006117c982611212565b91507fffffffffffffffffffffffffffffffffffffffffffffffffffffffffffffffff82036117fb576117fa61178f565b5b600182019050919050565b7f4f776e61626c653a206e6577206f776e657220697320746865207a65726f206160008201527f6464726573730000000000000000000000000000000000000000000000000000602082015250565b6000611862602683611607565b915061186d82611806565b604082019050919050565b6000602082019050818103600083015261189181611855565b9050919050565b7f4e487b7100000000000000000000000000000000000000000000000000000000600052602260045260246000fd5b600060028204905060018216806118df57607f821691505b6020821081036118f2576118f1611898565b5b50919050565b7f4f776e61626c653a2063616c6c6572206973206e6f7420746865206f776e6572600082015250565b600061192e602083611607565b9150611939826118f8565b602082019050919050565b6000602082019050818103600083015261195d81611921565b9050919050565b7f4e487b7100000000000000000000000000000000000000000000000000000000600052601260045260246000fd5b600061199e82611212565b91506119a983611212565b9250828210156119bc576119bb61178f565b5b828203905092915050565b60006119d282611212565b91506119dd83611212565b9250826119ed576119ec611964565b5b828206905092915050565b6000611a0382611212565b9150611a0e83611212565b9250827fffffffffffffffffffffffffffffffffffffffffffffffffffffffffffffffff03821115611a4357611a4261178f565b5b82820190509291505056fea2646970667358221220193f4349ba682bd483e652cd76db9088ffe2ac99a607afef6ad599a93bf2a7ea64736f6c634300080d0033",
  "immutableReferences": {},
  "source": "// SPDX-License-Identifier: MIT\npragma solidity ^0.8.13;\nimport \"../node_modules/@openzeppelin/contracts/utils/Strings.sol\";\nimport \"../node_modules/@openzeppelin/contracts/access/Ownable.sol\";\nimport \"./FuelStationFactory.sol\";\n\ncontract CarFactory is Ownable, FuelStationFactory {\n\n    uint defaultHorsePowersLow;\n    uint defaultHorsePowersUp;\n   \n    uint8 defaultConsumtion;\n  \n    uint defaultDurabilityLow;\n    uint defaultDurabilityUp; \n\n\n    struct Car {\n        string model;\n        uint vin;\n        uint engineId;\n        uint chassisId;\n        uint8 carLevel;\n        uint mileage;\n        uint winCountOnCurrentLevel;\n        uint lossCountOnCurrentLevel;\n        uint id;\n    }\n\n    struct Engine {\n        uint id;\n        uint16 horsePowers;\n        uint8 consumtion;\n    }\n\n    struct Chassis {\n        uint id;\n        uint32 durability;\n        uint32 resource;\n    }\n\n    uint engineCounter = 1;\n    uint chassisCounter = 1;\n\n    Car[] public cars;\n    Engine[] public engines;\n    Chassis[] public chassis;\n\n    mapping (uint => address) public carToOwner;\n    mapping (uint => address) public engineToOwner;\n    mapping (uint => address) public chassisToOwner;\n\n    mapping (address => uint) public ownerCarCount;\n    mapping (address => uint) ownerEngineCount;\n    mapping (address => uint) ownerChassisCount;\n\n\n    constructor() {\n         defaultHorsePowersLow = 80;\n         defaultHorsePowersUp = 91;\n   \n         defaultConsumtion = 10;\n  \n         defaultDurabilityLow = 100000;\n         defaultDurabilityUp = 120001;\n         engines.push();\n         chassis.push();\n    }\n\n    function createCar(string memory model) public {\n        require(ownerCarCount[msg.sender] == 0);\n\n        //string memory model = \"model\"; //TODO\n        string memory key = string(abi.encodePacked(model,Strings.toString(block.timestamp))); \n        uint vin = uint(keccak256(abi.encodePacked((key))));\n\n        uint engineId = _generateDefaultEngine(); \n        uint chassisId = _generateDefaultChassis();\n\n        uint id = cars.length;\n        cars.push(Car(model, vin, engineId, chassisId, 1, 0, 0, 0, id));\n        carToOwner[id] = msg.sender;\n        ownerCarCount[msg.sender]++;\n    }\n\n\n    function _generateDefaultEngine() private returns (uint){\n        uint16 randHorsePowers = (uint16)(defaultHorsePowersLow + block.timestamp % (defaultHorsePowersUp - defaultHorsePowersLow));\n        // uint16 randConsumtion = (uint16) (defaultConsumtionLow + block.timestamp % (defaultConsumtionUp - defaultConsumtionLow));\n        uint id = engineCounter++;\n        engines.push(Engine(id, randHorsePowers, defaultConsumtion));\n        ownerEngineCount[msg.sender]++;\n        engineToOwner[id] = msg.sender;\n        return id;\n    }\n\n    function _generateDefaultChassis() private returns(uint) {\n        uint32 randDurability = (uint32)(defaultDurabilityLow + block.timestamp % (defaultDurabilityUp - defaultDurabilityLow));\n        uint id = chassisCounter++;\n        chassis.push(Chassis(id, randDurability, randDurability));\n        ownerChassisCount[msg.sender]++;\n        chassisToOwner[id] = msg.sender;\n        return id;\n    }\n\n\n}",
  "sourcePath": "/Users/vvan/Programming/JavaScript/DriveSafely/contract/contracts/CarFactory.sol",
  "compiler": {
    "name": "solc",
    "version": "0.8.13+commit.abaa5c0e.Emscripten.clang"
  },
  "schemaVersion": "3.4.11",
  "updatedAt": "2023-01-08T15:51:32.161Z",
  "networkType": "ethereum",
  "devdoc": {
    "kind": "dev",
    "methods": {
      "owner()": {
        "details": "Returns the address of the current owner."
      },
      "renounceOwnership()": {
        "details": "Leaves the contract without owner. It will not be possible to call `onlyOwner` functions anymore. Can only be called by the current owner. NOTE: Renouncing ownership will leave the contract without an owner, thereby removing any functionality that is only available to the owner."
      },
      "transferOwnership(address)": {
        "details": "Transfers ownership of the contract to a new account (`newOwner`). Can only be called by the current owner."
      }
    },
    "version": 1
  },
  "userdoc": {
    "kind": "user",
    "methods": {},
    "version": 1
  }
}