{
  "contractName": "CarFactory",
  "abi": [
    {
      "inputs": [],
      "stateMutability": "nonpayable",
      "type": "constructor"
    },
    {
      "anonymous": false,
      "inputs": [
        {
          "indexed": true,
          "internalType": "address",
          "name": "previousOwner",
          "type": "address"
        },
        {
          "indexed": true,
          "internalType": "address",
          "name": "newOwner",
          "type": "address"
        }
      ],
      "name": "OwnershipTransferred",
      "type": "event"
    },
    {
      "inputs": [
        {
          "internalType": "uint256",
          "name": "",
          "type": "uint256"
        }
      ],
      "name": "carToOwner",
      "outputs": [
        {
          "internalType": "address",
          "name": "",
          "type": "address"
        }
      ],
      "stateMutability": "view",
      "type": "function"
    },
    {
      "inputs": [
        {
          "internalType": "uint256",
          "name": "",
          "type": "uint256"
        }
      ],
      "name": "cars",
      "outputs": [
        {
          "internalType": "string",
          "name": "model",
          "type": "string"
        },
        {
          "internalType": "uint256",
          "name": "vin",
          "type": "uint256"
        },
        {
          "internalType": "uint256",
          "name": "engineId",
          "type": "uint256"
        },
        {
          "internalType": "uint256",
          "name": "chassisId",
          "type": "uint256"
        },
        {
          "internalType": "uint8",
          "name": "carLevel",
          "type": "uint8"
        },
        {
          "internalType": "uint256",
          "name": "mileage",
          "type": "uint256"
        },
        {
          "internalType": "uint256",
          "name": "winCountOnCurrentLevel",
          "type": "uint256"
        },
        {
          "internalType": "uint256",
          "name": "lossCountOnCurrentLevel",
          "type": "uint256"
        },
        {
          "internalType": "uint256",
          "name": "id",
          "type": "uint256"
        }
      ],
      "stateMutability": "view",
      "type": "function"
    },
    {
      "inputs": [
        {
          "internalType": "uint256",
          "name": "",
          "type": "uint256"
        }
      ],
      "name": "chassis",
      "outputs": [
        {
          "internalType": "uint256",
          "name": "id",
          "type": "uint256"
        },
        {
          "internalType": "uint32",
          "name": "durability",
          "type": "uint32"
        },
        {
          "internalType": "uint32",
          "name": "resource",
          "type": "uint32"
        }
      ],
      "stateMutability": "view",
      "type": "function"
    },
    {
      "inputs": [
        {
          "internalType": "uint256",
          "name": "",
          "type": "uint256"
        }
      ],
      "name": "chassisToOwner",
      "outputs": [
        {
          "internalType": "address",
          "name": "",
          "type": "address"
        }
      ],
      "stateMutability": "view",
      "type": "function"
    },
    {
      "inputs": [],
      "name": "createFuelStation",
      "outputs": [],
      "stateMutability": "nonpayable",
      "type": "function"
    },
    {
      "inputs": [
        {
          "internalType": "uint256",
          "name": "",
          "type": "uint256"
        }
      ],
      "name": "engineToOwner",
      "outputs": [
        {
          "internalType": "address",
          "name": "",
          "type": "address"
        }
      ],
      "stateMutability": "view",
      "type": "function"
    },
    {
      "inputs": [
        {
          "internalType": "uint256",
          "name": "",
          "type": "uint256"
        }
      ],
      "name": "engines",
      "outputs": [
        {
          "internalType": "uint256",
          "name": "id",
          "type": "uint256"
        },
        {
          "internalType": "uint16",
          "name": "horsePowers",
          "type": "uint16"
        },
        {
          "internalType": "uint8",
          "name": "consumtion",
          "type": "uint8"
        }
      ],
      "stateMutability": "view",
      "type": "function"
    },
    {
      "inputs": [
        {
          "internalType": "uint256",
          "name": "",
          "type": "uint256"
        }
      ],
      "name": "fuelStationToOwner",
      "outputs": [
        {
          "internalType": "address",
          "name": "",
          "type": "address"
        }
      ],
      "stateMutability": "view",
      "type": "function"
    },
    {
      "inputs": [],
      "name": "owner",
      "outputs": [
        {
          "internalType": "address",
          "name": "",
          "type": "address"
        }
      ],
      "stateMutability": "view",
      "type": "function"
    },
    {
      "inputs": [
        {
          "internalType": "address",
          "name": "",
          "type": "address"
        }
      ],
      "name": "ownerCarCount",
      "outputs": [
        {
          "internalType": "uint256",
          "name": "",
          "type": "uint256"
        }
      ],
      "stateMutability": "view",
      "type": "function"
    },
    {
      "inputs": [],
      "name": "renounceOwnership",
      "outputs": [],
      "stateMutability": "nonpayable",
      "type": "function"
    },
    {
      "inputs": [
        {
          "internalType": "uint256",
          "name": "",
          "type": "uint256"
        }
      ],
      "name": "stations",
      "outputs": [
        {
          "internalType": "uint256",
          "name": "id",
          "type": "uint256"
        },
        {
          "internalType": "uint8",
          "name": "capacity",
          "type": "uint8"
        },
        {
          "internalType": "uint8",
          "name": "productionPerHour",
          "type": "uint8"
        },
        {
          "internalType": "uint8",
          "name": "currentFullness",
          "type": "uint8"
        },
        {
          "internalType": "uint256",
          "name": "lastUpdate",
          "type": "uint256"
        }
      ],
      "stateMutability": "view",
      "type": "function"
    },
    {
      "inputs": [
        {
          "internalType": "address",
          "name": "newOwner",
          "type": "address"
        }
      ],
      "name": "transferOwnership",
      "outputs": [],
      "stateMutability": "nonpayable",
      "type": "function"
    },
    {
      "inputs": [
        {
          "internalType": "string",
          "name": "model",
          "type": "string"
        }
      ],
      "name": "createCar",
      "outputs": [],
      "stateMutability": "nonpayable",
      "type": "function"
    }
  ],
  "bytecode": "0x60806040526000805461ffff60a01b191661014f60a21b1790556001600881905560095534801561002f57600080fd5b506100393361007b565b6050600355605b6004556005805460ff1916600a179055620186a06006556201d4c1600755600b80546001908101909155600c805490910181556000526100cb565b600080546001600160a01b038381166001600160a01b0319831681178455604051919092169283917f8be0079c531659141344cd1fd0a4f28419497f9722a3daafe3b4186f6b6457e09190a35050565b611033806100da6000396000f3fe608060405234801561001057600080fd5b50600436106100ea5760003560e01c80638da5cb5b1161008c578063b72c0eea11610066578063b72c0eea14610398578063ede6fbf5146103cc578063f2fde38b146103df578063f7746e36146103f257600080fd5b80638da5cb5b1461031657806392f859db14610327578063b3b29afd1461036a57600080fd5b806344901490116100c85780634490149014610293578063594193d7146102bc5780635dcc4cc6146102e5578063715018a61461030e57600080fd5b80631c5dde0e146100ef578063224370f01461012957806333ca504b14610252575b600080fd5b6101026100fd366004610d47565b61041a565b6040805193845263ffffffff92831660208501529116908201526060015b60405180910390f35b610250600180546040805160a0810182528281526000805460ff600160a01b820481166020808601828152600160a81b90940483168688019081526060870192835263ffffffff421660808801908152898b018b559986529551600389027fb10e2d527612073b26eecdfd717e6a320cf44b4afac2b0732d9fcbe2b7fa0cf681019190915593517fb10e2d527612073b26eecdfd717e6a320cf44b4afac2b0732d9fcbe2b7fa0cf785018054975193518516620100000262ff0000199486166101000261ffff19909916929095169190911796909617919091169190911790935594517fb10e2d527612073b26eecdfd717e6a320cf44b4afac2b0732d9fcbe2b7fa0cf8909501949094559183526002909152902080546001600160a01b03191633179055565b005b61027b610260366004610d47565b600d602052600090815260409020546001600160a01b031681565b6040516001600160a01b039091168152602001610120565b61027b6102a1366004610d47565b600f602052600090815260409020546001600160a01b031681565b61027b6102ca366004610d47565b6002602052600090815260409020546001600160a01b031681565b61027b6102f3366004610d47565b600e602052600090815260409020546001600160a01b031681565b61025061045a565b6000546001600160a01b031661027b565b61033a610335366004610d47565b61046e565b6040805195865260ff9485166020870152928416928501929092529091166060830152608082015260a001610120565b61038a610378366004610d60565b60106020526000908152604090205481565b604051908152602001610120565b6103ab6103a6366004610d47565b6104ba565b6040805193845261ffff909216602084015260ff1690820152606001610120565b6102506103da366004610da6565b6104f7565b6102506103ed366004610d60565b6106c5565b610405610400366004610d47565b610743565b60405161012099989796959493929190610e87565b600c818154811061042a57600080fd5b60009182526020909120600290910201805460019091015490915063ffffffff8082169164010000000090041683565b610462610830565b61046c600061088a565b565b6001818154811061047e57600080fd5b600091825260209091206003909102018054600182015460029092015490925060ff808316926101008104821692620100009091049091169085565b600b81815481106104ca57600080fd5b60009182526020909120600290910201805460019091015490915061ffff81169062010000900460ff1683565b336000908152601060205260409020541561051157600080fd5b60008161051d426108da565b60405160200161052e929190610ef8565b60405160208183030381529060405290506000816040516020016105529190610f27565b6040516020818303038152906040528051906020012060001c9050600061057761096d565b90506000610583610aa1565b600a80546040805161012081018252898152602080820189905291810187905260608101859052600160808201819052600060a0830181905260c0830181905260e083018190526101008301859052908401855593909352825180519495509193600985027fc65a7bb8d6351c1cf70c95a316cc6a92839c986682d98bc35f958f4883f9d2a80192610619928492910190610cae565b506020828101516001830155604080840151600284015560608401516003840155608084015160048401805460ff191660ff90921691909117905560a0840151600584015560c0840151600684015560e08401516007840155610100909301516008909201919091556000838152600d82528281208054336001600160a01b03199091168117909155815260109091529081208054916106b883610f59565b9190505550505050505050565b6106cd610830565b6001600160a01b0381166107375760405162461bcd60e51b815260206004820152602660248201527f4f776e61626c653a206e6577206f776e657220697320746865207a65726f206160448201526564647265737360d01b60648201526084015b60405180910390fd5b6107408161088a565b50565b600a818154811061075357600080fd5b906000526020600020906009020160009150905080600001805461077690610f72565b80601f01602080910402602001604051908101604052809291908181526020018280546107a290610f72565b80156107ef5780601f106107c4576101008083540402835291602001916107ef565b820191906000526020600020905b8154815290600101906020018083116107d257829003601f168201915b50505060018401546002850154600386015460048701546005880154600689015460078a01546008909a01549899959894975092955060ff90911693909289565b6000546001600160a01b0316331461046c5760405162461bcd60e51b815260206004820181905260248201527f4f776e61626c653a2063616c6c6572206973206e6f7420746865206f776e6572604482015260640161072e565b600080546001600160a01b038381166001600160a01b0319831681178455604051919092169283917f8be0079c531659141344cd1fd0a4f28419497f9722a3daafe3b4186f6b6457e09190a35050565b606060006108e783610bd5565b600101905060008167ffffffffffffffff81111561090757610907610d90565b6040519080825280601f01601f191660200182016040528015610931576020820181803683370190505b5090508181016020015b600019016f181899199a1a9b1b9c1cb0b131b232b360811b600a86061a8153600a850494508461093b57509392505050565b6000806003546004546109809190610fac565b61098a9042610fc3565b6003546109979190610fe5565b6008805491925060009190826109ac83610f59565b909155506040805160608101825282815261ffff808616602080840191825260055460ff908116858701908152600b80546001810182556000918252965160029097027f0175b7a638427703f0dbe7bb9bbf987a2551717b34e79f33b5b1008d1fa01db981019790975593517f0175b7a638427703f0dbe7bb9bbf987a2551717b34e79f33b5b1008d1fa01dba90960180549151909216620100000262ffffff1990911695909416949094179290921790925533825260119052908120805492935090610a7883610f59565b90915550506000818152600e6020526040902080546001600160a01b0319163317905592915050565b600080600654600754610ab49190610fac565b610abe9042610fc3565b600654610acb9190610fe5565b600980549192506000919082610ae083610f59565b909155506040805160608101825282815263ffffffff8086166020808401828152848601928352600c80546001810182556000918252955160029096027fdf6966c971051c3d54ec59162606531493a51404a002842f56009d7e5cf4a8c781019690965590517fdf6966c971051c3d54ec59162606531493a51404a002842f56009d7e5cf4a8c89095018054935185166401000000000267ffffffffffffffff1990941695909416949094179190911790915533825260129052908120805492935090610bac83610f59565b90915550506000818152600f6020526040902080546001600160a01b0319163317905592915050565b60008072184f03e93ff9f4daa797ed6e38ed64bf6a1f0160401b8310610c145772184f03e93ff9f4daa797ed6e38ed64bf6a1f0160401b830492506040015b6d04ee2d6d415b85acef81000000008310610c40576d04ee2d6d415b85acef8100000000830492506020015b662386f26fc100008310610c5e57662386f26fc10000830492506010015b6305f5e1008310610c76576305f5e100830492506008015b6127108310610c8a57612710830492506004015b60648310610c9c576064830492506002015b600a8310610ca8576001015b92915050565b828054610cba90610f72565b90600052602060002090601f016020900481019282610cdc5760008555610d22565b82601f10610cf557805160ff1916838001178555610d22565b82800160010185558215610d22579182015b82811115610d22578251825591602001919060010190610d07565b50610d2e929150610d32565b5090565b5b80821115610d2e5760008155600101610d33565b600060208284031215610d5957600080fd5b5035919050565b600060208284031215610d7257600080fd5b81356001600160a01b0381168114610d8957600080fd5b9392505050565b634e487b7160e01b600052604160045260246000fd5b600060208284031215610db857600080fd5b813567ffffffffffffffff80821115610dd057600080fd5b818401915084601f830112610de457600080fd5b813581811115610df657610df6610d90565b604051601f8201601f19908116603f01168101908382118183101715610e1e57610e1e610d90565b81604052828152876020848701011115610e3757600080fd5b826020860160208301376000928101602001929092525095945050505050565b60005b83811015610e72578181015183820152602001610e5a565b83811115610e81576000848401525b50505050565b610120815260008a5180610120840152610ea981610140850160208f01610e57565b602083019a909a52506040810197909752606087019590955260ff93909316608086015260a085019190915260c084015260e0830152610100820152610140601f909201601f19160101919050565b60008351610f0a818460208801610e57565b835190830190610f1e818360208801610e57565b01949350505050565b60008251610f39818460208701610e57565b9190910192915050565b634e487b7160e01b600052601160045260246000fd5b600060018201610f6b57610f6b610f43565b5060010190565b600181811c90821680610f8657607f821691505b602082108103610fa657634e487b7160e01b600052602260045260246000fd5b50919050565b600082821015610fbe57610fbe610f43565b500390565b600082610fe057634e487b7160e01b600052601260045260246000fd5b500690565b60008219821115610ff857610ff8610f43565b50019056fea26469706673582212205a0d01de1a2304a7d07f12a48ff731ca069f556e9cdec85c6aa2de6a416165e564736f6c634300080d0033",
  "immutableReferences": {},
  "source": "// SPDX-License-Identifier: MIT\npragma solidity ^0.8.13;\nimport \"../node_modules/@openzeppelin/contracts/utils/Strings.sol\";\nimport \"../node_modules/@openzeppelin/contracts/access/Ownable.sol\";\nimport \"./FuelStationFactory.sol\";\n\ncontract CarFactory is Ownable, FuelStationFactory {\n\n    uint defaultHorsePowersLow;\n    uint defaultHorsePowersUp;\n   \n    uint8 defaultConsumtion;\n  \n    uint defaultDurabilityLow;\n    uint defaultDurabilityUp; \n\n\n    struct Car {\n        string model;\n        uint vin;\n        uint engineId;\n        uint chassisId;\n        uint8 carLevel;\n        uint mileage;\n        uint winCountOnCurrentLevel;\n        uint lossCountOnCurrentLevel;\n        uint id;\n    }\n\n    struct Engine {\n        uint id;\n        uint16 horsePowers;\n        uint8 consumtion;\n    }\n\n    struct Chassis {\n        uint id;\n        uint32 durability;\n        uint32 resource;\n    }\n\n    uint engineCounter = 1;\n    uint chassisCounter = 1;\n\n    Car[] public cars;\n    Engine[] public engines;\n    Chassis[] public chassis;\n\n    mapping (uint => address) public carToOwner;\n    mapping (uint => address) public engineToOwner;\n    mapping (uint => address) public chassisToOwner;\n\n    mapping (address => uint) public ownerCarCount;\n    mapping (address => uint) ownerEngineCount;\n    mapping (address => uint) ownerChassisCount;\n\n\n    constructor() {\n         defaultHorsePowersLow = 80;\n         defaultHorsePowersUp = 91;\n   \n         defaultConsumtion = 10;\n  \n         defaultDurabilityLow = 100000;\n         defaultDurabilityUp = 120001;\n         engines.push();\n         chassis.push();\n    }\n\n    function createCar(string memory model) public {\n        require(ownerCarCount[msg.sender] == 0);\n\n        //string memory model = \"model\"; //TODO\n        string memory key = string(abi.encodePacked(model,Strings.toString(block.timestamp))); \n        uint vin = uint(keccak256(abi.encodePacked((key))));\n\n        uint engineId = _generateDefaultEngine(); \n        uint chassisId = _generateDefaultChassis();\n\n        uint id = cars.length;\n        cars.push(Car(model, vin, engineId, chassisId, 1, 0, 0, 0, id));\n        carToOwner[id] = msg.sender;\n        ownerCarCount[msg.sender]++;\n    }\n\n\n    function _generateDefaultEngine() private returns (uint){\n        uint16 randHorsePowers = (uint16)(defaultHorsePowersLow + block.timestamp % (defaultHorsePowersUp - defaultHorsePowersLow));\n        // uint16 randConsumtion = (uint16) (defaultConsumtionLow + block.timestamp % (defaultConsumtionUp - defaultConsumtionLow));\n        uint id = engineCounter++;\n        engines.push(Engine(id, randHorsePowers, defaultConsumtion));\n        ownerEngineCount[msg.sender]++;\n        engineToOwner[id] = msg.sender;\n        return id;\n    }\n\n    function _generateDefaultChassis() private returns(uint) {\n        uint32 randDurability = (uint32)(defaultDurabilityLow + block.timestamp % (defaultDurabilityUp - defaultDurabilityLow));\n        uint id = chassisCounter++;\n        chassis.push(Chassis(id, randDurability, randDurability));\n        ownerChassisCount[msg.sender]++;\n        chassisToOwner[id] = msg.sender;\n        return id;\n    }\n\n\n}",
  "sourcePath": "/Users/rdashk/Downloads/isu/DriveSafely/contract/contracts/CarFactory.sol",
  "compiler": {
    "name": "solc",
    "version": "0.8.13+commit.abaa5c0e.Emscripten.clang"
  },
  "schemaVersion": "3.4.11",
  "updatedAt": "2023-01-10T05:31:53.282Z",
  "devdoc": {
    "kind": "dev",
    "methods": {
      "owner()": {
        "details": "Returns the address of the current owner."
      },
      "renounceOwnership()": {
        "details": "Leaves the contract without owner. It will not be possible to call `onlyOwner` functions anymore. Can only be called by the current owner. NOTE: Renouncing ownership will leave the contract without an owner, thereby removing any functionality that is only available to the owner."
      },
      "transferOwnership(address)": {
        "details": "Transfers ownership of the contract to a new account (`newOwner`). Can only be called by the current owner."
      }
    },
    "version": 1
  },
  "userdoc": {
    "kind": "user",
    "methods": {},
    "version": 1
  }
}