{
  "contractName": "CarFactory",
  "abi": [
    {
      "inputs": [],
      "stateMutability": "nonpayable",
      "type": "constructor"
    },
    {
      "inputs": [
        {
          "internalType": "address",
          "name": "",
          "type": "address"
        }
      ],
      "name": "OwnerHasCar",
      "outputs": [
        {
          "internalType": "bool",
          "name": "",
          "type": "bool"
        }
      ],
      "stateMutability": "view",
      "type": "function",
      "constant": true
    },
    {
      "inputs": [
        {
          "internalType": "uint256",
          "name": "",
          "type": "uint256"
        }
      ],
      "name": "carToOwner",
      "outputs": [
        {
          "internalType": "address",
          "name": "",
          "type": "address"
        }
      ],
      "stateMutability": "view",
      "type": "function",
      "constant": true
    },
    {
      "inputs": [
        {
          "internalType": "uint256",
          "name": "",
          "type": "uint256"
        }
      ],
      "name": "cars",
      "outputs": [
        {
          "internalType": "string",
          "name": "model",
          "type": "string"
        },
        {
          "internalType": "bytes32",
          "name": "vin",
          "type": "bytes32"
        },
        {
          "internalType": "uint256",
          "name": "engineId",
          "type": "uint256"
        },
        {
          "internalType": "uint256",
          "name": "chassisId",
          "type": "uint256"
        },
        {
          "internalType": "uint8",
          "name": "carLevel",
          "type": "uint8"
        },
        {
          "internalType": "uint256",
          "name": "mileage",
          "type": "uint256"
        },
        {
          "internalType": "uint256",
          "name": "winCountOnCurrentLevel",
          "type": "uint256"
        },
        {
          "internalType": "uint256",
          "name": "lossCountOnCurrentLevel",
          "type": "uint256"
        }
      ],
      "stateMutability": "view",
      "type": "function",
      "constant": true
    },
    {
      "inputs": [
        {
          "internalType": "uint256",
          "name": "",
          "type": "uint256"
        }
      ],
      "name": "chassis",
      "outputs": [
        {
          "internalType": "uint256",
          "name": "id",
          "type": "uint256"
        },
        {
          "internalType": "uint32",
          "name": "durability",
          "type": "uint32"
        },
        {
          "internalType": "uint32",
          "name": "resource",
          "type": "uint32"
        }
      ],
      "stateMutability": "view",
      "type": "function",
      "constant": true
    },
    {
      "inputs": [
        {
          "internalType": "uint256",
          "name": "",
          "type": "uint256"
        }
      ],
      "name": "chassisToOwner",
      "outputs": [
        {
          "internalType": "address",
          "name": "",
          "type": "address"
        }
      ],
      "stateMutability": "view",
      "type": "function",
      "constant": true
    },
    {
      "inputs": [
        {
          "internalType": "uint256",
          "name": "",
          "type": "uint256"
        }
      ],
      "name": "engineToOwner",
      "outputs": [
        {
          "internalType": "address",
          "name": "",
          "type": "address"
        }
      ],
      "stateMutability": "view",
      "type": "function",
      "constant": true
    },
    {
      "inputs": [
        {
          "internalType": "uint256",
          "name": "",
          "type": "uint256"
        }
      ],
      "name": "engines",
      "outputs": [
        {
          "internalType": "uint256",
          "name": "id",
          "type": "uint256"
        },
        {
          "internalType": "uint16",
          "name": "horsePowers",
          "type": "uint16"
        },
        {
          "internalType": "uint16",
          "name": "consumtion",
          "type": "uint16"
        }
      ],
      "stateMutability": "view",
      "type": "function",
      "constant": true
    },
    {
      "inputs": [],
      "name": "createCar",
      "outputs": [],
      "stateMutability": "nonpayable",
      "type": "function"
    }
  ],
  "bytecode": "0x60806040526000600655600060075534801561001a57600080fd5b50605a600081905550606560018190555060126002819055506015600381905550620186a06004819055506201d4c16005819055506112728061005e6000396000f3fe608060405234801561001057600080fd5b50600436106100885760003560e01c80639f7f9d5e1161005b5780639f7f9d5e1461014f578063b72c0eea1461017f578063e77100d4146101b1578063f7746e36146101bb57610088565b80631c5dde0e1461008d57806333ca504b146100bf57806344901490146100ef5780635dcc4cc61461011f575b600080fd5b6100a760048036038101906100a29190610cb1565b6101f2565b6040516100b693929190610d0c565b60405180910390f35b6100d960048036038101906100d49190610cb1565b61024c565b6040516100e69190610d84565b60405180910390f35b61010960048036038101906101049190610cb1565b61027f565b6040516101169190610d84565b60405180910390f35b61013960048036038101906101349190610cb1565b6102b2565b6040516101469190610d84565b60405180910390f35b61016960048036038101906101649190610dcb565b6102e5565b6040516101769190610e13565b60405180910390f35b61019960048036038101906101949190610cb1565b610305565b6040516101a893929190610e4b565b60405180910390f35b6101b961035b565b005b6101d560048036038101906101d09190610cb1565b610607565b6040516101e9989796959493929190610f50565b60405180910390f35b600a818154811061020257600080fd5b90600052602060002090600202016000915090508060000154908060010160009054906101000a900463ffffffff16908060010160049054906101000a900463ffffffff16905083565b600b6020528060005260406000206000915054906101000a900473ffffffffffffffffffffffffffffffffffffffff1681565b600d6020528060005260406000206000915054906101000a900473ffffffffffffffffffffffffffffffffffffffff1681565b600c6020528060005260406000206000915054906101000a900473ffffffffffffffffffffffffffffffffffffffff1681565b600e6020528060005260406000206000915054906101000a900460ff1681565b6009818154811061031557600080fd5b90600052602060002090600202016000915090508060000154908060010160009054906101000a900461ffff16908060010160029054906101000a900461ffff16905083565b60001515600e60003373ffffffffffffffffffffffffffffffffffffffff1673ffffffffffffffffffffffffffffffffffffffff16815260200190815260200160002060009054906101000a900460ff161515146103b857600080fd5b60006040518060400160405280600581526020017f6d6f64656c00000000000000000000000000000000000000000000000000000081525090506000816103fe426106f4565b60405160200161040f929190611011565b60405160208183030381529060405290506000816040516020016104339190611035565b60405160208183030381529060405280519060200120905060006104556107c2565b90506000610461610931565b9050600060088054905090506008604051806101000160405280888152602001868152602001858152602001848152602001600160ff16815260200160008152602001600081526020016000815250908060018154018082558091505060019003906000526020600020906008020160009091909190915060008201518160000190805190602001906104f5929190610bd3565b5060208201518160010155604082015181600201556060820151816003015560808201518160040160006101000a81548160ff021916908360ff16021790555060a0820151816005015560c0820151816006015560e08201518160070155505033600b600083815260200190815260200160002060006101000a81548173ffffffffffffffffffffffffffffffffffffffff021916908373ffffffffffffffffffffffffffffffffffffffff1602179055506001600e60003373ffffffffffffffffffffffffffffffffffffffff1673ffffffffffffffffffffffffffffffffffffffff16815260200190815260200160002060006101000a81548160ff021916908315150217905550505050505050565b6008818154811061061757600080fd5b906000526020600020906008020160009150905080600001805461063a9061107b565b80601f01602080910402602001604051908101604052809291908181526020018280546106669061107b565b80156106b35780601f10610688576101008083540402835291602001916106b3565b820191906000526020600020905b81548152906001019060200180831161069657829003601f168201915b5050505050908060010154908060020154908060030154908060040160009054906101000a900460ff16908060050154908060060154908060070154905088565b60606000600161070384610a80565b01905060008167ffffffffffffffff811115610722576107216110ac565b5b6040519080825280601f01601f1916602001820160405280156107545781602001600182028036833780820191505090505b509050600082602001820190505b6001156107b7578080600190039150507f3031323334353637383961626364656600000000000000000000000000000000600a86061a8153600a85816107ab576107aa6110db565b5b04945060008503610762575b819350505050919050565b6000806000546001546107d59190611139565b426107e0919061116d565b6000546107ed919061119e565b905060006002546003546108019190611139565b4261080c919061116d565b600254610819919061119e565b9050600060066000815480929190610830906111f4565b919050559050600960405180606001604052808381526020018561ffff1681526020018461ffff1681525090806001815401808255809150506001900390600052602060002090600202016000909190919091506000820151816000015560208201518160010160006101000a81548161ffff021916908361ffff16021790555060408201518160010160026101000a81548161ffff021916908361ffff160217905550505033600c600083815260200190815260200160002060006101000a81548173ffffffffffffffffffffffffffffffffffffffff021916908373ffffffffffffffffffffffffffffffffffffffff16021790555080935050505090565b6000806004546005546109449190611139565b4261094f919061116d565b60045461095c919061119e565b9050600060076000815480929190610973906111f4565b919050559050600a60405180606001604052808381526020018463ffffffff168152602001600063ffffffff1681525090806001815401808255809150506001900390600052602060002090600202016000909190919091506000820151816000015560208201518160010160006101000a81548163ffffffff021916908363ffffffff16021790555060408201518160010160046101000a81548163ffffffff021916908363ffffffff160217905550505033600d600083815260200190815260200160002060006101000a81548173ffffffffffffffffffffffffffffffffffffffff021916908373ffffffffffffffffffffffffffffffffffffffff160217905550809250505090565b600080600090507a184f03e93ff9f4daa797ed6e38ed64bf6a1f0100000000000000008310610ade577a184f03e93ff9f4daa797ed6e38ed64bf6a1f0100000000000000008381610ad457610ad36110db565b5b0492506040810190505b6d04ee2d6d415b85acef81000000008310610b1b576d04ee2d6d415b85acef81000000008381610b1157610b106110db565b5b0492506020810190505b662386f26fc100008310610b4a57662386f26fc100008381610b4057610b3f6110db565b5b0492506010810190505b6305f5e1008310610b73576305f5e1008381610b6957610b686110db565b5b0492506008810190505b6127108310610b98576127108381610b8e57610b8d6110db565b5b0492506004810190505b60648310610bbb5760648381610bb157610bb06110db565b5b0492506002810190505b600a8310610bca576001810190505b80915050919050565b828054610bdf9061107b565b90600052602060002090601f016020900481019282610c015760008555610c48565b82601f10610c1a57805160ff1916838001178555610c48565b82800160010185558215610c48579182015b82811115610c47578251825591602001919060010190610c2c565b5b509050610c559190610c59565b5090565b5b80821115610c72576000816000905550600101610c5a565b5090565b600080fd5b6000819050919050565b610c8e81610c7b565b8114610c9957600080fd5b50565b600081359050610cab81610c85565b92915050565b600060208284031215610cc757610cc6610c76565b5b6000610cd584828501610c9c565b91505092915050565b610ce781610c7b565b82525050565b600063ffffffff82169050919050565b610d0681610ced565b82525050565b6000606082019050610d216000830186610cde565b610d2e6020830185610cfd565b610d3b6040830184610cfd565b949350505050565b600073ffffffffffffffffffffffffffffffffffffffff82169050919050565b6000610d6e82610d43565b9050919050565b610d7e81610d63565b82525050565b6000602082019050610d996000830184610d75565b92915050565b610da881610d63565b8114610db357600080fd5b50565b600081359050610dc581610d9f565b92915050565b600060208284031215610de157610de0610c76565b5b6000610def84828501610db6565b91505092915050565b60008115159050919050565b610e0d81610df8565b82525050565b6000602082019050610e286000830184610e04565b92915050565b600061ffff82169050919050565b610e4581610e2e565b82525050565b6000606082019050610e606000830186610cde565b610e6d6020830185610e3c565b610e7a6040830184610e3c565b949350505050565b600081519050919050565b600082825260208201905092915050565b60005b83811015610ebc578082015181840152602081019050610ea1565b83811115610ecb576000848401525b50505050565b6000601f19601f8301169050919050565b6000610eed82610e82565b610ef78185610e8d565b9350610f07818560208601610e9e565b610f1081610ed1565b840191505092915050565b6000819050919050565b610f2e81610f1b565b82525050565b600060ff82169050919050565b610f4a81610f34565b82525050565b6000610100820190508181036000830152610f6b818b610ee2565b9050610f7a602083018a610f25565b610f876040830189610cde565b610f946060830188610cde565b610fa16080830187610f41565b610fae60a0830186610cde565b610fbb60c0830185610cde565b610fc860e0830184610cde565b9998505050505050505050565b600081905092915050565b6000610feb82610e82565b610ff58185610fd5565b9350611005818560208601610e9e565b80840191505092915050565b600061101d8285610fe0565b91506110298284610fe0565b91508190509392505050565b60006110418284610fe0565b915081905092915050565b7f4e487b7100000000000000000000000000000000000000000000000000000000600052602260045260246000fd5b6000600282049050600182168061109357607f821691505b6020821081036110a6576110a561104c565b5b50919050565b7f4e487b7100000000000000000000000000000000000000000000000000000000600052604160045260246000fd5b7f4e487b7100000000000000000000000000000000000000000000000000000000600052601260045260246000fd5b7f4e487b7100000000000000000000000000000000000000000000000000000000600052601160045260246000fd5b600061114482610c7b565b915061114f83610c7b565b9250828210156111625761116161110a565b5b828203905092915050565b600061117882610c7b565b915061118383610c7b565b925082611193576111926110db565b5b828206905092915050565b60006111a982610c7b565b91506111b483610c7b565b9250827fffffffffffffffffffffffffffffffffffffffffffffffffffffffffffffffff038211156111e9576111e861110a565b5b828201905092915050565b60006111ff82610c7b565b91507fffffffffffffffffffffffffffffffffffffffffffffffffffffffffffffffff82036112315761123061110a565b5b60018201905091905056fea2646970667358221220b87928b72bee023ca10a5049dc6be741745d09b748969472670863c88f4fdf8264736f6c634300080d0033",
  "immutableReferences": {},
  "source": "pragma solidity ^0.8.13;\nimport \"../node_modules/@openzeppelin/contracts/utils/Strings.sol\";\n\ncontract CarFactory {\n\n    uint defaultHorsePowersLow;\n    uint defaultHorsePowersUp;\n   \n    uint defaultConsumtionLow;\n    uint defaultConsumtionUp;\n  \n    uint defaultDurabilityLow;\n    uint defaultDurabilityUp; \n\n    constructor() {\n         defaultHorsePowersLow = 90;\n         defaultHorsePowersUp = 101;\n   \n         defaultConsumtionLow = 18;\n         defaultConsumtionUp = 21;\n  \n         defaultDurabilityLow = 100000;\n         defaultDurabilityUp = 120001; \n    }\n\n    struct Car {\n        string model;\n        bytes32 vin;\n        uint engineId;\n        uint chassisId;\n        uint8 carLevel;\n        uint mileage;\n        uint winCountOnCurrentLevel;\n        uint lossCountOnCurrentLevel;\n    }\n\n    struct Engine {\n        uint id;\n        uint16 horsePowers;\n        uint16 consumtion;\n    }\n\n    struct Chassis {\n        uint id;\n        uint32 durability;\n        uint32 resource;\n    }\n\n    uint engineCounter = 0;\n    uint chassisCounter = 0;\n\n    Car[] public cars;\n    Engine[] public engines;\n    Chassis[] public chassis;\n\n    mapping (uint => address) public carToOwner;\n    mapping (uint => address) public engineToOwner;\n    mapping (uint => address) public chassisToOwner;\n    mapping (address => bool) public OwnerHasCar;\n\n    function createCar() public {\n        require(OwnerHasCar[msg.sender] == false);\n\n        string memory model = \"model\"; //TODO\n        string memory key = string(abi.encodePacked(model,Strings.toString(block.timestamp))); \n        bytes32 vin = keccak256(abi.encodePacked((key)));\n\n        uint engineId = _generateDefaultEngine(); \n        uint chassisId = _generateDefaultChassis();\n\n        uint id = cars.length;\n        cars.push(Car(model, vin, engineId, chassisId, 1, 0, 0, 0));\n        carToOwner[id] = msg.sender;\n        OwnerHasCar[msg.sender] = true;\n    }\n\n\n    function _generateDefaultEngine() private returns (uint){\n        uint16 randHorsePowers = (uint16)(defaultHorsePowersLow + block.timestamp % (defaultHorsePowersUp - defaultHorsePowersLow));\n        uint16 randConsumtion = (uint16) (defaultConsumtionLow + block.timestamp % (defaultConsumtionUp - defaultConsumtionLow));\n        uint id = engineCounter++;\n        engines.push(Engine(id, randHorsePowers, randConsumtion));\n        engineToOwner[id] = msg.sender;\n        return id;\n    }\n\n    function _generateDefaultChassis() private returns(uint) {\n        uint32 randDurability = (uint32)(defaultDurabilityLow + block.timestamp % (defaultDurabilityUp - defaultDurabilityLow));\n        uint id = chassisCounter++;\n        chassis.push(Chassis(id, randDurability, 0));\n        chassisToOwner[id] = msg.sender;\n        return id;\n    }\n\n\n}",
  "sourcePath": "/Users/vvan/Programming/JavaScript/DriveSafely/contract/contracts/CarFactory.sol",
  "compiler": {
    "name": "solc",
    "version": "0.8.13+commit.abaa5c0e.Emscripten.clang"
  },
  "schemaVersion": "3.4.11",
  "updatedAt": "2023-01-07T12:32:38.612Z",
  "networkType": "ethereum",
  "devdoc": {
    "kind": "dev",
    "methods": {},
    "version": 1
  },
  "userdoc": {
    "kind": "user",
    "methods": {},
    "version": 1
  }
}