{
  "contractName": "CarFactory",
  "abi": [
    {
      "inputs": [],
      "stateMutability": "nonpayable",
      "type": "constructor"
    },
    {
      "anonymous": false,
      "inputs": [
        {
          "indexed": true,
          "internalType": "address",
          "name": "previousOwner",
          "type": "address"
        },
        {
          "indexed": true,
          "internalType": "address",
          "name": "newOwner",
          "type": "address"
        }
      ],
      "name": "OwnershipTransferred",
      "type": "event"
    },
    {
      "inputs": [
        {
          "internalType": "uint256",
          "name": "",
          "type": "uint256"
        }
      ],
      "name": "carToOwner",
      "outputs": [
        {
          "internalType": "address",
          "name": "",
          "type": "address"
        }
      ],
      "stateMutability": "view",
      "type": "function",
      "constant": true
    },
    {
      "inputs": [
        {
          "internalType": "uint256",
          "name": "",
          "type": "uint256"
        }
      ],
      "name": "cars",
      "outputs": [
        {
          "internalType": "string",
          "name": "model",
          "type": "string"
        },
        {
          "internalType": "uint256",
          "name": "vin",
          "type": "uint256"
        },
        {
          "internalType": "uint256",
          "name": "engineId",
          "type": "uint256"
        },
        {
          "internalType": "uint256",
          "name": "chassisId",
          "type": "uint256"
        },
        {
          "internalType": "uint8",
          "name": "carLevel",
          "type": "uint8"
        },
        {
          "internalType": "uint256",
          "name": "mileage",
          "type": "uint256"
        },
        {
          "internalType": "uint256",
          "name": "winCountOnCurrentLevel",
          "type": "uint256"
        },
        {
          "internalType": "uint256",
          "name": "lossCountOnCurrentLevel",
          "type": "uint256"
        }
      ],
      "stateMutability": "view",
      "type": "function",
      "constant": true
    },
    {
      "inputs": [
        {
          "internalType": "uint256",
          "name": "",
          "type": "uint256"
        }
      ],
      "name": "chassis",
      "outputs": [
        {
          "internalType": "uint256",
          "name": "id",
          "type": "uint256"
        },
        {
          "internalType": "uint32",
          "name": "durability",
          "type": "uint32"
        },
        {
          "internalType": "uint32",
          "name": "resource",
          "type": "uint32"
        }
      ],
      "stateMutability": "view",
      "type": "function",
      "constant": true
    },
    {
      "inputs": [
        {
          "internalType": "uint256",
          "name": "",
          "type": "uint256"
        }
      ],
      "name": "chassisToOwner",
      "outputs": [
        {
          "internalType": "address",
          "name": "",
          "type": "address"
        }
      ],
      "stateMutability": "view",
      "type": "function",
      "constant": true
    },
    {
      "inputs": [],
      "name": "createFuelStation",
      "outputs": [],
      "stateMutability": "nonpayable",
      "type": "function"
    },
    {
      "inputs": [
        {
          "internalType": "uint256",
          "name": "",
          "type": "uint256"
        }
      ],
      "name": "engineToOwner",
      "outputs": [
        {
          "internalType": "address",
          "name": "",
          "type": "address"
        }
      ],
      "stateMutability": "view",
      "type": "function",
      "constant": true
    },
    {
      "inputs": [
        {
          "internalType": "uint256",
          "name": "",
          "type": "uint256"
        }
      ],
      "name": "engines",
      "outputs": [
        {
          "internalType": "uint256",
          "name": "id",
          "type": "uint256"
        },
        {
          "internalType": "uint16",
          "name": "horsePowers",
          "type": "uint16"
        },
        {
          "internalType": "uint16",
          "name": "consumtion",
          "type": "uint16"
        }
      ],
      "stateMutability": "view",
      "type": "function",
      "constant": true
    },
    {
      "inputs": [
        {
          "internalType": "uint256",
          "name": "",
          "type": "uint256"
        }
      ],
      "name": "fuelStationToOwner",
      "outputs": [
        {
          "internalType": "address",
          "name": "",
          "type": "address"
        }
      ],
      "stateMutability": "view",
      "type": "function",
      "constant": true
    },
    {
      "inputs": [],
      "name": "owner",
      "outputs": [
        {
          "internalType": "address",
          "name": "",
          "type": "address"
        }
      ],
      "stateMutability": "view",
      "type": "function",
      "constant": true
    },
    {
      "inputs": [],
      "name": "renounceOwnership",
      "outputs": [],
      "stateMutability": "nonpayable",
      "type": "function"
    },
    {
      "inputs": [
        {
          "internalType": "uint256",
          "name": "",
          "type": "uint256"
        }
      ],
      "name": "stations",
      "outputs": [
        {
          "internalType": "uint256",
          "name": "id",
          "type": "uint256"
        },
        {
          "internalType": "uint8",
          "name": "capacity",
          "type": "uint8"
        },
        {
          "internalType": "uint8",
          "name": "productionPerHour",
          "type": "uint8"
        }
      ],
      "stateMutability": "view",
      "type": "function",
      "constant": true
    },
    {
      "inputs": [
        {
          "internalType": "address",
          "name": "newOwner",
          "type": "address"
        }
      ],
      "name": "transferOwnership",
      "outputs": [],
      "stateMutability": "nonpayable",
      "type": "function"
    },
    {
      "inputs": [],
      "name": "createCar",
      "outputs": [],
      "stateMutability": "nonpayable",
      "type": "function"
    }
  ],
  "bytecode": "0x6080604052603c600060146101000a81548160ff021916908360ff1602179055506005600060156101000a81548160ff021916908360ff16021790555060006009556000600a5534801561005257600080fd5b5061006f6100646100a860201b60201c565b6100b060201b60201c565b605a600381905550606560048190555060126005819055506015600681905550620186a06007819055506201d4c1600881905550610174565b600033905090565b60008060009054906101000a900473ffffffffffffffffffffffffffffffffffffffff169050816000806101000a81548173ffffffffffffffffffffffffffffffffffffffff021916908373ffffffffffffffffffffffffffffffffffffffff1602179055508173ffffffffffffffffffffffffffffffffffffffff168173ffffffffffffffffffffffffffffffffffffffff167f8be0079c531659141344cd1fd0a4f28419497f9722a3daafe3b4186f6b6457e060405160405180910390a35050565b611845806101836000396000f3fe608060405234801561001057600080fd5b50600436106100cf5760003560e01c8063715018a61161008c578063b72c0eea11610066578063b72c0eea1461022a578063e77100d41461025c578063f2fde38b14610266578063f7746e3614610282576100cf565b8063715018a6146101d05780638da5cb5b146101da57806392f859db146101f8576100cf565b80631c5dde0e146100d4578063224370f01461010657806333ca504b146101105780634490149014610140578063594193d7146101705780635dcc4cc6146101a0575b600080fd5b6100ee60048036038101906100e9919061119e565b6102b9565b6040516100fd939291906111f9565b60405180910390f35b61010e610313565b005b61012a6004803603810190610125919061119e565b610430565b6040516101379190611271565b60405180910390f35b61015a6004803603810190610155919061119e565b610463565b6040516101679190611271565b60405180910390f35b61018a6004803603810190610185919061119e565b610496565b6040516101979190611271565b60405180910390f35b6101ba60048036038101906101b5919061119e565b6104c9565b6040516101c79190611271565b60405180910390f35b6101d86104fc565b005b6101e2610510565b6040516101ef9190611271565b60405180910390f35b610212600480360381019061020d919061119e565b610539565b604051610221939291906112a8565b60405180910390f35b610244600480360381019061023f919061119e565b61058d565b604051610253939291906112fc565b60405180910390f35b6102646105e3565b005b610280600480360381019061027b919061135f565b61087e565b005b61029c6004803603810190610297919061119e565b610901565b6040516102b0989796959493929190611425565b60405180910390f35b600d81815481106102c957600080fd5b90600052602060002090600202016000915090508060000154908060010160009054906101000a900463ffffffff16908060010160049054906101000a900463ffffffff16905083565b60003390506000600180549050905060016040518060600160405280838152602001600060149054906101000a900460ff1660ff168152602001600060159054906101000a900460ff1660ff1681525090806001815401808255809150506001900390600052602060002090600202016000909190919091506000820151816000015560208201518160010160006101000a81548160ff021916908360ff16021790555060408201518160010160016101000a81548160ff021916908360ff1602179055505050816002600083815260200190815260200160002060006101000a81548173ffffffffffffffffffffffffffffffffffffffff021916908373ffffffffffffffffffffffffffffffffffffffff1602179055505050565b600e6020528060005260406000206000915054906101000a900473ffffffffffffffffffffffffffffffffffffffff1681565b60106020528060005260406000206000915054906101000a900473ffffffffffffffffffffffffffffffffffffffff1681565b60026020528060005260406000206000915054906101000a900473ffffffffffffffffffffffffffffffffffffffff1681565b600f6020528060005260406000206000915054906101000a900473ffffffffffffffffffffffffffffffffffffffff1681565b6105046109ee565b61050e6000610a6c565b565b60008060009054906101000a900473ffffffffffffffffffffffffffffffffffffffff16905090565b6001818154811061054957600080fd5b90600052602060002090600202016000915090508060000154908060010160009054906101000a900460ff16908060010160019054906101000a900460ff16905083565b600c818154811061059d57600080fd5b90600052602060002090600202016000915090508060000154908060010160009054906101000a900461ffff16908060010160029054906101000a900461ffff16905083565b6000601160003373ffffffffffffffffffffffffffffffffffffffff1673ffffffffffffffffffffffffffffffffffffffff168152602001908152602001600020541461062f57600080fd5b60006040518060400160405280600581526020017f6d6f64656c000000000000000000000000000000000000000000000000000000815250905060008161067542610b30565b6040516020016106869291906114e6565b60405160208183030381529060405290506000816040516020016106aa919061150a565b6040516020818303038152906040528051906020012060001c905060006106cf610bfe565b905060006106db610dc2565b90506000600b805490509050600b604051806101000160405280888152602001868152602001858152602001848152602001600160ff168152602001600081526020016000815260200160008152509080600181540180825580915050600190039060005260206000209060080201600090919091909150600082015181600001908051906020019061076f9291906110c0565b5060208201518160010155604082015181600201556060820151816003015560808201518160040160006101000a81548160ff021916908360ff16021790555060a0820151816005015560c0820151816006015560e08201518160070155505033600e600083815260200190815260200160002060006101000a81548173ffffffffffffffffffffffffffffffffffffffff021916908373ffffffffffffffffffffffffffffffffffffffff160217905550601160003373ffffffffffffffffffffffffffffffffffffffff1673ffffffffffffffffffffffffffffffffffffffff168152602001908152602001600020600081548092919061087190611550565b9190505550505050505050565b6108866109ee565b600073ffffffffffffffffffffffffffffffffffffffff168173ffffffffffffffffffffffffffffffffffffffff16036108f5576040517f08c379a00000000000000000000000000000000000000000000000000000000081526004016108ec9061160a565b60405180910390fd5b6108fe81610a6c565b50565b600b818154811061091157600080fd5b906000526020600020906008020160009150905080600001805461093490611659565b80601f016020809104026020016040519081016040528092919081815260200182805461096090611659565b80156109ad5780601f10610982576101008083540402835291602001916109ad565b820191906000526020600020905b81548152906001019060200180831161099057829003601f168201915b5050505050908060010154908060020154908060030154908060040160009054906101000a900460ff16908060050154908060060154908060070154905088565b6109f6610f65565b73ffffffffffffffffffffffffffffffffffffffff16610a14610510565b73ffffffffffffffffffffffffffffffffffffffff1614610a6a576040517f08c379a0000000000000000000000000000000000000000000000000000000008152600401610a61906116d6565b60405180910390fd5b565b60008060009054906101000a900473ffffffffffffffffffffffffffffffffffffffff169050816000806101000a81548173ffffffffffffffffffffffffffffffffffffffff021916908373ffffffffffffffffffffffffffffffffffffffff1602179055508173ffffffffffffffffffffffffffffffffffffffff168173ffffffffffffffffffffffffffffffffffffffff167f8be0079c531659141344cd1fd0a4f28419497f9722a3daafe3b4186f6b6457e060405160405180910390a35050565b606060006001610b3f84610f6d565b01905060008167ffffffffffffffff811115610b5e57610b5d6116f6565b5b6040519080825280601f01601f191660200182016040528015610b905781602001600182028036833780820191505090505b509050600082602001820190505b600115610bf3578080600190039150507f3031323334353637383961626364656600000000000000000000000000000000600a86061a8153600a8581610be757610be6611725565b5b04945060008503610b9e575b819350505050919050565b600080600354600454610c119190611754565b42610c1c9190611788565b600354610c2991906117b9565b90506000600554600654610c3d9190611754565b42610c489190611788565b600554610c5591906117b9565b9050600060096000815480929190610c6c90611550565b919050559050600c60405180606001604052808381526020018561ffff1681526020018461ffff1681525090806001815401808255809150506001900390600052602060002090600202016000909190919091506000820151816000015560208201518160010160006101000a81548161ffff021916908361ffff16021790555060408201518160010160026101000a81548161ffff021916908361ffff1602179055505050601260003373ffffffffffffffffffffffffffffffffffffffff1673ffffffffffffffffffffffffffffffffffffffff1681526020019081526020016000206000815480929190610d6290611550565b919050555033600f600083815260200190815260200160002060006101000a81548173ffffffffffffffffffffffffffffffffffffffff021916908373ffffffffffffffffffffffffffffffffffffffff16021790555080935050505090565b600080600754600854610dd59190611754565b42610de09190611788565b600754610ded91906117b9565b90506000600a6000815480929190610e0490611550565b919050559050600d60405180606001604052808381526020018463ffffffff1681526020018463ffffffff1681525090806001815401808255809150506001900390600052602060002090600202016000909190919091506000820151816000015560208201518160010160006101000a81548163ffffffff021916908363ffffffff16021790555060408201518160010160046101000a81548163ffffffff021916908363ffffffff1602179055505050601360003373ffffffffffffffffffffffffffffffffffffffff1673ffffffffffffffffffffffffffffffffffffffff1681526020019081526020016000206000815480929190610f0690611550565b9190505550336010600083815260200190815260200160002060006101000a81548173ffffffffffffffffffffffffffffffffffffffff021916908373ffffffffffffffffffffffffffffffffffffffff160217905550809250505090565b600033905090565b600080600090507a184f03e93ff9f4daa797ed6e38ed64bf6a1f0100000000000000008310610fcb577a184f03e93ff9f4daa797ed6e38ed64bf6a1f0100000000000000008381610fc157610fc0611725565b5b0492506040810190505b6d04ee2d6d415b85acef81000000008310611008576d04ee2d6d415b85acef81000000008381610ffe57610ffd611725565b5b0492506020810190505b662386f26fc10000831061103757662386f26fc10000838161102d5761102c611725565b5b0492506010810190505b6305f5e1008310611060576305f5e100838161105657611055611725565b5b0492506008810190505b612710831061108557612710838161107b5761107a611725565b5b0492506004810190505b606483106110a8576064838161109e5761109d611725565b5b0492506002810190505b600a83106110b7576001810190505b80915050919050565b8280546110cc90611659565b90600052602060002090601f0160209004810192826110ee5760008555611135565b82601f1061110757805160ff1916838001178555611135565b82800160010185558215611135579182015b82811115611134578251825591602001919060010190611119565b5b5090506111429190611146565b5090565b5b8082111561115f576000816000905550600101611147565b5090565b600080fd5b6000819050919050565b61117b81611168565b811461118657600080fd5b50565b60008135905061119881611172565b92915050565b6000602082840312156111b4576111b3611163565b5b60006111c284828501611189565b91505092915050565b6111d481611168565b82525050565b600063ffffffff82169050919050565b6111f3816111da565b82525050565b600060608201905061120e60008301866111cb565b61121b60208301856111ea565b61122860408301846111ea565b949350505050565b600073ffffffffffffffffffffffffffffffffffffffff82169050919050565b600061125b82611230565b9050919050565b61126b81611250565b82525050565b60006020820190506112866000830184611262565b92915050565b600060ff82169050919050565b6112a28161128c565b82525050565b60006060820190506112bd60008301866111cb565b6112ca6020830185611299565b6112d76040830184611299565b949350505050565b600061ffff82169050919050565b6112f6816112df565b82525050565b600060608201905061131160008301866111cb565b61131e60208301856112ed565b61132b60408301846112ed565b949350505050565b61133c81611250565b811461134757600080fd5b50565b60008135905061135981611333565b92915050565b60006020828403121561137557611374611163565b5b60006113838482850161134a565b91505092915050565b600081519050919050565b600082825260208201905092915050565b60005b838110156113c65780820151818401526020810190506113ab565b838111156113d5576000848401525b50505050565b6000601f19601f8301169050919050565b60006113f78261138c565b6114018185611397565b93506114118185602086016113a8565b61141a816113db565b840191505092915050565b6000610100820190508181036000830152611440818b6113ec565b905061144f602083018a6111cb565b61145c60408301896111cb565b61146960608301886111cb565b6114766080830187611299565b61148360a08301866111cb565b61149060c08301856111cb565b61149d60e08301846111cb565b9998505050505050505050565b600081905092915050565b60006114c08261138c565b6114ca81856114aa565b93506114da8185602086016113a8565b80840191505092915050565b60006114f282856114b5565b91506114fe82846114b5565b91508190509392505050565b600061151682846114b5565b915081905092915050565b7f4e487b7100000000000000000000000000000000000000000000000000000000600052601160045260246000fd5b600061155b82611168565b91507fffffffffffffffffffffffffffffffffffffffffffffffffffffffffffffffff820361158d5761158c611521565b5b600182019050919050565b7f4f776e61626c653a206e6577206f776e657220697320746865207a65726f206160008201527f6464726573730000000000000000000000000000000000000000000000000000602082015250565b60006115f4602683611397565b91506115ff82611598565b604082019050919050565b60006020820190508181036000830152611623816115e7565b9050919050565b7f4e487b7100000000000000000000000000000000000000000000000000000000600052602260045260246000fd5b6000600282049050600182168061167157607f821691505b6020821081036116845761168361162a565b5b50919050565b7f4f776e61626c653a2063616c6c6572206973206e6f7420746865206f776e6572600082015250565b60006116c0602083611397565b91506116cb8261168a565b602082019050919050565b600060208201905081810360008301526116ef816116b3565b9050919050565b7f4e487b7100000000000000000000000000000000000000000000000000000000600052604160045260246000fd5b7f4e487b7100000000000000000000000000000000000000000000000000000000600052601260045260246000fd5b600061175f82611168565b915061176a83611168565b92508282101561177d5761177c611521565b5b828203905092915050565b600061179382611168565b915061179e83611168565b9250826117ae576117ad611725565b5b828206905092915050565b60006117c482611168565b91506117cf83611168565b9250827fffffffffffffffffffffffffffffffffffffffffffffffffffffffffffffffff0382111561180457611803611521565b5b82820190509291505056fea26469706673582212206a674a38b4ef406fe8840461b326a88f4bf8f329fd70a2754b064cad3930fd3e64736f6c634300080d0033",
  "immutableReferences": {},
  "source": "pragma solidity ^0.8.13;\nimport \"../node_modules/@openzeppelin/contracts/utils/Strings.sol\";\nimport \"../node_modules/@openzeppelin/contracts/access/Ownable.sol\";\nimport \"./FuelStationFactory.sol\";\n\ncontract CarFactory is Ownable, FuelStationFactory {\n\n    uint defaultHorsePowersLow;\n    uint defaultHorsePowersUp;\n   \n    uint defaultConsumtionLow;\n    uint defaultConsumtionUp;\n  \n    uint defaultDurabilityLow;\n    uint defaultDurabilityUp; \n\n    constructor() {\n         defaultHorsePowersLow = 90;\n         defaultHorsePowersUp = 101;\n   \n         defaultConsumtionLow = 18;\n         defaultConsumtionUp = 21;\n  \n         defaultDurabilityLow = 100000;\n         defaultDurabilityUp = 120001;\n    }\n\n    struct Car {\n        string model;\n        uint vin;\n        uint engineId;\n        uint chassisId;\n        uint8 carLevel;\n        uint mileage;\n        uint winCountOnCurrentLevel;\n        uint lossCountOnCurrentLevel;\n    }\n\n    struct Engine {\n        uint id;\n        uint16 horsePowers;\n        uint16 consumtion;\n    }\n\n    struct Chassis {\n        uint id;\n        uint32 durability;\n        uint32 resource;\n    }\n\n    uint engineCounter = 0;\n    uint chassisCounter = 0;\n\n    Car[] public cars;\n    Engine[] public engines;\n    Chassis[] public chassis;\n\n    mapping (uint => address) public carToOwner;\n    mapping (uint => address) public engineToOwner;\n    mapping (uint => address) public chassisToOwner;\n\n    mapping (address => uint) ownerCarCount;\n    mapping (address => uint) ownerEngineCount;\n    mapping (address => uint) ownerChassisCount;\n\n    function createCar() public {\n        require(ownerCarCount[msg.sender] == 0);\n\n        string memory model = \"model\"; //TODO\n        string memory key = string(abi.encodePacked(model,Strings.toString(block.timestamp))); \n        uint vin = uint(keccak256(abi.encodePacked((key))));\n\n        uint engineId = _generateDefaultEngine(); \n        uint chassisId = _generateDefaultChassis();\n\n        uint id = cars.length;\n        cars.push(Car(model, vin, engineId, chassisId, 1, 0, 0, 0));\n        carToOwner[id] = msg.sender;\n        ownerCarCount[msg.sender]++;\n    }\n\n\n    function _generateDefaultEngine() private returns (uint){\n        uint16 randHorsePowers = (uint16)(defaultHorsePowersLow + block.timestamp % (defaultHorsePowersUp - defaultHorsePowersLow));\n        uint16 randConsumtion = (uint16) (defaultConsumtionLow + block.timestamp % (defaultConsumtionUp - defaultConsumtionLow));\n        uint id = engineCounter++;\n        engines.push(Engine(id, randHorsePowers, randConsumtion));\n        ownerEngineCount[msg.sender]++;\n        engineToOwner[id] = msg.sender;\n        return id;\n    }\n\n    function _generateDefaultChassis() private returns(uint) {\n        uint32 randDurability = (uint32)(defaultDurabilityLow + block.timestamp % (defaultDurabilityUp - defaultDurabilityLow));\n        uint id = chassisCounter++;\n        chassis.push(Chassis(id, randDurability, randDurability));\n        ownerChassisCount[msg.sender]++;\n        chassisToOwner[id] = msg.sender;\n        return id;\n    }\n\n\n}",
  "sourcePath": "/Users/vvan/Programming/JavaScript/DriveSafely/contract/contracts/CarFactory.sol",
  "compiler": {
    "name": "solc",
    "version": "0.8.13+commit.abaa5c0e.Emscripten.clang"
  },
  "schemaVersion": "3.4.11",
  "updatedAt": "2023-01-08T03:48:48.933Z",
  "networkType": "ethereum",
  "devdoc": {
    "kind": "dev",
    "methods": {
      "owner()": {
        "details": "Returns the address of the current owner."
      },
      "renounceOwnership()": {
        "details": "Leaves the contract without owner. It will not be possible to call `onlyOwner` functions anymore. Can only be called by the current owner. NOTE: Renouncing ownership will leave the contract without an owner, thereby removing any functionality that is only available to the owner."
      },
      "transferOwnership(address)": {
        "details": "Transfers ownership of the contract to a new account (`newOwner`). Can only be called by the current owner."
      }
    },
    "version": 1
  },
  "userdoc": {
    "kind": "user",
    "methods": {},
    "version": 1
  }
}