{
  "contractName": "CarFactory",
  "abi": [
    {
      "inputs": [],
      "stateMutability": "nonpayable",
      "type": "constructor"
    },
    {
      "anonymous": false,
      "inputs": [
        {
          "indexed": true,
          "internalType": "address",
          "name": "previousOwner",
          "type": "address"
        },
        {
          "indexed": true,
          "internalType": "address",
          "name": "newOwner",
          "type": "address"
        }
      ],
      "name": "OwnershipTransferred",
      "type": "event"
    },
    {
      "inputs": [
        {
          "internalType": "uint256",
          "name": "",
          "type": "uint256"
        }
      ],
      "name": "carToOwner",
      "outputs": [
        {
          "internalType": "address",
          "name": "",
          "type": "address"
        }
      ],
      "stateMutability": "view",
      "type": "function"
    },
    {
      "inputs": [
        {
          "internalType": "uint256",
          "name": "",
          "type": "uint256"
        }
      ],
      "name": "carToPrice",
      "outputs": [
        {
          "internalType": "uint256",
          "name": "",
          "type": "uint256"
        }
      ],
      "stateMutability": "view",
      "type": "function"
    },
    {
      "inputs": [
        {
          "internalType": "uint256",
          "name": "",
          "type": "uint256"
        }
      ],
      "name": "cars",
      "outputs": [
        {
          "internalType": "string",
          "name": "model",
          "type": "string"
        },
        {
          "internalType": "uint256",
          "name": "vin",
          "type": "uint256"
        },
        {
          "internalType": "uint256",
          "name": "engineId",
          "type": "uint256"
        },
        {
          "internalType": "uint256",
          "name": "chassisId",
          "type": "uint256"
        },
        {
          "internalType": "uint8",
          "name": "carLevel",
          "type": "uint8"
        },
        {
          "internalType": "uint256",
          "name": "mileage",
          "type": "uint256"
        },
        {
          "internalType": "uint256",
          "name": "winCountOnCurrentLevel",
          "type": "uint256"
        },
        {
          "internalType": "uint256",
          "name": "lossCountOnCurrentLevel",
          "type": "uint256"
        },
        {
          "internalType": "uint256",
          "name": "id",
          "type": "uint256"
        }
      ],
      "stateMutability": "view",
      "type": "function"
    },
    {
      "inputs": [],
      "name": "carsForSaleCount",
      "outputs": [
        {
          "internalType": "uint256",
          "name": "",
          "type": "uint256"
        }
      ],
      "stateMutability": "view",
      "type": "function"
    },
    {
      "inputs": [
        {
          "internalType": "uint256",
          "name": "",
          "type": "uint256"
        }
      ],
      "name": "chassis",
      "outputs": [
        {
          "internalType": "uint256",
          "name": "id",
          "type": "uint256"
        },
        {
          "internalType": "uint32",
          "name": "durability",
          "type": "uint32"
        },
        {
          "internalType": "uint32",
          "name": "resource",
          "type": "uint32"
        }
      ],
      "stateMutability": "view",
      "type": "function"
    },
    {
      "inputs": [],
      "name": "chassisForSaleCount",
      "outputs": [
        {
          "internalType": "uint256",
          "name": "",
          "type": "uint256"
        }
      ],
      "stateMutability": "view",
      "type": "function"
    },
    {
      "inputs": [
        {
          "internalType": "uint256",
          "name": "",
          "type": "uint256"
        }
      ],
      "name": "chassisToOwner",
      "outputs": [
        {
          "internalType": "address",
          "name": "",
          "type": "address"
        }
      ],
      "stateMutability": "view",
      "type": "function"
    },
    {
      "inputs": [
        {
          "internalType": "uint256",
          "name": "",
          "type": "uint256"
        }
      ],
      "name": "chassisToPrice",
      "outputs": [
        {
          "internalType": "uint256",
          "name": "",
          "type": "uint256"
        }
      ],
      "stateMutability": "view",
      "type": "function"
    },
    {
      "inputs": [],
      "name": "createFuelStation",
      "outputs": [],
      "stateMutability": "nonpayable",
      "type": "function"
    },
    {
      "inputs": [
        {
          "internalType": "uint256",
          "name": "",
          "type": "uint256"
        }
      ],
      "name": "engineToOwner",
      "outputs": [
        {
          "internalType": "address",
          "name": "",
          "type": "address"
        }
      ],
      "stateMutability": "view",
      "type": "function"
    },
    {
      "inputs": [
        {
          "internalType": "uint256",
          "name": "",
          "type": "uint256"
        }
      ],
      "name": "engineToPrice",
      "outputs": [
        {
          "internalType": "uint256",
          "name": "",
          "type": "uint256"
        }
      ],
      "stateMutability": "view",
      "type": "function"
    },
    {
      "inputs": [
        {
          "internalType": "uint256",
          "name": "",
          "type": "uint256"
        }
      ],
      "name": "engines",
      "outputs": [
        {
          "internalType": "uint256",
          "name": "id",
          "type": "uint256"
        },
        {
          "internalType": "uint16",
          "name": "horsePowers",
          "type": "uint16"
        },
        {
          "internalType": "uint8",
          "name": "consumtion",
          "type": "uint8"
        }
      ],
      "stateMutability": "view",
      "type": "function"
    },
    {
      "inputs": [],
      "name": "enginesForSaleCount",
      "outputs": [
        {
          "internalType": "uint256",
          "name": "",
          "type": "uint256"
        }
      ],
      "stateMutability": "view",
      "type": "function"
    },
    {
      "inputs": [
        {
          "internalType": "uint256",
          "name": "",
          "type": "uint256"
        }
      ],
      "name": "fuelStationToOwner",
      "outputs": [
        {
          "internalType": "address",
          "name": "",
          "type": "address"
        }
      ],
      "stateMutability": "view",
      "type": "function"
    },
    {
      "inputs": [],
      "name": "owner",
      "outputs": [
        {
          "internalType": "address",
          "name": "",
          "type": "address"
        }
      ],
      "stateMutability": "view",
      "type": "function"
    },
    {
      "inputs": [
        {
          "internalType": "address",
          "name": "",
          "type": "address"
        }
      ],
      "name": "ownerCarCount",
      "outputs": [
        {
          "internalType": "uint256",
          "name": "",
          "type": "uint256"
        }
      ],
      "stateMutability": "view",
      "type": "function"
    },
    {
      "inputs": [
        {
          "internalType": "address",
          "name": "",
          "type": "address"
        }
      ],
      "name": "ownerChassisCount",
      "outputs": [
        {
          "internalType": "uint256",
          "name": "",
          "type": "uint256"
        }
      ],
      "stateMutability": "view",
      "type": "function"
    },
    {
      "inputs": [
        {
          "internalType": "address",
          "name": "",
          "type": "address"
        }
      ],
      "name": "ownerEngineCount",
      "outputs": [
        {
          "internalType": "uint256",
          "name": "",
          "type": "uint256"
        }
      ],
      "stateMutability": "view",
      "type": "function"
    },
    {
      "inputs": [],
      "name": "renounceOwnership",
      "outputs": [],
      "stateMutability": "nonpayable",
      "type": "function"
    },
    {
      "inputs": [
        {
          "internalType": "uint256",
          "name": "",
          "type": "uint256"
        }
      ],
      "name": "stations",
      "outputs": [
        {
          "internalType": "uint256",
          "name": "id",
          "type": "uint256"
        },
        {
          "internalType": "uint8",
          "name": "capacity",
          "type": "uint8"
        },
        {
          "internalType": "uint8",
          "name": "productionPerHour",
          "type": "uint8"
        },
        {
          "internalType": "uint8",
          "name": "currentFullness",
          "type": "uint8"
        },
        {
          "internalType": "uint256",
          "name": "lastUpdate",
          "type": "uint256"
        }
      ],
      "stateMutability": "view",
      "type": "function"
    },
    {
      "inputs": [
        {
          "internalType": "address",
          "name": "newOwner",
          "type": "address"
        }
      ],
      "name": "transferOwnership",
      "outputs": [],
      "stateMutability": "nonpayable",
      "type": "function"
    },
    {
      "inputs": [
        {
          "internalType": "string",
          "name": "model",
          "type": "string"
        }
      ],
      "name": "createCar",
      "outputs": [],
      "stateMutability": "nonpayable",
      "type": "function"
    },
    {
      "inputs": [
        {
          "internalType": "string",
          "name": "_model",
          "type": "string"
        },
        {
          "internalType": "uint16",
          "name": "_horsePowers",
          "type": "uint16"
        },
        {
          "internalType": "uint8",
          "name": "_consumtion",
          "type": "uint8"
        },
        {
          "internalType": "uint32",
          "name": "_durability",
          "type": "uint32"
        },
        {
          "internalType": "uint8",
          "name": "_carLevel",
          "type": "uint8"
        },
        {
          "internalType": "uint256",
          "name": "_carPrice",
          "type": "uint256"
        }
      ],
      "name": "createCustomCar",
      "outputs": [],
      "stateMutability": "nonpayable",
      "type": "function"
    },
    {
      "inputs": [
        {
          "internalType": "uint16",
          "name": "_horsePowers",
          "type": "uint16"
        },
        {
          "internalType": "uint8",
          "name": "_consumtion",
          "type": "uint8"
        },
        {
          "internalType": "uint256",
          "name": "_enginePrice",
          "type": "uint256"
        }
      ],
      "name": "createCustomEngine",
      "outputs": [
        {
          "internalType": "uint256",
          "name": "",
          "type": "uint256"
        }
      ],
      "stateMutability": "nonpayable",
      "type": "function"
    },
    {
      "inputs": [
        {
          "internalType": "uint32",
          "name": "_durability",
          "type": "uint32"
        },
        {
          "internalType": "uint256",
          "name": "_chassisPrice",
          "type": "uint256"
        }
      ],
      "name": "createCustomChassis",
      "outputs": [
        {
          "internalType": "uint256",
          "name": "",
          "type": "uint256"
        }
      ],
      "stateMutability": "nonpayable",
      "type": "function"
    }
  ],
  "bytecode": "0x60806040526000805461ffff60a01b191661014f60a21b17815560088190556009819055600a556001600b819055600c5534801561003c57600080fd5b5061004633610088565b6050600355605b6004556005805460ff1916600a179055620186a06006556201d4c1600755600e80546001908101909155600f805490910181556000526100d8565b600080546001600160a01b038381166001600160a01b0319831681178455604051919092169283917f8be0079c531659141344cd1fd0a4f28419497f9722a3daafe3b4186f6b6457e09190a35050565b6117a3806100e76000396000f3fe608060405234801561001057600080fd5b50600436106101735760003560e01c80638da5cb5b116100de578063bfcc971611610097578063f2fde38b11610071578063f2fde38b14610529578063f7746e361461053c578063f85993b914610564578063fb33250f1461058457600080fd5b8063bfcc9716146104f0578063d7086fab14610503578063ede6fbf51461051657600080fd5b80638da5cb5b1461041f57806392f859db14610430578063982b691c14610473578063aa11b6811461047c578063b3b29afd1461049c578063b72c0eea146104bc57600080fd5b80634490149011610130578063449014901461035c578063594193d7146103855780635dcc4cc6146103ae578063715018a6146103d75780637fb2aa4d146103df57806387766019146103ff57600080fd5b80630a0176fc146101785780630c0cd532146101ab5780631702bf42146101b45780631c5dde0e146101bd578063224370f0146101f257806333ca504b1461031b575b600080fd5b610198610186366004611383565b60186020526000908152604090205481565b6040519081526020015b60405180910390f35b610198600a5481565b61019860085481565b6101d06101cb366004611383565b610597565b6040805193845263ffffffff92831660208501529116908201526060016101a2565b610319600180546040805160a0810182528281526000805460ff600160a01b820481166020808601828152600160a81b90940483168688019081526060870192835263ffffffff421660808801908152898b018b559986529551600389027fb10e2d527612073b26eecdfd717e6a320cf44b4afac2b0732d9fcbe2b7fa0cf681019190915593517fb10e2d527612073b26eecdfd717e6a320cf44b4afac2b0732d9fcbe2b7fa0cf785018054975193518516620100000262ff0000199486166101000261ffff19909916929095169190911796909617919091169190911790935594517fb10e2d527612073b26eecdfd717e6a320cf44b4afac2b0732d9fcbe2b7fa0cf8909501949094559183526002909152902080546001600160a01b03191633179055565b005b610344610329366004611383565b6010602052600090815260409020546001600160a01b031681565b6040516001600160a01b0390911681526020016101a2565b61034461036a366004611383565b6012602052600090815260409020546001600160a01b031681565b610344610393366004611383565b6002602052600090815260409020546001600160a01b031681565b6103446103bc366004611383565b6011602052600090815260409020546001600160a01b031681565b6103196105d7565b6101986103ed36600461139c565b60146020526000908152604090205481565b61019861040d36600461139c565b60156020526000908152604090205481565b6000546001600160a01b0316610344565b61044361043e366004611383565b6105eb565b6040805195865260ff9485166020870152928416928501929092529091166060830152608082015260a0016101a2565b61019860095481565b61019861048a366004611383565b60166020526000908152604090205481565b6101986104aa36600461139c565b60136020526000908152604090205481565b6104cf6104ca366004611383565b610637565b6040805193845261ffff909216602084015260ff16908201526060016101a2565b6101986104fe3660046113de565b610674565b61019861051136600461142b565b6107ca565b61031961052436600461150a565b610939565b61031961053736600461139c565b610b07565b61054f61054a366004611383565b610b85565b6040516101a29998979695949392919061156f565b610198610572366004611383565b60176020526000908152604090205481565b6103196105923660046115e0565b610c72565b600f81815481106105a757600080fd5b60009182526020909120600290910201805460019091015490915063ffffffff8082169164010000000090041683565b6105df610e6c565b6105e96000610ec6565b565b600181815481106105fb57600080fd5b600091825260209091206003909102018054600182015460029092015490925060ff808316926101008104821692620100009091049091169085565b600e818154811061064757600080fd5b60009182526020909120600290910201805460019091015490915061ffff81169062010000900460ff1683565b600061067e610e6c565b600c80546000918261068f8361167e565b909155506040805160608101825282815263ffffffff8781166020808401828152848601928352600f80546001810182556000918252955160029096027f8d1108e10bcb7c27dddfc02ed9d693a074039d026cf4ea4240b40f7d581ac80281019690965590517f8d1108e10bcb7c27dddfc02ed9d693a074039d026cf4ea4240b40f7d581ac8039095018054935185166401000000000267ffffffffffffffff1990941695909416949094179190911790915581546001600160a01b03168252601590529081208054929350906107658361167e565b9091555050600080548282526012602052604090912080546001600160a01b0319166001600160a01b0390921691909117905582156107c357600081815260186020526040812084905560098054916107bd8361167e565b91905055505b9392505050565b60006107d4610e6c565b600b8054600091826107e58361167e565b909155506040805160608101825282815261ffff8089166020830190815260ff808a16948401948552600e80546001810182556000918252945160029095027fbb7b4a454dc3493923482f07822329ed19e8244eff582cc204f8554c3620c3fd81019590955591517fbb7b4a454dc3493923482f07822329ed19e8244eff582cc204f8554c3620c3fe90940180549551909116620100000262ffffff199095169390921692909217929092179091559091506014906108ac6000546001600160a01b031690565b6001600160a01b03168152602081019190915260400160009081208054916108d38361167e565b9091555050600080548282526011602052604090912080546001600160a01b0319166001600160a01b039092169190911790558215610931576000818152601760205260408120849055600a80549161092b8361167e565b91905055505b949350505050565b336000908152601360205260409020541561095357600080fd5b60008161095f42610f16565b604051602001610970929190611697565b604051602081830303815290604052905060008160405160200161099491906116c6565b6040516020818303038152906040528051906020012060001c905060006109b9610fa9565b905060006109c56110dd565b600d80546040805161012081018252898152602080820189905291810187905260608101859052600160808201819052600060a0830181905260c0830181905260e083018190526101008301859052908401855593909352825180519495509193600985027fd7b6990105719101dabeb77144f2a3385c8033acd3af97e9423a695e81ad1eb50192610a5b9284929101906112ea565b506020828101516001830155604080840151600284015560608401516003840155608084015160048401805460ff191660ff90921691909117905560a0840151600584015560c0840151600684015560e08401516007840155610100909301516008909201919091556000838152601082528281208054336001600160a01b0319909116811790915581526013909152908120805491610afa8361167e565b9190505550505050505050565b610b0f610e6c565b6001600160a01b038116610b795760405162461bcd60e51b815260206004820152602660248201527f4f776e61626c653a206e6577206f776e657220697320746865207a65726f206160448201526564647265737360d01b60648201526084015b60405180910390fd5b610b8281610ec6565b50565b600d8181548110610b9557600080fd5b9060005260206000209060090201600091509050806000018054610bb8906116e2565b80601f0160208091040260200160405190810160405280929190818152602001828054610be4906116e2565b8015610c315780601f10610c0657610100808354040283529160200191610c31565b820191906000526020600020905b815481529060010190602001808311610c1457829003601f168201915b50505060018401546002850154600386015460048701546005880154600689015460078a01546008909a01549899959894975092955060ff90911693909289565b610c7a610e6c565b600086610c8642610f16565b604051602001610c97929190611697565b6040516020818303038152906040529050600081604051602001610cbb91906116c6565b6040516020818303038152906040528051906020012060001c90506000610ce4888860006107ca565b90506000610cf3876000610674565b600d805460408051610120810182528e815260208082018990529181018790526060810185905260ff8b166080820152600060a0820181905260c0820181905260e08201819052610100820184905260018401855593909352825180519495509193600985027fd7b6990105719101dabeb77144f2a3385c8033acd3af97e9423a695e81ad1eb50192610d8a9284929101906112ea565b506020828101516001830155604080840151600284015560608401516003840155608084015160048401805460ff90921660ff1990921691909117905560a0840151600584015560c0840151600684015560e0840151600784015561010090930151600890920191909155600080548482526010835283822080546001600160a01b0319166001600160a01b0392831617905581541681526013909152908120805491610e368361167e565b909155505060008181526016602052604081208790556008805491610e5a8361167e565b91905055505050505050505050505050565b6000546001600160a01b031633146105e95760405162461bcd60e51b815260206004820181905260248201527f4f776e61626c653a2063616c6c6572206973206e6f7420746865206f776e65726044820152606401610b70565b600080546001600160a01b038381166001600160a01b0319831681178455604051919092169283917f8be0079c531659141344cd1fd0a4f28419497f9722a3daafe3b4186f6b6457e09190a35050565b60606000610f2383611211565b600101905060008167ffffffffffffffff811115610f4357610f43611467565b6040519080825280601f01601f191660200182016040528015610f6d576020820181803683370190505b5090508181016020015b600019016f181899199a1a9b1b9c1cb0b131b232b360811b600a86061a8153600a8504945084610f7757509392505050565b600080600354600454610fbc919061171c565b610fc69042611733565b600354610fd39190611755565b600b80549192506000919082610fe88361167e565b909155506040805160608101825282815261ffff808616602080840191825260055460ff908116858701908152600e80546001810182556000918252965160029097027fbb7b4a454dc3493923482f07822329ed19e8244eff582cc204f8554c3620c3fd81019790975593517fbb7b4a454dc3493923482f07822329ed19e8244eff582cc204f8554c3620c3fe90960180549151909216620100000262ffffff19909116959094169490941792909217909255338252601490529081208054929350906110b48361167e565b9091555050600081815260116020526040902080546001600160a01b0319163317905592915050565b6000806006546007546110f0919061171c565b6110fa9042611733565b6006546111079190611755565b600c8054919250600091908261111c8361167e565b909155506040805160608101825282815263ffffffff8086166020808401828152848601928352600f80546001810182556000918252955160029096027f8d1108e10bcb7c27dddfc02ed9d693a074039d026cf4ea4240b40f7d581ac80281019690965590517f8d1108e10bcb7c27dddfc02ed9d693a074039d026cf4ea4240b40f7d581ac8039095018054935185166401000000000267ffffffffffffffff19909416959094169490941791909117909155338252601590529081208054929350906111e88361167e565b9091555050600081815260126020526040902080546001600160a01b0319163317905592915050565b60008072184f03e93ff9f4daa797ed6e38ed64bf6a1f0160401b83106112505772184f03e93ff9f4daa797ed6e38ed64bf6a1f0160401b830492506040015b6d04ee2d6d415b85acef8100000000831061127c576d04ee2d6d415b85acef8100000000830492506020015b662386f26fc10000831061129a57662386f26fc10000830492506010015b6305f5e10083106112b2576305f5e100830492506008015b61271083106112c657612710830492506004015b606483106112d8576064830492506002015b600a83106112e4576001015b92915050565b8280546112f6906116e2565b90600052602060002090601f016020900481019282611318576000855561135e565b82601f1061133157805160ff191683800117855561135e565b8280016001018555821561135e579182015b8281111561135e578251825591602001919060010190611343565b5061136a92915061136e565b5090565b5b8082111561136a576000815560010161136f565b60006020828403121561139557600080fd5b5035919050565b6000602082840312156113ae57600080fd5b81356001600160a01b03811681146107c357600080fd5b803563ffffffff811681146113d957600080fd5b919050565b600080604083850312156113f157600080fd5b6113fa836113c5565b946020939093013593505050565b803561ffff811681146113d957600080fd5b803560ff811681146113d957600080fd5b60008060006060848603121561144057600080fd5b61144984611408565b92506114576020850161141a565b9150604084013590509250925092565b634e487b7160e01b600052604160045260246000fd5b600082601f83011261148e57600080fd5b813567ffffffffffffffff808211156114a9576114a9611467565b604051601f8301601f19908116603f011681019082821181831017156114d1576114d1611467565b816040528381528660208588010111156114ea57600080fd5b836020870160208301376000602085830101528094505050505092915050565b60006020828403121561151c57600080fd5b813567ffffffffffffffff81111561153357600080fd5b6109318482850161147d565b60005b8381101561155a578181015183820152602001611542565b83811115611569576000848401525b50505050565b610120815260008a518061012084015261159181610140850160208f0161153f565b602083019a909a52506040810197909752606087019590955260ff93909316608086015260a085019190915260c084015260e0830152610100820152610140601f909201601f19160101919050565b60008060008060008060c087890312156115f957600080fd5b863567ffffffffffffffff81111561161057600080fd5b61161c89828a0161147d565b96505061162b60208801611408565b94506116396040880161141a565b9350611647606088016113c5565b92506116556080880161141a565b915060a087013590509295509295509295565b634e487b7160e01b600052601160045260246000fd5b60006001820161169057611690611668565b5060010190565b600083516116a981846020880161153f565b8351908301906116bd81836020880161153f565b01949350505050565b600082516116d881846020870161153f565b9190910192915050565b600181811c908216806116f657607f821691505b60208210810361171657634e487b7160e01b600052602260045260246000fd5b50919050565b60008282101561172e5761172e611668565b500390565b60008261175057634e487b7160e01b600052601260045260246000fd5b500690565b6000821982111561176857611768611668565b50019056fea2646970667358221220b390412bdf50b6bc53096ae630aa343e5e080d811eb463ce5773c2089fc2c21764736f6c634300080d0033",
  "immutableReferences": {},
  "source": "// SPDX-License-Identifier: MIT\npragma solidity ^0.8.13;\nimport \"../node_modules/@openzeppelin/contracts/utils/Strings.sol\";\nimport \"../node_modules/@openzeppelin/contracts/access/Ownable.sol\";\nimport \"./FuelStationFactory.sol\";\n\ncontract CarFactory is Ownable, FuelStationFactory {\n\n    uint defaultHorsePowersLow;\n    uint defaultHorsePowersUp;\n   \n    uint8 defaultConsumtion;\n  \n    uint defaultDurabilityLow;\n    uint defaultDurabilityUp; \n\n\n    uint public carsForSaleCount = 0;\n    uint public chassisForSaleCount = 0;\n    uint public enginesForSaleCount = 0;\n\n    struct Car {\n        string model;\n        uint vin;\n        uint engineId;\n        uint chassisId;\n        uint8 carLevel;\n        uint mileage;\n        uint winCountOnCurrentLevel;\n        uint lossCountOnCurrentLevel;\n        uint id;\n    }\n\n    struct Engine {\n        uint id;\n        uint16 horsePowers;\n        uint8 consumtion;\n    }\n\n    struct Chassis {\n        uint id;\n        uint32 durability;\n        uint32 resource;\n    }\n\n    uint engineCounter = 1;\n    uint chassisCounter = 1;\n\n    Car[] public cars;\n    Engine[] public engines;\n    Chassis[] public chassis;\n\n    mapping (uint => address) public carToOwner;\n    mapping (uint => address) public engineToOwner;\n    mapping (uint => address) public chassisToOwner;\n\n    mapping (address => uint) public ownerCarCount;\n    mapping (address => uint) public ownerEngineCount;\n    mapping (address => uint) public ownerChassisCount;\n\n    mapping (uint => uint) public carToPrice;\n    mapping (uint => uint) public engineToPrice;\n    mapping (uint => uint) public chassisToPrice;\n\n\n    constructor() {\n         defaultHorsePowersLow = 80;\n         defaultHorsePowersUp = 91;\n   \n         defaultConsumtion = 10;\n  \n         defaultDurabilityLow = 100000;\n         defaultDurabilityUp = 120001;\n         engines.push();\n         chassis.push();\n    }\n\n    function createCar(string memory model) public {\n        require(ownerCarCount[msg.sender] == 0);\n\n        //string memory model = \"model\"; //TODO\n        string memory key = string(abi.encodePacked(model,Strings.toString(block.timestamp))); \n        uint vin = uint(keccak256(abi.encodePacked((key))));\n\n        uint engineId = _generateDefaultEngine(); \n        uint chassisId = _generateDefaultChassis();\n\n        uint id = cars.length;\n        cars.push(Car(model, vin, engineId, chassisId, 1, 0, 0, 0, id));\n        carToOwner[id] = msg.sender;\n        ownerCarCount[msg.sender]++;\n    }\n\n\n    function _generateDefaultEngine() private returns (uint){\n        uint16 randHorsePowers = (uint16)(defaultHorsePowersLow + block.timestamp % (defaultHorsePowersUp - defaultHorsePowersLow));\n        // uint16 randConsumtion = (uint16) (defaultConsumtionLow + block.timestamp % (defaultConsumtionUp - defaultConsumtionLow));\n        uint id = engineCounter++;\n        engines.push(Engine(id, randHorsePowers, defaultConsumtion));\n        ownerEngineCount[msg.sender]++;\n        engineToOwner[id] = msg.sender;\n        return id;\n    }\n\n    function _generateDefaultChassis() private returns(uint) {\n        uint32 randDurability = (uint32)(defaultDurabilityLow + block.timestamp % (defaultDurabilityUp - defaultDurabilityLow));\n        uint id = chassisCounter++;\n        chassis.push(Chassis(id, randDurability, randDurability));\n        ownerChassisCount[msg.sender]++;\n        chassisToOwner[id] = msg.sender;\n        return id;\n    }\n\n    function createCustomCar(string memory _model, uint16 _horsePowers, uint8 _consumtion, uint32 _durability, uint8 _carLevel, uint _carPrice) external onlyOwner {\n        string memory key = string(abi.encodePacked(_model,Strings.toString(block.timestamp))); \n        uint vin = uint(keccak256(abi.encodePacked((key))));\n\n        uint engineId = createCustomEngine(_horsePowers, _consumtion, 0); \n        uint chassisId = createCustomChassis(_durability, 0);\n\n        uint id = cars.length;\n        cars.push(Car(_model, vin, engineId, chassisId, _carLevel, 0, 0, 0, id));\n        carToOwner[id] = owner();\n        ownerCarCount[owner()]++;\n        carToPrice[id] = _carPrice;\n        carsForSaleCount++;\n    }\n\n    function createCustomEngine(uint16 _horsePowers, uint8 _consumtion, uint _enginePrice) public onlyOwner returns(uint){\n        uint id = engineCounter++;\n        engines.push(Engine(id, _horsePowers, _consumtion));\n        ownerEngineCount[owner()]++;\n        engineToOwner[id] = owner();\n        if (_enginePrice > 0) {\n            engineToPrice[id] = _enginePrice;\n            enginesForSaleCount++;\n        }\n        return id;\n    }\n\n    function createCustomChassis(uint32 _durability, uint _chassisPrice) public onlyOwner returns(uint){\n        uint id = chassisCounter++;\n        chassis.push(Chassis(id, _durability, _durability));\n        ownerChassisCount[owner()]++;\n        chassisToOwner[id] = owner();\n        if (_chassisPrice > 0) {\n            chassisToPrice[id] = _chassisPrice;\n            chassisForSaleCount++;\n        }\n        return id;\n    }\n\n}",
  "sourcePath": "/Users/vvan/Programming/JavaScript/DriveSafely/contract/contracts/CarFactory.sol",
  "compiler": {
    "name": "solc",
    "version": "0.8.13+commit.abaa5c0e.Emscripten.clang"
  },
  "schemaVersion": "3.4.11",
  "updatedAt": "2023-01-12T08:38:04.110Z",
  "networkType": "ethereum",
  "devdoc": {
    "kind": "dev",
    "methods": {
      "owner()": {
        "details": "Returns the address of the current owner."
      },
      "renounceOwnership()": {
        "details": "Leaves the contract without owner. It will not be possible to call `onlyOwner` functions anymore. Can only be called by the current owner. NOTE: Renouncing ownership will leave the contract without an owner, thereby removing any functionality that is only available to the owner."
      },
      "transferOwnership(address)": {
        "details": "Transfers ownership of the contract to a new account (`newOwner`). Can only be called by the current owner."
      }
    },
    "version": 1
  },
  "userdoc": {
    "kind": "user",
    "methods": {},
    "version": 1
  }
}