{
  "contractName": "CarFactory",
  "abi": [
    {
      "inputs": [],
      "stateMutability": "nonpayable",
      "type": "constructor"
    },
    {
      "anonymous": false,
      "inputs": [
        {
          "indexed": true,
          "internalType": "address",
          "name": "previousOwner",
          "type": "address"
        },
        {
          "indexed": true,
          "internalType": "address",
          "name": "newOwner",
          "type": "address"
        }
      ],
      "name": "OwnershipTransferred",
      "type": "event"
    },
    {
      "inputs": [
        {
          "internalType": "uint256",
          "name": "",
          "type": "uint256"
        }
      ],
      "name": "carToOwner",
      "outputs": [
        {
          "internalType": "address",
          "name": "",
          "type": "address"
        }
      ],
      "stateMutability": "view",
      "type": "function"
    },
    {
      "inputs": [
        {
          "internalType": "uint256",
          "name": "",
          "type": "uint256"
        }
      ],
      "name": "carToPrice",
      "outputs": [
        {
          "internalType": "uint256",
          "name": "",
          "type": "uint256"
        }
      ],
      "stateMutability": "view",
      "type": "function"
    },
    {
      "inputs": [
        {
          "internalType": "uint256",
          "name": "",
          "type": "uint256"
        }
      ],
      "name": "cars",
      "outputs": [
        {
          "internalType": "string",
          "name": "model",
          "type": "string"
        },
        {
          "internalType": "uint256",
          "name": "vin",
          "type": "uint256"
        },
        {
          "internalType": "uint256",
          "name": "engineId",
          "type": "uint256"
        },
        {
          "internalType": "uint256",
          "name": "chassisId",
          "type": "uint256"
        },
        {
          "internalType": "uint8",
          "name": "carLevel",
          "type": "uint8"
        },
        {
          "internalType": "uint256",
          "name": "mileage",
          "type": "uint256"
        },
        {
          "internalType": "uint256",
          "name": "winCountOnCurrentLevel",
          "type": "uint256"
        },
        {
          "internalType": "uint256",
          "name": "lossCountOnCurrentLevel",
          "type": "uint256"
        },
        {
          "internalType": "uint256",
          "name": "id",
          "type": "uint256"
        }
      ],
      "stateMutability": "view",
      "type": "function"
    },
    {
      "inputs": [
        {
          "internalType": "uint256",
          "name": "",
          "type": "uint256"
        }
      ],
      "name": "chassis",
      "outputs": [
        {
          "internalType": "uint256",
          "name": "id",
          "type": "uint256"
        },
        {
          "internalType": "uint32",
          "name": "durability",
          "type": "uint32"
        },
        {
          "internalType": "uint32",
          "name": "resource",
          "type": "uint32"
        }
      ],
      "stateMutability": "view",
      "type": "function"
    },
    {
      "inputs": [
        {
          "internalType": "uint256",
          "name": "",
          "type": "uint256"
        }
      ],
      "name": "chassisToOwner",
      "outputs": [
        {
          "internalType": "address",
          "name": "",
          "type": "address"
        }
      ],
      "stateMutability": "view",
      "type": "function"
    },
    {
      "inputs": [
        {
          "internalType": "uint256",
          "name": "",
          "type": "uint256"
        }
      ],
      "name": "chassisToPrice",
      "outputs": [
        {
          "internalType": "uint256",
          "name": "",
          "type": "uint256"
        }
      ],
      "stateMutability": "view",
      "type": "function"
    },
    {
      "inputs": [],
      "name": "createFuelStation",
      "outputs": [],
      "stateMutability": "nonpayable",
      "type": "function"
    },
    {
      "inputs": [
        {
          "internalType": "uint256",
          "name": "",
          "type": "uint256"
        }
      ],
      "name": "engineToOwner",
      "outputs": [
        {
          "internalType": "address",
          "name": "",
          "type": "address"
        }
      ],
      "stateMutability": "view",
      "type": "function"
    },
    {
      "inputs": [
        {
          "internalType": "uint256",
          "name": "",
          "type": "uint256"
        }
      ],
      "name": "engineToPrice",
      "outputs": [
        {
          "internalType": "uint256",
          "name": "",
          "type": "uint256"
        }
      ],
      "stateMutability": "view",
      "type": "function"
    },
    {
      "inputs": [
        {
          "internalType": "uint256",
          "name": "",
          "type": "uint256"
        }
      ],
      "name": "engines",
      "outputs": [
        {
          "internalType": "uint256",
          "name": "id",
          "type": "uint256"
        },
        {
          "internalType": "uint16",
          "name": "horsePowers",
          "type": "uint16"
        },
        {
          "internalType": "uint8",
          "name": "consumtion",
          "type": "uint8"
        }
      ],
      "stateMutability": "view",
      "type": "function"
    },
    {
      "inputs": [
        {
          "internalType": "uint256",
          "name": "",
          "type": "uint256"
        }
      ],
      "name": "fuelStationToOwner",
      "outputs": [
        {
          "internalType": "address",
          "name": "",
          "type": "address"
        }
      ],
      "stateMutability": "view",
      "type": "function"
    },
    {
      "inputs": [],
      "name": "owner",
      "outputs": [
        {
          "internalType": "address",
          "name": "",
          "type": "address"
        }
      ],
      "stateMutability": "view",
      "type": "function"
    },
    {
      "inputs": [
        {
          "internalType": "address",
          "name": "",
          "type": "address"
        }
      ],
      "name": "ownerCarCount",
      "outputs": [
        {
          "internalType": "uint256",
          "name": "",
          "type": "uint256"
        }
      ],
      "stateMutability": "view",
      "type": "function"
    },
    {
      "inputs": [
        {
          "internalType": "address",
          "name": "",
          "type": "address"
        }
      ],
      "name": "ownerChassisCount",
      "outputs": [
        {
          "internalType": "uint256",
          "name": "",
          "type": "uint256"
        }
      ],
      "stateMutability": "view",
      "type": "function"
    },
    {
      "inputs": [
        {
          "internalType": "address",
          "name": "",
          "type": "address"
        }
      ],
      "name": "ownerEngineCount",
      "outputs": [
        {
          "internalType": "uint256",
          "name": "",
          "type": "uint256"
        }
      ],
      "stateMutability": "view",
      "type": "function"
    },
    {
      "inputs": [],
      "name": "renounceOwnership",
      "outputs": [],
      "stateMutability": "nonpayable",
      "type": "function"
    },
    {
      "inputs": [
        {
          "internalType": "uint256",
          "name": "",
          "type": "uint256"
        }
      ],
      "name": "stations",
      "outputs": [
        {
          "internalType": "uint256",
          "name": "id",
          "type": "uint256"
        },
        {
          "internalType": "uint8",
          "name": "capacity",
          "type": "uint8"
        },
        {
          "internalType": "uint8",
          "name": "productionPerHour",
          "type": "uint8"
        },
        {
          "internalType": "uint8",
          "name": "currentFullness",
          "type": "uint8"
        },
        {
          "internalType": "uint256",
          "name": "lastUpdate",
          "type": "uint256"
        }
      ],
      "stateMutability": "view",
      "type": "function"
    },
    {
      "inputs": [
        {
          "internalType": "address",
          "name": "newOwner",
          "type": "address"
        }
      ],
      "name": "transferOwnership",
      "outputs": [],
      "stateMutability": "nonpayable",
      "type": "function"
    },
    {
      "inputs": [
        {
          "internalType": "string",
          "name": "model",
          "type": "string"
        }
      ],
      "name": "createCar",
      "outputs": [],
      "stateMutability": "nonpayable",
      "type": "function"
    },
    {
      "inputs": [
        {
          "internalType": "string",
          "name": "_model",
          "type": "string"
        },
        {
          "internalType": "uint16",
          "name": "_horsePowers",
          "type": "uint16"
        },
        {
          "internalType": "uint8",
          "name": "_consumtion",
          "type": "uint8"
        },
        {
          "internalType": "uint32",
          "name": "_durability",
          "type": "uint32"
        },
        {
          "internalType": "uint8",
          "name": "_carLevel",
          "type": "uint8"
        },
        {
          "internalType": "uint256",
          "name": "_carPrice",
          "type": "uint256"
        }
      ],
      "name": "createCustomCar",
      "outputs": [],
      "stateMutability": "nonpayable",
      "type": "function"
    },
    {
      "inputs": [
        {
          "internalType": "uint16",
          "name": "_horsePowers",
          "type": "uint16"
        },
        {
          "internalType": "uint8",
          "name": "_consumtion",
          "type": "uint8"
        },
        {
          "internalType": "uint256",
          "name": "_enginePrice",
          "type": "uint256"
        }
      ],
      "name": "createCustomEngine",
      "outputs": [
        {
          "internalType": "uint256",
          "name": "",
          "type": "uint256"
        }
      ],
      "stateMutability": "nonpayable",
      "type": "function"
    },
    {
      "inputs": [
        {
          "internalType": "uint32",
          "name": "_durability",
          "type": "uint32"
        },
        {
          "internalType": "uint256",
          "name": "_chassisPrice",
          "type": "uint256"
        }
      ],
      "name": "createCustomChassis",
      "outputs": [
        {
          "internalType": "uint256",
          "name": "",
          "type": "uint256"
        }
      ],
      "stateMutability": "nonpayable",
      "type": "function"
    }
  ],
  "bytecode": "0x60806040526000805461ffff60a01b191661014f60a21b1790556001600881905560095534801561002f57600080fd5b506100393361007b565b6050600355605b6004556005805460ff1916600a179055620186a06006556201d4c1600755600b80546001908101909155600c805490910181556000526100cb565b600080546001600160a01b038381166001600160a01b0319831681178455604051919092169283917f8be0079c531659141344cd1fd0a4f28419497f9722a3daafe3b4186f6b6457e09190a35050565b61171d806100da6000396000f3fe608060405234801561001057600080fd5b50600436106101425760003560e01c806392f859db116100b8578063d7086fab1161007c578063d7086fab146104b7578063ede6fbf5146104ca578063f2fde38b146104dd578063f7746e36146104f0578063f85993b914610518578063fb33250f1461053857600080fd5b806392f859db146103ed578063aa11b68114610430578063b3b29afd14610450578063b72c0eea14610470578063bfcc9716146104a457600080fd5b8063594193d71161010a578063594193d7146103425780635dcc4cc61461036b578063715018a6146103945780637fb2aa4d1461039c57806387766019146103bc5780638da5cb5b146103dc57600080fd5b80630a0176fc146101475780631c5dde0e1461017a578063224370f0146101af57806333ca504b146102d85780634490149014610319575b600080fd5b6101676101553660046112fd565b60156020526000908152604090205481565b6040519081526020015b60405180910390f35b61018d6101883660046112fd565b61054b565b6040805193845263ffffffff9283166020850152911690820152606001610171565b6102d6600180546040805160a0810182528281526000805460ff600160a01b820481166020808601828152600160a81b90940483168688019081526060870192835263ffffffff421660808801908152898b018b559986529551600389027fb10e2d527612073b26eecdfd717e6a320cf44b4afac2b0732d9fcbe2b7fa0cf681019190915593517fb10e2d527612073b26eecdfd717e6a320cf44b4afac2b0732d9fcbe2b7fa0cf785018054975193518516620100000262ff0000199486166101000261ffff19909916929095169190911796909617919091169190911790935594517fb10e2d527612073b26eecdfd717e6a320cf44b4afac2b0732d9fcbe2b7fa0cf8909501949094559183526002909152902080546001600160a01b03191633179055565b005b6103016102e63660046112fd565b600d602052600090815260409020546001600160a01b031681565b6040516001600160a01b039091168152602001610171565b6103016103273660046112fd565b600f602052600090815260409020546001600160a01b031681565b6103016103503660046112fd565b6002602052600090815260409020546001600160a01b031681565b6103016103793660046112fd565b600e602052600090815260409020546001600160a01b031681565b6102d661058b565b6101676103aa366004611316565b60116020526000908152604090205481565b6101676103ca366004611316565b60126020526000908152604090205481565b6000546001600160a01b0316610301565b6104006103fb3660046112fd565b61059f565b6040805195865260ff9485166020870152928416928501929092529091166060830152608082015260a001610171565b61016761043e3660046112fd565b60136020526000908152604090205481565b61016761045e366004611316565b60106020526000908152604090205481565b61048361047e3660046112fd565b6105eb565b6040805193845261ffff909216602084015260ff1690820152606001610171565b6101676104b2366004611358565b610628565b6101676104c53660046113a5565b61076b565b6102d66104d8366004611484565b6108c7565b6102d66104eb366004611316565b610a95565b6105036104fe3660046112fd565b610b13565b604051610171999897969594939291906114e9565b6101676105263660046112fd565b60146020526000908152604090205481565b6102d661054636600461155a565b610c00565b600c818154811061055b57600080fd5b60009182526020909120600290910201805460019091015490915063ffffffff8082169164010000000090041683565b610593610de6565b61059d6000610e40565b565b600181815481106105af57600080fd5b600091825260209091206003909102018054600182015460029092015490925060ff808316926101008104821692620100009091049091169085565b600b81815481106105fb57600080fd5b60009182526020909120600290910201805460019091015490915061ffff81169062010000900460ff1683565b6000610632610de6565b6009805460009182610643836115f8565b909155506040805160608101825282815263ffffffff8781166020808401828152848601928352600c80546001810182556000918252955160029096027fdf6966c971051c3d54ec59162606531493a51404a002842f56009d7e5cf4a8c781019690965590517fdf6966c971051c3d54ec59162606531493a51404a002842f56009d7e5cf4a8c89095018054935185166401000000000267ffffffffffffffff1990941695909416949094179190911790915581546001600160a01b0316825260129052908120805492935090610719836115f8565b909155505060008054828252600f602052604090912080546001600160a01b0319166001600160a01b0390921691909117905582156107645760008181526015602052604090208390555b9392505050565b6000610775610de6565b6008805460009182610786836115f8565b909155506040805160608101825282815261ffff8089166020830190815260ff808a16948401948552600b80546001810182556000918252945160029095027f0175b7a638427703f0dbe7bb9bbf987a2551717b34e79f33b5b1008d1fa01db981019590955591517f0175b7a638427703f0dbe7bb9bbf987a2551717b34e79f33b5b1008d1fa01dba90940180549551909116620100000262ffffff1990951693909216929092179290921790915590915060119061084d6000546001600160a01b031690565b6001600160a01b0316815260208101919091526040016000908120805491610874836115f8565b909155505060008054828252600e602052604090912080546001600160a01b0319166001600160a01b0390921691909117905582156108bf5760008181526014602052604090208390555b949350505050565b33600090815260106020526040902054156108e157600080fd5b6000816108ed42610e90565b6040516020016108fe929190611611565b60405160208183030381529060405290506000816040516020016109229190611640565b6040516020818303038152906040528051906020012060001c90506000610947610f23565b90506000610953611057565b600a80546040805161012081018252898152602080820189905291810187905260608101859052600160808201819052600060a0830181905260c0830181905260e083018190526101008301859052908401855593909352825180519495509193600985027fc65a7bb8d6351c1cf70c95a316cc6a92839c986682d98bc35f958f4883f9d2a801926109e9928492910190611264565b506020828101516001830155604080840151600284015560608401516003840155608084015160048401805460ff191660ff90921691909117905560a0840151600584015560c0840151600684015560e08401516007840155610100909301516008909201919091556000838152600d82528281208054336001600160a01b0319909116811790915581526010909152908120805491610a88836115f8565b9190505550505050505050565b610a9d610de6565b6001600160a01b038116610b075760405162461bcd60e51b815260206004820152602660248201527f4f776e61626c653a206e6577206f776e657220697320746865207a65726f206160448201526564647265737360d01b60648201526084015b60405180910390fd5b610b1081610e40565b50565b600a8181548110610b2357600080fd5b9060005260206000209060090201600091509050806000018054610b469061165c565b80601f0160208091040260200160405190810160405280929190818152602001828054610b729061165c565b8015610bbf5780601f10610b9457610100808354040283529160200191610bbf565b820191906000526020600020905b815481529060010190602001808311610ba257829003601f168201915b50505060018401546002850154600386015460048701546005880154600689015460078a01546008909a01549899959894975092955060ff90911693909289565b610c08610de6565b600086610c1442610e90565b604051602001610c25929190611611565b6040516020818303038152906040529050600081604051602001610c499190611640565b6040516020818303038152906040528051906020012060001c90506000610c728888600061076b565b90506000610c81876000610628565b600a805460408051610120810182528e815260208082018990529181018790526060810185905260ff8b166080820152600060a0820181905260c0820181905260e08201819052610100820184905260018401855593909352825180519495509193600985027fc65a7bb8d6351c1cf70c95a316cc6a92839c986682d98bc35f958f4883f9d2a80192610d18928492910190611264565b506020828101516001830155604080840151600284015560608401516003840155608084015160048401805460ff90921660ff1990921691909117905560a0840151600584015560c0840151600684015560e084015160078401556101009093015160089092019190915560008054848252600d835283822080546001600160a01b0319166001600160a01b0392831617905581541681526010909152908120805491610dc4836115f8565b9091555050600090815260136020526040902094909455505050505050505050565b6000546001600160a01b0316331461059d5760405162461bcd60e51b815260206004820181905260248201527f4f776e61626c653a2063616c6c6572206973206e6f7420746865206f776e65726044820152606401610afe565b600080546001600160a01b038381166001600160a01b0319831681178455604051919092169283917f8be0079c531659141344cd1fd0a4f28419497f9722a3daafe3b4186f6b6457e09190a35050565b60606000610e9d8361118b565b600101905060008167ffffffffffffffff811115610ebd57610ebd6113e1565b6040519080825280601f01601f191660200182016040528015610ee7576020820181803683370190505b5090508181016020015b600019016f181899199a1a9b1b9c1cb0b131b232b360811b600a86061a8153600a8504945084610ef157509392505050565b600080600354600454610f369190611696565b610f4090426116ad565b600354610f4d91906116cf565b600880549192506000919082610f62836115f8565b909155506040805160608101825282815261ffff808616602080840191825260055460ff908116858701908152600b80546001810182556000918252965160029097027f0175b7a638427703f0dbe7bb9bbf987a2551717b34e79f33b5b1008d1fa01db981019790975593517f0175b7a638427703f0dbe7bb9bbf987a2551717b34e79f33b5b1008d1fa01dba90960180549151909216620100000262ffffff199091169590941694909417929092179092553382526011905290812080549293509061102e836115f8565b90915550506000818152600e6020526040902080546001600160a01b0319163317905592915050565b60008060065460075461106a9190611696565b61107490426116ad565b60065461108191906116cf565b600980549192506000919082611096836115f8565b909155506040805160608101825282815263ffffffff8086166020808401828152848601928352600c80546001810182556000918252955160029096027fdf6966c971051c3d54ec59162606531493a51404a002842f56009d7e5cf4a8c781019690965590517fdf6966c971051c3d54ec59162606531493a51404a002842f56009d7e5cf4a8c89095018054935185166401000000000267ffffffffffffffff1990941695909416949094179190911790915533825260129052908120805492935090611162836115f8565b90915550506000818152600f6020526040902080546001600160a01b0319163317905592915050565b60008072184f03e93ff9f4daa797ed6e38ed64bf6a1f0160401b83106111ca5772184f03e93ff9f4daa797ed6e38ed64bf6a1f0160401b830492506040015b6d04ee2d6d415b85acef810000000083106111f6576d04ee2d6d415b85acef8100000000830492506020015b662386f26fc10000831061121457662386f26fc10000830492506010015b6305f5e100831061122c576305f5e100830492506008015b612710831061124057612710830492506004015b60648310611252576064830492506002015b600a831061125e576001015b92915050565b8280546112709061165c565b90600052602060002090601f01602090048101928261129257600085556112d8565b82601f106112ab57805160ff19168380011785556112d8565b828001600101855582156112d8579182015b828111156112d85782518255916020019190600101906112bd565b506112e49291506112e8565b5090565b5b808211156112e457600081556001016112e9565b60006020828403121561130f57600080fd5b5035919050565b60006020828403121561132857600080fd5b81356001600160a01b038116811461076457600080fd5b803563ffffffff8116811461135357600080fd5b919050565b6000806040838503121561136b57600080fd5b6113748361133f565b946020939093013593505050565b803561ffff8116811461135357600080fd5b803560ff8116811461135357600080fd5b6000806000606084860312156113ba57600080fd5b6113c384611382565b92506113d160208501611394565b9150604084013590509250925092565b634e487b7160e01b600052604160045260246000fd5b600082601f83011261140857600080fd5b813567ffffffffffffffff80821115611423576114236113e1565b604051601f8301601f19908116603f0116810190828211818310171561144b5761144b6113e1565b8160405283815286602085880101111561146457600080fd5b836020870160208301376000602085830101528094505050505092915050565b60006020828403121561149657600080fd5b813567ffffffffffffffff8111156114ad57600080fd5b6108bf848285016113f7565b60005b838110156114d45781810151838201526020016114bc565b838111156114e3576000848401525b50505050565b610120815260008a518061012084015261150b81610140850160208f016114b9565b602083019a909a52506040810197909752606087019590955260ff93909316608086015260a085019190915260c084015260e0830152610100820152610140601f909201601f19160101919050565b60008060008060008060c0878903121561157357600080fd5b863567ffffffffffffffff81111561158a57600080fd5b61159689828a016113f7565b9650506115a560208801611382565b94506115b360408801611394565b93506115c16060880161133f565b92506115cf60808801611394565b915060a087013590509295509295509295565b634e487b7160e01b600052601160045260246000fd5b60006001820161160a5761160a6115e2565b5060010190565b600083516116238184602088016114b9565b8351908301906116378183602088016114b9565b01949350505050565b600082516116528184602087016114b9565b9190910192915050565b600181811c9082168061167057607f821691505b60208210810361169057634e487b7160e01b600052602260045260246000fd5b50919050565b6000828210156116a8576116a86115e2565b500390565b6000826116ca57634e487b7160e01b600052601260045260246000fd5b500690565b600082198211156116e2576116e26115e2565b50019056fea2646970667358221220e401d8209f532d01cfd963ed1a2172692afed89d0a91dd4ffd7605e1528ef67064736f6c634300080d0033",
  "immutableReferences": {},
  "source": "// SPDX-License-Identifier: MIT\npragma solidity ^0.8.13;\nimport \"../node_modules/@openzeppelin/contracts/utils/Strings.sol\";\nimport \"../node_modules/@openzeppelin/contracts/access/Ownable.sol\";\nimport \"./FuelStationFactory.sol\";\n\ncontract CarFactory is Ownable, FuelStationFactory {\n\n    uint defaultHorsePowersLow;\n    uint defaultHorsePowersUp;\n   \n    uint8 defaultConsumtion;\n  \n    uint defaultDurabilityLow;\n    uint defaultDurabilityUp; \n\n\n    struct Car {\n        string model;\n        uint vin;\n        uint engineId;\n        uint chassisId;\n        uint8 carLevel;\n        uint mileage;\n        uint winCountOnCurrentLevel;\n        uint lossCountOnCurrentLevel;\n        uint id;\n    }\n\n    struct Engine {\n        uint id;\n        uint16 horsePowers;\n        uint8 consumtion;\n    }\n\n    struct Chassis {\n        uint id;\n        uint32 durability;\n        uint32 resource;\n    }\n\n    uint engineCounter = 1;\n    uint chassisCounter = 1;\n\n    Car[] public cars;\n    Engine[] public engines;\n    Chassis[] public chassis;\n\n    mapping (uint => address) public carToOwner;\n    mapping (uint => address) public engineToOwner;\n    mapping (uint => address) public chassisToOwner;\n\n    mapping (address => uint) public ownerCarCount;\n    mapping (address => uint) public ownerEngineCount;\n    mapping (address => uint) public ownerChassisCount;\n\n    mapping (uint => uint) public carToPrice;\n    mapping (uint => uint) public engineToPrice;\n    mapping (uint => uint) public chassisToPrice;\n\n\n    constructor() {\n         defaultHorsePowersLow = 80;\n         defaultHorsePowersUp = 91;\n   \n         defaultConsumtion = 10;\n  \n         defaultDurabilityLow = 100000;\n         defaultDurabilityUp = 120001;\n         engines.push();\n         chassis.push();\n    }\n\n    function createCar(string memory model) public {\n        require(ownerCarCount[msg.sender] == 0);\n\n        //string memory model = \"model\"; //TODO\n        string memory key = string(abi.encodePacked(model,Strings.toString(block.timestamp))); \n        uint vin = uint(keccak256(abi.encodePacked((key))));\n\n        uint engineId = _generateDefaultEngine(); \n        uint chassisId = _generateDefaultChassis();\n\n        uint id = cars.length;\n        cars.push(Car(model, vin, engineId, chassisId, 1, 0, 0, 0, id));\n        carToOwner[id] = msg.sender;\n        ownerCarCount[msg.sender]++;\n    }\n\n\n    function _generateDefaultEngine() private returns (uint){\n        uint16 randHorsePowers = (uint16)(defaultHorsePowersLow + block.timestamp % (defaultHorsePowersUp - defaultHorsePowersLow));\n        // uint16 randConsumtion = (uint16) (defaultConsumtionLow + block.timestamp % (defaultConsumtionUp - defaultConsumtionLow));\n        uint id = engineCounter++;\n        engines.push(Engine(id, randHorsePowers, defaultConsumtion));\n        ownerEngineCount[msg.sender]++;\n        engineToOwner[id] = msg.sender;\n        return id;\n    }\n\n    function _generateDefaultChassis() private returns(uint) {\n        uint32 randDurability = (uint32)(defaultDurabilityLow + block.timestamp % (defaultDurabilityUp - defaultDurabilityLow));\n        uint id = chassisCounter++;\n        chassis.push(Chassis(id, randDurability, randDurability));\n        ownerChassisCount[msg.sender]++;\n        chassisToOwner[id] = msg.sender;\n        return id;\n    }\n\n    function createCustomCar(string memory _model, uint16 _horsePowers, uint8 _consumtion, uint32 _durability, uint8 _carLevel, uint _carPrice) external onlyOwner {\n        string memory key = string(abi.encodePacked(_model,Strings.toString(block.timestamp))); \n        uint vin = uint(keccak256(abi.encodePacked((key))));\n\n        uint engineId = createCustomEngine(_horsePowers, _consumtion, 0); \n        uint chassisId = createCustomChassis(_durability, 0);\n\n        uint id = cars.length;\n        cars.push(Car(_model, vin, engineId, chassisId, _carLevel, 0, 0, 0, id));\n        carToOwner[id] = owner();\n        ownerCarCount[owner()]++;\n        carToPrice[id] = _carPrice;\n    }\n\n    function createCustomEngine(uint16 _horsePowers, uint8 _consumtion, uint _enginePrice) public onlyOwner returns(uint){\n        uint id = engineCounter++;\n        engines.push(Engine(id, _horsePowers, _consumtion));\n        ownerEngineCount[owner()]++;\n        engineToOwner[id] = owner();\n        if (_enginePrice > 0) {\n            engineToPrice[id] = _enginePrice;\n        }\n        return id;\n    }\n\n    function createCustomChassis(uint32 _durability, uint _chassisPrice) public onlyOwner returns(uint){\n        uint id = chassisCounter++;\n        chassis.push(Chassis(id, _durability, _durability));\n        ownerChassisCount[owner()]++;\n        chassisToOwner[id] = owner();\n        if (_chassisPrice > 0) {\n            chassisToPrice[id] = _chassisPrice;\n        }\n        return id;\n    }\n\n}",
  "sourcePath": "/Users/vvan/Programming/JavaScript/DriveSafely/contract/contracts/CarFactory.sol",
  "compiler": {
    "name": "solc",
    "version": "0.8.13+commit.abaa5c0e.Emscripten.clang"
  },
  "schemaVersion": "3.4.11",
  "updatedAt": "2023-01-11T11:15:32.693Z",
  "networkType": "ethereum",
  "devdoc": {
    "kind": "dev",
    "methods": {
      "owner()": {
        "details": "Returns the address of the current owner."
      },
      "renounceOwnership()": {
        "details": "Leaves the contract without owner. It will not be possible to call `onlyOwner` functions anymore. Can only be called by the current owner. NOTE: Renouncing ownership will leave the contract without an owner, thereby removing any functionality that is only available to the owner."
      },
      "transferOwnership(address)": {
        "details": "Transfers ownership of the contract to a new account (`newOwner`). Can only be called by the current owner."
      }
    },
    "version": 1
  },
  "userdoc": {
    "kind": "user",
    "methods": {},
    "version": 1
  }
}