{
  "contractName": "CarHelper",
  "abi": [
    {
      "anonymous": false,
      "inputs": [
        {
          "indexed": true,
          "internalType": "address",
          "name": "previousOwner",
          "type": "address"
        },
        {
          "indexed": true,
          "internalType": "address",
          "name": "newOwner",
          "type": "address"
        }
      ],
      "name": "OwnershipTransferred",
      "type": "event"
    },
    {
      "inputs": [
        {
          "internalType": "uint256",
          "name": "",
          "type": "uint256"
        }
      ],
      "name": "carToOwner",
      "outputs": [
        {
          "internalType": "address",
          "name": "",
          "type": "address"
        }
      ],
      "stateMutability": "view",
      "type": "function"
    },
    {
      "inputs": [
        {
          "internalType": "uint256",
          "name": "",
          "type": "uint256"
        }
      ],
      "name": "carToPrice",
      "outputs": [
        {
          "internalType": "uint256",
          "name": "",
          "type": "uint256"
        }
      ],
      "stateMutability": "view",
      "type": "function"
    },
    {
      "inputs": [
        {
          "internalType": "uint256",
          "name": "",
          "type": "uint256"
        }
      ],
      "name": "cars",
      "outputs": [
        {
          "internalType": "string",
          "name": "model",
          "type": "string"
        },
        {
          "internalType": "uint256",
          "name": "vin",
          "type": "uint256"
        },
        {
          "internalType": "uint256",
          "name": "engineId",
          "type": "uint256"
        },
        {
          "internalType": "uint256",
          "name": "chassisId",
          "type": "uint256"
        },
        {
          "internalType": "uint8",
          "name": "carLevel",
          "type": "uint8"
        },
        {
          "internalType": "uint256",
          "name": "mileage",
          "type": "uint256"
        },
        {
          "internalType": "uint256",
          "name": "winCountOnCurrentLevel",
          "type": "uint256"
        },
        {
          "internalType": "uint256",
          "name": "lossCountOnCurrentLevel",
          "type": "uint256"
        },
        {
          "internalType": "uint256",
          "name": "id",
          "type": "uint256"
        }
      ],
      "stateMutability": "view",
      "type": "function"
    },
    {
      "inputs": [],
      "name": "carsForSaleCount",
      "outputs": [
        {
          "internalType": "uint256",
          "name": "",
          "type": "uint256"
        }
      ],
      "stateMutability": "view",
      "type": "function"
    },
    {
      "inputs": [
        {
          "internalType": "uint256",
          "name": "",
          "type": "uint256"
        }
      ],
      "name": "chassis",
      "outputs": [
        {
          "internalType": "uint256",
          "name": "id",
          "type": "uint256"
        },
        {
          "internalType": "uint32",
          "name": "durability",
          "type": "uint32"
        },
        {
          "internalType": "uint32",
          "name": "resource",
          "type": "uint32"
        }
      ],
      "stateMutability": "view",
      "type": "function"
    },
    {
      "inputs": [],
      "name": "chassisForSaleCount",
      "outputs": [
        {
          "internalType": "uint256",
          "name": "",
          "type": "uint256"
        }
      ],
      "stateMutability": "view",
      "type": "function"
    },
    {
      "inputs": [
        {
          "internalType": "uint256",
          "name": "",
          "type": "uint256"
        }
      ],
      "name": "chassisToOwner",
      "outputs": [
        {
          "internalType": "address",
          "name": "",
          "type": "address"
        }
      ],
      "stateMutability": "view",
      "type": "function"
    },
    {
      "inputs": [
        {
          "internalType": "uint256",
          "name": "",
          "type": "uint256"
        }
      ],
      "name": "chassisToPrice",
      "outputs": [
        {
          "internalType": "uint256",
          "name": "",
          "type": "uint256"
        }
      ],
      "stateMutability": "view",
      "type": "function"
    },
    {
      "inputs": [
        {
          "internalType": "string",
          "name": "model",
          "type": "string"
        }
      ],
      "name": "createCar",
      "outputs": [],
      "stateMutability": "nonpayable",
      "type": "function"
    },
    {
      "inputs": [
        {
          "internalType": "string",
          "name": "_model",
          "type": "string"
        },
        {
          "internalType": "uint16",
          "name": "_horsePowers",
          "type": "uint16"
        },
        {
          "internalType": "uint8",
          "name": "_consumtion",
          "type": "uint8"
        },
        {
          "internalType": "uint32",
          "name": "_durability",
          "type": "uint32"
        },
        {
          "internalType": "uint8",
          "name": "_carLevel",
          "type": "uint8"
        },
        {
          "internalType": "uint256",
          "name": "_carPrice",
          "type": "uint256"
        }
      ],
      "name": "createCustomCar",
      "outputs": [],
      "stateMutability": "nonpayable",
      "type": "function"
    },
    {
      "inputs": [
        {
          "internalType": "uint32",
          "name": "_durability",
          "type": "uint32"
        },
        {
          "internalType": "uint256",
          "name": "_chassisPrice",
          "type": "uint256"
        }
      ],
      "name": "createCustomChassis",
      "outputs": [
        {
          "internalType": "uint256",
          "name": "",
          "type": "uint256"
        }
      ],
      "stateMutability": "nonpayable",
      "type": "function"
    },
    {
      "inputs": [
        {
          "internalType": "uint16",
          "name": "_horsePowers",
          "type": "uint16"
        },
        {
          "internalType": "uint8",
          "name": "_consumtion",
          "type": "uint8"
        },
        {
          "internalType": "uint256",
          "name": "_enginePrice",
          "type": "uint256"
        }
      ],
      "name": "createCustomEngine",
      "outputs": [
        {
          "internalType": "uint256",
          "name": "",
          "type": "uint256"
        }
      ],
      "stateMutability": "nonpayable",
      "type": "function"
    },
    {
      "inputs": [],
      "name": "createFuelStation",
      "outputs": [],
      "stateMutability": "nonpayable",
      "type": "function"
    },
    {
      "inputs": [
        {
          "internalType": "uint256",
          "name": "",
          "type": "uint256"
        }
      ],
      "name": "engineToOwner",
      "outputs": [
        {
          "internalType": "address",
          "name": "",
          "type": "address"
        }
      ],
      "stateMutability": "view",
      "type": "function"
    },
    {
      "inputs": [
        {
          "internalType": "uint256",
          "name": "",
          "type": "uint256"
        }
      ],
      "name": "engineToPrice",
      "outputs": [
        {
          "internalType": "uint256",
          "name": "",
          "type": "uint256"
        }
      ],
      "stateMutability": "view",
      "type": "function"
    },
    {
      "inputs": [
        {
          "internalType": "uint256",
          "name": "",
          "type": "uint256"
        }
      ],
      "name": "engines",
      "outputs": [
        {
          "internalType": "uint256",
          "name": "id",
          "type": "uint256"
        },
        {
          "internalType": "uint16",
          "name": "horsePowers",
          "type": "uint16"
        },
        {
          "internalType": "uint8",
          "name": "consumtion",
          "type": "uint8"
        }
      ],
      "stateMutability": "view",
      "type": "function"
    },
    {
      "inputs": [],
      "name": "enginesForSaleCount",
      "outputs": [
        {
          "internalType": "uint256",
          "name": "",
          "type": "uint256"
        }
      ],
      "stateMutability": "view",
      "type": "function"
    },
    {
      "inputs": [
        {
          "internalType": "uint256",
          "name": "",
          "type": "uint256"
        }
      ],
      "name": "fuelStationToOwner",
      "outputs": [
        {
          "internalType": "address",
          "name": "",
          "type": "address"
        }
      ],
      "stateMutability": "view",
      "type": "function"
    },
    {
      "inputs": [],
      "name": "owner",
      "outputs": [
        {
          "internalType": "address",
          "name": "",
          "type": "address"
        }
      ],
      "stateMutability": "view",
      "type": "function"
    },
    {
      "inputs": [
        {
          "internalType": "address",
          "name": "",
          "type": "address"
        }
      ],
      "name": "ownerCarCount",
      "outputs": [
        {
          "internalType": "uint256",
          "name": "",
          "type": "uint256"
        }
      ],
      "stateMutability": "view",
      "type": "function"
    },
    {
      "inputs": [
        {
          "internalType": "address",
          "name": "",
          "type": "address"
        }
      ],
      "name": "ownerChassisCount",
      "outputs": [
        {
          "internalType": "uint256",
          "name": "",
          "type": "uint256"
        }
      ],
      "stateMutability": "view",
      "type": "function"
    },
    {
      "inputs": [
        {
          "internalType": "address",
          "name": "",
          "type": "address"
        }
      ],
      "name": "ownerEngineCount",
      "outputs": [
        {
          "internalType": "uint256",
          "name": "",
          "type": "uint256"
        }
      ],
      "stateMutability": "view",
      "type": "function"
    },
    {
      "inputs": [],
      "name": "renounceOwnership",
      "outputs": [],
      "stateMutability": "nonpayable",
      "type": "function"
    },
    {
      "inputs": [
        {
          "internalType": "uint256",
          "name": "",
          "type": "uint256"
        }
      ],
      "name": "stations",
      "outputs": [
        {
          "internalType": "uint256",
          "name": "id",
          "type": "uint256"
        },
        {
          "internalType": "uint8",
          "name": "capacity",
          "type": "uint8"
        },
        {
          "internalType": "uint8",
          "name": "productionPerHour",
          "type": "uint8"
        },
        {
          "internalType": "uint8",
          "name": "currentFullness",
          "type": "uint8"
        },
        {
          "internalType": "uint256",
          "name": "lastUpdate",
          "type": "uint256"
        }
      ],
      "stateMutability": "view",
      "type": "function"
    },
    {
      "inputs": [
        {
          "internalType": "address",
          "name": "newOwner",
          "type": "address"
        }
      ],
      "name": "transferOwnership",
      "outputs": [],
      "stateMutability": "nonpayable",
      "type": "function"
    },
    {
      "inputs": [
        {
          "internalType": "uint256",
          "name": "carId",
          "type": "uint256"
        },
        {
          "internalType": "uint256",
          "name": "engineId",
          "type": "uint256"
        }
      ],
      "name": "switchEngine",
      "outputs": [],
      "stateMutability": "nonpayable",
      "type": "function"
    },
    {
      "inputs": [
        {
          "internalType": "uint256",
          "name": "carId",
          "type": "uint256"
        },
        {
          "internalType": "uint256",
          "name": "chassisId",
          "type": "uint256"
        }
      ],
      "name": "switchChassis",
      "outputs": [],
      "stateMutability": "nonpayable",
      "type": "function"
    },
    {
      "inputs": [
        {
          "internalType": "uint256",
          "name": "carId",
          "type": "uint256"
        },
        {
          "internalType": "uint256",
          "name": "engineId",
          "type": "uint256"
        }
      ],
      "name": "detachEngine",
      "outputs": [],
      "stateMutability": "nonpayable",
      "type": "function"
    },
    {
      "inputs": [
        {
          "internalType": "uint256",
          "name": "carId",
          "type": "uint256"
        },
        {
          "internalType": "uint256",
          "name": "chassisId",
          "type": "uint256"
        }
      ],
      "name": "detachChassis",
      "outputs": [],
      "stateMutability": "nonpayable",
      "type": "function"
    },
    {
      "inputs": [
        {
          "internalType": "address",
          "name": "_owner",
          "type": "address"
        }
      ],
      "name": "getFuelStationByOwner",
      "outputs": [
        {
          "components": [
            {
              "internalType": "uint256",
              "name": "id",
              "type": "uint256"
            },
            {
              "internalType": "uint8",
              "name": "capacity",
              "type": "uint8"
            },
            {
              "internalType": "uint8",
              "name": "productionPerHour",
              "type": "uint8"
            },
            {
              "internalType": "uint8",
              "name": "currentFullness",
              "type": "uint8"
            },
            {
              "internalType": "uint256",
              "name": "lastUpdate",
              "type": "uint256"
            }
          ],
          "internalType": "struct FuelStationFactory.FuelStation",
          "name": "",
          "type": "tuple"
        }
      ],
      "stateMutability": "view",
      "type": "function"
    },
    {
      "inputs": [
        {
          "internalType": "address",
          "name": "_owner",
          "type": "address"
        }
      ],
      "name": "getEnginesByOwner",
      "outputs": [
        {
          "components": [
            {
              "internalType": "uint256",
              "name": "id",
              "type": "uint256"
            },
            {
              "internalType": "uint16",
              "name": "horsePowers",
              "type": "uint16"
            },
            {
              "internalType": "uint8",
              "name": "consumtion",
              "type": "uint8"
            }
          ],
          "internalType": "struct CarFactory.Engine[]",
          "name": "",
          "type": "tuple[]"
        }
      ],
      "stateMutability": "view",
      "type": "function"
    },
    {
      "inputs": [
        {
          "internalType": "address",
          "name": "_owner",
          "type": "address"
        }
      ],
      "name": "getChassisByOwner",
      "outputs": [
        {
          "components": [
            {
              "internalType": "uint256",
              "name": "id",
              "type": "uint256"
            },
            {
              "internalType": "uint32",
              "name": "durability",
              "type": "uint32"
            },
            {
              "internalType": "uint32",
              "name": "resource",
              "type": "uint32"
            }
          ],
          "internalType": "struct CarFactory.Chassis[]",
          "name": "",
          "type": "tuple[]"
        }
      ],
      "stateMutability": "view",
      "type": "function"
    },
    {
      "inputs": [
        {
          "internalType": "address",
          "name": "_owner",
          "type": "address"
        }
      ],
      "name": "getCarsByOwner",
      "outputs": [
        {
          "components": [
            {
              "internalType": "string",
              "name": "model",
              "type": "string"
            },
            {
              "internalType": "uint256",
              "name": "vin",
              "type": "uint256"
            },
            {
              "internalType": "uint256",
              "name": "engineId",
              "type": "uint256"
            },
            {
              "internalType": "uint256",
              "name": "chassisId",
              "type": "uint256"
            },
            {
              "internalType": "uint8",
              "name": "carLevel",
              "type": "uint8"
            },
            {
              "internalType": "uint256",
              "name": "mileage",
              "type": "uint256"
            },
            {
              "internalType": "uint256",
              "name": "winCountOnCurrentLevel",
              "type": "uint256"
            },
            {
              "internalType": "uint256",
              "name": "lossCountOnCurrentLevel",
              "type": "uint256"
            },
            {
              "internalType": "uint256",
              "name": "id",
              "type": "uint256"
            }
          ],
          "internalType": "struct CarFactory.Car[]",
          "name": "",
          "type": "tuple[]"
        }
      ],
      "stateMutability": "view",
      "type": "function"
    },
    {
      "inputs": [
        {
          "internalType": "uint256",
          "name": "_fuelStatonId",
          "type": "uint256"
        },
        {
          "internalType": "uint8",
          "name": "_counts",
          "type": "uint8"
        }
      ],
      "name": "upgradeCapacity",
      "outputs": [],
      "stateMutability": "payable",
      "type": "function"
    },
    {
      "inputs": [
        {
          "internalType": "uint256",
          "name": "_fuelStatonId",
          "type": "uint256"
        },
        {
          "internalType": "uint8",
          "name": "_counts",
          "type": "uint8"
        }
      ],
      "name": "upgradeProductionPerHour",
      "outputs": [],
      "stateMutability": "payable",
      "type": "function"
    },
    {
      "inputs": [
        {
          "internalType": "uint256",
          "name": "_engineId",
          "type": "uint256"
        },
        {
          "internalType": "uint8",
          "name": "_counts",
          "type": "uint8"
        }
      ],
      "name": "upgradeHorsePowers",
      "outputs": [],
      "stateMutability": "payable",
      "type": "function"
    },
    {
      "inputs": [
        {
          "internalType": "uint256",
          "name": "_engineId",
          "type": "uint256"
        },
        {
          "internalType": "uint8",
          "name": "_counts",
          "type": "uint8"
        }
      ],
      "name": "upgradeConsumtion",
      "outputs": [],
      "stateMutability": "payable",
      "type": "function"
    },
    {
      "inputs": [
        {
          "internalType": "uint256",
          "name": "_chassisId",
          "type": "uint256"
        },
        {
          "internalType": "uint8",
          "name": "_counts",
          "type": "uint8"
        }
      ],
      "name": "upgradeDurability",
      "outputs": [],
      "stateMutability": "payable",
      "type": "function"
    },
    {
      "inputs": [
        {
          "internalType": "uint256",
          "name": "_carId",
          "type": "uint256"
        }
      ],
      "name": "levelUp",
      "outputs": [],
      "stateMutability": "payable",
      "type": "function"
    }
  ],
  "bytecode": "0x60806040526000805461ffff60a01b191661014f60a21b17815560088190556009819055600a556001600b819055600c556509184e72a00060195565b5e620f48000601a55650da475abf000601b556611c37937e08000601c556305f5e100601d5566038d7ea4c68000601e5534801561007857600080fd5b50610082336100c4565b6050600355605b6004556005805460ff1916600a179055620186a06006556201d4c1600755600e80546001908101909155600f80549091018155600052610114565b600080546001600160a01b038381166001600160a01b0319831681178455604051919092169283917f8be0079c531659141344cd1fd0a4f28419497f9722a3daafe3b4186f6b6457e09190a35050565b6130cc80620001246000396000f3fe6080604052600436106102305760003560e01c8063877660191161012e578063c75bb4f4116100ab578063f2fde38b1161006f578063f2fde38b146108c8578063f7746e36146108e8578063f85993b91461091d578063faf4bb981461094a578063fb33250f1461095d57600080fd5b8063c75bb4f41461081b578063d1c54eea14610848578063d7086fab14610868578063ea12693314610888578063ede6fbf5146108a857600080fd5b8063aa11b681116100f2578063aa11b68114610740578063b3b29afd1461076d578063b72c0eea1461079a578063bfcc9716146107db578063c34cccc4146107fb57600080fd5b8063877660191461067c5780638da5cb5b146106a9578063906f5f34146106c757806392f859db146106da578063982b691c1461072a57600080fd5b80634e31f910116101bc578063715018a611610180578063715018a6146105e75780637713d521146105fc5780637c62360f146106295780637fb2aa4d1461063c578063859092671461066957600080fd5b80634e31f910146104c3578063594193d71461052e5780635dcc4cc6146105645780636b606d9b1461059a5780636f206fc1146105ba57600080fd5b80631702bf42116102035780631702bf42146102b35780631c5dde0e146102c9578063224370f01461030b57806333ca504b1461043f578063449014901461048d57600080fd5b806303f2e05b146102355780630a0176fc1461024a5780630c0cd5321461028a5780630ce90ec2146102a0575b600080fd5b61024861024336600461284a565b61097d565b005b34801561025657600080fd5b50610277610265366004612876565b60186020526000908152604090205481565b6040519081526020015b60405180910390f35b34801561029657600080fd5b50610277600a5481565b6102486102ae366004612876565b610ab3565b3480156102bf57600080fd5b5061027760085481565b3480156102d557600080fd5b506102e96102e4366004612876565b610c24565b6040805193845263ffffffff9283166020850152911690820152606001610281565b34801561031757600080fd5b50610248600180546040805160a0810182528281526000805460ff600160a01b820481166020808601828152600160a81b90940483168688019081526060870192835263ffffffff421660808801908152898b018b559986529551600389027fb10e2d527612073b26eecdfd717e6a320cf44b4afac2b0732d9fcbe2b7fa0cf681019190915593517fb10e2d527612073b26eecdfd717e6a320cf44b4afac2b0732d9fcbe2b7fa0cf785018054975193518516620100000262ff0000199486166101000261ffff19909916929095169190911796909617919091169190911790935594517fb10e2d527612073b26eecdfd717e6a320cf44b4afac2b0732d9fcbe2b7fa0cf8909501949094559183526002909152902080546001600160a01b03191633179055565b34801561044b57600080fd5b5061047561045a366004612876565b6010602052600090815260409020546001600160a01b031681565b6040516001600160a01b039091168152602001610281565b34801561049957600080fd5b506104756104a8366004612876565b6012602052600090815260409020546001600160a01b031681565b3480156104cf57600080fd5b506104e36104de36600461288f565b610c64565b6040516102819190600060a0820190508251825260ff602084015116602083015260ff604084015116604083015260ff60608401511660608301526080830151608083015292915050565b34801561053a57600080fd5b50610475610549366004612876565b6002602052600090815260409020546001600160a01b031681565b34801561057057600080fd5b5061047561057f366004612876565b6011602052600090815260409020546001600160a01b031681565b3480156105a657600080fd5b506102486105b53660046128b8565b610d4b565b3480156105c657600080fd5b506105da6105d536600461288f565b610e4b565b60405161028191906128da565b3480156105f357600080fd5b50610248610f9f565b34801561060857600080fd5b5061061c61061736600461288f565b610fb3565b604051610281919061293d565b61024861063736600461284a565b6110fb565b34801561064857600080fd5b5061027761065736600461288f565b60146020526000908152604090205481565b61024861067736600461284a565b611216565b34801561068857600080fd5b5061027761069736600461288f565b60156020526000908152604090205481565b3480156106b557600080fd5b506000546001600160a01b0316610475565b6102486106d536600461284a565b61130a565b3480156106e657600080fd5b506106fa6106f5366004612876565b6113f2565b6040805195865260ff9485166020870152928416928501929092529091166060830152608082015260a001610281565b34801561073657600080fd5b5061027760095481565b34801561074c57600080fd5b5061027761075b366004612876565b60166020526000908152604090205481565b34801561077957600080fd5b5061027761078836600461288f565b60136020526000908152604090205481565b3480156107a657600080fd5b506107ba6107b5366004612876565b61143e565b6040805193845261ffff909216602084015260ff1690820152606001610281565b3480156107e757600080fd5b506102776107f63660046129a4565b61147b565b34801561080757600080fd5b506102486108163660046128b8565b6115c0565b34801561082757600080fd5b5061083b61083636600461288f565b611710565b6040516102819190612a2a565b34801561085457600080fd5b506102486108633660046128b8565b61194e565b34801561087457600080fd5b50610277610883366004612b06565b611a34565b34801561089457600080fd5b506102486108a33660046128b8565b611b90565b3480156108b457600080fd5b506102486108c3366004612be5565b611cf4565b3480156108d457600080fd5b506102486108e336600461288f565b611ec2565b3480156108f457600080fd5b50610908610903366004612876565b611f3b565b60405161028199989796959493929190612c1a565b34801561092957600080fd5b50610277610938366004612876565b60176020526000908152604090205481565b61024861095836600461284a565b612028565b34801561096957600080fd5b50610248610978366004612c71565b612138565b60008281526012602052604090205482906001600160a01b031633146109be5760405162461bcd60e51b81526004016109b590612cf9565b60405180910390fd5b601d54600f84815481106109d4576109d4612d27565b60009182526020909120600160029092020101546109fb9063ffffffff1660ff8516612d53565b63ffffffff16610a0b9190612d7f565b3414610a1657600080fd5b600080546040516001600160a01b03909116913480156108fc02929091818181858888f19350505050158015610a50573d6000803e3d6000fd5b508160ff16600f8481548110610a6857610a68612d27565b6000918252602082206001600290920201018054909190610a9090849063ffffffff16612d9e565b92506101000a81548163ffffffff021916908363ffffffff160217905550505050565b6000600a600d8381548110610aca57610aca612d27565b6000918252602090912060046009909202010154610aeb919060ff16612ddc565b610af6906001612dfe565b60ff16601e54610b069190612d7f565b9050803414610b445760405162461bcd60e51b815260206004820152600a6024820152691ddc9bdb99c818dbdcdd60b21b60448201526064016109b5565b600080546040516001600160a01b03909116913480156108fc02929091818181858888f19350505050158015610b7e573d6000803e3d6000fd5b50600d8281548110610b9257610b92612d27565b600091825260208220600460099092020101805460ff1691610bb383612e23565b91906101000a81548160ff021916908360ff160217905550506000600d8381548110610be157610be1612d27565b9060005260206000209060090201600601819055506000600d8381548110610c0b57610c0b612d27565b9060005260206000209060090201600701819055505050565b600f8181548110610c3457600080fd5b60009182526020909120600290910201805460019091015490915063ffffffff8082169164010000000090041683565b6040805160a081018252600080825260208201819052918101829052606081018290526080810182905290805b600154811015610cd6576000818152600260205260409020546001600160a01b03808616911603610cc457809150610cd6565b80610cce81612e42565b915050610c91565b5060018181548110610cea57610cea612d27565b60009182526020918290206040805160a081018252600390930290910180548352600181015460ff80821695850195909552610100810485169284019290925262010000909104909216606082015260029091015460808201529392505050565b60008181526012602052604090205481906001600160a01b03163314610d835760405162461bcd60e51b81526004016109b590612cf9565b60008381526010602052604090205483906001600160a01b03163314610da857600080fd5b82600d8581548110610dbc57610dbc612d27565b90600052602060002090600902016003015414610e1b5760405162461bcd60e51b815260206004820152601860248201527f6368617373697320617265206e6f74206174746163686564000000000000000060448201526064016109b5565b6000600d8581548110610e3057610e30612d27565b90600052602060002090600902016003018190555050505050565b6001600160a01b0381166000908152601560205260408120546060919067ffffffffffffffff811115610e8057610e80612b42565b604051908082528060200260200182016040528015610ecb57816020015b6040805160608101825260008082526020808301829052928201528252600019909201910181610e9e5790505b5090506000805b600f54811015610f96576000818152601260205260409020546001600160a01b03808716911603610f8457600f8181548110610f1057610f10612d27565b6000918252602091829020604080516060810182526002909302909101805483526001015463ffffffff808216948401949094526401000000009004909216918101919091528351849084908110610f6a57610f6a612d27565b60200260200101819052508180610f8090612e42565b9250505b80610f8e81612e42565b915050610ed2565b50909392505050565b610fa761231e565b610fb16000612378565b565b6001600160a01b0381166000908152601460205260408120546060919067ffffffffffffffff811115610fe857610fe8612b42565b60405190808252806020026020018201604052801561103357816020015b60408051606081018252600080825260208083018290529282015282526000199092019101816110065790505b5090506000805b600e54811015610f96576000818152601160205260409020546001600160a01b038087169116036110e957600e818154811061107857611078612d27565b600091825260209182902060408051606081018252600293909302909101805483526001015461ffff8116938301939093526201000090920460ff169181019190915283518490849081106110cf576110cf612d27565b602002602001018190525081806110e590612e42565b9250505b806110f381612e42565b91505061103a565b60008281526011602052604090205482906001600160a01b0316331461112057600080fd5b600e838154811061113357611133612d27565b600091825260209091206002909102016001015461115b9062010000900460ff16600a612e5b565b611166906002612f62565b601c546111739190612d7f565b341461117e57600080fd5b600080546040516001600160a01b03909116913480156108fc02929091818181858888f193505050501580156111b8573d6000803e3d6000fd5b5081600e84815481106111cd576111cd612d27565b906000526020600020906002020160010160028282829054906101000a900460ff166111f99190612e5b565b92506101000a81548160ff021916908360ff160217905550505050565b60008281526002602052604090205482906001600160a01b0316331461123b57600080fd5b601a546001848154811061125157611251612d27565b600091825260209091206003909102016001015461127790610100900460ff1684612f78565b60ff166112849190612d7f565b341461128f57600080fd5b600080546040516001600160a01b03909116913480156108fc02929091818181858888f193505050501580156112c9573d6000803e3d6000fd5b5081600184815481106112de576112de612d27565b906000526020600020906003020160010160018282829054906101000a900460ff166111f99190612dfe565b60008281526002602052604090205482906001600160a01b0316331461132f57600080fd5b6019546001848154811061134557611345612d27565b60009182526020909120600160039092020101546113669060ff1684612f78565b60ff166113739190612d7f565b341461137e57600080fd5b600080546040516001600160a01b03909116913480156108fc02929091818181858888f193505050501580156113b8573d6000803e3d6000fd5b5081600184815481106113cd576113cd612d27565b60009182526020822060016003909202010180549091906111f990849060ff16612dfe565b6001818154811061140257600080fd5b600091825260209091206003909102018054600182015460029092015490925060ff808316926101008104821692620100009091049091169085565b600e818154811061144e57600080fd5b60009182526020909120600290910201805460019091015490915061ffff81169062010000900460ff1683565b600061148561231e565b600c80546000918261149683612e42565b909155506040805160608101825282815263ffffffff8781166020808401828152848601928352600f80546001810182556000918252955160029096027f8d1108e10bcb7c27dddfc02ed9d693a074039d026cf4ea4240b40f7d581ac80281019690965590517f8d1108e10bcb7c27dddfc02ed9d693a074039d026cf4ea4240b40f7d581ac8039095018054935185166401000000000267ffffffffffffffff1990941695909416949094179190911790915581546001600160a01b031682526015905290812080549293509061156c83612e42565b9091555050600080548282526012602052604090912080546001600160a01b0319166001600160a01b0390921691909117905582156115b75760008181526018602052604090208390555b90505b92915050565b60008181526011602052604090205481906001600160a01b031633146115e557600080fd5b60008381526010602052604090205483906001600160a01b0316331461160a57600080fd5b82600d858154811061161e5761161e612d27565b9060005260206000209060090201600201540361166b5760405162461bcd60e51b815260206004820152600b60248201526a73616d6520656e67696e6560a81b60448201526064016109b5565b600061167633611710565b905060005b81518110156116df578482828151811061169757611697612d27565b602002602001015160400151036116cd5760008282815181106116bc576116bc612d27565b602002602001015160400181815250505b806116d781612e42565b91505061167b565b5083600d86815481106116f4576116f4612d27565b9060005260206000209060090201600201819055505050505050565b6001600160a01b0381166000908152601360205260408120546060919067ffffffffffffffff81111561174557611745612b42565b6040519080825280602002602001820160405280156117c857816020015b6117b560405180610120016040528060608152602001600081526020016000815260200160008152602001600060ff168152602001600081526020016000815260200160008152602001600081525090565b8152602001906001900390816117635790505b5090506000805b600d54811015610f96576000818152601060205260409020546001600160a01b0380871691160361193c57600d818154811061180d5761180d612d27565b90600052602060002090600902016040518061012001604052908160008201805461183790612f99565b80601f016020809104026020016040519081016040528092919081815260200182805461186390612f99565b80156118b05780601f10611885576101008083540402835291602001916118b0565b820191906000526020600020905b81548152906001019060200180831161189357829003601f168201915b5050509183525050600182015460208201526002820154604082015260038201546060820152600482015460ff166080820152600582015460a0820152600682015460c0820152600782015460e082015260089091015461010090910152835184908490811061192257611922612d27565b6020026020010181905250818061193890612e42565b9250505b8061194681612e42565b9150506117cf565b60008181526011602052604090205481906001600160a01b0316331461197357600080fd5b60008381526010602052604090205483906001600160a01b0316331461199857600080fd5b82600d85815481106119ac576119ac612d27565b90600052602060002090600902016002015414611a045760405162461bcd60e51b8152602060048201526016602482015275195b99da5b99481a5cc81b9bdd08185d1d1858da195960521b60448201526064016109b5565b6000600d8581548110611a1957611a19612d27565b90600052602060002090600902016002018190555050505050565b6000611a3e61231e565b600b805460009182611a4f83612e42565b909155506040805160608101825282815261ffff8089166020830190815260ff808a16948401948552600e80546001810182556000918252945160029095027fbb7b4a454dc3493923482f07822329ed19e8244eff582cc204f8554c3620c3fd81019590955591517fbb7b4a454dc3493923482f07822329ed19e8244eff582cc204f8554c3620c3fe90940180549551909116620100000262ffffff19909516939092169290921792909217909155909150601490611b166000546001600160a01b031690565b6001600160a01b0316815260208101919091526040016000908120805491611b3d83612e42565b9091555050600080548282526011602052604090912080546001600160a01b0319166001600160a01b039092169190911790558215611b885760008181526017602052604090208390555b949350505050565b60008181526012602052604090205481906001600160a01b03163314611bc85760405162461bcd60e51b81526004016109b590612cf9565b60008381526010602052604090205483906001600160a01b03163314611bed57600080fd5b82600d8581548110611c0157611c01612d27565b90600052602060002090600902016003015403611c4f5760405162461bcd60e51b815260206004820152600c60248201526b73616d65206368617373697360a01b60448201526064016109b5565b6000611c5a33611710565b905060005b8151811015611cc35784828281518110611c7b57611c7b612d27565b60200260200101516060015103611cb1576000828281518110611ca057611ca0612d27565b602002602001015160600181815250505b80611cbb81612e42565b915050611c5f565b5083600d8681548110611cd857611cd8612d27565b9060005260206000209060090201600301819055505050505050565b3360009081526013602052604090205415611d0e57600080fd5b600081611d1a426123c8565b604051602001611d2b929190612fd3565b6040516020818303038152906040529050600081604051602001611d4f9190612ff9565b6040516020818303038152906040528051906020012060001c90506000611d7461245b565b90506000611d8061258f565b600d80546040805161012081018252898152602080820189905291810187905260608101859052600160808201819052600060a0830181905260c0830181905260e083018190526101008301859052908401855593909352825180519495509193600985027fd7b6990105719101dabeb77144f2a3385c8033acd3af97e9423a695e81ad1eb50192611e1692849291019061279b565b506020828101516001830155604080840151600284015560608401516003840155608084015160048401805460ff191660ff90921691909117905560a0840151600584015560c0840151600684015560e08401516007840155610100909301516008909201919091556000838152601082528281208054336001600160a01b0319909116811790915581526013909152908120805491611eb583612e42565b9190505550505050505050565b611eca61231e565b6001600160a01b038116611f2f5760405162461bcd60e51b815260206004820152602660248201527f4f776e61626c653a206e6577206f776e657220697320746865207a65726f206160448201526564647265737360d01b60648201526084016109b5565b611f3881612378565b50565b600d8181548110611f4b57600080fd5b9060005260206000209060090201600091509050806000018054611f6e90612f99565b80601f0160208091040260200160405190810160405280929190818152602001828054611f9a90612f99565b8015611fe75780601f10611fbc57610100808354040283529160200191611fe7565b820191906000526020600020905b815481529060010190602001808311611fca57829003601f168201915b50505060018401546002850154600386015460048701546005880154600689015460078a01546008909a01549899959894975092955060ff90911693909289565b60008281526011602052604090205482906001600160a01b0316331461204d57600080fd5b601b54600e848154811061206357612063612d27565b60009182526020909120600160029092020101546120889061ffff1660ff8516613015565b61ffff166120969190612d7f565b34146120a157600080fd5b600080546040516001600160a01b03909116913480156108fc02929091818181858888f193505050501580156120db573d6000803e3d6000fd5b508160ff16600e84815481106120f3576120f3612d27565b600091825260208220600160029092020101805490919061211990849061ffff16613036565b92506101000a81548161ffff021916908361ffff160217905550505050565b61214061231e565b60008661214c426123c8565b60405160200161215d929190612fd3565b60405160208183030381529060405290506000816040516020016121819190612ff9565b6040516020818303038152906040528051906020012060001c905060006121aa88886000611a34565b905060006121b987600061147b565b600d805460408051610120810182528e815260208082018990529181018790526060810185905260ff8b166080820152600060a0820181905260c0820181905260e08201819052610100820184905260018401855593909352825180519495509193600985027fd7b6990105719101dabeb77144f2a3385c8033acd3af97e9423a695e81ad1eb5019261225092849291019061279b565b506020828101516001830155604080840151600284015560608401516003840155608084015160048401805460ff90921660ff1990921691909117905560a0840151600584015560c0840151600684015560e0840151600784015561010090930151600890920191909155600080548482526010835283822080546001600160a01b0319166001600160a01b03928316179055815416815260139091529081208054916122fc83612e42565b9091555050600090815260166020526040902094909455505050505050505050565b6000546001600160a01b03163314610fb15760405162461bcd60e51b815260206004820181905260248201527f4f776e61626c653a2063616c6c6572206973206e6f7420746865206f776e657260448201526064016109b5565b600080546001600160a01b038381166001600160a01b0319831681178455604051919092169283917f8be0079c531659141344cd1fd0a4f28419497f9722a3daafe3b4186f6b6457e09190a35050565b606060006123d5836126c3565b600101905060008167ffffffffffffffff8111156123f5576123f5612b42565b6040519080825280601f01601f19166020018201604052801561241f576020820181803683370190505b5090508181016020015b600019016f181899199a1a9b1b9c1cb0b131b232b360811b600a86061a8153600a850494508461242957509392505050565b60008060035460045461246e9190613053565b612478904261306a565b600354612485919061307e565b600b8054919250600091908261249a83612e42565b909155506040805160608101825282815261ffff808616602080840191825260055460ff908116858701908152600e80546001810182556000918252965160029097027fbb7b4a454dc3493923482f07822329ed19e8244eff582cc204f8554c3620c3fd81019790975593517fbb7b4a454dc3493923482f07822329ed19e8244eff582cc204f8554c3620c3fe90960180549151909216620100000262ffffff199091169590941694909417929092179092553382526014905290812080549293509061256683612e42565b9091555050600081815260116020526040902080546001600160a01b0319163317905592915050565b6000806006546007546125a29190613053565b6125ac904261306a565b6006546125b9919061307e565b600c805491925060009190826125ce83612e42565b909155506040805160608101825282815263ffffffff8086166020808401828152848601928352600f80546001810182556000918252955160029096027f8d1108e10bcb7c27dddfc02ed9d693a074039d026cf4ea4240b40f7d581ac80281019690965590517f8d1108e10bcb7c27dddfc02ed9d693a074039d026cf4ea4240b40f7d581ac8039095018054935185166401000000000267ffffffffffffffff199094169590941694909417919091179091553382526015905290812080549293509061269a83612e42565b9091555050600081815260126020526040902080546001600160a01b0319163317905592915050565b60008072184f03e93ff9f4daa797ed6e38ed64bf6a1f0160401b83106127025772184f03e93ff9f4daa797ed6e38ed64bf6a1f0160401b830492506040015b6d04ee2d6d415b85acef8100000000831061272e576d04ee2d6d415b85acef8100000000830492506020015b662386f26fc10000831061274c57662386f26fc10000830492506010015b6305f5e1008310612764576305f5e100830492506008015b612710831061277857612710830492506004015b6064831061278a576064830492506002015b600a83106115ba5760010192915050565b8280546127a790612f99565b90600052602060002090601f0160209004810192826127c9576000855561280f565b82601f106127e257805160ff191683800117855561280f565b8280016001018555821561280f579182015b8281111561280f5782518255916020019190600101906127f4565b5061281b92915061281f565b5090565b5b8082111561281b5760008155600101612820565b803560ff8116811461284557600080fd5b919050565b6000806040838503121561285d57600080fd5b8235915061286d60208401612834565b90509250929050565b60006020828403121561288857600080fd5b5035919050565b6000602082840312156128a157600080fd5b81356001600160a01b03811681146115b757600080fd5b600080604083850312156128cb57600080fd5b50508035926020909101359150565b602080825282518282018190526000919060409081850190868401855b82811015612930578151805185528681015163ffffffff90811688870152908601511685850152606090930192908501906001016128f7565b5091979650505050505050565b602080825282518282018190526000919060409081850190868401855b82811015612930578151805185528681015161ffff168786015285015160ff16858501526060909301929085019060010161295a565b803563ffffffff8116811461284557600080fd5b600080604083850312156129b757600080fd5b6129c083612990565b946020939093013593505050565b60005b838110156129e95781810151838201526020016129d1565b838111156129f8576000848401525b50505050565b60008151808452612a168160208601602086016129ce565b601f01601f19169290920160200192915050565b60006020808301818452808551808352604092508286019150828160051b87010184880160005b83811015612ae657603f1989840301855281516101208151818652612a78828701826129fe565b915050888201518986015287820151888601526060808301518187015250608080830151612aaa8288018260ff169052565b505060a0828101519086015260c0808301519086015260e080830151908601526101009182015191909401529386019390860190600101612a51565b509098975050505050505050565b803561ffff8116811461284557600080fd5b600080600060608486031215612b1b57600080fd5b612b2484612af4565b9250612b3260208501612834565b9150604084013590509250925092565b634e487b7160e01b600052604160045260246000fd5b600082601f830112612b6957600080fd5b813567ffffffffffffffff80821115612b8457612b84612b42565b604051601f8301601f19908116603f01168101908282118183101715612bac57612bac612b42565b81604052838152866020858801011115612bc557600080fd5b836020870160208301376000602085830101528094505050505092915050565b600060208284031215612bf757600080fd5b813567ffffffffffffffff811115612c0e57600080fd5b611b8884828501612b58565b6000610120808352612c2e8184018d6129fe565b602084019b909b5250506040810197909752606087019590955260ff93909316608086015260a085019190915260c084015260e083015261010090910152919050565b60008060008060008060c08789031215612c8a57600080fd5b863567ffffffffffffffff811115612ca157600080fd5b612cad89828a01612b58565b965050612cbc60208801612af4565b9450612cca60408801612834565b9350612cd860608801612990565b9250612ce660808801612834565b915060a087013590509295509295509295565b6020808252601490820152730c6d0c2e6e6d2e640dcdee840f2deeae4407c74560631b604082015260600190565b634e487b7160e01b600052603260045260246000fd5b634e487b7160e01b600052601160045260246000fd5b600063ffffffff80831681851681830481118215151615612d7657612d76612d3d565b02949350505050565b6000816000190483118215151615612d9957612d99612d3d565b500290565b600063ffffffff808316818516808303821115612dbd57612dbd612d3d565b01949350505050565b634e487b7160e01b600052601260045260246000fd5b600060ff831680612def57612def612dc6565b8060ff84160491505092915050565b600060ff821660ff84168060ff03821115612e1b57612e1b612d3d565b019392505050565b600060ff821660ff8103612e3957612e39612d3d565b60010192915050565b600060018201612e5457612e54612d3d565b5060010190565b600060ff821660ff841680821015612e7557612e75612d3d565b90039392505050565b600181815b80851115612eb9578160001904821115612e9f57612e9f612d3d565b80851615612eac57918102915b93841c9390800290612e83565b509250929050565b600082612ed0575060016115ba565b81612edd575060006115ba565b8160018114612ef35760028114612efd57612f19565b60019150506115ba565b60ff841115612f0e57612f0e612d3d565b50506001821b6115ba565b5060208310610133831016604e8410600b8410161715612f3c575081810a6115ba565b612f468383612e7e565b8060001904821115612f5a57612f5a612d3d565b029392505050565b6000612f7160ff841683612ec1565b9392505050565b600060ff821660ff84168160ff0481118215151615612f5a57612f5a612d3d565b600181811c90821680612fad57607f821691505b602082108103612fcd57634e487b7160e01b600052602260045260246000fd5b50919050565b60008351612fe58184602088016129ce565b835190830190612dbd8183602088016129ce565b6000825161300b8184602087016129ce565b9190910192915050565b600061ffff80831681851681830481118215151615612d7657612d76612d3d565b600061ffff808316818516808303821115612dbd57612dbd612d3d565b60008282101561306557613065612d3d565b500390565b60008261307957613079612dc6565b500690565b6000821982111561309157613091612d3d565b50019056fea26469706673582212209da9fde135185b1f2427bb7d07786fa35cff0e26e14695188b8942644c68414364736f6c634300080d0033",
  "immutableReferences": {},
  "source": "// SPDX-License-Identifier: MIT\npragma solidity ^0.8.13;\n\nimport \"./CarFactory.sol\";\nimport \"../node_modules/@openzeppelin/contracts/utils/Strings.sol\";\n\n\ncontract CarHelper is CarFactory {\n\n    uint capacityCoef = 0.00001 ether;\n    uint productionPerHourCoef = 0.0002 ether;\n    uint horsePowersCoef = 0.000015 ether;\n    uint consumtionCoef = 0.005 ether;\n    uint durabilityCoef = 0.0000000001 ether;\n    uint levelUpCost = 0.001 ether;\n\n    modifier onlyOwnerOfCar(uint _carId) {\n        require(msg.sender == carToOwner[_carId]);\n        _;\n    }\n\n    modifier onlyOwnerOfEngine(uint _engineId) {\n        require(msg.sender == engineToOwner[_engineId]);\n        _;\n    }\n\n    modifier onlyOwnerOfChassis(uint _chassisId) {\n        require(msg.sender == chassisToOwner[_chassisId], \"chassis not your >:(\");\n        _;\n    }\n\n    modifier onlyOwnerOfFuelStation(uint _fuelStationId) {\n        require(msg.sender == fuelStationToOwner[_fuelStationId]);\n        _;\n    }\n\n    function switchEngine(uint carId, uint engineId) public onlyOwnerOfEngine(engineId) onlyOwnerOfCar(carId){\n        require(cars[carId].engineId != engineId, \"same engine\");\n        Car[] memory cc = getCarsByOwner(msg.sender);\n        for(uint i = 0; i<cc.length; i++){\n            if(cc[i].engineId == engineId){\n                cc[i].engineId = 0;\n            }\n        }\n        cars[carId].engineId = engineId;\n    }\n\n    function switchChassis(uint carId, uint chassisId) public onlyOwnerOfChassis(chassisId) onlyOwnerOfCar(carId){\n        require(cars[carId].chassisId != chassisId, \"same chassis\");\n        Car[] memory cc = getCarsByOwner(msg.sender);\n        for(uint i = 0; i<cc.length; i++){\n            if(cc[i].chassisId == chassisId){\n                cc[i].chassisId = 0;\n            }\n        }\n        cars[carId].chassisId = chassisId;\n    }\n\n    function detachEngine(uint carId, uint engineId) public onlyOwnerOfEngine(engineId) onlyOwnerOfCar(carId){\n        require(cars[carId].engineId == engineId, \"engine is not attached\");\n        cars[carId].engineId = 0;\n    }\n    function detachChassis(uint carId, uint chassisId) public onlyOwnerOfChassis(chassisId) onlyOwnerOfCar(carId){\n        require(cars[carId].chassisId == chassisId, \"chassis are not attached\");\n        cars[carId].chassisId = 0;\n    }\n\n\n    function getFuelStationByOwner(address _owner) public view returns(FuelStation memory){\n        uint resId;\n        for (uint i = 0; i < stations.length; i++) {\n            if (fuelStationToOwner[i] == _owner) {\n               resId = i;\n               break;\n            }\n        }\n        return stations[resId];\n    }\n\n    function getEnginesByOwner(address _owner) public view returns(Engine[] memory) {\n        Engine[] memory result = new Engine[](ownerEngineCount[_owner]);\n        uint counter = 0;\n        for (uint i = 0; i < engines.length; i++) {\n            if (engineToOwner[i] == _owner) {\n                result[counter] = engines[i];\n                counter++;\n            }\n        }\n        return result;\n    }\n\n    function getChassisByOwner(address _owner) public view returns(Chassis[] memory) {\n        Chassis[] memory result = new Chassis[](ownerChassisCount[_owner]);\n        uint counter = 0;\n        for (uint i = 0; i < chassis.length; i++) {\n            if (chassisToOwner[i] == _owner) {\n                result[counter] = chassis[i];\n                counter++;\n            }\n        }\n        return result;\n    }\n\n    function getCarsByOwner(address _owner) public view returns(Car[] memory) {\n        Car[] memory result = new Car[](ownerCarCount[_owner]);\n        uint counter = 0;\n        for (uint i = 0; i < cars.length; i++) {\n            if (carToOwner[i] == _owner) {\n                result[counter] = cars[i];\n                counter++;\n            }\n        }\n        return result;\n    }\n\n    function upgradeCapacity(uint _fuelStatonId, uint8 _counts) external payable onlyOwnerOfFuelStation(_fuelStatonId) {\n        require(msg.value == (_counts * stations[_fuelStatonId].capacity * capacityCoef));\n        payable(owner()).transfer(msg.value);\n        stations[_fuelStatonId].capacity += _counts; \n    }\n\n    function upgradeProductionPerHour(uint _fuelStatonId, uint8 _counts) external payable onlyOwnerOfFuelStation(_fuelStatonId) {\n        require(msg.value == (_counts * stations[_fuelStatonId].productionPerHour * productionPerHourCoef));\n        payable(owner()).transfer(msg.value);\n        stations[_fuelStatonId].productionPerHour += _counts; \n    }\n\n    function upgradeHorsePowers(uint _engineId, uint8 _counts) external payable onlyOwnerOfEngine(_engineId) {\n        require(msg.value == (_counts * engines[_engineId].horsePowers * horsePowersCoef));\n        payable(owner()).transfer(msg.value);\n        engines[_engineId].horsePowers += _counts; \n    }\n\n    function upgradeConsumtion(uint _engineId, uint8 _counts) external payable onlyOwnerOfEngine(_engineId) {\n        require(msg.value == consumtionCoef * 2**(10 - engines[_engineId].consumtion));\n        payable(owner()).transfer(msg.value);\n        engines[_engineId].consumtion -= _counts; \n    }\n\n    function upgradeDurability(uint _chassisId, uint8 _counts) external payable onlyOwnerOfChassis(_chassisId) {\n        require(msg.value == (_counts * chassis[_chassisId].durability * durabilityCoef));\n        payable(owner()).transfer(msg.value);\n        chassis[_chassisId].durability += _counts; \n    }\n\n    function levelUp(uint _carId) external payable {\n        uint r = levelUpCost * (cars[_carId].carLevel/10 + 1);\n        require(msg.value == r, \"wrong cost\");\n        //require(cars[_carId].winCountOnCurrentLevel >= (cars[_carId].carLevel + 1), \"level is\");\n        payable(owner()).transfer(msg.value);\n        cars[_carId].carLevel++;\n        cars[_carId].winCountOnCurrentLevel = 0;\n        cars[_carId].lossCountOnCurrentLevel = 0;\n    }\n\n}\n",
  "sourcePath": "/Users/vvan/Programming/JavaScript/DriveSafely/contract/contracts/CarHelper.sol",
  "compiler": {
    "name": "solc",
    "version": "0.8.13+commit.abaa5c0e.Emscripten.clang"
  },
  "schemaVersion": "3.4.11",
  "updatedAt": "2023-01-11T13:50:04.612Z",
  "networkType": "ethereum",
  "devdoc": {
    "kind": "dev",
    "methods": {
      "owner()": {
        "details": "Returns the address of the current owner."
      },
      "renounceOwnership()": {
        "details": "Leaves the contract without owner. It will not be possible to call `onlyOwner` functions anymore. Can only be called by the current owner. NOTE: Renouncing ownership will leave the contract without an owner, thereby removing any functionality that is only available to the owner."
      },
      "transferOwnership(address)": {
        "details": "Transfers ownership of the contract to a new account (`newOwner`). Can only be called by the current owner."
      }
    },
    "version": 1
  },
  "userdoc": {
    "kind": "user",
    "methods": {},
    "version": 1
  }
}