{
  "contractName": "CarHelper",
  "abi": [
    {
      "anonymous": false,
      "inputs": [
        {
          "indexed": true,
          "internalType": "address",
          "name": "previousOwner",
          "type": "address"
        },
        {
          "indexed": true,
          "internalType": "address",
          "name": "newOwner",
          "type": "address"
        }
      ],
      "name": "OwnershipTransferred",
      "type": "event"
    },
    {
      "inputs": [
        {
          "internalType": "uint256",
          "name": "",
          "type": "uint256"
        }
      ],
      "name": "carToOwner",
      "outputs": [
        {
          "internalType": "address",
          "name": "",
          "type": "address"
        }
      ],
      "stateMutability": "view",
      "type": "function"
    },
    {
      "inputs": [
        {
          "internalType": "uint256",
          "name": "",
          "type": "uint256"
        }
      ],
      "name": "carToPrice",
      "outputs": [
        {
          "internalType": "uint256",
          "name": "",
          "type": "uint256"
        }
      ],
      "stateMutability": "view",
      "type": "function"
    },
    {
      "inputs": [
        {
          "internalType": "uint256",
          "name": "",
          "type": "uint256"
        }
      ],
      "name": "cars",
      "outputs": [
        {
          "internalType": "string",
          "name": "model",
          "type": "string"
        },
        {
          "internalType": "uint256",
          "name": "vin",
          "type": "uint256"
        },
        {
          "internalType": "uint256",
          "name": "engineId",
          "type": "uint256"
        },
        {
          "internalType": "uint256",
          "name": "chassisId",
          "type": "uint256"
        },
        {
          "internalType": "uint8",
          "name": "carLevel",
          "type": "uint8"
        },
        {
          "internalType": "uint256",
          "name": "mileage",
          "type": "uint256"
        },
        {
          "internalType": "uint256",
          "name": "winCountOnCurrentLevel",
          "type": "uint256"
        },
        {
          "internalType": "uint256",
          "name": "lossCountOnCurrentLevel",
          "type": "uint256"
        },
        {
          "internalType": "uint256",
          "name": "id",
          "type": "uint256"
        }
      ],
      "stateMutability": "view",
      "type": "function"
    },
    {
      "inputs": [],
      "name": "carsForSaleCount",
      "outputs": [
        {
          "internalType": "uint256",
          "name": "",
          "type": "uint256"
        }
      ],
      "stateMutability": "view",
      "type": "function"
    },
    {
      "inputs": [
        {
          "internalType": "uint256",
          "name": "",
          "type": "uint256"
        }
      ],
      "name": "chassis",
      "outputs": [
        {
          "internalType": "uint256",
          "name": "id",
          "type": "uint256"
        },
        {
          "internalType": "uint32",
          "name": "durability",
          "type": "uint32"
        },
        {
          "internalType": "uint32",
          "name": "resource",
          "type": "uint32"
        }
      ],
      "stateMutability": "view",
      "type": "function"
    },
    {
      "inputs": [],
      "name": "chassisForSaleCount",
      "outputs": [
        {
          "internalType": "uint256",
          "name": "",
          "type": "uint256"
        }
      ],
      "stateMutability": "view",
      "type": "function"
    },
    {
      "inputs": [
        {
          "internalType": "uint256",
          "name": "",
          "type": "uint256"
        }
      ],
      "name": "chassisToOwner",
      "outputs": [
        {
          "internalType": "address",
          "name": "",
          "type": "address"
        }
      ],
      "stateMutability": "view",
      "type": "function"
    },
    {
      "inputs": [
        {
          "internalType": "uint256",
          "name": "",
          "type": "uint256"
        }
      ],
      "name": "chassisToPrice",
      "outputs": [
        {
          "internalType": "uint256",
          "name": "",
          "type": "uint256"
        }
      ],
      "stateMutability": "view",
      "type": "function"
    },
    {
      "inputs": [
        {
          "internalType": "string",
          "name": "model",
          "type": "string"
        }
      ],
      "name": "createCar",
      "outputs": [],
      "stateMutability": "nonpayable",
      "type": "function"
    },
    {
      "inputs": [
        {
          "internalType": "string",
          "name": "_model",
          "type": "string"
        },
        {
          "internalType": "uint16",
          "name": "_horsePowers",
          "type": "uint16"
        },
        {
          "internalType": "uint8",
          "name": "_consumtion",
          "type": "uint8"
        },
        {
          "internalType": "uint32",
          "name": "_durability",
          "type": "uint32"
        },
        {
          "internalType": "uint8",
          "name": "_carLevel",
          "type": "uint8"
        },
        {
          "internalType": "uint256",
          "name": "_carPrice",
          "type": "uint256"
        }
      ],
      "name": "createCustomCar",
      "outputs": [],
      "stateMutability": "nonpayable",
      "type": "function"
    },
    {
      "inputs": [
        {
          "internalType": "uint32",
          "name": "_durability",
          "type": "uint32"
        },
        {
          "internalType": "uint256",
          "name": "_chassisPrice",
          "type": "uint256"
        }
      ],
      "name": "createCustomChassis",
      "outputs": [
        {
          "internalType": "uint256",
          "name": "",
          "type": "uint256"
        }
      ],
      "stateMutability": "nonpayable",
      "type": "function"
    },
    {
      "inputs": [
        {
          "internalType": "uint16",
          "name": "_horsePowers",
          "type": "uint16"
        },
        {
          "internalType": "uint8",
          "name": "_consumtion",
          "type": "uint8"
        },
        {
          "internalType": "uint256",
          "name": "_enginePrice",
          "type": "uint256"
        }
      ],
      "name": "createCustomEngine",
      "outputs": [
        {
          "internalType": "uint256",
          "name": "",
          "type": "uint256"
        }
      ],
      "stateMutability": "nonpayable",
      "type": "function"
    },
    {
      "inputs": [],
      "name": "createFuelStation",
      "outputs": [],
      "stateMutability": "nonpayable",
      "type": "function"
    },
    {
      "inputs": [
        {
          "internalType": "uint256",
          "name": "",
          "type": "uint256"
        }
      ],
      "name": "engineToOwner",
      "outputs": [
        {
          "internalType": "address",
          "name": "",
          "type": "address"
        }
      ],
      "stateMutability": "view",
      "type": "function"
    },
    {
      "inputs": [
        {
          "internalType": "uint256",
          "name": "",
          "type": "uint256"
        }
      ],
      "name": "engineToPrice",
      "outputs": [
        {
          "internalType": "uint256",
          "name": "",
          "type": "uint256"
        }
      ],
      "stateMutability": "view",
      "type": "function"
    },
    {
      "inputs": [
        {
          "internalType": "uint256",
          "name": "",
          "type": "uint256"
        }
      ],
      "name": "engines",
      "outputs": [
        {
          "internalType": "uint256",
          "name": "id",
          "type": "uint256"
        },
        {
          "internalType": "uint16",
          "name": "horsePowers",
          "type": "uint16"
        },
        {
          "internalType": "uint8",
          "name": "consumtion",
          "type": "uint8"
        }
      ],
      "stateMutability": "view",
      "type": "function"
    },
    {
      "inputs": [],
      "name": "enginesForSaleCount",
      "outputs": [
        {
          "internalType": "uint256",
          "name": "",
          "type": "uint256"
        }
      ],
      "stateMutability": "view",
      "type": "function"
    },
    {
      "inputs": [
        {
          "internalType": "uint256",
          "name": "",
          "type": "uint256"
        }
      ],
      "name": "fuelStationToOwner",
      "outputs": [
        {
          "internalType": "address",
          "name": "",
          "type": "address"
        }
      ],
      "stateMutability": "view",
      "type": "function"
    },
    {
      "inputs": [],
      "name": "owner",
      "outputs": [
        {
          "internalType": "address",
          "name": "",
          "type": "address"
        }
      ],
      "stateMutability": "view",
      "type": "function"
    },
    {
      "inputs": [
        {
          "internalType": "address",
          "name": "",
          "type": "address"
        }
      ],
      "name": "ownerCarCount",
      "outputs": [
        {
          "internalType": "uint256",
          "name": "",
          "type": "uint256"
        }
      ],
      "stateMutability": "view",
      "type": "function"
    },
    {
      "inputs": [
        {
          "internalType": "address",
          "name": "",
          "type": "address"
        }
      ],
      "name": "ownerChassisCount",
      "outputs": [
        {
          "internalType": "uint256",
          "name": "",
          "type": "uint256"
        }
      ],
      "stateMutability": "view",
      "type": "function"
    },
    {
      "inputs": [
        {
          "internalType": "address",
          "name": "",
          "type": "address"
        }
      ],
      "name": "ownerEngineCount",
      "outputs": [
        {
          "internalType": "uint256",
          "name": "",
          "type": "uint256"
        }
      ],
      "stateMutability": "view",
      "type": "function"
    },
    {
      "inputs": [],
      "name": "renounceOwnership",
      "outputs": [],
      "stateMutability": "nonpayable",
      "type": "function"
    },
    {
      "inputs": [
        {
          "internalType": "uint256",
          "name": "",
          "type": "uint256"
        }
      ],
      "name": "stations",
      "outputs": [
        {
          "internalType": "uint256",
          "name": "id",
          "type": "uint256"
        },
        {
          "internalType": "uint8",
          "name": "capacity",
          "type": "uint8"
        },
        {
          "internalType": "uint8",
          "name": "productionPerHour",
          "type": "uint8"
        },
        {
          "internalType": "uint8",
          "name": "currentFullness",
          "type": "uint8"
        },
        {
          "internalType": "uint256",
          "name": "lastUpdate",
          "type": "uint256"
        }
      ],
      "stateMutability": "view",
      "type": "function"
    },
    {
      "inputs": [
        {
          "internalType": "address",
          "name": "newOwner",
          "type": "address"
        }
      ],
      "name": "transferOwnership",
      "outputs": [],
      "stateMutability": "nonpayable",
      "type": "function"
    },
    {
      "inputs": [
        {
          "internalType": "uint256",
          "name": "carId",
          "type": "uint256"
        },
        {
          "internalType": "uint256",
          "name": "engineId",
          "type": "uint256"
        }
      ],
      "name": "switchEngine",
      "outputs": [],
      "stateMutability": "nonpayable",
      "type": "function"
    },
    {
      "inputs": [
        {
          "internalType": "uint256",
          "name": "carId",
          "type": "uint256"
        },
        {
          "internalType": "uint256",
          "name": "chassisId",
          "type": "uint256"
        }
      ],
      "name": "switchChassis",
      "outputs": [],
      "stateMutability": "nonpayable",
      "type": "function"
    },
    {
      "inputs": [
        {
          "internalType": "uint256",
          "name": "carId",
          "type": "uint256"
        },
        {
          "internalType": "uint256",
          "name": "engineId",
          "type": "uint256"
        }
      ],
      "name": "detachEngine",
      "outputs": [],
      "stateMutability": "nonpayable",
      "type": "function"
    },
    {
      "inputs": [
        {
          "internalType": "uint256",
          "name": "carId",
          "type": "uint256"
        },
        {
          "internalType": "uint256",
          "name": "chassisId",
          "type": "uint256"
        }
      ],
      "name": "detachChassis",
      "outputs": [],
      "stateMutability": "nonpayable",
      "type": "function"
    },
    {
      "inputs": [
        {
          "internalType": "address",
          "name": "_owner",
          "type": "address"
        }
      ],
      "name": "getFuelStationByOwner",
      "outputs": [
        {
          "components": [
            {
              "internalType": "uint256",
              "name": "id",
              "type": "uint256"
            },
            {
              "internalType": "uint8",
              "name": "capacity",
              "type": "uint8"
            },
            {
              "internalType": "uint8",
              "name": "productionPerHour",
              "type": "uint8"
            },
            {
              "internalType": "uint8",
              "name": "currentFullness",
              "type": "uint8"
            },
            {
              "internalType": "uint256",
              "name": "lastUpdate",
              "type": "uint256"
            }
          ],
          "internalType": "struct FuelStationFactory.FuelStation",
          "name": "",
          "type": "tuple"
        }
      ],
      "stateMutability": "view",
      "type": "function"
    },
    {
      "inputs": [
        {
          "internalType": "address",
          "name": "_owner",
          "type": "address"
        }
      ],
      "name": "getEnginesByOwner",
      "outputs": [
        {
          "components": [
            {
              "internalType": "uint256",
              "name": "id",
              "type": "uint256"
            },
            {
              "internalType": "uint16",
              "name": "horsePowers",
              "type": "uint16"
            },
            {
              "internalType": "uint8",
              "name": "consumtion",
              "type": "uint8"
            }
          ],
          "internalType": "struct CarFactory.Engine[]",
          "name": "",
          "type": "tuple[]"
        }
      ],
      "stateMutability": "view",
      "type": "function"
    },
    {
      "inputs": [
        {
          "internalType": "address",
          "name": "_owner",
          "type": "address"
        }
      ],
      "name": "getChassisByOwner",
      "outputs": [
        {
          "components": [
            {
              "internalType": "uint256",
              "name": "id",
              "type": "uint256"
            },
            {
              "internalType": "uint32",
              "name": "durability",
              "type": "uint32"
            },
            {
              "internalType": "uint32",
              "name": "resource",
              "type": "uint32"
            }
          ],
          "internalType": "struct CarFactory.Chassis[]",
          "name": "",
          "type": "tuple[]"
        }
      ],
      "stateMutability": "view",
      "type": "function"
    },
    {
      "inputs": [
        {
          "internalType": "address",
          "name": "_owner",
          "type": "address"
        }
      ],
      "name": "getCarsByOwner",
      "outputs": [
        {
          "components": [
            {
              "internalType": "string",
              "name": "model",
              "type": "string"
            },
            {
              "internalType": "uint256",
              "name": "vin",
              "type": "uint256"
            },
            {
              "internalType": "uint256",
              "name": "engineId",
              "type": "uint256"
            },
            {
              "internalType": "uint256",
              "name": "chassisId",
              "type": "uint256"
            },
            {
              "internalType": "uint8",
              "name": "carLevel",
              "type": "uint8"
            },
            {
              "internalType": "uint256",
              "name": "mileage",
              "type": "uint256"
            },
            {
              "internalType": "uint256",
              "name": "winCountOnCurrentLevel",
              "type": "uint256"
            },
            {
              "internalType": "uint256",
              "name": "lossCountOnCurrentLevel",
              "type": "uint256"
            },
            {
              "internalType": "uint256",
              "name": "id",
              "type": "uint256"
            }
          ],
          "internalType": "struct CarFactory.Car[]",
          "name": "",
          "type": "tuple[]"
        }
      ],
      "stateMutability": "view",
      "type": "function"
    },
    {
      "inputs": [
        {
          "internalType": "uint256",
          "name": "_fuelStatonId",
          "type": "uint256"
        },
        {
          "internalType": "uint8",
          "name": "_counts",
          "type": "uint8"
        }
      ],
      "name": "upgradeCapacity",
      "outputs": [],
      "stateMutability": "payable",
      "type": "function"
    },
    {
      "inputs": [
        {
          "internalType": "uint256",
          "name": "_fuelStatonId",
          "type": "uint256"
        },
        {
          "internalType": "uint8",
          "name": "_counts",
          "type": "uint8"
        }
      ],
      "name": "upgradeProductionPerHour",
      "outputs": [],
      "stateMutability": "payable",
      "type": "function"
    },
    {
      "inputs": [
        {
          "internalType": "uint256",
          "name": "_engineId",
          "type": "uint256"
        },
        {
          "internalType": "uint8",
          "name": "_counts",
          "type": "uint8"
        }
      ],
      "name": "upgradeHorsePowers",
      "outputs": [],
      "stateMutability": "payable",
      "type": "function"
    },
    {
      "inputs": [
        {
          "internalType": "uint256",
          "name": "_engineId",
          "type": "uint256"
        }
      ],
      "name": "upgradeConsumtion",
      "outputs": [],
      "stateMutability": "payable",
      "type": "function"
    },
    {
      "inputs": [
        {
          "internalType": "uint256",
          "name": "_chassisId",
          "type": "uint256"
        },
        {
          "internalType": "uint8",
          "name": "_counts",
          "type": "uint8"
        }
      ],
      "name": "upgradeDurability",
      "outputs": [],
      "stateMutability": "payable",
      "type": "function"
    },
    {
      "inputs": [
        {
          "internalType": "uint256",
          "name": "_fuelStatonId",
          "type": "uint256"
        },
        {
          "internalType": "uint8",
          "name": "_counts",
          "type": "uint8"
        }
      ],
      "name": "getCapacityUpgradeCost",
      "outputs": [
        {
          "internalType": "uint256",
          "name": "",
          "type": "uint256"
        }
      ],
      "stateMutability": "view",
      "type": "function"
    },
    {
      "inputs": [
        {
          "internalType": "uint256",
          "name": "_fuelStatonId",
          "type": "uint256"
        },
        {
          "internalType": "uint8",
          "name": "_counts",
          "type": "uint8"
        }
      ],
      "name": "getProductionPerHourUpgradeCost",
      "outputs": [
        {
          "internalType": "uint256",
          "name": "",
          "type": "uint256"
        }
      ],
      "stateMutability": "view",
      "type": "function"
    },
    {
      "inputs": [
        {
          "internalType": "uint256",
          "name": "_engineId",
          "type": "uint256"
        },
        {
          "internalType": "uint8",
          "name": "_counts",
          "type": "uint8"
        }
      ],
      "name": "getHorsePowersUpgradeCost",
      "outputs": [
        {
          "internalType": "uint256",
          "name": "",
          "type": "uint256"
        }
      ],
      "stateMutability": "view",
      "type": "function"
    },
    {
      "inputs": [
        {
          "internalType": "uint256",
          "name": "_engineId",
          "type": "uint256"
        }
      ],
      "name": "getConsumtionUpgradeCost",
      "outputs": [
        {
          "internalType": "uint256",
          "name": "",
          "type": "uint256"
        }
      ],
      "stateMutability": "view",
      "type": "function"
    },
    {
      "inputs": [
        {
          "internalType": "uint256",
          "name": "_chassisId",
          "type": "uint256"
        },
        {
          "internalType": "uint8",
          "name": "_counts",
          "type": "uint8"
        }
      ],
      "name": "getDurabilityUpgradeCost",
      "outputs": [
        {
          "internalType": "uint256",
          "name": "",
          "type": "uint256"
        }
      ],
      "stateMutability": "view",
      "type": "function"
    },
    {
      "inputs": [
        {
          "internalType": "uint256",
          "name": "_carId",
          "type": "uint256"
        }
      ],
      "name": "levelUp",
      "outputs": [],
      "stateMutability": "payable",
      "type": "function"
    },
    {
      "inputs": [
        {
          "internalType": "uint256",
          "name": "_carId",
          "type": "uint256"
        }
      ],
      "name": "getLevelUpCost",
      "outputs": [
        {
          "internalType": "uint256",
          "name": "",
          "type": "uint256"
        }
      ],
      "stateMutability": "view",
      "type": "function"
    }
  ],
  "bytecode": "0x60806040526000805461ffff60a01b191661014f60a21b17815560088190556009819055600a556001600b819055600c556509184e72a00060195565b5e620f48000601a55650da475abf000601b556611c37937e08000601c556305f5e100601d5566038d7ea4c68000601e5534801561007857600080fd5b50610082336100c4565b6050600355605b6004556005805460ff1916600a179055620186a06006556201d4c1600755600e80546001908101909155600f80549091018155600052610114565b600080546001600160a01b038381166001600160a01b0319831681178455604051919092169283917f8be0079c531659141344cd1fd0a4f28419497f9722a3daafe3b4186f6b6457e09190a35050565b61324e80620001246000396000f3fe6080604052600436106102725760003560e01c80638da5cb5b1161014f578063c34cccc4116100c1578063ede6fbf51161007a578063ede6fbf5146109aa578063f2fde38b146109ca578063f7746e36146109ea578063f85993b914610a1f578063faf4bb9814610a4c578063fb33250f14610a5f57600080fd5b8063c34cccc4146108dd578063c75bb4f4146108fd578063d1c54eea1461092a578063d7086fab1461094a578063df750c521461096a578063ea1269331461098a57600080fd5b8063aa11b68111610113578063aa11b681146107e2578063b3b29afd1461080f578063b72c0eea1461083c578063bf5070d31461087d578063bf9bc0b21461089d578063bfcc9716146108bd57600080fd5b80638da5cb5b146107385780638ff90c6b14610756578063906f5f341461076957806392f859db1461077c578063982b691c146107cc57600080fd5b80634e31f910116101e8578063715018a6116101ac578063715018a61461066957806376997de01461067e5780637713d5211461069e5780637fb2aa4d146106cb57806385909267146106f8578063877660191461070b57600080fd5b80634e31f91014610545578063594193d7146105b05780635dcc4cc6146105e65780636b606d9b1461061c5780636f206fc11461063c57600080fd5b80631a56afda1161023a5780631a56afda1461030b5780631c5dde0e1461032b578063224370f01461036d5780632ca4769e146104a157806333ca504b146104c1578063449014901461050f57600080fd5b806303f2e05b146102775780630a0176fc1461028c5780630c0cd532146102cc5780630ce90ec2146102e25780631702bf42146102f5575b600080fd5b61028a610285366004612a03565b610a7f565b005b34801561029857600080fd5b506102b96102a7366004612a2f565b60186020526000908152604090205481565b6040519081526020015b60405180910390f35b3480156102d857600080fd5b506102b9600a5481565b61028a6102f0366004612a2f565b610b85565b34801561030157600080fd5b506102b960085481565b34801561031757600080fd5b506102b9610326366004612a03565b610c8b565b34801561033757600080fd5b5061034b610346366004612a2f565b610cdd565b6040805193845263ffffffff92831660208501529116908201526060016102c3565b34801561037957600080fd5b5061028a600180546040805160a0810182528281526000805460ff600160a01b820481166020808601828152600160a81b90940483168688019081526060870192835263ffffffff421660808801908152898b018b559986529551600389027fb10e2d527612073b26eecdfd717e6a320cf44b4afac2b0732d9fcbe2b7fa0cf681019190915593517fb10e2d527612073b26eecdfd717e6a320cf44b4afac2b0732d9fcbe2b7fa0cf785018054975193518516620100000262ff0000199486166101000261ffff19909916929095169190911796909617919091169190911790935594517fb10e2d527612073b26eecdfd717e6a320cf44b4afac2b0732d9fcbe2b7fa0cf8909501949094559183526002909152902080546001600160a01b03191633179055565b3480156104ad57600080fd5b506102b96104bc366004612a03565b610d1d565b3480156104cd57600080fd5b506104f76104dc366004612a2f565b6010602052600090815260409020546001600160a01b031681565b6040516001600160a01b0390911681526020016102c3565b34801561051b57600080fd5b506104f761052a366004612a2f565b6012602052600090815260409020546001600160a01b031681565b34801561055157600080fd5b50610565610560366004612a48565b610d5f565b6040516102c39190600060a0820190508251825260ff602084015116602083015260ff604084015116604083015260ff60608401511660608301526080830151608083015292915050565b3480156105bc57600080fd5b506104f76105cb366004612a2f565b6002602052600090815260409020546001600160a01b031681565b3480156105f257600080fd5b506104f7610601366004612a2f565b6011602052600090815260409020546001600160a01b031681565b34801561062857600080fd5b5061028a610637366004612a71565b610e46565b34801561064857600080fd5b5061065c610657366004612a48565b610f46565b6040516102c39190612a93565b34801561067557600080fd5b5061028a61109a565b34801561068a57600080fd5b506102b9610699366004612a03565b6110ae565b3480156106aa57600080fd5b506106be6106b9366004612a48565b6110eb565b6040516102c39190612af6565b3480156106d757600080fd5b506102b96106e6366004612a48565b60146020526000908152604090205481565b61028a610706366004612a03565b611233565b34801561071757600080fd5b506102b9610726366004612a48565b60156020526000908152604090205481565b34801561074457600080fd5b506000546001600160a01b03166104f7565b61028a610764366004612a2f565b611318565b61028a610777366004612a03565b6113f7565b34801561078857600080fd5b5061079c610797366004612a2f565b6114b8565b6040805195865260ff9485166020870152928416928501929092529091166060830152608082015260a0016102c3565b3480156107d857600080fd5b506102b960095481565b3480156107ee57600080fd5b506102b96107fd366004612a2f565b60166020526000908152604090205481565b34801561081b57600080fd5b506102b961082a366004612a48565b60136020526000908152604090205481565b34801561084857600080fd5b5061085c610857366004612a2f565b611504565b6040805193845261ffff909216602084015260ff16908201526060016102c3565b34801561088957600080fd5b506102b9610898366004612a03565b611541565b3480156108a957600080fd5b506102b96108b8366004612a2f565b61157e565b3480156108c957600080fd5b506102b96108d8366004612b5d565b6115d1565b3480156108e957600080fd5b5061028a6108f8366004612a71565b611726565b34801561090957600080fd5b5061091d610918366004612a48565b611876565b6040516102c39190612be3565b34801561093657600080fd5b5061028a610945366004612a71565b611ab4565b34801561095657600080fd5b506102b9610965366004612cbf565b611b9a565b34801561097657600080fd5b506102b9610985366004612a2f565b611d09565b34801561099657600080fd5b5061028a6109a5366004612a71565b611d61565b3480156109b657600080fd5b5061028a6109c5366004612d9e565b611ec5565b3480156109d657600080fd5b5061028a6109e5366004612a48565b612093565b3480156109f657600080fd5b50610a0a610a05366004612a2f565b61210c565b6040516102c399989796959493929190612dd3565b348015610a2b57600080fd5b506102b9610a3a366004612a2f565b60176020526000908152604090205481565b61028a610a5a366004612a03565b6121f9565b348015610a6b57600080fd5b5061028a610a7a366004612e2a565b6122dd565b60008281526012602052604090205482906001600160a01b03163314610ac05760405162461bcd60e51b8152600401610ab790612eb2565b60405180910390fd5b610aca8383610c8b565b3414610ae85760405162461bcd60e51b8152600401610ab790612ee0565b600080546040516001600160a01b03909116913480156108fc02929091818181858888f19350505050158015610b22573d6000803e3d6000fd5b508160ff16600f8481548110610b3a57610b3a612f04565b6000918252602082206001600290920201018054909190610b6290849063ffffffff16612f30565b92506101000a81548163ffffffff021916908363ffffffff160217905550505050565b610b8e8161157e565b3414610bac5760405162461bcd60e51b8152600401610ab790612ee0565b600080546040516001600160a01b03909116913480156108fc02929091818181858888f19350505050158015610be6573d6000803e3d6000fd5b50600d8181548110610bfa57610bfa612f04565b600091825260208220600460099092020101805460ff1691610c1b83612f58565b91906101000a81548160ff021916908360ff160217905550506000600d8281548110610c4957610c49612f04565b9060005260206000209060090201600601819055506000600d8281548110610c7357610c73612f04565b90600052602060002090600902016007018190555050565b6000601d54600f8481548110610ca357610ca3612f04565b6000918252602090912060016002909202010154610cca9063ffffffff1660ff8516612f77565b610cd49190612f77565b90505b92915050565b600f8181548110610ced57600080fd5b60009182526020909120600290910201805460019091015490915063ffffffff8082169164010000000090041683565b6000601a5460018481548110610d3557610d35612f04565b6000918252602090912060016003909202010154610cca9060ff6101009091048116908516612f77565b6040805160a081018252600080825260208201819052918101829052606081018290526080810182905290805b600154811015610dd1576000818152600260205260409020546001600160a01b03808616911603610dbf57809150610dd1565b80610dc981612f96565b915050610d8c565b5060018181548110610de557610de5612f04565b60009182526020918290206040805160a081018252600390930290910180548352600181015460ff80821695850195909552610100810485169284019290925262010000909104909216606082015260029091015460808201529392505050565b60008181526012602052604090205481906001600160a01b03163314610e7e5760405162461bcd60e51b8152600401610ab790612eb2565b60008381526010602052604090205483906001600160a01b03163314610ea357600080fd5b82600d8581548110610eb757610eb7612f04565b90600052602060002090600902016003015414610f165760405162461bcd60e51b815260206004820152601860248201527f6368617373697320617265206e6f7420617474616368656400000000000000006044820152606401610ab7565b6000600d8581548110610f2b57610f2b612f04565b90600052602060002090600902016003018190555050505050565b6001600160a01b0381166000908152601560205260408120546060919067ffffffffffffffff811115610f7b57610f7b612cfb565b604051908082528060200260200182016040528015610fc657816020015b6040805160608101825260008082526020808301829052928201528252600019909201910181610f995790505b5090506000805b600f54811015611091576000818152601260205260409020546001600160a01b0380871691160361107f57600f818154811061100b5761100b612f04565b6000918252602091829020604080516060810182526002909302909101805483526001015463ffffffff80821694840194909452640100000000900490921691810191909152835184908490811061106557611065612f04565b6020026020010181905250818061107b90612f96565b9250505b8061108981612f96565b915050610fcd565b50909392505050565b6110a26124d7565b6110ac6000612531565b565b6000601954600184815481106110c6576110c6612f04565b6000918252602090912060016003909202010154610cca9060ff908116908516612f77565b6001600160a01b0381166000908152601460205260408120546060919067ffffffffffffffff81111561112057611120612cfb565b60405190808252806020026020018201604052801561116b57816020015b604080516060810182526000808252602080830182905292820152825260001990920191018161113e5790505b5090506000805b600e54811015611091576000818152601160205260409020546001600160a01b0380871691160361122157600e81815481106111b0576111b0612f04565b600091825260209182902060408051606081018252600293909302909101805483526001015461ffff8116938301939093526201000090920460ff1691810191909152835184908490811061120757611207612f04565b6020026020010181905250818061121d90612f96565b9250505b8061122b81612f96565b915050611172565b60008281526002602052604090205482906001600160a01b0316331461125857600080fd5b6112628383610d1d565b34146112805760405162461bcd60e51b8152600401610ab790612ee0565b600080546040516001600160a01b03909116913480156108fc02929091818181858888f193505050501580156112ba573d6000803e3d6000fd5b5081600184815481106112cf576112cf612f04565b906000526020600020906003020160010160018282829054906101000a900460ff166112fb9190612faf565b92506101000a81548160ff021916908360ff160217905550505050565b60008181526011602052604090205481906001600160a01b0316331461133d57600080fd5b61134682611d09565b34146113645760405162461bcd60e51b8152600401610ab790612ee0565b600080546040516001600160a01b03909116913480156108fc02929091818181858888f1935050505015801561139e573d6000803e3d6000fd5b50600e82815481106113b2576113b2612f04565b60009182526020909120600291820201600101805462010000900460ff16916113da83612fd4565b91906101000a81548160ff021916908360ff160217905550505050565b60008281526002602052604090205482906001600160a01b0316331461141c57600080fd5b61142683836110ae565b34146114445760405162461bcd60e51b8152600401610ab790612ee0565b600080546040516001600160a01b03909116913480156108fc02929091818181858888f1935050505015801561147e573d6000803e3d6000fd5b50816001848154811061149357611493612f04565b60009182526020822060016003909202010180549091906112fb90849060ff16612faf565b600181815481106114c857600080fd5b600091825260209091206003909102018054600182015460029092015490925060ff808316926101008104821692620100009091049091169085565b600e818154811061151457600080fd5b60009182526020909120600290910201805460019091015490915061ffff81169062010000900460ff1683565b6000601b54600e848154811061155957611559612f04565b6000918252602090912060016002909202010154610cca9061ffff1660ff8516612f77565b6000600a600d838154811061159557611595612f04565b60009182526020909120600460099092020101546115b6919060ff16613007565b6115c1906001612faf565b60ff16601e54610cd79190612f77565b60006115db6124d7565b600c8054600091826115ec83612f96565b909155506040805160608101825282815263ffffffff8781166020808401828152848601928352600f80546001810182556000918252955160029096027f8d1108e10bcb7c27dddfc02ed9d693a074039d026cf4ea4240b40f7d581ac80281019690965590517f8d1108e10bcb7c27dddfc02ed9d693a074039d026cf4ea4240b40f7d581ac8039095018054935185166401000000000267ffffffffffffffff1990941695909416949094179190911790915581546001600160a01b03168252601590529081208054929350906116c283612f96565b9091555050600080548282526012602052604090912080546001600160a01b0319166001600160a01b039092169190911790558215610cd4576000818152601860205260408120849055600980549161171a83612f96565b91905055509392505050565b60008181526011602052604090205481906001600160a01b0316331461174b57600080fd5b60008381526010602052604090205483906001600160a01b0316331461177057600080fd5b82600d858154811061178457611784612f04565b906000526020600020906009020160020154036117d15760405162461bcd60e51b815260206004820152600b60248201526a73616d6520656e67696e6560a81b6044820152606401610ab7565b60006117dc33611876565b905060005b815181101561184557848282815181106117fd576117fd612f04565b6020026020010151604001510361183357600082828151811061182257611822612f04565b602002602001015160400181815250505b8061183d81612f96565b9150506117e1565b5083600d868154811061185a5761185a612f04565b9060005260206000209060090201600201819055505050505050565b6001600160a01b0381166000908152601360205260408120546060919067ffffffffffffffff8111156118ab576118ab612cfb565b60405190808252806020026020018201604052801561192e57816020015b61191b60405180610120016040528060608152602001600081526020016000815260200160008152602001600060ff168152602001600081526020016000815260200160008152602001600081525090565b8152602001906001900390816118c95790505b5090506000805b600d54811015611091576000818152601060205260409020546001600160a01b03808716911603611aa257600d818154811061197357611973612f04565b90600052602060002090600902016040518061012001604052908160008201805461199d90613029565b80601f01602080910402602001604051908101604052809291908181526020018280546119c990613029565b8015611a165780601f106119eb57610100808354040283529160200191611a16565b820191906000526020600020905b8154815290600101906020018083116119f957829003601f168201915b5050509183525050600182015460208201526002820154604082015260038201546060820152600482015460ff166080820152600582015460a0820152600682015460c0820152600782015460e0820152600890910154610100909101528351849084908110611a8857611a88612f04565b60200260200101819052508180611a9e90612f96565b9250505b80611aac81612f96565b915050611935565b60008181526011602052604090205481906001600160a01b03163314611ad957600080fd5b60008381526010602052604090205483906001600160a01b03163314611afe57600080fd5b82600d8581548110611b1257611b12612f04565b90600052602060002090600902016002015414611b6a5760405162461bcd60e51b8152602060048201526016602482015275195b99da5b99481a5cc81b9bdd08185d1d1858da195960521b6044820152606401610ab7565b6000600d8581548110611b7f57611b7f612f04565b90600052602060002090600902016002018190555050505050565b6000611ba46124d7565b600b805460009182611bb583612f96565b909155506040805160608101825282815261ffff8089166020830190815260ff808a16948401948552600e80546001810182556000918252945160029095027fbb7b4a454dc3493923482f07822329ed19e8244eff582cc204f8554c3620c3fd81019590955591517fbb7b4a454dc3493923482f07822329ed19e8244eff582cc204f8554c3620c3fe90940180549551909116620100000262ffffff19909516939092169290921792909217909155909150601490611c7c6000546001600160a01b031690565b6001600160a01b0316815260208101919091526040016000908120805491611ca383612f96565b9091555050600080548282526011602052604090912080546001600160a01b0319166001600160a01b039092169190911790558215611d01576000818152601760205260408120849055600a805491611cfb83612f96565b91905055505b949350505050565b6000601c54600e8381548110611d2157611d21612f04565b6000918252602090912060029091020160010154611d499062010000900460ff16600a613063565b611d579060ff16600261316a565b610cd79190612f77565b60008181526012602052604090205481906001600160a01b03163314611d995760405162461bcd60e51b8152600401610ab790612eb2565b60008381526010602052604090205483906001600160a01b03163314611dbe57600080fd5b82600d8581548110611dd257611dd2612f04565b90600052602060002090600902016003015403611e205760405162461bcd60e51b815260206004820152600c60248201526b73616d65206368617373697360a01b6044820152606401610ab7565b6000611e2b33611876565b905060005b8151811015611e945784828281518110611e4c57611e4c612f04565b60200260200101516060015103611e82576000828281518110611e7157611e71612f04565b602002602001015160600181815250505b80611e8c81612f96565b915050611e30565b5083600d8681548110611ea957611ea9612f04565b9060005260206000209060090201600301819055505050505050565b3360009081526013602052604090205415611edf57600080fd5b600081611eeb42612581565b604051602001611efc929190613176565b6040516020818303038152906040529050600081604051602001611f20919061319c565b6040516020818303038152906040528051906020012060001c90506000611f45612614565b90506000611f51612748565b600d80546040805161012081018252898152602080820189905291810187905260608101859052600160808201819052600060a0830181905260c0830181905260e083018190526101008301859052908401855593909352825180519495509193600985027fd7b6990105719101dabeb77144f2a3385c8033acd3af97e9423a695e81ad1eb50192611fe7928492910190612954565b506020828101516001830155604080840151600284015560608401516003840155608084015160048401805460ff191660ff90921691909117905560a0840151600584015560c0840151600684015560e08401516007840155610100909301516008909201919091556000838152601082528281208054336001600160a01b031990911681179091558152601390915290812080549161208683612f96565b9190505550505050505050565b61209b6124d7565b6001600160a01b0381166121005760405162461bcd60e51b815260206004820152602660248201527f4f776e61626c653a206e6577206f776e657220697320746865207a65726f206160448201526564647265737360d01b6064820152608401610ab7565b61210981612531565b50565b600d818154811061211c57600080fd5b906000526020600020906009020160009150905080600001805461213f90613029565b80601f016020809104026020016040519081016040528092919081815260200182805461216b90613029565b80156121b85780601f1061218d576101008083540402835291602001916121b8565b820191906000526020600020905b81548152906001019060200180831161219b57829003601f168201915b50505060018401546002850154600386015460048701546005880154600689015460078a01546008909a01549899959894975092955060ff90911693909289565b60008281526011602052604090205482906001600160a01b0316331461221e57600080fd5b6122288383611541565b34146122465760405162461bcd60e51b8152600401610ab790612ee0565b600080546040516001600160a01b03909116913480156108fc02929091818181858888f19350505050158015612280573d6000803e3d6000fd5b508160ff16600e848154811061229857612298612f04565b60009182526020822060016002909202010180549091906122be90849061ffff166131b8565b92506101000a81548161ffff021916908361ffff160217905550505050565b6122e56124d7565b6000866122f142612581565b604051602001612302929190613176565b6040516020818303038152906040529050600081604051602001612326919061319c565b6040516020818303038152906040528051906020012060001c9050600061234f88886000611b9a565b9050600061235e8760006115d1565b600d805460408051610120810182528e815260208082018990529181018790526060810185905260ff8b166080820152600060a0820181905260c0820181905260e08201819052610100820184905260018401855593909352825180519495509193600985027fd7b6990105719101dabeb77144f2a3385c8033acd3af97e9423a695e81ad1eb501926123f5928492910190612954565b506020828101516001830155604080840151600284015560608401516003840155608084015160048401805460ff90921660ff1990921691909117905560a0840151600584015560c0840151600684015560e0840151600784015561010090930151600890920191909155600080548482526010835283822080546001600160a01b0319166001600160a01b03928316179055815416815260139091529081208054916124a183612f96565b9091555050600081815260166020526040812087905560088054916124c583612f96565b91905055505050505050505050505050565b6000546001600160a01b031633146110ac5760405162461bcd60e51b815260206004820181905260248201527f4f776e61626c653a2063616c6c6572206973206e6f7420746865206f776e65726044820152606401610ab7565b600080546001600160a01b038381166001600160a01b0319831681178455604051919092169283917f8be0079c531659141344cd1fd0a4f28419497f9722a3daafe3b4186f6b6457e09190a35050565b6060600061258e8361287c565b600101905060008167ffffffffffffffff8111156125ae576125ae612cfb565b6040519080825280601f01601f1916602001820160405280156125d8576020820181803683370190505b5090508181016020015b600019016f181899199a1a9b1b9c1cb0b131b232b360811b600a86061a8153600a85049450846125e257509392505050565b60008060035460045461262791906131d5565b61263190426131ec565b60035461263e9190613200565b600b8054919250600091908261265383612f96565b909155506040805160608101825282815261ffff808616602080840191825260055460ff908116858701908152600e80546001810182556000918252965160029097027fbb7b4a454dc3493923482f07822329ed19e8244eff582cc204f8554c3620c3fd81019790975593517fbb7b4a454dc3493923482f07822329ed19e8244eff582cc204f8554c3620c3fe90960180549151909216620100000262ffffff199091169590941694909417929092179092553382526014905290812080549293509061271f83612f96565b9091555050600081815260116020526040902080546001600160a01b0319163317905592915050565b60008060065460075461275b91906131d5565b61276590426131ec565b6006546127729190613200565b600c8054919250600091908261278783612f96565b909155506040805160608101825282815263ffffffff8086166020808401828152848601928352600f80546001810182556000918252955160029096027f8d1108e10bcb7c27dddfc02ed9d693a074039d026cf4ea4240b40f7d581ac80281019690965590517f8d1108e10bcb7c27dddfc02ed9d693a074039d026cf4ea4240b40f7d581ac8039095018054935185166401000000000267ffffffffffffffff199094169590941694909417919091179091553382526015905290812080549293509061285383612f96565b9091555050600081815260126020526040902080546001600160a01b0319163317905592915050565b60008072184f03e93ff9f4daa797ed6e38ed64bf6a1f0160401b83106128bb5772184f03e93ff9f4daa797ed6e38ed64bf6a1f0160401b830492506040015b6d04ee2d6d415b85acef810000000083106128e7576d04ee2d6d415b85acef8100000000830492506020015b662386f26fc10000831061290557662386f26fc10000830492506010015b6305f5e100831061291d576305f5e100830492506008015b612710831061293157612710830492506004015b60648310612943576064830492506002015b600a8310610cd75760010192915050565b82805461296090613029565b90600052602060002090601f01602090048101928261298257600085556129c8565b82601f1061299b57805160ff19168380011785556129c8565b828001600101855582156129c8579182015b828111156129c85782518255916020019190600101906129ad565b506129d49291506129d8565b5090565b5b808211156129d457600081556001016129d9565b803560ff811681146129fe57600080fd5b919050565b60008060408385031215612a1657600080fd5b82359150612a26602084016129ed565b90509250929050565b600060208284031215612a4157600080fd5b5035919050565b600060208284031215612a5a57600080fd5b81356001600160a01b0381168114610cd457600080fd5b60008060408385031215612a8457600080fd5b50508035926020909101359150565b602080825282518282018190526000919060409081850190868401855b82811015612ae9578151805185528681015163ffffffff9081168887015290860151168585015260609093019290850190600101612ab0565b5091979650505050505050565b602080825282518282018190526000919060409081850190868401855b82811015612ae9578151805185528681015161ffff168786015285015160ff168585015260609093019290850190600101612b13565b803563ffffffff811681146129fe57600080fd5b60008060408385031215612b7057600080fd5b612b7983612b49565b946020939093013593505050565b60005b83811015612ba2578181015183820152602001612b8a565b83811115612bb1576000848401525b50505050565b60008151808452612bcf816020860160208601612b87565b601f01601f19169290920160200192915050565b60006020808301818452808551808352604092508286019150828160051b87010184880160005b83811015612c9f57603f1989840301855281516101208151818652612c3182870182612bb7565b915050888201518986015287820151888601526060808301518187015250608080830151612c638288018260ff169052565b505060a0828101519086015260c0808301519086015260e080830151908601526101009182015191909401529386019390860190600101612c0a565b509098975050505050505050565b803561ffff811681146129fe57600080fd5b600080600060608486031215612cd457600080fd5b612cdd84612cad565b9250612ceb602085016129ed565b9150604084013590509250925092565b634e487b7160e01b600052604160045260246000fd5b600082601f830112612d2257600080fd5b813567ffffffffffffffff80821115612d3d57612d3d612cfb565b604051601f8301601f19908116603f01168101908282118183101715612d6557612d65612cfb565b81604052838152866020858801011115612d7e57600080fd5b836020870160208301376000602085830101528094505050505092915050565b600060208284031215612db057600080fd5b813567ffffffffffffffff811115612dc757600080fd5b611d0184828501612d11565b6000610120808352612de78184018d612bb7565b602084019b909b5250506040810197909752606087019590955260ff93909316608086015260a085019190915260c084015260e083015261010090910152919050565b60008060008060008060c08789031215612e4357600080fd5b863567ffffffffffffffff811115612e5a57600080fd5b612e6689828a01612d11565b965050612e7560208801612cad565b9450612e83604088016129ed565b9350612e9160608801612b49565b9250612e9f608088016129ed565b915060a087013590509295509295509295565b6020808252601490820152730c6d0c2e6e6d2e640dcdee840f2deeae4407c74560631b604082015260600190565b6020808252600a90820152691ddc9bdb99c818dbdcdd60b21b604082015260600190565b634e487b7160e01b600052603260045260246000fd5b634e487b7160e01b600052601160045260246000fd5b600063ffffffff808316818516808303821115612f4f57612f4f612f1a565b01949350505050565b600060ff821660ff8103612f6e57612f6e612f1a565b60010192915050565b6000816000190483118215151615612f9157612f91612f1a565b500290565b600060018201612fa857612fa8612f1a565b5060010190565b600060ff821660ff84168060ff03821115612fcc57612fcc612f1a565b019392505050565b600060ff821680612fe757612fe7612f1a565b6000190192915050565b634e487b7160e01b600052601260045260246000fd5b600060ff83168061301a5761301a612ff1565b8060ff84160491505092915050565b600181811c9082168061303d57607f821691505b60208210810361305d57634e487b7160e01b600052602260045260246000fd5b50919050565b600060ff821660ff84168082101561307d5761307d612f1a565b90039392505050565b600181815b808511156130c15781600019048211156130a7576130a7612f1a565b808516156130b457918102915b93841c939080029061308b565b509250929050565b6000826130d857506001610cd7565b816130e557506000610cd7565b81600181146130fb576002811461310557613121565b6001915050610cd7565b60ff84111561311657613116612f1a565b50506001821b610cd7565b5060208310610133831016604e8410600b8410161715613144575081810a610cd7565b61314e8383613086565b806000190482111561316257613162612f1a565b029392505050565b6000610cd483836130c9565b60008351613188818460208801612b87565b835190830190612f4f818360208801612b87565b600082516131ae818460208701612b87565b9190910192915050565b600061ffff808316818516808303821115612f4f57612f4f612f1a565b6000828210156131e7576131e7612f1a565b500390565b6000826131fb576131fb612ff1565b500690565b6000821982111561321357613213612f1a565b50019056fea26469706673582212204fb26ea9d9cb6f60a750a3e0264c474867874b6d23fd9ce66982be7b2cc10d5364736f6c634300080d0033",
  "immutableReferences": {},
  "source": "// SPDX-License-Identifier: MIT\npragma solidity ^0.8.13;\n\nimport \"./CarFactory.sol\";\nimport \"../node_modules/@openzeppelin/contracts/utils/Strings.sol\";\n\n/// @title cars\ncontract CarHelper is CarFactory {\n\n    uint capacityCoef = 0.00001 ether;\n    uint productionPerHourCoef = 0.0002 ether;\n    uint horsePowersCoef = 0.000015 ether;\n    uint consumtionCoef = 0.005 ether;\n    uint durabilityCoef = 0.0000000001 ether;\n    uint levelUpCost = 0.001 ether;\n\n    /// caller is equal car owner\n    modifier onlyOwnerOfCar(uint _carId) {\n        require(msg.sender == carToOwner[_carId]);\n        _;\n    }\n\n    /// caller is equal engine owner\n    modifier onlyOwnerOfEngine(uint _engineId) {\n        require(msg.sender == engineToOwner[_engineId]);\n        _;\n    }\n\n    /// caller is equal chassis owner\n    modifier onlyOwnerOfChassis(uint _chassisId) {\n        require(msg.sender == chassisToOwner[_chassisId], \"chassis not your >:(\");\n        _;\n    }\n\n    /// caller is equal fuel station owner\n    modifier onlyOwnerOfFuelStation(uint _fuelStationId) {\n        require(msg.sender == fuelStationToOwner[_fuelStationId]);\n        _;\n    }\n\n    /// changing engine in owner's car\n    /// @param carId car id\n    /// @param engineId engine id\n    function switchEngine(uint carId, uint engineId) public onlyOwnerOfEngine(engineId) onlyOwnerOfCar(carId){\n        require(cars[carId].engineId != engineId, \"same engine\");\n        Car[] memory cc = getCarsByOwner(msg.sender);\n        for(uint i = 0; i<cc.length; i++){\n            if(cc[i].engineId == engineId){\n                cc[i].engineId = 0;\n            }\n        }\n        cars[carId].engineId = engineId;\n    }\n\n    /// changing chassis in owner's car\n    /// @param carId car id\n    /// @param chassisId chassis id\n    function switchChassis(uint carId, uint chassisId) public onlyOwnerOfChassis(chassisId) onlyOwnerOfCar(carId){\n        require(cars[carId].chassisId != chassisId, \"same chassis\");\n        Car[] memory cc = getCarsByOwner(msg.sender);\n        for(uint i = 0; i<cc.length; i++){\n            if(cc[i].chassisId == chassisId){\n                cc[i].chassisId = 0;\n            }\n        }\n        cars[carId].chassisId = chassisId;\n    }\n\n    /// removal of the old engine\n    /// @param carId car id\n    /// @param engineId engine id\n    /// @dev for installation new engine\n    function detachEngine(uint carId, uint engineId) public onlyOwnerOfEngine(engineId) onlyOwnerOfCar(carId){\n        require(cars[carId].engineId == engineId, \"engine is not attached\");\n        cars[carId].engineId = 0;\n    }\n\n    /// removal of the old chassis\n    /// @param carId car id\n    /// @param chassisId chassis id\n    /// @dev for installation new chassis\n    function detachChassis(uint carId, uint chassisId) public onlyOwnerOfChassis(chassisId) onlyOwnerOfCar(carId){\n        require(cars[carId].chassisId == chassisId, \"chassis are not attached\");\n        cars[carId].chassisId = 0;\n    }\n\n    /// fuel station of owner\n    /// @param _owner owner's address\n    /// @return FuelStation memory one owner fuel station\n    /// @dev exist only one\n    function getFuelStationByOwner(address _owner) public view returns(FuelStation memory){\n        uint resId;\n        for (uint i = 0; i < stations.length; i++) {\n            if (fuelStationToOwner[i] == _owner) {\n               resId = i;\n               break;\n            }\n        }\n        return stations[resId];\n    }\n\n    /// list of owner engines\n    /// @param _owner owner's address\n    /// @return Engine[] memory owner's list of engines\n    function getEnginesByOwner(address _owner) public view returns(Engine[] memory) {\n        Engine[] memory result = new Engine[](ownerEngineCount[_owner]);\n        uint counter = 0;\n        for (uint i = 0; i < engines.length; i++) {\n            if (engineToOwner[i] == _owner) {\n                result[counter] = engines[i];\n                counter++;\n            }\n        }\n        return result;\n    }\n\n    /// list of owner chassis\n    /// @param _owner owner's address\n    /// @return Chassis[] memory owner's list of engines\n    function getChassisByOwner(address _owner) public view returns(Chassis[] memory) {\n        Chassis[] memory result = new Chassis[](ownerChassisCount[_owner]);\n        uint counter = 0;\n        for (uint i = 0; i < chassis.length; i++) {\n            if (chassisToOwner[i] == _owner) {\n                result[counter] = chassis[i];\n                counter++;\n            }\n        }\n        return result;\n    }\n\n    /// list of owner cars\n    /// @param _owner owner's address\n    /// @return Car[] memory owner's list of cars\n    function getCarsByOwner(address _owner) public view returns(Car[] memory) {\n        Car[] memory result = new Car[](ownerCarCount[_owner]);\n        uint counter = 0;\n        for (uint i = 0; i < cars.length; i++) {\n            if (carToOwner[i] == _owner) {\n                result[counter] = cars[i];\n                counter++;\n            }\n        }\n        return result;\n    }\n\n    /// upgrade capacity of fuel station\n    /// @param _fuelStatonId fuel station id\n    /// @param _counts size\n    function upgradeCapacity(uint _fuelStatonId, uint8 _counts) external payable onlyOwnerOfFuelStation(_fuelStatonId) {\n        require(msg.value == getCapacityUpgradeCost(_fuelStatonId, _counts), \"wrong cost\");\n        payable(owner()).transfer(msg.value);\n        stations[_fuelStatonId].capacity += _counts; \n    }\n    \n    /// upgrade production on per hour\n    /// @param _fuelStatonId fuel station id\n    /// @param _counts size\n    function upgradeProductionPerHour(uint _fuelStatonId, uint8 _counts) external payable onlyOwnerOfFuelStation(_fuelStatonId) {\n        require(msg.value == getProductionPerHourUpgradeCost(_fuelStatonId, _counts), \"wrong cost\");\n        payable(owner()).transfer(msg.value);\n        stations[_fuelStatonId].productionPerHour += _counts; \n    }\n\n    /// upgrade horse powers\n    /// @param _engineId engine id\n    /// @param _counts size\n    function upgradeHorsePowers(uint _engineId, uint8 _counts) external payable onlyOwnerOfEngine(_engineId) {\n        require(msg.value == getHorsePowersUpgradeCost(_engineId, _counts), \"wrong cost\");\n        payable(owner()).transfer(msg.value);\n        engines[_engineId].horsePowers += _counts; \n    }\n\n    /// upgrade consumption\n    /// @param _engineId engine id\n    function upgradeConsumtion(uint _engineId) external payable onlyOwnerOfEngine(_engineId) {\n        require(msg.value == getConsumtionUpgradeCost(_engineId), \"wrong cost\");\n        payable(owner()).transfer(msg.value);\n        engines[_engineId].consumtion --; \n    }\n\n    /// upgrade durability\n    /// @param _chassisId chassis id\n    /// @param _counts size\n    function upgradeDurability(uint _chassisId, uint8 _counts) external payable onlyOwnerOfChassis(_chassisId) {\n        require(msg.value == getDurabilityUpgradeCost(_chassisId, _counts),  \"wrong cost\");\n        payable(owner()).transfer(msg.value);\n        chassis[_chassisId].durability += _counts; \n    }\n\n\n    function getCapacityUpgradeCost(uint _fuelStatonId, uint8 _counts) public view returns(uint){\n        return (uint(_counts) * uint(stations[_fuelStatonId].capacity)) * capacityCoef;\n    }\n\n    function getProductionPerHourUpgradeCost(uint _fuelStatonId, uint8 _counts) public view returns(uint){\n        return (uint(_counts) * uint(stations[_fuelStatonId].productionPerHour)) * productionPerHourCoef;\n    }\n\n    function getHorsePowersUpgradeCost(uint _engineId, uint8 _counts) public view returns(uint){\n        return (uint(_counts) * uint(engines[_engineId].horsePowers)) * horsePowersCoef;\n    }\n\n    function getConsumtionUpgradeCost(uint _engineId) public view returns(uint){\n        return uint(2 ** uint(10 - engines[_engineId].consumtion)) * consumtionCoef;\n    }\n\n    function getDurabilityUpgradeCost(uint _chassisId, uint8 _counts) public view returns(uint){\n        return (uint(_counts) * uint(chassis[_chassisId].durability)) * durabilityCoef;\n    }\n    \n    /// upgrade car level\n    /// @param _carId car id\n    function levelUp(uint _carId) external payable {\n        require(msg.value == getLevelUpCost(_carId), \"wrong cost\");\n        //require(cars[_carId].winCountOnCurrentLevel >= (cars[_carId].carLevel + 1), \"not enough wins on current level!\");\n        payable(owner()).transfer(msg.value);\n        cars[_carId].carLevel++;\n        cars[_carId].winCountOnCurrentLevel = 0;\n        cars[_carId].lossCountOnCurrentLevel = 0;\n    }\n\n    function getLevelUpCost(uint _carId) public view returns(uint) {\n        return levelUpCost * (cars[_carId].carLevel/10 + 1);\n    }\n\n}\n",
  "sourcePath": "/Users/vvan/Programming/JavaScript/DriveSafely/contract/contracts/CarHelper.sol",
  "compiler": {
    "name": "solc",
    "version": "0.8.13+commit.abaa5c0e.Emscripten.clang"
  },
  "schemaVersion": "3.4.11",
  "updatedAt": "2023-01-12T15:01:18.115Z",
  "networkType": "ethereum",
  "devdoc": {
    "kind": "dev",
    "methods": {
      "createCar(string)": {
        "details": "creating new car for user",
        "params": {
          "model": "car model"
        }
      },
      "createCustomCar(string,uint16,uint8,uint32,uint8,uint256)": {
        "details": "creation car for customer with different characteristics",
        "params": {
          "_carLevel": "car level",
          "_carPrice": "car price",
          "_consumtion": "car consumtion",
          "_durability": "car durability",
          "_horsePowers": "car horse powers",
          "_model": "car model"
        }
      },
      "createCustomChassis(uint32,uint256)": {
        "params": {
          "_chassisPrice": "chassis price",
          "_durability": "car durability"
        },
        "returns": {
          "_0": "id new chassis"
        }
      },
      "createCustomEngine(uint16,uint8,uint256)": {
        "params": {
          "_consumtion": "car consumtion",
          "_enginePrice": "car engine price",
          "_horsePowers": "car horse powers"
        },
        "returns": {
          "_0": "id new engine"
        }
      },
      "detachChassis(uint256,uint256)": {
        "details": "for installation new chassis",
        "params": {
          "carId": "car id",
          "chassisId": "chassis id"
        }
      },
      "detachEngine(uint256,uint256)": {
        "details": "for installation new engine",
        "params": {
          "carId": "car id",
          "engineId": "engine id"
        }
      },
      "getCarsByOwner(address)": {
        "params": {
          "_owner": "owner's address"
        },
        "returns": {
          "_0": "Car[] memory owner's list of cars"
        }
      },
      "getChassisByOwner(address)": {
        "params": {
          "_owner": "owner's address"
        },
        "returns": {
          "_0": "Chassis[] memory owner's list of engines"
        }
      },
      "getEnginesByOwner(address)": {
        "params": {
          "_owner": "owner's address"
        },
        "returns": {
          "_0": "Engine[] memory owner's list of engines"
        }
      },
      "getFuelStationByOwner(address)": {
        "details": "exist only one",
        "params": {
          "_owner": "owner's address"
        },
        "returns": {
          "_0": "FuelStation memory one owner fuel station"
        }
      },
      "levelUp(uint256)": {
        "params": {
          "_carId": "car id"
        }
      },
      "owner()": {
        "details": "Returns the address of the current owner."
      },
      "renounceOwnership()": {
        "details": "Leaves the contract without owner. It will not be possible to call `onlyOwner` functions anymore. Can only be called by the current owner. NOTE: Renouncing ownership will leave the contract without an owner, thereby removing any functionality that is only available to the owner."
      },
      "switchChassis(uint256,uint256)": {
        "params": {
          "carId": "car id",
          "chassisId": "chassis id"
        }
      },
      "switchEngine(uint256,uint256)": {
        "params": {
          "carId": "car id",
          "engineId": "engine id"
        }
      },
      "transferOwnership(address)": {
        "details": "Transfers ownership of the contract to a new account (`newOwner`). Can only be called by the current owner."
      },
      "upgradeCapacity(uint256,uint8)": {
        "params": {
          "_counts": "size",
          "_fuelStatonId": "fuel station id"
        }
      },
      "upgradeConsumtion(uint256)": {
        "params": {
          "_engineId": "engine id"
        }
      },
      "upgradeDurability(uint256,uint8)": {
        "params": {
          "_chassisId": "chassis id",
          "_counts": "size"
        }
      },
      "upgradeHorsePowers(uint256,uint8)": {
        "params": {
          "_counts": "size",
          "_engineId": "engine id"
        }
      },
      "upgradeProductionPerHour(uint256,uint8)": {
        "params": {
          "_counts": "size",
          "_fuelStatonId": "fuel station id"
        }
      }
    },
    "title": "cars",
    "version": 1
  },
  "userdoc": {
    "kind": "user",
    "methods": {
      "createCar(string)": {
        "notice": "creating car"
      },
      "createCustomCar(string,uint16,uint8,uint32,uint8,uint256)": {
        "notice": "customer car creation    (    )"
      },
      "createCustomChassis(uint32,uint256)": {
        "notice": "customer chassis creation"
      },
      "createCustomEngine(uint16,uint8,uint256)": {
        "notice": "customer engine creation"
      },
      "detachChassis(uint256,uint256)": {
        "notice": "removal of the old chassis"
      },
      "detachEngine(uint256,uint256)": {
        "notice": "removal of the old engine"
      },
      "getCarsByOwner(address)": {
        "notice": "list of owner cars"
      },
      "getChassisByOwner(address)": {
        "notice": "list of owner chassis"
      },
      "getEnginesByOwner(address)": {
        "notice": "list of owner engines"
      },
      "getFuelStationByOwner(address)": {
        "notice": "fuel station of owner"
      },
      "levelUp(uint256)": {
        "notice": "upgrade car level"
      },
      "switchChassis(uint256,uint256)": {
        "notice": "changing chassis in owner's car"
      },
      "switchEngine(uint256,uint256)": {
        "notice": "changing engine in owner's car"
      },
      "upgradeCapacity(uint256,uint8)": {
        "notice": "upgrade capacity of fuel station"
      },
      "upgradeConsumtion(uint256)": {
        "notice": "upgrade consumption"
      },
      "upgradeDurability(uint256,uint8)": {
        "notice": "upgrade durability"
      },
      "upgradeHorsePowers(uint256,uint8)": {
        "notice": "upgrade horse powers"
      },
      "upgradeProductionPerHour(uint256,uint8)": {
        "notice": "upgrade production on per hour"
      }
    },
    "version": 1
  }
}