{
  "contractName": "CarHelper",
  "abi": [
    {
      "anonymous": false,
      "inputs": [
        {
          "indexed": true,
          "internalType": "address",
          "name": "previousOwner",
          "type": "address"
        },
        {
          "indexed": true,
          "internalType": "address",
          "name": "newOwner",
          "type": "address"
        }
      ],
      "name": "OwnershipTransferred",
      "type": "event"
    },
    {
      "inputs": [
        {
          "internalType": "uint256",
          "name": "",
          "type": "uint256"
        }
      ],
      "name": "carToOwner",
      "outputs": [
        {
          "internalType": "address",
          "name": "",
          "type": "address"
        }
      ],
      "stateMutability": "view",
      "type": "function"
    },
    {
      "inputs": [
        {
          "internalType": "uint256",
          "name": "",
          "type": "uint256"
        }
      ],
      "name": "cars",
      "outputs": [
        {
          "internalType": "string",
          "name": "model",
          "type": "string"
        },
        {
          "internalType": "uint256",
          "name": "vin",
          "type": "uint256"
        },
        {
          "internalType": "uint256",
          "name": "engineId",
          "type": "uint256"
        },
        {
          "internalType": "uint256",
          "name": "chassisId",
          "type": "uint256"
        },
        {
          "internalType": "uint8",
          "name": "carLevel",
          "type": "uint8"
        },
        {
          "internalType": "uint256",
          "name": "mileage",
          "type": "uint256"
        },
        {
          "internalType": "uint256",
          "name": "winCountOnCurrentLevel",
          "type": "uint256"
        },
        {
          "internalType": "uint256",
          "name": "lossCountOnCurrentLevel",
          "type": "uint256"
        },
        {
          "internalType": "uint256",
          "name": "id",
          "type": "uint256"
        }
      ],
      "stateMutability": "view",
      "type": "function"
    },
    {
      "inputs": [
        {
          "internalType": "uint256",
          "name": "",
          "type": "uint256"
        }
      ],
      "name": "chassis",
      "outputs": [
        {
          "internalType": "uint256",
          "name": "id",
          "type": "uint256"
        },
        {
          "internalType": "uint32",
          "name": "durability",
          "type": "uint32"
        },
        {
          "internalType": "uint32",
          "name": "resource",
          "type": "uint32"
        }
      ],
      "stateMutability": "view",
      "type": "function"
    },
    {
      "inputs": [
        {
          "internalType": "uint256",
          "name": "",
          "type": "uint256"
        }
      ],
      "name": "chassisToOwner",
      "outputs": [
        {
          "internalType": "address",
          "name": "",
          "type": "address"
        }
      ],
      "stateMutability": "view",
      "type": "function"
    },
    {
      "inputs": [
        {
          "internalType": "string",
          "name": "model",
          "type": "string"
        }
      ],
      "name": "createCar",
      "outputs": [],
      "stateMutability": "nonpayable",
      "type": "function"
    },
    {
      "inputs": [],
      "name": "createFuelStation",
      "outputs": [],
      "stateMutability": "nonpayable",
      "type": "function"
    },
    {
      "inputs": [
        {
          "internalType": "uint256",
          "name": "",
          "type": "uint256"
        }
      ],
      "name": "engineToOwner",
      "outputs": [
        {
          "internalType": "address",
          "name": "",
          "type": "address"
        }
      ],
      "stateMutability": "view",
      "type": "function"
    },
    {
      "inputs": [
        {
          "internalType": "uint256",
          "name": "",
          "type": "uint256"
        }
      ],
      "name": "engines",
      "outputs": [
        {
          "internalType": "uint256",
          "name": "id",
          "type": "uint256"
        },
        {
          "internalType": "uint16",
          "name": "horsePowers",
          "type": "uint16"
        },
        {
          "internalType": "uint8",
          "name": "consumtion",
          "type": "uint8"
        }
      ],
      "stateMutability": "view",
      "type": "function"
    },
    {
      "inputs": [
        {
          "internalType": "uint256",
          "name": "",
          "type": "uint256"
        }
      ],
      "name": "fuelStationToOwner",
      "outputs": [
        {
          "internalType": "address",
          "name": "",
          "type": "address"
        }
      ],
      "stateMutability": "view",
      "type": "function"
    },
    {
      "inputs": [],
      "name": "owner",
      "outputs": [
        {
          "internalType": "address",
          "name": "",
          "type": "address"
        }
      ],
      "stateMutability": "view",
      "type": "function"
    },
    {
      "inputs": [
        {
          "internalType": "address",
          "name": "",
          "type": "address"
        }
      ],
      "name": "ownerCarCount",
      "outputs": [
        {
          "internalType": "uint256",
          "name": "",
          "type": "uint256"
        }
      ],
      "stateMutability": "view",
      "type": "function"
    },
    {
      "inputs": [],
      "name": "renounceOwnership",
      "outputs": [],
      "stateMutability": "nonpayable",
      "type": "function"
    },
    {
      "inputs": [
        {
          "internalType": "uint256",
          "name": "",
          "type": "uint256"
        }
      ],
      "name": "stations",
      "outputs": [
        {
          "internalType": "uint256",
          "name": "id",
          "type": "uint256"
        },
        {
          "internalType": "uint8",
          "name": "capacity",
          "type": "uint8"
        },
        {
          "internalType": "uint8",
          "name": "productionPerHour",
          "type": "uint8"
        },
        {
          "internalType": "uint8",
          "name": "currentFullness",
          "type": "uint8"
        },
        {
          "internalType": "uint256",
          "name": "lastUpdate",
          "type": "uint256"
        }
      ],
      "stateMutability": "view",
      "type": "function"
    },
    {
      "inputs": [
        {
          "internalType": "address",
          "name": "newOwner",
          "type": "address"
        }
      ],
      "name": "transferOwnership",
      "outputs": [],
      "stateMutability": "nonpayable",
      "type": "function"
    },
    {
      "inputs": [
        {
          "internalType": "uint256",
          "name": "carId",
          "type": "uint256"
        },
        {
          "internalType": "uint256",
          "name": "engineId",
          "type": "uint256"
        }
      ],
      "name": "switchEngine",
      "outputs": [],
      "stateMutability": "nonpayable",
      "type": "function"
    },
    {
      "inputs": [
        {
          "internalType": "uint256",
          "name": "carId",
          "type": "uint256"
        },
        {
          "internalType": "uint256",
          "name": "chassisId",
          "type": "uint256"
        }
      ],
      "name": "switchChassis",
      "outputs": [],
      "stateMutability": "nonpayable",
      "type": "function"
    },
    {
      "inputs": [
        {
          "internalType": "address",
          "name": "_owner",
          "type": "address"
        }
      ],
      "name": "getFuelStationByOwner",
      "outputs": [
        {
          "components": [
            {
              "internalType": "uint256",
              "name": "id",
              "type": "uint256"
            },
            {
              "internalType": "uint8",
              "name": "capacity",
              "type": "uint8"
            },
            {
              "internalType": "uint8",
              "name": "productionPerHour",
              "type": "uint8"
            },
            {
              "internalType": "uint8",
              "name": "currentFullness",
              "type": "uint8"
            },
            {
              "internalType": "uint256",
              "name": "lastUpdate",
              "type": "uint256"
            }
          ],
          "internalType": "struct FuelStationFactory.FuelStation",
          "name": "",
          "type": "tuple"
        }
      ],
      "stateMutability": "view",
      "type": "function"
    },
    {
      "inputs": [
        {
          "internalType": "address",
          "name": "_owner",
          "type": "address"
        }
      ],
      "name": "getEnginesByOwner",
      "outputs": [
        {
          "components": [
            {
              "internalType": "uint256",
              "name": "id",
              "type": "uint256"
            },
            {
              "internalType": "uint16",
              "name": "horsePowers",
              "type": "uint16"
            },
            {
              "internalType": "uint8",
              "name": "consumtion",
              "type": "uint8"
            }
          ],
          "internalType": "struct CarFactory.Engine[]",
          "name": "",
          "type": "tuple[]"
        }
      ],
      "stateMutability": "view",
      "type": "function"
    },
    {
      "inputs": [
        {
          "internalType": "address",
          "name": "_owner",
          "type": "address"
        }
      ],
      "name": "getChassisByOwner",
      "outputs": [
        {
          "components": [
            {
              "internalType": "uint256",
              "name": "id",
              "type": "uint256"
            },
            {
              "internalType": "uint32",
              "name": "durability",
              "type": "uint32"
            },
            {
              "internalType": "uint32",
              "name": "resource",
              "type": "uint32"
            }
          ],
          "internalType": "struct CarFactory.Chassis[]",
          "name": "",
          "type": "tuple[]"
        }
      ],
      "stateMutability": "view",
      "type": "function"
    },
    {
      "inputs": [
        {
          "internalType": "address",
          "name": "_owner",
          "type": "address"
        }
      ],
      "name": "getCarsByOwner",
      "outputs": [
        {
          "components": [
            {
              "internalType": "string",
              "name": "model",
              "type": "string"
            },
            {
              "internalType": "uint256",
              "name": "vin",
              "type": "uint256"
            },
            {
              "internalType": "uint256",
              "name": "engineId",
              "type": "uint256"
            },
            {
              "internalType": "uint256",
              "name": "chassisId",
              "type": "uint256"
            },
            {
              "internalType": "uint8",
              "name": "carLevel",
              "type": "uint8"
            },
            {
              "internalType": "uint256",
              "name": "mileage",
              "type": "uint256"
            },
            {
              "internalType": "uint256",
              "name": "winCountOnCurrentLevel",
              "type": "uint256"
            },
            {
              "internalType": "uint256",
              "name": "lossCountOnCurrentLevel",
              "type": "uint256"
            },
            {
              "internalType": "uint256",
              "name": "id",
              "type": "uint256"
            }
          ],
          "internalType": "struct CarFactory.Car[]",
          "name": "",
          "type": "tuple[]"
        }
      ],
      "stateMutability": "view",
      "type": "function"
    },
    {
      "inputs": [
        {
          "internalType": "uint256",
          "name": "_fuelStatonId",
          "type": "uint256"
        },
        {
          "internalType": "uint8",
          "name": "_counts",
          "type": "uint8"
        }
      ],
      "name": "upgradeCapacity",
      "outputs": [],
      "stateMutability": "payable",
      "type": "function"
    },
    {
      "inputs": [
        {
          "internalType": "uint256",
          "name": "_fuelStatonId",
          "type": "uint256"
        },
        {
          "internalType": "uint8",
          "name": "_counts",
          "type": "uint8"
        }
      ],
      "name": "upgradeProductionPerHour",
      "outputs": [],
      "stateMutability": "payable",
      "type": "function"
    },
    {
      "inputs": [
        {
          "internalType": "uint256",
          "name": "_engineId",
          "type": "uint256"
        },
        {
          "internalType": "uint8",
          "name": "_counts",
          "type": "uint8"
        }
      ],
      "name": "upgradeHorsePowers",
      "outputs": [],
      "stateMutability": "payable",
      "type": "function"
    },
    {
      "inputs": [
        {
          "internalType": "uint256",
          "name": "_engineId",
          "type": "uint256"
        },
        {
          "internalType": "uint8",
          "name": "_counts",
          "type": "uint8"
        }
      ],
      "name": "upgradeConsumtion",
      "outputs": [],
      "stateMutability": "payable",
      "type": "function"
    },
    {
      "inputs": [
        {
          "internalType": "uint256",
          "name": "_chassisId",
          "type": "uint256"
        },
        {
          "internalType": "uint8",
          "name": "_counts",
          "type": "uint8"
        }
      ],
      "name": "upgradeDurability",
      "outputs": [],
      "stateMutability": "payable",
      "type": "function"
    },
    {
      "inputs": [
        {
          "internalType": "uint256",
          "name": "_carId",
          "type": "uint256"
        }
      ],
      "name": "levelUp",
      "outputs": [],
      "stateMutability": "payable",
      "type": "function"
    }
  ],
  "bytecode": "0x6080604052603c600060146101000a81548160ff021916908360ff1602179055506005600060156101000a81548160ff021916908360ff160217905550600160085560016009556509184e72a00060135565b5e620f48000601455650da475abf0006015556611c37937e080006016556305f5e10060175566038d7ea4c680006018553480156200008f57600080fd5b50620000b0620000a46200013260201b60201c565b6200013a60201b60201c565b6050600381905550605b600481905550600a600560006101000a81548160ff021916908360ff160217905550620186a06006819055506201d4c1600781905550600b60018160018154018082558091505003906000526020600020905050600c60018160018154018082558091505003906000526020600020905050620001fe565b600033905090565b60008060009054906101000a900473ffffffffffffffffffffffffffffffffffffffff169050816000806101000a81548173ffffffffffffffffffffffffffffffffffffffff021916908373ffffffffffffffffffffffffffffffffffffffff1602179055508173ffffffffffffffffffffffffffffffffffffffff168173ffffffffffffffffffffffffffffffffffffffff167f8be0079c531659141344cd1fd0a4f28419497f9722a3daafe3b4186f6b6457e060405160405180910390a35050565b613a8a806200020e6000396000f3fe6080604052600436106101815760003560e01c806385909267116100d1578063c34cccc41161008a578063ede6fbf511610064578063ede6fbf5146105a1578063f2fde38b146105ca578063f7746e36146105f3578063faf4bb981461063857610181565b8063c34cccc414610512578063c75bb4f41461053b578063ea1269331461057857610181565b806385909267146103f25780638da5cb5b1461040e578063906f5f341461043957806392f859db14610455578063b3b29afd14610496578063b72c0eea146104d357610181565b80634e31f9101161013e5780636f206fc1116101185780636f206fc114610345578063715018a6146103825780637713d521146103995780637c62360f146103d657610181565b80634e31f9101461028e578063594193d7146102cb5780635dcc4cc61461030857610181565b806303f2e05b146101865780630ce90ec2146101a25780631c5dde0e146101be578063224370f0146101fd57806333ca504b146102145780634490149014610251575b600080fd5b6101a0600480360381019061019b9190612838565b610654565b005b6101bc60048036038101906101b79190612878565b61078c565b005b3480156101ca57600080fd5b506101e560048036038101906101e09190612878565b61090b565b6040516101f4939291906128d3565b60405180910390f35b34801561020957600080fd5b50610212610965565b005b34801561022057600080fd5b5061023b60048036038101906102369190612878565b610ad1565b604051610248919061294b565b60405180910390f35b34801561025d57600080fd5b5061027860048036038101906102739190612878565b610b04565b604051610285919061294b565b60405180910390f35b34801561029a57600080fd5b506102b560048036038101906102b09190612992565b610b37565b6040516102c29190612a45565b60405180910390f35b3480156102d757600080fd5b506102f260048036038101906102ed9190612878565b610c76565b6040516102ff919061294b565b60405180910390f35b34801561031457600080fd5b5061032f600480360381019061032a9190612878565b610ca9565b60405161033c919061294b565b60405180910390f35b34801561035157600080fd5b5061036c60048036038101906103679190612992565b610cdc565b6040516103799190612b60565b60405180910390f35b34801561038e57600080fd5b50610397610eba565b005b3480156103a557600080fd5b506103c060048036038101906103bb9190612992565b610ece565b6040516103cd9190612c90565b60405180910390f35b6103f060048036038101906103eb9190612838565b61109d565b005b61040c60048036038101906104079190612838565b6111ca565b005b34801561041a57600080fd5b506104236112ed565b604051610430919061294b565b60405180910390f35b610453600480360381019061044e9190612838565b611316565b005b34801561046157600080fd5b5061047c60048036038101906104779190612878565b611439565b60405161048d959493929190612cc1565b60405180910390f35b3480156104a257600080fd5b506104bd60048036038101906104b89190612992565b6114a6565b6040516104ca9190612d14565b60405180910390f35b3480156104df57600080fd5b506104fa60048036038101906104f59190612878565b6114be565b60405161050993929190612d3e565b60405180910390f35b34801561051e57600080fd5b5061053960048036038101906105349190612d75565b611513565b005b34801561054757600080fd5b50610562600480360381019061055d9190612992565b611682565b60405161056f9190612fd5565b60405180910390f35b34801561058457600080fd5b5061059f600480360381019061059a9190612d75565b611900565b005b3480156105ad57600080fd5b506105c860048036038101906105c3919061312c565b611a6f565b005b3480156105d657600080fd5b506105f160048036038101906105ec9190612992565b611ce1565b005b3480156105ff57600080fd5b5061061a60048036038101906106159190612878565b611d64565b60405161062f999897969594939291906131bf565b60405180910390f35b610652600480360381019061064d9190612838565b611e57565b005b81600f600082815260200190815260200160002060009054906101000a900473ffffffffffffffffffffffffffffffffffffffff1673ffffffffffffffffffffffffffffffffffffffff163373ffffffffffffffffffffffffffffffffffffffff16146106c057600080fd5b601754600c84815481106106d7576106d6613253565b5b906000526020600020906002020160010160009054906101000a900463ffffffff168360ff1661070791906132b1565b63ffffffff1661071791906132ef565b341461072257600080fd5b8160ff16600c848154811061073a57610739613253565b5b906000526020600020906002020160010160008282829054906101000a900463ffffffff166107699190613349565b92506101000a81548163ffffffff021916908363ffffffff160217905550505050565b600a8082815481106107a1576107a0613253565b5b906000526020600020906009020160040160009054906101000a900460ff166107ca91906133b2565b60ff166018546107da91906132ef565b3414801561084e57506001600a82815481106107f9576107f8613253565b5b906000526020600020906009020160040160009054906101000a900460ff1661082291906133e3565b60ff16600a828154811061083957610838613253565b5b90600052602060002090600902016006015410155b61085757600080fd5b600a818154811061086b5761086a613253565b5b9060005260206000209060090201600401600081819054906101000a900460ff16809291906108999061341a565b91906101000a81548160ff021916908360ff160217905550506000600a82815481106108c8576108c7613253565b5b9060005260206000209060090201600601819055506000600a82815481106108f3576108f2613253565b5b90600052602060002090600902016007018190555050565b600c818154811061091b57600080fd5b90600052602060002090600202016000915090508060000154908060010160009054906101000a900463ffffffff16908060010160049054906101000a900463ffffffff16905083565b60003390506000600180549050905060016040518060a00160405280838152602001600060149054906101000a900460ff1660ff168152602001600060159054906101000a900460ff1660ff168152602001600060149054906101000a900460ff1660ff1681526020014263ffffffff1681525090806001815401808255809150506001900390600052602060002090600302016000909190919091506000820151816000015560208201518160010160006101000a81548160ff021916908360ff16021790555060408201518160010160016101000a81548160ff021916908360ff16021790555060608201518160010160026101000a81548160ff021916908360ff160217905550608082015181600201555050816002600083815260200190815260200160002060006101000a81548173ffffffffffffffffffffffffffffffffffffffff021916908373ffffffffffffffffffffffffffffffffffffffff1602179055505050565b600d6020528060005260406000206000915054906101000a900473ffffffffffffffffffffffffffffffffffffffff1681565b600f6020528060005260406000206000915054906101000a900473ffffffffffffffffffffffffffffffffffffffff1681565b610b3f612636565b600080600090505b600180549050811015610bd5578373ffffffffffffffffffffffffffffffffffffffff166002600083815260200190815260200160002060009054906101000a900473ffffffffffffffffffffffffffffffffffffffff1673ffffffffffffffffffffffffffffffffffffffff1603610bc257809150610bd5565b8080610bcd90613443565b915050610b47565b5060018181548110610bea57610be9613253565b5b90600052602060002090600302016040518060a0016040529081600082015481526020016001820160009054906101000a900460ff1660ff1660ff1681526020016001820160019054906101000a900460ff1660ff1660ff1681526020016001820160029054906101000a900460ff1660ff1660ff168152602001600282015481525050915050919050565b60026020528060005260406000206000915054906101000a900473ffffffffffffffffffffffffffffffffffffffff1681565b600e6020528060005260406000206000915054906101000a900473ffffffffffffffffffffffffffffffffffffffff1681565b60606000601160008473ffffffffffffffffffffffffffffffffffffffff1673ffffffffffffffffffffffffffffffffffffffff1681526020019081526020016000205467ffffffffffffffff811115610d3957610d38613001565b5b604051908082528060200260200182016040528015610d7257816020015b610d5f61266e565b815260200190600190039081610d575790505b5090506000805b600c80549050811015610eaf578473ffffffffffffffffffffffffffffffffffffffff16600f600083815260200190815260200160002060009054906101000a900473ffffffffffffffffffffffffffffffffffffffff1673ffffffffffffffffffffffffffffffffffffffff1603610e9c57600c8181548110610e0057610dff613253565b5b9060005260206000209060020201604051806060016040529081600082015481526020016001820160009054906101000a900463ffffffff1663ffffffff1663ffffffff1681526020016001820160049054906101000a900463ffffffff1663ffffffff1663ffffffff1681525050838381518110610e8257610e81613253565b5b60200260200101819052508180610e9890613443565b9250505b8080610ea790613443565b915050610d79565b508192505050919050565b610ec2611f85565b610ecc6000612003565b565b60606000601160008473ffffffffffffffffffffffffffffffffffffffff1673ffffffffffffffffffffffffffffffffffffffff1681526020019081526020016000205467ffffffffffffffff811115610f2b57610f2a613001565b5b604051908082528060200260200182016040528015610f6457816020015b610f5161269b565b815260200190600190039081610f495790505b5090506000805b600b80549050811015611092578473ffffffffffffffffffffffffffffffffffffffff16600e600083815260200190815260200160002060009054906101000a900473ffffffffffffffffffffffffffffffffffffffff1673ffffffffffffffffffffffffffffffffffffffff160361107f57600b8181548110610ff257610ff1613253565b5b9060005260206000209060020201604051806060016040529081600082015481526020016001820160009054906101000a900461ffff1661ffff1661ffff1681526020016001820160029054906101000a900460ff1660ff1660ff168152505083838151811061106557611064613253565b5b6020026020010181905250818061107b90613443565b9250505b808061108a90613443565b915050610f6b565b508192505050919050565b81600e600082815260200190815260200160002060009054906101000a900473ffffffffffffffffffffffffffffffffffffffff1673ffffffffffffffffffffffffffffffffffffffff163373ffffffffffffffffffffffffffffffffffffffff161461110957600080fd5b600b838154811061111d5761111c613253565b5b906000526020600020906002020160010160029054906101000a900460ff16600a611148919061348b565b600261115491906135f2565b60165461116191906132ef565b341461116c57600080fd5b81600b848154811061118157611180613253565b5b906000526020600020906002020160010160028282829054906101000a900460ff166111ad919061348b565b92506101000a81548160ff021916908360ff160217905550505050565b816002600082815260200190815260200160002060009054906101000a900473ffffffffffffffffffffffffffffffffffffffff1673ffffffffffffffffffffffffffffffffffffffff163373ffffffffffffffffffffffffffffffffffffffff161461123657600080fd5b6014546001848154811061124d5761124c613253565b5b906000526020600020906003020160010160019054906101000a900460ff1683611277919061363d565b60ff1661128491906132ef565b341461128f57600080fd5b81600184815481106112a4576112a3613253565b5b906000526020600020906003020160010160018282829054906101000a900460ff166112d091906133e3565b92506101000a81548160ff021916908360ff160217905550505050565b60008060009054906101000a900473ffffffffffffffffffffffffffffffffffffffff16905090565b816002600082815260200190815260200160002060009054906101000a900473ffffffffffffffffffffffffffffffffffffffff1673ffffffffffffffffffffffffffffffffffffffff163373ffffffffffffffffffffffffffffffffffffffff161461138257600080fd5b6013546001848154811061139957611398613253565b5b906000526020600020906003020160010160009054906101000a900460ff16836113c3919061363d565b60ff166113d091906132ef565b34146113db57600080fd5b81600184815481106113f0576113ef613253565b5b906000526020600020906003020160010160008282829054906101000a900460ff1661141c91906133e3565b92506101000a81548160ff021916908360ff160217905550505050565b6001818154811061144957600080fd5b90600052602060002090600302016000915090508060000154908060010160009054906101000a900460ff16908060010160019054906101000a900460ff16908060010160029054906101000a900460ff16908060020154905085565b60106020528060005260406000206000915090505481565b600b81815481106114ce57600080fd5b90600052602060002090600202016000915090508060000154908060010160009054906101000a900461ffff16908060010160029054906101000a900460ff16905083565b80600e600082815260200190815260200160002060009054906101000a900473ffffffffffffffffffffffffffffffffffffffff1673ffffffffffffffffffffffffffffffffffffffff163373ffffffffffffffffffffffffffffffffffffffff161461157f57600080fd5b82600d600082815260200190815260200160002060009054906101000a900473ffffffffffffffffffffffffffffffffffffffff1673ffffffffffffffffffffffffffffffffffffffff163373ffffffffffffffffffffffffffffffffffffffff16146115eb57600080fd5b82600a8581548110611600576115ff613253565b5b90600052602060002090600902016002015403611652576040517f08c379a0000000000000000000000000000000000000000000000000000000008152600401611649906136c4565b60405180910390fd5b82600a858154811061166757611666613253565b5b90600052602060002090600902016002018190555050505050565b60606000601060008473ffffffffffffffffffffffffffffffffffffffff1673ffffffffffffffffffffffffffffffffffffffff1681526020019081526020016000205467ffffffffffffffff8111156116df576116de613001565b5b60405190808252806020026020018201604052801561171857816020015b6117056126c3565b8152602001906001900390816116fd5790505b5090506000805b600c805490508110156118f5578473ffffffffffffffffffffffffffffffffffffffff16600d600083815260200190815260200160002060009054906101000a900473ffffffffffffffffffffffffffffffffffffffff1673ffffffffffffffffffffffffffffffffffffffff16036118e257600a81815481106117a6576117a5613253565b5b9060005260206000209060090201604051806101200160405290816000820180546117d090613713565b80601f01602080910402602001604051908101604052809291908181526020018280546117fc90613713565b80156118495780601f1061181e57610100808354040283529160200191611849565b820191906000526020600020905b81548152906001019060200180831161182c57829003601f168201915b505050505081526020016001820154815260200160028201548152602001600382015481526020016004820160009054906101000a900460ff1660ff1660ff1681526020016005820154815260200160068201548152602001600782015481526020016008820154815250508383815181106118c8576118c7613253565b5b602002602001018190525081806118de90613443565b9250505b80806118ed90613443565b91505061171f565b508192505050919050565b80600f600082815260200190815260200160002060009054906101000a900473ffffffffffffffffffffffffffffffffffffffff1673ffffffffffffffffffffffffffffffffffffffff163373ffffffffffffffffffffffffffffffffffffffff161461196c57600080fd5b82600d600082815260200190815260200160002060009054906101000a900473ffffffffffffffffffffffffffffffffffffffff1673ffffffffffffffffffffffffffffffffffffffff163373ffffffffffffffffffffffffffffffffffffffff16146119d857600080fd5b82600a85815481106119ed576119ec613253565b5b90600052602060002090600902016003015403611a3f576040517f08c379a0000000000000000000000000000000000000000000000000000000008152600401611a3690613790565b60405180910390fd5b82600a8581548110611a5457611a53613253565b5b90600052602060002090600902016003018190555050505050565b6000601060003373ffffffffffffffffffffffffffffffffffffffff1673ffffffffffffffffffffffffffffffffffffffff1681526020019081526020016000205414611abb57600080fd5b600081611ac7426120c7565b604051602001611ad89291906137ec565b6040516020818303038152906040529050600081604051602001611afc9190613810565b6040516020818303038152906040528051906020012060001c90506000611b21612195565b90506000611b2d612338565b90506000600a805490509050600a604051806101200160405280888152602001868152602001858152602001848152602001600160ff1681526020016000815260200160008152602001600081526020018381525090806001815401808255809150506001900390600052602060002090600902016000909190919091506000820151816000019080519060200190611bc7929190612712565b5060208201518160010155604082015181600201556060820151816003015560808201518160040160006101000a81548160ff021916908360ff16021790555060a0820151816005015560c0820151816006015560e082015181600701556101008201518160080155505033600d600083815260200190815260200160002060006101000a81548173ffffffffffffffffffffffffffffffffffffffff021916908373ffffffffffffffffffffffffffffffffffffffff160217905550601060003373ffffffffffffffffffffffffffffffffffffffff1673ffffffffffffffffffffffffffffffffffffffff1681526020019081526020016000206000815480929190611cd490613443565b9190505550505050505050565b611ce9611f85565b600073ffffffffffffffffffffffffffffffffffffffff168173ffffffffffffffffffffffffffffffffffffffff1603611d58576040517f08c379a0000000000000000000000000000000000000000000000000000000008152600401611d4f90613899565b60405180910390fd5b611d6181612003565b50565b600a8181548110611d7457600080fd5b9060005260206000209060090201600091509050806000018054611d9790613713565b80601f0160208091040260200160405190810160405280929190818152602001828054611dc390613713565b8015611e105780601f10611de557610100808354040283529160200191611e10565b820191906000526020600020905b815481529060010190602001808311611df357829003601f168201915b5050505050908060010154908060020154908060030154908060040160009054906101000a900460ff16908060050154908060060154908060070154908060080154905089565b81600e600082815260200190815260200160002060009054906101000a900473ffffffffffffffffffffffffffffffffffffffff1673ffffffffffffffffffffffffffffffffffffffff163373ffffffffffffffffffffffffffffffffffffffff1614611ec357600080fd5b601554600b8481548110611eda57611ed9613253565b5b906000526020600020906002020160010160009054906101000a900461ffff168360ff16611f0891906138b9565b61ffff16611f1691906132ef565b3414611f2157600080fd5b8160ff16600b8481548110611f3957611f38613253565b5b906000526020600020906002020160010160008282829054906101000a900461ffff16611f6691906138f5565b92506101000a81548161ffff021916908361ffff160217905550505050565b611f8d6124db565b73ffffffffffffffffffffffffffffffffffffffff16611fab6112ed565b73ffffffffffffffffffffffffffffffffffffffff1614612001576040517f08c379a0000000000000000000000000000000000000000000000000000000008152600401611ff890613979565b60405180910390fd5b565b60008060009054906101000a900473ffffffffffffffffffffffffffffffffffffffff169050816000806101000a81548173ffffffffffffffffffffffffffffffffffffffff021916908373ffffffffffffffffffffffffffffffffffffffff1602179055508173ffffffffffffffffffffffffffffffffffffffff168173ffffffffffffffffffffffffffffffffffffffff167f8be0079c531659141344cd1fd0a4f28419497f9722a3daafe3b4186f6b6457e060405160405180910390a35050565b6060600060016120d6846124e3565b01905060008167ffffffffffffffff8111156120f5576120f4613001565b5b6040519080825280601f01601f1916602001820160405280156121275781602001600182028036833780820191505090505b509050600082602001820190505b60011561218a578080600190039150507f3031323334353637383961626364656600000000000000000000000000000000600a86061a8153600a858161217e5761217d613383565b5b04945060008503612135575b819350505050919050565b6000806003546004546121a89190613999565b426121b391906139cd565b6003546121c091906139fe565b90506000600860008154809291906121d790613443565b919050559050600b60405180606001604052808381526020018461ffff168152602001600560009054906101000a900460ff1660ff1681525090806001815401808255809150506001900390600052602060002090600202016000909190919091506000820151816000015560208201518160010160006101000a81548161ffff021916908361ffff16021790555060408201518160010160026101000a81548160ff021916908360ff1602179055505050601160003373ffffffffffffffffffffffffffffffffffffffff1673ffffffffffffffffffffffffffffffffffffffff16815260200190815260200160002060008154809291906122d990613443565b919050555033600e600083815260200190815260200160002060006101000a81548173ffffffffffffffffffffffffffffffffffffffff021916908373ffffffffffffffffffffffffffffffffffffffff160217905550809250505090565b60008060065460075461234b9190613999565b4261235691906139cd565b60065461236391906139fe565b905060006009600081548092919061237a90613443565b919050559050600c60405180606001604052808381526020018463ffffffff1681526020018463ffffffff1681525090806001815401808255809150506001900390600052602060002090600202016000909190919091506000820151816000015560208201518160010160006101000a81548163ffffffff021916908363ffffffff16021790555060408201518160010160046101000a81548163ffffffff021916908363ffffffff1602179055505050601260003373ffffffffffffffffffffffffffffffffffffffff1673ffffffffffffffffffffffffffffffffffffffff168152602001908152602001600020600081548092919061247c90613443565b919050555033600f600083815260200190815260200160002060006101000a81548173ffffffffffffffffffffffffffffffffffffffff021916908373ffffffffffffffffffffffffffffffffffffffff160217905550809250505090565b600033905090565b600080600090507a184f03e93ff9f4daa797ed6e38ed64bf6a1f0100000000000000008310612541577a184f03e93ff9f4daa797ed6e38ed64bf6a1f010000000000000000838161253757612536613383565b5b0492506040810190505b6d04ee2d6d415b85acef8100000000831061257e576d04ee2d6d415b85acef8100000000838161257457612573613383565b5b0492506020810190505b662386f26fc1000083106125ad57662386f26fc1000083816125a3576125a2613383565b5b0492506010810190505b6305f5e10083106125d6576305f5e10083816125cc576125cb613383565b5b0492506008810190505b61271083106125fb5761271083816125f1576125f0613383565b5b0492506004810190505b6064831061261e576064838161261457612613613383565b5b0492506002810190505b600a831061262d576001810190505b80915050919050565b6040518060a0016040528060008152602001600060ff168152602001600060ff168152602001600060ff168152602001600081525090565b604051806060016040528060008152602001600063ffffffff168152602001600063ffffffff1681525090565b604051806060016040528060008152602001600061ffff168152602001600060ff1681525090565b60405180610120016040528060608152602001600081526020016000815260200160008152602001600060ff168152602001600081526020016000815260200160008152602001600081525090565b82805461271e90613713565b90600052602060002090601f0160209004810192826127405760008555612787565b82601f1061275957805160ff1916838001178555612787565b82800160010185558215612787579182015b8281111561278657825182559160200191906001019061276b565b5b5090506127949190612798565b5090565b5b808211156127b1576000816000905550600101612799565b5090565b6000604051905090565b600080fd5b600080fd5b6000819050919050565b6127dc816127c9565b81146127e757600080fd5b50565b6000813590506127f9816127d3565b92915050565b600060ff82169050919050565b612815816127ff565b811461282057600080fd5b50565b6000813590506128328161280c565b92915050565b6000806040838503121561284f5761284e6127bf565b5b600061285d858286016127ea565b925050602061286e85828601612823565b9150509250929050565b60006020828403121561288e5761288d6127bf565b5b600061289c848285016127ea565b91505092915050565b6128ae816127c9565b82525050565b600063ffffffff82169050919050565b6128cd816128b4565b82525050565b60006060820190506128e860008301866128a5565b6128f560208301856128c4565b61290260408301846128c4565b949350505050565b600073ffffffffffffffffffffffffffffffffffffffff82169050919050565b60006129358261290a565b9050919050565b6129458161292a565b82525050565b6000602082019050612960600083018461293c565b92915050565b61296f8161292a565b811461297a57600080fd5b50565b60008135905061298c81612966565b92915050565b6000602082840312156129a8576129a76127bf565b5b60006129b68482850161297d565b91505092915050565b6129c8816127c9565b82525050565b6129d7816127ff565b82525050565b60a0820160008201516129f360008501826129bf565b506020820151612a0660208501826129ce565b506040820151612a1960408501826129ce565b506060820151612a2c60608501826129ce565b506080820151612a3f60808501826129bf565b50505050565b600060a082019050612a5a60008301846129dd565b92915050565b600081519050919050565b600082825260208201905092915050565b6000819050602082019050919050565b612a95816128b4565b82525050565b606082016000820151612ab160008501826129bf565b506020820151612ac46020850182612a8c565b506040820151612ad76040850182612a8c565b50505050565b6000612ae98383612a9b565b60608301905092915050565b6000602082019050919050565b6000612b0d82612a60565b612b178185612a6b565b9350612b2283612a7c565b8060005b83811015612b53578151612b3a8882612add565b9750612b4583612af5565b925050600181019050612b26565b5085935050505092915050565b60006020820190508181036000830152612b7a8184612b02565b905092915050565b600081519050919050565b600082825260208201905092915050565b6000819050602082019050919050565b600061ffff82169050919050565b612bc581612bae565b82525050565b606082016000820151612be160008501826129bf565b506020820151612bf46020850182612bbc565b506040820151612c0760408501826129ce565b50505050565b6000612c198383612bcb565b60608301905092915050565b6000602082019050919050565b6000612c3d82612b82565b612c478185612b8d565b9350612c5283612b9e565b8060005b83811015612c83578151612c6a8882612c0d565b9750612c7583612c25565b925050600181019050612c56565b5085935050505092915050565b60006020820190508181036000830152612caa8184612c32565b905092915050565b612cbb816127ff565b82525050565b600060a082019050612cd660008301886128a5565b612ce36020830187612cb2565b612cf06040830186612cb2565b612cfd6060830185612cb2565b612d0a60808301846128a5565b9695505050505050565b6000602082019050612d2960008301846128a5565b92915050565b612d3881612bae565b82525050565b6000606082019050612d5360008301866128a5565b612d606020830185612d2f565b612d6d6040830184612cb2565b949350505050565b60008060408385031215612d8c57612d8b6127bf565b5b6000612d9a858286016127ea565b9250506020612dab858286016127ea565b9150509250929050565b600081519050919050565b600082825260208201905092915050565b6000819050602082019050919050565b600081519050919050565b600082825260208201905092915050565b60005b83811015612e1b578082015181840152602081019050612e00565b83811115612e2a576000848401525b50505050565b6000601f19601f8301169050919050565b6000612e4c82612de1565b612e568185612dec565b9350612e66818560208601612dfd565b612e6f81612e30565b840191505092915050565b6000610120830160008301518482036000860152612e988282612e41565b9150506020830151612ead60208601826129bf565b506040830151612ec060408601826129bf565b506060830151612ed360608601826129bf565b506080830151612ee660808601826129ce565b5060a0830151612ef960a08601826129bf565b5060c0830151612f0c60c08601826129bf565b5060e0830151612f1f60e08601826129bf565b50610100830151612f346101008601826129bf565b508091505092915050565b6000612f4b8383612e7a565b905092915050565b6000602082019050919050565b6000612f6b82612db5565b612f758185612dc0565b935083602082028501612f8785612dd1565b8060005b85811015612fc35784840389528151612fa48582612f3f565b9450612faf83612f53565b925060208a01995050600181019050612f8b565b50829750879550505050505092915050565b60006020820190508181036000830152612fef8184612f60565b905092915050565b600080fd5b600080fd5b7f4e487b7100000000000000000000000000000000000000000000000000000000600052604160045260246000fd5b61303982612e30565b810181811067ffffffffffffffff8211171561305857613057613001565b5b80604052505050565b600061306b6127b5565b90506130778282613030565b919050565b600067ffffffffffffffff82111561309757613096613001565b5b6130a082612e30565b9050602081019050919050565b82818337600083830152505050565b60006130cf6130ca8461307c565b613061565b9050828152602081018484840111156130eb576130ea612ffc565b5b6130f68482856130ad565b509392505050565b600082601f83011261311357613112612ff7565b5b81356131238482602086016130bc565b91505092915050565b600060208284031215613142576131416127bf565b5b600082013567ffffffffffffffff8111156131605761315f6127c4565b5b61316c848285016130fe565b91505092915050565b600082825260208201905092915050565b600061319182612de1565b61319b8185613175565b93506131ab818560208601612dfd565b6131b481612e30565b840191505092915050565b60006101208201905081810360008301526131da818c613186565b90506131e9602083018b6128a5565b6131f6604083018a6128a5565b61320360608301896128a5565b6132106080830188612cb2565b61321d60a08301876128a5565b61322a60c08301866128a5565b61323760e08301856128a5565b6132456101008301846128a5565b9a9950505050505050505050565b7f4e487b7100000000000000000000000000000000000000000000000000000000600052603260045260246000fd5b7f4e487b7100000000000000000000000000000000000000000000000000000000600052601160045260246000fd5b60006132bc826128b4565b91506132c7836128b4565b92508163ffffffff04831182151516156132e4576132e3613282565b5b828202905092915050565b60006132fa826127c9565b9150613305836127c9565b9250817fffffffffffffffffffffffffffffffffffffffffffffffffffffffffffffffff048311821515161561333e5761333d613282565b5b828202905092915050565b6000613354826128b4565b915061335f836128b4565b92508263ffffffff0382111561337857613377613282565b5b828201905092915050565b7f4e487b7100000000000000000000000000000000000000000000000000000000600052601260045260246000fd5b60006133bd826127ff565b91506133c8836127ff565b9250826133d8576133d7613383565b5b828204905092915050565b60006133ee826127ff565b91506133f9836127ff565b92508260ff0382111561340f5761340e613282565b5b828201905092915050565b6000613425826127ff565b915060ff820361343857613437613282565b5b600182019050919050565b600061344e826127c9565b91507fffffffffffffffffffffffffffffffffffffffffffffffffffffffffffffffff82036134805761347f613282565b5b600182019050919050565b6000613496826127ff565b91506134a1836127ff565b9250828210156134b4576134b3613282565b5b828203905092915050565b60008160011c9050919050565b6000808291508390505b6001851115613516578086048111156134f2576134f1613282565b5b60018516156135015780820291505b808102905061350f856134bf565b94506134d6565b94509492505050565b60008261352f57600190506135eb565b8161353d57600090506135eb565b8160018114613553576002811461355d5761358c565b60019150506135eb565b60ff84111561356f5761356e613282565b5b8360020a91508482111561358657613585613282565b5b506135eb565b5060208310610133831016604e8410600b84101617156135c15782820a9050838111156135bc576135bb613282565b5b6135eb565b6135ce84848460016134cc565b925090508184048111156135e5576135e4613282565b5b81810290505b9392505050565b60006135fd826127c9565b9150613608836127ff565b92506136357fffffffffffffffffffffffffffffffffffffffffffffffffffffffffffffffff848461351f565b905092915050565b6000613648826127ff565b9150613653836127ff565b92508160ff048311821515161561366d5761366c613282565b5b828202905092915050565b7f73616d6520656e67696e65000000000000000000000000000000000000000000600082015250565b60006136ae600b83613175565b91506136b982613678565b602082019050919050565b600060208201905081810360008301526136dd816136a1565b9050919050565b7f4e487b7100000000000000000000000000000000000000000000000000000000600052602260045260246000fd5b6000600282049050600182168061372b57607f821691505b60208210810361373e5761373d6136e4565b5b50919050565b7f73616d6520636861737369730000000000000000000000000000000000000000600082015250565b600061377a600c83613175565b915061378582613744565b602082019050919050565b600060208201905081810360008301526137a98161376d565b9050919050565b600081905092915050565b60006137c682612de1565b6137d081856137b0565b93506137e0818560208601612dfd565b80840191505092915050565b60006137f882856137bb565b915061380482846137bb565b91508190509392505050565b600061381c82846137bb565b915081905092915050565b7f4f776e61626c653a206e6577206f776e657220697320746865207a65726f206160008201527f6464726573730000000000000000000000000000000000000000000000000000602082015250565b6000613883602683613175565b915061388e82613827565b604082019050919050565b600060208201905081810360008301526138b281613876565b9050919050565b60006138c482612bae565b91506138cf83612bae565b92508161ffff04831182151516156138ea576138e9613282565b5b828202905092915050565b600061390082612bae565b915061390b83612bae565b92508261ffff0382111561392257613921613282565b5b828201905092915050565b7f4f776e61626c653a2063616c6c6572206973206e6f7420746865206f776e6572600082015250565b6000613963602083613175565b915061396e8261392d565b602082019050919050565b6000602082019050818103600083015261399281613956565b9050919050565b60006139a4826127c9565b91506139af836127c9565b9250828210156139c2576139c1613282565b5b828203905092915050565b60006139d8826127c9565b91506139e3836127c9565b9250826139f3576139f2613383565b5b828206905092915050565b6000613a09826127c9565b9150613a14836127c9565b9250827fffffffffffffffffffffffffffffffffffffffffffffffffffffffffffffffff03821115613a4957613a48613282565b5b82820190509291505056fea264697066735822122007df14db7bb31d510a25533fd639fdbb18536d028b9f85278e6935c4a68aaf2864736f6c634300080d0033",
  "immutableReferences": {},
  "source": "// SPDX-License-Identifier: MIT\npragma solidity ^0.8.13;\n\nimport \"./CarFactory.sol\";\n\ncontract CarHelper is CarFactory {\n\n    uint capacityCoef = 0.00001 ether;\n    uint productionPerHourCoef = 0.0002 ether;\n    uint horsePowersCoef = 0.000015 ether;\n    uint consumtionCoef = 0.005 ether;\n    uint durabilityCoef = 0.0000000001 ether;\n    uint levelUpCost = 0.001 ether;\n\n    modifier onlyOwnerOfCar(uint _carId) {\n        require(msg.sender == carToOwner[_carId]);\n        _;\n    }\n\n    modifier onlyOwnerOfEngine(uint _engineId) {\n        require(msg.sender == engineToOwner[_engineId]);\n        _;\n    }\n\n    modifier onlyOwnerOfChassis(uint _chassisId) {\n        require(msg.sender == chassisToOwner[_chassisId]);\n        _;\n    }\n\n    modifier onlyOwnerOfFuelStation(uint _fuelStationId) {\n        require(msg.sender == fuelStationToOwner[_fuelStationId]);\n        _;\n    }\n\n    function switchEngine(uint carId, uint engineId) public onlyOwnerOfEngine(engineId) onlyOwnerOfCar(carId){\n        require(cars[carId].engineId != engineId, \"same engine\");\n        cars[carId].engineId = engineId;\n    }\n\n    function switchChassis(uint carId, uint chassisId) public onlyOwnerOfChassis(chassisId) onlyOwnerOfCar(carId){\n        require(cars[carId].chassisId != chassisId, \"same chassis\");\n        cars[carId].chassisId = chassisId;\n    }\n\n\n    function getFuelStationByOwner(address _owner) public view returns(FuelStation memory){\n        uint resId;\n        for (uint i = 0; i < stations.length; i++) {\n            if (fuelStationToOwner[i] == _owner) {\n               resId = i;\n               break;\n            }\n        }\n        return stations[resId];\n    }\n\n    function getEnginesByOwner(address _owner) public view returns(Engine[] memory) {\n        Engine[] memory result = new Engine[](ownerEngineCount[_owner]);\n        uint counter = 0;\n        for (uint i = 0; i < engines.length; i++) {\n            if (engineToOwner[i] == _owner) {\n                result[counter] = engines[i];\n                counter++;\n            }\n        }\n        return result;\n    }\n\n    function getChassisByOwner(address _owner) public view returns(Chassis[] memory) {\n        Chassis[] memory result = new Chassis[](ownerEngineCount[_owner]);\n        uint counter = 0;\n        for (uint i = 0; i < chassis.length; i++) {\n            if (chassisToOwner[i] == _owner) {\n                result[counter] = chassis[i];\n                counter++;\n            }\n        }\n        return result;\n    }\n\n    function getCarsByOwner(address _owner) public view returns(Car[] memory) {\n        Car[] memory result = new Car[](ownerCarCount[_owner]);\n        uint counter = 0;\n        for (uint i = 0; i < chassis.length; i++) {\n            if (carToOwner[i] == _owner) {\n                result[counter] = cars[i];\n                counter++;\n            }\n        }\n        return result;\n    }\n\n    function upgradeCapacity(uint _fuelStatonId, uint8 _counts) external payable onlyOwnerOfFuelStation(_fuelStatonId) {\n        require(msg.value == (_counts * stations[_fuelStatonId].capacity * capacityCoef));\n        stations[_fuelStatonId].capacity += _counts; \n    }\n\n    function upgradeProductionPerHour(uint _fuelStatonId, uint8 _counts) external payable onlyOwnerOfFuelStation(_fuelStatonId) {\n        require(msg.value == (_counts * stations[_fuelStatonId].productionPerHour * productionPerHourCoef));\n        stations[_fuelStatonId].productionPerHour += _counts; \n    }\n\n    function upgradeHorsePowers(uint _engineId, uint8 _counts) external payable onlyOwnerOfEngine(_engineId) {\n        require(msg.value == (_counts * engines[_engineId].horsePowers * horsePowersCoef));\n        engines[_engineId].horsePowers += _counts; \n    }\n\n    function upgradeConsumtion(uint _engineId, uint8 _counts) external payable onlyOwnerOfEngine(_engineId) {\n        require(msg.value == consumtionCoef * 2**(10 - engines[_engineId].consumtion));\n        engines[_engineId].consumtion -= _counts; \n    }\n\n    function upgradeDurability(uint _chassisId, uint8 _counts) external payable onlyOwnerOfChassis(_chassisId) {\n        require(msg.value == (_counts * chassis[_chassisId].durability * durabilityCoef));\n        chassis[_chassisId].durability += _counts; \n    }\n\n    function levelUp(uint _carId) external payable {\n        require(msg.value == levelUpCost * (cars[_carId].carLevel/10) && cars[_carId].winCountOnCurrentLevel >= (cars[_carId].carLevel + 1));\n        cars[_carId].carLevel++;\n        cars[_carId].winCountOnCurrentLevel = 0;\n        cars[_carId].lossCountOnCurrentLevel = 0;\n    }\n\n\n}",
  "sourcePath": "/Users/vvan/Programming/JavaScript/DriveSafely/contract/contracts/CarHelper.sol",
  "compiler": {
    "name": "solc",
    "version": "0.8.13+commit.abaa5c0e.Emscripten.clang"
  },
  "schemaVersion": "3.4.11",
  "updatedAt": "2023-01-08T15:51:32.206Z",
  "networkType": "ethereum",
  "devdoc": {
    "kind": "dev",
    "methods": {
      "owner()": {
        "details": "Returns the address of the current owner."
      },
      "renounceOwnership()": {
        "details": "Leaves the contract without owner. It will not be possible to call `onlyOwner` functions anymore. Can only be called by the current owner. NOTE: Renouncing ownership will leave the contract without an owner, thereby removing any functionality that is only available to the owner."
      },
      "transferOwnership(address)": {
        "details": "Transfers ownership of the contract to a new account (`newOwner`). Can only be called by the current owner."
      }
    },
    "version": 1
  },
  "userdoc": {
    "kind": "user",
    "methods": {},
    "version": 1
  }
}