{
  "contractName": "CarHelper",
  "abi": [
    {
      "anonymous": false,
      "inputs": [
        {
          "indexed": true,
          "internalType": "address",
          "name": "previousOwner",
          "type": "address"
        },
        {
          "indexed": true,
          "internalType": "address",
          "name": "newOwner",
          "type": "address"
        }
      ],
      "name": "OwnershipTransferred",
      "type": "event"
    },
    {
      "inputs": [
        {
          "internalType": "uint256",
          "name": "",
          "type": "uint256"
        }
      ],
      "name": "carToOwner",
      "outputs": [
        {
          "internalType": "address",
          "name": "",
          "type": "address"
        }
      ],
      "stateMutability": "view",
      "type": "function",
      "constant": true
    },
    {
      "inputs": [
        {
          "internalType": "uint256",
          "name": "",
          "type": "uint256"
        }
      ],
      "name": "cars",
      "outputs": [
        {
          "internalType": "string",
          "name": "model",
          "type": "string"
        },
        {
          "internalType": "uint256",
          "name": "vin",
          "type": "uint256"
        },
        {
          "internalType": "uint256",
          "name": "engineId",
          "type": "uint256"
        },
        {
          "internalType": "uint256",
          "name": "chassisId",
          "type": "uint256"
        },
        {
          "internalType": "uint8",
          "name": "carLevel",
          "type": "uint8"
        },
        {
          "internalType": "uint256",
          "name": "mileage",
          "type": "uint256"
        },
        {
          "internalType": "uint256",
          "name": "winCountOnCurrentLevel",
          "type": "uint256"
        },
        {
          "internalType": "uint256",
          "name": "lossCountOnCurrentLevel",
          "type": "uint256"
        }
      ],
      "stateMutability": "view",
      "type": "function",
      "constant": true
    },
    {
      "inputs": [
        {
          "internalType": "uint256",
          "name": "",
          "type": "uint256"
        }
      ],
      "name": "chassis",
      "outputs": [
        {
          "internalType": "uint256",
          "name": "id",
          "type": "uint256"
        },
        {
          "internalType": "uint32",
          "name": "durability",
          "type": "uint32"
        },
        {
          "internalType": "uint32",
          "name": "resource",
          "type": "uint32"
        }
      ],
      "stateMutability": "view",
      "type": "function",
      "constant": true
    },
    {
      "inputs": [
        {
          "internalType": "uint256",
          "name": "",
          "type": "uint256"
        }
      ],
      "name": "chassisToOwner",
      "outputs": [
        {
          "internalType": "address",
          "name": "",
          "type": "address"
        }
      ],
      "stateMutability": "view",
      "type": "function",
      "constant": true
    },
    {
      "inputs": [],
      "name": "createCar",
      "outputs": [],
      "stateMutability": "nonpayable",
      "type": "function"
    },
    {
      "inputs": [],
      "name": "createFuelStation",
      "outputs": [],
      "stateMutability": "nonpayable",
      "type": "function"
    },
    {
      "inputs": [
        {
          "internalType": "uint256",
          "name": "",
          "type": "uint256"
        }
      ],
      "name": "engineToOwner",
      "outputs": [
        {
          "internalType": "address",
          "name": "",
          "type": "address"
        }
      ],
      "stateMutability": "view",
      "type": "function",
      "constant": true
    },
    {
      "inputs": [
        {
          "internalType": "uint256",
          "name": "",
          "type": "uint256"
        }
      ],
      "name": "engines",
      "outputs": [
        {
          "internalType": "uint256",
          "name": "id",
          "type": "uint256"
        },
        {
          "internalType": "uint16",
          "name": "horsePowers",
          "type": "uint16"
        },
        {
          "internalType": "uint8",
          "name": "consumtion",
          "type": "uint8"
        }
      ],
      "stateMutability": "view",
      "type": "function",
      "constant": true
    },
    {
      "inputs": [
        {
          "internalType": "uint256",
          "name": "",
          "type": "uint256"
        }
      ],
      "name": "fuelStationToOwner",
      "outputs": [
        {
          "internalType": "address",
          "name": "",
          "type": "address"
        }
      ],
      "stateMutability": "view",
      "type": "function",
      "constant": true
    },
    {
      "inputs": [],
      "name": "owner",
      "outputs": [
        {
          "internalType": "address",
          "name": "",
          "type": "address"
        }
      ],
      "stateMutability": "view",
      "type": "function",
      "constant": true
    },
    {
      "inputs": [
        {
          "internalType": "address",
          "name": "",
          "type": "address"
        }
      ],
      "name": "ownerCarCount",
      "outputs": [
        {
          "internalType": "uint256",
          "name": "",
          "type": "uint256"
        }
      ],
      "stateMutability": "view",
      "type": "function",
      "constant": true
    },
    {
      "inputs": [],
      "name": "renounceOwnership",
      "outputs": [],
      "stateMutability": "nonpayable",
      "type": "function"
    },
    {
      "inputs": [
        {
          "internalType": "uint256",
          "name": "",
          "type": "uint256"
        }
      ],
      "name": "stations",
      "outputs": [
        {
          "internalType": "uint256",
          "name": "id",
          "type": "uint256"
        },
        {
          "internalType": "uint8",
          "name": "capacity",
          "type": "uint8"
        },
        {
          "internalType": "uint8",
          "name": "productionPerHour",
          "type": "uint8"
        },
        {
          "internalType": "uint8",
          "name": "currentFullness",
          "type": "uint8"
        },
        {
          "internalType": "uint256",
          "name": "lastUpdate",
          "type": "uint256"
        }
      ],
      "stateMutability": "view",
      "type": "function",
      "constant": true
    },
    {
      "inputs": [
        {
          "internalType": "address",
          "name": "newOwner",
          "type": "address"
        }
      ],
      "name": "transferOwnership",
      "outputs": [],
      "stateMutability": "nonpayable",
      "type": "function"
    },
    {
      "inputs": [
        {
          "internalType": "address",
          "name": "_owner",
          "type": "address"
        }
      ],
      "name": "getFuelStationByOwner",
      "outputs": [
        {
          "internalType": "uint256",
          "name": "",
          "type": "uint256"
        }
      ],
      "stateMutability": "view",
      "type": "function",
      "constant": true
    },
    {
      "inputs": [
        {
          "internalType": "address",
          "name": "_owner",
          "type": "address"
        }
      ],
      "name": "getEnginesByOwner",
      "outputs": [
        {
          "internalType": "uint256[]",
          "name": "",
          "type": "uint256[]"
        }
      ],
      "stateMutability": "view",
      "type": "function",
      "constant": true
    },
    {
      "inputs": [
        {
          "internalType": "address",
          "name": "_owner",
          "type": "address"
        }
      ],
      "name": "getChassisByOwner",
      "outputs": [
        {
          "internalType": "uint256[]",
          "name": "",
          "type": "uint256[]"
        }
      ],
      "stateMutability": "view",
      "type": "function",
      "constant": true
    },
    {
      "inputs": [
        {
          "internalType": "address",
          "name": "_owner",
          "type": "address"
        }
      ],
      "name": "getCarsByOwner",
      "outputs": [
        {
          "components": [
            {
              "internalType": "string",
              "name": "model",
              "type": "string"
            },
            {
              "internalType": "uint256",
              "name": "vin",
              "type": "uint256"
            },
            {
              "internalType": "uint256",
              "name": "engineId",
              "type": "uint256"
            },
            {
              "internalType": "uint256",
              "name": "chassisId",
              "type": "uint256"
            },
            {
              "internalType": "uint8",
              "name": "carLevel",
              "type": "uint8"
            },
            {
              "internalType": "uint256",
              "name": "mileage",
              "type": "uint256"
            },
            {
              "internalType": "uint256",
              "name": "winCountOnCurrentLevel",
              "type": "uint256"
            },
            {
              "internalType": "uint256",
              "name": "lossCountOnCurrentLevel",
              "type": "uint256"
            }
          ],
          "internalType": "struct CarFactory.Car[]",
          "name": "",
          "type": "tuple[]"
        }
      ],
      "stateMutability": "view",
      "type": "function",
      "constant": true
    },
    {
      "inputs": [
        {
          "internalType": "uint256",
          "name": "_fuelStatonId",
          "type": "uint256"
        },
        {
          "internalType": "uint8",
          "name": "_counts",
          "type": "uint8"
        }
      ],
      "name": "upgradeCapacity",
      "outputs": [],
      "stateMutability": "payable",
      "type": "function",
      "payable": true
    },
    {
      "inputs": [
        {
          "internalType": "uint256",
          "name": "_fuelStatonId",
          "type": "uint256"
        },
        {
          "internalType": "uint8",
          "name": "_counts",
          "type": "uint8"
        }
      ],
      "name": "upgradeProductionPerHour",
      "outputs": [],
      "stateMutability": "payable",
      "type": "function",
      "payable": true
    },
    {
      "inputs": [
        {
          "internalType": "uint256",
          "name": "_engineId",
          "type": "uint256"
        },
        {
          "internalType": "uint8",
          "name": "_counts",
          "type": "uint8"
        }
      ],
      "name": "upgradeHorsePowers",
      "outputs": [],
      "stateMutability": "payable",
      "type": "function",
      "payable": true
    },
    {
      "inputs": [
        {
          "internalType": "uint256",
          "name": "_engineId",
          "type": "uint256"
        },
        {
          "internalType": "uint8",
          "name": "_counts",
          "type": "uint8"
        }
      ],
      "name": "upgradeConsumtion",
      "outputs": [],
      "stateMutability": "payable",
      "type": "function",
      "payable": true
    },
    {
      "inputs": [
        {
          "internalType": "uint256",
          "name": "_chassisId",
          "type": "uint256"
        },
        {
          "internalType": "uint8",
          "name": "_counts",
          "type": "uint8"
        }
      ],
      "name": "upgradeDurability",
      "outputs": [],
      "stateMutability": "payable",
      "type": "function",
      "payable": true
    },
    {
      "inputs": [
        {
          "internalType": "uint256",
          "name": "_carId",
          "type": "uint256"
        }
      ],
      "name": "levelUp",
      "outputs": [],
      "stateMutability": "payable",
      "type": "function",
      "payable": true
    }
  ],
  "bytecode": "0x6080604052603c600060146101000a81548160ff021916908360ff1602179055506005600060156101000a81548160ff021916908360ff160217905550600160085560016009556509184e72a00060135565b5e620f48000601455650da475abf0006015556611c37937e080006016556305f5e10060175566038d7ea4c680006018553480156200008f57600080fd5b50620000b0620000a46200013260201b60201c565b6200013a60201b60201c565b6050600381905550605b600481905550600a600560006101000a81548160ff021916908360ff160217905550620186a06006819055506201d4c1600781905550600b60018160018154018082558091505003906000526020600020905050600c60018160018154018082558091505003906000526020600020905050620001fe565b600033905090565b60008060009054906101000a900473ffffffffffffffffffffffffffffffffffffffff169050816000806101000a81548173ffffffffffffffffffffffffffffffffffffffff021916908373ffffffffffffffffffffffffffffffffffffffff1602179055508173ffffffffffffffffffffffffffffffffffffffff168173ffffffffffffffffffffffffffffffffffffffff167f8be0079c531659141344cd1fd0a4f28419497f9722a3daafe3b4186f6b6457e060405160405180910390a35050565b61305c806200020e6000396000f3fe60806040526004361061014b5760003560e01c80637c62360f116100b6578063b72c0eea1161006f578063b72c0eea1461049d578063c75bb4f4146104dc578063e77100d414610519578063f2fde38b14610530578063f7746e3614610559578063faf4bb981461059d5761014b565b80637c62360f146103a057806385909267146103bc5780638da5cb5b146103d8578063906f5f341461040357806392f859db1461041f578063b3b29afd146104605761014b565b80634e31f910116101085780634e31f91014610258578063594193d7146102955780635dcc4cc6146102d25780636f206fc11461030f578063715018a61461034c5780637713d521146103635761014b565b806303f2e05b146101505780630ce90ec21461016c5780631c5dde0e14610188578063224370f0146101c757806333ca504b146101de578063449014901461021b575b600080fd5b61016a6004803603810190610165919061228b565b6105b9565b005b610186600480360381019061018191906122cb565b6106f1565b005b34801561019457600080fd5b506101af60048036038101906101aa91906122cb565b610870565b6040516101be93929190612326565b60405180910390f35b3480156101d357600080fd5b506101dc6108ca565b005b3480156101ea57600080fd5b50610205600480360381019061020091906122cb565b610a36565b604051610212919061239e565b60405180910390f35b34801561022757600080fd5b50610242600480360381019061023d91906122cb565b610a69565b60405161024f919061239e565b60405180910390f35b34801561026457600080fd5b5061027f600480360381019061027a91906123e5565b610a9c565b60405161028c9190612412565b60405180910390f35b3480156102a157600080fd5b506102bc60048036038101906102b791906122cb565b610b3a565b6040516102c9919061239e565b60405180910390f35b3480156102de57600080fd5b506102f960048036038101906102f491906122cb565b610b6d565b604051610306919061239e565b60405180910390f35b34801561031b57600080fd5b50610336600480360381019061033191906123e5565b610ba0565b60405161034391906124eb565b60405180910390f35b34801561035857600080fd5b50610361610cf2565b005b34801561036f57600080fd5b5061038a600480360381019061038591906123e5565b610d06565b60405161039791906124eb565b60405180910390f35b6103ba60048036038101906103b5919061228b565b610e58565b005b6103d660048036038101906103d1919061228b565b610f85565b005b3480156103e457600080fd5b506103ed6110a8565b6040516103fa919061239e565b60405180910390f35b61041d6004803603810190610418919061228b565b6110d1565b005b34801561042b57600080fd5b50610446600480360381019061044191906122cb565b6111f4565b60405161045795949392919061251c565b60405180910390f35b34801561046c57600080fd5b50610487600480360381019061048291906123e5565b611261565b6040516104949190612412565b60405180910390f35b3480156104a957600080fd5b506104c460048036038101906104bf91906122cb565b611279565b6040516104d39392919061258c565b60405180910390f35b3480156104e857600080fd5b5061050360048036038101906104fe91906123e5565b6112ce565b60405161051091906127dd565b60405180910390f35b34801561052557600080fd5b5061052e611542565b005b34801561053c57600080fd5b50610557600480360381019061055291906123e5565b6117dd565b005b34801561056557600080fd5b50610580600480360381019061057b91906122cb565b611860565b604051610594989796959493929190612849565b60405180910390f35b6105b760048036038101906105b2919061228b565b61194d565b005b81600f600082815260200190815260200160002060009054906101000a900473ffffffffffffffffffffffffffffffffffffffff1673ffffffffffffffffffffffffffffffffffffffff163373ffffffffffffffffffffffffffffffffffffffff161461062557600080fd5b601754600c848154811061063c5761063b6128ce565b5b906000526020600020906002020160010160009054906101000a900463ffffffff168360ff1661066c919061292c565b63ffffffff1661067c919061296a565b341461068757600080fd5b8160ff16600c848154811061069f5761069e6128ce565b5b906000526020600020906002020160010160008282829054906101000a900463ffffffff166106ce91906129c4565b92506101000a81548163ffffffff021916908363ffffffff160217905550505050565b600a808281548110610706576107056128ce565b5b906000526020600020906008020160040160009054906101000a900460ff1661072f9190612a2d565b60ff1660185461073f919061296a565b341480156107b357506001600a828154811061075e5761075d6128ce565b5b906000526020600020906008020160040160009054906101000a900460ff166107879190612a5e565b60ff16600a828154811061079e5761079d6128ce565b5b90600052602060002090600802016006015410155b6107bc57600080fd5b600a81815481106107d0576107cf6128ce565b5b9060005260206000209060080201600401600081819054906101000a900460ff16809291906107fe90612a95565b91906101000a81548160ff021916908360ff160217905550506000600a828154811061082d5761082c6128ce565b5b9060005260206000209060080201600601819055506000600a8281548110610858576108576128ce565b5b90600052602060002090600802016007018190555050565b600c818154811061088057600080fd5b90600052602060002090600202016000915090508060000154908060010160009054906101000a900463ffffffff16908060010160049054906101000a900463ffffffff16905083565b60003390506000600180549050905060016040518060a00160405280838152602001600060149054906101000a900460ff1660ff168152602001600060159054906101000a900460ff1660ff168152602001600060149054906101000a900460ff1660ff1681526020014263ffffffff1681525090806001815401808255809150506001900390600052602060002090600302016000909190919091506000820151816000015560208201518160010160006101000a81548160ff021916908360ff16021790555060408201518160010160016101000a81548160ff021916908360ff16021790555060608201518160010160026101000a81548160ff021916908360ff160217905550608082015181600201555050816002600083815260200190815260200160002060006101000a81548173ffffffffffffffffffffffffffffffffffffffff021916908373ffffffffffffffffffffffffffffffffffffffff1602179055505050565b600d6020528060005260406000206000915054906101000a900473ffffffffffffffffffffffffffffffffffffffff1681565b600f6020528060005260406000206000915054906101000a900473ffffffffffffffffffffffffffffffffffffffff1681565b60008060005b600180549050811015610b30578373ffffffffffffffffffffffffffffffffffffffff166002600083815260200190815260200160002060009054906101000a900473ffffffffffffffffffffffffffffffffffffffff1673ffffffffffffffffffffffffffffffffffffffff1603610b1d57809150610b30565b8080610b2890612abe565b915050610aa2565b5080915050919050565b60026020528060005260406000206000915054906101000a900473ffffffffffffffffffffffffffffffffffffffff1681565b600e6020528060005260406000206000915054906101000a900473ffffffffffffffffffffffffffffffffffffffff1681565b60606000601160008473ffffffffffffffffffffffffffffffffffffffff1673ffffffffffffffffffffffffffffffffffffffff1681526020019081526020016000205467ffffffffffffffff811115610bfd57610bfc612b06565b5b604051908082528060200260200182016040528015610c2b5781602001602082028036833780820191505090505b5090506000805b600c80549050811015610ce7578473ffffffffffffffffffffffffffffffffffffffff16600f600083815260200190815260200160002060009054906101000a900473ffffffffffffffffffffffffffffffffffffffff1673ffffffffffffffffffffffffffffffffffffffff1603610cd45780838381518110610cb957610cb86128ce565b5b6020026020010181815250508180610cd090612abe565b9250505b8080610cdf90612abe565b915050610c32565b508192505050919050565b610cfa611a7b565b610d046000611af9565b565b60606000601160008473ffffffffffffffffffffffffffffffffffffffff1673ffffffffffffffffffffffffffffffffffffffff1681526020019081526020016000205467ffffffffffffffff811115610d6357610d62612b06565b5b604051908082528060200260200182016040528015610d915781602001602082028036833780820191505090505b5090506000805b600b80549050811015610e4d578473ffffffffffffffffffffffffffffffffffffffff16600e600083815260200190815260200160002060009054906101000a900473ffffffffffffffffffffffffffffffffffffffff1673ffffffffffffffffffffffffffffffffffffffff1603610e3a5780838381518110610e1f57610e1e6128ce565b5b6020026020010181815250508180610e3690612abe565b9250505b8080610e4590612abe565b915050610d98565b508192505050919050565b81600e600082815260200190815260200160002060009054906101000a900473ffffffffffffffffffffffffffffffffffffffff1673ffffffffffffffffffffffffffffffffffffffff163373ffffffffffffffffffffffffffffffffffffffff1614610ec457600080fd5b600b8381548110610ed857610ed76128ce565b5b906000526020600020906002020160010160029054906101000a900460ff16600a610f039190612b35565b6002610f0f9190612c9c565b601654610f1c919061296a565b3414610f2757600080fd5b81600b8481548110610f3c57610f3b6128ce565b5b906000526020600020906002020160010160028282829054906101000a900460ff16610f689190612b35565b92506101000a81548160ff021916908360ff160217905550505050565b816002600082815260200190815260200160002060009054906101000a900473ffffffffffffffffffffffffffffffffffffffff1673ffffffffffffffffffffffffffffffffffffffff163373ffffffffffffffffffffffffffffffffffffffff1614610ff157600080fd5b60145460018481548110611008576110076128ce565b5b906000526020600020906003020160010160019054906101000a900460ff16836110329190612ce7565b60ff1661103f919061296a565b341461104a57600080fd5b816001848154811061105f5761105e6128ce565b5b906000526020600020906003020160010160018282829054906101000a900460ff1661108b9190612a5e565b92506101000a81548160ff021916908360ff160217905550505050565b60008060009054906101000a900473ffffffffffffffffffffffffffffffffffffffff16905090565b816002600082815260200190815260200160002060009054906101000a900473ffffffffffffffffffffffffffffffffffffffff1673ffffffffffffffffffffffffffffffffffffffff163373ffffffffffffffffffffffffffffffffffffffff161461113d57600080fd5b60135460018481548110611154576111536128ce565b5b906000526020600020906003020160010160009054906101000a900460ff168361117e9190612ce7565b60ff1661118b919061296a565b341461119657600080fd5b81600184815481106111ab576111aa6128ce565b5b906000526020600020906003020160010160008282829054906101000a900460ff166111d79190612a5e565b92506101000a81548160ff021916908360ff160217905550505050565b6001818154811061120457600080fd5b90600052602060002090600302016000915090508060000154908060010160009054906101000a900460ff16908060010160019054906101000a900460ff16908060010160029054906101000a900460ff16908060020154905085565b60106020528060005260406000206000915090505481565b600b818154811061128957600080fd5b90600052602060002090600202016000915090508060000154908060010160009054906101000a900461ffff16908060010160029054906101000a900460ff16905083565b60606000601060008473ffffffffffffffffffffffffffffffffffffffff1673ffffffffffffffffffffffffffffffffffffffff1681526020019081526020016000205467ffffffffffffffff81111561132b5761132a612b06565b5b60405190808252806020026020018201604052801561136457816020015b61135161212c565b8152602001906001900390816113495790505b5090506000805b600c80549050811015611537578473ffffffffffffffffffffffffffffffffffffffff16600d600083815260200190815260200160002060009054906101000a900473ffffffffffffffffffffffffffffffffffffffff1673ffffffffffffffffffffffffffffffffffffffff160361152457600a81815481106113f2576113f16128ce565b5b90600052602060002090600802016040518061010001604052908160008201805461141c90612d51565b80601f016020809104026020016040519081016040528092919081815260200182805461144890612d51565b80156114955780601f1061146a57610100808354040283529160200191611495565b820191906000526020600020905b81548152906001019060200180831161147857829003601f168201915b505050505081526020016001820154815260200160028201548152602001600382015481526020016004820160009054906101000a900460ff1660ff1660ff168152602001600582015481526020016006820154815260200160078201548152505083838151811061150a576115096128ce565b5b6020026020010181905250818061152090612abe565b9250505b808061152f90612abe565b91505061136b565b508192505050919050565b6000601060003373ffffffffffffffffffffffffffffffffffffffff1673ffffffffffffffffffffffffffffffffffffffff168152602001908152602001600020541461158e57600080fd5b60006040518060400160405280600581526020017f6d6f64656c00000000000000000000000000000000000000000000000000000081525090506000816115d442611bbd565b6040516020016115e5929190612dbe565b60405160208183030381529060405290506000816040516020016116099190612de2565b6040516020818303038152906040528051906020012060001c9050600061162e611c8b565b9050600061163a611e2e565b90506000600a805490509050600a604051806101000160405280888152602001868152602001858152602001848152602001600160ff16815260200160008152602001600081526020016000815250908060018154018082558091505060019003906000526020600020906008020160009091909190915060008201518160000190805190602001906116ce929190612174565b5060208201518160010155604082015181600201556060820151816003015560808201518160040160006101000a81548160ff021916908360ff16021790555060a0820151816005015560c0820151816006015560e08201518160070155505033600d600083815260200190815260200160002060006101000a81548173ffffffffffffffffffffffffffffffffffffffff021916908373ffffffffffffffffffffffffffffffffffffffff160217905550601060003373ffffffffffffffffffffffffffffffffffffffff1673ffffffffffffffffffffffffffffffffffffffff16815260200190815260200160002060008154809291906117d090612abe565b9190505550505050505050565b6117e5611a7b565b600073ffffffffffffffffffffffffffffffffffffffff168173ffffffffffffffffffffffffffffffffffffffff1603611854576040517f08c379a000000000000000000000000000000000000000000000000000000000815260040161184b90612e6b565b60405180910390fd5b61185d81611af9565b50565b600a818154811061187057600080fd5b906000526020600020906008020160009150905080600001805461189390612d51565b80601f01602080910402602001604051908101604052809291908181526020018280546118bf90612d51565b801561190c5780601f106118e15761010080835404028352916020019161190c565b820191906000526020600020905b8154815290600101906020018083116118ef57829003601f168201915b5050505050908060010154908060020154908060030154908060040160009054906101000a900460ff16908060050154908060060154908060070154905088565b81600e600082815260200190815260200160002060009054906101000a900473ffffffffffffffffffffffffffffffffffffffff1673ffffffffffffffffffffffffffffffffffffffff163373ffffffffffffffffffffffffffffffffffffffff16146119b957600080fd5b601554600b84815481106119d0576119cf6128ce565b5b906000526020600020906002020160010160009054906101000a900461ffff168360ff166119fe9190612e8b565b61ffff16611a0c919061296a565b3414611a1757600080fd5b8160ff16600b8481548110611a2f57611a2e6128ce565b5b906000526020600020906002020160010160008282829054906101000a900461ffff16611a5c9190612ec7565b92506101000a81548161ffff021916908361ffff160217905550505050565b611a83611fd1565b73ffffffffffffffffffffffffffffffffffffffff16611aa16110a8565b73ffffffffffffffffffffffffffffffffffffffff1614611af7576040517f08c379a0000000000000000000000000000000000000000000000000000000008152600401611aee90612f4b565b60405180910390fd5b565b60008060009054906101000a900473ffffffffffffffffffffffffffffffffffffffff169050816000806101000a81548173ffffffffffffffffffffffffffffffffffffffff021916908373ffffffffffffffffffffffffffffffffffffffff1602179055508173ffffffffffffffffffffffffffffffffffffffff168173ffffffffffffffffffffffffffffffffffffffff167f8be0079c531659141344cd1fd0a4f28419497f9722a3daafe3b4186f6b6457e060405160405180910390a35050565b606060006001611bcc84611fd9565b01905060008167ffffffffffffffff811115611beb57611bea612b06565b5b6040519080825280601f01601f191660200182016040528015611c1d5781602001600182028036833780820191505090505b509050600082602001820190505b600115611c80578080600190039150507f3031323334353637383961626364656600000000000000000000000000000000600a86061a8153600a8581611c7457611c736129fe565b5b04945060008503611c2b575b819350505050919050565b600080600354600454611c9e9190612f6b565b42611ca99190612f9f565b600354611cb69190612fd0565b9050600060086000815480929190611ccd90612abe565b919050559050600b60405180606001604052808381526020018461ffff168152602001600560009054906101000a900460ff1660ff1681525090806001815401808255809150506001900390600052602060002090600202016000909190919091506000820151816000015560208201518160010160006101000a81548161ffff021916908361ffff16021790555060408201518160010160026101000a81548160ff021916908360ff1602179055505050601160003373ffffffffffffffffffffffffffffffffffffffff1673ffffffffffffffffffffffffffffffffffffffff1681526020019081526020016000206000815480929190611dcf90612abe565b919050555033600e600083815260200190815260200160002060006101000a81548173ffffffffffffffffffffffffffffffffffffffff021916908373ffffffffffffffffffffffffffffffffffffffff160217905550809250505090565b600080600654600754611e419190612f6b565b42611e4c9190612f9f565b600654611e599190612fd0565b9050600060096000815480929190611e7090612abe565b919050559050600c60405180606001604052808381526020018463ffffffff1681526020018463ffffffff1681525090806001815401808255809150506001900390600052602060002090600202016000909190919091506000820151816000015560208201518160010160006101000a81548163ffffffff021916908363ffffffff16021790555060408201518160010160046101000a81548163ffffffff021916908363ffffffff1602179055505050601260003373ffffffffffffffffffffffffffffffffffffffff1673ffffffffffffffffffffffffffffffffffffffff1681526020019081526020016000206000815480929190611f7290612abe565b919050555033600f600083815260200190815260200160002060006101000a81548173ffffffffffffffffffffffffffffffffffffffff021916908373ffffffffffffffffffffffffffffffffffffffff160217905550809250505090565b600033905090565b600080600090507a184f03e93ff9f4daa797ed6e38ed64bf6a1f0100000000000000008310612037577a184f03e93ff9f4daa797ed6e38ed64bf6a1f010000000000000000838161202d5761202c6129fe565b5b0492506040810190505b6d04ee2d6d415b85acef81000000008310612074576d04ee2d6d415b85acef8100000000838161206a576120696129fe565b5b0492506020810190505b662386f26fc1000083106120a357662386f26fc100008381612099576120986129fe565b5b0492506010810190505b6305f5e10083106120cc576305f5e10083816120c2576120c16129fe565b5b0492506008810190505b61271083106120f15761271083816120e7576120e66129fe565b5b0492506004810190505b60648310612114576064838161210a576121096129fe565b5b0492506002810190505b600a8310612123576001810190505b80915050919050565b60405180610100016040528060608152602001600081526020016000815260200160008152602001600060ff1681526020016000815260200160008152602001600081525090565b82805461218090612d51565b90600052602060002090601f0160209004810192826121a257600085556121e9565b82601f106121bb57805160ff19168380011785556121e9565b828001600101855582156121e9579182015b828111156121e85782518255916020019190600101906121cd565b5b5090506121f691906121fa565b5090565b5b808211156122135760008160009055506001016121fb565b5090565b600080fd5b6000819050919050565b61222f8161221c565b811461223a57600080fd5b50565b60008135905061224c81612226565b92915050565b600060ff82169050919050565b61226881612252565b811461227357600080fd5b50565b6000813590506122858161225f565b92915050565b600080604083850312156122a2576122a1612217565b5b60006122b08582860161223d565b92505060206122c185828601612276565b9150509250929050565b6000602082840312156122e1576122e0612217565b5b60006122ef8482850161223d565b91505092915050565b6123018161221c565b82525050565b600063ffffffff82169050919050565b61232081612307565b82525050565b600060608201905061233b60008301866122f8565b6123486020830185612317565b6123556040830184612317565b949350505050565b600073ffffffffffffffffffffffffffffffffffffffff82169050919050565b60006123888261235d565b9050919050565b6123988161237d565b82525050565b60006020820190506123b3600083018461238f565b92915050565b6123c28161237d565b81146123cd57600080fd5b50565b6000813590506123df816123b9565b92915050565b6000602082840312156123fb576123fa612217565b5b6000612409848285016123d0565b91505092915050565b600060208201905061242760008301846122f8565b92915050565b600081519050919050565b600082825260208201905092915050565b6000819050602082019050919050565b6124628161221c565b82525050565b60006124748383612459565b60208301905092915050565b6000602082019050919050565b60006124988261242d565b6124a28185612438565b93506124ad83612449565b8060005b838110156124de5781516124c58882612468565b97506124d083612480565b9250506001810190506124b1565b5085935050505092915050565b60006020820190508181036000830152612505818461248d565b905092915050565b61251681612252565b82525050565b600060a08201905061253160008301886122f8565b61253e602083018761250d565b61254b604083018661250d565b612558606083018561250d565b61256560808301846122f8565b9695505050505050565b600061ffff82169050919050565b6125868161256f565b82525050565b60006060820190506125a160008301866122f8565b6125ae602083018561257d565b6125bb604083018461250d565b949350505050565b600081519050919050565b600082825260208201905092915050565b6000819050602082019050919050565b600081519050919050565b600082825260208201905092915050565b60005b8381101561262957808201518184015260208101905061260e565b83811115612638576000848401525b50505050565b6000601f19601f8301169050919050565b600061265a826125ef565b61266481856125fa565b935061267481856020860161260b565b61267d8161263e565b840191505092915050565b61269181612252565b82525050565b60006101008301600083015184820360008601526126b5828261264f565b91505060208301516126ca6020860182612459565b5060408301516126dd6040860182612459565b5060608301516126f06060860182612459565b5060808301516127036080860182612688565b5060a083015161271660a0860182612459565b5060c083015161272960c0860182612459565b5060e083015161273c60e0860182612459565b508091505092915050565b60006127538383612697565b905092915050565b6000602082019050919050565b6000612773826125c3565b61277d81856125ce565b93508360208202850161278f856125df565b8060005b858110156127cb57848403895281516127ac8582612747565b94506127b78361275b565b925060208a01995050600181019050612793565b50829750879550505050505092915050565b600060208201905081810360008301526127f78184612768565b905092915050565b600082825260208201905092915050565b600061281b826125ef565b61282581856127ff565b935061283581856020860161260b565b61283e8161263e565b840191505092915050565b6000610100820190508181036000830152612864818b612810565b9050612873602083018a6122f8565b61288060408301896122f8565b61288d60608301886122f8565b61289a608083018761250d565b6128a760a08301866122f8565b6128b460c08301856122f8565b6128c160e08301846122f8565b9998505050505050505050565b7f4e487b7100000000000000000000000000000000000000000000000000000000600052603260045260246000fd5b7f4e487b7100000000000000000000000000000000000000000000000000000000600052601160045260246000fd5b600061293782612307565b915061294283612307565b92508163ffffffff048311821515161561295f5761295e6128fd565b5b828202905092915050565b60006129758261221c565b91506129808361221c565b9250817fffffffffffffffffffffffffffffffffffffffffffffffffffffffffffffffff04831182151516156129b9576129b86128fd565b5b828202905092915050565b60006129cf82612307565b91506129da83612307565b92508263ffffffff038211156129f3576129f26128fd565b5b828201905092915050565b7f4e487b7100000000000000000000000000000000000000000000000000000000600052601260045260246000fd5b6000612a3882612252565b9150612a4383612252565b925082612a5357612a526129fe565b5b828204905092915050565b6000612a6982612252565b9150612a7483612252565b92508260ff03821115612a8a57612a896128fd565b5b828201905092915050565b6000612aa082612252565b915060ff8203612ab357612ab26128fd565b5b600182019050919050565b6000612ac98261221c565b91507fffffffffffffffffffffffffffffffffffffffffffffffffffffffffffffffff8203612afb57612afa6128fd565b5b600182019050919050565b7f4e487b7100000000000000000000000000000000000000000000000000000000600052604160045260246000fd5b6000612b4082612252565b9150612b4b83612252565b925082821015612b5e57612b5d6128fd565b5b828203905092915050565b60008160011c9050919050565b6000808291508390505b6001851115612bc057808604811115612b9c57612b9b6128fd565b5b6001851615612bab5780820291505b8081029050612bb985612b69565b9450612b80565b94509492505050565b600082612bd95760019050612c95565b81612be75760009050612c95565b8160018114612bfd5760028114612c0757612c36565b6001915050612c95565b60ff841115612c1957612c186128fd565b5b8360020a915084821115612c3057612c2f6128fd565b5b50612c95565b5060208310610133831016604e8410600b8410161715612c6b5782820a905083811115612c6657612c656128fd565b5b612c95565b612c788484846001612b76565b92509050818404811115612c8f57612c8e6128fd565b5b81810290505b9392505050565b6000612ca78261221c565b9150612cb283612252565b9250612cdf7fffffffffffffffffffffffffffffffffffffffffffffffffffffffffffffffff8484612bc9565b905092915050565b6000612cf282612252565b9150612cfd83612252565b92508160ff0483118215151615612d1757612d166128fd565b5b828202905092915050565b7f4e487b7100000000000000000000000000000000000000000000000000000000600052602260045260246000fd5b60006002820490506001821680612d6957607f821691505b602082108103612d7c57612d7b612d22565b5b50919050565b600081905092915050565b6000612d98826125ef565b612da28185612d82565b9350612db281856020860161260b565b80840191505092915050565b6000612dca8285612d8d565b9150612dd68284612d8d565b91508190509392505050565b6000612dee8284612d8d565b915081905092915050565b7f4f776e61626c653a206e6577206f776e657220697320746865207a65726f206160008201527f6464726573730000000000000000000000000000000000000000000000000000602082015250565b6000612e556026836127ff565b9150612e6082612df9565b604082019050919050565b60006020820190508181036000830152612e8481612e48565b9050919050565b6000612e968261256f565b9150612ea18361256f565b92508161ffff0483118215151615612ebc57612ebb6128fd565b5b828202905092915050565b6000612ed28261256f565b9150612edd8361256f565b92508261ffff03821115612ef457612ef36128fd565b5b828201905092915050565b7f4f776e61626c653a2063616c6c6572206973206e6f7420746865206f776e6572600082015250565b6000612f356020836127ff565b9150612f4082612eff565b602082019050919050565b60006020820190508181036000830152612f6481612f28565b9050919050565b6000612f768261221c565b9150612f818361221c565b925082821015612f9457612f936128fd565b5b828203905092915050565b6000612faa8261221c565b9150612fb58361221c565b925082612fc557612fc46129fe565b5b828206905092915050565b6000612fdb8261221c565b9150612fe68361221c565b9250827fffffffffffffffffffffffffffffffffffffffffffffffffffffffffffffffff0382111561301b5761301a6128fd565b5b82820190509291505056fea2646970667358221220ebbd13a47d42cc5bc17fe7a33e30008dbb96fd4355f563af459f3f4d469dbaef64736f6c634300080d0033",
  "immutableReferences": {},
  "source": "// SPDX-License-Identifier: MIT\npragma solidity ^0.8.13;\n\nimport \"./CarFactory.sol\";\n\ncontract CarHelper is CarFactory {\n\n    uint capacityCoef = 0.00001 ether;\n    uint productionPerHourCoef = 0.0002 ether;\n    uint horsePowersCoef = 0.000015 ether;\n    uint consumtionCoef = 0.005 ether;\n    uint durabilityCoef = 0.0000000001 ether;\n    uint levelUpCost = 0.001 ether;\n\n    modifier onlyOwnerOfCar(uint _carId) {\n        require(msg.sender == carToOwner[_carId]);\n        _;\n    }\n\n    modifier onlyOwnerOfEngine(uint _engineId) {\n        require(msg.sender == engineToOwner[_engineId]);\n        _;\n    }\n\n    modifier onlyOwnerOfChassis(uint _chassisId) {\n        require(msg.sender == chassisToOwner[_chassisId]);\n        _;\n    }\n\n    modifier onlyOwnerOfFuelStation(uint _fuelStationId) {\n        require(msg.sender == fuelStationToOwner[_fuelStationId]);\n        _;\n    }\n\n\n    function getFuelStationByOwner(address _owner) public view returns(uint){\n        uint resId;\n        for (uint i = 0; i < stations.length; i++) {\n            if (fuelStationToOwner[i] == _owner) {\n               resId = i;\n               break;\n            }\n        }\n        return resId;\n    }\n\n    function getEnginesByOwner(address _owner) public view returns(uint[] memory) {\n        uint[] memory result = new uint[](ownerEngineCount[_owner]);\n        uint counter = 0;\n        for (uint i = 0; i < engines.length; i++) {\n            if (engineToOwner[i] == _owner) {\n                result[counter] = i;\n                counter++;\n            }\n        }\n        return result;\n    }\n\n    function getChassisByOwner(address _owner) public view returns(uint[] memory) {\n        uint[] memory result = new uint[](ownerEngineCount[_owner]);\n        uint counter = 0;\n        for (uint i = 0; i < chassis.length; i++) {\n            if (chassisToOwner[i] == _owner) {\n                result[counter] = i;\n                counter++;\n            }\n        }\n        return result;\n    }\n\n    function getCarsByOwner(address _owner) public view returns(Car[] memory) {\n        Car[] memory result = new Car[](ownerCarCount[_owner]);\n        uint counter = 0;\n        for (uint i = 0; i < chassis.length; i++) {\n            if (carToOwner[i] == _owner) {\n                result[counter] = cars[i];\n                counter++;\n            }\n        }\n        return result;\n    }\n\n    function upgradeCapacity(uint _fuelStatonId, uint8 _counts) external payable onlyOwnerOfFuelStation(_fuelStatonId) {\n        require(msg.value == (_counts * stations[_fuelStatonId].capacity * capacityCoef));\n        stations[_fuelStatonId].capacity += _counts; \n    }\n\n    function upgradeProductionPerHour(uint _fuelStatonId, uint8 _counts) external payable onlyOwnerOfFuelStation(_fuelStatonId) {\n        require(msg.value == (_counts * stations[_fuelStatonId].productionPerHour * productionPerHourCoef));\n        stations[_fuelStatonId].productionPerHour += _counts; \n    }\n\n    function upgradeHorsePowers(uint _engineId, uint8 _counts) external payable onlyOwnerOfEngine(_engineId) {\n        require(msg.value == (_counts * engines[_engineId].horsePowers * horsePowersCoef));\n        engines[_engineId].horsePowers += _counts; \n    }\n\n    function upgradeConsumtion(uint _engineId, uint8 _counts) external payable onlyOwnerOfEngine(_engineId) {\n        require(msg.value == consumtionCoef * 2**(10 - engines[_engineId].consumtion));\n        engines[_engineId].consumtion -= _counts; \n    }\n\n    function upgradeDurability(uint _chassisId, uint8 _counts) external payable onlyOwnerOfChassis(_chassisId) {\n        require(msg.value == (_counts * chassis[_chassisId].durability * durabilityCoef));\n        chassis[_chassisId].durability += _counts; \n    }\n\n    function levelUp(uint _carId) external payable {\n        require(msg.value == levelUpCost * (cars[_carId].carLevel/10) && cars[_carId].winCountOnCurrentLevel >= (cars[_carId].carLevel + 1));\n        cars[_carId].carLevel++;\n        cars[_carId].winCountOnCurrentLevel = 0;\n        cars[_carId].lossCountOnCurrentLevel = 0;\n    }\n\n\n}",
  "sourcePath": "/Users/vvan/Programming/JavaScript/DriveSafely/contract/contracts/CarHelper.sol",
  "compiler": {
    "name": "solc",
    "version": "0.8.13+commit.abaa5c0e.Emscripten.clang"
  },
  "schemaVersion": "3.4.11",
  "updatedAt": "2023-01-08T10:01:32.265Z",
  "networkType": "ethereum",
  "devdoc": {
    "kind": "dev",
    "methods": {
      "owner()": {
        "details": "Returns the address of the current owner."
      },
      "renounceOwnership()": {
        "details": "Leaves the contract without owner. It will not be possible to call `onlyOwner` functions anymore. Can only be called by the current owner. NOTE: Renouncing ownership will leave the contract without an owner, thereby removing any functionality that is only available to the owner."
      },
      "transferOwnership(address)": {
        "details": "Transfers ownership of the contract to a new account (`newOwner`). Can only be called by the current owner."
      }
    },
    "version": 1
  },
  "userdoc": {
    "kind": "user",
    "methods": {},
    "version": 1
  }
}