{
  "contractName": "CarHelper",
  "abi": [
    {
      "anonymous": false,
      "inputs": [
        {
          "indexed": true,
          "internalType": "address",
          "name": "previousOwner",
          "type": "address"
        },
        {
          "indexed": true,
          "internalType": "address",
          "name": "newOwner",
          "type": "address"
        }
      ],
      "name": "OwnershipTransferred",
      "type": "event"
    },
    {
      "inputs": [
        {
          "internalType": "uint256",
          "name": "",
          "type": "uint256"
        }
      ],
      "name": "carToOwner",
      "outputs": [
        {
          "internalType": "address",
          "name": "",
          "type": "address"
        }
      ],
      "stateMutability": "view",
      "type": "function",
      "constant": true
    },
    {
      "inputs": [
        {
          "internalType": "uint256",
          "name": "",
          "type": "uint256"
        }
      ],
      "name": "cars",
      "outputs": [
        {
          "internalType": "string",
          "name": "model",
          "type": "string"
        },
        {
          "internalType": "uint256",
          "name": "vin",
          "type": "uint256"
        },
        {
          "internalType": "uint256",
          "name": "engineId",
          "type": "uint256"
        },
        {
          "internalType": "uint256",
          "name": "chassisId",
          "type": "uint256"
        },
        {
          "internalType": "uint8",
          "name": "carLevel",
          "type": "uint8"
        },
        {
          "internalType": "uint256",
          "name": "mileage",
          "type": "uint256"
        },
        {
          "internalType": "uint256",
          "name": "winCountOnCurrentLevel",
          "type": "uint256"
        },
        {
          "internalType": "uint256",
          "name": "lossCountOnCurrentLevel",
          "type": "uint256"
        }
      ],
      "stateMutability": "view",
      "type": "function",
      "constant": true
    },
    {
      "inputs": [
        {
          "internalType": "uint256",
          "name": "",
          "type": "uint256"
        }
      ],
      "name": "chassis",
      "outputs": [
        {
          "internalType": "uint256",
          "name": "id",
          "type": "uint256"
        },
        {
          "internalType": "uint32",
          "name": "durability",
          "type": "uint32"
        },
        {
          "internalType": "uint32",
          "name": "resource",
          "type": "uint32"
        }
      ],
      "stateMutability": "view",
      "type": "function",
      "constant": true
    },
    {
      "inputs": [
        {
          "internalType": "uint256",
          "name": "",
          "type": "uint256"
        }
      ],
      "name": "chassisToOwner",
      "outputs": [
        {
          "internalType": "address",
          "name": "",
          "type": "address"
        }
      ],
      "stateMutability": "view",
      "type": "function",
      "constant": true
    },
    {
      "inputs": [
        {
          "internalType": "string",
          "name": "model",
          "type": "string"
        }
      ],
      "name": "createCar",
      "outputs": [],
      "stateMutability": "nonpayable",
      "type": "function"
    },
    {
      "inputs": [],
      "name": "createFuelStation",
      "outputs": [],
      "stateMutability": "nonpayable",
      "type": "function"
    },
    {
      "inputs": [
        {
          "internalType": "uint256",
          "name": "",
          "type": "uint256"
        }
      ],
      "name": "engineToOwner",
      "outputs": [
        {
          "internalType": "address",
          "name": "",
          "type": "address"
        }
      ],
      "stateMutability": "view",
      "type": "function",
      "constant": true
    },
    {
      "inputs": [
        {
          "internalType": "uint256",
          "name": "",
          "type": "uint256"
        }
      ],
      "name": "engines",
      "outputs": [
        {
          "internalType": "uint256",
          "name": "id",
          "type": "uint256"
        },
        {
          "internalType": "uint16",
          "name": "horsePowers",
          "type": "uint16"
        },
        {
          "internalType": "uint8",
          "name": "consumtion",
          "type": "uint8"
        }
      ],
      "stateMutability": "view",
      "type": "function",
      "constant": true
    },
    {
      "inputs": [
        {
          "internalType": "uint256",
          "name": "",
          "type": "uint256"
        }
      ],
      "name": "fuelStationToOwner",
      "outputs": [
        {
          "internalType": "address",
          "name": "",
          "type": "address"
        }
      ],
      "stateMutability": "view",
      "type": "function",
      "constant": true
    },
    {
      "inputs": [],
      "name": "owner",
      "outputs": [
        {
          "internalType": "address",
          "name": "",
          "type": "address"
        }
      ],
      "stateMutability": "view",
      "type": "function",
      "constant": true
    },
    {
      "inputs": [
        {
          "internalType": "address",
          "name": "",
          "type": "address"
        }
      ],
      "name": "ownerCarCount",
      "outputs": [
        {
          "internalType": "uint256",
          "name": "",
          "type": "uint256"
        }
      ],
      "stateMutability": "view",
      "type": "function",
      "constant": true
    },
    {
      "inputs": [],
      "name": "renounceOwnership",
      "outputs": [],
      "stateMutability": "nonpayable",
      "type": "function"
    },
    {
      "inputs": [
        {
          "internalType": "uint256",
          "name": "",
          "type": "uint256"
        }
      ],
      "name": "stations",
      "outputs": [
        {
          "internalType": "uint256",
          "name": "id",
          "type": "uint256"
        },
        {
          "internalType": "uint8",
          "name": "capacity",
          "type": "uint8"
        },
        {
          "internalType": "uint8",
          "name": "productionPerHour",
          "type": "uint8"
        },
        {
          "internalType": "uint8",
          "name": "currentFullness",
          "type": "uint8"
        },
        {
          "internalType": "uint256",
          "name": "lastUpdate",
          "type": "uint256"
        }
      ],
      "stateMutability": "view",
      "type": "function",
      "constant": true
    },
    {
      "inputs": [
        {
          "internalType": "address",
          "name": "newOwner",
          "type": "address"
        }
      ],
      "name": "transferOwnership",
      "outputs": [],
      "stateMutability": "nonpayable",
      "type": "function"
    },
    {
      "inputs": [
        {
          "internalType": "address",
          "name": "_owner",
          "type": "address"
        }
      ],
      "name": "getFuelStationByOwner",
      "outputs": [
        {
          "components": [
            {
              "internalType": "uint256",
              "name": "id",
              "type": "uint256"
            },
            {
              "internalType": "uint8",
              "name": "capacity",
              "type": "uint8"
            },
            {
              "internalType": "uint8",
              "name": "productionPerHour",
              "type": "uint8"
            },
            {
              "internalType": "uint8",
              "name": "currentFullness",
              "type": "uint8"
            },
            {
              "internalType": "uint256",
              "name": "lastUpdate",
              "type": "uint256"
            }
          ],
          "internalType": "struct FuelStationFactory.FuelStation",
          "name": "",
          "type": "tuple"
        }
      ],
      "stateMutability": "view",
      "type": "function",
      "constant": true
    },
    {
      "inputs": [
        {
          "internalType": "address",
          "name": "_owner",
          "type": "address"
        }
      ],
      "name": "getEnginesByOwner",
      "outputs": [
        {
          "internalType": "uint256[]",
          "name": "",
          "type": "uint256[]"
        }
      ],
      "stateMutability": "view",
      "type": "function",
      "constant": true
    },
    {
      "inputs": [
        {
          "internalType": "address",
          "name": "_owner",
          "type": "address"
        }
      ],
      "name": "getChassisByOwner",
      "outputs": [
        {
          "internalType": "uint256[]",
          "name": "",
          "type": "uint256[]"
        }
      ],
      "stateMutability": "view",
      "type": "function",
      "constant": true
    },
    {
      "inputs": [
        {
          "internalType": "address",
          "name": "_owner",
          "type": "address"
        }
      ],
      "name": "getCarsByOwner",
      "outputs": [
        {
          "components": [
            {
              "internalType": "string",
              "name": "model",
              "type": "string"
            },
            {
              "internalType": "uint256",
              "name": "vin",
              "type": "uint256"
            },
            {
              "internalType": "uint256",
              "name": "engineId",
              "type": "uint256"
            },
            {
              "internalType": "uint256",
              "name": "chassisId",
              "type": "uint256"
            },
            {
              "internalType": "uint8",
              "name": "carLevel",
              "type": "uint8"
            },
            {
              "internalType": "uint256",
              "name": "mileage",
              "type": "uint256"
            },
            {
              "internalType": "uint256",
              "name": "winCountOnCurrentLevel",
              "type": "uint256"
            },
            {
              "internalType": "uint256",
              "name": "lossCountOnCurrentLevel",
              "type": "uint256"
            }
          ],
          "internalType": "struct CarFactory.Car[]",
          "name": "",
          "type": "tuple[]"
        }
      ],
      "stateMutability": "view",
      "type": "function",
      "constant": true
    },
    {
      "inputs": [
        {
          "internalType": "uint256",
          "name": "_fuelStatonId",
          "type": "uint256"
        },
        {
          "internalType": "uint8",
          "name": "_counts",
          "type": "uint8"
        }
      ],
      "name": "upgradeCapacity",
      "outputs": [],
      "stateMutability": "payable",
      "type": "function",
      "payable": true
    },
    {
      "inputs": [
        {
          "internalType": "uint256",
          "name": "_fuelStatonId",
          "type": "uint256"
        },
        {
          "internalType": "uint8",
          "name": "_counts",
          "type": "uint8"
        }
      ],
      "name": "upgradeProductionPerHour",
      "outputs": [],
      "stateMutability": "payable",
      "type": "function",
      "payable": true
    },
    {
      "inputs": [
        {
          "internalType": "uint256",
          "name": "_engineId",
          "type": "uint256"
        },
        {
          "internalType": "uint8",
          "name": "_counts",
          "type": "uint8"
        }
      ],
      "name": "upgradeHorsePowers",
      "outputs": [],
      "stateMutability": "payable",
      "type": "function",
      "payable": true
    },
    {
      "inputs": [
        {
          "internalType": "uint256",
          "name": "_engineId",
          "type": "uint256"
        },
        {
          "internalType": "uint8",
          "name": "_counts",
          "type": "uint8"
        }
      ],
      "name": "upgradeConsumtion",
      "outputs": [],
      "stateMutability": "payable",
      "type": "function",
      "payable": true
    },
    {
      "inputs": [
        {
          "internalType": "uint256",
          "name": "_chassisId",
          "type": "uint256"
        },
        {
          "internalType": "uint8",
          "name": "_counts",
          "type": "uint8"
        }
      ],
      "name": "upgradeDurability",
      "outputs": [],
      "stateMutability": "payable",
      "type": "function",
      "payable": true
    },
    {
      "inputs": [
        {
          "internalType": "uint256",
          "name": "_carId",
          "type": "uint256"
        }
      ],
      "name": "levelUp",
      "outputs": [],
      "stateMutability": "payable",
      "type": "function",
      "payable": true
    }
  ],
  "bytecode": "0x6080604052603c600060146101000a81548160ff021916908360ff1602179055506005600060156101000a81548160ff021916908360ff160217905550600160085560016009556509184e72a00060135565b5e620f48000601455650da475abf0006015556611c37937e080006016556305f5e10060175566038d7ea4c680006018553480156200008f57600080fd5b50620000b0620000a46200013260201b60201c565b6200013a60201b60201c565b6050600381905550605b600481905550600a600560006101000a81548160ff021916908360ff160217905550620186a06006819055506201d4c1600781905550600b60018160018154018082558091505003906000526020600020905050600c60018160018154018082558091505003906000526020600020905050620001fe565b600033905090565b60008060009054906101000a900473ffffffffffffffffffffffffffffffffffffffff169050816000806101000a81548173ffffffffffffffffffffffffffffffffffffffff021916908373ffffffffffffffffffffffffffffffffffffffff1602179055508173ffffffffffffffffffffffffffffffffffffffff168173ffffffffffffffffffffffffffffffffffffffff167f8be0079c531659141344cd1fd0a4f28419497f9722a3daafe3b4186f6b6457e060405160405180910390a35050565b6132ee806200020e6000396000f3fe60806040526004361061014b5760003560e01c80637c62360f116100b6578063b72c0eea1161006f578063b72c0eea1461049d578063c75bb4f4146104dc578063ede6fbf514610519578063f2fde38b14610542578063f7746e361461056b578063faf4bb98146105af5761014b565b80637c62360f146103a057806385909267146103bc5780638da5cb5b146103d8578063906f5f341461040357806392f859db1461041f578063b3b29afd146104605761014b565b80634e31f910116101085780634e31f91014610258578063594193d7146102955780635dcc4cc6146102d25780636f206fc11461030f578063715018a61461034c5780637713d521146103635761014b565b806303f2e05b146101505780630ce90ec21461016c5780631c5dde0e14610188578063224370f0146101c757806333ca504b146101de578063449014901461021b575b600080fd5b61016a6004803603810190610165919061234b565b6105cb565b005b6101866004803603810190610181919061238b565b610703565b005b34801561019457600080fd5b506101af60048036038101906101aa919061238b565b610882565b6040516101be939291906123e6565b60405180910390f35b3480156101d357600080fd5b506101dc6108dc565b005b3480156101ea57600080fd5b506102056004803603810190610200919061238b565b610a48565b604051610212919061245e565b60405180910390f35b34801561022757600080fd5b50610242600480360381019061023d919061238b565b610a7b565b60405161024f919061245e565b60405180910390f35b34801561026457600080fd5b5061027f600480360381019061027a91906124a5565b610aae565b60405161028c9190612558565b60405180910390f35b3480156102a157600080fd5b506102bc60048036038101906102b7919061238b565b610bed565b6040516102c9919061245e565b60405180910390f35b3480156102de57600080fd5b506102f960048036038101906102f4919061238b565b610c20565b604051610306919061245e565b60405180910390f35b34801561031b57600080fd5b50610336600480360381019061033191906124a5565b610c53565b6040516103439190612622565b60405180910390f35b34801561035857600080fd5b50610361610da5565b005b34801561036f57600080fd5b5061038a600480360381019061038591906124a5565b610db9565b6040516103979190612622565b60405180910390f35b6103ba60048036038101906103b5919061234b565b610f0b565b005b6103d660048036038101906103d1919061234b565b611038565b005b3480156103e457600080fd5b506103ed61115b565b6040516103fa919061245e565b60405180910390f35b61041d6004803603810190610418919061234b565b611184565b005b34801561042b57600080fd5b506104466004803603810190610441919061238b565b6112a7565b604051610457959493929190612653565b60405180910390f35b34801561046c57600080fd5b50610487600480360381019061048291906124a5565b611314565b60405161049491906126a6565b60405180910390f35b3480156104a957600080fd5b506104c460048036038101906104bf919061238b565b61132c565b6040516104d3939291906126de565b60405180910390f35b3480156104e857600080fd5b5061050360048036038101906104fe91906124a5565b611381565b6040516105109190612920565b60405180910390f35b34801561052557600080fd5b50610540600480360381019061053b9190612a77565b6115f5565b005b34801561054e57600080fd5b50610569600480360381019061056491906124a5565b611856565b005b34801561057757600080fd5b50610592600480360381019061058d919061238b565b6118d9565b6040516105a6989796959493929190612b0a565b60405180910390f35b6105c960048036038101906105c4919061234b565b6119c6565b005b81600f600082815260200190815260200160002060009054906101000a900473ffffffffffffffffffffffffffffffffffffffff1673ffffffffffffffffffffffffffffffffffffffff163373ffffffffffffffffffffffffffffffffffffffff161461063757600080fd5b601754600c848154811061064e5761064d612b8f565b5b906000526020600020906002020160010160009054906101000a900463ffffffff168360ff1661067e9190612bed565b63ffffffff1661068e9190612c2b565b341461069957600080fd5b8160ff16600c84815481106106b1576106b0612b8f565b5b906000526020600020906002020160010160008282829054906101000a900463ffffffff166106e09190612c85565b92506101000a81548163ffffffff021916908363ffffffff160217905550505050565b600a80828154811061071857610717612b8f565b5b906000526020600020906008020160040160009054906101000a900460ff166107419190612cee565b60ff166018546107519190612c2b565b341480156107c557506001600a82815481106107705761076f612b8f565b5b906000526020600020906008020160040160009054906101000a900460ff166107999190612d1f565b60ff16600a82815481106107b0576107af612b8f565b5b90600052602060002090600802016006015410155b6107ce57600080fd5b600a81815481106107e2576107e1612b8f565b5b9060005260206000209060080201600401600081819054906101000a900460ff168092919061081090612d56565b91906101000a81548160ff021916908360ff160217905550506000600a828154811061083f5761083e612b8f565b5b9060005260206000209060080201600601819055506000600a828154811061086a57610869612b8f565b5b90600052602060002090600802016007018190555050565b600c818154811061089257600080fd5b90600052602060002090600202016000915090508060000154908060010160009054906101000a900463ffffffff16908060010160049054906101000a900463ffffffff16905083565b60003390506000600180549050905060016040518060a00160405280838152602001600060149054906101000a900460ff1660ff168152602001600060159054906101000a900460ff1660ff168152602001600060149054906101000a900460ff1660ff1681526020014263ffffffff1681525090806001815401808255809150506001900390600052602060002090600302016000909190919091506000820151816000015560208201518160010160006101000a81548160ff021916908360ff16021790555060408201518160010160016101000a81548160ff021916908360ff16021790555060608201518160010160026101000a81548160ff021916908360ff160217905550608082015181600201555050816002600083815260200190815260200160002060006101000a81548173ffffffffffffffffffffffffffffffffffffffff021916908373ffffffffffffffffffffffffffffffffffffffff1602179055505050565b600d6020528060005260406000206000915054906101000a900473ffffffffffffffffffffffffffffffffffffffff1681565b600f6020528060005260406000206000915054906101000a900473ffffffffffffffffffffffffffffffffffffffff1681565b610ab66121a5565b600080600090505b600180549050811015610b4c578373ffffffffffffffffffffffffffffffffffffffff166002600083815260200190815260200160002060009054906101000a900473ffffffffffffffffffffffffffffffffffffffff1673ffffffffffffffffffffffffffffffffffffffff1603610b3957809150610b4c565b8080610b4490612d7f565b915050610abe565b5060018181548110610b6157610b60612b8f565b5b90600052602060002090600302016040518060a0016040529081600082015481526020016001820160009054906101000a900460ff1660ff1660ff1681526020016001820160019054906101000a900460ff1660ff1660ff1681526020016001820160029054906101000a900460ff1660ff1660ff168152602001600282015481525050915050919050565b60026020528060005260406000206000915054906101000a900473ffffffffffffffffffffffffffffffffffffffff1681565b600e6020528060005260406000206000915054906101000a900473ffffffffffffffffffffffffffffffffffffffff1681565b60606000601160008473ffffffffffffffffffffffffffffffffffffffff1673ffffffffffffffffffffffffffffffffffffffff1681526020019081526020016000205467ffffffffffffffff811115610cb057610caf61294c565b5b604051908082528060200260200182016040528015610cde5781602001602082028036833780820191505090505b5090506000805b600c80549050811015610d9a578473ffffffffffffffffffffffffffffffffffffffff16600f600083815260200190815260200160002060009054906101000a900473ffffffffffffffffffffffffffffffffffffffff1673ffffffffffffffffffffffffffffffffffffffff1603610d875780838381518110610d6c57610d6b612b8f565b5b6020026020010181815250508180610d8390612d7f565b9250505b8080610d9290612d7f565b915050610ce5565b508192505050919050565b610dad611af4565b610db76000611b72565b565b60606000601160008473ffffffffffffffffffffffffffffffffffffffff1673ffffffffffffffffffffffffffffffffffffffff1681526020019081526020016000205467ffffffffffffffff811115610e1657610e1561294c565b5b604051908082528060200260200182016040528015610e445781602001602082028036833780820191505090505b5090506000805b600b80549050811015610f00578473ffffffffffffffffffffffffffffffffffffffff16600e600083815260200190815260200160002060009054906101000a900473ffffffffffffffffffffffffffffffffffffffff1673ffffffffffffffffffffffffffffffffffffffff1603610eed5780838381518110610ed257610ed1612b8f565b5b6020026020010181815250508180610ee990612d7f565b9250505b8080610ef890612d7f565b915050610e4b565b508192505050919050565b81600e600082815260200190815260200160002060009054906101000a900473ffffffffffffffffffffffffffffffffffffffff1673ffffffffffffffffffffffffffffffffffffffff163373ffffffffffffffffffffffffffffffffffffffff1614610f7757600080fd5b600b8381548110610f8b57610f8a612b8f565b5b906000526020600020906002020160010160029054906101000a900460ff16600a610fb69190612dc7565b6002610fc29190612f2e565b601654610fcf9190612c2b565b3414610fda57600080fd5b81600b8481548110610fef57610fee612b8f565b5b906000526020600020906002020160010160028282829054906101000a900460ff1661101b9190612dc7565b92506101000a81548160ff021916908360ff160217905550505050565b816002600082815260200190815260200160002060009054906101000a900473ffffffffffffffffffffffffffffffffffffffff1673ffffffffffffffffffffffffffffffffffffffff163373ffffffffffffffffffffffffffffffffffffffff16146110a457600080fd5b601454600184815481106110bb576110ba612b8f565b5b906000526020600020906003020160010160019054906101000a900460ff16836110e59190612f79565b60ff166110f29190612c2b565b34146110fd57600080fd5b816001848154811061111257611111612b8f565b5b906000526020600020906003020160010160018282829054906101000a900460ff1661113e9190612d1f565b92506101000a81548160ff021916908360ff160217905550505050565b60008060009054906101000a900473ffffffffffffffffffffffffffffffffffffffff16905090565b816002600082815260200190815260200160002060009054906101000a900473ffffffffffffffffffffffffffffffffffffffff1673ffffffffffffffffffffffffffffffffffffffff163373ffffffffffffffffffffffffffffffffffffffff16146111f057600080fd5b6013546001848154811061120757611206612b8f565b5b906000526020600020906003020160010160009054906101000a900460ff16836112319190612f79565b60ff1661123e9190612c2b565b341461124957600080fd5b816001848154811061125e5761125d612b8f565b5b906000526020600020906003020160010160008282829054906101000a900460ff1661128a9190612d1f565b92506101000a81548160ff021916908360ff160217905550505050565b600181815481106112b757600080fd5b90600052602060002090600302016000915090508060000154908060010160009054906101000a900460ff16908060010160019054906101000a900460ff16908060010160029054906101000a900460ff16908060020154905085565b60106020528060005260406000206000915090505481565b600b818154811061133c57600080fd5b90600052602060002090600202016000915090508060000154908060010160009054906101000a900461ffff16908060010160029054906101000a900460ff16905083565b60606000601060008473ffffffffffffffffffffffffffffffffffffffff1673ffffffffffffffffffffffffffffffffffffffff1681526020019081526020016000205467ffffffffffffffff8111156113de576113dd61294c565b5b60405190808252806020026020018201604052801561141757816020015b6114046121dd565b8152602001906001900390816113fc5790505b5090506000805b600c805490508110156115ea578473ffffffffffffffffffffffffffffffffffffffff16600d600083815260200190815260200160002060009054906101000a900473ffffffffffffffffffffffffffffffffffffffff1673ffffffffffffffffffffffffffffffffffffffff16036115d757600a81815481106114a5576114a4612b8f565b5b9060005260206000209060080201604051806101000160405290816000820180546114cf90612fe3565b80601f01602080910402602001604051908101604052809291908181526020018280546114fb90612fe3565b80156115485780601f1061151d57610100808354040283529160200191611548565b820191906000526020600020905b81548152906001019060200180831161152b57829003601f168201915b505050505081526020016001820154815260200160028201548152602001600382015481526020016004820160009054906101000a900460ff1660ff1660ff16815260200160058201548152602001600682015481526020016007820154815250508383815181106115bd576115bc612b8f565b5b602002602001018190525081806115d390612d7f565b9250505b80806115e290612d7f565b91505061141e565b508192505050919050565b6000601060003373ffffffffffffffffffffffffffffffffffffffff1673ffffffffffffffffffffffffffffffffffffffff168152602001908152602001600020541461164157600080fd5b60008161164d42611c36565b60405160200161165e929190613050565b60405160208183030381529060405290506000816040516020016116829190613074565b6040516020818303038152906040528051906020012060001c905060006116a7611d04565b905060006116b3611ea7565b90506000600a805490509050600a604051806101000160405280888152602001868152602001858152602001848152602001600160ff1681526020016000815260200160008152602001600081525090806001815401808255809150506001900390600052602060002090600802016000909190919091506000820151816000019080519060200190611747929190612225565b5060208201518160010155604082015181600201556060820151816003015560808201518160040160006101000a81548160ff021916908360ff16021790555060a0820151816005015560c0820151816006015560e08201518160070155505033600d600083815260200190815260200160002060006101000a81548173ffffffffffffffffffffffffffffffffffffffff021916908373ffffffffffffffffffffffffffffffffffffffff160217905550601060003373ffffffffffffffffffffffffffffffffffffffff1673ffffffffffffffffffffffffffffffffffffffff168152602001908152602001600020600081548092919061184990612d7f565b9190505550505050505050565b61185e611af4565b600073ffffffffffffffffffffffffffffffffffffffff168173ffffffffffffffffffffffffffffffffffffffff16036118cd576040517f08c379a00000000000000000000000000000000000000000000000000000000081526004016118c4906130fd565b60405180910390fd5b6118d681611b72565b50565b600a81815481106118e957600080fd5b906000526020600020906008020160009150905080600001805461190c90612fe3565b80601f016020809104026020016040519081016040528092919081815260200182805461193890612fe3565b80156119855780601f1061195a57610100808354040283529160200191611985565b820191906000526020600020905b81548152906001019060200180831161196857829003601f168201915b5050505050908060010154908060020154908060030154908060040160009054906101000a900460ff16908060050154908060060154908060070154905088565b81600e600082815260200190815260200160002060009054906101000a900473ffffffffffffffffffffffffffffffffffffffff1673ffffffffffffffffffffffffffffffffffffffff163373ffffffffffffffffffffffffffffffffffffffff1614611a3257600080fd5b601554600b8481548110611a4957611a48612b8f565b5b906000526020600020906002020160010160009054906101000a900461ffff168360ff16611a77919061311d565b61ffff16611a859190612c2b565b3414611a9057600080fd5b8160ff16600b8481548110611aa857611aa7612b8f565b5b906000526020600020906002020160010160008282829054906101000a900461ffff16611ad59190613159565b92506101000a81548161ffff021916908361ffff160217905550505050565b611afc61204a565b73ffffffffffffffffffffffffffffffffffffffff16611b1a61115b565b73ffffffffffffffffffffffffffffffffffffffff1614611b70576040517f08c379a0000000000000000000000000000000000000000000000000000000008152600401611b67906131dd565b60405180910390fd5b565b60008060009054906101000a900473ffffffffffffffffffffffffffffffffffffffff169050816000806101000a81548173ffffffffffffffffffffffffffffffffffffffff021916908373ffffffffffffffffffffffffffffffffffffffff1602179055508173ffffffffffffffffffffffffffffffffffffffff168173ffffffffffffffffffffffffffffffffffffffff167f8be0079c531659141344cd1fd0a4f28419497f9722a3daafe3b4186f6b6457e060405160405180910390a35050565b606060006001611c4584612052565b01905060008167ffffffffffffffff811115611c6457611c6361294c565b5b6040519080825280601f01601f191660200182016040528015611c965781602001600182028036833780820191505090505b509050600082602001820190505b600115611cf9578080600190039150507f3031323334353637383961626364656600000000000000000000000000000000600a86061a8153600a8581611ced57611cec612cbf565b5b04945060008503611ca4575b819350505050919050565b600080600354600454611d1791906131fd565b42611d229190613231565b600354611d2f9190613262565b9050600060086000815480929190611d4690612d7f565b919050559050600b60405180606001604052808381526020018461ffff168152602001600560009054906101000a900460ff1660ff1681525090806001815401808255809150506001900390600052602060002090600202016000909190919091506000820151816000015560208201518160010160006101000a81548161ffff021916908361ffff16021790555060408201518160010160026101000a81548160ff021916908360ff1602179055505050601160003373ffffffffffffffffffffffffffffffffffffffff1673ffffffffffffffffffffffffffffffffffffffff1681526020019081526020016000206000815480929190611e4890612d7f565b919050555033600e600083815260200190815260200160002060006101000a81548173ffffffffffffffffffffffffffffffffffffffff021916908373ffffffffffffffffffffffffffffffffffffffff160217905550809250505090565b600080600654600754611eba91906131fd565b42611ec59190613231565b600654611ed29190613262565b9050600060096000815480929190611ee990612d7f565b919050559050600c60405180606001604052808381526020018463ffffffff1681526020018463ffffffff1681525090806001815401808255809150506001900390600052602060002090600202016000909190919091506000820151816000015560208201518160010160006101000a81548163ffffffff021916908363ffffffff16021790555060408201518160010160046101000a81548163ffffffff021916908363ffffffff1602179055505050601260003373ffffffffffffffffffffffffffffffffffffffff1673ffffffffffffffffffffffffffffffffffffffff1681526020019081526020016000206000815480929190611feb90612d7f565b919050555033600f600083815260200190815260200160002060006101000a81548173ffffffffffffffffffffffffffffffffffffffff021916908373ffffffffffffffffffffffffffffffffffffffff160217905550809250505090565b600033905090565b600080600090507a184f03e93ff9f4daa797ed6e38ed64bf6a1f01000000000000000083106120b0577a184f03e93ff9f4daa797ed6e38ed64bf6a1f01000000000000000083816120a6576120a5612cbf565b5b0492506040810190505b6d04ee2d6d415b85acef810000000083106120ed576d04ee2d6d415b85acef810000000083816120e3576120e2612cbf565b5b0492506020810190505b662386f26fc10000831061211c57662386f26fc10000838161211257612111612cbf565b5b0492506010810190505b6305f5e1008310612145576305f5e100838161213b5761213a612cbf565b5b0492506008810190505b612710831061216a5761271083816121605761215f612cbf565b5b0492506004810190505b6064831061218d576064838161218357612182612cbf565b5b0492506002810190505b600a831061219c576001810190505b80915050919050565b6040518060a0016040528060008152602001600060ff168152602001600060ff168152602001600060ff168152602001600081525090565b60405180610100016040528060608152602001600081526020016000815260200160008152602001600060ff1681526020016000815260200160008152602001600081525090565b82805461223190612fe3565b90600052602060002090601f016020900481019282612253576000855561229a565b82601f1061226c57805160ff191683800117855561229a565b8280016001018555821561229a579182015b8281111561229957825182559160200191906001019061227e565b5b5090506122a791906122ab565b5090565b5b808211156122c45760008160009055506001016122ac565b5090565b6000604051905090565b600080fd5b600080fd5b6000819050919050565b6122ef816122dc565b81146122fa57600080fd5b50565b60008135905061230c816122e6565b92915050565b600060ff82169050919050565b61232881612312565b811461233357600080fd5b50565b6000813590506123458161231f565b92915050565b60008060408385031215612362576123616122d2565b5b6000612370858286016122fd565b925050602061238185828601612336565b9150509250929050565b6000602082840312156123a1576123a06122d2565b5b60006123af848285016122fd565b91505092915050565b6123c1816122dc565b82525050565b600063ffffffff82169050919050565b6123e0816123c7565b82525050565b60006060820190506123fb60008301866123b8565b61240860208301856123d7565b61241560408301846123d7565b949350505050565b600073ffffffffffffffffffffffffffffffffffffffff82169050919050565b60006124488261241d565b9050919050565b6124588161243d565b82525050565b6000602082019050612473600083018461244f565b92915050565b6124828161243d565b811461248d57600080fd5b50565b60008135905061249f81612479565b92915050565b6000602082840312156124bb576124ba6122d2565b5b60006124c984828501612490565b91505092915050565b6124db816122dc565b82525050565b6124ea81612312565b82525050565b60a08201600082015161250660008501826124d2565b50602082015161251960208501826124e1565b50604082015161252c60408501826124e1565b50606082015161253f60608501826124e1565b50608082015161255260808501826124d2565b50505050565b600060a08201905061256d60008301846124f0565b92915050565b600081519050919050565b600082825260208201905092915050565b6000819050602082019050919050565b60006125ab83836124d2565b60208301905092915050565b6000602082019050919050565b60006125cf82612573565b6125d9818561257e565b93506125e48361258f565b8060005b838110156126155781516125fc888261259f565b9750612607836125b7565b9250506001810190506125e8565b5085935050505092915050565b6000602082019050818103600083015261263c81846125c4565b905092915050565b61264d81612312565b82525050565b600060a08201905061266860008301886123b8565b6126756020830187612644565b6126826040830186612644565b61268f6060830185612644565b61269c60808301846123b8565b9695505050505050565b60006020820190506126bb60008301846123b8565b92915050565b600061ffff82169050919050565b6126d8816126c1565b82525050565b60006060820190506126f360008301866123b8565b61270060208301856126cf565b61270d6040830184612644565b949350505050565b600081519050919050565b600082825260208201905092915050565b6000819050602082019050919050565b600081519050919050565b600082825260208201905092915050565b60005b8381101561277b578082015181840152602081019050612760565b8381111561278a576000848401525b50505050565b6000601f19601f8301169050919050565b60006127ac82612741565b6127b6818561274c565b93506127c681856020860161275d565b6127cf81612790565b840191505092915050565b60006101008301600083015184820360008601526127f882826127a1565b915050602083015161280d60208601826124d2565b50604083015161282060408601826124d2565b50606083015161283360608601826124d2565b50608083015161284660808601826124e1565b5060a083015161285960a08601826124d2565b5060c083015161286c60c08601826124d2565b5060e083015161287f60e08601826124d2565b508091505092915050565b600061289683836127da565b905092915050565b6000602082019050919050565b60006128b682612715565b6128c08185612720565b9350836020820285016128d285612731565b8060005b8581101561290e57848403895281516128ef858261288a565b94506128fa8361289e565b925060208a019950506001810190506128d6565b50829750879550505050505092915050565b6000602082019050818103600083015261293a81846128ab565b905092915050565b600080fd5b600080fd5b7f4e487b7100000000000000000000000000000000000000000000000000000000600052604160045260246000fd5b61298482612790565b810181811067ffffffffffffffff821117156129a3576129a261294c565b5b80604052505050565b60006129b66122c8565b90506129c2828261297b565b919050565b600067ffffffffffffffff8211156129e2576129e161294c565b5b6129eb82612790565b9050602081019050919050565b82818337600083830152505050565b6000612a1a612a15846129c7565b6129ac565b905082815260208101848484011115612a3657612a35612947565b5b612a418482856129f8565b509392505050565b600082601f830112612a5e57612a5d612942565b5b8135612a6e848260208601612a07565b91505092915050565b600060208284031215612a8d57612a8c6122d2565b5b600082013567ffffffffffffffff811115612aab57612aaa6122d7565b5b612ab784828501612a49565b91505092915050565b600082825260208201905092915050565b6000612adc82612741565b612ae68185612ac0565b9350612af681856020860161275d565b612aff81612790565b840191505092915050565b6000610100820190508181036000830152612b25818b612ad1565b9050612b34602083018a6123b8565b612b4160408301896123b8565b612b4e60608301886123b8565b612b5b6080830187612644565b612b6860a08301866123b8565b612b7560c08301856123b8565b612b8260e08301846123b8565b9998505050505050505050565b7f4e487b7100000000000000000000000000000000000000000000000000000000600052603260045260246000fd5b7f4e487b7100000000000000000000000000000000000000000000000000000000600052601160045260246000fd5b6000612bf8826123c7565b9150612c03836123c7565b92508163ffffffff0483118215151615612c2057612c1f612bbe565b5b828202905092915050565b6000612c36826122dc565b9150612c41836122dc565b9250817fffffffffffffffffffffffffffffffffffffffffffffffffffffffffffffffff0483118215151615612c7a57612c79612bbe565b5b828202905092915050565b6000612c90826123c7565b9150612c9b836123c7565b92508263ffffffff03821115612cb457612cb3612bbe565b5b828201905092915050565b7f4e487b7100000000000000000000000000000000000000000000000000000000600052601260045260246000fd5b6000612cf982612312565b9150612d0483612312565b925082612d1457612d13612cbf565b5b828204905092915050565b6000612d2a82612312565b9150612d3583612312565b92508260ff03821115612d4b57612d4a612bbe565b5b828201905092915050565b6000612d6182612312565b915060ff8203612d7457612d73612bbe565b5b600182019050919050565b6000612d8a826122dc565b91507fffffffffffffffffffffffffffffffffffffffffffffffffffffffffffffffff8203612dbc57612dbb612bbe565b5b600182019050919050565b6000612dd282612312565b9150612ddd83612312565b925082821015612df057612def612bbe565b5b828203905092915050565b60008160011c9050919050565b6000808291508390505b6001851115612e5257808604811115612e2e57612e2d612bbe565b5b6001851615612e3d5780820291505b8081029050612e4b85612dfb565b9450612e12565b94509492505050565b600082612e6b5760019050612f27565b81612e795760009050612f27565b8160018114612e8f5760028114612e9957612ec8565b6001915050612f27565b60ff841115612eab57612eaa612bbe565b5b8360020a915084821115612ec257612ec1612bbe565b5b50612f27565b5060208310610133831016604e8410600b8410161715612efd5782820a905083811115612ef857612ef7612bbe565b5b612f27565b612f0a8484846001612e08565b92509050818404811115612f2157612f20612bbe565b5b81810290505b9392505050565b6000612f39826122dc565b9150612f4483612312565b9250612f717fffffffffffffffffffffffffffffffffffffffffffffffffffffffffffffffff8484612e5b565b905092915050565b6000612f8482612312565b9150612f8f83612312565b92508160ff0483118215151615612fa957612fa8612bbe565b5b828202905092915050565b7f4e487b7100000000000000000000000000000000000000000000000000000000600052602260045260246000fd5b60006002820490506001821680612ffb57607f821691505b60208210810361300e5761300d612fb4565b5b50919050565b600081905092915050565b600061302a82612741565b6130348185613014565b935061304481856020860161275d565b80840191505092915050565b600061305c828561301f565b9150613068828461301f565b91508190509392505050565b6000613080828461301f565b915081905092915050565b7f4f776e61626c653a206e6577206f776e657220697320746865207a65726f206160008201527f6464726573730000000000000000000000000000000000000000000000000000602082015250565b60006130e7602683612ac0565b91506130f28261308b565b604082019050919050565b60006020820190508181036000830152613116816130da565b9050919050565b6000613128826126c1565b9150613133836126c1565b92508161ffff048311821515161561314e5761314d612bbe565b5b828202905092915050565b6000613164826126c1565b915061316f836126c1565b92508261ffff0382111561318657613185612bbe565b5b828201905092915050565b7f4f776e61626c653a2063616c6c6572206973206e6f7420746865206f776e6572600082015250565b60006131c7602083612ac0565b91506131d282613191565b602082019050919050565b600060208201905081810360008301526131f6816131ba565b9050919050565b6000613208826122dc565b9150613213836122dc565b92508282101561322657613225612bbe565b5b828203905092915050565b600061323c826122dc565b9150613247836122dc565b92508261325757613256612cbf565b5b828206905092915050565b600061326d826122dc565b9150613278836122dc565b9250827fffffffffffffffffffffffffffffffffffffffffffffffffffffffffffffffff038211156132ad576132ac612bbe565b5b82820190509291505056fea2646970667358221220807fee5adfa73441a9d496d72c066d4310e3fe6d408b07c0d5e60f9b2ced62b964736f6c634300080d0033",
  "immutableReferences": {},
  "source": "// SPDX-License-Identifier: MIT\npragma solidity ^0.8.13;\n\nimport \"./CarFactory.sol\";\n\ncontract CarHelper is CarFactory {\n\n    uint capacityCoef = 0.00001 ether;\n    uint productionPerHourCoef = 0.0002 ether;\n    uint horsePowersCoef = 0.000015 ether;\n    uint consumtionCoef = 0.005 ether;\n    uint durabilityCoef = 0.0000000001 ether;\n    uint levelUpCost = 0.001 ether;\n\n    modifier onlyOwnerOfCar(uint _carId) {\n        require(msg.sender == carToOwner[_carId]);\n        _;\n    }\n\n    modifier onlyOwnerOfEngine(uint _engineId) {\n        require(msg.sender == engineToOwner[_engineId]);\n        _;\n    }\n\n    modifier onlyOwnerOfChassis(uint _chassisId) {\n        require(msg.sender == chassisToOwner[_chassisId]);\n        _;\n    }\n\n    modifier onlyOwnerOfFuelStation(uint _fuelStationId) {\n        require(msg.sender == fuelStationToOwner[_fuelStationId]);\n        _;\n    }\n\n\n    function getFuelStationByOwner(address _owner) public view returns(FuelStation memory){\n        uint resId;\n        for (uint i = 0; i < stations.length; i++) {\n            if (fuelStationToOwner[i] == _owner) {\n               resId = i;\n               break;\n            }\n        }\n        return stations[resId];\n    }\n\n    function getEnginesByOwner(address _owner) public view returns(uint[] memory) {\n        uint[] memory result = new uint[](ownerEngineCount[_owner]);\n        uint counter = 0;\n        for (uint i = 0; i < engines.length; i++) {\n            if (engineToOwner[i] == _owner) {\n                result[counter] = i;\n                counter++;\n            }\n        }\n        return result;\n    }\n\n    function getChassisByOwner(address _owner) public view returns(uint[] memory) {\n        uint[] memory result = new uint[](ownerEngineCount[_owner]);\n        uint counter = 0;\n        for (uint i = 0; i < chassis.length; i++) {\n            if (chassisToOwner[i] == _owner) {\n                result[counter] = i;\n                counter++;\n            }\n        }\n        return result;\n    }\n\n    function getCarsByOwner(address _owner) public view returns(Car[] memory) {\n        Car[] memory result = new Car[](ownerCarCount[_owner]);\n        uint counter = 0;\n        for (uint i = 0; i < chassis.length; i++) {\n            if (carToOwner[i] == _owner) {\n                result[counter] = cars[i];\n                counter++;\n            }\n        }\n        return result;\n    }\n\n    function upgradeCapacity(uint _fuelStatonId, uint8 _counts) external payable onlyOwnerOfFuelStation(_fuelStatonId) {\n        require(msg.value == (_counts * stations[_fuelStatonId].capacity * capacityCoef));\n        stations[_fuelStatonId].capacity += _counts; \n    }\n\n    function upgradeProductionPerHour(uint _fuelStatonId, uint8 _counts) external payable onlyOwnerOfFuelStation(_fuelStatonId) {\n        require(msg.value == (_counts * stations[_fuelStatonId].productionPerHour * productionPerHourCoef));\n        stations[_fuelStatonId].productionPerHour += _counts; \n    }\n\n    function upgradeHorsePowers(uint _engineId, uint8 _counts) external payable onlyOwnerOfEngine(_engineId) {\n        require(msg.value == (_counts * engines[_engineId].horsePowers * horsePowersCoef));\n        engines[_engineId].horsePowers += _counts; \n    }\n\n    function upgradeConsumtion(uint _engineId, uint8 _counts) external payable onlyOwnerOfEngine(_engineId) {\n        require(msg.value == consumtionCoef * 2**(10 - engines[_engineId].consumtion));\n        engines[_engineId].consumtion -= _counts; \n    }\n\n    function upgradeDurability(uint _chassisId, uint8 _counts) external payable onlyOwnerOfChassis(_chassisId) {\n        require(msg.value == (_counts * chassis[_chassisId].durability * durabilityCoef));\n        chassis[_chassisId].durability += _counts; \n    }\n\n    function levelUp(uint _carId) external payable {\n        require(msg.value == levelUpCost * (cars[_carId].carLevel/10) && cars[_carId].winCountOnCurrentLevel >= (cars[_carId].carLevel + 1));\n        cars[_carId].carLevel++;\n        cars[_carId].winCountOnCurrentLevel = 0;\n        cars[_carId].lossCountOnCurrentLevel = 0;\n    }\n\n\n}",
  "sourcePath": "/Users/vvan/Programming/JavaScript/DriveSafely/contract/contracts/CarHelper.sol",
  "compiler": {
    "name": "solc",
    "version": "0.8.13+commit.abaa5c0e.Emscripten.clang"
  },
  "schemaVersion": "3.4.11",
  "updatedAt": "2023-01-08T14:23:14.171Z",
  "networkType": "ethereum",
  "devdoc": {
    "kind": "dev",
    "methods": {
      "owner()": {
        "details": "Returns the address of the current owner."
      },
      "renounceOwnership()": {
        "details": "Leaves the contract without owner. It will not be possible to call `onlyOwner` functions anymore. Can only be called by the current owner. NOTE: Renouncing ownership will leave the contract without an owner, thereby removing any functionality that is only available to the owner."
      },
      "transferOwnership(address)": {
        "details": "Transfers ownership of the contract to a new account (`newOwner`). Can only be called by the current owner."
      }
    },
    "version": 1
  },
  "userdoc": {
    "kind": "user",
    "methods": {},
    "version": 1
  }
}