{
  "contractName": "CarHelper",
  "abi": [
    {
      "anonymous": false,
      "inputs": [
        {
          "indexed": true,
          "internalType": "address",
          "name": "previousOwner",
          "type": "address"
        },
        {
          "indexed": true,
          "internalType": "address",
          "name": "newOwner",
          "type": "address"
        }
      ],
      "name": "OwnershipTransferred",
      "type": "event"
    },
    {
      "inputs": [
        {
          "internalType": "uint256",
          "name": "",
          "type": "uint256"
        }
      ],
      "name": "carToOwner",
      "outputs": [
        {
          "internalType": "address",
          "name": "",
          "type": "address"
        }
      ],
      "stateMutability": "view",
      "type": "function",
      "constant": true
    },
    {
      "inputs": [
        {
          "internalType": "uint256",
          "name": "",
          "type": "uint256"
        }
      ],
      "name": "cars",
      "outputs": [
        {
          "internalType": "string",
          "name": "model",
          "type": "string"
        },
        {
          "internalType": "uint256",
          "name": "vin",
          "type": "uint256"
        },
        {
          "internalType": "uint256",
          "name": "engineId",
          "type": "uint256"
        },
        {
          "internalType": "uint256",
          "name": "chassisId",
          "type": "uint256"
        },
        {
          "internalType": "uint8",
          "name": "carLevel",
          "type": "uint8"
        },
        {
          "internalType": "uint256",
          "name": "mileage",
          "type": "uint256"
        },
        {
          "internalType": "uint256",
          "name": "winCountOnCurrentLevel",
          "type": "uint256"
        },
        {
          "internalType": "uint256",
          "name": "lossCountOnCurrentLevel",
          "type": "uint256"
        },
        {
          "internalType": "uint256",
          "name": "id",
          "type": "uint256"
        }
      ],
      "stateMutability": "view",
      "type": "function",
      "constant": true
    },
    {
      "inputs": [
        {
          "internalType": "uint256",
          "name": "",
          "type": "uint256"
        }
      ],
      "name": "chassis",
      "outputs": [
        {
          "internalType": "uint256",
          "name": "id",
          "type": "uint256"
        },
        {
          "internalType": "uint32",
          "name": "durability",
          "type": "uint32"
        },
        {
          "internalType": "uint32",
          "name": "resource",
          "type": "uint32"
        }
      ],
      "stateMutability": "view",
      "type": "function",
      "constant": true
    },
    {
      "inputs": [
        {
          "internalType": "uint256",
          "name": "",
          "type": "uint256"
        }
      ],
      "name": "chassisToOwner",
      "outputs": [
        {
          "internalType": "address",
          "name": "",
          "type": "address"
        }
      ],
      "stateMutability": "view",
      "type": "function",
      "constant": true
    },
    {
      "inputs": [
        {
          "internalType": "string",
          "name": "model",
          "type": "string"
        }
      ],
      "name": "createCar",
      "outputs": [],
      "stateMutability": "nonpayable",
      "type": "function"
    },
    {
      "inputs": [],
      "name": "createFuelStation",
      "outputs": [],
      "stateMutability": "nonpayable",
      "type": "function"
    },
    {
      "inputs": [
        {
          "internalType": "uint256",
          "name": "",
          "type": "uint256"
        }
      ],
      "name": "engineToOwner",
      "outputs": [
        {
          "internalType": "address",
          "name": "",
          "type": "address"
        }
      ],
      "stateMutability": "view",
      "type": "function",
      "constant": true
    },
    {
      "inputs": [
        {
          "internalType": "uint256",
          "name": "",
          "type": "uint256"
        }
      ],
      "name": "engines",
      "outputs": [
        {
          "internalType": "uint256",
          "name": "id",
          "type": "uint256"
        },
        {
          "internalType": "uint16",
          "name": "horsePowers",
          "type": "uint16"
        },
        {
          "internalType": "uint8",
          "name": "consumtion",
          "type": "uint8"
        }
      ],
      "stateMutability": "view",
      "type": "function",
      "constant": true
    },
    {
      "inputs": [
        {
          "internalType": "uint256",
          "name": "",
          "type": "uint256"
        }
      ],
      "name": "fuelStationToOwner",
      "outputs": [
        {
          "internalType": "address",
          "name": "",
          "type": "address"
        }
      ],
      "stateMutability": "view",
      "type": "function",
      "constant": true
    },
    {
      "inputs": [],
      "name": "owner",
      "outputs": [
        {
          "internalType": "address",
          "name": "",
          "type": "address"
        }
      ],
      "stateMutability": "view",
      "type": "function",
      "constant": true
    },
    {
      "inputs": [
        {
          "internalType": "address",
          "name": "",
          "type": "address"
        }
      ],
      "name": "ownerCarCount",
      "outputs": [
        {
          "internalType": "uint256",
          "name": "",
          "type": "uint256"
        }
      ],
      "stateMutability": "view",
      "type": "function",
      "constant": true
    },
    {
      "inputs": [],
      "name": "renounceOwnership",
      "outputs": [],
      "stateMutability": "nonpayable",
      "type": "function"
    },
    {
      "inputs": [
        {
          "internalType": "uint256",
          "name": "",
          "type": "uint256"
        }
      ],
      "name": "stations",
      "outputs": [
        {
          "internalType": "uint256",
          "name": "id",
          "type": "uint256"
        },
        {
          "internalType": "uint8",
          "name": "capacity",
          "type": "uint8"
        },
        {
          "internalType": "uint8",
          "name": "productionPerHour",
          "type": "uint8"
        },
        {
          "internalType": "uint8",
          "name": "currentFullness",
          "type": "uint8"
        },
        {
          "internalType": "uint256",
          "name": "lastUpdate",
          "type": "uint256"
        }
      ],
      "stateMutability": "view",
      "type": "function",
      "constant": true
    },
    {
      "inputs": [
        {
          "internalType": "address",
          "name": "newOwner",
          "type": "address"
        }
      ],
      "name": "transferOwnership",
      "outputs": [],
      "stateMutability": "nonpayable",
      "type": "function"
    },
    {
      "inputs": [
        {
          "internalType": "uint256",
          "name": "carId",
          "type": "uint256"
        },
        {
          "internalType": "uint256",
          "name": "engineId",
          "type": "uint256"
        }
      ],
      "name": "switchEngine",
      "outputs": [],
      "stateMutability": "nonpayable",
      "type": "function"
    },
    {
      "inputs": [
        {
          "internalType": "uint256",
          "name": "carId",
          "type": "uint256"
        },
        {
          "internalType": "uint256",
          "name": "chassisId",
          "type": "uint256"
        }
      ],
      "name": "switchChassis",
      "outputs": [],
      "stateMutability": "nonpayable",
      "type": "function"
    },
    {
      "inputs": [
        {
          "internalType": "uint256",
          "name": "carId",
          "type": "uint256"
        },
        {
          "internalType": "uint256",
          "name": "engineId",
          "type": "uint256"
        }
      ],
      "name": "detachEngine",
      "outputs": [],
      "stateMutability": "nonpayable",
      "type": "function"
    },
    {
      "inputs": [
        {
          "internalType": "uint256",
          "name": "carId",
          "type": "uint256"
        },
        {
          "internalType": "uint256",
          "name": "chassisId",
          "type": "uint256"
        }
      ],
      "name": "detachChassis",
      "outputs": [],
      "stateMutability": "nonpayable",
      "type": "function"
    },
    {
      "inputs": [
        {
          "internalType": "address",
          "name": "_owner",
          "type": "address"
        }
      ],
      "name": "getFuelStationByOwner",
      "outputs": [
        {
          "components": [
            {
              "internalType": "uint256",
              "name": "id",
              "type": "uint256"
            },
            {
              "internalType": "uint8",
              "name": "capacity",
              "type": "uint8"
            },
            {
              "internalType": "uint8",
              "name": "productionPerHour",
              "type": "uint8"
            },
            {
              "internalType": "uint8",
              "name": "currentFullness",
              "type": "uint8"
            },
            {
              "internalType": "uint256",
              "name": "lastUpdate",
              "type": "uint256"
            }
          ],
          "internalType": "struct FuelStationFactory.FuelStation",
          "name": "",
          "type": "tuple"
        }
      ],
      "stateMutability": "view",
      "type": "function",
      "constant": true
    },
    {
      "inputs": [
        {
          "internalType": "address",
          "name": "_owner",
          "type": "address"
        }
      ],
      "name": "getEnginesByOwner",
      "outputs": [
        {
          "components": [
            {
              "internalType": "uint256",
              "name": "id",
              "type": "uint256"
            },
            {
              "internalType": "uint16",
              "name": "horsePowers",
              "type": "uint16"
            },
            {
              "internalType": "uint8",
              "name": "consumtion",
              "type": "uint8"
            }
          ],
          "internalType": "struct CarFactory.Engine[]",
          "name": "",
          "type": "tuple[]"
        }
      ],
      "stateMutability": "view",
      "type": "function",
      "constant": true
    },
    {
      "inputs": [
        {
          "internalType": "address",
          "name": "_owner",
          "type": "address"
        }
      ],
      "name": "getChassisByOwner",
      "outputs": [
        {
          "components": [
            {
              "internalType": "uint256",
              "name": "id",
              "type": "uint256"
            },
            {
              "internalType": "uint32",
              "name": "durability",
              "type": "uint32"
            },
            {
              "internalType": "uint32",
              "name": "resource",
              "type": "uint32"
            }
          ],
          "internalType": "struct CarFactory.Chassis[]",
          "name": "",
          "type": "tuple[]"
        }
      ],
      "stateMutability": "view",
      "type": "function",
      "constant": true
    },
    {
      "inputs": [
        {
          "internalType": "address",
          "name": "_owner",
          "type": "address"
        }
      ],
      "name": "getCarsByOwner",
      "outputs": [
        {
          "components": [
            {
              "internalType": "string",
              "name": "model",
              "type": "string"
            },
            {
              "internalType": "uint256",
              "name": "vin",
              "type": "uint256"
            },
            {
              "internalType": "uint256",
              "name": "engineId",
              "type": "uint256"
            },
            {
              "internalType": "uint256",
              "name": "chassisId",
              "type": "uint256"
            },
            {
              "internalType": "uint8",
              "name": "carLevel",
              "type": "uint8"
            },
            {
              "internalType": "uint256",
              "name": "mileage",
              "type": "uint256"
            },
            {
              "internalType": "uint256",
              "name": "winCountOnCurrentLevel",
              "type": "uint256"
            },
            {
              "internalType": "uint256",
              "name": "lossCountOnCurrentLevel",
              "type": "uint256"
            },
            {
              "internalType": "uint256",
              "name": "id",
              "type": "uint256"
            }
          ],
          "internalType": "struct CarFactory.Car[]",
          "name": "",
          "type": "tuple[]"
        }
      ],
      "stateMutability": "view",
      "type": "function",
      "constant": true
    },
    {
      "inputs": [
        {
          "internalType": "uint256",
          "name": "_fuelStatonId",
          "type": "uint256"
        },
        {
          "internalType": "uint8",
          "name": "_counts",
          "type": "uint8"
        }
      ],
      "name": "upgradeCapacity",
      "outputs": [],
      "stateMutability": "payable",
      "type": "function",
      "payable": true
    },
    {
      "inputs": [
        {
          "internalType": "uint256",
          "name": "_fuelStatonId",
          "type": "uint256"
        },
        {
          "internalType": "uint8",
          "name": "_counts",
          "type": "uint8"
        }
      ],
      "name": "upgradeProductionPerHour",
      "outputs": [],
      "stateMutability": "payable",
      "type": "function",
      "payable": true
    },
    {
      "inputs": [
        {
          "internalType": "uint256",
          "name": "_engineId",
          "type": "uint256"
        },
        {
          "internalType": "uint8",
          "name": "_counts",
          "type": "uint8"
        }
      ],
      "name": "upgradeHorsePowers",
      "outputs": [],
      "stateMutability": "payable",
      "type": "function",
      "payable": true
    },
    {
      "inputs": [
        {
          "internalType": "uint256",
          "name": "_engineId",
          "type": "uint256"
        },
        {
          "internalType": "uint8",
          "name": "_counts",
          "type": "uint8"
        }
      ],
      "name": "upgradeConsumtion",
      "outputs": [],
      "stateMutability": "payable",
      "type": "function",
      "payable": true
    },
    {
      "inputs": [
        {
          "internalType": "uint256",
          "name": "_chassisId",
          "type": "uint256"
        },
        {
          "internalType": "uint8",
          "name": "_counts",
          "type": "uint8"
        }
      ],
      "name": "upgradeDurability",
      "outputs": [],
      "stateMutability": "payable",
      "type": "function",
      "payable": true
    },
    {
      "inputs": [
        {
          "internalType": "uint256",
          "name": "_carId",
          "type": "uint256"
        }
      ],
      "name": "levelUp",
      "outputs": [],
      "stateMutability": "payable",
      "type": "function",
      "payable": true
    }
  ],
  "bytecode": "0x60806040526000805461ffff60a01b191661014f60a21b179055600160088190556009556509184e72a00060135565b5e620f48000601455650da475abf0006015556611c37937e080006016556305f5e10060175566038d7ea4c6800060185534801561006b57600080fd5b50610075336100b7565b6050600355605b6004556005805460ff1916600a179055620186a06006556201d4c1600755600b80546001908101909155600c80549091018155600052610107565b600080546001600160a01b038381166001600160a01b0319831681178455604051919092169283917f8be0079c531659141344cd1fd0a4f28419497f9722a3daafe3b4186f6b6457e09190a35050565b61264f806101166000396000f3fe6080604052600436106101b75760003560e01c806385909267116100ec578063c75bb4f41161008a578063ede6fbf511610064578063ede6fbf5146106f9578063f2fde38b14610719578063f7746e3614610739578063faf4bb981461076e57600080fd5b8063c75bb4f41461068c578063d1c54eea146106b9578063ea126933146106d957600080fd5b806392f859db116100c657806392f859db146105a0578063b3b29afd146105f0578063b72c0eea1461062b578063c34cccc41461066c57600080fd5b8063859092671461055c5780638da5cb5b1461056f578063906f5f341461058d57600080fd5b8063594193d7116101595780636f206fc1116101335780636f206fc1146104da578063715018a6146105075780637713d5211461051c5780637c62360f1461054957600080fd5b8063594193d71461044e5780635dcc4cc6146104845780636b606d9b146104ba57600080fd5b8063224370f011610195578063224370f01461022b57806333ca504b1461035f57806344901490146103ad5780634e31f910146103e357600080fd5b806303f2e05b146101bc5780630ce90ec2146101d15780631c5dde0e146101e4575b600080fd5b6101cf6101ca366004611f16565b610781565b005b6101cf6101df366004611f4c565b610860565b3480156101f057600080fd5b506102046101ff366004611f4c565b6109bb565b6040805193845263ffffffff92831660208501529116908201526060015b60405180910390f35b34801561023757600080fd5b506101cf600180546040805160a0810182528281526000805460ff600160a01b820481166020808601828152600160a81b90940483168688019081526060870192835263ffffffff421660808801908152898b018b559986529551600389027fb10e2d527612073b26eecdfd717e6a320cf44b4afac2b0732d9fcbe2b7fa0cf681019190915593517fb10e2d527612073b26eecdfd717e6a320cf44b4afac2b0732d9fcbe2b7fa0cf785018054975193518516620100000262ff0000199486166101000261ffff19909916929095169190911796909617919091169190911790935594517fb10e2d527612073b26eecdfd717e6a320cf44b4afac2b0732d9fcbe2b7fa0cf8909501949094559183526002909152902080546001600160a01b03191633179055565b34801561036b57600080fd5b5061039561037a366004611f4c565b600d602052600090815260409020546001600160a01b031681565b6040516001600160a01b039091168152602001610222565b3480156103b957600080fd5b506103956103c8366004611f4c565b600f602052600090815260409020546001600160a01b031681565b3480156103ef57600080fd5b506104036103fe366004611f65565b6109fb565b6040516102229190600060a0820190508251825260ff602084015116602083015260ff604084015116604083015260ff60608401511660608301526080830151608083015292915050565b34801561045a57600080fd5b50610395610469366004611f4c565b6002602052600090815260409020546001600160a01b031681565b34801561049057600080fd5b5061039561049f366004611f4c565b600e602052600090815260409020546001600160a01b031681565b3480156104c657600080fd5b506101cf6104d5366004611f95565b610ae2565b3480156104e657600080fd5b506104fa6104f5366004611f65565b610bd4565b6040516102229190611fb7565b34801561051357600080fd5b506101cf610d28565b34801561052857600080fd5b5061053c610537366004611f65565b610d3c565b604051610222919061201a565b6101cf610557366004611f16565b610e84565b6101cf61056a366004611f16565b610f64565b34801561057b57600080fd5b506000546001600160a01b0316610395565b6101cf61059b366004611f16565b61101d565b3480156105ac57600080fd5b506105c06105bb366004611f4c565b6110ca565b6040805195865260ff9485166020870152928416928501929092529091166060830152608082015260a001610222565b3480156105fc57600080fd5b5061061d61060b366004611f65565b60106020526000908152604090205481565b604051908152602001610222565b34801561063757600080fd5b5061064b610646366004611f4c565b611116565b6040805193845261ffff909216602084015260ff1690820152606001610222565b34801561067857600080fd5b506101cf610687366004611f95565b611153565b34801561069857600080fd5b506106ac6106a7366004611f65565b61122d565b60405161022291906120c9565b3480156106c557600080fd5b506101cf6106d4366004611f95565b61146b565b3480156106e557600080fd5b506101cf6106f4366004611f95565b611536565b34801561070557600080fd5b506101cf6107143660046121a9565b6115f6565b34801561072557600080fd5b506101cf610734366004611f65565b6117c4565b34801561074557600080fd5b50610759610754366004611f4c565b61183d565b6040516102229998979695949392919061225a565b6101cf61077c366004611f16565b61192a565b6000828152600f602052604090205482906001600160a01b031633146107a657600080fd5b601754600c84815481106107bc576107bc6122b1565b60009182526020909120600160029092020101546107e39063ffffffff1660ff85166122dd565b63ffffffff166107f39190612309565b34146107fe57600080fd5b8160ff16600c8481548110610815576108156122b1565b600091825260208220600160029092020101805490919061083d90849063ffffffff16612328565b92506101000a81548163ffffffff021916908363ffffffff160217905550505050565b600a808281548110610874576108746122b1565b6000918252602090912060046009909202010154610895919060ff16612366565b60ff166018546108a59190612309565b3414801561090e5750600a81815481106108c1576108c16122b1565b60009182526020909120600460099092020101546108e39060ff166001612388565b60ff16600a82815481106108f9576108f96122b1565b90600052602060002090600902016006015410155b61091757600080fd5b600a818154811061092a5761092a6122b1565b600091825260208220600460099092020101805460ff169161094b836123ad565b91906101000a81548160ff021916908360ff160217905550506000600a8281548110610979576109796122b1565b9060005260206000209060090201600601819055506000600a82815481106109a3576109a36122b1565b90600052602060002090600902016007018190555050565b600c81815481106109cb57600080fd5b60009182526020909120600290910201805460019091015490915063ffffffff8082169164010000000090041683565b6040805160a081018252600080825260208201819052918101829052606081018290526080810182905290805b600154811015610a6d576000818152600260205260409020546001600160a01b03808616911603610a5b57809150610a6d565b80610a65816123cc565b915050610a28565b5060018181548110610a8157610a816122b1565b60009182526020918290206040805160a081018252600390930290910180548352600181015460ff80821695850195909552610100810485169284019290925262010000909104909216606082015260029091015460808201529392505050565b6000818152600f602052604090205481906001600160a01b03163314610b0757600080fd5b6000838152600d602052604090205483906001600160a01b03163314610b2c57600080fd5b82600a8581548110610b4057610b406122b1565b90600052602060002090600902016003015414610ba45760405162461bcd60e51b815260206004820152601860248201527f6368617373697320617265206e6f74206174746163686564000000000000000060448201526064015b60405180910390fd5b6000600a8581548110610bb957610bb96122b1565b90600052602060002090600902016003018190555050505050565b6001600160a01b0381166000908152601160205260408120546060919067ffffffffffffffff811115610c0957610c09612193565b604051908082528060200260200182016040528015610c5457816020015b6040805160608101825260008082526020808301829052928201528252600019909201910181610c275790505b5090506000805b600c54811015610d1f576000818152600f60205260409020546001600160a01b03808716911603610d0d57600c8181548110610c9957610c996122b1565b6000918252602091829020604080516060810182526002909302909101805483526001015463ffffffff808216948401949094526401000000009004909216918101919091528351849084908110610cf357610cf36122b1565b60200260200101819052508180610d09906123cc565b9250505b80610d17816123cc565b915050610c5b565b50909392505050565b610d306119ff565b610d3a6000611a59565b565b6001600160a01b0381166000908152601160205260408120546060919067ffffffffffffffff811115610d7157610d71612193565b604051908082528060200260200182016040528015610dbc57816020015b6040805160608101825260008082526020808301829052928201528252600019909201910181610d8f5790505b5090506000805b600b54811015610d1f576000818152600e60205260409020546001600160a01b03808716911603610e7257600b8181548110610e0157610e016122b1565b600091825260209182902060408051606081018252600293909302909101805483526001015461ffff8116938301939093526201000090920460ff16918101919091528351849084908110610e5857610e586122b1565b60200260200101819052508180610e6e906123cc565b9250505b80610e7c816123cc565b915050610dc3565b6000828152600e602052604090205482906001600160a01b03163314610ea957600080fd5b600b8381548110610ebc57610ebc6122b1565b6000918252602090912060029091020160010154610ee49062010000900460ff16600a6123e5565b610eef9060026124ec565b601654610efc9190612309565b3414610f0757600080fd5b81600b8481548110610f1b57610f1b6122b1565b906000526020600020906002020160010160028282829054906101000a900460ff16610f4791906123e5565b92506101000a81548160ff021916908360ff160217905550505050565b60008281526002602052604090205482906001600160a01b03163314610f8957600080fd5b60145460018481548110610f9f57610f9f6122b1565b6000918252602090912060039091020160010154610fc590610100900460ff16846124fb565b60ff16610fd29190612309565b3414610fdd57600080fd5b8160018481548110610ff157610ff16122b1565b906000526020600020906003020160010160018282829054906101000a900460ff16610f479190612388565b60008281526002602052604090205482906001600160a01b0316331461104257600080fd5b60135460018481548110611058576110586122b1565b60009182526020909120600160039092020101546110799060ff16846124fb565b60ff166110869190612309565b341461109157600080fd5b81600184815481106110a5576110a56122b1565b6000918252602082206001600390920201018054909190610f4790849060ff16612388565b600181815481106110da57600080fd5b600091825260209091206003909102018054600182015460029092015490925060ff808316926101008104821692620100009091049091169085565b600b818154811061112657600080fd5b60009182526020909120600290910201805460019091015490915061ffff81169062010000900460ff1683565b6000818152600e602052604090205481906001600160a01b0316331461117857600080fd5b6000838152600d602052604090205483906001600160a01b0316331461119d57600080fd5b82600a85815481106111b1576111b16122b1565b906000526020600020906009020160020154036111fe5760405162461bcd60e51b815260206004820152600b60248201526a73616d6520656e67696e6560a81b6044820152606401610b9b565b82600a8581548110611212576112126122b1565b90600052602060002090600902016002018190555050505050565b6001600160a01b0381166000908152601060205260408120546060919067ffffffffffffffff81111561126257611262612193565b6040519080825280602002602001820160405280156112e557816020015b6112d260405180610120016040528060608152602001600081526020016000815260200160008152602001600060ff168152602001600081526020016000815260200160008152602001600081525090565b8152602001906001900390816112805790505b5090506000805b600a54811015610d1f576000818152600d60205260409020546001600160a01b0380871691160361145957600a818154811061132a5761132a6122b1565b9060005260206000209060090201604051806101200160405290816000820180546113549061251c565b80601f01602080910402602001604051908101604052809291908181526020018280546113809061251c565b80156113cd5780601f106113a2576101008083540402835291602001916113cd565b820191906000526020600020905b8154815290600101906020018083116113b057829003601f168201915b5050509183525050600182015460208201526002820154604082015260038201546060820152600482015460ff166080820152600582015460a0820152600682015460c0820152600782015460e082015260089091015461010090910152835184908490811061143f5761143f6122b1565b60200260200101819052508180611455906123cc565b9250505b80611463816123cc565b9150506112ec565b6000818152600e602052604090205481906001600160a01b0316331461149057600080fd5b6000838152600d602052604090205483906001600160a01b031633146114b557600080fd5b82600a85815481106114c9576114c96122b1565b906000526020600020906009020160020154146115215760405162461bcd60e51b8152602060048201526016602482015275195b99da5b99481a5cc81b9bdd08185d1d1858da195960521b6044820152606401610b9b565b6000600a8581548110611212576112126122b1565b6000818152600f602052604090205481906001600160a01b0316331461155b57600080fd5b6000838152600d602052604090205483906001600160a01b0316331461158057600080fd5b82600a8581548110611594576115946122b1565b906000526020600020906009020160030154036115e25760405162461bcd60e51b815260206004820152600c60248201526b73616d65206368617373697360a01b6044820152606401610b9b565b82600a8581548110610bb957610bb96122b1565b336000908152601060205260409020541561161057600080fd5b60008161161c42611aa9565b60405160200161162d929190612556565b6040516020818303038152906040529050600081604051602001611651919061257c565b6040516020818303038152906040528051906020012060001c90506000611676611b3c565b90506000611682611c70565b600a80546040805161012081018252898152602080820189905291810187905260608101859052600160808201819052600060a0830181905260c0830181905260e083018190526101008301859052908401855593909352825180519495509193600985027fc65a7bb8d6351c1cf70c95a316cc6a92839c986682d98bc35f958f4883f9d2a80192611718928492910190611e7d565b506020828101516001830155604080840151600284015560608401516003840155608084015160048401805460ff191660ff90921691909117905560a0840151600584015560c0840151600684015560e08401516007840155610100909301516008909201919091556000838152600d82528281208054336001600160a01b03199091168117909155815260109091529081208054916117b7836123cc565b9190505550505050505050565b6117cc6119ff565b6001600160a01b0381166118315760405162461bcd60e51b815260206004820152602660248201527f4f776e61626c653a206e6577206f776e657220697320746865207a65726f206160448201526564647265737360d01b6064820152608401610b9b565b61183a81611a59565b50565b600a818154811061184d57600080fd5b90600052602060002090600902016000915090508060000180546118709061251c565b80601f016020809104026020016040519081016040528092919081815260200182805461189c9061251c565b80156118e95780601f106118be576101008083540402835291602001916118e9565b820191906000526020600020905b8154815290600101906020018083116118cc57829003601f168201915b50505060018401546002850154600386015460048701546005880154600689015460078a01546008909a01549899959894975092955060ff90911693909289565b6000828152600e602052604090205482906001600160a01b0316331461194f57600080fd5b601554600b8481548110611965576119656122b1565b600091825260209091206001600290920201015461198a9061ffff1660ff8516612598565b61ffff166119989190612309565b34146119a357600080fd5b8160ff16600b84815481106119ba576119ba6122b1565b60009182526020822060016002909202010180549091906119e090849061ffff166125b9565b92506101000a81548161ffff021916908361ffff160217905550505050565b6000546001600160a01b03163314610d3a5760405162461bcd60e51b815260206004820181905260248201527f4f776e61626c653a2063616c6c6572206973206e6f7420746865206f776e65726044820152606401610b9b565b600080546001600160a01b038381166001600160a01b0319831681178455604051919092169283917f8be0079c531659141344cd1fd0a4f28419497f9722a3daafe3b4186f6b6457e09190a35050565b60606000611ab683611da4565b600101905060008167ffffffffffffffff811115611ad657611ad6612193565b6040519080825280601f01601f191660200182016040528015611b00576020820181803683370190505b5090508181016020015b600019016f181899199a1a9b1b9c1cb0b131b232b360811b600a86061a8153600a8504945084611b0a57509392505050565b600080600354600454611b4f91906125d6565b611b5990426125ed565b600354611b669190612601565b600880549192506000919082611b7b836123cc565b909155506040805160608101825282815261ffff808616602080840191825260055460ff908116858701908152600b80546001810182556000918252965160029097027f0175b7a638427703f0dbe7bb9bbf987a2551717b34e79f33b5b1008d1fa01db981019790975593517f0175b7a638427703f0dbe7bb9bbf987a2551717b34e79f33b5b1008d1fa01dba90960180549151909216620100000262ffffff1990911695909416949094179290921790925533825260119052908120805492935090611c47836123cc565b90915550506000818152600e6020526040902080546001600160a01b0319163317905592915050565b600080600654600754611c8391906125d6565b611c8d90426125ed565b600654611c9a9190612601565b600980549192506000919082611caf836123cc565b909155506040805160608101825282815263ffffffff8086166020808401828152848601928352600c80546001810182556000918252955160029096027fdf6966c971051c3d54ec59162606531493a51404a002842f56009d7e5cf4a8c781019690965590517fdf6966c971051c3d54ec59162606531493a51404a002842f56009d7e5cf4a8c89095018054935185166401000000000267ffffffffffffffff1990941695909416949094179190911790915533825260129052908120805492935090611d7b836123cc565b90915550506000818152600f6020526040902080546001600160a01b0319163317905592915050565b60008072184f03e93ff9f4daa797ed6e38ed64bf6a1f0160401b8310611de35772184f03e93ff9f4daa797ed6e38ed64bf6a1f0160401b830492506040015b6d04ee2d6d415b85acef81000000008310611e0f576d04ee2d6d415b85acef8100000000830492506020015b662386f26fc100008310611e2d57662386f26fc10000830492506010015b6305f5e1008310611e45576305f5e100830492506008015b6127108310611e5957612710830492506004015b60648310611e6b576064830492506002015b600a8310611e77576001015b92915050565b828054611e899061251c565b90600052602060002090601f016020900481019282611eab5760008555611ef1565b82601f10611ec457805160ff1916838001178555611ef1565b82800160010185558215611ef1579182015b82811115611ef1578251825591602001919060010190611ed6565b50611efd929150611f01565b5090565b5b80821115611efd5760008155600101611f02565b60008060408385031215611f2957600080fd5b82359150602083013560ff81168114611f4157600080fd5b809150509250929050565b600060208284031215611f5e57600080fd5b5035919050565b600060208284031215611f7757600080fd5b81356001600160a01b0381168114611f8e57600080fd5b9392505050565b60008060408385031215611fa857600080fd5b50508035926020909101359150565b602080825282518282018190526000919060409081850190868401855b8281101561200d578151805185528681015163ffffffff9081168887015290860151168585015260609093019290850190600101611fd4565b5091979650505050505050565b602080825282518282018190526000919060409081850190868401855b8281101561200d578151805185528681015161ffff168786015285015160ff168585015260609093019290850190600101612037565b60005b83811015612088578181015183820152602001612070565b83811115612097576000848401525b50505050565b600081518084526120b581602086016020860161206d565b601f01601f19169290920160200192915050565b60006020808301818452808551808352604092508286019150828160051b87010184880160005b8381101561218557603f19898403018552815161012081518186526121178287018261209d565b9150508882015189860152878201518886015260608083015181870152506080808301516121498288018260ff169052565b505060a0828101519086015260c0808301519086015260e0808301519086015261010091820151919094015293860193908601906001016120f0565b509098975050505050505050565b634e487b7160e01b600052604160045260246000fd5b6000602082840312156121bb57600080fd5b813567ffffffffffffffff808211156121d357600080fd5b818401915084601f8301126121e757600080fd5b8135818111156121f9576121f9612193565b604051601f8201601f19908116603f0116810190838211818310171561222157612221612193565b8160405282815287602084870101111561223a57600080fd5b826020860160208301376000928101602001929092525095945050505050565b600061012080835261226e8184018d61209d565b602084019b909b5250506040810197909752606087019590955260ff93909316608086015260a085019190915260c084015260e083015261010090910152919050565b634e487b7160e01b600052603260045260246000fd5b634e487b7160e01b600052601160045260246000fd5b600063ffffffff80831681851681830481118215151615612300576123006122c7565b02949350505050565b6000816000190483118215151615612323576123236122c7565b500290565b600063ffffffff808316818516808303821115612347576123476122c7565b01949350505050565b634e487b7160e01b600052601260045260246000fd5b600060ff83168061237957612379612350565b8060ff84160491505092915050565b600060ff821660ff84168060ff038211156123a5576123a56122c7565b019392505050565b600060ff821660ff81036123c3576123c36122c7565b60010192915050565b6000600182016123de576123de6122c7565b5060010190565b600060ff821660ff8416808210156123ff576123ff6122c7565b90039392505050565b600181815b80851115612443578160001904821115612429576124296122c7565b8085161561243657918102915b93841c939080029061240d565b509250929050565b60008261245a57506001611e77565b8161246757506000611e77565b816001811461247d5760028114612487576124a3565b6001915050611e77565b60ff841115612498576124986122c7565b50506001821b611e77565b5060208310610133831016604e8410600b84101617156124c6575081810a611e77565b6124d08383612408565b80600019048211156124e4576124e46122c7565b029392505050565b6000611f8e60ff84168361244b565b600060ff821660ff84168160ff04811182151516156124e4576124e46122c7565b600181811c9082168061253057607f821691505b60208210810361255057634e487b7160e01b600052602260045260246000fd5b50919050565b6000835161256881846020880161206d565b83519083019061234781836020880161206d565b6000825161258e81846020870161206d565b9190910192915050565b600061ffff80831681851681830481118215151615612300576123006122c7565b600061ffff808316818516808303821115612347576123476122c7565b6000828210156125e8576125e86122c7565b500390565b6000826125fc576125fc612350565b500690565b60008219821115612614576126146122c7565b50019056fea2646970667358221220320a00f1bf38ceb34986aeecd2da3eedc0c910890cde62003d0885c54ebcf52264736f6c634300080d0033",
  "immutableReferences": {},
  "source": "// SPDX-License-Identifier: MIT\npragma solidity ^0.8.13;\n\nimport \"./CarFactory.sol\";\n\ncontract CarHelper is CarFactory {\n\n    uint capacityCoef = 0.00001 ether;\n    uint productionPerHourCoef = 0.0002 ether;\n    uint horsePowersCoef = 0.000015 ether;\n    uint consumtionCoef = 0.005 ether;\n    uint durabilityCoef = 0.0000000001 ether;\n    uint levelUpCost = 0.001 ether;\n\n    modifier onlyOwnerOfCar(uint _carId) {\n        require(msg.sender == carToOwner[_carId]);\n        _;\n    }\n\n    modifier onlyOwnerOfEngine(uint _engineId) {\n        require(msg.sender == engineToOwner[_engineId]);\n        _;\n    }\n\n    modifier onlyOwnerOfChassis(uint _chassisId) {\n        require(msg.sender == chassisToOwner[_chassisId]);\n        _;\n    }\n\n    modifier onlyOwnerOfFuelStation(uint _fuelStationId) {\n        require(msg.sender == fuelStationToOwner[_fuelStationId]);\n        _;\n    }\n\n    function switchEngine(uint carId, uint engineId) public onlyOwnerOfEngine(engineId) onlyOwnerOfCar(carId){\n        require(cars[carId].engineId != engineId, \"same engine\");\n        cars[carId].engineId = engineId;\n    }\n\n    function switchChassis(uint carId, uint chassisId) public onlyOwnerOfChassis(chassisId) onlyOwnerOfCar(carId){\n        require(cars[carId].chassisId != chassisId, \"same chassis\");\n        cars[carId].chassisId = chassisId;\n    }\n\n    function detachEngine(uint carId, uint engineId) public onlyOwnerOfEngine(engineId) onlyOwnerOfCar(carId){\n        require(cars[carId].engineId == engineId, \"engine is not attached\");\n        cars[carId].engineId = 0;\n    }\n    function detachChassis(uint carId, uint chassisId) public onlyOwnerOfChassis(chassisId) onlyOwnerOfCar(carId){\n        require(cars[carId].chassisId == chassisId, \"chassis are not attached\");\n        cars[carId].chassisId = 0;\n    }\n\n\n    function getFuelStationByOwner(address _owner) public view returns(FuelStation memory){\n        uint resId;\n        for (uint i = 0; i < stations.length; i++) {\n            if (fuelStationToOwner[i] == _owner) {\n               resId = i;\n               break;\n            }\n        }\n        return stations[resId];\n    }\n\n    function getEnginesByOwner(address _owner) public view returns(Engine[] memory) {\n        Engine[] memory result = new Engine[](ownerEngineCount[_owner]);\n        uint counter = 0;\n        for (uint i = 0; i < engines.length; i++) {\n            if (engineToOwner[i] == _owner) {\n                result[counter] = engines[i];\n                counter++;\n            }\n        }\n        return result;\n    }\n\n    function getChassisByOwner(address _owner) public view returns(Chassis[] memory) {\n        Chassis[] memory result = new Chassis[](ownerEngineCount[_owner]);\n        uint counter = 0;\n        for (uint i = 0; i < chassis.length; i++) {\n            if (chassisToOwner[i] == _owner) {\n                result[counter] = chassis[i];\n                counter++;\n            }\n        }\n        return result;\n    }\n\n    function getCarsByOwner(address _owner) public view returns(Car[] memory) {\n        Car[] memory result = new Car[](ownerCarCount[_owner]);\n        uint counter = 0;\n        for (uint i = 0; i < cars.length; i++) {\n            if (carToOwner[i] == _owner) {\n                result[counter] = cars[i];\n                counter++;\n            }\n        }\n        return result;\n    }\n\n    function upgradeCapacity(uint _fuelStatonId, uint8 _counts) external payable onlyOwnerOfFuelStation(_fuelStatonId) {\n        require(msg.value == (_counts * stations[_fuelStatonId].capacity * capacityCoef));\n        stations[_fuelStatonId].capacity += _counts; \n    }\n\n    function upgradeProductionPerHour(uint _fuelStatonId, uint8 _counts) external payable onlyOwnerOfFuelStation(_fuelStatonId) {\n        require(msg.value == (_counts * stations[_fuelStatonId].productionPerHour * productionPerHourCoef));\n        stations[_fuelStatonId].productionPerHour += _counts; \n    }\n\n    function upgradeHorsePowers(uint _engineId, uint8 _counts) external payable onlyOwnerOfEngine(_engineId) {\n        require(msg.value == (_counts * engines[_engineId].horsePowers * horsePowersCoef));\n        engines[_engineId].horsePowers += _counts; \n    }\n\n    function upgradeConsumtion(uint _engineId, uint8 _counts) external payable onlyOwnerOfEngine(_engineId) {\n        require(msg.value == consumtionCoef * 2**(10 - engines[_engineId].consumtion));\n        engines[_engineId].consumtion -= _counts; \n    }\n\n    function upgradeDurability(uint _chassisId, uint8 _counts) external payable onlyOwnerOfChassis(_chassisId) {\n        require(msg.value == (_counts * chassis[_chassisId].durability * durabilityCoef));\n        chassis[_chassisId].durability += _counts; \n    }\n\n    function levelUp(uint _carId) external payable {\n        require(msg.value == levelUpCost * (cars[_carId].carLevel/10) && cars[_carId].winCountOnCurrentLevel >= (cars[_carId].carLevel + 1));\n        cars[_carId].carLevel++;\n        cars[_carId].winCountOnCurrentLevel = 0;\n        cars[_carId].lossCountOnCurrentLevel = 0;\n    }\n\n\n}",
  "sourcePath": "/Users/vvan/Programming/JavaScript/DriveSafely/contract/contracts/CarHelper.sol",
  "compiler": {
    "name": "solc",
    "version": "0.8.13+commit.abaa5c0e.Emscripten.clang"
  },
  "schemaVersion": "3.4.11",
  "updatedAt": "2023-01-10T06:48:35.798Z",
  "networkType": "ethereum",
  "devdoc": {
    "kind": "dev",
    "methods": {
      "owner()": {
        "details": "Returns the address of the current owner."
      },
      "renounceOwnership()": {
        "details": "Leaves the contract without owner. It will not be possible to call `onlyOwner` functions anymore. Can only be called by the current owner. NOTE: Renouncing ownership will leave the contract without an owner, thereby removing any functionality that is only available to the owner."
      },
      "transferOwnership(address)": {
        "details": "Transfers ownership of the contract to a new account (`newOwner`). Can only be called by the current owner."
      }
    },
    "version": 1
  },
  "userdoc": {
    "kind": "user",
    "methods": {},
    "version": 1
  }
}