{
  "contractName": "CarHelper",
  "abi": [
    {
      "anonymous": false,
      "inputs": [
        {
          "indexed": true,
          "internalType": "address",
          "name": "previousOwner",
          "type": "address"
        },
        {
          "indexed": true,
          "internalType": "address",
          "name": "newOwner",
          "type": "address"
        }
      ],
      "name": "OwnershipTransferred",
      "type": "event"
    },
    {
      "inputs": [
        {
          "internalType": "uint256",
          "name": "",
          "type": "uint256"
        }
      ],
      "name": "carToOwner",
      "outputs": [
        {
          "internalType": "address",
          "name": "",
          "type": "address"
        }
      ],
      "stateMutability": "view",
      "type": "function"
    },
    {
      "inputs": [
        {
          "internalType": "uint256",
          "name": "",
          "type": "uint256"
        }
      ],
      "name": "carToPrice",
      "outputs": [
        {
          "internalType": "uint256",
          "name": "",
          "type": "uint256"
        }
      ],
      "stateMutability": "view",
      "type": "function"
    },
    {
      "inputs": [
        {
          "internalType": "uint256",
          "name": "",
          "type": "uint256"
        }
      ],
      "name": "cars",
      "outputs": [
        {
          "internalType": "string",
          "name": "model",
          "type": "string"
        },
        {
          "internalType": "uint256",
          "name": "vin",
          "type": "uint256"
        },
        {
          "internalType": "uint256",
          "name": "engineId",
          "type": "uint256"
        },
        {
          "internalType": "uint256",
          "name": "chassisId",
          "type": "uint256"
        },
        {
          "internalType": "uint8",
          "name": "carLevel",
          "type": "uint8"
        },
        {
          "internalType": "uint256",
          "name": "mileage",
          "type": "uint256"
        },
        {
          "internalType": "uint256",
          "name": "winCountOnCurrentLevel",
          "type": "uint256"
        },
        {
          "internalType": "uint256",
          "name": "lossCountOnCurrentLevel",
          "type": "uint256"
        },
        {
          "internalType": "uint256",
          "name": "id",
          "type": "uint256"
        }
      ],
      "stateMutability": "view",
      "type": "function"
    },
    {
      "inputs": [],
      "name": "carsForSaleCount",
      "outputs": [
        {
          "internalType": "uint256",
          "name": "",
          "type": "uint256"
        }
      ],
      "stateMutability": "view",
      "type": "function"
    },
    {
      "inputs": [
        {
          "internalType": "uint256",
          "name": "",
          "type": "uint256"
        }
      ],
      "name": "chassis",
      "outputs": [
        {
          "internalType": "uint256",
          "name": "id",
          "type": "uint256"
        },
        {
          "internalType": "uint32",
          "name": "durability",
          "type": "uint32"
        },
        {
          "internalType": "uint32",
          "name": "resource",
          "type": "uint32"
        }
      ],
      "stateMutability": "view",
      "type": "function"
    },
    {
      "inputs": [],
      "name": "chassisForSaleCount",
      "outputs": [
        {
          "internalType": "uint256",
          "name": "",
          "type": "uint256"
        }
      ],
      "stateMutability": "view",
      "type": "function"
    },
    {
      "inputs": [
        {
          "internalType": "uint256",
          "name": "",
          "type": "uint256"
        }
      ],
      "name": "chassisToOwner",
      "outputs": [
        {
          "internalType": "address",
          "name": "",
          "type": "address"
        }
      ],
      "stateMutability": "view",
      "type": "function"
    },
    {
      "inputs": [
        {
          "internalType": "uint256",
          "name": "",
          "type": "uint256"
        }
      ],
      "name": "chassisToPrice",
      "outputs": [
        {
          "internalType": "uint256",
          "name": "",
          "type": "uint256"
        }
      ],
      "stateMutability": "view",
      "type": "function"
    },
    {
      "inputs": [
        {
          "internalType": "string",
          "name": "model",
          "type": "string"
        }
      ],
      "name": "createCar",
      "outputs": [],
      "stateMutability": "nonpayable",
      "type": "function"
    },
    {
      "inputs": [
        {
          "internalType": "string",
          "name": "_model",
          "type": "string"
        },
        {
          "internalType": "uint16",
          "name": "_horsePowers",
          "type": "uint16"
        },
        {
          "internalType": "uint8",
          "name": "_consumtion",
          "type": "uint8"
        },
        {
          "internalType": "uint32",
          "name": "_durability",
          "type": "uint32"
        },
        {
          "internalType": "uint8",
          "name": "_carLevel",
          "type": "uint8"
        },
        {
          "internalType": "uint256",
          "name": "_carPrice",
          "type": "uint256"
        }
      ],
      "name": "createCustomCar",
      "outputs": [],
      "stateMutability": "nonpayable",
      "type": "function"
    },
    {
      "inputs": [
        {
          "internalType": "uint32",
          "name": "_durability",
          "type": "uint32"
        },
        {
          "internalType": "uint256",
          "name": "_chassisPrice",
          "type": "uint256"
        }
      ],
      "name": "createCustomChassis",
      "outputs": [
        {
          "internalType": "uint256",
          "name": "",
          "type": "uint256"
        }
      ],
      "stateMutability": "nonpayable",
      "type": "function"
    },
    {
      "inputs": [
        {
          "internalType": "uint16",
          "name": "_horsePowers",
          "type": "uint16"
        },
        {
          "internalType": "uint8",
          "name": "_consumtion",
          "type": "uint8"
        },
        {
          "internalType": "uint256",
          "name": "_enginePrice",
          "type": "uint256"
        }
      ],
      "name": "createCustomEngine",
      "outputs": [
        {
          "internalType": "uint256",
          "name": "",
          "type": "uint256"
        }
      ],
      "stateMutability": "nonpayable",
      "type": "function"
    },
    {
      "inputs": [],
      "name": "createFuelStation",
      "outputs": [],
      "stateMutability": "nonpayable",
      "type": "function"
    },
    {
      "inputs": [
        {
          "internalType": "uint256",
          "name": "",
          "type": "uint256"
        }
      ],
      "name": "engineToOwner",
      "outputs": [
        {
          "internalType": "address",
          "name": "",
          "type": "address"
        }
      ],
      "stateMutability": "view",
      "type": "function"
    },
    {
      "inputs": [
        {
          "internalType": "uint256",
          "name": "",
          "type": "uint256"
        }
      ],
      "name": "engineToPrice",
      "outputs": [
        {
          "internalType": "uint256",
          "name": "",
          "type": "uint256"
        }
      ],
      "stateMutability": "view",
      "type": "function"
    },
    {
      "inputs": [
        {
          "internalType": "uint256",
          "name": "",
          "type": "uint256"
        }
      ],
      "name": "engines",
      "outputs": [
        {
          "internalType": "uint256",
          "name": "id",
          "type": "uint256"
        },
        {
          "internalType": "uint16",
          "name": "horsePowers",
          "type": "uint16"
        },
        {
          "internalType": "uint8",
          "name": "consumtion",
          "type": "uint8"
        }
      ],
      "stateMutability": "view",
      "type": "function"
    },
    {
      "inputs": [],
      "name": "enginesForSaleCount",
      "outputs": [
        {
          "internalType": "uint256",
          "name": "",
          "type": "uint256"
        }
      ],
      "stateMutability": "view",
      "type": "function"
    },
    {
      "inputs": [
        {
          "internalType": "uint256",
          "name": "",
          "type": "uint256"
        }
      ],
      "name": "fuelStationToOwner",
      "outputs": [
        {
          "internalType": "address",
          "name": "",
          "type": "address"
        }
      ],
      "stateMutability": "view",
      "type": "function"
    },
    {
      "inputs": [],
      "name": "owner",
      "outputs": [
        {
          "internalType": "address",
          "name": "",
          "type": "address"
        }
      ],
      "stateMutability": "view",
      "type": "function"
    },
    {
      "inputs": [
        {
          "internalType": "address",
          "name": "",
          "type": "address"
        }
      ],
      "name": "ownerCarCount",
      "outputs": [
        {
          "internalType": "uint256",
          "name": "",
          "type": "uint256"
        }
      ],
      "stateMutability": "view",
      "type": "function"
    },
    {
      "inputs": [
        {
          "internalType": "address",
          "name": "",
          "type": "address"
        }
      ],
      "name": "ownerChassisCount",
      "outputs": [
        {
          "internalType": "uint256",
          "name": "",
          "type": "uint256"
        }
      ],
      "stateMutability": "view",
      "type": "function"
    },
    {
      "inputs": [
        {
          "internalType": "address",
          "name": "",
          "type": "address"
        }
      ],
      "name": "ownerEngineCount",
      "outputs": [
        {
          "internalType": "uint256",
          "name": "",
          "type": "uint256"
        }
      ],
      "stateMutability": "view",
      "type": "function"
    },
    {
      "inputs": [],
      "name": "renounceOwnership",
      "outputs": [],
      "stateMutability": "nonpayable",
      "type": "function"
    },
    {
      "inputs": [
        {
          "internalType": "uint256",
          "name": "",
          "type": "uint256"
        }
      ],
      "name": "stations",
      "outputs": [
        {
          "internalType": "uint256",
          "name": "id",
          "type": "uint256"
        },
        {
          "internalType": "uint8",
          "name": "capacity",
          "type": "uint8"
        },
        {
          "internalType": "uint8",
          "name": "productionPerHour",
          "type": "uint8"
        },
        {
          "internalType": "uint8",
          "name": "currentFullness",
          "type": "uint8"
        },
        {
          "internalType": "uint256",
          "name": "lastUpdate",
          "type": "uint256"
        }
      ],
      "stateMutability": "view",
      "type": "function"
    },
    {
      "inputs": [
        {
          "internalType": "address",
          "name": "newOwner",
          "type": "address"
        }
      ],
      "name": "transferOwnership",
      "outputs": [],
      "stateMutability": "nonpayable",
      "type": "function"
    },
    {
      "inputs": [
        {
          "internalType": "uint256",
          "name": "carId",
          "type": "uint256"
        },
        {
          "internalType": "uint256",
          "name": "engineId",
          "type": "uint256"
        }
      ],
      "name": "switchEngine",
      "outputs": [],
      "stateMutability": "nonpayable",
      "type": "function"
    },
    {
      "inputs": [
        {
          "internalType": "uint256",
          "name": "carId",
          "type": "uint256"
        },
        {
          "internalType": "uint256",
          "name": "chassisId",
          "type": "uint256"
        }
      ],
      "name": "switchChassis",
      "outputs": [],
      "stateMutability": "nonpayable",
      "type": "function"
    },
    {
      "inputs": [
        {
          "internalType": "uint256",
          "name": "carId",
          "type": "uint256"
        },
        {
          "internalType": "uint256",
          "name": "engineId",
          "type": "uint256"
        }
      ],
      "name": "detachEngine",
      "outputs": [],
      "stateMutability": "nonpayable",
      "type": "function"
    },
    {
      "inputs": [
        {
          "internalType": "uint256",
          "name": "carId",
          "type": "uint256"
        },
        {
          "internalType": "uint256",
          "name": "chassisId",
          "type": "uint256"
        }
      ],
      "name": "detachChassis",
      "outputs": [],
      "stateMutability": "nonpayable",
      "type": "function"
    },
    {
      "inputs": [
        {
          "internalType": "address",
          "name": "_owner",
          "type": "address"
        }
      ],
      "name": "getFuelStationByOwner",
      "outputs": [
        {
          "components": [
            {
              "internalType": "uint256",
              "name": "id",
              "type": "uint256"
            },
            {
              "internalType": "uint8",
              "name": "capacity",
              "type": "uint8"
            },
            {
              "internalType": "uint8",
              "name": "productionPerHour",
              "type": "uint8"
            },
            {
              "internalType": "uint8",
              "name": "currentFullness",
              "type": "uint8"
            },
            {
              "internalType": "uint256",
              "name": "lastUpdate",
              "type": "uint256"
            }
          ],
          "internalType": "struct FuelStationFactory.FuelStation",
          "name": "",
          "type": "tuple"
        }
      ],
      "stateMutability": "view",
      "type": "function"
    },
    {
      "inputs": [
        {
          "internalType": "address",
          "name": "_owner",
          "type": "address"
        }
      ],
      "name": "getEnginesByOwner",
      "outputs": [
        {
          "components": [
            {
              "internalType": "uint256",
              "name": "id",
              "type": "uint256"
            },
            {
              "internalType": "uint16",
              "name": "horsePowers",
              "type": "uint16"
            },
            {
              "internalType": "uint8",
              "name": "consumtion",
              "type": "uint8"
            }
          ],
          "internalType": "struct CarFactory.Engine[]",
          "name": "",
          "type": "tuple[]"
        }
      ],
      "stateMutability": "view",
      "type": "function"
    },
    {
      "inputs": [
        {
          "internalType": "address",
          "name": "_owner",
          "type": "address"
        }
      ],
      "name": "getChassisByOwner",
      "outputs": [
        {
          "components": [
            {
              "internalType": "uint256",
              "name": "id",
              "type": "uint256"
            },
            {
              "internalType": "uint32",
              "name": "durability",
              "type": "uint32"
            },
            {
              "internalType": "uint32",
              "name": "resource",
              "type": "uint32"
            }
          ],
          "internalType": "struct CarFactory.Chassis[]",
          "name": "",
          "type": "tuple[]"
        }
      ],
      "stateMutability": "view",
      "type": "function"
    },
    {
      "inputs": [
        {
          "internalType": "address",
          "name": "_owner",
          "type": "address"
        }
      ],
      "name": "getCarsByOwner",
      "outputs": [
        {
          "components": [
            {
              "internalType": "string",
              "name": "model",
              "type": "string"
            },
            {
              "internalType": "uint256",
              "name": "vin",
              "type": "uint256"
            },
            {
              "internalType": "uint256",
              "name": "engineId",
              "type": "uint256"
            },
            {
              "internalType": "uint256",
              "name": "chassisId",
              "type": "uint256"
            },
            {
              "internalType": "uint8",
              "name": "carLevel",
              "type": "uint8"
            },
            {
              "internalType": "uint256",
              "name": "mileage",
              "type": "uint256"
            },
            {
              "internalType": "uint256",
              "name": "winCountOnCurrentLevel",
              "type": "uint256"
            },
            {
              "internalType": "uint256",
              "name": "lossCountOnCurrentLevel",
              "type": "uint256"
            },
            {
              "internalType": "uint256",
              "name": "id",
              "type": "uint256"
            }
          ],
          "internalType": "struct CarFactory.Car[]",
          "name": "",
          "type": "tuple[]"
        }
      ],
      "stateMutability": "view",
      "type": "function"
    },
    {
      "inputs": [
        {
          "internalType": "uint256",
          "name": "_fuelStatonId",
          "type": "uint256"
        },
        {
          "internalType": "uint8",
          "name": "_counts",
          "type": "uint8"
        }
      ],
      "name": "upgradeCapacity",
      "outputs": [],
      "stateMutability": "payable",
      "type": "function"
    },
    {
      "inputs": [
        {
          "internalType": "uint256",
          "name": "_fuelStatonId",
          "type": "uint256"
        },
        {
          "internalType": "uint8",
          "name": "_counts",
          "type": "uint8"
        }
      ],
      "name": "upgradeProductionPerHour",
      "outputs": [],
      "stateMutability": "payable",
      "type": "function"
    },
    {
      "inputs": [
        {
          "internalType": "uint256",
          "name": "_engineId",
          "type": "uint256"
        },
        {
          "internalType": "uint8",
          "name": "_counts",
          "type": "uint8"
        }
      ],
      "name": "upgradeHorsePowers",
      "outputs": [],
      "stateMutability": "payable",
      "type": "function"
    },
    {
      "inputs": [
        {
          "internalType": "uint256",
          "name": "_engineId",
          "type": "uint256"
        },
        {
          "internalType": "uint8",
          "name": "_counts",
          "type": "uint8"
        }
      ],
      "name": "upgradeConsumtion",
      "outputs": [],
      "stateMutability": "payable",
      "type": "function"
    },
    {
      "inputs": [
        {
          "internalType": "uint256",
          "name": "_chassisId",
          "type": "uint256"
        },
        {
          "internalType": "uint8",
          "name": "_counts",
          "type": "uint8"
        }
      ],
      "name": "upgradeDurability",
      "outputs": [],
      "stateMutability": "payable",
      "type": "function"
    },
    {
      "inputs": [
        {
          "internalType": "uint256",
          "name": "_carId",
          "type": "uint256"
        }
      ],
      "name": "levelUp",
      "outputs": [],
      "stateMutability": "payable",
      "type": "function"
    }
  ],
  "bytecode": "0x60806040526000805461ffff60a01b191661014f60a21b17815560088190556009819055600a556001600b819055600c556509184e72a00060195565b5e620f48000601a55650da475abf000601b556611c37937e08000601c556305f5e100601d5566038d7ea4c68000601e5534801561007857600080fd5b50610082336100c4565b6050600355605b6004556005805460ff1916600a179055620186a06006556201d4c1600755600e80546001908101909155600f80549091018155600052610114565b600080546001600160a01b038381166001600160a01b0319831681178455604051919092169283917f8be0079c531659141344cd1fd0a4f28419497f9722a3daafe3b4186f6b6457e09190a35050565b61310780620001246000396000f3fe6080604052600436106102305760003560e01c8063877660191161012e578063c75bb4f4116100ab578063f2fde38b1161006f578063f2fde38b146108c8578063f7746e36146108e8578063f85993b91461091d578063faf4bb981461094a578063fb33250f1461095d57600080fd5b8063c75bb4f41461081b578063d1c54eea14610848578063d7086fab14610868578063ea12693314610888578063ede6fbf5146108a857600080fd5b8063aa11b681116100f2578063aa11b68114610740578063b3b29afd1461076d578063b72c0eea1461079a578063bfcc9716146107db578063c34cccc4146107fb57600080fd5b8063877660191461067c5780638da5cb5b146106a9578063906f5f34146106c757806392f859db146106da578063982b691c1461072a57600080fd5b80634e31f910116101bc578063715018a611610180578063715018a6146105e75780637713d521146105fc5780637c62360f146106295780637fb2aa4d1461063c578063859092671461066957600080fd5b80634e31f910146104c3578063594193d71461052e5780635dcc4cc6146105645780636b606d9b1461059a5780636f206fc1146105ba57600080fd5b80631702bf42116102035780631702bf42146102b35780631c5dde0e146102c9578063224370f01461030b57806333ca504b1461043f578063449014901461048d57600080fd5b806303f2e05b146102355780630a0176fc1461024a5780630c0cd5321461028a5780630ce90ec2146102a0575b600080fd5b610248610243366004612885565b61097d565b005b34801561025657600080fd5b506102776102653660046128b1565b60186020526000908152604090205481565b6040519081526020015b60405180910390f35b34801561029657600080fd5b50610277600a5481565b6102486102ae3660046128b1565b610ab3565b3480156102bf57600080fd5b5061027760085481565b3480156102d557600080fd5b506102e96102e43660046128b1565b610c24565b6040805193845263ffffffff9283166020850152911690820152606001610281565b34801561031757600080fd5b50610248600180546040805160a0810182528281526000805460ff600160a01b820481166020808601828152600160a81b90940483168688019081526060870192835263ffffffff421660808801908152898b018b559986529551600389027fb10e2d527612073b26eecdfd717e6a320cf44b4afac2b0732d9fcbe2b7fa0cf681019190915593517fb10e2d527612073b26eecdfd717e6a320cf44b4afac2b0732d9fcbe2b7fa0cf785018054975193518516620100000262ff0000199486166101000261ffff19909916929095169190911796909617919091169190911790935594517fb10e2d527612073b26eecdfd717e6a320cf44b4afac2b0732d9fcbe2b7fa0cf8909501949094559183526002909152902080546001600160a01b03191633179055565b34801561044b57600080fd5b5061047561045a3660046128b1565b6010602052600090815260409020546001600160a01b031681565b6040516001600160a01b039091168152602001610281565b34801561049957600080fd5b506104756104a83660046128b1565b6012602052600090815260409020546001600160a01b031681565b3480156104cf57600080fd5b506104e36104de3660046128ca565b610c64565b6040516102819190600060a0820190508251825260ff602084015116602083015260ff604084015116604083015260ff60608401511660608301526080830151608083015292915050565b34801561053a57600080fd5b506104756105493660046128b1565b6002602052600090815260409020546001600160a01b031681565b34801561057057600080fd5b5061047561057f3660046128b1565b6011602052600090815260409020546001600160a01b031681565b3480156105a657600080fd5b506102486105b53660046128f3565b610d4b565b3480156105c657600080fd5b506105da6105d53660046128ca565b610e4b565b6040516102819190612915565b3480156105f357600080fd5b50610248610f9f565b34801561060857600080fd5b5061061c6106173660046128ca565b610fb3565b6040516102819190612978565b610248610637366004612885565b6110fb565b34801561064857600080fd5b506102776106573660046128ca565b60146020526000908152604090205481565b610248610677366004612885565b611216565b34801561068857600080fd5b506102776106973660046128ca565b60156020526000908152604090205481565b3480156106b557600080fd5b506000546001600160a01b0316610475565b6102486106d5366004612885565b61130a565b3480156106e657600080fd5b506106fa6106f53660046128b1565b6113f3565b6040805195865260ff9485166020870152928416928501929092529091166060830152608082015260a001610281565b34801561073657600080fd5b5061027760095481565b34801561074c57600080fd5b5061027761075b3660046128b1565b60166020526000908152604090205481565b34801561077957600080fd5b506102776107883660046128ca565b60136020526000908152604090205481565b3480156107a657600080fd5b506107ba6107b53660046128b1565b61143f565b6040805193845261ffff909216602084015260ff1690820152606001610281565b3480156107e757600080fd5b506102776107f63660046129df565b61147c565b34801561080757600080fd5b506102486108163660046128f3565b6115d4565b34801561082757600080fd5b5061083b6108363660046128ca565b611724565b6040516102819190612a65565b34801561085457600080fd5b506102486108633660046128f3565b611962565b34801561087457600080fd5b50610277610883366004612b41565b611a48565b34801561089457600080fd5b506102486108a33660046128f3565b611bb7565b3480156108b457600080fd5b506102486108c3366004612c20565b611d1b565b3480156108d457600080fd5b506102486108e33660046128ca565b611ee9565b3480156108f457600080fd5b506109086109033660046128b1565b611f62565b60405161028199989796959493929190612c55565b34801561092957600080fd5b506102776109383660046128b1565b60176020526000908152604090205481565b610248610958366004612885565b61204f565b34801561096957600080fd5b50610248610978366004612cac565b61215f565b60008281526012602052604090205482906001600160a01b031633146109be5760405162461bcd60e51b81526004016109b590612d34565b60405180910390fd5b601d54600f84815481106109d4576109d4612d62565b60009182526020909120600160029092020101546109fb9063ffffffff1660ff8516612d8e565b63ffffffff16610a0b9190612dba565b3414610a1657600080fd5b600080546040516001600160a01b03909116913480156108fc02929091818181858888f19350505050158015610a50573d6000803e3d6000fd5b508160ff16600f8481548110610a6857610a68612d62565b6000918252602082206001600290920201018054909190610a9090849063ffffffff16612dd9565b92506101000a81548163ffffffff021916908363ffffffff160217905550505050565b6000600a600d8381548110610aca57610aca612d62565b6000918252602090912060046009909202010154610aeb919060ff16612e17565b610af6906001612e39565b60ff16601e54610b069190612dba565b9050803414610b445760405162461bcd60e51b815260206004820152600a6024820152691ddc9bdb99c818dbdcdd60b21b60448201526064016109b5565b600080546040516001600160a01b03909116913480156108fc02929091818181858888f19350505050158015610b7e573d6000803e3d6000fd5b50600d8281548110610b9257610b92612d62565b600091825260208220600460099092020101805460ff1691610bb383612e5e565b91906101000a81548160ff021916908360ff160217905550506000600d8381548110610be157610be1612d62565b9060005260206000209060090201600601819055506000600d8381548110610c0b57610c0b612d62565b9060005260206000209060090201600701819055505050565b600f8181548110610c3457600080fd5b60009182526020909120600290910201805460019091015490915063ffffffff8082169164010000000090041683565b6040805160a081018252600080825260208201819052918101829052606081018290526080810182905290805b600154811015610cd6576000818152600260205260409020546001600160a01b03808616911603610cc457809150610cd6565b80610cce81612e7d565b915050610c91565b5060018181548110610cea57610cea612d62565b60009182526020918290206040805160a081018252600390930290910180548352600181015460ff80821695850195909552610100810485169284019290925262010000909104909216606082015260029091015460808201529392505050565b60008181526012602052604090205481906001600160a01b03163314610d835760405162461bcd60e51b81526004016109b590612d34565b60008381526010602052604090205483906001600160a01b03163314610da857600080fd5b82600d8581548110610dbc57610dbc612d62565b90600052602060002090600902016003015414610e1b5760405162461bcd60e51b815260206004820152601860248201527f6368617373697320617265206e6f74206174746163686564000000000000000060448201526064016109b5565b6000600d8581548110610e3057610e30612d62565b90600052602060002090600902016003018190555050505050565b6001600160a01b0381166000908152601560205260408120546060919067ffffffffffffffff811115610e8057610e80612b7d565b604051908082528060200260200182016040528015610ecb57816020015b6040805160608101825260008082526020808301829052928201528252600019909201910181610e9e5790505b5090506000805b600f54811015610f96576000818152601260205260409020546001600160a01b03808716911603610f8457600f8181548110610f1057610f10612d62565b6000918252602091829020604080516060810182526002909302909101805483526001015463ffffffff808216948401949094526401000000009004909216918101919091528351849084908110610f6a57610f6a612d62565b60200260200101819052508180610f8090612e7d565b9250505b80610f8e81612e7d565b915050610ed2565b50909392505050565b610fa7612359565b610fb160006123b3565b565b6001600160a01b0381166000908152601460205260408120546060919067ffffffffffffffff811115610fe857610fe8612b7d565b60405190808252806020026020018201604052801561103357816020015b60408051606081018252600080825260208083018290529282015282526000199092019101816110065790505b5090506000805b600e54811015610f96576000818152601160205260409020546001600160a01b038087169116036110e957600e818154811061107857611078612d62565b600091825260209182902060408051606081018252600293909302909101805483526001015461ffff8116938301939093526201000090920460ff169181019190915283518490849081106110cf576110cf612d62565b602002602001018190525081806110e590612e7d565b9250505b806110f381612e7d565b91505061103a565b60008281526011602052604090205482906001600160a01b0316331461112057600080fd5b600e838154811061113357611133612d62565b600091825260209091206002909102016001015461115b9062010000900460ff16600a612e96565b611166906002612f9d565b601c546111739190612dba565b341461117e57600080fd5b600080546040516001600160a01b03909116913480156108fc02929091818181858888f193505050501580156111b8573d6000803e3d6000fd5b5081600e84815481106111cd576111cd612d62565b906000526020600020906002020160010160028282829054906101000a900460ff166111f99190612e96565b92506101000a81548160ff021916908360ff160217905550505050565b60008281526002602052604090205482906001600160a01b0316331461123b57600080fd5b601a546001848154811061125157611251612d62565b600091825260209091206003909102016001015461127790610100900460ff1684612fb3565b60ff166112849190612dba565b341461128f57600080fd5b600080546040516001600160a01b03909116913480156108fc02929091818181858888f193505050501580156112c9573d6000803e3d6000fd5b5081600184815481106112de576112de612d62565b906000526020600020906003020160010160018282829054906101000a900460ff166111f99190612e39565b60008281526002602052604090205482906001600160a01b0316331461132f57600080fd5b6019546001848154811061134557611345612d62565b600091825260209091206001600390920201015461136a9060ff908116908516612dba565b6113749190612dba565b341461137f57600080fd5b600080546040516001600160a01b03909116913480156108fc02929091818181858888f193505050501580156113b9573d6000803e3d6000fd5b5081600184815481106113ce576113ce612d62565b60009182526020822060016003909202010180549091906111f990849060ff16612e39565b6001818154811061140357600080fd5b600091825260209091206003909102018054600182015460029092015490925060ff808316926101008104821692620100009091049091169085565b600e818154811061144f57600080fd5b60009182526020909120600290910201805460019091015490915061ffff81169062010000900460ff1683565b6000611486612359565b600c80546000918261149783612e7d565b909155506040805160608101825282815263ffffffff8781166020808401828152848601928352600f80546001810182556000918252955160029096027f8d1108e10bcb7c27dddfc02ed9d693a074039d026cf4ea4240b40f7d581ac80281019690965590517f8d1108e10bcb7c27dddfc02ed9d693a074039d026cf4ea4240b40f7d581ac8039095018054935185166401000000000267ffffffffffffffff1990941695909416949094179190911790915581546001600160a01b031682526015905290812080549293509061156d83612e7d565b9091555050600080548282526012602052604090912080546001600160a01b0319166001600160a01b0390921691909117905582156115cb57600081815260186020526040812084905560098054916115c583612e7d565b91905055505b90505b92915050565b60008181526011602052604090205481906001600160a01b031633146115f957600080fd5b60008381526010602052604090205483906001600160a01b0316331461161e57600080fd5b82600d858154811061163257611632612d62565b9060005260206000209060090201600201540361167f5760405162461bcd60e51b815260206004820152600b60248201526a73616d6520656e67696e6560a81b60448201526064016109b5565b600061168a33611724565b905060005b81518110156116f357848282815181106116ab576116ab612d62565b602002602001015160400151036116e15760008282815181106116d0576116d0612d62565b602002602001015160400181815250505b806116eb81612e7d565b91505061168f565b5083600d868154811061170857611708612d62565b9060005260206000209060090201600201819055505050505050565b6001600160a01b0381166000908152601360205260408120546060919067ffffffffffffffff81111561175957611759612b7d565b6040519080825280602002602001820160405280156117dc57816020015b6117c960405180610120016040528060608152602001600081526020016000815260200160008152602001600060ff168152602001600081526020016000815260200160008152602001600081525090565b8152602001906001900390816117775790505b5090506000805b600d54811015610f96576000818152601060205260409020546001600160a01b0380871691160361195057600d818154811061182157611821612d62565b90600052602060002090600902016040518061012001604052908160008201805461184b90612fd4565b80601f016020809104026020016040519081016040528092919081815260200182805461187790612fd4565b80156118c45780601f10611899576101008083540402835291602001916118c4565b820191906000526020600020905b8154815290600101906020018083116118a757829003601f168201915b5050509183525050600182015460208201526002820154604082015260038201546060820152600482015460ff166080820152600582015460a0820152600682015460c0820152600782015460e082015260089091015461010090910152835184908490811061193657611936612d62565b6020026020010181905250818061194c90612e7d565b9250505b8061195a81612e7d565b9150506117e3565b60008181526011602052604090205481906001600160a01b0316331461198757600080fd5b60008381526010602052604090205483906001600160a01b031633146119ac57600080fd5b82600d85815481106119c0576119c0612d62565b90600052602060002090600902016002015414611a185760405162461bcd60e51b8152602060048201526016602482015275195b99da5b99481a5cc81b9bdd08185d1d1858da195960521b60448201526064016109b5565b6000600d8581548110611a2d57611a2d612d62565b90600052602060002090600902016002018190555050505050565b6000611a52612359565b600b805460009182611a6383612e7d565b909155506040805160608101825282815261ffff8089166020830190815260ff808a16948401948552600e80546001810182556000918252945160029095027fbb7b4a454dc3493923482f07822329ed19e8244eff582cc204f8554c3620c3fd81019590955591517fbb7b4a454dc3493923482f07822329ed19e8244eff582cc204f8554c3620c3fe90940180549551909116620100000262ffffff19909516939092169290921792909217909155909150601490611b2a6000546001600160a01b031690565b6001600160a01b0316815260208101919091526040016000908120805491611b5183612e7d565b9091555050600080548282526011602052604090912080546001600160a01b0319166001600160a01b039092169190911790558215611baf576000818152601760205260408120849055600a805491611ba983612e7d565b91905055505b949350505050565b60008181526012602052604090205481906001600160a01b03163314611bef5760405162461bcd60e51b81526004016109b590612d34565b60008381526010602052604090205483906001600160a01b03163314611c1457600080fd5b82600d8581548110611c2857611c28612d62565b90600052602060002090600902016003015403611c765760405162461bcd60e51b815260206004820152600c60248201526b73616d65206368617373697360a01b60448201526064016109b5565b6000611c8133611724565b905060005b8151811015611cea5784828281518110611ca257611ca2612d62565b60200260200101516060015103611cd8576000828281518110611cc757611cc7612d62565b602002602001015160600181815250505b80611ce281612e7d565b915050611c86565b5083600d8681548110611cff57611cff612d62565b9060005260206000209060090201600301819055505050505050565b3360009081526013602052604090205415611d3557600080fd5b600081611d4142612403565b604051602001611d5292919061300e565b6040516020818303038152906040529050600081604051602001611d769190613034565b6040516020818303038152906040528051906020012060001c90506000611d9b612496565b90506000611da76125ca565b600d80546040805161012081018252898152602080820189905291810187905260608101859052600160808201819052600060a0830181905260c0830181905260e083018190526101008301859052908401855593909352825180519495509193600985027fd7b6990105719101dabeb77144f2a3385c8033acd3af97e9423a695e81ad1eb50192611e3d9284929101906127d6565b506020828101516001830155604080840151600284015560608401516003840155608084015160048401805460ff191660ff90921691909117905560a0840151600584015560c0840151600684015560e08401516007840155610100909301516008909201919091556000838152601082528281208054336001600160a01b0319909116811790915581526013909152908120805491611edc83612e7d565b9190505550505050505050565b611ef1612359565b6001600160a01b038116611f565760405162461bcd60e51b815260206004820152602660248201527f4f776e61626c653a206e6577206f776e657220697320746865207a65726f206160448201526564647265737360d01b60648201526084016109b5565b611f5f816123b3565b50565b600d8181548110611f7257600080fd5b9060005260206000209060090201600091509050806000018054611f9590612fd4565b80601f0160208091040260200160405190810160405280929190818152602001828054611fc190612fd4565b801561200e5780601f10611fe35761010080835404028352916020019161200e565b820191906000526020600020905b815481529060010190602001808311611ff157829003601f168201915b50505060018401546002850154600386015460048701546005880154600689015460078a01546008909a01549899959894975092955060ff90911693909289565b60008281526011602052604090205482906001600160a01b0316331461207457600080fd5b601b54600e848154811061208a5761208a612d62565b60009182526020909120600160029092020101546120af9061ffff1660ff8516613050565b61ffff166120bd9190612dba565b34146120c857600080fd5b600080546040516001600160a01b03909116913480156108fc02929091818181858888f19350505050158015612102573d6000803e3d6000fd5b508160ff16600e848154811061211a5761211a612d62565b600091825260208220600160029092020101805490919061214090849061ffff16613071565b92506101000a81548161ffff021916908361ffff160217905550505050565b612167612359565b60008661217342612403565b60405160200161218492919061300e565b60405160208183030381529060405290506000816040516020016121a89190613034565b6040516020818303038152906040528051906020012060001c905060006121d188886000611a48565b905060006121e087600061147c565b600d805460408051610120810182528e815260208082018990529181018790526060810185905260ff8b166080820152600060a0820181905260c0820181905260e08201819052610100820184905260018401855593909352825180519495509193600985027fd7b6990105719101dabeb77144f2a3385c8033acd3af97e9423a695e81ad1eb501926122779284929101906127d6565b506020828101516001830155604080840151600284015560608401516003840155608084015160048401805460ff90921660ff1990921691909117905560a0840151600584015560c0840151600684015560e0840151600784015561010090930151600890920191909155600080548482526010835283822080546001600160a01b0319166001600160a01b039283161790558154168152601390915290812080549161232383612e7d565b90915550506000818152601660205260408120879055600880549161234783612e7d565b91905055505050505050505050505050565b6000546001600160a01b03163314610fb15760405162461bcd60e51b815260206004820181905260248201527f4f776e61626c653a2063616c6c6572206973206e6f7420746865206f776e657260448201526064016109b5565b600080546001600160a01b038381166001600160a01b0319831681178455604051919092169283917f8be0079c531659141344cd1fd0a4f28419497f9722a3daafe3b4186f6b6457e09190a35050565b60606000612410836126fe565b600101905060008167ffffffffffffffff81111561243057612430612b7d565b6040519080825280601f01601f19166020018201604052801561245a576020820181803683370190505b5090508181016020015b600019016f181899199a1a9b1b9c1cb0b131b232b360811b600a86061a8153600a850494508461246457509392505050565b6000806003546004546124a9919061308e565b6124b390426130a5565b6003546124c091906130b9565b600b805491925060009190826124d583612e7d565b909155506040805160608101825282815261ffff808616602080840191825260055460ff908116858701908152600e80546001810182556000918252965160029097027fbb7b4a454dc3493923482f07822329ed19e8244eff582cc204f8554c3620c3fd81019790975593517fbb7b4a454dc3493923482f07822329ed19e8244eff582cc204f8554c3620c3fe90960180549151909216620100000262ffffff19909116959094169490941792909217909255338252601490529081208054929350906125a183612e7d565b9091555050600081815260116020526040902080546001600160a01b0319163317905592915050565b6000806006546007546125dd919061308e565b6125e790426130a5565b6006546125f491906130b9565b600c8054919250600091908261260983612e7d565b909155506040805160608101825282815263ffffffff8086166020808401828152848601928352600f80546001810182556000918252955160029096027f8d1108e10bcb7c27dddfc02ed9d693a074039d026cf4ea4240b40f7d581ac80281019690965590517f8d1108e10bcb7c27dddfc02ed9d693a074039d026cf4ea4240b40f7d581ac8039095018054935185166401000000000267ffffffffffffffff19909416959094169490941791909117909155338252601590529081208054929350906126d583612e7d565b9091555050600081815260126020526040902080546001600160a01b0319163317905592915050565b60008072184f03e93ff9f4daa797ed6e38ed64bf6a1f0160401b831061273d5772184f03e93ff9f4daa797ed6e38ed64bf6a1f0160401b830492506040015b6d04ee2d6d415b85acef81000000008310612769576d04ee2d6d415b85acef8100000000830492506020015b662386f26fc10000831061278757662386f26fc10000830492506010015b6305f5e100831061279f576305f5e100830492506008015b61271083106127b357612710830492506004015b606483106127c5576064830492506002015b600a83106115ce5760010192915050565b8280546127e290612fd4565b90600052602060002090601f016020900481019282612804576000855561284a565b82601f1061281d57805160ff191683800117855561284a565b8280016001018555821561284a579182015b8281111561284a57825182559160200191906001019061282f565b5061285692915061285a565b5090565b5b80821115612856576000815560010161285b565b803560ff8116811461288057600080fd5b919050565b6000806040838503121561289857600080fd5b823591506128a86020840161286f565b90509250929050565b6000602082840312156128c357600080fd5b5035919050565b6000602082840312156128dc57600080fd5b81356001600160a01b03811681146115cb57600080fd5b6000806040838503121561290657600080fd5b50508035926020909101359150565b602080825282518282018190526000919060409081850190868401855b8281101561296b578151805185528681015163ffffffff9081168887015290860151168585015260609093019290850190600101612932565b5091979650505050505050565b602080825282518282018190526000919060409081850190868401855b8281101561296b578151805185528681015161ffff168786015285015160ff168585015260609093019290850190600101612995565b803563ffffffff8116811461288057600080fd5b600080604083850312156129f257600080fd5b6129fb836129cb565b946020939093013593505050565b60005b83811015612a24578181015183820152602001612a0c565b83811115612a33576000848401525b50505050565b60008151808452612a51816020860160208601612a09565b601f01601f19169290920160200192915050565b60006020808301818452808551808352604092508286019150828160051b87010184880160005b83811015612b2157603f1989840301855281516101208151818652612ab382870182612a39565b915050888201518986015287820151888601526060808301518187015250608080830151612ae58288018260ff169052565b505060a0828101519086015260c0808301519086015260e080830151908601526101009182015191909401529386019390860190600101612a8c565b509098975050505050505050565b803561ffff8116811461288057600080fd5b600080600060608486031215612b5657600080fd5b612b5f84612b2f565b9250612b6d6020850161286f565b9150604084013590509250925092565b634e487b7160e01b600052604160045260246000fd5b600082601f830112612ba457600080fd5b813567ffffffffffffffff80821115612bbf57612bbf612b7d565b604051601f8301601f19908116603f01168101908282118183101715612be757612be7612b7d565b81604052838152866020858801011115612c0057600080fd5b836020870160208301376000602085830101528094505050505092915050565b600060208284031215612c3257600080fd5b813567ffffffffffffffff811115612c4957600080fd5b611baf84828501612b93565b6000610120808352612c698184018d612a39565b602084019b909b5250506040810197909752606087019590955260ff93909316608086015260a085019190915260c084015260e083015261010090910152919050565b60008060008060008060c08789031215612cc557600080fd5b863567ffffffffffffffff811115612cdc57600080fd5b612ce889828a01612b93565b965050612cf760208801612b2f565b9450612d056040880161286f565b9350612d13606088016129cb565b9250612d216080880161286f565b915060a087013590509295509295509295565b6020808252601490820152730c6d0c2e6e6d2e640dcdee840f2deeae4407c74560631b604082015260600190565b634e487b7160e01b600052603260045260246000fd5b634e487b7160e01b600052601160045260246000fd5b600063ffffffff80831681851681830481118215151615612db157612db1612d78565b02949350505050565b6000816000190483118215151615612dd457612dd4612d78565b500290565b600063ffffffff808316818516808303821115612df857612df8612d78565b01949350505050565b634e487b7160e01b600052601260045260246000fd5b600060ff831680612e2a57612e2a612e01565b8060ff84160491505092915050565b600060ff821660ff84168060ff03821115612e5657612e56612d78565b019392505050565b600060ff821660ff8103612e7457612e74612d78565b60010192915050565b600060018201612e8f57612e8f612d78565b5060010190565b600060ff821660ff841680821015612eb057612eb0612d78565b90039392505050565b600181815b80851115612ef4578160001904821115612eda57612eda612d78565b80851615612ee757918102915b93841c9390800290612ebe565b509250929050565b600082612f0b575060016115ce565b81612f18575060006115ce565b8160018114612f2e5760028114612f3857612f54565b60019150506115ce565b60ff841115612f4957612f49612d78565b50506001821b6115ce565b5060208310610133831016604e8410600b8410161715612f77575081810a6115ce565b612f818383612eb9565b8060001904821115612f9557612f95612d78565b029392505050565b6000612fac60ff841683612efc565b9392505050565b600060ff821660ff84168160ff0481118215151615612f9557612f95612d78565b600181811c90821680612fe857607f821691505b60208210810361300857634e487b7160e01b600052602260045260246000fd5b50919050565b60008351613020818460208801612a09565b835190830190612df8818360208801612a09565b60008251613046818460208701612a09565b9190910192915050565b600061ffff80831681851681830481118215151615612db157612db1612d78565b600061ffff808316818516808303821115612df857612df8612d78565b6000828210156130a0576130a0612d78565b500390565b6000826130b4576130b4612e01565b500690565b600082198211156130cc576130cc612d78565b50019056fea2646970667358221220b489d9b9812fd979522fbef9b51967e16145960a1f1e665cd92ba8470a5715a364736f6c634300080d0033",
  "immutableReferences": {},
  "source": "// SPDX-License-Identifier: MIT\npragma solidity ^0.8.13;\n\nimport \"./CarFactory.sol\";\nimport \"../node_modules/@openzeppelin/contracts/utils/Strings.sol\";\n\n\ncontract CarHelper is CarFactory {\n\n    uint capacityCoef = 0.00001 ether;\n    uint productionPerHourCoef = 0.0002 ether;\n    uint horsePowersCoef = 0.000015 ether;\n    uint consumtionCoef = 0.005 ether;\n    uint durabilityCoef = 0.0000000001 ether;\n    uint levelUpCost = 0.001 ether;\n\n    modifier onlyOwnerOfCar(uint _carId) {\n        require(msg.sender == carToOwner[_carId]);\n        _;\n    }\n\n    modifier onlyOwnerOfEngine(uint _engineId) {\n        require(msg.sender == engineToOwner[_engineId]);\n        _;\n    }\n\n    modifier onlyOwnerOfChassis(uint _chassisId) {\n        require(msg.sender == chassisToOwner[_chassisId], \"chassis not your >:(\");\n        _;\n    }\n\n    modifier onlyOwnerOfFuelStation(uint _fuelStationId) {\n        require(msg.sender == fuelStationToOwner[_fuelStationId]);\n        _;\n    }\n\n    function switchEngine(uint carId, uint engineId) public onlyOwnerOfEngine(engineId) onlyOwnerOfCar(carId){\n        require(cars[carId].engineId != engineId, \"same engine\");\n        Car[] memory cc = getCarsByOwner(msg.sender);\n        for(uint i = 0; i<cc.length; i++){\n            if(cc[i].engineId == engineId){\n                cc[i].engineId = 0;\n            }\n        }\n        cars[carId].engineId = engineId;\n    }\n\n    function switchChassis(uint carId, uint chassisId) public onlyOwnerOfChassis(chassisId) onlyOwnerOfCar(carId){\n        require(cars[carId].chassisId != chassisId, \"same chassis\");\n        Car[] memory cc = getCarsByOwner(msg.sender);\n        for(uint i = 0; i<cc.length; i++){\n            if(cc[i].chassisId == chassisId){\n                cc[i].chassisId = 0;\n            }\n        }\n        cars[carId].chassisId = chassisId;\n    }\n\n    function detachEngine(uint carId, uint engineId) public onlyOwnerOfEngine(engineId) onlyOwnerOfCar(carId){\n        require(cars[carId].engineId == engineId, \"engine is not attached\");\n        cars[carId].engineId = 0;\n    }\n    function detachChassis(uint carId, uint chassisId) public onlyOwnerOfChassis(chassisId) onlyOwnerOfCar(carId){\n        require(cars[carId].chassisId == chassisId, \"chassis are not attached\");\n        cars[carId].chassisId = 0;\n    }\n\n\n    function getFuelStationByOwner(address _owner) public view returns(FuelStation memory){\n        uint resId;\n        for (uint i = 0; i < stations.length; i++) {\n            if (fuelStationToOwner[i] == _owner) {\n               resId = i;\n               break;\n            }\n        }\n        return stations[resId];\n    }\n\n    function getEnginesByOwner(address _owner) public view returns(Engine[] memory) {\n        Engine[] memory result = new Engine[](ownerEngineCount[_owner]);\n        uint counter = 0;\n        for (uint i = 0; i < engines.length; i++) {\n            if (engineToOwner[i] == _owner) {\n                result[counter] = engines[i];\n                counter++;\n            }\n        }\n        return result;\n    }\n\n    function getChassisByOwner(address _owner) public view returns(Chassis[] memory) {\n        Chassis[] memory result = new Chassis[](ownerChassisCount[_owner]);\n        uint counter = 0;\n        for (uint i = 0; i < chassis.length; i++) {\n            if (chassisToOwner[i] == _owner) {\n                result[counter] = chassis[i];\n                counter++;\n            }\n        }\n        return result;\n    }\n\n    function getCarsByOwner(address _owner) public view returns(Car[] memory) {\n        Car[] memory result = new Car[](ownerCarCount[_owner]);\n        uint counter = 0;\n        for (uint i = 0; i < cars.length; i++) {\n            if (carToOwner[i] == _owner) {\n                result[counter] = cars[i];\n                counter++;\n            }\n        }\n        return result;\n    }\n\n    function upgradeCapacity(uint _fuelStatonId, uint8 _counts) external payable onlyOwnerOfFuelStation(_fuelStatonId) {\n        require(msg.value == (uint(_counts) * uint(stations[_fuelStatonId].capacity) * capacityCoef));\n        payable(owner()).transfer(msg.value);\n        stations[_fuelStatonId].capacity += _counts; \n    }\n\n\n    // 6000000000000000\n    // curCapacity = 60\n    // _counts = 10\n    // => val = 10 * 60 * 0.00001 \n    // 6 * 0.001 = 0.006 eth\n\n    function upgradeProductionPerHour(uint _fuelStatonId, uint8 _counts) external payable onlyOwnerOfFuelStation(_fuelStatonId) {\n        require(msg.value == (_counts * stations[_fuelStatonId].productionPerHour * productionPerHourCoef));\n        payable(owner()).transfer(msg.value);\n        stations[_fuelStatonId].productionPerHour += _counts; \n    }\n\n    function upgradeHorsePowers(uint _engineId, uint8 _counts) external payable onlyOwnerOfEngine(_engineId) {\n        require(msg.value == (_counts * engines[_engineId].horsePowers * horsePowersCoef));\n        payable(owner()).transfer(msg.value);\n        engines[_engineId].horsePowers += _counts; \n    }\n\n    function upgradeConsumtion(uint _engineId, uint8 _counts) external payable onlyOwnerOfEngine(_engineId) {\n        require(msg.value == consumtionCoef * 2**(10 - engines[_engineId].consumtion));\n        payable(owner()).transfer(msg.value);\n        engines[_engineId].consumtion -= _counts; \n    }\n\n    function upgradeDurability(uint _chassisId, uint8 _counts) external payable onlyOwnerOfChassis(_chassisId) {\n        require(msg.value == (_counts * chassis[_chassisId].durability * durabilityCoef));\n        payable(owner()).transfer(msg.value);\n        chassis[_chassisId].durability += _counts; \n    }\n\n    function levelUp(uint _carId) external payable {\n        uint r = levelUpCost * (cars[_carId].carLevel/10 + 1);\n        require(msg.value == r, \"wrong cost\");\n        //require(cars[_carId].winCountOnCurrentLevel >= (cars[_carId].carLevel + 1), \"level is\");\n        payable(owner()).transfer(msg.value);\n        cars[_carId].carLevel++;\n        cars[_carId].winCountOnCurrentLevel = 0;\n        cars[_carId].lossCountOnCurrentLevel = 0;\n    }\n\n}\n",
  "sourcePath": "/Users/vvan/Programming/JavaScript/DriveSafely/contract/contracts/CarHelper.sol",
  "compiler": {
    "name": "solc",
    "version": "0.8.13+commit.abaa5c0e.Emscripten.clang"
  },
  "schemaVersion": "3.4.11",
  "updatedAt": "2023-01-12T05:49:46.565Z",
  "networkType": "ethereum",
  "devdoc": {
    "kind": "dev",
    "methods": {
      "owner()": {
        "details": "Returns the address of the current owner."
      },
      "renounceOwnership()": {
        "details": "Leaves the contract without owner. It will not be possible to call `onlyOwner` functions anymore. Can only be called by the current owner. NOTE: Renouncing ownership will leave the contract without an owner, thereby removing any functionality that is only available to the owner."
      },
      "transferOwnership(address)": {
        "details": "Transfers ownership of the contract to a new account (`newOwner`). Can only be called by the current owner."
      }
    },
    "version": 1
  },
  "userdoc": {
    "kind": "user",
    "methods": {},
    "version": 1
  }
}