{
  "contractName": "CarHelper",
  "abi": [
    {
      "anonymous": false,
      "inputs": [
        {
          "indexed": true,
          "internalType": "address",
          "name": "previousOwner",
          "type": "address"
        },
        {
          "indexed": true,
          "internalType": "address",
          "name": "newOwner",
          "type": "address"
        }
      ],
      "name": "OwnershipTransferred",
      "type": "event"
    },
    {
      "inputs": [
        {
          "internalType": "uint256",
          "name": "",
          "type": "uint256"
        }
      ],
      "name": "carToOwner",
      "outputs": [
        {
          "internalType": "address",
          "name": "",
          "type": "address"
        }
      ],
      "stateMutability": "view",
      "type": "function",
      "constant": true
    },
    {
      "inputs": [
        {
          "internalType": "uint256",
          "name": "",
          "type": "uint256"
        }
      ],
      "name": "cars",
      "outputs": [
        {
          "internalType": "string",
          "name": "model",
          "type": "string"
        },
        {
          "internalType": "uint256",
          "name": "vin",
          "type": "uint256"
        },
        {
          "internalType": "uint256",
          "name": "engineId",
          "type": "uint256"
        },
        {
          "internalType": "uint256",
          "name": "chassisId",
          "type": "uint256"
        },
        {
          "internalType": "uint8",
          "name": "carLevel",
          "type": "uint8"
        },
        {
          "internalType": "uint256",
          "name": "mileage",
          "type": "uint256"
        },
        {
          "internalType": "uint256",
          "name": "winCountOnCurrentLevel",
          "type": "uint256"
        },
        {
          "internalType": "uint256",
          "name": "lossCountOnCurrentLevel",
          "type": "uint256"
        }
      ],
      "stateMutability": "view",
      "type": "function",
      "constant": true
    },
    {
      "inputs": [
        {
          "internalType": "uint256",
          "name": "",
          "type": "uint256"
        }
      ],
      "name": "chassis",
      "outputs": [
        {
          "internalType": "uint256",
          "name": "id",
          "type": "uint256"
        },
        {
          "internalType": "uint32",
          "name": "durability",
          "type": "uint32"
        },
        {
          "internalType": "uint32",
          "name": "resource",
          "type": "uint32"
        }
      ],
      "stateMutability": "view",
      "type": "function",
      "constant": true
    },
    {
      "inputs": [
        {
          "internalType": "uint256",
          "name": "",
          "type": "uint256"
        }
      ],
      "name": "chassisToOwner",
      "outputs": [
        {
          "internalType": "address",
          "name": "",
          "type": "address"
        }
      ],
      "stateMutability": "view",
      "type": "function",
      "constant": true
    },
    {
      "inputs": [],
      "name": "createCar",
      "outputs": [],
      "stateMutability": "nonpayable",
      "type": "function"
    },
    {
      "inputs": [],
      "name": "createFuelStation",
      "outputs": [],
      "stateMutability": "nonpayable",
      "type": "function"
    },
    {
      "inputs": [
        {
          "internalType": "uint256",
          "name": "",
          "type": "uint256"
        }
      ],
      "name": "engineToOwner",
      "outputs": [
        {
          "internalType": "address",
          "name": "",
          "type": "address"
        }
      ],
      "stateMutability": "view",
      "type": "function",
      "constant": true
    },
    {
      "inputs": [
        {
          "internalType": "uint256",
          "name": "",
          "type": "uint256"
        }
      ],
      "name": "engines",
      "outputs": [
        {
          "internalType": "uint256",
          "name": "id",
          "type": "uint256"
        },
        {
          "internalType": "uint16",
          "name": "horsePowers",
          "type": "uint16"
        },
        {
          "internalType": "uint16",
          "name": "consumtion",
          "type": "uint16"
        }
      ],
      "stateMutability": "view",
      "type": "function",
      "constant": true
    },
    {
      "inputs": [
        {
          "internalType": "uint256",
          "name": "",
          "type": "uint256"
        }
      ],
      "name": "fuelStationToOwner",
      "outputs": [
        {
          "internalType": "address",
          "name": "",
          "type": "address"
        }
      ],
      "stateMutability": "view",
      "type": "function",
      "constant": true
    },
    {
      "inputs": [],
      "name": "owner",
      "outputs": [
        {
          "internalType": "address",
          "name": "",
          "type": "address"
        }
      ],
      "stateMutability": "view",
      "type": "function",
      "constant": true
    },
    {
      "inputs": [],
      "name": "renounceOwnership",
      "outputs": [],
      "stateMutability": "nonpayable",
      "type": "function"
    },
    {
      "inputs": [
        {
          "internalType": "uint256",
          "name": "",
          "type": "uint256"
        }
      ],
      "name": "stations",
      "outputs": [
        {
          "internalType": "uint256",
          "name": "id",
          "type": "uint256"
        },
        {
          "internalType": "uint8",
          "name": "capacity",
          "type": "uint8"
        },
        {
          "internalType": "uint8",
          "name": "productionPerHour",
          "type": "uint8"
        }
      ],
      "stateMutability": "view",
      "type": "function",
      "constant": true
    },
    {
      "inputs": [
        {
          "internalType": "address",
          "name": "newOwner",
          "type": "address"
        }
      ],
      "name": "transferOwnership",
      "outputs": [],
      "stateMutability": "nonpayable",
      "type": "function"
    },
    {
      "inputs": [
        {
          "internalType": "address",
          "name": "_owner",
          "type": "address"
        }
      ],
      "name": "getFuelStationByOwner",
      "outputs": [
        {
          "internalType": "uint256",
          "name": "",
          "type": "uint256"
        }
      ],
      "stateMutability": "view",
      "type": "function",
      "constant": true
    },
    {
      "inputs": [
        {
          "internalType": "address",
          "name": "_owner",
          "type": "address"
        }
      ],
      "name": "getEnginesByOwner",
      "outputs": [
        {
          "internalType": "uint256[]",
          "name": "",
          "type": "uint256[]"
        }
      ],
      "stateMutability": "view",
      "type": "function",
      "constant": true
    },
    {
      "inputs": [
        {
          "internalType": "address",
          "name": "_owner",
          "type": "address"
        }
      ],
      "name": "getChassisByOwner",
      "outputs": [
        {
          "internalType": "uint256[]",
          "name": "",
          "type": "uint256[]"
        }
      ],
      "stateMutability": "view",
      "type": "function",
      "constant": true
    },
    {
      "inputs": [
        {
          "internalType": "address",
          "name": "_owner",
          "type": "address"
        }
      ],
      "name": "getCarsByOwner",
      "outputs": [
        {
          "components": [
            {
              "internalType": "string",
              "name": "model",
              "type": "string"
            },
            {
              "internalType": "uint256",
              "name": "vin",
              "type": "uint256"
            },
            {
              "internalType": "uint256",
              "name": "engineId",
              "type": "uint256"
            },
            {
              "internalType": "uint256",
              "name": "chassisId",
              "type": "uint256"
            },
            {
              "internalType": "uint8",
              "name": "carLevel",
              "type": "uint8"
            },
            {
              "internalType": "uint256",
              "name": "mileage",
              "type": "uint256"
            },
            {
              "internalType": "uint256",
              "name": "winCountOnCurrentLevel",
              "type": "uint256"
            },
            {
              "internalType": "uint256",
              "name": "lossCountOnCurrentLevel",
              "type": "uint256"
            }
          ],
          "internalType": "struct CarFactory.Car[]",
          "name": "",
          "type": "tuple[]"
        }
      ],
      "stateMutability": "view",
      "type": "function",
      "constant": true
    },
    {
      "inputs": [
        {
          "internalType": "uint256",
          "name": "_fuelStatonId",
          "type": "uint256"
        },
        {
          "internalType": "uint8",
          "name": "_counts",
          "type": "uint8"
        }
      ],
      "name": "upgradeCapacity",
      "outputs": [],
      "stateMutability": "payable",
      "type": "function",
      "payable": true
    },
    {
      "inputs": [
        {
          "internalType": "uint256",
          "name": "_fuelStatonId",
          "type": "uint256"
        },
        {
          "internalType": "uint8",
          "name": "_counts",
          "type": "uint8"
        }
      ],
      "name": "upgradeProductionPerHour",
      "outputs": [],
      "stateMutability": "payable",
      "type": "function",
      "payable": true
    },
    {
      "inputs": [
        {
          "internalType": "uint256",
          "name": "_engineId",
          "type": "uint256"
        },
        {
          "internalType": "uint8",
          "name": "_counts",
          "type": "uint8"
        }
      ],
      "name": "upgradeHorsePowers",
      "outputs": [],
      "stateMutability": "payable",
      "type": "function",
      "payable": true
    },
    {
      "inputs": [
        {
          "internalType": "uint256",
          "name": "_engineId",
          "type": "uint256"
        },
        {
          "internalType": "uint8",
          "name": "_counts",
          "type": "uint8"
        }
      ],
      "name": "upgradeConsumtion",
      "outputs": [],
      "stateMutability": "payable",
      "type": "function",
      "payable": true
    },
    {
      "inputs": [
        {
          "internalType": "uint256",
          "name": "_chassisId",
          "type": "uint256"
        },
        {
          "internalType": "uint8",
          "name": "_counts",
          "type": "uint8"
        }
      ],
      "name": "upgradeDurability",
      "outputs": [],
      "stateMutability": "payable",
      "type": "function",
      "payable": true
    }
  ],
  "bytecode": "0x6080604052603c600060146101000a81548160ff021916908360ff1602179055506005600060156101000a81548160ff021916908360ff16021790555060006009556000600a556509184e72a00060145565b5e620f48000601555650da475abf00060165567016345785d8a00006017556305f5e1006018553480156200008557600080fd5b50620000a66200009a620000e060201b60201c565b620000e860201b60201c565b605a600381905550606560048190555060126005819055506015600681905550620186a06007819055506201d4c1600881905550620001ac565b600033905090565b60008060009054906101000a900473ffffffffffffffffffffffffffffffffffffffff169050816000806101000a81548173ffffffffffffffffffffffffffffffffffffffff021916908373ffffffffffffffffffffffffffffffffffffffff1602179055508173ffffffffffffffffffffffffffffffffffffffff168173ffffffffffffffffffffffffffffffffffffffff167f8be0079c531659141344cd1fd0a4f28419497f9722a3daafe3b4186f6b6457e060405160405180910390a35050565b612db780620001bc6000396000f3fe6080604052600436106101355760003560e01c80637c62360f116100ab578063b72c0eea1161006f578063b72c0eea1461042c578063c75bb4f41461046b578063e77100d4146104a8578063f2fde38b146104bf578063f7746e36146104e8578063faf4bb981461052c57610135565b80637c62360f1461036e578063859092671461038a5780638da5cb5b146103a6578063906f5f34146103d157806392f859db146103ed57610135565b80634e31f910116100fd5780634e31f91014610226578063594193d7146102635780635dcc4cc6146102a05780636f206fc1146102dd578063715018a61461031a5780637713d5211461033157610135565b806303f2e05b1461013a5780631c5dde0e14610156578063224370f01461019557806333ca504b146101ac57806344901490146101e9575b600080fd5b610154600480360381019061014f919061204a565b610548565b005b34801561016257600080fd5b5061017d6004803603810190610178919061208a565b610680565b60405161018c939291906120e5565b60405180910390f35b3480156101a157600080fd5b506101aa6106da565b005b3480156101b857600080fd5b506101d360048036038101906101ce919061208a565b6107f7565b6040516101e0919061215d565b60405180910390f35b3480156101f557600080fd5b50610210600480360381019061020b919061208a565b61082a565b60405161021d919061215d565b60405180910390f35b34801561023257600080fd5b5061024d600480360381019061024891906121a4565b61085d565b60405161025a91906121d1565b60405180910390f35b34801561026f57600080fd5b5061028a6004803603810190610285919061208a565b6108fb565b604051610297919061215d565b60405180910390f35b3480156102ac57600080fd5b506102c760048036038101906102c2919061208a565b61092e565b6040516102d4919061215d565b60405180910390f35b3480156102e957600080fd5b5061030460048036038101906102ff91906121a4565b610961565b60405161031191906122aa565b60405180910390f35b34801561032657600080fd5b5061032f610ab3565b005b34801561033d57600080fd5b50610358600480360381019061035391906121a4565b610ac7565b60405161036591906122aa565b60405180910390f35b6103886004803603810190610383919061204a565b610c19565b005b6103a4600480360381019061039f919061204a565b610d53565b005b3480156103b257600080fd5b506103bb610e76565b6040516103c8919061215d565b60405180910390f35b6103eb60048036038101906103e6919061204a565b610e9f565b005b3480156103f957600080fd5b50610414600480360381019061040f919061208a565b610fc2565b604051610423939291906122db565b60405180910390f35b34801561043857600080fd5b50610453600480360381019061044e919061208a565b611016565b6040516104629392919061232f565b60405180910390f35b34801561047757600080fd5b50610492600480360381019061048d91906121a4565b61106c565b60405161049f9190612580565b60405180910390f35b3480156104b457600080fd5b506104bd6112e0565b005b3480156104cb57600080fd5b506104e660048036038101906104e191906121a4565b61157b565b005b3480156104f457600080fd5b5061050f600480360381019061050a919061208a565b6115fe565b6040516105239897969594939291906125ec565b60405180910390f35b6105466004803603810190610541919061204a565b6116eb565b005b816010600082815260200190815260200160002060009054906101000a900473ffffffffffffffffffffffffffffffffffffffff1673ffffffffffffffffffffffffffffffffffffffff163373ffffffffffffffffffffffffffffffffffffffff16146105b457600080fd5b601854600d84815481106105cb576105ca612671565b5b906000526020600020906002020160010160009054906101000a900463ffffffff168360ff166105fb91906126cf565b63ffffffff1661060b919061270d565b341461061657600080fd5b8160ff16600d848154811061062e5761062d612671565b5b906000526020600020906002020160010160008282829054906101000a900463ffffffff1661065d9190612767565b92506101000a81548163ffffffff021916908363ffffffff160217905550505050565b600d818154811061069057600080fd5b90600052602060002090600202016000915090508060000154908060010160009054906101000a900463ffffffff16908060010160049054906101000a900463ffffffff16905083565b60003390506000600180549050905060016040518060600160405280838152602001600060149054906101000a900460ff1660ff168152602001600060159054906101000a900460ff1660ff1681525090806001815401808255809150506001900390600052602060002090600202016000909190919091506000820151816000015560208201518160010160006101000a81548160ff021916908360ff16021790555060408201518160010160016101000a81548160ff021916908360ff1602179055505050816002600083815260200190815260200160002060006101000a81548173ffffffffffffffffffffffffffffffffffffffff021916908373ffffffffffffffffffffffffffffffffffffffff1602179055505050565b600e6020528060005260406000206000915054906101000a900473ffffffffffffffffffffffffffffffffffffffff1681565b60106020528060005260406000206000915054906101000a900473ffffffffffffffffffffffffffffffffffffffff1681565b60008060005b6001805490508110156108f1578373ffffffffffffffffffffffffffffffffffffffff166002600083815260200190815260200160002060009054906101000a900473ffffffffffffffffffffffffffffffffffffffff1673ffffffffffffffffffffffffffffffffffffffff16036108de578091506108f1565b80806108e9906127a1565b915050610863565b5080915050919050565b60026020528060005260406000206000915054906101000a900473ffffffffffffffffffffffffffffffffffffffff1681565b600f6020528060005260406000206000915054906101000a900473ffffffffffffffffffffffffffffffffffffffff1681565b60606000601260008473ffffffffffffffffffffffffffffffffffffffff1673ffffffffffffffffffffffffffffffffffffffff1681526020019081526020016000205467ffffffffffffffff8111156109be576109bd6127e9565b5b6040519080825280602002602001820160405280156109ec5781602001602082028036833780820191505090505b5090506000805b600d80549050811015610aa8578473ffffffffffffffffffffffffffffffffffffffff166010600083815260200190815260200160002060009054906101000a900473ffffffffffffffffffffffffffffffffffffffff1673ffffffffffffffffffffffffffffffffffffffff1603610a955780838381518110610a7a57610a79612671565b5b6020026020010181815250508180610a91906127a1565b9250505b8080610aa0906127a1565b9150506109f3565b508192505050919050565b610abb611819565b610ac56000611897565b565b60606000601260008473ffffffffffffffffffffffffffffffffffffffff1673ffffffffffffffffffffffffffffffffffffffff1681526020019081526020016000205467ffffffffffffffff811115610b2457610b236127e9565b5b604051908082528060200260200182016040528015610b525781602001602082028036833780820191505090505b5090506000805b600c80549050811015610c0e578473ffffffffffffffffffffffffffffffffffffffff16600f600083815260200190815260200160002060009054906101000a900473ffffffffffffffffffffffffffffffffffffffff1673ffffffffffffffffffffffffffffffffffffffff1603610bfb5780838381518110610be057610bdf612671565b5b6020026020010181815250508180610bf7906127a1565b9250505b8080610c06906127a1565b915050610b59565b508192505050919050565b81600f600082815260200190815260200160002060009054906101000a900473ffffffffffffffffffffffffffffffffffffffff1673ffffffffffffffffffffffffffffffffffffffff163373ffffffffffffffffffffffffffffffffffffffff1614610c8557600080fd5b601754600c8481548110610c9c57610c9b612671565b5b906000526020600020906002020160010160029054906101000a900461ffff16600284610cc9919061294b565b60ff16610cd691906129a6565b61ffff16610ce4919061270d565b3414610cef57600080fd5b8160ff16600c8481548110610d0757610d06612671565b5b906000526020600020906002020160010160028282829054906101000a900461ffff16610d3491906129d7565b92506101000a81548161ffff021916908361ffff160217905550505050565b816002600082815260200190815260200160002060009054906101000a900473ffffffffffffffffffffffffffffffffffffffff1673ffffffffffffffffffffffffffffffffffffffff163373ffffffffffffffffffffffffffffffffffffffff1614610dbf57600080fd5b60155460018481548110610dd657610dd5612671565b5b906000526020600020906002020160010160019054906101000a900460ff1683610e009190612a0b565b60ff16610e0d919061270d565b3414610e1857600080fd5b8160018481548110610e2d57610e2c612671565b5b906000526020600020906002020160010160018282829054906101000a900460ff16610e599190612a46565b92506101000a81548160ff021916908360ff160217905550505050565b60008060009054906101000a900473ffffffffffffffffffffffffffffffffffffffff16905090565b816002600082815260200190815260200160002060009054906101000a900473ffffffffffffffffffffffffffffffffffffffff1673ffffffffffffffffffffffffffffffffffffffff163373ffffffffffffffffffffffffffffffffffffffff1614610f0b57600080fd5b60145460018481548110610f2257610f21612671565b5b906000526020600020906002020160010160009054906101000a900460ff1683610f4c9190612a0b565b60ff16610f59919061270d565b3414610f6457600080fd5b8160018481548110610f7957610f78612671565b5b906000526020600020906002020160010160008282829054906101000a900460ff16610fa59190612a46565b92506101000a81548160ff021916908360ff160217905550505050565b60018181548110610fd257600080fd5b90600052602060002090600202016000915090508060000154908060010160009054906101000a900460ff16908060010160019054906101000a900460ff16905083565b600c818154811061102657600080fd5b90600052602060002090600202016000915090508060000154908060010160009054906101000a900461ffff16908060010160029054906101000a900461ffff16905083565b60606000601160008473ffffffffffffffffffffffffffffffffffffffff1673ffffffffffffffffffffffffffffffffffffffff1681526020019081526020016000205467ffffffffffffffff8111156110c9576110c86127e9565b5b60405190808252806020026020018201604052801561110257816020015b6110ef611eeb565b8152602001906001900390816110e75790505b5090506000805b600d805490508110156112d5578473ffffffffffffffffffffffffffffffffffffffff16600e600083815260200190815260200160002060009054906101000a900473ffffffffffffffffffffffffffffffffffffffff1673ffffffffffffffffffffffffffffffffffffffff16036112c257600b81815481106111905761118f612671565b5b9060005260206000209060080201604051806101000160405290816000820180546111ba90612aac565b80601f01602080910402602001604051908101604052809291908181526020018280546111e690612aac565b80156112335780601f1061120857610100808354040283529160200191611233565b820191906000526020600020905b81548152906001019060200180831161121657829003601f168201915b505050505081526020016001820154815260200160028201548152602001600382015481526020016004820160009054906101000a900460ff1660ff1660ff16815260200160058201548152602001600682015481526020016007820154815250508383815181106112a8576112a7612671565b5b602002602001018190525081806112be906127a1565b9250505b80806112cd906127a1565b915050611109565b508192505050919050565b6000601160003373ffffffffffffffffffffffffffffffffffffffff1673ffffffffffffffffffffffffffffffffffffffff168152602001908152602001600020541461132c57600080fd5b60006040518060400160405280600581526020017f6d6f64656c00000000000000000000000000000000000000000000000000000081525090506000816113724261195b565b604051602001611383929190612b19565b60405160208183030381529060405290506000816040516020016113a79190612b3d565b6040516020818303038152906040528051906020012060001c905060006113cc611a29565b905060006113d8611bed565b90506000600b805490509050600b604051806101000160405280888152602001868152602001858152602001848152602001600160ff168152602001600081526020016000815260200160008152509080600181540180825580915050600190039060005260206000209060080201600090919091909150600082015181600001908051906020019061146c929190611f33565b5060208201518160010155604082015181600201556060820151816003015560808201518160040160006101000a81548160ff021916908360ff16021790555060a0820151816005015560c0820151816006015560e08201518160070155505033600e600083815260200190815260200160002060006101000a81548173ffffffffffffffffffffffffffffffffffffffff021916908373ffffffffffffffffffffffffffffffffffffffff160217905550601160003373ffffffffffffffffffffffffffffffffffffffff1673ffffffffffffffffffffffffffffffffffffffff168152602001908152602001600020600081548092919061156e906127a1565b9190505550505050505050565b611583611819565b600073ffffffffffffffffffffffffffffffffffffffff168173ffffffffffffffffffffffffffffffffffffffff16036115f2576040517f08c379a00000000000000000000000000000000000000000000000000000000081526004016115e990612bc6565b60405180910390fd5b6115fb81611897565b50565b600b818154811061160e57600080fd5b906000526020600020906008020160009150905080600001805461163190612aac565b80601f016020809104026020016040519081016040528092919081815260200182805461165d90612aac565b80156116aa5780601f1061167f576101008083540402835291602001916116aa565b820191906000526020600020905b81548152906001019060200180831161168d57829003601f168201915b5050505050908060010154908060020154908060030154908060040160009054906101000a900460ff16908060050154908060060154908060070154905088565b81600f600082815260200190815260200160002060009054906101000a900473ffffffffffffffffffffffffffffffffffffffff1673ffffffffffffffffffffffffffffffffffffffff163373ffffffffffffffffffffffffffffffffffffffff161461175757600080fd5b601654600c848154811061176e5761176d612671565b5b906000526020600020906002020160010160009054906101000a900461ffff168360ff1661179c9190612be6565b61ffff166117aa919061270d565b34146117b557600080fd5b8160ff16600c84815481106117cd576117cc612671565b5b906000526020600020906002020160010160008282829054906101000a900461ffff166117fa9190612c22565b92506101000a81548161ffff021916908361ffff160217905550505050565b611821611d90565b73ffffffffffffffffffffffffffffffffffffffff1661183f610e76565b73ffffffffffffffffffffffffffffffffffffffff1614611895576040517f08c379a000000000000000000000000000000000000000000000000000000000815260040161188c90612ca6565b60405180910390fd5b565b60008060009054906101000a900473ffffffffffffffffffffffffffffffffffffffff169050816000806101000a81548173ffffffffffffffffffffffffffffffffffffffff021916908373ffffffffffffffffffffffffffffffffffffffff1602179055508173ffffffffffffffffffffffffffffffffffffffff168173ffffffffffffffffffffffffffffffffffffffff167f8be0079c531659141344cd1fd0a4f28419497f9722a3daafe3b4186f6b6457e060405160405180910390a35050565b60606000600161196a84611d98565b01905060008167ffffffffffffffff811115611989576119886127e9565b5b6040519080825280601f01601f1916602001820160405280156119bb5781602001600182028036833780820191505090505b509050600082602001820190505b600115611a1e578080600190039150507f3031323334353637383961626364656600000000000000000000000000000000600a86061a8153600a8581611a1257611a11612977565b5b049450600085036119c9575b819350505050919050565b600080600354600454611a3c9190612cc6565b42611a479190612cfa565b600354611a549190612d2b565b90506000600554600654611a689190612cc6565b42611a739190612cfa565b600554611a809190612d2b565b9050600060096000815480929190611a97906127a1565b919050559050600c60405180606001604052808381526020018561ffff1681526020018461ffff1681525090806001815401808255809150506001900390600052602060002090600202016000909190919091506000820151816000015560208201518160010160006101000a81548161ffff021916908361ffff16021790555060408201518160010160026101000a81548161ffff021916908361ffff1602179055505050601260003373ffffffffffffffffffffffffffffffffffffffff1673ffffffffffffffffffffffffffffffffffffffff1681526020019081526020016000206000815480929190611b8d906127a1565b919050555033600f600083815260200190815260200160002060006101000a81548173ffffffffffffffffffffffffffffffffffffffff021916908373ffffffffffffffffffffffffffffffffffffffff16021790555080935050505090565b600080600754600854611c009190612cc6565b42611c0b9190612cfa565b600754611c189190612d2b565b90506000600a6000815480929190611c2f906127a1565b919050559050600d60405180606001604052808381526020018463ffffffff1681526020018463ffffffff1681525090806001815401808255809150506001900390600052602060002090600202016000909190919091506000820151816000015560208201518160010160006101000a81548163ffffffff021916908363ffffffff16021790555060408201518160010160046101000a81548163ffffffff021916908363ffffffff1602179055505050601360003373ffffffffffffffffffffffffffffffffffffffff1673ffffffffffffffffffffffffffffffffffffffff1681526020019081526020016000206000815480929190611d31906127a1565b9190505550336010600083815260200190815260200160002060006101000a81548173ffffffffffffffffffffffffffffffffffffffff021916908373ffffffffffffffffffffffffffffffffffffffff160217905550809250505090565b600033905090565b600080600090507a184f03e93ff9f4daa797ed6e38ed64bf6a1f0100000000000000008310611df6577a184f03e93ff9f4daa797ed6e38ed64bf6a1f0100000000000000008381611dec57611deb612977565b5b0492506040810190505b6d04ee2d6d415b85acef81000000008310611e33576d04ee2d6d415b85acef81000000008381611e2957611e28612977565b5b0492506020810190505b662386f26fc100008310611e6257662386f26fc100008381611e5857611e57612977565b5b0492506010810190505b6305f5e1008310611e8b576305f5e1008381611e8157611e80612977565b5b0492506008810190505b6127108310611eb0576127108381611ea657611ea5612977565b5b0492506004810190505b60648310611ed35760648381611ec957611ec8612977565b5b0492506002810190505b600a8310611ee2576001810190505b80915050919050565b60405180610100016040528060608152602001600081526020016000815260200160008152602001600060ff1681526020016000815260200160008152602001600081525090565b828054611f3f90612aac565b90600052602060002090601f016020900481019282611f615760008555611fa8565b82601f10611f7a57805160ff1916838001178555611fa8565b82800160010185558215611fa8579182015b82811115611fa7578251825591602001919060010190611f8c565b5b509050611fb59190611fb9565b5090565b5b80821115611fd2576000816000905550600101611fba565b5090565b600080fd5b6000819050919050565b611fee81611fdb565b8114611ff957600080fd5b50565b60008135905061200b81611fe5565b92915050565b600060ff82169050919050565b61202781612011565b811461203257600080fd5b50565b6000813590506120448161201e565b92915050565b6000806040838503121561206157612060611fd6565b5b600061206f85828601611ffc565b925050602061208085828601612035565b9150509250929050565b6000602082840312156120a05761209f611fd6565b5b60006120ae84828501611ffc565b91505092915050565b6120c081611fdb565b82525050565b600063ffffffff82169050919050565b6120df816120c6565b82525050565b60006060820190506120fa60008301866120b7565b61210760208301856120d6565b61211460408301846120d6565b949350505050565b600073ffffffffffffffffffffffffffffffffffffffff82169050919050565b60006121478261211c565b9050919050565b6121578161213c565b82525050565b6000602082019050612172600083018461214e565b92915050565b6121818161213c565b811461218c57600080fd5b50565b60008135905061219e81612178565b92915050565b6000602082840312156121ba576121b9611fd6565b5b60006121c88482850161218f565b91505092915050565b60006020820190506121e660008301846120b7565b92915050565b600081519050919050565b600082825260208201905092915050565b6000819050602082019050919050565b61222181611fdb565b82525050565b60006122338383612218565b60208301905092915050565b6000602082019050919050565b6000612257826121ec565b61226181856121f7565b935061226c83612208565b8060005b8381101561229d5781516122848882612227565b975061228f8361223f565b925050600181019050612270565b5085935050505092915050565b600060208201905081810360008301526122c4818461224c565b905092915050565b6122d581612011565b82525050565b60006060820190506122f060008301866120b7565b6122fd60208301856122cc565b61230a60408301846122cc565b949350505050565b600061ffff82169050919050565b61232981612312565b82525050565b600060608201905061234460008301866120b7565b6123516020830185612320565b61235e6040830184612320565b949350505050565b600081519050919050565b600082825260208201905092915050565b6000819050602082019050919050565b600081519050919050565b600082825260208201905092915050565b60005b838110156123cc5780820151818401526020810190506123b1565b838111156123db576000848401525b50505050565b6000601f19601f8301169050919050565b60006123fd82612392565b612407818561239d565b93506124178185602086016123ae565b612420816123e1565b840191505092915050565b61243481612011565b82525050565b600061010083016000830151848203600086015261245882826123f2565b915050602083015161246d6020860182612218565b5060408301516124806040860182612218565b5060608301516124936060860182612218565b5060808301516124a6608086018261242b565b5060a08301516124b960a0860182612218565b5060c08301516124cc60c0860182612218565b5060e08301516124df60e0860182612218565b508091505092915050565b60006124f6838361243a565b905092915050565b6000602082019050919050565b600061251682612366565b6125208185612371565b93508360208202850161253285612382565b8060005b8581101561256e578484038952815161254f85826124ea565b945061255a836124fe565b925060208a01995050600181019050612536565b50829750879550505050505092915050565b6000602082019050818103600083015261259a818461250b565b905092915050565b600082825260208201905092915050565b60006125be82612392565b6125c881856125a2565b93506125d88185602086016123ae565b6125e1816123e1565b840191505092915050565b6000610100820190508181036000830152612607818b6125b3565b9050612616602083018a6120b7565b61262360408301896120b7565b61263060608301886120b7565b61263d60808301876122cc565b61264a60a08301866120b7565b61265760c08301856120b7565b61266460e08301846120b7565b9998505050505050505050565b7f4e487b7100000000000000000000000000000000000000000000000000000000600052603260045260246000fd5b7f4e487b7100000000000000000000000000000000000000000000000000000000600052601160045260246000fd5b60006126da826120c6565b91506126e5836120c6565b92508163ffffffff0483118215151615612702576127016126a0565b5b828202905092915050565b600061271882611fdb565b915061272383611fdb565b9250817fffffffffffffffffffffffffffffffffffffffffffffffffffffffffffffffff048311821515161561275c5761275b6126a0565b5b828202905092915050565b6000612772826120c6565b915061277d836120c6565b92508263ffffffff03821115612796576127956126a0565b5b828201905092915050565b60006127ac82611fdb565b91507fffffffffffffffffffffffffffffffffffffffffffffffffffffffffffffffff82036127de576127dd6126a0565b5b600182019050919050565b7f4e487b7100000000000000000000000000000000000000000000000000000000600052604160045260246000fd5b60008160011c9050919050565b6000808291508390505b600185111561286f5780860481111561284b5761284a6126a0565b5b600185161561285a5780820291505b808102905061286885612818565b945061282f565b94509492505050565b6000826128885760019050612944565b816128965760009050612944565b81600181146128ac57600281146128b6576128e5565b6001915050612944565b60ff8411156128c8576128c76126a0565b5b8360020a9150848211156128df576128de6126a0565b5b50612944565b5060208310610133831016604e8410600b841016171561291a5782820a905083811115612915576129146126a0565b5b612944565b6129278484846001612825565b9250905081840481111561293e5761293d6126a0565b5b81810290505b9392505050565b600061295682612011565b915061296183612011565b925061296f60ff8484612878565b905092915050565b7f4e487b7100000000000000000000000000000000000000000000000000000000600052601260045260246000fd5b60006129b182612312565b91506129bc83612312565b9250826129cc576129cb612977565b5b828204905092915050565b60006129e282612312565b91506129ed83612312565b925082821015612a00576129ff6126a0565b5b828203905092915050565b6000612a1682612011565b9150612a2183612011565b92508160ff0483118215151615612a3b57612a3a6126a0565b5b828202905092915050565b6000612a5182612011565b9150612a5c83612011565b92508260ff03821115612a7257612a716126a0565b5b828201905092915050565b7f4e487b7100000000000000000000000000000000000000000000000000000000600052602260045260246000fd5b60006002820490506001821680612ac457607f821691505b602082108103612ad757612ad6612a7d565b5b50919050565b600081905092915050565b6000612af382612392565b612afd8185612add565b9350612b0d8185602086016123ae565b80840191505092915050565b6000612b258285612ae8565b9150612b318284612ae8565b91508190509392505050565b6000612b498284612ae8565b915081905092915050565b7f4f776e61626c653a206e6577206f776e657220697320746865207a65726f206160008201527f6464726573730000000000000000000000000000000000000000000000000000602082015250565b6000612bb06026836125a2565b9150612bbb82612b54565b604082019050919050565b60006020820190508181036000830152612bdf81612ba3565b9050919050565b6000612bf182612312565b9150612bfc83612312565b92508161ffff0483118215151615612c1757612c166126a0565b5b828202905092915050565b6000612c2d82612312565b9150612c3883612312565b92508261ffff03821115612c4f57612c4e6126a0565b5b828201905092915050565b7f4f776e61626c653a2063616c6c6572206973206e6f7420746865206f776e6572600082015250565b6000612c906020836125a2565b9150612c9b82612c5a565b602082019050919050565b60006020820190508181036000830152612cbf81612c83565b9050919050565b6000612cd182611fdb565b9150612cdc83611fdb565b925082821015612cef57612cee6126a0565b5b828203905092915050565b6000612d0582611fdb565b9150612d1083611fdb565b925082612d2057612d1f612977565b5b828206905092915050565b6000612d3682611fdb565b9150612d4183611fdb565b9250827fffffffffffffffffffffffffffffffffffffffffffffffffffffffffffffffff03821115612d7657612d756126a0565b5b82820190509291505056fea264697066735822122013954bbdee85af0da9aa1537e9943412b2dd02d34b1c970edc9c005007b72fd064736f6c634300080d0033",
  "immutableReferences": {},
  "source": "pragma solidity ^0.8.13;\n\nimport \"./CarFactory.sol\";\n\ncontract CarHelper is CarFactory {\n\n    uint capacityCoef = 0.00001 ether;\n    uint productionPerHourCoef = 0.0002 ether;\n    uint horsePowersCoef = 0.000015 ether;\n    uint consumtionCoef = 0.1 ether;\n    uint durabilityCoef = 0.0000000001 ether;\n\n    modifier onlyOwnerOfCar(uint _carId) {\n        require(msg.sender == carToOwner[_carId]);\n        _;\n    }\n\n    modifier onlyOwnerOfEngine(uint _engineId) {\n        require(msg.sender == engineToOwner[_engineId]);\n        _;\n    }\n\n    modifier onlyOwnerOfChassis(uint _chassisId) {\n        require(msg.sender == chassisToOwner[_chassisId]);\n        _;\n    }\n\n    modifier onlyOwnerOfFuelStation(uint _fuelStationId) {\n        require(msg.sender == fuelStationToOwner[_fuelStationId]);\n        _;\n    }\n\n\n    function getFuelStationByOwner(address _owner) public view returns(uint){\n        uint resId;\n        for (uint i = 0; i < stations.length; i++) {\n            if (fuelStationToOwner[i] == _owner) {\n               resId = i;\n               break;\n            }\n        }\n        return resId;\n    }\n\n    function getEnginesByOwner(address _owner) public view returns(uint[] memory) {\n        uint[] memory result = new uint[](ownerEngineCount[_owner]);\n        uint counter = 0;\n        for (uint i = 0; i < engines.length; i++) {\n            if (engineToOwner[i] == _owner) {\n                result[counter] = i;\n                counter++;\n            }\n        }\n        return result;\n    }\n\n    function getChassisByOwner(address _owner) public view returns(uint[] memory) {\n        uint[] memory result = new uint[](ownerEngineCount[_owner]);\n        uint counter = 0;\n        for (uint i = 0; i < chassis.length; i++) {\n            if (chassisToOwner[i] == _owner) {\n                result[counter] = i;\n                counter++;\n            }\n        }\n        return result;\n    }\n\n    function getCarsByOwner(address _owner) public view returns(Car[] memory) {\n        Car[] memory result = new Car[](ownerCarCount[_owner]);\n        uint counter = 0;\n        for (uint i = 0; i < chassis.length; i++) {\n            if (carToOwner[i] == _owner) {\n                result[counter] = cars[i];\n                counter++;\n            }\n        }\n        return result;\n    }\n\n    function upgradeCapacity(uint _fuelStatonId, uint8 _counts) external payable onlyOwnerOfFuelStation(_fuelStatonId) {\n        require(msg.value == (_counts * stations[_fuelStatonId].capacity * capacityCoef));\n        stations[_fuelStatonId].capacity += _counts; \n    }\n\n    function upgradeProductionPerHour(uint _fuelStatonId, uint8 _counts) external payable onlyOwnerOfFuelStation(_fuelStatonId) {\n        require(msg.value == (_counts * stations[_fuelStatonId].productionPerHour * productionPerHourCoef));\n        stations[_fuelStatonId].productionPerHour += _counts; \n    }\n\n    function upgradeHorsePowers(uint _engineId, uint8 _counts) external payable onlyOwnerOfEngine(_engineId) {\n        require(msg.value == (_counts * engines[_engineId].horsePowers * horsePowersCoef));\n        engines[_engineId].horsePowers += _counts; \n    }\n\n    function upgradeConsumtion(uint _engineId, uint8 _counts) external payable onlyOwnerOfEngine(_engineId) {\n        require(msg.value == (_counts ** 2 / engines[_engineId].consumtion * consumtionCoef));\n        engines[_engineId].consumtion -= _counts; \n    }\n\n    function upgradeDurability(uint _chassisId, uint8 _counts) external payable onlyOwnerOfChassis(_chassisId) {\n        require(msg.value == (_counts * chassis[_chassisId].durability * durabilityCoef));\n        chassis[_chassisId].durability += _counts; \n    }\n\n\n}",
  "sourcePath": "/Users/vvan/Programming/JavaScript/DriveSafely/contract/contracts/CarHelper.sol",
  "compiler": {
    "name": "solc",
    "version": "0.8.13+commit.abaa5c0e.Emscripten.clang"
  },
  "schemaVersion": "3.4.11",
  "updatedAt": "2023-01-08T03:48:48.951Z",
  "networkType": "ethereum",
  "devdoc": {
    "kind": "dev",
    "methods": {
      "owner()": {
        "details": "Returns the address of the current owner."
      },
      "renounceOwnership()": {
        "details": "Leaves the contract without owner. It will not be possible to call `onlyOwner` functions anymore. Can only be called by the current owner. NOTE: Renouncing ownership will leave the contract without an owner, thereby removing any functionality that is only available to the owner."
      },
      "transferOwnership(address)": {
        "details": "Transfers ownership of the contract to a new account (`newOwner`). Can only be called by the current owner."
      }
    },
    "version": 1
  },
  "userdoc": {
    "kind": "user",
    "methods": {},
    "version": 1
  }
}