{
  "contractName": "CarHelper",
  "abi": [
    {
      "anonymous": false,
      "inputs": [
        {
          "indexed": true,
          "internalType": "address",
          "name": "previousOwner",
          "type": "address"
        },
        {
          "indexed": true,
          "internalType": "address",
          "name": "newOwner",
          "type": "address"
        }
      ],
      "name": "OwnershipTransferred",
      "type": "event"
    },
    {
      "inputs": [
        {
          "internalType": "uint256",
          "name": "",
          "type": "uint256"
        }
      ],
      "name": "carToOwner",
      "outputs": [
        {
          "internalType": "address",
          "name": "",
          "type": "address"
        }
      ],
      "stateMutability": "view",
      "type": "function",
      "constant": true
    },
    {
      "inputs": [
        {
          "internalType": "uint256",
          "name": "",
          "type": "uint256"
        }
      ],
      "name": "cars",
      "outputs": [
        {
          "internalType": "string",
          "name": "model",
          "type": "string"
        },
        {
          "internalType": "uint256",
          "name": "vin",
          "type": "uint256"
        },
        {
          "internalType": "uint256",
          "name": "engineId",
          "type": "uint256"
        },
        {
          "internalType": "uint256",
          "name": "chassisId",
          "type": "uint256"
        },
        {
          "internalType": "uint8",
          "name": "carLevel",
          "type": "uint8"
        },
        {
          "internalType": "uint256",
          "name": "mileage",
          "type": "uint256"
        },
        {
          "internalType": "uint256",
          "name": "winCountOnCurrentLevel",
          "type": "uint256"
        },
        {
          "internalType": "uint256",
          "name": "lossCountOnCurrentLevel",
          "type": "uint256"
        }
      ],
      "stateMutability": "view",
      "type": "function",
      "constant": true
    },
    {
      "inputs": [
        {
          "internalType": "uint256",
          "name": "",
          "type": "uint256"
        }
      ],
      "name": "chassis",
      "outputs": [
        {
          "internalType": "uint256",
          "name": "id",
          "type": "uint256"
        },
        {
          "internalType": "uint32",
          "name": "durability",
          "type": "uint32"
        },
        {
          "internalType": "uint32",
          "name": "resource",
          "type": "uint32"
        }
      ],
      "stateMutability": "view",
      "type": "function",
      "constant": true
    },
    {
      "inputs": [
        {
          "internalType": "uint256",
          "name": "",
          "type": "uint256"
        }
      ],
      "name": "chassisToOwner",
      "outputs": [
        {
          "internalType": "address",
          "name": "",
          "type": "address"
        }
      ],
      "stateMutability": "view",
      "type": "function",
      "constant": true
    },
    {
      "inputs": [
        {
          "internalType": "string",
          "name": "model",
          "type": "string"
        }
      ],
      "name": "createCar",
      "outputs": [],
      "stateMutability": "nonpayable",
      "type": "function"
    },
    {
      "inputs": [],
      "name": "createFuelStation",
      "outputs": [],
      "stateMutability": "nonpayable",
      "type": "function"
    },
    {
      "inputs": [
        {
          "internalType": "uint256",
          "name": "",
          "type": "uint256"
        }
      ],
      "name": "engineToOwner",
      "outputs": [
        {
          "internalType": "address",
          "name": "",
          "type": "address"
        }
      ],
      "stateMutability": "view",
      "type": "function",
      "constant": true
    },
    {
      "inputs": [
        {
          "internalType": "uint256",
          "name": "",
          "type": "uint256"
        }
      ],
      "name": "engines",
      "outputs": [
        {
          "internalType": "uint256",
          "name": "id",
          "type": "uint256"
        },
        {
          "internalType": "uint16",
          "name": "horsePowers",
          "type": "uint16"
        },
        {
          "internalType": "uint8",
          "name": "consumtion",
          "type": "uint8"
        }
      ],
      "stateMutability": "view",
      "type": "function",
      "constant": true
    },
    {
      "inputs": [
        {
          "internalType": "uint256",
          "name": "",
          "type": "uint256"
        }
      ],
      "name": "fuelStationToOwner",
      "outputs": [
        {
          "internalType": "address",
          "name": "",
          "type": "address"
        }
      ],
      "stateMutability": "view",
      "type": "function",
      "constant": true
    },
    {
      "inputs": [],
      "name": "owner",
      "outputs": [
        {
          "internalType": "address",
          "name": "",
          "type": "address"
        }
      ],
      "stateMutability": "view",
      "type": "function",
      "constant": true
    },
    {
      "inputs": [
        {
          "internalType": "address",
          "name": "",
          "type": "address"
        }
      ],
      "name": "ownerCarCount",
      "outputs": [
        {
          "internalType": "uint256",
          "name": "",
          "type": "uint256"
        }
      ],
      "stateMutability": "view",
      "type": "function",
      "constant": true
    },
    {
      "inputs": [],
      "name": "renounceOwnership",
      "outputs": [],
      "stateMutability": "nonpayable",
      "type": "function"
    },
    {
      "inputs": [
        {
          "internalType": "uint256",
          "name": "",
          "type": "uint256"
        }
      ],
      "name": "stations",
      "outputs": [
        {
          "internalType": "uint256",
          "name": "id",
          "type": "uint256"
        },
        {
          "internalType": "uint8",
          "name": "capacity",
          "type": "uint8"
        },
        {
          "internalType": "uint8",
          "name": "productionPerHour",
          "type": "uint8"
        },
        {
          "internalType": "uint8",
          "name": "currentFullness",
          "type": "uint8"
        },
        {
          "internalType": "uint256",
          "name": "lastUpdate",
          "type": "uint256"
        }
      ],
      "stateMutability": "view",
      "type": "function",
      "constant": true
    },
    {
      "inputs": [
        {
          "internalType": "address",
          "name": "newOwner",
          "type": "address"
        }
      ],
      "name": "transferOwnership",
      "outputs": [],
      "stateMutability": "nonpayable",
      "type": "function"
    },
    {
      "inputs": [
        {
          "internalType": "address",
          "name": "_owner",
          "type": "address"
        }
      ],
      "name": "getFuelStationByOwner",
      "outputs": [
        {
          "internalType": "uint256",
          "name": "",
          "type": "uint256"
        }
      ],
      "stateMutability": "view",
      "type": "function",
      "constant": true
    },
    {
      "inputs": [
        {
          "internalType": "address",
          "name": "_owner",
          "type": "address"
        }
      ],
      "name": "getEnginesByOwner",
      "outputs": [
        {
          "internalType": "uint256[]",
          "name": "",
          "type": "uint256[]"
        }
      ],
      "stateMutability": "view",
      "type": "function",
      "constant": true
    },
    {
      "inputs": [
        {
          "internalType": "address",
          "name": "_owner",
          "type": "address"
        }
      ],
      "name": "getChassisByOwner",
      "outputs": [
        {
          "internalType": "uint256[]",
          "name": "",
          "type": "uint256[]"
        }
      ],
      "stateMutability": "view",
      "type": "function",
      "constant": true
    },
    {
      "inputs": [
        {
          "internalType": "address",
          "name": "_owner",
          "type": "address"
        }
      ],
      "name": "getCarsByOwner",
      "outputs": [
        {
          "components": [
            {
              "internalType": "string",
              "name": "model",
              "type": "string"
            },
            {
              "internalType": "uint256",
              "name": "vin",
              "type": "uint256"
            },
            {
              "internalType": "uint256",
              "name": "engineId",
              "type": "uint256"
            },
            {
              "internalType": "uint256",
              "name": "chassisId",
              "type": "uint256"
            },
            {
              "internalType": "uint8",
              "name": "carLevel",
              "type": "uint8"
            },
            {
              "internalType": "uint256",
              "name": "mileage",
              "type": "uint256"
            },
            {
              "internalType": "uint256",
              "name": "winCountOnCurrentLevel",
              "type": "uint256"
            },
            {
              "internalType": "uint256",
              "name": "lossCountOnCurrentLevel",
              "type": "uint256"
            }
          ],
          "internalType": "struct CarFactory.Car[]",
          "name": "",
          "type": "tuple[]"
        }
      ],
      "stateMutability": "view",
      "type": "function",
      "constant": true
    },
    {
      "inputs": [
        {
          "internalType": "uint256",
          "name": "_fuelStatonId",
          "type": "uint256"
        },
        {
          "internalType": "uint8",
          "name": "_counts",
          "type": "uint8"
        }
      ],
      "name": "upgradeCapacity",
      "outputs": [],
      "stateMutability": "payable",
      "type": "function",
      "payable": true
    },
    {
      "inputs": [
        {
          "internalType": "uint256",
          "name": "_fuelStatonId",
          "type": "uint256"
        },
        {
          "internalType": "uint8",
          "name": "_counts",
          "type": "uint8"
        }
      ],
      "name": "upgradeProductionPerHour",
      "outputs": [],
      "stateMutability": "payable",
      "type": "function",
      "payable": true
    },
    {
      "inputs": [
        {
          "internalType": "uint256",
          "name": "_engineId",
          "type": "uint256"
        },
        {
          "internalType": "uint8",
          "name": "_counts",
          "type": "uint8"
        }
      ],
      "name": "upgradeHorsePowers",
      "outputs": [],
      "stateMutability": "payable",
      "type": "function",
      "payable": true
    },
    {
      "inputs": [
        {
          "internalType": "uint256",
          "name": "_engineId",
          "type": "uint256"
        },
        {
          "internalType": "uint8",
          "name": "_counts",
          "type": "uint8"
        }
      ],
      "name": "upgradeConsumtion",
      "outputs": [],
      "stateMutability": "payable",
      "type": "function",
      "payable": true
    },
    {
      "inputs": [
        {
          "internalType": "uint256",
          "name": "_chassisId",
          "type": "uint256"
        },
        {
          "internalType": "uint8",
          "name": "_counts",
          "type": "uint8"
        }
      ],
      "name": "upgradeDurability",
      "outputs": [],
      "stateMutability": "payable",
      "type": "function",
      "payable": true
    },
    {
      "inputs": [
        {
          "internalType": "uint256",
          "name": "_carId",
          "type": "uint256"
        }
      ],
      "name": "levelUp",
      "outputs": [],
      "stateMutability": "payable",
      "type": "function",
      "payable": true
    }
  ],
  "bytecode": "0x6080604052603c600060146101000a81548160ff021916908360ff1602179055506005600060156101000a81548160ff021916908360ff160217905550600160085560016009556509184e72a00060135565b5e620f48000601455650da475abf0006015556611c37937e080006016556305f5e10060175566038d7ea4c680006018553480156200008f57600080fd5b50620000b0620000a46200013260201b60201c565b6200013a60201b60201c565b6050600381905550605b600481905550600a600560006101000a81548160ff021916908360ff160217905550620186a06006819055506201d4c1600781905550600b60018160018154018082558091505003906000526020600020905050600c60018160018154018082558091505003906000526020600020905050620001fe565b600033905090565b60008060009054906101000a900473ffffffffffffffffffffffffffffffffffffffff169050816000806101000a81548173ffffffffffffffffffffffffffffffffffffffff021916908373ffffffffffffffffffffffffffffffffffffffff1602179055508173ffffffffffffffffffffffffffffffffffffffff168173ffffffffffffffffffffffffffffffffffffffff167f8be0079c531659141344cd1fd0a4f28419497f9722a3daafe3b4186f6b6457e060405160405180910390a35050565b613192806200020e6000396000f3fe60806040526004361061014b5760003560e01c80637c62360f116100b6578063b72c0eea1161006f578063b72c0eea1461049d578063c75bb4f4146104dc578063ede6fbf514610519578063f2fde38b14610542578063f7746e361461056b578063faf4bb98146105af5761014b565b80637c62360f146103a057806385909267146103bc5780638da5cb5b146103d8578063906f5f341461040357806392f859db1461041f578063b3b29afd146104605761014b565b80634e31f910116101085780634e31f91014610258578063594193d7146102955780635dcc4cc6146102d25780636f206fc11461030f578063715018a61461034c5780637713d521146103635761014b565b806303f2e05b146101505780630ce90ec21461016c5780631c5dde0e14610188578063224370f0146101c757806333ca504b146101de578063449014901461021b575b600080fd5b61016a60048036038101906101659190612272565b6105cb565b005b610186600480360381019061018191906122b2565b610703565b005b34801561019457600080fd5b506101af60048036038101906101aa91906122b2565b610882565b6040516101be9392919061230d565b60405180910390f35b3480156101d357600080fd5b506101dc6108dc565b005b3480156101ea57600080fd5b50610205600480360381019061020091906122b2565b610a48565b6040516102129190612385565b60405180910390f35b34801561022757600080fd5b50610242600480360381019061023d91906122b2565b610a7b565b60405161024f9190612385565b60405180910390f35b34801561026457600080fd5b5061027f600480360381019061027a91906123cc565b610aae565b60405161028c91906123f9565b60405180910390f35b3480156102a157600080fd5b506102bc60048036038101906102b791906122b2565b610b4c565b6040516102c99190612385565b60405180910390f35b3480156102de57600080fd5b506102f960048036038101906102f491906122b2565b610b7f565b6040516103069190612385565b60405180910390f35b34801561031b57600080fd5b50610336600480360381019061033191906123cc565b610bb2565b60405161034391906124d2565b60405180910390f35b34801561035857600080fd5b50610361610d04565b005b34801561036f57600080fd5b5061038a600480360381019061038591906123cc565b610d18565b60405161039791906124d2565b60405180910390f35b6103ba60048036038101906103b59190612272565b610e6a565b005b6103d660048036038101906103d19190612272565b610f97565b005b3480156103e457600080fd5b506103ed6110ba565b6040516103fa9190612385565b60405180910390f35b61041d60048036038101906104189190612272565b6110e3565b005b34801561042b57600080fd5b50610446600480360381019061044191906122b2565b611206565b604051610457959493929190612503565b60405180910390f35b34801561046c57600080fd5b50610487600480360381019061048291906123cc565b611273565b60405161049491906123f9565b60405180910390f35b3480156104a957600080fd5b506104c460048036038101906104bf91906122b2565b61128b565b6040516104d393929190612573565b60405180910390f35b3480156104e857600080fd5b5061050360048036038101906104fe91906123cc565b6112e0565b60405161051091906127c4565b60405180910390f35b34801561052557600080fd5b50610540600480360381019061053b919061291b565b611554565b005b34801561054e57600080fd5b50610569600480360381019061056491906123cc565b6117b5565b005b34801561057757600080fd5b50610592600480360381019061058d91906122b2565b611838565b6040516105a69897969594939291906129ae565b60405180910390f35b6105c960048036038101906105c49190612272565b611925565b005b81600f600082815260200190815260200160002060009054906101000a900473ffffffffffffffffffffffffffffffffffffffff1673ffffffffffffffffffffffffffffffffffffffff163373ffffffffffffffffffffffffffffffffffffffff161461063757600080fd5b601754600c848154811061064e5761064d612a33565b5b906000526020600020906002020160010160009054906101000a900463ffffffff168360ff1661067e9190612a91565b63ffffffff1661068e9190612acf565b341461069957600080fd5b8160ff16600c84815481106106b1576106b0612a33565b5b906000526020600020906002020160010160008282829054906101000a900463ffffffff166106e09190612b29565b92506101000a81548163ffffffff021916908363ffffffff160217905550505050565b600a80828154811061071857610717612a33565b5b906000526020600020906008020160040160009054906101000a900460ff166107419190612b92565b60ff166018546107519190612acf565b341480156107c557506001600a82815481106107705761076f612a33565b5b906000526020600020906008020160040160009054906101000a900460ff166107999190612bc3565b60ff16600a82815481106107b0576107af612a33565b5b90600052602060002090600802016006015410155b6107ce57600080fd5b600a81815481106107e2576107e1612a33565b5b9060005260206000209060080201600401600081819054906101000a900460ff168092919061081090612bfa565b91906101000a81548160ff021916908360ff160217905550506000600a828154811061083f5761083e612a33565b5b9060005260206000209060080201600601819055506000600a828154811061086a57610869612a33565b5b90600052602060002090600802016007018190555050565b600c818154811061089257600080fd5b90600052602060002090600202016000915090508060000154908060010160009054906101000a900463ffffffff16908060010160049054906101000a900463ffffffff16905083565b60003390506000600180549050905060016040518060a00160405280838152602001600060149054906101000a900460ff1660ff168152602001600060159054906101000a900460ff1660ff168152602001600060149054906101000a900460ff1660ff1681526020014263ffffffff1681525090806001815401808255809150506001900390600052602060002090600302016000909190919091506000820151816000015560208201518160010160006101000a81548160ff021916908360ff16021790555060408201518160010160016101000a81548160ff021916908360ff16021790555060608201518160010160026101000a81548160ff021916908360ff160217905550608082015181600201555050816002600083815260200190815260200160002060006101000a81548173ffffffffffffffffffffffffffffffffffffffff021916908373ffffffffffffffffffffffffffffffffffffffff1602179055505050565b600d6020528060005260406000206000915054906101000a900473ffffffffffffffffffffffffffffffffffffffff1681565b600f6020528060005260406000206000915054906101000a900473ffffffffffffffffffffffffffffffffffffffff1681565b60008060005b600180549050811015610b42578373ffffffffffffffffffffffffffffffffffffffff166002600083815260200190815260200160002060009054906101000a900473ffffffffffffffffffffffffffffffffffffffff1673ffffffffffffffffffffffffffffffffffffffff1603610b2f57809150610b42565b8080610b3a90612c23565b915050610ab4565b5080915050919050565b60026020528060005260406000206000915054906101000a900473ffffffffffffffffffffffffffffffffffffffff1681565b600e6020528060005260406000206000915054906101000a900473ffffffffffffffffffffffffffffffffffffffff1681565b60606000601160008473ffffffffffffffffffffffffffffffffffffffff1673ffffffffffffffffffffffffffffffffffffffff1681526020019081526020016000205467ffffffffffffffff811115610c0f57610c0e6127f0565b5b604051908082528060200260200182016040528015610c3d5781602001602082028036833780820191505090505b5090506000805b600c80549050811015610cf9578473ffffffffffffffffffffffffffffffffffffffff16600f600083815260200190815260200160002060009054906101000a900473ffffffffffffffffffffffffffffffffffffffff1673ffffffffffffffffffffffffffffffffffffffff1603610ce65780838381518110610ccb57610cca612a33565b5b6020026020010181815250508180610ce290612c23565b9250505b8080610cf190612c23565b915050610c44565b508192505050919050565b610d0c611a53565b610d166000611ad1565b565b60606000601160008473ffffffffffffffffffffffffffffffffffffffff1673ffffffffffffffffffffffffffffffffffffffff1681526020019081526020016000205467ffffffffffffffff811115610d7557610d746127f0565b5b604051908082528060200260200182016040528015610da35781602001602082028036833780820191505090505b5090506000805b600b80549050811015610e5f578473ffffffffffffffffffffffffffffffffffffffff16600e600083815260200190815260200160002060009054906101000a900473ffffffffffffffffffffffffffffffffffffffff1673ffffffffffffffffffffffffffffffffffffffff1603610e4c5780838381518110610e3157610e30612a33565b5b6020026020010181815250508180610e4890612c23565b9250505b8080610e5790612c23565b915050610daa565b508192505050919050565b81600e600082815260200190815260200160002060009054906101000a900473ffffffffffffffffffffffffffffffffffffffff1673ffffffffffffffffffffffffffffffffffffffff163373ffffffffffffffffffffffffffffffffffffffff1614610ed657600080fd5b600b8381548110610eea57610ee9612a33565b5b906000526020600020906002020160010160029054906101000a900460ff16600a610f159190612c6b565b6002610f219190612dd2565b601654610f2e9190612acf565b3414610f3957600080fd5b81600b8481548110610f4e57610f4d612a33565b5b906000526020600020906002020160010160028282829054906101000a900460ff16610f7a9190612c6b565b92506101000a81548160ff021916908360ff160217905550505050565b816002600082815260200190815260200160002060009054906101000a900473ffffffffffffffffffffffffffffffffffffffff1673ffffffffffffffffffffffffffffffffffffffff163373ffffffffffffffffffffffffffffffffffffffff161461100357600080fd5b6014546001848154811061101a57611019612a33565b5b906000526020600020906003020160010160019054906101000a900460ff16836110449190612e1d565b60ff166110519190612acf565b341461105c57600080fd5b816001848154811061107157611070612a33565b5b906000526020600020906003020160010160018282829054906101000a900460ff1661109d9190612bc3565b92506101000a81548160ff021916908360ff160217905550505050565b60008060009054906101000a900473ffffffffffffffffffffffffffffffffffffffff16905090565b816002600082815260200190815260200160002060009054906101000a900473ffffffffffffffffffffffffffffffffffffffff1673ffffffffffffffffffffffffffffffffffffffff163373ffffffffffffffffffffffffffffffffffffffff161461114f57600080fd5b6013546001848154811061116657611165612a33565b5b906000526020600020906003020160010160009054906101000a900460ff16836111909190612e1d565b60ff1661119d9190612acf565b34146111a857600080fd5b81600184815481106111bd576111bc612a33565b5b906000526020600020906003020160010160008282829054906101000a900460ff166111e99190612bc3565b92506101000a81548160ff021916908360ff160217905550505050565b6001818154811061121657600080fd5b90600052602060002090600302016000915090508060000154908060010160009054906101000a900460ff16908060010160019054906101000a900460ff16908060010160029054906101000a900460ff16908060020154905085565b60106020528060005260406000206000915090505481565b600b818154811061129b57600080fd5b90600052602060002090600202016000915090508060000154908060010160009054906101000a900461ffff16908060010160029054906101000a900460ff16905083565b60606000601060008473ffffffffffffffffffffffffffffffffffffffff1673ffffffffffffffffffffffffffffffffffffffff1681526020019081526020016000205467ffffffffffffffff81111561133d5761133c6127f0565b5b60405190808252806020026020018201604052801561137657816020015b611363612104565b81526020019060019003908161135b5790505b5090506000805b600c80549050811015611549578473ffffffffffffffffffffffffffffffffffffffff16600d600083815260200190815260200160002060009054906101000a900473ffffffffffffffffffffffffffffffffffffffff1673ffffffffffffffffffffffffffffffffffffffff160361153657600a818154811061140457611403612a33565b5b90600052602060002090600802016040518061010001604052908160008201805461142e90612e87565b80601f016020809104026020016040519081016040528092919081815260200182805461145a90612e87565b80156114a75780601f1061147c576101008083540402835291602001916114a7565b820191906000526020600020905b81548152906001019060200180831161148a57829003601f168201915b505050505081526020016001820154815260200160028201548152602001600382015481526020016004820160009054906101000a900460ff1660ff1660ff168152602001600582015481526020016006820154815260200160078201548152505083838151811061151c5761151b612a33565b5b6020026020010181905250818061153290612c23565b9250505b808061154190612c23565b91505061137d565b508192505050919050565b6000601060003373ffffffffffffffffffffffffffffffffffffffff1673ffffffffffffffffffffffffffffffffffffffff16815260200190815260200160002054146115a057600080fd5b6000816115ac42611b95565b6040516020016115bd929190612ef4565b60405160208183030381529060405290506000816040516020016115e19190612f18565b6040516020818303038152906040528051906020012060001c90506000611606611c63565b90506000611612611e06565b90506000600a805490509050600a604051806101000160405280888152602001868152602001858152602001848152602001600160ff16815260200160008152602001600081526020016000815250908060018154018082558091505060019003906000526020600020906008020160009091909190915060008201518160000190805190602001906116a692919061214c565b5060208201518160010155604082015181600201556060820151816003015560808201518160040160006101000a81548160ff021916908360ff16021790555060a0820151816005015560c0820151816006015560e08201518160070155505033600d600083815260200190815260200160002060006101000a81548173ffffffffffffffffffffffffffffffffffffffff021916908373ffffffffffffffffffffffffffffffffffffffff160217905550601060003373ffffffffffffffffffffffffffffffffffffffff1673ffffffffffffffffffffffffffffffffffffffff16815260200190815260200160002060008154809291906117a890612c23565b9190505550505050505050565b6117bd611a53565b600073ffffffffffffffffffffffffffffffffffffffff168173ffffffffffffffffffffffffffffffffffffffff160361182c576040517f08c379a000000000000000000000000000000000000000000000000000000000815260040161182390612fa1565b60405180910390fd5b61183581611ad1565b50565b600a818154811061184857600080fd5b906000526020600020906008020160009150905080600001805461186b90612e87565b80601f016020809104026020016040519081016040528092919081815260200182805461189790612e87565b80156118e45780601f106118b9576101008083540402835291602001916118e4565b820191906000526020600020905b8154815290600101906020018083116118c757829003601f168201915b5050505050908060010154908060020154908060030154908060040160009054906101000a900460ff16908060050154908060060154908060070154905088565b81600e600082815260200190815260200160002060009054906101000a900473ffffffffffffffffffffffffffffffffffffffff1673ffffffffffffffffffffffffffffffffffffffff163373ffffffffffffffffffffffffffffffffffffffff161461199157600080fd5b601554600b84815481106119a8576119a7612a33565b5b906000526020600020906002020160010160009054906101000a900461ffff168360ff166119d69190612fc1565b61ffff166119e49190612acf565b34146119ef57600080fd5b8160ff16600b8481548110611a0757611a06612a33565b5b906000526020600020906002020160010160008282829054906101000a900461ffff16611a349190612ffd565b92506101000a81548161ffff021916908361ffff160217905550505050565b611a5b611fa9565b73ffffffffffffffffffffffffffffffffffffffff16611a796110ba565b73ffffffffffffffffffffffffffffffffffffffff1614611acf576040517f08c379a0000000000000000000000000000000000000000000000000000000008152600401611ac690613081565b60405180910390fd5b565b60008060009054906101000a900473ffffffffffffffffffffffffffffffffffffffff169050816000806101000a81548173ffffffffffffffffffffffffffffffffffffffff021916908373ffffffffffffffffffffffffffffffffffffffff1602179055508173ffffffffffffffffffffffffffffffffffffffff168173ffffffffffffffffffffffffffffffffffffffff167f8be0079c531659141344cd1fd0a4f28419497f9722a3daafe3b4186f6b6457e060405160405180910390a35050565b606060006001611ba484611fb1565b01905060008167ffffffffffffffff811115611bc357611bc26127f0565b5b6040519080825280601f01601f191660200182016040528015611bf55781602001600182028036833780820191505090505b509050600082602001820190505b600115611c58578080600190039150507f3031323334353637383961626364656600000000000000000000000000000000600a86061a8153600a8581611c4c57611c4b612b63565b5b04945060008503611c03575b819350505050919050565b600080600354600454611c7691906130a1565b42611c8191906130d5565b600354611c8e9190613106565b9050600060086000815480929190611ca590612c23565b919050559050600b60405180606001604052808381526020018461ffff168152602001600560009054906101000a900460ff1660ff1681525090806001815401808255809150506001900390600052602060002090600202016000909190919091506000820151816000015560208201518160010160006101000a81548161ffff021916908361ffff16021790555060408201518160010160026101000a81548160ff021916908360ff1602179055505050601160003373ffffffffffffffffffffffffffffffffffffffff1673ffffffffffffffffffffffffffffffffffffffff1681526020019081526020016000206000815480929190611da790612c23565b919050555033600e600083815260200190815260200160002060006101000a81548173ffffffffffffffffffffffffffffffffffffffff021916908373ffffffffffffffffffffffffffffffffffffffff160217905550809250505090565b600080600654600754611e1991906130a1565b42611e2491906130d5565b600654611e319190613106565b9050600060096000815480929190611e4890612c23565b919050559050600c60405180606001604052808381526020018463ffffffff1681526020018463ffffffff1681525090806001815401808255809150506001900390600052602060002090600202016000909190919091506000820151816000015560208201518160010160006101000a81548163ffffffff021916908363ffffffff16021790555060408201518160010160046101000a81548163ffffffff021916908363ffffffff1602179055505050601260003373ffffffffffffffffffffffffffffffffffffffff1673ffffffffffffffffffffffffffffffffffffffff1681526020019081526020016000206000815480929190611f4a90612c23565b919050555033600f600083815260200190815260200160002060006101000a81548173ffffffffffffffffffffffffffffffffffffffff021916908373ffffffffffffffffffffffffffffffffffffffff160217905550809250505090565b600033905090565b600080600090507a184f03e93ff9f4daa797ed6e38ed64bf6a1f010000000000000000831061200f577a184f03e93ff9f4daa797ed6e38ed64bf6a1f010000000000000000838161200557612004612b63565b5b0492506040810190505b6d04ee2d6d415b85acef8100000000831061204c576d04ee2d6d415b85acef8100000000838161204257612041612b63565b5b0492506020810190505b662386f26fc10000831061207b57662386f26fc10000838161207157612070612b63565b5b0492506010810190505b6305f5e10083106120a4576305f5e100838161209a57612099612b63565b5b0492506008810190505b61271083106120c95761271083816120bf576120be612b63565b5b0492506004810190505b606483106120ec57606483816120e2576120e1612b63565b5b0492506002810190505b600a83106120fb576001810190505b80915050919050565b60405180610100016040528060608152602001600081526020016000815260200160008152602001600060ff1681526020016000815260200160008152602001600081525090565b82805461215890612e87565b90600052602060002090601f01602090048101928261217a57600085556121c1565b82601f1061219357805160ff19168380011785556121c1565b828001600101855582156121c1579182015b828111156121c05782518255916020019190600101906121a5565b5b5090506121ce91906121d2565b5090565b5b808211156121eb5760008160009055506001016121d3565b5090565b6000604051905090565b600080fd5b600080fd5b6000819050919050565b61221681612203565b811461222157600080fd5b50565b6000813590506122338161220d565b92915050565b600060ff82169050919050565b61224f81612239565b811461225a57600080fd5b50565b60008135905061226c81612246565b92915050565b60008060408385031215612289576122886121f9565b5b600061229785828601612224565b92505060206122a88582860161225d565b9150509250929050565b6000602082840312156122c8576122c76121f9565b5b60006122d684828501612224565b91505092915050565b6122e881612203565b82525050565b600063ffffffff82169050919050565b612307816122ee565b82525050565b600060608201905061232260008301866122df565b61232f60208301856122fe565b61233c60408301846122fe565b949350505050565b600073ffffffffffffffffffffffffffffffffffffffff82169050919050565b600061236f82612344565b9050919050565b61237f81612364565b82525050565b600060208201905061239a6000830184612376565b92915050565b6123a981612364565b81146123b457600080fd5b50565b6000813590506123c6816123a0565b92915050565b6000602082840312156123e2576123e16121f9565b5b60006123f0848285016123b7565b91505092915050565b600060208201905061240e60008301846122df565b92915050565b600081519050919050565b600082825260208201905092915050565b6000819050602082019050919050565b61244981612203565b82525050565b600061245b8383612440565b60208301905092915050565b6000602082019050919050565b600061247f82612414565b612489818561241f565b935061249483612430565b8060005b838110156124c55781516124ac888261244f565b97506124b783612467565b925050600181019050612498565b5085935050505092915050565b600060208201905081810360008301526124ec8184612474565b905092915050565b6124fd81612239565b82525050565b600060a08201905061251860008301886122df565b61252560208301876124f4565b61253260408301866124f4565b61253f60608301856124f4565b61254c60808301846122df565b9695505050505050565b600061ffff82169050919050565b61256d81612556565b82525050565b600060608201905061258860008301866122df565b6125956020830185612564565b6125a260408301846124f4565b949350505050565b600081519050919050565b600082825260208201905092915050565b6000819050602082019050919050565b600081519050919050565b600082825260208201905092915050565b60005b838110156126105780820151818401526020810190506125f5565b8381111561261f576000848401525b50505050565b6000601f19601f8301169050919050565b6000612641826125d6565b61264b81856125e1565b935061265b8185602086016125f2565b61266481612625565b840191505092915050565b61267881612239565b82525050565b600061010083016000830151848203600086015261269c8282612636565b91505060208301516126b16020860182612440565b5060408301516126c46040860182612440565b5060608301516126d76060860182612440565b5060808301516126ea608086018261266f565b5060a08301516126fd60a0860182612440565b5060c083015161271060c0860182612440565b5060e083015161272360e0860182612440565b508091505092915050565b600061273a838361267e565b905092915050565b6000602082019050919050565b600061275a826125aa565b61276481856125b5565b935083602082028501612776856125c6565b8060005b858110156127b25784840389528151612793858261272e565b945061279e83612742565b925060208a0199505060018101905061277a565b50829750879550505050505092915050565b600060208201905081810360008301526127de818461274f565b905092915050565b600080fd5b600080fd5b7f4e487b7100000000000000000000000000000000000000000000000000000000600052604160045260246000fd5b61282882612625565b810181811067ffffffffffffffff82111715612847576128466127f0565b5b80604052505050565b600061285a6121ef565b9050612866828261281f565b919050565b600067ffffffffffffffff821115612886576128856127f0565b5b61288f82612625565b9050602081019050919050565b82818337600083830152505050565b60006128be6128b98461286b565b612850565b9050828152602081018484840111156128da576128d96127eb565b5b6128e584828561289c565b509392505050565b600082601f830112612902576129016127e6565b5b81356129128482602086016128ab565b91505092915050565b600060208284031215612931576129306121f9565b5b600082013567ffffffffffffffff81111561294f5761294e6121fe565b5b61295b848285016128ed565b91505092915050565b600082825260208201905092915050565b6000612980826125d6565b61298a8185612964565b935061299a8185602086016125f2565b6129a381612625565b840191505092915050565b60006101008201905081810360008301526129c9818b612975565b90506129d8602083018a6122df565b6129e560408301896122df565b6129f260608301886122df565b6129ff60808301876124f4565b612a0c60a08301866122df565b612a1960c08301856122df565b612a2660e08301846122df565b9998505050505050505050565b7f4e487b7100000000000000000000000000000000000000000000000000000000600052603260045260246000fd5b7f4e487b7100000000000000000000000000000000000000000000000000000000600052601160045260246000fd5b6000612a9c826122ee565b9150612aa7836122ee565b92508163ffffffff0483118215151615612ac457612ac3612a62565b5b828202905092915050565b6000612ada82612203565b9150612ae583612203565b9250817fffffffffffffffffffffffffffffffffffffffffffffffffffffffffffffffff0483118215151615612b1e57612b1d612a62565b5b828202905092915050565b6000612b34826122ee565b9150612b3f836122ee565b92508263ffffffff03821115612b5857612b57612a62565b5b828201905092915050565b7f4e487b7100000000000000000000000000000000000000000000000000000000600052601260045260246000fd5b6000612b9d82612239565b9150612ba883612239565b925082612bb857612bb7612b63565b5b828204905092915050565b6000612bce82612239565b9150612bd983612239565b92508260ff03821115612bef57612bee612a62565b5b828201905092915050565b6000612c0582612239565b915060ff8203612c1857612c17612a62565b5b600182019050919050565b6000612c2e82612203565b91507fffffffffffffffffffffffffffffffffffffffffffffffffffffffffffffffff8203612c6057612c5f612a62565b5b600182019050919050565b6000612c7682612239565b9150612c8183612239565b925082821015612c9457612c93612a62565b5b828203905092915050565b60008160011c9050919050565b6000808291508390505b6001851115612cf657808604811115612cd257612cd1612a62565b5b6001851615612ce15780820291505b8081029050612cef85612c9f565b9450612cb6565b94509492505050565b600082612d0f5760019050612dcb565b81612d1d5760009050612dcb565b8160018114612d335760028114612d3d57612d6c565b6001915050612dcb565b60ff841115612d4f57612d4e612a62565b5b8360020a915084821115612d6657612d65612a62565b5b50612dcb565b5060208310610133831016604e8410600b8410161715612da15782820a905083811115612d9c57612d9b612a62565b5b612dcb565b612dae8484846001612cac565b92509050818404811115612dc557612dc4612a62565b5b81810290505b9392505050565b6000612ddd82612203565b9150612de883612239565b9250612e157fffffffffffffffffffffffffffffffffffffffffffffffffffffffffffffffff8484612cff565b905092915050565b6000612e2882612239565b9150612e3383612239565b92508160ff0483118215151615612e4d57612e4c612a62565b5b828202905092915050565b7f4e487b7100000000000000000000000000000000000000000000000000000000600052602260045260246000fd5b60006002820490506001821680612e9f57607f821691505b602082108103612eb257612eb1612e58565b5b50919050565b600081905092915050565b6000612ece826125d6565b612ed88185612eb8565b9350612ee88185602086016125f2565b80840191505092915050565b6000612f008285612ec3565b9150612f0c8284612ec3565b91508190509392505050565b6000612f248284612ec3565b915081905092915050565b7f4f776e61626c653a206e6577206f776e657220697320746865207a65726f206160008201527f6464726573730000000000000000000000000000000000000000000000000000602082015250565b6000612f8b602683612964565b9150612f9682612f2f565b604082019050919050565b60006020820190508181036000830152612fba81612f7e565b9050919050565b6000612fcc82612556565b9150612fd783612556565b92508161ffff0483118215151615612ff257612ff1612a62565b5b828202905092915050565b600061300882612556565b915061301383612556565b92508261ffff0382111561302a57613029612a62565b5b828201905092915050565b7f4f776e61626c653a2063616c6c6572206973206e6f7420746865206f776e6572600082015250565b600061306b602083612964565b915061307682613035565b602082019050919050565b6000602082019050818103600083015261309a8161305e565b9050919050565b60006130ac82612203565b91506130b783612203565b9250828210156130ca576130c9612a62565b5b828203905092915050565b60006130e082612203565b91506130eb83612203565b9250826130fb576130fa612b63565b5b828206905092915050565b600061311182612203565b915061311c83612203565b9250827fffffffffffffffffffffffffffffffffffffffffffffffffffffffffffffffff0382111561315157613150612a62565b5b82820190509291505056fea264697066735822122086434b4aef1373ccf082e92109cda6e83b2672f3cf648eb892d3b3a6d35ceea364736f6c634300080d0033",
  "immutableReferences": {},
  "source": "// SPDX-License-Identifier: MIT\npragma solidity ^0.8.13;\n\nimport \"./CarFactory.sol\";\n\ncontract CarHelper is CarFactory {\n\n    uint capacityCoef = 0.00001 ether;\n    uint productionPerHourCoef = 0.0002 ether;\n    uint horsePowersCoef = 0.000015 ether;\n    uint consumtionCoef = 0.005 ether;\n    uint durabilityCoef = 0.0000000001 ether;\n    uint levelUpCost = 0.001 ether;\n\n    modifier onlyOwnerOfCar(uint _carId) {\n        require(msg.sender == carToOwner[_carId]);\n        _;\n    }\n\n    modifier onlyOwnerOfEngine(uint _engineId) {\n        require(msg.sender == engineToOwner[_engineId]);\n        _;\n    }\n\n    modifier onlyOwnerOfChassis(uint _chassisId) {\n        require(msg.sender == chassisToOwner[_chassisId]);\n        _;\n    }\n\n    modifier onlyOwnerOfFuelStation(uint _fuelStationId) {\n        require(msg.sender == fuelStationToOwner[_fuelStationId]);\n        _;\n    }\n\n\n    function getFuelStationByOwner(address _owner) public view returns(uint){\n        uint resId;\n        for (uint i = 0; i < stations.length; i++) {\n            if (fuelStationToOwner[i] == _owner) {\n               resId = i;\n               break;\n            }\n        }\n        return resId;\n    }\n\n    function getEnginesByOwner(address _owner) public view returns(uint[] memory) {\n        uint[] memory result = new uint[](ownerEngineCount[_owner]);\n        uint counter = 0;\n        for (uint i = 0; i < engines.length; i++) {\n            if (engineToOwner[i] == _owner) {\n                result[counter] = i;\n                counter++;\n            }\n        }\n        return result;\n    }\n\n    function getChassisByOwner(address _owner) public view returns(uint[] memory) {\n        uint[] memory result = new uint[](ownerEngineCount[_owner]);\n        uint counter = 0;\n        for (uint i = 0; i < chassis.length; i++) {\n            if (chassisToOwner[i] == _owner) {\n                result[counter] = i;\n                counter++;\n            }\n        }\n        return result;\n    }\n\n    function getCarsByOwner(address _owner) public view returns(Car[] memory) {\n        Car[] memory result = new Car[](ownerCarCount[_owner]);\n        uint counter = 0;\n        for (uint i = 0; i < chassis.length; i++) {\n            if (carToOwner[i] == _owner) {\n                result[counter] = cars[i];\n                counter++;\n            }\n        }\n        return result;\n    }\n\n    function upgradeCapacity(uint _fuelStatonId, uint8 _counts) external payable onlyOwnerOfFuelStation(_fuelStatonId) {\n        require(msg.value == (_counts * stations[_fuelStatonId].capacity * capacityCoef));\n        stations[_fuelStatonId].capacity += _counts; \n    }\n\n    function upgradeProductionPerHour(uint _fuelStatonId, uint8 _counts) external payable onlyOwnerOfFuelStation(_fuelStatonId) {\n        require(msg.value == (_counts * stations[_fuelStatonId].productionPerHour * productionPerHourCoef));\n        stations[_fuelStatonId].productionPerHour += _counts; \n    }\n\n    function upgradeHorsePowers(uint _engineId, uint8 _counts) external payable onlyOwnerOfEngine(_engineId) {\n        require(msg.value == (_counts * engines[_engineId].horsePowers * horsePowersCoef));\n        engines[_engineId].horsePowers += _counts; \n    }\n\n    function upgradeConsumtion(uint _engineId, uint8 _counts) external payable onlyOwnerOfEngine(_engineId) {\n        require(msg.value == consumtionCoef * 2**(10 - engines[_engineId].consumtion));\n        engines[_engineId].consumtion -= _counts; \n    }\n\n    function upgradeDurability(uint _chassisId, uint8 _counts) external payable onlyOwnerOfChassis(_chassisId) {\n        require(msg.value == (_counts * chassis[_chassisId].durability * durabilityCoef));\n        chassis[_chassisId].durability += _counts; \n    }\n\n    function levelUp(uint _carId) external payable {\n        require(msg.value == levelUpCost * (cars[_carId].carLevel/10) && cars[_carId].winCountOnCurrentLevel >= (cars[_carId].carLevel + 1));\n        cars[_carId].carLevel++;\n        cars[_carId].winCountOnCurrentLevel = 0;\n        cars[_carId].lossCountOnCurrentLevel = 0;\n    }\n\n\n}",
  "sourcePath": "/Users/vvan/Programming/JavaScript/DriveSafely/contract/contracts/CarHelper.sol",
  "compiler": {
    "name": "solc",
    "version": "0.8.13+commit.abaa5c0e.Emscripten.clang"
  },
  "schemaVersion": "3.4.11",
  "updatedAt": "2023-01-08T10:45:10.620Z",
  "networkType": "ethereum",
  "devdoc": {
    "kind": "dev",
    "methods": {
      "owner()": {
        "details": "Returns the address of the current owner."
      },
      "renounceOwnership()": {
        "details": "Leaves the contract without owner. It will not be possible to call `onlyOwner` functions anymore. Can only be called by the current owner. NOTE: Renouncing ownership will leave the contract without an owner, thereby removing any functionality that is only available to the owner."
      },
      "transferOwnership(address)": {
        "details": "Transfers ownership of the contract to a new account (`newOwner`). Can only be called by the current owner."
      }
    },
    "version": 1
  },
  "userdoc": {
    "kind": "user",
    "methods": {},
    "version": 1
  }
}