{
  "contractName": "CarOwnership",
  "abi": [
    {
      "anonymous": false,
      "inputs": [
        {
          "indexed": true,
          "internalType": "address",
          "name": "_owner",
          "type": "address"
        },
        {
          "indexed": true,
          "internalType": "address",
          "name": "_approved",
          "type": "address"
        },
        {
          "indexed": true,
          "internalType": "uint256",
          "name": "_tokenId",
          "type": "uint256"
        }
      ],
      "name": "Approval",
      "type": "event"
    },
    {
      "anonymous": false,
      "inputs": [
        {
          "indexed": true,
          "internalType": "address",
          "name": "previousOwner",
          "type": "address"
        },
        {
          "indexed": true,
          "internalType": "address",
          "name": "newOwner",
          "type": "address"
        }
      ],
      "name": "OwnershipTransferred",
      "type": "event"
    },
    {
      "anonymous": false,
      "inputs": [
        {
          "indexed": true,
          "internalType": "address",
          "name": "_from",
          "type": "address"
        },
        {
          "indexed": true,
          "internalType": "address",
          "name": "_to",
          "type": "address"
        },
        {
          "indexed": true,
          "internalType": "uint256",
          "name": "_tokenId",
          "type": "uint256"
        }
      ],
      "name": "Transfer",
      "type": "event"
    },
    {
      "inputs": [],
      "name": "owner",
      "outputs": [
        {
          "internalType": "address",
          "name": "",
          "type": "address"
        }
      ],
      "stateMutability": "view",
      "type": "function"
    },
    {
      "inputs": [],
      "name": "renounceOwnership",
      "outputs": [],
      "stateMutability": "nonpayable",
      "type": "function"
    },
    {
      "inputs": [
        {
          "internalType": "address",
          "name": "newOwner",
          "type": "address"
        }
      ],
      "name": "transferOwnership",
      "outputs": [],
      "stateMutability": "nonpayable",
      "type": "function"
    },
    {
      "inputs": [
        {
          "internalType": "address",
          "name": "tokenOwnershipAddress",
          "type": "address"
        }
      ],
      "name": "init",
      "outputs": [],
      "stateMutability": "nonpayable",
      "type": "function"
    },
    {
      "inputs": [
        {
          "internalType": "address",
          "name": "_owner",
          "type": "address"
        }
      ],
      "name": "balanceOf",
      "outputs": [
        {
          "internalType": "uint256",
          "name": "",
          "type": "uint256"
        }
      ],
      "stateMutability": "view",
      "type": "function"
    },
    {
      "inputs": [
        {
          "internalType": "uint256",
          "name": "_tokenId",
          "type": "uint256"
        }
      ],
      "name": "ownerOf",
      "outputs": [
        {
          "internalType": "address",
          "name": "",
          "type": "address"
        }
      ],
      "stateMutability": "view",
      "type": "function"
    },
    {
      "inputs": [
        {
          "internalType": "address",
          "name": "_from",
          "type": "address"
        },
        {
          "internalType": "address",
          "name": "_to",
          "type": "address"
        },
        {
          "internalType": "uint256",
          "name": "_tokenId",
          "type": "uint256"
        }
      ],
      "name": "transferFrom",
      "outputs": [],
      "stateMutability": "payable",
      "type": "function"
    },
    {
      "inputs": [
        {
          "internalType": "address",
          "name": "_approved",
          "type": "address"
        },
        {
          "internalType": "uint256",
          "name": "_tokenId",
          "type": "uint256"
        }
      ],
      "name": "approve",
      "outputs": [],
      "stateMutability": "payable",
      "type": "function"
    }
  ],
  "bytecode": "0x608060405234801561001057600080fd5b5061002d61002261003260201b60201c565b61003a60201b60201c565b6100fe565b600033905090565b60008060009054906101000a900473ffffffffffffffffffffffffffffffffffffffff169050816000806101000a81548173ffffffffffffffffffffffffffffffffffffffff021916908373ffffffffffffffffffffffffffffffffffffffff1602179055508173ffffffffffffffffffffffffffffffffffffffff168173ffffffffffffffffffffffffffffffffffffffff167f8be0079c531659141344cd1fd0a4f28419497f9722a3daafe3b4186f6b6457e060405160405180910390a35050565b610a928061010d6000396000f3fe60806040526004361061007b5760003560e01c806370a082311161004e57806370a082311461011e578063715018a61461015b5780638da5cb5b14610172578063f2fde38b1461019d5761007b565b8063095ea7b31461008057806319ab453c1461009c57806323b872dd146100c55780636352211e146100e1575b600080fd5b61009a60048036038101906100959190610728565b6101c6565b005b3480156100a857600080fd5b506100c360048036038101906100be9190610768565b610259565b005b6100df60048036038101906100da9190610795565b6102a5565b005b3480156100ed57600080fd5b50610108600480360381019061010391906107e8565b61033b565b6040516101159190610824565b60405180910390f35b34801561012a57600080fd5b5061014560048036038101906101409190610768565b6103e0565b604051610152919061084e565b60405180910390f35b34801561016757600080fd5b50610170610485565b005b34801561017e57600080fd5b50610187610499565b6040516101949190610824565b60405180910390f35b3480156101a957600080fd5b506101c460048036038101906101bf9190610768565b6104c2565b005b600160009054906101000a900473ffffffffffffffffffffffffffffffffffffffff1673ffffffffffffffffffffffffffffffffffffffff1663b44a4e9383836040518363ffffffff1660e01b8152600401610223929190610869565b600060405180830381600087803b15801561023d57600080fd5b505af1158015610251573d6000803e3d6000fd5b505050505050565b610261610545565b80600160006101000a81548173ffffffffffffffffffffffffffffffffffffffff021916908373ffffffffffffffffffffffffffffffffffffffff16021790555050565b600160009054906101000a900473ffffffffffffffffffffffffffffffffffffffff1673ffffffffffffffffffffffffffffffffffffffff16637ec5c75c8484846040518463ffffffff1660e01b815260040161030493929190610892565b600060405180830381600087803b15801561031e57600080fd5b505af1158015610332573d6000803e3d6000fd5b50505050505050565b6000600160009054906101000a900473ffffffffffffffffffffffffffffffffffffffff1673ffffffffffffffffffffffffffffffffffffffff166302b67745836040518263ffffffff1660e01b8152600401610398919061084e565b602060405180830381865afa1580156103b5573d6000803e3d6000fd5b505050506040513d601f19601f820116820180604052508101906103d991906108de565b9050919050565b6000600160009054906101000a900473ffffffffffffffffffffffffffffffffffffffff1673ffffffffffffffffffffffffffffffffffffffff16632cb03a3a836040518263ffffffff1660e01b815260040161043d9190610824565b602060405180830381865afa15801561045a573d6000803e3d6000fd5b505050506040513d601f19601f8201168201806040525081019061047e9190610920565b9050919050565b61048d610545565b61049760006105c3565b565b60008060009054906101000a900473ffffffffffffffffffffffffffffffffffffffff16905090565b6104ca610545565b600073ffffffffffffffffffffffffffffffffffffffff168173ffffffffffffffffffffffffffffffffffffffff1603610539576040517f08c379a0000000000000000000000000000000000000000000000000000000008152600401610530906109d0565b60405180910390fd5b610542816105c3565b50565b61054d610687565b73ffffffffffffffffffffffffffffffffffffffff1661056b610499565b73ffffffffffffffffffffffffffffffffffffffff16146105c1576040517f08c379a00000000000000000000000000000000000000000000000000000000081526004016105b890610a3c565b60405180910390fd5b565b60008060009054906101000a900473ffffffffffffffffffffffffffffffffffffffff169050816000806101000a81548173ffffffffffffffffffffffffffffffffffffffff021916908373ffffffffffffffffffffffffffffffffffffffff1602179055508173ffffffffffffffffffffffffffffffffffffffff168173ffffffffffffffffffffffffffffffffffffffff167f8be0079c531659141344cd1fd0a4f28419497f9722a3daafe3b4186f6b6457e060405160405180910390a35050565b600033905090565b600080fd5b600073ffffffffffffffffffffffffffffffffffffffff82169050919050565b60006106bf82610694565b9050919050565b6106cf816106b4565b81146106da57600080fd5b50565b6000813590506106ec816106c6565b92915050565b6000819050919050565b610705816106f2565b811461071057600080fd5b50565b600081359050610722816106fc565b92915050565b6000806040838503121561073f5761073e61068f565b5b600061074d858286016106dd565b925050602061075e85828601610713565b9150509250929050565b60006020828403121561077e5761077d61068f565b5b600061078c848285016106dd565b91505092915050565b6000806000606084860312156107ae576107ad61068f565b5b60006107bc868287016106dd565b93505060206107cd868287016106dd565b92505060406107de86828701610713565b9150509250925092565b6000602082840312156107fe576107fd61068f565b5b600061080c84828501610713565b91505092915050565b61081e816106b4565b82525050565b60006020820190506108396000830184610815565b92915050565b610848816106f2565b82525050565b6000602082019050610863600083018461083f565b92915050565b600060408201905061087e6000830185610815565b61088b602083018461083f565b9392505050565b60006060820190506108a76000830186610815565b6108b46020830185610815565b6108c1604083018461083f565b949350505050565b6000815190506108d8816106c6565b92915050565b6000602082840312156108f4576108f361068f565b5b6000610902848285016108c9565b91505092915050565b60008151905061091a816106fc565b92915050565b6000602082840312156109365761093561068f565b5b60006109448482850161090b565b91505092915050565b600082825260208201905092915050565b7f4f776e61626c653a206e6577206f776e657220697320746865207a65726f206160008201527f6464726573730000000000000000000000000000000000000000000000000000602082015250565b60006109ba60268361094d565b91506109c58261095e565b604082019050919050565b600060208201905081810360008301526109e9816109ad565b9050919050565b7f4f776e61626c653a2063616c6c6572206973206e6f7420746865206f776e6572600082015250565b6000610a2660208361094d565b9150610a31826109f0565b602082019050919050565b60006020820190508181036000830152610a5581610a19565b905091905056fea2646970667358221220398cefa15c695acb7c22cd9cffc7907959ac3b3ff5ca4444c38f4d52bce4e66764736f6c634300080d0033",
  "immutableReferences": {},
  "source": "// SPDX-License-Identifier: MIT\npragma solidity ^0.8.13;\n\nimport \"./TokenOwnership.sol\";\nimport \"../node_modules/@openzeppelin/contracts/access/Ownable.sol\";\n\n\ncontract CarOwnership is Ownable{\n    event Transfer(address indexed _from, address indexed _to, uint256 indexed _tokenId);\n    event Approval(address indexed _owner, address indexed _approved, uint256 indexed _tokenId);\n\n    TokenOwnership tokenOwnership;\n\n    function init(address tokenOwnershipAddress) public onlyOwner{\n        tokenOwnership = TokenOwnership(tokenOwnershipAddress);\n    }\n\n    function balanceOf(address _owner) external view returns (uint256){\n        return tokenOwnership.balanceOfCars(_owner);\n    }\n    function ownerOf(uint256 _tokenId) external view returns (address){\n        return tokenOwnership.ownerOfCar(_tokenId);\n    }\n    function transferFrom(address _from, address _to, uint256 _tokenId) external payable{\n        return tokenOwnership.transferCarFrom(_from, _to, _tokenId);\n    }\n    function approve(address _approved, uint256 _tokenId) external payable{\n        tokenOwnership.approveCar(_approved, _tokenId);\n    }\n}",
  "sourcePath": "/Users/vvan/Programming/JavaScript/DriveSafely/contract/contracts/CarOwnership.sol",
  "compiler": {
    "name": "solc",
    "version": "0.8.13+commit.abaa5c0e.Emscripten.clang"
  },
  "schemaVersion": "3.4.11",
  "updatedAt": "2023-01-08T10:44:12.309Z",
  "devdoc": {
    "kind": "dev",
    "methods": {
      "owner()": {
        "details": "Returns the address of the current owner."
      },
      "renounceOwnership()": {
        "details": "Leaves the contract without owner. It will not be possible to call `onlyOwner` functions anymore. Can only be called by the current owner. NOTE: Renouncing ownership will leave the contract without an owner, thereby removing any functionality that is only available to the owner."
      },
      "transferOwnership(address)": {
        "details": "Transfers ownership of the contract to a new account (`newOwner`). Can only be called by the current owner."
      }
    },
    "version": 1
  },
  "userdoc": {
    "kind": "user",
    "methods": {},
    "version": 1
  }
}