{
  "contractName": "CarRacing",
  "abi": [
    {
      "anonymous": false,
      "inputs": [
        {
          "indexed": true,
          "internalType": "address",
          "name": "previousOwner",
          "type": "address"
        },
        {
          "indexed": true,
          "internalType": "address",
          "name": "newOwner",
          "type": "address"
        }
      ],
      "name": "OwnershipTransferred",
      "type": "event"
    },
    {
      "anonymous": false,
      "inputs": [
        {
          "indexed": false,
          "internalType": "uint256",
          "name": "roomId",
          "type": "uint256"
        }
      ],
      "name": "RoomClosed",
      "type": "event"
    },
    {
      "anonymous": false,
      "inputs": [
        {
          "indexed": false,
          "internalType": "uint256",
          "name": "roomId",
          "type": "uint256"
        },
        {
          "indexed": false,
          "internalType": "uint256",
          "name": "roomDNA",
          "type": "uint256"
        }
      ],
      "name": "RoomFull",
      "type": "event"
    },
    {
      "inputs": [
        {
          "internalType": "uint256",
          "name": "",
          "type": "uint256"
        }
      ],
      "name": "carToOwner",
      "outputs": [
        {
          "internalType": "address",
          "name": "",
          "type": "address"
        }
      ],
      "stateMutability": "view",
      "type": "function",
      "constant": true
    },
    {
      "inputs": [
        {
          "internalType": "uint256",
          "name": "",
          "type": "uint256"
        }
      ],
      "name": "cars",
      "outputs": [
        {
          "internalType": "string",
          "name": "model",
          "type": "string"
        },
        {
          "internalType": "uint256",
          "name": "vin",
          "type": "uint256"
        },
        {
          "internalType": "uint256",
          "name": "engineId",
          "type": "uint256"
        },
        {
          "internalType": "uint256",
          "name": "chassisId",
          "type": "uint256"
        },
        {
          "internalType": "uint8",
          "name": "carLevel",
          "type": "uint8"
        },
        {
          "internalType": "uint256",
          "name": "mileage",
          "type": "uint256"
        },
        {
          "internalType": "uint256",
          "name": "winCountOnCurrentLevel",
          "type": "uint256"
        },
        {
          "internalType": "uint256",
          "name": "lossCountOnCurrentLevel",
          "type": "uint256"
        }
      ],
      "stateMutability": "view",
      "type": "function",
      "constant": true
    },
    {
      "inputs": [
        {
          "internalType": "uint256",
          "name": "",
          "type": "uint256"
        }
      ],
      "name": "chassis",
      "outputs": [
        {
          "internalType": "uint256",
          "name": "id",
          "type": "uint256"
        },
        {
          "internalType": "uint32",
          "name": "durability",
          "type": "uint32"
        },
        {
          "internalType": "uint32",
          "name": "resource",
          "type": "uint32"
        }
      ],
      "stateMutability": "view",
      "type": "function",
      "constant": true
    },
    {
      "inputs": [
        {
          "internalType": "uint256",
          "name": "",
          "type": "uint256"
        }
      ],
      "name": "chassisToOwner",
      "outputs": [
        {
          "internalType": "address",
          "name": "",
          "type": "address"
        }
      ],
      "stateMutability": "view",
      "type": "function",
      "constant": true
    },
    {
      "inputs": [
        {
          "internalType": "uint256",
          "name": "roomId",
          "type": "uint256"
        },
        {
          "internalType": "uint256[]",
          "name": "answer",
          "type": "uint256[]"
        }
      ],
      "name": "commitAnswer",
      "outputs": [],
      "stateMutability": "nonpayable",
      "type": "function"
    },
    {
      "inputs": [
        {
          "internalType": "string",
          "name": "model",
          "type": "string"
        }
      ],
      "name": "createCar",
      "outputs": [],
      "stateMutability": "nonpayable",
      "type": "function"
    },
    {
      "inputs": [],
      "name": "createFuelStation",
      "outputs": [],
      "stateMutability": "nonpayable",
      "type": "function"
    },
    {
      "inputs": [
        {
          "internalType": "uint256",
          "name": "",
          "type": "uint256"
        }
      ],
      "name": "engineToOwner",
      "outputs": [
        {
          "internalType": "address",
          "name": "",
          "type": "address"
        }
      ],
      "stateMutability": "view",
      "type": "function",
      "constant": true
    },
    {
      "inputs": [
        {
          "internalType": "uint256",
          "name": "",
          "type": "uint256"
        }
      ],
      "name": "engines",
      "outputs": [
        {
          "internalType": "uint256",
          "name": "id",
          "type": "uint256"
        },
        {
          "internalType": "uint16",
          "name": "horsePowers",
          "type": "uint16"
        },
        {
          "internalType": "uint8",
          "name": "consumtion",
          "type": "uint8"
        }
      ],
      "stateMutability": "view",
      "type": "function",
      "constant": true
    },
    {
      "inputs": [
        {
          "internalType": "uint256",
          "name": "carId",
          "type": "uint256"
        }
      ],
      "name": "findRoom",
      "outputs": [],
      "stateMutability": "nonpayable",
      "type": "function"
    },
    {
      "inputs": [
        {
          "internalType": "uint256",
          "name": "",
          "type": "uint256"
        }
      ],
      "name": "fuelStationToOwner",
      "outputs": [
        {
          "internalType": "address",
          "name": "",
          "type": "address"
        }
      ],
      "stateMutability": "view",
      "type": "function",
      "constant": true
    },
    {
      "inputs": [
        {
          "internalType": "address",
          "name": "_owner",
          "type": "address"
        }
      ],
      "name": "getCarsByOwner",
      "outputs": [
        {
          "components": [
            {
              "internalType": "string",
              "name": "model",
              "type": "string"
            },
            {
              "internalType": "uint256",
              "name": "vin",
              "type": "uint256"
            },
            {
              "internalType": "uint256",
              "name": "engineId",
              "type": "uint256"
            },
            {
              "internalType": "uint256",
              "name": "chassisId",
              "type": "uint256"
            },
            {
              "internalType": "uint8",
              "name": "carLevel",
              "type": "uint8"
            },
            {
              "internalType": "uint256",
              "name": "mileage",
              "type": "uint256"
            },
            {
              "internalType": "uint256",
              "name": "winCountOnCurrentLevel",
              "type": "uint256"
            },
            {
              "internalType": "uint256",
              "name": "lossCountOnCurrentLevel",
              "type": "uint256"
            }
          ],
          "internalType": "struct CarFactory.Car[]",
          "name": "",
          "type": "tuple[]"
        }
      ],
      "stateMutability": "view",
      "type": "function",
      "constant": true
    },
    {
      "inputs": [
        {
          "internalType": "address",
          "name": "_owner",
          "type": "address"
        }
      ],
      "name": "getChassisByOwner",
      "outputs": [
        {
          "internalType": "uint256[]",
          "name": "",
          "type": "uint256[]"
        }
      ],
      "stateMutability": "view",
      "type": "function",
      "constant": true
    },
    {
      "inputs": [
        {
          "internalType": "uint256",
          "name": "roomId",
          "type": "uint256"
        }
      ],
      "name": "getClosedRoom",
      "outputs": [
        {
          "components": [
            {
              "internalType": "address",
              "name": "player",
              "type": "address"
            },
            {
              "internalType": "bool",
              "name": "correct",
              "type": "bool"
            },
            {
              "internalType": "uint256",
              "name": "time",
              "type": "uint256"
            },
            {
              "internalType": "uint256",
              "name": "carId",
              "type": "uint256"
            }
          ],
          "internalType": "struct RaceHandler.Answer[]",
          "name": "",
          "type": "tuple[]"
        }
      ],
      "stateMutability": "view",
      "type": "function",
      "constant": true
    },
    {
      "inputs": [
        {
          "internalType": "address",
          "name": "_owner",
          "type": "address"
        }
      ],
      "name": "getEnginesByOwner",
      "outputs": [
        {
          "internalType": "uint256[]",
          "name": "",
          "type": "uint256[]"
        }
      ],
      "stateMutability": "view",
      "type": "function",
      "constant": true
    },
    {
      "inputs": [
        {
          "internalType": "address",
          "name": "_owner",
          "type": "address"
        }
      ],
      "name": "getFuelStationByOwner",
      "outputs": [
        {
          "internalType": "uint256",
          "name": "",
          "type": "uint256"
        }
      ],
      "stateMutability": "view",
      "type": "function",
      "constant": true
    },
    {
      "inputs": [
        {
          "internalType": "uint256",
          "name": "",
          "type": "uint256"
        }
      ],
      "name": "idToStartedRooms",
      "outputs": [
        {
          "internalType": "uint256",
          "name": "numberPlayers",
          "type": "uint256"
        },
        {
          "internalType": "uint256",
          "name": "world",
          "type": "uint256"
        },
        {
          "internalType": "uint256",
          "name": "roomDNA",
          "type": "uint256"
        },
        {
          "internalType": "uint256",
          "name": "startTime",
          "type": "uint256"
        },
        {
          "internalType": "uint256",
          "name": "curAnswer",
          "type": "uint256"
        },
        {
          "internalType": "bool",
          "name": "closed",
          "type": "bool"
        }
      ],
      "stateMutability": "view",
      "type": "function",
      "constant": true
    },
    {
      "inputs": [
        {
          "internalType": "uint256",
          "name": "_carId",
          "type": "uint256"
        }
      ],
      "name": "levelUp",
      "outputs": [],
      "stateMutability": "payable",
      "type": "function",
      "payable": true
    },
    {
      "inputs": [
        {
          "internalType": "uint256",
          "name": "",
          "type": "uint256"
        }
      ],
      "name": "openedRooms",
      "outputs": [
        {
          "internalType": "uint256",
          "name": "id",
          "type": "uint256"
        },
        {
          "internalType": "uint256",
          "name": "playersEntered",
          "type": "uint256"
        },
        {
          "internalType": "uint256",
          "name": "world",
          "type": "uint256"
        },
        {
          "components": [
            {
              "internalType": "uint256",
              "name": "playersNeeded",
              "type": "uint256"
            },
            {
              "internalType": "uint256",
              "name": "roadsNum",
              "type": "uint256"
            },
            {
              "internalType": "uint256",
              "name": "crossId",
              "type": "uint256"
            }
          ],
          "internalType": "struct RaceHandler.Cross",
          "name": "cross",
          "type": "tuple"
        }
      ],
      "stateMutability": "view",
      "type": "function",
      "constant": true
    },
    {
      "inputs": [],
      "name": "owner",
      "outputs": [
        {
          "internalType": "address",
          "name": "",
          "type": "address"
        }
      ],
      "stateMutability": "view",
      "type": "function",
      "constant": true
    },
    {
      "inputs": [
        {
          "internalType": "address",
          "name": "",
          "type": "address"
        }
      ],
      "name": "ownerCarCount",
      "outputs": [
        {
          "internalType": "uint256",
          "name": "",
          "type": "uint256"
        }
      ],
      "stateMutability": "view",
      "type": "function",
      "constant": true
    },
    {
      "inputs": [],
      "name": "renounceOwnership",
      "outputs": [],
      "stateMutability": "nonpayable",
      "type": "function"
    },
    {
      "inputs": [
        {
          "internalType": "uint256",
          "name": "",
          "type": "uint256"
        }
      ],
      "name": "stations",
      "outputs": [
        {
          "internalType": "uint256",
          "name": "id",
          "type": "uint256"
        },
        {
          "internalType": "uint8",
          "name": "capacity",
          "type": "uint8"
        },
        {
          "internalType": "uint8",
          "name": "productionPerHour",
          "type": "uint8"
        },
        {
          "internalType": "uint8",
          "name": "currentFullness",
          "type": "uint8"
        },
        {
          "internalType": "uint256",
          "name": "lastUpdate",
          "type": "uint256"
        }
      ],
      "stateMutability": "view",
      "type": "function",
      "constant": true
    },
    {
      "inputs": [
        {
          "internalType": "address",
          "name": "newOwner",
          "type": "address"
        }
      ],
      "name": "transferOwnership",
      "outputs": [],
      "stateMutability": "nonpayable",
      "type": "function"
    },
    {
      "inputs": [
        {
          "internalType": "uint256",
          "name": "_fuelStatonId",
          "type": "uint256"
        },
        {
          "internalType": "uint8",
          "name": "_counts",
          "type": "uint8"
        }
      ],
      "name": "upgradeCapacity",
      "outputs": [],
      "stateMutability": "payable",
      "type": "function",
      "payable": true
    },
    {
      "inputs": [
        {
          "internalType": "uint256",
          "name": "_engineId",
          "type": "uint256"
        },
        {
          "internalType": "uint8",
          "name": "_counts",
          "type": "uint8"
        }
      ],
      "name": "upgradeConsumtion",
      "outputs": [],
      "stateMutability": "payable",
      "type": "function",
      "payable": true
    },
    {
      "inputs": [
        {
          "internalType": "uint256",
          "name": "_chassisId",
          "type": "uint256"
        },
        {
          "internalType": "uint8",
          "name": "_counts",
          "type": "uint8"
        }
      ],
      "name": "upgradeDurability",
      "outputs": [],
      "stateMutability": "payable",
      "type": "function",
      "payable": true
    },
    {
      "inputs": [
        {
          "internalType": "uint256",
          "name": "_engineId",
          "type": "uint256"
        },
        {
          "internalType": "uint8",
          "name": "_counts",
          "type": "uint8"
        }
      ],
      "name": "upgradeHorsePowers",
      "outputs": [],
      "stateMutability": "payable",
      "type": "function",
      "payable": true
    },
    {
      "inputs": [
        {
          "internalType": "uint256",
          "name": "_fuelStatonId",
          "type": "uint256"
        },
        {
          "internalType": "uint8",
          "name": "_counts",
          "type": "uint8"
        }
      ],
      "name": "upgradeProductionPerHour",
      "outputs": [],
      "stateMutability": "payable",
      "type": "function",
      "payable": true
    },
    {
      "inputs": [
        {
          "internalType": "uint256",
          "name": "_carId",
          "type": "uint256"
        }
      ],
      "name": "startRace",
      "outputs": [],
      "stateMutability": "nonpayable",
      "type": "function"
    }
  ],
  "bytecode": "0x6080604052603c600060146101000a81548160ff021916908360ff1602179055506005600060156101000a81548160ff021916908360ff160217905550600160085560016009556509184e72a00060135565b5e620f48000601455650da475abf0006015556611c37937e080006016556305f5e10060175566038d7ea4c680006018553480156200008f57600080fd5b50620000b0620000a46200034760201b60201c565b6200034f60201b60201c565b6050600381905550605b600481905550600a600560006101000a81548160ff021916908360ff160217905550620186a06006819055506201d4c1600781905550600b60018160018154018082558091505003906000526020600020905050600c600181600181540180825580915050039060005260206000209050506019604051806060016040528060048152602001600481526020016000815250908060018154018082558091505060019003906000526020600020906003020160009091909190915060008201518160000155602082015181600101556040820151816002015550506019604051806060016040528060038152602001600481526020016000815250908060018154018082558091505060019003906000526020600020906003020160009091909190915060008201518160000155602082015181600101556040820151816002015550506019604051806060016040528060028152602001600481526020016000815250908060018154018082558091505060019003906000526020600020906003020160009091909190915060008201518160000155602082015181600101556040820151816002015550506019604051806060016040528060038152602001600381526020016001815250908060018154018082558091505060019003906000526020600020906003020160009091909190915060008201518160000155602082015181600101556040820151816002015550506019604051806060016040528060028152602001600381526020016001815250908060018154018082558091505060019003906000526020600020906003020160009091909190915060008201518160000155602082015181600101556040820151816002015550506001601c8190555062000413565b600033905090565b60008060009054906101000a900473ffffffffffffffffffffffffffffffffffffffff169050816000806101000a81548173ffffffffffffffffffffffffffffffffffffffff021916908373ffffffffffffffffffffffffffffffffffffffff1602179055508173ffffffffffffffffffffffffffffffffffffffff168173ffffffffffffffffffffffffffffffffffffffff167f8be0079c531659141344cd1fd0a4f28419497f9722a3daafe3b4186f6b6457e060405160405180910390a35050565b614b1580620004236000396000f3fe6080604052600436106101cd5760003560e01c80637713d521116100f7578063b72c0eea11610095578063f2fde38b11610064578063f2fde38b146106d5578063f7746e36146106fe578063faf4bb9814610742578063fb2d954f1461075e576101cd565b8063b72c0eea14610607578063c75bb4f414610646578063c85b7fed14610683578063ede6fbf5146106ac576101cd565b80638da5cb5b116100d15780638da5cb5b14610542578063906f5f341461056d57806392f859db14610589578063b3b29afd146105ca576101cd565b80637713d521146104cd5780637c62360f1461050a5780638590926714610526576101cd565b806333ca504b1161016f578063594193d71161013e578063594193d7146103ff5780635dcc4cc61461043c5780636f206fc114610479578063715018a6146104b6576101cd565b806333ca504b1461030b5780633521c4261461034857806344901490146103855780634e31f910146103c2576101cd565b80630ce90ec2116101ab5780630ce90ec2146102705780631c5dde0e1461028c578063224370f0146102cb57806324d822bf146102e2576101cd565b806303f2e05b146101d25780630418394e146101ee578063081315ff14610230575b600080fd5b6101ec60048036038101906101e7919061358b565b610787565b005b3480156101fa57600080fd5b50610215600480360381019061021091906135cb565b6108bf565b60405161022796959493929190613622565b60405180910390f35b34801561023c57600080fd5b50610257600480360381019061025291906135cb565b610908565b60405161026794939291906136d4565b60405180910390f35b61028a600480360381019061028591906135cb565b610970565b005b34801561029857600080fd5b506102b360048036038101906102ae91906135cb565b610aef565b6040516102c293929190613738565b60405180910390f35b3480156102d757600080fd5b506102e0610b49565b005b3480156102ee57600080fd5b50610309600480360381019061030491906135cb565b610cb5565b005b34801561031757600080fd5b50610332600480360381019061032d91906135cb565b610ecb565b60405161033f91906137b0565b60405180910390f35b34801561035457600080fd5b5061036f600480360381019061036a91906135cb565b610efe565b60405161037c91906138ed565b60405180910390f35b34801561039157600080fd5b506103ac60048036038101906103a791906135cb565b61105b565b6040516103b991906137b0565b60405180910390f35b3480156103ce57600080fd5b506103e960048036038101906103e4919061393b565b61108e565b6040516103f69190613968565b60405180910390f35b34801561040b57600080fd5b50610426600480360381019061042191906135cb565b61112c565b60405161043391906137b0565b60405180910390f35b34801561044857600080fd5b50610463600480360381019061045e91906135cb565b61115f565b60405161047091906137b0565b60405180910390f35b34801561048557600080fd5b506104a0600480360381019061049b919061393b565b611192565b6040516104ad9190613a32565b60405180910390f35b3480156104c257600080fd5b506104cb6112e4565b005b3480156104d957600080fd5b506104f460048036038101906104ef919061393b565b6112f8565b6040516105019190613a32565b60405180910390f35b610524600480360381019061051f919061358b565b61144a565b005b610540600480360381019061053b919061358b565b611577565b005b34801561054e57600080fd5b5061055761169a565b60405161056491906137b0565b60405180910390f35b6105876004803603810190610582919061358b565b6116c3565b005b34801561059557600080fd5b506105b060048036038101906105ab91906135cb565b6117e6565b6040516105c1959493929190613a63565b60405180910390f35b3480156105d657600080fd5b506105f160048036038101906105ec919061393b565b611853565b6040516105fe9190613968565b60405180910390f35b34801561061357600080fd5b5061062e600480360381019061062991906135cb565b61186b565b60405161063d93929190613ad3565b60405180910390f35b34801561065257600080fd5b5061066d6004803603810190610668919061393b565b6118c0565b60405161067a9190613d24565b60405180910390f35b34801561068f57600080fd5b506106aa60048036038101906106a59190613e8e565b611b34565b005b3480156106b857600080fd5b506106d360048036038101906106ce9190613f9f565b611eb7565b005b3480156106e157600080fd5b506106fc60048036038101906106f7919061393b565b612118565b005b34801561070a57600080fd5b50610725600480360381019061072091906135cb565b61219b565b604051610739989796959493929190614032565b60405180910390f35b61075c6004803603810190610757919061358b565b612288565b005b34801561076a57600080fd5b50610785600480360381019061078091906135cb565b6123b6565b005b81600f600082815260200190815260200160002060009054906101000a900473ffffffffffffffffffffffffffffffffffffffff1673ffffffffffffffffffffffffffffffffffffffff163373ffffffffffffffffffffffffffffffffffffffff16146107f357600080fd5b601754600c848154811061080a576108096140b7565b5b906000526020600020906002020160010160009054906101000a900463ffffffff168360ff1661083a9190614115565b63ffffffff1661084a9190614153565b341461085557600080fd5b8160ff16600c848154811061086d5761086c6140b7565b5b906000526020600020906002020160010160008282829054906101000a900463ffffffff1661089c91906141ad565b92506101000a81548163ffffffff021916908363ffffffff160217905550505050565b601e6020528060005260406000206000915090508060000154908060010154908060020154908060030154908060050154908060060160009054906101000a900460ff16905086565b601d818154811061091857600080fd5b9060005260206000209060060201600091509050806000015490806001015490806002015490806003016040518060600160405290816000820154815260200160018201548152602001600282015481525050905084565b600a808281548110610985576109846140b7565b5b906000526020600020906008020160040160009054906101000a900460ff166109ae9190614216565b60ff166018546109be9190614153565b34148015610a3257506001600a82815481106109dd576109dc6140b7565b5b906000526020600020906008020160040160009054906101000a900460ff16610a069190614247565b60ff16600a8281548110610a1d57610a1c6140b7565b5b90600052602060002090600802016006015410155b610a3b57600080fd5b600a8181548110610a4f57610a4e6140b7565b5b9060005260206000209060080201600401600081819054906101000a900460ff1680929190610a7d9061427e565b91906101000a81548160ff021916908360ff160217905550506000600a8281548110610aac57610aab6140b7565b5b9060005260206000209060080201600601819055506000600a8281548110610ad757610ad66140b7565b5b90600052602060002090600802016007018190555050565b600c8181548110610aff57600080fd5b90600052602060002090600202016000915090508060000154908060010160009054906101000a900463ffffffff16908060010160049054906101000a900463ffffffff16905083565b60003390506000600180549050905060016040518060a00160405280838152602001600060149054906101000a900460ff1660ff168152602001600060159054906101000a900460ff1660ff168152602001600060149054906101000a900460ff1660ff1681526020014263ffffffff1681525090806001815401808255809150506001900390600052602060002090600302016000909190919091506000820151816000015560208201518160010160006101000a81548160ff021916908360ff16021790555060408201518160010160016101000a81548160ff021916908360ff16021790555060608201518160010160026101000a81548160ff021916908360ff160217905550608082015181600201555050816002600083815260200190815260200160002060006101000a81548173ffffffffffffffffffffffffffffffffffffffff021916908373ffffffffffffffffffffffffffffffffffffffff1602179055505050565b80600d600082815260200190815260200160002060009054906101000a900473ffffffffffffffffffffffffffffffffffffffff1673ffffffffffffffffffffffffffffffffffffffff163373ffffffffffffffffffffffffffffffffffffffff1614610d2157600080fd5b6000600a808481548110610d3857610d376140b7565b5b906000526020600020906008020160040160009054906101000a900460ff16610d619190614216565b600a610d6d91906142a7565b6002610d7991906142db565b9050610d858382612a17565b8015610df457508060ff16600c600a8581548110610da657610da56140b7565b5b90600052602060002090600802016003015481548110610dc957610dc86140b7565b5b906000526020600020906002020160010160049054906101000a900463ffffffff1663ffffffff1610155b610dfd57600080fd5b8060ff16600c600a8581548110610e1757610e166140b7565b5b90600052602060002090600802016003015481548110610e3a57610e396140b7565b5b906000526020600020906002020160010160048282829054906101000a900463ffffffff16610e699190614316565b92506101000a81548163ffffffff021916908363ffffffff1602179055508060ff16600a8481548110610e9f57610e9e6140b7565b5b90600052602060002090600802016005016000828254610ebf919061434a565b92505081905550505050565b600d6020528060005260406000206000915054906101000a900473ffffffffffffffffffffffffffffffffffffffff1681565b6060601e600083815260200190815260200160002060060160009054906101000a900460ff16610f63576040517f08c379a0000000000000000000000000000000000000000000000000000000008152600401610f5a906143ec565b60405180910390fd5b601e6000838152602001908152602001600020600401805480602002602001604051908101604052809291908181526020016000905b8282101561105057838290600052602060002090600302016040518060800160405290816000820160009054906101000a900473ffffffffffffffffffffffffffffffffffffffff1673ffffffffffffffffffffffffffffffffffffffff1673ffffffffffffffffffffffffffffffffffffffff1681526020016000820160149054906101000a900460ff161515151581526020016001820154815260200160028201548152505081526020019060010190610f99565b505050509050919050565b600f6020528060005260406000206000915054906101000a900473ffffffffffffffffffffffffffffffffffffffff1681565b60008060005b600180549050811015611122578373ffffffffffffffffffffffffffffffffffffffff166002600083815260200190815260200160002060009054906101000a900473ffffffffffffffffffffffffffffffffffffffff1673ffffffffffffffffffffffffffffffffffffffff160361110f57809150611122565b808061111a9061440c565b915050611094565b5080915050919050565b60026020528060005260406000206000915054906101000a900473ffffffffffffffffffffffffffffffffffffffff1681565b600e6020528060005260406000206000915054906101000a900473ffffffffffffffffffffffffffffffffffffffff1681565b60606000601160008473ffffffffffffffffffffffffffffffffffffffff1673ffffffffffffffffffffffffffffffffffffffff1681526020019081526020016000205467ffffffffffffffff8111156111ef576111ee613d4b565b5b60405190808252806020026020018201604052801561121d5781602001602082028036833780820191505090505b5090506000805b600c805490508110156112d9578473ffffffffffffffffffffffffffffffffffffffff16600f600083815260200190815260200160002060009054906101000a900473ffffffffffffffffffffffffffffffffffffffff1673ffffffffffffffffffffffffffffffffffffffff16036112c657808383815181106112ab576112aa6140b7565b5b60200260200101818152505081806112c29061440c565b9250505b80806112d19061440c565b915050611224565b508192505050919050565b6112ec612bd8565b6112f66000612c56565b565b60606000601160008473ffffffffffffffffffffffffffffffffffffffff1673ffffffffffffffffffffffffffffffffffffffff1681526020019081526020016000205467ffffffffffffffff81111561135557611354613d4b565b5b6040519080825280602002602001820160405280156113835781602001602082028036833780820191505090505b5090506000805b600b8054905081101561143f578473ffffffffffffffffffffffffffffffffffffffff16600e600083815260200190815260200160002060009054906101000a900473ffffffffffffffffffffffffffffffffffffffff1673ffffffffffffffffffffffffffffffffffffffff160361142c5780838381518110611411576114106140b7565b5b60200260200101818152505081806114289061440c565b9250505b80806114379061440c565b91505061138a565b508192505050919050565b81600e600082815260200190815260200160002060009054906101000a900473ffffffffffffffffffffffffffffffffffffffff1673ffffffffffffffffffffffffffffffffffffffff163373ffffffffffffffffffffffffffffffffffffffff16146114b657600080fd5b600b83815481106114ca576114c96140b7565b5b906000526020600020906002020160010160029054906101000a900460ff16600a6114f591906142a7565b60026115019190614587565b60165461150e9190614153565b341461151957600080fd5b81600b848154811061152e5761152d6140b7565b5b906000526020600020906002020160010160028282829054906101000a900460ff1661155a91906142a7565b92506101000a81548160ff021916908360ff160217905550505050565b816002600082815260200190815260200160002060009054906101000a900473ffffffffffffffffffffffffffffffffffffffff1673ffffffffffffffffffffffffffffffffffffffff163373ffffffffffffffffffffffffffffffffffffffff16146115e357600080fd5b601454600184815481106115fa576115f96140b7565b5b906000526020600020906003020160010160019054906101000a900460ff168361162491906142db565b60ff166116319190614153565b341461163c57600080fd5b8160018481548110611651576116506140b7565b5b906000526020600020906003020160010160018282829054906101000a900460ff1661167d9190614247565b92506101000a81548160ff021916908360ff160217905550505050565b60008060009054906101000a900473ffffffffffffffffffffffffffffffffffffffff16905090565b816002600082815260200190815260200160002060009054906101000a900473ffffffffffffffffffffffffffffffffffffffff1673ffffffffffffffffffffffffffffffffffffffff163373ffffffffffffffffffffffffffffffffffffffff161461172f57600080fd5b60135460018481548110611746576117456140b7565b5b906000526020600020906003020160010160009054906101000a900460ff168361177091906142db565b60ff1661177d9190614153565b341461178857600080fd5b816001848154811061179d5761179c6140b7565b5b906000526020600020906003020160010160008282829054906101000a900460ff166117c99190614247565b92506101000a81548160ff021916908360ff160217905550505050565b600181815481106117f657600080fd5b90600052602060002090600302016000915090508060000154908060010160009054906101000a900460ff16908060010160019054906101000a900460ff16908060010160029054906101000a900460ff16908060020154905085565b60106020528060005260406000206000915090505481565b600b818154811061187b57600080fd5b90600052602060002090600202016000915090508060000154908060010160009054906101000a900461ffff16908060010160029054906101000a900460ff16905083565b60606000601060008473ffffffffffffffffffffffffffffffffffffffff1673ffffffffffffffffffffffffffffffffffffffff1681526020019081526020016000205467ffffffffffffffff81111561191d5761191c613d4b565b5b60405190808252806020026020018201604052801561195657816020015b61194361341d565b81526020019060019003908161193b5790505b5090506000805b600c80549050811015611b29578473ffffffffffffffffffffffffffffffffffffffff16600d600083815260200190815260200160002060009054906101000a900473ffffffffffffffffffffffffffffffffffffffff1673ffffffffffffffffffffffffffffffffffffffff1603611b1657600a81815481106119e4576119e36140b7565b5b906000526020600020906008020160405180610100016040529081600082018054611a0e90614601565b80601f0160208091040260200160405190810160405280929190818152602001828054611a3a90614601565b8015611a875780601f10611a5c57610100808354040283529160200191611a87565b820191906000526020600020905b815481529060010190602001808311611a6a57829003601f168201915b505050505081526020016001820154815260200160028201548152602001600382015481526020016004820160009054906101000a900460ff1660ff1660ff1681526020016005820154815260200160068201548152602001600782015481525050838381518110611afc57611afb6140b7565b5b60200260200101819052508180611b129061440c565b9250505b8080611b219061440c565b91505061195d565b508192505050919050565b81601a60003373ffffffffffffffffffffffffffffffffffffffff1673ffffffffffffffffffffffffffffffffffffffff1681526020019081526020016000205414611bb5576040517f08c379a0000000000000000000000000000000000000000000000000000000008152600401611bac9061467e565b60405180910390fd5b6000601e6000848152602001908152602001600020600201549050600073__PDDLib________________________________639c63eb2e83856040518363ffffffff1660e01b8152600401611c0b929190614743565b602060405180830381865af4158015611c28573d6000803e3d6000fd5b505050506040513d601f19601f82011682018060405250810190611c4c919061479f565b9050600060405180608001604052803373ffffffffffffffffffffffffffffffffffffffff1681526020018315158152602001428152602001601b60003373ffffffffffffffffffffffffffffffffffffffff1673ffffffffffffffffffffffffffffffffffffffff1681526020019081526020016000205481525090506000601e600087815260200190815260200160002090508060040182908060018154018082558091505060019003906000526020600020906003020160009091909190915060008201518160000160006101000a81548173ffffffffffffffffffffffffffffffffffffffff021916908373ffffffffffffffffffffffffffffffffffffffff16021790555060208201518160000160146101000a81548160ff02191690831515021790555060408201518160010155606082015181600201555050601e600087815260200190815260200160002060000154601e60008881526020019081526020016000206004018054905003611eaf577f67acaceb58ff1ad2aa8b3069f69c4cd076824e06a09184b75fb197ead7040be786604051611df19190613968565b60405180910390a16001601e600088815260200190815260200160002060060160006101000a81548160ff021916908315150217905550601a60003373ffffffffffffffffffffffffffffffffffffffff1673ffffffffffffffffffffffffffffffffffffffff16815260200190815260200160002060009055601b60003373ffffffffffffffffffffffffffffffffffffffff1673ffffffffffffffffffffffffffffffffffffffff168152602001908152602001600020600090555b505050505050565b6000601060003373ffffffffffffffffffffffffffffffffffffffff1673ffffffffffffffffffffffffffffffffffffffff1681526020019081526020016000205414611f0357600080fd5b600081611f0f42612d1a565b604051602001611f20929190614808565b6040516020818303038152906040529050600081604051602001611f44919061482c565b6040516020818303038152906040528051906020012060001c90506000611f69612de8565b90506000611f75612f8b565b90506000600a805490509050600a604051806101000160405280888152602001868152602001858152602001848152602001600160ff1681526020016000815260200160008152602001600081525090806001815401808255809150506001900390600052602060002090600802016000909190919091506000820151816000019080519060200190612009929190613465565b5060208201518160010155604082015181600201556060820151816003015560808201518160040160006101000a81548160ff021916908360ff16021790555060a0820151816005015560c0820151816006015560e08201518160070155505033600d600083815260200190815260200160002060006101000a81548173ffffffffffffffffffffffffffffffffffffffff021916908373ffffffffffffffffffffffffffffffffffffffff160217905550601060003373ffffffffffffffffffffffffffffffffffffffff1673ffffffffffffffffffffffffffffffffffffffff168152602001908152602001600020600081548092919061210b9061440c565b9190505550505050505050565b612120612bd8565b600073ffffffffffffffffffffffffffffffffffffffff168173ffffffffffffffffffffffffffffffffffffffff160361218f576040517f08c379a0000000000000000000000000000000000000000000000000000000008152600401612186906148b5565b60405180910390fd5b61219881612c56565b50565b600a81815481106121ab57600080fd5b90600052602060002090600802016000915090508060000180546121ce90614601565b80601f01602080910402602001604051908101604052809291908181526020018280546121fa90614601565b80156122475780601f1061221c57610100808354040283529160200191612247565b820191906000526020600020905b81548152906001019060200180831161222a57829003601f168201915b5050505050908060010154908060020154908060030154908060040160009054906101000a900460ff16908060050154908060060154908060070154905088565b81600e600082815260200190815260200160002060009054906101000a900473ffffffffffffffffffffffffffffffffffffffff1673ffffffffffffffffffffffffffffffffffffffff163373ffffffffffffffffffffffffffffffffffffffff16146122f457600080fd5b601554600b848154811061230b5761230a6140b7565b5b906000526020600020906002020160010160009054906101000a900461ffff168360ff1661233991906148d5565b61ffff166123479190614153565b341461235257600080fd5b8160ff16600b848154811061236a576123696140b7565b5b906000526020600020906002020160010160008282829054906101000a900461ffff166123979190614911565b92506101000a81548161ffff021916908361ffff160217905550505050565b80600d600082815260200190815260200160002060009054906101000a900473ffffffffffffffffffffffffffffffffffffffff1673ffffffffffffffffffffffffffffffffffffffff163373ffffffffffffffffffffffffffffffffffffffff161461242257600080fd5b6000805b601d8054905081101561286257601d8181548110612447576124466140b7565b5b9060005260206000209060060201600201546001600a8087815481106124705761246f6140b7565b5b906000526020600020906008020160040160009054906101000a900460ff166124999190614216565b6124a39190614247565b60ff160361284f5760019150601d81815481106124c3576124c26140b7565b5b906000526020600020906006020160000154601a60003373ffffffffffffffffffffffffffffffffffffffff1673ffffffffffffffffffffffffffffffffffffffff1681526020019081526020016000208190555083601b60003373ffffffffffffffffffffffffffffffffffffffff1673ffffffffffffffffffffffffffffffffffffffff16815260200190815260200160002081905550601d81815481106125705761256f6140b7565b5b906000526020600020906006020160010160008154809291906125929061440c565b9190505550601d81815481106125ab576125aa6140b7565b5b906000526020600020906006020160030160000154601d82815481106125d4576125d36140b7565b5b9060005260206000209060060201600101540361284e57600073__PDDLib________________________________63c037e545601d848154811061261b5761261a6140b7565b5b906000526020600020906006020160030160020154601d8581548110612644576126436140b7565b5b9060005260206000209060060201600301600001546040518363ffffffff1660e01b8152600401612676929190614949565b602060405180830381865af4158015612693573d6000803e3d6000fd5b505050506040513d601f19601f820116820180604052508101906126b79190614987565b90506000601e6000601d85815481106126d3576126d26140b7565b5b90600052602060002090600602016000015481526020019081526020016000209050601d8381548110612709576127086140b7565b5b9060005260206000209060060201600301600001548160000181905550601d838154811061273a576127396140b7565b5b90600052602060002090600602016002015481600101819055508181600201819055504281600301819055506000816005018190555060008160060160006101000a81548160ff0219169083151502179055507f2838ebeee7dc83fac85a3d6dbca0c0b6771591ada8b00f97371aa6611e631f9c601d84815481106127c2576127c16140b7565b5b906000526020600020906006020160000154836040516127e39291906149b4565b60405180910390a1601d83815481106127ff576127fe6140b7565b5b9060005260206000209060060201600080820160009055600182016000905560028201600090556003820160008082016000905560018201600090556002820160009055505050505050612862565b5b808061285a9061440c565b915050612426565b50801561286f5750612a13565b6000601c60008154809291906128849061440c565b91905055905060006019805490504261289d91906149dd565b905081601a60003373ffffffffffffffffffffffffffffffffffffffff1673ffffffffffffffffffffffffffffffffffffffff16815260200190815260200160002081905550601d6040518060800160405280848152602001600181526020016001600a808a81548110612914576129136140b7565b5b906000526020600020906008020160040160009054906101000a900460ff1661293d9190614216565b6129479190614247565b60ff16815260200160198481548110612963576129626140b7565b5b906000526020600020906003020160405180606001604052908160008201548152602001600182015481526020016002820154815250508152509080600181540180825580915050600190039060005260206000209060060201600090919091909150600082015181600001556020820151816001015560408201518160020155606082015181600301600082015181600001556020820151816001015560408201518160020155505050505050505b5050565b600080612a56600d600086815260200190815260200160002060009054906101000a900473ffffffffffffffffffffffffffffffffffffffff1661108e565b9050612a618161312e565b6000600a8581548110612a7757612a766140b7565b5b9060005260206000209060080201600201549050600060019050600a85600b8481548110612aa857612aa76140b7565b5b906000526020600020906002020160010160029054906101000a900460ff16612ad191906142db565b60ff1610612b2657600a600b8381548110612aef57612aee6140b7565b5b906000526020600020906002020160010160029054906101000a900460ff1686612b1991906142db565b612b239190614216565b90505b8060ff1660018481548110612b3e57612b3d6140b7565b5b906000526020600020906003020160010160029054906101000a900460ff1660ff1610612bca578060018481548110612b7a57612b796140b7565b5b906000526020600020906003020160010160028282829054906101000a900460ff16612ba691906142a7565b92506101000a81548160ff021916908360ff16021790555060019350505050612bd2565b600093505050505b92915050565b612be06132a9565b73ffffffffffffffffffffffffffffffffffffffff16612bfe61169a565b73ffffffffffffffffffffffffffffffffffffffff1614612c54576040517f08c379a0000000000000000000000000000000000000000000000000000000008152600401612c4b90614a5a565b60405180910390fd5b565b60008060009054906101000a900473ffffffffffffffffffffffffffffffffffffffff169050816000806101000a81548173ffffffffffffffffffffffffffffffffffffffff021916908373ffffffffffffffffffffffffffffffffffffffff1602179055508173ffffffffffffffffffffffffffffffffffffffff168173ffffffffffffffffffffffffffffffffffffffff167f8be0079c531659141344cd1fd0a4f28419497f9722a3daafe3b4186f6b6457e060405160405180910390a35050565b606060006001612d29846132b1565b01905060008167ffffffffffffffff811115612d4857612d47613d4b565b5b6040519080825280601f01601f191660200182016040528015612d7a5781602001600182028036833780820191505090505b509050600082602001820190505b600115612ddd578080600190039150507f3031323334353637383961626364656600000000000000000000000000000000600a86061a8153600a8581612dd157612dd06141e7565b5b04945060008503612d88575b819350505050919050565b600080600354600454612dfb9190614a7a565b42612e0691906149dd565b600354612e13919061434a565b9050600060086000815480929190612e2a9061440c565b919050559050600b60405180606001604052808381526020018461ffff168152602001600560009054906101000a900460ff1660ff1681525090806001815401808255809150506001900390600052602060002090600202016000909190919091506000820151816000015560208201518160010160006101000a81548161ffff021916908361ffff16021790555060408201518160010160026101000a81548160ff021916908360ff1602179055505050601160003373ffffffffffffffffffffffffffffffffffffffff1673ffffffffffffffffffffffffffffffffffffffff1681526020019081526020016000206000815480929190612f2c9061440c565b919050555033600e600083815260200190815260200160002060006101000a81548173ffffffffffffffffffffffffffffffffffffffff021916908373ffffffffffffffffffffffffffffffffffffffff160217905550809250505090565b600080600654600754612f9e9190614a7a565b42612fa991906149dd565b600654612fb6919061434a565b9050600060096000815480929190612fcd9061440c565b919050559050600c60405180606001604052808381526020018463ffffffff1681526020018463ffffffff1681525090806001815401808255809150506001900390600052602060002090600202016000909190919091506000820151816000015560208201518160010160006101000a81548163ffffffff021916908363ffffffff16021790555060408201518160010160046101000a81548163ffffffff021916908363ffffffff1602179055505050601260003373ffffffffffffffffffffffffffffffffffffffff1673ffffffffffffffffffffffffffffffffffffffff16815260200190815260200160002060008154809291906130cf9061440c565b919050555033600f600083815260200190815260200160002060006101000a81548173ffffffffffffffffffffffffffffffffffffffff021916908373ffffffffffffffffffffffffffffffffffffffff160217905550809250505090565b60004290506000610e106001848154811061314c5761314b6140b7565b5b906000526020600020906003020160020154836131699190614a7a565b6131739190614aae565b905060006001848154811061318b5761318a6140b7565b5b906000526020600020906003020160010160019054906101000a900460ff1660ff16826131b89190614153565b600185815481106131cc576131cb6140b7565b5b906000526020600020906003020160010160029054906101000a900460ff1660ff166131f8919061434a565b905061323c60018581548110613211576132106140b7565b5b906000526020600020906003020160010160009054906101000a900460ff1660ff168260ff16613404565b600185815481106132505761324f6140b7565b5b906000526020600020906003020160010160026101000a81548160ff021916908360ff160217905550826001858154811061328e5761328d6140b7565b5b90600052602060002090600302016002018190555050505050565b600033905090565b600080600090507a184f03e93ff9f4daa797ed6e38ed64bf6a1f010000000000000000831061330f577a184f03e93ff9f4daa797ed6e38ed64bf6a1f0100000000000000008381613305576133046141e7565b5b0492506040810190505b6d04ee2d6d415b85acef8100000000831061334c576d04ee2d6d415b85acef81000000008381613342576133416141e7565b5b0492506020810190505b662386f26fc10000831061337b57662386f26fc100008381613371576133706141e7565b5b0492506010810190505b6305f5e10083106133a4576305f5e100838161339a576133996141e7565b5b0492506008810190505b61271083106133c95761271083816133bf576133be6141e7565b5b0492506004810190505b606483106133ec57606483816133e2576133e16141e7565b5b0492506002810190505b600a83106133fb576001810190505b80915050919050565b60008183106134135781613415565b825b905092915050565b60405180610100016040528060608152602001600081526020016000815260200160008152602001600060ff1681526020016000815260200160008152602001600081525090565b82805461347190614601565b90600052602060002090601f01602090048101928261349357600085556134da565b82601f106134ac57805160ff19168380011785556134da565b828001600101855582156134da579182015b828111156134d95782518255916020019190600101906134be565b5b5090506134e791906134eb565b5090565b5b808211156135045760008160009055506001016134ec565b5090565b6000604051905090565b600080fd5b600080fd5b6000819050919050565b61352f8161351c565b811461353a57600080fd5b50565b60008135905061354c81613526565b92915050565b600060ff82169050919050565b61356881613552565b811461357357600080fd5b50565b6000813590506135858161355f565b92915050565b600080604083850312156135a2576135a1613512565b5b60006135b08582860161353d565b92505060206135c185828601613576565b9150509250929050565b6000602082840312156135e1576135e0613512565b5b60006135ef8482850161353d565b91505092915050565b6136018161351c565b82525050565b60008115159050919050565b61361c81613607565b82525050565b600060c08201905061363760008301896135f8565b61364460208301886135f8565b61365160408301876135f8565b61365e60608301866135f8565b61366b60808301856135f8565b61367860a0830184613613565b979650505050505050565b61368c8161351c565b82525050565b6060820160008201516136a86000850182613683565b5060208201516136bb6020850182613683565b5060408201516136ce6040850182613683565b50505050565b600060c0820190506136e960008301876135f8565b6136f660208301866135f8565b61370360408301856135f8565b6137106060830184613692565b95945050505050565b600063ffffffff82169050919050565b61373281613719565b82525050565b600060608201905061374d60008301866135f8565b61375a6020830185613729565b6137676040830184613729565b949350505050565b600073ffffffffffffffffffffffffffffffffffffffff82169050919050565b600061379a8261376f565b9050919050565b6137aa8161378f565b82525050565b60006020820190506137c560008301846137a1565b92915050565b600081519050919050565b600082825260208201905092915050565b6000819050602082019050919050565b6138008161378f565b82525050565b61380f81613607565b82525050565b60808201600082015161382b60008501826137f7565b50602082015161383e6020850182613806565b5060408201516138516040850182613683565b5060608201516138646060850182613683565b50505050565b60006138768383613815565b60808301905092915050565b6000602082019050919050565b600061389a826137cb565b6138a481856137d6565b93506138af836137e7565b8060005b838110156138e05781516138c7888261386a565b97506138d283613882565b9250506001810190506138b3565b5085935050505092915050565b60006020820190508181036000830152613907818461388f565b905092915050565b6139188161378f565b811461392357600080fd5b50565b6000813590506139358161390f565b92915050565b60006020828403121561395157613950613512565b5b600061395f84828501613926565b91505092915050565b600060208201905061397d60008301846135f8565b92915050565b600081519050919050565b600082825260208201905092915050565b6000819050602082019050919050565b60006139bb8383613683565b60208301905092915050565b6000602082019050919050565b60006139df82613983565b6139e9818561398e565b93506139f48361399f565b8060005b83811015613a25578151613a0c88826139af565b9750613a17836139c7565b9250506001810190506139f8565b5085935050505092915050565b60006020820190508181036000830152613a4c81846139d4565b905092915050565b613a5d81613552565b82525050565b600060a082019050613a7860008301886135f8565b613a856020830187613a54565b613a926040830186613a54565b613a9f6060830185613a54565b613aac60808301846135f8565b9695505050505050565b600061ffff82169050919050565b613acd81613ab6565b82525050565b6000606082019050613ae860008301866135f8565b613af56020830185613ac4565b613b026040830184613a54565b949350505050565b600081519050919050565b600082825260208201905092915050565b6000819050602082019050919050565b600081519050919050565b600082825260208201905092915050565b60005b83811015613b70578082015181840152602081019050613b55565b83811115613b7f576000848401525b50505050565b6000601f19601f8301169050919050565b6000613ba182613b36565b613bab8185613b41565b9350613bbb818560208601613b52565b613bc481613b85565b840191505092915050565b613bd881613552565b82525050565b6000610100830160008301518482036000860152613bfc8282613b96565b9150506020830151613c116020860182613683565b506040830151613c246040860182613683565b506060830151613c376060860182613683565b506080830151613c4a6080860182613bcf565b5060a0830151613c5d60a0860182613683565b5060c0830151613c7060c0860182613683565b5060e0830151613c8360e0860182613683565b508091505092915050565b6000613c9a8383613bde565b905092915050565b6000602082019050919050565b6000613cba82613b0a565b613cc48185613b15565b935083602082028501613cd685613b26565b8060005b85811015613d125784840389528151613cf38582613c8e565b9450613cfe83613ca2565b925060208a01995050600181019050613cda565b50829750879550505050505092915050565b60006020820190508181036000830152613d3e8184613caf565b905092915050565b600080fd5b7f4e487b7100000000000000000000000000000000000000000000000000000000600052604160045260246000fd5b613d8382613b85565b810181811067ffffffffffffffff82111715613da257613da1613d4b565b5b80604052505050565b6000613db5613508565b9050613dc18282613d7a565b919050565b600067ffffffffffffffff821115613de157613de0613d4b565b5b602082029050602081019050919050565b600080fd5b6000613e0a613e0584613dc6565b613dab565b90508083825260208201905060208402830185811115613e2d57613e2c613df2565b5b835b81811015613e565780613e42888261353d565b845260208401935050602081019050613e2f565b5050509392505050565b600082601f830112613e7557613e74613d46565b5b8135613e85848260208601613df7565b91505092915050565b60008060408385031215613ea557613ea4613512565b5b6000613eb38582860161353d565b925050602083013567ffffffffffffffff811115613ed457613ed3613517565b5b613ee085828601613e60565b9150509250929050565b600080fd5b600067ffffffffffffffff821115613f0a57613f09613d4b565b5b613f1382613b85565b9050602081019050919050565b82818337600083830152505050565b6000613f42613f3d84613eef565b613dab565b905082815260208101848484011115613f5e57613f5d613eea565b5b613f69848285613f20565b509392505050565b600082601f830112613f8657613f85613d46565b5b8135613f96848260208601613f2f565b91505092915050565b600060208284031215613fb557613fb4613512565b5b600082013567ffffffffffffffff811115613fd357613fd2613517565b5b613fdf84828501613f71565b91505092915050565b600082825260208201905092915050565b600061400482613b36565b61400e8185613fe8565b935061401e818560208601613b52565b61402781613b85565b840191505092915050565b600061010082019050818103600083015261404d818b613ff9565b905061405c602083018a6135f8565b61406960408301896135f8565b61407660608301886135f8565b6140836080830187613a54565b61409060a08301866135f8565b61409d60c08301856135f8565b6140aa60e08301846135f8565b9998505050505050505050565b7f4e487b7100000000000000000000000000000000000000000000000000000000600052603260045260246000fd5b7f4e487b7100000000000000000000000000000000000000000000000000000000600052601160045260246000fd5b600061412082613719565b915061412b83613719565b92508163ffffffff0483118215151615614148576141476140e6565b5b828202905092915050565b600061415e8261351c565b91506141698361351c565b9250817fffffffffffffffffffffffffffffffffffffffffffffffffffffffffffffffff04831182151516156141a2576141a16140e6565b5b828202905092915050565b60006141b882613719565b91506141c383613719565b92508263ffffffff038211156141dc576141db6140e6565b5b828201905092915050565b7f4e487b7100000000000000000000000000000000000000000000000000000000600052601260045260246000fd5b600061422182613552565b915061422c83613552565b92508261423c5761423b6141e7565b5b828204905092915050565b600061425282613552565b915061425d83613552565b92508260ff03821115614273576142726140e6565b5b828201905092915050565b600061428982613552565b915060ff820361429c5761429b6140e6565b5b600182019050919050565b60006142b282613552565b91506142bd83613552565b9250828210156142d0576142cf6140e6565b5b828203905092915050565b60006142e682613552565b91506142f183613552565b92508160ff048311821515161561430b5761430a6140e6565b5b828202905092915050565b600061432182613719565b915061432c83613719565b92508282101561433f5761433e6140e6565b5b828203905092915050565b60006143558261351c565b91506143608361351c565b9250827fffffffffffffffffffffffffffffffffffffffffffffffffffffffffffffffff03821115614395576143946140e6565b5b828201905092915050565b7f726f6f6d206e6f7420636c6f7365640000000000000000000000000000000000600082015250565b60006143d6600f83613fe8565b91506143e1826143a0565b602082019050919050565b60006020820190508181036000830152614405816143c9565b9050919050565b60006144178261351c565b91507fffffffffffffffffffffffffffffffffffffffffffffffffffffffffffffffff8203614449576144486140e6565b5b600182019050919050565b60008160011c9050919050565b6000808291508390505b60018511156144ab57808604811115614487576144866140e6565b5b60018516156144965780820291505b80810290506144a485614454565b945061446b565b94509492505050565b6000826144c45760019050614580565b816144d25760009050614580565b81600181146144e857600281146144f257614521565b6001915050614580565b60ff841115614504576145036140e6565b5b8360020a91508482111561451b5761451a6140e6565b5b50614580565b5060208310610133831016604e8410600b84101617156145565782820a905083811115614551576145506140e6565b5b614580565b6145638484846001614461565b9250905081840481111561457a576145796140e6565b5b81810290505b9392505050565b60006145928261351c565b915061459d83613552565b92506145ca7fffffffffffffffffffffffffffffffffffffffffffffffffffffffffffffffff84846144b4565b905092915050565b7f4e487b7100000000000000000000000000000000000000000000000000000000600052602260045260246000fd5b6000600282049050600182168061461957607f821691505b60208210810361462c5761462b6145d2565b5b50919050565b7f6e6f7420796f757220726f6f6d00000000000000000000000000000000000000600082015250565b6000614668600d83613fe8565b915061467382614632565b602082019050919050565b600060208201905081810360008301526146978161465b565b9050919050565b6146a78161351c565b82525050565b600082825260208201905092915050565b6146c78161351c565b82525050565b60006146d983836146be565b60208301905092915050565b60006146f082613983565b6146fa81856146ad565b93506147058361399f565b8060005b8381101561473657815161471d88826146cd565b9750614728836139c7565b925050600181019050614709565b5085935050505092915050565b6000604082019050614758600083018561469e565b818103602083015261476a81846146e5565b90509392505050565b61477c81613607565b811461478757600080fd5b50565b60008151905061479981614773565b92915050565b6000602082840312156147b5576147b4613512565b5b60006147c38482850161478a565b91505092915050565b600081905092915050565b60006147e282613b36565b6147ec81856147cc565b93506147fc818560208601613b52565b80840191505092915050565b600061481482856147d7565b915061482082846147d7565b91508190509392505050565b600061483882846147d7565b915081905092915050565b7f4f776e61626c653a206e6577206f776e657220697320746865207a65726f206160008201527f6464726573730000000000000000000000000000000000000000000000000000602082015250565b600061489f602683613fe8565b91506148aa82614843565b604082019050919050565b600060208201905081810360008301526148ce81614892565b9050919050565b60006148e082613ab6565b91506148eb83613ab6565b92508161ffff0483118215151615614906576149056140e6565b5b828202905092915050565b600061491c82613ab6565b915061492783613ab6565b92508261ffff0382111561493e5761493d6140e6565b5b828201905092915050565b600060408201905061495e600083018561469e565b61496b602083018461469e565b9392505050565b60008151905061498181613526565b92915050565b60006020828403121561499d5761499c613512565b5b60006149ab84828501614972565b91505092915050565b60006040820190506149c960008301856135f8565b6149d660208301846135f8565b9392505050565b60006149e88261351c565b91506149f38361351c565b925082614a0357614a026141e7565b5b828206905092915050565b7f4f776e61626c653a2063616c6c6572206973206e6f7420746865206f776e6572600082015250565b6000614a44602083613fe8565b9150614a4f82614a0e565b602082019050919050565b60006020820190508181036000830152614a7381614a37565b9050919050565b6000614a858261351c565b9150614a908361351c565b925082821015614aa357614aa26140e6565b5b828203905092915050565b6000614ab98261351c565b9150614ac48361351c565b925082614ad457614ad36141e7565b5b82820490509291505056fea264697066735822122034045394e45c98ff2ba1695656c71476082282e62e7e69e11fdaabed20d557d564736f6c634300080d0033",
  "immutableReferences": {},
  "source": "// SPDX-License-Identifier: MIT\npragma solidity ^0.8.13;\nimport \"./RaceHandler.sol\";\n\ncontract CarRacing is RaceHandler{\n\n    function _isEnoughFuel(uint _carId, uint8 duration) private returns(bool){\n        uint stationId = getFuelStationByOwner(carToOwner[_carId]);\n        _refreshFuel(stationId);\n        uint engineId = cars[_carId].engineId;\n        uint8 liters= 1;\n        if (engines[engineId].consumtion * duration >= 10)\n            liters = duration * engines[engineId].consumtion / 10;\n\n        if (stations[stationId].currentFullness >= liters) {\n            stations[stationId].currentFullness -= liters;\n            return true;\n        }\n        else\n            return false;\n    }\n\n    function _refreshFuel(uint _fuelStationId) private {\n        uint curTime = block.timestamp;\n        uint wholeHours = (curTime - stations[_fuelStationId].lastUpdate) / 3600;\n        uint8 newFullness = uint8(stations[_fuelStationId].currentFullness + wholeHours * stations[_fuelStationId].productionPerHour);\n        stations[_fuelStationId].currentFullness = uint8(Math.min(stations[_fuelStationId].capacity, newFullness));\n        stations[_fuelStationId].lastUpdate = curTime;\n    }\n\n\n    function startRace(uint _carId) external onlyOwnerOfCar(_carId) {\n        uint8 durToNextCrossroad = 2 * (10 - cars[_carId].carLevel / 10);\n\n        require(_isEnoughFuel(_carId, durToNextCrossroad) && chassis[cars[_carId].chassisId].resource >= durToNextCrossroad);\n        // TODO\n\n        chassis[cars[_carId].chassisId].resource -= durToNextCrossroad;\n        cars[_carId].mileage += durToNextCrossroad;\n    }\n\n}",
  "sourcePath": "/Users/vvan/Programming/JavaScript/DriveSafely/contract/contracts/CarRacing.sol",
  "compiler": {
    "name": "solc",
    "version": "0.8.13+commit.abaa5c0e.Emscripten.clang"
  },
  "schemaVersion": "3.4.11",
  "updatedAt": "2023-01-08T10:45:10.631Z",
  "networkType": "ethereum",
  "devdoc": {
    "kind": "dev",
    "methods": {
      "owner()": {
        "details": "Returns the address of the current owner."
      },
      "renounceOwnership()": {
        "details": "Leaves the contract without owner. It will not be possible to call `onlyOwner` functions anymore. Can only be called by the current owner. NOTE: Renouncing ownership will leave the contract without an owner, thereby removing any functionality that is only available to the owner."
      },
      "transferOwnership(address)": {
        "details": "Transfers ownership of the contract to a new account (`newOwner`). Can only be called by the current owner."
      }
    },
    "version": 1
  },
  "userdoc": {
    "kind": "user",
    "methods": {},
    "version": 1
  }
}