{
  "contractName": "CarRacing",
  "abi": [
    {
      "anonymous": false,
      "inputs": [
        {
          "indexed": true,
          "internalType": "address",
          "name": "previousOwner",
          "type": "address"
        },
        {
          "indexed": true,
          "internalType": "address",
          "name": "newOwner",
          "type": "address"
        }
      ],
      "name": "OwnershipTransferred",
      "type": "event"
    },
    {
      "anonymous": false,
      "inputs": [
        {
          "indexed": false,
          "internalType": "uint256",
          "name": "roomId",
          "type": "uint256"
        }
      ],
      "name": "RoomClosed",
      "type": "event"
    },
    {
      "anonymous": false,
      "inputs": [
        {
          "indexed": false,
          "internalType": "uint256",
          "name": "roomId",
          "type": "uint256"
        },
        {
          "indexed": false,
          "internalType": "uint256",
          "name": "roomDNA",
          "type": "uint256"
        }
      ],
      "name": "RoomFull",
      "type": "event"
    },
    {
      "inputs": [
        {
          "internalType": "uint256",
          "name": "",
          "type": "uint256"
        }
      ],
      "name": "carToOwner",
      "outputs": [
        {
          "internalType": "address",
          "name": "",
          "type": "address"
        }
      ],
      "stateMutability": "view",
      "type": "function"
    },
    {
      "inputs": [
        {
          "internalType": "uint256",
          "name": "",
          "type": "uint256"
        }
      ],
      "name": "carToPrice",
      "outputs": [
        {
          "internalType": "uint256",
          "name": "",
          "type": "uint256"
        }
      ],
      "stateMutability": "view",
      "type": "function"
    },
    {
      "inputs": [
        {
          "internalType": "uint256",
          "name": "",
          "type": "uint256"
        }
      ],
      "name": "cars",
      "outputs": [
        {
          "internalType": "string",
          "name": "model",
          "type": "string"
        },
        {
          "internalType": "uint256",
          "name": "vin",
          "type": "uint256"
        },
        {
          "internalType": "uint256",
          "name": "engineId",
          "type": "uint256"
        },
        {
          "internalType": "uint256",
          "name": "chassisId",
          "type": "uint256"
        },
        {
          "internalType": "uint8",
          "name": "carLevel",
          "type": "uint8"
        },
        {
          "internalType": "uint256",
          "name": "mileage",
          "type": "uint256"
        },
        {
          "internalType": "uint256",
          "name": "winCountOnCurrentLevel",
          "type": "uint256"
        },
        {
          "internalType": "uint256",
          "name": "lossCountOnCurrentLevel",
          "type": "uint256"
        },
        {
          "internalType": "uint256",
          "name": "id",
          "type": "uint256"
        }
      ],
      "stateMutability": "view",
      "type": "function"
    },
    {
      "inputs": [
        {
          "internalType": "uint256",
          "name": "",
          "type": "uint256"
        }
      ],
      "name": "chassis",
      "outputs": [
        {
          "internalType": "uint256",
          "name": "id",
          "type": "uint256"
        },
        {
          "internalType": "uint32",
          "name": "durability",
          "type": "uint32"
        },
        {
          "internalType": "uint32",
          "name": "resource",
          "type": "uint32"
        }
      ],
      "stateMutability": "view",
      "type": "function"
    },
    {
      "inputs": [
        {
          "internalType": "uint256",
          "name": "",
          "type": "uint256"
        }
      ],
      "name": "chassisToOwner",
      "outputs": [
        {
          "internalType": "address",
          "name": "",
          "type": "address"
        }
      ],
      "stateMutability": "view",
      "type": "function"
    },
    {
      "inputs": [
        {
          "internalType": "uint256",
          "name": "",
          "type": "uint256"
        }
      ],
      "name": "chassisToPrice",
      "outputs": [
        {
          "internalType": "uint256",
          "name": "",
          "type": "uint256"
        }
      ],
      "stateMutability": "view",
      "type": "function"
    },
    {
      "inputs": [
        {
          "internalType": "uint256",
          "name": "roomId",
          "type": "uint256"
        },
        {
          "internalType": "uint256[]",
          "name": "answer",
          "type": "uint256[]"
        }
      ],
      "name": "commitAnswer",
      "outputs": [],
      "stateMutability": "nonpayable",
      "type": "function"
    },
    {
      "inputs": [
        {
          "internalType": "string",
          "name": "model",
          "type": "string"
        }
      ],
      "name": "createCar",
      "outputs": [],
      "stateMutability": "nonpayable",
      "type": "function"
    },
    {
      "inputs": [
        {
          "internalType": "string",
          "name": "_model",
          "type": "string"
        },
        {
          "internalType": "uint16",
          "name": "_horsePowers",
          "type": "uint16"
        },
        {
          "internalType": "uint8",
          "name": "_consumtion",
          "type": "uint8"
        },
        {
          "internalType": "uint32",
          "name": "_durability",
          "type": "uint32"
        },
        {
          "internalType": "uint8",
          "name": "_carLevel",
          "type": "uint8"
        },
        {
          "internalType": "uint256",
          "name": "_carPrice",
          "type": "uint256"
        }
      ],
      "name": "createCustomCar",
      "outputs": [],
      "stateMutability": "nonpayable",
      "type": "function"
    },
    {
      "inputs": [
        {
          "internalType": "uint32",
          "name": "_durability",
          "type": "uint32"
        },
        {
          "internalType": "uint256",
          "name": "_chassisPrice",
          "type": "uint256"
        }
      ],
      "name": "createCustomChassis",
      "outputs": [
        {
          "internalType": "uint256",
          "name": "",
          "type": "uint256"
        }
      ],
      "stateMutability": "nonpayable",
      "type": "function"
    },
    {
      "inputs": [
        {
          "internalType": "uint16",
          "name": "_horsePowers",
          "type": "uint16"
        },
        {
          "internalType": "uint8",
          "name": "_consumtion",
          "type": "uint8"
        },
        {
          "internalType": "uint256",
          "name": "_enginePrice",
          "type": "uint256"
        }
      ],
      "name": "createCustomEngine",
      "outputs": [
        {
          "internalType": "uint256",
          "name": "",
          "type": "uint256"
        }
      ],
      "stateMutability": "nonpayable",
      "type": "function"
    },
    {
      "inputs": [],
      "name": "createFuelStation",
      "outputs": [],
      "stateMutability": "nonpayable",
      "type": "function"
    },
    {
      "inputs": [
        {
          "internalType": "uint256",
          "name": "carId",
          "type": "uint256"
        },
        {
          "internalType": "uint256",
          "name": "chassisId",
          "type": "uint256"
        }
      ],
      "name": "detachChassis",
      "outputs": [],
      "stateMutability": "nonpayable",
      "type": "function"
    },
    {
      "inputs": [
        {
          "internalType": "uint256",
          "name": "carId",
          "type": "uint256"
        },
        {
          "internalType": "uint256",
          "name": "engineId",
          "type": "uint256"
        }
      ],
      "name": "detachEngine",
      "outputs": [],
      "stateMutability": "nonpayable",
      "type": "function"
    },
    {
      "inputs": [
        {
          "internalType": "uint256",
          "name": "",
          "type": "uint256"
        }
      ],
      "name": "engineToOwner",
      "outputs": [
        {
          "internalType": "address",
          "name": "",
          "type": "address"
        }
      ],
      "stateMutability": "view",
      "type": "function"
    },
    {
      "inputs": [
        {
          "internalType": "uint256",
          "name": "",
          "type": "uint256"
        }
      ],
      "name": "engineToPrice",
      "outputs": [
        {
          "internalType": "uint256",
          "name": "",
          "type": "uint256"
        }
      ],
      "stateMutability": "view",
      "type": "function"
    },
    {
      "inputs": [
        {
          "internalType": "uint256",
          "name": "",
          "type": "uint256"
        }
      ],
      "name": "engines",
      "outputs": [
        {
          "internalType": "uint256",
          "name": "id",
          "type": "uint256"
        },
        {
          "internalType": "uint16",
          "name": "horsePowers",
          "type": "uint16"
        },
        {
          "internalType": "uint8",
          "name": "consumtion",
          "type": "uint8"
        }
      ],
      "stateMutability": "view",
      "type": "function"
    },
    {
      "inputs": [
        {
          "internalType": "uint256",
          "name": "carId",
          "type": "uint256"
        }
      ],
      "name": "findRoom",
      "outputs": [],
      "stateMutability": "nonpayable",
      "type": "function"
    },
    {
      "inputs": [
        {
          "internalType": "uint256",
          "name": "",
          "type": "uint256"
        }
      ],
      "name": "fuelStationToOwner",
      "outputs": [
        {
          "internalType": "address",
          "name": "",
          "type": "address"
        }
      ],
      "stateMutability": "view",
      "type": "function"
    },
    {
      "inputs": [
        {
          "internalType": "address",
          "name": "_owner",
          "type": "address"
        }
      ],
      "name": "getCarsByOwner",
      "outputs": [
        {
          "components": [
            {
              "internalType": "string",
              "name": "model",
              "type": "string"
            },
            {
              "internalType": "uint256",
              "name": "vin",
              "type": "uint256"
            },
            {
              "internalType": "uint256",
              "name": "engineId",
              "type": "uint256"
            },
            {
              "internalType": "uint256",
              "name": "chassisId",
              "type": "uint256"
            },
            {
              "internalType": "uint8",
              "name": "carLevel",
              "type": "uint8"
            },
            {
              "internalType": "uint256",
              "name": "mileage",
              "type": "uint256"
            },
            {
              "internalType": "uint256",
              "name": "winCountOnCurrentLevel",
              "type": "uint256"
            },
            {
              "internalType": "uint256",
              "name": "lossCountOnCurrentLevel",
              "type": "uint256"
            },
            {
              "internalType": "uint256",
              "name": "id",
              "type": "uint256"
            }
          ],
          "internalType": "struct CarFactory.Car[]",
          "name": "",
          "type": "tuple[]"
        }
      ],
      "stateMutability": "view",
      "type": "function"
    },
    {
      "inputs": [
        {
          "internalType": "address",
          "name": "_owner",
          "type": "address"
        }
      ],
      "name": "getChassisByOwner",
      "outputs": [
        {
          "components": [
            {
              "internalType": "uint256",
              "name": "id",
              "type": "uint256"
            },
            {
              "internalType": "uint32",
              "name": "durability",
              "type": "uint32"
            },
            {
              "internalType": "uint32",
              "name": "resource",
              "type": "uint32"
            }
          ],
          "internalType": "struct CarFactory.Chassis[]",
          "name": "",
          "type": "tuple[]"
        }
      ],
      "stateMutability": "view",
      "type": "function"
    },
    {
      "inputs": [
        {
          "internalType": "uint256",
          "name": "roomId",
          "type": "uint256"
        }
      ],
      "name": "getClosedRoom",
      "outputs": [
        {
          "components": [
            {
              "internalType": "address",
              "name": "player",
              "type": "address"
            },
            {
              "internalType": "bool",
              "name": "correct",
              "type": "bool"
            },
            {
              "internalType": "uint256",
              "name": "time",
              "type": "uint256"
            },
            {
              "internalType": "uint256",
              "name": "carId",
              "type": "uint256"
            }
          ],
          "internalType": "struct RaceHandler.Answer[]",
          "name": "",
          "type": "tuple[]"
        }
      ],
      "stateMutability": "view",
      "type": "function"
    },
    {
      "inputs": [
        {
          "internalType": "uint256",
          "name": "_carId",
          "type": "uint256"
        }
      ],
      "name": "getCost",
      "outputs": [
        {
          "internalType": "uint256",
          "name": "",
          "type": "uint256"
        }
      ],
      "stateMutability": "view",
      "type": "function"
    },
    {
      "inputs": [
        {
          "internalType": "address",
          "name": "_owner",
          "type": "address"
        }
      ],
      "name": "getEnginesByOwner",
      "outputs": [
        {
          "components": [
            {
              "internalType": "uint256",
              "name": "id",
              "type": "uint256"
            },
            {
              "internalType": "uint16",
              "name": "horsePowers",
              "type": "uint16"
            },
            {
              "internalType": "uint8",
              "name": "consumtion",
              "type": "uint8"
            }
          ],
          "internalType": "struct CarFactory.Engine[]",
          "name": "",
          "type": "tuple[]"
        }
      ],
      "stateMutability": "view",
      "type": "function"
    },
    {
      "inputs": [
        {
          "internalType": "address",
          "name": "_owner",
          "type": "address"
        }
      ],
      "name": "getFuelStationByOwner",
      "outputs": [
        {
          "components": [
            {
              "internalType": "uint256",
              "name": "id",
              "type": "uint256"
            },
            {
              "internalType": "uint8",
              "name": "capacity",
              "type": "uint8"
            },
            {
              "internalType": "uint8",
              "name": "productionPerHour",
              "type": "uint8"
            },
            {
              "internalType": "uint8",
              "name": "currentFullness",
              "type": "uint8"
            },
            {
              "internalType": "uint256",
              "name": "lastUpdate",
              "type": "uint256"
            }
          ],
          "internalType": "struct FuelStationFactory.FuelStation",
          "name": "",
          "type": "tuple"
        }
      ],
      "stateMutability": "view",
      "type": "function"
    },
    {
      "inputs": [
        {
          "internalType": "uint256",
          "name": "",
          "type": "uint256"
        }
      ],
      "name": "idToStartedRooms",
      "outputs": [
        {
          "internalType": "uint256",
          "name": "numberPlayers",
          "type": "uint256"
        },
        {
          "internalType": "uint256",
          "name": "world",
          "type": "uint256"
        },
        {
          "internalType": "uint256",
          "name": "roomDNA",
          "type": "uint256"
        },
        {
          "internalType": "uint256",
          "name": "startTime",
          "type": "uint256"
        },
        {
          "internalType": "uint256",
          "name": "curAnswer",
          "type": "uint256"
        },
        {
          "internalType": "bool",
          "name": "closed",
          "type": "bool"
        }
      ],
      "stateMutability": "view",
      "type": "function"
    },
    {
      "inputs": [
        {
          "internalType": "uint256",
          "name": "_carId",
          "type": "uint256"
        }
      ],
      "name": "levelUp",
      "outputs": [],
      "stateMutability": "payable",
      "type": "function"
    },
    {
      "inputs": [
        {
          "internalType": "uint256",
          "name": "",
          "type": "uint256"
        }
      ],
      "name": "openedRooms",
      "outputs": [
        {
          "internalType": "uint256",
          "name": "id",
          "type": "uint256"
        },
        {
          "internalType": "uint256",
          "name": "playersEntered",
          "type": "uint256"
        },
        {
          "internalType": "uint256",
          "name": "world",
          "type": "uint256"
        },
        {
          "components": [
            {
              "internalType": "uint256",
              "name": "playersNeeded",
              "type": "uint256"
            },
            {
              "internalType": "uint256",
              "name": "roadsNum",
              "type": "uint256"
            },
            {
              "internalType": "uint256",
              "name": "crossId",
              "type": "uint256"
            }
          ],
          "internalType": "struct RaceHandler.Cross",
          "name": "cross",
          "type": "tuple"
        }
      ],
      "stateMutability": "view",
      "type": "function"
    },
    {
      "inputs": [],
      "name": "owner",
      "outputs": [
        {
          "internalType": "address",
          "name": "",
          "type": "address"
        }
      ],
      "stateMutability": "view",
      "type": "function"
    },
    {
      "inputs": [
        {
          "internalType": "address",
          "name": "",
          "type": "address"
        }
      ],
      "name": "ownerCarCount",
      "outputs": [
        {
          "internalType": "uint256",
          "name": "",
          "type": "uint256"
        }
      ],
      "stateMutability": "view",
      "type": "function"
    },
    {
      "inputs": [
        {
          "internalType": "address",
          "name": "",
          "type": "address"
        }
      ],
      "name": "ownerChassisCount",
      "outputs": [
        {
          "internalType": "uint256",
          "name": "",
          "type": "uint256"
        }
      ],
      "stateMutability": "view",
      "type": "function"
    },
    {
      "inputs": [
        {
          "internalType": "address",
          "name": "",
          "type": "address"
        }
      ],
      "name": "ownerEngineCount",
      "outputs": [
        {
          "internalType": "uint256",
          "name": "",
          "type": "uint256"
        }
      ],
      "stateMutability": "view",
      "type": "function"
    },
    {
      "inputs": [],
      "name": "renounceOwnership",
      "outputs": [],
      "stateMutability": "nonpayable",
      "type": "function"
    },
    {
      "inputs": [
        {
          "internalType": "uint256",
          "name": "",
          "type": "uint256"
        }
      ],
      "name": "stations",
      "outputs": [
        {
          "internalType": "uint256",
          "name": "id",
          "type": "uint256"
        },
        {
          "internalType": "uint8",
          "name": "capacity",
          "type": "uint8"
        },
        {
          "internalType": "uint8",
          "name": "productionPerHour",
          "type": "uint8"
        },
        {
          "internalType": "uint8",
          "name": "currentFullness",
          "type": "uint8"
        },
        {
          "internalType": "uint256",
          "name": "lastUpdate",
          "type": "uint256"
        }
      ],
      "stateMutability": "view",
      "type": "function"
    },
    {
      "inputs": [
        {
          "internalType": "uint256",
          "name": "carId",
          "type": "uint256"
        },
        {
          "internalType": "uint256",
          "name": "chassisId",
          "type": "uint256"
        }
      ],
      "name": "switchChassis",
      "outputs": [],
      "stateMutability": "nonpayable",
      "type": "function"
    },
    {
      "inputs": [
        {
          "internalType": "uint256",
          "name": "carId",
          "type": "uint256"
        },
        {
          "internalType": "uint256",
          "name": "engineId",
          "type": "uint256"
        }
      ],
      "name": "switchEngine",
      "outputs": [],
      "stateMutability": "nonpayable",
      "type": "function"
    },
    {
      "inputs": [
        {
          "internalType": "address",
          "name": "newOwner",
          "type": "address"
        }
      ],
      "name": "transferOwnership",
      "outputs": [],
      "stateMutability": "nonpayable",
      "type": "function"
    },
    {
      "inputs": [
        {
          "internalType": "uint256",
          "name": "_fuelStatonId",
          "type": "uint256"
        },
        {
          "internalType": "uint8",
          "name": "_counts",
          "type": "uint8"
        }
      ],
      "name": "upgradeCapacity",
      "outputs": [],
      "stateMutability": "payable",
      "type": "function"
    },
    {
      "inputs": [
        {
          "internalType": "uint256",
          "name": "_engineId",
          "type": "uint256"
        },
        {
          "internalType": "uint8",
          "name": "_counts",
          "type": "uint8"
        }
      ],
      "name": "upgradeConsumtion",
      "outputs": [],
      "stateMutability": "payable",
      "type": "function"
    },
    {
      "inputs": [
        {
          "internalType": "uint256",
          "name": "_chassisId",
          "type": "uint256"
        },
        {
          "internalType": "uint8",
          "name": "_counts",
          "type": "uint8"
        }
      ],
      "name": "upgradeDurability",
      "outputs": [],
      "stateMutability": "payable",
      "type": "function"
    },
    {
      "inputs": [
        {
          "internalType": "uint256",
          "name": "_engineId",
          "type": "uint256"
        },
        {
          "internalType": "uint8",
          "name": "_counts",
          "type": "uint8"
        }
      ],
      "name": "upgradeHorsePowers",
      "outputs": [],
      "stateMutability": "payable",
      "type": "function"
    },
    {
      "inputs": [
        {
          "internalType": "uint256",
          "name": "_fuelStatonId",
          "type": "uint256"
        },
        {
          "internalType": "uint8",
          "name": "_counts",
          "type": "uint8"
        }
      ],
      "name": "upgradeProductionPerHour",
      "outputs": [],
      "stateMutability": "payable",
      "type": "function"
    },
    {
      "inputs": [
        {
          "internalType": "uint256",
          "name": "_carId",
          "type": "uint256"
        }
      ],
      "name": "startRace",
      "outputs": [],
      "stateMutability": "nonpayable",
      "type": "function"
    }
  ],
  "bytecode": "0x60806040526000805461ffff60a01b191661014f60a21b179055600160088190556009556509184e72a00060165565b5e620f48000601755650da475abf0006018556611c37937e080006019556305f5e100601a5566038d7ea4c68000601b553480156200006c57600080fd5b5062000078336200024b565b60506003908155605b60049081556005805460ff1916600a179055620186a06006556201d4c1600755600b80546001908101909155600c805482019055604080516060808201835284825260208281018681526000848601818152601c8054808a0182558184529651968b027f0e4562a10381dec21b205ed72637e6b1b523bdd0e4d4d50af5cd23dd4500a2118181019890985593517f0e4562a10381dec21b205ed72637e6b1b523bdd0e4d4d50af5cd23dd4500a2128086019190915591517f0e4562a10381dec21b205ed72637e6b1b523bdd0e4d4d50af5cd23dd4500a21394850155875180870189528b81528086018b8152818a018581528354808d0185558487529251928e02808b019390935590518285015551908501558751808701895260028082528187019b8c52818a018581528354808d0185558487529251928e02808b01939093559b51828501559a5190850155875180870189528b81528086018c8152818a018b81528354808d0185558487529251928e02808b019390935590518285015551908501558751958601885298855292840189815295840187815288548089018a559890915292519690970292830195909555915193810193909355519190920155601f556200029b565b600080546001600160a01b038381166001600160a01b0319831681178455604051919092169283917f8be0079c531659141344cd1fd0a4f28419497f9722a3daafe3b4186f6b6457e09190a35050565b6141a080620002ab6000396000f3fe60806040526004361061025c5760003560e01c80638590926711610144578063c85b7fed116100b6578063f2fde38b1161007a578063f2fde38b14610a17578063f7746e3614610a37578063f85993b914610a6c578063faf4bb9814610a99578063fb2d954f14610aac578063fb33250f14610acc57600080fd5b8063c85b7fed14610977578063d1c54eea14610997578063d7086fab146109b7578063ea126933146109d7578063ede6fbf5146109f757600080fd5b8063aa11b68111610108578063aa11b6811461086f578063b3b29afd1461089c578063b72c0eea146108c9578063bfcc97161461090a578063c34cccc41461092a578063c75bb4f41461094a57600080fd5b806385909267146107ae57806387766019146107c15780638da5cb5b146107ee578063906f5f341461080c57806392f859db1461081f57600080fd5b806344901490116101dd5780636b606d9b116101a15780636b606d9b146106df5780636f206fc1146106ff578063715018a61461072c5780637713d521146107415780637c62360f1461076e5780637fb2aa4d1461078157600080fd5b806344901490146105b25780634e31f910146105e8578063594193d7146106535780635a4dd47d146106895780635dcc4cc6146106a957600080fd5b80631c5dde0e116102245780631c5dde0e146103a1578063224370f0146103e357806324d822bf1461051757806333ca504b146105375780633521c4261461058557600080fd5b806303f2e05b146102615780630418394e14610276578063081315ff146102fd5780630a0176fc146103535780630ce90ec21461038e575b600080fd5b61027461026f36600461373b565b610aec565b005b34801561028257600080fd5b506102c9610291366004613767565b602160205260009081526040902080546001820154600283015460038401546005850154600690950154939492939192909160ff1686565b6040805196875260208701959095529385019290925260608401526080830152151560a082015260c0015b60405180910390f35b34801561030957600080fd5b5061031d610318366004613767565b610c22565b604080519485526020808601949094528481019290925280516060850152918201516080840152015160a082015260c0016102f4565b34801561035f57600080fd5b5061038061036e366004613767565b60156020526000908152604090205481565b6040519081526020016102f4565b61027461039c366004613767565b610c80565b3480156103ad57600080fd5b506103c16103bc366004613767565b610df0565b6040805193845263ffffffff92831660208501529116908201526060016102f4565b3480156103ef57600080fd5b50610274600180546040805160a0810182528281526000805460ff600160a01b820481166020808601828152600160a81b90940483168688019081526060870192835263ffffffff421660808801908152898b018b559986529551600389027fb10e2d527612073b26eecdfd717e6a320cf44b4afac2b0732d9fcbe2b7fa0cf681019190915593517fb10e2d527612073b26eecdfd717e6a320cf44b4afac2b0732d9fcbe2b7fa0cf785018054975193518516620100000262ff0000199486166101000261ffff19909916929095169190911796909617919091169190911790935594517fb10e2d527612073b26eecdfd717e6a320cf44b4afac2b0732d9fcbe2b7fa0cf8909501949094559183526002909152902080546001600160a01b03191633179055565b34801561052357600080fd5b50610274610532366004613767565b610e30565b34801561054357600080fd5b5061056d610552366004613767565b600d602052600090815260409020546001600160a01b031681565b6040516001600160a01b0390911681526020016102f4565b34801561059157600080fd5b506105a56105a0366004613767565b610fe7565b6040516102f49190613780565b3480156105be57600080fd5b5061056d6105cd366004613767565b600f602052600090815260409020546001600160a01b031681565b3480156105f457600080fd5b506106086106033660046137ef565b6110d9565b6040516102f49190600060a0820190508251825260ff602084015116602083015260ff604084015116604083015260ff60608401511660608301526080830151608083015292915050565b34801561065f57600080fd5b5061056d61066e366004613767565b6002602052600090815260409020546001600160a01b031681565b34801561069557600080fd5b506103806106a4366004613767565b6111c0565b3480156106b557600080fd5b5061056d6106c4366004613767565b600e602052600090815260409020546001600160a01b031681565b3480156106eb57600080fd5b506102746106fa366004613818565b61121a565b34801561070b57600080fd5b5061071f61071a3660046137ef565b61131a565b6040516102f4919061383a565b34801561073857600080fd5b5061027461146e565b34801561074d57600080fd5b5061076161075c3660046137ef565b611482565b6040516102f49190613890565b61027461077c36600461373b565b6115ca565b34801561078d57600080fd5b5061038061079c3660046137ef565b60116020526000908152604090205481565b6102746107bc36600461373b565b6116e5565b3480156107cd57600080fd5b506103806107dc3660046137ef565b60126020526000908152604090205481565b3480156107fa57600080fd5b506000546001600160a01b031661056d565b61027461081a36600461373b565b6117d9565b34801561082b57600080fd5b5061083f61083a366004613767565b6118c1565b6040805195865260ff9485166020870152928416928501929092529091166060830152608082015260a0016102f4565b34801561087b57600080fd5b5061038061088a366004613767565b60136020526000908152604090205481565b3480156108a857600080fd5b506103806108b73660046137ef565b60106020526000908152604090205481565b3480156108d557600080fd5b506108e96108e4366004613767565b61190d565b6040805193845261ffff909216602084015260ff16908201526060016102f4565b34801561091657600080fd5b506103806109253660046138f7565b61194a565b34801561093657600080fd5b50610274610945366004613818565b611a8f565b34801561095657600080fd5b5061096a6109653660046137ef565b611bdf565b6040516102f4919061397d565b34801561098357600080fd5b50610274610992366004613a8e565b611e1d565b3480156109a357600080fd5b506102746109b2366004613818565b61201a565b3480156109c357600080fd5b506103806109d2366004613b52565b612100565b3480156109e357600080fd5b506102746109f2366004613818565b61225c565b348015610a0357600080fd5b50610274610a12366004613bfe565b6123c0565b348015610a2357600080fd5b50610274610a323660046137ef565b61258e565b348015610a4357600080fd5b50610a57610a52366004613767565b612607565b6040516102f499989796959493929190613c33565b348015610a7857600080fd5b50610380610a87366004613767565b60146020526000908152604090205481565b610274610aa736600461373b565b6126f4565b348015610ab857600080fd5b50610274610ac7366004613767565b612804565b348015610ad857600080fd5b50610274610ae7366004613c8a565b612d12565b6000828152600f602052604090205482906001600160a01b03163314610b2d5760405162461bcd60e51b8152600401610b2490613d12565b60405180910390fd5b601a54600c8481548110610b4357610b43613d40565b6000918252602090912060016002909202010154610b6a9063ffffffff1660ff8516613d6c565b63ffffffff16610b7a9190613d98565b3414610b8557600080fd5b600080546040516001600160a01b03909116913480156108fc02929091818181858888f19350505050158015610bbf573d6000803e3d6000fd5b508160ff16600c8481548110610bd757610bd7613d40565b6000918252602082206001600290920201018054909190610bff90849063ffffffff16613db7565b92506101000a81548163ffffffff021916908363ffffffff160217905550505050565b60208181548110610c3257600080fd5b60009182526020918290206006909102018054600182015460028301546040805160608101825260038601548152600486015496810196909652600590940154938501939093529093509184565b6000600a808381548110610c9657610c96613d40565b6000918252602090912060046009909202010154610cb7919060ff16613df5565b610cc2906001613e17565b60ff16601b54610cd29190613d98565b9050803414610d105760405162461bcd60e51b815260206004820152600a6024820152691ddc9bdb99c818dbdcdd60b21b6044820152606401610b24565b600080546040516001600160a01b03909116913480156108fc02929091818181858888f19350505050158015610d4a573d6000803e3d6000fd5b50600a8281548110610d5e57610d5e613d40565b600091825260208220600460099092020101805460ff1691610d7f83613e3c565b91906101000a81548160ff021916908360ff160217905550506000600a8381548110610dad57610dad613d40565b9060005260206000209060090201600601819055506000600a8381548110610dd757610dd7613d40565b9060005260206000209060090201600701819055505050565b600c8181548110610e0057600080fd5b60009182526020909120600290910201805460019091015490915063ffffffff8082169164010000000090041683565b6000818152600d602052604090205481906001600160a01b03163314610e5557600080fd5b6000600a808481548110610e6b57610e6b613d40565b6000918252602090912060046009909202010154610e8c919060ff16613df5565b610e9790600a613e5b565b610ea2906002613e7e565b9050610eae8382612ef8565b8015610f1557508060ff16600c600a8581548110610ece57610ece613d40565b90600052602060002090600902016003015481548110610ef057610ef0613d40565b6000918252602090912060029091020160010154640100000000900463ffffffff1610155b610f1e57600080fd5b8060ff16600c600a8581548110610f3757610f37613d40565b90600052602060002090600902016003015481548110610f5957610f59613d40565b906000526020600020906002020160010160048282829054906101000a900463ffffffff16610f889190613ea7565b92506101000a81548163ffffffff021916908363ffffffff1602179055508060ff16600a8481548110610fbd57610fbd613d40565b90600052602060002090600902016005016000828254610fdd9190613ecc565b9091555050505050565b60008181526021602052604090206006015460609060ff1661103d5760405162461bcd60e51b815260206004820152600f60248201526e1c9bdbdb481b9bdd0818db1bdcd959608a1b6044820152606401610b24565b600082815260216020908152604080832060040180548251818502810185019093528083529193909284015b828210156110ce576000848152602090819020604080516080810182526003860290920180546001600160a01b0381168452600160a01b900460ff16151583850152600180820154928401929092526002015460608301529083529092019101611069565b505050509050919050565b6040805160a081018252600080825260208201819052918101829052606081018290526080810182905290805b60015481101561114b576000818152600260205260409020546001600160a01b038086169116036111395780915061114b565b8061114381613ee4565b915050611106565b506001818154811061115f5761115f613d40565b60009182526020918290206040805160a081018252600390930290910180548352600181015460ff80821695850195909552610100810485169284019290925262010000909104909216606082015260029091015460808201529392505050565b600080600a8084815481106111d7576111d7613d40565b60009182526020909120600460099092020101546111f8919060ff16613df5565b611203906001613e17565b60ff16601b546112139190613d98565b9392505050565b6000818152600f602052604090205481906001600160a01b031633146112525760405162461bcd60e51b8152600401610b2490613d12565b6000838152600d602052604090205483906001600160a01b0316331461127757600080fd5b82600a858154811061128b5761128b613d40565b906000526020600020906009020160030154146112ea5760405162461bcd60e51b815260206004820152601860248201527f6368617373697320617265206e6f7420617474616368656400000000000000006044820152606401610b24565b6000600a85815481106112ff576112ff613d40565b90600052602060002090600902016003018190555050505050565b6001600160a01b0381166000908152601160205260408120546060919067ffffffffffffffff81111561134f5761134f613a47565b60405190808252806020026020018201604052801561139a57816020015b604080516060810182526000808252602080830182905292820152825260001990920191018161136d5790505b5090506000805b600c54811015611465576000818152600f60205260409020546001600160a01b0380871691160361145357600c81815481106113df576113df613d40565b6000918252602091829020604080516060810182526002909302909101805483526001015463ffffffff80821694840194909452640100000000900490921691810191909152835184908490811061143957611439613d40565b6020026020010181905250818061144f90613ee4565b9250505b8061145d81613ee4565b9150506113a1565b50909392505050565b61147661309a565b61148060006130f4565b565b6001600160a01b0381166000908152601160205260408120546060919067ffffffffffffffff8111156114b7576114b7613a47565b60405190808252806020026020018201604052801561150257816020015b60408051606081018252600080825260208083018290529282015282526000199092019101816114d55790505b5090506000805b600b54811015611465576000818152600e60205260409020546001600160a01b038087169116036115b857600b818154811061154757611547613d40565b600091825260209182902060408051606081018252600293909302909101805483526001015461ffff8116938301939093526201000090920460ff1691810191909152835184908490811061159e5761159e613d40565b602002602001018190525081806115b490613ee4565b9250505b806115c281613ee4565b915050611509565b6000828152600e602052604090205482906001600160a01b031633146115ef57600080fd5b600b838154811061160257611602613d40565b600091825260209091206002909102016001015461162a9062010000900460ff16600a613e5b565b611635906002613fd9565b6019546116429190613d98565b341461164d57600080fd5b600080546040516001600160a01b03909116913480156108fc02929091818181858888f19350505050158015611687573d6000803e3d6000fd5b5081600b848154811061169c5761169c613d40565b906000526020600020906002020160010160028282829054906101000a900460ff166116c89190613e5b565b92506101000a81548160ff021916908360ff160217905550505050565b60008281526002602052604090205482906001600160a01b0316331461170a57600080fd5b6017546001848154811061172057611720613d40565b600091825260209091206003909102016001015461174690610100900460ff1684613e7e565b60ff166117539190613d98565b341461175e57600080fd5b600080546040516001600160a01b03909116913480156108fc02929091818181858888f19350505050158015611798573d6000803e3d6000fd5b5081600184815481106117ad576117ad613d40565b906000526020600020906003020160010160018282829054906101000a900460ff166116c89190613e17565b60008281526002602052604090205482906001600160a01b031633146117fe57600080fd5b6016546001848154811061181457611814613d40565b60009182526020909120600160039092020101546118359060ff1684613e7e565b60ff166118429190613d98565b341461184d57600080fd5b600080546040516001600160a01b03909116913480156108fc02929091818181858888f19350505050158015611887573d6000803e3d6000fd5b50816001848154811061189c5761189c613d40565b60009182526020822060016003909202010180549091906116c890849060ff16613e17565b600181815481106118d157600080fd5b600091825260209091206003909102018054600182015460029092015490925060ff808316926101008104821692620100009091049091169085565b600b818154811061191d57600080fd5b60009182526020909120600290910201805460019091015490915061ffff81169062010000900460ff1683565b600061195461309a565b600980546000918261196583613ee4565b909155506040805160608101825282815263ffffffff8781166020808401828152848601928352600c80546001810182556000918252955160029096027fdf6966c971051c3d54ec59162606531493a51404a002842f56009d7e5cf4a8c781019690965590517fdf6966c971051c3d54ec59162606531493a51404a002842f56009d7e5cf4a8c89095018054935185166401000000000267ffffffffffffffff1990941695909416949094179190911790915581546001600160a01b0316825260129052908120805492935090611a3b83613ee4565b909155505060008054828252600f602052604090912080546001600160a01b0319166001600160a01b039092169190911790558215611a865760008181526015602052604090208390555b90505b92915050565b6000818152600e602052604090205481906001600160a01b03163314611ab457600080fd5b6000838152600d602052604090205483906001600160a01b03163314611ad957600080fd5b82600a8581548110611aed57611aed613d40565b90600052602060002090600902016002015403611b3a5760405162461bcd60e51b815260206004820152600b60248201526a73616d6520656e67696e6560a81b6044820152606401610b24565b6000611b4533611bdf565b905060005b8151811015611bae5784828281518110611b6657611b66613d40565b60200260200101516040015103611b9c576000828281518110611b8b57611b8b613d40565b602002602001015160400181815250505b80611ba681613ee4565b915050611b4a565b5083600a8681548110611bc357611bc3613d40565b9060005260206000209060090201600201819055505050505050565b6001600160a01b0381166000908152601060205260408120546060919067ffffffffffffffff811115611c1457611c14613a47565b604051908082528060200260200182016040528015611c9757816020015b611c8460405180610120016040528060608152602001600081526020016000815260200160008152602001600060ff168152602001600081526020016000815260200160008152602001600081525090565b815260200190600190039081611c325790505b5090506000805b600a54811015611465576000818152600d60205260409020546001600160a01b03808716911603611e0b57600a8181548110611cdc57611cdc613d40565b906000526020600020906009020160405180610120016040529081600082018054611d0690613fe8565b80601f0160208091040260200160405190810160405280929190818152602001828054611d3290613fe8565b8015611d7f5780601f10611d5457610100808354040283529160200191611d7f565b820191906000526020600020905b815481529060010190602001808311611d6257829003601f168201915b5050509183525050600182015460208201526002820154604082015260038201546060820152600482015460ff166080820152600582015460a0820152600682015460c0820152600782015460e0820152600890910154610100909101528351849084908110611df157611df1613d40565b60200260200101819052508180611e0790613ee4565b9250505b80611e1581613ee4565b915050611c9e565b336000908152601d60205260409020548214611e6b5760405162461bcd60e51b815260206004820152600d60248201526c6e6f7420796f757220726f6f6d60981b6044820152606401610b24565b600082815260216020526040808220600201549051634e31f59760e11b815290919073__PDDLib________________________________90639c63eb2e90611eb99085908790600401614022565b602060405180830381865af4158015611ed6573d6000803e3d6000fd5b505050506040513d601f19601f82011682018060405250810190611efa9190614070565b60408051608081018252338082528315156020808401918252428486019081526000938452601e825285842054606086019081528b855260218352958420600481018054600181810183558288529487208851600390920201805496511515600160a01b026001600160a81b03199097166001600160a01b03929092169190911795909517855591519284019290925594516002909201919091559088905280549254939450909290919003612012576040518681527f67acaceb58ff1ad2aa8b3069f69c4cd076824e06a09184b75fb197ead7040be79060200160405180910390a16000868152602160209081526040808320600601805460ff19166001179055338352601d8252808320839055601e9091528120555b505050505050565b6000818152600e602052604090205481906001600160a01b0316331461203f57600080fd5b6000838152600d602052604090205483906001600160a01b0316331461206457600080fd5b82600a858154811061207857612078613d40565b906000526020600020906009020160020154146120d05760405162461bcd60e51b8152602060048201526016602482015275195b99da5b99481a5cc81b9bdd08185d1d1858da195960521b6044820152606401610b24565b6000600a85815481106120e5576120e5613d40565b90600052602060002090600902016002018190555050505050565b600061210a61309a565b600880546000918261211b83613ee4565b909155506040805160608101825282815261ffff8089166020830190815260ff808a16948401948552600b80546001810182556000918252945160029095027f0175b7a638427703f0dbe7bb9bbf987a2551717b34e79f33b5b1008d1fa01db981019590955591517f0175b7a638427703f0dbe7bb9bbf987a2551717b34e79f33b5b1008d1fa01dba90940180549551909116620100000262ffffff199095169390921692909217929092179091559091506011906121e26000546001600160a01b031690565b6001600160a01b031681526020810191909152604001600090812080549161220983613ee4565b909155505060008054828252600e602052604090912080546001600160a01b0319166001600160a01b0390921691909117905582156122545760008181526014602052604090208390555b949350505050565b6000818152600f602052604090205481906001600160a01b031633146122945760405162461bcd60e51b8152600401610b2490613d12565b6000838152600d602052604090205483906001600160a01b031633146122b957600080fd5b82600a85815481106122cd576122cd613d40565b9060005260206000209060090201600301540361231b5760405162461bcd60e51b815260206004820152600c60248201526b73616d65206368617373697360a01b6044820152606401610b24565b600061232633611bdf565b905060005b815181101561238f578482828151811061234757612347613d40565b6020026020010151606001510361237d57600082828151811061236c5761236c613d40565b602002602001015160600181815250505b8061238781613ee4565b91505061232b565b5083600a86815481106123a4576123a4613d40565b9060005260206000209060090201600301819055505050505050565b33600090815260106020526040902054156123da57600080fd5b6000816123e642613144565b6040516020016123f7929190614092565b604051602081830303815290604052905060008160405160200161241b91906140b8565b6040516020818303038152906040528051906020012060001c905060006124406131d7565b9050600061244c61330b565b600a80546040805161012081018252898152602080820189905291810187905260608101859052600160808201819052600060a0830181905260c0830181905260e083018190526101008301859052908401855593909352825180519495509193600985027fc65a7bb8d6351c1cf70c95a316cc6a92839c986682d98bc35f958f4883f9d2a801926124e292849291019061368c565b506020828101516001830155604080840151600284015560608401516003840155608084015160048401805460ff191660ff90921691909117905560a0840151600584015560c0840151600684015560e08401516007840155610100909301516008909201919091556000838152600d82528281208054336001600160a01b031990911681179091558152601090915290812080549161258183613ee4565b9190505550505050505050565b61259661309a565b6001600160a01b0381166125fb5760405162461bcd60e51b815260206004820152602660248201527f4f776e61626c653a206e6577206f776e657220697320746865207a65726f206160448201526564647265737360d01b6064820152608401610b24565b612604816130f4565b50565b600a818154811061261757600080fd5b906000526020600020906009020160009150905080600001805461263a90613fe8565b80601f016020809104026020016040519081016040528092919081815260200182805461266690613fe8565b80156126b35780601f10612688576101008083540402835291602001916126b3565b820191906000526020600020905b81548152906001019060200180831161269657829003601f168201915b50505060018401546002850154600386015460048701546005880154600689015460078a01546008909a01549899959894975092955060ff90911693909289565b6000828152600e602052604090205482906001600160a01b0316331461271957600080fd5b601854600b848154811061272f5761272f613d40565b60009182526020909120600160029092020101546127549061ffff1660ff85166140d4565b61ffff166127629190613d98565b341461276d57600080fd5b600080546040516001600160a01b03909116913480156108fc02929091818181858888f193505050501580156127a7573d6000803e3d6000fd5b508160ff16600b84815481106127bf576127bf613d40565b60009182526020822060016002909202010180549091906127e590849061ffff166140f5565b92506101000a81548161ffff021916908361ffff160217905550505050565b6000818152600d602052604090205481906001600160a01b0316331461282957600080fd5b6000805b602054811015612baf576020818154811061284a5761284a613d40565b906000526020600020906006020160020154600a80868154811061287057612870613d40565b6000918252602090912060046009909202010154612891919060ff16613df5565b61289c906001613e17565b60ff1603612b9d5760019150602081815481106128bb576128bb613d40565b60009182526020808320600690920290910154338352601d8252604080842091909155601e82529091208590558054829081106128fa576128fa613d40565b60009182526020822060016006909202010180549161291883613ee4565b91905055506020818154811061293057612930613d40565b9060005260206000209060060201600301600001546020828154811061295857612958613d40565b90600052602060002090600602016001015403612b9d57600073__PDDLib________________________________63c037e5456020848154811061299e5761299e613d40565b906000526020600020906006020160030160020154602085815481106129c6576129c6613d40565b9060005260206000209060060201600301600001546040518363ffffffff1660e01b8152600401612a01929190918252602082015260400190565b602060405180830381865af4158015612a1e573d6000803e3d6000fd5b505050506040513d601f19601f82011682018060405250810190612a429190614112565b905060006021600060208581548110612a5d57612a5d613d40565b9060005260206000209060060201600001548152602001908152602001600020905060208381548110612a9257612a92613d40565b6000918252602091829020600360069092020101548255805484908110612abb57612abb613d40565b600091825260208083206006928302016002908101546001860155840185905542600385015560058401929092558201805460ff1916905580547f2838ebeee7dc83fac85a3d6dbca0c0b6771591ada8b00f97371aa6611e631f9c919085908110612b2857612b28613d40565b600091825260209182902060069091020154604080519182529181018590520160405180910390a160208381548110612b6357612b63613d40565b600091825260208220600690910201818155600181018290556002810182905560038101829055600481018290556005015550612baf9050565b80612ba781613ee4565b91505061282d565b508015612bbb57505050565b601f805460009182612bcc83613ee4565b90915550601c54909150600090612be3904261412b565b905081601d6000336001600160a01b03166001600160a01b03168152602001908152602001600020819055506020604051806080016040528084815260200160018152602001600a808981548110612c3d57612c3d613d40565b6000918252602090912060046009909202010154612c5e919060ff16613df5565b612c69906001613e17565b60ff168152602001601c8481548110612c8457612c84613d40565b60009182526020808320604080516060808201835260039586029093018054825260018082015483870152600291820154838501529190975288548082018a5598865294839020875160069099020197885586830151948801949094558584015194870194909455939092015180519285019290925591810151600484015501516005909101555050505050565b612d1a61309a565b600086612d2642613144565b604051602001612d37929190614092565b6040516020818303038152906040529050600081604051602001612d5b91906140b8565b6040516020818303038152906040528051906020012060001c90506000612d8488886000612100565b90506000612d9387600061194a565b600a805460408051610120810182528e815260208082018990529181018790526060810185905260ff8b166080820152600060a0820181905260c0820181905260e08201819052610100820184905260018401855593909352825180519495509193600985027fc65a7bb8d6351c1cf70c95a316cc6a92839c986682d98bc35f958f4883f9d2a80192612e2a92849291019061368c565b506020828101516001830155604080840151600284015560608401516003840155608084015160048401805460ff90921660ff1990921691909117905560a0840151600584015560c0840151600684015560e084015160078401556101009093015160089092019190915560008054848252600d835283822080546001600160a01b0319166001600160a01b0392831617905581541681526010909152908120805491612ed683613ee4565b9091555050600090815260136020526040902094909455505050505050505050565b6000828152600d60205260408120548190612f1b906001600160a01b03166110d9565b9050612f2a816000015161343f565b6000600a8581548110612f3f57612f3f613d40565b9060005260206000209060090201600201549050600060019050600a85600b8481548110612f6f57612f6f613d40565b906000526020600020906002020160010160029054906101000a900460ff16612f989190613e7e565b60ff1610612fe957600a600b8381548110612fb557612fb5613d40565b6000918252602090912060029091020160010154612fdc9062010000900460ff1687613e7e565b612fe69190613df5565b90505b8060ff16600184600001518154811061300457613004613d40565b600091825260209091206003909102016001015462010000900460ff161061308e5780600184600001518154811061303e5761303e613d40565b906000526020600020906003020160010160028282829054906101000a900460ff1661306a9190613e5b565b92506101000a81548160ff021916908360ff16021790555060019350505050611a89565b60009350505050611a89565b6000546001600160a01b031633146114805760405162461bcd60e51b815260206004820181905260248201527f4f776e61626c653a2063616c6c6572206973206e6f7420746865206f776e65726044820152606401610b24565b600080546001600160a01b038381166001600160a01b0319831681178455604051919092169283917f8be0079c531659141344cd1fd0a4f28419497f9722a3daafe3b4186f6b6457e09190a35050565b606060006131518361359e565b600101905060008167ffffffffffffffff81111561317157613171613a47565b6040519080825280601f01601f19166020018201604052801561319b576020820181803683370190505b5090508181016020015b600019016f181899199a1a9b1b9c1cb0b131b232b360811b600a86061a8153600a85049450846131a557509392505050565b6000806003546004546131ea919061413f565b6131f4904261412b565b6003546132019190613ecc565b60088054919250600091908261321683613ee4565b909155506040805160608101825282815261ffff808616602080840191825260055460ff908116858701908152600b80546001810182556000918252965160029097027f0175b7a638427703f0dbe7bb9bbf987a2551717b34e79f33b5b1008d1fa01db981019790975593517f0175b7a638427703f0dbe7bb9bbf987a2551717b34e79f33b5b1008d1fa01dba90960180549151909216620100000262ffffff19909116959094169490941792909217909255338252601190529081208054929350906132e283613ee4565b90915550506000818152600e6020526040902080546001600160a01b0319163317905592915050565b60008060065460075461331e919061413f565b613328904261412b565b6006546133359190613ecc565b60098054919250600091908261334a83613ee4565b909155506040805160608101825282815263ffffffff8086166020808401828152848601928352600c80546001810182556000918252955160029096027fdf6966c971051c3d54ec59162606531493a51404a002842f56009d7e5cf4a8c781019690965590517fdf6966c971051c3d54ec59162606531493a51404a002842f56009d7e5cf4a8c89095018054935185166401000000000267ffffffffffffffff199094169590941694909417919091179091553382526012905290812080549293509061341683613ee4565b90915550506000818152600f6020526040902080546001600160a01b0319163317905592915050565b60004290506000610e106001848154811061345c5761345c613d40565b90600052602060002090600302016002015483613479919061413f565b6134839190614156565b905060006001848154811061349a5761349a613d40565b60009182526020909120600390910201600101546134c090610100900460ff1683613d98565b600185815481106134d3576134d3613d40565b60009182526020909120600390910201600101546134fa919062010000900460ff16613ecc565b90506135336001858154811061351257613512613d40565b600091825260209091206001600390920201015460ff908116908316613676565b6001858154811061354657613546613d40565b906000526020600020906003020160010160026101000a81548160ff021916908360ff160217905550826001858154811061358357613583613d40565b90600052602060002090600302016002018190555050505050565b60008072184f03e93ff9f4daa797ed6e38ed64bf6a1f0160401b83106135dd5772184f03e93ff9f4daa797ed6e38ed64bf6a1f0160401b830492506040015b6d04ee2d6d415b85acef81000000008310613609576d04ee2d6d415b85acef8100000000830492506020015b662386f26fc10000831061362757662386f26fc10000830492506010015b6305f5e100831061363f576305f5e100830492506008015b612710831061365357612710830492506004015b60648310613665576064830492506002015b600a8310611a895760010192915050565b60008183106136855781611a86565b5090919050565b82805461369890613fe8565b90600052602060002090601f0160209004810192826136ba5760008555613700565b82601f106136d357805160ff1916838001178555613700565b82800160010185558215613700579182015b828111156137005782518255916020019190600101906136e5565b5061370c929150613710565b5090565b5b8082111561370c5760008155600101613711565b803560ff8116811461373657600080fd5b919050565b6000806040838503121561374e57600080fd5b8235915061375e60208401613725565b90509250929050565b60006020828403121561377957600080fd5b5035919050565b602080825282518282018190526000919060409081850190868401855b828110156137e257815180516001600160a01b03168552868101511515878601528581015186860152606090810151908501526080909301929085019060010161379d565b5091979650505050505050565b60006020828403121561380157600080fd5b81356001600160a01b0381168114611a8657600080fd5b6000806040838503121561382b57600080fd5b50508035926020909101359150565b602080825282518282018190526000919060409081850190868401855b828110156137e2578151805185528681015163ffffffff9081168887015290860151168585015260609093019290850190600101613857565b602080825282518282018190526000919060409081850190868401855b828110156137e2578151805185528681015161ffff168786015285015160ff1685850152606090930192908501906001016138ad565b803563ffffffff8116811461373657600080fd5b6000806040838503121561390a57600080fd5b613913836138e3565b946020939093013593505050565b60005b8381101561393c578181015183820152602001613924565b8381111561394b576000848401525b50505050565b60008151808452613969816020860160208601613921565b601f01601f19169290920160200192915050565b60006020808301818452808551808352604092508286019150828160051b87010184880160005b83811015613a3957603f19898403018552815161012081518186526139cb82870182613951565b9150508882015189860152878201518886015260608083015181870152506080808301516139fd8288018260ff169052565b505060a0828101519086015260c0808301519086015260e0808301519086015261010091820151919094015293860193908601906001016139a4565b509098975050505050505050565b634e487b7160e01b600052604160045260246000fd5b604051601f8201601f1916810167ffffffffffffffff81118282101715613a8657613a86613a47565b604052919050565b60008060408385031215613aa157600080fd5b8235915060208084013567ffffffffffffffff80821115613ac157600080fd5b818601915086601f830112613ad557600080fd5b813581811115613ae757613ae7613a47565b8060051b9150613af8848301613a5d565b8181529183018401918481019089841115613b1257600080fd5b938501935b83851015613b3057843582529385019390850190613b17565b8096505050505050509250929050565b803561ffff8116811461373657600080fd5b600080600060608486031215613b6757600080fd5b613b7084613b40565b9250613b7e60208501613725565b9150604084013590509250925092565b600082601f830112613b9f57600080fd5b813567ffffffffffffffff811115613bb957613bb9613a47565b613bcc601f8201601f1916602001613a5d565b818152846020838601011115613be157600080fd5b816020850160208301376000918101602001919091529392505050565b600060208284031215613c1057600080fd5b813567ffffffffffffffff811115613c2757600080fd5b61225484828501613b8e565b6000610120808352613c478184018d613951565b602084019b909b5250506040810197909752606087019590955260ff93909316608086015260a085019190915260c084015260e083015261010090910152919050565b60008060008060008060c08789031215613ca357600080fd5b863567ffffffffffffffff811115613cba57600080fd5b613cc689828a01613b8e565b965050613cd560208801613b40565b9450613ce360408801613725565b9350613cf1606088016138e3565b9250613cff60808801613725565b915060a087013590509295509295509295565b6020808252601490820152730c6d0c2e6e6d2e640dcdee840f2deeae4407c74560631b604082015260600190565b634e487b7160e01b600052603260045260246000fd5b634e487b7160e01b600052601160045260246000fd5b600063ffffffff80831681851681830481118215151615613d8f57613d8f613d56565b02949350505050565b6000816000190483118215151615613db257613db2613d56565b500290565b600063ffffffff808316818516808303821115613dd657613dd6613d56565b01949350505050565b634e487b7160e01b600052601260045260246000fd5b600060ff831680613e0857613e08613ddf565b8060ff84160491505092915050565b600060ff821660ff84168060ff03821115613e3457613e34613d56565b019392505050565b600060ff821660ff8103613e5257613e52613d56565b60010192915050565b600060ff821660ff841680821015613e7557613e75613d56565b90039392505050565b600060ff821660ff84168160ff0481118215151615613e9f57613e9f613d56565b029392505050565b600063ffffffff83811690831681811015613ec457613ec4613d56565b039392505050565b60008219821115613edf57613edf613d56565b500190565b600060018201613ef657613ef6613d56565b5060010190565b600181815b80851115613f38578160001904821115613f1e57613f1e613d56565b80851615613f2b57918102915b93841c9390800290613f02565b509250929050565b600082613f4f57506001611a89565b81613f5c57506000611a89565b8160018114613f725760028114613f7c57613f98565b6001915050611a89565b60ff841115613f8d57613f8d613d56565b50506001821b611a89565b5060208310610133831016604e8410600b8410161715613fbb575081810a611a89565b613fc58383613efd565b8060001904821115613e9f57613e9f613d56565b6000611a8660ff841683613f40565b600181811c90821680613ffc57607f821691505b60208210810361401c57634e487b7160e01b600052602260045260246000fd5b50919050565b6000604082018483526020604081850152818551808452606086019150828701935060005b8181101561406357845183529383019391830191600101614047565b5090979650505050505050565b60006020828403121561408257600080fd5b81518015158114611a8657600080fd5b600083516140a4818460208801613921565b835190830190613dd6818360208801613921565b600082516140ca818460208701613921565b9190910192915050565b600061ffff80831681851681830481118215151615613d8f57613d8f613d56565b600061ffff808316818516808303821115613dd657613dd6613d56565b60006020828403121561412457600080fd5b5051919050565b60008261413a5761413a613ddf565b500690565b60008282101561415157614151613d56565b500390565b60008261416557614165613ddf565b50049056fea26469706673582212206737ba4159168a0d6bf701ebb903bf476166e9650a5dd13d4ae07254cda6ec5a64736f6c634300080d0033",
  "immutableReferences": {},
  "source": "// SPDX-License-Identifier: MIT\npragma solidity ^0.8.13;\nimport \"./RaceHandler.sol\";\n\ncontract CarRacing is RaceHandler{\n\n    function _isEnoughFuel(uint _carId, uint8 duration) private returns(bool){\n        FuelStation memory station = getFuelStationByOwner(carToOwner[_carId]);\n        _refreshFuel(station.id);\n        uint engineId = cars[_carId].engineId;\n        uint8 liters= 1;\n        if (engines[engineId].consumtion * duration >= 10)\n            liters = duration * engines[engineId].consumtion / 10;\n\n        if (stations[station.id].currentFullness >= liters) {\n            stations[station.id].currentFullness -= liters;\n            return true;\n        }\n        else\n            return false;\n    }\n\n    function _refreshFuel(uint _fuelStationId) private {\n        uint curTime = block.timestamp;\n        uint wholeHours = (curTime - stations[_fuelStationId].lastUpdate) / 3600;\n        uint8 newFullness = uint8(stations[_fuelStationId].currentFullness + wholeHours * stations[_fuelStationId].productionPerHour);\n        stations[_fuelStationId].currentFullness = uint8(Math.min(stations[_fuelStationId].capacity, newFullness));\n        stations[_fuelStationId].lastUpdate = curTime;\n    }\n\n\n    function startRace(uint _carId) external onlyOwnerOfCar(_carId) {\n        uint8 durToNextCrossroad = 2 * (10 - cars[_carId].carLevel / 10);\n\n        require(_isEnoughFuel(_carId, durToNextCrossroad) && chassis[cars[_carId].chassisId].resource >= durToNextCrossroad);\n        // TODO\n\n        chassis[cars[_carId].chassisId].resource -= durToNextCrossroad;\n        cars[_carId].mileage += durToNextCrossroad;\n    }\n\n}",
  "sourcePath": "/Users/vvan/Programming/JavaScript/DriveSafely/contract/contracts/CarRacing.sol",
  "compiler": {
    "name": "solc",
    "version": "0.8.13+commit.abaa5c0e.Emscripten.clang"
  },
  "schemaVersion": "3.4.11",
  "updatedAt": "2023-01-10T17:28:23.802Z",
  "networkType": "ethereum",
  "devdoc": {
    "kind": "dev",
    "methods": {
      "owner()": {
        "details": "Returns the address of the current owner."
      },
      "renounceOwnership()": {
        "details": "Leaves the contract without owner. It will not be possible to call `onlyOwner` functions anymore. Can only be called by the current owner. NOTE: Renouncing ownership will leave the contract without an owner, thereby removing any functionality that is only available to the owner."
      },
      "transferOwnership(address)": {
        "details": "Transfers ownership of the contract to a new account (`newOwner`). Can only be called by the current owner."
      }
    },
    "version": 1
  },
  "userdoc": {
    "kind": "user",
    "methods": {},
    "version": 1
  }
}