{
  "contractName": "CarRacing",
  "abi": [
    {
      "anonymous": false,
      "inputs": [
        {
          "indexed": true,
          "internalType": "address",
          "name": "previousOwner",
          "type": "address"
        },
        {
          "indexed": true,
          "internalType": "address",
          "name": "newOwner",
          "type": "address"
        }
      ],
      "name": "OwnershipTransferred",
      "type": "event"
    },
    {
      "anonymous": false,
      "inputs": [
        {
          "indexed": false,
          "internalType": "uint256",
          "name": "roomId",
          "type": "uint256"
        }
      ],
      "name": "RoomClosed",
      "type": "event"
    },
    {
      "anonymous": false,
      "inputs": [
        {
          "indexed": false,
          "internalType": "uint256",
          "name": "roomId",
          "type": "uint256"
        },
        {
          "indexed": false,
          "internalType": "uint256",
          "name": "roomDNA",
          "type": "uint256"
        }
      ],
      "name": "RoomFull",
      "type": "event"
    },
    {
      "inputs": [
        {
          "internalType": "uint256",
          "name": "",
          "type": "uint256"
        }
      ],
      "name": "carToOwner",
      "outputs": [
        {
          "internalType": "address",
          "name": "",
          "type": "address"
        }
      ],
      "stateMutability": "view",
      "type": "function",
      "constant": true
    },
    {
      "inputs": [
        {
          "internalType": "uint256",
          "name": "",
          "type": "uint256"
        }
      ],
      "name": "cars",
      "outputs": [
        {
          "internalType": "string",
          "name": "model",
          "type": "string"
        },
        {
          "internalType": "uint256",
          "name": "vin",
          "type": "uint256"
        },
        {
          "internalType": "uint256",
          "name": "engineId",
          "type": "uint256"
        },
        {
          "internalType": "uint256",
          "name": "chassisId",
          "type": "uint256"
        },
        {
          "internalType": "uint8",
          "name": "carLevel",
          "type": "uint8"
        },
        {
          "internalType": "uint256",
          "name": "mileage",
          "type": "uint256"
        },
        {
          "internalType": "uint256",
          "name": "winCountOnCurrentLevel",
          "type": "uint256"
        },
        {
          "internalType": "uint256",
          "name": "lossCountOnCurrentLevel",
          "type": "uint256"
        }
      ],
      "stateMutability": "view",
      "type": "function",
      "constant": true
    },
    {
      "inputs": [
        {
          "internalType": "uint256",
          "name": "",
          "type": "uint256"
        }
      ],
      "name": "chassis",
      "outputs": [
        {
          "internalType": "uint256",
          "name": "id",
          "type": "uint256"
        },
        {
          "internalType": "uint32",
          "name": "durability",
          "type": "uint32"
        },
        {
          "internalType": "uint32",
          "name": "resource",
          "type": "uint32"
        }
      ],
      "stateMutability": "view",
      "type": "function",
      "constant": true
    },
    {
      "inputs": [
        {
          "internalType": "uint256",
          "name": "",
          "type": "uint256"
        }
      ],
      "name": "chassisToOwner",
      "outputs": [
        {
          "internalType": "address",
          "name": "",
          "type": "address"
        }
      ],
      "stateMutability": "view",
      "type": "function",
      "constant": true
    },
    {
      "inputs": [
        {
          "internalType": "uint256",
          "name": "roomId",
          "type": "uint256"
        },
        {
          "internalType": "uint256[]",
          "name": "answer",
          "type": "uint256[]"
        }
      ],
      "name": "commitAnswer",
      "outputs": [],
      "stateMutability": "nonpayable",
      "type": "function"
    },
    {
      "inputs": [],
      "name": "createCar",
      "outputs": [],
      "stateMutability": "nonpayable",
      "type": "function"
    },
    {
      "inputs": [],
      "name": "createFuelStation",
      "outputs": [],
      "stateMutability": "nonpayable",
      "type": "function"
    },
    {
      "inputs": [
        {
          "internalType": "uint256",
          "name": "",
          "type": "uint256"
        }
      ],
      "name": "engineToOwner",
      "outputs": [
        {
          "internalType": "address",
          "name": "",
          "type": "address"
        }
      ],
      "stateMutability": "view",
      "type": "function",
      "constant": true
    },
    {
      "inputs": [
        {
          "internalType": "uint256",
          "name": "",
          "type": "uint256"
        }
      ],
      "name": "engines",
      "outputs": [
        {
          "internalType": "uint256",
          "name": "id",
          "type": "uint256"
        },
        {
          "internalType": "uint16",
          "name": "horsePowers",
          "type": "uint16"
        },
        {
          "internalType": "uint8",
          "name": "consumtion",
          "type": "uint8"
        }
      ],
      "stateMutability": "view",
      "type": "function",
      "constant": true
    },
    {
      "inputs": [
        {
          "internalType": "uint256",
          "name": "carId",
          "type": "uint256"
        }
      ],
      "name": "findRoom",
      "outputs": [],
      "stateMutability": "nonpayable",
      "type": "function"
    },
    {
      "inputs": [
        {
          "internalType": "uint256",
          "name": "",
          "type": "uint256"
        }
      ],
      "name": "fuelStationToOwner",
      "outputs": [
        {
          "internalType": "address",
          "name": "",
          "type": "address"
        }
      ],
      "stateMutability": "view",
      "type": "function",
      "constant": true
    },
    {
      "inputs": [
        {
          "internalType": "address",
          "name": "_owner",
          "type": "address"
        }
      ],
      "name": "getCarsByOwner",
      "outputs": [
        {
          "components": [
            {
              "internalType": "string",
              "name": "model",
              "type": "string"
            },
            {
              "internalType": "uint256",
              "name": "vin",
              "type": "uint256"
            },
            {
              "internalType": "uint256",
              "name": "engineId",
              "type": "uint256"
            },
            {
              "internalType": "uint256",
              "name": "chassisId",
              "type": "uint256"
            },
            {
              "internalType": "uint8",
              "name": "carLevel",
              "type": "uint8"
            },
            {
              "internalType": "uint256",
              "name": "mileage",
              "type": "uint256"
            },
            {
              "internalType": "uint256",
              "name": "winCountOnCurrentLevel",
              "type": "uint256"
            },
            {
              "internalType": "uint256",
              "name": "lossCountOnCurrentLevel",
              "type": "uint256"
            }
          ],
          "internalType": "struct CarFactory.Car[]",
          "name": "",
          "type": "tuple[]"
        }
      ],
      "stateMutability": "view",
      "type": "function",
      "constant": true
    },
    {
      "inputs": [
        {
          "internalType": "address",
          "name": "_owner",
          "type": "address"
        }
      ],
      "name": "getChassisByOwner",
      "outputs": [
        {
          "internalType": "uint256[]",
          "name": "",
          "type": "uint256[]"
        }
      ],
      "stateMutability": "view",
      "type": "function",
      "constant": true
    },
    {
      "inputs": [
        {
          "internalType": "uint256",
          "name": "roomId",
          "type": "uint256"
        }
      ],
      "name": "getClosedRoom",
      "outputs": [
        {
          "components": [
            {
              "internalType": "address",
              "name": "player",
              "type": "address"
            },
            {
              "internalType": "bool",
              "name": "correct",
              "type": "bool"
            },
            {
              "internalType": "uint256",
              "name": "time",
              "type": "uint256"
            },
            {
              "internalType": "uint256",
              "name": "carId",
              "type": "uint256"
            }
          ],
          "internalType": "struct RaceHandler.Answer[]",
          "name": "",
          "type": "tuple[]"
        }
      ],
      "stateMutability": "view",
      "type": "function",
      "constant": true
    },
    {
      "inputs": [
        {
          "internalType": "address",
          "name": "_owner",
          "type": "address"
        }
      ],
      "name": "getEnginesByOwner",
      "outputs": [
        {
          "internalType": "uint256[]",
          "name": "",
          "type": "uint256[]"
        }
      ],
      "stateMutability": "view",
      "type": "function",
      "constant": true
    },
    {
      "inputs": [
        {
          "internalType": "address",
          "name": "_owner",
          "type": "address"
        }
      ],
      "name": "getFuelStationByOwner",
      "outputs": [
        {
          "internalType": "uint256",
          "name": "",
          "type": "uint256"
        }
      ],
      "stateMutability": "view",
      "type": "function",
      "constant": true
    },
    {
      "inputs": [
        {
          "internalType": "uint256",
          "name": "",
          "type": "uint256"
        }
      ],
      "name": "idToStartedRooms",
      "outputs": [
        {
          "internalType": "uint256",
          "name": "numberPlayers",
          "type": "uint256"
        },
        {
          "internalType": "uint256",
          "name": "world",
          "type": "uint256"
        },
        {
          "internalType": "uint256",
          "name": "roomDNA",
          "type": "uint256"
        },
        {
          "internalType": "uint256",
          "name": "startTime",
          "type": "uint256"
        },
        {
          "internalType": "uint256",
          "name": "curAnswer",
          "type": "uint256"
        },
        {
          "internalType": "bool",
          "name": "closed",
          "type": "bool"
        }
      ],
      "stateMutability": "view",
      "type": "function",
      "constant": true
    },
    {
      "inputs": [
        {
          "internalType": "uint256",
          "name": "_carId",
          "type": "uint256"
        }
      ],
      "name": "levelUp",
      "outputs": [],
      "stateMutability": "payable",
      "type": "function",
      "payable": true
    },
    {
      "inputs": [
        {
          "internalType": "uint256",
          "name": "",
          "type": "uint256"
        }
      ],
      "name": "openedRooms",
      "outputs": [
        {
          "internalType": "uint256",
          "name": "id",
          "type": "uint256"
        },
        {
          "internalType": "uint256",
          "name": "playersEntered",
          "type": "uint256"
        },
        {
          "internalType": "uint256",
          "name": "world",
          "type": "uint256"
        },
        {
          "components": [
            {
              "internalType": "uint256",
              "name": "playersNeeded",
              "type": "uint256"
            },
            {
              "internalType": "uint256",
              "name": "roadsNum",
              "type": "uint256"
            },
            {
              "internalType": "uint256",
              "name": "crossId",
              "type": "uint256"
            }
          ],
          "internalType": "struct RaceHandler.Cross",
          "name": "cross",
          "type": "tuple"
        }
      ],
      "stateMutability": "view",
      "type": "function",
      "constant": true
    },
    {
      "inputs": [],
      "name": "owner",
      "outputs": [
        {
          "internalType": "address",
          "name": "",
          "type": "address"
        }
      ],
      "stateMutability": "view",
      "type": "function",
      "constant": true
    },
    {
      "inputs": [
        {
          "internalType": "address",
          "name": "",
          "type": "address"
        }
      ],
      "name": "ownerCarCount",
      "outputs": [
        {
          "internalType": "uint256",
          "name": "",
          "type": "uint256"
        }
      ],
      "stateMutability": "view",
      "type": "function",
      "constant": true
    },
    {
      "inputs": [],
      "name": "renounceOwnership",
      "outputs": [],
      "stateMutability": "nonpayable",
      "type": "function"
    },
    {
      "inputs": [
        {
          "internalType": "uint256",
          "name": "",
          "type": "uint256"
        }
      ],
      "name": "stations",
      "outputs": [
        {
          "internalType": "uint256",
          "name": "id",
          "type": "uint256"
        },
        {
          "internalType": "uint8",
          "name": "capacity",
          "type": "uint8"
        },
        {
          "internalType": "uint8",
          "name": "productionPerHour",
          "type": "uint8"
        },
        {
          "internalType": "uint8",
          "name": "currentFullness",
          "type": "uint8"
        },
        {
          "internalType": "uint256",
          "name": "lastUpdate",
          "type": "uint256"
        }
      ],
      "stateMutability": "view",
      "type": "function",
      "constant": true
    },
    {
      "inputs": [
        {
          "internalType": "address",
          "name": "newOwner",
          "type": "address"
        }
      ],
      "name": "transferOwnership",
      "outputs": [],
      "stateMutability": "nonpayable",
      "type": "function"
    },
    {
      "inputs": [
        {
          "internalType": "uint256",
          "name": "_fuelStatonId",
          "type": "uint256"
        },
        {
          "internalType": "uint8",
          "name": "_counts",
          "type": "uint8"
        }
      ],
      "name": "upgradeCapacity",
      "outputs": [],
      "stateMutability": "payable",
      "type": "function",
      "payable": true
    },
    {
      "inputs": [
        {
          "internalType": "uint256",
          "name": "_engineId",
          "type": "uint256"
        },
        {
          "internalType": "uint8",
          "name": "_counts",
          "type": "uint8"
        }
      ],
      "name": "upgradeConsumtion",
      "outputs": [],
      "stateMutability": "payable",
      "type": "function",
      "payable": true
    },
    {
      "inputs": [
        {
          "internalType": "uint256",
          "name": "_chassisId",
          "type": "uint256"
        },
        {
          "internalType": "uint8",
          "name": "_counts",
          "type": "uint8"
        }
      ],
      "name": "upgradeDurability",
      "outputs": [],
      "stateMutability": "payable",
      "type": "function",
      "payable": true
    },
    {
      "inputs": [
        {
          "internalType": "uint256",
          "name": "_engineId",
          "type": "uint256"
        },
        {
          "internalType": "uint8",
          "name": "_counts",
          "type": "uint8"
        }
      ],
      "name": "upgradeHorsePowers",
      "outputs": [],
      "stateMutability": "payable",
      "type": "function",
      "payable": true
    },
    {
      "inputs": [
        {
          "internalType": "uint256",
          "name": "_fuelStatonId",
          "type": "uint256"
        },
        {
          "internalType": "uint8",
          "name": "_counts",
          "type": "uint8"
        }
      ],
      "name": "upgradeProductionPerHour",
      "outputs": [],
      "stateMutability": "payable",
      "type": "function",
      "payable": true
    },
    {
      "inputs": [
        {
          "internalType": "uint256",
          "name": "_carId",
          "type": "uint256"
        }
      ],
      "name": "startRace",
      "outputs": [],
      "stateMutability": "nonpayable",
      "type": "function"
    }
  ],
  "bytecode": "0x6080604052603c600060146101000a81548160ff021916908360ff1602179055506005600060156101000a81548160ff021916908360ff160217905550600160085560016009556509184e72a00060135565b5e620f48000601455650da475abf0006015556611c37937e080006016556305f5e10060175566038d7ea4c680006018553480156200008f57600080fd5b50620000b0620000a46200034760201b60201c565b6200034f60201b60201c565b6050600381905550605b600481905550600a600560006101000a81548160ff021916908360ff160217905550620186a06006819055506201d4c1600781905550600b60018160018154018082558091505003906000526020600020905050600c600181600181540180825580915050039060005260206000209050506019604051806060016040528060048152602001600481526020016000815250908060018154018082558091505060019003906000526020600020906003020160009091909190915060008201518160000155602082015181600101556040820151816002015550506019604051806060016040528060038152602001600481526020016000815250908060018154018082558091505060019003906000526020600020906003020160009091909190915060008201518160000155602082015181600101556040820151816002015550506019604051806060016040528060028152602001600481526020016000815250908060018154018082558091505060019003906000526020600020906003020160009091909190915060008201518160000155602082015181600101556040820151816002015550506019604051806060016040528060038152602001600381526020016001815250908060018154018082558091505060019003906000526020600020906003020160009091909190915060008201518160000155602082015181600101556040820151816002015550506019604051806060016040528060028152602001600381526020016001815250908060018154018082558091505060019003906000526020600020906003020160009091909190915060008201518160000155602082015181600101556040820151816002015550506001601c8190555062000413565b600033905090565b60008060009054906101000a900473ffffffffffffffffffffffffffffffffffffffff169050816000806101000a81548173ffffffffffffffffffffffffffffffffffffffff021916908373ffffffffffffffffffffffffffffffffffffffff1602179055508173ffffffffffffffffffffffffffffffffffffffff168173ffffffffffffffffffffffffffffffffffffffff167f8be0079c531659141344cd1fd0a4f28419497f9722a3daafe3b4186f6b6457e060405160405180910390a35050565b614a3f80620004236000396000f3fe6080604052600436106101cd5760003560e01c80637713d521116100f7578063b72c0eea11610095578063f2fde38b11610064578063f2fde38b146106c3578063f7746e36146106ec578063faf4bb9814610730578063fb2d954f1461074c576101cd565b8063b72c0eea14610607578063c75bb4f414610646578063c85b7fed14610683578063e77100d4146106ac576101cd565b80638da5cb5b116100d15780638da5cb5b14610542578063906f5f341461056d57806392f859db14610589578063b3b29afd146105ca576101cd565b80637713d521146104cd5780637c62360f1461050a5780638590926714610526576101cd565b806333ca504b1161016f578063594193d71161013e578063594193d7146103ff5780635dcc4cc61461043c5780636f206fc114610479578063715018a6146104b6576101cd565b806333ca504b1461030b5780633521c4261461034857806344901490146103855780634e31f910146103c2576101cd565b80630ce90ec2116101ab5780630ce90ec2146102705780631c5dde0e1461028c578063224370f0146102cb57806324d822bf146102e2576101cd565b806303f2e05b146101d25780630418394e146101ee578063081315ff14610230575b600080fd5b6101ec60048036038101906101e791906135b3565b610775565b005b3480156101fa57600080fd5b50610215600480360381019061021091906135f3565b6108ad565b6040516102279695949392919061364a565b60405180910390f35b34801561023c57600080fd5b50610257600480360381019061025291906135f3565b6108f6565b60405161026794939291906136fc565b60405180910390f35b61028a600480360381019061028591906135f3565b61095e565b005b34801561029857600080fd5b506102b360048036038101906102ae91906135f3565b610add565b6040516102c293929190613760565b60405180910390f35b3480156102d757600080fd5b506102e0610b37565b005b3480156102ee57600080fd5b50610309600480360381019061030491906135f3565b610ca3565b005b34801561031757600080fd5b50610332600480360381019061032d91906135f3565b610eb9565b60405161033f91906137d8565b60405180910390f35b34801561035457600080fd5b5061036f600480360381019061036a91906135f3565b610eec565b60405161037c9190613915565b60405180910390f35b34801561039157600080fd5b506103ac60048036038101906103a791906135f3565b611049565b6040516103b991906137d8565b60405180910390f35b3480156103ce57600080fd5b506103e960048036038101906103e49190613963565b61107c565b6040516103f69190613990565b60405180910390f35b34801561040b57600080fd5b50610426600480360381019061042191906135f3565b61111a565b60405161043391906137d8565b60405180910390f35b34801561044857600080fd5b50610463600480360381019061045e91906135f3565b61114d565b60405161047091906137d8565b60405180910390f35b34801561048557600080fd5b506104a0600480360381019061049b9190613963565b611180565b6040516104ad9190613a5a565b60405180910390f35b3480156104c257600080fd5b506104cb6112d2565b005b3480156104d957600080fd5b506104f460048036038101906104ef9190613963565b6112e6565b6040516105019190613a5a565b60405180910390f35b610524600480360381019061051f91906135b3565b611438565b005b610540600480360381019061053b91906135b3565b611565565b005b34801561054e57600080fd5b50610557611688565b60405161056491906137d8565b60405180910390f35b610587600480360381019061058291906135b3565b6116b1565b005b34801561059557600080fd5b506105b060048036038101906105ab91906135f3565b6117d4565b6040516105c1959493929190613a8b565b60405180910390f35b3480156105d657600080fd5b506105f160048036038101906105ec9190613963565b611841565b6040516105fe9190613990565b60405180910390f35b34801561061357600080fd5b5061062e600480360381019061062991906135f3565b611859565b60405161063d93929190613afb565b60405180910390f35b34801561065257600080fd5b5061066d60048036038101906106689190613963565b6118ae565b60405161067a9190613d4c565b60405180910390f35b34801561068f57600080fd5b506106aa60048036038101906106a59190613eb6565b611b22565b005b3480156106b857600080fd5b506106c1611ea5565b005b3480156106cf57600080fd5b506106ea60048036038101906106e59190613963565b612140565b005b3480156106f857600080fd5b50610713600480360381019061070e91906135f3565b6121c3565b604051610727989796959493929190613f5c565b60405180910390f35b61074a600480360381019061074591906135b3565b6122b0565b005b34801561075857600080fd5b50610773600480360381019061076e91906135f3565b6123de565b005b81600f600082815260200190815260200160002060009054906101000a900473ffffffffffffffffffffffffffffffffffffffff1673ffffffffffffffffffffffffffffffffffffffff163373ffffffffffffffffffffffffffffffffffffffff16146107e157600080fd5b601754600c84815481106107f8576107f7613fe1565b5b906000526020600020906002020160010160009054906101000a900463ffffffff168360ff16610828919061403f565b63ffffffff16610838919061407d565b341461084357600080fd5b8160ff16600c848154811061085b5761085a613fe1565b5b906000526020600020906002020160010160008282829054906101000a900463ffffffff1661088a91906140d7565b92506101000a81548163ffffffff021916908363ffffffff160217905550505050565b601e6020528060005260406000206000915090508060000154908060010154908060020154908060030154908060050154908060060160009054906101000a900460ff16905086565b601d818154811061090657600080fd5b9060005260206000209060060201600091509050806000015490806001015490806002015490806003016040518060600160405290816000820154815260200160018201548152602001600282015481525050905084565b600a80828154811061097357610972613fe1565b5b906000526020600020906008020160040160009054906101000a900460ff1661099c9190614140565b60ff166018546109ac919061407d565b34148015610a2057506001600a82815481106109cb576109ca613fe1565b5b906000526020600020906008020160040160009054906101000a900460ff166109f49190614171565b60ff16600a8281548110610a0b57610a0a613fe1565b5b90600052602060002090600802016006015410155b610a2957600080fd5b600a8181548110610a3d57610a3c613fe1565b5b9060005260206000209060080201600401600081819054906101000a900460ff1680929190610a6b906141a8565b91906101000a81548160ff021916908360ff160217905550506000600a8281548110610a9a57610a99613fe1565b5b9060005260206000209060080201600601819055506000600a8281548110610ac557610ac4613fe1565b5b90600052602060002090600802016007018190555050565b600c8181548110610aed57600080fd5b90600052602060002090600202016000915090508060000154908060010160009054906101000a900463ffffffff16908060010160049054906101000a900463ffffffff16905083565b60003390506000600180549050905060016040518060a00160405280838152602001600060149054906101000a900460ff1660ff168152602001600060159054906101000a900460ff1660ff168152602001600060149054906101000a900460ff1660ff1681526020014263ffffffff1681525090806001815401808255809150506001900390600052602060002090600302016000909190919091506000820151816000015560208201518160010160006101000a81548160ff021916908360ff16021790555060408201518160010160016101000a81548160ff021916908360ff16021790555060608201518160010160026101000a81548160ff021916908360ff160217905550608082015181600201555050816002600083815260200190815260200160002060006101000a81548173ffffffffffffffffffffffffffffffffffffffff021916908373ffffffffffffffffffffffffffffffffffffffff1602179055505050565b80600d600082815260200190815260200160002060009054906101000a900473ffffffffffffffffffffffffffffffffffffffff1673ffffffffffffffffffffffffffffffffffffffff163373ffffffffffffffffffffffffffffffffffffffff1614610d0f57600080fd5b6000600a808481548110610d2657610d25613fe1565b5b906000526020600020906008020160040160009054906101000a900460ff16610d4f9190614140565b600a610d5b91906141d1565b6002610d679190614205565b9050610d738382612a3f565b8015610de257508060ff16600c600a8581548110610d9457610d93613fe1565b5b90600052602060002090600802016003015481548110610db757610db6613fe1565b5b906000526020600020906002020160010160049054906101000a900463ffffffff1663ffffffff1610155b610deb57600080fd5b8060ff16600c600a8581548110610e0557610e04613fe1565b5b90600052602060002090600802016003015481548110610e2857610e27613fe1565b5b906000526020600020906002020160010160048282829054906101000a900463ffffffff16610e579190614240565b92506101000a81548163ffffffff021916908363ffffffff1602179055508060ff16600a8481548110610e8d57610e8c613fe1565b5b90600052602060002090600802016005016000828254610ead9190614274565b92505081905550505050565b600d6020528060005260406000206000915054906101000a900473ffffffffffffffffffffffffffffffffffffffff1681565b6060601e600083815260200190815260200160002060060160009054906101000a900460ff16610f51576040517f08c379a0000000000000000000000000000000000000000000000000000000008152600401610f4890614316565b60405180910390fd5b601e6000838152602001908152602001600020600401805480602002602001604051908101604052809291908181526020016000905b8282101561103e57838290600052602060002090600302016040518060800160405290816000820160009054906101000a900473ffffffffffffffffffffffffffffffffffffffff1673ffffffffffffffffffffffffffffffffffffffff1673ffffffffffffffffffffffffffffffffffffffff1681526020016000820160149054906101000a900460ff161515151581526020016001820154815260200160028201548152505081526020019060010190610f87565b505050509050919050565b600f6020528060005260406000206000915054906101000a900473ffffffffffffffffffffffffffffffffffffffff1681565b60008060005b600180549050811015611110578373ffffffffffffffffffffffffffffffffffffffff166002600083815260200190815260200160002060009054906101000a900473ffffffffffffffffffffffffffffffffffffffff1673ffffffffffffffffffffffffffffffffffffffff16036110fd57809150611110565b808061110890614336565b915050611082565b5080915050919050565b60026020528060005260406000206000915054906101000a900473ffffffffffffffffffffffffffffffffffffffff1681565b600e6020528060005260406000206000915054906101000a900473ffffffffffffffffffffffffffffffffffffffff1681565b60606000601160008473ffffffffffffffffffffffffffffffffffffffff1673ffffffffffffffffffffffffffffffffffffffff1681526020019081526020016000205467ffffffffffffffff8111156111dd576111dc613d73565b5b60405190808252806020026020018201604052801561120b5781602001602082028036833780820191505090505b5090506000805b600c805490508110156112c7578473ffffffffffffffffffffffffffffffffffffffff16600f600083815260200190815260200160002060009054906101000a900473ffffffffffffffffffffffffffffffffffffffff1673ffffffffffffffffffffffffffffffffffffffff16036112b4578083838151811061129957611298613fe1565b5b60200260200101818152505081806112b090614336565b9250505b80806112bf90614336565b915050611212565b508192505050919050565b6112da612c00565b6112e46000612c7e565b565b60606000601160008473ffffffffffffffffffffffffffffffffffffffff1673ffffffffffffffffffffffffffffffffffffffff1681526020019081526020016000205467ffffffffffffffff81111561134357611342613d73565b5b6040519080825280602002602001820160405280156113715781602001602082028036833780820191505090505b5090506000805b600b8054905081101561142d578473ffffffffffffffffffffffffffffffffffffffff16600e600083815260200190815260200160002060009054906101000a900473ffffffffffffffffffffffffffffffffffffffff1673ffffffffffffffffffffffffffffffffffffffff160361141a57808383815181106113ff576113fe613fe1565b5b602002602001018181525050818061141690614336565b9250505b808061142590614336565b915050611378565b508192505050919050565b81600e600082815260200190815260200160002060009054906101000a900473ffffffffffffffffffffffffffffffffffffffff1673ffffffffffffffffffffffffffffffffffffffff163373ffffffffffffffffffffffffffffffffffffffff16146114a457600080fd5b600b83815481106114b8576114b7613fe1565b5b906000526020600020906002020160010160029054906101000a900460ff16600a6114e391906141d1565b60026114ef91906144b1565b6016546114fc919061407d565b341461150757600080fd5b81600b848154811061151c5761151b613fe1565b5b906000526020600020906002020160010160028282829054906101000a900460ff1661154891906141d1565b92506101000a81548160ff021916908360ff160217905550505050565b816002600082815260200190815260200160002060009054906101000a900473ffffffffffffffffffffffffffffffffffffffff1673ffffffffffffffffffffffffffffffffffffffff163373ffffffffffffffffffffffffffffffffffffffff16146115d157600080fd5b601454600184815481106115e8576115e7613fe1565b5b906000526020600020906003020160010160019054906101000a900460ff16836116129190614205565b60ff1661161f919061407d565b341461162a57600080fd5b816001848154811061163f5761163e613fe1565b5b906000526020600020906003020160010160018282829054906101000a900460ff1661166b9190614171565b92506101000a81548160ff021916908360ff160217905550505050565b60008060009054906101000a900473ffffffffffffffffffffffffffffffffffffffff16905090565b816002600082815260200190815260200160002060009054906101000a900473ffffffffffffffffffffffffffffffffffffffff1673ffffffffffffffffffffffffffffffffffffffff163373ffffffffffffffffffffffffffffffffffffffff161461171d57600080fd5b6013546001848154811061173457611733613fe1565b5b906000526020600020906003020160010160009054906101000a900460ff168361175e9190614205565b60ff1661176b919061407d565b341461177657600080fd5b816001848154811061178b5761178a613fe1565b5b906000526020600020906003020160010160008282829054906101000a900460ff166117b79190614171565b92506101000a81548160ff021916908360ff160217905550505050565b600181815481106117e457600080fd5b90600052602060002090600302016000915090508060000154908060010160009054906101000a900460ff16908060010160019054906101000a900460ff16908060010160029054906101000a900460ff16908060020154905085565b60106020528060005260406000206000915090505481565b600b818154811061186957600080fd5b90600052602060002090600202016000915090508060000154908060010160009054906101000a900461ffff16908060010160029054906101000a900460ff16905083565b60606000601060008473ffffffffffffffffffffffffffffffffffffffff1673ffffffffffffffffffffffffffffffffffffffff1681526020019081526020016000205467ffffffffffffffff81111561190b5761190a613d73565b5b60405190808252806020026020018201604052801561194457816020015b611931613445565b8152602001906001900390816119295790505b5090506000805b600c80549050811015611b17578473ffffffffffffffffffffffffffffffffffffffff16600d600083815260200190815260200160002060009054906101000a900473ffffffffffffffffffffffffffffffffffffffff1673ffffffffffffffffffffffffffffffffffffffff1603611b0457600a81815481106119d2576119d1613fe1565b5b9060005260206000209060080201604051806101000160405290816000820180546119fc9061452b565b80601f0160208091040260200160405190810160405280929190818152602001828054611a289061452b565b8015611a755780601f10611a4a57610100808354040283529160200191611a75565b820191906000526020600020905b815481529060010190602001808311611a5857829003601f168201915b505050505081526020016001820154815260200160028201548152602001600382015481526020016004820160009054906101000a900460ff1660ff1660ff1681526020016005820154815260200160068201548152602001600782015481525050838381518110611aea57611ae9613fe1565b5b60200260200101819052508180611b0090614336565b9250505b8080611b0f90614336565b91505061194b565b508192505050919050565b81601a60003373ffffffffffffffffffffffffffffffffffffffff1673ffffffffffffffffffffffffffffffffffffffff1681526020019081526020016000205414611ba3576040517f08c379a0000000000000000000000000000000000000000000000000000000008152600401611b9a906145a8565b60405180910390fd5b6000601e6000848152602001908152602001600020600201549050600073__PDDLib________________________________639c63eb2e83856040518363ffffffff1660e01b8152600401611bf992919061466d565b602060405180830381865af4158015611c16573d6000803e3d6000fd5b505050506040513d601f19601f82011682018060405250810190611c3a91906146c9565b9050600060405180608001604052803373ffffffffffffffffffffffffffffffffffffffff1681526020018315158152602001428152602001601b60003373ffffffffffffffffffffffffffffffffffffffff1673ffffffffffffffffffffffffffffffffffffffff1681526020019081526020016000205481525090506000601e600087815260200190815260200160002090508060040182908060018154018082558091505060019003906000526020600020906003020160009091909190915060008201518160000160006101000a81548173ffffffffffffffffffffffffffffffffffffffff021916908373ffffffffffffffffffffffffffffffffffffffff16021790555060208201518160000160146101000a81548160ff02191690831515021790555060408201518160010155606082015181600201555050601e600087815260200190815260200160002060000154601e60008881526020019081526020016000206004018054905003611e9d577f67acaceb58ff1ad2aa8b3069f69c4cd076824e06a09184b75fb197ead7040be786604051611ddf9190613990565b60405180910390a16001601e600088815260200190815260200160002060060160006101000a81548160ff021916908315150217905550601a60003373ffffffffffffffffffffffffffffffffffffffff1673ffffffffffffffffffffffffffffffffffffffff16815260200190815260200160002060009055601b60003373ffffffffffffffffffffffffffffffffffffffff1673ffffffffffffffffffffffffffffffffffffffff168152602001908152602001600020600090555b505050505050565b6000601060003373ffffffffffffffffffffffffffffffffffffffff1673ffffffffffffffffffffffffffffffffffffffff1681526020019081526020016000205414611ef157600080fd5b60006040518060400160405280600581526020017f6d6f64656c0000000000000000000000000000000000000000000000000000008152509050600081611f3742612d42565b604051602001611f48929190614732565b6040516020818303038152906040529050600081604051602001611f6c9190614756565b6040516020818303038152906040528051906020012060001c90506000611f91612e10565b90506000611f9d612fb3565b90506000600a805490509050600a604051806101000160405280888152602001868152602001858152602001848152602001600160ff168152602001600081526020016000815260200160008152509080600181540180825580915050600190039060005260206000209060080201600090919091909150600082015181600001908051906020019061203192919061348d565b5060208201518160010155604082015181600201556060820151816003015560808201518160040160006101000a81548160ff021916908360ff16021790555060a0820151816005015560c0820151816006015560e08201518160070155505033600d600083815260200190815260200160002060006101000a81548173ffffffffffffffffffffffffffffffffffffffff021916908373ffffffffffffffffffffffffffffffffffffffff160217905550601060003373ffffffffffffffffffffffffffffffffffffffff1673ffffffffffffffffffffffffffffffffffffffff168152602001908152602001600020600081548092919061213390614336565b9190505550505050505050565b612148612c00565b600073ffffffffffffffffffffffffffffffffffffffff168173ffffffffffffffffffffffffffffffffffffffff16036121b7576040517f08c379a00000000000000000000000000000000000000000000000000000000081526004016121ae906147df565b60405180910390fd5b6121c081612c7e565b50565b600a81815481106121d357600080fd5b90600052602060002090600802016000915090508060000180546121f69061452b565b80601f01602080910402602001604051908101604052809291908181526020018280546122229061452b565b801561226f5780601f106122445761010080835404028352916020019161226f565b820191906000526020600020905b81548152906001019060200180831161225257829003601f168201915b5050505050908060010154908060020154908060030154908060040160009054906101000a900460ff16908060050154908060060154908060070154905088565b81600e600082815260200190815260200160002060009054906101000a900473ffffffffffffffffffffffffffffffffffffffff1673ffffffffffffffffffffffffffffffffffffffff163373ffffffffffffffffffffffffffffffffffffffff161461231c57600080fd5b601554600b848154811061233357612332613fe1565b5b906000526020600020906002020160010160009054906101000a900461ffff168360ff1661236191906147ff565b61ffff1661236f919061407d565b341461237a57600080fd5b8160ff16600b848154811061239257612391613fe1565b5b906000526020600020906002020160010160008282829054906101000a900461ffff166123bf919061483b565b92506101000a81548161ffff021916908361ffff160217905550505050565b80600d600082815260200190815260200160002060009054906101000a900473ffffffffffffffffffffffffffffffffffffffff1673ffffffffffffffffffffffffffffffffffffffff163373ffffffffffffffffffffffffffffffffffffffff161461244a57600080fd5b6000805b601d8054905081101561288a57601d818154811061246f5761246e613fe1565b5b9060005260206000209060060201600201546001600a80878154811061249857612497613fe1565b5b906000526020600020906008020160040160009054906101000a900460ff166124c19190614140565b6124cb9190614171565b60ff16036128775760019150601d81815481106124eb576124ea613fe1565b5b906000526020600020906006020160000154601a60003373ffffffffffffffffffffffffffffffffffffffff1673ffffffffffffffffffffffffffffffffffffffff1681526020019081526020016000208190555083601b60003373ffffffffffffffffffffffffffffffffffffffff1673ffffffffffffffffffffffffffffffffffffffff16815260200190815260200160002081905550601d818154811061259857612597613fe1565b5b906000526020600020906006020160010160008154809291906125ba90614336565b9190505550601d81815481106125d3576125d2613fe1565b5b906000526020600020906006020160030160000154601d82815481106125fc576125fb613fe1565b5b9060005260206000209060060201600101540361287657600073__PDDLib________________________________63c037e545601d848154811061264357612642613fe1565b5b906000526020600020906006020160030160020154601d858154811061266c5761266b613fe1565b5b9060005260206000209060060201600301600001546040518363ffffffff1660e01b815260040161269e929190614873565b602060405180830381865af41580156126bb573d6000803e3d6000fd5b505050506040513d601f19601f820116820180604052508101906126df91906148b1565b90506000601e6000601d85815481106126fb576126fa613fe1565b5b90600052602060002090600602016000015481526020019081526020016000209050601d838154811061273157612730613fe1565b5b9060005260206000209060060201600301600001548160000181905550601d838154811061276257612761613fe1565b5b90600052602060002090600602016002015481600101819055508181600201819055504281600301819055506000816005018190555060008160060160006101000a81548160ff0219169083151502179055507f2838ebeee7dc83fac85a3d6dbca0c0b6771591ada8b00f97371aa6611e631f9c601d84815481106127ea576127e9613fe1565b5b9060005260206000209060060201600001548360405161280b9291906148de565b60405180910390a1601d838154811061282757612826613fe1565b5b906000526020600020906006020160008082016000905560018201600090556002820160009055600382016000808201600090556001820160009055600282016000905550505050505061288a565b5b808061288290614336565b91505061244e565b5080156128975750612a3b565b6000601c60008154809291906128ac90614336565b9190505590506000601980549050426128c59190614907565b905081601a60003373ffffffffffffffffffffffffffffffffffffffff1673ffffffffffffffffffffffffffffffffffffffff16815260200190815260200160002081905550601d6040518060800160405280848152602001600181526020016001600a808a8154811061293c5761293b613fe1565b5b906000526020600020906008020160040160009054906101000a900460ff166129659190614140565b61296f9190614171565b60ff1681526020016019848154811061298b5761298a613fe1565b5b906000526020600020906003020160405180606001604052908160008201548152602001600182015481526020016002820154815250508152509080600181540180825580915050600190039060005260206000209060060201600090919091909150600082015181600001556020820151816001015560408201518160020155606082015181600301600082015181600001556020820151816001015560408201518160020155505050505050505b5050565b600080612a7e600d600086815260200190815260200160002060009054906101000a900473ffffffffffffffffffffffffffffffffffffffff1661107c565b9050612a8981613156565b6000600a8581548110612a9f57612a9e613fe1565b5b9060005260206000209060080201600201549050600060019050600a85600b8481548110612ad057612acf613fe1565b5b906000526020600020906002020160010160029054906101000a900460ff16612af99190614205565b60ff1610612b4e57600a600b8381548110612b1757612b16613fe1565b5b906000526020600020906002020160010160029054906101000a900460ff1686612b419190614205565b612b4b9190614140565b90505b8060ff1660018481548110612b6657612b65613fe1565b5b906000526020600020906003020160010160029054906101000a900460ff1660ff1610612bf2578060018481548110612ba257612ba1613fe1565b5b906000526020600020906003020160010160028282829054906101000a900460ff16612bce91906141d1565b92506101000a81548160ff021916908360ff16021790555060019350505050612bfa565b600093505050505b92915050565b612c086132d1565b73ffffffffffffffffffffffffffffffffffffffff16612c26611688565b73ffffffffffffffffffffffffffffffffffffffff1614612c7c576040517f08c379a0000000000000000000000000000000000000000000000000000000008152600401612c7390614984565b60405180910390fd5b565b60008060009054906101000a900473ffffffffffffffffffffffffffffffffffffffff169050816000806101000a81548173ffffffffffffffffffffffffffffffffffffffff021916908373ffffffffffffffffffffffffffffffffffffffff1602179055508173ffffffffffffffffffffffffffffffffffffffff168173ffffffffffffffffffffffffffffffffffffffff167f8be0079c531659141344cd1fd0a4f28419497f9722a3daafe3b4186f6b6457e060405160405180910390a35050565b606060006001612d51846132d9565b01905060008167ffffffffffffffff811115612d7057612d6f613d73565b5b6040519080825280601f01601f191660200182016040528015612da25781602001600182028036833780820191505090505b509050600082602001820190505b600115612e05578080600190039150507f3031323334353637383961626364656600000000000000000000000000000000600a86061a8153600a8581612df957612df8614111565b5b04945060008503612db0575b819350505050919050565b600080600354600454612e2391906149a4565b42612e2e9190614907565b600354612e3b9190614274565b9050600060086000815480929190612e5290614336565b919050559050600b60405180606001604052808381526020018461ffff168152602001600560009054906101000a900460ff1660ff1681525090806001815401808255809150506001900390600052602060002090600202016000909190919091506000820151816000015560208201518160010160006101000a81548161ffff021916908361ffff16021790555060408201518160010160026101000a81548160ff021916908360ff1602179055505050601160003373ffffffffffffffffffffffffffffffffffffffff1673ffffffffffffffffffffffffffffffffffffffff1681526020019081526020016000206000815480929190612f5490614336565b919050555033600e600083815260200190815260200160002060006101000a81548173ffffffffffffffffffffffffffffffffffffffff021916908373ffffffffffffffffffffffffffffffffffffffff160217905550809250505090565b600080600654600754612fc691906149a4565b42612fd19190614907565b600654612fde9190614274565b9050600060096000815480929190612ff590614336565b919050559050600c60405180606001604052808381526020018463ffffffff1681526020018463ffffffff1681525090806001815401808255809150506001900390600052602060002090600202016000909190919091506000820151816000015560208201518160010160006101000a81548163ffffffff021916908363ffffffff16021790555060408201518160010160046101000a81548163ffffffff021916908363ffffffff1602179055505050601260003373ffffffffffffffffffffffffffffffffffffffff1673ffffffffffffffffffffffffffffffffffffffff16815260200190815260200160002060008154809291906130f790614336565b919050555033600f600083815260200190815260200160002060006101000a81548173ffffffffffffffffffffffffffffffffffffffff021916908373ffffffffffffffffffffffffffffffffffffffff160217905550809250505090565b60004290506000610e106001848154811061317457613173613fe1565b5b9060005260206000209060030201600201548361319191906149a4565b61319b91906149d8565b90506000600184815481106131b3576131b2613fe1565b5b906000526020600020906003020160010160019054906101000a900460ff1660ff16826131e0919061407d565b600185815481106131f4576131f3613fe1565b5b906000526020600020906003020160010160029054906101000a900460ff1660ff166132209190614274565b90506132646001858154811061323957613238613fe1565b5b906000526020600020906003020160010160009054906101000a900460ff1660ff168260ff1661342c565b6001858154811061327857613277613fe1565b5b906000526020600020906003020160010160026101000a81548160ff021916908360ff16021790555082600185815481106132b6576132b5613fe1565b5b90600052602060002090600302016002018190555050505050565b600033905090565b600080600090507a184f03e93ff9f4daa797ed6e38ed64bf6a1f0100000000000000008310613337577a184f03e93ff9f4daa797ed6e38ed64bf6a1f010000000000000000838161332d5761332c614111565b5b0492506040810190505b6d04ee2d6d415b85acef81000000008310613374576d04ee2d6d415b85acef8100000000838161336a57613369614111565b5b0492506020810190505b662386f26fc1000083106133a357662386f26fc10000838161339957613398614111565b5b0492506010810190505b6305f5e10083106133cc576305f5e10083816133c2576133c1614111565b5b0492506008810190505b61271083106133f15761271083816133e7576133e6614111565b5b0492506004810190505b60648310613414576064838161340a57613409614111565b5b0492506002810190505b600a8310613423576001810190505b80915050919050565b600081831061343b578161343d565b825b905092915050565b60405180610100016040528060608152602001600081526020016000815260200160008152602001600060ff1681526020016000815260200160008152602001600081525090565b8280546134999061452b565b90600052602060002090601f0160209004810192826134bb5760008555613502565b82601f106134d457805160ff1916838001178555613502565b82800160010185558215613502579182015b828111156135015782518255916020019190600101906134e6565b5b50905061350f9190613513565b5090565b5b8082111561352c576000816000905550600101613514565b5090565b6000604051905090565b600080fd5b600080fd5b6000819050919050565b61355781613544565b811461356257600080fd5b50565b6000813590506135748161354e565b92915050565b600060ff82169050919050565b6135908161357a565b811461359b57600080fd5b50565b6000813590506135ad81613587565b92915050565b600080604083850312156135ca576135c961353a565b5b60006135d885828601613565565b92505060206135e98582860161359e565b9150509250929050565b6000602082840312156136095761360861353a565b5b600061361784828501613565565b91505092915050565b61362981613544565b82525050565b60008115159050919050565b6136448161362f565b82525050565b600060c08201905061365f6000830189613620565b61366c6020830188613620565b6136796040830187613620565b6136866060830186613620565b6136936080830185613620565b6136a060a083018461363b565b979650505050505050565b6136b481613544565b82525050565b6060820160008201516136d060008501826136ab565b5060208201516136e360208501826136ab565b5060408201516136f660408501826136ab565b50505050565b600060c0820190506137116000830187613620565b61371e6020830186613620565b61372b6040830185613620565b61373860608301846136ba565b95945050505050565b600063ffffffff82169050919050565b61375a81613741565b82525050565b60006060820190506137756000830186613620565b6137826020830185613751565b61378f6040830184613751565b949350505050565b600073ffffffffffffffffffffffffffffffffffffffff82169050919050565b60006137c282613797565b9050919050565b6137d2816137b7565b82525050565b60006020820190506137ed60008301846137c9565b92915050565b600081519050919050565b600082825260208201905092915050565b6000819050602082019050919050565b613828816137b7565b82525050565b6138378161362f565b82525050565b608082016000820151613853600085018261381f565b506020820151613866602085018261382e565b50604082015161387960408501826136ab565b50606082015161388c60608501826136ab565b50505050565b600061389e838361383d565b60808301905092915050565b6000602082019050919050565b60006138c2826137f3565b6138cc81856137fe565b93506138d78361380f565b8060005b838110156139085781516138ef8882613892565b97506138fa836138aa565b9250506001810190506138db565b5085935050505092915050565b6000602082019050818103600083015261392f81846138b7565b905092915050565b613940816137b7565b811461394b57600080fd5b50565b60008135905061395d81613937565b92915050565b6000602082840312156139795761397861353a565b5b60006139878482850161394e565b91505092915050565b60006020820190506139a56000830184613620565b92915050565b600081519050919050565b600082825260208201905092915050565b6000819050602082019050919050565b60006139e383836136ab565b60208301905092915050565b6000602082019050919050565b6000613a07826139ab565b613a1181856139b6565b9350613a1c836139c7565b8060005b83811015613a4d578151613a3488826139d7565b9750613a3f836139ef565b925050600181019050613a20565b5085935050505092915050565b60006020820190508181036000830152613a7481846139fc565b905092915050565b613a858161357a565b82525050565b600060a082019050613aa06000830188613620565b613aad6020830187613a7c565b613aba6040830186613a7c565b613ac76060830185613a7c565b613ad46080830184613620565b9695505050505050565b600061ffff82169050919050565b613af581613ade565b82525050565b6000606082019050613b106000830186613620565b613b1d6020830185613aec565b613b2a6040830184613a7c565b949350505050565b600081519050919050565b600082825260208201905092915050565b6000819050602082019050919050565b600081519050919050565b600082825260208201905092915050565b60005b83811015613b98578082015181840152602081019050613b7d565b83811115613ba7576000848401525b50505050565b6000601f19601f8301169050919050565b6000613bc982613b5e565b613bd38185613b69565b9350613be3818560208601613b7a565b613bec81613bad565b840191505092915050565b613c008161357a565b82525050565b6000610100830160008301518482036000860152613c248282613bbe565b9150506020830151613c3960208601826136ab565b506040830151613c4c60408601826136ab565b506060830151613c5f60608601826136ab565b506080830151613c726080860182613bf7565b5060a0830151613c8560a08601826136ab565b5060c0830151613c9860c08601826136ab565b5060e0830151613cab60e08601826136ab565b508091505092915050565b6000613cc28383613c06565b905092915050565b6000602082019050919050565b6000613ce282613b32565b613cec8185613b3d565b935083602082028501613cfe85613b4e565b8060005b85811015613d3a5784840389528151613d1b8582613cb6565b9450613d2683613cca565b925060208a01995050600181019050613d02565b50829750879550505050505092915050565b60006020820190508181036000830152613d668184613cd7565b905092915050565b600080fd5b7f4e487b7100000000000000000000000000000000000000000000000000000000600052604160045260246000fd5b613dab82613bad565b810181811067ffffffffffffffff82111715613dca57613dc9613d73565b5b80604052505050565b6000613ddd613530565b9050613de98282613da2565b919050565b600067ffffffffffffffff821115613e0957613e08613d73565b5b602082029050602081019050919050565b600080fd5b6000613e32613e2d84613dee565b613dd3565b90508083825260208201905060208402830185811115613e5557613e54613e1a565b5b835b81811015613e7e5780613e6a8882613565565b845260208401935050602081019050613e57565b5050509392505050565b600082601f830112613e9d57613e9c613d6e565b5b8135613ead848260208601613e1f565b91505092915050565b60008060408385031215613ecd57613ecc61353a565b5b6000613edb85828601613565565b925050602083013567ffffffffffffffff811115613efc57613efb61353f565b5b613f0885828601613e88565b9150509250929050565b600082825260208201905092915050565b6000613f2e82613b5e565b613f388185613f12565b9350613f48818560208601613b7a565b613f5181613bad565b840191505092915050565b6000610100820190508181036000830152613f77818b613f23565b9050613f86602083018a613620565b613f936040830189613620565b613fa06060830188613620565b613fad6080830187613a7c565b613fba60a0830186613620565b613fc760c0830185613620565b613fd460e0830184613620565b9998505050505050505050565b7f4e487b7100000000000000000000000000000000000000000000000000000000600052603260045260246000fd5b7f4e487b7100000000000000000000000000000000000000000000000000000000600052601160045260246000fd5b600061404a82613741565b915061405583613741565b92508163ffffffff048311821515161561407257614071614010565b5b828202905092915050565b600061408882613544565b915061409383613544565b9250817fffffffffffffffffffffffffffffffffffffffffffffffffffffffffffffffff04831182151516156140cc576140cb614010565b5b828202905092915050565b60006140e282613741565b91506140ed83613741565b92508263ffffffff0382111561410657614105614010565b5b828201905092915050565b7f4e487b7100000000000000000000000000000000000000000000000000000000600052601260045260246000fd5b600061414b8261357a565b91506141568361357a565b92508261416657614165614111565b5b828204905092915050565b600061417c8261357a565b91506141878361357a565b92508260ff0382111561419d5761419c614010565b5b828201905092915050565b60006141b38261357a565b915060ff82036141c6576141c5614010565b5b600182019050919050565b60006141dc8261357a565b91506141e78361357a565b9250828210156141fa576141f9614010565b5b828203905092915050565b60006142108261357a565b915061421b8361357a565b92508160ff048311821515161561423557614234614010565b5b828202905092915050565b600061424b82613741565b915061425683613741565b92508282101561426957614268614010565b5b828203905092915050565b600061427f82613544565b915061428a83613544565b9250827fffffffffffffffffffffffffffffffffffffffffffffffffffffffffffffffff038211156142bf576142be614010565b5b828201905092915050565b7f726f6f6d206e6f7420636c6f7365640000000000000000000000000000000000600082015250565b6000614300600f83613f12565b915061430b826142ca565b602082019050919050565b6000602082019050818103600083015261432f816142f3565b9050919050565b600061434182613544565b91507fffffffffffffffffffffffffffffffffffffffffffffffffffffffffffffffff820361437357614372614010565b5b600182019050919050565b60008160011c9050919050565b6000808291508390505b60018511156143d5578086048111156143b1576143b0614010565b5b60018516156143c05780820291505b80810290506143ce8561437e565b9450614395565b94509492505050565b6000826143ee57600190506144aa565b816143fc57600090506144aa565b8160018114614412576002811461441c5761444b565b60019150506144aa565b60ff84111561442e5761442d614010565b5b8360020a91508482111561444557614444614010565b5b506144aa565b5060208310610133831016604e8410600b84101617156144805782820a90508381111561447b5761447a614010565b5b6144aa565b61448d848484600161438b565b925090508184048111156144a4576144a3614010565b5b81810290505b9392505050565b60006144bc82613544565b91506144c78361357a565b92506144f47fffffffffffffffffffffffffffffffffffffffffffffffffffffffffffffffff84846143de565b905092915050565b7f4e487b7100000000000000000000000000000000000000000000000000000000600052602260045260246000fd5b6000600282049050600182168061454357607f821691505b602082108103614556576145556144fc565b5b50919050565b7f6e6f7420796f757220726f6f6d00000000000000000000000000000000000000600082015250565b6000614592600d83613f12565b915061459d8261455c565b602082019050919050565b600060208201905081810360008301526145c181614585565b9050919050565b6145d181613544565b82525050565b600082825260208201905092915050565b6145f181613544565b82525050565b600061460383836145e8565b60208301905092915050565b600061461a826139ab565b61462481856145d7565b935061462f836139c7565b8060005b8381101561466057815161464788826145f7565b9750614652836139ef565b925050600181019050614633565b5085935050505092915050565b600060408201905061468260008301856145c8565b8181036020830152614694818461460f565b90509392505050565b6146a68161362f565b81146146b157600080fd5b50565b6000815190506146c38161469d565b92915050565b6000602082840312156146df576146de61353a565b5b60006146ed848285016146b4565b91505092915050565b600081905092915050565b600061470c82613b5e565b61471681856146f6565b9350614726818560208601613b7a565b80840191505092915050565b600061473e8285614701565b915061474a8284614701565b91508190509392505050565b60006147628284614701565b915081905092915050565b7f4f776e61626c653a206e6577206f776e657220697320746865207a65726f206160008201527f6464726573730000000000000000000000000000000000000000000000000000602082015250565b60006147c9602683613f12565b91506147d48261476d565b604082019050919050565b600060208201905081810360008301526147f8816147bc565b9050919050565b600061480a82613ade565b915061481583613ade565b92508161ffff04831182151516156148305761482f614010565b5b828202905092915050565b600061484682613ade565b915061485183613ade565b92508261ffff0382111561486857614867614010565b5b828201905092915050565b600060408201905061488860008301856145c8565b61489560208301846145c8565b9392505050565b6000815190506148ab8161354e565b92915050565b6000602082840312156148c7576148c661353a565b5b60006148d58482850161489c565b91505092915050565b60006040820190506148f36000830185613620565b6149006020830184613620565b9392505050565b600061491282613544565b915061491d83613544565b92508261492d5761492c614111565b5b828206905092915050565b7f4f776e61626c653a2063616c6c6572206973206e6f7420746865206f776e6572600082015250565b600061496e602083613f12565b915061497982614938565b602082019050919050565b6000602082019050818103600083015261499d81614961565b9050919050565b60006149af82613544565b91506149ba83613544565b9250828210156149cd576149cc614010565b5b828203905092915050565b60006149e382613544565b91506149ee83613544565b9250826149fe576149fd614111565b5b82820490509291505056fea26469706673582212200f092a2e04dc7c7ab4c8af3646323a6cd54b2a0dfed31dfb94b4a9793e1e82b064736f6c634300080d0033",
  "immutableReferences": {},
  "source": "// SPDX-License-Identifier: MIT\npragma solidity ^0.8.13;\nimport \"./RaceHandler.sol\";\n\ncontract CarRacing is RaceHandler{\n\n    function _isEnoughFuel(uint _carId, uint8 duration) private returns(bool){\n        uint stationId = getFuelStationByOwner(carToOwner[_carId]);\n        _refreshFuel(stationId);\n        uint engineId = cars[_carId].engineId;\n        uint8 liters= 1;\n        if (engines[engineId].consumtion * duration >= 10)\n            liters = duration * engines[engineId].consumtion / 10;\n\n        if (stations[stationId].currentFullness >= liters) {\n            stations[stationId].currentFullness -= liters;\n            return true;\n        }\n        else\n            return false;\n    }\n\n    function _refreshFuel(uint _fuelStationId) private {\n        uint curTime = block.timestamp;\n        uint wholeHours = (curTime - stations[_fuelStationId].lastUpdate) / 3600;\n        uint8 newFullness = uint8(stations[_fuelStationId].currentFullness + wholeHours * stations[_fuelStationId].productionPerHour);\n        stations[_fuelStationId].currentFullness = uint8(Math.min(stations[_fuelStationId].capacity, newFullness));\n        stations[_fuelStationId].lastUpdate = curTime;\n    }\n\n\n    function startRace(uint _carId) external onlyOwnerOfCar(_carId) {\n        uint8 durToNextCrossroad = 2 * (10 - cars[_carId].carLevel / 10);\n\n        require(_isEnoughFuel(_carId, durToNextCrossroad) && chassis[cars[_carId].chassisId].resource >= durToNextCrossroad);\n        // TODO\n\n        chassis[cars[_carId].chassisId].resource -= durToNextCrossroad;\n        cars[_carId].mileage += durToNextCrossroad;\n    }\n\n}",
  "sourcePath": "/Users/vvan/Programming/JavaScript/DriveSafely/contract/contracts/CarRacing.sol",
  "compiler": {
    "name": "solc",
    "version": "0.8.13+commit.abaa5c0e.Emscripten.clang"
  },
  "schemaVersion": "3.4.11",
  "updatedAt": "2023-01-08T10:01:32.274Z",
  "networkType": "ethereum",
  "devdoc": {
    "kind": "dev",
    "methods": {
      "owner()": {
        "details": "Returns the address of the current owner."
      },
      "renounceOwnership()": {
        "details": "Leaves the contract without owner. It will not be possible to call `onlyOwner` functions anymore. Can only be called by the current owner. NOTE: Renouncing ownership will leave the contract without an owner, thereby removing any functionality that is only available to the owner."
      },
      "transferOwnership(address)": {
        "details": "Transfers ownership of the contract to a new account (`newOwner`). Can only be called by the current owner."
      }
    },
    "version": 1
  },
  "userdoc": {
    "kind": "user",
    "methods": {},
    "version": 1
  }
}