{
  "contractName": "CarRacing",
  "abi": [
    {
      "anonymous": false,
      "inputs": [
        {
          "indexed": true,
          "internalType": "address",
          "name": "previousOwner",
          "type": "address"
        },
        {
          "indexed": true,
          "internalType": "address",
          "name": "newOwner",
          "type": "address"
        }
      ],
      "name": "OwnershipTransferred",
      "type": "event"
    },
    {
      "anonymous": false,
      "inputs": [
        {
          "indexed": false,
          "internalType": "uint256",
          "name": "roomId",
          "type": "uint256"
        }
      ],
      "name": "RoomClosed",
      "type": "event"
    },
    {
      "anonymous": false,
      "inputs": [
        {
          "indexed": false,
          "internalType": "uint256",
          "name": "roomId",
          "type": "uint256"
        },
        {
          "indexed": false,
          "internalType": "uint256",
          "name": "roomDNA",
          "type": "uint256"
        }
      ],
      "name": "RoomFull",
      "type": "event"
    },
    {
      "inputs": [
        {
          "internalType": "uint256",
          "name": "",
          "type": "uint256"
        }
      ],
      "name": "carToOwner",
      "outputs": [
        {
          "internalType": "address",
          "name": "",
          "type": "address"
        }
      ],
      "stateMutability": "view",
      "type": "function"
    },
    {
      "inputs": [
        {
          "internalType": "uint256",
          "name": "",
          "type": "uint256"
        }
      ],
      "name": "carToPrice",
      "outputs": [
        {
          "internalType": "uint256",
          "name": "",
          "type": "uint256"
        }
      ],
      "stateMutability": "view",
      "type": "function"
    },
    {
      "inputs": [
        {
          "internalType": "uint256",
          "name": "",
          "type": "uint256"
        }
      ],
      "name": "cars",
      "outputs": [
        {
          "internalType": "string",
          "name": "model",
          "type": "string"
        },
        {
          "internalType": "uint256",
          "name": "vin",
          "type": "uint256"
        },
        {
          "internalType": "uint256",
          "name": "engineId",
          "type": "uint256"
        },
        {
          "internalType": "uint256",
          "name": "chassisId",
          "type": "uint256"
        },
        {
          "internalType": "uint8",
          "name": "carLevel",
          "type": "uint8"
        },
        {
          "internalType": "uint256",
          "name": "mileage",
          "type": "uint256"
        },
        {
          "internalType": "uint256",
          "name": "winCountOnCurrentLevel",
          "type": "uint256"
        },
        {
          "internalType": "uint256",
          "name": "lossCountOnCurrentLevel",
          "type": "uint256"
        },
        {
          "internalType": "uint256",
          "name": "id",
          "type": "uint256"
        }
      ],
      "stateMutability": "view",
      "type": "function"
    },
    {
      "inputs": [],
      "name": "carsForSaleCount",
      "outputs": [
        {
          "internalType": "uint256",
          "name": "",
          "type": "uint256"
        }
      ],
      "stateMutability": "view",
      "type": "function"
    },
    {
      "inputs": [
        {
          "internalType": "uint256",
          "name": "",
          "type": "uint256"
        }
      ],
      "name": "chassis",
      "outputs": [
        {
          "internalType": "uint256",
          "name": "id",
          "type": "uint256"
        },
        {
          "internalType": "uint32",
          "name": "durability",
          "type": "uint32"
        },
        {
          "internalType": "uint32",
          "name": "resource",
          "type": "uint32"
        }
      ],
      "stateMutability": "view",
      "type": "function"
    },
    {
      "inputs": [],
      "name": "chassisForSaleCount",
      "outputs": [
        {
          "internalType": "uint256",
          "name": "",
          "type": "uint256"
        }
      ],
      "stateMutability": "view",
      "type": "function"
    },
    {
      "inputs": [
        {
          "internalType": "uint256",
          "name": "",
          "type": "uint256"
        }
      ],
      "name": "chassisToOwner",
      "outputs": [
        {
          "internalType": "address",
          "name": "",
          "type": "address"
        }
      ],
      "stateMutability": "view",
      "type": "function"
    },
    {
      "inputs": [
        {
          "internalType": "uint256",
          "name": "",
          "type": "uint256"
        }
      ],
      "name": "chassisToPrice",
      "outputs": [
        {
          "internalType": "uint256",
          "name": "",
          "type": "uint256"
        }
      ],
      "stateMutability": "view",
      "type": "function"
    },
    {
      "inputs": [
        {
          "internalType": "uint256",
          "name": "roomId",
          "type": "uint256"
        },
        {
          "internalType": "uint256[]",
          "name": "answer",
          "type": "uint256[]"
        }
      ],
      "name": "commitAnswer",
      "outputs": [],
      "stateMutability": "nonpayable",
      "type": "function"
    },
    {
      "inputs": [
        {
          "internalType": "string",
          "name": "model",
          "type": "string"
        }
      ],
      "name": "createCar",
      "outputs": [],
      "stateMutability": "nonpayable",
      "type": "function"
    },
    {
      "inputs": [
        {
          "internalType": "string",
          "name": "_model",
          "type": "string"
        },
        {
          "internalType": "uint16",
          "name": "_horsePowers",
          "type": "uint16"
        },
        {
          "internalType": "uint8",
          "name": "_consumtion",
          "type": "uint8"
        },
        {
          "internalType": "uint32",
          "name": "_durability",
          "type": "uint32"
        },
        {
          "internalType": "uint8",
          "name": "_carLevel",
          "type": "uint8"
        },
        {
          "internalType": "uint256",
          "name": "_carPrice",
          "type": "uint256"
        }
      ],
      "name": "createCustomCar",
      "outputs": [],
      "stateMutability": "nonpayable",
      "type": "function"
    },
    {
      "inputs": [
        {
          "internalType": "uint32",
          "name": "_durability",
          "type": "uint32"
        },
        {
          "internalType": "uint256",
          "name": "_chassisPrice",
          "type": "uint256"
        }
      ],
      "name": "createCustomChassis",
      "outputs": [
        {
          "internalType": "uint256",
          "name": "",
          "type": "uint256"
        }
      ],
      "stateMutability": "nonpayable",
      "type": "function"
    },
    {
      "inputs": [
        {
          "internalType": "uint16",
          "name": "_horsePowers",
          "type": "uint16"
        },
        {
          "internalType": "uint8",
          "name": "_consumtion",
          "type": "uint8"
        },
        {
          "internalType": "uint256",
          "name": "_enginePrice",
          "type": "uint256"
        }
      ],
      "name": "createCustomEngine",
      "outputs": [
        {
          "internalType": "uint256",
          "name": "",
          "type": "uint256"
        }
      ],
      "stateMutability": "nonpayable",
      "type": "function"
    },
    {
      "inputs": [],
      "name": "createFuelStation",
      "outputs": [],
      "stateMutability": "nonpayable",
      "type": "function"
    },
    {
      "inputs": [
        {
          "internalType": "uint256",
          "name": "carId",
          "type": "uint256"
        },
        {
          "internalType": "uint256",
          "name": "chassisId",
          "type": "uint256"
        }
      ],
      "name": "detachChassis",
      "outputs": [],
      "stateMutability": "nonpayable",
      "type": "function"
    },
    {
      "inputs": [
        {
          "internalType": "uint256",
          "name": "carId",
          "type": "uint256"
        },
        {
          "internalType": "uint256",
          "name": "engineId",
          "type": "uint256"
        }
      ],
      "name": "detachEngine",
      "outputs": [],
      "stateMutability": "nonpayable",
      "type": "function"
    },
    {
      "inputs": [
        {
          "internalType": "uint256",
          "name": "",
          "type": "uint256"
        }
      ],
      "name": "engineToOwner",
      "outputs": [
        {
          "internalType": "address",
          "name": "",
          "type": "address"
        }
      ],
      "stateMutability": "view",
      "type": "function"
    },
    {
      "inputs": [
        {
          "internalType": "uint256",
          "name": "",
          "type": "uint256"
        }
      ],
      "name": "engineToPrice",
      "outputs": [
        {
          "internalType": "uint256",
          "name": "",
          "type": "uint256"
        }
      ],
      "stateMutability": "view",
      "type": "function"
    },
    {
      "inputs": [
        {
          "internalType": "uint256",
          "name": "",
          "type": "uint256"
        }
      ],
      "name": "engines",
      "outputs": [
        {
          "internalType": "uint256",
          "name": "id",
          "type": "uint256"
        },
        {
          "internalType": "uint16",
          "name": "horsePowers",
          "type": "uint16"
        },
        {
          "internalType": "uint8",
          "name": "consumtion",
          "type": "uint8"
        }
      ],
      "stateMutability": "view",
      "type": "function"
    },
    {
      "inputs": [],
      "name": "enginesForSaleCount",
      "outputs": [
        {
          "internalType": "uint256",
          "name": "",
          "type": "uint256"
        }
      ],
      "stateMutability": "view",
      "type": "function"
    },
    {
      "inputs": [
        {
          "internalType": "uint256",
          "name": "carId",
          "type": "uint256"
        }
      ],
      "name": "findRoom",
      "outputs": [],
      "stateMutability": "nonpayable",
      "type": "function"
    },
    {
      "inputs": [
        {
          "internalType": "uint256",
          "name": "",
          "type": "uint256"
        }
      ],
      "name": "fuelStationToOwner",
      "outputs": [
        {
          "internalType": "address",
          "name": "",
          "type": "address"
        }
      ],
      "stateMutability": "view",
      "type": "function"
    },
    {
      "inputs": [
        {
          "internalType": "address",
          "name": "_owner",
          "type": "address"
        }
      ],
      "name": "getCarsByOwner",
      "outputs": [
        {
          "components": [
            {
              "internalType": "string",
              "name": "model",
              "type": "string"
            },
            {
              "internalType": "uint256",
              "name": "vin",
              "type": "uint256"
            },
            {
              "internalType": "uint256",
              "name": "engineId",
              "type": "uint256"
            },
            {
              "internalType": "uint256",
              "name": "chassisId",
              "type": "uint256"
            },
            {
              "internalType": "uint8",
              "name": "carLevel",
              "type": "uint8"
            },
            {
              "internalType": "uint256",
              "name": "mileage",
              "type": "uint256"
            },
            {
              "internalType": "uint256",
              "name": "winCountOnCurrentLevel",
              "type": "uint256"
            },
            {
              "internalType": "uint256",
              "name": "lossCountOnCurrentLevel",
              "type": "uint256"
            },
            {
              "internalType": "uint256",
              "name": "id",
              "type": "uint256"
            }
          ],
          "internalType": "struct CarFactory.Car[]",
          "name": "",
          "type": "tuple[]"
        }
      ],
      "stateMutability": "view",
      "type": "function"
    },
    {
      "inputs": [
        {
          "internalType": "address",
          "name": "_owner",
          "type": "address"
        }
      ],
      "name": "getChassisByOwner",
      "outputs": [
        {
          "components": [
            {
              "internalType": "uint256",
              "name": "id",
              "type": "uint256"
            },
            {
              "internalType": "uint32",
              "name": "durability",
              "type": "uint32"
            },
            {
              "internalType": "uint32",
              "name": "resource",
              "type": "uint32"
            }
          ],
          "internalType": "struct CarFactory.Chassis[]",
          "name": "",
          "type": "tuple[]"
        }
      ],
      "stateMutability": "view",
      "type": "function"
    },
    {
      "inputs": [
        {
          "internalType": "uint256",
          "name": "roomId",
          "type": "uint256"
        }
      ],
      "name": "getClosedRoom",
      "outputs": [
        {
          "components": [
            {
              "internalType": "address",
              "name": "player",
              "type": "address"
            },
            {
              "internalType": "bool",
              "name": "correct",
              "type": "bool"
            },
            {
              "internalType": "uint256",
              "name": "time",
              "type": "uint256"
            },
            {
              "internalType": "uint256",
              "name": "carId",
              "type": "uint256"
            }
          ],
          "internalType": "struct RaceHandler.Answer[]",
          "name": "",
          "type": "tuple[]"
        }
      ],
      "stateMutability": "view",
      "type": "function"
    },
    {
      "inputs": [
        {
          "internalType": "address",
          "name": "_owner",
          "type": "address"
        }
      ],
      "name": "getEnginesByOwner",
      "outputs": [
        {
          "components": [
            {
              "internalType": "uint256",
              "name": "id",
              "type": "uint256"
            },
            {
              "internalType": "uint16",
              "name": "horsePowers",
              "type": "uint16"
            },
            {
              "internalType": "uint8",
              "name": "consumtion",
              "type": "uint8"
            }
          ],
          "internalType": "struct CarFactory.Engine[]",
          "name": "",
          "type": "tuple[]"
        }
      ],
      "stateMutability": "view",
      "type": "function"
    },
    {
      "inputs": [
        {
          "internalType": "address",
          "name": "_owner",
          "type": "address"
        }
      ],
      "name": "getFuelStationByOwner",
      "outputs": [
        {
          "components": [
            {
              "internalType": "uint256",
              "name": "id",
              "type": "uint256"
            },
            {
              "internalType": "uint8",
              "name": "capacity",
              "type": "uint8"
            },
            {
              "internalType": "uint8",
              "name": "productionPerHour",
              "type": "uint8"
            },
            {
              "internalType": "uint8",
              "name": "currentFullness",
              "type": "uint8"
            },
            {
              "internalType": "uint256",
              "name": "lastUpdate",
              "type": "uint256"
            }
          ],
          "internalType": "struct FuelStationFactory.FuelStation",
          "name": "",
          "type": "tuple"
        }
      ],
      "stateMutability": "view",
      "type": "function"
    },
    {
      "inputs": [
        {
          "internalType": "uint256",
          "name": "",
          "type": "uint256"
        }
      ],
      "name": "idToStartedRooms",
      "outputs": [
        {
          "internalType": "uint256",
          "name": "numberPlayers",
          "type": "uint256"
        },
        {
          "internalType": "uint256",
          "name": "world",
          "type": "uint256"
        },
        {
          "internalType": "uint256",
          "name": "roomDNA",
          "type": "uint256"
        },
        {
          "internalType": "uint256",
          "name": "startTime",
          "type": "uint256"
        },
        {
          "internalType": "uint256",
          "name": "curAnswer",
          "type": "uint256"
        },
        {
          "internalType": "bool",
          "name": "closed",
          "type": "bool"
        }
      ],
      "stateMutability": "view",
      "type": "function"
    },
    {
      "inputs": [
        {
          "internalType": "uint256",
          "name": "_carId",
          "type": "uint256"
        }
      ],
      "name": "levelUp",
      "outputs": [],
      "stateMutability": "payable",
      "type": "function"
    },
    {
      "inputs": [
        {
          "internalType": "uint256",
          "name": "",
          "type": "uint256"
        }
      ],
      "name": "openedRooms",
      "outputs": [
        {
          "internalType": "uint256",
          "name": "id",
          "type": "uint256"
        },
        {
          "internalType": "uint256",
          "name": "playersEntered",
          "type": "uint256"
        },
        {
          "internalType": "uint256",
          "name": "world",
          "type": "uint256"
        },
        {
          "components": [
            {
              "internalType": "uint256",
              "name": "playersNeeded",
              "type": "uint256"
            },
            {
              "internalType": "uint256",
              "name": "roadsNum",
              "type": "uint256"
            },
            {
              "internalType": "uint256",
              "name": "crossId",
              "type": "uint256"
            }
          ],
          "internalType": "struct RaceHandler.Cross",
          "name": "cross",
          "type": "tuple"
        }
      ],
      "stateMutability": "view",
      "type": "function"
    },
    {
      "inputs": [],
      "name": "owner",
      "outputs": [
        {
          "internalType": "address",
          "name": "",
          "type": "address"
        }
      ],
      "stateMutability": "view",
      "type": "function"
    },
    {
      "inputs": [
        {
          "internalType": "address",
          "name": "",
          "type": "address"
        }
      ],
      "name": "ownerCarCount",
      "outputs": [
        {
          "internalType": "uint256",
          "name": "",
          "type": "uint256"
        }
      ],
      "stateMutability": "view",
      "type": "function"
    },
    {
      "inputs": [
        {
          "internalType": "address",
          "name": "",
          "type": "address"
        }
      ],
      "name": "ownerChassisCount",
      "outputs": [
        {
          "internalType": "uint256",
          "name": "",
          "type": "uint256"
        }
      ],
      "stateMutability": "view",
      "type": "function"
    },
    {
      "inputs": [
        {
          "internalType": "address",
          "name": "",
          "type": "address"
        }
      ],
      "name": "ownerEngineCount",
      "outputs": [
        {
          "internalType": "uint256",
          "name": "",
          "type": "uint256"
        }
      ],
      "stateMutability": "view",
      "type": "function"
    },
    {
      "inputs": [],
      "name": "renounceOwnership",
      "outputs": [],
      "stateMutability": "nonpayable",
      "type": "function"
    },
    {
      "inputs": [
        {
          "internalType": "uint256",
          "name": "",
          "type": "uint256"
        }
      ],
      "name": "stations",
      "outputs": [
        {
          "internalType": "uint256",
          "name": "id",
          "type": "uint256"
        },
        {
          "internalType": "uint8",
          "name": "capacity",
          "type": "uint8"
        },
        {
          "internalType": "uint8",
          "name": "productionPerHour",
          "type": "uint8"
        },
        {
          "internalType": "uint8",
          "name": "currentFullness",
          "type": "uint8"
        },
        {
          "internalType": "uint256",
          "name": "lastUpdate",
          "type": "uint256"
        }
      ],
      "stateMutability": "view",
      "type": "function"
    },
    {
      "inputs": [
        {
          "internalType": "uint256",
          "name": "carId",
          "type": "uint256"
        },
        {
          "internalType": "uint256",
          "name": "chassisId",
          "type": "uint256"
        }
      ],
      "name": "switchChassis",
      "outputs": [],
      "stateMutability": "nonpayable",
      "type": "function"
    },
    {
      "inputs": [
        {
          "internalType": "uint256",
          "name": "carId",
          "type": "uint256"
        },
        {
          "internalType": "uint256",
          "name": "engineId",
          "type": "uint256"
        }
      ],
      "name": "switchEngine",
      "outputs": [],
      "stateMutability": "nonpayable",
      "type": "function"
    },
    {
      "inputs": [
        {
          "internalType": "address",
          "name": "newOwner",
          "type": "address"
        }
      ],
      "name": "transferOwnership",
      "outputs": [],
      "stateMutability": "nonpayable",
      "type": "function"
    },
    {
      "inputs": [
        {
          "internalType": "uint256",
          "name": "_fuelStatonId",
          "type": "uint256"
        },
        {
          "internalType": "uint8",
          "name": "_counts",
          "type": "uint8"
        }
      ],
      "name": "upgradeCapacity",
      "outputs": [],
      "stateMutability": "payable",
      "type": "function"
    },
    {
      "inputs": [
        {
          "internalType": "uint256",
          "name": "_engineId",
          "type": "uint256"
        },
        {
          "internalType": "uint8",
          "name": "_counts",
          "type": "uint8"
        }
      ],
      "name": "upgradeConsumtion",
      "outputs": [],
      "stateMutability": "payable",
      "type": "function"
    },
    {
      "inputs": [
        {
          "internalType": "uint256",
          "name": "_chassisId",
          "type": "uint256"
        },
        {
          "internalType": "uint8",
          "name": "_counts",
          "type": "uint8"
        }
      ],
      "name": "upgradeDurability",
      "outputs": [],
      "stateMutability": "payable",
      "type": "function"
    },
    {
      "inputs": [
        {
          "internalType": "uint256",
          "name": "_engineId",
          "type": "uint256"
        },
        {
          "internalType": "uint8",
          "name": "_counts",
          "type": "uint8"
        }
      ],
      "name": "upgradeHorsePowers",
      "outputs": [],
      "stateMutability": "payable",
      "type": "function"
    },
    {
      "inputs": [
        {
          "internalType": "uint256",
          "name": "_fuelStatonId",
          "type": "uint256"
        },
        {
          "internalType": "uint8",
          "name": "_counts",
          "type": "uint8"
        }
      ],
      "name": "upgradeProductionPerHour",
      "outputs": [],
      "stateMutability": "payable",
      "type": "function"
    },
    {
      "inputs": [
        {
          "internalType": "uint256",
          "name": "_carId",
          "type": "uint256"
        }
      ],
      "name": "startRace",
      "outputs": [],
      "stateMutability": "nonpayable",
      "type": "function"
    }
  ],
  "bytecode": "0x6000805461ffff60a01b191661014f60a21b17815560088190556009819055600a9081556001600b819055600c556509184e72a000601981905565b5e620f48000601a55650da475abf000601b556611c37937e08000601c556305f5e100601d5566038d7ea4c68000601e556101c060405260809081526512309ce5400060a05265246139ca800060c0526548c27395000060e052659184e72a00006101005266012309ce54000061012052660246139ca800006101405266048c2739500000610160526609184e72a00000610180526612309ce54000006101a052620000ea916020919062000327565b50348015620000f857600080fd5b506200010433620002d7565b60506003908155605b60049081556005805460ff1916600a179055620186a06006556201d4c1600755600e80546001908101909155600f805482019055604080516060808201835284825260208281018681526000848601818152601f8054808a0182558184529651968b027fa03837a25210ee280c2113ff4b77ca23440b19d4866cca721c801278fd08d8078181019890985593517fa03837a25210ee280c2113ff4b77ca23440b19d4866cca721c801278fd08d8088086019190915591517fa03837a25210ee280c2113ff4b77ca23440b19d4866cca721c801278fd08d80994850155875180870189528b81528086018b8152818a018581528354808d0185558487529251928e02808b019390935590518285015551908501558751808701895260028082528187019b8c52818a018581528354808d0185558487529251928e02808b01939093559b51828501559a5190850155875180870189528b81528086018c8152818a018b81528354808d0185558487529251928e02808b019390935590518285015551908501558751958601885298855292840189815295840187815288548089018a55989091529251969097029283019590955591519381019390935551919092015560235562000399565b600080546001600160a01b038381166001600160a01b0319831681178455604051919092169283917f8be0079c531659141344cd1fd0a4f28419497f9722a3daafe3b4186f6b6457e09190a35050565b82805482825590600052602060002090810192821562000370579160200282015b8281111562000370578251829066ffffffffffffff1690559160200191906001019062000348565b506200037e92915062000382565b5090565b5b808211156200037e576000815560010162000383565b6143ca80620003a96000396000f3fe6080604052600436106102725760003560e01c8063859092671161014f578063c75bb4f4116100c1578063f2fde38b1161007a578063f2fde38b14610a4f578063f7746e3614610a6f578063f85993b914610aa4578063faf4bb9814610ad1578063fb2d954f14610ae4578063fb33250f14610b0457600080fd5b8063c75bb4f414610982578063c85b7fed146109af578063d1c54eea146109cf578063d7086fab146109ef578063ea12693314610a0f578063ede6fbf514610a2f57600080fd5b8063982b691c11610113578063982b691c14610891578063aa11b681146108a7578063b3b29afd146108d4578063b72c0eea14610901578063bfcc971614610942578063c34cccc41461096257600080fd5b806385909267146107d057806387766019146107e35780638da5cb5b14610810578063906f5f341461082e57806392f859db1461084157600080fd5b80633521c426116101e85780636b606d9b116101ac5780636b606d9b146107015780636f206fc114610721578063715018a61461074e5780637713d521146107635780637c62360f146107905780637fb2aa4d146107a357600080fd5b80633521c426146105c757806344901490146105f45780634e31f9101461062a578063594193d7146106955780635dcc4cc6146106cb57600080fd5b80630ce90ec21161023a5780630ce90ec2146103ba5780631702bf42146103cd5780631c5dde0e146103e3578063224370f01461042557806324d822bf1461055957806333ca504b1461057957600080fd5b806303f2e05b146102775780630418394e1461028c578063081315ff146103135780630a0176fc146103695780630c0cd532146103a4575b600080fd5b61028a610285366004613965565b610b24565b005b34801561029857600080fd5b506102df6102a7366004613991565b602560205260009081526040902080546001820154600283015460038401546005850154600690950154939492939192909160ff1686565b6040805196875260208701959095529385019290925260608401526080830152151560a082015260c0015b60405180910390f35b34801561031f57600080fd5b5061033361032e366004613991565b610c5a565b604080519485526020808601949094528481019290925280516060850152918201516080840152015160a082015260c00161030a565b34801561037557600080fd5b50610396610384366004613991565b60186020526000908152604090205481565b60405190815260200161030a565b3480156103b057600080fd5b50610396600a5481565b61028a6103c8366004613991565b610cb8565b3480156103d957600080fd5b5061039660085481565b3480156103ef57600080fd5b506104036103fe366004613991565b610e29565b6040805193845263ffffffff928316602085015291169082015260600161030a565b34801561043157600080fd5b5061028a600180546040805160a0810182528281526000805460ff600160a01b820481166020808601828152600160a81b90940483168688019081526060870192835263ffffffff421660808801908152898b018b559986529551600389027fb10e2d527612073b26eecdfd717e6a320cf44b4afac2b0732d9fcbe2b7fa0cf681019190915593517fb10e2d527612073b26eecdfd717e6a320cf44b4afac2b0732d9fcbe2b7fa0cf785018054975193518516620100000262ff0000199486166101000261ffff19909916929095169190911796909617919091169190911790935594517fb10e2d527612073b26eecdfd717e6a320cf44b4afac2b0732d9fcbe2b7fa0cf8909501949094559183526002909152902080546001600160a01b03191633179055565b34801561056557600080fd5b5061028a610574366004613991565b610e69565b34801561058557600080fd5b506105af610594366004613991565b6010602052600090815260409020546001600160a01b031681565b6040516001600160a01b03909116815260200161030a565b3480156105d357600080fd5b506105e76105e2366004613991565b61119a565b60405161030a91906139aa565b34801561060057600080fd5b506105af61060f366004613991565b6012602052600090815260409020546001600160a01b031681565b34801561063657600080fd5b5061064a610645366004613a19565b61128c565b60405161030a9190600060a0820190508251825260ff602084015116602083015260ff604084015116604083015260ff60608401511660608301526080830151608083015292915050565b3480156106a157600080fd5b506105af6106b0366004613991565b6002602052600090815260409020546001600160a01b031681565b3480156106d757600080fd5b506105af6106e6366004613991565b6011602052600090815260409020546001600160a01b031681565b34801561070d57600080fd5b5061028a61071c366004613a42565b611373565b34801561072d57600080fd5b5061074161073c366004613a19565b611473565b60405161030a9190613a64565b34801561075a57600080fd5b5061028a6115c7565b34801561076f57600080fd5b5061078361077e366004613a19565b6115db565b60405161030a9190613aba565b61028a61079e366004613965565b611723565b3480156107af57600080fd5b506103966107be366004613a19565b60146020526000908152604090205481565b61028a6107de366004613965565b61183e565b3480156107ef57600080fd5b506103966107fe366004613a19565b60156020526000908152604090205481565b34801561081c57600080fd5b506000546001600160a01b03166105af565b61028a61083c366004613965565b611932565b34801561084d57600080fd5b5061086161085c366004613991565b611a1b565b6040805195865260ff9485166020870152928416928501929092529091166060830152608082015260a00161030a565b34801561089d57600080fd5b5061039660095481565b3480156108b357600080fd5b506103966108c2366004613991565b60166020526000908152604090205481565b3480156108e057600080fd5b506103966108ef366004613a19565b60136020526000908152604090205481565b34801561090d57600080fd5b5061092161091c366004613991565b611a67565b6040805193845261ffff909216602084015260ff169082015260600161030a565b34801561094e57600080fd5b5061039661095d366004613b21565b611aa4565b34801561096e57600080fd5b5061028a61097d366004613a42565b611bfc565b34801561098e57600080fd5b506109a261099d366004613a19565b611d4c565b60405161030a9190613ba7565b3480156109bb57600080fd5b5061028a6109ca366004613cb8565b611f8a565b3480156109db57600080fd5b5061028a6109ea366004613a42565b612217565b3480156109fb57600080fd5b50610396610a0a366004613d7c565b6122fd565b348015610a1b57600080fd5b5061028a610a2a366004613a42565b61246c565b348015610a3b57600080fd5b5061028a610a4a366004613e28565b6125d0565b348015610a5b57600080fd5b5061028a610a6a366004613a19565b61279e565b348015610a7b57600080fd5b50610a8f610a8a366004613991565b612817565b60405161030a99989796959493929190613e5d565b348015610ab057600080fd5b50610396610abf366004613991565b60176020526000908152604090205481565b61028a610adf366004613965565b612904565b348015610af057600080fd5b5061028a610aff366004613991565b612a14565b348015610b1057600080fd5b5061028a610b1f366004613eb4565b612f28565b60008281526012602052604090205482906001600160a01b03163314610b655760405162461bcd60e51b8152600401610b5c90613f3c565b60405180910390fd5b601d54600f8481548110610b7b57610b7b613f6a565b6000918252602090912060016002909202010154610ba29063ffffffff1660ff8516613f96565b63ffffffff16610bb29190613fc2565b3414610bbd57600080fd5b600080546040516001600160a01b03909116913480156108fc02929091818181858888f19350505050158015610bf7573d6000803e3d6000fd5b508160ff16600f8481548110610c0f57610c0f613f6a565b6000918252602082206001600290920201018054909190610c3790849063ffffffff16613fe1565b92506101000a81548163ffffffff021916908363ffffffff160217905550505050565b60248181548110610c6a57600080fd5b60009182526020918290206006909102018054600182015460028301546040805160608101825260038601548152600486015496810196909652600590940154938501939093529093509184565b6000600a600d8381548110610ccf57610ccf613f6a565b6000918252602090912060046009909202010154610cf0919060ff1661401f565b610cfb906001614041565b60ff16601e54610d0b9190613fc2565b9050803414610d495760405162461bcd60e51b815260206004820152600a6024820152691ddc9bdb99c818dbdcdd60b21b6044820152606401610b5c565b600080546040516001600160a01b03909116913480156108fc02929091818181858888f19350505050158015610d83573d6000803e3d6000fd5b50600d8281548110610d9757610d97613f6a565b600091825260208220600460099092020101805460ff1691610db883614066565b91906101000a81548160ff021916908360ff160217905550506000600d8381548110610de657610de6613f6a565b9060005260206000209060090201600601819055506000600d8381548110610e1057610e10613f6a565b9060005260206000209060090201600701819055505050565b600f8181548110610e3957600080fd5b60009182526020909120600290910201805460019091015490915063ffffffff8082169164010000000090041683565b60008181526010602052604090205481906001600160a01b03163314610e8e57600080fd5b6000600a600d8481548110610ea557610ea5613f6a565b6000918252602090912060046009909202010154610ec6919060ff1661401f565b610ed190600a614085565b610edc9060026140a8565b3360009081526022602052604090205490915015610f325760405162461bcd60e51b815260206004820152601360248201527263617220616c726561647920696e207261636560681b6044820152606401610b5c565b600d8381548110610f4557610f45613f6a565b906000526020600020906009020160030154600003610f935760405162461bcd60e51b815260206004820152600a6024820152696e6f206368617373697360b01b6044820152606401610b5c565b600d8381548110610fa657610fa6613f6a565b906000526020600020906009020160020154600003610ff35760405162461bcd60e51b81526020600482015260096024820152686e6f20656e67696e6560b81b6044820152606401610b5c565b610ffd8382613122565b61103b5760405162461bcd60e51b815260206004820152600f60248201526e1b9bdd08195b9bdd59da08199d595b608a1b6044820152606401610b5c565b8060ff16600f600d858154811061105457611054613f6a565b9060005260206000209060090201600301548154811061107657611076613f6a565b6000918252602090912060029091020160010154640100000000900463ffffffff1610156110d15760405162461bcd60e51b81526020600482015260086024820152677265736f7572636560c01b6044820152606401610b5c565b8060ff16600f600d85815481106110ea576110ea613f6a565b9060005260206000209060090201600301548154811061110c5761110c613f6a565b906000526020600020906002020160010160048282829054906101000a900463ffffffff1661113b91906140d1565b92506101000a81548163ffffffff021916908363ffffffff1602179055508060ff16600d848154811061117057611170613f6a565b9060005260206000209060090201600501600082825461119091906140f6565b9091555050505050565b60008181526025602052604090206006015460609060ff166111f05760405162461bcd60e51b815260206004820152600f60248201526e1c9bdbdb481b9bdd0818db1bdcd959608a1b6044820152606401610b5c565b600082815260256020908152604080832060040180548251818502810185019093528083529193909284015b82821015611281576000848152602090819020604080516080810182526003860290920180546001600160a01b0381168452600160a01b900460ff1615158385015260018082015492840192909252600201546060830152908352909201910161121c565b505050509050919050565b6040805160a081018252600080825260208201819052918101829052606081018290526080810182905290805b6001548110156112fe576000818152600260205260409020546001600160a01b038086169116036112ec578091506112fe565b806112f68161410e565b9150506112b9565b506001818154811061131257611312613f6a565b60009182526020918290206040805160a081018252600390930290910180548352600181015460ff80821695850195909552610100810485169284019290925262010000909104909216606082015260029091015460808201529392505050565b60008181526012602052604090205481906001600160a01b031633146113ab5760405162461bcd60e51b8152600401610b5c90613f3c565b60008381526010602052604090205483906001600160a01b031633146113d057600080fd5b82600d85815481106113e4576113e4613f6a565b906000526020600020906009020160030154146114435760405162461bcd60e51b815260206004820152601860248201527f6368617373697320617265206e6f7420617474616368656400000000000000006044820152606401610b5c565b6000600d858154811061145857611458613f6a565b90600052602060002090600902016003018190555050505050565b6001600160a01b0381166000908152601560205260408120546060919067ffffffffffffffff8111156114a8576114a8613c71565b6040519080825280602002602001820160405280156114f357816020015b60408051606081018252600080825260208083018290529282015282526000199092019101816114c65790505b5090506000805b600f548110156115be576000818152601260205260409020546001600160a01b038087169116036115ac57600f818154811061153857611538613f6a565b6000918252602091829020604080516060810182526002909302909101805483526001015463ffffffff80821694840194909452640100000000900490921691810191909152835184908490811061159257611592613f6a565b602002602001018190525081806115a89061410e565b9250505b806115b68161410e565b9150506114fa565b50909392505050565b6115cf6132c4565b6115d9600061331e565b565b6001600160a01b0381166000908152601460205260408120546060919067ffffffffffffffff81111561161057611610613c71565b60405190808252806020026020018201604052801561165b57816020015b604080516060810182526000808252602080830182905292820152825260001990920191018161162e5790505b5090506000805b600e548110156115be576000818152601160205260409020546001600160a01b0380871691160361171157600e81815481106116a0576116a0613f6a565b600091825260209182902060408051606081018252600293909302909101805483526001015461ffff8116938301939093526201000090920460ff169181019190915283518490849081106116f7576116f7613f6a565b6020026020010181905250818061170d9061410e565b9250505b8061171b8161410e565b915050611662565b60008281526011602052604090205482906001600160a01b0316331461174857600080fd5b600e838154811061175b5761175b613f6a565b60009182526020909120600290910201600101546117839062010000900460ff16600a614085565b61178e906002614203565b601c5461179b9190613fc2565b34146117a657600080fd5b600080546040516001600160a01b03909116913480156108fc02929091818181858888f193505050501580156117e0573d6000803e3d6000fd5b5081600e84815481106117f5576117f5613f6a565b906000526020600020906002020160010160028282829054906101000a900460ff166118219190614085565b92506101000a81548160ff021916908360ff160217905550505050565b60008281526002602052604090205482906001600160a01b0316331461186357600080fd5b601a546001848154811061187957611879613f6a565b600091825260209091206003909102016001015461189f90610100900460ff16846140a8565b60ff166118ac9190613fc2565b34146118b757600080fd5b600080546040516001600160a01b03909116913480156108fc02929091818181858888f193505050501580156118f1573d6000803e3d6000fd5b50816001848154811061190657611906613f6a565b906000526020600020906003020160010160018282829054906101000a900460ff166118219190614041565b60008281526002602052604090205482906001600160a01b0316331461195757600080fd5b6019546001848154811061196d5761196d613f6a565b60009182526020909120600160039092020101546119929060ff908116908516613fc2565b61199c9190613fc2565b34146119a757600080fd5b600080546040516001600160a01b03909116913480156108fc02929091818181858888f193505050501580156119e1573d6000803e3d6000fd5b5081600184815481106119f6576119f6613f6a565b600091825260208220600160039092020101805490919061182190849060ff16614041565b60018181548110611a2b57600080fd5b600091825260209091206003909102018054600182015460029092015490925060ff808316926101008104821692620100009091049091169085565b600e8181548110611a7757600080fd5b60009182526020909120600290910201805460019091015490915061ffff81169062010000900460ff1683565b6000611aae6132c4565b600c805460009182611abf8361410e565b909155506040805160608101825282815263ffffffff8781166020808401828152848601928352600f80546001810182556000918252955160029096027f8d1108e10bcb7c27dddfc02ed9d693a074039d026cf4ea4240b40f7d581ac80281019690965590517f8d1108e10bcb7c27dddfc02ed9d693a074039d026cf4ea4240b40f7d581ac8039095018054935185166401000000000267ffffffffffffffff1990941695909416949094179190911790915581546001600160a01b0316825260159052908120805492935090611b958361410e565b9091555050600080548282526012602052604090912080546001600160a01b0319166001600160a01b039092169190911790558215611bf35760008181526018602052604081208490556009805491611bed8361410e565b91905055505b90505b92915050565b60008181526011602052604090205481906001600160a01b03163314611c2157600080fd5b60008381526010602052604090205483906001600160a01b03163314611c4657600080fd5b82600d8581548110611c5a57611c5a613f6a565b90600052602060002090600902016002015403611ca75760405162461bcd60e51b815260206004820152600b60248201526a73616d6520656e67696e6560a81b6044820152606401610b5c565b6000611cb233611d4c565b905060005b8151811015611d1b5784828281518110611cd357611cd3613f6a565b60200260200101516040015103611d09576000828281518110611cf857611cf8613f6a565b602002602001015160400181815250505b80611d138161410e565b915050611cb7565b5083600d8681548110611d3057611d30613f6a565b9060005260206000209060090201600201819055505050505050565b6001600160a01b0381166000908152601360205260408120546060919067ffffffffffffffff811115611d8157611d81613c71565b604051908082528060200260200182016040528015611e0457816020015b611df160405180610120016040528060608152602001600081526020016000815260200160008152602001600060ff168152602001600081526020016000815260200160008152602001600081525090565b815260200190600190039081611d9f5790505b5090506000805b600d548110156115be576000818152601060205260409020546001600160a01b03808716911603611f7857600d8181548110611e4957611e49613f6a565b906000526020600020906009020160405180610120016040529081600082018054611e7390614212565b80601f0160208091040260200160405190810160405280929190818152602001828054611e9f90614212565b8015611eec5780601f10611ec157610100808354040283529160200191611eec565b820191906000526020600020905b815481529060010190602001808311611ecf57829003601f168201915b5050509183525050600182015460208201526002820154604082015260038201546060820152600482015460ff166080820152600582015460a0820152600682015460c0820152600782015460e0820152600890910154610100909101528351849084908110611f5e57611f5e613f6a565b60200260200101819052508180611f749061410e565b9250505b80611f828161410e565b915050611e0b565b336000908152602160205260409020548214611fd85760405162461bcd60e51b815260206004820152600d60248201526c6e6f7420796f757220726f6f6d60981b6044820152606401610b5c565b600082815260256020526040808220600201549051634e31f59760e11b815290919073__PDDLib________________________________90639c63eb2e90612026908590879060040161424c565b602060405180830381865af4158015612043573d6000803e3d6000fd5b505050506040513d601f19601f82011682018060405250810190612067919061429a565b604080516080810182523380825283151560208084019182524284860190815260009384526022825285842054606086019081528b855260258352958420600481018054600181810183558288529487208851600390920201805496511515600160a01b026001600160a81b03199097166001600160a01b0392909216919091179590951785559151928401929092559451600290920191909155908890528054925493945090929091900361220f576040518681527f67acaceb58ff1ad2aa8b3069f69c4cd076824e06a09184b75fb197ead7040be79060200160405180910390a16000868152602560209081526040808320600601805460ff191660011790553383526021825280832083905560229091528120819055805b6000888152602560205260409020548110156121fb5760008881526025602052604090206004018054829081106121bb576121bb613f6a565b6000918252602090912060039091020154600160a01b900460ff16156121e957816121e58161410e565b9250505b806121f38161410e565b915050612182565b508060000361220d5750505050505050565b505b505050505050565b60008181526011602052604090205481906001600160a01b0316331461223c57600080fd5b60008381526010602052604090205483906001600160a01b0316331461226157600080fd5b82600d858154811061227557612275613f6a565b906000526020600020906009020160020154146122cd5760405162461bcd60e51b8152602060048201526016602482015275195b99da5b99481a5cc81b9bdd08185d1d1858da195960521b6044820152606401610b5c565b6000600d85815481106122e2576122e2613f6a565b90600052602060002090600902016002018190555050505050565b60006123076132c4565b600b8054600091826123188361410e565b909155506040805160608101825282815261ffff8089166020830190815260ff808a16948401948552600e80546001810182556000918252945160029095027fbb7b4a454dc3493923482f07822329ed19e8244eff582cc204f8554c3620c3fd81019590955591517fbb7b4a454dc3493923482f07822329ed19e8244eff582cc204f8554c3620c3fe90940180549551909116620100000262ffffff199095169390921692909217929092179091559091506014906123df6000546001600160a01b031690565b6001600160a01b03168152602081019190915260400160009081208054916124068361410e565b9091555050600080548282526011602052604090912080546001600160a01b0319166001600160a01b039092169190911790558215612464576000818152601760205260408120849055600a80549161245e8361410e565b91905055505b949350505050565b60008181526012602052604090205481906001600160a01b031633146124a45760405162461bcd60e51b8152600401610b5c90613f3c565b60008381526010602052604090205483906001600160a01b031633146124c957600080fd5b82600d85815481106124dd576124dd613f6a565b9060005260206000209060090201600301540361252b5760405162461bcd60e51b815260206004820152600c60248201526b73616d65206368617373697360a01b6044820152606401610b5c565b600061253633611d4c565b905060005b815181101561259f578482828151811061255757612557613f6a565b6020026020010151606001510361258d57600082828151811061257c5761257c613f6a565b602002602001015160600181815250505b806125978161410e565b91505061253b565b5083600d86815481106125b4576125b4613f6a565b9060005260206000209060090201600301819055505050505050565b33600090815260136020526040902054156125ea57600080fd5b6000816125f64261336e565b6040516020016126079291906142bc565b604051602081830303815290604052905060008160405160200161262b91906142e2565b6040516020818303038152906040528051906020012060001c90506000612650613401565b9050600061265c613535565b600d80546040805161012081018252898152602080820189905291810187905260608101859052600160808201819052600060a0830181905260c0830181905260e083018190526101008301859052908401855593909352825180519495509193600985027fd7b6990105719101dabeb77144f2a3385c8033acd3af97e9423a695e81ad1eb501926126f29284929101906138b6565b506020828101516001830155604080840151600284015560608401516003840155608084015160048401805460ff191660ff90921691909117905560a0840151600584015560c0840151600684015560e08401516007840155610100909301516008909201919091556000838152601082528281208054336001600160a01b03199091168117909155815260139091529081208054916127918361410e565b9190505550505050505050565b6127a66132c4565b6001600160a01b03811661280b5760405162461bcd60e51b815260206004820152602660248201527f4f776e61626c653a206e6577206f776e657220697320746865207a65726f206160448201526564647265737360d01b6064820152608401610b5c565b6128148161331e565b50565b600d818154811061282757600080fd5b906000526020600020906009020160009150905080600001805461284a90614212565b80601f016020809104026020016040519081016040528092919081815260200182805461287690614212565b80156128c35780601f10612898576101008083540402835291602001916128c3565b820191906000526020600020905b8154815290600101906020018083116128a657829003601f168201915b50505060018401546002850154600386015460048701546005880154600689015460078a01546008909a01549899959894975092955060ff90911693909289565b60008281526011602052604090205482906001600160a01b0316331461292957600080fd5b601b54600e848154811061293f5761293f613f6a565b60009182526020909120600160029092020101546129649061ffff1660ff85166142fe565b61ffff166129729190613fc2565b341461297d57600080fd5b600080546040516001600160a01b03909116913480156108fc02929091818181858888f193505050501580156129b7573d6000803e3d6000fd5b508160ff16600e84815481106129cf576129cf613f6a565b60009182526020822060016002909202010180549091906129f590849061ffff1661431f565b92506101000a81548161ffff021916908361ffff160217905550505050565b60008181526010602052604090205481906001600160a01b03163314612a3957600080fd5b6000805b602454811015612dc45760248181548110612a5a57612a5a613f6a565b906000526020600020906006020160020154600a600d8681548110612a8157612a81613f6a565b6000918252602090912060046009909202010154612aa2919060ff1661401f565b612aad906001614041565b60ff1603612db2576001915060248181548110612acc57612acc613f6a565b6000918252602080832060069092029091015433835260218252604080842091909155602290915290208490556024805482908110612b0d57612b0d613f6a565b600091825260208220600160069092020101805491612b2b8361410e565b919050555060248181548110612b4357612b43613f6a565b90600052602060002090600602016003016000015460248281548110612b6b57612b6b613f6a565b90600052602060002090600602016001015403612db257600073__PDDLib________________________________63c037e54560248481548110612bb157612bb1613f6a565b90600052602060002090600602016003016002015460248581548110612bd957612bd9613f6a565b9060005260206000209060060201600301600001546040518363ffffffff1660e01b8152600401612c14929190918252602082015260400190565b602060405180830381865af4158015612c31573d6000803e3d6000fd5b505050506040513d601f19601f82011682018060405250810190612c55919061433c565b905060006025600060248581548110612c7057612c70613f6a565b9060005260206000209060060201600001548152602001908152602001600020905060248381548110612ca557612ca5613f6a565b600091825260209091206003600690920201015481556024805484908110612ccf57612ccf613f6a565b6000918252602082206006918202016002908101546001850155830184905542600384015560058301919091558101805460ff19169055602480547f2838ebeee7dc83fac85a3d6dbca0c0b6771591ada8b00f97371aa6611e631f9c919085908110612d3d57612d3d613f6a565b600091825260209182902060069091020154604080519182529181018590520160405180910390a160248381548110612d7857612d78613f6a565b600091825260208220600690910201818155600181018290556002810182905560038101829055600481018290556005015550612dc49050565b80612dbc8161410e565b915050612a3d565b508015612dd057505050565b6023805460009182612de18361410e565b90915550601f54909150600090612df89042614355565b90508160216000336001600160a01b03166001600160a01b03168152602001908152602001600020819055506024604051806080016040528084815260200160018152602001600a600d8981548110612e5357612e53613f6a565b6000918252602090912060046009909202010154612e74919060ff1661401f565b612e7f906001614041565b60ff168152602001601f8481548110612e9a57612e9a613f6a565b60009182526020808320604080516060808201835260039586029093018054825260018082015483870152600291820154838501529190975288548082018a5598865294839020875160069099020197885586830151948801949094558584015194870194909455939092015180519285019290925591810151600484015501516005909101555050505050565b612f306132c4565b600086612f3c4261336e565b604051602001612f4d9291906142bc565b6040516020818303038152906040529050600081604051602001612f7191906142e2565b6040516020818303038152906040528051906020012060001c90506000612f9a888860006122fd565b90506000612fa9876000611aa4565b600d805460408051610120810182528e815260208082018990529181018790526060810185905260ff8b166080820152600060a0820181905260c0820181905260e08201819052610100820184905260018401855593909352825180519495509193600985027fd7b6990105719101dabeb77144f2a3385c8033acd3af97e9423a695e81ad1eb501926130409284929101906138b6565b506020828101516001830155604080840151600284015560608401516003840155608084015160048401805460ff90921660ff1990921691909117905560a0840151600584015560c0840151600684015560e0840151600784015561010090930151600890920191909155600080548482526010835283822080546001600160a01b0319166001600160a01b03928316179055815416815260139091529081208054916130ec8361410e565b9091555050600081815260166020526040812087905560088054916131108361410e565b91905055505050505050505050505050565b6000828152601060205260408120548190613145906001600160a01b031661128c565b90506131548160000151613669565b6000600d858154811061316957613169613f6a565b9060005260206000209060090201600201549050600060019050600a85600e848154811061319957613199613f6a565b906000526020600020906002020160010160029054906101000a900460ff166131c291906140a8565b60ff161061321357600a600e83815481106131df576131df613f6a565b60009182526020909120600290910201600101546132069062010000900460ff16876140a8565b613210919061401f565b90505b8060ff16600184600001518154811061322e5761322e613f6a565b600091825260209091206003909102016001015462010000900460ff16106132b85780600184600001518154811061326857613268613f6a565b906000526020600020906003020160010160028282829054906101000a900460ff166132949190614085565b92506101000a81548160ff021916908360ff16021790555060019350505050611bf6565b60009350505050611bf6565b6000546001600160a01b031633146115d95760405162461bcd60e51b815260206004820181905260248201527f4f776e61626c653a2063616c6c6572206973206e6f7420746865206f776e65726044820152606401610b5c565b600080546001600160a01b038381166001600160a01b0319831681178455604051919092169283917f8be0079c531659141344cd1fd0a4f28419497f9722a3daafe3b4186f6b6457e09190a35050565b6060600061337b836137c8565b600101905060008167ffffffffffffffff81111561339b5761339b613c71565b6040519080825280601f01601f1916602001820160405280156133c5576020820181803683370190505b5090508181016020015b600019016f181899199a1a9b1b9c1cb0b131b232b360811b600a86061a8153600a85049450846133cf57509392505050565b6000806003546004546134149190614369565b61341e9042614355565b60035461342b91906140f6565b600b805491925060009190826134408361410e565b909155506040805160608101825282815261ffff808616602080840191825260055460ff908116858701908152600e80546001810182556000918252965160029097027fbb7b4a454dc3493923482f07822329ed19e8244eff582cc204f8554c3620c3fd81019790975593517fbb7b4a454dc3493923482f07822329ed19e8244eff582cc204f8554c3620c3fe90960180549151909216620100000262ffffff199091169590941694909417929092179092553382526014905290812080549293509061350c8361410e565b9091555050600081815260116020526040902080546001600160a01b0319163317905592915050565b6000806006546007546135489190614369565b6135529042614355565b60065461355f91906140f6565b600c805491925060009190826135748361410e565b909155506040805160608101825282815263ffffffff8086166020808401828152848601928352600f80546001810182556000918252955160029096027f8d1108e10bcb7c27dddfc02ed9d693a074039d026cf4ea4240b40f7d581ac80281019690965590517f8d1108e10bcb7c27dddfc02ed9d693a074039d026cf4ea4240b40f7d581ac8039095018054935185166401000000000267ffffffffffffffff19909416959094169490941791909117909155338252601590529081208054929350906136408361410e565b9091555050600081815260126020526040902080546001600160a01b0319163317905592915050565b60004290506000610e106001848154811061368657613686613f6a565b906000526020600020906003020160020154836136a39190614369565b6136ad9190614380565b90506000600184815481106136c4576136c4613f6a565b60009182526020909120600390910201600101546136ea90610100900460ff1683613fc2565b600185815481106136fd576136fd613f6a565b6000918252602090912060039091020160010154613724919062010000900460ff166140f6565b905061375d6001858154811061373c5761373c613f6a565b600091825260209091206001600390920201015460ff9081169083166138a0565b6001858154811061377057613770613f6a565b906000526020600020906003020160010160026101000a81548160ff021916908360ff16021790555082600185815481106137ad576137ad613f6a565b90600052602060002090600302016002018190555050505050565b60008072184f03e93ff9f4daa797ed6e38ed64bf6a1f0160401b83106138075772184f03e93ff9f4daa797ed6e38ed64bf6a1f0160401b830492506040015b6d04ee2d6d415b85acef81000000008310613833576d04ee2d6d415b85acef8100000000830492506020015b662386f26fc10000831061385157662386f26fc10000830492506010015b6305f5e1008310613869576305f5e100830492506008015b612710831061387d57612710830492506004015b6064831061388f576064830492506002015b600a8310611bf65760010192915050565b60008183106138af5781611bf3565b5090919050565b8280546138c290614212565b90600052602060002090601f0160209004810192826138e4576000855561392a565b82601f106138fd57805160ff191683800117855561392a565b8280016001018555821561392a579182015b8281111561392a57825182559160200191906001019061390f565b5061393692915061393a565b5090565b5b80821115613936576000815560010161393b565b803560ff8116811461396057600080fd5b919050565b6000806040838503121561397857600080fd5b823591506139886020840161394f565b90509250929050565b6000602082840312156139a357600080fd5b5035919050565b602080825282518282018190526000919060409081850190868401855b82811015613a0c57815180516001600160a01b0316855286810151151587860152858101518686015260609081015190850152608090930192908501906001016139c7565b5091979650505050505050565b600060208284031215613a2b57600080fd5b81356001600160a01b0381168114611bf357600080fd5b60008060408385031215613a5557600080fd5b50508035926020909101359150565b602080825282518282018190526000919060409081850190868401855b82811015613a0c578151805185528681015163ffffffff9081168887015290860151168585015260609093019290850190600101613a81565b602080825282518282018190526000919060409081850190868401855b82811015613a0c578151805185528681015161ffff168786015285015160ff168585015260609093019290850190600101613ad7565b803563ffffffff8116811461396057600080fd5b60008060408385031215613b3457600080fd5b613b3d83613b0d565b946020939093013593505050565b60005b83811015613b66578181015183820152602001613b4e565b83811115613b75576000848401525b50505050565b60008151808452613b93816020860160208601613b4b565b601f01601f19169290920160200192915050565b60006020808301818452808551808352604092508286019150828160051b87010184880160005b83811015613c6357603f1989840301855281516101208151818652613bf582870182613b7b565b915050888201518986015287820151888601526060808301518187015250608080830151613c278288018260ff169052565b505060a0828101519086015260c0808301519086015260e080830151908601526101009182015191909401529386019390860190600101613bce565b509098975050505050505050565b634e487b7160e01b600052604160045260246000fd5b604051601f8201601f1916810167ffffffffffffffff81118282101715613cb057613cb0613c71565b604052919050565b60008060408385031215613ccb57600080fd5b8235915060208084013567ffffffffffffffff80821115613ceb57600080fd5b818601915086601f830112613cff57600080fd5b813581811115613d1157613d11613c71565b8060051b9150613d22848301613c87565b8181529183018401918481019089841115613d3c57600080fd5b938501935b83851015613d5a57843582529385019390850190613d41565b8096505050505050509250929050565b803561ffff8116811461396057600080fd5b600080600060608486031215613d9157600080fd5b613d9a84613d6a565b9250613da86020850161394f565b9150604084013590509250925092565b600082601f830112613dc957600080fd5b813567ffffffffffffffff811115613de357613de3613c71565b613df6601f8201601f1916602001613c87565b818152846020838601011115613e0b57600080fd5b816020850160208301376000918101602001919091529392505050565b600060208284031215613e3a57600080fd5b813567ffffffffffffffff811115613e5157600080fd5b61246484828501613db8565b6000610120808352613e718184018d613b7b565b602084019b909b5250506040810197909752606087019590955260ff93909316608086015260a085019190915260c084015260e083015261010090910152919050565b60008060008060008060c08789031215613ecd57600080fd5b863567ffffffffffffffff811115613ee457600080fd5b613ef089828a01613db8565b965050613eff60208801613d6a565b9450613f0d6040880161394f565b9350613f1b60608801613b0d565b9250613f296080880161394f565b915060a087013590509295509295509295565b6020808252601490820152730c6d0c2e6e6d2e640dcdee840f2deeae4407c74560631b604082015260600190565b634e487b7160e01b600052603260045260246000fd5b634e487b7160e01b600052601160045260246000fd5b600063ffffffff80831681851681830481118215151615613fb957613fb9613f80565b02949350505050565b6000816000190483118215151615613fdc57613fdc613f80565b500290565b600063ffffffff80831681851680830382111561400057614000613f80565b01949350505050565b634e487b7160e01b600052601260045260246000fd5b600060ff83168061403257614032614009565b8060ff84160491505092915050565b600060ff821660ff84168060ff0382111561405e5761405e613f80565b019392505050565b600060ff821660ff810361407c5761407c613f80565b60010192915050565b600060ff821660ff84168082101561409f5761409f613f80565b90039392505050565b600060ff821660ff84168160ff04811182151516156140c9576140c9613f80565b029392505050565b600063ffffffff838116908316818110156140ee576140ee613f80565b039392505050565b6000821982111561410957614109613f80565b500190565b60006001820161412057614120613f80565b5060010190565b600181815b8085111561416257816000190482111561414857614148613f80565b8085161561415557918102915b93841c939080029061412c565b509250929050565b60008261417957506001611bf6565b8161418657506000611bf6565b816001811461419c57600281146141a6576141c2565b6001915050611bf6565b60ff8411156141b7576141b7613f80565b50506001821b611bf6565b5060208310610133831016604e8410600b84101617156141e5575081810a611bf6565b6141ef8383614127565b80600019048211156140c9576140c9613f80565b6000611bf360ff84168361416a565b600181811c9082168061422657607f821691505b60208210810361424657634e487b7160e01b600052602260045260246000fd5b50919050565b6000604082018483526020604081850152818551808452606086019150828701935060005b8181101561428d57845183529383019391830191600101614271565b5090979650505050505050565b6000602082840312156142ac57600080fd5b81518015158114611bf357600080fd5b600083516142ce818460208801613b4b565b835190830190614000818360208801613b4b565b600082516142f4818460208701613b4b565b9190910192915050565b600061ffff80831681851681830481118215151615613fb957613fb9613f80565b600061ffff80831681851680830382111561400057614000613f80565b60006020828403121561434e57600080fd5b5051919050565b60008261436457614364614009565b500690565b60008282101561437b5761437b613f80565b500390565b60008261438f5761438f614009565b50049056fea2646970667358221220a774eb6444e536ee543339dbcdc2a7f1195921825e6a85594be4075815daac3864736f6c634300080d0033",
  "immutableReferences": {},
  "source": "// SPDX-License-Identifier: MIT\npragma solidity ^0.8.13;\nimport \"./RaceHandler.sol\";\n\ncontract CarRacing is RaceHandler{\n\n    function _isEnoughFuel(uint _carId, uint8 duration) private returns(bool){\n        FuelStation memory station = getFuelStationByOwner(carToOwner[_carId]);\n        _refreshFuel(station.id);\n        uint engineId = cars[_carId].engineId;\n        uint8 liters= 1;\n        if (engines[engineId].consumtion * duration >= 10)\n            liters = duration * engines[engineId].consumtion / 10;\n\n        if (stations[station.id].currentFullness >= liters) {\n            stations[station.id].currentFullness -= liters;\n            return true;\n        }\n        else\n            return false;\n    }\n\n    function _refreshFuel(uint _fuelStationId) private {\n        uint curTime = block.timestamp;\n        uint wholeHours = (curTime - stations[_fuelStationId].lastUpdate) / 3600;\n        uint8 newFullness = uint8(stations[_fuelStationId].currentFullness + wholeHours * stations[_fuelStationId].productionPerHour);\n        stations[_fuelStationId].currentFullness = uint8(Math.min(stations[_fuelStationId].capacity, newFullness));\n        stations[_fuelStationId].lastUpdate = curTime;\n    }\n\n\n    function startRace(uint _carId) external onlyOwnerOfCar(_carId) {\n        uint8 durToNextCrossroad = 2 * (10 - cars[_carId].carLevel / 10);\n\n        require(playersToCars[msg.sender]==0, \"car already in race\");\n        require(cars[_carId].chassisId!=0, \"no chassis\");\n        require(cars[_carId].engineId!=0, \"no engine\");\n        require(_isEnoughFuel(_carId, durToNextCrossroad), \"not enough fuel\");\n        require(chassis[cars[_carId].chassisId].resource >= durToNextCrossroad, \"resource\");\n        \n        // TODO\n\n        chassis[cars[_carId].chassisId].resource -= durToNextCrossroad;\n        cars[_carId].mileage += durToNextCrossroad;\n    }\n\n}",
  "sourcePath": "/Users/vvan/Programming/JavaScript/DriveSafely/contract/contracts/CarRacing.sol",
  "compiler": {
    "name": "solc",
    "version": "0.8.13+commit.abaa5c0e.Emscripten.clang"
  },
  "schemaVersion": "3.4.11",
  "updatedAt": "2023-01-12T05:49:46.581Z",
  "networkType": "ethereum",
  "devdoc": {
    "kind": "dev",
    "methods": {
      "owner()": {
        "details": "Returns the address of the current owner."
      },
      "renounceOwnership()": {
        "details": "Leaves the contract without owner. It will not be possible to call `onlyOwner` functions anymore. Can only be called by the current owner. NOTE: Renouncing ownership will leave the contract without an owner, thereby removing any functionality that is only available to the owner."
      },
      "transferOwnership(address)": {
        "details": "Transfers ownership of the contract to a new account (`newOwner`). Can only be called by the current owner."
      }
    },
    "version": 1
  },
  "userdoc": {
    "kind": "user",
    "methods": {},
    "version": 1
  }
}