{
  "contractName": "CarRacing",
  "abi": [
    {
      "anonymous": false,
      "inputs": [
        {
          "indexed": true,
          "internalType": "address",
          "name": "previousOwner",
          "type": "address"
        },
        {
          "indexed": true,
          "internalType": "address",
          "name": "newOwner",
          "type": "address"
        }
      ],
      "name": "OwnershipTransferred",
      "type": "event"
    },
    {
      "anonymous": false,
      "inputs": [
        {
          "indexed": false,
          "internalType": "uint256",
          "name": "roomId",
          "type": "uint256"
        }
      ],
      "name": "RoomClosed",
      "type": "event"
    },
    {
      "anonymous": false,
      "inputs": [
        {
          "indexed": false,
          "internalType": "uint256",
          "name": "roomId",
          "type": "uint256"
        },
        {
          "indexed": false,
          "internalType": "uint256",
          "name": "roomDNA",
          "type": "uint256"
        }
      ],
      "name": "RoomFull",
      "type": "event"
    },
    {
      "inputs": [
        {
          "internalType": "uint256",
          "name": "",
          "type": "uint256"
        }
      ],
      "name": "carToOwner",
      "outputs": [
        {
          "internalType": "address",
          "name": "",
          "type": "address"
        }
      ],
      "stateMutability": "view",
      "type": "function",
      "constant": true
    },
    {
      "inputs": [
        {
          "internalType": "uint256",
          "name": "",
          "type": "uint256"
        }
      ],
      "name": "cars",
      "outputs": [
        {
          "internalType": "string",
          "name": "model",
          "type": "string"
        },
        {
          "internalType": "uint256",
          "name": "vin",
          "type": "uint256"
        },
        {
          "internalType": "uint256",
          "name": "engineId",
          "type": "uint256"
        },
        {
          "internalType": "uint256",
          "name": "chassisId",
          "type": "uint256"
        },
        {
          "internalType": "uint8",
          "name": "carLevel",
          "type": "uint8"
        },
        {
          "internalType": "uint256",
          "name": "mileage",
          "type": "uint256"
        },
        {
          "internalType": "uint256",
          "name": "winCountOnCurrentLevel",
          "type": "uint256"
        },
        {
          "internalType": "uint256",
          "name": "lossCountOnCurrentLevel",
          "type": "uint256"
        },
        {
          "internalType": "uint256",
          "name": "id",
          "type": "uint256"
        }
      ],
      "stateMutability": "view",
      "type": "function",
      "constant": true
    },
    {
      "inputs": [
        {
          "internalType": "uint256",
          "name": "",
          "type": "uint256"
        }
      ],
      "name": "chassis",
      "outputs": [
        {
          "internalType": "uint256",
          "name": "id",
          "type": "uint256"
        },
        {
          "internalType": "uint32",
          "name": "durability",
          "type": "uint32"
        },
        {
          "internalType": "uint32",
          "name": "resource",
          "type": "uint32"
        }
      ],
      "stateMutability": "view",
      "type": "function",
      "constant": true
    },
    {
      "inputs": [
        {
          "internalType": "uint256",
          "name": "",
          "type": "uint256"
        }
      ],
      "name": "chassisToOwner",
      "outputs": [
        {
          "internalType": "address",
          "name": "",
          "type": "address"
        }
      ],
      "stateMutability": "view",
      "type": "function",
      "constant": true
    },
    {
      "inputs": [
        {
          "internalType": "uint256",
          "name": "roomId",
          "type": "uint256"
        },
        {
          "internalType": "uint256[]",
          "name": "answer",
          "type": "uint256[]"
        }
      ],
      "name": "commitAnswer",
      "outputs": [],
      "stateMutability": "nonpayable",
      "type": "function"
    },
    {
      "inputs": [
        {
          "internalType": "string",
          "name": "model",
          "type": "string"
        }
      ],
      "name": "createCar",
      "outputs": [],
      "stateMutability": "nonpayable",
      "type": "function"
    },
    {
      "inputs": [],
      "name": "createFuelStation",
      "outputs": [],
      "stateMutability": "nonpayable",
      "type": "function"
    },
    {
      "inputs": [
        {
          "internalType": "uint256",
          "name": "",
          "type": "uint256"
        }
      ],
      "name": "engineToOwner",
      "outputs": [
        {
          "internalType": "address",
          "name": "",
          "type": "address"
        }
      ],
      "stateMutability": "view",
      "type": "function",
      "constant": true
    },
    {
      "inputs": [
        {
          "internalType": "uint256",
          "name": "",
          "type": "uint256"
        }
      ],
      "name": "engines",
      "outputs": [
        {
          "internalType": "uint256",
          "name": "id",
          "type": "uint256"
        },
        {
          "internalType": "uint16",
          "name": "horsePowers",
          "type": "uint16"
        },
        {
          "internalType": "uint8",
          "name": "consumtion",
          "type": "uint8"
        }
      ],
      "stateMutability": "view",
      "type": "function",
      "constant": true
    },
    {
      "inputs": [
        {
          "internalType": "uint256",
          "name": "carId",
          "type": "uint256"
        }
      ],
      "name": "findRoom",
      "outputs": [],
      "stateMutability": "nonpayable",
      "type": "function"
    },
    {
      "inputs": [
        {
          "internalType": "uint256",
          "name": "",
          "type": "uint256"
        }
      ],
      "name": "fuelStationToOwner",
      "outputs": [
        {
          "internalType": "address",
          "name": "",
          "type": "address"
        }
      ],
      "stateMutability": "view",
      "type": "function",
      "constant": true
    },
    {
      "inputs": [
        {
          "internalType": "address",
          "name": "_owner",
          "type": "address"
        }
      ],
      "name": "getCarsByOwner",
      "outputs": [
        {
          "components": [
            {
              "internalType": "string",
              "name": "model",
              "type": "string"
            },
            {
              "internalType": "uint256",
              "name": "vin",
              "type": "uint256"
            },
            {
              "internalType": "uint256",
              "name": "engineId",
              "type": "uint256"
            },
            {
              "internalType": "uint256",
              "name": "chassisId",
              "type": "uint256"
            },
            {
              "internalType": "uint8",
              "name": "carLevel",
              "type": "uint8"
            },
            {
              "internalType": "uint256",
              "name": "mileage",
              "type": "uint256"
            },
            {
              "internalType": "uint256",
              "name": "winCountOnCurrentLevel",
              "type": "uint256"
            },
            {
              "internalType": "uint256",
              "name": "lossCountOnCurrentLevel",
              "type": "uint256"
            },
            {
              "internalType": "uint256",
              "name": "id",
              "type": "uint256"
            }
          ],
          "internalType": "struct CarFactory.Car[]",
          "name": "",
          "type": "tuple[]"
        }
      ],
      "stateMutability": "view",
      "type": "function",
      "constant": true
    },
    {
      "inputs": [
        {
          "internalType": "address",
          "name": "_owner",
          "type": "address"
        }
      ],
      "name": "getChassisByOwner",
      "outputs": [
        {
          "components": [
            {
              "internalType": "uint256",
              "name": "id",
              "type": "uint256"
            },
            {
              "internalType": "uint32",
              "name": "durability",
              "type": "uint32"
            },
            {
              "internalType": "uint32",
              "name": "resource",
              "type": "uint32"
            }
          ],
          "internalType": "struct CarFactory.Chassis[]",
          "name": "",
          "type": "tuple[]"
        }
      ],
      "stateMutability": "view",
      "type": "function",
      "constant": true
    },
    {
      "inputs": [
        {
          "internalType": "uint256",
          "name": "roomId",
          "type": "uint256"
        }
      ],
      "name": "getClosedRoom",
      "outputs": [
        {
          "components": [
            {
              "internalType": "address",
              "name": "player",
              "type": "address"
            },
            {
              "internalType": "bool",
              "name": "correct",
              "type": "bool"
            },
            {
              "internalType": "uint256",
              "name": "time",
              "type": "uint256"
            },
            {
              "internalType": "uint256",
              "name": "carId",
              "type": "uint256"
            }
          ],
          "internalType": "struct RaceHandler.Answer[]",
          "name": "",
          "type": "tuple[]"
        }
      ],
      "stateMutability": "view",
      "type": "function",
      "constant": true
    },
    {
      "inputs": [
        {
          "internalType": "address",
          "name": "_owner",
          "type": "address"
        }
      ],
      "name": "getEnginesByOwner",
      "outputs": [
        {
          "components": [
            {
              "internalType": "uint256",
              "name": "id",
              "type": "uint256"
            },
            {
              "internalType": "uint16",
              "name": "horsePowers",
              "type": "uint16"
            },
            {
              "internalType": "uint8",
              "name": "consumtion",
              "type": "uint8"
            }
          ],
          "internalType": "struct CarFactory.Engine[]",
          "name": "",
          "type": "tuple[]"
        }
      ],
      "stateMutability": "view",
      "type": "function",
      "constant": true
    },
    {
      "inputs": [
        {
          "internalType": "address",
          "name": "_owner",
          "type": "address"
        }
      ],
      "name": "getFuelStationByOwner",
      "outputs": [
        {
          "components": [
            {
              "internalType": "uint256",
              "name": "id",
              "type": "uint256"
            },
            {
              "internalType": "uint8",
              "name": "capacity",
              "type": "uint8"
            },
            {
              "internalType": "uint8",
              "name": "productionPerHour",
              "type": "uint8"
            },
            {
              "internalType": "uint8",
              "name": "currentFullness",
              "type": "uint8"
            },
            {
              "internalType": "uint256",
              "name": "lastUpdate",
              "type": "uint256"
            }
          ],
          "internalType": "struct FuelStationFactory.FuelStation",
          "name": "",
          "type": "tuple"
        }
      ],
      "stateMutability": "view",
      "type": "function",
      "constant": true
    },
    {
      "inputs": [
        {
          "internalType": "uint256",
          "name": "",
          "type": "uint256"
        }
      ],
      "name": "idToStartedRooms",
      "outputs": [
        {
          "internalType": "uint256",
          "name": "numberPlayers",
          "type": "uint256"
        },
        {
          "internalType": "uint256",
          "name": "world",
          "type": "uint256"
        },
        {
          "internalType": "uint256",
          "name": "roomDNA",
          "type": "uint256"
        },
        {
          "internalType": "uint256",
          "name": "startTime",
          "type": "uint256"
        },
        {
          "internalType": "uint256",
          "name": "curAnswer",
          "type": "uint256"
        },
        {
          "internalType": "bool",
          "name": "closed",
          "type": "bool"
        }
      ],
      "stateMutability": "view",
      "type": "function",
      "constant": true
    },
    {
      "inputs": [
        {
          "internalType": "uint256",
          "name": "_carId",
          "type": "uint256"
        }
      ],
      "name": "levelUp",
      "outputs": [],
      "stateMutability": "payable",
      "type": "function",
      "payable": true
    },
    {
      "inputs": [
        {
          "internalType": "uint256",
          "name": "",
          "type": "uint256"
        }
      ],
      "name": "openedRooms",
      "outputs": [
        {
          "internalType": "uint256",
          "name": "id",
          "type": "uint256"
        },
        {
          "internalType": "uint256",
          "name": "playersEntered",
          "type": "uint256"
        },
        {
          "internalType": "uint256",
          "name": "world",
          "type": "uint256"
        },
        {
          "components": [
            {
              "internalType": "uint256",
              "name": "playersNeeded",
              "type": "uint256"
            },
            {
              "internalType": "uint256",
              "name": "roadsNum",
              "type": "uint256"
            },
            {
              "internalType": "uint256",
              "name": "crossId",
              "type": "uint256"
            }
          ],
          "internalType": "struct RaceHandler.Cross",
          "name": "cross",
          "type": "tuple"
        }
      ],
      "stateMutability": "view",
      "type": "function",
      "constant": true
    },
    {
      "inputs": [],
      "name": "owner",
      "outputs": [
        {
          "internalType": "address",
          "name": "",
          "type": "address"
        }
      ],
      "stateMutability": "view",
      "type": "function",
      "constant": true
    },
    {
      "inputs": [
        {
          "internalType": "address",
          "name": "",
          "type": "address"
        }
      ],
      "name": "ownerCarCount",
      "outputs": [
        {
          "internalType": "uint256",
          "name": "",
          "type": "uint256"
        }
      ],
      "stateMutability": "view",
      "type": "function",
      "constant": true
    },
    {
      "inputs": [],
      "name": "renounceOwnership",
      "outputs": [],
      "stateMutability": "nonpayable",
      "type": "function"
    },
    {
      "inputs": [
        {
          "internalType": "uint256",
          "name": "",
          "type": "uint256"
        }
      ],
      "name": "stations",
      "outputs": [
        {
          "internalType": "uint256",
          "name": "id",
          "type": "uint256"
        },
        {
          "internalType": "uint8",
          "name": "capacity",
          "type": "uint8"
        },
        {
          "internalType": "uint8",
          "name": "productionPerHour",
          "type": "uint8"
        },
        {
          "internalType": "uint8",
          "name": "currentFullness",
          "type": "uint8"
        },
        {
          "internalType": "uint256",
          "name": "lastUpdate",
          "type": "uint256"
        }
      ],
      "stateMutability": "view",
      "type": "function",
      "constant": true
    },
    {
      "inputs": [
        {
          "internalType": "uint256",
          "name": "carId",
          "type": "uint256"
        },
        {
          "internalType": "uint256",
          "name": "chassisId",
          "type": "uint256"
        }
      ],
      "name": "switchChassis",
      "outputs": [],
      "stateMutability": "nonpayable",
      "type": "function"
    },
    {
      "inputs": [
        {
          "internalType": "uint256",
          "name": "carId",
          "type": "uint256"
        },
        {
          "internalType": "uint256",
          "name": "engineId",
          "type": "uint256"
        }
      ],
      "name": "switchEngine",
      "outputs": [],
      "stateMutability": "nonpayable",
      "type": "function"
    },
    {
      "inputs": [
        {
          "internalType": "address",
          "name": "newOwner",
          "type": "address"
        }
      ],
      "name": "transferOwnership",
      "outputs": [],
      "stateMutability": "nonpayable",
      "type": "function"
    },
    {
      "inputs": [
        {
          "internalType": "uint256",
          "name": "_fuelStatonId",
          "type": "uint256"
        },
        {
          "internalType": "uint8",
          "name": "_counts",
          "type": "uint8"
        }
      ],
      "name": "upgradeCapacity",
      "outputs": [],
      "stateMutability": "payable",
      "type": "function",
      "payable": true
    },
    {
      "inputs": [
        {
          "internalType": "uint256",
          "name": "_engineId",
          "type": "uint256"
        },
        {
          "internalType": "uint8",
          "name": "_counts",
          "type": "uint8"
        }
      ],
      "name": "upgradeConsumtion",
      "outputs": [],
      "stateMutability": "payable",
      "type": "function",
      "payable": true
    },
    {
      "inputs": [
        {
          "internalType": "uint256",
          "name": "_chassisId",
          "type": "uint256"
        },
        {
          "internalType": "uint8",
          "name": "_counts",
          "type": "uint8"
        }
      ],
      "name": "upgradeDurability",
      "outputs": [],
      "stateMutability": "payable",
      "type": "function",
      "payable": true
    },
    {
      "inputs": [
        {
          "internalType": "uint256",
          "name": "_engineId",
          "type": "uint256"
        },
        {
          "internalType": "uint8",
          "name": "_counts",
          "type": "uint8"
        }
      ],
      "name": "upgradeHorsePowers",
      "outputs": [],
      "stateMutability": "payable",
      "type": "function",
      "payable": true
    },
    {
      "inputs": [
        {
          "internalType": "uint256",
          "name": "_fuelStatonId",
          "type": "uint256"
        },
        {
          "internalType": "uint8",
          "name": "_counts",
          "type": "uint8"
        }
      ],
      "name": "upgradeProductionPerHour",
      "outputs": [],
      "stateMutability": "payable",
      "type": "function",
      "payable": true
    },
    {
      "inputs": [
        {
          "internalType": "uint256",
          "name": "_carId",
          "type": "uint256"
        }
      ],
      "name": "startRace",
      "outputs": [],
      "stateMutability": "nonpayable",
      "type": "function"
    }
  ],
  "bytecode": "0x6080604052603c600060146101000a81548160ff021916908360ff1602179055506005600060156101000a81548160ff021916908360ff160217905550600160085560016009556509184e72a00060135565b5e620f48000601455650da475abf0006015556611c37937e080006016556305f5e10060175566038d7ea4c680006018553480156200008f57600080fd5b50620000b0620000a46200034760201b60201c565b6200034f60201b60201c565b6050600381905550605b600481905550600a600560006101000a81548160ff021916908360ff160217905550620186a06006819055506201d4c1600781905550600b60018160018154018082558091505003906000526020600020905050600c600181600181540180825580915050039060005260206000209050506019604051806060016040528060048152602001600481526020016000815250908060018154018082558091505060019003906000526020600020906003020160009091909190915060008201518160000155602082015181600101556040820151816002015550506019604051806060016040528060038152602001600481526020016000815250908060018154018082558091505060019003906000526020600020906003020160009091909190915060008201518160000155602082015181600101556040820151816002015550506019604051806060016040528060028152602001600481526020016000815250908060018154018082558091505060019003906000526020600020906003020160009091909190915060008201518160000155602082015181600101556040820151816002015550506019604051806060016040528060038152602001600381526020016001815250908060018154018082558091505060019003906000526020600020906003020160009091909190915060008201518160000155602082015181600101556040820151816002015550506019604051806060016040528060028152602001600381526020016001815250908060018154018082558091505060019003906000526020600020906003020160009091909190915060008201518160000155602082015181600101556040820151816002015550506001601c8190555062000413565b600033905090565b60008060009054906101000a900473ffffffffffffffffffffffffffffffffffffffff169050816000806101000a81548173ffffffffffffffffffffffffffffffffffffffff021916908373ffffffffffffffffffffffffffffffffffffffff1602179055508173ffffffffffffffffffffffffffffffffffffffff168173ffffffffffffffffffffffffffffffffffffffff167f8be0079c531659141344cd1fd0a4f28419497f9722a3daafe3b4186f6b6457e060405160405180910390a35050565b61542180620004236000396000f3fe6080604052600436106101e35760003560e01c80637c62360f11610102578063c75bb4f411610095578063f2fde38b11610064578063f2fde38b1461073d578063f7746e3614610766578063faf4bb98146107ab578063fb2d954f146107c7576101e3565b8063c75bb4f414610685578063c85b7fed146106c2578063ea126933146106eb578063ede6fbf514610714576101e3565b806392f859db116100d157806392f859db1461059f578063b3b29afd146105e0578063b72c0eea1461061d578063c34cccc41461065c576101e3565b80637c62360f14610520578063859092671461053c5780638da5cb5b14610558578063906f5f3414610583576101e3565b80633521c4261161017a5780635dcc4cc6116101495780635dcc4cc6146104525780636f206fc11461048f578063715018a6146104cc5780637713d521146104e3576101e3565b80633521c4261461035e578063449014901461039b5780634e31f910146103d8578063594193d714610415576101e3565b80631c5dde0e116101b65780631c5dde0e146102a2578063224370f0146102e157806324d822bf146102f857806333ca504b14610321576101e3565b806303f2e05b146101e85780630418394e14610204578063081315ff146102465780630ce90ec214610286575b600080fd5b61020260048036038101906101fd9190613b3d565b6107f0565b005b34801561021057600080fd5b5061022b60048036038101906102269190613b7d565b610928565b60405161023d96959493929190613bd4565b60405180910390f35b34801561025257600080fd5b5061026d60048036038101906102689190613b7d565b610971565b60405161027d9493929190613c86565b60405180910390f35b6102a0600480360381019061029b9190613b7d565b6109d9565b005b3480156102ae57600080fd5b506102c960048036038101906102c49190613b7d565b610b58565b6040516102d893929190613cea565b60405180910390f35b3480156102ed57600080fd5b506102f6610bb2565b005b34801561030457600080fd5b5061031f600480360381019061031a9190613b7d565b610d1e565b005b34801561032d57600080fd5b5061034860048036038101906103439190613b7d565b610f34565b6040516103559190613d62565b60405180910390f35b34801561036a57600080fd5b5061038560048036038101906103809190613b7d565b610f67565b6040516103929190613e9f565b60405180910390f35b3480156103a757600080fd5b506103c260048036038101906103bd9190613b7d565b6110c4565b6040516103cf9190613d62565b60405180910390f35b3480156103e457600080fd5b506103ff60048036038101906103fa9190613eed565b6110f7565b60405161040c9190613f91565b60405180910390f35b34801561042157600080fd5b5061043c60048036038101906104379190613b7d565b611236565b6040516104499190613d62565b60405180910390f35b34801561045e57600080fd5b5061047960048036038101906104749190613b7d565b611269565b6040516104869190613d62565b60405180910390f35b34801561049b57600080fd5b506104b660048036038101906104b19190613eed565b61129c565b6040516104c391906140ac565b60405180910390f35b3480156104d857600080fd5b506104e161147a565b005b3480156104ef57600080fd5b5061050a60048036038101906105059190613eed565b61148e565b60405161051791906141dc565b60405180910390f35b61053a60048036038101906105359190613b3d565b61165d565b005b61055660048036038101906105519190613b3d565b61178a565b005b34801561056457600080fd5b5061056d6118ad565b60405161057a9190613d62565b60405180910390f35b61059d60048036038101906105989190613b3d565b6118d6565b005b3480156105ab57600080fd5b506105c660048036038101906105c19190613b7d565b6119f9565b6040516105d795949392919061420d565b60405180910390f35b3480156105ec57600080fd5b5061060760048036038101906106029190613eed565b611a66565b6040516106149190614260565b60405180910390f35b34801561062957600080fd5b50610644600480360381019061063f9190613b7d565b611a7e565b6040516106539392919061428a565b60405180910390f35b34801561066857600080fd5b50610683600480360381019061067e91906142c1565b611ad3565b005b34801561069157600080fd5b506106ac60048036038101906106a79190613eed565b611c42565b6040516106b99190614521565b60405180910390f35b3480156106ce57600080fd5b506106e960048036038101906106e4919061468b565b611ec0565b005b3480156106f757600080fd5b50610712600480360381019061070d91906142c1565b612243565b005b34801561072057600080fd5b5061073b6004803603810190610736919061479c565b6123b2565b005b34801561074957600080fd5b50610764600480360381019061075f9190613eed565b612624565b005b34801561077257600080fd5b5061078d60048036038101906107889190613b7d565b6126a7565b6040516107a29998979695949392919061482f565b60405180910390f35b6107c560048036038101906107c09190613b3d565b61279a565b005b3480156107d357600080fd5b506107ee60048036038101906107e99190613b7d565b6128c8565b005b81600f600082815260200190815260200160002060009054906101000a900473ffffffffffffffffffffffffffffffffffffffff1673ffffffffffffffffffffffffffffffffffffffff163373ffffffffffffffffffffffffffffffffffffffff161461085c57600080fd5b601754600c8481548110610873576108726148c3565b5b906000526020600020906002020160010160009054906101000a900463ffffffff168360ff166108a39190614921565b63ffffffff166108b3919061495f565b34146108be57600080fd5b8160ff16600c84815481106108d6576108d56148c3565b5b906000526020600020906002020160010160008282829054906101000a900463ffffffff1661090591906149b9565b92506101000a81548163ffffffff021916908363ffffffff160217905550505050565b601e6020528060005260406000206000915090508060000154908060010154908060020154908060030154908060050154908060060160009054906101000a900460ff16905086565b601d818154811061098157600080fd5b9060005260206000209060060201600091509050806000015490806001015490806002015490806003016040518060600160405290816000820154815260200160018201548152602001600282015481525050905084565b600a8082815481106109ee576109ed6148c3565b5b906000526020600020906009020160040160009054906101000a900460ff16610a179190614a22565b60ff16601854610a27919061495f565b34148015610a9b57506001600a8281548110610a4657610a456148c3565b5b906000526020600020906009020160040160009054906101000a900460ff16610a6f9190614a53565b60ff16600a8281548110610a8657610a856148c3565b5b90600052602060002090600902016006015410155b610aa457600080fd5b600a8181548110610ab857610ab76148c3565b5b9060005260206000209060090201600401600081819054906101000a900460ff1680929190610ae690614a8a565b91906101000a81548160ff021916908360ff160217905550506000600a8281548110610b1557610b146148c3565b5b9060005260206000209060090201600601819055506000600a8281548110610b4057610b3f6148c3565b5b90600052602060002090600902016007018190555050565b600c8181548110610b6857600080fd5b90600052602060002090600202016000915090508060000154908060010160009054906101000a900463ffffffff16908060010160049054906101000a900463ffffffff16905083565b60003390506000600180549050905060016040518060a00160405280838152602001600060149054906101000a900460ff1660ff168152602001600060159054906101000a900460ff1660ff168152602001600060149054906101000a900460ff1660ff1681526020014263ffffffff1681525090806001815401808255809150506001900390600052602060002090600302016000909190919091506000820151816000015560208201518160010160006101000a81548160ff021916908360ff16021790555060408201518160010160016101000a81548160ff021916908360ff16021790555060608201518160010160026101000a81548160ff021916908360ff160217905550608082015181600201555050816002600083815260200190815260200160002060006101000a81548173ffffffffffffffffffffffffffffffffffffffff021916908373ffffffffffffffffffffffffffffffffffffffff1602179055505050565b80600d600082815260200190815260200160002060009054906101000a900473ffffffffffffffffffffffffffffffffffffffff1673ffffffffffffffffffffffffffffffffffffffff163373ffffffffffffffffffffffffffffffffffffffff1614610d8a57600080fd5b6000600a808481548110610da157610da06148c3565b5b906000526020600020906009020160040160009054906101000a900460ff16610dca9190614a22565b600a610dd69190614ab3565b6002610de29190614ae7565b9050610dee8382612f29565b8015610e5d57508060ff16600c600a8581548110610e0f57610e0e6148c3565b5b90600052602060002090600902016003015481548110610e3257610e316148c3565b5b906000526020600020906002020160010160049054906101000a900463ffffffff1663ffffffff1610155b610e6657600080fd5b8060ff16600c600a8581548110610e8057610e7f6148c3565b5b90600052602060002090600902016003015481548110610ea357610ea26148c3565b5b906000526020600020906002020160010160048282829054906101000a900463ffffffff16610ed29190614b22565b92506101000a81548163ffffffff021916908363ffffffff1602179055508060ff16600a8481548110610f0857610f076148c3565b5b90600052602060002090600902016005016000828254610f289190614b56565b92505081905550505050565b600d6020528060005260406000206000915054906101000a900473ffffffffffffffffffffffffffffffffffffffff1681565b6060601e600083815260200190815260200160002060060160009054906101000a900460ff16610fcc576040517f08c379a0000000000000000000000000000000000000000000000000000000008152600401610fc390614bf8565b60405180910390fd5b601e6000838152602001908152602001600020600401805480602002602001604051908101604052809291908181526020016000905b828210156110b957838290600052602060002090600302016040518060800160405290816000820160009054906101000a900473ffffffffffffffffffffffffffffffffffffffff1673ffffffffffffffffffffffffffffffffffffffff1673ffffffffffffffffffffffffffffffffffffffff1681526020016000820160149054906101000a900460ff161515151581526020016001820154815260200160028201548152505081526020019060010190611002565b505050509050919050565b600f6020528060005260406000206000915054906101000a900473ffffffffffffffffffffffffffffffffffffffff1681565b6110ff61393b565b600080600090505b600180549050811015611195578373ffffffffffffffffffffffffffffffffffffffff166002600083815260200190815260200160002060009054906101000a900473ffffffffffffffffffffffffffffffffffffffff1673ffffffffffffffffffffffffffffffffffffffff160361118257809150611195565b808061118d90614c18565b915050611107565b50600181815481106111aa576111a96148c3565b5b90600052602060002090600302016040518060a0016040529081600082015481526020016001820160009054906101000a900460ff1660ff1660ff1681526020016001820160019054906101000a900460ff1660ff1660ff1681526020016001820160029054906101000a900460ff1660ff1660ff168152602001600282015481525050915050919050565b60026020528060005260406000206000915054906101000a900473ffffffffffffffffffffffffffffffffffffffff1681565b600e6020528060005260406000206000915054906101000a900473ffffffffffffffffffffffffffffffffffffffff1681565b60606000601160008473ffffffffffffffffffffffffffffffffffffffff1673ffffffffffffffffffffffffffffffffffffffff1681526020019081526020016000205467ffffffffffffffff8111156112f9576112f8614548565b5b60405190808252806020026020018201604052801561133257816020015b61131f613973565b8152602001906001900390816113175790505b5090506000805b600c8054905081101561146f578473ffffffffffffffffffffffffffffffffffffffff16600f600083815260200190815260200160002060009054906101000a900473ffffffffffffffffffffffffffffffffffffffff1673ffffffffffffffffffffffffffffffffffffffff160361145c57600c81815481106113c0576113bf6148c3565b5b9060005260206000209060020201604051806060016040529081600082015481526020016001820160009054906101000a900463ffffffff1663ffffffff1663ffffffff1681526020016001820160049054906101000a900463ffffffff1663ffffffff1663ffffffff1681525050838381518110611442576114416148c3565b5b6020026020010181905250818061145890614c18565b9250505b808061146790614c18565b915050611339565b508192505050919050565b6114826130f6565b61148c6000613174565b565b60606000601160008473ffffffffffffffffffffffffffffffffffffffff1673ffffffffffffffffffffffffffffffffffffffff1681526020019081526020016000205467ffffffffffffffff8111156114eb576114ea614548565b5b60405190808252806020026020018201604052801561152457816020015b6115116139a0565b8152602001906001900390816115095790505b5090506000805b600b80549050811015611652578473ffffffffffffffffffffffffffffffffffffffff16600e600083815260200190815260200160002060009054906101000a900473ffffffffffffffffffffffffffffffffffffffff1673ffffffffffffffffffffffffffffffffffffffff160361163f57600b81815481106115b2576115b16148c3565b5b9060005260206000209060020201604051806060016040529081600082015481526020016001820160009054906101000a900461ffff1661ffff1661ffff1681526020016001820160029054906101000a900460ff1660ff1660ff1681525050838381518110611625576116246148c3565b5b6020026020010181905250818061163b90614c18565b9250505b808061164a90614c18565b91505061152b565b508192505050919050565b81600e600082815260200190815260200160002060009054906101000a900473ffffffffffffffffffffffffffffffffffffffff1673ffffffffffffffffffffffffffffffffffffffff163373ffffffffffffffffffffffffffffffffffffffff16146116c957600080fd5b600b83815481106116dd576116dc6148c3565b5b906000526020600020906002020160010160029054906101000a900460ff16600a6117089190614ab3565b60026117149190614d93565b601654611721919061495f565b341461172c57600080fd5b81600b8481548110611741576117406148c3565b5b906000526020600020906002020160010160028282829054906101000a900460ff1661176d9190614ab3565b92506101000a81548160ff021916908360ff160217905550505050565b816002600082815260200190815260200160002060009054906101000a900473ffffffffffffffffffffffffffffffffffffffff1673ffffffffffffffffffffffffffffffffffffffff163373ffffffffffffffffffffffffffffffffffffffff16146117f657600080fd5b6014546001848154811061180d5761180c6148c3565b5b906000526020600020906003020160010160019054906101000a900460ff16836118379190614ae7565b60ff16611844919061495f565b341461184f57600080fd5b8160018481548110611864576118636148c3565b5b906000526020600020906003020160010160018282829054906101000a900460ff166118909190614a53565b92506101000a81548160ff021916908360ff160217905550505050565b60008060009054906101000a900473ffffffffffffffffffffffffffffffffffffffff16905090565b816002600082815260200190815260200160002060009054906101000a900473ffffffffffffffffffffffffffffffffffffffff1673ffffffffffffffffffffffffffffffffffffffff163373ffffffffffffffffffffffffffffffffffffffff161461194257600080fd5b60135460018481548110611959576119586148c3565b5b906000526020600020906003020160010160009054906101000a900460ff16836119839190614ae7565b60ff16611990919061495f565b341461199b57600080fd5b81600184815481106119b0576119af6148c3565b5b906000526020600020906003020160010160008282829054906101000a900460ff166119dc9190614a53565b92506101000a81548160ff021916908360ff160217905550505050565b60018181548110611a0957600080fd5b90600052602060002090600302016000915090508060000154908060010160009054906101000a900460ff16908060010160019054906101000a900460ff16908060010160029054906101000a900460ff16908060020154905085565b60106020528060005260406000206000915090505481565b600b8181548110611a8e57600080fd5b90600052602060002090600202016000915090508060000154908060010160009054906101000a900461ffff16908060010160029054906101000a900460ff16905083565b80600e600082815260200190815260200160002060009054906101000a900473ffffffffffffffffffffffffffffffffffffffff1673ffffffffffffffffffffffffffffffffffffffff163373ffffffffffffffffffffffffffffffffffffffff1614611b3f57600080fd5b82600d600082815260200190815260200160002060009054906101000a900473ffffffffffffffffffffffffffffffffffffffff1673ffffffffffffffffffffffffffffffffffffffff163373ffffffffffffffffffffffffffffffffffffffff1614611bab57600080fd5b82600a8581548110611bc057611bbf6148c3565b5b90600052602060002090600902016002015403611c12576040517f08c379a0000000000000000000000000000000000000000000000000000000008152600401611c0990614e2a565b60405180910390fd5b82600a8581548110611c2757611c266148c3565b5b90600052602060002090600902016002018190555050505050565b60606000601060008473ffffffffffffffffffffffffffffffffffffffff1673ffffffffffffffffffffffffffffffffffffffff1681526020019081526020016000205467ffffffffffffffff811115611c9f57611c9e614548565b5b604051908082528060200260200182016040528015611cd857816020015b611cc56139c8565b815260200190600190039081611cbd5790505b5090506000805b600c80549050811015611eb5578473ffffffffffffffffffffffffffffffffffffffff16600d600083815260200190815260200160002060009054906101000a900473ffffffffffffffffffffffffffffffffffffffff1673ffffffffffffffffffffffffffffffffffffffff1603611ea257600a8181548110611d6657611d656148c3565b5b906000526020600020906009020160405180610120016040529081600082018054611d9090614e79565b80601f0160208091040260200160405190810160405280929190818152602001828054611dbc90614e79565b8015611e095780601f10611dde57610100808354040283529160200191611e09565b820191906000526020600020905b815481529060010190602001808311611dec57829003601f168201915b505050505081526020016001820154815260200160028201548152602001600382015481526020016004820160009054906101000a900460ff1660ff1660ff168152602001600582015481526020016006820154815260200160078201548152602001600882015481525050838381518110611e8857611e876148c3565b5b60200260200101819052508180611e9e90614c18565b9250505b8080611ead90614c18565b915050611cdf565b508192505050919050565b81601a60003373ffffffffffffffffffffffffffffffffffffffff1673ffffffffffffffffffffffffffffffffffffffff1681526020019081526020016000205414611f41576040517f08c379a0000000000000000000000000000000000000000000000000000000008152600401611f3890614ef6565b60405180910390fd5b6000601e6000848152602001908152602001600020600201549050600073__PDDLib________________________________639c63eb2e83856040518363ffffffff1660e01b8152600401611f97929190614fe3565b602060405180830381865af4158015611fb4573d6000803e3d6000fd5b505050506040513d601f19601f82011682018060405250810190611fd8919061503f565b9050600060405180608001604052803373ffffffffffffffffffffffffffffffffffffffff1681526020018315158152602001428152602001601b60003373ffffffffffffffffffffffffffffffffffffffff1673ffffffffffffffffffffffffffffffffffffffff1681526020019081526020016000205481525090506000601e600087815260200190815260200160002090508060040182908060018154018082558091505060019003906000526020600020906003020160009091909190915060008201518160000160006101000a81548173ffffffffffffffffffffffffffffffffffffffff021916908373ffffffffffffffffffffffffffffffffffffffff16021790555060208201518160000160146101000a81548160ff02191690831515021790555060408201518160010155606082015181600201555050601e600087815260200190815260200160002060000154601e6000888152602001908152602001600020600401805490500361223b577f67acaceb58ff1ad2aa8b3069f69c4cd076824e06a09184b75fb197ead7040be78660405161217d9190614260565b60405180910390a16001601e600088815260200190815260200160002060060160006101000a81548160ff021916908315150217905550601a60003373ffffffffffffffffffffffffffffffffffffffff1673ffffffffffffffffffffffffffffffffffffffff16815260200190815260200160002060009055601b60003373ffffffffffffffffffffffffffffffffffffffff1673ffffffffffffffffffffffffffffffffffffffff168152602001908152602001600020600090555b505050505050565b80600f600082815260200190815260200160002060009054906101000a900473ffffffffffffffffffffffffffffffffffffffff1673ffffffffffffffffffffffffffffffffffffffff163373ffffffffffffffffffffffffffffffffffffffff16146122af57600080fd5b82600d600082815260200190815260200160002060009054906101000a900473ffffffffffffffffffffffffffffffffffffffff1673ffffffffffffffffffffffffffffffffffffffff163373ffffffffffffffffffffffffffffffffffffffff161461231b57600080fd5b82600a85815481106123305761232f6148c3565b5b90600052602060002090600902016003015403612382576040517f08c379a0000000000000000000000000000000000000000000000000000000008152600401612379906150b8565b60405180910390fd5b82600a8581548110612397576123966148c3565b5b90600052602060002090600902016003018190555050505050565b6000601060003373ffffffffffffffffffffffffffffffffffffffff1673ffffffffffffffffffffffffffffffffffffffff16815260200190815260200160002054146123fe57600080fd5b60008161240a42613238565b60405160200161241b929190615114565b604051602081830303815290604052905060008160405160200161243f9190615138565b6040516020818303038152906040528051906020012060001c90506000612464613306565b905060006124706134a9565b90506000600a805490509050600a604051806101200160405280888152602001868152602001858152602001848152602001600160ff168152602001600081526020016000815260200160008152602001838152509080600181540180825580915050600190039060005260206000209060090201600090919091909150600082015181600001908051906020019061250a929190613a17565b5060208201518160010155604082015181600201556060820151816003015560808201518160040160006101000a81548160ff021916908360ff16021790555060a0820151816005015560c0820151816006015560e082015181600701556101008201518160080155505033600d600083815260200190815260200160002060006101000a81548173ffffffffffffffffffffffffffffffffffffffff021916908373ffffffffffffffffffffffffffffffffffffffff160217905550601060003373ffffffffffffffffffffffffffffffffffffffff1673ffffffffffffffffffffffffffffffffffffffff168152602001908152602001600020600081548092919061261790614c18565b9190505550505050505050565b61262c6130f6565b600073ffffffffffffffffffffffffffffffffffffffff168173ffffffffffffffffffffffffffffffffffffffff160361269b576040517f08c379a0000000000000000000000000000000000000000000000000000000008152600401612692906151c1565b60405180910390fd5b6126a481613174565b50565b600a81815481106126b757600080fd5b90600052602060002090600902016000915090508060000180546126da90614e79565b80601f016020809104026020016040519081016040528092919081815260200182805461270690614e79565b80156127535780601f1061272857610100808354040283529160200191612753565b820191906000526020600020905b81548152906001019060200180831161273657829003601f168201915b5050505050908060010154908060020154908060030154908060040160009054906101000a900460ff16908060050154908060060154908060070154908060080154905089565b81600e600082815260200190815260200160002060009054906101000a900473ffffffffffffffffffffffffffffffffffffffff1673ffffffffffffffffffffffffffffffffffffffff163373ffffffffffffffffffffffffffffffffffffffff161461280657600080fd5b601554600b848154811061281d5761281c6148c3565b5b906000526020600020906002020160010160009054906101000a900461ffff168360ff1661284b91906151e1565b61ffff16612859919061495f565b341461286457600080fd5b8160ff16600b848154811061287c5761287b6148c3565b5b906000526020600020906002020160010160008282829054906101000a900461ffff166128a9919061521d565b92506101000a81548161ffff021916908361ffff160217905550505050565b80600d600082815260200190815260200160002060009054906101000a900473ffffffffffffffffffffffffffffffffffffffff1673ffffffffffffffffffffffffffffffffffffffff163373ffffffffffffffffffffffffffffffffffffffff161461293457600080fd5b6000805b601d80549050811015612d7457601d8181548110612959576129586148c3565b5b9060005260206000209060060201600201546001600a808781548110612982576129816148c3565b5b906000526020600020906009020160040160009054906101000a900460ff166129ab9190614a22565b6129b59190614a53565b60ff1603612d615760019150601d81815481106129d5576129d46148c3565b5b906000526020600020906006020160000154601a60003373ffffffffffffffffffffffffffffffffffffffff1673ffffffffffffffffffffffffffffffffffffffff1681526020019081526020016000208190555083601b60003373ffffffffffffffffffffffffffffffffffffffff1673ffffffffffffffffffffffffffffffffffffffff16815260200190815260200160002081905550601d8181548110612a8257612a816148c3565b5b90600052602060002090600602016001016000815480929190612aa490614c18565b9190505550601d8181548110612abd57612abc6148c3565b5b906000526020600020906006020160030160000154601d8281548110612ae657612ae56148c3565b5b90600052602060002090600602016001015403612d6057600073__PDDLib________________________________63c037e545601d8481548110612b2d57612b2c6148c3565b5b906000526020600020906006020160030160020154601d8581548110612b5657612b556148c3565b5b9060005260206000209060060201600301600001546040518363ffffffff1660e01b8152600401612b88929190615255565b602060405180830381865af4158015612ba5573d6000803e3d6000fd5b505050506040513d601f19601f82011682018060405250810190612bc99190615293565b90506000601e6000601d8581548110612be557612be46148c3565b5b90600052602060002090600602016000015481526020019081526020016000209050601d8381548110612c1b57612c1a6148c3565b5b9060005260206000209060060201600301600001548160000181905550601d8381548110612c4c57612c4b6148c3565b5b90600052602060002090600602016002015481600101819055508181600201819055504281600301819055506000816005018190555060008160060160006101000a81548160ff0219169083151502179055507f2838ebeee7dc83fac85a3d6dbca0c0b6771591ada8b00f97371aa6611e631f9c601d8481548110612cd457612cd36148c3565b5b90600052602060002090600602016000015483604051612cf59291906152c0565b60405180910390a1601d8381548110612d1157612d106148c3565b5b9060005260206000209060060201600080820160009055600182016000905560028201600090556003820160008082016000905560018201600090556002820160009055505050505050612d74565b5b8080612d6c90614c18565b915050612938565b508015612d815750612f25565b6000601c6000815480929190612d9690614c18565b919050559050600060198054905042612daf91906152e9565b905081601a60003373ffffffffffffffffffffffffffffffffffffffff1673ffffffffffffffffffffffffffffffffffffffff16815260200190815260200160002081905550601d6040518060800160405280848152602001600181526020016001600a808a81548110612e2657612e256148c3565b5b906000526020600020906009020160040160009054906101000a900460ff16612e4f9190614a22565b612e599190614a53565b60ff16815260200160198481548110612e7557612e746148c3565b5b906000526020600020906003020160405180606001604052908160008201548152602001600182015481526020016002820154815250508152509080600181540180825580915050600190039060005260206000209060060201600090919091909150600082015181600001556020820151816001015560408201518160020155606082015181600301600082015181600001556020820151816001015560408201518160020155505050505050505b5050565b600080612f68600d600086815260200190815260200160002060009054906101000a900473ffffffffffffffffffffffffffffffffffffffff166110f7565b9050612f77816000015161364c565b6000600a8581548110612f8d57612f8c6148c3565b5b9060005260206000209060090201600201549050600060019050600a85600b8481548110612fbe57612fbd6148c3565b5b906000526020600020906002020160010160029054906101000a900460ff16612fe79190614ae7565b60ff161061303c57600a600b8381548110613005576130046148c3565b5b906000526020600020906002020160010160029054906101000a900460ff168661302f9190614ae7565b6130399190614a22565b90505b8060ff166001846000015181548110613058576130576148c3565b5b906000526020600020906003020160010160029054906101000a900460ff1660ff16106130e857806001846000015181548110613098576130976148c3565b5b906000526020600020906003020160010160028282829054906101000a900460ff166130c49190614ab3565b92506101000a81548160ff021916908360ff160217905550600193505050506130f0565b600093505050505b92915050565b6130fe6137c7565b73ffffffffffffffffffffffffffffffffffffffff1661311c6118ad565b73ffffffffffffffffffffffffffffffffffffffff1614613172576040517f08c379a000000000000000000000000000000000000000000000000000000000815260040161316990615366565b60405180910390fd5b565b60008060009054906101000a900473ffffffffffffffffffffffffffffffffffffffff169050816000806101000a81548173ffffffffffffffffffffffffffffffffffffffff021916908373ffffffffffffffffffffffffffffffffffffffff1602179055508173ffffffffffffffffffffffffffffffffffffffff168173ffffffffffffffffffffffffffffffffffffffff167f8be0079c531659141344cd1fd0a4f28419497f9722a3daafe3b4186f6b6457e060405160405180910390a35050565b606060006001613247846137cf565b01905060008167ffffffffffffffff81111561326657613265614548565b5b6040519080825280601f01601f1916602001820160405280156132985781602001600182028036833780820191505090505b509050600082602001820190505b6001156132fb578080600190039150507f3031323334353637383961626364656600000000000000000000000000000000600a86061a8153600a85816132ef576132ee6149f3565b5b049450600085036132a6575b819350505050919050565b6000806003546004546133199190615386565b4261332491906152e9565b6003546133319190614b56565b905060006008600081548092919061334890614c18565b919050559050600b60405180606001604052808381526020018461ffff168152602001600560009054906101000a900460ff1660ff1681525090806001815401808255809150506001900390600052602060002090600202016000909190919091506000820151816000015560208201518160010160006101000a81548161ffff021916908361ffff16021790555060408201518160010160026101000a81548160ff021916908360ff1602179055505050601160003373ffffffffffffffffffffffffffffffffffffffff1673ffffffffffffffffffffffffffffffffffffffff168152602001908152602001600020600081548092919061344a90614c18565b919050555033600e600083815260200190815260200160002060006101000a81548173ffffffffffffffffffffffffffffffffffffffff021916908373ffffffffffffffffffffffffffffffffffffffff160217905550809250505090565b6000806006546007546134bc9190615386565b426134c791906152e9565b6006546134d49190614b56565b90506000600960008154809291906134eb90614c18565b919050559050600c60405180606001604052808381526020018463ffffffff1681526020018463ffffffff1681525090806001815401808255809150506001900390600052602060002090600202016000909190919091506000820151816000015560208201518160010160006101000a81548163ffffffff021916908363ffffffff16021790555060408201518160010160046101000a81548163ffffffff021916908363ffffffff1602179055505050601260003373ffffffffffffffffffffffffffffffffffffffff1673ffffffffffffffffffffffffffffffffffffffff16815260200190815260200160002060008154809291906135ed90614c18565b919050555033600f600083815260200190815260200160002060006101000a81548173ffffffffffffffffffffffffffffffffffffffff021916908373ffffffffffffffffffffffffffffffffffffffff160217905550809250505090565b60004290506000610e106001848154811061366a576136696148c3565b5b906000526020600020906003020160020154836136879190615386565b61369191906153ba565b90506000600184815481106136a9576136a86148c3565b5b906000526020600020906003020160010160019054906101000a900460ff1660ff16826136d6919061495f565b600185815481106136ea576136e96148c3565b5b906000526020600020906003020160010160029054906101000a900460ff1660ff166137169190614b56565b905061375a6001858154811061372f5761372e6148c3565b5b906000526020600020906003020160010160009054906101000a900460ff1660ff168260ff16613922565b6001858154811061376e5761376d6148c3565b5b906000526020600020906003020160010160026101000a81548160ff021916908360ff16021790555082600185815481106137ac576137ab6148c3565b5b90600052602060002090600302016002018190555050505050565b600033905090565b600080600090507a184f03e93ff9f4daa797ed6e38ed64bf6a1f010000000000000000831061382d577a184f03e93ff9f4daa797ed6e38ed64bf6a1f0100000000000000008381613823576138226149f3565b5b0492506040810190505b6d04ee2d6d415b85acef8100000000831061386a576d04ee2d6d415b85acef810000000083816138605761385f6149f3565b5b0492506020810190505b662386f26fc10000831061389957662386f26fc10000838161388f5761388e6149f3565b5b0492506010810190505b6305f5e10083106138c2576305f5e10083816138b8576138b76149f3565b5b0492506008810190505b61271083106138e75761271083816138dd576138dc6149f3565b5b0492506004810190505b6064831061390a5760648381613900576138ff6149f3565b5b0492506002810190505b600a8310613919576001810190505b80915050919050565b60008183106139315781613933565b825b905092915050565b6040518060a0016040528060008152602001600060ff168152602001600060ff168152602001600060ff168152602001600081525090565b604051806060016040528060008152602001600063ffffffff168152602001600063ffffffff1681525090565b604051806060016040528060008152602001600061ffff168152602001600060ff1681525090565b60405180610120016040528060608152602001600081526020016000815260200160008152602001600060ff168152602001600081526020016000815260200160008152602001600081525090565b828054613a2390614e79565b90600052602060002090601f016020900481019282613a455760008555613a8c565b82601f10613a5e57805160ff1916838001178555613a8c565b82800160010185558215613a8c579182015b82811115613a8b578251825591602001919060010190613a70565b5b509050613a999190613a9d565b5090565b5b80821115613ab6576000816000905550600101613a9e565b5090565b6000604051905090565b600080fd5b600080fd5b6000819050919050565b613ae181613ace565b8114613aec57600080fd5b50565b600081359050613afe81613ad8565b92915050565b600060ff82169050919050565b613b1a81613b04565b8114613b2557600080fd5b50565b600081359050613b3781613b11565b92915050565b60008060408385031215613b5457613b53613ac4565b5b6000613b6285828601613aef565b9250506020613b7385828601613b28565b9150509250929050565b600060208284031215613b9357613b92613ac4565b5b6000613ba184828501613aef565b91505092915050565b613bb381613ace565b82525050565b60008115159050919050565b613bce81613bb9565b82525050565b600060c082019050613be96000830189613baa565b613bf66020830188613baa565b613c036040830187613baa565b613c106060830186613baa565b613c1d6080830185613baa565b613c2a60a0830184613bc5565b979650505050505050565b613c3e81613ace565b82525050565b606082016000820151613c5a6000850182613c35565b506020820151613c6d6020850182613c35565b506040820151613c806040850182613c35565b50505050565b600060c082019050613c9b6000830187613baa565b613ca86020830186613baa565b613cb56040830185613baa565b613cc26060830184613c44565b95945050505050565b600063ffffffff82169050919050565b613ce481613ccb565b82525050565b6000606082019050613cff6000830186613baa565b613d0c6020830185613cdb565b613d196040830184613cdb565b949350505050565b600073ffffffffffffffffffffffffffffffffffffffff82169050919050565b6000613d4c82613d21565b9050919050565b613d5c81613d41565b82525050565b6000602082019050613d776000830184613d53565b92915050565b600081519050919050565b600082825260208201905092915050565b6000819050602082019050919050565b613db281613d41565b82525050565b613dc181613bb9565b82525050565b608082016000820151613ddd6000850182613da9565b506020820151613df06020850182613db8565b506040820151613e036040850182613c35565b506060820151613e166060850182613c35565b50505050565b6000613e288383613dc7565b60808301905092915050565b6000602082019050919050565b6000613e4c82613d7d565b613e568185613d88565b9350613e6183613d99565b8060005b83811015613e92578151613e798882613e1c565b9750613e8483613e34565b925050600181019050613e65565b5085935050505092915050565b60006020820190508181036000830152613eb98184613e41565b905092915050565b613eca81613d41565b8114613ed557600080fd5b50565b600081359050613ee781613ec1565b92915050565b600060208284031215613f0357613f02613ac4565b5b6000613f1184828501613ed8565b91505092915050565b613f2381613b04565b82525050565b60a082016000820151613f3f6000850182613c35565b506020820151613f526020850182613f1a565b506040820151613f656040850182613f1a565b506060820151613f786060850182613f1a565b506080820151613f8b6080850182613c35565b50505050565b600060a082019050613fa66000830184613f29565b92915050565b600081519050919050565b600082825260208201905092915050565b6000819050602082019050919050565b613fe181613ccb565b82525050565b606082016000820151613ffd6000850182613c35565b5060208201516140106020850182613fd8565b5060408201516140236040850182613fd8565b50505050565b60006140358383613fe7565b60608301905092915050565b6000602082019050919050565b600061405982613fac565b6140638185613fb7565b935061406e83613fc8565b8060005b8381101561409f5781516140868882614029565b975061409183614041565b925050600181019050614072565b5085935050505092915050565b600060208201905081810360008301526140c6818461404e565b905092915050565b600081519050919050565b600082825260208201905092915050565b6000819050602082019050919050565b600061ffff82169050919050565b614111816140fa565b82525050565b60608201600082015161412d6000850182613c35565b5060208201516141406020850182614108565b5060408201516141536040850182613f1a565b50505050565b60006141658383614117565b60608301905092915050565b6000602082019050919050565b6000614189826140ce565b61419381856140d9565b935061419e836140ea565b8060005b838110156141cf5781516141b68882614159565b97506141c183614171565b9250506001810190506141a2565b5085935050505092915050565b600060208201905081810360008301526141f6818461417e565b905092915050565b61420781613b04565b82525050565b600060a0820190506142226000830188613baa565b61422f60208301876141fe565b61423c60408301866141fe565b61424960608301856141fe565b6142566080830184613baa565b9695505050505050565b60006020820190506142756000830184613baa565b92915050565b614284816140fa565b82525050565b600060608201905061429f6000830186613baa565b6142ac602083018561427b565b6142b960408301846141fe565b949350505050565b600080604083850312156142d8576142d7613ac4565b5b60006142e685828601613aef565b92505060206142f785828601613aef565b9150509250929050565b600081519050919050565b600082825260208201905092915050565b6000819050602082019050919050565b600081519050919050565b600082825260208201905092915050565b60005b8381101561436757808201518184015260208101905061434c565b83811115614376576000848401525b50505050565b6000601f19601f8301169050919050565b60006143988261432d565b6143a28185614338565b93506143b2818560208601614349565b6143bb8161437c565b840191505092915050565b60006101208301600083015184820360008601526143e4828261438d565b91505060208301516143f96020860182613c35565b50604083015161440c6040860182613c35565b50606083015161441f6060860182613c35565b5060808301516144326080860182613f1a565b5060a083015161444560a0860182613c35565b5060c083015161445860c0860182613c35565b5060e083015161446b60e0860182613c35565b50610100830151614480610100860182613c35565b508091505092915050565b600061449783836143c6565b905092915050565b6000602082019050919050565b60006144b782614301565b6144c1818561430c565b9350836020820285016144d38561431d565b8060005b8581101561450f57848403895281516144f0858261448b565b94506144fb8361449f565b925060208a019950506001810190506144d7565b50829750879550505050505092915050565b6000602082019050818103600083015261453b81846144ac565b905092915050565b600080fd5b7f4e487b7100000000000000000000000000000000000000000000000000000000600052604160045260246000fd5b6145808261437c565b810181811067ffffffffffffffff8211171561459f5761459e614548565b5b80604052505050565b60006145b2613aba565b90506145be8282614577565b919050565b600067ffffffffffffffff8211156145de576145dd614548565b5b602082029050602081019050919050565b600080fd5b6000614607614602846145c3565b6145a8565b9050808382526020820190506020840283018581111561462a576146296145ef565b5b835b81811015614653578061463f8882613aef565b84526020840193505060208101905061462c565b5050509392505050565b600082601f83011261467257614671614543565b5b81356146828482602086016145f4565b91505092915050565b600080604083850312156146a2576146a1613ac4565b5b60006146b085828601613aef565b925050602083013567ffffffffffffffff8111156146d1576146d0613ac9565b5b6146dd8582860161465d565b9150509250929050565b600080fd5b600067ffffffffffffffff82111561470757614706614548565b5b6147108261437c565b9050602081019050919050565b82818337600083830152505050565b600061473f61473a846146ec565b6145a8565b90508281526020810184848401111561475b5761475a6146e7565b5b61476684828561471d565b509392505050565b600082601f83011261478357614782614543565b5b813561479384826020860161472c565b91505092915050565b6000602082840312156147b2576147b1613ac4565b5b600082013567ffffffffffffffff8111156147d0576147cf613ac9565b5b6147dc8482850161476e565b91505092915050565b600082825260208201905092915050565b60006148018261432d565b61480b81856147e5565b935061481b818560208601614349565b6148248161437c565b840191505092915050565b600061012082019050818103600083015261484a818c6147f6565b9050614859602083018b613baa565b614866604083018a613baa565b6148736060830189613baa565b61488060808301886141fe565b61488d60a0830187613baa565b61489a60c0830186613baa565b6148a760e0830185613baa565b6148b5610100830184613baa565b9a9950505050505050505050565b7f4e487b7100000000000000000000000000000000000000000000000000000000600052603260045260246000fd5b7f4e487b7100000000000000000000000000000000000000000000000000000000600052601160045260246000fd5b600061492c82613ccb565b915061493783613ccb565b92508163ffffffff0483118215151615614954576149536148f2565b5b828202905092915050565b600061496a82613ace565b915061497583613ace565b9250817fffffffffffffffffffffffffffffffffffffffffffffffffffffffffffffffff04831182151516156149ae576149ad6148f2565b5b828202905092915050565b60006149c482613ccb565b91506149cf83613ccb565b92508263ffffffff038211156149e8576149e76148f2565b5b828201905092915050565b7f4e487b7100000000000000000000000000000000000000000000000000000000600052601260045260246000fd5b6000614a2d82613b04565b9150614a3883613b04565b925082614a4857614a476149f3565b5b828204905092915050565b6000614a5e82613b04565b9150614a6983613b04565b92508260ff03821115614a7f57614a7e6148f2565b5b828201905092915050565b6000614a9582613b04565b915060ff8203614aa857614aa76148f2565b5b600182019050919050565b6000614abe82613b04565b9150614ac983613b04565b925082821015614adc57614adb6148f2565b5b828203905092915050565b6000614af282613b04565b9150614afd83613b04565b92508160ff0483118215151615614b1757614b166148f2565b5b828202905092915050565b6000614b2d82613ccb565b9150614b3883613ccb565b925082821015614b4b57614b4a6148f2565b5b828203905092915050565b6000614b6182613ace565b9150614b6c83613ace565b9250827fffffffffffffffffffffffffffffffffffffffffffffffffffffffffffffffff03821115614ba157614ba06148f2565b5b828201905092915050565b7f726f6f6d206e6f7420636c6f7365640000000000000000000000000000000000600082015250565b6000614be2600f836147e5565b9150614bed82614bac565b602082019050919050565b60006020820190508181036000830152614c1181614bd5565b9050919050565b6000614c2382613ace565b91507fffffffffffffffffffffffffffffffffffffffffffffffffffffffffffffffff8203614c5557614c546148f2565b5b600182019050919050565b60008160011c9050919050565b6000808291508390505b6001851115614cb757808604811115614c9357614c926148f2565b5b6001851615614ca25780820291505b8081029050614cb085614c60565b9450614c77565b94509492505050565b600082614cd05760019050614d8c565b81614cde5760009050614d8c565b8160018114614cf45760028114614cfe57614d2d565b6001915050614d8c565b60ff841115614d1057614d0f6148f2565b5b8360020a915084821115614d2757614d266148f2565b5b50614d8c565b5060208310610133831016604e8410600b8410161715614d625782820a905083811115614d5d57614d5c6148f2565b5b614d8c565b614d6f8484846001614c6d565b92509050818404811115614d8657614d856148f2565b5b81810290505b9392505050565b6000614d9e82613ace565b9150614da983613b04565b9250614dd67fffffffffffffffffffffffffffffffffffffffffffffffffffffffffffffffff8484614cc0565b905092915050565b7f73616d6520656e67696e65000000000000000000000000000000000000000000600082015250565b6000614e14600b836147e5565b9150614e1f82614dde565b602082019050919050565b60006020820190508181036000830152614e4381614e07565b9050919050565b7f4e487b7100000000000000000000000000000000000000000000000000000000600052602260045260246000fd5b60006002820490506001821680614e9157607f821691505b602082108103614ea457614ea3614e4a565b5b50919050565b7f6e6f7420796f757220726f6f6d00000000000000000000000000000000000000600082015250565b6000614ee0600d836147e5565b9150614eeb82614eaa565b602082019050919050565b60006020820190508181036000830152614f0f81614ed3565b9050919050565b614f1f81613ace565b82525050565b600081519050919050565b600082825260208201905092915050565b6000819050602082019050919050565b614f5a81613ace565b82525050565b6000614f6c8383614f51565b60208301905092915050565b6000602082019050919050565b6000614f9082614f25565b614f9a8185614f30565b9350614fa583614f41565b8060005b83811015614fd6578151614fbd8882614f60565b9750614fc883614f78565b925050600181019050614fa9565b5085935050505092915050565b6000604082019050614ff86000830185614f16565b818103602083015261500a8184614f85565b90509392505050565b61501c81613bb9565b811461502757600080fd5b50565b60008151905061503981615013565b92915050565b60006020828403121561505557615054613ac4565b5b60006150638482850161502a565b91505092915050565b7f73616d6520636861737369730000000000000000000000000000000000000000600082015250565b60006150a2600c836147e5565b91506150ad8261506c565b602082019050919050565b600060208201905081810360008301526150d181615095565b9050919050565b600081905092915050565b60006150ee8261432d565b6150f881856150d8565b9350615108818560208601614349565b80840191505092915050565b600061512082856150e3565b915061512c82846150e3565b91508190509392505050565b600061514482846150e3565b915081905092915050565b7f4f776e61626c653a206e6577206f776e657220697320746865207a65726f206160008201527f6464726573730000000000000000000000000000000000000000000000000000602082015250565b60006151ab6026836147e5565b91506151b68261514f565b604082019050919050565b600060208201905081810360008301526151da8161519e565b9050919050565b60006151ec826140fa565b91506151f7836140fa565b92508161ffff0483118215151615615212576152116148f2565b5b828202905092915050565b6000615228826140fa565b9150615233836140fa565b92508261ffff0382111561524a576152496148f2565b5b828201905092915050565b600060408201905061526a6000830185614f16565b6152776020830184614f16565b9392505050565b60008151905061528d81613ad8565b92915050565b6000602082840312156152a9576152a8613ac4565b5b60006152b78482850161527e565b91505092915050565b60006040820190506152d56000830185613baa565b6152e26020830184613baa565b9392505050565b60006152f482613ace565b91506152ff83613ace565b92508261530f5761530e6149f3565b5b828206905092915050565b7f4f776e61626c653a2063616c6c6572206973206e6f7420746865206f776e6572600082015250565b60006153506020836147e5565b915061535b8261531a565b602082019050919050565b6000602082019050818103600083015261537f81615343565b9050919050565b600061539182613ace565b915061539c83613ace565b9250828210156153af576153ae6148f2565b5b828203905092915050565b60006153c582613ace565b91506153d083613ace565b9250826153e0576153df6149f3565b5b82820490509291505056fea2646970667358221220faeaa8b3d894e0e50041502095c576efacc9bf1c88a35ebe99bbd3dca03a805064736f6c634300080d0033",
  "immutableReferences": {},
  "source": "// SPDX-License-Identifier: MIT\npragma solidity ^0.8.13;\nimport \"./RaceHandler.sol\";\n\ncontract CarRacing is RaceHandler{\n\n    function _isEnoughFuel(uint _carId, uint8 duration) private returns(bool){\n        FuelStation memory station = getFuelStationByOwner(carToOwner[_carId]);\n        _refreshFuel(station.id);\n        uint engineId = cars[_carId].engineId;\n        uint8 liters= 1;\n        if (engines[engineId].consumtion * duration >= 10)\n            liters = duration * engines[engineId].consumtion / 10;\n\n        if (stations[station.id].currentFullness >= liters) {\n            stations[station.id].currentFullness -= liters;\n            return true;\n        }\n        else\n            return false;\n    }\n\n    function _refreshFuel(uint _fuelStationId) private {\n        uint curTime = block.timestamp;\n        uint wholeHours = (curTime - stations[_fuelStationId].lastUpdate) / 3600;\n        uint8 newFullness = uint8(stations[_fuelStationId].currentFullness + wholeHours * stations[_fuelStationId].productionPerHour);\n        stations[_fuelStationId].currentFullness = uint8(Math.min(stations[_fuelStationId].capacity, newFullness));\n        stations[_fuelStationId].lastUpdate = curTime;\n    }\n\n\n    function startRace(uint _carId) external onlyOwnerOfCar(_carId) {\n        uint8 durToNextCrossroad = 2 * (10 - cars[_carId].carLevel / 10);\n\n        require(_isEnoughFuel(_carId, durToNextCrossroad) && chassis[cars[_carId].chassisId].resource >= durToNextCrossroad);\n        // TODO\n\n        chassis[cars[_carId].chassisId].resource -= durToNextCrossroad;\n        cars[_carId].mileage += durToNextCrossroad;\n    }\n\n}",
  "sourcePath": "/Users/vvan/Programming/JavaScript/DriveSafely/contract/contracts/CarRacing.sol",
  "compiler": {
    "name": "solc",
    "version": "0.8.13+commit.abaa5c0e.Emscripten.clang"
  },
  "schemaVersion": "3.4.11",
  "updatedAt": "2023-01-08T15:51:32.214Z",
  "networkType": "ethereum",
  "devdoc": {
    "kind": "dev",
    "methods": {
      "owner()": {
        "details": "Returns the address of the current owner."
      },
      "renounceOwnership()": {
        "details": "Leaves the contract without owner. It will not be possible to call `onlyOwner` functions anymore. Can only be called by the current owner. NOTE: Renouncing ownership will leave the contract without an owner, thereby removing any functionality that is only available to the owner."
      },
      "transferOwnership(address)": {
        "details": "Transfers ownership of the contract to a new account (`newOwner`). Can only be called by the current owner."
      }
    },
    "version": 1
  },
  "userdoc": {
    "kind": "user",
    "methods": {},
    "version": 1
  }
}