{
  "contractName": "CarRacing",
  "abi": [
    {
      "anonymous": false,
      "inputs": [
        {
          "indexed": true,
          "internalType": "address",
          "name": "previousOwner",
          "type": "address"
        },
        {
          "indexed": true,
          "internalType": "address",
          "name": "newOwner",
          "type": "address"
        }
      ],
      "name": "OwnershipTransferred",
      "type": "event"
    },
    {
      "anonymous": false,
      "inputs": [
        {
          "indexed": false,
          "internalType": "uint256",
          "name": "roomId",
          "type": "uint256"
        }
      ],
      "name": "RoomClosed",
      "type": "event"
    },
    {
      "anonymous": false,
      "inputs": [
        {
          "indexed": false,
          "internalType": "uint256",
          "name": "roomId",
          "type": "uint256"
        },
        {
          "indexed": false,
          "internalType": "uint256",
          "name": "roomDNA",
          "type": "uint256"
        }
      ],
      "name": "RoomFull",
      "type": "event"
    },
    {
      "inputs": [
        {
          "internalType": "uint256",
          "name": "",
          "type": "uint256"
        }
      ],
      "name": "carToOwner",
      "outputs": [
        {
          "internalType": "address",
          "name": "",
          "type": "address"
        }
      ],
      "stateMutability": "view",
      "type": "function",
      "constant": true
    },
    {
      "inputs": [
        {
          "internalType": "uint256",
          "name": "",
          "type": "uint256"
        }
      ],
      "name": "cars",
      "outputs": [
        {
          "internalType": "string",
          "name": "model",
          "type": "string"
        },
        {
          "internalType": "uint256",
          "name": "vin",
          "type": "uint256"
        },
        {
          "internalType": "uint256",
          "name": "engineId",
          "type": "uint256"
        },
        {
          "internalType": "uint256",
          "name": "chassisId",
          "type": "uint256"
        },
        {
          "internalType": "uint8",
          "name": "carLevel",
          "type": "uint8"
        },
        {
          "internalType": "uint256",
          "name": "mileage",
          "type": "uint256"
        },
        {
          "internalType": "uint256",
          "name": "winCountOnCurrentLevel",
          "type": "uint256"
        },
        {
          "internalType": "uint256",
          "name": "lossCountOnCurrentLevel",
          "type": "uint256"
        },
        {
          "internalType": "uint256",
          "name": "id",
          "type": "uint256"
        }
      ],
      "stateMutability": "view",
      "type": "function",
      "constant": true
    },
    {
      "inputs": [
        {
          "internalType": "uint256",
          "name": "",
          "type": "uint256"
        }
      ],
      "name": "chassis",
      "outputs": [
        {
          "internalType": "uint256",
          "name": "id",
          "type": "uint256"
        },
        {
          "internalType": "uint32",
          "name": "durability",
          "type": "uint32"
        },
        {
          "internalType": "uint32",
          "name": "resource",
          "type": "uint32"
        }
      ],
      "stateMutability": "view",
      "type": "function",
      "constant": true
    },
    {
      "inputs": [
        {
          "internalType": "uint256",
          "name": "",
          "type": "uint256"
        }
      ],
      "name": "chassisToOwner",
      "outputs": [
        {
          "internalType": "address",
          "name": "",
          "type": "address"
        }
      ],
      "stateMutability": "view",
      "type": "function",
      "constant": true
    },
    {
      "inputs": [
        {
          "internalType": "uint256",
          "name": "roomId",
          "type": "uint256"
        },
        {
          "internalType": "uint256[]",
          "name": "answer",
          "type": "uint256[]"
        }
      ],
      "name": "commitAnswer",
      "outputs": [],
      "stateMutability": "nonpayable",
      "type": "function"
    },
    {
      "inputs": [
        {
          "internalType": "string",
          "name": "model",
          "type": "string"
        }
      ],
      "name": "createCar",
      "outputs": [],
      "stateMutability": "nonpayable",
      "type": "function"
    },
    {
      "inputs": [],
      "name": "createFuelStation",
      "outputs": [],
      "stateMutability": "nonpayable",
      "type": "function"
    },
    {
      "inputs": [
        {
          "internalType": "uint256",
          "name": "carId",
          "type": "uint256"
        },
        {
          "internalType": "uint256",
          "name": "chassisId",
          "type": "uint256"
        }
      ],
      "name": "detachChassis",
      "outputs": [],
      "stateMutability": "nonpayable",
      "type": "function"
    },
    {
      "inputs": [
        {
          "internalType": "uint256",
          "name": "carId",
          "type": "uint256"
        },
        {
          "internalType": "uint256",
          "name": "engineId",
          "type": "uint256"
        }
      ],
      "name": "detachEngine",
      "outputs": [],
      "stateMutability": "nonpayable",
      "type": "function"
    },
    {
      "inputs": [
        {
          "internalType": "uint256",
          "name": "",
          "type": "uint256"
        }
      ],
      "name": "engineToOwner",
      "outputs": [
        {
          "internalType": "address",
          "name": "",
          "type": "address"
        }
      ],
      "stateMutability": "view",
      "type": "function",
      "constant": true
    },
    {
      "inputs": [
        {
          "internalType": "uint256",
          "name": "",
          "type": "uint256"
        }
      ],
      "name": "engines",
      "outputs": [
        {
          "internalType": "uint256",
          "name": "id",
          "type": "uint256"
        },
        {
          "internalType": "uint16",
          "name": "horsePowers",
          "type": "uint16"
        },
        {
          "internalType": "uint8",
          "name": "consumtion",
          "type": "uint8"
        }
      ],
      "stateMutability": "view",
      "type": "function",
      "constant": true
    },
    {
      "inputs": [
        {
          "internalType": "uint256",
          "name": "carId",
          "type": "uint256"
        }
      ],
      "name": "findRoom",
      "outputs": [],
      "stateMutability": "nonpayable",
      "type": "function"
    },
    {
      "inputs": [
        {
          "internalType": "uint256",
          "name": "",
          "type": "uint256"
        }
      ],
      "name": "fuelStationToOwner",
      "outputs": [
        {
          "internalType": "address",
          "name": "",
          "type": "address"
        }
      ],
      "stateMutability": "view",
      "type": "function",
      "constant": true
    },
    {
      "inputs": [
        {
          "internalType": "address",
          "name": "_owner",
          "type": "address"
        }
      ],
      "name": "getCarsByOwner",
      "outputs": [
        {
          "components": [
            {
              "internalType": "string",
              "name": "model",
              "type": "string"
            },
            {
              "internalType": "uint256",
              "name": "vin",
              "type": "uint256"
            },
            {
              "internalType": "uint256",
              "name": "engineId",
              "type": "uint256"
            },
            {
              "internalType": "uint256",
              "name": "chassisId",
              "type": "uint256"
            },
            {
              "internalType": "uint8",
              "name": "carLevel",
              "type": "uint8"
            },
            {
              "internalType": "uint256",
              "name": "mileage",
              "type": "uint256"
            },
            {
              "internalType": "uint256",
              "name": "winCountOnCurrentLevel",
              "type": "uint256"
            },
            {
              "internalType": "uint256",
              "name": "lossCountOnCurrentLevel",
              "type": "uint256"
            },
            {
              "internalType": "uint256",
              "name": "id",
              "type": "uint256"
            }
          ],
          "internalType": "struct CarFactory.Car[]",
          "name": "",
          "type": "tuple[]"
        }
      ],
      "stateMutability": "view",
      "type": "function",
      "constant": true
    },
    {
      "inputs": [
        {
          "internalType": "address",
          "name": "_owner",
          "type": "address"
        }
      ],
      "name": "getChassisByOwner",
      "outputs": [
        {
          "components": [
            {
              "internalType": "uint256",
              "name": "id",
              "type": "uint256"
            },
            {
              "internalType": "uint32",
              "name": "durability",
              "type": "uint32"
            },
            {
              "internalType": "uint32",
              "name": "resource",
              "type": "uint32"
            }
          ],
          "internalType": "struct CarFactory.Chassis[]",
          "name": "",
          "type": "tuple[]"
        }
      ],
      "stateMutability": "view",
      "type": "function",
      "constant": true
    },
    {
      "inputs": [
        {
          "internalType": "uint256",
          "name": "roomId",
          "type": "uint256"
        }
      ],
      "name": "getClosedRoom",
      "outputs": [
        {
          "components": [
            {
              "internalType": "address",
              "name": "player",
              "type": "address"
            },
            {
              "internalType": "bool",
              "name": "correct",
              "type": "bool"
            },
            {
              "internalType": "uint256",
              "name": "time",
              "type": "uint256"
            },
            {
              "internalType": "uint256",
              "name": "carId",
              "type": "uint256"
            }
          ],
          "internalType": "struct RaceHandler.Answer[]",
          "name": "",
          "type": "tuple[]"
        }
      ],
      "stateMutability": "view",
      "type": "function",
      "constant": true
    },
    {
      "inputs": [
        {
          "internalType": "address",
          "name": "_owner",
          "type": "address"
        }
      ],
      "name": "getEnginesByOwner",
      "outputs": [
        {
          "components": [
            {
              "internalType": "uint256",
              "name": "id",
              "type": "uint256"
            },
            {
              "internalType": "uint16",
              "name": "horsePowers",
              "type": "uint16"
            },
            {
              "internalType": "uint8",
              "name": "consumtion",
              "type": "uint8"
            }
          ],
          "internalType": "struct CarFactory.Engine[]",
          "name": "",
          "type": "tuple[]"
        }
      ],
      "stateMutability": "view",
      "type": "function",
      "constant": true
    },
    {
      "inputs": [
        {
          "internalType": "address",
          "name": "_owner",
          "type": "address"
        }
      ],
      "name": "getFuelStationByOwner",
      "outputs": [
        {
          "components": [
            {
              "internalType": "uint256",
              "name": "id",
              "type": "uint256"
            },
            {
              "internalType": "uint8",
              "name": "capacity",
              "type": "uint8"
            },
            {
              "internalType": "uint8",
              "name": "productionPerHour",
              "type": "uint8"
            },
            {
              "internalType": "uint8",
              "name": "currentFullness",
              "type": "uint8"
            },
            {
              "internalType": "uint256",
              "name": "lastUpdate",
              "type": "uint256"
            }
          ],
          "internalType": "struct FuelStationFactory.FuelStation",
          "name": "",
          "type": "tuple"
        }
      ],
      "stateMutability": "view",
      "type": "function",
      "constant": true
    },
    {
      "inputs": [
        {
          "internalType": "uint256",
          "name": "",
          "type": "uint256"
        }
      ],
      "name": "idToStartedRooms",
      "outputs": [
        {
          "internalType": "uint256",
          "name": "numberPlayers",
          "type": "uint256"
        },
        {
          "internalType": "uint256",
          "name": "world",
          "type": "uint256"
        },
        {
          "internalType": "uint256",
          "name": "roomDNA",
          "type": "uint256"
        },
        {
          "internalType": "uint256",
          "name": "startTime",
          "type": "uint256"
        },
        {
          "internalType": "uint256",
          "name": "curAnswer",
          "type": "uint256"
        },
        {
          "internalType": "bool",
          "name": "closed",
          "type": "bool"
        }
      ],
      "stateMutability": "view",
      "type": "function",
      "constant": true
    },
    {
      "inputs": [
        {
          "internalType": "uint256",
          "name": "_carId",
          "type": "uint256"
        }
      ],
      "name": "levelUp",
      "outputs": [],
      "stateMutability": "payable",
      "type": "function",
      "payable": true
    },
    {
      "inputs": [
        {
          "internalType": "uint256",
          "name": "",
          "type": "uint256"
        }
      ],
      "name": "openedRooms",
      "outputs": [
        {
          "internalType": "uint256",
          "name": "id",
          "type": "uint256"
        },
        {
          "internalType": "uint256",
          "name": "playersEntered",
          "type": "uint256"
        },
        {
          "internalType": "uint256",
          "name": "world",
          "type": "uint256"
        },
        {
          "components": [
            {
              "internalType": "uint256",
              "name": "playersNeeded",
              "type": "uint256"
            },
            {
              "internalType": "uint256",
              "name": "roadsNum",
              "type": "uint256"
            },
            {
              "internalType": "uint256",
              "name": "crossId",
              "type": "uint256"
            }
          ],
          "internalType": "struct RaceHandler.Cross",
          "name": "cross",
          "type": "tuple"
        }
      ],
      "stateMutability": "view",
      "type": "function",
      "constant": true
    },
    {
      "inputs": [],
      "name": "owner",
      "outputs": [
        {
          "internalType": "address",
          "name": "",
          "type": "address"
        }
      ],
      "stateMutability": "view",
      "type": "function",
      "constant": true
    },
    {
      "inputs": [
        {
          "internalType": "address",
          "name": "",
          "type": "address"
        }
      ],
      "name": "ownerCarCount",
      "outputs": [
        {
          "internalType": "uint256",
          "name": "",
          "type": "uint256"
        }
      ],
      "stateMutability": "view",
      "type": "function",
      "constant": true
    },
    {
      "inputs": [],
      "name": "renounceOwnership",
      "outputs": [],
      "stateMutability": "nonpayable",
      "type": "function"
    },
    {
      "inputs": [
        {
          "internalType": "uint256",
          "name": "",
          "type": "uint256"
        }
      ],
      "name": "stations",
      "outputs": [
        {
          "internalType": "uint256",
          "name": "id",
          "type": "uint256"
        },
        {
          "internalType": "uint8",
          "name": "capacity",
          "type": "uint8"
        },
        {
          "internalType": "uint8",
          "name": "productionPerHour",
          "type": "uint8"
        },
        {
          "internalType": "uint8",
          "name": "currentFullness",
          "type": "uint8"
        },
        {
          "internalType": "uint256",
          "name": "lastUpdate",
          "type": "uint256"
        }
      ],
      "stateMutability": "view",
      "type": "function",
      "constant": true
    },
    {
      "inputs": [
        {
          "internalType": "uint256",
          "name": "carId",
          "type": "uint256"
        },
        {
          "internalType": "uint256",
          "name": "chassisId",
          "type": "uint256"
        }
      ],
      "name": "switchChassis",
      "outputs": [],
      "stateMutability": "nonpayable",
      "type": "function"
    },
    {
      "inputs": [
        {
          "internalType": "uint256",
          "name": "carId",
          "type": "uint256"
        },
        {
          "internalType": "uint256",
          "name": "engineId",
          "type": "uint256"
        }
      ],
      "name": "switchEngine",
      "outputs": [],
      "stateMutability": "nonpayable",
      "type": "function"
    },
    {
      "inputs": [
        {
          "internalType": "address",
          "name": "newOwner",
          "type": "address"
        }
      ],
      "name": "transferOwnership",
      "outputs": [],
      "stateMutability": "nonpayable",
      "type": "function"
    },
    {
      "inputs": [
        {
          "internalType": "uint256",
          "name": "_fuelStatonId",
          "type": "uint256"
        },
        {
          "internalType": "uint8",
          "name": "_counts",
          "type": "uint8"
        }
      ],
      "name": "upgradeCapacity",
      "outputs": [],
      "stateMutability": "payable",
      "type": "function",
      "payable": true
    },
    {
      "inputs": [
        {
          "internalType": "uint256",
          "name": "_engineId",
          "type": "uint256"
        },
        {
          "internalType": "uint8",
          "name": "_counts",
          "type": "uint8"
        }
      ],
      "name": "upgradeConsumtion",
      "outputs": [],
      "stateMutability": "payable",
      "type": "function",
      "payable": true
    },
    {
      "inputs": [
        {
          "internalType": "uint256",
          "name": "_chassisId",
          "type": "uint256"
        },
        {
          "internalType": "uint8",
          "name": "_counts",
          "type": "uint8"
        }
      ],
      "name": "upgradeDurability",
      "outputs": [],
      "stateMutability": "payable",
      "type": "function",
      "payable": true
    },
    {
      "inputs": [
        {
          "internalType": "uint256",
          "name": "_engineId",
          "type": "uint256"
        },
        {
          "internalType": "uint8",
          "name": "_counts",
          "type": "uint8"
        }
      ],
      "name": "upgradeHorsePowers",
      "outputs": [],
      "stateMutability": "payable",
      "type": "function",
      "payable": true
    },
    {
      "inputs": [
        {
          "internalType": "uint256",
          "name": "_fuelStatonId",
          "type": "uint256"
        },
        {
          "internalType": "uint8",
          "name": "_counts",
          "type": "uint8"
        }
      ],
      "name": "upgradeProductionPerHour",
      "outputs": [],
      "stateMutability": "payable",
      "type": "function",
      "payable": true
    },
    {
      "inputs": [
        {
          "internalType": "uint256",
          "name": "_carId",
          "type": "uint256"
        }
      ],
      "name": "startRace",
      "outputs": [],
      "stateMutability": "nonpayable",
      "type": "function"
    }
  ],
  "bytecode": "0x60806040526000805461ffff60a01b191661014f60a21b179055600160088190556009556509184e72a00060135565b5e620f48000601455650da475abf0006015556611c37937e080006016556305f5e10060175566038d7ea4c680006018553480156200006c57600080fd5b5062000078336200024b565b60506003908155605b60049081556005805460ff1916600a179055620186a06006556201d4c1600755600b80546001908101909155600c80548201905560408051606080820183528482526020828101868152600084860181815260198054808a0182558184529651968b027f944998273e477b495144fb8794c914197f3ccb46be2900f4698fd0ef743c96958181019890985593517f944998273e477b495144fb8794c914197f3ccb46be2900f4698fd0ef743c96968086019190915591517f944998273e477b495144fb8794c914197f3ccb46be2900f4698fd0ef743c969794850155875180870189528b81528086018b8152818a018581528354808d0185558487529251928e02808b019390935590518285015551908501558751808701895260028082528187019b8c52818a018581528354808d0185558487529251928e02808b01939093559b51828501559a5190850155875180870189528b81528086018c8152818a018b81528354808d0185558487529251928e02808b019390935590518285015551908501558751958601885298855292840189815295840187815288548089018a559890915292519690970292830195909555915193810193909355519190920155601c556200029b565b600080546001600160a01b038381166001600160a01b0319831681178455604051919092169283917f8be0079c531659141344cd1fd0a4f28419497f9722a3daafe3b4186f6b6457e09190a35050565b61370a80620002ab6000396000f3fe6080604052600436106101f95760003560e01c80637c62360f1161010d578063c75bb4f4116100a0578063ede6fbf51161006f578063ede6fbf514610880578063f2fde38b146108a0578063f7746e36146108c0578063faf4bb98146108f5578063fb2d954f1461090857600080fd5b8063c75bb4f4146107f3578063c85b7fed14610820578063d1c54eea14610840578063ea1269331461086057600080fd5b806392f859db116100dc57806392f859db14610707578063b3b29afd14610757578063b72c0eea14610792578063c34cccc4146107d357600080fd5b80637c62360f146106b057806385909267146106c35780638da5cb5b146106d6578063906f5f34146106f457600080fd5b80633521c426116101905780635dcc4cc61161015f5780635dcc4cc6146105eb5780636b606d9b146106215780636f206fc114610641578063715018a61461066e5780637713d5211461068357600080fd5b80633521c426146104e757806344901490146105145780634e31f9101461054a578063594193d7146105b557600080fd5b80631c5dde0e116101cc5780631c5dde0e14610303578063224370f01461034557806324d822bf1461047957806333ca504b1461049957600080fd5b806303f2e05b146101fe5780630418394e14610213578063081315ff1461029a5780630ce90ec2146102f0575b600080fd5b61021161020c366004612ded565b610928565b005b34801561021f57600080fd5b5061026661022e366004612e23565b601e60205260009081526040902080546001820154600283015460038401546005850154600690950154939492939192909160ff1686565b6040805196875260208701959095529385019290925260608401526080830152151560a082015260c0015b60405180910390f35b3480156102a657600080fd5b506102ba6102b5366004612e23565b610a07565b604080519485526020808601949094528481019290925280516060850152918201516080840152015160a082015260c001610291565b6102116102fe366004612e23565b610a65565b34801561030f57600080fd5b5061032361031e366004612e23565b610bc0565b6040805193845263ffffffff9283166020850152911690820152606001610291565b34801561035157600080fd5b50610211600180546040805160a0810182528281526000805460ff600160a01b820481166020808601828152600160a81b90940483168688019081526060870192835263ffffffff421660808801908152898b018b559986529551600389027fb10e2d527612073b26eecdfd717e6a320cf44b4afac2b0732d9fcbe2b7fa0cf681019190915593517fb10e2d527612073b26eecdfd717e6a320cf44b4afac2b0732d9fcbe2b7fa0cf785018054975193518516620100000262ff0000199486166101000261ffff19909916929095169190911796909617919091169190911790935594517fb10e2d527612073b26eecdfd717e6a320cf44b4afac2b0732d9fcbe2b7fa0cf8909501949094559183526002909152902080546001600160a01b03191633179055565b34801561048557600080fd5b50610211610494366004612e23565b610c00565b3480156104a557600080fd5b506104cf6104b4366004612e23565b600d602052600090815260409020546001600160a01b031681565b6040516001600160a01b039091168152602001610291565b3480156104f357600080fd5b50610507610502366004612e23565b610db7565b6040516102919190612e3c565b34801561052057600080fd5b506104cf61052f366004612e23565b600f602052600090815260409020546001600160a01b031681565b34801561055657600080fd5b5061056a610565366004612eab565b610eae565b6040516102919190600060a0820190508251825260ff602084015116602083015260ff604084015116604083015260ff60608401511660608301526080830151608083015292915050565b3480156105c157600080fd5b506104cf6105d0366004612e23565b6002602052600090815260409020546001600160a01b031681565b3480156105f757600080fd5b506104cf610606366004612e23565b600e602052600090815260409020546001600160a01b031681565b34801561062d57600080fd5b5061021161063c366004612ed4565b610f95565b34801561064d57600080fd5b5061066161065c366004612eab565b611082565b6040516102919190612ef6565b34801561067a57600080fd5b506102116111d6565b34801561068f57600080fd5b506106a361069e366004612eab565b6111ea565b6040516102919190612f4c565b6102116106be366004612ded565b611332565b6102116106d1366004612ded565b611412565b3480156106e257600080fd5b506000546001600160a01b03166104cf565b610211610702366004612ded565b6114cb565b34801561071357600080fd5b50610727610722366004612e23565b611578565b6040805195865260ff9485166020870152928416928501929092529091166060830152608082015260a001610291565b34801561076357600080fd5b50610784610772366004612eab565b60106020526000908152604090205481565b604051908152602001610291565b34801561079e57600080fd5b506107b26107ad366004612e23565b6115c4565b6040805193845261ffff909216602084015260ff1690820152606001610291565b3480156107df57600080fd5b506102116107ee366004612ed4565b611601565b3480156107ff57600080fd5b5061081361080e366004612eab565b6116db565b6040516102919190612ffb565b34801561082c57600080fd5b5061021161083b36600461310c565b611919565b34801561084c57600080fd5b5061021161085b366004612ed4565b611b16565b34801561086c57600080fd5b5061021161087b366004612ed4565b611be1565b34801561088c57600080fd5b5061021161089b3660046131be565b611ca1565b3480156108ac57600080fd5b506102116108bb366004612eab565b611e6f565b3480156108cc57600080fd5b506108e06108db366004612e23565b611ee8565b60405161029199989796959493929190613253565b610211610903366004612ded565b611fd5565b34801561091457600080fd5b50610211610923366004612e23565b6120aa565b6000828152600f602052604090205482906001600160a01b0316331461094d57600080fd5b601754600c8481548110610963576109636132aa565b600091825260209091206001600290920201015461098a9063ffffffff1660ff85166132d6565b63ffffffff1661099a9190613302565b34146109a557600080fd5b8160ff16600c84815481106109bc576109bc6132aa565b60009182526020822060016002909202010180549091906109e490849063ffffffff16613321565b92506101000a81548163ffffffff021916908363ffffffff160217905550505050565b601d8181548110610a1757600080fd5b60009182526020918290206006909102018054600182015460028301546040805160608101825260038601548152600486015496810196909652600590940154938501939093529093509184565b600a808281548110610a7957610a796132aa565b6000918252602090912060046009909202010154610a9a919060ff1661335f565b60ff16601854610aaa9190613302565b34148015610b135750600a8181548110610ac657610ac66132aa565b6000918252602090912060046009909202010154610ae89060ff166001613381565b60ff16600a8281548110610afe57610afe6132aa565b90600052602060002090600902016006015410155b610b1c57600080fd5b600a8181548110610b2f57610b2f6132aa565b600091825260208220600460099092020101805460ff1691610b50836133a6565b91906101000a81548160ff021916908360ff160217905550506000600a8281548110610b7e57610b7e6132aa565b9060005260206000209060090201600601819055506000600a8281548110610ba857610ba86132aa565b90600052602060002090600902016007018190555050565b600c8181548110610bd057600080fd5b60009182526020909120600290910201805460019091015490915063ffffffff8082169164010000000090041683565b6000818152600d602052604090205481906001600160a01b03163314610c2557600080fd5b6000600a808481548110610c3b57610c3b6132aa565b6000918252602090912060046009909202010154610c5c919060ff1661335f565b610c6790600a6133c5565b610c729060026133e8565b9050610c7e83826125bc565b8015610ce557508060ff16600c600a8581548110610c9e57610c9e6132aa565b90600052602060002090600902016003015481548110610cc057610cc06132aa565b6000918252602090912060029091020160010154640100000000900463ffffffff1610155b610cee57600080fd5b8060ff16600c600a8581548110610d0757610d076132aa565b90600052602060002090600902016003015481548110610d2957610d296132aa565b906000526020600020906002020160010160048282829054906101000a900463ffffffff16610d589190613411565b92506101000a81548163ffffffff021916908363ffffffff1602179055508060ff16600a8481548110610d8d57610d8d6132aa565b90600052602060002090600902016005016000828254610dad9190613436565b9091555050505050565b6000818152601e602052604090206006015460609060ff16610e125760405162461bcd60e51b815260206004820152600f60248201526e1c9bdbdb481b9bdd0818db1bdcd959608a1b60448201526064015b60405180910390fd5b6000828152601e6020908152604080832060040180548251818502810185019093528083529193909284015b82821015610ea3576000848152602090819020604080516080810182526003860290920180546001600160a01b0381168452600160a01b900460ff16151583850152600180820154928401929092526002015460608301529083529092019101610e3e565b505050509050919050565b6040805160a081018252600080825260208201819052918101829052606081018290526080810182905290805b600154811015610f20576000818152600260205260409020546001600160a01b03808616911603610f0e57809150610f20565b80610f188161344e565b915050610edb565b5060018181548110610f3457610f346132aa565b60009182526020918290206040805160a081018252600390930290910180548352600181015460ff80821695850195909552610100810485169284019290925262010000909104909216606082015260029091015460808201529392505050565b6000818152600f602052604090205481906001600160a01b03163314610fba57600080fd5b6000838152600d602052604090205483906001600160a01b03163314610fdf57600080fd5b82600a8581548110610ff357610ff36132aa565b906000526020600020906009020160030154146110525760405162461bcd60e51b815260206004820152601860248201527f6368617373697320617265206e6f7420617474616368656400000000000000006044820152606401610e09565b6000600a8581548110611067576110676132aa565b90600052602060002090600902016003018190555050505050565b6001600160a01b0381166000908152601160205260408120546060919067ffffffffffffffff8111156110b7576110b76130c5565b60405190808252806020026020018201604052801561110257816020015b60408051606081018252600080825260208083018290529282015282526000199092019101816110d55790505b5090506000805b600c548110156111cd576000818152600f60205260409020546001600160a01b038087169116036111bb57600c8181548110611147576111476132aa565b6000918252602091829020604080516060810182526002909302909101805483526001015463ffffffff8082169484019490945264010000000090049092169181019190915283518490849081106111a1576111a16132aa565b602002602001018190525081806111b79061344e565b9250505b806111c58161344e565b915050611109565b50909392505050565b6111de612760565b6111e860006127ba565b565b6001600160a01b0381166000908152601160205260408120546060919067ffffffffffffffff81111561121f5761121f6130c5565b60405190808252806020026020018201604052801561126a57816020015b604080516060810182526000808252602080830182905292820152825260001990920191018161123d5790505b5090506000805b600b548110156111cd576000818152600e60205260409020546001600160a01b0380871691160361132057600b81815481106112af576112af6132aa565b600091825260209182902060408051606081018252600293909302909101805483526001015461ffff8116938301939093526201000090920460ff16918101919091528351849084908110611306576113066132aa565b6020026020010181905250818061131c9061344e565b9250505b8061132a8161344e565b915050611271565b6000828152600e602052604090205482906001600160a01b0316331461135757600080fd5b600b838154811061136a5761136a6132aa565b60009182526020909120600290910201600101546113929062010000900460ff16600a6133c5565b61139d906002613543565b6016546113aa9190613302565b34146113b557600080fd5b81600b84815481106113c9576113c96132aa565b906000526020600020906002020160010160028282829054906101000a900460ff166113f591906133c5565b92506101000a81548160ff021916908360ff160217905550505050565b60008281526002602052604090205482906001600160a01b0316331461143757600080fd5b6014546001848154811061144d5761144d6132aa565b600091825260209091206003909102016001015461147390610100900460ff16846133e8565b60ff166114809190613302565b341461148b57600080fd5b816001848154811061149f5761149f6132aa565b906000526020600020906003020160010160018282829054906101000a900460ff166113f59190613381565b60008281526002602052604090205482906001600160a01b031633146114f057600080fd5b60135460018481548110611506576115066132aa565b60009182526020909120600160039092020101546115279060ff16846133e8565b60ff166115349190613302565b341461153f57600080fd5b8160018481548110611553576115536132aa565b60009182526020822060016003909202010180549091906113f590849060ff16613381565b6001818154811061158857600080fd5b600091825260209091206003909102018054600182015460029092015490925060ff808316926101008104821692620100009091049091169085565b600b81815481106115d457600080fd5b60009182526020909120600290910201805460019091015490915061ffff81169062010000900460ff1683565b6000818152600e602052604090205481906001600160a01b0316331461162657600080fd5b6000838152600d602052604090205483906001600160a01b0316331461164b57600080fd5b82600a858154811061165f5761165f6132aa565b906000526020600020906009020160020154036116ac5760405162461bcd60e51b815260206004820152600b60248201526a73616d6520656e67696e6560a81b6044820152606401610e09565b82600a85815481106116c0576116c06132aa565b90600052602060002090600902016002018190555050505050565b6001600160a01b0381166000908152601060205260408120546060919067ffffffffffffffff811115611710576117106130c5565b60405190808252806020026020018201604052801561179357816020015b61178060405180610120016040528060608152602001600081526020016000815260200160008152602001600060ff168152602001600081526020016000815260200160008152602001600081525090565b81526020019060019003908161172e5790505b5090506000805b600a548110156111cd576000818152600d60205260409020546001600160a01b0380871691160361190757600a81815481106117d8576117d86132aa565b90600052602060002090600902016040518061012001604052908160008201805461180290613552565b80601f016020809104026020016040519081016040528092919081815260200182805461182e90613552565b801561187b5780601f106118505761010080835404028352916020019161187b565b820191906000526020600020905b81548152906001019060200180831161185e57829003601f168201915b5050509183525050600182015460208201526002820154604082015260038201546060820152600482015460ff166080820152600582015460a0820152600682015460c0820152600782015460e08201526008909101546101009091015283518490849081106118ed576118ed6132aa565b602002602001018190525081806119039061344e565b9250505b806119118161344e565b91505061179a565b336000908152601a602052604090205482146119675760405162461bcd60e51b815260206004820152600d60248201526c6e6f7420796f757220726f6f6d60981b6044820152606401610e09565b6000828152601e6020526040808220600201549051634e31f59760e11b815290919073__PDDLib________________________________90639c63eb2e906119b5908590879060040161358c565b602060405180830381865af41580156119d2573d6000803e3d6000fd5b505050506040513d601f19601f820116820180604052508101906119f691906135da565b60408051608081018252338082528315156020808401918252428486019081526000938452601b825285842054606086019081528b8552601e8352958420600481018054600181810183558288529487208851600390920201805496511515600160a01b026001600160a81b03199097166001600160a01b03929092169190911795909517855591519284019290925594516002909201919091559088905280549254939450909290919003611b0e576040518681527f67acaceb58ff1ad2aa8b3069f69c4cd076824e06a09184b75fb197ead7040be79060200160405180910390a16000868152601e60209081526040808320600601805460ff19166001179055338352601a8252808320839055601b9091528120555b505050505050565b6000818152600e602052604090205481906001600160a01b03163314611b3b57600080fd5b6000838152600d602052604090205483906001600160a01b03163314611b6057600080fd5b82600a8581548110611b7457611b746132aa565b90600052602060002090600902016002015414611bcc5760405162461bcd60e51b8152602060048201526016602482015275195b99da5b99481a5cc81b9bdd08185d1d1858da195960521b6044820152606401610e09565b6000600a85815481106116c0576116c06132aa565b6000818152600f602052604090205481906001600160a01b03163314611c0657600080fd5b6000838152600d602052604090205483906001600160a01b03163314611c2b57600080fd5b82600a8581548110611c3f57611c3f6132aa565b90600052602060002090600902016003015403611c8d5760405162461bcd60e51b815260206004820152600c60248201526b73616d65206368617373697360a01b6044820152606401610e09565b82600a8581548110611067576110676132aa565b3360009081526010602052604090205415611cbb57600080fd5b600081611cc74261280a565b604051602001611cd89291906135fc565b6040516020818303038152906040529050600081604051602001611cfc9190613622565b6040516020818303038152906040528051906020012060001c90506000611d2161289d565b90506000611d2d6129d1565b600a80546040805161012081018252898152602080820189905291810187905260608101859052600160808201819052600060a0830181905260c0830181905260e083018190526101008301859052908401855593909352825180519495509193600985027fc65a7bb8d6351c1cf70c95a316cc6a92839c986682d98bc35f958f4883f9d2a80192611dc3928492910190612d54565b506020828101516001830155604080840151600284015560608401516003840155608084015160048401805460ff191660ff90921691909117905560a0840151600584015560c0840151600684015560e08401516007840155610100909301516008909201919091556000838152600d82528281208054336001600160a01b0319909116811790915581526010909152908120805491611e628361344e565b9190505550505050505050565b611e77612760565b6001600160a01b038116611edc5760405162461bcd60e51b815260206004820152602660248201527f4f776e61626c653a206e6577206f776e657220697320746865207a65726f206160448201526564647265737360d01b6064820152608401610e09565b611ee5816127ba565b50565b600a8181548110611ef857600080fd5b9060005260206000209060090201600091509050806000018054611f1b90613552565b80601f0160208091040260200160405190810160405280929190818152602001828054611f4790613552565b8015611f945780601f10611f6957610100808354040283529160200191611f94565b820191906000526020600020905b815481529060010190602001808311611f7757829003601f168201915b50505060018401546002850154600386015460048701546005880154600689015460078a01546008909a01549899959894975092955060ff90911693909289565b6000828152600e602052604090205482906001600160a01b03163314611ffa57600080fd5b601554600b8481548110612010576120106132aa565b60009182526020909120600160029092020101546120359061ffff1660ff851661363e565b61ffff166120439190613302565b341461204e57600080fd5b8160ff16600b8481548110612065576120656132aa565b600091825260208220600160029092020101805490919061208b90849061ffff1661365f565b92506101000a81548161ffff021916908361ffff160217905550505050565b6000818152600d602052604090205481906001600160a01b031633146120cf57600080fd5b6000805b601d5481101561245957601d81815481106120f0576120f06132aa565b906000526020600020906006020160020154600a808681548110612116576121166132aa565b6000918252602090912060046009909202010154612137919060ff1661335f565b612142906001613381565b60ff16036124475760019150601d8181548110612161576121616132aa565b60009182526020808320600690920290910154338352601a8252604080842091909155601b9091529020849055601d8054829081106121a2576121a26132aa565b6000918252602082206001600690920201018054916121c08361344e565b9190505550601d81815481106121d8576121d86132aa565b906000526020600020906006020160030160000154601d8281548110612200576122006132aa565b9060005260206000209060060201600101540361244757600073__PDDLib________________________________63c037e545601d8481548110612246576122466132aa565b906000526020600020906006020160030160020154601d858154811061226e5761226e6132aa565b9060005260206000209060060201600301600001546040518363ffffffff1660e01b81526004016122a9929190918252602082015260400190565b602060405180830381865af41580156122c6573d6000803e3d6000fd5b505050506040513d601f19601f820116820180604052508101906122ea919061367c565b90506000601e6000601d8581548110612305576123056132aa565b90600052602060002090600602016000015481526020019081526020016000209050601d838154811061233a5761233a6132aa565b60009182526020909120600360069092020101548155601d805484908110612364576123646132aa565b6000918252602082206006918202016002908101546001850155830184905542600384015560058301919091558101805460ff19169055601d80547f2838ebeee7dc83fac85a3d6dbca0c0b6771591ada8b00f97371aa6611e631f9c9190859081106123d2576123d26132aa565b600091825260209182902060069091020154604080519182529181018590520160405180910390a1601d838154811061240d5761240d6132aa565b6000918252602082206006909102018181556001810182905560028101829055600381018290556004810182905560050155506124599050565b806124518161344e565b9150506120d3565b50801561246557505050565b601c8054600091826124768361344e565b9091555060195490915060009061248d9042613695565b905081601a6000336001600160a01b03166001600160a01b0316815260200190815260200160002081905550601d604051806080016040528084815260200160018152602001600a8089815481106124e7576124e76132aa565b6000918252602090912060046009909202010154612508919060ff1661335f565b612513906001613381565b60ff1681526020016019848154811061252e5761252e6132aa565b60009182526020808320604080516060808201835260039586029093018054825260018082015483870152600291820154838501529190975288548082018a5598865294839020875160069099020197885586830151948801949094558584015194870194909455939092015180519285019290925591810151600484015501516005909101555050505050565b6000828152600d602052604081205481906125df906001600160a01b0316610eae565b90506125ee8160000151612b05565b6000600a8581548110612603576126036132aa565b9060005260206000209060090201600201549050600060019050600a85600b8481548110612633576126336132aa565b906000526020600020906002020160010160029054906101000a900460ff1661265c91906133e8565b60ff16106126ad57600a600b8381548110612679576126796132aa565b60009182526020909120600290910201600101546126a09062010000900460ff16876133e8565b6126aa919061335f565b90505b8060ff1660018460000151815481106126c8576126c86132aa565b600091825260209091206003909102016001015462010000900460ff161061275257806001846000015181548110612702576127026132aa565b906000526020600020906003020160010160028282829054906101000a900460ff1661272e91906133c5565b92506101000a81548160ff021916908360ff1602179055506001935050505061275a565b600093505050505b92915050565b6000546001600160a01b031633146111e85760405162461bcd60e51b815260206004820181905260248201527f4f776e61626c653a2063616c6c6572206973206e6f7420746865206f776e65726044820152606401610e09565b600080546001600160a01b038381166001600160a01b0319831681178455604051919092169283917f8be0079c531659141344cd1fd0a4f28419497f9722a3daafe3b4186f6b6457e09190a35050565b6060600061281783612c64565b600101905060008167ffffffffffffffff811115612837576128376130c5565b6040519080825280601f01601f191660200182016040528015612861576020820181803683370190505b5090508181016020015b600019016f181899199a1a9b1b9c1cb0b131b232b360811b600a86061a8153600a850494508461286b57509392505050565b6000806003546004546128b091906136a9565b6128ba9042613695565b6003546128c79190613436565b6008805491925060009190826128dc8361344e565b909155506040805160608101825282815261ffff808616602080840191825260055460ff908116858701908152600b80546001810182556000918252965160029097027f0175b7a638427703f0dbe7bb9bbf987a2551717b34e79f33b5b1008d1fa01db981019790975593517f0175b7a638427703f0dbe7bb9bbf987a2551717b34e79f33b5b1008d1fa01dba90960180549151909216620100000262ffffff19909116959094169490941792909217909255338252601190529081208054929350906129a88361344e565b90915550506000818152600e6020526040902080546001600160a01b0319163317905592915050565b6000806006546007546129e491906136a9565b6129ee9042613695565b6006546129fb9190613436565b600980549192506000919082612a108361344e565b909155506040805160608101825282815263ffffffff8086166020808401828152848601928352600c80546001810182556000918252955160029096027fdf6966c971051c3d54ec59162606531493a51404a002842f56009d7e5cf4a8c781019690965590517fdf6966c971051c3d54ec59162606531493a51404a002842f56009d7e5cf4a8c89095018054935185166401000000000267ffffffffffffffff1990941695909416949094179190911790915533825260129052908120805492935090612adc8361344e565b90915550506000818152600f6020526040902080546001600160a01b0319163317905592915050565b60004290506000610e1060018481548110612b2257612b226132aa565b90600052602060002090600302016002015483612b3f91906136a9565b612b4991906136c0565b9050600060018481548110612b6057612b606132aa565b6000918252602090912060039091020160010154612b8690610100900460ff1683613302565b60018581548110612b9957612b996132aa565b6000918252602090912060039091020160010154612bc0919062010000900460ff16613436565b9050612bf960018581548110612bd857612bd86132aa565b600091825260209091206001600390920201015460ff908116908316612d3c565b60018581548110612c0c57612c0c6132aa565b906000526020600020906003020160010160026101000a81548160ff021916908360ff1602179055508260018581548110612c4957612c496132aa565b90600052602060002090600302016002018190555050505050565b60008072184f03e93ff9f4daa797ed6e38ed64bf6a1f0160401b8310612ca35772184f03e93ff9f4daa797ed6e38ed64bf6a1f0160401b830492506040015b6d04ee2d6d415b85acef81000000008310612ccf576d04ee2d6d415b85acef8100000000830492506020015b662386f26fc100008310612ced57662386f26fc10000830492506010015b6305f5e1008310612d05576305f5e100830492506008015b6127108310612d1957612710830492506004015b60648310612d2b576064830492506002015b600a831061275a5760010192915050565b6000818310612d4b5781612d4d565b825b9392505050565b828054612d6090613552565b90600052602060002090601f016020900481019282612d825760008555612dc8565b82601f10612d9b57805160ff1916838001178555612dc8565b82800160010185558215612dc8579182015b82811115612dc8578251825591602001919060010190612dad565b50612dd4929150612dd8565b5090565b5b80821115612dd45760008155600101612dd9565b60008060408385031215612e0057600080fd5b82359150602083013560ff81168114612e1857600080fd5b809150509250929050565b600060208284031215612e3557600080fd5b5035919050565b602080825282518282018190526000919060409081850190868401855b82811015612e9e57815180516001600160a01b031685528681015115158786015285810151868601526060908101519085015260809093019290850190600101612e59565b5091979650505050505050565b600060208284031215612ebd57600080fd5b81356001600160a01b0381168114612d4d57600080fd5b60008060408385031215612ee757600080fd5b50508035926020909101359150565b602080825282518282018190526000919060409081850190868401855b82811015612e9e578151805185528681015163ffffffff9081168887015290860151168585015260609093019290850190600101612f13565b602080825282518282018190526000919060409081850190868401855b82811015612e9e578151805185528681015161ffff168786015285015160ff168585015260609093019290850190600101612f69565b60005b83811015612fba578181015183820152602001612fa2565b83811115612fc9576000848401525b50505050565b60008151808452612fe7816020860160208601612f9f565b601f01601f19169290920160200192915050565b60006020808301818452808551808352604092508286019150828160051b87010184880160005b838110156130b757603f198984030185528151610120815181865261304982870182612fcf565b91505088820151898601528782015188860152606080830151818701525060808083015161307b8288018260ff169052565b505060a0828101519086015260c0808301519086015260e080830151908601526101009182015191909401529386019390860190600101613022565b509098975050505050505050565b634e487b7160e01b600052604160045260246000fd5b604051601f8201601f1916810167ffffffffffffffff81118282101715613104576131046130c5565b604052919050565b6000806040838503121561311f57600080fd5b8235915060208084013567ffffffffffffffff8082111561313f57600080fd5b818601915086601f83011261315357600080fd5b813581811115613165576131656130c5565b8060051b91506131768483016130db565b818152918301840191848101908984111561319057600080fd5b938501935b838510156131ae57843582529385019390850190613195565b8096505050505050509250929050565b600060208083850312156131d157600080fd5b823567ffffffffffffffff808211156131e957600080fd5b818501915085601f8301126131fd57600080fd5b81358181111561320f5761320f6130c5565b613221601f8201601f191685016130db565b9150808252868482850101111561323757600080fd5b8084840185840137600090820190930192909252509392505050565b60006101208083526132678184018d612fcf565b602084019b909b5250506040810197909752606087019590955260ff93909316608086015260a085019190915260c084015260e083015261010090910152919050565b634e487b7160e01b600052603260045260246000fd5b634e487b7160e01b600052601160045260246000fd5b600063ffffffff808316818516818304811182151516156132f9576132f96132c0565b02949350505050565b600081600019048311821515161561331c5761331c6132c0565b500290565b600063ffffffff808316818516808303821115613340576133406132c0565b01949350505050565b634e487b7160e01b600052601260045260246000fd5b600060ff83168061337257613372613349565b8060ff84160491505092915050565b600060ff821660ff84168060ff0382111561339e5761339e6132c0565b019392505050565b600060ff821660ff81036133bc576133bc6132c0565b60010192915050565b600060ff821660ff8416808210156133df576133df6132c0565b90039392505050565b600060ff821660ff84168160ff0481118215151615613409576134096132c0565b029392505050565b600063ffffffff8381169083168181101561342e5761342e6132c0565b039392505050565b60008219821115613449576134496132c0565b500190565b600060018201613460576134606132c0565b5060010190565b600181815b808511156134a2578160001904821115613488576134886132c0565b8085161561349557918102915b93841c939080029061346c565b509250929050565b6000826134b95750600161275a565b816134c65750600061275a565b81600181146134dc57600281146134e657613502565b600191505061275a565b60ff8411156134f7576134f76132c0565b50506001821b61275a565b5060208310610133831016604e8410600b8410161715613525575081810a61275a565b61352f8383613467565b8060001904821115613409576134096132c0565b6000612d4d60ff8416836134aa565b600181811c9082168061356657607f821691505b60208210810361358657634e487b7160e01b600052602260045260246000fd5b50919050565b6000604082018483526020604081850152818551808452606086019150828701935060005b818110156135cd578451835293830193918301916001016135b1565b5090979650505050505050565b6000602082840312156135ec57600080fd5b81518015158114612d4d57600080fd5b6000835161360e818460208801612f9f565b835190830190613340818360208801612f9f565b60008251613634818460208701612f9f565b9190910192915050565b600061ffff808316818516818304811182151516156132f9576132f96132c0565b600061ffff808316818516808303821115613340576133406132c0565b60006020828403121561368e57600080fd5b5051919050565b6000826136a4576136a4613349565b500690565b6000828210156136bb576136bb6132c0565b500390565b6000826136cf576136cf613349565b50049056fea2646970667358221220f7f47b0862a3f22f2283a1bc072b7ba0c82e4f373ed3d29a6e13d5d42b5aff5a64736f6c634300080d0033",
  "immutableReferences": {},
  "source": "// SPDX-License-Identifier: MIT\npragma solidity ^0.8.13;\nimport \"./RaceHandler.sol\";\n\ncontract CarRacing is RaceHandler{\n\n    function _isEnoughFuel(uint _carId, uint8 duration) private returns(bool){\n        FuelStation memory station = getFuelStationByOwner(carToOwner[_carId]);\n        _refreshFuel(station.id);\n        uint engineId = cars[_carId].engineId;\n        uint8 liters= 1;\n        if (engines[engineId].consumtion * duration >= 10)\n            liters = duration * engines[engineId].consumtion / 10;\n\n        if (stations[station.id].currentFullness >= liters) {\n            stations[station.id].currentFullness -= liters;\n            return true;\n        }\n        else\n            return false;\n    }\n\n    function _refreshFuel(uint _fuelStationId) private {\n        uint curTime = block.timestamp;\n        uint wholeHours = (curTime - stations[_fuelStationId].lastUpdate) / 3600;\n        uint8 newFullness = uint8(stations[_fuelStationId].currentFullness + wholeHours * stations[_fuelStationId].productionPerHour);\n        stations[_fuelStationId].currentFullness = uint8(Math.min(stations[_fuelStationId].capacity, newFullness));\n        stations[_fuelStationId].lastUpdate = curTime;\n    }\n\n\n    function startRace(uint _carId) external onlyOwnerOfCar(_carId) {\n        uint8 durToNextCrossroad = 2 * (10 - cars[_carId].carLevel / 10);\n\n        require(_isEnoughFuel(_carId, durToNextCrossroad) && chassis[cars[_carId].chassisId].resource >= durToNextCrossroad);\n        // TODO\n\n        chassis[cars[_carId].chassisId].resource -= durToNextCrossroad;\n        cars[_carId].mileage += durToNextCrossroad;\n    }\n\n}",
  "sourcePath": "/Users/vvan/Programming/JavaScript/DriveSafely/contract/contracts/CarRacing.sol",
  "compiler": {
    "name": "solc",
    "version": "0.8.13+commit.abaa5c0e.Emscripten.clang"
  },
  "schemaVersion": "3.4.11",
  "updatedAt": "2023-01-10T06:48:35.806Z",
  "networkType": "ethereum",
  "devdoc": {
    "kind": "dev",
    "methods": {
      "owner()": {
        "details": "Returns the address of the current owner."
      },
      "renounceOwnership()": {
        "details": "Leaves the contract without owner. It will not be possible to call `onlyOwner` functions anymore. Can only be called by the current owner. NOTE: Renouncing ownership will leave the contract without an owner, thereby removing any functionality that is only available to the owner."
      },
      "transferOwnership(address)": {
        "details": "Transfers ownership of the contract to a new account (`newOwner`). Can only be called by the current owner."
      }
    },
    "version": 1
  },
  "userdoc": {
    "kind": "user",
    "methods": {},
    "version": 1
  }
}