{
  "contractName": "CarRacing",
  "abi": [
    {
      "anonymous": false,
      "inputs": [
        {
          "indexed": true,
          "internalType": "address",
          "name": "previousOwner",
          "type": "address"
        },
        {
          "indexed": true,
          "internalType": "address",
          "name": "newOwner",
          "type": "address"
        }
      ],
      "name": "OwnershipTransferred",
      "type": "event"
    },
    {
      "anonymous": false,
      "inputs": [
        {
          "indexed": false,
          "internalType": "uint256",
          "name": "roomId",
          "type": "uint256"
        }
      ],
      "name": "RoomClosed",
      "type": "event"
    },
    {
      "anonymous": false,
      "inputs": [
        {
          "indexed": false,
          "internalType": "uint256",
          "name": "roomId",
          "type": "uint256"
        },
        {
          "indexed": false,
          "internalType": "uint256",
          "name": "roomDNA",
          "type": "uint256"
        }
      ],
      "name": "RoomFull",
      "type": "event"
    },
    {
      "inputs": [
        {
          "internalType": "uint256",
          "name": "",
          "type": "uint256"
        }
      ],
      "name": "carToOwner",
      "outputs": [
        {
          "internalType": "address",
          "name": "",
          "type": "address"
        }
      ],
      "stateMutability": "view",
      "type": "function"
    },
    {
      "inputs": [
        {
          "internalType": "uint256",
          "name": "",
          "type": "uint256"
        }
      ],
      "name": "carToPrice",
      "outputs": [
        {
          "internalType": "uint256",
          "name": "",
          "type": "uint256"
        }
      ],
      "stateMutability": "view",
      "type": "function"
    },
    {
      "inputs": [
        {
          "internalType": "uint256",
          "name": "",
          "type": "uint256"
        }
      ],
      "name": "cars",
      "outputs": [
        {
          "internalType": "string",
          "name": "model",
          "type": "string"
        },
        {
          "internalType": "uint256",
          "name": "vin",
          "type": "uint256"
        },
        {
          "internalType": "uint256",
          "name": "engineId",
          "type": "uint256"
        },
        {
          "internalType": "uint256",
          "name": "chassisId",
          "type": "uint256"
        },
        {
          "internalType": "uint8",
          "name": "carLevel",
          "type": "uint8"
        },
        {
          "internalType": "uint256",
          "name": "mileage",
          "type": "uint256"
        },
        {
          "internalType": "uint256",
          "name": "winCountOnCurrentLevel",
          "type": "uint256"
        },
        {
          "internalType": "uint256",
          "name": "lossCountOnCurrentLevel",
          "type": "uint256"
        },
        {
          "internalType": "uint256",
          "name": "id",
          "type": "uint256"
        }
      ],
      "stateMutability": "view",
      "type": "function"
    },
    {
      "inputs": [],
      "name": "carsForSaleCount",
      "outputs": [
        {
          "internalType": "uint256",
          "name": "",
          "type": "uint256"
        }
      ],
      "stateMutability": "view",
      "type": "function"
    },
    {
      "inputs": [
        {
          "internalType": "uint256",
          "name": "",
          "type": "uint256"
        }
      ],
      "name": "chassis",
      "outputs": [
        {
          "internalType": "uint256",
          "name": "id",
          "type": "uint256"
        },
        {
          "internalType": "uint32",
          "name": "durability",
          "type": "uint32"
        },
        {
          "internalType": "uint32",
          "name": "resource",
          "type": "uint32"
        }
      ],
      "stateMutability": "view",
      "type": "function"
    },
    {
      "inputs": [],
      "name": "chassisForSaleCount",
      "outputs": [
        {
          "internalType": "uint256",
          "name": "",
          "type": "uint256"
        }
      ],
      "stateMutability": "view",
      "type": "function"
    },
    {
      "inputs": [
        {
          "internalType": "uint256",
          "name": "",
          "type": "uint256"
        }
      ],
      "name": "chassisToOwner",
      "outputs": [
        {
          "internalType": "address",
          "name": "",
          "type": "address"
        }
      ],
      "stateMutability": "view",
      "type": "function"
    },
    {
      "inputs": [
        {
          "internalType": "uint256",
          "name": "",
          "type": "uint256"
        }
      ],
      "name": "chassisToPrice",
      "outputs": [
        {
          "internalType": "uint256",
          "name": "",
          "type": "uint256"
        }
      ],
      "stateMutability": "view",
      "type": "function"
    },
    {
      "inputs": [
        {
          "internalType": "uint256",
          "name": "roomId",
          "type": "uint256"
        },
        {
          "internalType": "uint256[]",
          "name": "answer",
          "type": "uint256[]"
        }
      ],
      "name": "commitAnswer",
      "outputs": [],
      "stateMutability": "nonpayable",
      "type": "function"
    },
    {
      "inputs": [
        {
          "internalType": "string",
          "name": "model",
          "type": "string"
        }
      ],
      "name": "createCar",
      "outputs": [],
      "stateMutability": "nonpayable",
      "type": "function"
    },
    {
      "inputs": [
        {
          "internalType": "string",
          "name": "_model",
          "type": "string"
        },
        {
          "internalType": "uint16",
          "name": "_horsePowers",
          "type": "uint16"
        },
        {
          "internalType": "uint8",
          "name": "_consumtion",
          "type": "uint8"
        },
        {
          "internalType": "uint32",
          "name": "_durability",
          "type": "uint32"
        },
        {
          "internalType": "uint8",
          "name": "_carLevel",
          "type": "uint8"
        },
        {
          "internalType": "uint256",
          "name": "_carPrice",
          "type": "uint256"
        }
      ],
      "name": "createCustomCar",
      "outputs": [],
      "stateMutability": "nonpayable",
      "type": "function"
    },
    {
      "inputs": [
        {
          "internalType": "uint32",
          "name": "_durability",
          "type": "uint32"
        },
        {
          "internalType": "uint256",
          "name": "_chassisPrice",
          "type": "uint256"
        }
      ],
      "name": "createCustomChassis",
      "outputs": [
        {
          "internalType": "uint256",
          "name": "",
          "type": "uint256"
        }
      ],
      "stateMutability": "nonpayable",
      "type": "function"
    },
    {
      "inputs": [
        {
          "internalType": "uint16",
          "name": "_horsePowers",
          "type": "uint16"
        },
        {
          "internalType": "uint8",
          "name": "_consumtion",
          "type": "uint8"
        },
        {
          "internalType": "uint256",
          "name": "_enginePrice",
          "type": "uint256"
        }
      ],
      "name": "createCustomEngine",
      "outputs": [
        {
          "internalType": "uint256",
          "name": "",
          "type": "uint256"
        }
      ],
      "stateMutability": "nonpayable",
      "type": "function"
    },
    {
      "inputs": [],
      "name": "createFuelStation",
      "outputs": [],
      "stateMutability": "nonpayable",
      "type": "function"
    },
    {
      "inputs": [
        {
          "internalType": "uint256",
          "name": "carId",
          "type": "uint256"
        },
        {
          "internalType": "uint256",
          "name": "chassisId",
          "type": "uint256"
        }
      ],
      "name": "detachChassis",
      "outputs": [],
      "stateMutability": "nonpayable",
      "type": "function"
    },
    {
      "inputs": [
        {
          "internalType": "uint256",
          "name": "carId",
          "type": "uint256"
        },
        {
          "internalType": "uint256",
          "name": "engineId",
          "type": "uint256"
        }
      ],
      "name": "detachEngine",
      "outputs": [],
      "stateMutability": "nonpayable",
      "type": "function"
    },
    {
      "inputs": [
        {
          "internalType": "uint256",
          "name": "",
          "type": "uint256"
        }
      ],
      "name": "engineToOwner",
      "outputs": [
        {
          "internalType": "address",
          "name": "",
          "type": "address"
        }
      ],
      "stateMutability": "view",
      "type": "function"
    },
    {
      "inputs": [
        {
          "internalType": "uint256",
          "name": "",
          "type": "uint256"
        }
      ],
      "name": "engineToPrice",
      "outputs": [
        {
          "internalType": "uint256",
          "name": "",
          "type": "uint256"
        }
      ],
      "stateMutability": "view",
      "type": "function"
    },
    {
      "inputs": [
        {
          "internalType": "uint256",
          "name": "",
          "type": "uint256"
        }
      ],
      "name": "engines",
      "outputs": [
        {
          "internalType": "uint256",
          "name": "id",
          "type": "uint256"
        },
        {
          "internalType": "uint16",
          "name": "horsePowers",
          "type": "uint16"
        },
        {
          "internalType": "uint8",
          "name": "consumtion",
          "type": "uint8"
        }
      ],
      "stateMutability": "view",
      "type": "function"
    },
    {
      "inputs": [],
      "name": "enginesForSaleCount",
      "outputs": [
        {
          "internalType": "uint256",
          "name": "",
          "type": "uint256"
        }
      ],
      "stateMutability": "view",
      "type": "function"
    },
    {
      "inputs": [
        {
          "internalType": "uint256",
          "name": "carId",
          "type": "uint256"
        }
      ],
      "name": "findRoom",
      "outputs": [],
      "stateMutability": "nonpayable",
      "type": "function"
    },
    {
      "inputs": [
        {
          "internalType": "uint256",
          "name": "",
          "type": "uint256"
        }
      ],
      "name": "fuelStationToOwner",
      "outputs": [
        {
          "internalType": "address",
          "name": "",
          "type": "address"
        }
      ],
      "stateMutability": "view",
      "type": "function"
    },
    {
      "inputs": [
        {
          "internalType": "uint256",
          "name": "_fuelStatonId",
          "type": "uint256"
        },
        {
          "internalType": "uint8",
          "name": "_counts",
          "type": "uint8"
        }
      ],
      "name": "getCapacityUpgradeCost",
      "outputs": [
        {
          "internalType": "uint256",
          "name": "",
          "type": "uint256"
        }
      ],
      "stateMutability": "view",
      "type": "function"
    },
    {
      "inputs": [
        {
          "internalType": "address",
          "name": "_owner",
          "type": "address"
        }
      ],
      "name": "getCarsByOwner",
      "outputs": [
        {
          "components": [
            {
              "internalType": "string",
              "name": "model",
              "type": "string"
            },
            {
              "internalType": "uint256",
              "name": "vin",
              "type": "uint256"
            },
            {
              "internalType": "uint256",
              "name": "engineId",
              "type": "uint256"
            },
            {
              "internalType": "uint256",
              "name": "chassisId",
              "type": "uint256"
            },
            {
              "internalType": "uint8",
              "name": "carLevel",
              "type": "uint8"
            },
            {
              "internalType": "uint256",
              "name": "mileage",
              "type": "uint256"
            },
            {
              "internalType": "uint256",
              "name": "winCountOnCurrentLevel",
              "type": "uint256"
            },
            {
              "internalType": "uint256",
              "name": "lossCountOnCurrentLevel",
              "type": "uint256"
            },
            {
              "internalType": "uint256",
              "name": "id",
              "type": "uint256"
            }
          ],
          "internalType": "struct CarFactory.Car[]",
          "name": "",
          "type": "tuple[]"
        }
      ],
      "stateMutability": "view",
      "type": "function"
    },
    {
      "inputs": [
        {
          "internalType": "address",
          "name": "_owner",
          "type": "address"
        }
      ],
      "name": "getChassisByOwner",
      "outputs": [
        {
          "components": [
            {
              "internalType": "uint256",
              "name": "id",
              "type": "uint256"
            },
            {
              "internalType": "uint32",
              "name": "durability",
              "type": "uint32"
            },
            {
              "internalType": "uint32",
              "name": "resource",
              "type": "uint32"
            }
          ],
          "internalType": "struct CarFactory.Chassis[]",
          "name": "",
          "type": "tuple[]"
        }
      ],
      "stateMutability": "view",
      "type": "function"
    },
    {
      "inputs": [
        {
          "internalType": "uint256",
          "name": "roomId",
          "type": "uint256"
        }
      ],
      "name": "getClosedRoom",
      "outputs": [
        {
          "components": [
            {
              "internalType": "address",
              "name": "player",
              "type": "address"
            },
            {
              "internalType": "bool",
              "name": "correct",
              "type": "bool"
            },
            {
              "internalType": "uint256",
              "name": "time",
              "type": "uint256"
            },
            {
              "internalType": "uint256",
              "name": "carId",
              "type": "uint256"
            }
          ],
          "internalType": "struct RaceHandler.Answer[]",
          "name": "",
          "type": "tuple[]"
        }
      ],
      "stateMutability": "view",
      "type": "function"
    },
    {
      "inputs": [
        {
          "internalType": "uint256",
          "name": "_engineId",
          "type": "uint256"
        }
      ],
      "name": "getConsumtionUpgradeCost",
      "outputs": [
        {
          "internalType": "uint256",
          "name": "",
          "type": "uint256"
        }
      ],
      "stateMutability": "view",
      "type": "function"
    },
    {
      "inputs": [
        {
          "internalType": "uint256",
          "name": "_chassisId",
          "type": "uint256"
        },
        {
          "internalType": "uint8",
          "name": "_counts",
          "type": "uint8"
        }
      ],
      "name": "getDurabilityUpgradeCost",
      "outputs": [
        {
          "internalType": "uint256",
          "name": "",
          "type": "uint256"
        }
      ],
      "stateMutability": "view",
      "type": "function"
    },
    {
      "inputs": [
        {
          "internalType": "address",
          "name": "_owner",
          "type": "address"
        }
      ],
      "name": "getEnginesByOwner",
      "outputs": [
        {
          "components": [
            {
              "internalType": "uint256",
              "name": "id",
              "type": "uint256"
            },
            {
              "internalType": "uint16",
              "name": "horsePowers",
              "type": "uint16"
            },
            {
              "internalType": "uint8",
              "name": "consumtion",
              "type": "uint8"
            }
          ],
          "internalType": "struct CarFactory.Engine[]",
          "name": "",
          "type": "tuple[]"
        }
      ],
      "stateMutability": "view",
      "type": "function"
    },
    {
      "inputs": [
        {
          "internalType": "address",
          "name": "_owner",
          "type": "address"
        }
      ],
      "name": "getFuelStationByOwner",
      "outputs": [
        {
          "components": [
            {
              "internalType": "uint256",
              "name": "id",
              "type": "uint256"
            },
            {
              "internalType": "uint8",
              "name": "capacity",
              "type": "uint8"
            },
            {
              "internalType": "uint8",
              "name": "productionPerHour",
              "type": "uint8"
            },
            {
              "internalType": "uint8",
              "name": "currentFullness",
              "type": "uint8"
            },
            {
              "internalType": "uint256",
              "name": "lastUpdate",
              "type": "uint256"
            }
          ],
          "internalType": "struct FuelStationFactory.FuelStation",
          "name": "",
          "type": "tuple"
        }
      ],
      "stateMutability": "view",
      "type": "function"
    },
    {
      "inputs": [
        {
          "internalType": "uint256",
          "name": "_engineId",
          "type": "uint256"
        },
        {
          "internalType": "uint8",
          "name": "_counts",
          "type": "uint8"
        }
      ],
      "name": "getHorsePowersUpgradeCost",
      "outputs": [
        {
          "internalType": "uint256",
          "name": "",
          "type": "uint256"
        }
      ],
      "stateMutability": "view",
      "type": "function"
    },
    {
      "inputs": [
        {
          "internalType": "uint256",
          "name": "_carId",
          "type": "uint256"
        }
      ],
      "name": "getLevelUpCost",
      "outputs": [
        {
          "internalType": "uint256",
          "name": "",
          "type": "uint256"
        }
      ],
      "stateMutability": "view",
      "type": "function"
    },
    {
      "inputs": [
        {
          "internalType": "uint256",
          "name": "_fuelStatonId",
          "type": "uint256"
        },
        {
          "internalType": "uint8",
          "name": "_counts",
          "type": "uint8"
        }
      ],
      "name": "getProductionPerHourUpgradeCost",
      "outputs": [
        {
          "internalType": "uint256",
          "name": "",
          "type": "uint256"
        }
      ],
      "stateMutability": "view",
      "type": "function"
    },
    {
      "inputs": [
        {
          "internalType": "uint256",
          "name": "",
          "type": "uint256"
        }
      ],
      "name": "idToStartedRooms",
      "outputs": [
        {
          "internalType": "uint256",
          "name": "numberPlayers",
          "type": "uint256"
        },
        {
          "internalType": "uint256",
          "name": "world",
          "type": "uint256"
        },
        {
          "internalType": "uint256",
          "name": "roomDNA",
          "type": "uint256"
        },
        {
          "internalType": "uint256",
          "name": "startTime",
          "type": "uint256"
        },
        {
          "internalType": "uint256",
          "name": "curAnswer",
          "type": "uint256"
        },
        {
          "internalType": "bool",
          "name": "closed",
          "type": "bool"
        }
      ],
      "stateMutability": "view",
      "type": "function"
    },
    {
      "inputs": [
        {
          "internalType": "uint256",
          "name": "_carId",
          "type": "uint256"
        }
      ],
      "name": "levelUp",
      "outputs": [],
      "stateMutability": "payable",
      "type": "function"
    },
    {
      "inputs": [
        {
          "internalType": "uint256",
          "name": "",
          "type": "uint256"
        }
      ],
      "name": "openedRooms",
      "outputs": [
        {
          "internalType": "uint256",
          "name": "id",
          "type": "uint256"
        },
        {
          "internalType": "uint256",
          "name": "playersEntered",
          "type": "uint256"
        },
        {
          "internalType": "uint256",
          "name": "world",
          "type": "uint256"
        },
        {
          "components": [
            {
              "internalType": "uint256",
              "name": "playersNeeded",
              "type": "uint256"
            },
            {
              "internalType": "uint256",
              "name": "crossId",
              "type": "uint256"
            }
          ],
          "internalType": "struct RaceHandler.Cross",
          "name": "cross",
          "type": "tuple"
        },
        {
          "internalType": "uint256",
          "name": "roomSeed",
          "type": "uint256"
        }
      ],
      "stateMutability": "view",
      "type": "function"
    },
    {
      "inputs": [],
      "name": "owner",
      "outputs": [
        {
          "internalType": "address",
          "name": "",
          "type": "address"
        }
      ],
      "stateMutability": "view",
      "type": "function"
    },
    {
      "inputs": [
        {
          "internalType": "address",
          "name": "",
          "type": "address"
        }
      ],
      "name": "ownerCarCount",
      "outputs": [
        {
          "internalType": "uint256",
          "name": "",
          "type": "uint256"
        }
      ],
      "stateMutability": "view",
      "type": "function"
    },
    {
      "inputs": [
        {
          "internalType": "address",
          "name": "",
          "type": "address"
        }
      ],
      "name": "ownerChassisCount",
      "outputs": [
        {
          "internalType": "uint256",
          "name": "",
          "type": "uint256"
        }
      ],
      "stateMutability": "view",
      "type": "function"
    },
    {
      "inputs": [
        {
          "internalType": "address",
          "name": "",
          "type": "address"
        }
      ],
      "name": "ownerEngineCount",
      "outputs": [
        {
          "internalType": "uint256",
          "name": "",
          "type": "uint256"
        }
      ],
      "stateMutability": "view",
      "type": "function"
    },
    {
      "inputs": [],
      "name": "renounceOwnership",
      "outputs": [],
      "stateMutability": "nonpayable",
      "type": "function"
    },
    {
      "inputs": [
        {
          "internalType": "uint256",
          "name": "",
          "type": "uint256"
        }
      ],
      "name": "stations",
      "outputs": [
        {
          "internalType": "uint256",
          "name": "id",
          "type": "uint256"
        },
        {
          "internalType": "uint8",
          "name": "capacity",
          "type": "uint8"
        },
        {
          "internalType": "uint8",
          "name": "productionPerHour",
          "type": "uint8"
        },
        {
          "internalType": "uint8",
          "name": "currentFullness",
          "type": "uint8"
        },
        {
          "internalType": "uint256",
          "name": "lastUpdate",
          "type": "uint256"
        }
      ],
      "stateMutability": "view",
      "type": "function"
    },
    {
      "inputs": [
        {
          "internalType": "uint256",
          "name": "carId",
          "type": "uint256"
        },
        {
          "internalType": "uint256",
          "name": "chassisId",
          "type": "uint256"
        }
      ],
      "name": "switchChassis",
      "outputs": [],
      "stateMutability": "nonpayable",
      "type": "function"
    },
    {
      "inputs": [
        {
          "internalType": "uint256",
          "name": "carId",
          "type": "uint256"
        },
        {
          "internalType": "uint256",
          "name": "engineId",
          "type": "uint256"
        }
      ],
      "name": "switchEngine",
      "outputs": [],
      "stateMutability": "nonpayable",
      "type": "function"
    },
    {
      "inputs": [
        {
          "internalType": "address",
          "name": "newOwner",
          "type": "address"
        }
      ],
      "name": "transferOwnership",
      "outputs": [],
      "stateMutability": "nonpayable",
      "type": "function"
    },
    {
      "inputs": [
        {
          "internalType": "uint256",
          "name": "_fuelStatonId",
          "type": "uint256"
        },
        {
          "internalType": "uint8",
          "name": "_counts",
          "type": "uint8"
        }
      ],
      "name": "upgradeCapacity",
      "outputs": [],
      "stateMutability": "payable",
      "type": "function"
    },
    {
      "inputs": [
        {
          "internalType": "uint256",
          "name": "_engineId",
          "type": "uint256"
        }
      ],
      "name": "upgradeConsumtion",
      "outputs": [],
      "stateMutability": "payable",
      "type": "function"
    },
    {
      "inputs": [
        {
          "internalType": "uint256",
          "name": "_chassisId",
          "type": "uint256"
        },
        {
          "internalType": "uint8",
          "name": "_counts",
          "type": "uint8"
        }
      ],
      "name": "upgradeDurability",
      "outputs": [],
      "stateMutability": "payable",
      "type": "function"
    },
    {
      "inputs": [
        {
          "internalType": "uint256",
          "name": "_engineId",
          "type": "uint256"
        },
        {
          "internalType": "uint8",
          "name": "_counts",
          "type": "uint8"
        }
      ],
      "name": "upgradeHorsePowers",
      "outputs": [],
      "stateMutability": "payable",
      "type": "function"
    },
    {
      "inputs": [
        {
          "internalType": "uint256",
          "name": "_fuelStatonId",
          "type": "uint256"
        },
        {
          "internalType": "uint8",
          "name": "_counts",
          "type": "uint8"
        }
      ],
      "name": "upgradeProductionPerHour",
      "outputs": [],
      "stateMutability": "payable",
      "type": "function"
    },
    {
      "inputs": [
        {
          "internalType": "uint256",
          "name": "_carId",
          "type": "uint256"
        }
      ],
      "name": "startRace",
      "outputs": [],
      "stateMutability": "nonpayable",
      "type": "function"
    }
  ],
  "bytecode": "0x6000805461ffff60a01b191661014f60a21b17815560088190556009819055600a9081556001600b819055600c556509184e72a000601981905565b5e620f48000601a55650da475abf000601b556611c37937e08000601c556305f5e100601d5566038d7ea4c68000601e556101c060405260809081526512309ce5400060a05265246139ca800060c0526548c27395000060e052659184e72a00006101005266012309ce54000061012052660246139ca800006101405266048c2739500000610160526609184e72a00000610180526612309ce54000006101a052620000ea916020919062000199565b50348015620000f857600080fd5b50620001043362000149565b6050600355605b6004556005805460ff1916600a179055620186a06006556201d4c1600755600e80546001908101909155600f8054820181556000526023556200020b565b600080546001600160a01b038381166001600160a01b0319831681178455604051919092169283917f8be0079c531659141344cd1fd0a4f28419497f9722a3daafe3b4186f6b6457e09190a35050565b828054828255906000526020600020908101928215620001e2579160200282015b82811115620001e2578251829066ffffffffffffff16905591602001919060010190620001ba565b50620001f0929150620001f4565b5090565b5b80821115620001f05760008155600101620001f5565b614777806200021b6000396000f3fe6080604052600436106102e45760003560e01c80638776601911610190578063c75bb4f4116100dc578063ede6fbf511610095578063f85993b91161006f578063f85993b914610bd3578063faf4bb9814610c00578063fb2d954f14610c13578063fb33250f14610c3357600080fd5b8063ede6fbf514610b5e578063f2fde38b14610b7e578063f7746e3614610b9e57600080fd5b8063c75bb4f414610a91578063c85b7fed14610abe578063d1c54eea14610ade578063d7086fab14610afe578063df750c5214610b1e578063ea12693314610b3e57600080fd5b8063aa11b68111610149578063bf5070d311610123578063bf5070d314610a11578063bf9bc0b214610a31578063bfcc971614610a51578063c34cccc414610a7157600080fd5b8063aa11b68114610976578063b3b29afd146109a3578063b72c0eea146109d057600080fd5b8063877660191461089f5780638da5cb5b146108cc5780638ff90c6b146108ea578063906f5f34146108fd57806392f859db14610910578063982b691c1461096057600080fd5b806333ca504b1161024f5780636b606d9b1161020857806376997de0116101e257806376997de0146108125780637713d521146108325780637fb2aa4d1461085f578063859092671461088c57600080fd5b80636b606d9b146107b05780636f206fc1146107d0578063715018a6146107fd57600080fd5b806333ca504b146106285780633521c4261461067657806344901490146106a35780634e31f910146106d9578063594193d7146107445780635dcc4cc61461077a57600080fd5b80631702bf42116102a15780631702bf421461043c5780631a56afda146104525780631c5dde0e14610472578063224370f0146104b457806324d822bf146105e85780632ca4769e1461060857600080fd5b806303f2e05b146102e95780630418394e146102fe578063081315ff146103855780630a0176fc146103d85780630c0cd532146104135780630ce90ec214610429575b600080fd5b6102fc6102f7366004613c6d565b610c53565b005b34801561030a57600080fd5b50610351610319366004613c99565b602560205260009081526040902080546001820154600283015460038401546005850154600690950154939492939192909160ff1686565b6040805196875260208701959095529385019290925260608401526080830152151560a082015260c0015b60405180910390f35b34801561039157600080fd5b506103a56103a0366004613c99565b610d59565b604080519586526020808701959095528501929092528051606085015290910151608083015260a082015260c00161037c565b3480156103e457600080fd5b506104056103f3366004613c99565b60186020526000908152604090205481565b60405190815260200161037c565b34801561041f57600080fd5b50610405600a5481565b6102fc610437366004613c99565b610db1565b34801561044857600080fd5b5061040560085481565b34801561045e57600080fd5b5061040561046d366004613c6d565b610eb7565b34801561047e57600080fd5b5061049261048d366004613c99565b610f09565b6040805193845263ffffffff928316602085015291169082015260600161037c565b3480156104c057600080fd5b506102fc600180546040805160a0810182528281526000805460ff600160a01b820481166020808601828152600160a81b90940483168688019081526060870192835263ffffffff421660808801908152898b018b559986529551600389027fb10e2d527612073b26eecdfd717e6a320cf44b4afac2b0732d9fcbe2b7fa0cf681019190915593517fb10e2d527612073b26eecdfd717e6a320cf44b4afac2b0732d9fcbe2b7fa0cf785018054975193518516620100000262ff0000199486166101000261ffff19909916929095169190911796909617919091169190911790935594517fb10e2d527612073b26eecdfd717e6a320cf44b4afac2b0732d9fcbe2b7fa0cf8909501949094559183526002909152902080546001600160a01b03191633179055565b3480156105f457600080fd5b506102fc610603366004613c99565b610f49565b34801561061457600080fd5b50610405610623366004613c6d565b61128d565b34801561063457600080fd5b5061065e610643366004613c99565b6010602052600090815260409020546001600160a01b031681565b6040516001600160a01b03909116815260200161037c565b34801561068257600080fd5b50610696610691366004613c99565b6112cf565b60405161037c9190613cb2565b3480156106af57600080fd5b5061065e6106be366004613c99565b6012602052600090815260409020546001600160a01b031681565b3480156106e557600080fd5b506106f96106f4366004613d21565b6113c1565b60405161037c9190600060a0820190508251825260ff602084015116602083015260ff604084015116604083015260ff60608401511660608301526080830151608083015292915050565b34801561075057600080fd5b5061065e61075f366004613c99565b6002602052600090815260409020546001600160a01b031681565b34801561078657600080fd5b5061065e610795366004613c99565b6011602052600090815260409020546001600160a01b031681565b3480156107bc57600080fd5b506102fc6107cb366004613d4a565b6114a8565b3480156107dc57600080fd5b506107f06107eb366004613d21565b6115bb565b60405161037c9190613d6c565b34801561080957600080fd5b506102fc61170f565b34801561081e57600080fd5b5061040561082d366004613c6d565b611723565b34801561083e57600080fd5b5061085261084d366004613d21565b611760565b60405161037c9190613dc2565b34801561086b57600080fd5b5061040561087a366004613d21565b60146020526000908152604090205481565b6102fc61089a366004613c6d565b6118a8565b3480156108ab57600080fd5b506104056108ba366004613d21565b60156020526000908152604090205481565b3480156108d857600080fd5b506000546001600160a01b031661065e565b6102fc6108f8366004613c99565b61198d565b6102fc61090b366004613c6d565b611a7f565b34801561091c57600080fd5b5061093061092b366004613c99565b611b40565b6040805195865260ff9485166020870152928416928501929092529091166060830152608082015260a00161037c565b34801561096c57600080fd5b5061040560095481565b34801561098257600080fd5b50610405610991366004613c99565b60166020526000908152604090205481565b3480156109af57600080fd5b506104056109be366004613d21565b60136020526000908152604090205481565b3480156109dc57600080fd5b506109f06109eb366004613c99565b611b8c565b6040805193845261ffff909216602084015260ff169082015260600161037c565b348015610a1d57600080fd5b50610405610a2c366004613c6d565b611bc9565b348015610a3d57600080fd5b50610405610a4c366004613c99565b611c06565b348015610a5d57600080fd5b50610405610a6c366004613e29565b611c59565b348015610a7d57600080fd5b506102fc610a8c366004613d4a565b611dae565b348015610a9d57600080fd5b50610ab1610aac366004613d21565b611f24565b60405161037c9190613eaf565b348015610aca57600080fd5b506102fc610ad9366004613fc0565b612162565b348015610aea57600080fd5b506102fc610af9366004613d4a565b6123ef565b348015610b0a57600080fd5b50610405610b19366004614084565b6124fb565b348015610b2a57600080fd5b50610405610b39366004613c99565b61266a565b348015610b4a57600080fd5b506102fc610b59366004613d4a565b6126c2565b348015610b6a57600080fd5b506102fc610b79366004614130565b612839565b348015610b8a57600080fd5b506102fc610b99366004613d21565b612a07565b348015610baa57600080fd5b50610bbe610bb9366004613c99565b612a80565b60405161037c99989796959493929190614165565b348015610bdf57600080fd5b50610405610bee366004613c99565b60176020526000908152604090205481565b6102fc610c0e366004613c6d565b612b6d565b348015610c1f57600080fd5b506102fc610c2e366004613c99565b612c64565b348015610c3f57600080fd5b506102fc610c4e3660046141bc565b613230565b60008281526012602052604090205482906001600160a01b03163314610c945760405162461bcd60e51b8152600401610c8b90614244565b60405180910390fd5b610c9e8383610eb7565b3414610cbc5760405162461bcd60e51b8152600401610c8b90614286565b600080546040516001600160a01b03909116913480156108fc02929091818181858888f19350505050158015610cf6573d6000803e3d6000fd5b508160ff16600f8481548110610d0e57610d0e6142aa565b6000918252602082206001600290920201018054909190610d3690849063ffffffff166142d6565b92506101000a81548163ffffffff021916908363ffffffff160217905550505050565b60248181548110610d6957600080fd5b60009182526020918290206006909102018054600182015460028301546040805180820190915260038501548152600485015495810195909552600590930154919450929085565b610dba81611c06565b3414610dd85760405162461bcd60e51b8152600401610c8b90614286565b600080546040516001600160a01b03909116913480156108fc02929091818181858888f19350505050158015610e12573d6000803e3d6000fd5b50600d8181548110610e2657610e266142aa565b600091825260208220600460099092020101805460ff1691610e47836142fe565b91906101000a81548160ff021916908360ff160217905550506000600d8281548110610e7557610e756142aa565b9060005260206000209060090201600601819055506000600d8281548110610e9f57610e9f6142aa565b90600052602060002090600902016007018190555050565b6000601d54600f8481548110610ecf57610ecf6142aa565b6000918252602090912060016002909202010154610ef69063ffffffff1660ff851661431d565b610f00919061431d565b90505b92915050565b600f8181548110610f1957600080fd5b60009182526020909120600290910201805460019091015490915063ffffffff8082169164010000000090041683565b60008181526010602052604090205481906001600160a01b03163314610f815760405162461bcd60e51b8152600401610c8b9061433c565b6000600a600d8481548110610f9857610f986142aa565b6000918252602090912060046009909202010154610fb9919060ff16614389565b610fc490600a6143ab565b610fcf9060026143ce565b33600090815260226020526040902054909150156110255760405162461bcd60e51b815260206004820152601360248201527263617220616c726561647920696e207261636560681b6044820152606401610c8b565b600d8381548110611038576110386142aa565b9060005260206000209060090201600301546000036110865760405162461bcd60e51b815260206004820152600a6024820152696e6f206368617373697360b01b6044820152606401610c8b565b600d8381548110611099576110996142aa565b9060005260206000209060090201600201546000036110e65760405162461bcd60e51b81526020600482015260096024820152686e6f20656e67696e6560b81b6044820152606401610c8b565b6110f0838261342a565b61112e5760405162461bcd60e51b815260206004820152600f60248201526e1b9bdd08195b9bdd59da08199d595b608a1b6044820152606401610c8b565b8060ff16600f600d8581548110611147576111476142aa565b90600052602060002090600902016003015481548110611169576111696142aa565b6000918252602090912060029091020160010154640100000000900463ffffffff1610156111c45760405162461bcd60e51b81526020600482015260086024820152677265736f7572636560c01b6044820152606401610c8b565b8060ff16600f600d85815481106111dd576111dd6142aa565b906000526020600020906009020160030154815481106111ff576111ff6142aa565b906000526020600020906002020160010160048282829054906101000a900463ffffffff1661122e91906143f7565b92506101000a81548163ffffffff021916908363ffffffff1602179055508060ff16600d8481548110611263576112636142aa565b90600052602060002090600902016005016000828254611283919061441c565b9091555050505050565b6000601a54600184815481106112a5576112a56142aa565b6000918252602090912060016003909202010154610ef69060ff610100909104811690851661431d565b60008181526025602052604090206006015460609060ff166113255760405162461bcd60e51b815260206004820152600f60248201526e1c9bdbdb481b9bdd0818db1bdcd959608a1b6044820152606401610c8b565b600082815260256020908152604080832060040180548251818502810185019093528083529193909284015b828210156113b6576000848152602090819020604080516080810182526003860290920180546001600160a01b0381168452600160a01b900460ff16151583850152600180820154928401929092526002015460608301529083529092019101611351565b505050509050919050565b6040805160a081018252600080825260208201819052918101829052606081018290526080810182905290805b600154811015611433576000818152600260205260409020546001600160a01b0380861691160361142157809150611433565b8061142b81614434565b9150506113ee565b5060018181548110611447576114476142aa565b60009182526020918290206040805160a081018252600390930290910180548352600181015460ff80821695850195909552610100810485169284019290925262010000909104909216606082015260029091015460808201529392505050565b60008181526012602052604090205481906001600160a01b031633146114e05760405162461bcd60e51b8152600401610c8b90614244565b60008381526010602052604090205483906001600160a01b031633146115185760405162461bcd60e51b8152600401610c8b9061433c565b82600d858154811061152c5761152c6142aa565b9060005260206000209060090201600301541461158b5760405162461bcd60e51b815260206004820152601860248201527f6368617373697320617265206e6f7420617474616368656400000000000000006044820152606401610c8b565b6000600d85815481106115a0576115a06142aa565b90600052602060002090600902016003018190555050505050565b6001600160a01b0381166000908152601560205260408120546060919067ffffffffffffffff8111156115f0576115f0613f79565b60405190808252806020026020018201604052801561163b57816020015b604080516060810182526000808252602080830182905292820152825260001990920191018161160e5790505b5090506000805b600f54811015611706576000818152601260205260409020546001600160a01b038087169116036116f457600f8181548110611680576116806142aa565b6000918252602091829020604080516060810182526002909302909101805483526001015463ffffffff8082169484019490945264010000000090049092169181019190915283518490849081106116da576116da6142aa565b602002602001018190525081806116f090614434565b9250505b806116fe81614434565b915050611642565b50909392505050565b6117176135cc565b6117216000613626565b565b60006019546001848154811061173b5761173b6142aa565b6000918252602090912060016003909202010154610ef69060ff90811690851661431d565b6001600160a01b0381166000908152601460205260408120546060919067ffffffffffffffff81111561179557611795613f79565b6040519080825280602002602001820160405280156117e057816020015b60408051606081018252600080825260208083018290529282015282526000199092019101816117b35790505b5090506000805b600e54811015611706576000818152601160205260409020546001600160a01b0380871691160361189657600e8181548110611825576118256142aa565b600091825260209182902060408051606081018252600293909302909101805483526001015461ffff8116938301939093526201000090920460ff1691810191909152835184908490811061187c5761187c6142aa565b6020026020010181905250818061189290614434565b9250505b806118a081614434565b9150506117e7565b60008281526002602052604090205482906001600160a01b031633146118cd57600080fd5b6118d7838361128d565b34146118f55760405162461bcd60e51b8152600401610c8b90614286565b600080546040516001600160a01b03909116913480156108fc02929091818181858888f1935050505015801561192f573d6000803e3d6000fd5b508160018481548110611944576119446142aa565b906000526020600020906003020160010160018282829054906101000a900460ff16611970919061444d565b92506101000a81548160ff021916908360ff160217905550505050565b60008181526011602052604090205481906001600160a01b031633146119c55760405162461bcd60e51b8152600401610c8b90614472565b6119ce8261266a565b34146119ec5760405162461bcd60e51b8152600401610c8b90614286565b600080546040516001600160a01b03909116913480156108fc02929091818181858888f19350505050158015611a26573d6000803e3d6000fd5b50600e8281548110611a3a57611a3a6142aa565b60009182526020909120600291820201600101805462010000900460ff1691611a62836144b3565b91906101000a81548160ff021916908360ff160217905550505050565b60008281526002602052604090205482906001600160a01b03163314611aa457600080fd5b611aae8383611723565b3414611acc5760405162461bcd60e51b8152600401610c8b90614286565b600080546040516001600160a01b03909116913480156108fc02929091818181858888f19350505050158015611b06573d6000803e3d6000fd5b508160018481548110611b1b57611b1b6142aa565b600091825260208220600160039092020101805490919061197090849060ff1661444d565b60018181548110611b5057600080fd5b600091825260209091206003909102018054600182015460029092015490925060ff808316926101008104821692620100009091049091169085565b600e8181548110611b9c57600080fd5b60009182526020909120600290910201805460019091015490915061ffff81169062010000900460ff1683565b6000601b54600e8481548110611be157611be16142aa565b6000918252602090912060016002909202010154610ef69061ffff1660ff851661431d565b6000600a600d8381548110611c1d57611c1d6142aa565b6000918252602090912060046009909202010154611c3e919060ff16614389565b611c4990600161444d565b60ff16601e54610f03919061431d565b6000611c636135cc565b600c805460009182611c7483614434565b909155506040805160608101825282815263ffffffff8781166020808401828152848601928352600f80546001810182556000918252955160029096027f8d1108e10bcb7c27dddfc02ed9d693a074039d026cf4ea4240b40f7d581ac80281019690965590517f8d1108e10bcb7c27dddfc02ed9d693a074039d026cf4ea4240b40f7d581ac8039095018054935185166401000000000267ffffffffffffffff1990941695909416949094179190911790915581546001600160a01b0316825260159052908120805492935090611d4a83614434565b9091555050600080548282526012602052604090912080546001600160a01b0319166001600160a01b039092169190911790558215610f005760008181526018602052604081208490556009805491611da283614434565b91905055509392505050565b60008181526011602052604090205481906001600160a01b03163314611de65760405162461bcd60e51b8152600401610c8b90614472565b60008381526010602052604090205483906001600160a01b03163314611e1e5760405162461bcd60e51b8152600401610c8b9061433c565b82600d8581548110611e3257611e326142aa565b90600052602060002090600902016002015403611e7f5760405162461bcd60e51b815260206004820152600b60248201526a73616d6520656e67696e6560a81b6044820152606401610c8b565b6000611e8a33611f24565b905060005b8151811015611ef35784828281518110611eab57611eab6142aa565b60200260200101516040015103611ee1576000828281518110611ed057611ed06142aa565b602002602001015160400181815250505b80611eeb81614434565b915050611e8f565b5083600d8681548110611f0857611f086142aa565b9060005260206000209060090201600201819055505050505050565b6001600160a01b0381166000908152601360205260408120546060919067ffffffffffffffff811115611f5957611f59613f79565b604051908082528060200260200182016040528015611fdc57816020015b611fc960405180610120016040528060608152602001600081526020016000815260200160008152602001600060ff168152602001600081526020016000815260200160008152602001600081525090565b815260200190600190039081611f775790505b5090506000805b600d54811015611706576000818152601060205260409020546001600160a01b0380871691160361215057600d8181548110612021576120216142aa565b90600052602060002090600902016040518061012001604052908160008201805461204b906144d0565b80601f0160208091040260200160405190810160405280929190818152602001828054612077906144d0565b80156120c45780601f10612099576101008083540402835291602001916120c4565b820191906000526020600020905b8154815290600101906020018083116120a757829003601f168201915b5050509183525050600182015460208201526002820154604082015260038201546060820152600482015460ff166080820152600582015460a0820152600682015460c0820152600782015460e0820152600890910154610100909101528351849084908110612136576121366142aa565b6020026020010181905250818061214c90614434565b9250505b8061215a81614434565b915050611fe3565b3360009081526021602052604090205482146121b05760405162461bcd60e51b815260206004820152600d60248201526c6e6f7420796f757220726f6f6d60981b6044820152606401610c8b565b600082815260256020526040808220600201549051634e31f59760e11b815290919073__PDDLib________________________________90639c63eb2e906121fe908590879060040161450a565b602060405180830381865af415801561221b573d6000803e3d6000fd5b505050506040513d601f19601f8201168201806040525081019061223f9190614558565b604080516080810182523380825283151560208084019182524284860190815260009384526022825285842054606086019081528b855260258352958420600481018054600181810183558288529487208851600390920201805496511515600160a01b026001600160a81b03199097166001600160a01b039290921691909117959095178555915192840192909255945160029092019190915590889052805492549394509092909190036123e7576040518681527f67acaceb58ff1ad2aa8b3069f69c4cd076824e06a09184b75fb197ead7040be79060200160405180910390a16000868152602560209081526040808320600601805460ff191660011790553383526021825280832083905560229091528120819055805b6000888152602560205260409020548110156123d3576000888152602560205260409020600401805482908110612393576123936142aa565b6000918252602090912060039091020154600160a01b900460ff16156123c157816123bd81614434565b9250505b806123cb81614434565b91505061235a565b50806000036123e55750505050505050565b505b505050505050565b60008181526011602052604090205481906001600160a01b031633146124275760405162461bcd60e51b8152600401610c8b90614472565b60008381526010602052604090205483906001600160a01b0316331461245f5760405162461bcd60e51b8152600401610c8b9061433c565b82600d8581548110612473576124736142aa565b906000526020600020906009020160020154146124cb5760405162461bcd60e51b8152602060048201526016602482015275195b99da5b99481a5cc81b9bdd08185d1d1858da195960521b6044820152606401610c8b565b6000600d85815481106124e0576124e06142aa565b90600052602060002090600902016002018190555050505050565b60006125056135cc565b600b80546000918261251683614434565b909155506040805160608101825282815261ffff8089166020830190815260ff808a16948401948552600e80546001810182556000918252945160029095027fbb7b4a454dc3493923482f07822329ed19e8244eff582cc204f8554c3620c3fd81019590955591517fbb7b4a454dc3493923482f07822329ed19e8244eff582cc204f8554c3620c3fe90940180549551909116620100000262ffffff199095169390921692909217929092179091559091506014906125dd6000546001600160a01b031690565b6001600160a01b031681526020810191909152604001600090812080549161260483614434565b9091555050600080548282526011602052604090912080546001600160a01b0319166001600160a01b039092169190911790558215612662576000818152601760205260408120849055600a80549161265c83614434565b91905055505b949350505050565b6000601c54600e8381548110612682576126826142aa565b60009182526020909120600290910201600101546126aa9062010000900460ff16600a6143ab565b6126b89060ff166002614656565b610f03919061431d565b60008181526012602052604090205481906001600160a01b031633146126fa5760405162461bcd60e51b8152600401610c8b90614244565b60008381526010602052604090205483906001600160a01b031633146127325760405162461bcd60e51b8152600401610c8b9061433c565b82600d8581548110612746576127466142aa565b906000526020600020906009020160030154036127945760405162461bcd60e51b815260206004820152600c60248201526b73616d65206368617373697360a01b6044820152606401610c8b565b600061279f33611f24565b905060005b815181101561280857848282815181106127c0576127c06142aa565b602002602001015160600151036127f65760008282815181106127e5576127e56142aa565b602002602001015160600181815250505b8061280081614434565b9150506127a4565b5083600d868154811061281d5761281d6142aa565b9060005260206000209060090201600301819055505050505050565b336000908152601360205260409020541561285357600080fd5b60008161285f42613676565b604051602001612870929190614662565b60405160208183030381529060405290506000816040516020016128949190614688565b6040516020818303038152906040528051906020012060001c905060006128b9613709565b905060006128c561383d565b600d80546040805161012081018252898152602080820189905291810187905260608101859052600160808201819052600060a0830181905260c0830181905260e083018190526101008301859052908401855593909352825180519495509193600985027fd7b6990105719101dabeb77144f2a3385c8033acd3af97e9423a695e81ad1eb5019261295b928492910190613bbe565b506020828101516001830155604080840151600284015560608401516003840155608084015160048401805460ff191660ff90921691909117905560a0840151600584015560c0840151600684015560e08401516007840155610100909301516008909201919091556000838152601082528281208054336001600160a01b03199091168117909155815260139091529081208054916129fa83614434565b9190505550505050505050565b612a0f6135cc565b6001600160a01b038116612a745760405162461bcd60e51b815260206004820152602660248201527f4f776e61626c653a206e6577206f776e657220697320746865207a65726f206160448201526564647265737360d01b6064820152608401610c8b565b612a7d81613626565b50565b600d8181548110612a9057600080fd5b9060005260206000209060090201600091509050806000018054612ab3906144d0565b80601f0160208091040260200160405190810160405280929190818152602001828054612adf906144d0565b8015612b2c5780601f10612b0157610100808354040283529160200191612b2c565b820191906000526020600020905b815481529060010190602001808311612b0f57829003601f168201915b50505060018401546002850154600386015460048701546005880154600689015460078a01546008909a01549899959894975092955060ff90911693909289565b60008281526011602052604090205482906001600160a01b03163314612ba55760405162461bcd60e51b8152600401610c8b90614472565b612baf8383611bc9565b3414612bcd5760405162461bcd60e51b8152600401610c8b90614286565b600080546040516001600160a01b03909116913480156108fc02929091818181858888f19350505050158015612c07573d6000803e3d6000fd5b508160ff16600e8481548110612c1f57612c1f6142aa565b6000918252602082206001600290920201018054909190612c4590849061ffff166146a4565b92506101000a81548161ffff021916908361ffff160217905550505050565b60008181526010602052604090205481906001600160a01b03163314612c9c5760405162461bcd60e51b8152600401610c8b9061433c565b6000805b6024548110156130b65760248181548110612cbd57612cbd6142aa565b906000526020600020906006020160020154600a600d8681548110612ce457612ce46142aa565b6000918252602090912060046009909202010154612d05919060ff16614389565b612d1090600161444d565b60ff16036130a4576001915060248181548110612d2f57612d2f6142aa565b6000918252602080832060069092029091015433835260218252604080842091909155602290915290208490556024805482908110612d7057612d706142aa565b600091825260208220600160069092020101805491612d8e83614434565b91905055506064600d8581548110612da857612da86142aa565b906000526020600020906009020160010154612dc491906146c1565b60248281548110612dd757612dd76142aa565b90600052602060002090600602016005016000828254612df7919061441c565b90915550506024805482908110612e1057612e106142aa565b90600052602060002090600602016003016000015460248281548110612e3857612e386142aa565b906000526020600020906006020160010154036130a457600073__PDDLib________________________________63c9827d8660248481548110612e7e57612e7e6142aa565b90600052602060002090600602016003016001015460248581548110612ea657612ea66142aa565b906000526020600020906006020160030160000154612ee860248781548110612ed157612ed16142aa565b906000526020600020906006020160050154613676565b6040518463ffffffff1660e01b8152600401612f06939291906146d5565b602060405180830381865af4158015612f23573d6000803e3d6000fd5b505050506040513d601f19601f82011682018060405250810190612f4791906146fd565b905060006025600060248581548110612f6257612f626142aa565b9060005260206000209060060201600001548152602001908152602001600020905060248381548110612f9757612f976142aa565b600091825260209091206003600690920201015481556024805484908110612fc157612fc16142aa565b6000918252602082206006918202016002908101546001850155830184905542600384015560058301919091558101805460ff19169055602480547f2838ebeee7dc83fac85a3d6dbca0c0b6771591ada8b00f97371aa6611e631f9c91908590811061302f5761302f6142aa565b600091825260209182902060069091020154604080519182529181018590520160405180910390a16024838154811061306a5761306a6142aa565b6000918252602082206006909102018181556001810182905560028101829055600381018290556004810182905560050155506130b69050565b806130ae81614434565b915050612ca0565b5080156130c257505050565b60238054600091826130d383614434565b919050559050600060405180604001604052806005426130f391906146c1565b6130fe90600261441c565b815260200161310e6002426146c1565b81525090508160216000336001600160a01b03166001600160a01b031681526020019081526020016000208190555060246040518060a0016040528084815260200160018152602001600a600d898154811061316c5761316c6142aa565b600091825260209091206004600990920201015461318d919060ff16614389565b61319890600161444d565b60ff1681526020018381526020016064600d89815481106131bb576131bb6142aa565b9060005260206000209060090201600101546131d791906146c1565b905281546001818101845560009384526020938490208351600690930201918255838301519082015560408201516002820155606082015180516003830155909201516004830155608001516005909101555050505050565b6132386135cc565b60008661324442613676565b604051602001613255929190614662565b60405160208183030381529060405290506000816040516020016132799190614688565b6040516020818303038152906040528051906020012060001c905060006132a2888860006124fb565b905060006132b1876000611c59565b600d805460408051610120810182528e815260208082018990529181018790526060810185905260ff8b166080820152600060a0820181905260c0820181905260e08201819052610100820184905260018401855593909352825180519495509193600985027fd7b6990105719101dabeb77144f2a3385c8033acd3af97e9423a695e81ad1eb50192613348928492910190613bbe565b506020828101516001830155604080840151600284015560608401516003840155608084015160048401805460ff90921660ff1990921691909117905560a0840151600584015560c0840151600684015560e0840151600784015561010090930151600890920191909155600080548482526010835283822080546001600160a01b0319166001600160a01b03928316179055815416815260139091529081208054916133f483614434565b90915550506000818152601660205260408120879055600880549161341883614434565b91905055505050505050505050505050565b600082815260106020526040812054819061344d906001600160a01b03166113c1565b905061345c8160000151613971565b6000600d8581548110613471576134716142aa565b9060005260206000209060090201600201549050600060019050600a85600e84815481106134a1576134a16142aa565b906000526020600020906002020160010160029054906101000a900460ff166134ca91906143ce565b60ff161061351b57600a600e83815481106134e7576134e76142aa565b600091825260209091206002909102016001015461350e9062010000900460ff16876143ce565b6135189190614389565b90505b8060ff166001846000015181548110613536576135366142aa565b600091825260209091206003909102016001015462010000900460ff16106135c057806001846000015181548110613570576135706142aa565b906000526020600020906003020160010160028282829054906101000a900460ff1661359c91906143ab565b92506101000a81548160ff021916908360ff16021790555060019350505050610f03565b60009350505050610f03565b6000546001600160a01b031633146117215760405162461bcd60e51b815260206004820181905260248201527f4f776e61626c653a2063616c6c6572206973206e6f7420746865206f776e65726044820152606401610c8b565b600080546001600160a01b038381166001600160a01b0319831681178455604051919092169283917f8be0079c531659141344cd1fd0a4f28419497f9722a3daafe3b4186f6b6457e09190a35050565b6060600061368383613ad0565b600101905060008167ffffffffffffffff8111156136a3576136a3613f79565b6040519080825280601f01601f1916602001820160405280156136cd576020820181803683370190505b5090508181016020015b600019016f181899199a1a9b1b9c1cb0b131b232b360811b600a86061a8153600a85049450846136d757509392505050565b60008060035460045461371c9190614716565b61372690426146c1565b600354613733919061441c565b600b8054919250600091908261374883614434565b909155506040805160608101825282815261ffff808616602080840191825260055460ff908116858701908152600e80546001810182556000918252965160029097027fbb7b4a454dc3493923482f07822329ed19e8244eff582cc204f8554c3620c3fd81019790975593517fbb7b4a454dc3493923482f07822329ed19e8244eff582cc204f8554c3620c3fe90960180549151909216620100000262ffffff199091169590941694909417929092179092553382526014905290812080549293509061381483614434565b9091555050600081815260116020526040902080546001600160a01b0319163317905592915050565b6000806006546007546138509190614716565b61385a90426146c1565b600654613867919061441c565b600c8054919250600091908261387c83614434565b909155506040805160608101825282815263ffffffff8086166020808401828152848601928352600f80546001810182556000918252955160029096027f8d1108e10bcb7c27dddfc02ed9d693a074039d026cf4ea4240b40f7d581ac80281019690965590517f8d1108e10bcb7c27dddfc02ed9d693a074039d026cf4ea4240b40f7d581ac8039095018054935185166401000000000267ffffffffffffffff199094169590941694909417919091179091553382526015905290812080549293509061394883614434565b9091555050600081815260126020526040902080546001600160a01b0319163317905592915050565b60004290506000610e106001848154811061398e5761398e6142aa565b906000526020600020906003020160020154836139ab9190614716565b6139b5919061472d565b90506000600184815481106139cc576139cc6142aa565b60009182526020909120600390910201600101546139f290610100900460ff168361431d565b60018581548110613a0557613a056142aa565b6000918252602090912060039091020160010154613a2c919062010000900460ff1661441c565b9050613a6560018581548110613a4457613a446142aa565b600091825260209091206001600390920201015460ff908116908316613ba8565b60018581548110613a7857613a786142aa565b906000526020600020906003020160010160026101000a81548160ff021916908360ff1602179055508260018581548110613ab557613ab56142aa565b90600052602060002090600302016002018190555050505050565b60008072184f03e93ff9f4daa797ed6e38ed64bf6a1f0160401b8310613b0f5772184f03e93ff9f4daa797ed6e38ed64bf6a1f0160401b830492506040015b6d04ee2d6d415b85acef81000000008310613b3b576d04ee2d6d415b85acef8100000000830492506020015b662386f26fc100008310613b5957662386f26fc10000830492506010015b6305f5e1008310613b71576305f5e100830492506008015b6127108310613b8557612710830492506004015b60648310613b97576064830492506002015b600a8310610f035760010192915050565b6000818310613bb75781610f00565b5090919050565b828054613bca906144d0565b90600052602060002090601f016020900481019282613bec5760008555613c32565b82601f10613c0557805160ff1916838001178555613c32565b82800160010185558215613c32579182015b82811115613c32578251825591602001919060010190613c17565b50613c3e929150613c42565b5090565b5b80821115613c3e5760008155600101613c43565b803560ff81168114613c6857600080fd5b919050565b60008060408385031215613c8057600080fd5b82359150613c9060208401613c57565b90509250929050565b600060208284031215613cab57600080fd5b5035919050565b602080825282518282018190526000919060409081850190868401855b82811015613d1457815180516001600160a01b031685528681015115158786015285810151868601526060908101519085015260809093019290850190600101613ccf565b5091979650505050505050565b600060208284031215613d3357600080fd5b81356001600160a01b0381168114610f0057600080fd5b60008060408385031215613d5d57600080fd5b50508035926020909101359150565b602080825282518282018190526000919060409081850190868401855b82811015613d14578151805185528681015163ffffffff9081168887015290860151168585015260609093019290850190600101613d89565b602080825282518282018190526000919060409081850190868401855b82811015613d14578151805185528681015161ffff168786015285015160ff168585015260609093019290850190600101613ddf565b803563ffffffff81168114613c6857600080fd5b60008060408385031215613e3c57600080fd5b613e4583613e15565b946020939093013593505050565b60005b83811015613e6e578181015183820152602001613e56565b83811115613e7d576000848401525b50505050565b60008151808452613e9b816020860160208601613e53565b601f01601f19169290920160200192915050565b60006020808301818452808551808352604092508286019150828160051b87010184880160005b83811015613f6b57603f1989840301855281516101208151818652613efd82870182613e83565b915050888201518986015287820151888601526060808301518187015250608080830151613f2f8288018260ff169052565b505060a0828101519086015260c0808301519086015260e080830151908601526101009182015191909401529386019390860190600101613ed6565b509098975050505050505050565b634e487b7160e01b600052604160045260246000fd5b604051601f8201601f1916810167ffffffffffffffff81118282101715613fb857613fb8613f79565b604052919050565b60008060408385031215613fd357600080fd5b8235915060208084013567ffffffffffffffff80821115613ff357600080fd5b818601915086601f83011261400757600080fd5b81358181111561401957614019613f79565b8060051b915061402a848301613f8f565b818152918301840191848101908984111561404457600080fd5b938501935b8385101561406257843582529385019390850190614049565b8096505050505050509250929050565b803561ffff81168114613c6857600080fd5b60008060006060848603121561409957600080fd5b6140a284614072565b92506140b060208501613c57565b9150604084013590509250925092565b600082601f8301126140d157600080fd5b813567ffffffffffffffff8111156140eb576140eb613f79565b6140fe601f8201601f1916602001613f8f565b81815284602083860101111561411357600080fd5b816020850160208301376000918101602001919091529392505050565b60006020828403121561414257600080fd5b813567ffffffffffffffff81111561415957600080fd5b612662848285016140c0565b60006101208083526141798184018d613e83565b602084019b909b5250506040810197909752606087019590955260ff93909316608086015260a085019190915260c084015260e083015261010090910152919050565b60008060008060008060c087890312156141d557600080fd5b863567ffffffffffffffff8111156141ec57600080fd5b6141f889828a016140c0565b96505061420760208801614072565b945061421560408801613c57565b935061422360608801613e15565b925061423160808801613c57565b915060a087013590509295509295509295565b60208082526022908201527f796f75277265206e6f74206f776e657220666f72207468697320436861737369604082015261732160f01b606082015260800190565b6020808252600a90820152691ddc9bdb99c818dbdcdd60b21b604082015260600190565b634e487b7160e01b600052603260045260246000fd5b634e487b7160e01b600052601160045260246000fd5b600063ffffffff8083168185168083038211156142f5576142f56142c0565b01949350505050565b600060ff821660ff8103614314576143146142c0565b60010192915050565b6000816000190483118215151615614337576143376142c0565b500290565b6020808252601e908201527f796f75277265206e6f74206f776e657220666f72207468697320436172210000604082015260600190565b634e487b7160e01b600052601260045260246000fd5b600060ff83168061439c5761439c614373565b8060ff84160491505092915050565b600060ff821660ff8416808210156143c5576143c56142c0565b90039392505050565b600060ff821660ff84168160ff04811182151516156143ef576143ef6142c0565b029392505050565b600063ffffffff83811690831681811015614414576144146142c0565b039392505050565b6000821982111561442f5761442f6142c0565b500190565b600060018201614446576144466142c0565b5060010190565b600060ff821660ff84168060ff0382111561446a5761446a6142c0565b019392505050565b60208082526021908201527f796f75277265206e6f74206f776e657220666f72207468697320456e67696e656040820152602160f81b606082015260800190565b600060ff8216806144c6576144c66142c0565b6000190192915050565b600181811c908216806144e457607f821691505b60208210810361450457634e487b7160e01b600052602260045260246000fd5b50919050565b6000604082018483526020604081850152818551808452606086019150828701935060005b8181101561454b5784518352938301939183019160010161452f565b5090979650505050505050565b60006020828403121561456a57600080fd5b81518015158114610f0057600080fd5b600181815b808511156145b557816000190482111561459b5761459b6142c0565b808516156145a857918102915b93841c939080029061457f565b509250929050565b6000826145cc57506001610f03565b816145d957506000610f03565b81600181146145ef57600281146145f957614615565b6001915050610f03565b60ff84111561460a5761460a6142c0565b50506001821b610f03565b5060208310610133831016604e8410600b8410161715614638575081810a610f03565b614642838361457a565b80600019048211156143ef576143ef6142c0565b6000610f0083836145bd565b60008351614674818460208801613e53565b8351908301906142f5818360208801613e53565b6000825161469a818460208701613e53565b9190910192915050565b600061ffff8083168185168083038211156142f5576142f56142c0565b6000826146d0576146d0614373565b500690565b8381528260208201526060604082015260006146f46060830184613e83565b95945050505050565b60006020828403121561470f57600080fd5b5051919050565b600082821015614728576147286142c0565b500390565b60008261473c5761473c614373565b50049056fea2646970667358221220caee4fff909677f863f1c2df452e9f37b0545b63f3394cafb0fab86de08a43c064736f6c634300080d0033",
  "immutableReferences": {},
  "source": "// SPDX-License-Identifier: MIT\npragma solidity ^0.8.13;\nimport \"./RaceHandler.sol\";\n\n/// @title car racing\ncontract CarRacing is RaceHandler{\n\n    /// checking amount of fuel\n    /// @param _carId car id\n    /// @param duration duration value\n    /// @return bool answer after checking\n    /// @dev count fuel amount for give answer\n    function _isEnoughFuel(uint _carId, uint8 duration) private returns(bool){\n        FuelStation memory station = getFuelStationByOwner(carToOwner[_carId]);\n        _refreshFuel(station.id);\n        uint engineId = cars[_carId].engineId;\n        uint8 liters= 1;\n        if (engines[engineId].consumtion * duration >= 10)\n            liters = duration * engines[engineId].consumtion / 10;\n\n        if (stations[station.id].currentFullness >= liters) {\n            stations[station.id].currentFullness -= liters;\n            return true;\n        }\n        else\n            return false;\n    }\n\n    /// refresh fuel\n    /// @param _fuelStationId fuel station id\n    function _refreshFuel(uint _fuelStationId) private {\n        uint curTime = block.timestamp;\n        uint wholeHours = (curTime - stations[_fuelStationId].lastUpdate) / 3600;\n        uint8 newFullness = uint8(stations[_fuelStationId].currentFullness + wholeHours * stations[_fuelStationId].productionPerHour);\n        stations[_fuelStationId].currentFullness = uint8(Math.min(stations[_fuelStationId].capacity, newFullness));\n        stations[_fuelStationId].lastUpdate = curTime;\n    }\n\n    /// start race\n    /// @param _carId car id\n    function startRace(uint _carId) external onlyOwnerOfCar(_carId) {\n        uint8 durToNextCrossroad = 2 * (10 - cars[_carId].carLevel / 10);\n\n        require(playersToCars[msg.sender]==0, \"car already in race\");\n        require(cars[_carId].chassisId!=0, \"no chassis\");\n        require(cars[_carId].engineId!=0, \"no engine\");\n        require(_isEnoughFuel(_carId, durToNextCrossroad), \"not enough fuel\");\n        require(chassis[cars[_carId].chassisId].resource >= durToNextCrossroad, \"resource\");\n        \n        // TODO\n\n        chassis[cars[_carId].chassisId].resource -= durToNextCrossroad;\n        cars[_carId].mileage += durToNextCrossroad;\n    }\n\n}",
  "sourcePath": "/Users/vvan/Programming/JavaScript/DriveSafely/contract/contracts/CarRacing.sol",
  "compiler": {
    "name": "solc",
    "version": "0.8.13+commit.abaa5c0e.Emscripten.clang"
  },
  "schemaVersion": "3.4.11",
  "updatedAt": "2023-01-12T18:53:59.562Z",
  "networkType": "ethereum",
  "devdoc": {
    "kind": "dev",
    "methods": {
      "commitAnswer(uint256,uint256[])": {
        "params": {
          "answer": "?",
          "roomId": "room id"
        }
      },
      "createCar(string)": {
        "details": "creating new car for user",
        "params": {
          "model": "car model"
        }
      },
      "createCustomCar(string,uint16,uint8,uint32,uint8,uint256)": {
        "details": "creation car for customer with different characteristics",
        "params": {
          "_carLevel": "car level",
          "_carPrice": "car price",
          "_consumtion": "car consumtion",
          "_durability": "car durability",
          "_horsePowers": "car horse powers",
          "_model": "car model"
        }
      },
      "createCustomChassis(uint32,uint256)": {
        "params": {
          "_chassisPrice": "chassis price",
          "_durability": "car durability"
        },
        "returns": {
          "_0": "id new chassis"
        }
      },
      "createCustomEngine(uint16,uint8,uint256)": {
        "params": {
          "_consumtion": "car consumtion",
          "_enginePrice": "car engine price",
          "_horsePowers": "car horse powers"
        },
        "returns": {
          "_0": "id new engine"
        }
      },
      "detachChassis(uint256,uint256)": {
        "details": "for installation new chassis",
        "params": {
          "carId": "car id",
          "chassisId": "chassis id"
        }
      },
      "detachEngine(uint256,uint256)": {
        "details": "for installation new engine",
        "params": {
          "carId": "car id",
          "engineId": "engine id"
        }
      },
      "findRoom(uint256)": {
        "details": "if exist appropriate room for current user, user start competition in this room, else add new room",
        "params": {
          "carId": "car id"
        }
      },
      "getCarsByOwner(address)": {
        "params": {
          "_owner": "owner's address"
        },
        "returns": {
          "_0": "Car[] memory owner's list of cars"
        }
      },
      "getChassisByOwner(address)": {
        "params": {
          "_owner": "owner's address"
        },
        "returns": {
          "_0": "Chassis[] memory owner's list of engines"
        }
      },
      "getClosedRoom(uint256)": {
        "details": "called after receiving the event about sending the last response to the room",
        "params": {
          "roomId": "room id"
        },
        "returns": {
          "_0": "Answer[] memory list with player response, player, player car and response time"
        }
      },
      "getEnginesByOwner(address)": {
        "params": {
          "_owner": "owner's address"
        },
        "returns": {
          "_0": "Engine[] memory owner's list of engines"
        }
      },
      "getFuelStationByOwner(address)": {
        "details": "exist only one",
        "params": {
          "_owner": "owner's address"
        },
        "returns": {
          "_0": "FuelStation memory one owner fuel station"
        }
      },
      "levelUp(uint256)": {
        "params": {
          "_carId": "car id"
        }
      },
      "owner()": {
        "details": "Returns the address of the current owner."
      },
      "renounceOwnership()": {
        "details": "Leaves the contract without owner. It will not be possible to call `onlyOwner` functions anymore. Can only be called by the current owner. NOTE: Renouncing ownership will leave the contract without an owner, thereby removing any functionality that is only available to the owner."
      },
      "startRace(uint256)": {
        "params": {
          "_carId": "car id"
        }
      },
      "switchChassis(uint256,uint256)": {
        "params": {
          "carId": "car id",
          "chassisId": "chassis id"
        }
      },
      "switchEngine(uint256,uint256)": {
        "params": {
          "carId": "car id",
          "engineId": "engine id"
        }
      },
      "transferOwnership(address)": {
        "details": "Transfers ownership of the contract to a new account (`newOwner`). Can only be called by the current owner."
      },
      "upgradeCapacity(uint256,uint8)": {
        "params": {
          "_counts": "size",
          "_fuelStatonId": "fuel station id"
        }
      },
      "upgradeConsumtion(uint256)": {
        "params": {
          "_engineId": "engine id"
        }
      },
      "upgradeDurability(uint256,uint8)": {
        "params": {
          "_chassisId": "chassis id",
          "_counts": "size"
        }
      },
      "upgradeHorsePowers(uint256,uint8)": {
        "params": {
          "_counts": "size",
          "_engineId": "engine id"
        }
      },
      "upgradeProductionPerHour(uint256,uint8)": {
        "params": {
          "_counts": "size",
          "_fuelStatonId": "fuel station id"
        }
      }
    },
    "title": "car racing",
    "version": 1
  },
  "userdoc": {
    "kind": "user",
    "methods": {
      "commitAnswer(uint256,uint256[])": {
        "notice": "commit ans"
      },
      "createCar(string)": {
        "notice": "creating car"
      },
      "createCustomCar(string,uint16,uint8,uint32,uint8,uint256)": {
        "notice": "customer car creation    (    )"
      },
      "createCustomChassis(uint32,uint256)": {
        "notice": "customer chassis creation"
      },
      "createCustomEngine(uint16,uint8,uint256)": {
        "notice": "customer engine creation"
      },
      "detachChassis(uint256,uint256)": {
        "notice": "removal of the old chassis"
      },
      "detachEngine(uint256,uint256)": {
        "notice": "removal of the old engine"
      },
      "findRoom(uint256)": {
        "notice": "search room for competition"
      },
      "getCarsByOwner(address)": {
        "notice": "list of owner cars"
      },
      "getChassisByOwner(address)": {
        "notice": "list of owner chassis"
      },
      "getClosedRoom(uint256)": {
        "notice": "get closed room"
      },
      "getEnginesByOwner(address)": {
        "notice": "list of owner engines"
      },
      "getFuelStationByOwner(address)": {
        "notice": "fuel station of owner"
      },
      "levelUp(uint256)": {
        "notice": "upgrade car level"
      },
      "startRace(uint256)": {
        "notice": "start race"
      },
      "switchChassis(uint256,uint256)": {
        "notice": "changing chassis in owner's car"
      },
      "switchEngine(uint256,uint256)": {
        "notice": "changing engine in owner's car"
      },
      "upgradeCapacity(uint256,uint8)": {
        "notice": "upgrade capacity of fuel station"
      },
      "upgradeConsumtion(uint256)": {
        "notice": "upgrade consumption"
      },
      "upgradeDurability(uint256,uint8)": {
        "notice": "upgrade durability"
      },
      "upgradeHorsePowers(uint256,uint8)": {
        "notice": "upgrade horse powers"
      },
      "upgradeProductionPerHour(uint256,uint8)": {
        "notice": "upgrade production on per hour"
      }
    },
    "version": 1
  }
}