{
  "contractName": "CarRacing",
  "abi": [
    {
      "anonymous": false,
      "inputs": [
        {
          "indexed": true,
          "internalType": "address",
          "name": "previousOwner",
          "type": "address"
        },
        {
          "indexed": true,
          "internalType": "address",
          "name": "newOwner",
          "type": "address"
        }
      ],
      "name": "OwnershipTransferred",
      "type": "event"
    },
    {
      "anonymous": false,
      "inputs": [
        {
          "indexed": false,
          "internalType": "uint256",
          "name": "roomId",
          "type": "uint256"
        }
      ],
      "name": "RoomClosed",
      "type": "event"
    },
    {
      "anonymous": false,
      "inputs": [
        {
          "indexed": false,
          "internalType": "uint256",
          "name": "roomId",
          "type": "uint256"
        },
        {
          "indexed": false,
          "internalType": "uint256",
          "name": "roomDNA",
          "type": "uint256"
        }
      ],
      "name": "RoomFull",
      "type": "event"
    },
    {
      "inputs": [
        {
          "internalType": "uint256",
          "name": "",
          "type": "uint256"
        }
      ],
      "name": "carToOwner",
      "outputs": [
        {
          "internalType": "address",
          "name": "",
          "type": "address"
        }
      ],
      "stateMutability": "view",
      "type": "function"
    },
    {
      "inputs": [
        {
          "internalType": "uint256",
          "name": "",
          "type": "uint256"
        }
      ],
      "name": "carToPrice",
      "outputs": [
        {
          "internalType": "uint256",
          "name": "",
          "type": "uint256"
        }
      ],
      "stateMutability": "view",
      "type": "function"
    },
    {
      "inputs": [
        {
          "internalType": "uint256",
          "name": "",
          "type": "uint256"
        }
      ],
      "name": "cars",
      "outputs": [
        {
          "internalType": "string",
          "name": "model",
          "type": "string"
        },
        {
          "internalType": "uint256",
          "name": "vin",
          "type": "uint256"
        },
        {
          "internalType": "uint256",
          "name": "engineId",
          "type": "uint256"
        },
        {
          "internalType": "uint256",
          "name": "chassisId",
          "type": "uint256"
        },
        {
          "internalType": "uint8",
          "name": "carLevel",
          "type": "uint8"
        },
        {
          "internalType": "uint256",
          "name": "mileage",
          "type": "uint256"
        },
        {
          "internalType": "uint256",
          "name": "winCountOnCurrentLevel",
          "type": "uint256"
        },
        {
          "internalType": "uint256",
          "name": "lossCountOnCurrentLevel",
          "type": "uint256"
        },
        {
          "internalType": "uint256",
          "name": "id",
          "type": "uint256"
        }
      ],
      "stateMutability": "view",
      "type": "function"
    },
    {
      "inputs": [
        {
          "internalType": "uint256",
          "name": "",
          "type": "uint256"
        }
      ],
      "name": "chassis",
      "outputs": [
        {
          "internalType": "uint256",
          "name": "id",
          "type": "uint256"
        },
        {
          "internalType": "uint32",
          "name": "durability",
          "type": "uint32"
        },
        {
          "internalType": "uint32",
          "name": "resource",
          "type": "uint32"
        }
      ],
      "stateMutability": "view",
      "type": "function"
    },
    {
      "inputs": [
        {
          "internalType": "uint256",
          "name": "",
          "type": "uint256"
        }
      ],
      "name": "chassisToOwner",
      "outputs": [
        {
          "internalType": "address",
          "name": "",
          "type": "address"
        }
      ],
      "stateMutability": "view",
      "type": "function"
    },
    {
      "inputs": [
        {
          "internalType": "uint256",
          "name": "",
          "type": "uint256"
        }
      ],
      "name": "chassisToPrice",
      "outputs": [
        {
          "internalType": "uint256",
          "name": "",
          "type": "uint256"
        }
      ],
      "stateMutability": "view",
      "type": "function"
    },
    {
      "inputs": [
        {
          "internalType": "uint256",
          "name": "roomId",
          "type": "uint256"
        },
        {
          "internalType": "uint256[]",
          "name": "answer",
          "type": "uint256[]"
        }
      ],
      "name": "commitAnswer",
      "outputs": [],
      "stateMutability": "nonpayable",
      "type": "function"
    },
    {
      "inputs": [
        {
          "internalType": "string",
          "name": "model",
          "type": "string"
        }
      ],
      "name": "createCar",
      "outputs": [],
      "stateMutability": "nonpayable",
      "type": "function"
    },
    {
      "inputs": [
        {
          "internalType": "string",
          "name": "_model",
          "type": "string"
        },
        {
          "internalType": "uint16",
          "name": "_horsePowers",
          "type": "uint16"
        },
        {
          "internalType": "uint8",
          "name": "_consumtion",
          "type": "uint8"
        },
        {
          "internalType": "uint32",
          "name": "_durability",
          "type": "uint32"
        },
        {
          "internalType": "uint8",
          "name": "_carLevel",
          "type": "uint8"
        },
        {
          "internalType": "uint256",
          "name": "_carPrice",
          "type": "uint256"
        }
      ],
      "name": "createCustomCar",
      "outputs": [],
      "stateMutability": "nonpayable",
      "type": "function"
    },
    {
      "inputs": [
        {
          "internalType": "uint32",
          "name": "_durability",
          "type": "uint32"
        },
        {
          "internalType": "uint256",
          "name": "_chassisPrice",
          "type": "uint256"
        }
      ],
      "name": "createCustomChassis",
      "outputs": [
        {
          "internalType": "uint256",
          "name": "",
          "type": "uint256"
        }
      ],
      "stateMutability": "nonpayable",
      "type": "function"
    },
    {
      "inputs": [
        {
          "internalType": "uint16",
          "name": "_horsePowers",
          "type": "uint16"
        },
        {
          "internalType": "uint8",
          "name": "_consumtion",
          "type": "uint8"
        },
        {
          "internalType": "uint256",
          "name": "_enginePrice",
          "type": "uint256"
        }
      ],
      "name": "createCustomEngine",
      "outputs": [
        {
          "internalType": "uint256",
          "name": "",
          "type": "uint256"
        }
      ],
      "stateMutability": "nonpayable",
      "type": "function"
    },
    {
      "inputs": [],
      "name": "createFuelStation",
      "outputs": [],
      "stateMutability": "nonpayable",
      "type": "function"
    },
    {
      "inputs": [
        {
          "internalType": "uint256",
          "name": "carId",
          "type": "uint256"
        },
        {
          "internalType": "uint256",
          "name": "chassisId",
          "type": "uint256"
        }
      ],
      "name": "detachChassis",
      "outputs": [],
      "stateMutability": "nonpayable",
      "type": "function"
    },
    {
      "inputs": [
        {
          "internalType": "uint256",
          "name": "carId",
          "type": "uint256"
        },
        {
          "internalType": "uint256",
          "name": "engineId",
          "type": "uint256"
        }
      ],
      "name": "detachEngine",
      "outputs": [],
      "stateMutability": "nonpayable",
      "type": "function"
    },
    {
      "inputs": [
        {
          "internalType": "uint256",
          "name": "",
          "type": "uint256"
        }
      ],
      "name": "engineToOwner",
      "outputs": [
        {
          "internalType": "address",
          "name": "",
          "type": "address"
        }
      ],
      "stateMutability": "view",
      "type": "function"
    },
    {
      "inputs": [
        {
          "internalType": "uint256",
          "name": "",
          "type": "uint256"
        }
      ],
      "name": "engineToPrice",
      "outputs": [
        {
          "internalType": "uint256",
          "name": "",
          "type": "uint256"
        }
      ],
      "stateMutability": "view",
      "type": "function"
    },
    {
      "inputs": [
        {
          "internalType": "uint256",
          "name": "",
          "type": "uint256"
        }
      ],
      "name": "engines",
      "outputs": [
        {
          "internalType": "uint256",
          "name": "id",
          "type": "uint256"
        },
        {
          "internalType": "uint16",
          "name": "horsePowers",
          "type": "uint16"
        },
        {
          "internalType": "uint8",
          "name": "consumtion",
          "type": "uint8"
        }
      ],
      "stateMutability": "view",
      "type": "function"
    },
    {
      "inputs": [
        {
          "internalType": "uint256",
          "name": "carId",
          "type": "uint256"
        }
      ],
      "name": "findRoom",
      "outputs": [],
      "stateMutability": "nonpayable",
      "type": "function"
    },
    {
      "inputs": [
        {
          "internalType": "uint256",
          "name": "",
          "type": "uint256"
        }
      ],
      "name": "fuelStationToOwner",
      "outputs": [
        {
          "internalType": "address",
          "name": "",
          "type": "address"
        }
      ],
      "stateMutability": "view",
      "type": "function"
    },
    {
      "inputs": [
        {
          "internalType": "address",
          "name": "_owner",
          "type": "address"
        }
      ],
      "name": "getCarsByOwner",
      "outputs": [
        {
          "components": [
            {
              "internalType": "string",
              "name": "model",
              "type": "string"
            },
            {
              "internalType": "uint256",
              "name": "vin",
              "type": "uint256"
            },
            {
              "internalType": "uint256",
              "name": "engineId",
              "type": "uint256"
            },
            {
              "internalType": "uint256",
              "name": "chassisId",
              "type": "uint256"
            },
            {
              "internalType": "uint8",
              "name": "carLevel",
              "type": "uint8"
            },
            {
              "internalType": "uint256",
              "name": "mileage",
              "type": "uint256"
            },
            {
              "internalType": "uint256",
              "name": "winCountOnCurrentLevel",
              "type": "uint256"
            },
            {
              "internalType": "uint256",
              "name": "lossCountOnCurrentLevel",
              "type": "uint256"
            },
            {
              "internalType": "uint256",
              "name": "id",
              "type": "uint256"
            }
          ],
          "internalType": "struct CarFactory.Car[]",
          "name": "",
          "type": "tuple[]"
        }
      ],
      "stateMutability": "view",
      "type": "function"
    },
    {
      "inputs": [
        {
          "internalType": "address",
          "name": "_owner",
          "type": "address"
        }
      ],
      "name": "getChassisByOwner",
      "outputs": [
        {
          "components": [
            {
              "internalType": "uint256",
              "name": "id",
              "type": "uint256"
            },
            {
              "internalType": "uint32",
              "name": "durability",
              "type": "uint32"
            },
            {
              "internalType": "uint32",
              "name": "resource",
              "type": "uint32"
            }
          ],
          "internalType": "struct CarFactory.Chassis[]",
          "name": "",
          "type": "tuple[]"
        }
      ],
      "stateMutability": "view",
      "type": "function"
    },
    {
      "inputs": [
        {
          "internalType": "uint256",
          "name": "roomId",
          "type": "uint256"
        }
      ],
      "name": "getClosedRoom",
      "outputs": [
        {
          "components": [
            {
              "internalType": "address",
              "name": "player",
              "type": "address"
            },
            {
              "internalType": "bool",
              "name": "correct",
              "type": "bool"
            },
            {
              "internalType": "uint256",
              "name": "time",
              "type": "uint256"
            },
            {
              "internalType": "uint256",
              "name": "carId",
              "type": "uint256"
            }
          ],
          "internalType": "struct RaceHandler.Answer[]",
          "name": "",
          "type": "tuple[]"
        }
      ],
      "stateMutability": "view",
      "type": "function"
    },
    {
      "inputs": [
        {
          "internalType": "address",
          "name": "_owner",
          "type": "address"
        }
      ],
      "name": "getEnginesByOwner",
      "outputs": [
        {
          "components": [
            {
              "internalType": "uint256",
              "name": "id",
              "type": "uint256"
            },
            {
              "internalType": "uint16",
              "name": "horsePowers",
              "type": "uint16"
            },
            {
              "internalType": "uint8",
              "name": "consumtion",
              "type": "uint8"
            }
          ],
          "internalType": "struct CarFactory.Engine[]",
          "name": "",
          "type": "tuple[]"
        }
      ],
      "stateMutability": "view",
      "type": "function"
    },
    {
      "inputs": [
        {
          "internalType": "address",
          "name": "_owner",
          "type": "address"
        }
      ],
      "name": "getFuelStationByOwner",
      "outputs": [
        {
          "components": [
            {
              "internalType": "uint256",
              "name": "id",
              "type": "uint256"
            },
            {
              "internalType": "uint8",
              "name": "capacity",
              "type": "uint8"
            },
            {
              "internalType": "uint8",
              "name": "productionPerHour",
              "type": "uint8"
            },
            {
              "internalType": "uint8",
              "name": "currentFullness",
              "type": "uint8"
            },
            {
              "internalType": "uint256",
              "name": "lastUpdate",
              "type": "uint256"
            }
          ],
          "internalType": "struct FuelStationFactory.FuelStation",
          "name": "",
          "type": "tuple"
        }
      ],
      "stateMutability": "view",
      "type": "function"
    },
    {
      "inputs": [
        {
          "internalType": "uint256",
          "name": "",
          "type": "uint256"
        }
      ],
      "name": "idToStartedRooms",
      "outputs": [
        {
          "internalType": "uint256",
          "name": "numberPlayers",
          "type": "uint256"
        },
        {
          "internalType": "uint256",
          "name": "world",
          "type": "uint256"
        },
        {
          "internalType": "uint256",
          "name": "roomDNA",
          "type": "uint256"
        },
        {
          "internalType": "uint256",
          "name": "startTime",
          "type": "uint256"
        },
        {
          "internalType": "uint256",
          "name": "curAnswer",
          "type": "uint256"
        },
        {
          "internalType": "bool",
          "name": "closed",
          "type": "bool"
        }
      ],
      "stateMutability": "view",
      "type": "function"
    },
    {
      "inputs": [
        {
          "internalType": "uint256",
          "name": "_carId",
          "type": "uint256"
        }
      ],
      "name": "levelUp",
      "outputs": [],
      "stateMutability": "payable",
      "type": "function"
    },
    {
      "inputs": [
        {
          "internalType": "uint256",
          "name": "",
          "type": "uint256"
        }
      ],
      "name": "openedRooms",
      "outputs": [
        {
          "internalType": "uint256",
          "name": "id",
          "type": "uint256"
        },
        {
          "internalType": "uint256",
          "name": "playersEntered",
          "type": "uint256"
        },
        {
          "internalType": "uint256",
          "name": "world",
          "type": "uint256"
        },
        {
          "components": [
            {
              "internalType": "uint256",
              "name": "playersNeeded",
              "type": "uint256"
            },
            {
              "internalType": "uint256",
              "name": "roadsNum",
              "type": "uint256"
            },
            {
              "internalType": "uint256",
              "name": "crossId",
              "type": "uint256"
            }
          ],
          "internalType": "struct RaceHandler.Cross",
          "name": "cross",
          "type": "tuple"
        }
      ],
      "stateMutability": "view",
      "type": "function"
    },
    {
      "inputs": [],
      "name": "owner",
      "outputs": [
        {
          "internalType": "address",
          "name": "",
          "type": "address"
        }
      ],
      "stateMutability": "view",
      "type": "function"
    },
    {
      "inputs": [
        {
          "internalType": "address",
          "name": "",
          "type": "address"
        }
      ],
      "name": "ownerCarCount",
      "outputs": [
        {
          "internalType": "uint256",
          "name": "",
          "type": "uint256"
        }
      ],
      "stateMutability": "view",
      "type": "function"
    },
    {
      "inputs": [
        {
          "internalType": "address",
          "name": "",
          "type": "address"
        }
      ],
      "name": "ownerChassisCount",
      "outputs": [
        {
          "internalType": "uint256",
          "name": "",
          "type": "uint256"
        }
      ],
      "stateMutability": "view",
      "type": "function"
    },
    {
      "inputs": [
        {
          "internalType": "address",
          "name": "",
          "type": "address"
        }
      ],
      "name": "ownerEngineCount",
      "outputs": [
        {
          "internalType": "uint256",
          "name": "",
          "type": "uint256"
        }
      ],
      "stateMutability": "view",
      "type": "function"
    },
    {
      "inputs": [],
      "name": "renounceOwnership",
      "outputs": [],
      "stateMutability": "nonpayable",
      "type": "function"
    },
    {
      "inputs": [
        {
          "internalType": "uint256",
          "name": "",
          "type": "uint256"
        }
      ],
      "name": "stations",
      "outputs": [
        {
          "internalType": "uint256",
          "name": "id",
          "type": "uint256"
        },
        {
          "internalType": "uint8",
          "name": "capacity",
          "type": "uint8"
        },
        {
          "internalType": "uint8",
          "name": "productionPerHour",
          "type": "uint8"
        },
        {
          "internalType": "uint8",
          "name": "currentFullness",
          "type": "uint8"
        },
        {
          "internalType": "uint256",
          "name": "lastUpdate",
          "type": "uint256"
        }
      ],
      "stateMutability": "view",
      "type": "function"
    },
    {
      "inputs": [
        {
          "internalType": "uint256",
          "name": "carId",
          "type": "uint256"
        },
        {
          "internalType": "uint256",
          "name": "chassisId",
          "type": "uint256"
        }
      ],
      "name": "switchChassis",
      "outputs": [],
      "stateMutability": "nonpayable",
      "type": "function"
    },
    {
      "inputs": [
        {
          "internalType": "uint256",
          "name": "carId",
          "type": "uint256"
        },
        {
          "internalType": "uint256",
          "name": "engineId",
          "type": "uint256"
        }
      ],
      "name": "switchEngine",
      "outputs": [],
      "stateMutability": "nonpayable",
      "type": "function"
    },
    {
      "inputs": [
        {
          "internalType": "address",
          "name": "newOwner",
          "type": "address"
        }
      ],
      "name": "transferOwnership",
      "outputs": [],
      "stateMutability": "nonpayable",
      "type": "function"
    },
    {
      "inputs": [
        {
          "internalType": "uint256",
          "name": "_fuelStatonId",
          "type": "uint256"
        },
        {
          "internalType": "uint8",
          "name": "_counts",
          "type": "uint8"
        }
      ],
      "name": "upgradeCapacity",
      "outputs": [],
      "stateMutability": "payable",
      "type": "function"
    },
    {
      "inputs": [
        {
          "internalType": "uint256",
          "name": "_engineId",
          "type": "uint256"
        },
        {
          "internalType": "uint8",
          "name": "_counts",
          "type": "uint8"
        }
      ],
      "name": "upgradeConsumtion",
      "outputs": [],
      "stateMutability": "payable",
      "type": "function"
    },
    {
      "inputs": [
        {
          "internalType": "uint256",
          "name": "_chassisId",
          "type": "uint256"
        },
        {
          "internalType": "uint8",
          "name": "_counts",
          "type": "uint8"
        }
      ],
      "name": "upgradeDurability",
      "outputs": [],
      "stateMutability": "payable",
      "type": "function"
    },
    {
      "inputs": [
        {
          "internalType": "uint256",
          "name": "_engineId",
          "type": "uint256"
        },
        {
          "internalType": "uint8",
          "name": "_counts",
          "type": "uint8"
        }
      ],
      "name": "upgradeHorsePowers",
      "outputs": [],
      "stateMutability": "payable",
      "type": "function"
    },
    {
      "inputs": [
        {
          "internalType": "uint256",
          "name": "_fuelStatonId",
          "type": "uint256"
        },
        {
          "internalType": "uint8",
          "name": "_counts",
          "type": "uint8"
        }
      ],
      "name": "upgradeProductionPerHour",
      "outputs": [],
      "stateMutability": "payable",
      "type": "function"
    },
    {
      "inputs": [
        {
          "internalType": "uint256",
          "name": "_carId",
          "type": "uint256"
        }
      ],
      "name": "startRace",
      "outputs": [],
      "stateMutability": "nonpayable",
      "type": "function"
    }
  ],
  "bytecode": "0x60806040526000805461ffff60a01b191661014f60a21b179055600160088190556009556509184e72a00060165565b5e620f48000601755650da475abf0006018556611c37937e080006019556305f5e100601a5566038d7ea4c68000601b553480156200006c57600080fd5b5062000078336200024b565b60506003908155605b60049081556005805460ff1916600a179055620186a06006556201d4c1600755600b80546001908101909155600c805482019055604080516060808201835284825260208281018681526000848601818152601c8054808a0182558184529651968b027f0e4562a10381dec21b205ed72637e6b1b523bdd0e4d4d50af5cd23dd4500a2118181019890985593517f0e4562a10381dec21b205ed72637e6b1b523bdd0e4d4d50af5cd23dd4500a2128086019190915591517f0e4562a10381dec21b205ed72637e6b1b523bdd0e4d4d50af5cd23dd4500a21394850155875180870189528b81528086018b8152818a018581528354808d0185558487529251928e02808b019390935590518285015551908501558751808701895260028082528187019b8c52818a018581528354808d0185558487529251928e02808b01939093559b51828501559a5190850155875180870189528b81528086018c8152818a018b81528354808d0185558487529251928e02808b019390935590518285015551908501558751958601885298855292840189815295840187815288548089018a559890915292519690970292830195909555915193810193909355519190920155601f556200029b565b600080546001600160a01b038381166001600160a01b0319831681178455604051919092169283917f8be0079c531659141344cd1fd0a4f28419497f9722a3daafe3b4186f6b6457e09190a35050565b61411b80620002ab6000396000f3fe6080604052600436106102515760003560e01c80638776601911610139578063c85b7fed116100b6578063f2fde38b1161007a578063f2fde38b146109ec578063f7746e3614610a0c578063f85993b914610a41578063faf4bb9814610a6e578063fb2d954f14610a81578063fb33250f14610aa157600080fd5b8063c85b7fed1461094c578063d1c54eea1461096c578063d7086fab1461098c578063ea126933146109ac578063ede6fbf5146109cc57600080fd5b8063b3b29afd116100fd578063b3b29afd14610871578063b72c0eea1461089e578063bfcc9716146108df578063c34cccc4146108ff578063c75bb4f41461091f57600080fd5b806387766019146107965780638da5cb5b146107c3578063906f5f34146107e157806392f859db146107f4578063aa11b6811461084457600080fd5b806344901490116101d25780636f206fc1116101965780636f206fc1146106d4578063715018a6146107015780637713d521146107165780637c62360f146107435780637fb2aa4d14610756578063859092671461078357600080fd5b806344901490146105a75780634e31f910146105dd578063594193d7146106485780635dcc4cc61461067e5780636b606d9b146106b457600080fd5b80631c5dde0e116102195780631c5dde0e14610396578063224370f0146103d857806324d822bf1461050c57806333ca504b1461052c5780633521c4261461057a57600080fd5b806303f2e05b146102565780630418394e1461026b578063081315ff146102f25780630a0176fc146103485780630ce90ec214610383575b600080fd5b6102696102643660046136b6565b610ac1565b005b34801561027757600080fd5b506102be6102863660046136e2565b602160205260009081526040902080546001820154600283015460038401546005850154600690950154939492939192909160ff1686565b6040805196875260208701959095529385019290925260608401526080830152151560a082015260c0015b60405180910390f35b3480156102fe57600080fd5b5061031261030d3660046136e2565b610bf7565b604080519485526020808601949094528481019290925280516060850152918201516080840152015160a082015260c0016102e9565b34801561035457600080fd5b506103756103633660046136e2565b60156020526000908152604090205481565b6040519081526020016102e9565b6102696103913660046136e2565b610c55565b3480156103a257600080fd5b506103b66103b13660046136e2565b610dc5565b6040805193845263ffffffff92831660208501529116908201526060016102e9565b3480156103e457600080fd5b50610269600180546040805160a0810182528281526000805460ff600160a01b820481166020808601828152600160a81b90940483168688019081526060870192835263ffffffff421660808801908152898b018b559986529551600389027fb10e2d527612073b26eecdfd717e6a320cf44b4afac2b0732d9fcbe2b7fa0cf681019190915593517fb10e2d527612073b26eecdfd717e6a320cf44b4afac2b0732d9fcbe2b7fa0cf785018054975193518516620100000262ff0000199486166101000261ffff19909916929095169190911796909617919091169190911790935594517fb10e2d527612073b26eecdfd717e6a320cf44b4afac2b0732d9fcbe2b7fa0cf8909501949094559183526002909152902080546001600160a01b03191633179055565b34801561051857600080fd5b506102696105273660046136e2565b610e05565b34801561053857600080fd5b506105626105473660046136e2565b600d602052600090815260409020546001600160a01b031681565b6040516001600160a01b0390911681526020016102e9565b34801561058657600080fd5b5061059a6105953660046136e2565b610fbc565b6040516102e991906136fb565b3480156105b357600080fd5b506105626105c23660046136e2565b600f602052600090815260409020546001600160a01b031681565b3480156105e957600080fd5b506105fd6105f836600461376a565b6110ae565b6040516102e99190600060a0820190508251825260ff602084015116602083015260ff604084015116604083015260ff60608401511660608301526080830151608083015292915050565b34801561065457600080fd5b506105626106633660046136e2565b6002602052600090815260409020546001600160a01b031681565b34801561068a57600080fd5b506105626106993660046136e2565b600e602052600090815260409020546001600160a01b031681565b3480156106c057600080fd5b506102696106cf366004613793565b611195565b3480156106e057600080fd5b506106f46106ef36600461376a565b611295565b6040516102e991906137b5565b34801561070d57600080fd5b506102696113e9565b34801561072257600080fd5b5061073661073136600461376a565b6113fd565b6040516102e9919061380b565b6102696107513660046136b6565b611545565b34801561076257600080fd5b5061037561077136600461376a565b60116020526000908152604090205481565b6102696107913660046136b6565b611660565b3480156107a257600080fd5b506103756107b136600461376a565b60126020526000908152604090205481565b3480156107cf57600080fd5b506000546001600160a01b0316610562565b6102696107ef3660046136b6565b611754565b34801561080057600080fd5b5061081461080f3660046136e2565b61183c565b6040805195865260ff9485166020870152928416928501929092529091166060830152608082015260a0016102e9565b34801561085057600080fd5b5061037561085f3660046136e2565b60136020526000908152604090205481565b34801561087d57600080fd5b5061037561088c36600461376a565b60106020526000908152604090205481565b3480156108aa57600080fd5b506108be6108b93660046136e2565b611888565b6040805193845261ffff909216602084015260ff16908201526060016102e9565b3480156108eb57600080fd5b506103756108fa366004613872565b6118c5565b34801561090b57600080fd5b5061026961091a366004613793565b611a0a565b34801561092b57600080fd5b5061093f61093a36600461376a565b611b5a565b6040516102e991906138f8565b34801561095857600080fd5b50610269610967366004613a09565b611d98565b34801561097857600080fd5b50610269610987366004613793565b611f95565b34801561099857600080fd5b506103756109a7366004613acd565b61207b565b3480156109b857600080fd5b506102696109c7366004613793565b6121d7565b3480156109d857600080fd5b506102696109e7366004613b79565b61233b565b3480156109f857600080fd5b50610269610a0736600461376a565b612509565b348015610a1857600080fd5b50610a2c610a273660046136e2565b612582565b6040516102e999989796959493929190613bae565b348015610a4d57600080fd5b50610375610a5c3660046136e2565b60146020526000908152604090205481565b610269610a7c3660046136b6565b61266f565b348015610a8d57600080fd5b50610269610a9c3660046136e2565b61277f565b348015610aad57600080fd5b50610269610abc366004613c05565b612c8d565b6000828152600f602052604090205482906001600160a01b03163314610b025760405162461bcd60e51b8152600401610af990613c8d565b60405180910390fd5b601a54600c8481548110610b1857610b18613cbb565b6000918252602090912060016002909202010154610b3f9063ffffffff1660ff8516613ce7565b63ffffffff16610b4f9190613d13565b3414610b5a57600080fd5b600080546040516001600160a01b03909116913480156108fc02929091818181858888f19350505050158015610b94573d6000803e3d6000fd5b508160ff16600c8481548110610bac57610bac613cbb565b6000918252602082206001600290920201018054909190610bd490849063ffffffff16613d32565b92506101000a81548163ffffffff021916908363ffffffff160217905550505050565b60208181548110610c0757600080fd5b60009182526020918290206006909102018054600182015460028301546040805160608101825260038601548152600486015496810196909652600590940154938501939093529093509184565b6000600a808381548110610c6b57610c6b613cbb565b6000918252602090912060046009909202010154610c8c919060ff16613d70565b610c97906001613d92565b60ff16601b54610ca79190613d13565b9050803414610ce55760405162461bcd60e51b815260206004820152600a6024820152691ddc9bdb99c818dbdcdd60b21b6044820152606401610af9565b600080546040516001600160a01b03909116913480156108fc02929091818181858888f19350505050158015610d1f573d6000803e3d6000fd5b50600a8281548110610d3357610d33613cbb565b600091825260208220600460099092020101805460ff1691610d5483613db7565b91906101000a81548160ff021916908360ff160217905550506000600a8381548110610d8257610d82613cbb565b9060005260206000209060090201600601819055506000600a8381548110610dac57610dac613cbb565b9060005260206000209060090201600701819055505050565b600c8181548110610dd557600080fd5b60009182526020909120600290910201805460019091015490915063ffffffff8082169164010000000090041683565b6000818152600d602052604090205481906001600160a01b03163314610e2a57600080fd5b6000600a808481548110610e4057610e40613cbb565b6000918252602090912060046009909202010154610e61919060ff16613d70565b610e6c90600a613dd6565b610e77906002613df9565b9050610e838382612e73565b8015610eea57508060ff16600c600a8581548110610ea357610ea3613cbb565b90600052602060002090600902016003015481548110610ec557610ec5613cbb565b6000918252602090912060029091020160010154640100000000900463ffffffff1610155b610ef357600080fd5b8060ff16600c600a8581548110610f0c57610f0c613cbb565b90600052602060002090600902016003015481548110610f2e57610f2e613cbb565b906000526020600020906002020160010160048282829054906101000a900463ffffffff16610f5d9190613e22565b92506101000a81548163ffffffff021916908363ffffffff1602179055508060ff16600a8481548110610f9257610f92613cbb565b90600052602060002090600902016005016000828254610fb29190613e47565b9091555050505050565b60008181526021602052604090206006015460609060ff166110125760405162461bcd60e51b815260206004820152600f60248201526e1c9bdbdb481b9bdd0818db1bdcd959608a1b6044820152606401610af9565b600082815260216020908152604080832060040180548251818502810185019093528083529193909284015b828210156110a3576000848152602090819020604080516080810182526003860290920180546001600160a01b0381168452600160a01b900460ff1615158385015260018082015492840192909252600201546060830152908352909201910161103e565b505050509050919050565b6040805160a081018252600080825260208201819052918101829052606081018290526080810182905290805b600154811015611120576000818152600260205260409020546001600160a01b0380861691160361110e57809150611120565b8061111881613e5f565b9150506110db565b506001818154811061113457611134613cbb565b60009182526020918290206040805160a081018252600390930290910180548352600181015460ff80821695850195909552610100810485169284019290925262010000909104909216606082015260029091015460808201529392505050565b6000818152600f602052604090205481906001600160a01b031633146111cd5760405162461bcd60e51b8152600401610af990613c8d565b6000838152600d602052604090205483906001600160a01b031633146111f257600080fd5b82600a858154811061120657611206613cbb565b906000526020600020906009020160030154146112655760405162461bcd60e51b815260206004820152601860248201527f6368617373697320617265206e6f7420617474616368656400000000000000006044820152606401610af9565b6000600a858154811061127a5761127a613cbb565b90600052602060002090600902016003018190555050505050565b6001600160a01b0381166000908152601260205260408120546060919067ffffffffffffffff8111156112ca576112ca6139c2565b60405190808252806020026020018201604052801561131557816020015b60408051606081018252600080825260208083018290529282015282526000199092019101816112e85790505b5090506000805b600c548110156113e0576000818152600f60205260409020546001600160a01b038087169116036113ce57600c818154811061135a5761135a613cbb565b6000918252602091829020604080516060810182526002909302909101805483526001015463ffffffff8082169484019490945264010000000090049092169181019190915283518490849081106113b4576113b4613cbb565b602002602001018190525081806113ca90613e5f565b9250505b806113d881613e5f565b91505061131c565b50909392505050565b6113f1613015565b6113fb600061306f565b565b6001600160a01b0381166000908152601160205260408120546060919067ffffffffffffffff811115611432576114326139c2565b60405190808252806020026020018201604052801561147d57816020015b60408051606081018252600080825260208083018290529282015282526000199092019101816114505790505b5090506000805b600b548110156113e0576000818152600e60205260409020546001600160a01b0380871691160361153357600b81815481106114c2576114c2613cbb565b600091825260209182902060408051606081018252600293909302909101805483526001015461ffff8116938301939093526201000090920460ff1691810191909152835184908490811061151957611519613cbb565b6020026020010181905250818061152f90613e5f565b9250505b8061153d81613e5f565b915050611484565b6000828152600e602052604090205482906001600160a01b0316331461156a57600080fd5b600b838154811061157d5761157d613cbb565b60009182526020909120600290910201600101546115a59062010000900460ff16600a613dd6565b6115b0906002613f54565b6019546115bd9190613d13565b34146115c857600080fd5b600080546040516001600160a01b03909116913480156108fc02929091818181858888f19350505050158015611602573d6000803e3d6000fd5b5081600b848154811061161757611617613cbb565b906000526020600020906002020160010160028282829054906101000a900460ff166116439190613dd6565b92506101000a81548160ff021916908360ff160217905550505050565b60008281526002602052604090205482906001600160a01b0316331461168557600080fd5b6017546001848154811061169b5761169b613cbb565b60009182526020909120600390910201600101546116c190610100900460ff1684613df9565b60ff166116ce9190613d13565b34146116d957600080fd5b600080546040516001600160a01b03909116913480156108fc02929091818181858888f19350505050158015611713573d6000803e3d6000fd5b50816001848154811061172857611728613cbb565b906000526020600020906003020160010160018282829054906101000a900460ff166116439190613d92565b60008281526002602052604090205482906001600160a01b0316331461177957600080fd5b6016546001848154811061178f5761178f613cbb565b60009182526020909120600160039092020101546117b09060ff1684613df9565b60ff166117bd9190613d13565b34146117c857600080fd5b600080546040516001600160a01b03909116913480156108fc02929091818181858888f19350505050158015611802573d6000803e3d6000fd5b50816001848154811061181757611817613cbb565b600091825260208220600160039092020101805490919061164390849060ff16613d92565b6001818154811061184c57600080fd5b600091825260209091206003909102018054600182015460029092015490925060ff808316926101008104821692620100009091049091169085565b600b818154811061189857600080fd5b60009182526020909120600290910201805460019091015490915061ffff81169062010000900460ff1683565b60006118cf613015565b60098054600091826118e083613e5f565b909155506040805160608101825282815263ffffffff8781166020808401828152848601928352600c80546001810182556000918252955160029096027fdf6966c971051c3d54ec59162606531493a51404a002842f56009d7e5cf4a8c781019690965590517fdf6966c971051c3d54ec59162606531493a51404a002842f56009d7e5cf4a8c89095018054935185166401000000000267ffffffffffffffff1990941695909416949094179190911790915581546001600160a01b03168252601290529081208054929350906119b683613e5f565b909155505060008054828252600f602052604090912080546001600160a01b0319166001600160a01b039092169190911790558215611a015760008181526015602052604090208390555b90505b92915050565b6000818152600e602052604090205481906001600160a01b03163314611a2f57600080fd5b6000838152600d602052604090205483906001600160a01b03163314611a5457600080fd5b82600a8581548110611a6857611a68613cbb565b90600052602060002090600902016002015403611ab55760405162461bcd60e51b815260206004820152600b60248201526a73616d6520656e67696e6560a81b6044820152606401610af9565b6000611ac033611b5a565b905060005b8151811015611b295784828281518110611ae157611ae1613cbb565b60200260200101516040015103611b17576000828281518110611b0657611b06613cbb565b602002602001015160400181815250505b80611b2181613e5f565b915050611ac5565b5083600a8681548110611b3e57611b3e613cbb565b9060005260206000209060090201600201819055505050505050565b6001600160a01b0381166000908152601060205260408120546060919067ffffffffffffffff811115611b8f57611b8f6139c2565b604051908082528060200260200182016040528015611c1257816020015b611bff60405180610120016040528060608152602001600081526020016000815260200160008152602001600060ff168152602001600081526020016000815260200160008152602001600081525090565b815260200190600190039081611bad5790505b5090506000805b600a548110156113e0576000818152600d60205260409020546001600160a01b03808716911603611d8657600a8181548110611c5757611c57613cbb565b906000526020600020906009020160405180610120016040529081600082018054611c8190613f63565b80601f0160208091040260200160405190810160405280929190818152602001828054611cad90613f63565b8015611cfa5780601f10611ccf57610100808354040283529160200191611cfa565b820191906000526020600020905b815481529060010190602001808311611cdd57829003601f168201915b5050509183525050600182015460208201526002820154604082015260038201546060820152600482015460ff166080820152600582015460a0820152600682015460c0820152600782015460e0820152600890910154610100909101528351849084908110611d6c57611d6c613cbb565b60200260200101819052508180611d8290613e5f565b9250505b80611d9081613e5f565b915050611c19565b336000908152601d60205260409020548214611de65760405162461bcd60e51b815260206004820152600d60248201526c6e6f7420796f757220726f6f6d60981b6044820152606401610af9565b600082815260216020526040808220600201549051634e31f59760e11b815290919073__PDDLib________________________________90639c63eb2e90611e349085908790600401613f9d565b602060405180830381865af4158015611e51573d6000803e3d6000fd5b505050506040513d601f19601f82011682018060405250810190611e759190613feb565b60408051608081018252338082528315156020808401918252428486019081526000938452601e825285842054606086019081528b855260218352958420600481018054600181810183558288529487208851600390920201805496511515600160a01b026001600160a81b03199097166001600160a01b03929092169190911795909517855591519284019290925594516002909201919091559088905280549254939450909290919003611f8d576040518681527f67acaceb58ff1ad2aa8b3069f69c4cd076824e06a09184b75fb197ead7040be79060200160405180910390a16000868152602160209081526040808320600601805460ff19166001179055338352601d8252808320839055601e9091528120555b505050505050565b6000818152600e602052604090205481906001600160a01b03163314611fba57600080fd5b6000838152600d602052604090205483906001600160a01b03163314611fdf57600080fd5b82600a8581548110611ff357611ff3613cbb565b9060005260206000209060090201600201541461204b5760405162461bcd60e51b8152602060048201526016602482015275195b99da5b99481a5cc81b9bdd08185d1d1858da195960521b6044820152606401610af9565b6000600a858154811061206057612060613cbb565b90600052602060002090600902016002018190555050505050565b6000612085613015565b600880546000918261209683613e5f565b909155506040805160608101825282815261ffff8089166020830190815260ff808a16948401948552600b80546001810182556000918252945160029095027f0175b7a638427703f0dbe7bb9bbf987a2551717b34e79f33b5b1008d1fa01db981019590955591517f0175b7a638427703f0dbe7bb9bbf987a2551717b34e79f33b5b1008d1fa01dba90940180549551909116620100000262ffffff1990951693909216929092179290921790915590915060119061215d6000546001600160a01b031690565b6001600160a01b031681526020810191909152604001600090812080549161218483613e5f565b909155505060008054828252600e602052604090912080546001600160a01b0319166001600160a01b0390921691909117905582156121cf5760008181526014602052604090208390555b949350505050565b6000818152600f602052604090205481906001600160a01b0316331461220f5760405162461bcd60e51b8152600401610af990613c8d565b6000838152600d602052604090205483906001600160a01b0316331461223457600080fd5b82600a858154811061224857612248613cbb565b906000526020600020906009020160030154036122965760405162461bcd60e51b815260206004820152600c60248201526b73616d65206368617373697360a01b6044820152606401610af9565b60006122a133611b5a565b905060005b815181101561230a57848282815181106122c2576122c2613cbb565b602002602001015160600151036122f85760008282815181106122e7576122e7613cbb565b602002602001015160600181815250505b8061230281613e5f565b9150506122a6565b5083600a868154811061231f5761231f613cbb565b9060005260206000209060090201600301819055505050505050565b336000908152601060205260409020541561235557600080fd5b600081612361426130bf565b60405160200161237292919061400d565b60405160208183030381529060405290506000816040516020016123969190614033565b6040516020818303038152906040528051906020012060001c905060006123bb613152565b905060006123c7613286565b600a80546040805161012081018252898152602080820189905291810187905260608101859052600160808201819052600060a0830181905260c0830181905260e083018190526101008301859052908401855593909352825180519495509193600985027fc65a7bb8d6351c1cf70c95a316cc6a92839c986682d98bc35f958f4883f9d2a8019261245d928492910190613607565b506020828101516001830155604080840151600284015560608401516003840155608084015160048401805460ff191660ff90921691909117905560a0840151600584015560c0840151600684015560e08401516007840155610100909301516008909201919091556000838152600d82528281208054336001600160a01b03199091168117909155815260109091529081208054916124fc83613e5f565b9190505550505050505050565b612511613015565b6001600160a01b0381166125765760405162461bcd60e51b815260206004820152602660248201527f4f776e61626c653a206e6577206f776e657220697320746865207a65726f206160448201526564647265737360d01b6064820152608401610af9565b61257f8161306f565b50565b600a818154811061259257600080fd5b90600052602060002090600902016000915090508060000180546125b590613f63565b80601f01602080910402602001604051908101604052809291908181526020018280546125e190613f63565b801561262e5780601f106126035761010080835404028352916020019161262e565b820191906000526020600020905b81548152906001019060200180831161261157829003601f168201915b50505060018401546002850154600386015460048701546005880154600689015460078a01546008909a01549899959894975092955060ff90911693909289565b6000828152600e602052604090205482906001600160a01b0316331461269457600080fd5b601854600b84815481106126aa576126aa613cbb565b60009182526020909120600160029092020101546126cf9061ffff1660ff851661404f565b61ffff166126dd9190613d13565b34146126e857600080fd5b600080546040516001600160a01b03909116913480156108fc02929091818181858888f19350505050158015612722573d6000803e3d6000fd5b508160ff16600b848154811061273a5761273a613cbb565b600091825260208220600160029092020101805490919061276090849061ffff16614070565b92506101000a81548161ffff021916908361ffff160217905550505050565b6000818152600d602052604090205481906001600160a01b031633146127a457600080fd5b6000805b602054811015612b2a57602081815481106127c5576127c5613cbb565b906000526020600020906006020160020154600a8086815481106127eb576127eb613cbb565b600091825260209091206004600990920201015461280c919060ff16613d70565b612817906001613d92565b60ff1603612b1857600191506020818154811061283657612836613cbb565b60009182526020808320600690920290910154338352601d8252604080842091909155601e825290912085905580548290811061287557612875613cbb565b60009182526020822060016006909202010180549161289383613e5f565b9190505550602081815481106128ab576128ab613cbb565b906000526020600020906006020160030160000154602082815481106128d3576128d3613cbb565b90600052602060002090600602016001015403612b1857600073__PDDLib________________________________63c037e5456020848154811061291957612919613cbb565b9060005260206000209060060201600301600201546020858154811061294157612941613cbb565b9060005260206000209060060201600301600001546040518363ffffffff1660e01b815260040161297c929190918252602082015260400190565b602060405180830381865af4158015612999573d6000803e3d6000fd5b505050506040513d601f19601f820116820180604052508101906129bd919061408d565b9050600060216000602085815481106129d8576129d8613cbb565b9060005260206000209060060201600001548152602001908152602001600020905060208381548110612a0d57612a0d613cbb565b6000918252602091829020600360069092020101548255805484908110612a3657612a36613cbb565b600091825260208083206006928302016002908101546001860155840185905542600385015560058401929092558201805460ff1916905580547f2838ebeee7dc83fac85a3d6dbca0c0b6771591ada8b00f97371aa6611e631f9c919085908110612aa357612aa3613cbb565b600091825260209182902060069091020154604080519182529181018590520160405180910390a160208381548110612ade57612ade613cbb565b600091825260208220600690910201818155600181018290556002810182905560038101829055600481018290556005015550612b2a9050565b80612b2281613e5f565b9150506127a8565b508015612b3657505050565b601f805460009182612b4783613e5f565b90915550601c54909150600090612b5e90426140a6565b905081601d6000336001600160a01b03166001600160a01b03168152602001908152602001600020819055506020604051806080016040528084815260200160018152602001600a808981548110612bb857612bb8613cbb565b6000918252602090912060046009909202010154612bd9919060ff16613d70565b612be4906001613d92565b60ff168152602001601c8481548110612bff57612bff613cbb565b60009182526020808320604080516060808201835260039586029093018054825260018082015483870152600291820154838501529190975288548082018a5598865294839020875160069099020197885586830151948801949094558584015194870194909455939092015180519285019290925591810151600484015501516005909101555050505050565b612c95613015565b600086612ca1426130bf565b604051602001612cb292919061400d565b6040516020818303038152906040529050600081604051602001612cd69190614033565b6040516020818303038152906040528051906020012060001c90506000612cff8888600061207b565b90506000612d0e8760006118c5565b600a805460408051610120810182528e815260208082018990529181018790526060810185905260ff8b166080820152600060a0820181905260c0820181905260e08201819052610100820184905260018401855593909352825180519495509193600985027fc65a7bb8d6351c1cf70c95a316cc6a92839c986682d98bc35f958f4883f9d2a80192612da5928492910190613607565b506020828101516001830155604080840151600284015560608401516003840155608084015160048401805460ff90921660ff1990921691909117905560a0840151600584015560c0840151600684015560e084015160078401556101009093015160089092019190915560008054848252600d835283822080546001600160a01b0319166001600160a01b0392831617905581541681526010909152908120805491612e5183613e5f565b9091555050600090815260136020526040902094909455505050505050505050565b6000828152600d60205260408120548190612e96906001600160a01b03166110ae565b9050612ea581600001516133ba565b6000600a8581548110612eba57612eba613cbb565b9060005260206000209060090201600201549050600060019050600a85600b8481548110612eea57612eea613cbb565b906000526020600020906002020160010160029054906101000a900460ff16612f139190613df9565b60ff1610612f6457600a600b8381548110612f3057612f30613cbb565b6000918252602090912060029091020160010154612f579062010000900460ff1687613df9565b612f619190613d70565b90505b8060ff166001846000015181548110612f7f57612f7f613cbb565b600091825260209091206003909102016001015462010000900460ff161061300957806001846000015181548110612fb957612fb9613cbb565b906000526020600020906003020160010160028282829054906101000a900460ff16612fe59190613dd6565b92506101000a81548160ff021916908360ff16021790555060019350505050611a04565b60009350505050611a04565b6000546001600160a01b031633146113fb5760405162461bcd60e51b815260206004820181905260248201527f4f776e61626c653a2063616c6c6572206973206e6f7420746865206f776e65726044820152606401610af9565b600080546001600160a01b038381166001600160a01b0319831681178455604051919092169283917f8be0079c531659141344cd1fd0a4f28419497f9722a3daafe3b4186f6b6457e09190a35050565b606060006130cc83613519565b600101905060008167ffffffffffffffff8111156130ec576130ec6139c2565b6040519080825280601f01601f191660200182016040528015613116576020820181803683370190505b5090508181016020015b600019016f181899199a1a9b1b9c1cb0b131b232b360811b600a86061a8153600a850494508461312057509392505050565b60008060035460045461316591906140ba565b61316f90426140a6565b60035461317c9190613e47565b60088054919250600091908261319183613e5f565b909155506040805160608101825282815261ffff808616602080840191825260055460ff908116858701908152600b80546001810182556000918252965160029097027f0175b7a638427703f0dbe7bb9bbf987a2551717b34e79f33b5b1008d1fa01db981019790975593517f0175b7a638427703f0dbe7bb9bbf987a2551717b34e79f33b5b1008d1fa01dba90960180549151909216620100000262ffffff199091169590941694909417929092179092553382526011905290812080549293509061325d83613e5f565b90915550506000818152600e6020526040902080546001600160a01b0319163317905592915050565b60008060065460075461329991906140ba565b6132a390426140a6565b6006546132b09190613e47565b6009805491925060009190826132c583613e5f565b909155506040805160608101825282815263ffffffff8086166020808401828152848601928352600c80546001810182556000918252955160029096027fdf6966c971051c3d54ec59162606531493a51404a002842f56009d7e5cf4a8c781019690965590517fdf6966c971051c3d54ec59162606531493a51404a002842f56009d7e5cf4a8c89095018054935185166401000000000267ffffffffffffffff199094169590941694909417919091179091553382526012905290812080549293509061339183613e5f565b90915550506000818152600f6020526040902080546001600160a01b0319163317905592915050565b60004290506000610e10600184815481106133d7576133d7613cbb565b906000526020600020906003020160020154836133f491906140ba565b6133fe91906140d1565b905060006001848154811061341557613415613cbb565b600091825260209091206003909102016001015461343b90610100900460ff1683613d13565b6001858154811061344e5761344e613cbb565b6000918252602090912060039091020160010154613475919062010000900460ff16613e47565b90506134ae6001858154811061348d5761348d613cbb565b600091825260209091206001600390920201015460ff9081169083166135f1565b600185815481106134c1576134c1613cbb565b906000526020600020906003020160010160026101000a81548160ff021916908360ff16021790555082600185815481106134fe576134fe613cbb565b90600052602060002090600302016002018190555050505050565b60008072184f03e93ff9f4daa797ed6e38ed64bf6a1f0160401b83106135585772184f03e93ff9f4daa797ed6e38ed64bf6a1f0160401b830492506040015b6d04ee2d6d415b85acef81000000008310613584576d04ee2d6d415b85acef8100000000830492506020015b662386f26fc1000083106135a257662386f26fc10000830492506010015b6305f5e10083106135ba576305f5e100830492506008015b61271083106135ce57612710830492506004015b606483106135e0576064830492506002015b600a8310611a045760010192915050565b60008183106136005781611a01565b5090919050565b82805461361390613f63565b90600052602060002090601f016020900481019282613635576000855561367b565b82601f1061364e57805160ff191683800117855561367b565b8280016001018555821561367b579182015b8281111561367b578251825591602001919060010190613660565b5061368792915061368b565b5090565b5b80821115613687576000815560010161368c565b803560ff811681146136b157600080fd5b919050565b600080604083850312156136c957600080fd5b823591506136d9602084016136a0565b90509250929050565b6000602082840312156136f457600080fd5b5035919050565b602080825282518282018190526000919060409081850190868401855b8281101561375d57815180516001600160a01b031685528681015115158786015285810151868601526060908101519085015260809093019290850190600101613718565b5091979650505050505050565b60006020828403121561377c57600080fd5b81356001600160a01b0381168114611a0157600080fd5b600080604083850312156137a657600080fd5b50508035926020909101359150565b602080825282518282018190526000919060409081850190868401855b8281101561375d578151805185528681015163ffffffff90811688870152908601511685850152606090930192908501906001016137d2565b602080825282518282018190526000919060409081850190868401855b8281101561375d578151805185528681015161ffff168786015285015160ff168585015260609093019290850190600101613828565b803563ffffffff811681146136b157600080fd5b6000806040838503121561388557600080fd5b61388e8361385e565b946020939093013593505050565b60005b838110156138b757818101518382015260200161389f565b838111156138c6576000848401525b50505050565b600081518084526138e481602086016020860161389c565b601f01601f19169290920160200192915050565b60006020808301818452808551808352604092508286019150828160051b87010184880160005b838110156139b457603f1989840301855281516101208151818652613946828701826138cc565b9150508882015189860152878201518886015260608083015181870152506080808301516139788288018260ff169052565b505060a0828101519086015260c0808301519086015260e08083015190860152610100918201519190940152938601939086019060010161391f565b509098975050505050505050565b634e487b7160e01b600052604160045260246000fd5b604051601f8201601f1916810167ffffffffffffffff81118282101715613a0157613a016139c2565b604052919050565b60008060408385031215613a1c57600080fd5b8235915060208084013567ffffffffffffffff80821115613a3c57600080fd5b818601915086601f830112613a5057600080fd5b813581811115613a6257613a626139c2565b8060051b9150613a738483016139d8565b8181529183018401918481019089841115613a8d57600080fd5b938501935b83851015613aab57843582529385019390850190613a92565b8096505050505050509250929050565b803561ffff811681146136b157600080fd5b600080600060608486031215613ae257600080fd5b613aeb84613abb565b9250613af9602085016136a0565b9150604084013590509250925092565b600082601f830112613b1a57600080fd5b813567ffffffffffffffff811115613b3457613b346139c2565b613b47601f8201601f19166020016139d8565b818152846020838601011115613b5c57600080fd5b816020850160208301376000918101602001919091529392505050565b600060208284031215613b8b57600080fd5b813567ffffffffffffffff811115613ba257600080fd5b6121cf84828501613b09565b6000610120808352613bc28184018d6138cc565b602084019b909b5250506040810197909752606087019590955260ff93909316608086015260a085019190915260c084015260e083015261010090910152919050565b60008060008060008060c08789031215613c1e57600080fd5b863567ffffffffffffffff811115613c3557600080fd5b613c4189828a01613b09565b965050613c5060208801613abb565b9450613c5e604088016136a0565b9350613c6c6060880161385e565b9250613c7a608088016136a0565b915060a087013590509295509295509295565b6020808252601490820152730c6d0c2e6e6d2e640dcdee840f2deeae4407c74560631b604082015260600190565b634e487b7160e01b600052603260045260246000fd5b634e487b7160e01b600052601160045260246000fd5b600063ffffffff80831681851681830481118215151615613d0a57613d0a613cd1565b02949350505050565b6000816000190483118215151615613d2d57613d2d613cd1565b500290565b600063ffffffff808316818516808303821115613d5157613d51613cd1565b01949350505050565b634e487b7160e01b600052601260045260246000fd5b600060ff831680613d8357613d83613d5a565b8060ff84160491505092915050565b600060ff821660ff84168060ff03821115613daf57613daf613cd1565b019392505050565b600060ff821660ff8103613dcd57613dcd613cd1565b60010192915050565b600060ff821660ff841680821015613df057613df0613cd1565b90039392505050565b600060ff821660ff84168160ff0481118215151615613e1a57613e1a613cd1565b029392505050565b600063ffffffff83811690831681811015613e3f57613e3f613cd1565b039392505050565b60008219821115613e5a57613e5a613cd1565b500190565b600060018201613e7157613e71613cd1565b5060010190565b600181815b80851115613eb3578160001904821115613e9957613e99613cd1565b80851615613ea657918102915b93841c9390800290613e7d565b509250929050565b600082613eca57506001611a04565b81613ed757506000611a04565b8160018114613eed5760028114613ef757613f13565b6001915050611a04565b60ff841115613f0857613f08613cd1565b50506001821b611a04565b5060208310610133831016604e8410600b8410161715613f36575081810a611a04565b613f408383613e78565b8060001904821115613e1a57613e1a613cd1565b6000611a0160ff841683613ebb565b600181811c90821680613f7757607f821691505b602082108103613f9757634e487b7160e01b600052602260045260246000fd5b50919050565b6000604082018483526020604081850152818551808452606086019150828701935060005b81811015613fde57845183529383019391830191600101613fc2565b5090979650505050505050565b600060208284031215613ffd57600080fd5b81518015158114611a0157600080fd5b6000835161401f81846020880161389c565b835190830190613d5181836020880161389c565b6000825161404581846020870161389c565b9190910192915050565b600061ffff80831681851681830481118215151615613d0a57613d0a613cd1565b600061ffff808316818516808303821115613d5157613d51613cd1565b60006020828403121561409f57600080fd5b5051919050565b6000826140b5576140b5613d5a565b500690565b6000828210156140cc576140cc613cd1565b500390565b6000826140e0576140e0613d5a565b50049056fea26469706673582212206b47f5942e0121f8dfaa2ac83d37a4171f4e9c309efe3649a010f3953679234364736f6c634300080d0033",
  "immutableReferences": {},
  "source": "// SPDX-License-Identifier: MIT\npragma solidity ^0.8.13;\nimport \"./RaceHandler.sol\";\n\ncontract CarRacing is RaceHandler{\n\n    function _isEnoughFuel(uint _carId, uint8 duration) private returns(bool){\n        FuelStation memory station = getFuelStationByOwner(carToOwner[_carId]);\n        _refreshFuel(station.id);\n        uint engineId = cars[_carId].engineId;\n        uint8 liters= 1;\n        if (engines[engineId].consumtion * duration >= 10)\n            liters = duration * engines[engineId].consumtion / 10;\n\n        if (stations[station.id].currentFullness >= liters) {\n            stations[station.id].currentFullness -= liters;\n            return true;\n        }\n        else\n            return false;\n    }\n\n    function _refreshFuel(uint _fuelStationId) private {\n        uint curTime = block.timestamp;\n        uint wholeHours = (curTime - stations[_fuelStationId].lastUpdate) / 3600;\n        uint8 newFullness = uint8(stations[_fuelStationId].currentFullness + wholeHours * stations[_fuelStationId].productionPerHour);\n        stations[_fuelStationId].currentFullness = uint8(Math.min(stations[_fuelStationId].capacity, newFullness));\n        stations[_fuelStationId].lastUpdate = curTime;\n    }\n\n\n    function startRace(uint _carId) external onlyOwnerOfCar(_carId) {\n        uint8 durToNextCrossroad = 2 * (10 - cars[_carId].carLevel / 10);\n\n        require(_isEnoughFuel(_carId, durToNextCrossroad) && chassis[cars[_carId].chassisId].resource >= durToNextCrossroad);\n        // TODO\n\n        chassis[cars[_carId].chassisId].resource -= durToNextCrossroad;\n        cars[_carId].mileage += durToNextCrossroad;\n    }\n\n}",
  "sourcePath": "/Users/vvan/Programming/JavaScript/DriveSafely/contract/contracts/CarRacing.sol",
  "compiler": {
    "name": "solc",
    "version": "0.8.13+commit.abaa5c0e.Emscripten.clang"
  },
  "schemaVersion": "3.4.11",
  "updatedAt": "2023-01-11T11:15:32.732Z",
  "networkType": "ethereum",
  "devdoc": {
    "kind": "dev",
    "methods": {
      "owner()": {
        "details": "Returns the address of the current owner."
      },
      "renounceOwnership()": {
        "details": "Leaves the contract without owner. It will not be possible to call `onlyOwner` functions anymore. Can only be called by the current owner. NOTE: Renouncing ownership will leave the contract without an owner, thereby removing any functionality that is only available to the owner."
      },
      "transferOwnership(address)": {
        "details": "Transfers ownership of the contract to a new account (`newOwner`). Can only be called by the current owner."
      }
    },
    "version": 1
  },
  "userdoc": {
    "kind": "user",
    "methods": {},
    "version": 1
  }
}