{
  "contractName": "CarRacing",
  "abi": [
    {
      "anonymous": false,
      "inputs": [
        {
          "indexed": true,
          "internalType": "address",
          "name": "previousOwner",
          "type": "address"
        },
        {
          "indexed": true,
          "internalType": "address",
          "name": "newOwner",
          "type": "address"
        }
      ],
      "name": "OwnershipTransferred",
      "type": "event"
    },
    {
      "anonymous": false,
      "inputs": [
        {
          "indexed": false,
          "internalType": "uint256",
          "name": "roomId",
          "type": "uint256"
        }
      ],
      "name": "RoomClosed",
      "type": "event"
    },
    {
      "anonymous": false,
      "inputs": [
        {
          "indexed": false,
          "internalType": "uint256",
          "name": "roomId",
          "type": "uint256"
        },
        {
          "indexed": false,
          "internalType": "uint256",
          "name": "roomDNA",
          "type": "uint256"
        }
      ],
      "name": "RoomFull",
      "type": "event"
    },
    {
      "inputs": [
        {
          "internalType": "uint256",
          "name": "",
          "type": "uint256"
        }
      ],
      "name": "carToOwner",
      "outputs": [
        {
          "internalType": "address",
          "name": "",
          "type": "address"
        }
      ],
      "stateMutability": "view",
      "type": "function"
    },
    {
      "inputs": [
        {
          "internalType": "uint256",
          "name": "",
          "type": "uint256"
        }
      ],
      "name": "cars",
      "outputs": [
        {
          "internalType": "string",
          "name": "model",
          "type": "string"
        },
        {
          "internalType": "uint256",
          "name": "vin",
          "type": "uint256"
        },
        {
          "internalType": "uint256",
          "name": "engineId",
          "type": "uint256"
        },
        {
          "internalType": "uint256",
          "name": "chassisId",
          "type": "uint256"
        },
        {
          "internalType": "uint8",
          "name": "carLevel",
          "type": "uint8"
        },
        {
          "internalType": "uint256",
          "name": "mileage",
          "type": "uint256"
        },
        {
          "internalType": "uint256",
          "name": "winCountOnCurrentLevel",
          "type": "uint256"
        },
        {
          "internalType": "uint256",
          "name": "lossCountOnCurrentLevel",
          "type": "uint256"
        },
        {
          "internalType": "uint256",
          "name": "id",
          "type": "uint256"
        }
      ],
      "stateMutability": "view",
      "type": "function"
    },
    {
      "inputs": [
        {
          "internalType": "uint256",
          "name": "",
          "type": "uint256"
        }
      ],
      "name": "chassis",
      "outputs": [
        {
          "internalType": "uint256",
          "name": "id",
          "type": "uint256"
        },
        {
          "internalType": "uint32",
          "name": "durability",
          "type": "uint32"
        },
        {
          "internalType": "uint32",
          "name": "resource",
          "type": "uint32"
        }
      ],
      "stateMutability": "view",
      "type": "function"
    },
    {
      "inputs": [
        {
          "internalType": "uint256",
          "name": "",
          "type": "uint256"
        }
      ],
      "name": "chassisToOwner",
      "outputs": [
        {
          "internalType": "address",
          "name": "",
          "type": "address"
        }
      ],
      "stateMutability": "view",
      "type": "function"
    },
    {
      "inputs": [
        {
          "internalType": "uint256",
          "name": "roomId",
          "type": "uint256"
        },
        {
          "internalType": "uint256[]",
          "name": "answer",
          "type": "uint256[]"
        }
      ],
      "name": "commitAnswer",
      "outputs": [],
      "stateMutability": "nonpayable",
      "type": "function"
    },
    {
      "inputs": [
        {
          "internalType": "string",
          "name": "model",
          "type": "string"
        }
      ],
      "name": "createCar",
      "outputs": [],
      "stateMutability": "nonpayable",
      "type": "function"
    },
    {
      "inputs": [],
      "name": "createFuelStation",
      "outputs": [],
      "stateMutability": "nonpayable",
      "type": "function"
    },
    {
      "inputs": [
        {
          "internalType": "uint256",
          "name": "carId",
          "type": "uint256"
        },
        {
          "internalType": "uint256",
          "name": "chassisId",
          "type": "uint256"
        }
      ],
      "name": "detachChassis",
      "outputs": [],
      "stateMutability": "nonpayable",
      "type": "function"
    },
    {
      "inputs": [
        {
          "internalType": "uint256",
          "name": "carId",
          "type": "uint256"
        },
        {
          "internalType": "uint256",
          "name": "engineId",
          "type": "uint256"
        }
      ],
      "name": "detachEngine",
      "outputs": [],
      "stateMutability": "nonpayable",
      "type": "function"
    },
    {
      "inputs": [
        {
          "internalType": "uint256",
          "name": "",
          "type": "uint256"
        }
      ],
      "name": "engineToOwner",
      "outputs": [
        {
          "internalType": "address",
          "name": "",
          "type": "address"
        }
      ],
      "stateMutability": "view",
      "type": "function"
    },
    {
      "inputs": [
        {
          "internalType": "uint256",
          "name": "",
          "type": "uint256"
        }
      ],
      "name": "engines",
      "outputs": [
        {
          "internalType": "uint256",
          "name": "id",
          "type": "uint256"
        },
        {
          "internalType": "uint16",
          "name": "horsePowers",
          "type": "uint16"
        },
        {
          "internalType": "uint8",
          "name": "consumtion",
          "type": "uint8"
        }
      ],
      "stateMutability": "view",
      "type": "function"
    },
    {
      "inputs": [
        {
          "internalType": "uint256",
          "name": "carId",
          "type": "uint256"
        }
      ],
      "name": "findRoom",
      "outputs": [],
      "stateMutability": "nonpayable",
      "type": "function"
    },
    {
      "inputs": [
        {
          "internalType": "uint256",
          "name": "",
          "type": "uint256"
        }
      ],
      "name": "fuelStationToOwner",
      "outputs": [
        {
          "internalType": "address",
          "name": "",
          "type": "address"
        }
      ],
      "stateMutability": "view",
      "type": "function"
    },
    {
      "inputs": [
        {
          "internalType": "address",
          "name": "_owner",
          "type": "address"
        }
      ],
      "name": "getCarsByOwner",
      "outputs": [
        {
          "components": [
            {
              "internalType": "string",
              "name": "model",
              "type": "string"
            },
            {
              "internalType": "uint256",
              "name": "vin",
              "type": "uint256"
            },
            {
              "internalType": "uint256",
              "name": "engineId",
              "type": "uint256"
            },
            {
              "internalType": "uint256",
              "name": "chassisId",
              "type": "uint256"
            },
            {
              "internalType": "uint8",
              "name": "carLevel",
              "type": "uint8"
            },
            {
              "internalType": "uint256",
              "name": "mileage",
              "type": "uint256"
            },
            {
              "internalType": "uint256",
              "name": "winCountOnCurrentLevel",
              "type": "uint256"
            },
            {
              "internalType": "uint256",
              "name": "lossCountOnCurrentLevel",
              "type": "uint256"
            },
            {
              "internalType": "uint256",
              "name": "id",
              "type": "uint256"
            }
          ],
          "internalType": "struct CarFactory.Car[]",
          "name": "",
          "type": "tuple[]"
        }
      ],
      "stateMutability": "view",
      "type": "function"
    },
    {
      "inputs": [
        {
          "internalType": "address",
          "name": "_owner",
          "type": "address"
        }
      ],
      "name": "getChassisByOwner",
      "outputs": [
        {
          "components": [
            {
              "internalType": "uint256",
              "name": "id",
              "type": "uint256"
            },
            {
              "internalType": "uint32",
              "name": "durability",
              "type": "uint32"
            },
            {
              "internalType": "uint32",
              "name": "resource",
              "type": "uint32"
            }
          ],
          "internalType": "struct CarFactory.Chassis[]",
          "name": "",
          "type": "tuple[]"
        }
      ],
      "stateMutability": "view",
      "type": "function"
    },
    {
      "inputs": [
        {
          "internalType": "uint256",
          "name": "roomId",
          "type": "uint256"
        }
      ],
      "name": "getClosedRoom",
      "outputs": [
        {
          "components": [
            {
              "internalType": "address",
              "name": "player",
              "type": "address"
            },
            {
              "internalType": "bool",
              "name": "correct",
              "type": "bool"
            },
            {
              "internalType": "uint256",
              "name": "time",
              "type": "uint256"
            },
            {
              "internalType": "uint256",
              "name": "carId",
              "type": "uint256"
            }
          ],
          "internalType": "struct RaceHandler.Answer[]",
          "name": "",
          "type": "tuple[]"
        }
      ],
      "stateMutability": "view",
      "type": "function"
    },
    {
      "inputs": [
        {
          "internalType": "address",
          "name": "_owner",
          "type": "address"
        }
      ],
      "name": "getEnginesByOwner",
      "outputs": [
        {
          "components": [
            {
              "internalType": "uint256",
              "name": "id",
              "type": "uint256"
            },
            {
              "internalType": "uint16",
              "name": "horsePowers",
              "type": "uint16"
            },
            {
              "internalType": "uint8",
              "name": "consumtion",
              "type": "uint8"
            }
          ],
          "internalType": "struct CarFactory.Engine[]",
          "name": "",
          "type": "tuple[]"
        }
      ],
      "stateMutability": "view",
      "type": "function"
    },
    {
      "inputs": [
        {
          "internalType": "address",
          "name": "_owner",
          "type": "address"
        }
      ],
      "name": "getFuelStationByOwner",
      "outputs": [
        {
          "components": [
            {
              "internalType": "uint256",
              "name": "id",
              "type": "uint256"
            },
            {
              "internalType": "uint8",
              "name": "capacity",
              "type": "uint8"
            },
            {
              "internalType": "uint8",
              "name": "productionPerHour",
              "type": "uint8"
            },
            {
              "internalType": "uint8",
              "name": "currentFullness",
              "type": "uint8"
            },
            {
              "internalType": "uint256",
              "name": "lastUpdate",
              "type": "uint256"
            }
          ],
          "internalType": "struct FuelStationFactory.FuelStation",
          "name": "",
          "type": "tuple"
        }
      ],
      "stateMutability": "view",
      "type": "function"
    },
    {
      "inputs": [
        {
          "internalType": "uint256",
          "name": "",
          "type": "uint256"
        }
      ],
      "name": "idToStartedRooms",
      "outputs": [
        {
          "internalType": "uint256",
          "name": "numberPlayers",
          "type": "uint256"
        },
        {
          "internalType": "uint256",
          "name": "world",
          "type": "uint256"
        },
        {
          "internalType": "uint256",
          "name": "roomDNA",
          "type": "uint256"
        },
        {
          "internalType": "uint256",
          "name": "startTime",
          "type": "uint256"
        },
        {
          "internalType": "uint256",
          "name": "curAnswer",
          "type": "uint256"
        },
        {
          "internalType": "bool",
          "name": "closed",
          "type": "bool"
        }
      ],
      "stateMutability": "view",
      "type": "function"
    },
    {
      "inputs": [
        {
          "internalType": "uint256",
          "name": "_carId",
          "type": "uint256"
        }
      ],
      "name": "levelUp",
      "outputs": [],
      "stateMutability": "payable",
      "type": "function"
    },
    {
      "inputs": [
        {
          "internalType": "uint256",
          "name": "",
          "type": "uint256"
        }
      ],
      "name": "openedRooms",
      "outputs": [
        {
          "internalType": "uint256",
          "name": "id",
          "type": "uint256"
        },
        {
          "internalType": "uint256",
          "name": "playersEntered",
          "type": "uint256"
        },
        {
          "internalType": "uint256",
          "name": "world",
          "type": "uint256"
        },
        {
          "components": [
            {
              "internalType": "uint256",
              "name": "playersNeeded",
              "type": "uint256"
            },
            {
              "internalType": "uint256",
              "name": "roadsNum",
              "type": "uint256"
            },
            {
              "internalType": "uint256",
              "name": "crossId",
              "type": "uint256"
            }
          ],
          "internalType": "struct RaceHandler.Cross",
          "name": "cross",
          "type": "tuple"
        }
      ],
      "stateMutability": "view",
      "type": "function"
    },
    {
      "inputs": [],
      "name": "owner",
      "outputs": [
        {
          "internalType": "address",
          "name": "",
          "type": "address"
        }
      ],
      "stateMutability": "view",
      "type": "function"
    },
    {
      "inputs": [
        {
          "internalType": "address",
          "name": "",
          "type": "address"
        }
      ],
      "name": "ownerCarCount",
      "outputs": [
        {
          "internalType": "uint256",
          "name": "",
          "type": "uint256"
        }
      ],
      "stateMutability": "view",
      "type": "function"
    },
    {
      "inputs": [],
      "name": "renounceOwnership",
      "outputs": [],
      "stateMutability": "nonpayable",
      "type": "function"
    },
    {
      "inputs": [
        {
          "internalType": "uint256",
          "name": "",
          "type": "uint256"
        }
      ],
      "name": "stations",
      "outputs": [
        {
          "internalType": "uint256",
          "name": "id",
          "type": "uint256"
        },
        {
          "internalType": "uint8",
          "name": "capacity",
          "type": "uint8"
        },
        {
          "internalType": "uint8",
          "name": "productionPerHour",
          "type": "uint8"
        },
        {
          "internalType": "uint8",
          "name": "currentFullness",
          "type": "uint8"
        },
        {
          "internalType": "uint256",
          "name": "lastUpdate",
          "type": "uint256"
        }
      ],
      "stateMutability": "view",
      "type": "function"
    },
    {
      "inputs": [
        {
          "internalType": "uint256",
          "name": "carId",
          "type": "uint256"
        },
        {
          "internalType": "uint256",
          "name": "chassisId",
          "type": "uint256"
        }
      ],
      "name": "switchChassis",
      "outputs": [],
      "stateMutability": "nonpayable",
      "type": "function"
    },
    {
      "inputs": [
        {
          "internalType": "uint256",
          "name": "carId",
          "type": "uint256"
        },
        {
          "internalType": "uint256",
          "name": "engineId",
          "type": "uint256"
        }
      ],
      "name": "switchEngine",
      "outputs": [],
      "stateMutability": "nonpayable",
      "type": "function"
    },
    {
      "inputs": [
        {
          "internalType": "address",
          "name": "newOwner",
          "type": "address"
        }
      ],
      "name": "transferOwnership",
      "outputs": [],
      "stateMutability": "nonpayable",
      "type": "function"
    },
    {
      "inputs": [
        {
          "internalType": "uint256",
          "name": "_fuelStatonId",
          "type": "uint256"
        },
        {
          "internalType": "uint8",
          "name": "_counts",
          "type": "uint8"
        }
      ],
      "name": "upgradeCapacity",
      "outputs": [],
      "stateMutability": "payable",
      "type": "function"
    },
    {
      "inputs": [
        {
          "internalType": "uint256",
          "name": "_engineId",
          "type": "uint256"
        },
        {
          "internalType": "uint8",
          "name": "_counts",
          "type": "uint8"
        }
      ],
      "name": "upgradeConsumtion",
      "outputs": [],
      "stateMutability": "payable",
      "type": "function"
    },
    {
      "inputs": [
        {
          "internalType": "uint256",
          "name": "_chassisId",
          "type": "uint256"
        },
        {
          "internalType": "uint8",
          "name": "_counts",
          "type": "uint8"
        }
      ],
      "name": "upgradeDurability",
      "outputs": [],
      "stateMutability": "payable",
      "type": "function"
    },
    {
      "inputs": [
        {
          "internalType": "uint256",
          "name": "_engineId",
          "type": "uint256"
        },
        {
          "internalType": "uint8",
          "name": "_counts",
          "type": "uint8"
        }
      ],
      "name": "upgradeHorsePowers",
      "outputs": [],
      "stateMutability": "payable",
      "type": "function"
    },
    {
      "inputs": [
        {
          "internalType": "uint256",
          "name": "_fuelStatonId",
          "type": "uint256"
        },
        {
          "internalType": "uint8",
          "name": "_counts",
          "type": "uint8"
        }
      ],
      "name": "upgradeProductionPerHour",
      "outputs": [],
      "stateMutability": "payable",
      "type": "function"
    },
    {
      "inputs": [
        {
          "internalType": "uint256",
          "name": "_carId",
          "type": "uint256"
        }
      ],
      "name": "startRace",
      "outputs": [],
      "stateMutability": "nonpayable",
      "type": "function"
    }
  ],
  "bytecode": "0x60806040526000805461ffff60a01b191661014f60a21b179055600160088190556009556509184e72a00060135565b5e620f48000601455650da475abf0006015556611c37937e080006016556305f5e10060175566038d7ea4c680006018553480156200006c57600080fd5b5062000078336200024b565b60506003908155605b60049081556005805460ff1916600a179055620186a06006556201d4c1600755600b80546001908101909155600c80548201905560408051606080820183528482526020828101868152600084860181815260198054808a0182558184529651968b027f944998273e477b495144fb8794c914197f3ccb46be2900f4698fd0ef743c96958181019890985593517f944998273e477b495144fb8794c914197f3ccb46be2900f4698fd0ef743c96968086019190915591517f944998273e477b495144fb8794c914197f3ccb46be2900f4698fd0ef743c969794850155875180870189528b81528086018b8152818a018581528354808d0185558487529251928e02808b019390935590518285015551908501558751808701895260028082528187019b8c52818a018581528354808d0185558487529251928e02808b01939093559b51828501559a5190850155875180870189528b81528086018c8152818a018b81528354808d0185558487529251928e02808b019390935590518285015551908501558751958601885298855292840189815295840187815288548089018a559890915292519690970292830195909555915193810193909355519190920155601c556200029b565b600080546001600160a01b038381166001600160a01b0319831681178455604051919092169283917f8be0079c531659141344cd1fd0a4f28419497f9722a3daafe3b4186f6b6457e09190a35050565b61370380620002ab6000396000f3fe6080604052600436106101f95760003560e01c80637c62360f1161010d578063c75bb4f4116100a0578063ede6fbf51161006f578063ede6fbf514610880578063f2fde38b146108a0578063f7746e36146108c0578063faf4bb98146108f5578063fb2d954f1461090857600080fd5b8063c75bb4f4146107f3578063c85b7fed14610820578063d1c54eea14610840578063ea1269331461086057600080fd5b806392f859db116100dc57806392f859db14610707578063b3b29afd14610757578063b72c0eea14610792578063c34cccc4146107d357600080fd5b80637c62360f146106b057806385909267146106c35780638da5cb5b146106d6578063906f5f34146106f457600080fd5b80633521c426116101905780635dcc4cc61161015f5780635dcc4cc6146105eb5780636b606d9b146106215780636f206fc114610641578063715018a61461066e5780637713d5211461068357600080fd5b80633521c426146104e757806344901490146105145780634e31f9101461054a578063594193d7146105b557600080fd5b80631c5dde0e116101cc5780631c5dde0e14610303578063224370f01461034557806324d822bf1461047957806333ca504b1461049957600080fd5b806303f2e05b146101fe5780630418394e14610213578063081315ff1461029a5780630ce90ec2146102f0575b600080fd5b61021161020c366004612de6565b610928565b005b34801561021f57600080fd5b5061026661022e366004612e1c565b601e60205260009081526040902080546001820154600283015460038401546005850154600690950154939492939192909160ff1686565b6040805196875260208701959095529385019290925260608401526080830152151560a082015260c0015b60405180910390f35b3480156102a657600080fd5b506102ba6102b5366004612e1c565b610a07565b604080519485526020808601949094528481019290925280516060850152918201516080840152015160a082015260c001610291565b6102116102fe366004612e1c565b610a65565b34801561030f57600080fd5b5061032361031e366004612e1c565b610bc0565b6040805193845263ffffffff9283166020850152911690820152606001610291565b34801561035157600080fd5b50610211600180546040805160a0810182528281526000805460ff600160a01b820481166020808601828152600160a81b90940483168688019081526060870192835263ffffffff421660808801908152898b018b559986529551600389027fb10e2d527612073b26eecdfd717e6a320cf44b4afac2b0732d9fcbe2b7fa0cf681019190915593517fb10e2d527612073b26eecdfd717e6a320cf44b4afac2b0732d9fcbe2b7fa0cf785018054975193518516620100000262ff0000199486166101000261ffff19909916929095169190911796909617919091169190911790935594517fb10e2d527612073b26eecdfd717e6a320cf44b4afac2b0732d9fcbe2b7fa0cf8909501949094559183526002909152902080546001600160a01b03191633179055565b34801561048557600080fd5b50610211610494366004612e1c565b610c00565b3480156104a557600080fd5b506104cf6104b4366004612e1c565b600d602052600090815260409020546001600160a01b031681565b6040516001600160a01b039091168152602001610291565b3480156104f357600080fd5b50610507610502366004612e1c565b610db7565b6040516102919190612e35565b34801561052057600080fd5b506104cf61052f366004612e1c565b600f602052600090815260409020546001600160a01b031681565b34801561055657600080fd5b5061056a610565366004612ea4565b610eae565b6040516102919190600060a0820190508251825260ff602084015116602083015260ff604084015116604083015260ff60608401511660608301526080830151608083015292915050565b3480156105c157600080fd5b506104cf6105d0366004612e1c565b6002602052600090815260409020546001600160a01b031681565b3480156105f757600080fd5b506104cf610606366004612e1c565b600e602052600090815260409020546001600160a01b031681565b34801561062d57600080fd5b5061021161063c366004612ecd565b610f95565b34801561064d57600080fd5b5061066161065c366004612ea4565b61107b565b6040516102919190612eef565b34801561067a57600080fd5b506102116111cf565b34801561068f57600080fd5b506106a361069e366004612ea4565b6111e3565b6040516102919190612f45565b6102116106be366004612de6565b61132b565b6102116106d1366004612de6565b61140b565b3480156106e257600080fd5b506000546001600160a01b03166104cf565b610211610702366004612de6565b6114c4565b34801561071357600080fd5b50610727610722366004612e1c565b611571565b6040805195865260ff9485166020870152928416928501929092529091166060830152608082015260a001610291565b34801561076357600080fd5b50610784610772366004612ea4565b60106020526000908152604090205481565b604051908152602001610291565b34801561079e57600080fd5b506107b26107ad366004612e1c565b6115bd565b6040805193845261ffff909216602084015260ff1690820152606001610291565b3480156107df57600080fd5b506102116107ee366004612ecd565b6115fa565b3480156107ff57600080fd5b5061081361080e366004612ea4565b6116d4565b6040516102919190612ff4565b34801561082c57600080fd5b5061021161083b366004613105565b611912565b34801561084c57600080fd5b5061021161085b366004612ecd565b611b0f565b34801561086c57600080fd5b5061021161087b366004612ecd565b611bda565b34801561088c57600080fd5b5061021161089b3660046131b7565b611c9a565b3480156108ac57600080fd5b506102116108bb366004612ea4565b611e68565b3480156108cc57600080fd5b506108e06108db366004612e1c565b611ee1565b6040516102919998979695949392919061324c565b610211610903366004612de6565b611fce565b34801561091457600080fd5b50610211610923366004612e1c565b6120a3565b6000828152600f602052604090205482906001600160a01b0316331461094d57600080fd5b601754600c8481548110610963576109636132a3565b600091825260209091206001600290920201015461098a9063ffffffff1660ff85166132cf565b63ffffffff1661099a91906132fb565b34146109a557600080fd5b8160ff16600c84815481106109bc576109bc6132a3565b60009182526020822060016002909202010180549091906109e490849063ffffffff1661331a565b92506101000a81548163ffffffff021916908363ffffffff160217905550505050565b601d8181548110610a1757600080fd5b60009182526020918290206006909102018054600182015460028301546040805160608101825260038601548152600486015496810196909652600590940154938501939093529093509184565b600a808281548110610a7957610a796132a3565b6000918252602090912060046009909202010154610a9a919060ff16613358565b60ff16601854610aaa91906132fb565b34148015610b135750600a8181548110610ac657610ac66132a3565b6000918252602090912060046009909202010154610ae89060ff16600161337a565b60ff16600a8281548110610afe57610afe6132a3565b90600052602060002090600902016006015410155b610b1c57600080fd5b600a8181548110610b2f57610b2f6132a3565b600091825260208220600460099092020101805460ff1691610b508361339f565b91906101000a81548160ff021916908360ff160217905550506000600a8281548110610b7e57610b7e6132a3565b9060005260206000209060090201600601819055506000600a8281548110610ba857610ba86132a3565b90600052602060002090600902016007018190555050565b600c8181548110610bd057600080fd5b60009182526020909120600290910201805460019091015490915063ffffffff8082169164010000000090041683565b6000818152600d602052604090205481906001600160a01b03163314610c2557600080fd5b6000600a808481548110610c3b57610c3b6132a3565b6000918252602090912060046009909202010154610c5c919060ff16613358565b610c6790600a6133be565b610c729060026133e1565b9050610c7e83826125b5565b8015610ce557508060ff16600c600a8581548110610c9e57610c9e6132a3565b90600052602060002090600902016003015481548110610cc057610cc06132a3565b6000918252602090912060029091020160010154640100000000900463ffffffff1610155b610cee57600080fd5b8060ff16600c600a8581548110610d0757610d076132a3565b90600052602060002090600902016003015481548110610d2957610d296132a3565b906000526020600020906002020160010160048282829054906101000a900463ffffffff16610d58919061340a565b92506101000a81548163ffffffff021916908363ffffffff1602179055508060ff16600a8481548110610d8d57610d8d6132a3565b90600052602060002090600902016005016000828254610dad919061342f565b9091555050505050565b6000818152601e602052604090206006015460609060ff16610e125760405162461bcd60e51b815260206004820152600f60248201526e1c9bdbdb481b9bdd0818db1bdcd959608a1b60448201526064015b60405180910390fd5b6000828152601e6020908152604080832060040180548251818502810185019093528083529193909284015b82821015610ea3576000848152602090819020604080516080810182526003860290920180546001600160a01b0381168452600160a01b900460ff16151583850152600180820154928401929092526002015460608301529083529092019101610e3e565b505050509050919050565b6040805160a081018252600080825260208201819052918101829052606081018290526080810182905290805b600154811015610f20576000818152600260205260409020546001600160a01b03808616911603610f0e57809150610f20565b80610f1881613447565b915050610edb565b5060018181548110610f3457610f346132a3565b60009182526020918290206040805160a081018252600390930290910180548352600181015460ff80821695850195909552610100810485169284019290925262010000909104909216606082015260029091015460808201529392505050565b6000818152600f602052604090205481906001600160a01b03163314610fba57600080fd5b6000838152600d602052604090205483906001600160a01b03163314610fdf57600080fd5b82600a8581548110610ff357610ff36132a3565b9060005260206000209060090201600301541461104b5760405162461bcd60e51b8152602060048201526016602482015275195b99da5b99481a5cc81b9bdd08185d1d1858da195960521b6044820152606401610e09565b6000600a8581548110611060576110606132a3565b90600052602060002090600902016003018190555050505050565b6001600160a01b0381166000908152601160205260408120546060919067ffffffffffffffff8111156110b0576110b06130be565b6040519080825280602002602001820160405280156110fb57816020015b60408051606081018252600080825260208083018290529282015282526000199092019101816110ce5790505b5090506000805b600c548110156111c6576000818152600f60205260409020546001600160a01b038087169116036111b457600c8181548110611140576111406132a3565b6000918252602091829020604080516060810182526002909302909101805483526001015463ffffffff80821694840194909452640100000000900490921691810191909152835184908490811061119a5761119a6132a3565b602002602001018190525081806111b090613447565b9250505b806111be81613447565b915050611102565b50909392505050565b6111d7612759565b6111e160006127b3565b565b6001600160a01b0381166000908152601160205260408120546060919067ffffffffffffffff811115611218576112186130be565b60405190808252806020026020018201604052801561126357816020015b60408051606081018252600080825260208083018290529282015282526000199092019101816112365790505b5090506000805b600b548110156111c6576000818152600e60205260409020546001600160a01b0380871691160361131957600b81815481106112a8576112a86132a3565b600091825260209182902060408051606081018252600293909302909101805483526001015461ffff8116938301939093526201000090920460ff169181019190915283518490849081106112ff576112ff6132a3565b6020026020010181905250818061131590613447565b9250505b8061132381613447565b91505061126a565b6000828152600e602052604090205482906001600160a01b0316331461135057600080fd5b600b8381548110611363576113636132a3565b600091825260209091206002909102016001015461138b9062010000900460ff16600a6133be565b61139690600261353c565b6016546113a391906132fb565b34146113ae57600080fd5b81600b84815481106113c2576113c26132a3565b906000526020600020906002020160010160028282829054906101000a900460ff166113ee91906133be565b92506101000a81548160ff021916908360ff160217905550505050565b60008281526002602052604090205482906001600160a01b0316331461143057600080fd5b60145460018481548110611446576114466132a3565b600091825260209091206003909102016001015461146c90610100900460ff16846133e1565b60ff1661147991906132fb565b341461148457600080fd5b8160018481548110611498576114986132a3565b906000526020600020906003020160010160018282829054906101000a900460ff166113ee919061337a565b60008281526002602052604090205482906001600160a01b031633146114e957600080fd5b601354600184815481106114ff576114ff6132a3565b60009182526020909120600160039092020101546115209060ff16846133e1565b60ff1661152d91906132fb565b341461153857600080fd5b816001848154811061154c5761154c6132a3565b60009182526020822060016003909202010180549091906113ee90849060ff1661337a565b6001818154811061158157600080fd5b600091825260209091206003909102018054600182015460029092015490925060ff808316926101008104821692620100009091049091169085565b600b81815481106115cd57600080fd5b60009182526020909120600290910201805460019091015490915061ffff81169062010000900460ff1683565b6000818152600e602052604090205481906001600160a01b0316331461161f57600080fd5b6000838152600d602052604090205483906001600160a01b0316331461164457600080fd5b82600a8581548110611658576116586132a3565b906000526020600020906009020160020154036116a55760405162461bcd60e51b815260206004820152600b60248201526a73616d6520656e67696e6560a81b6044820152606401610e09565b82600a85815481106116b9576116b96132a3565b90600052602060002090600902016002018190555050505050565b6001600160a01b0381166000908152601060205260408120546060919067ffffffffffffffff811115611709576117096130be565b60405190808252806020026020018201604052801561178c57816020015b61177960405180610120016040528060608152602001600081526020016000815260200160008152602001600060ff168152602001600081526020016000815260200160008152602001600081525090565b8152602001906001900390816117275790505b5090506000805b600a548110156111c6576000818152600d60205260409020546001600160a01b0380871691160361190057600a81815481106117d1576117d16132a3565b9060005260206000209060090201604051806101200160405290816000820180546117fb9061354b565b80601f01602080910402602001604051908101604052809291908181526020018280546118279061354b565b80156118745780601f1061184957610100808354040283529160200191611874565b820191906000526020600020905b81548152906001019060200180831161185757829003601f168201915b5050509183525050600182015460208201526002820154604082015260038201546060820152600482015460ff166080820152600582015460a0820152600682015460c0820152600782015460e08201526008909101546101009091015283518490849081106118e6576118e66132a3565b602002602001018190525081806118fc90613447565b9250505b8061190a81613447565b915050611793565b336000908152601a602052604090205482146119605760405162461bcd60e51b815260206004820152600d60248201526c6e6f7420796f757220726f6f6d60981b6044820152606401610e09565b6000828152601e6020526040808220600201549051634e31f59760e11b815290919073__PDDLib________________________________90639c63eb2e906119ae9085908790600401613585565b602060405180830381865af41580156119cb573d6000803e3d6000fd5b505050506040513d601f19601f820116820180604052508101906119ef91906135d3565b60408051608081018252338082528315156020808401918252428486019081526000938452601b825285842054606086019081528b8552601e8352958420600481018054600181810183558288529487208851600390920201805496511515600160a01b026001600160a81b03199097166001600160a01b03929092169190911795909517855591519284019290925594516002909201919091559088905280549254939450909290919003611b07576040518681527f67acaceb58ff1ad2aa8b3069f69c4cd076824e06a09184b75fb197ead7040be79060200160405180910390a16000868152601e60209081526040808320600601805460ff19166001179055338352601a8252808320839055601b9091528120555b505050505050565b6000818152600e602052604090205481906001600160a01b03163314611b3457600080fd5b6000838152600d602052604090205483906001600160a01b03163314611b5957600080fd5b82600a8581548110611b6d57611b6d6132a3565b90600052602060002090600902016002015414611bc55760405162461bcd60e51b8152602060048201526016602482015275195b99da5b99481a5cc81b9bdd08185d1d1858da195960521b6044820152606401610e09565b6000600a85815481106116b9576116b96132a3565b6000818152600f602052604090205481906001600160a01b03163314611bff57600080fd5b6000838152600d602052604090205483906001600160a01b03163314611c2457600080fd5b82600a8581548110611c3857611c386132a3565b90600052602060002090600902016003015403611c865760405162461bcd60e51b815260206004820152600c60248201526b73616d65206368617373697360a01b6044820152606401610e09565b82600a8581548110611060576110606132a3565b3360009081526010602052604090205415611cb457600080fd5b600081611cc042612803565b604051602001611cd19291906135f5565b6040516020818303038152906040529050600081604051602001611cf5919061361b565b6040516020818303038152906040528051906020012060001c90506000611d1a612896565b90506000611d266129ca565b600a80546040805161012081018252898152602080820189905291810187905260608101859052600160808201819052600060a0830181905260c0830181905260e083018190526101008301859052908401855593909352825180519495509193600985027fc65a7bb8d6351c1cf70c95a316cc6a92839c986682d98bc35f958f4883f9d2a80192611dbc928492910190612d4d565b506020828101516001830155604080840151600284015560608401516003840155608084015160048401805460ff191660ff90921691909117905560a0840151600584015560c0840151600684015560e08401516007840155610100909301516008909201919091556000838152600d82528281208054336001600160a01b0319909116811790915581526010909152908120805491611e5b83613447565b9190505550505050505050565b611e70612759565b6001600160a01b038116611ed55760405162461bcd60e51b815260206004820152602660248201527f4f776e61626c653a206e6577206f776e657220697320746865207a65726f206160448201526564647265737360d01b6064820152608401610e09565b611ede816127b3565b50565b600a8181548110611ef157600080fd5b9060005260206000209060090201600091509050806000018054611f149061354b565b80601f0160208091040260200160405190810160405280929190818152602001828054611f409061354b565b8015611f8d5780601f10611f6257610100808354040283529160200191611f8d565b820191906000526020600020905b815481529060010190602001808311611f7057829003601f168201915b50505060018401546002850154600386015460048701546005880154600689015460078a01546008909a01549899959894975092955060ff90911693909289565b6000828152600e602052604090205482906001600160a01b03163314611ff357600080fd5b601554600b8481548110612009576120096132a3565b600091825260209091206001600290920201015461202e9061ffff1660ff8516613637565b61ffff1661203c91906132fb565b341461204757600080fd5b8160ff16600b848154811061205e5761205e6132a3565b600091825260208220600160029092020101805490919061208490849061ffff16613658565b92506101000a81548161ffff021916908361ffff160217905550505050565b6000818152600d602052604090205481906001600160a01b031633146120c857600080fd5b6000805b601d5481101561245257601d81815481106120e9576120e96132a3565b906000526020600020906006020160020154600a80868154811061210f5761210f6132a3565b6000918252602090912060046009909202010154612130919060ff16613358565b61213b90600161337a565b60ff16036124405760019150601d818154811061215a5761215a6132a3565b60009182526020808320600690920290910154338352601a8252604080842091909155601b9091529020849055601d80548290811061219b5761219b6132a3565b6000918252602082206001600690920201018054916121b983613447565b9190505550601d81815481106121d1576121d16132a3565b906000526020600020906006020160030160000154601d82815481106121f9576121f96132a3565b9060005260206000209060060201600101540361244057600073__PDDLib________________________________63c037e545601d848154811061223f5761223f6132a3565b906000526020600020906006020160030160020154601d8581548110612267576122676132a3565b9060005260206000209060060201600301600001546040518363ffffffff1660e01b81526004016122a2929190918252602082015260400190565b602060405180830381865af41580156122bf573d6000803e3d6000fd5b505050506040513d601f19601f820116820180604052508101906122e39190613675565b90506000601e6000601d85815481106122fe576122fe6132a3565b90600052602060002090600602016000015481526020019081526020016000209050601d8381548110612333576123336132a3565b60009182526020909120600360069092020101548155601d80548490811061235d5761235d6132a3565b6000918252602082206006918202016002908101546001850155830184905542600384015560058301919091558101805460ff19169055601d80547f2838ebeee7dc83fac85a3d6dbca0c0b6771591ada8b00f97371aa6611e631f9c9190859081106123cb576123cb6132a3565b600091825260209182902060069091020154604080519182529181018590520160405180910390a1601d8381548110612406576124066132a3565b6000918252602082206006909102018181556001810182905560028101829055600381018290556004810182905560050155506124529050565b8061244a81613447565b9150506120cc565b50801561245e57505050565b601c80546000918261246f83613447565b90915550601954909150600090612486904261368e565b905081601a6000336001600160a01b03166001600160a01b0316815260200190815260200160002081905550601d604051806080016040528084815260200160018152602001600a8089815481106124e0576124e06132a3565b6000918252602090912060046009909202010154612501919060ff16613358565b61250c90600161337a565b60ff16815260200160198481548110612527576125276132a3565b60009182526020808320604080516060808201835260039586029093018054825260018082015483870152600291820154838501529190975288548082018a5598865294839020875160069099020197885586830151948801949094558584015194870194909455939092015180519285019290925591810151600484015501516005909101555050505050565b6000828152600d602052604081205481906125d8906001600160a01b0316610eae565b90506125e78160000151612afe565b6000600a85815481106125fc576125fc6132a3565b9060005260206000209060090201600201549050600060019050600a85600b848154811061262c5761262c6132a3565b906000526020600020906002020160010160029054906101000a900460ff1661265591906133e1565b60ff16106126a657600a600b8381548110612672576126726132a3565b60009182526020909120600290910201600101546126999062010000900460ff16876133e1565b6126a39190613358565b90505b8060ff1660018460000151815481106126c1576126c16132a3565b600091825260209091206003909102016001015462010000900460ff161061274b578060018460000151815481106126fb576126fb6132a3565b906000526020600020906003020160010160028282829054906101000a900460ff1661272791906133be565b92506101000a81548160ff021916908360ff16021790555060019350505050612753565b600093505050505b92915050565b6000546001600160a01b031633146111e15760405162461bcd60e51b815260206004820181905260248201527f4f776e61626c653a2063616c6c6572206973206e6f7420746865206f776e65726044820152606401610e09565b600080546001600160a01b038381166001600160a01b0319831681178455604051919092169283917f8be0079c531659141344cd1fd0a4f28419497f9722a3daafe3b4186f6b6457e09190a35050565b6060600061281083612c5d565b600101905060008167ffffffffffffffff811115612830576128306130be565b6040519080825280601f01601f19166020018201604052801561285a576020820181803683370190505b5090508181016020015b600019016f181899199a1a9b1b9c1cb0b131b232b360811b600a86061a8153600a850494508461286457509392505050565b6000806003546004546128a991906136a2565b6128b3904261368e565b6003546128c0919061342f565b6008805491925060009190826128d583613447565b909155506040805160608101825282815261ffff808616602080840191825260055460ff908116858701908152600b80546001810182556000918252965160029097027f0175b7a638427703f0dbe7bb9bbf987a2551717b34e79f33b5b1008d1fa01db981019790975593517f0175b7a638427703f0dbe7bb9bbf987a2551717b34e79f33b5b1008d1fa01dba90960180549151909216620100000262ffffff19909116959094169490941792909217909255338252601190529081208054929350906129a183613447565b90915550506000818152600e6020526040902080546001600160a01b0319163317905592915050565b6000806006546007546129dd91906136a2565b6129e7904261368e565b6006546129f4919061342f565b600980549192506000919082612a0983613447565b909155506040805160608101825282815263ffffffff8086166020808401828152848601928352600c80546001810182556000918252955160029096027fdf6966c971051c3d54ec59162606531493a51404a002842f56009d7e5cf4a8c781019690965590517fdf6966c971051c3d54ec59162606531493a51404a002842f56009d7e5cf4a8c89095018054935185166401000000000267ffffffffffffffff1990941695909416949094179190911790915533825260129052908120805492935090612ad583613447565b90915550506000818152600f6020526040902080546001600160a01b0319163317905592915050565b60004290506000610e1060018481548110612b1b57612b1b6132a3565b90600052602060002090600302016002015483612b3891906136a2565b612b4291906136b9565b9050600060018481548110612b5957612b596132a3565b6000918252602090912060039091020160010154612b7f90610100900460ff16836132fb565b60018581548110612b9257612b926132a3565b6000918252602090912060039091020160010154612bb9919062010000900460ff1661342f565b9050612bf260018581548110612bd157612bd16132a3565b600091825260209091206001600390920201015460ff908116908316612d35565b60018581548110612c0557612c056132a3565b906000526020600020906003020160010160026101000a81548160ff021916908360ff1602179055508260018581548110612c4257612c426132a3565b90600052602060002090600302016002018190555050505050565b60008072184f03e93ff9f4daa797ed6e38ed64bf6a1f0160401b8310612c9c5772184f03e93ff9f4daa797ed6e38ed64bf6a1f0160401b830492506040015b6d04ee2d6d415b85acef81000000008310612cc8576d04ee2d6d415b85acef8100000000830492506020015b662386f26fc100008310612ce657662386f26fc10000830492506010015b6305f5e1008310612cfe576305f5e100830492506008015b6127108310612d1257612710830492506004015b60648310612d24576064830492506002015b600a83106127535760010192915050565b6000818310612d445781612d46565b825b9392505050565b828054612d599061354b565b90600052602060002090601f016020900481019282612d7b5760008555612dc1565b82601f10612d9457805160ff1916838001178555612dc1565b82800160010185558215612dc1579182015b82811115612dc1578251825591602001919060010190612da6565b50612dcd929150612dd1565b5090565b5b80821115612dcd5760008155600101612dd2565b60008060408385031215612df957600080fd5b82359150602083013560ff81168114612e1157600080fd5b809150509250929050565b600060208284031215612e2e57600080fd5b5035919050565b602080825282518282018190526000919060409081850190868401855b82811015612e9757815180516001600160a01b031685528681015115158786015285810151868601526060908101519085015260809093019290850190600101612e52565b5091979650505050505050565b600060208284031215612eb657600080fd5b81356001600160a01b0381168114612d4657600080fd5b60008060408385031215612ee057600080fd5b50508035926020909101359150565b602080825282518282018190526000919060409081850190868401855b82811015612e97578151805185528681015163ffffffff9081168887015290860151168585015260609093019290850190600101612f0c565b602080825282518282018190526000919060409081850190868401855b82811015612e97578151805185528681015161ffff168786015285015160ff168585015260609093019290850190600101612f62565b60005b83811015612fb3578181015183820152602001612f9b565b83811115612fc2576000848401525b50505050565b60008151808452612fe0816020860160208601612f98565b601f01601f19169290920160200192915050565b60006020808301818452808551808352604092508286019150828160051b87010184880160005b838110156130b057603f198984030185528151610120815181865261304282870182612fc8565b9150508882015189860152878201518886015260608083015181870152506080808301516130748288018260ff169052565b505060a0828101519086015260c0808301519086015260e08083015190860152610100918201519190940152938601939086019060010161301b565b509098975050505050505050565b634e487b7160e01b600052604160045260246000fd5b604051601f8201601f1916810167ffffffffffffffff811182821017156130fd576130fd6130be565b604052919050565b6000806040838503121561311857600080fd5b8235915060208084013567ffffffffffffffff8082111561313857600080fd5b818601915086601f83011261314c57600080fd5b81358181111561315e5761315e6130be565b8060051b915061316f8483016130d4565b818152918301840191848101908984111561318957600080fd5b938501935b838510156131a75784358252938501939085019061318e565b8096505050505050509250929050565b600060208083850312156131ca57600080fd5b823567ffffffffffffffff808211156131e257600080fd5b818501915085601f8301126131f657600080fd5b813581811115613208576132086130be565b61321a601f8201601f191685016130d4565b9150808252868482850101111561323057600080fd5b8084840185840137600090820190930192909252509392505050565b60006101208083526132608184018d612fc8565b602084019b909b5250506040810197909752606087019590955260ff93909316608086015260a085019190915260c084015260e083015261010090910152919050565b634e487b7160e01b600052603260045260246000fd5b634e487b7160e01b600052601160045260246000fd5b600063ffffffff808316818516818304811182151516156132f2576132f26132b9565b02949350505050565b6000816000190483118215151615613315576133156132b9565b500290565b600063ffffffff808316818516808303821115613339576133396132b9565b01949350505050565b634e487b7160e01b600052601260045260246000fd5b600060ff83168061336b5761336b613342565b8060ff84160491505092915050565b600060ff821660ff84168060ff03821115613397576133976132b9565b019392505050565b600060ff821660ff81036133b5576133b56132b9565b60010192915050565b600060ff821660ff8416808210156133d8576133d86132b9565b90039392505050565b600060ff821660ff84168160ff0481118215151615613402576134026132b9565b029392505050565b600063ffffffff83811690831681811015613427576134276132b9565b039392505050565b60008219821115613442576134426132b9565b500190565b600060018201613459576134596132b9565b5060010190565b600181815b8085111561349b578160001904821115613481576134816132b9565b8085161561348e57918102915b93841c9390800290613465565b509250929050565b6000826134b257506001612753565b816134bf57506000612753565b81600181146134d557600281146134df576134fb565b6001915050612753565b60ff8411156134f0576134f06132b9565b50506001821b612753565b5060208310610133831016604e8410600b841016171561351e575081810a612753565b6135288383613460565b8060001904821115613402576134026132b9565b6000612d4660ff8416836134a3565b600181811c9082168061355f57607f821691505b60208210810361357f57634e487b7160e01b600052602260045260246000fd5b50919050565b6000604082018483526020604081850152818551808452606086019150828701935060005b818110156135c6578451835293830193918301916001016135aa565b5090979650505050505050565b6000602082840312156135e557600080fd5b81518015158114612d4657600080fd5b60008351613607818460208801612f98565b835190830190613339818360208801612f98565b6000825161362d818460208701612f98565b9190910192915050565b600061ffff808316818516818304811182151516156132f2576132f26132b9565b600061ffff808316818516808303821115613339576133396132b9565b60006020828403121561368757600080fd5b5051919050565b60008261369d5761369d613342565b500690565b6000828210156136b4576136b46132b9565b500390565b6000826136c8576136c8613342565b50049056fea2646970667358221220ec14da42bb8c03540379da77621be7b48f4cc8ca3893325129b4ea6dba00bfaf64736f6c634300080d0033",
  "immutableReferences": {},
  "source": "// SPDX-License-Identifier: MIT\npragma solidity ^0.8.13;\nimport \"./RaceHandler.sol\";\n\ncontract CarRacing is RaceHandler{\n\n    function _isEnoughFuel(uint _carId, uint8 duration) private returns(bool){\n        FuelStation memory station = getFuelStationByOwner(carToOwner[_carId]);\n        _refreshFuel(station.id);\n        uint engineId = cars[_carId].engineId;\n        uint8 liters= 1;\n        if (engines[engineId].consumtion * duration >= 10)\n            liters = duration * engines[engineId].consumtion / 10;\n\n        if (stations[station.id].currentFullness >= liters) {\n            stations[station.id].currentFullness -= liters;\n            return true;\n        }\n        else\n            return false;\n    }\n\n    function _refreshFuel(uint _fuelStationId) private {\n        uint curTime = block.timestamp;\n        uint wholeHours = (curTime - stations[_fuelStationId].lastUpdate) / 3600;\n        uint8 newFullness = uint8(stations[_fuelStationId].currentFullness + wholeHours * stations[_fuelStationId].productionPerHour);\n        stations[_fuelStationId].currentFullness = uint8(Math.min(stations[_fuelStationId].capacity, newFullness));\n        stations[_fuelStationId].lastUpdate = curTime;\n    }\n\n\n    function startRace(uint _carId) external onlyOwnerOfCar(_carId) {\n        uint8 durToNextCrossroad = 2 * (10 - cars[_carId].carLevel / 10);\n\n        require(_isEnoughFuel(_carId, durToNextCrossroad) && chassis[cars[_carId].chassisId].resource >= durToNextCrossroad);\n        // TODO\n\n        chassis[cars[_carId].chassisId].resource -= durToNextCrossroad;\n        cars[_carId].mileage += durToNextCrossroad;\n    }\n\n}",
  "sourcePath": "/Users/rdashk/Downloads/isu/DriveSafely/contract/contracts/CarRacing.sol",
  "compiler": {
    "name": "solc",
    "version": "0.8.13+commit.abaa5c0e.Emscripten.clang"
  },
  "schemaVersion": "3.4.11",
  "updatedAt": "2023-01-10T05:31:53.314Z",
  "devdoc": {
    "kind": "dev",
    "methods": {
      "owner()": {
        "details": "Returns the address of the current owner."
      },
      "renounceOwnership()": {
        "details": "Leaves the contract without owner. It will not be possible to call `onlyOwner` functions anymore. Can only be called by the current owner. NOTE: Renouncing ownership will leave the contract without an owner, thereby removing any functionality that is only available to the owner."
      },
      "transferOwnership(address)": {
        "details": "Transfers ownership of the contract to a new account (`newOwner`). Can only be called by the current owner."
      }
    },
    "version": 1
  },
  "userdoc": {
    "kind": "user",
    "methods": {},
    "version": 1
  }
}