{
  "contractName": "CarRacing",
  "abi": [
    {
      "anonymous": false,
      "inputs": [
        {
          "indexed": true,
          "internalType": "address",
          "name": "previousOwner",
          "type": "address"
        },
        {
          "indexed": true,
          "internalType": "address",
          "name": "newOwner",
          "type": "address"
        }
      ],
      "name": "OwnershipTransferred",
      "type": "event"
    },
    {
      "anonymous": false,
      "inputs": [
        {
          "indexed": false,
          "internalType": "uint256",
          "name": "roomId",
          "type": "uint256"
        }
      ],
      "name": "RoomClosed",
      "type": "event"
    },
    {
      "anonymous": false,
      "inputs": [
        {
          "indexed": false,
          "internalType": "uint256",
          "name": "roomId",
          "type": "uint256"
        },
        {
          "indexed": false,
          "internalType": "uint256",
          "name": "roomDNA",
          "type": "uint256"
        }
      ],
      "name": "RoomFull",
      "type": "event"
    },
    {
      "inputs": [
        {
          "internalType": "uint256",
          "name": "",
          "type": "uint256"
        }
      ],
      "name": "carToOwner",
      "outputs": [
        {
          "internalType": "address",
          "name": "",
          "type": "address"
        }
      ],
      "stateMutability": "view",
      "type": "function",
      "constant": true
    },
    {
      "inputs": [
        {
          "internalType": "uint256",
          "name": "",
          "type": "uint256"
        }
      ],
      "name": "cars",
      "outputs": [
        {
          "internalType": "string",
          "name": "model",
          "type": "string"
        },
        {
          "internalType": "uint256",
          "name": "vin",
          "type": "uint256"
        },
        {
          "internalType": "uint256",
          "name": "engineId",
          "type": "uint256"
        },
        {
          "internalType": "uint256",
          "name": "chassisId",
          "type": "uint256"
        },
        {
          "internalType": "uint8",
          "name": "carLevel",
          "type": "uint8"
        },
        {
          "internalType": "uint256",
          "name": "mileage",
          "type": "uint256"
        },
        {
          "internalType": "uint256",
          "name": "winCountOnCurrentLevel",
          "type": "uint256"
        },
        {
          "internalType": "uint256",
          "name": "lossCountOnCurrentLevel",
          "type": "uint256"
        }
      ],
      "stateMutability": "view",
      "type": "function",
      "constant": true
    },
    {
      "inputs": [
        {
          "internalType": "uint256",
          "name": "",
          "type": "uint256"
        }
      ],
      "name": "chassis",
      "outputs": [
        {
          "internalType": "uint256",
          "name": "id",
          "type": "uint256"
        },
        {
          "internalType": "uint32",
          "name": "durability",
          "type": "uint32"
        },
        {
          "internalType": "uint32",
          "name": "resource",
          "type": "uint32"
        }
      ],
      "stateMutability": "view",
      "type": "function",
      "constant": true
    },
    {
      "inputs": [
        {
          "internalType": "uint256",
          "name": "",
          "type": "uint256"
        }
      ],
      "name": "chassisToOwner",
      "outputs": [
        {
          "internalType": "address",
          "name": "",
          "type": "address"
        }
      ],
      "stateMutability": "view",
      "type": "function",
      "constant": true
    },
    {
      "inputs": [
        {
          "internalType": "uint256",
          "name": "roomId",
          "type": "uint256"
        },
        {
          "internalType": "uint256[]",
          "name": "answer",
          "type": "uint256[]"
        }
      ],
      "name": "commitAnswer",
      "outputs": [],
      "stateMutability": "nonpayable",
      "type": "function"
    },
    {
      "inputs": [
        {
          "internalType": "string",
          "name": "model",
          "type": "string"
        }
      ],
      "name": "createCar",
      "outputs": [],
      "stateMutability": "nonpayable",
      "type": "function"
    },
    {
      "inputs": [],
      "name": "createFuelStation",
      "outputs": [],
      "stateMutability": "nonpayable",
      "type": "function"
    },
    {
      "inputs": [
        {
          "internalType": "uint256",
          "name": "",
          "type": "uint256"
        }
      ],
      "name": "engineToOwner",
      "outputs": [
        {
          "internalType": "address",
          "name": "",
          "type": "address"
        }
      ],
      "stateMutability": "view",
      "type": "function",
      "constant": true
    },
    {
      "inputs": [
        {
          "internalType": "uint256",
          "name": "",
          "type": "uint256"
        }
      ],
      "name": "engines",
      "outputs": [
        {
          "internalType": "uint256",
          "name": "id",
          "type": "uint256"
        },
        {
          "internalType": "uint16",
          "name": "horsePowers",
          "type": "uint16"
        },
        {
          "internalType": "uint8",
          "name": "consumtion",
          "type": "uint8"
        }
      ],
      "stateMutability": "view",
      "type": "function",
      "constant": true
    },
    {
      "inputs": [
        {
          "internalType": "uint256",
          "name": "carId",
          "type": "uint256"
        }
      ],
      "name": "findRoom",
      "outputs": [],
      "stateMutability": "nonpayable",
      "type": "function"
    },
    {
      "inputs": [
        {
          "internalType": "uint256",
          "name": "",
          "type": "uint256"
        }
      ],
      "name": "fuelStationToOwner",
      "outputs": [
        {
          "internalType": "address",
          "name": "",
          "type": "address"
        }
      ],
      "stateMutability": "view",
      "type": "function",
      "constant": true
    },
    {
      "inputs": [
        {
          "internalType": "address",
          "name": "_owner",
          "type": "address"
        }
      ],
      "name": "getCarsByOwner",
      "outputs": [
        {
          "components": [
            {
              "internalType": "string",
              "name": "model",
              "type": "string"
            },
            {
              "internalType": "uint256",
              "name": "vin",
              "type": "uint256"
            },
            {
              "internalType": "uint256",
              "name": "engineId",
              "type": "uint256"
            },
            {
              "internalType": "uint256",
              "name": "chassisId",
              "type": "uint256"
            },
            {
              "internalType": "uint8",
              "name": "carLevel",
              "type": "uint8"
            },
            {
              "internalType": "uint256",
              "name": "mileage",
              "type": "uint256"
            },
            {
              "internalType": "uint256",
              "name": "winCountOnCurrentLevel",
              "type": "uint256"
            },
            {
              "internalType": "uint256",
              "name": "lossCountOnCurrentLevel",
              "type": "uint256"
            }
          ],
          "internalType": "struct CarFactory.Car[]",
          "name": "",
          "type": "tuple[]"
        }
      ],
      "stateMutability": "view",
      "type": "function",
      "constant": true
    },
    {
      "inputs": [
        {
          "internalType": "address",
          "name": "_owner",
          "type": "address"
        }
      ],
      "name": "getChassisByOwner",
      "outputs": [
        {
          "internalType": "uint256[]",
          "name": "",
          "type": "uint256[]"
        }
      ],
      "stateMutability": "view",
      "type": "function",
      "constant": true
    },
    {
      "inputs": [
        {
          "internalType": "uint256",
          "name": "roomId",
          "type": "uint256"
        }
      ],
      "name": "getClosedRoom",
      "outputs": [
        {
          "components": [
            {
              "internalType": "address",
              "name": "player",
              "type": "address"
            },
            {
              "internalType": "bool",
              "name": "correct",
              "type": "bool"
            },
            {
              "internalType": "uint256",
              "name": "time",
              "type": "uint256"
            },
            {
              "internalType": "uint256",
              "name": "carId",
              "type": "uint256"
            }
          ],
          "internalType": "struct RaceHandler.Answer[]",
          "name": "",
          "type": "tuple[]"
        }
      ],
      "stateMutability": "view",
      "type": "function",
      "constant": true
    },
    {
      "inputs": [
        {
          "internalType": "address",
          "name": "_owner",
          "type": "address"
        }
      ],
      "name": "getEnginesByOwner",
      "outputs": [
        {
          "internalType": "uint256[]",
          "name": "",
          "type": "uint256[]"
        }
      ],
      "stateMutability": "view",
      "type": "function",
      "constant": true
    },
    {
      "inputs": [
        {
          "internalType": "address",
          "name": "_owner",
          "type": "address"
        }
      ],
      "name": "getFuelStationByOwner",
      "outputs": [
        {
          "components": [
            {
              "internalType": "uint256",
              "name": "id",
              "type": "uint256"
            },
            {
              "internalType": "uint8",
              "name": "capacity",
              "type": "uint8"
            },
            {
              "internalType": "uint8",
              "name": "productionPerHour",
              "type": "uint8"
            },
            {
              "internalType": "uint8",
              "name": "currentFullness",
              "type": "uint8"
            },
            {
              "internalType": "uint256",
              "name": "lastUpdate",
              "type": "uint256"
            }
          ],
          "internalType": "struct FuelStationFactory.FuelStation",
          "name": "",
          "type": "tuple"
        }
      ],
      "stateMutability": "view",
      "type": "function",
      "constant": true
    },
    {
      "inputs": [
        {
          "internalType": "uint256",
          "name": "",
          "type": "uint256"
        }
      ],
      "name": "idToStartedRooms",
      "outputs": [
        {
          "internalType": "uint256",
          "name": "numberPlayers",
          "type": "uint256"
        },
        {
          "internalType": "uint256",
          "name": "world",
          "type": "uint256"
        },
        {
          "internalType": "uint256",
          "name": "roomDNA",
          "type": "uint256"
        },
        {
          "internalType": "uint256",
          "name": "startTime",
          "type": "uint256"
        },
        {
          "internalType": "uint256",
          "name": "curAnswer",
          "type": "uint256"
        },
        {
          "internalType": "bool",
          "name": "closed",
          "type": "bool"
        }
      ],
      "stateMutability": "view",
      "type": "function",
      "constant": true
    },
    {
      "inputs": [
        {
          "internalType": "uint256",
          "name": "_carId",
          "type": "uint256"
        }
      ],
      "name": "levelUp",
      "outputs": [],
      "stateMutability": "payable",
      "type": "function",
      "payable": true
    },
    {
      "inputs": [
        {
          "internalType": "uint256",
          "name": "",
          "type": "uint256"
        }
      ],
      "name": "openedRooms",
      "outputs": [
        {
          "internalType": "uint256",
          "name": "id",
          "type": "uint256"
        },
        {
          "internalType": "uint256",
          "name": "playersEntered",
          "type": "uint256"
        },
        {
          "internalType": "uint256",
          "name": "world",
          "type": "uint256"
        },
        {
          "components": [
            {
              "internalType": "uint256",
              "name": "playersNeeded",
              "type": "uint256"
            },
            {
              "internalType": "uint256",
              "name": "roadsNum",
              "type": "uint256"
            },
            {
              "internalType": "uint256",
              "name": "crossId",
              "type": "uint256"
            }
          ],
          "internalType": "struct RaceHandler.Cross",
          "name": "cross",
          "type": "tuple"
        }
      ],
      "stateMutability": "view",
      "type": "function",
      "constant": true
    },
    {
      "inputs": [],
      "name": "owner",
      "outputs": [
        {
          "internalType": "address",
          "name": "",
          "type": "address"
        }
      ],
      "stateMutability": "view",
      "type": "function",
      "constant": true
    },
    {
      "inputs": [
        {
          "internalType": "address",
          "name": "",
          "type": "address"
        }
      ],
      "name": "ownerCarCount",
      "outputs": [
        {
          "internalType": "uint256",
          "name": "",
          "type": "uint256"
        }
      ],
      "stateMutability": "view",
      "type": "function",
      "constant": true
    },
    {
      "inputs": [],
      "name": "renounceOwnership",
      "outputs": [],
      "stateMutability": "nonpayable",
      "type": "function"
    },
    {
      "inputs": [
        {
          "internalType": "uint256",
          "name": "",
          "type": "uint256"
        }
      ],
      "name": "stations",
      "outputs": [
        {
          "internalType": "uint256",
          "name": "id",
          "type": "uint256"
        },
        {
          "internalType": "uint8",
          "name": "capacity",
          "type": "uint8"
        },
        {
          "internalType": "uint8",
          "name": "productionPerHour",
          "type": "uint8"
        },
        {
          "internalType": "uint8",
          "name": "currentFullness",
          "type": "uint8"
        },
        {
          "internalType": "uint256",
          "name": "lastUpdate",
          "type": "uint256"
        }
      ],
      "stateMutability": "view",
      "type": "function",
      "constant": true
    },
    {
      "inputs": [
        {
          "internalType": "address",
          "name": "newOwner",
          "type": "address"
        }
      ],
      "name": "transferOwnership",
      "outputs": [],
      "stateMutability": "nonpayable",
      "type": "function"
    },
    {
      "inputs": [
        {
          "internalType": "uint256",
          "name": "_fuelStatonId",
          "type": "uint256"
        },
        {
          "internalType": "uint8",
          "name": "_counts",
          "type": "uint8"
        }
      ],
      "name": "upgradeCapacity",
      "outputs": [],
      "stateMutability": "payable",
      "type": "function",
      "payable": true
    },
    {
      "inputs": [
        {
          "internalType": "uint256",
          "name": "_engineId",
          "type": "uint256"
        },
        {
          "internalType": "uint8",
          "name": "_counts",
          "type": "uint8"
        }
      ],
      "name": "upgradeConsumtion",
      "outputs": [],
      "stateMutability": "payable",
      "type": "function",
      "payable": true
    },
    {
      "inputs": [
        {
          "internalType": "uint256",
          "name": "_chassisId",
          "type": "uint256"
        },
        {
          "internalType": "uint8",
          "name": "_counts",
          "type": "uint8"
        }
      ],
      "name": "upgradeDurability",
      "outputs": [],
      "stateMutability": "payable",
      "type": "function",
      "payable": true
    },
    {
      "inputs": [
        {
          "internalType": "uint256",
          "name": "_engineId",
          "type": "uint256"
        },
        {
          "internalType": "uint8",
          "name": "_counts",
          "type": "uint8"
        }
      ],
      "name": "upgradeHorsePowers",
      "outputs": [],
      "stateMutability": "payable",
      "type": "function",
      "payable": true
    },
    {
      "inputs": [
        {
          "internalType": "uint256",
          "name": "_fuelStatonId",
          "type": "uint256"
        },
        {
          "internalType": "uint8",
          "name": "_counts",
          "type": "uint8"
        }
      ],
      "name": "upgradeProductionPerHour",
      "outputs": [],
      "stateMutability": "payable",
      "type": "function",
      "payable": true
    },
    {
      "inputs": [
        {
          "internalType": "uint256",
          "name": "_carId",
          "type": "uint256"
        }
      ],
      "name": "startRace",
      "outputs": [],
      "stateMutability": "nonpayable",
      "type": "function"
    }
  ],
  "bytecode": "0x6080604052603c600060146101000a81548160ff021916908360ff1602179055506005600060156101000a81548160ff021916908360ff160217905550600160085560016009556509184e72a00060135565b5e620f48000601455650da475abf0006015556611c37937e080006016556305f5e10060175566038d7ea4c680006018553480156200008f57600080fd5b50620000b0620000a46200034760201b60201c565b6200034f60201b60201c565b6050600381905550605b600481905550600a600560006101000a81548160ff021916908360ff160217905550620186a06006819055506201d4c1600781905550600b60018160018154018082558091505003906000526020600020905050600c600181600181540180825580915050039060005260206000209050506019604051806060016040528060048152602001600481526020016000815250908060018154018082558091505060019003906000526020600020906003020160009091909190915060008201518160000155602082015181600101556040820151816002015550506019604051806060016040528060038152602001600481526020016000815250908060018154018082558091505060019003906000526020600020906003020160009091909190915060008201518160000155602082015181600101556040820151816002015550506019604051806060016040528060028152602001600481526020016000815250908060018154018082558091505060019003906000526020600020906003020160009091909190915060008201518160000155602082015181600101556040820151816002015550506019604051806060016040528060038152602001600381526020016001815250908060018154018082558091505060019003906000526020600020906003020160009091909190915060008201518160000155602082015181600101556040820151816002015550506019604051806060016040528060028152602001600381526020016001815250908060018154018082558091505060019003906000526020600020906003020160009091909190915060008201518160000155602082015181600101556040820151816002015550506001601c8190555062000413565b600033905090565b60008060009054906101000a900473ffffffffffffffffffffffffffffffffffffffff169050816000806101000a81548173ffffffffffffffffffffffffffffffffffffffff021916908373ffffffffffffffffffffffffffffffffffffffff1602179055508173ffffffffffffffffffffffffffffffffffffffff168173ffffffffffffffffffffffffffffffffffffffff167f8be0079c531659141344cd1fd0a4f28419497f9722a3daafe3b4186f6b6457e060405160405180910390a35050565b614c7d80620004236000396000f3fe6080604052600436106101cd5760003560e01c80637713d521116100f7578063b72c0eea11610095578063f2fde38b11610064578063f2fde38b146106d5578063f7746e36146106fe578063faf4bb9814610742578063fb2d954f1461075e576101cd565b8063b72c0eea14610607578063c75bb4f414610646578063c85b7fed14610683578063ede6fbf5146106ac576101cd565b80638da5cb5b116100d15780638da5cb5b14610542578063906f5f341461056d57806392f859db14610589578063b3b29afd146105ca576101cd565b80637713d521146104cd5780637c62360f1461050a5780638590926714610526576101cd565b806333ca504b1161016f578063594193d71161013e578063594193d7146103ff5780635dcc4cc61461043c5780636f206fc114610479578063715018a6146104b6576101cd565b806333ca504b1461030b5780633521c4261461034857806344901490146103855780634e31f910146103c2576101cd565b80630ce90ec2116101ab5780630ce90ec2146102705780631c5dde0e1461028c578063224370f0146102cb57806324d822bf146102e2576101cd565b806303f2e05b146101d25780630418394e146101ee578063081315ff14610230575b600080fd5b6101ec60048036038101906101e79190613670565b610787565b005b3480156101fa57600080fd5b50610215600480360381019061021091906136b0565b6108bf565b60405161022796959493929190613707565b60405180910390f35b34801561023c57600080fd5b50610257600480360381019061025291906136b0565b610908565b60405161026794939291906137b9565b60405180910390f35b61028a600480360381019061028591906136b0565b610970565b005b34801561029857600080fd5b506102b360048036038101906102ae91906136b0565b610aef565b6040516102c29392919061381d565b60405180910390f35b3480156102d757600080fd5b506102e0610b49565b005b3480156102ee57600080fd5b50610309600480360381019061030491906136b0565b610cb5565b005b34801561031757600080fd5b50610332600480360381019061032d91906136b0565b610ecb565b60405161033f9190613895565b60405180910390f35b34801561035457600080fd5b5061036f600480360381019061036a91906136b0565b610efe565b60405161037c91906139d2565b60405180910390f35b34801561039157600080fd5b506103ac60048036038101906103a791906136b0565b61105b565b6040516103b99190613895565b60405180910390f35b3480156103ce57600080fd5b506103e960048036038101906103e49190613a20565b61108e565b6040516103f69190613ac4565b60405180910390f35b34801561040b57600080fd5b50610426600480360381019061042191906136b0565b6111cd565b6040516104339190613895565b60405180910390f35b34801561044857600080fd5b50610463600480360381019061045e91906136b0565b611200565b6040516104709190613895565b60405180910390f35b34801561048557600080fd5b506104a0600480360381019061049b9190613a20565b611233565b6040516104ad9190613b8e565b60405180910390f35b3480156104c257600080fd5b506104cb611385565b005b3480156104d957600080fd5b506104f460048036038101906104ef9190613a20565b611399565b6040516105019190613b8e565b60405180910390f35b610524600480360381019061051f9190613670565b6114eb565b005b610540600480360381019061053b9190613670565b611618565b005b34801561054e57600080fd5b5061055761173b565b6040516105649190613895565b60405180910390f35b61058760048036038101906105829190613670565b611764565b005b34801561059557600080fd5b506105b060048036038101906105ab91906136b0565b611887565b6040516105c1959493929190613bbf565b60405180910390f35b3480156105d657600080fd5b506105f160048036038101906105ec9190613a20565b6118f4565b6040516105fe9190613c12565b60405180910390f35b34801561061357600080fd5b5061062e600480360381019061062991906136b0565b61190c565b60405161063d93929190613c4a565b60405180910390f35b34801561065257600080fd5b5061066d60048036038101906106689190613a20565b611961565b60405161067a9190613e8c565b60405180910390f35b34801561068f57600080fd5b506106aa60048036038101906106a59190613ff6565b611bd5565b005b3480156106b857600080fd5b506106d360048036038101906106ce9190614107565b611f58565b005b3480156106e157600080fd5b506106fc60048036038101906106f79190613a20565b6121b9565b005b34801561070a57600080fd5b50610725600480360381019061072091906136b0565b61223c565b60405161073998979695949392919061419a565b60405180910390f35b61075c60048036038101906107579190613670565b612329565b005b34801561076a57600080fd5b50610785600480360381019061078091906136b0565b612457565b005b81600f600082815260200190815260200160002060009054906101000a900473ffffffffffffffffffffffffffffffffffffffff1673ffffffffffffffffffffffffffffffffffffffff163373ffffffffffffffffffffffffffffffffffffffff16146107f357600080fd5b601754600c848154811061080a5761080961421f565b5b906000526020600020906002020160010160009054906101000a900463ffffffff168360ff1661083a919061427d565b63ffffffff1661084a91906142bb565b341461085557600080fd5b8160ff16600c848154811061086d5761086c61421f565b5b906000526020600020906002020160010160008282829054906101000a900463ffffffff1661089c9190614315565b92506101000a81548163ffffffff021916908363ffffffff160217905550505050565b601e6020528060005260406000206000915090508060000154908060010154908060020154908060030154908060050154908060060160009054906101000a900460ff16905086565b601d818154811061091857600080fd5b9060005260206000209060060201600091509050806000015490806001015490806002015490806003016040518060600160405290816000820154815260200160018201548152602001600282015481525050905084565b600a8082815481106109855761098461421f565b5b906000526020600020906008020160040160009054906101000a900460ff166109ae919061437e565b60ff166018546109be91906142bb565b34148015610a3257506001600a82815481106109dd576109dc61421f565b5b906000526020600020906008020160040160009054906101000a900460ff16610a0691906143af565b60ff16600a8281548110610a1d57610a1c61421f565b5b90600052602060002090600802016006015410155b610a3b57600080fd5b600a8181548110610a4f57610a4e61421f565b5b9060005260206000209060080201600401600081819054906101000a900460ff1680929190610a7d906143e6565b91906101000a81548160ff021916908360ff160217905550506000600a8281548110610aac57610aab61421f565b5b9060005260206000209060080201600601819055506000600a8281548110610ad757610ad661421f565b5b90600052602060002090600802016007018190555050565b600c8181548110610aff57600080fd5b90600052602060002090600202016000915090508060000154908060010160009054906101000a900463ffffffff16908060010160049054906101000a900463ffffffff16905083565b60003390506000600180549050905060016040518060a00160405280838152602001600060149054906101000a900460ff1660ff168152602001600060159054906101000a900460ff1660ff168152602001600060149054906101000a900460ff1660ff1681526020014263ffffffff1681525090806001815401808255809150506001900390600052602060002090600302016000909190919091506000820151816000015560208201518160010160006101000a81548160ff021916908360ff16021790555060408201518160010160016101000a81548160ff021916908360ff16021790555060608201518160010160026101000a81548160ff021916908360ff160217905550608082015181600201555050816002600083815260200190815260200160002060006101000a81548173ffffffffffffffffffffffffffffffffffffffff021916908373ffffffffffffffffffffffffffffffffffffffff1602179055505050565b80600d600082815260200190815260200160002060009054906101000a900473ffffffffffffffffffffffffffffffffffffffff1673ffffffffffffffffffffffffffffffffffffffff163373ffffffffffffffffffffffffffffffffffffffff1614610d2157600080fd5b6000600a808481548110610d3857610d3761421f565b5b906000526020600020906008020160040160009054906101000a900460ff16610d61919061437e565b600a610d6d919061440f565b6002610d799190614443565b9050610d858382612ab8565b8015610df457508060ff16600c600a8581548110610da657610da561421f565b5b90600052602060002090600802016003015481548110610dc957610dc861421f565b5b906000526020600020906002020160010160049054906101000a900463ffffffff1663ffffffff1610155b610dfd57600080fd5b8060ff16600c600a8581548110610e1757610e1661421f565b5b90600052602060002090600802016003015481548110610e3a57610e3961421f565b5b906000526020600020906002020160010160048282829054906101000a900463ffffffff16610e69919061447e565b92506101000a81548163ffffffff021916908363ffffffff1602179055508060ff16600a8481548110610e9f57610e9e61421f565b5b90600052602060002090600802016005016000828254610ebf91906144b2565b92505081905550505050565b600d6020528060005260406000206000915054906101000a900473ffffffffffffffffffffffffffffffffffffffff1681565b6060601e600083815260200190815260200160002060060160009054906101000a900460ff16610f63576040517f08c379a0000000000000000000000000000000000000000000000000000000008152600401610f5a90614554565b60405180910390fd5b601e6000838152602001908152602001600020600401805480602002602001604051908101604052809291908181526020016000905b8282101561105057838290600052602060002090600302016040518060800160405290816000820160009054906101000a900473ffffffffffffffffffffffffffffffffffffffff1673ffffffffffffffffffffffffffffffffffffffff1673ffffffffffffffffffffffffffffffffffffffff1681526020016000820160149054906101000a900460ff161515151581526020016001820154815260200160028201548152505081526020019060010190610f99565b505050509050919050565b600f6020528060005260406000206000915054906101000a900473ffffffffffffffffffffffffffffffffffffffff1681565b6110966134ca565b600080600090505b60018054905081101561112c578373ffffffffffffffffffffffffffffffffffffffff166002600083815260200190815260200160002060009054906101000a900473ffffffffffffffffffffffffffffffffffffffff1673ffffffffffffffffffffffffffffffffffffffff16036111195780915061112c565b808061112490614574565b91505061109e565b50600181815481106111415761114061421f565b5b90600052602060002090600302016040518060a0016040529081600082015481526020016001820160009054906101000a900460ff1660ff1660ff1681526020016001820160019054906101000a900460ff1660ff1660ff1681526020016001820160029054906101000a900460ff1660ff1660ff168152602001600282015481525050915050919050565b60026020528060005260406000206000915054906101000a900473ffffffffffffffffffffffffffffffffffffffff1681565b600e6020528060005260406000206000915054906101000a900473ffffffffffffffffffffffffffffffffffffffff1681565b60606000601160008473ffffffffffffffffffffffffffffffffffffffff1673ffffffffffffffffffffffffffffffffffffffff1681526020019081526020016000205467ffffffffffffffff8111156112905761128f613eb3565b5b6040519080825280602002602001820160405280156112be5781602001602082028036833780820191505090505b5090506000805b600c8054905081101561137a578473ffffffffffffffffffffffffffffffffffffffff16600f600083815260200190815260200160002060009054906101000a900473ffffffffffffffffffffffffffffffffffffffff1673ffffffffffffffffffffffffffffffffffffffff1603611367578083838151811061134c5761134b61421f565b5b602002602001018181525050818061136390614574565b9250505b808061137290614574565b9150506112c5565b508192505050919050565b61138d612c85565b6113976000612d03565b565b60606000601160008473ffffffffffffffffffffffffffffffffffffffff1673ffffffffffffffffffffffffffffffffffffffff1681526020019081526020016000205467ffffffffffffffff8111156113f6576113f5613eb3565b5b6040519080825280602002602001820160405280156114245781602001602082028036833780820191505090505b5090506000805b600b805490508110156114e0578473ffffffffffffffffffffffffffffffffffffffff16600e600083815260200190815260200160002060009054906101000a900473ffffffffffffffffffffffffffffffffffffffff1673ffffffffffffffffffffffffffffffffffffffff16036114cd57808383815181106114b2576114b161421f565b5b60200260200101818152505081806114c990614574565b9250505b80806114d890614574565b91505061142b565b508192505050919050565b81600e600082815260200190815260200160002060009054906101000a900473ffffffffffffffffffffffffffffffffffffffff1673ffffffffffffffffffffffffffffffffffffffff163373ffffffffffffffffffffffffffffffffffffffff161461155757600080fd5b600b838154811061156b5761156a61421f565b5b906000526020600020906002020160010160029054906101000a900460ff16600a611596919061440f565b60026115a291906146ef565b6016546115af91906142bb565b34146115ba57600080fd5b81600b84815481106115cf576115ce61421f565b5b906000526020600020906002020160010160028282829054906101000a900460ff166115fb919061440f565b92506101000a81548160ff021916908360ff160217905550505050565b816002600082815260200190815260200160002060009054906101000a900473ffffffffffffffffffffffffffffffffffffffff1673ffffffffffffffffffffffffffffffffffffffff163373ffffffffffffffffffffffffffffffffffffffff161461168457600080fd5b6014546001848154811061169b5761169a61421f565b5b906000526020600020906003020160010160019054906101000a900460ff16836116c59190614443565b60ff166116d291906142bb565b34146116dd57600080fd5b81600184815481106116f2576116f161421f565b5b906000526020600020906003020160010160018282829054906101000a900460ff1661171e91906143af565b92506101000a81548160ff021916908360ff160217905550505050565b60008060009054906101000a900473ffffffffffffffffffffffffffffffffffffffff16905090565b816002600082815260200190815260200160002060009054906101000a900473ffffffffffffffffffffffffffffffffffffffff1673ffffffffffffffffffffffffffffffffffffffff163373ffffffffffffffffffffffffffffffffffffffff16146117d057600080fd5b601354600184815481106117e7576117e661421f565b5b906000526020600020906003020160010160009054906101000a900460ff16836118119190614443565b60ff1661181e91906142bb565b341461182957600080fd5b816001848154811061183e5761183d61421f565b5b906000526020600020906003020160010160008282829054906101000a900460ff1661186a91906143af565b92506101000a81548160ff021916908360ff160217905550505050565b6001818154811061189757600080fd5b90600052602060002090600302016000915090508060000154908060010160009054906101000a900460ff16908060010160019054906101000a900460ff16908060010160029054906101000a900460ff16908060020154905085565b60106020528060005260406000206000915090505481565b600b818154811061191c57600080fd5b90600052602060002090600202016000915090508060000154908060010160009054906101000a900461ffff16908060010160029054906101000a900460ff16905083565b60606000601060008473ffffffffffffffffffffffffffffffffffffffff1673ffffffffffffffffffffffffffffffffffffffff1681526020019081526020016000205467ffffffffffffffff8111156119be576119bd613eb3565b5b6040519080825280602002602001820160405280156119f757816020015b6119e4613502565b8152602001906001900390816119dc5790505b5090506000805b600c80549050811015611bca578473ffffffffffffffffffffffffffffffffffffffff16600d600083815260200190815260200160002060009054906101000a900473ffffffffffffffffffffffffffffffffffffffff1673ffffffffffffffffffffffffffffffffffffffff1603611bb757600a8181548110611a8557611a8461421f565b5b906000526020600020906008020160405180610100016040529081600082018054611aaf90614769565b80601f0160208091040260200160405190810160405280929190818152602001828054611adb90614769565b8015611b285780601f10611afd57610100808354040283529160200191611b28565b820191906000526020600020905b815481529060010190602001808311611b0b57829003601f168201915b505050505081526020016001820154815260200160028201548152602001600382015481526020016004820160009054906101000a900460ff1660ff1660ff1681526020016005820154815260200160068201548152602001600782015481525050838381518110611b9d57611b9c61421f565b5b60200260200101819052508180611bb390614574565b9250505b8080611bc290614574565b9150506119fe565b508192505050919050565b81601a60003373ffffffffffffffffffffffffffffffffffffffff1673ffffffffffffffffffffffffffffffffffffffff1681526020019081526020016000205414611c56576040517f08c379a0000000000000000000000000000000000000000000000000000000008152600401611c4d906147e6565b60405180910390fd5b6000601e6000848152602001908152602001600020600201549050600073__PDDLib________________________________639c63eb2e83856040518363ffffffff1660e01b8152600401611cac9291906148ab565b602060405180830381865af4158015611cc9573d6000803e3d6000fd5b505050506040513d601f19601f82011682018060405250810190611ced9190614907565b9050600060405180608001604052803373ffffffffffffffffffffffffffffffffffffffff1681526020018315158152602001428152602001601b60003373ffffffffffffffffffffffffffffffffffffffff1673ffffffffffffffffffffffffffffffffffffffff1681526020019081526020016000205481525090506000601e600087815260200190815260200160002090508060040182908060018154018082558091505060019003906000526020600020906003020160009091909190915060008201518160000160006101000a81548173ffffffffffffffffffffffffffffffffffffffff021916908373ffffffffffffffffffffffffffffffffffffffff16021790555060208201518160000160146101000a81548160ff02191690831515021790555060408201518160010155606082015181600201555050601e600087815260200190815260200160002060000154601e60008881526020019081526020016000206004018054905003611f50577f67acaceb58ff1ad2aa8b3069f69c4cd076824e06a09184b75fb197ead7040be786604051611e929190613c12565b60405180910390a16001601e600088815260200190815260200160002060060160006101000a81548160ff021916908315150217905550601a60003373ffffffffffffffffffffffffffffffffffffffff1673ffffffffffffffffffffffffffffffffffffffff16815260200190815260200160002060009055601b60003373ffffffffffffffffffffffffffffffffffffffff1673ffffffffffffffffffffffffffffffffffffffff168152602001908152602001600020600090555b505050505050565b6000601060003373ffffffffffffffffffffffffffffffffffffffff1673ffffffffffffffffffffffffffffffffffffffff1681526020019081526020016000205414611fa457600080fd5b600081611fb042612dc7565b604051602001611fc1929190614970565b6040516020818303038152906040529050600081604051602001611fe59190614994565b6040516020818303038152906040528051906020012060001c9050600061200a612e95565b90506000612016613038565b90506000600a805490509050600a604051806101000160405280888152602001868152602001858152602001848152602001600160ff16815260200160008152602001600081526020016000815250908060018154018082558091505060019003906000526020600020906008020160009091909190915060008201518160000190805190602001906120aa92919061354a565b5060208201518160010155604082015181600201556060820151816003015560808201518160040160006101000a81548160ff021916908360ff16021790555060a0820151816005015560c0820151816006015560e08201518160070155505033600d600083815260200190815260200160002060006101000a81548173ffffffffffffffffffffffffffffffffffffffff021916908373ffffffffffffffffffffffffffffffffffffffff160217905550601060003373ffffffffffffffffffffffffffffffffffffffff1673ffffffffffffffffffffffffffffffffffffffff16815260200190815260200160002060008154809291906121ac90614574565b9190505550505050505050565b6121c1612c85565b600073ffffffffffffffffffffffffffffffffffffffff168173ffffffffffffffffffffffffffffffffffffffff1603612230576040517f08c379a000000000000000000000000000000000000000000000000000000000815260040161222790614a1d565b60405180910390fd5b61223981612d03565b50565b600a818154811061224c57600080fd5b906000526020600020906008020160009150905080600001805461226f90614769565b80601f016020809104026020016040519081016040528092919081815260200182805461229b90614769565b80156122e85780601f106122bd576101008083540402835291602001916122e8565b820191906000526020600020905b8154815290600101906020018083116122cb57829003601f168201915b5050505050908060010154908060020154908060030154908060040160009054906101000a900460ff16908060050154908060060154908060070154905088565b81600e600082815260200190815260200160002060009054906101000a900473ffffffffffffffffffffffffffffffffffffffff1673ffffffffffffffffffffffffffffffffffffffff163373ffffffffffffffffffffffffffffffffffffffff161461239557600080fd5b601554600b84815481106123ac576123ab61421f565b5b906000526020600020906002020160010160009054906101000a900461ffff168360ff166123da9190614a3d565b61ffff166123e891906142bb565b34146123f357600080fd5b8160ff16600b848154811061240b5761240a61421f565b5b906000526020600020906002020160010160008282829054906101000a900461ffff166124389190614a79565b92506101000a81548161ffff021916908361ffff160217905550505050565b80600d600082815260200190815260200160002060009054906101000a900473ffffffffffffffffffffffffffffffffffffffff1673ffffffffffffffffffffffffffffffffffffffff163373ffffffffffffffffffffffffffffffffffffffff16146124c357600080fd5b6000805b601d8054905081101561290357601d81815481106124e8576124e761421f565b5b9060005260206000209060060201600201546001600a8087815481106125115761251061421f565b5b906000526020600020906008020160040160009054906101000a900460ff1661253a919061437e565b61254491906143af565b60ff16036128f05760019150601d81815481106125645761256361421f565b5b906000526020600020906006020160000154601a60003373ffffffffffffffffffffffffffffffffffffffff1673ffffffffffffffffffffffffffffffffffffffff1681526020019081526020016000208190555083601b60003373ffffffffffffffffffffffffffffffffffffffff1673ffffffffffffffffffffffffffffffffffffffff16815260200190815260200160002081905550601d81815481106126115761261061421f565b5b9060005260206000209060060201600101600081548092919061263390614574565b9190505550601d818154811061264c5761264b61421f565b5b906000526020600020906006020160030160000154601d82815481106126755761267461421f565b5b906000526020600020906006020160010154036128ef57600073__PDDLib________________________________63c037e545601d84815481106126bc576126bb61421f565b5b906000526020600020906006020160030160020154601d85815481106126e5576126e461421f565b5b9060005260206000209060060201600301600001546040518363ffffffff1660e01b8152600401612717929190614ab1565b602060405180830381865af4158015612734573d6000803e3d6000fd5b505050506040513d601f19601f820116820180604052508101906127589190614aef565b90506000601e6000601d85815481106127745761277361421f565b5b90600052602060002090600602016000015481526020019081526020016000209050601d83815481106127aa576127a961421f565b5b9060005260206000209060060201600301600001548160000181905550601d83815481106127db576127da61421f565b5b90600052602060002090600602016002015481600101819055508181600201819055504281600301819055506000816005018190555060008160060160006101000a81548160ff0219169083151502179055507f2838ebeee7dc83fac85a3d6dbca0c0b6771591ada8b00f97371aa6611e631f9c601d84815481106128635761286261421f565b5b90600052602060002090600602016000015483604051612884929190614b1c565b60405180910390a1601d83815481106128a05761289f61421f565b5b9060005260206000209060060201600080820160009055600182016000905560028201600090556003820160008082016000905560018201600090556002820160009055505050505050612903565b5b80806128fb90614574565b9150506124c7565b5080156129105750612ab4565b6000601c600081548092919061292590614574565b91905055905060006019805490504261293e9190614b45565b905081601a60003373ffffffffffffffffffffffffffffffffffffffff1673ffffffffffffffffffffffffffffffffffffffff16815260200190815260200160002081905550601d6040518060800160405280848152602001600181526020016001600a808a815481106129b5576129b461421f565b5b906000526020600020906008020160040160009054906101000a900460ff166129de919061437e565b6129e891906143af565b60ff16815260200160198481548110612a0457612a0361421f565b5b906000526020600020906003020160405180606001604052908160008201548152602001600182015481526020016002820154815250508152509080600181540180825580915050600190039060005260206000209060060201600090919091909150600082015181600001556020820151816001015560408201518160020155606082015181600301600082015181600001556020820151816001015560408201518160020155505050505050505b5050565b600080612af7600d600086815260200190815260200160002060009054906101000a900473ffffffffffffffffffffffffffffffffffffffff1661108e565b9050612b0681600001516131db565b6000600a8581548110612b1c57612b1b61421f565b5b9060005260206000209060080201600201549050600060019050600a85600b8481548110612b4d57612b4c61421f565b5b906000526020600020906002020160010160029054906101000a900460ff16612b769190614443565b60ff1610612bcb57600a600b8381548110612b9457612b9361421f565b5b906000526020600020906002020160010160029054906101000a900460ff1686612bbe9190614443565b612bc8919061437e565b90505b8060ff166001846000015181548110612be757612be661421f565b5b906000526020600020906003020160010160029054906101000a900460ff1660ff1610612c7757806001846000015181548110612c2757612c2661421f565b5b906000526020600020906003020160010160028282829054906101000a900460ff16612c53919061440f565b92506101000a81548160ff021916908360ff16021790555060019350505050612c7f565b600093505050505b92915050565b612c8d613356565b73ffffffffffffffffffffffffffffffffffffffff16612cab61173b565b73ffffffffffffffffffffffffffffffffffffffff1614612d01576040517f08c379a0000000000000000000000000000000000000000000000000000000008152600401612cf890614bc2565b60405180910390fd5b565b60008060009054906101000a900473ffffffffffffffffffffffffffffffffffffffff169050816000806101000a81548173ffffffffffffffffffffffffffffffffffffffff021916908373ffffffffffffffffffffffffffffffffffffffff1602179055508173ffffffffffffffffffffffffffffffffffffffff168173ffffffffffffffffffffffffffffffffffffffff167f8be0079c531659141344cd1fd0a4f28419497f9722a3daafe3b4186f6b6457e060405160405180910390a35050565b606060006001612dd68461335e565b01905060008167ffffffffffffffff811115612df557612df4613eb3565b5b6040519080825280601f01601f191660200182016040528015612e275781602001600182028036833780820191505090505b509050600082602001820190505b600115612e8a578080600190039150507f3031323334353637383961626364656600000000000000000000000000000000600a86061a8153600a8581612e7e57612e7d61434f565b5b04945060008503612e35575b819350505050919050565b600080600354600454612ea89190614be2565b42612eb39190614b45565b600354612ec091906144b2565b9050600060086000815480929190612ed790614574565b919050559050600b60405180606001604052808381526020018461ffff168152602001600560009054906101000a900460ff1660ff1681525090806001815401808255809150506001900390600052602060002090600202016000909190919091506000820151816000015560208201518160010160006101000a81548161ffff021916908361ffff16021790555060408201518160010160026101000a81548160ff021916908360ff1602179055505050601160003373ffffffffffffffffffffffffffffffffffffffff1673ffffffffffffffffffffffffffffffffffffffff1681526020019081526020016000206000815480929190612fd990614574565b919050555033600e600083815260200190815260200160002060006101000a81548173ffffffffffffffffffffffffffffffffffffffff021916908373ffffffffffffffffffffffffffffffffffffffff160217905550809250505090565b60008060065460075461304b9190614be2565b426130569190614b45565b60065461306391906144b2565b905060006009600081548092919061307a90614574565b919050559050600c60405180606001604052808381526020018463ffffffff1681526020018463ffffffff1681525090806001815401808255809150506001900390600052602060002090600202016000909190919091506000820151816000015560208201518160010160006101000a81548163ffffffff021916908363ffffffff16021790555060408201518160010160046101000a81548163ffffffff021916908363ffffffff1602179055505050601260003373ffffffffffffffffffffffffffffffffffffffff1673ffffffffffffffffffffffffffffffffffffffff168152602001908152602001600020600081548092919061317c90614574565b919050555033600f600083815260200190815260200160002060006101000a81548173ffffffffffffffffffffffffffffffffffffffff021916908373ffffffffffffffffffffffffffffffffffffffff160217905550809250505090565b60004290506000610e10600184815481106131f9576131f861421f565b5b906000526020600020906003020160020154836132169190614be2565b6132209190614c16565b90506000600184815481106132385761323761421f565b5b906000526020600020906003020160010160019054906101000a900460ff1660ff168261326591906142bb565b600185815481106132795761327861421f565b5b906000526020600020906003020160010160029054906101000a900460ff1660ff166132a591906144b2565b90506132e9600185815481106132be576132bd61421f565b5b906000526020600020906003020160010160009054906101000a900460ff1660ff168260ff166134b1565b600185815481106132fd576132fc61421f565b5b906000526020600020906003020160010160026101000a81548160ff021916908360ff160217905550826001858154811061333b5761333a61421f565b5b90600052602060002090600302016002018190555050505050565b600033905090565b600080600090507a184f03e93ff9f4daa797ed6e38ed64bf6a1f01000000000000000083106133bc577a184f03e93ff9f4daa797ed6e38ed64bf6a1f01000000000000000083816133b2576133b161434f565b5b0492506040810190505b6d04ee2d6d415b85acef810000000083106133f9576d04ee2d6d415b85acef810000000083816133ef576133ee61434f565b5b0492506020810190505b662386f26fc10000831061342857662386f26fc10000838161341e5761341d61434f565b5b0492506010810190505b6305f5e1008310613451576305f5e10083816134475761344661434f565b5b0492506008810190505b612710831061347657612710838161346c5761346b61434f565b5b0492506004810190505b60648310613499576064838161348f5761348e61434f565b5b0492506002810190505b600a83106134a8576001810190505b80915050919050565b60008183106134c057816134c2565b825b905092915050565b6040518060a0016040528060008152602001600060ff168152602001600060ff168152602001600060ff168152602001600081525090565b60405180610100016040528060608152602001600081526020016000815260200160008152602001600060ff1681526020016000815260200160008152602001600081525090565b82805461355690614769565b90600052602060002090601f01602090048101928261357857600085556135bf565b82601f1061359157805160ff19168380011785556135bf565b828001600101855582156135bf579182015b828111156135be5782518255916020019190600101906135a3565b5b5090506135cc91906135d0565b5090565b5b808211156135e95760008160009055506001016135d1565b5090565b6000604051905090565b600080fd5b600080fd5b6000819050919050565b61361481613601565b811461361f57600080fd5b50565b6000813590506136318161360b565b92915050565b600060ff82169050919050565b61364d81613637565b811461365857600080fd5b50565b60008135905061366a81613644565b92915050565b60008060408385031215613687576136866135f7565b5b600061369585828601613622565b92505060206136a68582860161365b565b9150509250929050565b6000602082840312156136c6576136c56135f7565b5b60006136d484828501613622565b91505092915050565b6136e681613601565b82525050565b60008115159050919050565b613701816136ec565b82525050565b600060c08201905061371c60008301896136dd565b61372960208301886136dd565b61373660408301876136dd565b61374360608301866136dd565b61375060808301856136dd565b61375d60a08301846136f8565b979650505050505050565b61377181613601565b82525050565b60608201600082015161378d6000850182613768565b5060208201516137a06020850182613768565b5060408201516137b36040850182613768565b50505050565b600060c0820190506137ce60008301876136dd565b6137db60208301866136dd565b6137e860408301856136dd565b6137f56060830184613777565b95945050505050565b600063ffffffff82169050919050565b613817816137fe565b82525050565b600060608201905061383260008301866136dd565b61383f602083018561380e565b61384c604083018461380e565b949350505050565b600073ffffffffffffffffffffffffffffffffffffffff82169050919050565b600061387f82613854565b9050919050565b61388f81613874565b82525050565b60006020820190506138aa6000830184613886565b92915050565b600081519050919050565b600082825260208201905092915050565b6000819050602082019050919050565b6138e581613874565b82525050565b6138f4816136ec565b82525050565b60808201600082015161391060008501826138dc565b50602082015161392360208501826138eb565b5060408201516139366040850182613768565b5060608201516139496060850182613768565b50505050565b600061395b83836138fa565b60808301905092915050565b6000602082019050919050565b600061397f826138b0565b61398981856138bb565b9350613994836138cc565b8060005b838110156139c55781516139ac888261394f565b97506139b783613967565b925050600181019050613998565b5085935050505092915050565b600060208201905081810360008301526139ec8184613974565b905092915050565b6139fd81613874565b8114613a0857600080fd5b50565b600081359050613a1a816139f4565b92915050565b600060208284031215613a3657613a356135f7565b5b6000613a4484828501613a0b565b91505092915050565b613a5681613637565b82525050565b60a082016000820151613a726000850182613768565b506020820151613a856020850182613a4d565b506040820151613a986040850182613a4d565b506060820151613aab6060850182613a4d565b506080820151613abe6080850182613768565b50505050565b600060a082019050613ad96000830184613a5c565b92915050565b600081519050919050565b600082825260208201905092915050565b6000819050602082019050919050565b6000613b178383613768565b60208301905092915050565b6000602082019050919050565b6000613b3b82613adf565b613b458185613aea565b9350613b5083613afb565b8060005b83811015613b81578151613b688882613b0b565b9750613b7383613b23565b925050600181019050613b54565b5085935050505092915050565b60006020820190508181036000830152613ba88184613b30565b905092915050565b613bb981613637565b82525050565b600060a082019050613bd460008301886136dd565b613be16020830187613bb0565b613bee6040830186613bb0565b613bfb6060830185613bb0565b613c0860808301846136dd565b9695505050505050565b6000602082019050613c2760008301846136dd565b92915050565b600061ffff82169050919050565b613c4481613c2d565b82525050565b6000606082019050613c5f60008301866136dd565b613c6c6020830185613c3b565b613c796040830184613bb0565b949350505050565b600081519050919050565b600082825260208201905092915050565b6000819050602082019050919050565b600081519050919050565b600082825260208201905092915050565b60005b83811015613ce7578082015181840152602081019050613ccc565b83811115613cf6576000848401525b50505050565b6000601f19601f8301169050919050565b6000613d1882613cad565b613d228185613cb8565b9350613d32818560208601613cc9565b613d3b81613cfc565b840191505092915050565b6000610100830160008301518482036000860152613d648282613d0d565b9150506020830151613d796020860182613768565b506040830151613d8c6040860182613768565b506060830151613d9f6060860182613768565b506080830151613db26080860182613a4d565b5060a0830151613dc560a0860182613768565b5060c0830151613dd860c0860182613768565b5060e0830151613deb60e0860182613768565b508091505092915050565b6000613e028383613d46565b905092915050565b6000602082019050919050565b6000613e2282613c81565b613e2c8185613c8c565b935083602082028501613e3e85613c9d565b8060005b85811015613e7a5784840389528151613e5b8582613df6565b9450613e6683613e0a565b925060208a01995050600181019050613e42565b50829750879550505050505092915050565b60006020820190508181036000830152613ea68184613e17565b905092915050565b600080fd5b7f4e487b7100000000000000000000000000000000000000000000000000000000600052604160045260246000fd5b613eeb82613cfc565b810181811067ffffffffffffffff82111715613f0a57613f09613eb3565b5b80604052505050565b6000613f1d6135ed565b9050613f298282613ee2565b919050565b600067ffffffffffffffff821115613f4957613f48613eb3565b5b602082029050602081019050919050565b600080fd5b6000613f72613f6d84613f2e565b613f13565b90508083825260208201905060208402830185811115613f9557613f94613f5a565b5b835b81811015613fbe5780613faa8882613622565b845260208401935050602081019050613f97565b5050509392505050565b600082601f830112613fdd57613fdc613eae565b5b8135613fed848260208601613f5f565b91505092915050565b6000806040838503121561400d5761400c6135f7565b5b600061401b85828601613622565b925050602083013567ffffffffffffffff81111561403c5761403b6135fc565b5b61404885828601613fc8565b9150509250929050565b600080fd5b600067ffffffffffffffff82111561407257614071613eb3565b5b61407b82613cfc565b9050602081019050919050565b82818337600083830152505050565b60006140aa6140a584614057565b613f13565b9050828152602081018484840111156140c6576140c5614052565b5b6140d1848285614088565b509392505050565b600082601f8301126140ee576140ed613eae565b5b81356140fe848260208601614097565b91505092915050565b60006020828403121561411d5761411c6135f7565b5b600082013567ffffffffffffffff81111561413b5761413a6135fc565b5b614147848285016140d9565b91505092915050565b600082825260208201905092915050565b600061416c82613cad565b6141768185614150565b9350614186818560208601613cc9565b61418f81613cfc565b840191505092915050565b60006101008201905081810360008301526141b5818b614161565b90506141c4602083018a6136dd565b6141d160408301896136dd565b6141de60608301886136dd565b6141eb6080830187613bb0565b6141f860a08301866136dd565b61420560c08301856136dd565b61421260e08301846136dd565b9998505050505050505050565b7f4e487b7100000000000000000000000000000000000000000000000000000000600052603260045260246000fd5b7f4e487b7100000000000000000000000000000000000000000000000000000000600052601160045260246000fd5b6000614288826137fe565b9150614293836137fe565b92508163ffffffff04831182151516156142b0576142af61424e565b5b828202905092915050565b60006142c682613601565b91506142d183613601565b9250817fffffffffffffffffffffffffffffffffffffffffffffffffffffffffffffffff048311821515161561430a5761430961424e565b5b828202905092915050565b6000614320826137fe565b915061432b836137fe565b92508263ffffffff038211156143445761434361424e565b5b828201905092915050565b7f4e487b7100000000000000000000000000000000000000000000000000000000600052601260045260246000fd5b600061438982613637565b915061439483613637565b9250826143a4576143a361434f565b5b828204905092915050565b60006143ba82613637565b91506143c583613637565b92508260ff038211156143db576143da61424e565b5b828201905092915050565b60006143f182613637565b915060ff82036144045761440361424e565b5b600182019050919050565b600061441a82613637565b915061442583613637565b9250828210156144385761443761424e565b5b828203905092915050565b600061444e82613637565b915061445983613637565b92508160ff04831182151516156144735761447261424e565b5b828202905092915050565b6000614489826137fe565b9150614494836137fe565b9250828210156144a7576144a661424e565b5b828203905092915050565b60006144bd82613601565b91506144c883613601565b9250827fffffffffffffffffffffffffffffffffffffffffffffffffffffffffffffffff038211156144fd576144fc61424e565b5b828201905092915050565b7f726f6f6d206e6f7420636c6f7365640000000000000000000000000000000000600082015250565b600061453e600f83614150565b915061454982614508565b602082019050919050565b6000602082019050818103600083015261456d81614531565b9050919050565b600061457f82613601565b91507fffffffffffffffffffffffffffffffffffffffffffffffffffffffffffffffff82036145b1576145b061424e565b5b600182019050919050565b60008160011c9050919050565b6000808291508390505b6001851115614613578086048111156145ef576145ee61424e565b5b60018516156145fe5780820291505b808102905061460c856145bc565b94506145d3565b94509492505050565b60008261462c57600190506146e8565b8161463a57600090506146e8565b8160018114614650576002811461465a57614689565b60019150506146e8565b60ff84111561466c5761466b61424e565b5b8360020a9150848211156146835761468261424e565b5b506146e8565b5060208310610133831016604e8410600b84101617156146be5782820a9050838111156146b9576146b861424e565b5b6146e8565b6146cb84848460016145c9565b925090508184048111156146e2576146e161424e565b5b81810290505b9392505050565b60006146fa82613601565b915061470583613637565b92506147327fffffffffffffffffffffffffffffffffffffffffffffffffffffffffffffffff848461461c565b905092915050565b7f4e487b7100000000000000000000000000000000000000000000000000000000600052602260045260246000fd5b6000600282049050600182168061478157607f821691505b6020821081036147945761479361473a565b5b50919050565b7f6e6f7420796f757220726f6f6d00000000000000000000000000000000000000600082015250565b60006147d0600d83614150565b91506147db8261479a565b602082019050919050565b600060208201905081810360008301526147ff816147c3565b9050919050565b61480f81613601565b82525050565b600082825260208201905092915050565b61482f81613601565b82525050565b60006148418383614826565b60208301905092915050565b600061485882613adf565b6148628185614815565b935061486d83613afb565b8060005b8381101561489e5781516148858882614835565b975061489083613b23565b925050600181019050614871565b5085935050505092915050565b60006040820190506148c06000830185614806565b81810360208301526148d2818461484d565b90509392505050565b6148e4816136ec565b81146148ef57600080fd5b50565b600081519050614901816148db565b92915050565b60006020828403121561491d5761491c6135f7565b5b600061492b848285016148f2565b91505092915050565b600081905092915050565b600061494a82613cad565b6149548185614934565b9350614964818560208601613cc9565b80840191505092915050565b600061497c828561493f565b9150614988828461493f565b91508190509392505050565b60006149a0828461493f565b915081905092915050565b7f4f776e61626c653a206e6577206f776e657220697320746865207a65726f206160008201527f6464726573730000000000000000000000000000000000000000000000000000602082015250565b6000614a07602683614150565b9150614a12826149ab565b604082019050919050565b60006020820190508181036000830152614a36816149fa565b9050919050565b6000614a4882613c2d565b9150614a5383613c2d565b92508161ffff0483118215151615614a6e57614a6d61424e565b5b828202905092915050565b6000614a8482613c2d565b9150614a8f83613c2d565b92508261ffff03821115614aa657614aa561424e565b5b828201905092915050565b6000604082019050614ac66000830185614806565b614ad36020830184614806565b9392505050565b600081519050614ae98161360b565b92915050565b600060208284031215614b0557614b046135f7565b5b6000614b1384828501614ada565b91505092915050565b6000604082019050614b3160008301856136dd565b614b3e60208301846136dd565b9392505050565b6000614b5082613601565b9150614b5b83613601565b925082614b6b57614b6a61434f565b5b828206905092915050565b7f4f776e61626c653a2063616c6c6572206973206e6f7420746865206f776e6572600082015250565b6000614bac602083614150565b9150614bb782614b76565b602082019050919050565b60006020820190508181036000830152614bdb81614b9f565b9050919050565b6000614bed82613601565b9150614bf883613601565b925082821015614c0b57614c0a61424e565b5b828203905092915050565b6000614c2182613601565b9150614c2c83613601565b925082614c3c57614c3b61434f565b5b82820490509291505056fea2646970667358221220c9c0dd9dda6434ffd6b22cb94130fba275b4bb3673582d4e8cf9a0059fd3a90a64736f6c634300080d0033",
  "immutableReferences": {},
  "source": "// SPDX-License-Identifier: MIT\npragma solidity ^0.8.13;\nimport \"./RaceHandler.sol\";\n\ncontract CarRacing is RaceHandler{\n\n    function _isEnoughFuel(uint _carId, uint8 duration) private returns(bool){\n        FuelStation memory station = getFuelStationByOwner(carToOwner[_carId]);\n        _refreshFuel(station.id);\n        uint engineId = cars[_carId].engineId;\n        uint8 liters= 1;\n        if (engines[engineId].consumtion * duration >= 10)\n            liters = duration * engines[engineId].consumtion / 10;\n\n        if (stations[station.id].currentFullness >= liters) {\n            stations[station.id].currentFullness -= liters;\n            return true;\n        }\n        else\n            return false;\n    }\n\n    function _refreshFuel(uint _fuelStationId) private {\n        uint curTime = block.timestamp;\n        uint wholeHours = (curTime - stations[_fuelStationId].lastUpdate) / 3600;\n        uint8 newFullness = uint8(stations[_fuelStationId].currentFullness + wholeHours * stations[_fuelStationId].productionPerHour);\n        stations[_fuelStationId].currentFullness = uint8(Math.min(stations[_fuelStationId].capacity, newFullness));\n        stations[_fuelStationId].lastUpdate = curTime;\n    }\n\n\n    function startRace(uint _carId) external onlyOwnerOfCar(_carId) {\n        uint8 durToNextCrossroad = 2 * (10 - cars[_carId].carLevel / 10);\n\n        require(_isEnoughFuel(_carId, durToNextCrossroad) && chassis[cars[_carId].chassisId].resource >= durToNextCrossroad);\n        // TODO\n\n        chassis[cars[_carId].chassisId].resource -= durToNextCrossroad;\n        cars[_carId].mileage += durToNextCrossroad;\n    }\n\n}",
  "sourcePath": "/Users/vvan/Programming/JavaScript/DriveSafely/contract/contracts/CarRacing.sol",
  "compiler": {
    "name": "solc",
    "version": "0.8.13+commit.abaa5c0e.Emscripten.clang"
  },
  "schemaVersion": "3.4.11",
  "updatedAt": "2023-01-08T14:23:14.183Z",
  "networkType": "ethereum",
  "devdoc": {
    "kind": "dev",
    "methods": {
      "owner()": {
        "details": "Returns the address of the current owner."
      },
      "renounceOwnership()": {
        "details": "Leaves the contract without owner. It will not be possible to call `onlyOwner` functions anymore. Can only be called by the current owner. NOTE: Renouncing ownership will leave the contract without an owner, thereby removing any functionality that is only available to the owner."
      },
      "transferOwnership(address)": {
        "details": "Transfers ownership of the contract to a new account (`newOwner`). Can only be called by the current owner."
      }
    },
    "version": 1
  },
  "userdoc": {
    "kind": "user",
    "methods": {},
    "version": 1
  }
}