{
  "contractName": "CarRacing",
  "abi": [
    {
      "anonymous": false,
      "inputs": [
        {
          "indexed": true,
          "internalType": "address",
          "name": "previousOwner",
          "type": "address"
        },
        {
          "indexed": true,
          "internalType": "address",
          "name": "newOwner",
          "type": "address"
        }
      ],
      "name": "OwnershipTransferred",
      "type": "event"
    },
    {
      "anonymous": false,
      "inputs": [
        {
          "indexed": false,
          "internalType": "uint256",
          "name": "roomId",
          "type": "uint256"
        }
      ],
      "name": "RoomClosed",
      "type": "event"
    },
    {
      "anonymous": false,
      "inputs": [
        {
          "indexed": false,
          "internalType": "uint256",
          "name": "roomId",
          "type": "uint256"
        },
        {
          "indexed": false,
          "internalType": "uint256",
          "name": "roomDNA",
          "type": "uint256"
        }
      ],
      "name": "RoomFull",
      "type": "event"
    },
    {
      "inputs": [
        {
          "internalType": "uint256",
          "name": "",
          "type": "uint256"
        }
      ],
      "name": "carToOwner",
      "outputs": [
        {
          "internalType": "address",
          "name": "",
          "type": "address"
        }
      ],
      "stateMutability": "view",
      "type": "function"
    },
    {
      "inputs": [
        {
          "internalType": "uint256",
          "name": "",
          "type": "uint256"
        }
      ],
      "name": "carToPrice",
      "outputs": [
        {
          "internalType": "uint256",
          "name": "",
          "type": "uint256"
        }
      ],
      "stateMutability": "view",
      "type": "function"
    },
    {
      "inputs": [
        {
          "internalType": "uint256",
          "name": "",
          "type": "uint256"
        }
      ],
      "name": "cars",
      "outputs": [
        {
          "internalType": "string",
          "name": "model",
          "type": "string"
        },
        {
          "internalType": "uint256",
          "name": "vin",
          "type": "uint256"
        },
        {
          "internalType": "uint256",
          "name": "engineId",
          "type": "uint256"
        },
        {
          "internalType": "uint256",
          "name": "chassisId",
          "type": "uint256"
        },
        {
          "internalType": "uint8",
          "name": "carLevel",
          "type": "uint8"
        },
        {
          "internalType": "uint256",
          "name": "mileage",
          "type": "uint256"
        },
        {
          "internalType": "uint256",
          "name": "winCountOnCurrentLevel",
          "type": "uint256"
        },
        {
          "internalType": "uint256",
          "name": "lossCountOnCurrentLevel",
          "type": "uint256"
        },
        {
          "internalType": "uint256",
          "name": "id",
          "type": "uint256"
        }
      ],
      "stateMutability": "view",
      "type": "function"
    },
    {
      "inputs": [],
      "name": "carsForSaleCount",
      "outputs": [
        {
          "internalType": "uint256",
          "name": "",
          "type": "uint256"
        }
      ],
      "stateMutability": "view",
      "type": "function"
    },
    {
      "inputs": [
        {
          "internalType": "uint256",
          "name": "",
          "type": "uint256"
        }
      ],
      "name": "chassis",
      "outputs": [
        {
          "internalType": "uint256",
          "name": "id",
          "type": "uint256"
        },
        {
          "internalType": "uint32",
          "name": "durability",
          "type": "uint32"
        },
        {
          "internalType": "uint32",
          "name": "resource",
          "type": "uint32"
        }
      ],
      "stateMutability": "view",
      "type": "function"
    },
    {
      "inputs": [],
      "name": "chassisForSaleCount",
      "outputs": [
        {
          "internalType": "uint256",
          "name": "",
          "type": "uint256"
        }
      ],
      "stateMutability": "view",
      "type": "function"
    },
    {
      "inputs": [
        {
          "internalType": "uint256",
          "name": "",
          "type": "uint256"
        }
      ],
      "name": "chassisToOwner",
      "outputs": [
        {
          "internalType": "address",
          "name": "",
          "type": "address"
        }
      ],
      "stateMutability": "view",
      "type": "function"
    },
    {
      "inputs": [
        {
          "internalType": "uint256",
          "name": "",
          "type": "uint256"
        }
      ],
      "name": "chassisToPrice",
      "outputs": [
        {
          "internalType": "uint256",
          "name": "",
          "type": "uint256"
        }
      ],
      "stateMutability": "view",
      "type": "function"
    },
    {
      "inputs": [
        {
          "internalType": "uint256",
          "name": "roomId",
          "type": "uint256"
        },
        {
          "internalType": "uint256[]",
          "name": "answer",
          "type": "uint256[]"
        }
      ],
      "name": "commitAnswer",
      "outputs": [],
      "stateMutability": "nonpayable",
      "type": "function"
    },
    {
      "inputs": [
        {
          "internalType": "string",
          "name": "model",
          "type": "string"
        }
      ],
      "name": "createCar",
      "outputs": [],
      "stateMutability": "nonpayable",
      "type": "function"
    },
    {
      "inputs": [
        {
          "internalType": "string",
          "name": "_model",
          "type": "string"
        },
        {
          "internalType": "uint16",
          "name": "_horsePowers",
          "type": "uint16"
        },
        {
          "internalType": "uint8",
          "name": "_consumtion",
          "type": "uint8"
        },
        {
          "internalType": "uint32",
          "name": "_durability",
          "type": "uint32"
        },
        {
          "internalType": "uint8",
          "name": "_carLevel",
          "type": "uint8"
        },
        {
          "internalType": "uint256",
          "name": "_carPrice",
          "type": "uint256"
        }
      ],
      "name": "createCustomCar",
      "outputs": [],
      "stateMutability": "nonpayable",
      "type": "function"
    },
    {
      "inputs": [
        {
          "internalType": "uint32",
          "name": "_durability",
          "type": "uint32"
        },
        {
          "internalType": "uint256",
          "name": "_chassisPrice",
          "type": "uint256"
        }
      ],
      "name": "createCustomChassis",
      "outputs": [
        {
          "internalType": "uint256",
          "name": "",
          "type": "uint256"
        }
      ],
      "stateMutability": "nonpayable",
      "type": "function"
    },
    {
      "inputs": [
        {
          "internalType": "uint16",
          "name": "_horsePowers",
          "type": "uint16"
        },
        {
          "internalType": "uint8",
          "name": "_consumtion",
          "type": "uint8"
        },
        {
          "internalType": "uint256",
          "name": "_enginePrice",
          "type": "uint256"
        }
      ],
      "name": "createCustomEngine",
      "outputs": [
        {
          "internalType": "uint256",
          "name": "",
          "type": "uint256"
        }
      ],
      "stateMutability": "nonpayable",
      "type": "function"
    },
    {
      "inputs": [],
      "name": "createFuelStation",
      "outputs": [],
      "stateMutability": "nonpayable",
      "type": "function"
    },
    {
      "inputs": [
        {
          "internalType": "uint256",
          "name": "carId",
          "type": "uint256"
        },
        {
          "internalType": "uint256",
          "name": "chassisId",
          "type": "uint256"
        }
      ],
      "name": "detachChassis",
      "outputs": [],
      "stateMutability": "nonpayable",
      "type": "function"
    },
    {
      "inputs": [
        {
          "internalType": "uint256",
          "name": "carId",
          "type": "uint256"
        },
        {
          "internalType": "uint256",
          "name": "engineId",
          "type": "uint256"
        }
      ],
      "name": "detachEngine",
      "outputs": [],
      "stateMutability": "nonpayable",
      "type": "function"
    },
    {
      "inputs": [
        {
          "internalType": "uint256",
          "name": "",
          "type": "uint256"
        }
      ],
      "name": "engineToOwner",
      "outputs": [
        {
          "internalType": "address",
          "name": "",
          "type": "address"
        }
      ],
      "stateMutability": "view",
      "type": "function"
    },
    {
      "inputs": [
        {
          "internalType": "uint256",
          "name": "",
          "type": "uint256"
        }
      ],
      "name": "engineToPrice",
      "outputs": [
        {
          "internalType": "uint256",
          "name": "",
          "type": "uint256"
        }
      ],
      "stateMutability": "view",
      "type": "function"
    },
    {
      "inputs": [
        {
          "internalType": "uint256",
          "name": "",
          "type": "uint256"
        }
      ],
      "name": "engines",
      "outputs": [
        {
          "internalType": "uint256",
          "name": "id",
          "type": "uint256"
        },
        {
          "internalType": "uint16",
          "name": "horsePowers",
          "type": "uint16"
        },
        {
          "internalType": "uint8",
          "name": "consumtion",
          "type": "uint8"
        }
      ],
      "stateMutability": "view",
      "type": "function"
    },
    {
      "inputs": [],
      "name": "enginesForSaleCount",
      "outputs": [
        {
          "internalType": "uint256",
          "name": "",
          "type": "uint256"
        }
      ],
      "stateMutability": "view",
      "type": "function"
    },
    {
      "inputs": [
        {
          "internalType": "address",
          "name": "user",
          "type": "address"
        },
        {
          "internalType": "uint256",
          "name": "carId",
          "type": "uint256"
        }
      ],
      "name": "findRoom",
      "outputs": [],
      "stateMutability": "nonpayable",
      "type": "function"
    },
    {
      "inputs": [
        {
          "internalType": "uint256",
          "name": "",
          "type": "uint256"
        }
      ],
      "name": "fuelStationToOwner",
      "outputs": [
        {
          "internalType": "address",
          "name": "",
          "type": "address"
        }
      ],
      "stateMutability": "view",
      "type": "function"
    },
    {
      "inputs": [
        {
          "internalType": "uint256",
          "name": "_fuelStatonId",
          "type": "uint256"
        },
        {
          "internalType": "uint8",
          "name": "_counts",
          "type": "uint8"
        }
      ],
      "name": "getCapacityUpgradeCost",
      "outputs": [
        {
          "internalType": "uint256",
          "name": "",
          "type": "uint256"
        }
      ],
      "stateMutability": "view",
      "type": "function"
    },
    {
      "inputs": [
        {
          "internalType": "address",
          "name": "_owner",
          "type": "address"
        }
      ],
      "name": "getCarsByOwner",
      "outputs": [
        {
          "components": [
            {
              "internalType": "string",
              "name": "model",
              "type": "string"
            },
            {
              "internalType": "uint256",
              "name": "vin",
              "type": "uint256"
            },
            {
              "internalType": "uint256",
              "name": "engineId",
              "type": "uint256"
            },
            {
              "internalType": "uint256",
              "name": "chassisId",
              "type": "uint256"
            },
            {
              "internalType": "uint8",
              "name": "carLevel",
              "type": "uint8"
            },
            {
              "internalType": "uint256",
              "name": "mileage",
              "type": "uint256"
            },
            {
              "internalType": "uint256",
              "name": "winCountOnCurrentLevel",
              "type": "uint256"
            },
            {
              "internalType": "uint256",
              "name": "lossCountOnCurrentLevel",
              "type": "uint256"
            },
            {
              "internalType": "uint256",
              "name": "id",
              "type": "uint256"
            }
          ],
          "internalType": "struct CarFactory.Car[]",
          "name": "",
          "type": "tuple[]"
        }
      ],
      "stateMutability": "view",
      "type": "function"
    },
    {
      "inputs": [
        {
          "internalType": "address",
          "name": "_owner",
          "type": "address"
        }
      ],
      "name": "getChassisByOwner",
      "outputs": [
        {
          "components": [
            {
              "internalType": "uint256",
              "name": "id",
              "type": "uint256"
            },
            {
              "internalType": "uint32",
              "name": "durability",
              "type": "uint32"
            },
            {
              "internalType": "uint32",
              "name": "resource",
              "type": "uint32"
            }
          ],
          "internalType": "struct CarFactory.Chassis[]",
          "name": "",
          "type": "tuple[]"
        }
      ],
      "stateMutability": "view",
      "type": "function"
    },
    {
      "inputs": [
        {
          "internalType": "uint256",
          "name": "roomId",
          "type": "uint256"
        }
      ],
      "name": "getClosedRoom",
      "outputs": [
        {
          "components": [
            {
              "internalType": "address",
              "name": "player",
              "type": "address"
            },
            {
              "internalType": "bool",
              "name": "correct",
              "type": "bool"
            },
            {
              "internalType": "uint256",
              "name": "time",
              "type": "uint256"
            },
            {
              "internalType": "uint256",
              "name": "carId",
              "type": "uint256"
            }
          ],
          "internalType": "struct RaceHandler.Answer[]",
          "name": "",
          "type": "tuple[]"
        }
      ],
      "stateMutability": "view",
      "type": "function"
    },
    {
      "inputs": [
        {
          "internalType": "uint256",
          "name": "_engineId",
          "type": "uint256"
        }
      ],
      "name": "getConsumtionUpgradeCost",
      "outputs": [
        {
          "internalType": "uint256",
          "name": "",
          "type": "uint256"
        }
      ],
      "stateMutability": "view",
      "type": "function"
    },
    {
      "inputs": [
        {
          "internalType": "uint256",
          "name": "_chassisId",
          "type": "uint256"
        },
        {
          "internalType": "uint8",
          "name": "_counts",
          "type": "uint8"
        }
      ],
      "name": "getDurabilityUpgradeCost",
      "outputs": [
        {
          "internalType": "uint256",
          "name": "",
          "type": "uint256"
        }
      ],
      "stateMutability": "view",
      "type": "function"
    },
    {
      "inputs": [
        {
          "internalType": "address",
          "name": "_owner",
          "type": "address"
        }
      ],
      "name": "getEnginesByOwner",
      "outputs": [
        {
          "components": [
            {
              "internalType": "uint256",
              "name": "id",
              "type": "uint256"
            },
            {
              "internalType": "uint16",
              "name": "horsePowers",
              "type": "uint16"
            },
            {
              "internalType": "uint8",
              "name": "consumtion",
              "type": "uint8"
            }
          ],
          "internalType": "struct CarFactory.Engine[]",
          "name": "",
          "type": "tuple[]"
        }
      ],
      "stateMutability": "view",
      "type": "function"
    },
    {
      "inputs": [
        {
          "internalType": "address",
          "name": "_owner",
          "type": "address"
        }
      ],
      "name": "getFuelStationByOwner",
      "outputs": [
        {
          "components": [
            {
              "internalType": "uint256",
              "name": "id",
              "type": "uint256"
            },
            {
              "internalType": "uint8",
              "name": "capacity",
              "type": "uint8"
            },
            {
              "internalType": "uint8",
              "name": "productionPerHour",
              "type": "uint8"
            },
            {
              "internalType": "uint8",
              "name": "currentFullness",
              "type": "uint8"
            },
            {
              "internalType": "uint256",
              "name": "lastUpdate",
              "type": "uint256"
            }
          ],
          "internalType": "struct FuelStationFactory.FuelStation",
          "name": "",
          "type": "tuple"
        }
      ],
      "stateMutability": "view",
      "type": "function"
    },
    {
      "inputs": [
        {
          "internalType": "uint256",
          "name": "_engineId",
          "type": "uint256"
        },
        {
          "internalType": "uint8",
          "name": "_counts",
          "type": "uint8"
        }
      ],
      "name": "getHorsePowersUpgradeCost",
      "outputs": [
        {
          "internalType": "uint256",
          "name": "",
          "type": "uint256"
        }
      ],
      "stateMutability": "view",
      "type": "function"
    },
    {
      "inputs": [
        {
          "internalType": "uint256",
          "name": "_carId",
          "type": "uint256"
        }
      ],
      "name": "getLevelUpCost",
      "outputs": [
        {
          "internalType": "uint256",
          "name": "",
          "type": "uint256"
        }
      ],
      "stateMutability": "view",
      "type": "function"
    },
    {
      "inputs": [
        {
          "internalType": "uint256",
          "name": "_fuelStatonId",
          "type": "uint256"
        },
        {
          "internalType": "uint8",
          "name": "_counts",
          "type": "uint8"
        }
      ],
      "name": "getProductionPerHourUpgradeCost",
      "outputs": [
        {
          "internalType": "uint256",
          "name": "",
          "type": "uint256"
        }
      ],
      "stateMutability": "view",
      "type": "function"
    },
    {
      "inputs": [
        {
          "internalType": "uint256",
          "name": "",
          "type": "uint256"
        }
      ],
      "name": "idToStartedRooms",
      "outputs": [
        {
          "internalType": "uint256",
          "name": "numberPlayers",
          "type": "uint256"
        },
        {
          "internalType": "uint256",
          "name": "world",
          "type": "uint256"
        },
        {
          "internalType": "uint256",
          "name": "roomDNA",
          "type": "uint256"
        },
        {
          "internalType": "uint256",
          "name": "startTime",
          "type": "uint256"
        },
        {
          "internalType": "uint256",
          "name": "curAnswer",
          "type": "uint256"
        },
        {
          "internalType": "bool",
          "name": "closed",
          "type": "bool"
        }
      ],
      "stateMutability": "view",
      "type": "function"
    },
    {
      "inputs": [
        {
          "internalType": "uint256",
          "name": "_carId",
          "type": "uint256"
        }
      ],
      "name": "levelUp",
      "outputs": [],
      "stateMutability": "payable",
      "type": "function"
    },
    {
      "inputs": [
        {
          "internalType": "uint256",
          "name": "",
          "type": "uint256"
        }
      ],
      "name": "openedRooms",
      "outputs": [
        {
          "internalType": "uint256",
          "name": "id",
          "type": "uint256"
        },
        {
          "internalType": "uint256",
          "name": "playersEntered",
          "type": "uint256"
        },
        {
          "internalType": "uint256",
          "name": "world",
          "type": "uint256"
        },
        {
          "components": [
            {
              "internalType": "uint256",
              "name": "playersNeeded",
              "type": "uint256"
            },
            {
              "internalType": "uint256",
              "name": "crossId",
              "type": "uint256"
            }
          ],
          "internalType": "struct RaceHandler.Cross",
          "name": "cross",
          "type": "tuple"
        },
        {
          "internalType": "uint256",
          "name": "roomSeed",
          "type": "uint256"
        }
      ],
      "stateMutability": "view",
      "type": "function"
    },
    {
      "inputs": [],
      "name": "owner",
      "outputs": [
        {
          "internalType": "address",
          "name": "",
          "type": "address"
        }
      ],
      "stateMutability": "view",
      "type": "function"
    },
    {
      "inputs": [
        {
          "internalType": "address",
          "name": "",
          "type": "address"
        }
      ],
      "name": "ownerCarCount",
      "outputs": [
        {
          "internalType": "uint256",
          "name": "",
          "type": "uint256"
        }
      ],
      "stateMutability": "view",
      "type": "function"
    },
    {
      "inputs": [
        {
          "internalType": "address",
          "name": "",
          "type": "address"
        }
      ],
      "name": "ownerChassisCount",
      "outputs": [
        {
          "internalType": "uint256",
          "name": "",
          "type": "uint256"
        }
      ],
      "stateMutability": "view",
      "type": "function"
    },
    {
      "inputs": [
        {
          "internalType": "address",
          "name": "",
          "type": "address"
        }
      ],
      "name": "ownerEngineCount",
      "outputs": [
        {
          "internalType": "uint256",
          "name": "",
          "type": "uint256"
        }
      ],
      "stateMutability": "view",
      "type": "function"
    },
    {
      "inputs": [
        {
          "internalType": "address",
          "name": "reciever",
          "type": "address"
        }
      ],
      "name": "payToWinner",
      "outputs": [],
      "stateMutability": "payable",
      "type": "function"
    },
    {
      "inputs": [
        {
          "internalType": "address",
          "name": "",
          "type": "address"
        }
      ],
      "name": "playersToCars",
      "outputs": [
        {
          "internalType": "uint256",
          "name": "",
          "type": "uint256"
        }
      ],
      "stateMutability": "view",
      "type": "function"
    },
    {
      "inputs": [
        {
          "internalType": "address",
          "name": "",
          "type": "address"
        }
      ],
      "name": "playersToRooms",
      "outputs": [
        {
          "internalType": "uint256",
          "name": "",
          "type": "uint256"
        }
      ],
      "stateMutability": "view",
      "type": "function"
    },
    {
      "inputs": [],
      "name": "renounceOwnership",
      "outputs": [],
      "stateMutability": "nonpayable",
      "type": "function"
    },
    {
      "inputs": [
        {
          "internalType": "uint256",
          "name": "",
          "type": "uint256"
        }
      ],
      "name": "roomIdToRoomDNA",
      "outputs": [
        {
          "internalType": "uint256",
          "name": "",
          "type": "uint256"
        }
      ],
      "stateMutability": "view",
      "type": "function"
    },
    {
      "inputs": [
        {
          "internalType": "uint256",
          "name": "",
          "type": "uint256"
        }
      ],
      "name": "stations",
      "outputs": [
        {
          "internalType": "uint256",
          "name": "id",
          "type": "uint256"
        },
        {
          "internalType": "uint8",
          "name": "capacity",
          "type": "uint8"
        },
        {
          "internalType": "uint8",
          "name": "productionPerHour",
          "type": "uint8"
        },
        {
          "internalType": "uint8",
          "name": "currentFullness",
          "type": "uint8"
        },
        {
          "internalType": "uint256",
          "name": "lastUpdate",
          "type": "uint256"
        }
      ],
      "stateMutability": "view",
      "type": "function"
    },
    {
      "inputs": [
        {
          "internalType": "uint256",
          "name": "carId",
          "type": "uint256"
        },
        {
          "internalType": "uint256",
          "name": "chassisId",
          "type": "uint256"
        }
      ],
      "name": "switchChassis",
      "outputs": [],
      "stateMutability": "nonpayable",
      "type": "function"
    },
    {
      "inputs": [
        {
          "internalType": "uint256",
          "name": "carId",
          "type": "uint256"
        },
        {
          "internalType": "uint256",
          "name": "engineId",
          "type": "uint256"
        }
      ],
      "name": "switchEngine",
      "outputs": [],
      "stateMutability": "nonpayable",
      "type": "function"
    },
    {
      "inputs": [
        {
          "internalType": "address",
          "name": "newOwner",
          "type": "address"
        }
      ],
      "name": "transferOwnership",
      "outputs": [],
      "stateMutability": "nonpayable",
      "type": "function"
    },
    {
      "inputs": [
        {
          "internalType": "uint256",
          "name": "_fuelStatonId",
          "type": "uint256"
        },
        {
          "internalType": "uint8",
          "name": "_counts",
          "type": "uint8"
        }
      ],
      "name": "upgradeCapacity",
      "outputs": [],
      "stateMutability": "payable",
      "type": "function"
    },
    {
      "inputs": [
        {
          "internalType": "uint256",
          "name": "_engineId",
          "type": "uint256"
        }
      ],
      "name": "upgradeConsumtion",
      "outputs": [],
      "stateMutability": "payable",
      "type": "function"
    },
    {
      "inputs": [
        {
          "internalType": "uint256",
          "name": "_chassisId",
          "type": "uint256"
        },
        {
          "internalType": "uint8",
          "name": "_counts",
          "type": "uint8"
        }
      ],
      "name": "upgradeDurability",
      "outputs": [],
      "stateMutability": "payable",
      "type": "function"
    },
    {
      "inputs": [
        {
          "internalType": "uint256",
          "name": "_engineId",
          "type": "uint256"
        },
        {
          "internalType": "uint8",
          "name": "_counts",
          "type": "uint8"
        }
      ],
      "name": "upgradeHorsePowers",
      "outputs": [],
      "stateMutability": "payable",
      "type": "function"
    },
    {
      "inputs": [
        {
          "internalType": "uint256",
          "name": "_fuelStatonId",
          "type": "uint256"
        },
        {
          "internalType": "uint8",
          "name": "_counts",
          "type": "uint8"
        }
      ],
      "name": "upgradeProductionPerHour",
      "outputs": [],
      "stateMutability": "payable",
      "type": "function"
    },
    {
      "inputs": [
        {
          "internalType": "uint256",
          "name": "_carId",
          "type": "uint256"
        }
      ],
      "name": "startRace",
      "outputs": [],
      "stateMutability": "nonpayable",
      "type": "function"
    }
  ],
  "bytecode": "0x6000805461ffff60a01b191661014f60a21b17815560088190556009819055600a9081556001600b819055600c556509184e72a000601981905565b5e620f48000601a55650da475abf000601b556611c37937e08000601c556305f5e100601d5566038d7ea4c68000601e556101c060405260809081526512309ce5400060a05265246139ca800060c0526548c27395000060e052659184e72a00006101005266012309ce54000061012052660246139ca800006101405266048c2739500000610160526609184e72a00000610180526612309ce54000006101a052620000ea916020919062000199565b50348015620000f857600080fd5b50620001043362000149565b6050600355605b6004556005805460ff1916600a179055620186a06006556201d4c1600755600e80546001908101909155600f8054820181556000526023556200020b565b600080546001600160a01b038381166001600160a01b0319831681178455604051919092169283917f8be0079c531659141344cd1fd0a4f28419497f9722a3daafe3b4186f6b6457e09190a35050565b828054828255906000526020600020908101928215620001e2579160200282015b82811115620001e2578251829066ffffffffffffff16905591602001919060010190620001ba565b50620001f0929150620001f4565b5090565b5b80821115620001f05760008155600101620001f5565b614907806200021b6000396000f3fe6080604052600436106103505760003560e01c806387766019116101c6578063c34cccc4116100f7578063ede6fbf511610095578063f7746e361161006f578063f7746e3614610cc4578063f85993b914610cf9578063faf4bb9814610d26578063fb33250f14610d3957600080fd5b8063ede6fbf514610c57578063f2fde38b14610c77578063f332817314610c9757600080fd5b8063d1c54eea116100d1578063d1c54eea14610bd7578063d7086fab14610bf7578063df750c5214610c17578063ea12693314610c3757600080fd5b8063c34cccc414610b6a578063c75bb4f414610b8a578063c85b7fed14610bb757600080fd5b8063aa11b68111610164578063b72c0eea1161013e578063b72c0eea14610ac9578063bf5070d314610b0a578063bf9bc0b214610b2a578063bfcc971614610b4a57600080fd5b8063aa11b68114610a42578063aca7413114610a6f578063b3b29afd14610a9c57600080fd5b8063906f5f34116101a0578063906f5f34146109a957806392f859db146109bc578063982b691c14610a0c578063a351a4a714610a2257600080fd5b8063877660191461094b5780638da5cb5b146109785780638ff90c6b1461099657600080fd5b80632ca4769e116102a05780636b606d9b1161023e57806376997de01161021857806376997de0146108be5780637713d521146108de5780637fb2aa4d1461090b578063859092671461093857600080fd5b80636b606d9b1461085c5780636f206fc11461087c578063715018a6146108a957600080fd5b8063449014901161027a578063449014901461074f5780634e31f91014610785578063594193d7146107f05780635dcc4cc61461082657600080fd5b80632ca4769e146106b457806333ca504b146106d45780633521c4261461072257600080fd5b80631702bf421161030d5780631c5dde0e116102e75780631c5dde0e1461050b578063224370f01461054d57806324d822bf1461068157806328ae4034146106a157600080fd5b80631702bf42146104a85780631a56afda146104be5780631c2fab78146104de57600080fd5b806303f2e05b146103555780630418394e1461036a578063081315ff146103f15780630a0176fc146104445780630c0cd5321461047f5780630ce90ec214610495575b600080fd5b610368610363366004613dd8565b610d59565b005b34801561037657600080fd5b506103bd610385366004613e04565b602560205260009081526040902080546001820154600283015460038401546005850154600690950154939492939192909160ff1686565b6040805196875260208701959095529385019290925260608401526080830152151560a082015260c0015b60405180910390f35b3480156103fd57600080fd5b5061041161040c366004613e04565b610e5f565b604080519586526020808701959095528501929092528051606085015290910151608083015260a082015260c0016103e8565b34801561045057600080fd5b5061047161045f366004613e04565b60186020526000908152604090205481565b6040519081526020016103e8565b34801561048b57600080fd5b50610471600a5481565b6103686104a3366004613e04565b610eb7565b3480156104b457600080fd5b5061047160085481565b3480156104ca57600080fd5b506104716104d9366004613dd8565b610fbd565b3480156104ea57600080fd5b506104716104f9366004613e34565b60216020526000908152604090205481565b34801561051757600080fd5b5061052b610526366004613e04565b61100f565b6040805193845263ffffffff92831660208501529116908201526060016103e8565b34801561055957600080fd5b50610368600180546040805160a0810182528281526000805460ff600160a01b820481166020808601828152600160a81b90940483168688019081526060870192835263ffffffff421660808801908152898b018b559986529551600389027fb10e2d527612073b26eecdfd717e6a320cf44b4afac2b0732d9fcbe2b7fa0cf681019190915593517fb10e2d527612073b26eecdfd717e6a320cf44b4afac2b0732d9fcbe2b7fa0cf785018054975193518516620100000262ff0000199486166101000261ffff19909916929095169190911796909617919091169190911790935594517fb10e2d527612073b26eecdfd717e6a320cf44b4afac2b0732d9fcbe2b7fa0cf8909501949094559183526002909152902080546001600160a01b03191633179055565b34801561068d57600080fd5b5061036861069c366004613e04565b61104f565b6103686106af366004613e34565b61139d565b3480156106c057600080fd5b506104716106cf366004613dd8565b6113de565b3480156106e057600080fd5b5061070a6106ef366004613e04565b6010602052600090815260409020546001600160a01b031681565b6040516001600160a01b0390911681526020016103e8565b34801561072e57600080fd5b5061074261073d366004613e04565b611420565b6040516103e89190613e4f565b34801561075b57600080fd5b5061070a61076a366004613e04565b6012602052600090815260409020546001600160a01b031681565b34801561079157600080fd5b506107a56107a0366004613e34565b611512565b6040516103e89190600060a0820190508251825260ff602084015116602083015260ff604084015116604083015260ff60608401511660608301526080830151608083015292915050565b3480156107fc57600080fd5b5061070a61080b366004613e04565b6002602052600090815260409020546001600160a01b031681565b34801561083257600080fd5b5061070a610841366004613e04565b6011602052600090815260409020546001600160a01b031681565b34801561086857600080fd5b50610368610877366004613ebe565b6115f9565b34801561088857600080fd5b5061089c610897366004613e34565b61170c565b6040516103e89190613ee0565b3480156108b557600080fd5b50610368611860565b3480156108ca57600080fd5b506104716108d9366004613dd8565b611874565b3480156108ea57600080fd5b506108fe6108f9366004613e34565b6118b1565b6040516103e89190613f36565b34801561091757600080fd5b50610471610926366004613e34565b60146020526000908152604090205481565b610368610946366004613dd8565b6119f9565b34801561095757600080fd5b50610471610966366004613e34565b60156020526000908152604090205481565b34801561098457600080fd5b506000546001600160a01b031661070a565b6103686109a4366004613e04565b611ade565b6103686109b7366004613dd8565b611bd0565b3480156109c857600080fd5b506109dc6109d7366004613e04565b611c91565b6040805195865260ff9485166020870152928416928501929092529091166060830152608082015260a0016103e8565b348015610a1857600080fd5b5061047160095481565b348015610a2e57600080fd5b50610368610a3d366004613f89565b611cdd565b348015610a4e57600080fd5b50610471610a5d366004613e04565b60166020526000908152604090205481565b348015610a7b57600080fd5b50610471610a8a366004613e04565b60266020526000908152604090205481565b348015610aa857600080fd5b50610471610ab7366004613e34565b60136020526000908152604090205481565b348015610ad557600080fd5b50610ae9610ae4366004613e04565b6122c3565b6040805193845261ffff909216602084015260ff16908201526060016103e8565b348015610b1657600080fd5b50610471610b25366004613dd8565b612300565b348015610b3657600080fd5b50610471610b45366004613e04565b61233d565b348015610b5657600080fd5b50610471610b65366004613fc7565b612390565b348015610b7657600080fd5b50610368610b85366004613ebe565b6124e5565b348015610b9657600080fd5b50610baa610ba5366004613e34565b61265b565b6040516103e8919061403f565b348015610bc357600080fd5b50610368610bd2366004614150565b612899565b348015610be357600080fd5b50610368610bf2366004613ebe565b612b26565b348015610c0357600080fd5b50610471610c12366004614214565b612c32565b348015610c2357600080fd5b50610471610c32366004613e04565b612da1565b348015610c4357600080fd5b50610368610c52366004613ebe565b612df9565b348015610c6357600080fd5b50610368610c723660046142c0565b612f70565b348015610c8357600080fd5b50610368610c92366004613e34565b61313e565b348015610ca357600080fd5b50610471610cb2366004613e34565b60226020526000908152604090205481565b348015610cd057600080fd5b50610ce4610cdf366004613e04565b6131b7565b6040516103e8999897969594939291906142f5565b348015610d0557600080fd5b50610471610d14366004613e04565b60176020526000908152604090205481565b610368610d34366004613dd8565b6132a4565b348015610d4557600080fd5b50610368610d5436600461434c565b61339b565b60008281526012602052604090205482906001600160a01b03163314610d9a5760405162461bcd60e51b8152600401610d91906143d4565b60405180910390fd5b610da48383610fbd565b3414610dc25760405162461bcd60e51b8152600401610d9190614416565b600080546040516001600160a01b03909116913480156108fc02929091818181858888f19350505050158015610dfc573d6000803e3d6000fd5b508160ff16600f8481548110610e1457610e1461443a565b6000918252602082206001600290920201018054909190610e3c90849063ffffffff16614466565b92506101000a81548163ffffffff021916908363ffffffff160217905550505050565b60248181548110610e6f57600080fd5b60009182526020918290206006909102018054600182015460028301546040805180820190915260038501548152600485015495810195909552600590930154919450929085565b610ec08161233d565b3414610ede5760405162461bcd60e51b8152600401610d9190614416565b600080546040516001600160a01b03909116913480156108fc02929091818181858888f19350505050158015610f18573d6000803e3d6000fd5b50600d8181548110610f2c57610f2c61443a565b600091825260208220600460099092020101805460ff1691610f4d8361448e565b91906101000a81548160ff021916908360ff160217905550506000600d8281548110610f7b57610f7b61443a565b9060005260206000209060090201600601819055506000600d8281548110610fa557610fa561443a565b90600052602060002090600902016007018190555050565b6000601d54600f8481548110610fd557610fd561443a565b6000918252602090912060016002909202010154610ffc9063ffffffff1660ff85166144ad565b61100691906144ad565b90505b92915050565b600f818154811061101f57600080fd5b60009182526020909120600290910201805460019091015490915063ffffffff8082169164010000000090041683565b60008181526010602052604090205481906001600160a01b031633146110875760405162461bcd60e51b8152600401610d91906144cc565b6000600a600d848154811061109e5761109e61443a565b60009182526020909120600460099092020101546110bf919060ff16614519565b6110ca90600a61453b565b6110d590600261455e565b336000908152602260205260409020549091501561112b5760405162461bcd60e51b815260206004820152601360248201527263617220616c726561647920696e207261636560681b6044820152606401610d91565b600d838154811061113e5761113e61443a565b90600052602060002090600902016003015460000361118c5760405162461bcd60e51b815260206004820152600a6024820152696e6f206368617373697360b01b6044820152606401610d91565b600d838154811061119f5761119f61443a565b9060005260206000209060090201600201546000036111ec5760405162461bcd60e51b81526020600482015260096024820152686e6f20656e67696e6560b81b6044820152606401610d91565b6111f68382613595565b6112345760405162461bcd60e51b815260206004820152600f60248201526e1b9bdd08195b9bdd59da08199d595b608a1b6044820152606401610d91565b8060ff16600f600d858154811061124d5761124d61443a565b9060005260206000209060090201600301548154811061126f5761126f61443a565b6000918252602090912060029091020160010154640100000000900463ffffffff1610156112ca5760405162461bcd60e51b81526020600482015260086024820152677265736f7572636560c01b6044820152606401610d91565b6112d43384611cdd565b8060ff16600f600d85815481106112ed576112ed61443a565b9060005260206000209060090201600301548154811061130f5761130f61443a565b906000526020600020906002020160010160048282829054906101000a900463ffffffff1661133e9190614587565b92506101000a81548163ffffffff021916908363ffffffff1602179055508060ff16600d84815481106113735761137361443a565b9060005260206000209060090201600501600082825461139391906145ac565b9091555050505050565b6113a5613737565b6040516001600160a01b038216903480156108fc02916000818181858888f193505050501580156113da573d6000803e3d6000fd5b5050565b6000601a54600184815481106113f6576113f661443a565b6000918252602090912060016003909202010154610ffc9060ff61010090910481169085166144ad565b60008181526025602052604090206006015460609060ff166114765760405162461bcd60e51b815260206004820152600f60248201526e1c9bdbdb481b9bdd0818db1bdcd959608a1b6044820152606401610d91565b600082815260256020908152604080832060040180548251818502810185019093528083529193909284015b82821015611507576000848152602090819020604080516080810182526003860290920180546001600160a01b0381168452600160a01b900460ff161515838501526001808201549284019290925260020154606083015290835290920191016114a2565b505050509050919050565b6040805160a081018252600080825260208201819052918101829052606081018290526080810182905290805b600154811015611584576000818152600260205260409020546001600160a01b0380861691160361157257809150611584565b8061157c816145c4565b91505061153f565b50600181815481106115985761159861443a565b60009182526020918290206040805160a081018252600390930290910180548352600181015460ff80821695850195909552610100810485169284019290925262010000909104909216606082015260029091015460808201529392505050565b60008181526012602052604090205481906001600160a01b031633146116315760405162461bcd60e51b8152600401610d91906143d4565b60008381526010602052604090205483906001600160a01b031633146116695760405162461bcd60e51b8152600401610d91906144cc565b82600d858154811061167d5761167d61443a565b906000526020600020906009020160030154146116dc5760405162461bcd60e51b815260206004820152601860248201527f6368617373697320617265206e6f7420617474616368656400000000000000006044820152606401610d91565b6000600d85815481106116f1576116f161443a565b90600052602060002090600902016003018190555050505050565b6001600160a01b0381166000908152601560205260408120546060919067ffffffffffffffff81111561174157611741614109565b60405190808252806020026020018201604052801561178c57816020015b604080516060810182526000808252602080830182905292820152825260001990920191018161175f5790505b5090506000805b600f54811015611857576000818152601260205260409020546001600160a01b0380871691160361184557600f81815481106117d1576117d161443a565b6000918252602091829020604080516060810182526002909302909101805483526001015463ffffffff80821694840194909452640100000000900490921691810191909152835184908490811061182b5761182b61443a565b60200260200101819052508180611841906145c4565b9250505b8061184f816145c4565b915050611793565b50909392505050565b611868613737565b6118726000613791565b565b60006019546001848154811061188c5761188c61443a565b6000918252602090912060016003909202010154610ffc9060ff9081169085166144ad565b6001600160a01b0381166000908152601460205260408120546060919067ffffffffffffffff8111156118e6576118e6614109565b60405190808252806020026020018201604052801561193157816020015b60408051606081018252600080825260208083018290529282015282526000199092019101816119045790505b5090506000805b600e54811015611857576000818152601160205260409020546001600160a01b038087169116036119e757600e81815481106119765761197661443a565b600091825260209182902060408051606081018252600293909302909101805483526001015461ffff8116938301939093526201000090920460ff169181019190915283518490849081106119cd576119cd61443a565b602002602001018190525081806119e3906145c4565b9250505b806119f1816145c4565b915050611938565b60008281526002602052604090205482906001600160a01b03163314611a1e57600080fd5b611a2883836113de565b3414611a465760405162461bcd60e51b8152600401610d9190614416565b600080546040516001600160a01b03909116913480156108fc02929091818181858888f19350505050158015611a80573d6000803e3d6000fd5b508160018481548110611a9557611a9561443a565b906000526020600020906003020160010160018282829054906101000a900460ff16611ac191906145dd565b92506101000a81548160ff021916908360ff160217905550505050565b60008181526011602052604090205481906001600160a01b03163314611b165760405162461bcd60e51b8152600401610d9190614602565b611b1f82612da1565b3414611b3d5760405162461bcd60e51b8152600401610d9190614416565b600080546040516001600160a01b03909116913480156108fc02929091818181858888f19350505050158015611b77573d6000803e3d6000fd5b50600e8281548110611b8b57611b8b61443a565b60009182526020909120600291820201600101805462010000900460ff1691611bb383614643565b91906101000a81548160ff021916908360ff160217905550505050565b60008281526002602052604090205482906001600160a01b03163314611bf557600080fd5b611bff8383611874565b3414611c1d5760405162461bcd60e51b8152600401610d9190614416565b600080546040516001600160a01b03909116913480156108fc02929091818181858888f19350505050158015611c57573d6000803e3d6000fd5b508160018481548110611c6c57611c6c61443a565b6000918252602082206001600390920201018054909190611ac190849060ff166145dd565b60018181548110611ca157600080fd5b600091825260209091206003909102018054600182015460029092015490925060ff808316926101008104821692620100009091049091169085565b60008181526010602052604090205481906001600160a01b03163314611d155760405162461bcd60e51b8152600401610d91906144cc565b6000805b6024548110156121475760248181548110611d3657611d3661443a565b906000526020600020906006020160020154600a600d8681548110611d5d57611d5d61443a565b6000918252602090912060046009909202010154611d7e919060ff16614519565b611d899060016145dd565b60ff1603612135576001915060248181548110611da857611da861443a565b600091825260208083206006909202909101546001600160a01b038816835260218252604080842091909155602290915290208490556024805482908110611df257611df261443a565b600091825260208220600160069092020101805491611e10836145c4565b91905055506064600d8581548110611e2a57611e2a61443a565b906000526020600020906009020160010154611e469190614660565b60248281548110611e5957611e5961443a565b90600052602060002090600602016005016000828254611e7991906145ac565b90915550506024805482908110611e9257611e9261443a565b90600052602060002090600602016003016000015460248281548110611eba57611eba61443a565b9060005260206000209060060201600101540361213557600073__PDDLib________________________________63c9827d8660248481548110611f0057611f0061443a565b90600052602060002090600602016003016001015460248581548110611f2857611f2861443a565b906000526020600020906006020160030160000154611f6a60248781548110611f5357611f5361443a565b9060005260206000209060060201600501546137e1565b6040518463ffffffff1660e01b8152600401611f8893929190614674565b602060405180830381865af4158015611fa5573d6000803e3d6000fd5b505050506040513d601f19601f82011682018060405250810190611fc9919061469c565b905060006025600060248581548110611fe457611fe461443a565b90600052602060002090600602016000015481526020019081526020016000209050602483815481106120195761201961443a565b6000918252602090912060036006909202010154815560248054849081106120435761204361443a565b600091825260208083206006928302016002908101546001860155840185905542600385015560058401839055908301805460ff191690558482526026905260409020829055602480547f2838ebeee7dc83fac85a3d6dbca0c0b6771591ada8b00f97371aa6611e631f9c9190859081106120c0576120c061443a565b600091825260209182902060069091020154604080519182529181018590520160405180910390a1602483815481106120fb576120fb61443a565b6000918252602082206006909102018181556001810182905560028101829055600381018290556004810182905560050155506121479050565b8061213f816145c4565b915050611d19565b5080156121545750505050565b6023805460009182612165836145c4565b919050559050600060405180604001604052806005426121859190614660565b6121909060026145ac565b81526020016121a0600242614660565b81525090508160216000336001600160a01b03166001600160a01b031681526020019081526020016000208190555060246040518060a0016040528084815260200160018152602001600a600d89815481106121fe576121fe61443a565b600091825260209091206004600990920201015461221f919060ff16614519565b61222a9060016145dd565b60ff1681526020018381526020016064600d898154811061224d5761224d61443a565b9060005260206000209060090201600101546122699190614660565b90528154600181810184556000938452602093849020835160069093020191825583830151908201556040820151600282015560608201518051600383015590920151600483015560800151600590910155505050505050565b600e81815481106122d357600080fd5b60009182526020909120600290910201805460019091015490915061ffff81169062010000900460ff1683565b6000601b54600e84815481106123185761231861443a565b6000918252602090912060016002909202010154610ffc9061ffff1660ff85166144ad565b6000600a600d83815481106123545761235461443a565b6000918252602090912060046009909202010154612375919060ff16614519565b6123809060016145dd565b60ff16601e5461100991906144ad565b600061239a613737565b600c8054600091826123ab836145c4565b909155506040805160608101825282815263ffffffff8781166020808401828152848601928352600f80546001810182556000918252955160029096027f8d1108e10bcb7c27dddfc02ed9d693a074039d026cf4ea4240b40f7d581ac80281019690965590517f8d1108e10bcb7c27dddfc02ed9d693a074039d026cf4ea4240b40f7d581ac8039095018054935185166401000000000267ffffffffffffffff1990941695909416949094179190911790915581546001600160a01b0316825260159052908120805492935090612481836145c4565b9091555050600080548282526012602052604090912080546001600160a01b0319166001600160a01b03909216919091179055821561100657600081815260186020526040812084905560098054916124d9836145c4565b91905055509392505050565b60008181526011602052604090205481906001600160a01b0316331461251d5760405162461bcd60e51b8152600401610d9190614602565b60008381526010602052604090205483906001600160a01b031633146125555760405162461bcd60e51b8152600401610d91906144cc565b82600d85815481106125695761256961443a565b906000526020600020906009020160020154036125b65760405162461bcd60e51b815260206004820152600b60248201526a73616d6520656e67696e6560a81b6044820152606401610d91565b60006125c13361265b565b905060005b815181101561262a57848282815181106125e2576125e261443a565b602002602001015160400151036126185760008282815181106126075761260761443a565b602002602001015160400181815250505b80612622816145c4565b9150506125c6565b5083600d868154811061263f5761263f61443a565b9060005260206000209060090201600201819055505050505050565b6001600160a01b0381166000908152601360205260408120546060919067ffffffffffffffff81111561269057612690614109565b60405190808252806020026020018201604052801561271357816020015b61270060405180610120016040528060608152602001600081526020016000815260200160008152602001600060ff168152602001600081526020016000815260200160008152602001600081525090565b8152602001906001900390816126ae5790505b5090506000805b600d54811015611857576000818152601060205260409020546001600160a01b0380871691160361288757600d81815481106127585761275861443a565b906000526020600020906009020160405180610120016040529081600082018054612782906146b5565b80601f01602080910402602001604051908101604052809291908181526020018280546127ae906146b5565b80156127fb5780601f106127d0576101008083540402835291602001916127fb565b820191906000526020600020905b8154815290600101906020018083116127de57829003601f168201915b5050509183525050600182015460208201526002820154604082015260038201546060820152600482015460ff166080820152600582015460a0820152600682015460c0820152600782015460e082015260089091015461010090910152835184908490811061286d5761286d61443a565b60200260200101819052508180612883906145c4565b9250505b80612891816145c4565b91505061271a565b3360009081526021602052604090205482146128e75760405162461bcd60e51b815260206004820152600d60248201526c6e6f7420796f757220726f6f6d60981b6044820152606401610d91565b600082815260256020526040808220600201549051634e31f59760e11b815290919073__PDDLib________________________________90639c63eb2e9061293590859087906004016146ef565b602060405180830381865af4158015612952573d6000803e3d6000fd5b505050506040513d601f19601f82011682018060405250810190612976919061473d565b604080516080810182523380825283151560208084019182524284860190815260009384526022825285842054606086019081528b855260258352958420600481018054600181810183558288529487208851600390920201805496511515600160a01b026001600160a81b03199097166001600160a01b03929092169190911795909517855591519284019290925594516002909201919091559088905280549254939450909290919003612b1e576040518681527f67acaceb58ff1ad2aa8b3069f69c4cd076824e06a09184b75fb197ead7040be79060200160405180910390a16000868152602560209081526040808320600601805460ff191660011790553383526021825280832083905560229091528120819055805b600088815260256020526040902054811015612b0a576000888152602560205260409020600401805482908110612aca57612aca61443a565b6000918252602090912060039091020154600160a01b900460ff1615612af85781612af4816145c4565b9250505b80612b02816145c4565b915050612a91565b5080600003612b1c5750505050505050565b505b505050505050565b60008181526011602052604090205481906001600160a01b03163314612b5e5760405162461bcd60e51b8152600401610d9190614602565b60008381526010602052604090205483906001600160a01b03163314612b965760405162461bcd60e51b8152600401610d91906144cc565b82600d8581548110612baa57612baa61443a565b90600052602060002090600902016002015414612c025760405162461bcd60e51b8152602060048201526016602482015275195b99da5b99481a5cc81b9bdd08185d1d1858da195960521b6044820152606401610d91565b6000600d8581548110612c1757612c1761443a565b90600052602060002090600902016002018190555050505050565b6000612c3c613737565b600b805460009182612c4d836145c4565b909155506040805160608101825282815261ffff8089166020830190815260ff808a16948401948552600e80546001810182556000918252945160029095027fbb7b4a454dc3493923482f07822329ed19e8244eff582cc204f8554c3620c3fd81019590955591517fbb7b4a454dc3493923482f07822329ed19e8244eff582cc204f8554c3620c3fe90940180549551909116620100000262ffffff19909516939092169290921792909217909155909150601490612d146000546001600160a01b031690565b6001600160a01b0316815260208101919091526040016000908120805491612d3b836145c4565b9091555050600080548282526011602052604090912080546001600160a01b0319166001600160a01b039092169190911790558215612d99576000818152601760205260408120849055600a805491612d93836145c4565b91905055505b949350505050565b6000601c54600e8381548110612db957612db961443a565b6000918252602090912060029091020160010154612de19062010000900460ff16600a61453b565b612def9060ff16600261483b565b61100991906144ad565b60008181526012602052604090205481906001600160a01b03163314612e315760405162461bcd60e51b8152600401610d91906143d4565b60008381526010602052604090205483906001600160a01b03163314612e695760405162461bcd60e51b8152600401610d91906144cc565b82600d8581548110612e7d57612e7d61443a565b90600052602060002090600902016003015403612ecb5760405162461bcd60e51b815260206004820152600c60248201526b73616d65206368617373697360a01b6044820152606401610d91565b6000612ed63361265b565b905060005b8151811015612f3f5784828281518110612ef757612ef761443a565b60200260200101516060015103612f2d576000828281518110612f1c57612f1c61443a565b602002602001015160600181815250505b80612f37816145c4565b915050612edb565b5083600d8681548110612f5457612f5461443a565b9060005260206000209060090201600301819055505050505050565b3360009081526013602052604090205415612f8a57600080fd5b600081612f96426137e1565b604051602001612fa7929190614847565b6040516020818303038152906040529050600081604051602001612fcb919061486d565b6040516020818303038152906040528051906020012060001c90506000612ff0613874565b90506000612ffc6139a8565b600d80546040805161012081018252898152602080820189905291810187905260608101859052600160808201819052600060a0830181905260c0830181905260e083018190526101008301859052908401855593909352825180519495509193600985027fd7b6990105719101dabeb77144f2a3385c8033acd3af97e9423a695e81ad1eb50192613092928492910190613d29565b506020828101516001830155604080840151600284015560608401516003840155608084015160048401805460ff191660ff90921691909117905560a0840151600584015560c0840151600684015560e08401516007840155610100909301516008909201919091556000838152601082528281208054336001600160a01b0319909116811790915581526013909152908120805491613131836145c4565b9190505550505050505050565b613146613737565b6001600160a01b0381166131ab5760405162461bcd60e51b815260206004820152602660248201527f4f776e61626c653a206e6577206f776e657220697320746865207a65726f206160448201526564647265737360d01b6064820152608401610d91565b6131b481613791565b50565b600d81815481106131c757600080fd5b90600052602060002090600902016000915090508060000180546131ea906146b5565b80601f0160208091040260200160405190810160405280929190818152602001828054613216906146b5565b80156132635780601f1061323857610100808354040283529160200191613263565b820191906000526020600020905b81548152906001019060200180831161324657829003601f168201915b50505060018401546002850154600386015460048701546005880154600689015460078a01546008909a01549899959894975092955060ff90911693909289565b60008281526011602052604090205482906001600160a01b031633146132dc5760405162461bcd60e51b8152600401610d9190614602565b6132e68383612300565b34146133045760405162461bcd60e51b8152600401610d9190614416565b600080546040516001600160a01b03909116913480156108fc02929091818181858888f1935050505015801561333e573d6000803e3d6000fd5b508160ff16600e84815481106133565761335661443a565b600091825260208220600160029092020101805490919061337c90849061ffff16614889565b92506101000a81548161ffff021916908361ffff160217905550505050565b6133a3613737565b6000866133af426137e1565b6040516020016133c0929190614847565b60405160208183030381529060405290506000816040516020016133e4919061486d565b6040516020818303038152906040528051906020012060001c9050600061340d88886000612c32565b9050600061341c876000612390565b600d805460408051610120810182528e815260208082018990529181018790526060810185905260ff8b166080820152600060a0820181905260c0820181905260e08201819052610100820184905260018401855593909352825180519495509193600985027fd7b6990105719101dabeb77144f2a3385c8033acd3af97e9423a695e81ad1eb501926134b3928492910190613d29565b506020828101516001830155604080840151600284015560608401516003840155608084015160048401805460ff90921660ff1990921691909117905560a0840151600584015560c0840151600684015560e0840151600784015561010090930151600890920191909155600080548482526010835283822080546001600160a01b0319166001600160a01b039283161790558154168152601390915290812080549161355f836145c4565b909155505060008181526016602052604081208790556008805491613583836145c4565b91905055505050505050505050505050565b60008281526010602052604081205481906135b8906001600160a01b0316611512565b90506135c78160000151613adc565b6000600d85815481106135dc576135dc61443a565b9060005260206000209060090201600201549050600060019050600a85600e848154811061360c5761360c61443a565b906000526020600020906002020160010160029054906101000a900460ff16613635919061455e565b60ff161061368657600a600e83815481106136525761365261443a565b60009182526020909120600290910201600101546136799062010000900460ff168761455e565b6136839190614519565b90505b8060ff1660018460000151815481106136a1576136a161443a565b600091825260209091206003909102016001015462010000900460ff161061372b578060018460000151815481106136db576136db61443a565b906000526020600020906003020160010160028282829054906101000a900460ff16613707919061453b565b92506101000a81548160ff021916908360ff16021790555060019350505050611009565b60009350505050611009565b6000546001600160a01b031633146118725760405162461bcd60e51b815260206004820181905260248201527f4f776e61626c653a2063616c6c6572206973206e6f7420746865206f776e65726044820152606401610d91565b600080546001600160a01b038381166001600160a01b0319831681178455604051919092169283917f8be0079c531659141344cd1fd0a4f28419497f9722a3daafe3b4186f6b6457e09190a35050565b606060006137ee83613c3b565b600101905060008167ffffffffffffffff81111561380e5761380e614109565b6040519080825280601f01601f191660200182016040528015613838576020820181803683370190505b5090508181016020015b600019016f181899199a1a9b1b9c1cb0b131b232b360811b600a86061a8153600a850494508461384257509392505050565b60008060035460045461388791906148a6565b6138919042614660565b60035461389e91906145ac565b600b805491925060009190826138b3836145c4565b909155506040805160608101825282815261ffff808616602080840191825260055460ff908116858701908152600e80546001810182556000918252965160029097027fbb7b4a454dc3493923482f07822329ed19e8244eff582cc204f8554c3620c3fd81019790975593517fbb7b4a454dc3493923482f07822329ed19e8244eff582cc204f8554c3620c3fe90960180549151909216620100000262ffffff199091169590941694909417929092179092553382526014905290812080549293509061397f836145c4565b9091555050600081815260116020526040902080546001600160a01b0319163317905592915050565b6000806006546007546139bb91906148a6565b6139c59042614660565b6006546139d291906145ac565b600c805491925060009190826139e7836145c4565b909155506040805160608101825282815263ffffffff8086166020808401828152848601928352600f80546001810182556000918252955160029096027f8d1108e10bcb7c27dddfc02ed9d693a074039d026cf4ea4240b40f7d581ac80281019690965590517f8d1108e10bcb7c27dddfc02ed9d693a074039d026cf4ea4240b40f7d581ac8039095018054935185166401000000000267ffffffffffffffff1990941695909416949094179190911790915533825260159052908120805492935090613ab3836145c4565b9091555050600081815260126020526040902080546001600160a01b0319163317905592915050565b60004290506000610e1060018481548110613af957613af961443a565b90600052602060002090600302016002015483613b1691906148a6565b613b2091906148bd565b9050600060018481548110613b3757613b3761443a565b6000918252602090912060039091020160010154613b5d90610100900460ff16836144ad565b60018581548110613b7057613b7061443a565b6000918252602090912060039091020160010154613b97919062010000900460ff166145ac565b9050613bd060018581548110613baf57613baf61443a565b600091825260209091206001600390920201015460ff908116908316613d13565b60018581548110613be357613be361443a565b906000526020600020906003020160010160026101000a81548160ff021916908360ff1602179055508260018581548110613c2057613c2061443a565b90600052602060002090600302016002018190555050505050565b60008072184f03e93ff9f4daa797ed6e38ed64bf6a1f0160401b8310613c7a5772184f03e93ff9f4daa797ed6e38ed64bf6a1f0160401b830492506040015b6d04ee2d6d415b85acef81000000008310613ca6576d04ee2d6d415b85acef8100000000830492506020015b662386f26fc100008310613cc457662386f26fc10000830492506010015b6305f5e1008310613cdc576305f5e100830492506008015b6127108310613cf057612710830492506004015b60648310613d02576064830492506002015b600a83106110095760010192915050565b6000818310613d225781611006565b5090919050565b828054613d35906146b5565b90600052602060002090601f016020900481019282613d575760008555613d9d565b82601f10613d7057805160ff1916838001178555613d9d565b82800160010185558215613d9d579182015b82811115613d9d578251825591602001919060010190613d82565b50613da9929150613dad565b5090565b5b80821115613da95760008155600101613dae565b803560ff81168114613dd357600080fd5b919050565b60008060408385031215613deb57600080fd5b82359150613dfb60208401613dc2565b90509250929050565b600060208284031215613e1657600080fd5b5035919050565b80356001600160a01b0381168114613dd357600080fd5b600060208284031215613e4657600080fd5b61100682613e1d565b602080825282518282018190526000919060409081850190868401855b82811015613eb157815180516001600160a01b031685528681015115158786015285810151868601526060908101519085015260809093019290850190600101613e6c565b5091979650505050505050565b60008060408385031215613ed157600080fd5b50508035926020909101359150565b602080825282518282018190526000919060409081850190868401855b82811015613eb1578151805185528681015163ffffffff9081168887015290860151168585015260609093019290850190600101613efd565b602080825282518282018190526000919060409081850190868401855b82811015613eb1578151805185528681015161ffff168786015285015160ff168585015260609093019290850190600101613f53565b60008060408385031215613f9c57600080fd5b613fa583613e1d565b946020939093013593505050565b803563ffffffff81168114613dd357600080fd5b60008060408385031215613fda57600080fd5b613fa583613fb3565b60005b83811015613ffe578181015183820152602001613fe6565b8381111561400d576000848401525b50505050565b6000815180845261402b816020860160208601613fe3565b601f01601f19169290920160200192915050565b60006020808301818452808551808352604092508286019150828160051b87010184880160005b838110156140fb57603f198984030185528151610120815181865261408d82870182614013565b9150508882015189860152878201518886015260608083015181870152506080808301516140bf8288018260ff169052565b505060a0828101519086015260c0808301519086015260e080830151908601526101009182015191909401529386019390860190600101614066565b509098975050505050505050565b634e487b7160e01b600052604160045260246000fd5b604051601f8201601f1916810167ffffffffffffffff8111828210171561414857614148614109565b604052919050565b6000806040838503121561416357600080fd5b8235915060208084013567ffffffffffffffff8082111561418357600080fd5b818601915086601f83011261419757600080fd5b8135818111156141a9576141a9614109565b8060051b91506141ba84830161411f565b81815291830184019184810190898411156141d457600080fd5b938501935b838510156141f2578435825293850193908501906141d9565b8096505050505050509250929050565b803561ffff81168114613dd357600080fd5b60008060006060848603121561422957600080fd5b61423284614202565b925061424060208501613dc2565b9150604084013590509250925092565b600082601f83011261426157600080fd5b813567ffffffffffffffff81111561427b5761427b614109565b61428e601f8201601f191660200161411f565b8181528460208386010111156142a357600080fd5b816020850160208301376000918101602001919091529392505050565b6000602082840312156142d257600080fd5b813567ffffffffffffffff8111156142e957600080fd5b612d9984828501614250565b60006101208083526143098184018d614013565b602084019b909b5250506040810197909752606087019590955260ff93909316608086015260a085019190915260c084015260e083015261010090910152919050565b60008060008060008060c0878903121561436557600080fd5b863567ffffffffffffffff81111561437c57600080fd5b61438889828a01614250565b96505061439760208801614202565b94506143a560408801613dc2565b93506143b360608801613fb3565b92506143c160808801613dc2565b915060a087013590509295509295509295565b60208082526022908201527f796f75277265206e6f74206f776e657220666f72207468697320436861737369604082015261732160f01b606082015260800190565b6020808252600a90820152691ddc9bdb99c818dbdcdd60b21b604082015260600190565b634e487b7160e01b600052603260045260246000fd5b634e487b7160e01b600052601160045260246000fd5b600063ffffffff80831681851680830382111561448557614485614450565b01949350505050565b600060ff821660ff81036144a4576144a4614450565b60010192915050565b60008160001904831182151516156144c7576144c7614450565b500290565b6020808252601e908201527f796f75277265206e6f74206f776e657220666f72207468697320436172210000604082015260600190565b634e487b7160e01b600052601260045260246000fd5b600060ff83168061452c5761452c614503565b8060ff84160491505092915050565b600060ff821660ff84168082101561455557614555614450565b90039392505050565b600060ff821660ff84168160ff048111821515161561457f5761457f614450565b029392505050565b600063ffffffff838116908316818110156145a4576145a4614450565b039392505050565b600082198211156145bf576145bf614450565b500190565b6000600182016145d6576145d6614450565b5060010190565b600060ff821660ff84168060ff038211156145fa576145fa614450565b019392505050565b60208082526021908201527f796f75277265206e6f74206f776e657220666f72207468697320456e67696e656040820152602160f81b606082015260800190565b600060ff82168061465657614656614450565b6000190192915050565b60008261466f5761466f614503565b500690565b8381528260208201526060604082015260006146936060830184614013565b95945050505050565b6000602082840312156146ae57600080fd5b5051919050565b600181811c908216806146c957607f821691505b6020821081036146e957634e487b7160e01b600052602260045260246000fd5b50919050565b6000604082018483526020604081850152818551808452606086019150828701935060005b8181101561473057845183529383019391830191600101614714565b5090979650505050505050565b60006020828403121561474f57600080fd5b8151801515811461100657600080fd5b600181815b8085111561479a57816000190482111561478057614780614450565b8085161561478d57918102915b93841c9390800290614764565b509250929050565b6000826147b157506001611009565b816147be57506000611009565b81600181146147d457600281146147de576147fa565b6001915050611009565b60ff8411156147ef576147ef614450565b50506001821b611009565b5060208310610133831016604e8410600b841016171561481d575081810a611009565b614827838361475f565b806000190482111561457f5761457f614450565b600061100683836147a2565b60008351614859818460208801613fe3565b835190830190614485818360208801613fe3565b6000825161487f818460208701613fe3565b9190910192915050565b600061ffff80831681851680830382111561448557614485614450565b6000828210156148b8576148b8614450565b500390565b6000826148cc576148cc614503565b50049056fea2646970667358221220e974c6376bc8f9ad0362d1750774663899c957916ed11dd65079d4ea1d1d4f8e64736f6c634300080d0033",
  "immutableReferences": {},
  "source": "// SPDX-License-Identifier: MIT\npragma solidity ^0.8.13;\nimport \"./RaceHandler.sol\";\n\n/// @title car racing\ncontract CarRacing is RaceHandler{\n\n    /// checking amount of fuel\n    /// @param _carId car id\n    /// @param duration duration value\n    /// @return bool answer after checking\n    /// @dev count fuel amount for give answer\n    function _isEnoughFuel(uint _carId, uint8 duration) private returns(bool){\n        FuelStation memory station = getFuelStationByOwner(carToOwner[_carId]);\n        _refreshFuel(station.id);\n        uint engineId = cars[_carId].engineId;\n        uint8 liters= 1;\n        if (engines[engineId].consumtion * duration >= 10)\n            liters = duration * engines[engineId].consumtion / 10;\n\n        if (stations[station.id].currentFullness >= liters) {\n            stations[station.id].currentFullness -= liters;\n            return true;\n        }\n        else\n            return false;\n    }\n\n    /// refresh fuel\n    /// @param _fuelStationId fuel station id\n    function _refreshFuel(uint _fuelStationId) private {\n        uint curTime = block.timestamp;\n        uint wholeHours = (curTime - stations[_fuelStationId].lastUpdate) / 3600;\n        uint8 newFullness = uint8(stations[_fuelStationId].currentFullness + wholeHours * stations[_fuelStationId].productionPerHour);\n        stations[_fuelStationId].currentFullness = uint8(Math.min(stations[_fuelStationId].capacity, newFullness));\n        stations[_fuelStationId].lastUpdate = curTime;\n    }\n\n    /// start race\n    /// @param _carId car id\n    function startRace(uint _carId) external onlyOwnerOfCar(_carId) {\n        uint8 durToNextCrossroad = 2 * (10 - cars[_carId].carLevel / 10);\n\n        require(playersToCars[msg.sender]==0, \"car already in race\");\n        require(cars[_carId].chassisId!=0, \"no chassis\");\n        require(cars[_carId].engineId!=0, \"no engine\");\n        require(_isEnoughFuel(_carId, durToNextCrossroad), \"not enough fuel\");\n        require(chassis[cars[_carId].chassisId].resource >= durToNextCrossroad, \"resource\");\n        \n        // TODO\n        findRoom(msg.sender, _carId);\n\n        chassis[cars[_carId].chassisId].resource -= durToNextCrossroad;\n        cars[_carId].mileage += durToNextCrossroad;\n    }\n\n}",
  "sourcePath": "/Users/vvan/Programming/JavaScript/DriveSafely/contract/contracts/CarRacing.sol",
  "compiler": {
    "name": "solc",
    "version": "0.8.13+commit.abaa5c0e.Emscripten.clang"
  },
  "schemaVersion": "3.4.11",
  "updatedAt": "2023-01-12T23:42:32.701Z",
  "networkType": "ethereum",
  "devdoc": {
    "kind": "dev",
    "methods": {
      "commitAnswer(uint256,uint256[])": {
        "params": {
          "answer": "?",
          "roomId": "room id"
        }
      },
      "createCar(string)": {
        "details": "creating new car for user",
        "params": {
          "model": "car model"
        }
      },
      "createCustomCar(string,uint16,uint8,uint32,uint8,uint256)": {
        "details": "creation car for customer with different characteristics",
        "params": {
          "_carLevel": "car level",
          "_carPrice": "car price",
          "_consumtion": "car consumtion",
          "_durability": "car durability",
          "_horsePowers": "car horse powers",
          "_model": "car model"
        }
      },
      "createCustomChassis(uint32,uint256)": {
        "params": {
          "_chassisPrice": "chassis price",
          "_durability": "car durability"
        },
        "returns": {
          "_0": "id new chassis"
        }
      },
      "createCustomEngine(uint16,uint8,uint256)": {
        "params": {
          "_consumtion": "car consumtion",
          "_enginePrice": "car engine price",
          "_horsePowers": "car horse powers"
        },
        "returns": {
          "_0": "id new engine"
        }
      },
      "detachChassis(uint256,uint256)": {
        "details": "for installation new chassis",
        "params": {
          "carId": "car id",
          "chassisId": "chassis id"
        }
      },
      "detachEngine(uint256,uint256)": {
        "details": "for installation new engine",
        "params": {
          "carId": "car id",
          "engineId": "engine id"
        }
      },
      "findRoom(address,uint256)": {
        "details": "if exist appropriate room for current user, user start competition in this room, else add new room",
        "params": {
          "carId": "car id"
        }
      },
      "getCapacityUpgradeCost(uint256,uint8)": {
        "params": {
          "_counts": "size",
          "_fuelStatonId": "fuel station id"
        },
        "returns": {
          "_0": "uint new capacity"
        }
      },
      "getCarsByOwner(address)": {
        "params": {
          "_owner": "owner's address"
        },
        "returns": {
          "_0": "Car[] memory owner's list of cars"
        }
      },
      "getChassisByOwner(address)": {
        "params": {
          "_owner": "owner's address"
        },
        "returns": {
          "_0": "Chassis[] memory owner's list of chassis"
        }
      },
      "getClosedRoom(uint256)": {
        "details": "called after receiving the event about sending the last response to the room",
        "params": {
          "roomId": "room id"
        },
        "returns": {
          "_0": "Answer[] memory list with player response, player, player car and response time"
        }
      },
      "getEnginesByOwner(address)": {
        "params": {
          "_owner": "owner's address"
        },
        "returns": {
          "_0": "Engine[] memory owner's list of engines"
        }
      },
      "getFuelStationByOwner(address)": {
        "details": "exist only one",
        "params": {
          "_owner": "owner's address"
        },
        "returns": {
          "_0": "FuelStation memory one owner fuel station"
        }
      },
      "levelUp(uint256)": {
        "params": {
          "_carId": "car id"
        }
      },
      "owner()": {
        "details": "Returns the address of the current owner."
      },
      "renounceOwnership()": {
        "details": "Leaves the contract without owner. It will not be possible to call `onlyOwner` functions anymore. Can only be called by the current owner. NOTE: Renouncing ownership will leave the contract without an owner, thereby removing any functionality that is only available to the owner."
      },
      "startRace(uint256)": {
        "params": {
          "_carId": "car id"
        }
      },
      "switchChassis(uint256,uint256)": {
        "params": {
          "carId": "car id",
          "chassisId": "chassis id"
        }
      },
      "switchEngine(uint256,uint256)": {
        "params": {
          "carId": "car id",
          "engineId": "engine id"
        }
      },
      "transferOwnership(address)": {
        "details": "Transfers ownership of the contract to a new account (`newOwner`). Can only be called by the current owner."
      },
      "upgradeCapacity(uint256,uint8)": {
        "params": {
          "_counts": "size",
          "_fuelStatonId": "fuel station id"
        }
      },
      "upgradeConsumtion(uint256)": {
        "params": {
          "_engineId": "engine id"
        }
      },
      "upgradeDurability(uint256,uint8)": {
        "params": {
          "_chassisId": "chassis id",
          "_counts": "size"
        }
      },
      "upgradeHorsePowers(uint256,uint8)": {
        "params": {
          "_counts": "size",
          "_engineId": "engine id"
        }
      },
      "upgradeProductionPerHour(uint256,uint8)": {
        "params": {
          "_counts": "size",
          "_fuelStatonId": "fuel station id"
        }
      }
    },
    "title": "car racing",
    "version": 1
  },
  "userdoc": {
    "kind": "user",
    "methods": {
      "commitAnswer(uint256,uint256[])": {
        "notice": "commit ans"
      },
      "createCar(string)": {
        "notice": "creating car"
      },
      "createCustomCar(string,uint16,uint8,uint32,uint8,uint256)": {
        "notice": "customer car creation    (    )"
      },
      "createCustomChassis(uint32,uint256)": {
        "notice": "customer chassis creation"
      },
      "createCustomEngine(uint16,uint8,uint256)": {
        "notice": "customer engine creation"
      },
      "detachChassis(uint256,uint256)": {
        "notice": "removal of the old chassis"
      },
      "detachEngine(uint256,uint256)": {
        "notice": "removal of the old engine"
      },
      "findRoom(address,uint256)": {
        "notice": "search room for competition"
      },
      "getCapacityUpgradeCost(uint256,uint8)": {
        "notice": "upgrade capacity"
      },
      "getCarsByOwner(address)": {
        "notice": "list of owner cars"
      },
      "getChassisByOwner(address)": {
        "notice": "list of owner chassis"
      },
      "getClosedRoom(uint256)": {
        "notice": "get closed room"
      },
      "getEnginesByOwner(address)": {
        "notice": "list of owner engines"
      },
      "getFuelStationByOwner(address)": {
        "notice": "fuel station of owner"
      },
      "levelUp(uint256)": {
        "notice": "upgrade car level"
      },
      "startRace(uint256)": {
        "notice": "start race"
      },
      "switchChassis(uint256,uint256)": {
        "notice": "changing chassis in owner's car"
      },
      "switchEngine(uint256,uint256)": {
        "notice": "changing engine in owner's car"
      },
      "upgradeCapacity(uint256,uint8)": {
        "notice": "upgrade capacity of fuel station"
      },
      "upgradeConsumtion(uint256)": {
        "notice": "upgrade consumption"
      },
      "upgradeDurability(uint256,uint8)": {
        "notice": "upgrade durability"
      },
      "upgradeHorsePowers(uint256,uint8)": {
        "notice": "upgrade horse powers"
      },
      "upgradeProductionPerHour(uint256,uint8)": {
        "notice": "upgrade production on per hour"
      }
    },
    "version": 1
  }
}