{
  "contractName": "ChassisOwnership",
  "abi": [
    {
      "inputs": [],
      "stateMutability": "nonpayable",
      "type": "constructor"
    },
    {
      "anonymous": false,
      "inputs": [
        {
          "indexed": true,
          "internalType": "address",
          "name": "owner",
          "type": "address"
        },
        {
          "indexed": true,
          "internalType": "address",
          "name": "approved",
          "type": "address"
        },
        {
          "indexed": true,
          "internalType": "uint256",
          "name": "tokenId",
          "type": "uint256"
        }
      ],
      "name": "Approval",
      "type": "event"
    },
    {
      "anonymous": false,
      "inputs": [
        {
          "indexed": true,
          "internalType": "address",
          "name": "owner",
          "type": "address"
        },
        {
          "indexed": true,
          "internalType": "address",
          "name": "operator",
          "type": "address"
        },
        {
          "indexed": false,
          "internalType": "bool",
          "name": "approved",
          "type": "bool"
        }
      ],
      "name": "ApprovalForAll",
      "type": "event"
    },
    {
      "anonymous": false,
      "inputs": [
        {
          "indexed": true,
          "internalType": "address",
          "name": "previousOwner",
          "type": "address"
        },
        {
          "indexed": true,
          "internalType": "address",
          "name": "newOwner",
          "type": "address"
        }
      ],
      "name": "OwnershipTransferred",
      "type": "event"
    },
    {
      "anonymous": false,
      "inputs": [
        {
          "indexed": true,
          "internalType": "address",
          "name": "from",
          "type": "address"
        },
        {
          "indexed": true,
          "internalType": "address",
          "name": "to",
          "type": "address"
        },
        {
          "indexed": true,
          "internalType": "uint256",
          "name": "tokenId",
          "type": "uint256"
        }
      ],
      "name": "Transfer",
      "type": "event"
    },
    {
      "inputs": [
        {
          "internalType": "address",
          "name": "to",
          "type": "address"
        },
        {
          "internalType": "uint256",
          "name": "tokenId",
          "type": "uint256"
        }
      ],
      "name": "approve",
      "outputs": [],
      "stateMutability": "nonpayable",
      "type": "function"
    },
    {
      "inputs": [
        {
          "internalType": "uint256",
          "name": "",
          "type": "uint256"
        }
      ],
      "name": "chassisApprovals",
      "outputs": [
        {
          "internalType": "address",
          "name": "",
          "type": "address"
        }
      ],
      "stateMutability": "view",
      "type": "function",
      "constant": true
    },
    {
      "inputs": [
        {
          "internalType": "address",
          "name": "owner",
          "type": "address"
        },
        {
          "internalType": "address",
          "name": "operator",
          "type": "address"
        }
      ],
      "name": "isApprovedForAll",
      "outputs": [
        {
          "internalType": "bool",
          "name": "",
          "type": "bool"
        }
      ],
      "stateMutability": "view",
      "type": "function",
      "constant": true
    },
    {
      "inputs": [],
      "name": "name",
      "outputs": [
        {
          "internalType": "string",
          "name": "",
          "type": "string"
        }
      ],
      "stateMutability": "view",
      "type": "function",
      "constant": true
    },
    {
      "inputs": [],
      "name": "owner",
      "outputs": [
        {
          "internalType": "address",
          "name": "",
          "type": "address"
        }
      ],
      "stateMutability": "view",
      "type": "function",
      "constant": true
    },
    {
      "inputs": [],
      "name": "renounceOwnership",
      "outputs": [],
      "stateMutability": "nonpayable",
      "type": "function"
    },
    {
      "inputs": [
        {
          "internalType": "address",
          "name": "from",
          "type": "address"
        },
        {
          "internalType": "address",
          "name": "to",
          "type": "address"
        },
        {
          "internalType": "uint256",
          "name": "tokenId",
          "type": "uint256"
        }
      ],
      "name": "safeTransferFrom",
      "outputs": [],
      "stateMutability": "nonpayable",
      "type": "function"
    },
    {
      "inputs": [
        {
          "internalType": "address",
          "name": "from",
          "type": "address"
        },
        {
          "internalType": "address",
          "name": "to",
          "type": "address"
        },
        {
          "internalType": "uint256",
          "name": "tokenId",
          "type": "uint256"
        },
        {
          "internalType": "bytes",
          "name": "data",
          "type": "bytes"
        }
      ],
      "name": "safeTransferFrom",
      "outputs": [],
      "stateMutability": "nonpayable",
      "type": "function"
    },
    {
      "inputs": [
        {
          "internalType": "address",
          "name": "operator",
          "type": "address"
        },
        {
          "internalType": "bool",
          "name": "approved",
          "type": "bool"
        }
      ],
      "name": "setApprovalForAll",
      "outputs": [],
      "stateMutability": "nonpayable",
      "type": "function"
    },
    {
      "inputs": [
        {
          "internalType": "bytes4",
          "name": "interfaceId",
          "type": "bytes4"
        }
      ],
      "name": "supportsInterface",
      "outputs": [
        {
          "internalType": "bool",
          "name": "",
          "type": "bool"
        }
      ],
      "stateMutability": "view",
      "type": "function",
      "constant": true
    },
    {
      "inputs": [],
      "name": "symbol",
      "outputs": [
        {
          "internalType": "string",
          "name": "",
          "type": "string"
        }
      ],
      "stateMutability": "view",
      "type": "function",
      "constant": true
    },
    {
      "inputs": [
        {
          "internalType": "uint256",
          "name": "tokenId",
          "type": "uint256"
        }
      ],
      "name": "tokenURI",
      "outputs": [
        {
          "internalType": "string",
          "name": "",
          "type": "string"
        }
      ],
      "stateMutability": "view",
      "type": "function",
      "constant": true
    },
    {
      "inputs": [
        {
          "internalType": "address",
          "name": "newOwner",
          "type": "address"
        }
      ],
      "name": "transferOwnership",
      "outputs": [],
      "stateMutability": "nonpayable",
      "type": "function"
    },
    {
      "inputs": [
        {
          "internalType": "address",
          "name": "tokenOwnershipAddress",
          "type": "address"
        }
      ],
      "name": "init",
      "outputs": [],
      "stateMutability": "nonpayable",
      "type": "function"
    },
    {
      "inputs": [
        {
          "internalType": "address",
          "name": "_owner",
          "type": "address"
        }
      ],
      "name": "balanceOf",
      "outputs": [
        {
          "internalType": "uint256",
          "name": "",
          "type": "uint256"
        }
      ],
      "stateMutability": "view",
      "type": "function",
      "constant": true
    },
    {
      "inputs": [
        {
          "internalType": "uint256",
          "name": "_tokenId",
          "type": "uint256"
        }
      ],
      "name": "ownerOf",
      "outputs": [
        {
          "internalType": "address",
          "name": "",
          "type": "address"
        }
      ],
      "stateMutability": "view",
      "type": "function",
      "constant": true
    },
    {
      "inputs": [
        {
          "internalType": "uint256",
          "name": "_tokenId",
          "type": "uint256"
        }
      ],
      "name": "getApproved",
      "outputs": [
        {
          "internalType": "address",
          "name": "",
          "type": "address"
        }
      ],
      "stateMutability": "view",
      "type": "function",
      "constant": true
    },
    {
      "inputs": [
        {
          "internalType": "address",
          "name": "_from",
          "type": "address"
        },
        {
          "internalType": "address",
          "name": "_to",
          "type": "address"
        },
        {
          "internalType": "uint256",
          "name": "_tokenId",
          "type": "uint256"
        }
      ],
      "name": "transferFrom",
      "outputs": [],
      "stateMutability": "nonpayable",
      "type": "function"
    },
    {
      "inputs": [
        {
          "internalType": "uint256",
          "name": "_tokenId",
          "type": "uint256"
        }
      ],
      "name": "buyFromMarketplace",
      "outputs": [],
      "stateMutability": "payable",
      "type": "function",
      "payable": true
    }
  ],
  "bytecode": "0x60806040523480156200001157600080fd5b50604080518082018252600c81526b436861737369734275636b7360a01b60208083019182528351808501909452600384526209084b60eb1b9084015281519192916200006191600091620000f0565b50805162000077906001906020840190620000f0565b505050620000946200008e6200009a60201b60201c565b6200009e565b620001d2565b3390565b600680546001600160a01b038381166001600160a01b0319831681179093556040519116919082907f8be0079c531659141344cd1fd0a4f28419497f9722a3daafe3b4186f6b6457e090600090a35050565b828054620000fe9062000196565b90600052602060002090601f0160209004810192826200012257600085556200016d565b82601f106200013d57805160ff19168380011785556200016d565b828001600101855582156200016d579182015b828111156200016d57825182559160200191906001019062000150565b506200017b9291506200017f565b5090565b5b808211156200017b576000815560010162000180565b600181811c90821680620001ab57607f821691505b602082108103620001cc57634e487b7160e01b600052602260045260246000fd5b50919050565b61189a80620001e26000396000f3fe6080604052600436106101145760003560e01c8063715018a6116100a0578063c712ecef11610064578063c712ecef14610316578063c87b56dd14610329578063dffaf98e14610349578063e985e9c51461037f578063f2fde38b146103c857600080fd5b8063715018a61461028e5780638da5cb5b146102a357806395d89b41146102c1578063a22cb465146102d6578063b88d4fde146102f657600080fd5b806319ab453c116100e757806319ab453c146101e057806323b872dd1461020057806342842e0e146102205780636352211e1461024057806370a082311461026057600080fd5b806301ffc9a71461011957806306fdde031461014e578063081812fc14610170578063095ea7b3146101be575b600080fd5b34801561012557600080fd5b506101396101343660046113ed565b6103e8565b60405190151581526020015b60405180910390f35b34801561015a57600080fd5b5061016361043a565b6040516101459190611462565b34801561017c57600080fd5b506101a661018b366004611475565b6000908152600860205260409020546001600160a01b031690565b6040516001600160a01b039091168152602001610145565b3480156101ca57600080fd5b506101de6101d93660046114a3565b6104cc565b005b3480156101ec57600080fd5b506101de6101fb3660046114cf565b6105e6565b34801561020c57600080fd5b506101de61021b3660046114ec565b610610565b34801561022c57600080fd5b506101de61023b3660046114ec565b61072d565b34801561024c57600080fd5b506101a661025b366004611475565b610748565b34801561026c57600080fd5b5061028061027b3660046114cf565b6107b6565b604051908152602001610145565b34801561029a57600080fd5b506101de610825565b3480156102af57600080fd5b506006546001600160a01b03166101a6565b3480156102cd57600080fd5b50610163610839565b3480156102e257600080fd5b506101de6102f136600461152d565b610848565b34801561030257600080fd5b506101de610311366004611581565b610857565b6101de610324366004611475565b6108d5565b34801561033557600080fd5b50610163610344366004611475565b610b2f565b34801561035557600080fd5b506101a6610364366004611475565b6008602052600090815260409020546001600160a01b031681565b34801561038b57600080fd5b5061013961039a366004611661565b6001600160a01b03918216600090815260056020908152604080832093909416825291909152205460ff1690565b3480156103d457600080fd5b506101de6103e33660046114cf565b610ba3565b60006001600160e01b031982166380ac58cd60e01b148061041957506001600160e01b03198216635b5e139f60e01b145b8061043457506301ffc9a760e01b6001600160e01b03198316145b92915050565b6060600080546104499061168f565b80601f01602080910402602001604051908101604052809291908181526020018280546104759061168f565b80156104c25780601f10610497576101008083540402835291602001916104c2565b820191906000526020600020905b8154815290600101906020018083116104a557829003601f168201915b5050505050905090565b60006104d782610c19565b9050806001600160a01b0316836001600160a01b0316036105495760405162461bcd60e51b815260206004820152602160248201527f4552433732313a20617070726f76616c20746f2063757272656e74206f776e656044820152603960f91b60648201526084015b60405180910390fd5b336001600160a01b03821614806105655750610565813361039a565b6105d75760405162461bcd60e51b815260206004820152603d60248201527f4552433732313a20617070726f76652063616c6c6572206973206e6f7420746f60448201527f6b656e206f776e6572206f7220617070726f76656420666f7220616c6c0000006064820152608401610540565b6105e18383610c79565b505050565b6105ee610ce7565b600780546001600160a01b0319166001600160a01b0392909216919091179055565b6000818152600860205260409020546001600160a01b038381169116146106795760405162461bcd60e51b815260206004820152601d60248201527f796f75206469646e27742070617920666f722074686520746f6b656e210000006044820152606401610540565b60075460405163f66911b160e01b81526001600160a01b0385811660048301528481166024830152604482018490529091169063f66911b190606401600060405180830381600087803b1580156106cf57600080fd5b505af11580156106e3573d6000803e3d6000fd5b5050505080826001600160a01b0316846001600160a01b03167fddf252ad1be2c89b69c2b068fc378daa952ba7f163c4a11628f55a4df523b3ef60405160405180910390a4505050565b6105e183838360405180602001604052806000815250610857565b600754604051635c426aff60e01b8152600481018390526000916001600160a01b031690635c426aff90602401602060405180830381865afa158015610792573d6000803e3d6000fd5b505050506040513d601f19601f8201168201806040525081019061043491906116c9565b60075460405163254dc06560e01b81526001600160a01b038381166004830152600092169063254dc06590602401602060405180830381865afa158015610801573d6000803e3d6000fd5b505050506040513d601f19601f8201168201806040525081019061043491906116e6565b61082d610ce7565b6108376000610d41565b565b6060600180546104499061168f565b610853338383610d93565b5050565b6108613383610e61565b6108c35760405162461bcd60e51b815260206004820152602d60248201527f4552433732313a2063616c6c6572206973206e6f7420746f6b656e206f776e6560448201526c1c881bdc88185c1c1c9bdd9959609a1b6064820152608401610540565b6108cf84848484610ee0565b50505050565b6007546040516302805dbf60e21b8152600481018390526001600160a01b0390911690630a0176fc90602401602060405180830381865afa15801561091e573d6000803e3d6000fd5b505050506040513d601f19601f8201168201806040525081019061094291906116e6565b6000036109815760405162461bcd60e51b815260206004820152600d60248201526c6e6f7420666f722073616c652160981b6044820152606401610540565b6007546040516302805dbf60e21b8152600481018390526001600160a01b0390911690630a0176fc90602401602060405180830381865afa1580156109ca573d6000803e3d6000fd5b505050506040513d601f19601f820116820180604052508101906109ee91906116e6565b3414610a285760405162461bcd60e51b815260206004820152600960248201526876616c2077726f6e6760b81b6044820152606401610540565b33610a3282610748565b6001600160a01b031603610a795760405162461bcd60e51b815260206004820152600e60248201526d63616e742062757920796f75727360901b6044820152606401610540565b600081815260086020526040902080546001600160a01b031916331790558033610aa282610748565b6001600160a01b03167f8c5be1e5ebec7d5bd14f71427d1e84f3dd0314c0f7b2291e5b200ac8c7c3b92560405160405180910390a4610ae081610748565b6001600160a01b03166108fc349081150290604051600060405180830381858888f19350505050158015610b18573d6000803e3d6000fd5b50610b2c610b2582610748565b3383610610565b50565b6060610b3a82610f13565b6000610b5160408051602081019091526000815290565b90506000815111610b715760405180602001604052806000815250610b9c565b80610b7b84610f72565b604051602001610b8c9291906116ff565b6040516020818303038152906040525b9392505050565b610bab610ce7565b6001600160a01b038116610c105760405162461bcd60e51b815260206004820152602660248201527f4f776e61626c653a206e6577206f776e657220697320746865207a65726f206160448201526564647265737360d01b6064820152608401610540565b610b2c81610d41565b6000818152600260205260408120546001600160a01b0316806104345760405162461bcd60e51b8152602060048201526018602482015277115490cdcc8c4e881a5b9d985b1a59081d1bdad95b88125160421b6044820152606401610540565b600081815260046020526040902080546001600160a01b0319166001600160a01b0384169081179091558190610cae82610c19565b6001600160a01b03167f8c5be1e5ebec7d5bd14f71427d1e84f3dd0314c0f7b2291e5b200ac8c7c3b92560405160405180910390a45050565b6006546001600160a01b031633146108375760405162461bcd60e51b815260206004820181905260248201527f4f776e61626c653a2063616c6c6572206973206e6f7420746865206f776e65726044820152606401610540565b600680546001600160a01b038381166001600160a01b0319831681179093556040519116919082907f8be0079c531659141344cd1fd0a4f28419497f9722a3daafe3b4186f6b6457e090600090a35050565b816001600160a01b0316836001600160a01b031603610df45760405162461bcd60e51b815260206004820152601960248201527f4552433732313a20617070726f766520746f2063616c6c6572000000000000006044820152606401610540565b6001600160a01b03838116600081815260056020908152604080832094871680845294825291829020805460ff191686151590811790915591519182527f17307eab39ab6107e8899845ad3d59bd9653f200f220920489ca2b5937696c31910160405180910390a3505050565b600080610e6d83610c19565b9050806001600160a01b0316846001600160a01b03161480610eb457506001600160a01b0380821660009081526005602090815260408083209388168352929052205460ff165b80610ed857506000838152600860205260409020546001600160a01b038581169116145b949350505050565b610eeb848484611005565b610ef784848484611176565b6108cf5760405162461bcd60e51b81526004016105409061172e565b6000818152600260205260409020546001600160a01b0316610b2c5760405162461bcd60e51b8152602060048201526018602482015277115490cdcc8c4e881a5b9d985b1a59081d1bdad95b88125160421b6044820152606401610540565b60606000610f7f83611277565b600101905060008167ffffffffffffffff811115610f9f57610f9f61156b565b6040519080825280601f01601f191660200182016040528015610fc9576020820181803683370190505b5090508181016020015b600019016f181899199a1a9b1b9c1cb0b131b232b360811b600a86061a8153600a8504945084610fd357509392505050565b826001600160a01b031661101882610c19565b6001600160a01b03161461103e5760405162461bcd60e51b815260040161054090611780565b6001600160a01b0382166110a05760405162461bcd60e51b8152602060048201526024808201527f4552433732313a207472616e7366657220746f20746865207a65726f206164646044820152637265737360e01b6064820152608401610540565b6110ad838383600161134f565b826001600160a01b03166110c082610c19565b6001600160a01b0316146110e65760405162461bcd60e51b815260040161054090611780565b600081815260046020908152604080832080546001600160a01b03199081169091556001600160a01b0387811680865260038552838620805460001901905590871680865283862080546001019055868652600290945282852080549092168417909155905184937fddf252ad1be2c89b69c2b068fc378daa952ba7f163c4a11628f55a4df523b3ef91a4505050565b60006001600160a01b0384163b1561126c57604051630a85bd0160e11b81526001600160a01b0385169063150b7a02906111ba9033908990889088906004016117c5565b6020604051808303816000875af19250505080156111f5575060408051601f3d908101601f191682019092526111f291810190611802565b60015b611252573d808015611223576040519150601f19603f3d011682016040523d82523d6000602084013e611228565b606091505b50805160000361124a5760405162461bcd60e51b81526004016105409061172e565b805181602001fd5b6001600160e01b031916630a85bd0160e11b149050610ed8565b506001949350505050565b60008072184f03e93ff9f4daa797ed6e38ed64bf6a1f0160401b83106112b65772184f03e93ff9f4daa797ed6e38ed64bf6a1f0160401b830492506040015b6d04ee2d6d415b85acef810000000083106112e2576d04ee2d6d415b85acef8100000000830492506020015b662386f26fc10000831061130057662386f26fc10000830492506010015b6305f5e1008310611318576305f5e100830492506008015b612710831061132c57612710830492506004015b6064831061133e576064830492506002015b600a83106104345760010192915050565b60018111156108cf576001600160a01b03841615611395576001600160a01b0384166000908152600360205260408120805483929061138f908490611835565b90915550505b6001600160a01b038316156108cf576001600160a01b038316600090815260036020526040812080548392906113cc90849061184c565b909155505050505050565b6001600160e01b031981168114610b2c57600080fd5b6000602082840312156113ff57600080fd5b8135610b9c816113d7565b60005b8381101561142557818101518382015260200161140d565b838111156108cf5750506000910152565b6000815180845261144e81602086016020860161140a565b601f01601f19169290920160200192915050565b602081526000610b9c6020830184611436565b60006020828403121561148757600080fd5b5035919050565b6001600160a01b0381168114610b2c57600080fd5b600080604083850312156114b657600080fd5b82356114c18161148e565b946020939093013593505050565b6000602082840312156114e157600080fd5b8135610b9c8161148e565b60008060006060848603121561150157600080fd5b833561150c8161148e565b9250602084013561151c8161148e565b929592945050506040919091013590565b6000806040838503121561154057600080fd5b823561154b8161148e565b91506020830135801515811461156057600080fd5b809150509250929050565b634e487b7160e01b600052604160045260246000fd5b6000806000806080858703121561159757600080fd5b84356115a28161148e565b935060208501356115b28161148e565b925060408501359150606085013567ffffffffffffffff808211156115d657600080fd5b818701915087601f8301126115ea57600080fd5b8135818111156115fc576115fc61156b565b604051601f8201601f19908116603f011681019083821181831017156116245761162461156b565b816040528281528a602084870101111561163d57600080fd5b82602086016020830137600060208483010152809550505050505092959194509250565b6000806040838503121561167457600080fd5b823561167f8161148e565b915060208301356115608161148e565b600181811c908216806116a357607f821691505b6020821081036116c357634e487b7160e01b600052602260045260246000fd5b50919050565b6000602082840312156116db57600080fd5b8151610b9c8161148e565b6000602082840312156116f857600080fd5b5051919050565b6000835161171181846020880161140a565b83519083019061172581836020880161140a565b01949350505050565b60208082526032908201527f4552433732313a207472616e7366657220746f206e6f6e20455243373231526560408201527131b2b4bb32b91034b6b83632b6b2b73a32b960711b606082015260800190565b60208082526025908201527f4552433732313a207472616e736665722066726f6d20696e636f72726563742060408201526437bbb732b960d91b606082015260800190565b6001600160a01b03858116825284166020820152604081018390526080606082018190526000906117f890830184611436565b9695505050505050565b60006020828403121561181457600080fd5b8151610b9c816113d7565b634e487b7160e01b600052601160045260246000fd5b6000828210156118475761184761181f565b500390565b6000821982111561185f5761185f61181f565b50019056fea26469706673582212203e3b174a5a6bdecf6a40314e033de09e675db5620b615a9a2c6f41ba0396421864736f6c634300080d0033",
  "immutableReferences": {},
  "source": "// SPDX-License-Identifier: MIT\npragma solidity ^0.8.13;\n\nimport \"./TokenOwnership.sol\";\nimport \"../node_modules/@openzeppelin/contracts/access/Ownable.sol\";\nimport \"../node_modules/@openzeppelin/contracts/token/ERC721/ERC721.sol\";\n\n\ncontract ChassisOwnership is ERC721, Ownable {\n    TokenOwnership tokenOwnership;\n    mapping (uint => address) public chassisApprovals;\n\n\n    constructor() ERC721(\"ChassisBucks\", \"HBX\"){}\n\n    function init(address tokenOwnershipAddress) public onlyOwner{\n        tokenOwnership = TokenOwnership(tokenOwnershipAddress);\n    }\n\n    function balanceOf(address _owner) override public view returns (uint256){\n        return tokenOwnership.balanceOfChassis(_owner);\n    }\n    function ownerOf(uint256 _tokenId) override public view returns (address){\n        return tokenOwnership.ownerOfChassis(_tokenId);\n    }\n\n    function getApproved(uint256 _tokenId) override public view returns(address) {\n        return chassisApprovals[_tokenId];\n    }\n\n    function transferFrom(address _from, address _to, uint256 _tokenId) override public {\n        require(getApproved(_tokenId) == _to, \"you didn't pay for the token!\");\n        tokenOwnership.transferChassisFrom(_from, _to, _tokenId);\n        emit Transfer(_from, _to, _tokenId);\n    }\n\n    function buyFromMarketplace(uint256 _tokenId) public payable{\n        require(tokenOwnership.chassisToPrice(_tokenId)!=0, \"not for sale!\");\n        require(msg.value == tokenOwnership.chassisToPrice(_tokenId), \"val wrong\");\n        require(ownerOf(_tokenId) != msg.sender, \"cant buy yours\");\n\n        approveDeal(msg.sender, _tokenId);\n        emit Approval(ownerOf(_tokenId), msg.sender, _tokenId);\n\n        payable(ownerOf(_tokenId)).transfer(msg.value);\n        transferFrom(ownerOf(_tokenId), msg.sender, _tokenId);\n    }\n\n    // function buyFromMarketplace2(uint256 _tokenId) public payable{\n    //     // require(tokenOwnership.chassisToPrice(_tokenId)!=0, \"not for sale!\");\n    //     // require(msg.value == tokenOwnership.chassisToPrice(_tokenId), \"val wrong\");\n    //     // require(ownerOf(_tokenId) != msg.sender, \"cant buy yours\");\n\n    //     // approveDeal(msg.sender, _tokenId);\n    //     // emit Approval(ownerOf(_tokenId), msg.sender, _tokenId);\n\n    //     // payable(ownerOf(_tokenId)).transfer(msg.value);\n    //     tokenOwnership.transferChassisFrom(ownerOf(_tokenId), msg.sender, _tokenId);\n    // }\n\n    function approveDeal(address to, uint tokenId) private{\n        chassisApprovals[tokenId] = to;\n    }\n\n}",
  "sourcePath": "/Users/vvan/Programming/JavaScript/DriveSafely/contract/contracts/ChassisOwnership.sol",
  "compiler": {
    "name": "solc",
    "version": "0.8.13+commit.abaa5c0e.Emscripten.clang"
  },
  "schemaVersion": "3.4.11",
  "updatedAt": "2023-01-11T13:14:03.621Z",
  "networkType": "ethereum",
  "devdoc": {
    "kind": "dev",
    "methods": {
      "approve(address,uint256)": {
        "details": "See {IERC721-approve}."
      },
      "isApprovedForAll(address,address)": {
        "details": "See {IERC721-isApprovedForAll}."
      },
      "name()": {
        "details": "See {IERC721Metadata-name}."
      },
      "owner()": {
        "details": "Returns the address of the current owner."
      },
      "renounceOwnership()": {
        "details": "Leaves the contract without owner. It will not be possible to call `onlyOwner` functions anymore. Can only be called by the current owner. NOTE: Renouncing ownership will leave the contract without an owner, thereby removing any functionality that is only available to the owner."
      },
      "safeTransferFrom(address,address,uint256)": {
        "details": "See {IERC721-safeTransferFrom}."
      },
      "safeTransferFrom(address,address,uint256,bytes)": {
        "details": "See {IERC721-safeTransferFrom}."
      },
      "setApprovalForAll(address,bool)": {
        "details": "See {IERC721-setApprovalForAll}."
      },
      "supportsInterface(bytes4)": {
        "details": "See {IERC165-supportsInterface}."
      },
      "symbol()": {
        "details": "See {IERC721Metadata-symbol}."
      },
      "tokenURI(uint256)": {
        "details": "See {IERC721Metadata-tokenURI}."
      },
      "transferOwnership(address)": {
        "details": "Transfers ownership of the contract to a new account (`newOwner`). Can only be called by the current owner."
      }
    },
    "version": 1
  },
  "userdoc": {
    "kind": "user",
    "methods": {},
    "version": 1
  }
}