{
  "contractName": "ChassisOwnership",
  "abi": [
    {
      "inputs": [],
      "stateMutability": "nonpayable",
      "type": "constructor"
    },
    {
      "anonymous": false,
      "inputs": [
        {
          "indexed": true,
          "internalType": "address",
          "name": "owner",
          "type": "address"
        },
        {
          "indexed": true,
          "internalType": "address",
          "name": "approved",
          "type": "address"
        },
        {
          "indexed": true,
          "internalType": "uint256",
          "name": "tokenId",
          "type": "uint256"
        }
      ],
      "name": "Approval",
      "type": "event"
    },
    {
      "anonymous": false,
      "inputs": [
        {
          "indexed": true,
          "internalType": "address",
          "name": "owner",
          "type": "address"
        },
        {
          "indexed": true,
          "internalType": "address",
          "name": "operator",
          "type": "address"
        },
        {
          "indexed": false,
          "internalType": "bool",
          "name": "approved",
          "type": "bool"
        }
      ],
      "name": "ApprovalForAll",
      "type": "event"
    },
    {
      "anonymous": false,
      "inputs": [
        {
          "indexed": true,
          "internalType": "address",
          "name": "previousOwner",
          "type": "address"
        },
        {
          "indexed": true,
          "internalType": "address",
          "name": "newOwner",
          "type": "address"
        }
      ],
      "name": "OwnershipTransferred",
      "type": "event"
    },
    {
      "anonymous": false,
      "inputs": [
        {
          "indexed": true,
          "internalType": "address",
          "name": "from",
          "type": "address"
        },
        {
          "indexed": true,
          "internalType": "address",
          "name": "to",
          "type": "address"
        },
        {
          "indexed": true,
          "internalType": "uint256",
          "name": "tokenId",
          "type": "uint256"
        }
      ],
      "name": "Transfer",
      "type": "event"
    },
    {
      "inputs": [
        {
          "internalType": "address",
          "name": "to",
          "type": "address"
        },
        {
          "internalType": "uint256",
          "name": "tokenId",
          "type": "uint256"
        }
      ],
      "name": "approve",
      "outputs": [],
      "stateMutability": "nonpayable",
      "type": "function"
    },
    {
      "inputs": [
        {
          "internalType": "address",
          "name": "owner",
          "type": "address"
        },
        {
          "internalType": "address",
          "name": "operator",
          "type": "address"
        }
      ],
      "name": "isApprovedForAll",
      "outputs": [
        {
          "internalType": "bool",
          "name": "",
          "type": "bool"
        }
      ],
      "stateMutability": "view",
      "type": "function",
      "constant": true
    },
    {
      "inputs": [],
      "name": "name",
      "outputs": [
        {
          "internalType": "string",
          "name": "",
          "type": "string"
        }
      ],
      "stateMutability": "view",
      "type": "function",
      "constant": true
    },
    {
      "inputs": [],
      "name": "owner",
      "outputs": [
        {
          "internalType": "address",
          "name": "",
          "type": "address"
        }
      ],
      "stateMutability": "view",
      "type": "function",
      "constant": true
    },
    {
      "inputs": [],
      "name": "renounceOwnership",
      "outputs": [],
      "stateMutability": "nonpayable",
      "type": "function"
    },
    {
      "inputs": [
        {
          "internalType": "address",
          "name": "from",
          "type": "address"
        },
        {
          "internalType": "address",
          "name": "to",
          "type": "address"
        },
        {
          "internalType": "uint256",
          "name": "tokenId",
          "type": "uint256"
        }
      ],
      "name": "safeTransferFrom",
      "outputs": [],
      "stateMutability": "nonpayable",
      "type": "function"
    },
    {
      "inputs": [
        {
          "internalType": "address",
          "name": "from",
          "type": "address"
        },
        {
          "internalType": "address",
          "name": "to",
          "type": "address"
        },
        {
          "internalType": "uint256",
          "name": "tokenId",
          "type": "uint256"
        },
        {
          "internalType": "bytes",
          "name": "data",
          "type": "bytes"
        }
      ],
      "name": "safeTransferFrom",
      "outputs": [],
      "stateMutability": "nonpayable",
      "type": "function"
    },
    {
      "inputs": [
        {
          "internalType": "address",
          "name": "operator",
          "type": "address"
        },
        {
          "internalType": "bool",
          "name": "approved",
          "type": "bool"
        }
      ],
      "name": "setApprovalForAll",
      "outputs": [],
      "stateMutability": "nonpayable",
      "type": "function"
    },
    {
      "inputs": [
        {
          "internalType": "bytes4",
          "name": "interfaceId",
          "type": "bytes4"
        }
      ],
      "name": "supportsInterface",
      "outputs": [
        {
          "internalType": "bool",
          "name": "",
          "type": "bool"
        }
      ],
      "stateMutability": "view",
      "type": "function",
      "constant": true
    },
    {
      "inputs": [],
      "name": "symbol",
      "outputs": [
        {
          "internalType": "string",
          "name": "",
          "type": "string"
        }
      ],
      "stateMutability": "view",
      "type": "function",
      "constant": true
    },
    {
      "inputs": [
        {
          "internalType": "uint256",
          "name": "tokenId",
          "type": "uint256"
        }
      ],
      "name": "tokenURI",
      "outputs": [
        {
          "internalType": "string",
          "name": "",
          "type": "string"
        }
      ],
      "stateMutability": "view",
      "type": "function",
      "constant": true
    },
    {
      "inputs": [
        {
          "internalType": "address",
          "name": "newOwner",
          "type": "address"
        }
      ],
      "name": "transferOwnership",
      "outputs": [],
      "stateMutability": "nonpayable",
      "type": "function"
    },
    {
      "inputs": [
        {
          "internalType": "address",
          "name": "tokenOwnershipAddress",
          "type": "address"
        }
      ],
      "name": "init",
      "outputs": [],
      "stateMutability": "nonpayable",
      "type": "function"
    },
    {
      "inputs": [
        {
          "internalType": "address",
          "name": "_owner",
          "type": "address"
        }
      ],
      "name": "balanceOf",
      "outputs": [
        {
          "internalType": "uint256",
          "name": "",
          "type": "uint256"
        }
      ],
      "stateMutability": "view",
      "type": "function",
      "constant": true
    },
    {
      "inputs": [
        {
          "internalType": "uint256",
          "name": "_tokenId",
          "type": "uint256"
        }
      ],
      "name": "ownerOf",
      "outputs": [
        {
          "internalType": "address",
          "name": "",
          "type": "address"
        }
      ],
      "stateMutability": "view",
      "type": "function",
      "constant": true
    },
    {
      "inputs": [
        {
          "internalType": "uint256",
          "name": "_tokenId",
          "type": "uint256"
        }
      ],
      "name": "getApproved",
      "outputs": [
        {
          "internalType": "address",
          "name": "",
          "type": "address"
        }
      ],
      "stateMutability": "view",
      "type": "function",
      "constant": true
    },
    {
      "inputs": [
        {
          "internalType": "address",
          "name": "_from",
          "type": "address"
        },
        {
          "internalType": "address",
          "name": "_to",
          "type": "address"
        },
        {
          "internalType": "uint256",
          "name": "_tokenId",
          "type": "uint256"
        }
      ],
      "name": "transferFrom",
      "outputs": [],
      "stateMutability": "nonpayable",
      "type": "function"
    },
    {
      "inputs": [
        {
          "internalType": "uint256",
          "name": "_tokenId",
          "type": "uint256"
        }
      ],
      "name": "buyFromMarketplace",
      "outputs": [],
      "stateMutability": "payable",
      "type": "function",
      "payable": true
    }
  ],
  "bytecode": "0x60806040523480156200001157600080fd5b50604080518082018252600c81526b436861737369734275636b7360a01b60208083019182528351808501909452600384526209084b60eb1b9084015281519192916200006191600091620000f0565b50805162000077906001906020840190620000f0565b505050620000946200008e6200009a60201b60201c565b6200009e565b620001d2565b3390565b600680546001600160a01b038381166001600160a01b0319831681179093556040519116919082907f8be0079c531659141344cd1fd0a4f28419497f9722a3daafe3b4186f6b6457e090600090a35050565b828054620000fe9062000196565b90600052602060002090601f0160209004810192826200012257600085556200016d565b82601f106200013d57805160ff19168380011785556200016d565b828001600101855582156200016d579182015b828111156200016d57825182559160200191906001019062000150565b506200017b9291506200017f565b5090565b5b808211156200017b576000815560010162000180565b600181811c90821680620001ab57607f821691505b602082108103620001cc57634e487b7160e01b600052602260045260246000fd5b50919050565b6118c580620001e26000396000f3fe6080604052600436106101095760003560e01c8063715018a611610095578063b88d4fde11610064578063b88d4fde146102d5578063c712ecef146102f5578063c87b56dd14610308578063e985e9c514610328578063f2fde38b1461037157600080fd5b8063715018a61461026d5780638da5cb5b1461028257806395d89b41146102a0578063a22cb465146102b557600080fd5b806319ab453c116100dc57806319ab453c146101bf57806323b872dd146101df57806342842e0e146101ff5780636352211e1461021f57806370a082311461023f57600080fd5b806301ffc9a71461010e57806306fdde0314610143578063081812fc14610165578063095ea7b31461019d575b600080fd5b34801561011a57600080fd5b5061012e610129366004611418565b610391565b60405190151581526020015b60405180910390f35b34801561014f57600080fd5b506101586103e3565b60405161013a919061148d565b34801561017157600080fd5b506101856101803660046114a0565b610475565b6040516001600160a01b03909116815260200161013a565b3480156101a957600080fd5b506101bd6101b83660046114ce565b6104e4565b005b3480156101cb57600080fd5b506101bd6101da3660046114fa565b6105fe565b3480156101eb57600080fd5b506101bd6101fa366004611517565b610628565b34801561020b57600080fd5b506101bd61021a366004611517565b610745565b34801561022b57600080fd5b5061018561023a3660046114a0565b610760565b34801561024b57600080fd5b5061025f61025a3660046114fa565b610792565b60405190815260200161013a565b34801561027957600080fd5b506101bd610801565b34801561028e57600080fd5b506006546001600160a01b0316610185565b3480156102ac57600080fd5b50610158610815565b3480156102c157600080fd5b506101bd6102d0366004611558565b610824565b3480156102e157600080fd5b506101bd6102f03660046115ac565b610833565b6101bd6103033660046114a0565b6108b1565b34801561031457600080fd5b506101586103233660046114a0565b610b5a565b34801561033457600080fd5b5061012e61034336600461168c565b6001600160a01b03918216600090815260056020908152604080832093909416825291909152205460ff1690565b34801561037d57600080fd5b506101bd61038c3660046114fa565b610bce565b60006001600160e01b031982166380ac58cd60e01b14806103c257506001600160e01b03198216635b5e139f60e01b145b806103dd57506301ffc9a760e01b6001600160e01b03198316145b92915050565b6060600080546103f2906116ba565b80601f016020809104026020016040519081016040528092919081815260200182805461041e906116ba565b801561046b5780601f106104405761010080835404028352916020019161046b565b820191906000526020600020905b81548152906001019060200180831161044e57829003601f168201915b5050505050905090565b600754604051636ffd7cc760e11b8152600481018390526000916001600160a01b03169063dffaf98e906024015b602060405180830381865afa1580156104c0573d6000803e3d6000fd5b505050506040513d601f19601f820116820180604052508101906103dd91906116f4565b60006104ef82610c44565b9050806001600160a01b0316836001600160a01b0316036105615760405162461bcd60e51b815260206004820152602160248201527f4552433732313a20617070726f76616c20746f2063757272656e74206f776e656044820152603960f91b60648201526084015b60405180910390fd5b336001600160a01b038216148061057d575061057d8133610343565b6105ef5760405162461bcd60e51b815260206004820152603d60248201527f4552433732313a20617070726f76652063616c6c6572206973206e6f7420746f60448201527f6b656e206f776e6572206f7220617070726f76656420666f7220616c6c0000006064820152608401610558565b6105f98383610ca4565b505050565b610606610d12565b600780546001600160a01b0319166001600160a01b0392909216919091179055565b816001600160a01b031661063b82610475565b6001600160a01b0316146106915760405162461bcd60e51b815260206004820152601d60248201527f796f75206469646e27742070617920666f722074686520746f6b656e210000006044820152606401610558565b60075460405163f66911b160e01b81526001600160a01b0385811660048301528481166024830152604482018490529091169063f66911b190606401600060405180830381600087803b1580156106e757600080fd5b505af11580156106fb573d6000803e3d6000fd5b5050505080826001600160a01b0316846001600160a01b03167fddf252ad1be2c89b69c2b068fc378daa952ba7f163c4a11628f55a4df523b3ef60405160405180910390a4505050565b6105f983838360405180602001604052806000815250610833565b600754604051635c426aff60e01b8152600481018390526000916001600160a01b031690635c426aff906024016104a3565b60075460405163254dc06560e01b81526001600160a01b038381166004830152600092169063254dc06590602401602060405180830381865afa1580156107dd573d6000803e3d6000fd5b505050506040513d601f19601f820116820180604052508101906103dd9190611711565b610809610d12565b6108136000610d6c565b565b6060600180546103f2906116ba565b61082f338383610dbe565b5050565b61083d3383610e8c565b61089f5760405162461bcd60e51b815260206004820152602d60248201527f4552433732313a2063616c6c6572206973206e6f7420746f6b656e206f776e6560448201526c1c881bdc88185c1c1c9bdd9959609a1b6064820152608401610558565b6108ab84848484610f0b565b50505050565b6007546040516302805dbf60e21b8152600481018390526001600160a01b0390911690630a0176fc90602401602060405180830381865afa1580156108fa573d6000803e3d6000fd5b505050506040513d601f19601f8201168201806040525081019061091e9190611711565b60000361095d5760405162461bcd60e51b815260206004820152600d60248201526c6e6f7420666f722073616c652160981b6044820152606401610558565b6007546040516302805dbf60e21b8152600481018390526001600160a01b0390911690630a0176fc90602401602060405180830381865afa1580156109a6573d6000803e3d6000fd5b505050506040513d601f19601f820116820180604052508101906109ca9190611711565b3414610a045760405162461bcd60e51b815260206004820152600960248201526876616c2077726f6e6760b81b6044820152606401610558565b33610a0e82610760565b6001600160a01b031603610a555760405162461bcd60e51b815260206004820152600e60248201526d63616e742062757920796f75727360901b6044820152606401610558565b600754604051631e85ab9b60e01b8152336004820152602481018390526001600160a01b0390911690631e85ab9b90604401600060405180830381600087803b158015610aa157600080fd5b505af1158015610ab5573d6000803e3d6000fd5b5050505080336001600160a01b0316610acd83610760565b6001600160a01b03167f8c5be1e5ebec7d5bd14f71427d1e84f3dd0314c0f7b2291e5b200ac8c7c3b92560405160405180910390a4610b0b81610760565b6001600160a01b03166108fc349081150290604051600060405180830381858888f19350505050158015610b43573d6000803e3d6000fd5b50610b57610b5082610760565b3383610628565b50565b6060610b6582610f3e565b6000610b7c60408051602081019091526000815290565b90506000815111610b9c5760405180602001604052806000815250610bc7565b80610ba684610f9d565b604051602001610bb792919061172a565b6040516020818303038152906040525b9392505050565b610bd6610d12565b6001600160a01b038116610c3b5760405162461bcd60e51b815260206004820152602660248201527f4f776e61626c653a206e6577206f776e657220697320746865207a65726f206160448201526564647265737360d01b6064820152608401610558565b610b5781610d6c565b6000818152600260205260408120546001600160a01b0316806103dd5760405162461bcd60e51b8152602060048201526018602482015277115490cdcc8c4e881a5b9d985b1a59081d1bdad95b88125160421b6044820152606401610558565b600081815260046020526040902080546001600160a01b0319166001600160a01b0384169081179091558190610cd982610c44565b6001600160a01b03167f8c5be1e5ebec7d5bd14f71427d1e84f3dd0314c0f7b2291e5b200ac8c7c3b92560405160405180910390a45050565b6006546001600160a01b031633146108135760405162461bcd60e51b815260206004820181905260248201527f4f776e61626c653a2063616c6c6572206973206e6f7420746865206f776e65726044820152606401610558565b600680546001600160a01b038381166001600160a01b0319831681179093556040519116919082907f8be0079c531659141344cd1fd0a4f28419497f9722a3daafe3b4186f6b6457e090600090a35050565b816001600160a01b0316836001600160a01b031603610e1f5760405162461bcd60e51b815260206004820152601960248201527f4552433732313a20617070726f766520746f2063616c6c6572000000000000006044820152606401610558565b6001600160a01b03838116600081815260056020908152604080832094871680845294825291829020805460ff191686151590811790915591519182527f17307eab39ab6107e8899845ad3d59bd9653f200f220920489ca2b5937696c31910160405180910390a3505050565b600080610e9883610c44565b9050806001600160a01b0316846001600160a01b03161480610edf57506001600160a01b0380821660009081526005602090815260408083209388168352929052205460ff165b80610f035750836001600160a01b0316610ef884610475565b6001600160a01b0316145b949350505050565b610f16848484611030565b610f22848484846111a1565b6108ab5760405162461bcd60e51b815260040161055890611759565b6000818152600260205260409020546001600160a01b0316610b575760405162461bcd60e51b8152602060048201526018602482015277115490cdcc8c4e881a5b9d985b1a59081d1bdad95b88125160421b6044820152606401610558565b60606000610faa836112a2565b600101905060008167ffffffffffffffff811115610fca57610fca611596565b6040519080825280601f01601f191660200182016040528015610ff4576020820181803683370190505b5090508181016020015b600019016f181899199a1a9b1b9c1cb0b131b232b360811b600a86061a8153600a8504945084610ffe57509392505050565b826001600160a01b031661104382610c44565b6001600160a01b0316146110695760405162461bcd60e51b8152600401610558906117ab565b6001600160a01b0382166110cb5760405162461bcd60e51b8152602060048201526024808201527f4552433732313a207472616e7366657220746f20746865207a65726f206164646044820152637265737360e01b6064820152608401610558565b6110d8838383600161137a565b826001600160a01b03166110eb82610c44565b6001600160a01b0316146111115760405162461bcd60e51b8152600401610558906117ab565b600081815260046020908152604080832080546001600160a01b03199081169091556001600160a01b0387811680865260038552838620805460001901905590871680865283862080546001019055868652600290945282852080549092168417909155905184937fddf252ad1be2c89b69c2b068fc378daa952ba7f163c4a11628f55a4df523b3ef91a4505050565b60006001600160a01b0384163b1561129757604051630a85bd0160e11b81526001600160a01b0385169063150b7a02906111e59033908990889088906004016117f0565b6020604051808303816000875af1925050508015611220575060408051601f3d908101601f1916820190925261121d9181019061182d565b60015b61127d573d80801561124e576040519150601f19603f3d011682016040523d82523d6000602084013e611253565b606091505b5080516000036112755760405162461bcd60e51b815260040161055890611759565b805181602001fd5b6001600160e01b031916630a85bd0160e11b149050610f03565b506001949350505050565b60008072184f03e93ff9f4daa797ed6e38ed64bf6a1f0160401b83106112e15772184f03e93ff9f4daa797ed6e38ed64bf6a1f0160401b830492506040015b6d04ee2d6d415b85acef8100000000831061130d576d04ee2d6d415b85acef8100000000830492506020015b662386f26fc10000831061132b57662386f26fc10000830492506010015b6305f5e1008310611343576305f5e100830492506008015b612710831061135757612710830492506004015b60648310611369576064830492506002015b600a83106103dd5760010192915050565b60018111156108ab576001600160a01b038416156113c0576001600160a01b038416600090815260036020526040812080548392906113ba908490611860565b90915550505b6001600160a01b038316156108ab576001600160a01b038316600090815260036020526040812080548392906113f7908490611877565b909155505050505050565b6001600160e01b031981168114610b5757600080fd5b60006020828403121561142a57600080fd5b8135610bc781611402565b60005b83811015611450578181015183820152602001611438565b838111156108ab5750506000910152565b60008151808452611479816020860160208601611435565b601f01601f19169290920160200192915050565b602081526000610bc76020830184611461565b6000602082840312156114b257600080fd5b5035919050565b6001600160a01b0381168114610b5757600080fd5b600080604083850312156114e157600080fd5b82356114ec816114b9565b946020939093013593505050565b60006020828403121561150c57600080fd5b8135610bc7816114b9565b60008060006060848603121561152c57600080fd5b8335611537816114b9565b92506020840135611547816114b9565b929592945050506040919091013590565b6000806040838503121561156b57600080fd5b8235611576816114b9565b91506020830135801515811461158b57600080fd5b809150509250929050565b634e487b7160e01b600052604160045260246000fd5b600080600080608085870312156115c257600080fd5b84356115cd816114b9565b935060208501356115dd816114b9565b925060408501359150606085013567ffffffffffffffff8082111561160157600080fd5b818701915087601f83011261161557600080fd5b81358181111561162757611627611596565b604051601f8201601f19908116603f0116810190838211818310171561164f5761164f611596565b816040528281528a602084870101111561166857600080fd5b82602086016020830137600060208483010152809550505050505092959194509250565b6000806040838503121561169f57600080fd5b82356116aa816114b9565b9150602083013561158b816114b9565b600181811c908216806116ce57607f821691505b6020821081036116ee57634e487b7160e01b600052602260045260246000fd5b50919050565b60006020828403121561170657600080fd5b8151610bc7816114b9565b60006020828403121561172357600080fd5b5051919050565b6000835161173c818460208801611435565b835190830190611750818360208801611435565b01949350505050565b60208082526032908201527f4552433732313a207472616e7366657220746f206e6f6e20455243373231526560408201527131b2b4bb32b91034b6b83632b6b2b73a32b960711b606082015260800190565b60208082526025908201527f4552433732313a207472616e736665722066726f6d20696e636f72726563742060408201526437bbb732b960d91b606082015260800190565b6001600160a01b038581168252841660208201526040810183905260806060820181905260009061182390830184611461565b9695505050505050565b60006020828403121561183f57600080fd5b8151610bc781611402565b634e487b7160e01b600052601160045260246000fd5b6000828210156118725761187261184a565b500390565b6000821982111561188a5761188a61184a565b50019056fea264697066735822122055c8c92ad507b618e322673d7b53e31c87312308dcf66617b179c4ee9a8e435d64736f6c634300080d0033",
  "immutableReferences": {},
  "source": "// SPDX-License-Identifier: MIT\npragma solidity ^0.8.13;\n\nimport \"./TokenOwnership.sol\";\nimport \"../node_modules/@openzeppelin/contracts/access/Ownable.sol\";\nimport \"../node_modules/@openzeppelin/contracts/token/ERC721/ERC721.sol\";\n\n\ncontract ChassisOwnership is ERC721, Ownable {\n    TokenOwnership tokenOwnership;\n\n    constructor() ERC721(\"ChassisBucks\", \"HBX\"){}\n\n    function init(address tokenOwnershipAddress) public onlyOwner{\n        tokenOwnership = TokenOwnership(tokenOwnershipAddress);\n    }\n\n    function balanceOf(address _owner) override public view returns (uint256){\n        return tokenOwnership.balanceOfChassis(_owner);\n    }\n    function ownerOf(uint256 _tokenId) override public view returns (address){\n        return tokenOwnership.ownerOfChassis(_tokenId);\n    }\n\n    function getApproved(uint256 _tokenId) override public view returns(address) {\n        return tokenOwnership.chassisApprovals(_tokenId);\n    }\n\n    function transferFrom(address _from, address _to, uint256 _tokenId) override public {\n        require(getApproved(_tokenId) == _to, \"you didn't pay for the token!\");\n        tokenOwnership.transferChassisFrom(_from, _to, _tokenId);\n        emit Transfer(_from, _to, _tokenId);\n    }\n\n    function buyFromMarketplace(uint256 _tokenId) public payable{\n        require(tokenOwnership.chassisToPrice(_tokenId)!=0, \"not for sale!\");\n        require(msg.value == tokenOwnership.chassisToPrice(_tokenId), \"val wrong\");\n        require(ownerOf(_tokenId) != msg.sender, \"cant buy yours\");\n\n        tokenOwnership.approveChassis(msg.sender, _tokenId);\n        emit Approval(ownerOf(_tokenId), msg.sender, _tokenId);\n\n        payable(ownerOf(_tokenId)).transfer(msg.value);\n        transferFrom(ownerOf(_tokenId), msg.sender, _tokenId);\n    }\n\n}",
  "sourcePath": "/Users/vvan/Programming/JavaScript/DriveSafely/contract/contracts/ChassisOwnership.sol",
  "compiler": {
    "name": "solc",
    "version": "0.8.13+commit.abaa5c0e.Emscripten.clang"
  },
  "schemaVersion": "3.4.11",
  "updatedAt": "2023-01-11T07:58:12.092Z",
  "networkType": "ethereum",
  "devdoc": {
    "kind": "dev",
    "methods": {
      "approve(address,uint256)": {
        "details": "See {IERC721-approve}."
      },
      "isApprovedForAll(address,address)": {
        "details": "See {IERC721-isApprovedForAll}."
      },
      "name()": {
        "details": "See {IERC721Metadata-name}."
      },
      "owner()": {
        "details": "Returns the address of the current owner."
      },
      "renounceOwnership()": {
        "details": "Leaves the contract without owner. It will not be possible to call `onlyOwner` functions anymore. Can only be called by the current owner. NOTE: Renouncing ownership will leave the contract without an owner, thereby removing any functionality that is only available to the owner."
      },
      "safeTransferFrom(address,address,uint256)": {
        "details": "See {IERC721-safeTransferFrom}."
      },
      "safeTransferFrom(address,address,uint256,bytes)": {
        "details": "See {IERC721-safeTransferFrom}."
      },
      "setApprovalForAll(address,bool)": {
        "details": "See {IERC721-setApprovalForAll}."
      },
      "supportsInterface(bytes4)": {
        "details": "See {IERC165-supportsInterface}."
      },
      "symbol()": {
        "details": "See {IERC721Metadata-symbol}."
      },
      "tokenURI(uint256)": {
        "details": "See {IERC721Metadata-tokenURI}."
      },
      "transferOwnership(address)": {
        "details": "Transfers ownership of the contract to a new account (`newOwner`). Can only be called by the current owner."
      }
    },
    "version": 1
  },
  "userdoc": {
    "kind": "user",
    "methods": {},
    "version": 1
  }
}