{
  "contractName": "ChassisOwnership",
  "abi": [
    {
      "inputs": [],
      "stateMutability": "nonpayable",
      "type": "constructor"
    },
    {
      "anonymous": false,
      "inputs": [
        {
          "indexed": true,
          "internalType": "address",
          "name": "owner",
          "type": "address"
        },
        {
          "indexed": true,
          "internalType": "address",
          "name": "approved",
          "type": "address"
        },
        {
          "indexed": true,
          "internalType": "uint256",
          "name": "tokenId",
          "type": "uint256"
        }
      ],
      "name": "Approval",
      "type": "event"
    },
    {
      "anonymous": false,
      "inputs": [
        {
          "indexed": true,
          "internalType": "address",
          "name": "owner",
          "type": "address"
        },
        {
          "indexed": true,
          "internalType": "address",
          "name": "operator",
          "type": "address"
        },
        {
          "indexed": false,
          "internalType": "bool",
          "name": "approved",
          "type": "bool"
        }
      ],
      "name": "ApprovalForAll",
      "type": "event"
    },
    {
      "anonymous": false,
      "inputs": [
        {
          "indexed": true,
          "internalType": "address",
          "name": "previousOwner",
          "type": "address"
        },
        {
          "indexed": true,
          "internalType": "address",
          "name": "newOwner",
          "type": "address"
        }
      ],
      "name": "OwnershipTransferred",
      "type": "event"
    },
    {
      "anonymous": false,
      "inputs": [
        {
          "indexed": true,
          "internalType": "address",
          "name": "from",
          "type": "address"
        },
        {
          "indexed": true,
          "internalType": "address",
          "name": "to",
          "type": "address"
        },
        {
          "indexed": true,
          "internalType": "uint256",
          "name": "tokenId",
          "type": "uint256"
        }
      ],
      "name": "Transfer",
      "type": "event"
    },
    {
      "inputs": [
        {
          "internalType": "address",
          "name": "to",
          "type": "address"
        },
        {
          "internalType": "uint256",
          "name": "tokenId",
          "type": "uint256"
        }
      ],
      "name": "approve",
      "outputs": [],
      "stateMutability": "nonpayable",
      "type": "function"
    },
    {
      "inputs": [
        {
          "internalType": "uint256",
          "name": "tokenId",
          "type": "uint256"
        }
      ],
      "name": "getApproved",
      "outputs": [
        {
          "internalType": "address",
          "name": "",
          "type": "address"
        }
      ],
      "stateMutability": "view",
      "type": "function",
      "constant": true
    },
    {
      "inputs": [
        {
          "internalType": "address",
          "name": "owner",
          "type": "address"
        },
        {
          "internalType": "address",
          "name": "operator",
          "type": "address"
        }
      ],
      "name": "isApprovedForAll",
      "outputs": [
        {
          "internalType": "bool",
          "name": "",
          "type": "bool"
        }
      ],
      "stateMutability": "view",
      "type": "function",
      "constant": true
    },
    {
      "inputs": [],
      "name": "name",
      "outputs": [
        {
          "internalType": "string",
          "name": "",
          "type": "string"
        }
      ],
      "stateMutability": "view",
      "type": "function",
      "constant": true
    },
    {
      "inputs": [],
      "name": "owner",
      "outputs": [
        {
          "internalType": "address",
          "name": "",
          "type": "address"
        }
      ],
      "stateMutability": "view",
      "type": "function",
      "constant": true
    },
    {
      "inputs": [],
      "name": "renounceOwnership",
      "outputs": [],
      "stateMutability": "nonpayable",
      "type": "function"
    },
    {
      "inputs": [
        {
          "internalType": "address",
          "name": "from",
          "type": "address"
        },
        {
          "internalType": "address",
          "name": "to",
          "type": "address"
        },
        {
          "internalType": "uint256",
          "name": "tokenId",
          "type": "uint256"
        }
      ],
      "name": "safeTransferFrom",
      "outputs": [],
      "stateMutability": "nonpayable",
      "type": "function"
    },
    {
      "inputs": [
        {
          "internalType": "address",
          "name": "from",
          "type": "address"
        },
        {
          "internalType": "address",
          "name": "to",
          "type": "address"
        },
        {
          "internalType": "uint256",
          "name": "tokenId",
          "type": "uint256"
        },
        {
          "internalType": "bytes",
          "name": "data",
          "type": "bytes"
        }
      ],
      "name": "safeTransferFrom",
      "outputs": [],
      "stateMutability": "nonpayable",
      "type": "function"
    },
    {
      "inputs": [
        {
          "internalType": "address",
          "name": "operator",
          "type": "address"
        },
        {
          "internalType": "bool",
          "name": "approved",
          "type": "bool"
        }
      ],
      "name": "setApprovalForAll",
      "outputs": [],
      "stateMutability": "nonpayable",
      "type": "function"
    },
    {
      "inputs": [
        {
          "internalType": "bytes4",
          "name": "interfaceId",
          "type": "bytes4"
        }
      ],
      "name": "supportsInterface",
      "outputs": [
        {
          "internalType": "bool",
          "name": "",
          "type": "bool"
        }
      ],
      "stateMutability": "view",
      "type": "function",
      "constant": true
    },
    {
      "inputs": [],
      "name": "symbol",
      "outputs": [
        {
          "internalType": "string",
          "name": "",
          "type": "string"
        }
      ],
      "stateMutability": "view",
      "type": "function",
      "constant": true
    },
    {
      "inputs": [
        {
          "internalType": "uint256",
          "name": "tokenId",
          "type": "uint256"
        }
      ],
      "name": "tokenURI",
      "outputs": [
        {
          "internalType": "string",
          "name": "",
          "type": "string"
        }
      ],
      "stateMutability": "view",
      "type": "function",
      "constant": true
    },
    {
      "inputs": [
        {
          "internalType": "address",
          "name": "newOwner",
          "type": "address"
        }
      ],
      "name": "transferOwnership",
      "outputs": [],
      "stateMutability": "nonpayable",
      "type": "function"
    },
    {
      "inputs": [
        {
          "internalType": "address",
          "name": "tokenOwnershipAddress",
          "type": "address"
        }
      ],
      "name": "init",
      "outputs": [],
      "stateMutability": "nonpayable",
      "type": "function"
    },
    {
      "inputs": [
        {
          "internalType": "address",
          "name": "_owner",
          "type": "address"
        }
      ],
      "name": "balanceOf",
      "outputs": [
        {
          "internalType": "uint256",
          "name": "",
          "type": "uint256"
        }
      ],
      "stateMutability": "view",
      "type": "function",
      "constant": true
    },
    {
      "inputs": [
        {
          "internalType": "uint256",
          "name": "_tokenId",
          "type": "uint256"
        }
      ],
      "name": "ownerOf",
      "outputs": [
        {
          "internalType": "address",
          "name": "",
          "type": "address"
        }
      ],
      "stateMutability": "view",
      "type": "function",
      "constant": true
    },
    {
      "inputs": [
        {
          "internalType": "address",
          "name": "_from",
          "type": "address"
        },
        {
          "internalType": "address",
          "name": "_to",
          "type": "address"
        },
        {
          "internalType": "uint256",
          "name": "_tokenId",
          "type": "uint256"
        }
      ],
      "name": "transferFrom",
      "outputs": [],
      "stateMutability": "nonpayable",
      "type": "function"
    },
    {
      "inputs": [
        {
          "internalType": "uint256",
          "name": "_tokenId",
          "type": "uint256"
        }
      ],
      "name": "buyFromMarketplace",
      "outputs": [],
      "stateMutability": "payable",
      "type": "function",
      "payable": true
    }
  ],
  "bytecode": "0x60806040523480156200001157600080fd5b50604080518082018252600c81526b436861737369734275636b7360a01b60208083019182528351808501909452600384526209084b60eb1b9084015281519192916200006191600091620000f0565b50805162000077906001906020840190620000f0565b505050620000946200008e6200009a60201b60201c565b6200009e565b620001d2565b3390565b600680546001600160a01b038381166001600160a01b0319831681179093556040519116919082907f8be0079c531659141344cd1fd0a4f28419497f9722a3daafe3b4186f6b6457e090600090a35050565b828054620000fe9062000196565b90600052602060002090601f0160209004810192826200012257600085556200016d565b82601f106200013d57805160ff19168380011785556200016d565b828001600101855582156200016d579182015b828111156200016d57825182559160200191906001019062000150565b506200017b9291506200017f565b5090565b5b808211156200017b576000815560010162000180565b600181811c90821680620001ab57607f821691505b602082108103620001cc57634e487b7160e01b600052602260045260246000fd5b50919050565b6118cd80620001e26000396000f3fe6080604052600436106101095760003560e01c8063715018a611610095578063b88d4fde11610064578063b88d4fde146102d5578063c712ecef146102f5578063c87b56dd14610308578063e985e9c514610328578063f2fde38b1461037157600080fd5b8063715018a61461026d5780638da5cb5b1461028257806395d89b41146102a0578063a22cb465146102b557600080fd5b806319ab453c116100dc57806319ab453c146101bf57806323b872dd146101df57806342842e0e146101ff5780636352211e1461021f57806370a082311461023f57600080fd5b806301ffc9a71461010e57806306fdde0314610143578063081812fc14610165578063095ea7b31461019d575b600080fd5b34801561011a57600080fd5b5061012e610129366004611420565b610391565b60405190151581526020015b60405180910390f35b34801561014f57600080fd5b506101586103e3565b60405161013a9190611495565b34801561017157600080fd5b506101856101803660046114a8565b610475565b6040516001600160a01b03909116815260200161013a565b3480156101a957600080fd5b506101bd6101b83660046114d6565b61049c565b005b3480156101cb57600080fd5b506101bd6101da366004611502565b6105b6565b3480156101eb57600080fd5b506101bd6101fa36600461151f565b6105e0565b34801561020b57600080fd5b506101bd61021a36600461151f565b610694565b34801561022b57600080fd5b5061018561023a3660046114a8565b6106af565b34801561024b57600080fd5b5061025f61025a366004611502565b61071d565b60405190815260200161013a565b34801561027957600080fd5b506101bd61078c565b34801561028e57600080fd5b506006546001600160a01b0316610185565b3480156102ac57600080fd5b506101586107a0565b3480156102c157600080fd5b506101bd6102d0366004611560565b6107af565b3480156102e157600080fd5b506101bd6102f03660046115b4565b6107be565b6101bd6103033660046114a8565b61083c565b34801561031457600080fd5b506101586103233660046114a8565b610b62565b34801561033457600080fd5b5061012e610343366004611694565b6001600160a01b03918216600090815260056020908152604080832093909416825291909152205460ff1690565b34801561037d57600080fd5b506101bd61038c366004611502565b610bd6565b60006001600160e01b031982166380ac58cd60e01b14806103c257506001600160e01b03198216635b5e139f60e01b145b806103dd57506301ffc9a760e01b6001600160e01b03198316145b92915050565b6060600080546103f2906116c2565b80601f016020809104026020016040519081016040528092919081815260200182805461041e906116c2565b801561046b5780601f106104405761010080835404028352916020019161046b565b820191906000526020600020905b81548152906001019060200180831161044e57829003601f168201915b5050505050905090565b600061048082610c4c565b506000908152600460205260409020546001600160a01b031690565b60006104a782610cab565b9050806001600160a01b0316836001600160a01b0316036105195760405162461bcd60e51b815260206004820152602160248201527f4552433732313a20617070726f76616c20746f2063757272656e74206f776e656044820152603960f91b60648201526084015b60405180910390fd5b336001600160a01b038216148061053557506105358133610343565b6105a75760405162461bcd60e51b815260206004820152603d60248201527f4552433732313a20617070726f76652063616c6c6572206973206e6f7420746f60448201527f6b656e206f776e6572206f7220617070726f76656420666f7220616c6c0000006064820152608401610510565b6105b18383610d0b565b505050565b6105be610d79565b600780546001600160a01b0319166001600160a01b0392909216919091179055565b60075460405163f66911b160e01b81526001600160a01b0385811660048301528481166024830152604482018490529091169063f66911b190606401600060405180830381600087803b15801561063657600080fd5b505af115801561064a573d6000803e3d6000fd5b5050505080826001600160a01b0316846001600160a01b03167fddf252ad1be2c89b69c2b068fc378daa952ba7f163c4a11628f55a4df523b3ef60405160405180910390a4505050565b6105b1838383604051806020016040528060008152506107be565b600754604051635c426aff60e01b8152600481018390526000916001600160a01b031690635c426aff90602401602060405180830381865afa1580156106f9573d6000803e3d6000fd5b505050506040513d601f19601f820116820180604052508101906103dd91906116fc565b60075460405163254dc06560e01b81526001600160a01b038381166004830152600092169063254dc06590602401602060405180830381865afa158015610768573d6000803e3d6000fd5b505050506040513d601f19601f820116820180604052508101906103dd9190611719565b610794610d79565b61079e6000610dd3565b565b6060600180546103f2906116c2565b6107ba338383610e25565b5050565b6107c83383610ef3565b61082a5760405162461bcd60e51b815260206004820152602d60248201527f4552433732313a2063616c6c6572206973206e6f7420746f6b656e206f776e6560448201526c1c881bdc88185c1c1c9bdd9959609a1b6064820152608401610510565b61083684848484610f72565b50505050565b6007546040516302805dbf60e21b8152600481018390526001600160a01b0390911690630a0176fc90602401602060405180830381865afa158015610885573d6000803e3d6000fd5b505050506040513d601f19601f820116820180604052508101906108a99190611719565b6000036108e85760405162461bcd60e51b815260206004820152600d60248201526c6e6f7420666f722073616c652160981b6044820152606401610510565b6007546040516302805dbf60e21b8152600481018390526001600160a01b0390911690630a0176fc90602401602060405180830381865afa158015610931573d6000803e3d6000fd5b505050506040513d601f19601f820116820180604052508101906109559190611719565b341461098f5760405162461bcd60e51b815260206004820152600960248201526876616c2077726f6e6760b81b6044820152606401610510565b600754604051630449014960e41b81526004810183905233916001600160a01b031690634490149090602401602060405180830381865afa1580156109d8573d6000803e3d6000fd5b505050506040513d601f19601f820116820180604052508101906109fc91906116fc565b6001600160a01b031603610a435760405162461bcd60e51b815260206004820152600e60248201526d63616e742062757920796f75727360901b6044820152606401610510565b600754604051630449014960e41b8152600481018390526001600160a01b0390911690634490149090602401602060405180830381865afa158015610a8c573d6000803e3d6000fd5b505050506040513d601f19601f82011682018060405250810190610ab091906116fc565b6001600160a01b03166108fc349081150290604051600060405180830381858888f19350505050158015610ae8573d6000803e3d6000fd5b50600754604051630449014960e41b815260048101839052610b5f916001600160a01b031690634490149090602401602060405180830381865afa158015610b34573d6000803e3d6000fd5b505050506040513d601f19601f82011682018060405250810190610b5891906116fc565b33836105e0565b50565b6060610b6d82610c4c565b6000610b8460408051602081019091526000815290565b90506000815111610ba45760405180602001604052806000815250610bcf565b80610bae84610fa5565b604051602001610bbf929190611732565b6040516020818303038152906040525b9392505050565b610bde610d79565b6001600160a01b038116610c435760405162461bcd60e51b815260206004820152602660248201527f4f776e61626c653a206e6577206f776e657220697320746865207a65726f206160448201526564647265737360d01b6064820152608401610510565b610b5f81610dd3565b6000818152600260205260409020546001600160a01b0316610b5f5760405162461bcd60e51b8152602060048201526018602482015277115490cdcc8c4e881a5b9d985b1a59081d1bdad95b88125160421b6044820152606401610510565b6000818152600260205260408120546001600160a01b0316806103dd5760405162461bcd60e51b8152602060048201526018602482015277115490cdcc8c4e881a5b9d985b1a59081d1bdad95b88125160421b6044820152606401610510565b600081815260046020526040902080546001600160a01b0319166001600160a01b0384169081179091558190610d4082610cab565b6001600160a01b03167f8c5be1e5ebec7d5bd14f71427d1e84f3dd0314c0f7b2291e5b200ac8c7c3b92560405160405180910390a45050565b6006546001600160a01b0316331461079e5760405162461bcd60e51b815260206004820181905260248201527f4f776e61626c653a2063616c6c6572206973206e6f7420746865206f776e65726044820152606401610510565b600680546001600160a01b038381166001600160a01b0319831681179093556040519116919082907f8be0079c531659141344cd1fd0a4f28419497f9722a3daafe3b4186f6b6457e090600090a35050565b816001600160a01b0316836001600160a01b031603610e865760405162461bcd60e51b815260206004820152601960248201527f4552433732313a20617070726f766520746f2063616c6c6572000000000000006044820152606401610510565b6001600160a01b03838116600081815260056020908152604080832094871680845294825291829020805460ff191686151590811790915591519182527f17307eab39ab6107e8899845ad3d59bd9653f200f220920489ca2b5937696c31910160405180910390a3505050565b600080610eff83610cab565b9050806001600160a01b0316846001600160a01b03161480610f4657506001600160a01b0380821660009081526005602090815260408083209388168352929052205460ff165b80610f6a5750836001600160a01b0316610f5f84610475565b6001600160a01b0316145b949350505050565b610f7d848484611038565b610f89848484846111a9565b6108365760405162461bcd60e51b815260040161051090611761565b60606000610fb2836112aa565b600101905060008167ffffffffffffffff811115610fd257610fd261159e565b6040519080825280601f01601f191660200182016040528015610ffc576020820181803683370190505b5090508181016020015b600019016f181899199a1a9b1b9c1cb0b131b232b360811b600a86061a8153600a850494508461100657509392505050565b826001600160a01b031661104b82610cab565b6001600160a01b0316146110715760405162461bcd60e51b8152600401610510906117b3565b6001600160a01b0382166110d35760405162461bcd60e51b8152602060048201526024808201527f4552433732313a207472616e7366657220746f20746865207a65726f206164646044820152637265737360e01b6064820152608401610510565b6110e08383836001611382565b826001600160a01b03166110f382610cab565b6001600160a01b0316146111195760405162461bcd60e51b8152600401610510906117b3565b600081815260046020908152604080832080546001600160a01b03199081169091556001600160a01b0387811680865260038552838620805460001901905590871680865283862080546001019055868652600290945282852080549092168417909155905184937fddf252ad1be2c89b69c2b068fc378daa952ba7f163c4a11628f55a4df523b3ef91a4505050565b60006001600160a01b0384163b1561129f57604051630a85bd0160e11b81526001600160a01b0385169063150b7a02906111ed9033908990889088906004016117f8565b6020604051808303816000875af1925050508015611228575060408051601f3d908101601f1916820190925261122591810190611835565b60015b611285573d808015611256576040519150601f19603f3d011682016040523d82523d6000602084013e61125b565b606091505b50805160000361127d5760405162461bcd60e51b815260040161051090611761565b805181602001fd5b6001600160e01b031916630a85bd0160e11b149050610f6a565b506001949350505050565b60008072184f03e93ff9f4daa797ed6e38ed64bf6a1f0160401b83106112e95772184f03e93ff9f4daa797ed6e38ed64bf6a1f0160401b830492506040015b6d04ee2d6d415b85acef81000000008310611315576d04ee2d6d415b85acef8100000000830492506020015b662386f26fc10000831061133357662386f26fc10000830492506010015b6305f5e100831061134b576305f5e100830492506008015b612710831061135f57612710830492506004015b60648310611371576064830492506002015b600a83106103dd5760010192915050565b6001811115610836576001600160a01b038416156113c8576001600160a01b038416600090815260036020526040812080548392906113c2908490611868565b90915550505b6001600160a01b03831615610836576001600160a01b038316600090815260036020526040812080548392906113ff90849061187f565b909155505050505050565b6001600160e01b031981168114610b5f57600080fd5b60006020828403121561143257600080fd5b8135610bcf8161140a565b60005b83811015611458578181015183820152602001611440565b838111156108365750506000910152565b6000815180845261148181602086016020860161143d565b601f01601f19169290920160200192915050565b602081526000610bcf6020830184611469565b6000602082840312156114ba57600080fd5b5035919050565b6001600160a01b0381168114610b5f57600080fd5b600080604083850312156114e957600080fd5b82356114f4816114c1565b946020939093013593505050565b60006020828403121561151457600080fd5b8135610bcf816114c1565b60008060006060848603121561153457600080fd5b833561153f816114c1565b9250602084013561154f816114c1565b929592945050506040919091013590565b6000806040838503121561157357600080fd5b823561157e816114c1565b91506020830135801515811461159357600080fd5b809150509250929050565b634e487b7160e01b600052604160045260246000fd5b600080600080608085870312156115ca57600080fd5b84356115d5816114c1565b935060208501356115e5816114c1565b925060408501359150606085013567ffffffffffffffff8082111561160957600080fd5b818701915087601f83011261161d57600080fd5b81358181111561162f5761162f61159e565b604051601f8201601f19908116603f011681019083821181831017156116575761165761159e565b816040528281528a602084870101111561167057600080fd5b82602086016020830137600060208483010152809550505050505092959194509250565b600080604083850312156116a757600080fd5b82356116b2816114c1565b91506020830135611593816114c1565b600181811c908216806116d657607f821691505b6020821081036116f657634e487b7160e01b600052602260045260246000fd5b50919050565b60006020828403121561170e57600080fd5b8151610bcf816114c1565b60006020828403121561172b57600080fd5b5051919050565b6000835161174481846020880161143d565b83519083019061175881836020880161143d565b01949350505050565b60208082526032908201527f4552433732313a207472616e7366657220746f206e6f6e20455243373231526560408201527131b2b4bb32b91034b6b83632b6b2b73a32b960711b606082015260800190565b60208082526025908201527f4552433732313a207472616e736665722066726f6d20696e636f72726563742060408201526437bbb732b960d91b606082015260800190565b6001600160a01b038581168252841660208201526040810183905260806060820181905260009061182b90830184611469565b9695505050505050565b60006020828403121561184757600080fd5b8151610bcf8161140a565b634e487b7160e01b600052601160045260246000fd5b60008282101561187a5761187a611852565b500390565b6000821982111561189257611892611852565b50019056fea264697066735822122071448208afad6f21b6342df0a4f10569b7b8e9777e2a58d7f19e5a5a136a779c64736f6c634300080d0033",
  "immutableReferences": {},
  "source": "// SPDX-License-Identifier: MIT\npragma solidity ^0.8.13;\n\nimport \"./TokenOwnership.sol\";\nimport \"../node_modules/@openzeppelin/contracts/access/Ownable.sol\";\nimport \"../node_modules/@openzeppelin/contracts/token/ERC721/ERC721.sol\";\n\n\ncontract ChassisOwnership is ERC721, Ownable{\n    TokenOwnership tokenOwnership;\n\n    constructor() ERC721(\"ChassisBucks\", \"HBX\"){}\n\n    function init(address tokenOwnershipAddress) public onlyOwner{\n        tokenOwnership = TokenOwnership(tokenOwnershipAddress);\n    }\n\n    function balanceOf(address _owner) override public view returns (uint256){\n        return tokenOwnership.balanceOfChassis(_owner);\n    }\n    function ownerOf(uint256 _tokenId) override public view returns (address){\n        return tokenOwnership.ownerOfChassis(_tokenId);\n    }\n    function transferFrom(address _from, address _to, uint256 _tokenId) override public {\n        tokenOwnership.transferChassisFrom(_from, _to, _tokenId);\n        emit Transfer(_from, _to, _tokenId);\n    }\n\n    function buyFromMarketplace(uint256 _tokenId) public payable{\n        //req price!=0\n        require(tokenOwnership.chassisToPrice(_tokenId)!=0, \"not for sale!\");\n        //req msg val\n        require(msg.value == tokenOwnership.chassisToPrice(_tokenId), \"val wrong\");\n        //req sender!=owner\n        require(tokenOwnership.chassisToOwner(_tokenId) != msg.sender, \"cant buy yours\");\n\n        payable(tokenOwnership.chassisToOwner(_tokenId)).transfer(msg.value);\n        transferFrom(tokenOwnership.chassisToOwner(_tokenId), msg.sender, _tokenId);\n    }\n\n}",
  "sourcePath": "/Users/vvan/Programming/JavaScript/DriveSafely/contract/contracts/ChassisOwnership.sol",
  "compiler": {
    "name": "solc",
    "version": "0.8.13+commit.abaa5c0e.Emscripten.clang"
  },
  "schemaVersion": "3.4.11",
  "updatedAt": "2023-01-10T17:28:23.837Z",
  "networkType": "ethereum",
  "devdoc": {
    "kind": "dev",
    "methods": {
      "approve(address,uint256)": {
        "details": "See {IERC721-approve}."
      },
      "getApproved(uint256)": {
        "details": "See {IERC721-getApproved}."
      },
      "isApprovedForAll(address,address)": {
        "details": "See {IERC721-isApprovedForAll}."
      },
      "name()": {
        "details": "See {IERC721Metadata-name}."
      },
      "owner()": {
        "details": "Returns the address of the current owner."
      },
      "renounceOwnership()": {
        "details": "Leaves the contract without owner. It will not be possible to call `onlyOwner` functions anymore. Can only be called by the current owner. NOTE: Renouncing ownership will leave the contract without an owner, thereby removing any functionality that is only available to the owner."
      },
      "safeTransferFrom(address,address,uint256)": {
        "details": "See {IERC721-safeTransferFrom}."
      },
      "safeTransferFrom(address,address,uint256,bytes)": {
        "details": "See {IERC721-safeTransferFrom}."
      },
      "setApprovalForAll(address,bool)": {
        "details": "See {IERC721-setApprovalForAll}."
      },
      "supportsInterface(bytes4)": {
        "details": "See {IERC165-supportsInterface}."
      },
      "symbol()": {
        "details": "See {IERC721Metadata-symbol}."
      },
      "tokenURI(uint256)": {
        "details": "See {IERC721Metadata-tokenURI}."
      },
      "transferOwnership(address)": {
        "details": "Transfers ownership of the contract to a new account (`newOwner`). Can only be called by the current owner."
      }
    },
    "version": 1
  },
  "userdoc": {
    "kind": "user",
    "methods": {},
    "version": 1
  }
}