{
  "contractName": "ChassisOwnership",
  "abi": [
    {
      "inputs": [],
      "stateMutability": "nonpayable",
      "type": "constructor"
    },
    {
      "anonymous": false,
      "inputs": [
        {
          "indexed": true,
          "internalType": "address",
          "name": "owner",
          "type": "address"
        },
        {
          "indexed": true,
          "internalType": "address",
          "name": "approved",
          "type": "address"
        },
        {
          "indexed": true,
          "internalType": "uint256",
          "name": "tokenId",
          "type": "uint256"
        }
      ],
      "name": "Approval",
      "type": "event"
    },
    {
      "anonymous": false,
      "inputs": [
        {
          "indexed": true,
          "internalType": "address",
          "name": "owner",
          "type": "address"
        },
        {
          "indexed": true,
          "internalType": "address",
          "name": "operator",
          "type": "address"
        },
        {
          "indexed": false,
          "internalType": "bool",
          "name": "approved",
          "type": "bool"
        }
      ],
      "name": "ApprovalForAll",
      "type": "event"
    },
    {
      "anonymous": false,
      "inputs": [
        {
          "indexed": true,
          "internalType": "address",
          "name": "previousOwner",
          "type": "address"
        },
        {
          "indexed": true,
          "internalType": "address",
          "name": "newOwner",
          "type": "address"
        }
      ],
      "name": "OwnershipTransferred",
      "type": "event"
    },
    {
      "anonymous": false,
      "inputs": [
        {
          "indexed": true,
          "internalType": "address",
          "name": "from",
          "type": "address"
        },
        {
          "indexed": true,
          "internalType": "address",
          "name": "to",
          "type": "address"
        },
        {
          "indexed": true,
          "internalType": "uint256",
          "name": "tokenId",
          "type": "uint256"
        }
      ],
      "name": "Transfer",
      "type": "event"
    },
    {
      "inputs": [
        {
          "internalType": "uint256",
          "name": "tokenId",
          "type": "uint256"
        }
      ],
      "name": "getApproved",
      "outputs": [
        {
          "internalType": "address",
          "name": "",
          "type": "address"
        }
      ],
      "stateMutability": "view",
      "type": "function"
    },
    {
      "inputs": [
        {
          "internalType": "address",
          "name": "owner",
          "type": "address"
        },
        {
          "internalType": "address",
          "name": "operator",
          "type": "address"
        }
      ],
      "name": "isApprovedForAll",
      "outputs": [
        {
          "internalType": "bool",
          "name": "",
          "type": "bool"
        }
      ],
      "stateMutability": "view",
      "type": "function"
    },
    {
      "inputs": [],
      "name": "name",
      "outputs": [
        {
          "internalType": "string",
          "name": "",
          "type": "string"
        }
      ],
      "stateMutability": "view",
      "type": "function"
    },
    {
      "inputs": [],
      "name": "owner",
      "outputs": [
        {
          "internalType": "address",
          "name": "",
          "type": "address"
        }
      ],
      "stateMutability": "view",
      "type": "function"
    },
    {
      "inputs": [],
      "name": "renounceOwnership",
      "outputs": [],
      "stateMutability": "nonpayable",
      "type": "function"
    },
    {
      "inputs": [
        {
          "internalType": "address",
          "name": "from",
          "type": "address"
        },
        {
          "internalType": "address",
          "name": "to",
          "type": "address"
        },
        {
          "internalType": "uint256",
          "name": "tokenId",
          "type": "uint256"
        }
      ],
      "name": "safeTransferFrom",
      "outputs": [],
      "stateMutability": "nonpayable",
      "type": "function"
    },
    {
      "inputs": [
        {
          "internalType": "address",
          "name": "from",
          "type": "address"
        },
        {
          "internalType": "address",
          "name": "to",
          "type": "address"
        },
        {
          "internalType": "uint256",
          "name": "tokenId",
          "type": "uint256"
        },
        {
          "internalType": "bytes",
          "name": "data",
          "type": "bytes"
        }
      ],
      "name": "safeTransferFrom",
      "outputs": [],
      "stateMutability": "nonpayable",
      "type": "function"
    },
    {
      "inputs": [
        {
          "internalType": "address",
          "name": "operator",
          "type": "address"
        },
        {
          "internalType": "bool",
          "name": "approved",
          "type": "bool"
        }
      ],
      "name": "setApprovalForAll",
      "outputs": [],
      "stateMutability": "nonpayable",
      "type": "function"
    },
    {
      "inputs": [
        {
          "internalType": "bytes4",
          "name": "interfaceId",
          "type": "bytes4"
        }
      ],
      "name": "supportsInterface",
      "outputs": [
        {
          "internalType": "bool",
          "name": "",
          "type": "bool"
        }
      ],
      "stateMutability": "view",
      "type": "function"
    },
    {
      "inputs": [],
      "name": "symbol",
      "outputs": [
        {
          "internalType": "string",
          "name": "",
          "type": "string"
        }
      ],
      "stateMutability": "view",
      "type": "function"
    },
    {
      "inputs": [
        {
          "internalType": "uint256",
          "name": "tokenId",
          "type": "uint256"
        }
      ],
      "name": "tokenURI",
      "outputs": [
        {
          "internalType": "string",
          "name": "",
          "type": "string"
        }
      ],
      "stateMutability": "view",
      "type": "function"
    },
    {
      "inputs": [
        {
          "internalType": "address",
          "name": "newOwner",
          "type": "address"
        }
      ],
      "name": "transferOwnership",
      "outputs": [],
      "stateMutability": "nonpayable",
      "type": "function"
    },
    {
      "inputs": [
        {
          "internalType": "address",
          "name": "tokenOwnershipAddress",
          "type": "address"
        }
      ],
      "name": "init",
      "outputs": [],
      "stateMutability": "nonpayable",
      "type": "function"
    },
    {
      "inputs": [
        {
          "internalType": "address",
          "name": "_owner",
          "type": "address"
        }
      ],
      "name": "balanceOf",
      "outputs": [
        {
          "internalType": "uint256",
          "name": "",
          "type": "uint256"
        }
      ],
      "stateMutability": "view",
      "type": "function"
    },
    {
      "inputs": [
        {
          "internalType": "uint256",
          "name": "_tokenId",
          "type": "uint256"
        }
      ],
      "name": "ownerOf",
      "outputs": [
        {
          "internalType": "address",
          "name": "",
          "type": "address"
        }
      ],
      "stateMutability": "view",
      "type": "function"
    },
    {
      "inputs": [
        {
          "internalType": "address",
          "name": "_from",
          "type": "address"
        },
        {
          "internalType": "address",
          "name": "_to",
          "type": "address"
        },
        {
          "internalType": "uint256",
          "name": "_tokenId",
          "type": "uint256"
        }
      ],
      "name": "transferFrom",
      "outputs": [],
      "stateMutability": "nonpayable",
      "type": "function"
    },
    {
      "inputs": [
        {
          "internalType": "address",
          "name": "_approved",
          "type": "address"
        },
        {
          "internalType": "uint256",
          "name": "_tokenId",
          "type": "uint256"
        }
      ],
      "name": "approve",
      "outputs": [],
      "stateMutability": "nonpayable",
      "type": "function"
    }
  ],
  "bytecode": "0x60806040523480156200001157600080fd5b50604080518082018252600c81526b436861737369734275636b7360a01b60208083019182528351808501909452600384526209084b60eb1b9084015281519192916200006191600091620000f0565b50805162000077906001906020840190620000f0565b505050620000946200008e6200009a60201b60201c565b6200009e565b620001d2565b3390565b600680546001600160a01b038381166001600160a01b0319831681179093556040519116919082907f8be0079c531659141344cd1fd0a4f28419497f9722a3daafe3b4186f6b6457e090600090a35050565b828054620000fe9062000196565b90600052602060002090601f0160209004810192826200012257600085556200016d565b82601f106200013d57805160ff19168380011785556200016d565b828001600101855582156200016d579182015b828111156200016d57825182559160200191906001019062000150565b506200017b9291506200017f565b5090565b5b808211156200017b576000815560010162000180565b600181811c90821680620001ab57607f821691505b602082108103620001cc57634e487b7160e01b600052602260045260246000fd5b50919050565b6113e080620001e26000396000f3fe608060405234801561001057600080fd5b506004361061010b5760003560e01c806370a08231116100a2578063a22cb46511610071578063a22cb4651461021b578063b88d4fde1461022e578063c87b56dd14610241578063e985e9c514610254578063f2fde38b1461029057600080fd5b806370a08231146101d9578063715018a6146101fa5780638da5cb5b1461020257806395d89b411461021357600080fd5b806319ab453c116100de57806319ab453c1461018d57806323b872dd146101a057806342842e0e146101b35780636352211e146101c657600080fd5b806301ffc9a71461011057806306fdde0314610138578063081812fc1461014d578063095ea7b314610178575b600080fd5b61012361011e366004610f33565b6102a3565b60405190151581526020015b60405180910390f35b6101406102f5565b60405161012f9190610fa8565b61016061015b366004610fbb565b610387565b6040516001600160a01b03909116815260200161012f565b61018b610186366004610fe9565b6103ae565b005b61018b61019b366004611015565b610450565b61018b6101ae366004611032565b61047a565b61018b6101c1366004611032565b61052e565b6101606101d4366004610fbb565b61054e565b6101ec6101e7366004611015565b6105bc565b60405190815260200161012f565b61018b61062b565b6006546001600160a01b0316610160565b61014061063f565b61018b610229366004611073565b61064e565b61018b61023c3660046110c7565b61065d565b61014061024f366004610fbb565b6106e0565b6101236102623660046111a7565b6001600160a01b03918216600090815260056020908152604080832093909416825291909152205460ff1690565b61018b61029e366004611015565b610754565b60006001600160e01b031982166380ac58cd60e01b14806102d457506001600160e01b03198216635b5e139f60e01b145b806102ef57506301ffc9a760e01b6001600160e01b03198316145b92915050565b606060008054610304906111d5565b80601f0160208091040260200160405190810160405280929190818152602001828054610330906111d5565b801561037d5780601f106103525761010080835404028352916020019161037d565b820191906000526020600020905b81548152906001019060200180831161036057829003601f168201915b5050505050905090565b6000610392826107cd565b506000908152600460205260409020546001600160a01b031690565b600754604051631e85ab9b60e01b81526001600160a01b0384811660048301526024820184905290911690631e85ab9b90604401600060405180830381600087803b1580156103fc57600080fd5b505af1158015610410573d6000803e3d6000fd5b50506040518392506001600160a01b038516915033907f8c5be1e5ebec7d5bd14f71427d1e84f3dd0314c0f7b2291e5b200ac8c7c3b92590600090a45050565b61045861082c565b600780546001600160a01b0319166001600160a01b0392909216919091179055565b60075460405163f66911b160e01b81526001600160a01b0385811660048301528481166024830152604482018490529091169063f66911b190606401600060405180830381600087803b1580156104d057600080fd5b505af11580156104e4573d6000803e3d6000fd5b5050505080826001600160a01b0316846001600160a01b03167fddf252ad1be2c89b69c2b068fc378daa952ba7f163c4a11628f55a4df523b3ef60405160405180910390a4505050565b6105498383836040518060200160405280600081525061065d565b505050565b600754604051635c426aff60e01b8152600481018390526000916001600160a01b031690635c426aff90602401602060405180830381865afa158015610598573d6000803e3d6000fd5b505050506040513d601f19601f820116820180604052508101906102ef919061120f565b60075460405163254dc06560e01b81526001600160a01b038381166004830152600092169063254dc06590602401602060405180830381865afa158015610607573d6000803e3d6000fd5b505050506040513d601f19601f820116820180604052508101906102ef919061122c565b61063361082c565b61063d6000610886565b565b606060018054610304906111d5565b6106593383836108d8565b5050565b61066733836109a6565b6106ce5760405162461bcd60e51b815260206004820152602d60248201527f4552433732313a2063616c6c6572206973206e6f7420746f6b656e206f776e6560448201526c1c881bdc88185c1c1c9bdd9959609a1b60648201526084015b60405180910390fd5b6106da84848484610a25565b50505050565b60606106eb826107cd565b600061070260408051602081019091526000815290565b90506000815111610722576040518060200160405280600081525061074d565b8061072c84610a58565b60405160200161073d929190611245565b6040516020818303038152906040525b9392505050565b61075c61082c565b6001600160a01b0381166107c15760405162461bcd60e51b815260206004820152602660248201527f4f776e61626c653a206e6577206f776e657220697320746865207a65726f206160448201526564647265737360d01b60648201526084016106c5565b6107ca81610886565b50565b6000818152600260205260409020546001600160a01b03166107ca5760405162461bcd60e51b8152602060048201526018602482015277115490cdcc8c4e881a5b9d985b1a59081d1bdad95b88125160421b60448201526064016106c5565b6006546001600160a01b0316331461063d5760405162461bcd60e51b815260206004820181905260248201527f4f776e61626c653a2063616c6c6572206973206e6f7420746865206f776e657260448201526064016106c5565b600680546001600160a01b038381166001600160a01b0319831681179093556040519116919082907f8be0079c531659141344cd1fd0a4f28419497f9722a3daafe3b4186f6b6457e090600090a35050565b816001600160a01b0316836001600160a01b0316036109395760405162461bcd60e51b815260206004820152601960248201527f4552433732313a20617070726f766520746f2063616c6c65720000000000000060448201526064016106c5565b6001600160a01b03838116600081815260056020908152604080832094871680845294825291829020805460ff191686151590811790915591519182527f17307eab39ab6107e8899845ad3d59bd9653f200f220920489ca2b5937696c31910160405180910390a3505050565b6000806109b283610aeb565b9050806001600160a01b0316846001600160a01b031614806109f957506001600160a01b0380821660009081526005602090815260408083209388168352929052205460ff165b80610a1d5750836001600160a01b0316610a1284610387565b6001600160a01b0316145b949350505050565b610a30848484610b4b565b610a3c84848484610cbc565b6106da5760405162461bcd60e51b81526004016106c590611274565b60606000610a6583610dbd565b600101905060008167ffffffffffffffff811115610a8557610a856110b1565b6040519080825280601f01601f191660200182016040528015610aaf576020820181803683370190505b5090508181016020015b600019016f181899199a1a9b1b9c1cb0b131b232b360811b600a86061a8153600a8504945084610ab957509392505050565b6000818152600260205260408120546001600160a01b0316806102ef5760405162461bcd60e51b8152602060048201526018602482015277115490cdcc8c4e881a5b9d985b1a59081d1bdad95b88125160421b60448201526064016106c5565b826001600160a01b0316610b5e82610aeb565b6001600160a01b031614610b845760405162461bcd60e51b81526004016106c5906112c6565b6001600160a01b038216610be65760405162461bcd60e51b8152602060048201526024808201527f4552433732313a207472616e7366657220746f20746865207a65726f206164646044820152637265737360e01b60648201526084016106c5565b610bf38383836001610e95565b826001600160a01b0316610c0682610aeb565b6001600160a01b031614610c2c5760405162461bcd60e51b81526004016106c5906112c6565b600081815260046020908152604080832080546001600160a01b03199081169091556001600160a01b0387811680865260038552838620805460001901905590871680865283862080546001019055868652600290945282852080549092168417909155905184937fddf252ad1be2c89b69c2b068fc378daa952ba7f163c4a11628f55a4df523b3ef91a4505050565b60006001600160a01b0384163b15610db257604051630a85bd0160e11b81526001600160a01b0385169063150b7a0290610d0090339089908890889060040161130b565b6020604051808303816000875af1925050508015610d3b575060408051601f3d908101601f19168201909252610d3891810190611348565b60015b610d98573d808015610d69576040519150601f19603f3d011682016040523d82523d6000602084013e610d6e565b606091505b508051600003610d905760405162461bcd60e51b81526004016106c590611274565b805181602001fd5b6001600160e01b031916630a85bd0160e11b149050610a1d565b506001949350505050565b60008072184f03e93ff9f4daa797ed6e38ed64bf6a1f0160401b8310610dfc5772184f03e93ff9f4daa797ed6e38ed64bf6a1f0160401b830492506040015b6d04ee2d6d415b85acef81000000008310610e28576d04ee2d6d415b85acef8100000000830492506020015b662386f26fc100008310610e4657662386f26fc10000830492506010015b6305f5e1008310610e5e576305f5e100830492506008015b6127108310610e7257612710830492506004015b60648310610e84576064830492506002015b600a83106102ef5760010192915050565b60018111156106da576001600160a01b03841615610edb576001600160a01b03841660009081526003602052604081208054839290610ed590849061137b565b90915550505b6001600160a01b038316156106da576001600160a01b03831660009081526003602052604081208054839290610f12908490611392565b909155505050505050565b6001600160e01b0319811681146107ca57600080fd5b600060208284031215610f4557600080fd5b813561074d81610f1d565b60005b83811015610f6b578181015183820152602001610f53565b838111156106da5750506000910152565b60008151808452610f94816020860160208601610f50565b601f01601f19169290920160200192915050565b60208152600061074d6020830184610f7c565b600060208284031215610fcd57600080fd5b5035919050565b6001600160a01b03811681146107ca57600080fd5b60008060408385031215610ffc57600080fd5b823561100781610fd4565b946020939093013593505050565b60006020828403121561102757600080fd5b813561074d81610fd4565b60008060006060848603121561104757600080fd5b833561105281610fd4565b9250602084013561106281610fd4565b929592945050506040919091013590565b6000806040838503121561108657600080fd5b823561109181610fd4565b9150602083013580151581146110a657600080fd5b809150509250929050565b634e487b7160e01b600052604160045260246000fd5b600080600080608085870312156110dd57600080fd5b84356110e881610fd4565b935060208501356110f881610fd4565b925060408501359150606085013567ffffffffffffffff8082111561111c57600080fd5b818701915087601f83011261113057600080fd5b813581811115611142576111426110b1565b604051601f8201601f19908116603f0116810190838211818310171561116a5761116a6110b1565b816040528281528a602084870101111561118357600080fd5b82602086016020830137600060208483010152809550505050505092959194509250565b600080604083850312156111ba57600080fd5b82356111c581610fd4565b915060208301356110a681610fd4565b600181811c908216806111e957607f821691505b60208210810361120957634e487b7160e01b600052602260045260246000fd5b50919050565b60006020828403121561122157600080fd5b815161074d81610fd4565b60006020828403121561123e57600080fd5b5051919050565b60008351611257818460208801610f50565b83519083019061126b818360208801610f50565b01949350505050565b60208082526032908201527f4552433732313a207472616e7366657220746f206e6f6e20455243373231526560408201527131b2b4bb32b91034b6b83632b6b2b73a32b960711b606082015260800190565b60208082526025908201527f4552433732313a207472616e736665722066726f6d20696e636f72726563742060408201526437bbb732b960d91b606082015260800190565b6001600160a01b038581168252841660208201526040810183905260806060820181905260009061133e90830184610f7c565b9695505050505050565b60006020828403121561135a57600080fd5b815161074d81610f1d565b634e487b7160e01b600052601160045260246000fd5b60008282101561138d5761138d611365565b500390565b600082198211156113a5576113a5611365565b50019056fea26469706673582212206de0589a6fdc8f36b0106ef95350b332bf6d446e0419493e932d574e5d37af7564736f6c634300080d0033",
  "immutableReferences": {},
  "source": "// SPDX-License-Identifier: MIT\npragma solidity ^0.8.13;\n\nimport \"./TokenOwnership.sol\";\nimport \"../node_modules/@openzeppelin/contracts/access/Ownable.sol\";\nimport \"../node_modules/@openzeppelin/contracts/token/ERC721/ERC721.sol\";\n\n\ncontract ChassisOwnership is ERC721, Ownable{\n    TokenOwnership tokenOwnership;\n\n    constructor() ERC721(\"ChassisBucks\", \"HBX\"){}\n\n    function init(address tokenOwnershipAddress) public onlyOwner{\n        tokenOwnership = TokenOwnership(tokenOwnershipAddress);\n    }\n\n    function balanceOf(address _owner) override public view returns (uint256){\n        return tokenOwnership.balanceOfChassis(_owner);\n    }\n    function ownerOf(uint256 _tokenId) override public view returns (address){\n        return tokenOwnership.ownerOfChassis(_tokenId);\n    }\n    function transferFrom(address _from, address _to, uint256 _tokenId) override public {\n        tokenOwnership.transferChassisFrom(_from, _to, _tokenId);\n        emit Transfer(_from, _to, _tokenId);\n    }\n    function approve(address _approved, uint256 _tokenId) override public{\n        tokenOwnership.approveChassis(_approved, _tokenId);\n        emit Approval(msg.sender, _approved, _tokenId);\n    }\n\n}",
  "sourcePath": "/Users/vvan/Programming/JavaScript/DriveSafely/contract/contracts/ChassisOwnership.sol",
  "compiler": {
    "name": "solc",
    "version": "0.8.13+commit.abaa5c0e.Emscripten.clang"
  },
  "schemaVersion": "3.4.11",
  "updatedAt": "2023-01-10T06:48:30.850Z",
  "devdoc": {
    "kind": "dev",
    "methods": {
      "getApproved(uint256)": {
        "details": "See {IERC721-getApproved}."
      },
      "isApprovedForAll(address,address)": {
        "details": "See {IERC721-isApprovedForAll}."
      },
      "name()": {
        "details": "See {IERC721Metadata-name}."
      },
      "owner()": {
        "details": "Returns the address of the current owner."
      },
      "renounceOwnership()": {
        "details": "Leaves the contract without owner. It will not be possible to call `onlyOwner` functions anymore. Can only be called by the current owner. NOTE: Renouncing ownership will leave the contract without an owner, thereby removing any functionality that is only available to the owner."
      },
      "safeTransferFrom(address,address,uint256)": {
        "details": "See {IERC721-safeTransferFrom}."
      },
      "safeTransferFrom(address,address,uint256,bytes)": {
        "details": "See {IERC721-safeTransferFrom}."
      },
      "setApprovalForAll(address,bool)": {
        "details": "See {IERC721-setApprovalForAll}."
      },
      "supportsInterface(bytes4)": {
        "details": "See {IERC165-supportsInterface}."
      },
      "symbol()": {
        "details": "See {IERC721Metadata-symbol}."
      },
      "tokenURI(uint256)": {
        "details": "See {IERC721Metadata-tokenURI}."
      },
      "transferOwnership(address)": {
        "details": "Transfers ownership of the contract to a new account (`newOwner`). Can only be called by the current owner."
      }
    },
    "version": 1
  },
  "userdoc": {
    "kind": "user",
    "methods": {},
    "version": 1
  }
}