{
  "contractName": "ChassisOwnership",
  "abi": [
    {
      "inputs": [],
      "stateMutability": "nonpayable",
      "type": "constructor"
    },
    {
      "anonymous": false,
      "inputs": [
        {
          "indexed": true,
          "internalType": "address",
          "name": "owner",
          "type": "address"
        },
        {
          "indexed": true,
          "internalType": "address",
          "name": "approved",
          "type": "address"
        },
        {
          "indexed": true,
          "internalType": "uint256",
          "name": "tokenId",
          "type": "uint256"
        }
      ],
      "name": "Approval",
      "type": "event"
    },
    {
      "anonymous": false,
      "inputs": [
        {
          "indexed": true,
          "internalType": "address",
          "name": "owner",
          "type": "address"
        },
        {
          "indexed": true,
          "internalType": "address",
          "name": "operator",
          "type": "address"
        },
        {
          "indexed": false,
          "internalType": "bool",
          "name": "approved",
          "type": "bool"
        }
      ],
      "name": "ApprovalForAll",
      "type": "event"
    },
    {
      "anonymous": false,
      "inputs": [
        {
          "indexed": true,
          "internalType": "address",
          "name": "previousOwner",
          "type": "address"
        },
        {
          "indexed": true,
          "internalType": "address",
          "name": "newOwner",
          "type": "address"
        }
      ],
      "name": "OwnershipTransferred",
      "type": "event"
    },
    {
      "anonymous": false,
      "inputs": [
        {
          "indexed": true,
          "internalType": "address",
          "name": "from",
          "type": "address"
        },
        {
          "indexed": true,
          "internalType": "address",
          "name": "to",
          "type": "address"
        },
        {
          "indexed": true,
          "internalType": "uint256",
          "name": "tokenId",
          "type": "uint256"
        }
      ],
      "name": "Transfer",
      "type": "event"
    },
    {
      "inputs": [
        {
          "internalType": "address",
          "name": "to",
          "type": "address"
        },
        {
          "internalType": "uint256",
          "name": "tokenId",
          "type": "uint256"
        }
      ],
      "name": "approve",
      "outputs": [],
      "stateMutability": "nonpayable",
      "type": "function"
    },
    {
      "inputs": [
        {
          "internalType": "uint256",
          "name": "tokenId",
          "type": "uint256"
        }
      ],
      "name": "getApproved",
      "outputs": [
        {
          "internalType": "address",
          "name": "",
          "type": "address"
        }
      ],
      "stateMutability": "view",
      "type": "function",
      "constant": true
    },
    {
      "inputs": [
        {
          "internalType": "address",
          "name": "owner",
          "type": "address"
        },
        {
          "internalType": "address",
          "name": "operator",
          "type": "address"
        }
      ],
      "name": "isApprovedForAll",
      "outputs": [
        {
          "internalType": "bool",
          "name": "",
          "type": "bool"
        }
      ],
      "stateMutability": "view",
      "type": "function",
      "constant": true
    },
    {
      "inputs": [],
      "name": "name",
      "outputs": [
        {
          "internalType": "string",
          "name": "",
          "type": "string"
        }
      ],
      "stateMutability": "view",
      "type": "function",
      "constant": true
    },
    {
      "inputs": [],
      "name": "owner",
      "outputs": [
        {
          "internalType": "address",
          "name": "",
          "type": "address"
        }
      ],
      "stateMutability": "view",
      "type": "function",
      "constant": true
    },
    {
      "inputs": [],
      "name": "renounceOwnership",
      "outputs": [],
      "stateMutability": "nonpayable",
      "type": "function"
    },
    {
      "inputs": [
        {
          "internalType": "address",
          "name": "from",
          "type": "address"
        },
        {
          "internalType": "address",
          "name": "to",
          "type": "address"
        },
        {
          "internalType": "uint256",
          "name": "tokenId",
          "type": "uint256"
        }
      ],
      "name": "safeTransferFrom",
      "outputs": [],
      "stateMutability": "nonpayable",
      "type": "function"
    },
    {
      "inputs": [
        {
          "internalType": "address",
          "name": "from",
          "type": "address"
        },
        {
          "internalType": "address",
          "name": "to",
          "type": "address"
        },
        {
          "internalType": "uint256",
          "name": "tokenId",
          "type": "uint256"
        },
        {
          "internalType": "bytes",
          "name": "data",
          "type": "bytes"
        }
      ],
      "name": "safeTransferFrom",
      "outputs": [],
      "stateMutability": "nonpayable",
      "type": "function"
    },
    {
      "inputs": [
        {
          "internalType": "address",
          "name": "operator",
          "type": "address"
        },
        {
          "internalType": "bool",
          "name": "approved",
          "type": "bool"
        }
      ],
      "name": "setApprovalForAll",
      "outputs": [],
      "stateMutability": "nonpayable",
      "type": "function"
    },
    {
      "inputs": [
        {
          "internalType": "bytes4",
          "name": "interfaceId",
          "type": "bytes4"
        }
      ],
      "name": "supportsInterface",
      "outputs": [
        {
          "internalType": "bool",
          "name": "",
          "type": "bool"
        }
      ],
      "stateMutability": "view",
      "type": "function",
      "constant": true
    },
    {
      "inputs": [],
      "name": "symbol",
      "outputs": [
        {
          "internalType": "string",
          "name": "",
          "type": "string"
        }
      ],
      "stateMutability": "view",
      "type": "function",
      "constant": true
    },
    {
      "inputs": [
        {
          "internalType": "uint256",
          "name": "tokenId",
          "type": "uint256"
        }
      ],
      "name": "tokenURI",
      "outputs": [
        {
          "internalType": "string",
          "name": "",
          "type": "string"
        }
      ],
      "stateMutability": "view",
      "type": "function",
      "constant": true
    },
    {
      "inputs": [
        {
          "internalType": "address",
          "name": "newOwner",
          "type": "address"
        }
      ],
      "name": "transferOwnership",
      "outputs": [],
      "stateMutability": "nonpayable",
      "type": "function"
    },
    {
      "inputs": [
        {
          "internalType": "address",
          "name": "tokenOwnershipAddress",
          "type": "address"
        }
      ],
      "name": "init",
      "outputs": [],
      "stateMutability": "nonpayable",
      "type": "function"
    },
    {
      "inputs": [
        {
          "internalType": "address",
          "name": "_owner",
          "type": "address"
        }
      ],
      "name": "balanceOf",
      "outputs": [
        {
          "internalType": "uint256",
          "name": "",
          "type": "uint256"
        }
      ],
      "stateMutability": "view",
      "type": "function",
      "constant": true
    },
    {
      "inputs": [
        {
          "internalType": "uint256",
          "name": "_tokenId",
          "type": "uint256"
        }
      ],
      "name": "ownerOf",
      "outputs": [
        {
          "internalType": "address",
          "name": "",
          "type": "address"
        }
      ],
      "stateMutability": "view",
      "type": "function",
      "constant": true
    },
    {
      "inputs": [
        {
          "internalType": "address",
          "name": "_from",
          "type": "address"
        },
        {
          "internalType": "address",
          "name": "_to",
          "type": "address"
        },
        {
          "internalType": "uint256",
          "name": "_tokenId",
          "type": "uint256"
        }
      ],
      "name": "transferFrom",
      "outputs": [],
      "stateMutability": "nonpayable",
      "type": "function"
    },
    {
      "inputs": [
        {
          "internalType": "uint256",
          "name": "_tokenId",
          "type": "uint256"
        },
        {
          "internalType": "uint256",
          "name": "price",
          "type": "uint256"
        }
      ],
      "name": "putOnMarketplace",
      "outputs": [],
      "stateMutability": "nonpayable",
      "type": "function"
    },
    {
      "inputs": [
        {
          "internalType": "uint256",
          "name": "_tokenId",
          "type": "uint256"
        }
      ],
      "name": "buyFromMarketplace",
      "outputs": [],
      "stateMutability": "payable",
      "type": "function",
      "payable": true
    }
  ],
  "bytecode": "0x60806040523480156200001157600080fd5b50604080518082018252600c81526b436861737369734275636b7360a01b60208083019182528351808501909452600384526209084b60eb1b9084015281519192916200006191600091620000f0565b50805162000077906001906020840190620000f0565b505050620000946200008e6200009a60201b60201c565b6200009e565b620001d2565b3390565b600680546001600160a01b038381166001600160a01b0319831681179093556040519116919082907f8be0079c531659141344cd1fd0a4f28419497f9722a3daafe3b4186f6b6457e090600090a35050565b828054620000fe9062000196565b90600052602060002090601f0160209004810192826200012257600085556200016d565b82601f106200013d57805160ff19168380011785556200016d565b828001600101855582156200016d579182015b828111156200016d57825182559160200191906001019062000150565b506200017b9291506200017f565b5090565b5b808211156200017b576000815560010162000180565b600181811c90821680620001ab57607f821691505b602082108103620001cc57634e487b7160e01b600052602260045260246000fd5b50919050565b6117c980620001e26000396000f3fe6080604052600436106101145760003560e01c8063715018a6116100a0578063b88d4fde11610064578063b88d4fde14610300578063c712ecef14610320578063c87b56dd14610333578063e985e9c514610353578063f2fde38b1461039c57600080fd5b8063715018a614610278578063892ede501461028d5780638da5cb5b146102ad57806395d89b41146102cb578063a22cb465146102e057600080fd5b806319ab453c116100e757806319ab453c146101ca57806323b872dd146101ea57806342842e0e1461020a5780636352211e1461022a57806370a082311461024a57600080fd5b806301ffc9a71461011957806306fdde031461014e578063081812fc14610170578063095ea7b3146101a8575b600080fd5b34801561012557600080fd5b506101396101343660046112fa565b6103bc565b60405190151581526020015b60405180910390f35b34801561015a57600080fd5b5061016361040e565b604051610145919061136f565b34801561017c57600080fd5b5061019061018b366004611382565b6104a0565b6040516001600160a01b039091168152602001610145565b3480156101b457600080fd5b506101c86101c33660046113b0565b6104c7565b005b3480156101d657600080fd5b506101c86101e53660046113dc565b6105e1565b3480156101f657600080fd5b506101c86102053660046113f9565b61060b565b34801561021657600080fd5b506101c86102253660046113f9565b6106bf565b34801561023657600080fd5b50610190610245366004611382565b6106da565b34801561025657600080fd5b5061026a6102653660046113dc565b610748565b604051908152602001610145565b34801561028457600080fd5b506101c86107b7565b34801561029957600080fd5b506101c86102a836600461143a565b6107cb565b3480156102b957600080fd5b506006546001600160a01b0316610190565b3480156102d757600080fd5b506101636108f8565b3480156102ec57600080fd5b506101c86102fb36600461145c565b610907565b34801561030c57600080fd5b506101c861031b3660046114b0565b610916565b6101c861032e366004611382565b610994565b34801561033f57600080fd5b5061016361034e366004611382565b610a39565b34801561035f57600080fd5b5061013961036e366004611590565b6001600160a01b03918216600090815260056020908152604080832093909416825291909152205460ff1690565b3480156103a857600080fd5b506101c86103b73660046113dc565b610aad565b60006001600160e01b031982166380ac58cd60e01b14806103ed57506001600160e01b03198216635b5e139f60e01b145b8061040857506301ffc9a760e01b6001600160e01b03198316145b92915050565b60606000805461041d906115be565b80601f0160208091040260200160405190810160405280929190818152602001828054610449906115be565b80156104965780601f1061046b57610100808354040283529160200191610496565b820191906000526020600020905b81548152906001019060200180831161047957829003601f168201915b5050505050905090565b60006104ab82610b26565b506000908152600460205260409020546001600160a01b031690565b60006104d282610b85565b9050806001600160a01b0316836001600160a01b0316036105445760405162461bcd60e51b815260206004820152602160248201527f4552433732313a20617070726f76616c20746f2063757272656e74206f776e656044820152603960f91b60648201526084015b60405180910390fd5b336001600160a01b03821614806105605750610560813361036e565b6105d25760405162461bcd60e51b815260206004820152603d60248201527f4552433732313a20617070726f76652063616c6c6572206973206e6f7420746f60448201527f6b656e206f776e6572206f7220617070726f76656420666f7220616c6c000000606482015260840161053b565b6105dc8383610be5565b505050565b6105e9610c53565b600780546001600160a01b0319166001600160a01b0392909216919091179055565b60075460405163f66911b160e01b81526001600160a01b0385811660048301528481166024830152604482018490529091169063f66911b190606401600060405180830381600087803b15801561066157600080fd5b505af1158015610675573d6000803e3d6000fd5b5050505080826001600160a01b0316846001600160a01b03167fddf252ad1be2c89b69c2b068fc378daa952ba7f163c4a11628f55a4df523b3ef60405160405180910390a4505050565b6105dc83838360405180602001604052806000815250610916565b600754604051635c426aff60e01b8152600481018390526000916001600160a01b031690635c426aff90602401602060405180830381865afa158015610724573d6000803e3d6000fd5b505050506040513d601f19601f8201168201806040525081019061040891906115f8565b60075460405163254dc06560e01b81526001600160a01b038381166004830152600092169063254dc06590602401602060405180830381865afa158015610793573d6000803e3d6000fd5b505050506040513d601f19601f820116820180604052508101906104089190611615565b6107bf610c53565b6107c96000610cad565b565b600754604051630449014960e41b8152600481018490526001600160a01b0390911690634490149090602401602060405180830381865afa158015610814573d6000803e3d6000fd5b505050506040513d601f19601f8201168201806040525081019061083891906115f8565b6001600160a01b0316336001600160a01b03161461088f5760405162461bcd60e51b81526020600482015260146024820152730c6d0c2e6e6d2e640dcdee840f2deeae4407c74560631b604482015260640161053b565b600754604051636b905f2560e11b815260048101849052602481018390526001600160a01b039091169063d720be4a90604401600060405180830381600087803b1580156108dc57600080fd5b505af11580156108f0573d6000803e3d6000fd5b505050505050565b60606001805461041d906115be565b610912338383610cff565b5050565b6109203383610dcd565b6109825760405162461bcd60e51b815260206004820152602d60248201527f4552433732313a2063616c6c6572206973206e6f7420746f6b656e206f776e6560448201526c1c881bdc88185c1c1c9bdd9959609a1b606482015260840161053b565b61098e84848484610e4c565b50505050565b600754604051630449014960e41b8152600481018390526001600160a01b0390911690634490149090602401602060405180830381865afa1580156109dd573d6000803e3d6000fd5b505050506040513d601f19601f82011682018060405250810190610a0191906115f8565b6001600160a01b03166108fc349081150290604051600060405180830381858888f19350505050158015610912573d6000803e3d6000fd5b6060610a4482610b26565b6000610a5b60408051602081019091526000815290565b90506000815111610a7b5760405180602001604052806000815250610aa6565b80610a8584610e7f565b604051602001610a9692919061162e565b6040516020818303038152906040525b9392505050565b610ab5610c53565b6001600160a01b038116610b1a5760405162461bcd60e51b815260206004820152602660248201527f4f776e61626c653a206e6577206f776e657220697320746865207a65726f206160448201526564647265737360d01b606482015260840161053b565b610b2381610cad565b50565b6000818152600260205260409020546001600160a01b0316610b235760405162461bcd60e51b8152602060048201526018602482015277115490cdcc8c4e881a5b9d985b1a59081d1bdad95b88125160421b604482015260640161053b565b6000818152600260205260408120546001600160a01b0316806104085760405162461bcd60e51b8152602060048201526018602482015277115490cdcc8c4e881a5b9d985b1a59081d1bdad95b88125160421b604482015260640161053b565b600081815260046020526040902080546001600160a01b0319166001600160a01b0384169081179091558190610c1a82610b85565b6001600160a01b03167f8c5be1e5ebec7d5bd14f71427d1e84f3dd0314c0f7b2291e5b200ac8c7c3b92560405160405180910390a45050565b6006546001600160a01b031633146107c95760405162461bcd60e51b815260206004820181905260248201527f4f776e61626c653a2063616c6c6572206973206e6f7420746865206f776e6572604482015260640161053b565b600680546001600160a01b038381166001600160a01b0319831681179093556040519116919082907f8be0079c531659141344cd1fd0a4f28419497f9722a3daafe3b4186f6b6457e090600090a35050565b816001600160a01b0316836001600160a01b031603610d605760405162461bcd60e51b815260206004820152601960248201527f4552433732313a20617070726f766520746f2063616c6c657200000000000000604482015260640161053b565b6001600160a01b03838116600081815260056020908152604080832094871680845294825291829020805460ff191686151590811790915591519182527f17307eab39ab6107e8899845ad3d59bd9653f200f220920489ca2b5937696c31910160405180910390a3505050565b600080610dd983610b85565b9050806001600160a01b0316846001600160a01b03161480610e2057506001600160a01b0380821660009081526005602090815260408083209388168352929052205460ff165b80610e445750836001600160a01b0316610e39846104a0565b6001600160a01b0316145b949350505050565b610e57848484610f12565b610e6384848484611083565b61098e5760405162461bcd60e51b815260040161053b9061165d565b60606000610e8c83611184565b600101905060008167ffffffffffffffff811115610eac57610eac61149a565b6040519080825280601f01601f191660200182016040528015610ed6576020820181803683370190505b5090508181016020015b600019016f181899199a1a9b1b9c1cb0b131b232b360811b600a86061a8153600a8504945084610ee057509392505050565b826001600160a01b0316610f2582610b85565b6001600160a01b031614610f4b5760405162461bcd60e51b815260040161053b906116af565b6001600160a01b038216610fad5760405162461bcd60e51b8152602060048201526024808201527f4552433732313a207472616e7366657220746f20746865207a65726f206164646044820152637265737360e01b606482015260840161053b565b610fba838383600161125c565b826001600160a01b0316610fcd82610b85565b6001600160a01b031614610ff35760405162461bcd60e51b815260040161053b906116af565b600081815260046020908152604080832080546001600160a01b03199081169091556001600160a01b0387811680865260038552838620805460001901905590871680865283862080546001019055868652600290945282852080549092168417909155905184937fddf252ad1be2c89b69c2b068fc378daa952ba7f163c4a11628f55a4df523b3ef91a4505050565b60006001600160a01b0384163b1561117957604051630a85bd0160e11b81526001600160a01b0385169063150b7a02906110c79033908990889088906004016116f4565b6020604051808303816000875af1925050508015611102575060408051601f3d908101601f191682019092526110ff91810190611731565b60015b61115f573d808015611130576040519150601f19603f3d011682016040523d82523d6000602084013e611135565b606091505b5080516000036111575760405162461bcd60e51b815260040161053b9061165d565b805181602001fd5b6001600160e01b031916630a85bd0160e11b149050610e44565b506001949350505050565b60008072184f03e93ff9f4daa797ed6e38ed64bf6a1f0160401b83106111c35772184f03e93ff9f4daa797ed6e38ed64bf6a1f0160401b830492506040015b6d04ee2d6d415b85acef810000000083106111ef576d04ee2d6d415b85acef8100000000830492506020015b662386f26fc10000831061120d57662386f26fc10000830492506010015b6305f5e1008310611225576305f5e100830492506008015b612710831061123957612710830492506004015b6064831061124b576064830492506002015b600a83106104085760010192915050565b600181111561098e576001600160a01b038416156112a2576001600160a01b0384166000908152600360205260408120805483929061129c908490611764565b90915550505b6001600160a01b0383161561098e576001600160a01b038316600090815260036020526040812080548392906112d990849061177b565b909155505050505050565b6001600160e01b031981168114610b2357600080fd5b60006020828403121561130c57600080fd5b8135610aa6816112e4565b60005b8381101561133257818101518382015260200161131a565b8381111561098e5750506000910152565b6000815180845261135b816020860160208601611317565b601f01601f19169290920160200192915050565b602081526000610aa66020830184611343565b60006020828403121561139457600080fd5b5035919050565b6001600160a01b0381168114610b2357600080fd5b600080604083850312156113c357600080fd5b82356113ce8161139b565b946020939093013593505050565b6000602082840312156113ee57600080fd5b8135610aa68161139b565b60008060006060848603121561140e57600080fd5b83356114198161139b565b925060208401356114298161139b565b929592945050506040919091013590565b6000806040838503121561144d57600080fd5b50508035926020909101359150565b6000806040838503121561146f57600080fd5b823561147a8161139b565b91506020830135801515811461148f57600080fd5b809150509250929050565b634e487b7160e01b600052604160045260246000fd5b600080600080608085870312156114c657600080fd5b84356114d18161139b565b935060208501356114e18161139b565b925060408501359150606085013567ffffffffffffffff8082111561150557600080fd5b818701915087601f83011261151957600080fd5b81358181111561152b5761152b61149a565b604051601f8201601f19908116603f011681019083821181831017156115535761155361149a565b816040528281528a602084870101111561156c57600080fd5b82602086016020830137600060208483010152809550505050505092959194509250565b600080604083850312156115a357600080fd5b82356115ae8161139b565b9150602083013561148f8161139b565b600181811c908216806115d257607f821691505b6020821081036115f257634e487b7160e01b600052602260045260246000fd5b50919050565b60006020828403121561160a57600080fd5b8151610aa68161139b565b60006020828403121561162757600080fd5b5051919050565b60008351611640818460208801611317565b835190830190611654818360208801611317565b01949350505050565b60208082526032908201527f4552433732313a207472616e7366657220746f206e6f6e20455243373231526560408201527131b2b4bb32b91034b6b83632b6b2b73a32b960711b606082015260800190565b60208082526025908201527f4552433732313a207472616e736665722066726f6d20696e636f72726563742060408201526437bbb732b960d91b606082015260800190565b6001600160a01b038581168252841660208201526040810183905260806060820181905260009061172790830184611343565b9695505050505050565b60006020828403121561174357600080fd5b8151610aa6816112e4565b634e487b7160e01b600052601160045260246000fd5b6000828210156117765761177661174e565b500390565b6000821982111561178e5761178e61174e565b50019056fea2646970667358221220ca41ba1c1f37d7a3b124fe3a5a883032f1e12893dad5df01e0c867c55bf610b264736f6c634300080d0033",
  "immutableReferences": {},
  "source": "// SPDX-License-Identifier: MIT\npragma solidity ^0.8.13;\n\nimport \"./TokenOwnership.sol\";\nimport \"../node_modules/@openzeppelin/contracts/access/Ownable.sol\";\nimport \"../node_modules/@openzeppelin/contracts/token/ERC721/ERC721.sol\";\n\n\ncontract ChassisOwnership is ERC721, Ownable{\n    TokenOwnership tokenOwnership;\n\n    constructor() ERC721(\"ChassisBucks\", \"HBX\"){}\n\n    function init(address tokenOwnershipAddress) public onlyOwner{\n        tokenOwnership = TokenOwnership(tokenOwnershipAddress);\n    }\n\n    function balanceOf(address _owner) override public view returns (uint256){\n        return tokenOwnership.balanceOfChassis(_owner);\n    }\n    function ownerOf(uint256 _tokenId) override public view returns (address){\n        return tokenOwnership.ownerOfChassis(_tokenId);\n    }\n    function transferFrom(address _from, address _to, uint256 _tokenId) override public {\n        tokenOwnership.transferChassisFrom(_from, _to, _tokenId);\n        emit Transfer(_from, _to, _tokenId);\n    }\n\n    function putOnMarketplace(uint256 _tokenId, uint price) public {\n        require(msg.sender == tokenOwnership.chassisToOwner(_tokenId), \"chassis not your >:(\");\n        tokenOwnership.putChassisOnMarketplace(_tokenId, price);\n        //setApprovalForAll(owner(), true);\n    }\n\n    function buyFromMarketplace(uint256 _tokenId) public payable{\n        //req msg val\n        //req sender!=owner\n        //req price!=0\n        payable(tokenOwnership.chassisToOwner(_tokenId)).transfer(msg.value);\n    }\n\n}",
  "sourcePath": "/Users/vvan/Programming/JavaScript/DriveSafely/contract/contracts/ChassisOwnership.sol",
  "compiler": {
    "name": "solc",
    "version": "0.8.13+commit.abaa5c0e.Emscripten.clang"
  },
  "schemaVersion": "3.4.11",
  "updatedAt": "2023-01-10T16:55:08.858Z",
  "networkType": "ethereum",
  "devdoc": {
    "kind": "dev",
    "methods": {
      "approve(address,uint256)": {
        "details": "See {IERC721-approve}."
      },
      "getApproved(uint256)": {
        "details": "See {IERC721-getApproved}."
      },
      "isApprovedForAll(address,address)": {
        "details": "See {IERC721-isApprovedForAll}."
      },
      "name()": {
        "details": "See {IERC721Metadata-name}."
      },
      "owner()": {
        "details": "Returns the address of the current owner."
      },
      "renounceOwnership()": {
        "details": "Leaves the contract without owner. It will not be possible to call `onlyOwner` functions anymore. Can only be called by the current owner. NOTE: Renouncing ownership will leave the contract without an owner, thereby removing any functionality that is only available to the owner."
      },
      "safeTransferFrom(address,address,uint256)": {
        "details": "See {IERC721-safeTransferFrom}."
      },
      "safeTransferFrom(address,address,uint256,bytes)": {
        "details": "See {IERC721-safeTransferFrom}."
      },
      "setApprovalForAll(address,bool)": {
        "details": "See {IERC721-setApprovalForAll}."
      },
      "supportsInterface(bytes4)": {
        "details": "See {IERC165-supportsInterface}."
      },
      "symbol()": {
        "details": "See {IERC721Metadata-symbol}."
      },
      "tokenURI(uint256)": {
        "details": "See {IERC721Metadata-tokenURI}."
      },
      "transferOwnership(address)": {
        "details": "Transfers ownership of the contract to a new account (`newOwner`). Can only be called by the current owner."
      }
    },
    "version": 1
  },
  "userdoc": {
    "kind": "user",
    "methods": {},
    "version": 1
  }
}