{
  "contractName": "FuelStationFactory",
  "abi": [
    {
      "inputs": [
        {
          "internalType": "uint256",
          "name": "",
          "type": "uint256"
        }
      ],
      "name": "fuelStationToOwner",
      "outputs": [
        {
          "internalType": "address",
          "name": "",
          "type": "address"
        }
      ],
      "stateMutability": "view",
      "type": "function"
    },
    {
      "inputs": [
        {
          "internalType": "uint256",
          "name": "",
          "type": "uint256"
        }
      ],
      "name": "stations",
      "outputs": [
        {
          "internalType": "uint256",
          "name": "id",
          "type": "uint256"
        },
        {
          "internalType": "uint8",
          "name": "capacity",
          "type": "uint8"
        },
        {
          "internalType": "uint8",
          "name": "productionPerHour",
          "type": "uint8"
        },
        {
          "internalType": "uint8",
          "name": "currentFullness",
          "type": "uint8"
        },
        {
          "internalType": "uint256",
          "name": "lastUpdate",
          "type": "uint256"
        }
      ],
      "stateMutability": "view",
      "type": "function"
    },
    {
      "inputs": [],
      "name": "createFuelStation",
      "outputs": [],
      "stateMutability": "nonpayable",
      "type": "function"
    }
  ],
  "bytecode": "0x60806040526000805461ffff191661053c17905534801561001f57600080fd5b506102868061002f6000396000f3fe608060405234801561001057600080fd5b50600436106100415760003560e01c8063224370f014610046578063594193d71461016257806392f859db146101a8575b600080fd5b610160600180546040805160a0810182528281526000805460ff80821660208086018281526101009485900484168789019081526060880193845263ffffffff4216608089019081528a8c018c559a8752965160038a027fb10e2d527612073b26eecdfd717e6a320cf44b4afac2b0732d9fcbe2b7fa0cf681019190915590517fb10e2d527612073b26eecdfd717e6a320cf44b4afac2b0732d9fcbe2b7fa0cf782018054985194518616620100000262ff00001995871690970261ffff199099169190951617969096179190911692909217905594517fb10e2d527612073b26eecdfd717e6a320cf44b4afac2b0732d9fcbe2b7fa0cf89092019190915591825260029092522080546001600160a01b03191633179055565b005b61018b610170366004610237565b6002602052600090815260409020546001600160a01b031681565b6040516001600160a01b0390911681526020015b60405180910390f35b6101bb6101b6366004610237565b6101eb565b6040805195865260ff9485166020870152928416928501929092529091166060830152608082015260a00161019f565b600181815481106101fb57600080fd5b600091825260209091206003909102018054600182015460029092015490925060ff808316926101008104821692620100009091049091169085565b60006020828403121561024957600080fd5b503591905056fea2646970667358221220d221a706e77b54bcb54146e9e96b7a9e9ad7df3d1bc49d3507f7dbefeaadc79c64736f6c634300080d0033",
  "immutableReferences": {},
  "source": "// SPDX-License-Identifier: MIT\npragma solidity ^0.8.13;\n\ncontract FuelStationFactory{\n\n    uint8 defaultCapacity = 60;\n    uint8 defaultProduction = 5;\n\n\tstruct FuelStation{ \n        uint id;\n        uint8 capacity;\n        uint8 productionPerHour;\n        uint8 currentFullness;\n        uint lastUpdate;\n    }\n\n\n    FuelStation[] public stations;\n\n    mapping (uint => address) public fuelStationToOwner;\n\n    function createFuelStation() public{\n        address ad = msg.sender;\n        uint id = stations.length;\n        stations.push(FuelStation(id, defaultCapacity, defaultProduction, defaultCapacity, uint32(block.timestamp)));\n        fuelStationToOwner[id] = ad;\n    }\n\n}\n",
  "sourcePath": "/Users/vvan/Programming/JavaScript/DriveSafely/contract/contracts/FuelStationFactory.sol",
  "compiler": {
    "name": "solc",
    "version": "0.8.13+commit.abaa5c0e.Emscripten.clang"
  },
  "schemaVersion": "3.4.11",
  "updatedAt": "2023-01-12T08:38:04.103Z",
  "networkType": "ethereum",
  "devdoc": {
    "kind": "dev",
    "methods": {},
    "version": 1
  },
  "userdoc": {
    "kind": "user",
    "methods": {},
    "version": 1
  }
}