{
  "contractName": "FuelStationFactory",
  "abi": [
    {
      "inputs": [
        {
          "internalType": "uint256",
          "name": "",
          "type": "uint256"
        }
      ],
      "name": "fuelStationToOwner",
      "outputs": [
        {
          "internalType": "address",
          "name": "",
          "type": "address"
        }
      ],
      "stateMutability": "view",
      "type": "function",
      "constant": true
    },
    {
      "inputs": [
        {
          "internalType": "uint256",
          "name": "",
          "type": "uint256"
        }
      ],
      "name": "stations",
      "outputs": [
        {
          "internalType": "uint256",
          "name": "id",
          "type": "uint256"
        },
        {
          "internalType": "uint8",
          "name": "capacity",
          "type": "uint8"
        },
        {
          "internalType": "uint8",
          "name": "productionPerHour",
          "type": "uint8"
        }
      ],
      "stateMutability": "view",
      "type": "function",
      "constant": true
    },
    {
      "inputs": [],
      "name": "createFuelStation",
      "outputs": [],
      "stateMutability": "nonpayable",
      "type": "function"
    }
  ],
  "bytecode": "0x6080604052603c6000806101000a81548160ff021916908360ff1602179055506005600060016101000a81548160ff021916908360ff16021790555034801561004757600080fd5b506103b0806100576000396000f3fe608060405234801561001057600080fd5b50600436106100415760003560e01c8063224370f014610046578063594193d71461005057806392f859db14610080575b600080fd5b61004e6100b2565b005b61006a6004803603810190610065919061028f565b6101cd565b60405161007791906102fd565b60405180910390f35b61009a6004803603810190610095919061028f565b610200565b6040516100a993929190610343565b60405180910390f35b6000339050600060018054905090506001604051806060016040528083815260200160008054906101000a900460ff1660ff168152602001600060019054906101000a900460ff1660ff1681525090806001815401808255809150506001900390600052602060002090600202016000909190919091506000820151816000015560208201518160010160006101000a81548160ff021916908360ff16021790555060408201518160010160016101000a81548160ff021916908360ff1602179055505050816002600083815260200190815260200160002060006101000a81548173ffffffffffffffffffffffffffffffffffffffff021916908373ffffffffffffffffffffffffffffffffffffffff1602179055505050565b60026020528060005260406000206000915054906101000a900473ffffffffffffffffffffffffffffffffffffffff1681565b6001818154811061021057600080fd5b90600052602060002090600202016000915090508060000154908060010160009054906101000a900460ff16908060010160019054906101000a900460ff16905083565b600080fd5b6000819050919050565b61026c81610259565b811461027757600080fd5b50565b60008135905061028981610263565b92915050565b6000602082840312156102a5576102a4610254565b5b60006102b38482850161027a565b91505092915050565b600073ffffffffffffffffffffffffffffffffffffffff82169050919050565b60006102e7826102bc565b9050919050565b6102f7816102dc565b82525050565b600060208201905061031260008301846102ee565b92915050565b61032181610259565b82525050565b600060ff82169050919050565b61033d81610327565b82525050565b60006060820190506103586000830186610318565b6103656020830185610334565b6103726040830184610334565b94935050505056fea2646970667358221220dd3cf9f3835b45ce014fb815a2d179c74fc2f1ad9e9da32853cb8b8b8886c53364736f6c634300080d0033",
  "immutableReferences": {},
  "source": "pragma solidity ^0.8.13;\n\ncontract FuelStationFactory{\n\n    uint8 defaultCapacity = 60;\n    uint8 defaultProduction = 5;\n\n\tstruct FuelStation{\n        uint id;\n        uint8 capacity;\n        uint8 productionPerHour;\n    }\n\n\n    FuelStation[] public stations;\n\n    mapping (uint => address) public fuelStationToOwner;\n\n    function createFuelStation() public{\n        address ad = msg.sender;\n        uint id = stations.length;\n        stations.push(FuelStation(id, defaultCapacity, defaultProduction));\n        fuelStationToOwner[id] = ad;\n    }\n\n}\n",
  "sourcePath": "/Users/vvan/Programming/JavaScript/DriveSafely/contract/contracts/FuelStationFactory.sol",
  "compiler": {
    "name": "solc",
    "version": "0.8.13+commit.abaa5c0e.Emscripten.clang"
  },
  "schemaVersion": "3.4.11",
  "updatedAt": "2023-01-08T03:48:48.929Z",
  "networkType": "ethereum",
  "devdoc": {
    "kind": "dev",
    "methods": {},
    "version": 1
  },
  "userdoc": {
    "kind": "user",
    "methods": {},
    "version": 1
  }
}