{
  "contractName": "FuelStationFactory",
  "abi": [
    {
      "inputs": [
        {
          "internalType": "address",
          "name": "",
          "type": "address"
        }
      ],
      "name": "ownerToFuelStation",
      "outputs": [
        {
          "internalType": "uint256",
          "name": "",
          "type": "uint256"
        }
      ],
      "stateMutability": "view",
      "type": "function"
    },
    {
      "inputs": [
        {
          "internalType": "uint256",
          "name": "",
          "type": "uint256"
        }
      ],
      "name": "stations",
      "outputs": [
        {
          "internalType": "uint256",
          "name": "id",
          "type": "uint256"
        },
        {
          "internalType": "uint8",
          "name": "capacity",
          "type": "uint8"
        },
        {
          "internalType": "uint8",
          "name": "productionPerHour",
          "type": "uint8"
        }
      ],
      "stateMutability": "view",
      "type": "function"
    },
    {
      "inputs": [],
      "name": "getFuelStation",
      "outputs": [
        {
          "internalType": "uint256",
          "name": "",
          "type": "uint256"
        },
        {
          "internalType": "uint8",
          "name": "",
          "type": "uint8"
        },
        {
          "internalType": "uint8",
          "name": "",
          "type": "uint8"
        }
      ],
      "stateMutability": "view",
      "type": "function"
    },
    {
      "inputs": [],
      "name": "createFuelStation",
      "outputs": [],
      "stateMutability": "nonpayable",
      "type": "function"
    }
  ],
  "bytecode": "0x6080604052603c6000806101000a81548160ff021916908360ff1602179055506005600060016101000a81548160ff021916908360ff16021790555034801561004757600080fd5b5061087b806100576000396000f3fe608060405234801561001057600080fd5b506004361061004c5760003560e01c8063224370f0146100515780636a86d66c1461005b57806392f859db1461008b578063cfb16cdb146100bd575b600080fd5b6100596100dd565b005b610075600480360381019061007091906104fb565b6102b7565b6040516100829190610541565b60405180910390f35b6100a560048036038101906100a09190610588565b6102cf565b6040516100b4939291906105d1565b60405180910390f35b6100c5610323565b6040516100d4939291906105d1565b60405180910390f35b60003390506000600260008373ffffffffffffffffffffffffffffffffffffffff1673ffffffffffffffffffffffffffffffffffffffff16815260200190815260200160002054905060008114610169576040517f08c379a000000000000000000000000000000000000000000000000000000000815260040161016090610665565b60405180910390fd5b600160405180606001604052806001808054905061018791906106b4565b815260200160008054906101000a900460ff1660ff168152602001600060019054906101000a900460ff1660ff1681525090806001815401808255809150506001900390600052602060002090600202016000909190919091506000820151816000015560208201518160010160006101000a81548160ff021916908360ff16021790555060408201518160010160016101000a81548160ff021916908360ff1602179055505050600060018054905090508060018083610248919061070a565b815481106102595761025861073e565b5b90600052602060002090600202016000018190555080600260008573ffffffffffffffffffffffffffffffffffffffff1673ffffffffffffffffffffffffffffffffffffffff16815260200190815260200160002081905550505050565b60026020528060005260406000206000915090505481565b600181815481106102df57600080fd5b90600052602060002090600202016000915090508060000154908060010160009054906101000a900460ff16908060010160019054906101000a900460ff16905083565b6000806000803390506000600260008373ffffffffffffffffffffffffffffffffffffffff1673ffffffffffffffffffffffffffffffffffffffff168152602001908152602001600020549050600081116103b3576040517f08c379a00000000000000000000000000000000000000000000000000000000081526004016103aa906107b9565b60405180910390fd5b6001805490508111156103fb576040517f08c379a00000000000000000000000000000000000000000000000000000000081526004016103f290610825565b60405180910390fd5b60006001808361040b919061070a565b8154811061041c5761041b61073e565b5b9060005260206000209060020201604051806060016040529081600082015481526020016001820160009054906101000a900460ff1660ff1660ff1681526020016001820160019054906101000a900460ff1660ff1660ff16815250509050806000015181602001518260400151955095509550505050909192565b600080fd5b600073ffffffffffffffffffffffffffffffffffffffff82169050919050565b60006104c88261049d565b9050919050565b6104d8816104bd565b81146104e357600080fd5b50565b6000813590506104f5816104cf565b92915050565b60006020828403121561051157610510610498565b5b600061051f848285016104e6565b91505092915050565b6000819050919050565b61053b81610528565b82525050565b60006020820190506105566000830184610532565b92915050565b61056581610528565b811461057057600080fd5b50565b6000813590506105828161055c565b92915050565b60006020828403121561059e5761059d610498565b5b60006105ac84828501610573565b91505092915050565b600060ff82169050919050565b6105cb816105b5565b82525050565b60006060820190506105e66000830186610532565b6105f360208301856105c2565b61060060408301846105c2565b949350505050565b600082825260208201905092915050565b7f7573657220616c7265616479206861732073746174696f6e0000000000000000600082015250565b600061064f601883610608565b915061065a82610619565b602082019050919050565b6000602082019050818103600083015261067e81610642565b9050919050565b7f4e487b7100000000000000000000000000000000000000000000000000000000600052601160045260246000fd5b60006106bf82610528565b91506106ca83610528565b9250827fffffffffffffffffffffffffffffffffffffffffffffffffffffffffffffffff038211156106ff576106fe610685565b5b828201905092915050565b600061071582610528565b915061072083610528565b92508282101561073357610732610685565b5b828203905092915050565b7f4e487b7100000000000000000000000000000000000000000000000000000000600052603260045260246000fd5b7f7573657220686173206e6f206675656c2073746174696f6e3f3f3f0000000000600082015250565b60006107a3601b83610608565b91506107ae8261076d565b602082019050919050565b600060208201905081810360008301526107d281610796565b9050919050565b7f696e76616c696420696400000000000000000000000000000000000000000000600082015250565b600061080f600a83610608565b915061081a826107d9565b602082019050919050565b6000602082019050818103600083015261083e81610802565b905091905056fea26469706673582212205cbe14cdf986900b02bc4fb95ec32b40742966ec00b2bd40bab3c02952e05a1464736f6c634300080d0033",
  "immutableReferences": {},
  "source": "pragma solidity ^0.8.13;\r\n\r\ncontract FuelStationFactory{\r\n\r\n    uint8 defaultCapacity = 60;\r\n    uint8 defaultProduction = 5;\r\n\r\n\tstruct FuelStation{\r\n        uint id;\r\n        uint8 capacity;\r\n        uint8 productionPerHour;\r\n    }\r\n\r\n    FuelStation[] public stations;\r\n\r\n    mapping (address => uint) public ownerToFuelStation;\r\n\r\n    function getFuelStation() public view returns(uint, uint8, uint8){\r\n        address ad = msg.sender;\r\n        uint stationId = ownerToFuelStation[ad];\r\n        require(stationId>0, \"user has no fuel station???\");\r\n        require(stationId<=stations.length, \"invalid id\");\r\n        FuelStation memory station = stations[stationId-1];\r\n        return (station.id, station.capacity, station.productionPerHour);\r\n    }\r\n\r\n    function createFuelStation() public{\r\n        address ad = msg.sender;\r\n        uint stationId = ownerToFuelStation[ad];\r\n        require(stationId==0, \"user already has station\");\r\n        stations.push(FuelStation(stations.length+1, defaultCapacity, defaultProduction));\r\n        uint id = stations.length;\r\n        stations[id-1].id = id;\r\n        ownerToFuelStation[ad] = id;\r\n    }\r\n\r\n}\r\n",
  "sourcePath": "C:\\Users\\style\\Study\\\\4 \\  \\DriveSafely\\contract\\contracts\\FuelStationFactory.sol",
  "compiler": {
    "name": "solc",
    "version": "0.8.13+commit.abaa5c0e.Emscripten.clang"
  },
  "schemaVersion": "3.4.11",
  "updatedAt": "2023-01-07T12:13:04.892Z",
  "devdoc": {
    "kind": "dev",
    "methods": {},
    "version": 1
  },
  "userdoc": {
    "kind": "user",
    "methods": {},
    "version": 1
  }
}