{
  "contractName": "PDDLib",
  "abi": [
    {
      "inputs": [
        {
          "internalType": "uint256",
          "name": "crossId",
          "type": "uint256"
        },
        {
          "internalType": "uint256",
          "name": "numPlayers",
          "type": "uint256"
        }
      ],
      "name": "generateRoom",
      "outputs": [
        {
          "internalType": "uint256",
          "name": "roomDNA",
          "type": "uint256"
        }
      ],
      "stateMutability": "pure",
      "type": "function",
      "constant": true
    },
    {
      "inputs": [
        {
          "internalType": "uint256",
          "name": "roomDNA",
          "type": "uint256"
        },
        {
          "internalType": "uint256[]",
          "name": "answer",
          "type": "uint256[]"
        }
      ],
      "name": "isCorrectAnswer",
      "outputs": [
        {
          "internalType": "bool",
          "name": "right",
          "type": "bool"
        }
      ],
      "stateMutability": "pure",
      "type": "function",
      "constant": true
    }
  ],
  "bytecode": "0x61038e610053600b82828239805160001a607314610046577f4e487b7100000000000000000000000000000000000000000000000000000000600052600060045260246000fd5b30600052607381538281f3fe73000000000000000000000000000000000000000030146080604052600436106100405760003560e01c80639c63eb2e14610045578063c037e54514610075575b600080fd5b61005f600480360381019061005a919061025c565b6100a5565b60405161006c91906102d3565b60405180910390f35b61008f600480360381019061008a91906102ee565b6100ad565b60405161009c919061033d565b60405180910390f35b600092915050565b60006032905092915050565b6000604051905090565b600080fd5b600080fd5b6000819050919050565b6100e0816100cd565b81146100eb57600080fd5b50565b6000813590506100fd816100d7565b92915050565b600080fd5b6000601f19601f8301169050919050565b7f4e487b7100000000000000000000000000000000000000000000000000000000600052604160045260246000fd5b61015182610108565b810181811067ffffffffffffffff821117156101705761016f610119565b5b80604052505050565b60006101836100b9565b905061018f8282610148565b919050565b600067ffffffffffffffff8211156101af576101ae610119565b5b602082029050602081019050919050565b600080fd5b60006101d86101d384610194565b610179565b905080838252602082019050602084028301858111156101fb576101fa6101c0565b5b835b81811015610224578061021088826100ee565b8452602084019350506020810190506101fd565b5050509392505050565b600082601f83011261024357610242610103565b5b81356102538482602086016101c5565b91505092915050565b60008060408385031215610273576102726100c3565b5b6000610281858286016100ee565b925050602083013567ffffffffffffffff8111156102a2576102a16100c8565b5b6102ae8582860161022e565b9150509250929050565b60008115159050919050565b6102cd816102b8565b82525050565b60006020820190506102e860008301846102c4565b92915050565b60008060408385031215610305576103046100c3565b5b6000610313858286016100ee565b9250506020610324858286016100ee565b9150509250929050565b610337816100cd565b82525050565b6000602082019050610352600083018461032e565b9291505056fea2646970667358221220c3020cd3bcc339fe77cc404cd1e90f65cd8520973150f3959c9ca7fd0bbfc46f64736f6c634300080d0033",
  "immutableReferences": {},
  "source": "// SPDX-License-Identifier: MIT\npragma solidity ^0.8.13;\n\nlibrary PDDLib{\n    function generateRoom(uint crossId, uint numPlayers) public pure returns (uint roomDNA){\n        // crossId + numPlayers;\n        return 50;\n    }\n    function isCorrectAnswer(uint roomDNA, uint[] memory answer) public pure returns (bool right){\n        // answer[roomDNA];\n        return false;\n    }\n}\n",
  "sourcePath": "/Users/vvan/Programming/JavaScript/DriveSafely/contract/contracts/PDDLib.sol",
  "compiler": {
    "name": "solc",
    "version": "0.8.13+commit.abaa5c0e.Emscripten.clang"
  },
  "schemaVersion": "3.4.11",
  "updatedAt": "2023-01-08T10:45:10.602Z",
  "networkType": "ethereum",
  "devdoc": {
    "kind": "dev",
    "methods": {},
    "version": 1
  },
  "userdoc": {
    "kind": "user",
    "methods": {},
    "version": 1
  }
}