{
  "contractName": "PDDLib",
  "abi": [
    {
      "inputs": [
        {
          "internalType": "uint256",
          "name": "crossId",
          "type": "uint256"
        },
        {
          "internalType": "uint256",
          "name": "numPlayers",
          "type": "uint256"
        },
        {
          "internalType": "string",
          "name": "randomStr",
          "type": "string"
        }
      ],
      "name": "generateRoom",
      "outputs": [
        {
          "internalType": "uint256",
          "name": "roomDNA",
          "type": "uint256"
        }
      ],
      "stateMutability": "view",
      "type": "function",
      "constant": true
    },
    {
      "inputs": [
        {
          "internalType": "uint256",
          "name": "roomDNA",
          "type": "uint256"
        },
        {
          "internalType": "uint256[]",
          "name": "answer",
          "type": "uint256[]"
        }
      ],
      "name": "isCorrectAnswer",
      "outputs": [
        {
          "internalType": "bool",
          "name": "",
          "type": "bool"
        }
      ],
      "stateMutability": "view",
      "type": "function",
      "constant": true
    }
  ],
  "bytecode": "0x61143361003a600b82828239805160001a60731461002d57634e487b7160e01b600052600060045260246000fd5b30600052607381538281f3fe73000000000000000000000000000000000000000030146080604052600436106100405760003560e01c80639c63eb2e14610045578063c9827d861461006d575b600080fd5b610058610053366004611175565b61008e565b60405190151581526020015b60405180910390f35b61008061007b366004611227565b610e8d565b604051908152602001610064565b60008061009a84611046565b9450905060006100a985611046565b95509050806100b7816112e5565b91505060006100c586611046565b96509050806100d3816112e5565b9150506100de6110c3565b6100e66110c3565b6100ee6110e2565b6100f6611110565b8960005b8a518110156101ea57600061010e83611046565b9350905061011d6001826112fc565b9050600061012a84611046565b945090506101396001826112fc565b9050818884601e811061014e5761014e611313565b6020020152808784601e811061016657610166611313565b6020020152828683601e811061017e5761017e611313565b602002015186846004811061019557610195611313565b6020020151600481106101aa576101aa611313565b60200201528482600481106101c1576101c1611313565b602002018051906101d182611329565b81525050505080806101e290611329565b9150506100fa565b506101f3611110565b60005b8b51811015610e7857845182516004811061021357610213611313565b60200201518c828151811061022a5761022a611313565b6020026020010151141580156102775750602080860151908301516004811061025557610255611313565b60200201518c828151811061026c5761026c611313565b602002602001015114155b80156102ba5750604080860151908301516004811061029857610298611313565b60200201518c82815181106102af576102af611313565b602002602001015114155b80156102fd575060608086015190830151600481106102db576102db611313565b60200201518c82815181106102f2576102f2611313565b602002602001015114155b156103155760009a5050505050505050505050610e87565b6000878d838151811061032a5761032a611313565b6020026020010151601e811061034257610342611313565b60200201519050868d838151811061035c5761035c611313565b6020026020010151601e811061037457610374611313565b60200201516000036105ed5784600461038e836002611342565b6103989190611370565b600481106103a8576103a8611313565b60200201518360046103bb846002611342565b6103c59190611370565b600481106103d5576103d5611313565b60200201511415801561046c5750868660046103f2846002611342565b6103fc9190611370565b601e811061040c5761040c611313565b602002015184600461041f856002611342565b6104299190611370565b6004811061043957610439611313565b60200201516004811061044e5761044e611313565b6020020151601e811061046357610463611313565b60200201516002145b156104be5761047c8a8a83611068565b1580156104a557506104a58a8a6004610496856002611342565b6104a09190611370565b611068565b156104be5760009b505050505050505050505050610e87565b8460046104cc836003611342565b6104d69190611370565b600481106104e6576104e6611313565b60200201518360046104f9846003611342565b6105039190611370565b6004811061051357610513611313565b6020020151141580156105aa575086866004610530846003611342565b61053a9190611370565b601e811061054a5761054a611313565b602002015184600461055d856003611342565b6105679190611370565b6004811061057757610577611313565b60200201516004811061058c5761058c611313565b6020020151601e81106105a1576105a1611313565b60200201516001145b156105ed576105ba8a8a83611068565b1580156105d457506105d48a8a6004610496856003611342565b156105ed5760009b505050505050505050505050610e87565b868d838151811061060057610600611313565b6020026020010151601e811061061857610618611313565b602002015160010361091e57846004610632836001611342565b61063c9190611370565b6004811061064c5761064c611313565b602002015183600461065f846001611342565b6106699190611370565b6004811061067957610679611313565b6020020151146106c15761068e8a8a83611068565b80156106a957506106a78a8a6004610496856001611342565b155b6106c15760009b505050505050505050505050610e87565b8460046106cf836002611342565b6106d99190611370565b600481106106e9576106e9611313565b60200201518360046106fc846002611342565b6107069190611370565b6004811061071657610716611313565b6020020151141580156107ad575086866004610733846002611342565b61073d9190611370565b601e811061074d5761074d611313565b6020020151846004610760856002611342565b61076a9190611370565b6004811061077a5761077a611313565b60200201516004811061078f5761078f611313565b6020020151601e81106107a4576107a4611313565b60200201516002145b156107f0576107bd8a8a83611068565b1580156107d757506107d78a8a6004610496856002611342565b156107f05760009b505050505050505050505050610e87565b8460046107fe836003611342565b6108089190611370565b6004811061081857610818611313565b602002015183600461082b846003611342565b6108359190611370565b6004811061084557610845611313565b6020020151141580156108db575086866004610862846003611342565b61086c9190611370565b601e811061087c5761087c611313565b602002015184600461088f856003611342565b6108999190611370565b600481106108a9576108a9611313565b6020020151600481106108be576108be611313565b6020020151601e81106108d3576108d3611313565b602002015115155b1561091e576108eb8a8a83611068565b15801561090557506109058a8a6004610496856003611342565b1561091e5760009b505050505050505050505050610e87565b868d838151811061093157610931611313565b6020026020010151601e811061094957610949611313565b6020020151600203610e1057846004610963836001611342565b61096d9190611370565b6004811061097d5761097d611313565b6020020151836004610990846001611342565b61099a9190611370565b600481106109aa576109aa611313565b602002015114158015610a405750868660046109c7846001611342565b6109d19190611370565b601e81106109e1576109e1611313565b60200201518460046109f4856001611342565b6109fe9190611370565b60048110610a0e57610a0e611313565b602002015160048110610a2357610a23611313565b6020020151601e8110610a3857610a38611313565b602002015115155b15610a8357610a508a8a83611068565b8015610a6b5750610a698a8a6004610496856001611342565b155b610a835760009b505050505050505050505050610e87565b846004610a91836002611342565b610a9b9190611370565b60048110610aab57610aab611313565b6020020151836004610abe846002611342565b610ac89190611370565b60048110610ad857610ad8611313565b602002015114158015610b70575086866004610af5846002611342565b610aff9190611370565b601e8110610b0f57610b0f611313565b6020020151846004610b22856002611342565b610b2c9190611370565b60048110610b3c57610b3c611313565b602002015160048110610b5157610b51611313565b6020020151601e8110610b6657610b66611313565b6020020151600214155b15610bb357610b808a8a83611068565b8015610b9b5750610b998a8a6004610496856002611342565b155b610bb35760009b505050505050505050505050610e87565b846004610bc1836002611342565b610bcb9190611370565b60048110610bdb57610bdb611313565b6020020151836004610bee846002611342565b610bf89190611370565b60048110610c0857610c08611313565b602002015114158015610c9f575086866004610c25846002611342565b610c2f9190611370565b601e8110610c3f57610c3f611313565b6020020151846004610c52856002611342565b610c5c9190611370565b60048110610c6c57610c6c611313565b602002015160048110610c8157610c81611313565b6020020151601e8110610c9657610c96611313565b60200201516002145b15610ce257610caf8a8a83611068565b158015610cc95750610cc98a8a6004610496856002611342565b15610ce25760009b505050505050505050505050610e87565b846004610cf0836003611342565b610cfa9190611370565b60048110610d0a57610d0a611313565b6020020151836004610d1d846003611342565b610d279190611370565b60048110610d3757610d37611313565b602002015114158015610dcd575086866004610d54846003611342565b610d5e9190611370565b601e8110610d6e57610d6e611313565b6020020151846004610d81856003611342565b610d8b9190611370565b60048110610d9b57610d9b611313565b602002015160048110610db057610db0611313565b6020020151601e8110610dc557610dc5611313565b602002015115155b15610e1057610ddd8a8a83611068565b158015610df75750610df78a8a6004610496856003611342565b15610e105760009b505050505050505050505050610e87565b82888e8481518110610e2457610e24611313565b6020026020010151601e8110610e3c57610e3c611313565b602002015160048110610e5157610e51611313565b60200201805190610e6182611329565b905250819050610e7081611329565b9150506101f6565b50600199505050505050505050505b92915050565b600080808080610ea9610ea18960046112fc565b89868961107f565b610eb4906001611342565b925083610ec081611329565b9450610ecf90508860046112fc565b610ee5610edd8a60036112fc565b8a878a61107f565b610eef9085611342565b610ef99190611370565b610f04906001611342565b915083610f1081611329565b94505060005b87811015610ff8576000610f36610f2e8b60046112fc565b8b888b61107f565b610f41906001611342565b905085610f4d81611329565b965050600081600303610f8c57610f70610f688c60036112fc565b8c898c61107f565b610f7a908c611342565b610f85906001611342565b9050610fa8565b610f9a610f688c60036112fc565b610fa5906001611342565b90505b86610fb281611329565b9750829050610fc282600a611384565b610fcc9190611342565b610fd7856064611384565b610fe19190611342565b935050508080610ff090611329565b915050610f16565b508761100584600a611384565b611010846064611384565b61101c846103e8611384565b6110269190611342565b6110309190611342565b61103a9190611342565b98975050505050505050565b600080611054600a84611370565b9150611061600a846113a3565b9050915091565b60008382148061107757508282145b949350505050565b600084828585604051602001611097939291906113b7565b6040516020818303038152906040528051906020012060001c6110ba9190611370565b95945050505050565b604051806103c00160405280601e906020820280368337509192915050565b604051806103c00160405280601e905b6110fa611110565b8152602001906001900390816110f25790505090565b60405180608001604052806004906020820280368337509192915050565b634e487b7160e01b600052604160045260246000fd5b604051601f8201601f1916810167ffffffffffffffff8111828210171561116d5761116d61112e565b604052919050565b6000806040838503121561118857600080fd5b8235915060208084013567ffffffffffffffff808211156111a857600080fd5b818601915086601f8301126111bc57600080fd5b8135818111156111ce576111ce61112e565b8060051b91506111df848301611144565b81815291830184019184810190898411156111f957600080fd5b938501935b83851015611217578435825293850193908501906111fe565b8096505050505050509250929050565b60008060006060848603121561123c57600080fd5b833592506020808501359250604085013567ffffffffffffffff8082111561126357600080fd5b818701915087601f83011261127757600080fd5b8135818111156112895761128961112e565b61129b601f8201601f19168501611144565b915080825288848285010111156112b157600080fd5b80848401858401376000848284010152508093505050509250925092565b634e487b7160e01b600052601160045260246000fd5b6000816112f4576112f46112cf565b506000190190565b60008282101561130e5761130e6112cf565b500390565b634e487b7160e01b600052603260045260246000fd5b60006001820161133b5761133b6112cf565b5060010190565b60008219821115611355576113556112cf565b500190565b634e487b7160e01b600052601260045260246000fd5b60008261137f5761137f61135a565b500690565b600081600019048311821515161561139e5761139e6112cf565b500290565b6000826113b2576113b261135a565b500490565b6000845160005b818110156113d857602081880181015185830152016113be565b818111156113e7576000828501525b509190910192835250602082015260400191905056fea26469706673582212207cc1cfd8b544bd5c61c20cd924ffac1459b18699edad7a2ea0b3ab9fe7f7171364736f6c634300080d0033",
  "immutableReferences": {},
  "source": "// SPDX-License-Identifier: MIT\npragma solidity ^0.8.13;\n\nlibrary PDDLib{\n\n\n    function generateRoom(uint crossId, uint numPlayers, string memory randomStr) public view returns (uint roomDNA){\n        uint randNonce = 0;\n        uint mainRoad1;\n        uint mainRoad2;\n        uint carsDirections = 0;\n\n        mainRoad1 = randMod(4 - crossId, crossId, randNonce, randomStr) + 1;\n        randNonce++;\n        mainRoad2 = (mainRoad1 + randMod(3 - crossId, crossId, randNonce, randomStr))%(4 - crossId) + 1;\n        randNonce++;\n\n        for(uint i=0; i<numPlayers; i++){\n            uint carStart = randMod(4 - crossId, crossId, randNonce, randomStr) + 1;\n            randNonce++;\n            uint carDirection;\n            if(carStart == 3){\n                carDirection = crossId + randMod(3 - crossId, crossId, randNonce, randomStr) +1;\n            }else{\n                carDirection = randMod(3 - crossId, crossId, randNonce, randomStr)+1 ;\n            }\n            randNonce++;\n            carsDirections = carsDirections*100 + (carDirection*10 + carStart);\n        }\n\n        roomDNA = carsDirections*1000 + mainRoad2*100 + mainRoad1*10 + crossId;\n\n    }\n\n    function randMod(uint _modulus,uint _crossId, uint _randNonce, string memory randStr) private pure returns(uint) {\n        return uint(keccak256(abi.encodePacked(randStr, _crossId, _randNonce))) % _modulus;\n    }\n    function isCorrectAnswer(uint roomDNA, uint[] memory answer) public view returns (bool){\n        uint crossId;\n        (crossId, roomDNA) = getNextDnaValue(roomDNA);\n        uint mainRoad1;\n        (mainRoad1, roomDNA) = getNextDnaValue(roomDNA);\n        mainRoad1--;\n        uint mainRoad2;\n        (mainRoad2, roomDNA) = getNextDnaValue(roomDNA);\n        mainRoad2--;\n        uint[30] memory carIndexToRoadIndex;\n        uint[30] memory carIndexToDirection;\n        uint[4][30] memory roadCarsIndices;\n        uint[4] memory roadNumCars;\n        uint carsDirections = roomDNA;\n        for(uint i=0; i<answer.length; i++){\n            uint carStart;\n            (carStart, carsDirections) = getNextDnaValue(carsDirections);\n            carStart=carStart-1;\n            uint carEnd;\n            (carEnd, carsDirections) = getNextDnaValue(carsDirections);\n            carEnd=carEnd-1;\n            carIndexToRoadIndex[i]=carStart;\n            carIndexToDirection[i]=carEnd;\n            roadCarsIndices[carStart][roadNumCars[carStart]]=i;\n            roadNumCars[carStart]++;\n        }\n        uint[4] memory roadNextCar;\n        for(uint i=0; i<answer.length; i++){\n            if(answer[i] != roadCarsIndices[0][roadNextCar[0]] && answer[i] != roadCarsIndices[1][roadNextCar[1]]\n            && answer[i] != roadCarsIndices[2][roadNextCar[2]] && answer[i] != roadCarsIndices[3][roadNextCar[3]])\n            {\n                return false;\n            }\n            uint myRoadIndex = carIndexToRoadIndex[answer[i]];\n            if(carIndexToDirection[answer[i]] == 0){\n                if(roadNextCar[(myRoadIndex+2)%4] != roadNumCars[(myRoadIndex+2)%4] && carIndexToDirection[roadCarsIndices[(myRoadIndex+2)%4][roadNextCar[(myRoadIndex+2)%4]]]==2){\n                    if(!isMainRoad(mainRoad1,mainRoad2,myRoadIndex) && isMainRoad(mainRoad1,mainRoad2, (myRoadIndex+2)%4)){\n                        return false;\n                    }\n\n                }\n                if(roadNextCar[(myRoadIndex+3)%4] != roadNumCars[(myRoadIndex+3)%4] && carIndexToDirection[roadCarsIndices[(myRoadIndex+3)%4][roadNextCar[(myRoadIndex+3)%4]]]==1){\n                    if(!isMainRoad(mainRoad1,mainRoad2,myRoadIndex) && isMainRoad(mainRoad1,mainRoad2,( myRoadIndex+3)%4)){\n                        return false;\n                    }\n\n                }\n            }\n            if(carIndexToDirection[answer[i]] == 1){\n                if(roadNextCar[(myRoadIndex+1)%4] != roadNumCars[(myRoadIndex+1)%4]){\n                    if(isMainRoad(mainRoad1, mainRoad2, myRoadIndex) && !isMainRoad(mainRoad1,mainRoad2,(myRoadIndex+1)%4)){\n\n                    }\n                    else return false;\n                }\n                if(roadNextCar[(myRoadIndex+2)%4] != roadNumCars[(myRoadIndex+2)%4] && carIndexToDirection[roadCarsIndices[(myRoadIndex+2)%4][roadNextCar[(myRoadIndex+2)%4]]]==2){\n                    if(!isMainRoad(mainRoad1,mainRoad2, myRoadIndex) && isMainRoad(mainRoad1, mainRoad2, (myRoadIndex+2)%4)){\n                        return false;\n                    }\n\n                }\n                if(roadNextCar[(myRoadIndex+3)%4] != roadNumCars[(myRoadIndex+3)%4] && carIndexToDirection[roadCarsIndices[(myRoadIndex+3)%4][roadNextCar[(myRoadIndex+3)%4]]]!=0){\n                    if(!isMainRoad(mainRoad1, mainRoad2,myRoadIndex) && isMainRoad(mainRoad1,mainRoad2,(myRoadIndex+3)%4)){\n                        return false;\n                    }\n\n                }\n            }\n            if(carIndexToDirection[answer[i]] == 2){\n                if(roadNextCar[(myRoadIndex+1)%4] != roadNumCars[(myRoadIndex+1)%4] && carIndexToDirection[roadCarsIndices[(myRoadIndex+1)%4][roadNextCar[(myRoadIndex+1)%4]]]!=0){\n                    if(isMainRoad(mainRoad1,mainRoad2,myRoadIndex) && !isMainRoad(mainRoad1,mainRoad2,(myRoadIndex+1)%4)){\n\n                    }\n                    else return false;\n                }\n                if(roadNextCar[(myRoadIndex+2)%4] != roadNumCars[(myRoadIndex+2)%4] && carIndexToDirection[roadCarsIndices[(myRoadIndex+2)%4][roadNextCar[(myRoadIndex+2)%4]]]!=2){\n                    if(isMainRoad(mainRoad1,mainRoad2,myRoadIndex) && !isMainRoad(mainRoad1,mainRoad2,(myRoadIndex+2)%4)){\n                    }\n                    else return false;\n                }\n                if(roadNextCar[(myRoadIndex+2)%4] != roadNumCars[(myRoadIndex+2)%4] && carIndexToDirection[roadCarsIndices[(myRoadIndex+2)%4][roadNextCar[(myRoadIndex+2)%4]]]==2){\n                    if(!isMainRoad(mainRoad1,mainRoad2,myRoadIndex) && isMainRoad(mainRoad1,mainRoad2,(myRoadIndex+2)%4)){\n                        return false;\n                    }\n                }\n                if(roadNextCar[(myRoadIndex+3)%4] != roadNumCars[(myRoadIndex+3)%4]  && carIndexToDirection[roadCarsIndices[(myRoadIndex+3)%4][roadNextCar[(myRoadIndex+3)%4]]]!=0){\n                    if(!isMainRoad(mainRoad1,mainRoad2,myRoadIndex) && isMainRoad(mainRoad1,mainRoad2,(myRoadIndex+3)%4)){\n                        return false;\n                    }\n                }\n            }\n            roadNextCar[carIndexToRoadIndex[answer[i]]]++;\n        }\n        return true;\n    }\n\n\n    function isMainRoad(uint _mainRoad1, uint _mainRoad2, uint _road) private pure returns(bool){\n        return _road==_mainRoad1 || _road==_mainRoad2;\n    }\n    function getNextDnaValue(uint _dna) internal pure returns(uint value, uint dna){\n        value = _dna % 10;\n        dna = _dna / 10;\n    }\n}\n",
  "sourcePath": "/Users/vvan/Programming/JavaScript/DriveSafely/contract/contracts/PDDLib.sol",
  "compiler": {
    "name": "solc",
    "version": "0.8.13+commit.abaa5c0e.Emscripten.clang"
  },
  "schemaVersion": "3.4.11",
  "updatedAt": "2023-01-12T18:53:59.478Z",
  "networkType": "ethereum",
  "devdoc": {
    "kind": "dev",
    "methods": {},
    "version": 1
  },
  "userdoc": {
    "kind": "user",
    "methods": {},
    "version": 1
  }
}