{
  "contractName": "PDDLibTest",
  "abi": [
    {
      "inputs": [
        {
          "internalType": "uint256",
          "name": "roomDNA",
          "type": "uint256"
        },
        {
          "internalType": "uint256[]",
          "name": "answer",
          "type": "uint256[]"
        }
      ],
      "name": "commitAnswerTest",
      "outputs": [
        {
          "internalType": "bool",
          "name": "",
          "type": "bool"
        }
      ],
      "stateMutability": "nonpayable",
      "type": "function"
    }
  ],
  "bytecode": "0x608060405234801561001057600080fd5b50610269806100206000396000f3fe608060405234801561001057600080fd5b506004361061002b5760003560e01c8063ce71c5f514610030575b600080fd5b61004361003e3660046100f2565b610057565b604051901515815260200160405180910390f35b60008073__PDDLib________________________________639c63eb2e85856040518363ffffffff1660e01b81526004016100939291906101bc565b602060405180830381865af41580156100b0573d6000803e3d6000fd5b505050506040513d601f19601f820116820180604052508101906100d4919061020a565b949350505050565b634e487b7160e01b600052604160045260246000fd5b6000806040838503121561010557600080fd5b8235915060208084013567ffffffffffffffff8082111561012557600080fd5b818601915086601f83011261013957600080fd5b81358181111561014b5761014b6100dc565b8060051b604051601f19603f83011681018181108582111715610170576101706100dc565b60405291825284820192508381018501918983111561018e57600080fd5b938501935b828510156101ac57843584529385019392850192610193565b8096505050505050509250929050565b6000604082018483526020604081850152818551808452606086019150828701935060005b818110156101fd578451835293830193918301916001016101e1565b5090979650505050505050565b60006020828403121561021c57600080fd5b8151801515811461022c57600080fd5b939250505056fea2646970667358221220bc1009dd5e558b38c9e95d7894d335a2753c5761997774be26506dbc590097de64736f6c634300080d0033",
  "deployedBytecode": "0x608060405234801561001057600080fd5b506004361061002b5760003560e01c8063ce71c5f514610030575b600080fd5b61004361003e3660046100f2565b610057565b604051901515815260200160405180910390f35b60008073__PDDLib________________________________639c63eb2e85856040518363ffffffff1660e01b81526004016100939291906101bc565b602060405180830381865af41580156100b0573d6000803e3d6000fd5b505050506040513d601f19601f820116820180604052508101906100d4919061020a565b949350505050565b634e487b7160e01b600052604160045260246000fd5b6000806040838503121561010557600080fd5b8235915060208084013567ffffffffffffffff8082111561012557600080fd5b818601915086601f83011261013957600080fd5b81358181111561014b5761014b6100dc565b8060051b604051601f19603f83011681018181108582111715610170576101706100dc565b60405291825284820192508381018501918983111561018e57600080fd5b938501935b828510156101ac57843584529385019392850192610193565b8096505050505050509250929050565b6000604082018483526020604081850152818551808452606086019150828701935060005b818110156101fd578451835293830193918301916001016101e1565b5090979650505050505050565b60006020828403121561021c57600080fd5b8151801515811461022c57600080fd5b939250505056fea2646970667358221220bc1009dd5e558b38c9e95d7894d335a2753c5761997774be26506dbc590097de64736f6c634300080d0033",
  "immutableReferences": {},
  "source": "// SPDX-License-Identifier: MIT\r\npragma solidity ^0.8.13;\r\n\r\nimport \"./PDDLib.sol\";\r\n\r\ncontract PDDLibTest{\r\n    function commitAnswerTest(uint roomDNA, uint[] memory answer) public returns(bool){\r\n        bool right = PDDLib.isCorrectAnswer(roomDNA, answer);\r\n        return right;\r\n    }\r\n}\r\n",
  "sourcePath": "/Users/vvan/Programming/JavaScript/DriveSafely/contract/contracts/PDDLibTest.sol",
  "compiler": {
    "name": "solc",
    "version": "0.8.13+commit.abaa5c0e.Emscripten.clang"
  },
  "schemaVersion": "3.4.11",
  "updatedAt": "2023-01-12T15:01:18.310Z",
  "networkType": "ethereum",
  "devdoc": {
    "kind": "dev",
    "methods": {},
    "version": 1
  },
  "userdoc": {
    "kind": "user",
    "methods": {},
    "version": 1
  }
}