{
  "contractName": "PDDLib",
  "abi": [
    {
      "inputs": [
        {
          "internalType": "uint256",
          "name": "crossId",
          "type": "uint256"
        },
        {
          "internalType": "uint256",
          "name": "numPlayers",
          "type": "uint256"
        },
        {
          "internalType": "string",
          "name": "randomStr",
          "type": "string"
        }
      ],
      "name": "generateRoom",
      "outputs": [
        {
          "internalType": "uint256",
          "name": "roomDNA",
          "type": "uint256"
        }
      ],
      "stateMutability": "pure",
      "type": "function",
      "constant": true
    },
    {
      "inputs": [
        {
          "internalType": "uint256",
          "name": "roomDNA",
          "type": "uint256"
        },
        {
          "internalType": "uint256[]",
          "name": "answer",
          "type": "uint256[]"
        }
      ],
      "name": "isCorrectAnswer",
      "outputs": [
        {
          "internalType": "bool",
          "name": "",
          "type": "bool"
        }
      ],
      "stateMutability": "pure",
      "type": "function",
      "constant": true
    }
  ],
  "bytecode": "0x61116861003a600b82828239805160001a60731461002d57634e487b7160e01b600052600060045260246000fd5b30600052607381538281f3fe73000000000000000000000000000000000000000030146080604052600436106100405760003560e01c80639c63eb2e14610045578063c9827d861461006d575b600080fd5b610058610053366004610eaa565b61008e565b60405190151581526020015b60405180910390f35b61008061007b366004610f5c565b610bc0565b604051908152602001610064565b60008061009a84610d7b565b9450905060006100a985610d7b565b95509050806100b78161101a565b91505060006100c586610d7b565b96509050806100d38161101a565b9150506100de610df8565b6100e6610df8565b6100ee610e17565b6100f6610e45565b8960005b8a518110156101ea57600061010e83610d7b565b9350905061011d600182611031565b9050600061012a84610d7b565b94509050610139600182611031565b9050818884601e811061014e5761014e611048565b6020020152808784601e811061016657610166611048565b6020020152828683601e811061017e5761017e611048565b602002015186846004811061019557610195611048565b6020020151600481106101aa576101aa611048565b60200201528482600481106101c1576101c1611048565b602002018051906101d18261105e565b81525050505080806101e29061105e565b9150506100fa565b506101f3610e45565b60005b8b51811015610bab57845182516004811061021357610213611048565b60200201518c828151811061022a5761022a611048565b6020026020010151141580156102775750602080860151908301516004811061025557610255611048565b60200201518c828151811061026c5761026c611048565b602002602001015114155b80156102ba5750604080860151908301516004811061029857610298611048565b60200201518c82815181106102af576102af611048565b602002602001015114155b80156102fd575060608086015190830151600481106102db576102db611048565b60200201518c82815181106102f2576102f2611048565b602002602001015114155b156103155760009a5050505050505050505050610bba565b6000878d838151811061032a5761032a611048565b6020026020010151601e811061034257610342611048565b60200201519050868d838151811061035c5761035c611048565b6020026020010151601e811061037457610374611048565b60200201516000036105da5784600461038e836002611077565b61039891906110a5565b600481106103a8576103a8611048565b60200201518360046103bb846002611077565b6103c591906110a5565b600481106103d5576103d5611048565b60200201511415801561046c5750868660046103f2846002611077565b6103fc91906110a5565b601e811061040c5761040c611048565b602002015184600461041f856002611077565b61042991906110a5565b6004811061043957610439611048565b60200201516004811061044e5761044e611048565b6020020151601e811061046357610463611048565b60200201516002145b156104c45761047c8a8a83610d9d565b1580156104a557506104a58a8a6004610496856002611077565b6104a091906110a5565b610d9d565b156104be5760009b505050505050505050505050610bba565b50610b99565b8460046104d2836003611077565b6104dc91906110a5565b600481106104ec576104ec611048565b60200201518360046104ff846003611077565b61050991906110a5565b6004811061051957610519611048565b6020020151141580156105b0575086866004610536846003611077565b61054091906110a5565b601e811061055057610550611048565b6020020151846004610563856003611077565b61056d91906110a5565b6004811061057d5761057d611048565b60200201516004811061059257610592611048565b6020020151601e81106105a7576105a7611048565b60200201516001145b156105da576105c08a8a83610d9d565b1580156104a557506104a58a8a6004610496856003611077565b868d83815181106105ed576105ed611048565b6020026020010151601e811061060557610605611048565b60200201516001036108ac5784600461061f836001611077565b61062991906110a5565b6004811061063957610639611048565b602002015183600461064c846001611077565b61065691906110a5565b6004811061066657610666611048565b6020020151146106b55761067b8a8a83610d9d565b801561069657506106948a8a6004610496856001611077565b155b156106a15750610b99565b60009b505050505050505050505050610bba565b8460046106c3836002611077565b6106cd91906110a5565b600481106106dd576106dd611048565b60200201518360046106f0846002611077565b6106fa91906110a5565b6004811061070a5761070a611048565b6020020151141580156107a1575086866004610727846002611077565b61073191906110a5565b601e811061074157610741611048565b6020020151846004610754856002611077565b61075e91906110a5565b6004811061076e5761076e611048565b60200201516004811061078357610783611048565b6020020151601e811061079857610798611048565b60200201516002145b156107b15761047c8a8a83610d9d565b8460046107bf836003611077565b6107c991906110a5565b600481106107d9576107d9611048565b60200201518360046107ec846003611077565b6107f691906110a5565b6004811061080657610806611048565b60200201511415801561089c575086866004610823846003611077565b61082d91906110a5565b601e811061083d5761083d611048565b6020020151846004610850856003611077565b61085a91906110a5565b6004811061086a5761086a611048565b60200201516004811061087f5761087f611048565b6020020151601e811061089457610894611048565b602002015115155b156108ac576105c08a8a83610d9d565b868d83815181106108bf576108bf611048565b6020026020010151601e81106108d7576108d7611048565b6020020151600203610b43578460046108f1836001611077565b6108fb91906110a5565b6004811061090b5761090b611048565b602002015183600461091e846001611077565b61092891906110a5565b6004811061093857610938611048565b6020020151141580156109ce575086866004610955846001611077565b61095f91906110a5565b601e811061096f5761096f611048565b6020020151846004610982856001611077565b61098c91906110a5565b6004811061099c5761099c611048565b6020020151600481106109b1576109b1611048565b6020020151601e81106109c6576109c6611048565b602002015115155b156109de5761067b8a8a83610d9d565b8460046109ec836002611077565b6109f691906110a5565b60048110610a0657610a06611048565b6020020151836004610a19846002611077565b610a2391906110a5565b60048110610a3357610a33611048565b602002015114610a485761047c8a8a83610d9d565b846004610a56836003611077565b610a6091906110a5565b60048110610a7057610a70611048565b6020020151836004610a83846003611077565b610a8d91906110a5565b60048110610a9d57610a9d611048565b602002015114158015610b33575086866004610aba846003611077565b610ac491906110a5565b601e8110610ad457610ad4611048565b6020020151846004610ae7856003611077565b610af191906110a5565b60048110610b0157610b01611048565b602002015160048110610b1657610b16611048565b6020020151601e8110610b2b57610b2b611048565b602002015115155b15610b43576105c08a8a83610d9d565b82888e8481518110610b5757610b57611048565b6020026020010151601e8110610b6f57610b6f611048565b602002015160048110610b8457610b84611048565b60200201805190610b948261105e565b905250505b80610ba38161105e565b9150506101f6565b50600199505050505050505050505b92915050565b600080808080610bdc610bd4896004611031565b898689610db4565b610be7906001611077565b925083610bf38161105e565b945060049050610c0f610c078a6003611031565b8a878a610db4565b610c1a600186611031565b610c249190611077565b610c2e91906110a5565b610c39906001611077565b915083610c458161105e565b94505060005b87811015610d2d576000610c6b610c638b6004611031565b8b888b610db4565b610c76906001611077565b905085610c828161105e565b965050600081600303610cc157610ca5610c9d8c6003611031565b8c898c610db4565b610caf908c611077565b610cba906001611077565b9050610cdd565b610ccf610c9d8c6003611031565b610cda906001611077565b90505b86610ce78161105e565b9750829050610cf782600a6110b9565b610d019190611077565b610d0c8560646110b9565b610d169190611077565b935050508080610d259061105e565b915050610c4b565b5087610d3a84600a6110b9565b610d458460646110b9565b610d51846103e86110b9565b610d5b9190611077565b610d659190611077565b610d6f9190611077565b98975050505050505050565b600080610d89600a846110a5565b9150610d96600a846110d8565b9050915091565b600083821480610dac57508282145b949350505050565b600084828585604051602001610dcc939291906110ec565b6040516020818303038152906040528051906020012060001c610def91906110a5565b95945050505050565b604051806103c00160405280601e906020820280368337509192915050565b604051806103c00160405280601e905b610e2f610e45565b815260200190600190039081610e275790505090565b60405180608001604052806004906020820280368337509192915050565b634e487b7160e01b600052604160045260246000fd5b604051601f8201601f1916810167ffffffffffffffff81118282101715610ea257610ea2610e63565b604052919050565b60008060408385031215610ebd57600080fd5b8235915060208084013567ffffffffffffffff80821115610edd57600080fd5b818601915086601f830112610ef157600080fd5b813581811115610f0357610f03610e63565b8060051b9150610f14848301610e79565b8181529183018401918481019089841115610f2e57600080fd5b938501935b83851015610f4c57843582529385019390850190610f33565b8096505050505050509250929050565b600080600060608486031215610f7157600080fd5b833592506020808501359250604085013567ffffffffffffffff80821115610f9857600080fd5b818701915087601f830112610fac57600080fd5b813581811115610fbe57610fbe610e63565b610fd0601f8201601f19168501610e79565b91508082528884828501011115610fe657600080fd5b80848401858401376000848284010152508093505050509250925092565b634e487b7160e01b600052601160045260246000fd5b60008161102957611029611004565b506000190190565b60008282101561104357611043611004565b500390565b634e487b7160e01b600052603260045260246000fd5b60006001820161107057611070611004565b5060010190565b6000821982111561108a5761108a611004565b500190565b634e487b7160e01b600052601260045260246000fd5b6000826110b4576110b461108f565b500690565b60008160001904831182151516156110d3576110d3611004565b500290565b6000826110e7576110e761108f565b500490565b6000845160005b8181101561110d57602081880181015185830152016110f3565b8181111561111c576000828501525b509190910192835250602082015260400191905056fea2646970667358221220208665540954e43b268d1292950ae6597d9f281f6b62496b579fc99634bc29d364736f6c634300080d0033",
  "immutableReferences": {},
  "source": "// SPDX-License-Identifier: MIT\npragma solidity ^0.8.13;\n\nlibrary PDDLib{\n\n\n    function generateRoom(uint crossId, uint numPlayers, string memory randomStr) public pure returns (uint roomDNA){\n        uint randNonce = 0;\n        uint mainRoad1;\n        uint mainRoad2;\n        uint carsDirections = 0;\n\n        mainRoad1 = randMod(4 - crossId, crossId, randNonce, randomStr) + 1;\n        randNonce++;\n        mainRoad2 = (mainRoad1 - 1 + randMod(3 - crossId, crossId, randNonce, randomStr))%4 + 1;\n\n        randNonce++;\n\n        for(uint i=0; i<numPlayers; i++){\n            uint carStart = randMod(4 - crossId, crossId, randNonce, randomStr) + 1;\n            randNonce++;\n            uint carDirection;\n            if(carStart == 3){\n                carDirection = crossId + randMod(3 - crossId, crossId, randNonce, randomStr) +1;\n            }else{\n                carDirection = randMod(3 - crossId, crossId, randNonce, randomStr)+1 ;\n            }\n            randNonce++;\n            carsDirections = carsDirections*100 + (carDirection*10 + carStart);\n        }\n\n        roomDNA = carsDirections*1000 + mainRoad2*100 + mainRoad1*10 + crossId;\n\n    }\n\n    function randMod(uint _modulus,uint _crossId, uint _randNonce, string memory randStr) private pure returns(uint) {\n        return uint(keccak256(abi.encodePacked(randStr, _crossId, _randNonce))) % _modulus;\n\n    }\n    function isCorrectAnswer(uint roomDNA, uint[] memory answer) public pure returns (bool){\n        uint crossId;\n        (crossId, roomDNA) = getNextDnaValue(roomDNA);\n        uint mainRoad1;\n        (mainRoad1, roomDNA) = getNextDnaValue(roomDNA);\n        mainRoad1--;\n        uint mainRoad2;\n        (mainRoad2, roomDNA) = getNextDnaValue(roomDNA);\n        mainRoad2--;\n        uint[30] memory carIndexToRoadIndex;\n        uint[30] memory carIndexToDirection;\n        uint[4][30] memory roadCarsIndices;\n        uint[4] memory roadNumCars;\n        uint carsDirections = roomDNA;\n        for(uint i=0; i<answer.length; i++){\n            uint carStart;\n            (carStart, carsDirections) = getNextDnaValue(carsDirections);\n            carStart=carStart-1;\n            uint carEnd;\n            (carEnd, carsDirections) = getNextDnaValue(carsDirections);\n            carEnd=carEnd-1;\n            carIndexToRoadIndex[i]=carStart;\n            carIndexToDirection[i]=carEnd;\n            roadCarsIndices[carStart][roadNumCars[carStart]]=i;\n            roadNumCars[carStart]++;\n        }\n        uint[4] memory roadNextCar;\n        for(uint i=0; i<answer.length; i++){\n            if(answer[i] != roadCarsIndices[0][roadNextCar[0]] && answer[i] != roadCarsIndices[1][roadNextCar[1]]\n            && answer[i] != roadCarsIndices[2][roadNextCar[2]] && answer[i] != roadCarsIndices[3][roadNextCar[3]])\n            {\n                return false;\n            }\n            uint myRoadIndex = carIndexToRoadIndex[answer[i]];\n            if(carIndexToDirection[answer[i]] == 0){\n                if(roadNextCar[(myRoadIndex+2)%4] != roadNumCars[(myRoadIndex+2)%4] && carIndexToDirection[roadCarsIndices[(myRoadIndex+2)%4][roadNextCar[(myRoadIndex+2)%4]]]==2){\n                    if(!isMainRoad(mainRoad1,mainRoad2,myRoadIndex) && isMainRoad(mainRoad1,mainRoad2, (myRoadIndex+2)%4)){\n\n                        return false;\n                    }\n                    continue;\n                }\n                if(roadNextCar[(myRoadIndex+3)%4] != roadNumCars[(myRoadIndex+3)%4] && carIndexToDirection[roadCarsIndices[(myRoadIndex+3)%4][roadNextCar[(myRoadIndex+3)%4]]]==1){\n\n                    if(!isMainRoad(mainRoad1,mainRoad2,myRoadIndex) && isMainRoad(mainRoad1,mainRoad2,( myRoadIndex+3)%4)){\n                        return false;\n                    }\n                    continue;\n                }\n            }\n            if(carIndexToDirection[answer[i]] == 1){\n\n                if(roadNextCar[(myRoadIndex+1)%4] != roadNumCars[(myRoadIndex+1)%4]){\n                    if(isMainRoad(mainRoad1, mainRoad2, myRoadIndex) && !isMainRoad(mainRoad1,mainRoad2,(myRoadIndex+1)%4)){\n                        continue;\n                    }\n                    return false;\n                }\n                if(roadNextCar[(myRoadIndex+2)%4] != roadNumCars[(myRoadIndex+2)%4] && carIndexToDirection[roadCarsIndices[(myRoadIndex+2)%4][roadNextCar[(myRoadIndex+2)%4]]]==2){\n\n                    if(!isMainRoad(mainRoad1,mainRoad2, myRoadIndex) && isMainRoad(mainRoad1, mainRoad2, (myRoadIndex+2)%4)){\n                        return false;\n                    }\n                    continue;\n                }\n                if(roadNextCar[(myRoadIndex+3)%4] != roadNumCars[(myRoadIndex+3)%4] && carIndexToDirection[roadCarsIndices[(myRoadIndex+3)%4][roadNextCar[(myRoadIndex+3)%4]]]!=0){\n\n                    if(!isMainRoad(mainRoad1, mainRoad2,myRoadIndex) && isMainRoad(mainRoad1,mainRoad2,(myRoadIndex+3)%4)){\n                        return false;\n                    }\n                    continue;\n                }\n            }\n            if(carIndexToDirection[answer[i]] == 2){\n                if(roadNextCar[(myRoadIndex+1)%4] != roadNumCars[(myRoadIndex+1)%4] && carIndexToDirection[roadCarsIndices[(myRoadIndex+1)%4][roadNextCar[(myRoadIndex+1)%4]]]!=0){\n\n                    if(isMainRoad(mainRoad1,mainRoad2,myRoadIndex) && !isMainRoad(mainRoad1,mainRoad2,(myRoadIndex+1)%4)){\n                        continue;\n                    }\n                    return false;\n                }\n                if(roadNextCar[(myRoadIndex+2)%4] != roadNumCars[(myRoadIndex+2)%4]){\n                    if(!isMainRoad(mainRoad1,mainRoad2,myRoadIndex) && isMainRoad(mainRoad1,mainRoad2,(myRoadIndex+2)%4)){\n                        return false;\n                    }\n                    continue;\n                }\n                if(roadNextCar[(myRoadIndex+3)%4] != roadNumCars[(myRoadIndex+3)%4]  && carIndexToDirection[roadCarsIndices[(myRoadIndex+3)%4][roadNextCar[(myRoadIndex+3)%4]]]!=0){\n\n                    if(!isMainRoad(mainRoad1,mainRoad2,myRoadIndex) && isMainRoad(mainRoad1,mainRoad2,(myRoadIndex+3)%4)){\n                        return false;\n                    }\n                    continue;\n                }\n            }\n            roadNextCar[carIndexToRoadIndex[answer[i]]]++;\n        }\n        return true;\n    }\n\n\n    function isMainRoad(uint _mainRoad1, uint _mainRoad2, uint _road) private pure returns(bool){\n        return _road==_mainRoad1 || _road==_mainRoad2;\n    }\n    function getNextDnaValue(uint _dna) internal pure returns(uint value, uint dna){\n        value = _dna % 10;\n        dna = _dna / 10;\n    }\n\n}\n",
  "sourcePath": "/Users/vvan/Programming/JavaScript/DriveSafely/contract/contracts/PDDLib.sol",
  "compiler": {
    "name": "solc",
    "version": "0.8.13+commit.abaa5c0e.Emscripten.clang"
  },
  "schemaVersion": "3.4.11",
  "updatedAt": "2023-01-12T16:50:30.717Z",
  "networkType": "ethereum",
  "devdoc": {
    "kind": "dev",
    "methods": {},
    "version": 1
  },
  "userdoc": {
    "kind": "user",
    "methods": {},
    "version": 1
  }
}