{
  "contractName": "PDDLibTest",
  "abi": [
    {
      "inputs": [
        {
          "internalType": "uint256",
          "name": "roomDNA",
          "type": "uint256"
        },
        {
          "internalType": "uint256[]",
          "name": "answer",
          "type": "uint256[]"
        }
      ],
      "name": "commitAnswerTest",
      "outputs": [
        {
          "internalType": "bool",
          "name": "",
          "type": "bool"
        }
      ],
      "stateMutability": "nonpayable",
      "type": "function"
    },
    {
      "inputs": [
        {
          "internalType": "uint256",
          "name": "crossId",
          "type": "uint256"
        },
        {
          "internalType": "uint256",
          "name": "numPlayers",
          "type": "uint256"
        },
        {
          "internalType": "string",
          "name": "randomStr",
          "type": "string"
        }
      ],
      "name": "generateRoom",
      "outputs": [
        {
          "internalType": "uint256",
          "name": "",
          "type": "uint256"
        }
      ],
      "stateMutability": "view",
      "type": "function",
      "constant": true
    }
  ],
  "bytecode": "0x608060405234801561001057600080fd5b50610453806100206000396000f3fe608060405234801561001057600080fd5b50600436106100365760003560e01c8063c9827d861461003b578063ce71c5f514610061575b600080fd5b61004e6100493660046101cf565b610084565b6040519081526020015b60405180910390f35b61007461006f366004610277565b61010b565b6040519015158152602001610058565b6040516364c13ec360e11b815260009073__PDDLib________________________________9063c9827d86906100c290879087908790600401610329565b602060405180830381865af41580156100df573d6000803e3d6000fd5b505050506040513d601f19601f82011682018060405250810190610103919061038d565b949350505050565b60008073__PDDLib________________________________639c63eb2e85856040518363ffffffff1660e01b81526004016101479291906103a6565b602060405180830381865af4158015610164573d6000803e3d6000fd5b505050506040513d601f19601f8201168201806040525081019061010391906103f4565b634e487b7160e01b600052604160045260246000fd5b604051601f8201601f1916810167ffffffffffffffff811182821017156101c7576101c7610188565b604052919050565b6000806000606084860312156101e457600080fd5b833592506020808501359250604085013567ffffffffffffffff8082111561020b57600080fd5b818701915087601f83011261021f57600080fd5b81358181111561023157610231610188565b610243601f8201601f1916850161019e565b9150808252888482850101111561025957600080fd5b80848401858401376000848284010152508093505050509250925092565b6000806040838503121561028a57600080fd5b8235915060208084013567ffffffffffffffff808211156102aa57600080fd5b818601915086601f8301126102be57600080fd5b8135818111156102d0576102d0610188565b8060051b91506102e184830161019e565b81815291830184019184810190898411156102fb57600080fd5b938501935b8385101561031957843582529385019390850190610300565b8096505050505050509250929050565b83815260006020848184015260606040840152835180606085015260005b8181101561036357858101830151858201608001528201610347565b81811115610375576000608083870101525b50601f01601f19169290920160800195945050505050565b60006020828403121561039f57600080fd5b5051919050565b6000604082018483526020604081850152818551808452606086019150828701935060005b818110156103e7578451835293830193918301916001016103cb565b5090979650505050505050565b60006020828403121561040657600080fd5b8151801515811461041657600080fd5b939250505056fea264697066735822122045da627f8e44fd4723796f1998832e40a91d23b3f354a416f9aeed2b17afbff764736f6c634300080d0033",
  "immutableReferences": {},
  "source": "// SPDX-License-Identifier: MIT\r\npragma solidity ^0.8.13;\r\n\r\nimport \"./PDDLib.sol\";\r\n\r\ncontract PDDLibTest{\r\n    function commitAnswerTest(uint roomDNA, uint[] memory answer) public returns(bool){\r\n        bool right = PDDLib.isCorrectAnswer(roomDNA, answer);\r\n        return right;\r\n    }\r\n    function generateRoom(uint crossId, uint numPlayers, string memory randomStr) public view returns(uint){\r\n        return PDDLib.generateRoom(crossId, numPlayers, randomStr);\r\n    }\r\n}\r\n",
  "sourcePath": "/Users/vvan/Programming/JavaScript/DriveSafely/contract/contracts/PDDLibTest.sol",
  "compiler": {
    "name": "solc",
    "version": "0.8.13+commit.abaa5c0e.Emscripten.clang"
  },
  "schemaVersion": "3.4.11",
  "updatedAt": "2023-01-12T18:53:59.667Z",
  "networkType": "ethereum",
  "devdoc": {
    "kind": "dev",
    "methods": {},
    "version": 1
  },
  "userdoc": {
    "kind": "user",
    "methods": {},
    "version": 1
  }
}