{
  "contractName": "PDDLib",
  "abi": [
    {
      "inputs": [
        {
          "internalType": "uint256",
          "name": "crossId",
          "type": "uint256"
        },
        {
          "internalType": "uint256",
          "name": "numPlayers",
          "type": "uint256"
        }
      ],
      "name": "generateRoom",
      "outputs": [
        {
          "internalType": "uint256",
          "name": "roomDNA",
          "type": "uint256"
        }
      ],
      "stateMutability": "pure",
      "type": "function",
      "constant": true
    },
    {
      "inputs": [
        {
          "internalType": "uint256",
          "name": "roomDNA",
          "type": "uint256"
        },
        {
          "internalType": "uint256[]",
          "name": "answer",
          "type": "uint256[]"
        }
      ],
      "name": "isCorrectAnswer",
      "outputs": [
        {
          "internalType": "bool",
          "name": "right",
          "type": "bool"
        }
      ],
      "stateMutability": "pure",
      "type": "function",
      "constant": true
    }
  ],
  "bytecode": "0x6101cc61003a600b82828239805160001a60731461002d57634e487b7160e01b600052600060045260246000fd5b30600052607381538281f3fe73000000000000000000000000000000000000000030146080604052600436106100405760003560e01c80639c63eb2e14610045578063c037e54514610070575b600080fd5b61005b6100533660046100aa565b600092915050565b60405190151581526020015b60405180910390f35b61008661007e366004610174565b603292915050565b604051908152602001610067565b634e487b7160e01b600052604160045260246000fd5b600080604083850312156100bd57600080fd5b8235915060208084013567ffffffffffffffff808211156100dd57600080fd5b818601915086601f8301126100f157600080fd5b81358181111561010357610103610094565b8060051b604051601f19603f8301168101818110858211171561012857610128610094565b60405291825284820192508381018501918983111561014657600080fd5b938501935b828510156101645784358452938501939285019261014b565b8096505050505050509250929050565b6000806040838503121561018757600080fd5b5050803592602090910135915056fea2646970667358221220adba83c58aee4884dce13e8e9b4427c4dd544ad1fd12ccaa939e6b04da4ece5464736f6c634300080d0033",
  "immutableReferences": {},
  "source": "// SPDX-License-Identifier: MIT\npragma solidity ^0.8.13;\n\nlibrary PDDLib{\n    function generateRoom(uint crossId, uint numPlayers) public pure returns (uint roomDNA){\n        // crossId + numPlayers;\n        return 50;\n    }\n    function isCorrectAnswer(uint roomDNA, uint[] memory answer) public pure returns (bool right){\n        // answer[roomDNA];\n        return false;\n    }\n}\n",
  "sourcePath": "/Users/vvan/Programming/JavaScript/DriveSafely/contract/contracts/PDDLib.sol",
  "compiler": {
    "name": "solc",
    "version": "0.8.13+commit.abaa5c0e.Emscripten.clang"
  },
  "schemaVersion": "3.4.11",
  "updatedAt": "2023-01-10T17:28:23.769Z",
  "networkType": "ethereum",
  "devdoc": {
    "kind": "dev",
    "methods": {},
    "version": 1
  },
  "userdoc": {
    "kind": "user",
    "methods": {},
    "version": 1
  }
}