{
  "contractName": "RaceHandler",
  "abi": [
    {
      "inputs": [],
      "stateMutability": "nonpayable",
      "type": "constructor"
    },
    {
      "anonymous": false,
      "inputs": [
        {
          "indexed": true,
          "internalType": "address",
          "name": "previousOwner",
          "type": "address"
        },
        {
          "indexed": true,
          "internalType": "address",
          "name": "newOwner",
          "type": "address"
        }
      ],
      "name": "OwnershipTransferred",
      "type": "event"
    },
    {
      "anonymous": false,
      "inputs": [
        {
          "indexed": false,
          "internalType": "uint256",
          "name": "roomId",
          "type": "uint256"
        }
      ],
      "name": "RoomClosed",
      "type": "event"
    },
    {
      "anonymous": false,
      "inputs": [
        {
          "indexed": false,
          "internalType": "uint256",
          "name": "roomId",
          "type": "uint256"
        },
        {
          "indexed": false,
          "internalType": "uint256",
          "name": "roomDNA",
          "type": "uint256"
        }
      ],
      "name": "RoomFull",
      "type": "event"
    },
    {
      "inputs": [
        {
          "internalType": "uint256",
          "name": "",
          "type": "uint256"
        }
      ],
      "name": "carToOwner",
      "outputs": [
        {
          "internalType": "address",
          "name": "",
          "type": "address"
        }
      ],
      "stateMutability": "view",
      "type": "function"
    },
    {
      "inputs": [
        {
          "internalType": "uint256",
          "name": "",
          "type": "uint256"
        }
      ],
      "name": "carToPrice",
      "outputs": [
        {
          "internalType": "uint256",
          "name": "",
          "type": "uint256"
        }
      ],
      "stateMutability": "view",
      "type": "function"
    },
    {
      "inputs": [
        {
          "internalType": "uint256",
          "name": "",
          "type": "uint256"
        }
      ],
      "name": "cars",
      "outputs": [
        {
          "internalType": "string",
          "name": "model",
          "type": "string"
        },
        {
          "internalType": "uint256",
          "name": "vin",
          "type": "uint256"
        },
        {
          "internalType": "uint256",
          "name": "engineId",
          "type": "uint256"
        },
        {
          "internalType": "uint256",
          "name": "chassisId",
          "type": "uint256"
        },
        {
          "internalType": "uint8",
          "name": "carLevel",
          "type": "uint8"
        },
        {
          "internalType": "uint256",
          "name": "mileage",
          "type": "uint256"
        },
        {
          "internalType": "uint256",
          "name": "winCountOnCurrentLevel",
          "type": "uint256"
        },
        {
          "internalType": "uint256",
          "name": "lossCountOnCurrentLevel",
          "type": "uint256"
        },
        {
          "internalType": "uint256",
          "name": "id",
          "type": "uint256"
        }
      ],
      "stateMutability": "view",
      "type": "function"
    },
    {
      "inputs": [
        {
          "internalType": "uint256",
          "name": "",
          "type": "uint256"
        }
      ],
      "name": "chassis",
      "outputs": [
        {
          "internalType": "uint256",
          "name": "id",
          "type": "uint256"
        },
        {
          "internalType": "uint32",
          "name": "durability",
          "type": "uint32"
        },
        {
          "internalType": "uint32",
          "name": "resource",
          "type": "uint32"
        }
      ],
      "stateMutability": "view",
      "type": "function"
    },
    {
      "inputs": [
        {
          "internalType": "uint256",
          "name": "",
          "type": "uint256"
        }
      ],
      "name": "chassisToOwner",
      "outputs": [
        {
          "internalType": "address",
          "name": "",
          "type": "address"
        }
      ],
      "stateMutability": "view",
      "type": "function"
    },
    {
      "inputs": [
        {
          "internalType": "uint256",
          "name": "",
          "type": "uint256"
        }
      ],
      "name": "chassisToPrice",
      "outputs": [
        {
          "internalType": "uint256",
          "name": "",
          "type": "uint256"
        }
      ],
      "stateMutability": "view",
      "type": "function"
    },
    {
      "inputs": [
        {
          "internalType": "string",
          "name": "model",
          "type": "string"
        }
      ],
      "name": "createCar",
      "outputs": [],
      "stateMutability": "nonpayable",
      "type": "function"
    },
    {
      "inputs": [
        {
          "internalType": "string",
          "name": "_model",
          "type": "string"
        },
        {
          "internalType": "uint16",
          "name": "_horsePowers",
          "type": "uint16"
        },
        {
          "internalType": "uint8",
          "name": "_consumtion",
          "type": "uint8"
        },
        {
          "internalType": "uint32",
          "name": "_durability",
          "type": "uint32"
        },
        {
          "internalType": "uint8",
          "name": "_carLevel",
          "type": "uint8"
        },
        {
          "internalType": "uint256",
          "name": "_carPrice",
          "type": "uint256"
        }
      ],
      "name": "createCustomCar",
      "outputs": [],
      "stateMutability": "nonpayable",
      "type": "function"
    },
    {
      "inputs": [
        {
          "internalType": "uint32",
          "name": "_durability",
          "type": "uint32"
        },
        {
          "internalType": "uint256",
          "name": "_chassisPrice",
          "type": "uint256"
        }
      ],
      "name": "createCustomChassis",
      "outputs": [
        {
          "internalType": "uint256",
          "name": "",
          "type": "uint256"
        }
      ],
      "stateMutability": "nonpayable",
      "type": "function"
    },
    {
      "inputs": [
        {
          "internalType": "uint16",
          "name": "_horsePowers",
          "type": "uint16"
        },
        {
          "internalType": "uint8",
          "name": "_consumtion",
          "type": "uint8"
        },
        {
          "internalType": "uint256",
          "name": "_enginePrice",
          "type": "uint256"
        }
      ],
      "name": "createCustomEngine",
      "outputs": [
        {
          "internalType": "uint256",
          "name": "",
          "type": "uint256"
        }
      ],
      "stateMutability": "nonpayable",
      "type": "function"
    },
    {
      "inputs": [],
      "name": "createFuelStation",
      "outputs": [],
      "stateMutability": "nonpayable",
      "type": "function"
    },
    {
      "inputs": [
        {
          "internalType": "uint256",
          "name": "carId",
          "type": "uint256"
        },
        {
          "internalType": "uint256",
          "name": "chassisId",
          "type": "uint256"
        }
      ],
      "name": "detachChassis",
      "outputs": [],
      "stateMutability": "nonpayable",
      "type": "function"
    },
    {
      "inputs": [
        {
          "internalType": "uint256",
          "name": "carId",
          "type": "uint256"
        },
        {
          "internalType": "uint256",
          "name": "engineId",
          "type": "uint256"
        }
      ],
      "name": "detachEngine",
      "outputs": [],
      "stateMutability": "nonpayable",
      "type": "function"
    },
    {
      "inputs": [
        {
          "internalType": "uint256",
          "name": "",
          "type": "uint256"
        }
      ],
      "name": "engineToOwner",
      "outputs": [
        {
          "internalType": "address",
          "name": "",
          "type": "address"
        }
      ],
      "stateMutability": "view",
      "type": "function"
    },
    {
      "inputs": [
        {
          "internalType": "uint256",
          "name": "",
          "type": "uint256"
        }
      ],
      "name": "engineToPrice",
      "outputs": [
        {
          "internalType": "uint256",
          "name": "",
          "type": "uint256"
        }
      ],
      "stateMutability": "view",
      "type": "function"
    },
    {
      "inputs": [
        {
          "internalType": "uint256",
          "name": "",
          "type": "uint256"
        }
      ],
      "name": "engines",
      "outputs": [
        {
          "internalType": "uint256",
          "name": "id",
          "type": "uint256"
        },
        {
          "internalType": "uint16",
          "name": "horsePowers",
          "type": "uint16"
        },
        {
          "internalType": "uint8",
          "name": "consumtion",
          "type": "uint8"
        }
      ],
      "stateMutability": "view",
      "type": "function"
    },
    {
      "inputs": [
        {
          "internalType": "uint256",
          "name": "",
          "type": "uint256"
        }
      ],
      "name": "fuelStationToOwner",
      "outputs": [
        {
          "internalType": "address",
          "name": "",
          "type": "address"
        }
      ],
      "stateMutability": "view",
      "type": "function"
    },
    {
      "inputs": [
        {
          "internalType": "address",
          "name": "_owner",
          "type": "address"
        }
      ],
      "name": "getCarsByOwner",
      "outputs": [
        {
          "components": [
            {
              "internalType": "string",
              "name": "model",
              "type": "string"
            },
            {
              "internalType": "uint256",
              "name": "vin",
              "type": "uint256"
            },
            {
              "internalType": "uint256",
              "name": "engineId",
              "type": "uint256"
            },
            {
              "internalType": "uint256",
              "name": "chassisId",
              "type": "uint256"
            },
            {
              "internalType": "uint8",
              "name": "carLevel",
              "type": "uint8"
            },
            {
              "internalType": "uint256",
              "name": "mileage",
              "type": "uint256"
            },
            {
              "internalType": "uint256",
              "name": "winCountOnCurrentLevel",
              "type": "uint256"
            },
            {
              "internalType": "uint256",
              "name": "lossCountOnCurrentLevel",
              "type": "uint256"
            },
            {
              "internalType": "uint256",
              "name": "id",
              "type": "uint256"
            }
          ],
          "internalType": "struct CarFactory.Car[]",
          "name": "",
          "type": "tuple[]"
        }
      ],
      "stateMutability": "view",
      "type": "function"
    },
    {
      "inputs": [
        {
          "internalType": "address",
          "name": "_owner",
          "type": "address"
        }
      ],
      "name": "getChassisByOwner",
      "outputs": [
        {
          "components": [
            {
              "internalType": "uint256",
              "name": "id",
              "type": "uint256"
            },
            {
              "internalType": "uint32",
              "name": "durability",
              "type": "uint32"
            },
            {
              "internalType": "uint32",
              "name": "resource",
              "type": "uint32"
            }
          ],
          "internalType": "struct CarFactory.Chassis[]",
          "name": "",
          "type": "tuple[]"
        }
      ],
      "stateMutability": "view",
      "type": "function"
    },
    {
      "inputs": [
        {
          "internalType": "address",
          "name": "_owner",
          "type": "address"
        }
      ],
      "name": "getEnginesByOwner",
      "outputs": [
        {
          "components": [
            {
              "internalType": "uint256",
              "name": "id",
              "type": "uint256"
            },
            {
              "internalType": "uint16",
              "name": "horsePowers",
              "type": "uint16"
            },
            {
              "internalType": "uint8",
              "name": "consumtion",
              "type": "uint8"
            }
          ],
          "internalType": "struct CarFactory.Engine[]",
          "name": "",
          "type": "tuple[]"
        }
      ],
      "stateMutability": "view",
      "type": "function"
    },
    {
      "inputs": [
        {
          "internalType": "address",
          "name": "_owner",
          "type": "address"
        }
      ],
      "name": "getFuelStationByOwner",
      "outputs": [
        {
          "components": [
            {
              "internalType": "uint256",
              "name": "id",
              "type": "uint256"
            },
            {
              "internalType": "uint8",
              "name": "capacity",
              "type": "uint8"
            },
            {
              "internalType": "uint8",
              "name": "productionPerHour",
              "type": "uint8"
            },
            {
              "internalType": "uint8",
              "name": "currentFullness",
              "type": "uint8"
            },
            {
              "internalType": "uint256",
              "name": "lastUpdate",
              "type": "uint256"
            }
          ],
          "internalType": "struct FuelStationFactory.FuelStation",
          "name": "",
          "type": "tuple"
        }
      ],
      "stateMutability": "view",
      "type": "function"
    },
    {
      "inputs": [
        {
          "internalType": "uint256",
          "name": "",
          "type": "uint256"
        }
      ],
      "name": "idToStartedRooms",
      "outputs": [
        {
          "internalType": "uint256",
          "name": "numberPlayers",
          "type": "uint256"
        },
        {
          "internalType": "uint256",
          "name": "world",
          "type": "uint256"
        },
        {
          "internalType": "uint256",
          "name": "roomDNA",
          "type": "uint256"
        },
        {
          "internalType": "uint256",
          "name": "startTime",
          "type": "uint256"
        },
        {
          "internalType": "uint256",
          "name": "curAnswer",
          "type": "uint256"
        },
        {
          "internalType": "bool",
          "name": "closed",
          "type": "bool"
        }
      ],
      "stateMutability": "view",
      "type": "function"
    },
    {
      "inputs": [
        {
          "internalType": "uint256",
          "name": "_carId",
          "type": "uint256"
        }
      ],
      "name": "levelUp",
      "outputs": [],
      "stateMutability": "payable",
      "type": "function"
    },
    {
      "inputs": [
        {
          "internalType": "uint256",
          "name": "",
          "type": "uint256"
        }
      ],
      "name": "openedRooms",
      "outputs": [
        {
          "internalType": "uint256",
          "name": "id",
          "type": "uint256"
        },
        {
          "internalType": "uint256",
          "name": "playersEntered",
          "type": "uint256"
        },
        {
          "internalType": "uint256",
          "name": "world",
          "type": "uint256"
        },
        {
          "components": [
            {
              "internalType": "uint256",
              "name": "playersNeeded",
              "type": "uint256"
            },
            {
              "internalType": "uint256",
              "name": "roadsNum",
              "type": "uint256"
            },
            {
              "internalType": "uint256",
              "name": "crossId",
              "type": "uint256"
            }
          ],
          "internalType": "struct RaceHandler.Cross",
          "name": "cross",
          "type": "tuple"
        }
      ],
      "stateMutability": "view",
      "type": "function"
    },
    {
      "inputs": [],
      "name": "owner",
      "outputs": [
        {
          "internalType": "address",
          "name": "",
          "type": "address"
        }
      ],
      "stateMutability": "view",
      "type": "function"
    },
    {
      "inputs": [
        {
          "internalType": "address",
          "name": "",
          "type": "address"
        }
      ],
      "name": "ownerCarCount",
      "outputs": [
        {
          "internalType": "uint256",
          "name": "",
          "type": "uint256"
        }
      ],
      "stateMutability": "view",
      "type": "function"
    },
    {
      "inputs": [
        {
          "internalType": "address",
          "name": "",
          "type": "address"
        }
      ],
      "name": "ownerChassisCount",
      "outputs": [
        {
          "internalType": "uint256",
          "name": "",
          "type": "uint256"
        }
      ],
      "stateMutability": "view",
      "type": "function"
    },
    {
      "inputs": [
        {
          "internalType": "address",
          "name": "",
          "type": "address"
        }
      ],
      "name": "ownerEngineCount",
      "outputs": [
        {
          "internalType": "uint256",
          "name": "",
          "type": "uint256"
        }
      ],
      "stateMutability": "view",
      "type": "function"
    },
    {
      "inputs": [],
      "name": "renounceOwnership",
      "outputs": [],
      "stateMutability": "nonpayable",
      "type": "function"
    },
    {
      "inputs": [
        {
          "internalType": "uint256",
          "name": "",
          "type": "uint256"
        }
      ],
      "name": "stations",
      "outputs": [
        {
          "internalType": "uint256",
          "name": "id",
          "type": "uint256"
        },
        {
          "internalType": "uint8",
          "name": "capacity",
          "type": "uint8"
        },
        {
          "internalType": "uint8",
          "name": "productionPerHour",
          "type": "uint8"
        },
        {
          "internalType": "uint8",
          "name": "currentFullness",
          "type": "uint8"
        },
        {
          "internalType": "uint256",
          "name": "lastUpdate",
          "type": "uint256"
        }
      ],
      "stateMutability": "view",
      "type": "function"
    },
    {
      "inputs": [
        {
          "internalType": "uint256",
          "name": "carId",
          "type": "uint256"
        },
        {
          "internalType": "uint256",
          "name": "chassisId",
          "type": "uint256"
        }
      ],
      "name": "switchChassis",
      "outputs": [],
      "stateMutability": "nonpayable",
      "type": "function"
    },
    {
      "inputs": [
        {
          "internalType": "uint256",
          "name": "carId",
          "type": "uint256"
        },
        {
          "internalType": "uint256",
          "name": "engineId",
          "type": "uint256"
        }
      ],
      "name": "switchEngine",
      "outputs": [],
      "stateMutability": "nonpayable",
      "type": "function"
    },
    {
      "inputs": [
        {
          "internalType": "address",
          "name": "newOwner",
          "type": "address"
        }
      ],
      "name": "transferOwnership",
      "outputs": [],
      "stateMutability": "nonpayable",
      "type": "function"
    },
    {
      "inputs": [
        {
          "internalType": "uint256",
          "name": "_fuelStatonId",
          "type": "uint256"
        },
        {
          "internalType": "uint8",
          "name": "_counts",
          "type": "uint8"
        }
      ],
      "name": "upgradeCapacity",
      "outputs": [],
      "stateMutability": "payable",
      "type": "function"
    },
    {
      "inputs": [
        {
          "internalType": "uint256",
          "name": "_engineId",
          "type": "uint256"
        },
        {
          "internalType": "uint8",
          "name": "_counts",
          "type": "uint8"
        }
      ],
      "name": "upgradeConsumtion",
      "outputs": [],
      "stateMutability": "payable",
      "type": "function"
    },
    {
      "inputs": [
        {
          "internalType": "uint256",
          "name": "_chassisId",
          "type": "uint256"
        },
        {
          "internalType": "uint8",
          "name": "_counts",
          "type": "uint8"
        }
      ],
      "name": "upgradeDurability",
      "outputs": [],
      "stateMutability": "payable",
      "type": "function"
    },
    {
      "inputs": [
        {
          "internalType": "uint256",
          "name": "_engineId",
          "type": "uint256"
        },
        {
          "internalType": "uint8",
          "name": "_counts",
          "type": "uint8"
        }
      ],
      "name": "upgradeHorsePowers",
      "outputs": [],
      "stateMutability": "payable",
      "type": "function"
    },
    {
      "inputs": [
        {
          "internalType": "uint256",
          "name": "_fuelStatonId",
          "type": "uint256"
        },
        {
          "internalType": "uint8",
          "name": "_counts",
          "type": "uint8"
        }
      ],
      "name": "upgradeProductionPerHour",
      "outputs": [],
      "stateMutability": "payable",
      "type": "function"
    },
    {
      "inputs": [
        {
          "internalType": "uint256",
          "name": "carId",
          "type": "uint256"
        }
      ],
      "name": "findRoom",
      "outputs": [],
      "stateMutability": "nonpayable",
      "type": "function"
    },
    {
      "inputs": [
        {
          "internalType": "uint256",
          "name": "roomId",
          "type": "uint256"
        }
      ],
      "name": "getClosedRoom",
      "outputs": [
        {
          "components": [
            {
              "internalType": "address",
              "name": "player",
              "type": "address"
            },
            {
              "internalType": "bool",
              "name": "correct",
              "type": "bool"
            },
            {
              "internalType": "uint256",
              "name": "time",
              "type": "uint256"
            },
            {
              "internalType": "uint256",
              "name": "carId",
              "type": "uint256"
            }
          ],
          "internalType": "struct RaceHandler.Answer[]",
          "name": "",
          "type": "tuple[]"
        }
      ],
      "stateMutability": "view",
      "type": "function"
    },
    {
      "inputs": [
        {
          "internalType": "uint256",
          "name": "roomId",
          "type": "uint256"
        },
        {
          "internalType": "uint256[]",
          "name": "answer",
          "type": "uint256[]"
        }
      ],
      "name": "commitAnswer",
      "outputs": [],
      "stateMutability": "nonpayable",
      "type": "function"
    }
  ],
  "bytecode": "0x60806040526000805461ffff60a01b191661014f60a21b179055600160088190556009556509184e72a00060165565b5e620f48000601755650da475abf0006018556611c37937e080006019556305f5e100601a5566038d7ea4c68000601b553480156200006c57600080fd5b5062000078336200024b565b60506003908155605b60049081556005805460ff1916600a179055620186a06006556201d4c1600755600b80546001908101909155600c805482019055604080516060808201835284825260208281018681526000848601818152601c8054808a0182558184529651968b027f0e4562a10381dec21b205ed72637e6b1b523bdd0e4d4d50af5cd23dd4500a2118181019890985593517f0e4562a10381dec21b205ed72637e6b1b523bdd0e4d4d50af5cd23dd4500a2128086019190915591517f0e4562a10381dec21b205ed72637e6b1b523bdd0e4d4d50af5cd23dd4500a21394850155875180870189528b81528086018b8152818a018581528354808d0185558487529251928e02808b019390935590518285015551908501558751808701895260028082528187019b8c52818a018581528354808d0185558487529251928e02808b01939093559b51828501559a5190850155875180870189528b81528086018c8152818a018b81528354808d0185558487529251928e02808b019390935590518285015551908501558751958601885298855292840189815295840187815288548089018a559890915292519690970292830195909555915193810193909355519190920155601f556200029b565b600080546001600160a01b038381166001600160a01b0319831681178455604051919092169283917f8be0079c531659141344cd1fd0a4f28419497f9722a3daafe3b4186f6b6457e09190a35050565b613bf080620002ab6000396000f3fe6080604052600436106102465760003560e01c80638776601911610139578063c85b7fed116100b6578063f2fde38b1161007a578063f2fde38b146109c1578063f7746e36146109e1578063f85993b914610a16578063faf4bb9814610a43578063fb2d954f14610a56578063fb33250f14610a7657600080fd5b8063c85b7fed14610921578063d1c54eea14610941578063d7086fab14610961578063ea12693314610981578063ede6fbf5146109a157600080fd5b8063b3b29afd116100fd578063b3b29afd14610846578063b72c0eea14610873578063bfcc9716146108b4578063c34cccc4146108d4578063c75bb4f4146108f457600080fd5b8063877660191461076b5780638da5cb5b14610798578063906f5f34146107b657806392f859db146107c9578063aa11b6811461081957600080fd5b80634e31f910116101c7578063715018a61161018b578063715018a6146106d65780637713d521146106eb5780637c62360f146107185780637fb2aa4d1461072b578063859092671461075857600080fd5b80634e31f910146105b2578063594193d71461061d5780635dcc4cc6146106535780636b606d9b146106895780636f206fc1146106a957600080fd5b80631c5dde0e1161020e5780631c5dde0e1461038b578063224370f0146103cd57806333ca504b146105015780633521c4261461054f578063449014901461057c57600080fd5b806303f2e05b1461024b5780630418394e14610260578063081315ff146102e75780630a0176fc1461033d5780630ce90ec214610378575b600080fd5b61025e6102593660046131bd565b610a96565b005b34801561026c57600080fd5b506102b361027b3660046131e9565b602160205260009081526040902080546001820154600283015460038401546005850154600690950154939492939192909160ff1686565b6040805196875260208701959095529385019290925260608401526080830152151560a082015260c0015b60405180910390f35b3480156102f357600080fd5b506103076103023660046131e9565b610bcc565b604080519485526020808601949094528481019290925280516060850152918201516080840152015160a082015260c0016102de565b34801561034957600080fd5b5061036a6103583660046131e9565b60156020526000908152604090205481565b6040519081526020016102de565b61025e6103863660046131e9565b610c2a565b34801561039757600080fd5b506103ab6103a63660046131e9565b610d9a565b6040805193845263ffffffff92831660208501529116908201526060016102de565b3480156103d957600080fd5b5061025e600180546040805160a0810182528281526000805460ff600160a01b820481166020808601828152600160a81b90940483168688019081526060870192835263ffffffff421660808801908152898b018b559986529551600389027fb10e2d527612073b26eecdfd717e6a320cf44b4afac2b0732d9fcbe2b7fa0cf681019190915593517fb10e2d527612073b26eecdfd717e6a320cf44b4afac2b0732d9fcbe2b7fa0cf785018054975193518516620100000262ff0000199486166101000261ffff19909916929095169190911796909617919091169190911790935594517fb10e2d527612073b26eecdfd717e6a320cf44b4afac2b0732d9fcbe2b7fa0cf8909501949094559183526002909152902080546001600160a01b03191633179055565b34801561050d57600080fd5b5061053761051c3660046131e9565b600d602052600090815260409020546001600160a01b031681565b6040516001600160a01b0390911681526020016102de565b34801561055b57600080fd5b5061056f61056a3660046131e9565b610dda565b6040516102de9190613202565b34801561058857600080fd5b506105376105973660046131e9565b600f602052600090815260409020546001600160a01b031681565b3480156105be57600080fd5b506105d26105cd366004613271565b610ecc565b6040516102de9190600060a0820190508251825260ff602084015116602083015260ff604084015116604083015260ff60608401511660608301526080830151608083015292915050565b34801561062957600080fd5b506105376106383660046131e9565b6002602052600090815260409020546001600160a01b031681565b34801561065f57600080fd5b5061053761066e3660046131e9565b600e602052600090815260409020546001600160a01b031681565b34801561069557600080fd5b5061025e6106a436600461329a565b610fb3565b3480156106b557600080fd5b506106c96106c4366004613271565b6110b3565b6040516102de91906132bc565b3480156106e257600080fd5b5061025e611207565b3480156106f757600080fd5b5061070b610706366004613271565b61121b565b6040516102de9190613312565b61025e6107263660046131bd565b611363565b34801561073757600080fd5b5061036a610746366004613271565b60116020526000908152604090205481565b61025e6107663660046131bd565b61147e565b34801561077757600080fd5b5061036a610786366004613271565b60126020526000908152604090205481565b3480156107a457600080fd5b506000546001600160a01b0316610537565b61025e6107c43660046131bd565b611572565b3480156107d557600080fd5b506107e96107e43660046131e9565b61165a565b6040805195865260ff9485166020870152928416928501929092529091166060830152608082015260a0016102de565b34801561082557600080fd5b5061036a6108343660046131e9565b60136020526000908152604090205481565b34801561085257600080fd5b5061036a610861366004613271565b60106020526000908152604090205481565b34801561087f57600080fd5b5061089361088e3660046131e9565b6116a6565b6040805193845261ffff909216602084015260ff16908201526060016102de565b3480156108c057600080fd5b5061036a6108cf366004613379565b6116e3565b3480156108e057600080fd5b5061025e6108ef36600461329a565b611828565b34801561090057600080fd5b5061091461090f366004613271565b611978565b6040516102de91906133ff565b34801561092d57600080fd5b5061025e61093c366004613510565b611bb6565b34801561094d57600080fd5b5061025e61095c36600461329a565b611db3565b34801561096d57600080fd5b5061036a61097c3660046135d4565b611e99565b34801561098d57600080fd5b5061025e61099c36600461329a565b611ff5565b3480156109ad57600080fd5b5061025e6109bc366004613680565b612159565b3480156109cd57600080fd5b5061025e6109dc366004613271565b612327565b3480156109ed57600080fd5b50610a016109fc3660046131e9565b6123a0565b6040516102de999897969594939291906136b5565b348015610a2257600080fd5b5061036a610a313660046131e9565b60146020526000908152604090205481565b61025e610a513660046131bd565b61248d565b348015610a6257600080fd5b5061025e610a713660046131e9565b61259d565b348015610a8257600080fd5b5061025e610a9136600461370c565b612aab565b6000828152600f602052604090205482906001600160a01b03163314610ad75760405162461bcd60e51b8152600401610ace90613794565b60405180910390fd5b601a54600c8481548110610aed57610aed6137c2565b6000918252602090912060016002909202010154610b149063ffffffff1660ff85166137ee565b63ffffffff16610b24919061381a565b3414610b2f57600080fd5b600080546040516001600160a01b03909116913480156108fc02929091818181858888f19350505050158015610b69573d6000803e3d6000fd5b508160ff16600c8481548110610b8157610b816137c2565b6000918252602082206001600290920201018054909190610ba990849063ffffffff16613839565b92506101000a81548163ffffffff021916908363ffffffff160217905550505050565b60208181548110610bdc57600080fd5b60009182526020918290206006909102018054600182015460028301546040805160608101825260038601548152600486015496810196909652600590940154938501939093529093509184565b6000600a808381548110610c4057610c406137c2565b6000918252602090912060046009909202010154610c61919060ff16613877565b610c6c906001613899565b60ff16601b54610c7c919061381a565b9050803414610cba5760405162461bcd60e51b815260206004820152600a6024820152691ddc9bdb99c818dbdcdd60b21b6044820152606401610ace565b600080546040516001600160a01b03909116913480156108fc02929091818181858888f19350505050158015610cf4573d6000803e3d6000fd5b50600a8281548110610d0857610d086137c2565b600091825260208220600460099092020101805460ff1691610d29836138be565b91906101000a81548160ff021916908360ff160217905550506000600a8381548110610d5757610d576137c2565b9060005260206000209060090201600601819055506000600a8381548110610d8157610d816137c2565b9060005260206000209060090201600701819055505050565b600c8181548110610daa57600080fd5b60009182526020909120600290910201805460019091015490915063ffffffff8082169164010000000090041683565b60008181526021602052604090206006015460609060ff16610e305760405162461bcd60e51b815260206004820152600f60248201526e1c9bdbdb481b9bdd0818db1bdcd959608a1b6044820152606401610ace565b600082815260216020908152604080832060040180548251818502810185019093528083529193909284015b82821015610ec1576000848152602090819020604080516080810182526003860290920180546001600160a01b0381168452600160a01b900460ff16151583850152600180820154928401929092526002015460608301529083529092019101610e5c565b505050509050919050565b6040805160a081018252600080825260208201819052918101829052606081018290526080810182905290805b600154811015610f3e576000818152600260205260409020546001600160a01b03808616911603610f2c57809150610f3e565b80610f36816138dd565b915050610ef9565b5060018181548110610f5257610f526137c2565b60009182526020918290206040805160a081018252600390930290910180548352600181015460ff80821695850195909552610100810485169284019290925262010000909104909216606082015260029091015460808201529392505050565b6000818152600f602052604090205481906001600160a01b03163314610feb5760405162461bcd60e51b8152600401610ace90613794565b6000838152600d602052604090205483906001600160a01b0316331461101057600080fd5b82600a8581548110611024576110246137c2565b906000526020600020906009020160030154146110835760405162461bcd60e51b815260206004820152601860248201527f6368617373697320617265206e6f7420617474616368656400000000000000006044820152606401610ace565b6000600a8581548110611098576110986137c2565b90600052602060002090600902016003018190555050505050565b6001600160a01b0381166000908152601260205260408120546060919067ffffffffffffffff8111156110e8576110e86134c9565b60405190808252806020026020018201604052801561113357816020015b60408051606081018252600080825260208083018290529282015282526000199092019101816111065790505b5090506000805b600c548110156111fe576000818152600f60205260409020546001600160a01b038087169116036111ec57600c8181548110611178576111786137c2565b6000918252602091829020604080516060810182526002909302909101805483526001015463ffffffff8082169484019490945264010000000090049092169181019190915283518490849081106111d2576111d26137c2565b602002602001018190525081806111e8906138dd565b9250505b806111f6816138dd565b91505061113a565b50909392505050565b61120f612c91565b6112196000612ceb565b565b6001600160a01b0381166000908152601160205260408120546060919067ffffffffffffffff811115611250576112506134c9565b60405190808252806020026020018201604052801561129b57816020015b604080516060810182526000808252602080830182905292820152825260001990920191018161126e5790505b5090506000805b600b548110156111fe576000818152600e60205260409020546001600160a01b0380871691160361135157600b81815481106112e0576112e06137c2565b600091825260209182902060408051606081018252600293909302909101805483526001015461ffff8116938301939093526201000090920460ff16918101919091528351849084908110611337576113376137c2565b6020026020010181905250818061134d906138dd565b9250505b8061135b816138dd565b9150506112a2565b6000828152600e602052604090205482906001600160a01b0316331461138857600080fd5b600b838154811061139b5761139b6137c2565b60009182526020909120600290910201600101546113c39062010000900460ff16600a6138f6565b6113ce9060026139fd565b6019546113db919061381a565b34146113e657600080fd5b600080546040516001600160a01b03909116913480156108fc02929091818181858888f19350505050158015611420573d6000803e3d6000fd5b5081600b8481548110611435576114356137c2565b906000526020600020906002020160010160028282829054906101000a900460ff1661146191906138f6565b92506101000a81548160ff021916908360ff160217905550505050565b60008281526002602052604090205482906001600160a01b031633146114a357600080fd5b601754600184815481106114b9576114b96137c2565b60009182526020909120600390910201600101546114df90610100900460ff1684613a13565b60ff166114ec919061381a565b34146114f757600080fd5b600080546040516001600160a01b03909116913480156108fc02929091818181858888f19350505050158015611531573d6000803e3d6000fd5b508160018481548110611546576115466137c2565b906000526020600020906003020160010160018282829054906101000a900460ff166114619190613899565b60008281526002602052604090205482906001600160a01b0316331461159757600080fd5b601654600184815481106115ad576115ad6137c2565b60009182526020909120600160039092020101546115ce9060ff1684613a13565b60ff166115db919061381a565b34146115e657600080fd5b600080546040516001600160a01b03909116913480156108fc02929091818181858888f19350505050158015611620573d6000803e3d6000fd5b508160018481548110611635576116356137c2565b600091825260208220600160039092020101805490919061146190849060ff16613899565b6001818154811061166a57600080fd5b600091825260209091206003909102018054600182015460029092015490925060ff808316926101008104821692620100009091049091169085565b600b81815481106116b657600080fd5b60009182526020909120600290910201805460019091015490915061ffff81169062010000900460ff1683565b60006116ed612c91565b60098054600091826116fe836138dd565b909155506040805160608101825282815263ffffffff8781166020808401828152848601928352600c80546001810182556000918252955160029096027fdf6966c971051c3d54ec59162606531493a51404a002842f56009d7e5cf4a8c781019690965590517fdf6966c971051c3d54ec59162606531493a51404a002842f56009d7e5cf4a8c89095018054935185166401000000000267ffffffffffffffff1990941695909416949094179190911790915581546001600160a01b03168252601290529081208054929350906117d4836138dd565b909155505060008054828252600f602052604090912080546001600160a01b0319166001600160a01b03909216919091179055821561181f5760008181526015602052604090208390555b90505b92915050565b6000818152600e602052604090205481906001600160a01b0316331461184d57600080fd5b6000838152600d602052604090205483906001600160a01b0316331461187257600080fd5b82600a8581548110611886576118866137c2565b906000526020600020906009020160020154036118d35760405162461bcd60e51b815260206004820152600b60248201526a73616d6520656e67696e6560a81b6044820152606401610ace565b60006118de33611978565b905060005b815181101561194757848282815181106118ff576118ff6137c2565b60200260200101516040015103611935576000828281518110611924576119246137c2565b602002602001015160400181815250505b8061193f816138dd565b9150506118e3565b5083600a868154811061195c5761195c6137c2565b9060005260206000209060090201600201819055505050505050565b6001600160a01b0381166000908152601060205260408120546060919067ffffffffffffffff8111156119ad576119ad6134c9565b604051908082528060200260200182016040528015611a3057816020015b611a1d60405180610120016040528060608152602001600081526020016000815260200160008152602001600060ff168152602001600081526020016000815260200160008152602001600081525090565b8152602001906001900390816119cb5790505b5090506000805b600a548110156111fe576000818152600d60205260409020546001600160a01b03808716911603611ba457600a8181548110611a7557611a756137c2565b906000526020600020906009020160405180610120016040529081600082018054611a9f90613a34565b80601f0160208091040260200160405190810160405280929190818152602001828054611acb90613a34565b8015611b185780601f10611aed57610100808354040283529160200191611b18565b820191906000526020600020905b815481529060010190602001808311611afb57829003601f168201915b5050509183525050600182015460208201526002820154604082015260038201546060820152600482015460ff166080820152600582015460a0820152600682015460c0820152600782015460e0820152600890910154610100909101528351849084908110611b8a57611b8a6137c2565b60200260200101819052508180611ba0906138dd565b9250505b80611bae816138dd565b915050611a37565b336000908152601d60205260409020548214611c045760405162461bcd60e51b815260206004820152600d60248201526c6e6f7420796f757220726f6f6d60981b6044820152606401610ace565b600082815260216020526040808220600201549051634e31f59760e11b815290919073__PDDLib________________________________90639c63eb2e90611c529085908790600401613a6e565b602060405180830381865af4158015611c6f573d6000803e3d6000fd5b505050506040513d601f19601f82011682018060405250810190611c939190613abc565b60408051608081018252338082528315156020808401918252428486019081526000938452601e825285842054606086019081528b855260218352958420600481018054600181810183558288529487208851600390920201805496511515600160a01b026001600160a81b03199097166001600160a01b03929092169190911795909517855591519284019290925594516002909201919091559088905280549254939450909290919003611dab576040518681527f67acaceb58ff1ad2aa8b3069f69c4cd076824e06a09184b75fb197ead7040be79060200160405180910390a16000868152602160209081526040808320600601805460ff19166001179055338352601d8252808320839055601e9091528120555b505050505050565b6000818152600e602052604090205481906001600160a01b03163314611dd857600080fd5b6000838152600d602052604090205483906001600160a01b03163314611dfd57600080fd5b82600a8581548110611e1157611e116137c2565b90600052602060002090600902016002015414611e695760405162461bcd60e51b8152602060048201526016602482015275195b99da5b99481a5cc81b9bdd08185d1d1858da195960521b6044820152606401610ace565b6000600a8581548110611e7e57611e7e6137c2565b90600052602060002090600902016002018190555050505050565b6000611ea3612c91565b6008805460009182611eb4836138dd565b909155506040805160608101825282815261ffff8089166020830190815260ff808a16948401948552600b80546001810182556000918252945160029095027f0175b7a638427703f0dbe7bb9bbf987a2551717b34e79f33b5b1008d1fa01db981019590955591517f0175b7a638427703f0dbe7bb9bbf987a2551717b34e79f33b5b1008d1fa01dba90940180549551909116620100000262ffffff19909516939092169290921792909217909155909150601190611f7b6000546001600160a01b031690565b6001600160a01b0316815260208101919091526040016000908120805491611fa2836138dd565b909155505060008054828252600e602052604090912080546001600160a01b0319166001600160a01b039092169190911790558215611fed5760008181526014602052604090208390555b949350505050565b6000818152600f602052604090205481906001600160a01b0316331461202d5760405162461bcd60e51b8152600401610ace90613794565b6000838152600d602052604090205483906001600160a01b0316331461205257600080fd5b82600a8581548110612066576120666137c2565b906000526020600020906009020160030154036120b45760405162461bcd60e51b815260206004820152600c60248201526b73616d65206368617373697360a01b6044820152606401610ace565b60006120bf33611978565b905060005b815181101561212857848282815181106120e0576120e06137c2565b60200260200101516060015103612116576000828281518110612105576121056137c2565b602002602001015160600181815250505b80612120816138dd565b9150506120c4565b5083600a868154811061213d5761213d6137c2565b9060005260206000209060090201600301819055505050505050565b336000908152601060205260409020541561217357600080fd5b60008161217f42612d3b565b604051602001612190929190613ade565b60405160208183030381529060405290506000816040516020016121b49190613b04565b6040516020818303038152906040528051906020012060001c905060006121d9612dce565b905060006121e5612f02565b600a80546040805161012081018252898152602080820189905291810187905260608101859052600160808201819052600060a0830181905260c0830181905260e083018190526101008301859052908401855593909352825180519495509193600985027fc65a7bb8d6351c1cf70c95a316cc6a92839c986682d98bc35f958f4883f9d2a8019261227b92849291019061310e565b506020828101516001830155604080840151600284015560608401516003840155608084015160048401805460ff191660ff90921691909117905560a0840151600584015560c0840151600684015560e08401516007840155610100909301516008909201919091556000838152600d82528281208054336001600160a01b031990911681179091558152601090915290812080549161231a836138dd565b9190505550505050505050565b61232f612c91565b6001600160a01b0381166123945760405162461bcd60e51b815260206004820152602660248201527f4f776e61626c653a206e6577206f776e657220697320746865207a65726f206160448201526564647265737360d01b6064820152608401610ace565b61239d81612ceb565b50565b600a81815481106123b057600080fd5b90600052602060002090600902016000915090508060000180546123d390613a34565b80601f01602080910402602001604051908101604052809291908181526020018280546123ff90613a34565b801561244c5780601f106124215761010080835404028352916020019161244c565b820191906000526020600020905b81548152906001019060200180831161242f57829003601f168201915b50505060018401546002850154600386015460048701546005880154600689015460078a01546008909a01549899959894975092955060ff90911693909289565b6000828152600e602052604090205482906001600160a01b031633146124b257600080fd5b601854600b84815481106124c8576124c86137c2565b60009182526020909120600160029092020101546124ed9061ffff1660ff8516613b20565b61ffff166124fb919061381a565b341461250657600080fd5b600080546040516001600160a01b03909116913480156108fc02929091818181858888f19350505050158015612540573d6000803e3d6000fd5b508160ff16600b8481548110612558576125586137c2565b600091825260208220600160029092020101805490919061257e90849061ffff16613b41565b92506101000a81548161ffff021916908361ffff160217905550505050565b6000818152600d602052604090205481906001600160a01b031633146125c257600080fd5b6000805b60205481101561294857602081815481106125e3576125e36137c2565b906000526020600020906006020160020154600a808681548110612609576126096137c2565b600091825260209091206004600990920201015461262a919060ff16613877565b612635906001613899565b60ff1603612936576001915060208181548110612654576126546137c2565b60009182526020808320600690920290910154338352601d8252604080842091909155601e8252909120859055805482908110612693576126936137c2565b6000918252602082206001600690920201018054916126b1836138dd565b9190505550602081815481106126c9576126c96137c2565b906000526020600020906006020160030160000154602082815481106126f1576126f16137c2565b9060005260206000209060060201600101540361293657600073__PDDLib________________________________63c037e54560208481548110612737576127376137c2565b9060005260206000209060060201600301600201546020858154811061275f5761275f6137c2565b9060005260206000209060060201600301600001546040518363ffffffff1660e01b815260040161279a929190918252602082015260400190565b602060405180830381865af41580156127b7573d6000803e3d6000fd5b505050506040513d601f19601f820116820180604052508101906127db9190613b5e565b9050600060216000602085815481106127f6576127f66137c2565b906000526020600020906006020160000154815260200190815260200160002090506020838154811061282b5761282b6137c2565b6000918252602091829020600360069092020101548255805484908110612854576128546137c2565b600091825260208083206006928302016002908101546001860155840185905542600385015560058401929092558201805460ff1916905580547f2838ebeee7dc83fac85a3d6dbca0c0b6771591ada8b00f97371aa6611e631f9c9190859081106128c1576128c16137c2565b600091825260209182902060069091020154604080519182529181018590520160405180910390a1602083815481106128fc576128fc6137c2565b6000918252602082206006909102018181556001810182905560028101829055600381018290556004810182905560050155506129489050565b80612940816138dd565b9150506125c6565b50801561295457505050565b601f805460009182612965836138dd565b90915550601c5490915060009061297c9042613b77565b905081601d6000336001600160a01b03166001600160a01b03168152602001908152602001600020819055506020604051806080016040528084815260200160018152602001600a8089815481106129d6576129d66137c2565b60009182526020909120600460099092020101546129f7919060ff16613877565b612a02906001613899565b60ff168152602001601c8481548110612a1d57612a1d6137c2565b60009182526020808320604080516060808201835260039586029093018054825260018082015483870152600291820154838501529190975288548082018a5598865294839020875160069099020197885586830151948801949094558584015194870194909455939092015180519285019290925591810151600484015501516005909101555050505050565b612ab3612c91565b600086612abf42612d3b565b604051602001612ad0929190613ade565b6040516020818303038152906040529050600081604051602001612af49190613b04565b6040516020818303038152906040528051906020012060001c90506000612b1d88886000611e99565b90506000612b2c8760006116e3565b600a805460408051610120810182528e815260208082018990529181018790526060810185905260ff8b166080820152600060a0820181905260c0820181905260e08201819052610100820184905260018401855593909352825180519495509193600985027fc65a7bb8d6351c1cf70c95a316cc6a92839c986682d98bc35f958f4883f9d2a80192612bc392849291019061310e565b506020828101516001830155604080840151600284015560608401516003840155608084015160048401805460ff90921660ff1990921691909117905560a0840151600584015560c0840151600684015560e084015160078401556101009093015160089092019190915560008054848252600d835283822080546001600160a01b0319166001600160a01b0392831617905581541681526010909152908120805491612c6f836138dd565b9091555050600090815260136020526040902094909455505050505050505050565b6000546001600160a01b031633146112195760405162461bcd60e51b815260206004820181905260248201527f4f776e61626c653a2063616c6c6572206973206e6f7420746865206f776e65726044820152606401610ace565b600080546001600160a01b038381166001600160a01b0319831681178455604051919092169283917f8be0079c531659141344cd1fd0a4f28419497f9722a3daafe3b4186f6b6457e09190a35050565b60606000612d4883613036565b600101905060008167ffffffffffffffff811115612d6857612d686134c9565b6040519080825280601f01601f191660200182016040528015612d92576020820181803683370190505b5090508181016020015b600019016f181899199a1a9b1b9c1cb0b131b232b360811b600a86061a8153600a8504945084612d9c57509392505050565b600080600354600454612de19190613b8b565b612deb9042613b77565b600354612df89190613ba2565b600880549192506000919082612e0d836138dd565b909155506040805160608101825282815261ffff808616602080840191825260055460ff908116858701908152600b80546001810182556000918252965160029097027f0175b7a638427703f0dbe7bb9bbf987a2551717b34e79f33b5b1008d1fa01db981019790975593517f0175b7a638427703f0dbe7bb9bbf987a2551717b34e79f33b5b1008d1fa01dba90960180549151909216620100000262ffffff1990911695909416949094179290921790925533825260119052908120805492935090612ed9836138dd565b90915550506000818152600e6020526040902080546001600160a01b0319163317905592915050565b600080600654600754612f159190613b8b565b612f1f9042613b77565b600654612f2c9190613ba2565b600980549192506000919082612f41836138dd565b909155506040805160608101825282815263ffffffff8086166020808401828152848601928352600c80546001810182556000918252955160029096027fdf6966c971051c3d54ec59162606531493a51404a002842f56009d7e5cf4a8c781019690965590517fdf6966c971051c3d54ec59162606531493a51404a002842f56009d7e5cf4a8c89095018054935185166401000000000267ffffffffffffffff199094169590941694909417919091179091553382526012905290812080549293509061300d836138dd565b90915550506000818152600f6020526040902080546001600160a01b0319163317905592915050565b60008072184f03e93ff9f4daa797ed6e38ed64bf6a1f0160401b83106130755772184f03e93ff9f4daa797ed6e38ed64bf6a1f0160401b830492506040015b6d04ee2d6d415b85acef810000000083106130a1576d04ee2d6d415b85acef8100000000830492506020015b662386f26fc1000083106130bf57662386f26fc10000830492506010015b6305f5e10083106130d7576305f5e100830492506008015b61271083106130eb57612710830492506004015b606483106130fd576064830492506002015b600a83106118225760010192915050565b82805461311a90613a34565b90600052602060002090601f01602090048101928261313c5760008555613182565b82601f1061315557805160ff1916838001178555613182565b82800160010185558215613182579182015b82811115613182578251825591602001919060010190613167565b5061318e929150613192565b5090565b5b8082111561318e5760008155600101613193565b803560ff811681146131b857600080fd5b919050565b600080604083850312156131d057600080fd5b823591506131e0602084016131a7565b90509250929050565b6000602082840312156131fb57600080fd5b5035919050565b602080825282518282018190526000919060409081850190868401855b8281101561326457815180516001600160a01b03168552868101511515878601528581015186860152606090810151908501526080909301929085019060010161321f565b5091979650505050505050565b60006020828403121561328357600080fd5b81356001600160a01b038116811461181f57600080fd5b600080604083850312156132ad57600080fd5b50508035926020909101359150565b602080825282518282018190526000919060409081850190868401855b82811015613264578151805185528681015163ffffffff90811688870152908601511685850152606090930192908501906001016132d9565b602080825282518282018190526000919060409081850190868401855b82811015613264578151805185528681015161ffff168786015285015160ff16858501526060909301929085019060010161332f565b803563ffffffff811681146131b857600080fd5b6000806040838503121561338c57600080fd5b61339583613365565b946020939093013593505050565b60005b838110156133be5781810151838201526020016133a6565b838111156133cd576000848401525b50505050565b600081518084526133eb8160208601602086016133a3565b601f01601f19169290920160200192915050565b60006020808301818452808551808352604092508286019150828160051b87010184880160005b838110156134bb57603f198984030185528151610120815181865261344d828701826133d3565b91505088820151898601528782015188860152606080830151818701525060808083015161347f8288018260ff169052565b505060a0828101519086015260c0808301519086015260e080830151908601526101009182015191909401529386019390860190600101613426565b509098975050505050505050565b634e487b7160e01b600052604160045260246000fd5b604051601f8201601f1916810167ffffffffffffffff81118282101715613508576135086134c9565b604052919050565b6000806040838503121561352357600080fd5b8235915060208084013567ffffffffffffffff8082111561354357600080fd5b818601915086601f83011261355757600080fd5b813581811115613569576135696134c9565b8060051b915061357a8483016134df565b818152918301840191848101908984111561359457600080fd5b938501935b838510156135b257843582529385019390850190613599565b8096505050505050509250929050565b803561ffff811681146131b857600080fd5b6000806000606084860312156135e957600080fd5b6135f2846135c2565b9250613600602085016131a7565b9150604084013590509250925092565b600082601f83011261362157600080fd5b813567ffffffffffffffff81111561363b5761363b6134c9565b61364e601f8201601f19166020016134df565b81815284602083860101111561366357600080fd5b816020850160208301376000918101602001919091529392505050565b60006020828403121561369257600080fd5b813567ffffffffffffffff8111156136a957600080fd5b611fed84828501613610565b60006101208083526136c98184018d6133d3565b602084019b909b5250506040810197909752606087019590955260ff93909316608086015260a085019190915260c084015260e083015261010090910152919050565b60008060008060008060c0878903121561372557600080fd5b863567ffffffffffffffff81111561373c57600080fd5b61374889828a01613610565b965050613757602088016135c2565b9450613765604088016131a7565b935061377360608801613365565b9250613781608088016131a7565b915060a087013590509295509295509295565b6020808252601490820152730c6d0c2e6e6d2e640dcdee840f2deeae4407c74560631b604082015260600190565b634e487b7160e01b600052603260045260246000fd5b634e487b7160e01b600052601160045260246000fd5b600063ffffffff80831681851681830481118215151615613811576138116137d8565b02949350505050565b6000816000190483118215151615613834576138346137d8565b500290565b600063ffffffff808316818516808303821115613858576138586137d8565b01949350505050565b634e487b7160e01b600052601260045260246000fd5b600060ff83168061388a5761388a613861565b8060ff84160491505092915050565b600060ff821660ff84168060ff038211156138b6576138b66137d8565b019392505050565b600060ff821660ff81036138d4576138d46137d8565b60010192915050565b6000600182016138ef576138ef6137d8565b5060010190565b600060ff821660ff841680821015613910576139106137d8565b90039392505050565b600181815b8085111561395457816000190482111561393a5761393a6137d8565b8085161561394757918102915b93841c939080029061391e565b509250929050565b60008261396b57506001611822565b8161397857506000611822565b816001811461398e5760028114613998576139b4565b6001915050611822565b60ff8411156139a9576139a96137d8565b50506001821b611822565b5060208310610133831016604e8410600b84101617156139d7575081810a611822565b6139e18383613919565b80600019048211156139f5576139f56137d8565b029392505050565b6000613a0c60ff84168361395c565b9392505050565b600060ff821660ff84168160ff04811182151516156139f5576139f56137d8565b600181811c90821680613a4857607f821691505b602082108103613a6857634e487b7160e01b600052602260045260246000fd5b50919050565b6000604082018483526020604081850152818551808452606086019150828701935060005b81811015613aaf57845183529383019391830191600101613a93565b5090979650505050505050565b600060208284031215613ace57600080fd5b8151801515811461181f57600080fd5b60008351613af08184602088016133a3565b8351908301906138588183602088016133a3565b60008251613b168184602087016133a3565b9190910192915050565b600061ffff80831681851681830481118215151615613811576138116137d8565b600061ffff808316818516808303821115613858576138586137d8565b600060208284031215613b7057600080fd5b5051919050565b600082613b8657613b86613861565b500690565b600082821015613b9d57613b9d6137d8565b500390565b60008219821115613bb557613bb56137d8565b50019056fea2646970667358221220e36374f597fd827afaaa1499123c3418150d98e42e12dcc9f5d0174b34fdf09064736f6c634300080d0033",
  "immutableReferences": {},
  "source": "// SPDX-License-Identifier: MIT\npragma solidity ^0.8.13;\n\nimport \"./PDDLib.sol\";\nimport \"./CarHelper.sol\";\nimport \"./CarFactory.sol\";\n\ncontract RaceHandler is CarHelper{\n    struct Cross{\n        uint playersNeeded;\n        uint roadsNum;\n        uint crossId;\n    }\n\n    Cross[] crosses;\n    \n    mapping(address => uint) playersToRooms;\n    mapping(address => uint) playersToCars;\n    struct OpenedRoom{\n        uint id;\n        uint playersEntered;\n        uint world;\n        Cross cross;\n    }\n    struct StartedRoom{\n        uint numberPlayers;\n        uint world;\n        uint roomDNA;\n        uint startTime;\n        Answer[] answers;\n        uint curAnswer;\n        bool closed;\n    }\n    struct Answer{\n        address player;\n        bool correct;\n        uint time;\n        uint carId;\n    }\n\n    uint roomsCount;\n\n    constructor(){\n        crosses.push(Cross(4,4,0));\n        crosses.push(Cross(3,4,0));\n        crosses.push(Cross(2,4,0));\n        crosses.push(Cross(3,3,1));\n        crosses.push(Cross(2,3,1));\n        roomsCount = 1;\n    }\n\n    event RoomFull(uint roomId, uint roomDNA);\n    event RoomClosed(uint roomId);\n\n    OpenedRoom[] public openedRooms;\n    mapping(uint => StartedRoom) public idToStartedRooms;\n\n    function findRoom(uint carId) public onlyOwnerOfCar(carId){\n        bool foundRoom = false;\n        for(uint i = 0; i<openedRooms.length; i++){\n            if(cars[carId].carLevel/10+1 != openedRooms[i].world){\n                continue;\n            }\n            foundRoom = true;\n            playersToRooms[msg.sender] = openedRooms[i].id;\n            playersToCars[msg.sender] = carId;\n            openedRooms[i].playersEntered++;\n            if(openedRooms[i].playersEntered == openedRooms[i].cross.playersNeeded){\n                uint roomDNA = PDDLib.generateRoom(openedRooms[i].cross.crossId, openedRooms[i].cross.playersNeeded);\n                \n                StartedRoom storage ss = idToStartedRooms[openedRooms[i].id];\n                ss.numberPlayers = openedRooms[i].cross.playersNeeded;\n                ss.world = openedRooms[i].world;\n                ss.roomDNA = roomDNA;\n                ss.startTime = block.timestamp;\n                ss.curAnswer = 0;\n                ss.closed = false;\n\n                emit RoomFull(openedRooms[i].id, roomDNA);\n                delete openedRooms[i];\n                break;\n            }\n        }\n\n        if(foundRoom){\n            return;\n        }\n        uint id = roomsCount++;\n        uint crossNum = block.timestamp%crosses.length;\n        playersToRooms[msg.sender] = id;\n        openedRooms.push(OpenedRoom(\n            id,\n            1,\n            cars[carId].carLevel/10+1,\n            crosses[crossNum]\n        ));\n    }\n\n    function getClosedRoom(uint roomId) public view returns(Answer[] memory){\n        require(idToStartedRooms[roomId].closed, \"room not closed\");\n        return idToStartedRooms[roomId].answers;\n    }\n\n\n\n    function commitAnswer(uint roomId, uint[] memory answer) public{\n        require(playersToRooms[msg.sender]==roomId, \"not your room\");\n\n        uint roomDNA = idToStartedRooms[roomId].roomDNA;\n        bool right = PDDLib.isCorrectAnswer(roomDNA, answer);\n        //Answer memory ans = Answer(msg.sender, right, block.timestamp);\n        \n        Answer memory ans = Answer(msg.sender, right, block.timestamp, playersToCars[msg.sender]);\n        StartedRoom storage sr = idToStartedRooms[roomId];\n        sr.answers.push(ans);\n\n        if(idToStartedRooms[roomId].answers.length == idToStartedRooms[roomId].numberPlayers){\n            emit RoomClosed(roomId);\n            idToStartedRooms[roomId].closed = true;\n            delete playersToRooms[msg.sender];\n            delete playersToCars[msg.sender];\n        }\n    }\n}\n",
  "sourcePath": "/Users/vvan/Programming/JavaScript/DriveSafely/contract/contracts/RaceHandler.sol",
  "compiler": {
    "name": "solc",
    "version": "0.8.13+commit.abaa5c0e.Emscripten.clang"
  },
  "schemaVersion": "3.4.11",
  "updatedAt": "2023-01-11T11:15:32.707Z",
  "networkType": "ethereum",
  "devdoc": {
    "kind": "dev",
    "methods": {
      "owner()": {
        "details": "Returns the address of the current owner."
      },
      "renounceOwnership()": {
        "details": "Leaves the contract without owner. It will not be possible to call `onlyOwner` functions anymore. Can only be called by the current owner. NOTE: Renouncing ownership will leave the contract without an owner, thereby removing any functionality that is only available to the owner."
      },
      "transferOwnership(address)": {
        "details": "Transfers ownership of the contract to a new account (`newOwner`). Can only be called by the current owner."
      }
    },
    "version": 1
  },
  "userdoc": {
    "kind": "user",
    "methods": {},
    "version": 1
  }
}