{
  "contractName": "RaceHandler",
  "abi": [
    {
      "inputs": [],
      "stateMutability": "nonpayable",
      "type": "constructor"
    },
    {
      "anonymous": false,
      "inputs": [
        {
          "indexed": true,
          "internalType": "address",
          "name": "previousOwner",
          "type": "address"
        },
        {
          "indexed": true,
          "internalType": "address",
          "name": "newOwner",
          "type": "address"
        }
      ],
      "name": "OwnershipTransferred",
      "type": "event"
    },
    {
      "anonymous": false,
      "inputs": [
        {
          "indexed": false,
          "internalType": "uint256",
          "name": "roomId",
          "type": "uint256"
        }
      ],
      "name": "RoomClosed",
      "type": "event"
    },
    {
      "anonymous": false,
      "inputs": [
        {
          "indexed": false,
          "internalType": "uint256",
          "name": "roomId",
          "type": "uint256"
        },
        {
          "indexed": false,
          "internalType": "uint256",
          "name": "roomDNA",
          "type": "uint256"
        }
      ],
      "name": "RoomFull",
      "type": "event"
    },
    {
      "inputs": [
        {
          "internalType": "uint256",
          "name": "",
          "type": "uint256"
        }
      ],
      "name": "carToOwner",
      "outputs": [
        {
          "internalType": "address",
          "name": "",
          "type": "address"
        }
      ],
      "stateMutability": "view",
      "type": "function"
    },
    {
      "inputs": [
        {
          "internalType": "uint256",
          "name": "",
          "type": "uint256"
        }
      ],
      "name": "carToPrice",
      "outputs": [
        {
          "internalType": "uint256",
          "name": "",
          "type": "uint256"
        }
      ],
      "stateMutability": "view",
      "type": "function"
    },
    {
      "inputs": [
        {
          "internalType": "uint256",
          "name": "",
          "type": "uint256"
        }
      ],
      "name": "cars",
      "outputs": [
        {
          "internalType": "string",
          "name": "model",
          "type": "string"
        },
        {
          "internalType": "uint256",
          "name": "vin",
          "type": "uint256"
        },
        {
          "internalType": "uint256",
          "name": "engineId",
          "type": "uint256"
        },
        {
          "internalType": "uint256",
          "name": "chassisId",
          "type": "uint256"
        },
        {
          "internalType": "uint8",
          "name": "carLevel",
          "type": "uint8"
        },
        {
          "internalType": "uint256",
          "name": "mileage",
          "type": "uint256"
        },
        {
          "internalType": "uint256",
          "name": "winCountOnCurrentLevel",
          "type": "uint256"
        },
        {
          "internalType": "uint256",
          "name": "lossCountOnCurrentLevel",
          "type": "uint256"
        },
        {
          "internalType": "uint256",
          "name": "id",
          "type": "uint256"
        }
      ],
      "stateMutability": "view",
      "type": "function"
    },
    {
      "inputs": [],
      "name": "carsForSaleCount",
      "outputs": [
        {
          "internalType": "uint256",
          "name": "",
          "type": "uint256"
        }
      ],
      "stateMutability": "view",
      "type": "function"
    },
    {
      "inputs": [
        {
          "internalType": "uint256",
          "name": "",
          "type": "uint256"
        }
      ],
      "name": "chassis",
      "outputs": [
        {
          "internalType": "uint256",
          "name": "id",
          "type": "uint256"
        },
        {
          "internalType": "uint32",
          "name": "durability",
          "type": "uint32"
        },
        {
          "internalType": "uint32",
          "name": "resource",
          "type": "uint32"
        }
      ],
      "stateMutability": "view",
      "type": "function"
    },
    {
      "inputs": [],
      "name": "chassisForSaleCount",
      "outputs": [
        {
          "internalType": "uint256",
          "name": "",
          "type": "uint256"
        }
      ],
      "stateMutability": "view",
      "type": "function"
    },
    {
      "inputs": [
        {
          "internalType": "uint256",
          "name": "",
          "type": "uint256"
        }
      ],
      "name": "chassisToOwner",
      "outputs": [
        {
          "internalType": "address",
          "name": "",
          "type": "address"
        }
      ],
      "stateMutability": "view",
      "type": "function"
    },
    {
      "inputs": [
        {
          "internalType": "uint256",
          "name": "",
          "type": "uint256"
        }
      ],
      "name": "chassisToPrice",
      "outputs": [
        {
          "internalType": "uint256",
          "name": "",
          "type": "uint256"
        }
      ],
      "stateMutability": "view",
      "type": "function"
    },
    {
      "inputs": [
        {
          "internalType": "string",
          "name": "model",
          "type": "string"
        }
      ],
      "name": "createCar",
      "outputs": [],
      "stateMutability": "nonpayable",
      "type": "function"
    },
    {
      "inputs": [
        {
          "internalType": "string",
          "name": "_model",
          "type": "string"
        },
        {
          "internalType": "uint16",
          "name": "_horsePowers",
          "type": "uint16"
        },
        {
          "internalType": "uint8",
          "name": "_consumtion",
          "type": "uint8"
        },
        {
          "internalType": "uint32",
          "name": "_durability",
          "type": "uint32"
        },
        {
          "internalType": "uint8",
          "name": "_carLevel",
          "type": "uint8"
        },
        {
          "internalType": "uint256",
          "name": "_carPrice",
          "type": "uint256"
        }
      ],
      "name": "createCustomCar",
      "outputs": [],
      "stateMutability": "nonpayable",
      "type": "function"
    },
    {
      "inputs": [
        {
          "internalType": "uint32",
          "name": "_durability",
          "type": "uint32"
        },
        {
          "internalType": "uint256",
          "name": "_chassisPrice",
          "type": "uint256"
        }
      ],
      "name": "createCustomChassis",
      "outputs": [
        {
          "internalType": "uint256",
          "name": "",
          "type": "uint256"
        }
      ],
      "stateMutability": "nonpayable",
      "type": "function"
    },
    {
      "inputs": [
        {
          "internalType": "uint16",
          "name": "_horsePowers",
          "type": "uint16"
        },
        {
          "internalType": "uint8",
          "name": "_consumtion",
          "type": "uint8"
        },
        {
          "internalType": "uint256",
          "name": "_enginePrice",
          "type": "uint256"
        }
      ],
      "name": "createCustomEngine",
      "outputs": [
        {
          "internalType": "uint256",
          "name": "",
          "type": "uint256"
        }
      ],
      "stateMutability": "nonpayable",
      "type": "function"
    },
    {
      "inputs": [],
      "name": "createFuelStation",
      "outputs": [],
      "stateMutability": "nonpayable",
      "type": "function"
    },
    {
      "inputs": [
        {
          "internalType": "uint256",
          "name": "carId",
          "type": "uint256"
        },
        {
          "internalType": "uint256",
          "name": "chassisId",
          "type": "uint256"
        }
      ],
      "name": "detachChassis",
      "outputs": [],
      "stateMutability": "nonpayable",
      "type": "function"
    },
    {
      "inputs": [
        {
          "internalType": "uint256",
          "name": "carId",
          "type": "uint256"
        },
        {
          "internalType": "uint256",
          "name": "engineId",
          "type": "uint256"
        }
      ],
      "name": "detachEngine",
      "outputs": [],
      "stateMutability": "nonpayable",
      "type": "function"
    },
    {
      "inputs": [
        {
          "internalType": "uint256",
          "name": "",
          "type": "uint256"
        }
      ],
      "name": "engineToOwner",
      "outputs": [
        {
          "internalType": "address",
          "name": "",
          "type": "address"
        }
      ],
      "stateMutability": "view",
      "type": "function"
    },
    {
      "inputs": [
        {
          "internalType": "uint256",
          "name": "",
          "type": "uint256"
        }
      ],
      "name": "engineToPrice",
      "outputs": [
        {
          "internalType": "uint256",
          "name": "",
          "type": "uint256"
        }
      ],
      "stateMutability": "view",
      "type": "function"
    },
    {
      "inputs": [
        {
          "internalType": "uint256",
          "name": "",
          "type": "uint256"
        }
      ],
      "name": "engines",
      "outputs": [
        {
          "internalType": "uint256",
          "name": "id",
          "type": "uint256"
        },
        {
          "internalType": "uint16",
          "name": "horsePowers",
          "type": "uint16"
        },
        {
          "internalType": "uint8",
          "name": "consumtion",
          "type": "uint8"
        }
      ],
      "stateMutability": "view",
      "type": "function"
    },
    {
      "inputs": [],
      "name": "enginesForSaleCount",
      "outputs": [
        {
          "internalType": "uint256",
          "name": "",
          "type": "uint256"
        }
      ],
      "stateMutability": "view",
      "type": "function"
    },
    {
      "inputs": [
        {
          "internalType": "uint256",
          "name": "",
          "type": "uint256"
        }
      ],
      "name": "fuelStationToOwner",
      "outputs": [
        {
          "internalType": "address",
          "name": "",
          "type": "address"
        }
      ],
      "stateMutability": "view",
      "type": "function"
    },
    {
      "inputs": [
        {
          "internalType": "uint256",
          "name": "_fuelStatonId",
          "type": "uint256"
        },
        {
          "internalType": "uint8",
          "name": "_counts",
          "type": "uint8"
        }
      ],
      "name": "getCapacityUpgradeCost",
      "outputs": [
        {
          "internalType": "uint256",
          "name": "",
          "type": "uint256"
        }
      ],
      "stateMutability": "view",
      "type": "function"
    },
    {
      "inputs": [
        {
          "internalType": "address",
          "name": "_owner",
          "type": "address"
        }
      ],
      "name": "getCarsByOwner",
      "outputs": [
        {
          "components": [
            {
              "internalType": "string",
              "name": "model",
              "type": "string"
            },
            {
              "internalType": "uint256",
              "name": "vin",
              "type": "uint256"
            },
            {
              "internalType": "uint256",
              "name": "engineId",
              "type": "uint256"
            },
            {
              "internalType": "uint256",
              "name": "chassisId",
              "type": "uint256"
            },
            {
              "internalType": "uint8",
              "name": "carLevel",
              "type": "uint8"
            },
            {
              "internalType": "uint256",
              "name": "mileage",
              "type": "uint256"
            },
            {
              "internalType": "uint256",
              "name": "winCountOnCurrentLevel",
              "type": "uint256"
            },
            {
              "internalType": "uint256",
              "name": "lossCountOnCurrentLevel",
              "type": "uint256"
            },
            {
              "internalType": "uint256",
              "name": "id",
              "type": "uint256"
            }
          ],
          "internalType": "struct CarFactory.Car[]",
          "name": "",
          "type": "tuple[]"
        }
      ],
      "stateMutability": "view",
      "type": "function"
    },
    {
      "inputs": [
        {
          "internalType": "address",
          "name": "_owner",
          "type": "address"
        }
      ],
      "name": "getChassisByOwner",
      "outputs": [
        {
          "components": [
            {
              "internalType": "uint256",
              "name": "id",
              "type": "uint256"
            },
            {
              "internalType": "uint32",
              "name": "durability",
              "type": "uint32"
            },
            {
              "internalType": "uint32",
              "name": "resource",
              "type": "uint32"
            }
          ],
          "internalType": "struct CarFactory.Chassis[]",
          "name": "",
          "type": "tuple[]"
        }
      ],
      "stateMutability": "view",
      "type": "function"
    },
    {
      "inputs": [
        {
          "internalType": "uint256",
          "name": "_engineId",
          "type": "uint256"
        }
      ],
      "name": "getConsumtionUpgradeCost",
      "outputs": [
        {
          "internalType": "uint256",
          "name": "",
          "type": "uint256"
        }
      ],
      "stateMutability": "view",
      "type": "function"
    },
    {
      "inputs": [
        {
          "internalType": "uint256",
          "name": "_chassisId",
          "type": "uint256"
        },
        {
          "internalType": "uint8",
          "name": "_counts",
          "type": "uint8"
        }
      ],
      "name": "getDurabilityUpgradeCost",
      "outputs": [
        {
          "internalType": "uint256",
          "name": "",
          "type": "uint256"
        }
      ],
      "stateMutability": "view",
      "type": "function"
    },
    {
      "inputs": [
        {
          "internalType": "address",
          "name": "_owner",
          "type": "address"
        }
      ],
      "name": "getEnginesByOwner",
      "outputs": [
        {
          "components": [
            {
              "internalType": "uint256",
              "name": "id",
              "type": "uint256"
            },
            {
              "internalType": "uint16",
              "name": "horsePowers",
              "type": "uint16"
            },
            {
              "internalType": "uint8",
              "name": "consumtion",
              "type": "uint8"
            }
          ],
          "internalType": "struct CarFactory.Engine[]",
          "name": "",
          "type": "tuple[]"
        }
      ],
      "stateMutability": "view",
      "type": "function"
    },
    {
      "inputs": [
        {
          "internalType": "address",
          "name": "_owner",
          "type": "address"
        }
      ],
      "name": "getFuelStationByOwner",
      "outputs": [
        {
          "components": [
            {
              "internalType": "uint256",
              "name": "id",
              "type": "uint256"
            },
            {
              "internalType": "uint8",
              "name": "capacity",
              "type": "uint8"
            },
            {
              "internalType": "uint8",
              "name": "productionPerHour",
              "type": "uint8"
            },
            {
              "internalType": "uint8",
              "name": "currentFullness",
              "type": "uint8"
            },
            {
              "internalType": "uint256",
              "name": "lastUpdate",
              "type": "uint256"
            }
          ],
          "internalType": "struct FuelStationFactory.FuelStation",
          "name": "",
          "type": "tuple"
        }
      ],
      "stateMutability": "view",
      "type": "function"
    },
    {
      "inputs": [
        {
          "internalType": "uint256",
          "name": "_engineId",
          "type": "uint256"
        },
        {
          "internalType": "uint8",
          "name": "_counts",
          "type": "uint8"
        }
      ],
      "name": "getHorsePowersUpgradeCost",
      "outputs": [
        {
          "internalType": "uint256",
          "name": "",
          "type": "uint256"
        }
      ],
      "stateMutability": "view",
      "type": "function"
    },
    {
      "inputs": [
        {
          "internalType": "uint256",
          "name": "_carId",
          "type": "uint256"
        }
      ],
      "name": "getLevelUpCost",
      "outputs": [
        {
          "internalType": "uint256",
          "name": "",
          "type": "uint256"
        }
      ],
      "stateMutability": "view",
      "type": "function"
    },
    {
      "inputs": [
        {
          "internalType": "uint256",
          "name": "_fuelStatonId",
          "type": "uint256"
        },
        {
          "internalType": "uint8",
          "name": "_counts",
          "type": "uint8"
        }
      ],
      "name": "getProductionPerHourUpgradeCost",
      "outputs": [
        {
          "internalType": "uint256",
          "name": "",
          "type": "uint256"
        }
      ],
      "stateMutability": "view",
      "type": "function"
    },
    {
      "inputs": [
        {
          "internalType": "uint256",
          "name": "",
          "type": "uint256"
        }
      ],
      "name": "idToStartedRooms",
      "outputs": [
        {
          "internalType": "uint256",
          "name": "numberPlayers",
          "type": "uint256"
        },
        {
          "internalType": "uint256",
          "name": "world",
          "type": "uint256"
        },
        {
          "internalType": "uint256",
          "name": "roomDNA",
          "type": "uint256"
        },
        {
          "internalType": "uint256",
          "name": "startTime",
          "type": "uint256"
        },
        {
          "internalType": "uint256",
          "name": "curAnswer",
          "type": "uint256"
        },
        {
          "internalType": "bool",
          "name": "closed",
          "type": "bool"
        }
      ],
      "stateMutability": "view",
      "type": "function"
    },
    {
      "inputs": [
        {
          "internalType": "uint256",
          "name": "_carId",
          "type": "uint256"
        }
      ],
      "name": "levelUp",
      "outputs": [],
      "stateMutability": "payable",
      "type": "function"
    },
    {
      "inputs": [
        {
          "internalType": "uint256",
          "name": "",
          "type": "uint256"
        }
      ],
      "name": "openedRooms",
      "outputs": [
        {
          "internalType": "uint256",
          "name": "id",
          "type": "uint256"
        },
        {
          "internalType": "uint256",
          "name": "playersEntered",
          "type": "uint256"
        },
        {
          "internalType": "uint256",
          "name": "world",
          "type": "uint256"
        },
        {
          "components": [
            {
              "internalType": "uint256",
              "name": "playersNeeded",
              "type": "uint256"
            },
            {
              "internalType": "uint256",
              "name": "crossId",
              "type": "uint256"
            }
          ],
          "internalType": "struct RaceHandler.Cross",
          "name": "cross",
          "type": "tuple"
        }
      ],
      "stateMutability": "view",
      "type": "function"
    },
    {
      "inputs": [],
      "name": "owner",
      "outputs": [
        {
          "internalType": "address",
          "name": "",
          "type": "address"
        }
      ],
      "stateMutability": "view",
      "type": "function"
    },
    {
      "inputs": [
        {
          "internalType": "address",
          "name": "",
          "type": "address"
        }
      ],
      "name": "ownerCarCount",
      "outputs": [
        {
          "internalType": "uint256",
          "name": "",
          "type": "uint256"
        }
      ],
      "stateMutability": "view",
      "type": "function"
    },
    {
      "inputs": [
        {
          "internalType": "address",
          "name": "",
          "type": "address"
        }
      ],
      "name": "ownerChassisCount",
      "outputs": [
        {
          "internalType": "uint256",
          "name": "",
          "type": "uint256"
        }
      ],
      "stateMutability": "view",
      "type": "function"
    },
    {
      "inputs": [
        {
          "internalType": "address",
          "name": "",
          "type": "address"
        }
      ],
      "name": "ownerEngineCount",
      "outputs": [
        {
          "internalType": "uint256",
          "name": "",
          "type": "uint256"
        }
      ],
      "stateMutability": "view",
      "type": "function"
    },
    {
      "inputs": [],
      "name": "renounceOwnership",
      "outputs": [],
      "stateMutability": "nonpayable",
      "type": "function"
    },
    {
      "inputs": [
        {
          "internalType": "uint256",
          "name": "",
          "type": "uint256"
        }
      ],
      "name": "stations",
      "outputs": [
        {
          "internalType": "uint256",
          "name": "id",
          "type": "uint256"
        },
        {
          "internalType": "uint8",
          "name": "capacity",
          "type": "uint8"
        },
        {
          "internalType": "uint8",
          "name": "productionPerHour",
          "type": "uint8"
        },
        {
          "internalType": "uint8",
          "name": "currentFullness",
          "type": "uint8"
        },
        {
          "internalType": "uint256",
          "name": "lastUpdate",
          "type": "uint256"
        }
      ],
      "stateMutability": "view",
      "type": "function"
    },
    {
      "inputs": [
        {
          "internalType": "uint256",
          "name": "carId",
          "type": "uint256"
        },
        {
          "internalType": "uint256",
          "name": "chassisId",
          "type": "uint256"
        }
      ],
      "name": "switchChassis",
      "outputs": [],
      "stateMutability": "nonpayable",
      "type": "function"
    },
    {
      "inputs": [
        {
          "internalType": "uint256",
          "name": "carId",
          "type": "uint256"
        },
        {
          "internalType": "uint256",
          "name": "engineId",
          "type": "uint256"
        }
      ],
      "name": "switchEngine",
      "outputs": [],
      "stateMutability": "nonpayable",
      "type": "function"
    },
    {
      "inputs": [
        {
          "internalType": "address",
          "name": "newOwner",
          "type": "address"
        }
      ],
      "name": "transferOwnership",
      "outputs": [],
      "stateMutability": "nonpayable",
      "type": "function"
    },
    {
      "inputs": [
        {
          "internalType": "uint256",
          "name": "_fuelStatonId",
          "type": "uint256"
        },
        {
          "internalType": "uint8",
          "name": "_counts",
          "type": "uint8"
        }
      ],
      "name": "upgradeCapacity",
      "outputs": [],
      "stateMutability": "payable",
      "type": "function"
    },
    {
      "inputs": [
        {
          "internalType": "uint256",
          "name": "_engineId",
          "type": "uint256"
        }
      ],
      "name": "upgradeConsumtion",
      "outputs": [],
      "stateMutability": "payable",
      "type": "function"
    },
    {
      "inputs": [
        {
          "internalType": "uint256",
          "name": "_chassisId",
          "type": "uint256"
        },
        {
          "internalType": "uint8",
          "name": "_counts",
          "type": "uint8"
        }
      ],
      "name": "upgradeDurability",
      "outputs": [],
      "stateMutability": "payable",
      "type": "function"
    },
    {
      "inputs": [
        {
          "internalType": "uint256",
          "name": "_engineId",
          "type": "uint256"
        },
        {
          "internalType": "uint8",
          "name": "_counts",
          "type": "uint8"
        }
      ],
      "name": "upgradeHorsePowers",
      "outputs": [],
      "stateMutability": "payable",
      "type": "function"
    },
    {
      "inputs": [
        {
          "internalType": "uint256",
          "name": "_fuelStatonId",
          "type": "uint256"
        },
        {
          "internalType": "uint8",
          "name": "_counts",
          "type": "uint8"
        }
      ],
      "name": "upgradeProductionPerHour",
      "outputs": [],
      "stateMutability": "payable",
      "type": "function"
    },
    {
      "inputs": [
        {
          "internalType": "uint256",
          "name": "carId",
          "type": "uint256"
        }
      ],
      "name": "findRoom",
      "outputs": [],
      "stateMutability": "nonpayable",
      "type": "function"
    },
    {
      "inputs": [
        {
          "internalType": "uint256",
          "name": "roomId",
          "type": "uint256"
        }
      ],
      "name": "getClosedRoom",
      "outputs": [
        {
          "components": [
            {
              "internalType": "address",
              "name": "player",
              "type": "address"
            },
            {
              "internalType": "bool",
              "name": "correct",
              "type": "bool"
            },
            {
              "internalType": "uint256",
              "name": "time",
              "type": "uint256"
            },
            {
              "internalType": "uint256",
              "name": "carId",
              "type": "uint256"
            }
          ],
          "internalType": "struct RaceHandler.Answer[]",
          "name": "",
          "type": "tuple[]"
        }
      ],
      "stateMutability": "view",
      "type": "function"
    },
    {
      "inputs": [
        {
          "internalType": "uint256",
          "name": "roomId",
          "type": "uint256"
        },
        {
          "internalType": "uint256[]",
          "name": "answer",
          "type": "uint256[]"
        }
      ],
      "name": "commitAnswer",
      "outputs": [],
      "stateMutability": "nonpayable",
      "type": "function"
    }
  ],
  "bytecode": "0x6000805461ffff60a01b191661014f60a21b17815560088190556009819055600a9081556001600b819055600c556509184e72a000601981905565b5e620f48000601a55650da475abf000601b556611c37937e08000601c556305f5e100601d5566038d7ea4c68000601e556101c060405260809081526512309ce5400060a05265246139ca800060c0526548c27395000060e052659184e72a00006101005266012309ce54000061012052660246139ca800006101405266048c2739500000610160526609184e72a00000610180526612309ce54000006101a052620000ea916020919062000199565b50348015620000f857600080fd5b50620001043362000149565b6050600355605b6004556005805460ff1916600a179055620186a06006556201d4c1600755600e80546001908101909155600f8054820181556000526023556200020b565b600080546001600160a01b038381166001600160a01b0319831681178455604051919092169283917f8be0079c531659141344cd1fd0a4f28419497f9722a3daafe3b4186f6b6457e09190a35050565b828054828255906000526020600020908101928215620001e2579160200282015b82811115620001e2578251829066ffffffffffffff16905591602001919060010190620001ba565b50620001f0929150620001f4565b5090565b5b80821115620001f05760008155600101620001f5565b613e46806200021b6000396000f3fe6080604052600436106102c95760003560e01c80638da5cb5b11610175578063c75bb4f4116100dc578063ede6fbf511610095578063f85993b91161006f578063f85993b914610b91578063faf4bb9814610bbe578063fb2d954f14610bd1578063fb33250f14610bf157600080fd5b8063ede6fbf514610b1c578063f2fde38b14610b3c578063f7746e3614610b5c57600080fd5b8063c75bb4f414610a4f578063c85b7fed14610a7c578063d1c54eea14610a9c578063d7086fab14610abc578063df750c5214610adc578063ea12693314610afc57600080fd5b8063b3b29afd1161012e578063b3b29afd14610961578063b72c0eea1461098e578063bf5070d3146109cf578063bf9bc0b2146109ef578063bfcc971614610a0f578063c34cccc414610a2f57600080fd5b80638da5cb5b1461088a5780638ff90c6b146108a8578063906f5f34146108bb57806392f859db146108ce578063982b691c1461091e578063aa11b6811461093457600080fd5b80633521c426116102345780636f206fc1116101ed5780637713d521116101c75780637713d521146107f05780637fb2aa4d1461081d578063859092671461084a578063877660191461085d57600080fd5b80636f206fc11461078e578063715018a6146107bb57806376997de0146107d057600080fd5b80633521c4261461063457806344901490146106615780634e31f91014610697578063594193d7146107025780635dcc4cc6146107385780636b606d9b1461076e57600080fd5b80631702bf42116102865780631702bf421461041a5780631a56afda146104305780631c5dde0e14610450578063224370f0146104925780632ca4769e146105c657806333ca504b146105e657600080fd5b806303f2e05b146102ce5780630418394e146102e3578063081315ff1461036a5780630a0176fc146103b65780630c0cd532146103f15780630ce90ec214610407575b600080fd5b6102e16102dc36600461344a565b610c11565b005b3480156102ef57600080fd5b506103366102fe366004613476565b602560205260009081526040902080546001820154600283015460038401546005850154600690950154939492939192909160ff1686565b6040805196875260208701959095529385019290925260608401526080830152151560a082015260c0015b60405180910390f35b34801561037657600080fd5b5061038a610385366004613476565b610d17565b60408051948552602080860194909452840191909152805160608401520151608082015260a001610361565b3480156103c257600080fd5b506103e36103d1366004613476565b60186020526000908152604090205481565b604051908152602001610361565b3480156103fd57600080fd5b506103e3600a5481565b6102e1610415366004613476565b610d6a565b34801561042657600080fd5b506103e360085481565b34801561043c57600080fd5b506103e361044b36600461344a565b610e70565b34801561045c57600080fd5b5061047061046b366004613476565b610ec2565b6040805193845263ffffffff9283166020850152911690820152606001610361565b34801561049e57600080fd5b506102e1600180546040805160a0810182528281526000805460ff600160a01b820481166020808601828152600160a81b90940483168688019081526060870192835263ffffffff421660808801908152898b018b559986529551600389027fb10e2d527612073b26eecdfd717e6a320cf44b4afac2b0732d9fcbe2b7fa0cf681019190915593517fb10e2d527612073b26eecdfd717e6a320cf44b4afac2b0732d9fcbe2b7fa0cf785018054975193518516620100000262ff0000199486166101000261ffff19909916929095169190911796909617919091169190911790935594517fb10e2d527612073b26eecdfd717e6a320cf44b4afac2b0732d9fcbe2b7fa0cf8909501949094559183526002909152902080546001600160a01b03191633179055565b3480156105d257600080fd5b506103e36105e136600461344a565b610f02565b3480156105f257600080fd5b5061061c610601366004613476565b6010602052600090815260409020546001600160a01b031681565b6040516001600160a01b039091168152602001610361565b34801561064057600080fd5b5061065461064f366004613476565b610f44565b604051610361919061348f565b34801561066d57600080fd5b5061061c61067c366004613476565b6012602052600090815260409020546001600160a01b031681565b3480156106a357600080fd5b506106b76106b23660046134fe565b611036565b6040516103619190600060a0820190508251825260ff602084015116602083015260ff604084015116604083015260ff60608401511660608301526080830151608083015292915050565b34801561070e57600080fd5b5061061c61071d366004613476565b6002602052600090815260409020546001600160a01b031681565b34801561074457600080fd5b5061061c610753366004613476565b6011602052600090815260409020546001600160a01b031681565b34801561077a57600080fd5b506102e1610789366004613527565b61111d565b34801561079a57600080fd5b506107ae6107a93660046134fe565b61121d565b6040516103619190613549565b3480156107c757600080fd5b506102e1611371565b3480156107dc57600080fd5b506103e36107eb36600461344a565b611385565b3480156107fc57600080fd5b5061081061080b3660046134fe565b6113c2565b604051610361919061359f565b34801561082957600080fd5b506103e36108383660046134fe565b60146020526000908152604090205481565b6102e161085836600461344a565b61150a565b34801561086957600080fd5b506103e36108783660046134fe565b60156020526000908152604090205481565b34801561089657600080fd5b506000546001600160a01b031661061c565b6102e16108b6366004613476565b6115ef565b6102e16108c936600461344a565b6116ce565b3480156108da57600080fd5b506108ee6108e9366004613476565b61178f565b6040805195865260ff9485166020870152928416928501929092529091166060830152608082015260a001610361565b34801561092a57600080fd5b506103e360095481565b34801561094057600080fd5b506103e361094f366004613476565b60166020526000908152604090205481565b34801561096d57600080fd5b506103e361097c3660046134fe565b60136020526000908152604090205481565b34801561099a57600080fd5b506109ae6109a9366004613476565b6117db565b6040805193845261ffff909216602084015260ff1690820152606001610361565b3480156109db57600080fd5b506103e36109ea36600461344a565b611818565b3480156109fb57600080fd5b506103e3610a0a366004613476565b611855565b348015610a1b57600080fd5b506103e3610a2a366004613606565b6118a8565b348015610a3b57600080fd5b506102e1610a4a366004613527565b6119fd565b348015610a5b57600080fd5b50610a6f610a6a3660046134fe565b611b4d565b604051610361919061368c565b348015610a8857600080fd5b506102e1610a9736600461379d565b611d8b565b348015610aa857600080fd5b506102e1610ab7366004613527565b612018565b348015610ac857600080fd5b506103e3610ad7366004613861565b6120fe565b348015610ae857600080fd5b506103e3610af7366004613476565b61226d565b348015610b0857600080fd5b506102e1610b17366004613527565b6122c5565b348015610b2857600080fd5b506102e1610b3736600461390d565b612429565b348015610b4857600080fd5b506102e1610b573660046134fe565b6125f7565b348015610b6857600080fd5b50610b7c610b77366004613476565b612670565b60405161036199989796959493929190613942565b348015610b9d57600080fd5b506103e3610bac366004613476565b60176020526000908152604090205481565b6102e1610bcc36600461344a565b61275d565b348015610bdd57600080fd5b506102e1610bec366004613476565b612841565b348015610bfd57600080fd5b506102e1610c0c366004613999565b612d24565b60008281526012602052604090205482906001600160a01b03163314610c525760405162461bcd60e51b8152600401610c4990613a21565b60405180910390fd5b610c5c8383610e70565b3414610c7a5760405162461bcd60e51b8152600401610c4990613a4f565b600080546040516001600160a01b03909116913480156108fc02929091818181858888f19350505050158015610cb4573d6000803e3d6000fd5b508160ff16600f8481548110610ccc57610ccc613a73565b6000918252602082206001600290920201018054909190610cf490849063ffffffff16613a9f565b92506101000a81548163ffffffff021916908363ffffffff160217905550505050565b60248181548110610d2757600080fd5b6000918252602091829020600590910201805460018201546002830154604080518082019091526003850154815260049094015494840194909452909350919084565b610d7381611855565b3414610d915760405162461bcd60e51b8152600401610c4990613a4f565b600080546040516001600160a01b03909116913480156108fc02929091818181858888f19350505050158015610dcb573d6000803e3d6000fd5b50600d8181548110610ddf57610ddf613a73565b600091825260208220600460099092020101805460ff1691610e0083613ac7565b91906101000a81548160ff021916908360ff160217905550506000600d8281548110610e2e57610e2e613a73565b9060005260206000209060090201600601819055506000600d8281548110610e5857610e58613a73565b90600052602060002090600902016007018190555050565b6000601d54600f8481548110610e8857610e88613a73565b6000918252602090912060016002909202010154610eaf9063ffffffff1660ff8516613ae6565b610eb99190613ae6565b90505b92915050565b600f8181548110610ed257600080fd5b60009182526020909120600290910201805460019091015490915063ffffffff8082169164010000000090041683565b6000601a5460018481548110610f1a57610f1a613a73565b6000918252602090912060016003909202010154610eaf9060ff6101009091048116908516613ae6565b60008181526025602052604090206006015460609060ff16610f9a5760405162461bcd60e51b815260206004820152600f60248201526e1c9bdbdb481b9bdd0818db1bdcd959608a1b6044820152606401610c49565b600082815260256020908152604080832060040180548251818502810185019093528083529193909284015b8282101561102b576000848152602090819020604080516080810182526003860290920180546001600160a01b0381168452600160a01b900460ff16151583850152600180820154928401929092526002015460608301529083529092019101610fc6565b505050509050919050565b6040805160a081018252600080825260208201819052918101829052606081018290526080810182905290805b6001548110156110a8576000818152600260205260409020546001600160a01b03808616911603611096578091506110a8565b806110a081613b05565b915050611063565b50600181815481106110bc576110bc613a73565b60009182526020918290206040805160a081018252600390930290910180548352600181015460ff80821695850195909552610100810485169284019290925262010000909104909216606082015260029091015460808201529392505050565b60008181526012602052604090205481906001600160a01b031633146111555760405162461bcd60e51b8152600401610c4990613a21565b60008381526010602052604090205483906001600160a01b0316331461117a57600080fd5b82600d858154811061118e5761118e613a73565b906000526020600020906009020160030154146111ed5760405162461bcd60e51b815260206004820152601860248201527f6368617373697320617265206e6f7420617474616368656400000000000000006044820152606401610c49565b6000600d858154811061120257611202613a73565b90600052602060002090600902016003018190555050505050565b6001600160a01b0381166000908152601560205260408120546060919067ffffffffffffffff81111561125257611252613756565b60405190808252806020026020018201604052801561129d57816020015b60408051606081018252600080825260208083018290529282015282526000199092019101816112705790505b5090506000805b600f54811015611368576000818152601260205260409020546001600160a01b0380871691160361135657600f81815481106112e2576112e2613a73565b6000918252602091829020604080516060810182526002909302909101805483526001015463ffffffff80821694840194909452640100000000900490921691810191909152835184908490811061133c5761133c613a73565b6020026020010181905250818061135290613b05565b9250505b8061136081613b05565b9150506112a4565b50909392505050565b611379612f1e565b6113836000612f78565b565b60006019546001848154811061139d5761139d613a73565b6000918252602090912060016003909202010154610eaf9060ff908116908516613ae6565b6001600160a01b0381166000908152601460205260408120546060919067ffffffffffffffff8111156113f7576113f7613756565b60405190808252806020026020018201604052801561144257816020015b60408051606081018252600080825260208083018290529282015282526000199092019101816114155790505b5090506000805b600e54811015611368576000818152601160205260409020546001600160a01b038087169116036114f857600e818154811061148757611487613a73565b600091825260209182902060408051606081018252600293909302909101805483526001015461ffff8116938301939093526201000090920460ff169181019190915283518490849081106114de576114de613a73565b602002602001018190525081806114f490613b05565b9250505b8061150281613b05565b915050611449565b60008281526002602052604090205482906001600160a01b0316331461152f57600080fd5b6115398383610f02565b34146115575760405162461bcd60e51b8152600401610c4990613a4f565b600080546040516001600160a01b03909116913480156108fc02929091818181858888f19350505050158015611591573d6000803e3d6000fd5b5081600184815481106115a6576115a6613a73565b906000526020600020906003020160010160018282829054906101000a900460ff166115d29190613b1e565b92506101000a81548160ff021916908360ff160217905550505050565b60008181526011602052604090205481906001600160a01b0316331461161457600080fd5b61161d8261226d565b341461163b5760405162461bcd60e51b8152600401610c4990613a4f565b600080546040516001600160a01b03909116913480156108fc02929091818181858888f19350505050158015611675573d6000803e3d6000fd5b50600e828154811061168957611689613a73565b60009182526020909120600291820201600101805462010000900460ff16916116b183613b43565b91906101000a81548160ff021916908360ff160217905550505050565b60008281526002602052604090205482906001600160a01b031633146116f357600080fd5b6116fd8383611385565b341461171b5760405162461bcd60e51b8152600401610c4990613a4f565b600080546040516001600160a01b03909116913480156108fc02929091818181858888f19350505050158015611755573d6000803e3d6000fd5b50816001848154811061176a5761176a613a73565b60009182526020822060016003909202010180549091906115d290849060ff16613b1e565b6001818154811061179f57600080fd5b600091825260209091206003909102018054600182015460029092015490925060ff808316926101008104821692620100009091049091169085565b600e81815481106117eb57600080fd5b60009182526020909120600290910201805460019091015490915061ffff81169062010000900460ff1683565b6000601b54600e848154811061183057611830613a73565b6000918252602090912060016002909202010154610eaf9061ffff1660ff8516613ae6565b6000600a600d838154811061186c5761186c613a73565b600091825260209091206004600990920201015461188d919060ff16613b76565b611898906001613b1e565b60ff16601e54610ebc9190613ae6565b60006118b2612f1e565b600c8054600091826118c383613b05565b909155506040805160608101825282815263ffffffff8781166020808401828152848601928352600f80546001810182556000918252955160029096027f8d1108e10bcb7c27dddfc02ed9d693a074039d026cf4ea4240b40f7d581ac80281019690965590517f8d1108e10bcb7c27dddfc02ed9d693a074039d026cf4ea4240b40f7d581ac8039095018054935185166401000000000267ffffffffffffffff1990941695909416949094179190911790915581546001600160a01b031682526015905290812080549293509061199983613b05565b9091555050600080548282526012602052604090912080546001600160a01b0319166001600160a01b039092169190911790558215610eb957600081815260186020526040812084905560098054916119f183613b05565b91905055509392505050565b60008181526011602052604090205481906001600160a01b03163314611a2257600080fd5b60008381526010602052604090205483906001600160a01b03163314611a4757600080fd5b82600d8581548110611a5b57611a5b613a73565b90600052602060002090600902016002015403611aa85760405162461bcd60e51b815260206004820152600b60248201526a73616d6520656e67696e6560a81b6044820152606401610c49565b6000611ab333611b4d565b905060005b8151811015611b1c5784828281518110611ad457611ad4613a73565b60200260200101516040015103611b0a576000828281518110611af957611af9613a73565b602002602001015160400181815250505b80611b1481613b05565b915050611ab8565b5083600d8681548110611b3157611b31613a73565b9060005260206000209060090201600201819055505050505050565b6001600160a01b0381166000908152601360205260408120546060919067ffffffffffffffff811115611b8257611b82613756565b604051908082528060200260200182016040528015611c0557816020015b611bf260405180610120016040528060608152602001600081526020016000815260200160008152602001600060ff168152602001600081526020016000815260200160008152602001600081525090565b815260200190600190039081611ba05790505b5090506000805b600d54811015611368576000818152601060205260409020546001600160a01b03808716911603611d7957600d8181548110611c4a57611c4a613a73565b906000526020600020906009020160405180610120016040529081600082018054611c7490613b98565b80601f0160208091040260200160405190810160405280929190818152602001828054611ca090613b98565b8015611ced5780601f10611cc257610100808354040283529160200191611ced565b820191906000526020600020905b815481529060010190602001808311611cd057829003601f168201915b5050509183525050600182015460208201526002820154604082015260038201546060820152600482015460ff166080820152600582015460a0820152600682015460c0820152600782015460e0820152600890910154610100909101528351849084908110611d5f57611d5f613a73565b60200260200101819052508180611d7590613b05565b9250505b80611d8381613b05565b915050611c0c565b336000908152602160205260409020548214611dd95760405162461bcd60e51b815260206004820152600d60248201526c6e6f7420796f757220726f6f6d60981b6044820152606401610c49565b600082815260256020526040808220600201549051634e31f59760e11b815290919073__PDDLib________________________________90639c63eb2e90611e279085908790600401613bd2565b602060405180830381865af4158015611e44573d6000803e3d6000fd5b505050506040513d601f19601f82011682018060405250810190611e689190613c20565b604080516080810182523380825283151560208084019182524284860190815260009384526022825285842054606086019081528b855260258352958420600481018054600181810183558288529487208851600390920201805496511515600160a01b026001600160a81b03199097166001600160a01b03929092169190911795909517855591519284019290925594516002909201919091559088905280549254939450909290919003612010576040518681527f67acaceb58ff1ad2aa8b3069f69c4cd076824e06a09184b75fb197ead7040be79060200160405180910390a16000868152602560209081526040808320600601805460ff191660011790553383526021825280832083905560229091528120819055805b600088815260256020526040902054811015611ffc576000888152602560205260409020600401805482908110611fbc57611fbc613a73565b6000918252602090912060039091020154600160a01b900460ff1615611fea5781611fe681613b05565b9250505b80611ff481613b05565b915050611f83565b508060000361200e5750505050505050565b505b505050505050565b60008181526011602052604090205481906001600160a01b0316331461203d57600080fd5b60008381526010602052604090205483906001600160a01b0316331461206257600080fd5b82600d858154811061207657612076613a73565b906000526020600020906009020160020154146120ce5760405162461bcd60e51b8152602060048201526016602482015275195b99da5b99481a5cc81b9bdd08185d1d1858da195960521b6044820152606401610c49565b6000600d85815481106120e3576120e3613a73565b90600052602060002090600902016002018190555050505050565b6000612108612f1e565b600b80546000918261211983613b05565b909155506040805160608101825282815261ffff8089166020830190815260ff808a16948401948552600e80546001810182556000918252945160029095027fbb7b4a454dc3493923482f07822329ed19e8244eff582cc204f8554c3620c3fd81019590955591517fbb7b4a454dc3493923482f07822329ed19e8244eff582cc204f8554c3620c3fe90940180549551909116620100000262ffffff199095169390921692909217929092179091559091506014906121e06000546001600160a01b031690565b6001600160a01b031681526020810191909152604001600090812080549161220783613b05565b9091555050600080548282526011602052604090912080546001600160a01b0319166001600160a01b039092169190911790558215612265576000818152601760205260408120849055600a80549161225f83613b05565b91905055505b949350505050565b6000601c54600e838154811061228557612285613a73565b60009182526020909120600290910201600101546122ad9062010000900460ff16600a613c42565b6122bb9060ff166002613d49565b610ebc9190613ae6565b60008181526012602052604090205481906001600160a01b031633146122fd5760405162461bcd60e51b8152600401610c4990613a21565b60008381526010602052604090205483906001600160a01b0316331461232257600080fd5b82600d858154811061233657612336613a73565b906000526020600020906009020160030154036123845760405162461bcd60e51b815260206004820152600c60248201526b73616d65206368617373697360a01b6044820152606401610c49565b600061238f33611b4d565b905060005b81518110156123f857848282815181106123b0576123b0613a73565b602002602001015160600151036123e65760008282815181106123d5576123d5613a73565b602002602001015160600181815250505b806123f081613b05565b915050612394565b5083600d868154811061240d5761240d613a73565b9060005260206000209060090201600301819055505050505050565b336000908152601360205260409020541561244357600080fd5b60008161244f42612fc8565b604051602001612460929190613d55565b60405160208183030381529060405290506000816040516020016124849190613d7b565b6040516020818303038152906040528051906020012060001c905060006124a961305b565b905060006124b561318f565b600d80546040805161012081018252898152602080820189905291810187905260608101859052600160808201819052600060a0830181905260c0830181905260e083018190526101008301859052908401855593909352825180519495509193600985027fd7b6990105719101dabeb77144f2a3385c8033acd3af97e9423a695e81ad1eb5019261254b92849291019061339b565b506020828101516001830155604080840151600284015560608401516003840155608084015160048401805460ff191660ff90921691909117905560a0840151600584015560c0840151600684015560e08401516007840155610100909301516008909201919091556000838152601082528281208054336001600160a01b03199091168117909155815260139091529081208054916125ea83613b05565b9190505550505050505050565b6125ff612f1e565b6001600160a01b0381166126645760405162461bcd60e51b815260206004820152602660248201527f4f776e61626c653a206e6577206f776e657220697320746865207a65726f206160448201526564647265737360d01b6064820152608401610c49565b61266d81612f78565b50565b600d818154811061268057600080fd5b90600052602060002090600902016000915090508060000180546126a390613b98565b80601f01602080910402602001604051908101604052809291908181526020018280546126cf90613b98565b801561271c5780601f106126f15761010080835404028352916020019161271c565b820191906000526020600020905b8154815290600101906020018083116126ff57829003601f168201915b50505060018401546002850154600386015460048701546005880154600689015460078a01546008909a01549899959894975092955060ff90911693909289565b60008281526011602052604090205482906001600160a01b0316331461278257600080fd5b61278c8383611818565b34146127aa5760405162461bcd60e51b8152600401610c4990613a4f565b600080546040516001600160a01b03909116913480156108fc02929091818181858888f193505050501580156127e4573d6000803e3d6000fd5b508160ff16600e84815481106127fc576127fc613a73565b600091825260208220600160029092020101805490919061282290849061ffff16613d97565b92506101000a81548161ffff021916908361ffff160217905550505050565b60008181526010602052604090205481906001600160a01b0316331461286657600080fd5b6000805b602454811015612be7576024818154811061288757612887613a73565b906000526020600020906005020160020154600a600d86815481106128ae576128ae613a73565b60009182526020909120600460099092020101546128cf919060ff16613b76565b6128da906001613b1e565b60ff1603612bd55760019150602481815481106128f9576128f9613a73565b600091825260208083206005909202909101543383526021825260408084209190915560229091529020849055602480548290811061293a5761293a613a73565b60009182526020822060016005909202010180549161295883613b05565b91905055506024818154811061297057612970613a73565b9060005260206000209060050201600301600001546024828154811061299857612998613a73565b90600052602060002090600502016001015403612bd557600073__PDDLib________________________________63c037e545602484815481106129de576129de613a73565b90600052602060002090600502016003016001015460248581548110612a0657612a06613a73565b9060005260206000209060050201600301600001546040518363ffffffff1660e01b8152600401612a41929190918252602082015260400190565b602060405180830381865af4158015612a5e573d6000803e3d6000fd5b505050506040513d601f19601f82011682018060405250810190612a829190613db4565b905060006025600060248581548110612a9d57612a9d613a73565b9060005260206000209060050201600001548152602001908152602001600020905060248381548110612ad257612ad2613a73565b600091825260209091206003600590920201015481556024805484908110612afc57612afc613a73565b6000918252602082206005918202016002908101546001850155830184905542600384015582015560068101805460ff19169055602480547f2838ebeee7dc83fac85a3d6dbca0c0b6771591ada8b00f97371aa6611e631f9c919085908110612b6757612b67613a73565b600091825260209182902060059091020154604080519182529181018590520160405180910390a160248381548110612ba257612ba2613a73565b6000918252602082206005909102018181556001810182905560028101829055600381018290556004015550612be79050565b80612bdf81613b05565b91505061286a565b508015612bf357505050565b6023805460009182612c0483613b05565b91905055905060006040518060400160405280600542612c249190613dcd565b612c2f906002613de1565b8152602001612c3f600242613dcd565b81525090508160216000336001600160a01b03166001600160a01b03168152602001908152602001600020819055506024604051806080016040528084815260200160018152602001600a600d8981548110612c9d57612c9d613a73565b6000918252602090912060046009909202010154612cbe919060ff16613b76565b612cc9906001613b1e565b60ff168152602090810193909352815460018181018455600093845292849020825160059092020190815581840151928101929092556040810151600283015560600151805160038301559091015160049091015550505050565b612d2c612f1e565b600086612d3842612fc8565b604051602001612d49929190613d55565b6040516020818303038152906040529050600081604051602001612d6d9190613d7b565b6040516020818303038152906040528051906020012060001c90506000612d96888860006120fe565b90506000612da58760006118a8565b600d805460408051610120810182528e815260208082018990529181018790526060810185905260ff8b166080820152600060a0820181905260c0820181905260e08201819052610100820184905260018401855593909352825180519495509193600985027fd7b6990105719101dabeb77144f2a3385c8033acd3af97e9423a695e81ad1eb50192612e3c92849291019061339b565b506020828101516001830155604080840151600284015560608401516003840155608084015160048401805460ff90921660ff1990921691909117905560a0840151600584015560c0840151600684015560e0840151600784015561010090930151600890920191909155600080548482526010835283822080546001600160a01b0319166001600160a01b0392831617905581541681526013909152908120805491612ee883613b05565b909155505060008181526016602052604081208790556008805491612f0c83613b05565b91905055505050505050505050505050565b6000546001600160a01b031633146113835760405162461bcd60e51b815260206004820181905260248201527f4f776e61626c653a2063616c6c6572206973206e6f7420746865206f776e65726044820152606401610c49565b600080546001600160a01b038381166001600160a01b0319831681178455604051919092169283917f8be0079c531659141344cd1fd0a4f28419497f9722a3daafe3b4186f6b6457e09190a35050565b60606000612fd5836132c3565b600101905060008167ffffffffffffffff811115612ff557612ff5613756565b6040519080825280601f01601f19166020018201604052801561301f576020820181803683370190505b5090508181016020015b600019016f181899199a1a9b1b9c1cb0b131b232b360811b600a86061a8153600a850494508461302957509392505050565b60008060035460045461306e9190613df9565b6130789042613dcd565b6003546130859190613de1565b600b8054919250600091908261309a83613b05565b909155506040805160608101825282815261ffff808616602080840191825260055460ff908116858701908152600e80546001810182556000918252965160029097027fbb7b4a454dc3493923482f07822329ed19e8244eff582cc204f8554c3620c3fd81019790975593517fbb7b4a454dc3493923482f07822329ed19e8244eff582cc204f8554c3620c3fe90960180549151909216620100000262ffffff199091169590941694909417929092179092553382526014905290812080549293509061316683613b05565b9091555050600081815260116020526040902080546001600160a01b0319163317905592915050565b6000806006546007546131a29190613df9565b6131ac9042613dcd565b6006546131b99190613de1565b600c805491925060009190826131ce83613b05565b909155506040805160608101825282815263ffffffff8086166020808401828152848601928352600f80546001810182556000918252955160029096027f8d1108e10bcb7c27dddfc02ed9d693a074039d026cf4ea4240b40f7d581ac80281019690965590517f8d1108e10bcb7c27dddfc02ed9d693a074039d026cf4ea4240b40f7d581ac8039095018054935185166401000000000267ffffffffffffffff199094169590941694909417919091179091553382526015905290812080549293509061329a83613b05565b9091555050600081815260126020526040902080546001600160a01b0319163317905592915050565b60008072184f03e93ff9f4daa797ed6e38ed64bf6a1f0160401b83106133025772184f03e93ff9f4daa797ed6e38ed64bf6a1f0160401b830492506040015b6d04ee2d6d415b85acef8100000000831061332e576d04ee2d6d415b85acef8100000000830492506020015b662386f26fc10000831061334c57662386f26fc10000830492506010015b6305f5e1008310613364576305f5e100830492506008015b612710831061337857612710830492506004015b6064831061338a576064830492506002015b600a8310610ebc5760010192915050565b8280546133a790613b98565b90600052602060002090601f0160209004810192826133c9576000855561340f565b82601f106133e257805160ff191683800117855561340f565b8280016001018555821561340f579182015b8281111561340f5782518255916020019190600101906133f4565b5061341b92915061341f565b5090565b5b8082111561341b5760008155600101613420565b803560ff8116811461344557600080fd5b919050565b6000806040838503121561345d57600080fd5b8235915061346d60208401613434565b90509250929050565b60006020828403121561348857600080fd5b5035919050565b602080825282518282018190526000919060409081850190868401855b828110156134f157815180516001600160a01b0316855286810151151587860152858101518686015260609081015190850152608090930192908501906001016134ac565b5091979650505050505050565b60006020828403121561351057600080fd5b81356001600160a01b0381168114610eb957600080fd5b6000806040838503121561353a57600080fd5b50508035926020909101359150565b602080825282518282018190526000919060409081850190868401855b828110156134f1578151805185528681015163ffffffff9081168887015290860151168585015260609093019290850190600101613566565b602080825282518282018190526000919060409081850190868401855b828110156134f1578151805185528681015161ffff168786015285015160ff1685850152606090930192908501906001016135bc565b803563ffffffff8116811461344557600080fd5b6000806040838503121561361957600080fd5b613622836135f2565b946020939093013593505050565b60005b8381101561364b578181015183820152602001613633565b8381111561365a576000848401525b50505050565b60008151808452613678816020860160208601613630565b601f01601f19169290920160200192915050565b60006020808301818452808551808352604092508286019150828160051b87010184880160005b8381101561374857603f19898403018552815161012081518186526136da82870182613660565b91505088820151898601528782015188860152606080830151818701525060808083015161370c8288018260ff169052565b505060a0828101519086015260c0808301519086015260e0808301519086015261010091820151919094015293860193908601906001016136b3565b509098975050505050505050565b634e487b7160e01b600052604160045260246000fd5b604051601f8201601f1916810167ffffffffffffffff8111828210171561379557613795613756565b604052919050565b600080604083850312156137b057600080fd5b8235915060208084013567ffffffffffffffff808211156137d057600080fd5b818601915086601f8301126137e457600080fd5b8135818111156137f6576137f6613756565b8060051b915061380784830161376c565b818152918301840191848101908984111561382157600080fd5b938501935b8385101561383f57843582529385019390850190613826565b8096505050505050509250929050565b803561ffff8116811461344557600080fd5b60008060006060848603121561387657600080fd5b61387f8461384f565b925061388d60208501613434565b9150604084013590509250925092565b600082601f8301126138ae57600080fd5b813567ffffffffffffffff8111156138c8576138c8613756565b6138db601f8201601f191660200161376c565b8181528460208386010111156138f057600080fd5b816020850160208301376000918101602001919091529392505050565b60006020828403121561391f57600080fd5b813567ffffffffffffffff81111561393657600080fd5b6122658482850161389d565b60006101208083526139568184018d613660565b602084019b909b5250506040810197909752606087019590955260ff93909316608086015260a085019190915260c084015260e083015261010090910152919050565b60008060008060008060c087890312156139b257600080fd5b863567ffffffffffffffff8111156139c957600080fd5b6139d589828a0161389d565b9650506139e46020880161384f565b94506139f260408801613434565b9350613a00606088016135f2565b9250613a0e60808801613434565b915060a087013590509295509295509295565b6020808252601490820152730c6d0c2e6e6d2e640dcdee840f2deeae4407c74560631b604082015260600190565b6020808252600a90820152691ddc9bdb99c818dbdcdd60b21b604082015260600190565b634e487b7160e01b600052603260045260246000fd5b634e487b7160e01b600052601160045260246000fd5b600063ffffffff808316818516808303821115613abe57613abe613a89565b01949350505050565b600060ff821660ff8103613add57613add613a89565b60010192915050565b6000816000190483118215151615613b0057613b00613a89565b500290565b600060018201613b1757613b17613a89565b5060010190565b600060ff821660ff84168060ff03821115613b3b57613b3b613a89565b019392505050565b600060ff821680613b5657613b56613a89565b6000190192915050565b634e487b7160e01b600052601260045260246000fd5b600060ff831680613b8957613b89613b60565b8060ff84160491505092915050565b600181811c90821680613bac57607f821691505b602082108103613bcc57634e487b7160e01b600052602260045260246000fd5b50919050565b6000604082018483526020604081850152818551808452606086019150828701935060005b81811015613c1357845183529383019391830191600101613bf7565b5090979650505050505050565b600060208284031215613c3257600080fd5b81518015158114610eb957600080fd5b600060ff821660ff841680821015613c5c57613c5c613a89565b90039392505050565b600181815b80851115613ca0578160001904821115613c8657613c86613a89565b80851615613c9357918102915b93841c9390800290613c6a565b509250929050565b600082613cb757506001610ebc565b81613cc457506000610ebc565b8160018114613cda5760028114613ce457613d00565b6001915050610ebc565b60ff841115613cf557613cf5613a89565b50506001821b610ebc565b5060208310610133831016604e8410600b8410161715613d23575081810a610ebc565b613d2d8383613c65565b8060001904821115613d4157613d41613a89565b029392505050565b6000610eb98383613ca8565b60008351613d67818460208801613630565b835190830190613abe818360208801613630565b60008251613d8d818460208701613630565b9190910192915050565b600061ffff808316818516808303821115613abe57613abe613a89565b600060208284031215613dc657600080fd5b5051919050565b600082613ddc57613ddc613b60565b500690565b60008219821115613df457613df4613a89565b500190565b600082821015613e0b57613e0b613a89565b50039056fea264697066735822122028830d71a27050a695d8380f931af69ea4b2c49b7b6b4ce3be1740658235afbc64736f6c634300080d0033",
  "immutableReferences": {},
  "source": "// SPDX-License-Identifier: MIT\npragma solidity ^0.8.13;\n\nimport \"./PDDLib.sol\";\nimport \"./CarHelper.sol\";\nimport \"./CarFactory.sol\";\n\ncontract RaceHandler is CarHelper{\n    struct Cross{\n        uint playersNeeded;\n        uint crossId;\n    }\n\n    Cross[] crosses;\n\n    uint[] levelToReward = [\n        10000000000000,\n        20000000000000,\n        40000000000000,\n        80000000000000,\n        160000000000000,\n        320000000000000,\n        640000000000000,\n        1280000000000000,\n        2560000000000000,\n        5120000000000000\n    ];\n    \n    mapping(address => uint) playersToRooms;\n    mapping(address => uint) playersToCars;\n    struct OpenedRoom{\n        uint id;\n        uint playersEntered;\n        uint world;\n        Cross cross;\n    }\n    struct StartedRoom{\n        uint numberPlayers;\n        uint world;\n        uint roomDNA;\n        uint startTime;\n        Answer[] answers;\n        uint curAnswer;\n        bool closed;\n    }\n    struct Answer{\n        address player;\n        bool correct;\n        uint time;\n        uint carId;\n    }\n\n    uint roomsCount;\n\n    constructor(){\n        // crosses.push(Cross(4,4,0));\n        // crosses.push(Cross(3,4,0));\n        // crosses.push(Cross(2,4,0));\n        // crosses.push(Cross(3,3,1));\n        // crosses.push(Cross(2,3,1));\n        roomsCount = 1;\n    }\n\n    event RoomFull(uint roomId, uint roomDNA);\n    event RoomClosed(uint roomId);\n\n    OpenedRoom[] public openedRooms;\n    mapping(uint => StartedRoom) public idToStartedRooms;\n\n    function findRoom(uint carId) public onlyOwnerOfCar(carId){\n        bool foundRoom = false;\n        for(uint i = 0; i<openedRooms.length; i++){\n            if(cars[carId].carLevel/10+1 != openedRooms[i].world){\n                continue;\n            }\n            foundRoom = true;\n            playersToRooms[msg.sender] = openedRooms[i].id;\n            playersToCars[msg.sender] = carId;\n            openedRooms[i].playersEntered++;\n            if(openedRooms[i].playersEntered == openedRooms[i].cross.playersNeeded){\n                uint roomDNA = PDDLib.generateRoom(openedRooms[i].cross.crossId, openedRooms[i].cross.playersNeeded);\n                \n                StartedRoom storage ss = idToStartedRooms[openedRooms[i].id];\n                ss.numberPlayers = openedRooms[i].cross.playersNeeded;\n                ss.world = openedRooms[i].world;\n                ss.roomDNA = roomDNA;\n                ss.startTime = block.timestamp;\n                ss.curAnswer = 0;\n                ss.closed = false;\n\n                emit RoomFull(openedRooms[i].id, roomDNA);\n                delete openedRooms[i];\n                break;\n            }\n        }\n\n        if(foundRoom){\n            return;\n        }\n        uint id = roomsCount++;\n        Cross memory cr = Cross(\n            block.timestamp%5 + 2,\n            block.timestamp%2\n        );\n        playersToRooms[msg.sender] = id;\n        openedRooms.push(OpenedRoom(\n            id,\n            1,\n            cars[carId].carLevel/10+1,\n            cr\n        ));\n    }\n\n    function getClosedRoom(uint roomId) public view returns(Answer[] memory){\n        require(idToStartedRooms[roomId].closed, \"room not closed\");\n        return idToStartedRooms[roomId].answers;\n    }\n\n\n\n    function commitAnswer(uint roomId, uint[] memory answer) public{\n        require(playersToRooms[msg.sender]==roomId, \"not your room\");\n\n        uint roomDNA = idToStartedRooms[roomId].roomDNA;\n        bool right = PDDLib.isCorrectAnswer(roomDNA, answer);\n        //Answer memory ans = Answer(msg.sender, right, block.timestamp);\n        \n        Answer memory ans = Answer(msg.sender, right, block.timestamp, playersToCars[msg.sender]);\n        StartedRoom storage sr = idToStartedRooms[roomId];\n        sr.answers.push(ans);\n\n        if(idToStartedRooms[roomId].answers.length == idToStartedRooms[roomId].numberPlayers){\n            emit RoomClosed(roomId);\n            idToStartedRooms[roomId].closed = true;\n            delete playersToRooms[msg.sender];\n            delete playersToCars[msg.sender];\n\n            //\n            uint numCorrectAnswers = 0;\n            for(uint i = 0; i<idToStartedRooms[roomId].numberPlayers; i++){\n                if(idToStartedRooms[roomId].answers[i].correct){\n                    numCorrectAnswers++;\n                }\n            }\n            if(numCorrectAnswers==0){\n                return;\n            }\n            if(numCorrectAnswers==1){\n                //payable(idToStartedRooms[roomId].answers[0].player).transfer(1000);\n            }\n        }\n    }\n}\n",
  "sourcePath": "/Users/vvan/Programming/JavaScript/DriveSafely/contract/contracts/RaceHandler.sol",
  "compiler": {
    "name": "solc",
    "version": "0.8.13+commit.abaa5c0e.Emscripten.clang"
  },
  "schemaVersion": "3.4.11",
  "updatedAt": "2023-01-12T08:38:04.126Z",
  "networkType": "ethereum",
  "devdoc": {
    "kind": "dev",
    "methods": {
      "owner()": {
        "details": "Returns the address of the current owner."
      },
      "renounceOwnership()": {
        "details": "Leaves the contract without owner. It will not be possible to call `onlyOwner` functions anymore. Can only be called by the current owner. NOTE: Renouncing ownership will leave the contract without an owner, thereby removing any functionality that is only available to the owner."
      },
      "transferOwnership(address)": {
        "details": "Transfers ownership of the contract to a new account (`newOwner`). Can only be called by the current owner."
      }
    },
    "version": 1
  },
  "userdoc": {
    "kind": "user",
    "methods": {},
    "version": 1
  }
}