{
  "contractName": "RaceHandler",
  "abi": [
    {
      "inputs": [],
      "stateMutability": "nonpayable",
      "type": "constructor"
    },
    {
      "anonymous": false,
      "inputs": [
        {
          "indexed": true,
          "internalType": "address",
          "name": "previousOwner",
          "type": "address"
        },
        {
          "indexed": true,
          "internalType": "address",
          "name": "newOwner",
          "type": "address"
        }
      ],
      "name": "OwnershipTransferred",
      "type": "event"
    },
    {
      "anonymous": false,
      "inputs": [
        {
          "indexed": false,
          "internalType": "uint256",
          "name": "roomId",
          "type": "uint256"
        }
      ],
      "name": "RoomClosed",
      "type": "event"
    },
    {
      "anonymous": false,
      "inputs": [
        {
          "indexed": false,
          "internalType": "uint256",
          "name": "roomId",
          "type": "uint256"
        },
        {
          "indexed": false,
          "internalType": "uint256",
          "name": "roomDNA",
          "type": "uint256"
        }
      ],
      "name": "RoomFull",
      "type": "event"
    },
    {
      "inputs": [
        {
          "internalType": "uint256",
          "name": "",
          "type": "uint256"
        }
      ],
      "name": "carToOwner",
      "outputs": [
        {
          "internalType": "address",
          "name": "",
          "type": "address"
        }
      ],
      "stateMutability": "view",
      "type": "function"
    },
    {
      "inputs": [
        {
          "internalType": "uint256",
          "name": "",
          "type": "uint256"
        }
      ],
      "name": "cars",
      "outputs": [
        {
          "internalType": "string",
          "name": "model",
          "type": "string"
        },
        {
          "internalType": "uint256",
          "name": "vin",
          "type": "uint256"
        },
        {
          "internalType": "uint256",
          "name": "engineId",
          "type": "uint256"
        },
        {
          "internalType": "uint256",
          "name": "chassisId",
          "type": "uint256"
        },
        {
          "internalType": "uint8",
          "name": "carLevel",
          "type": "uint8"
        },
        {
          "internalType": "uint256",
          "name": "mileage",
          "type": "uint256"
        },
        {
          "internalType": "uint256",
          "name": "winCountOnCurrentLevel",
          "type": "uint256"
        },
        {
          "internalType": "uint256",
          "name": "lossCountOnCurrentLevel",
          "type": "uint256"
        },
        {
          "internalType": "uint256",
          "name": "id",
          "type": "uint256"
        }
      ],
      "stateMutability": "view",
      "type": "function"
    },
    {
      "inputs": [
        {
          "internalType": "uint256",
          "name": "",
          "type": "uint256"
        }
      ],
      "name": "chassis",
      "outputs": [
        {
          "internalType": "uint256",
          "name": "id",
          "type": "uint256"
        },
        {
          "internalType": "uint32",
          "name": "durability",
          "type": "uint32"
        },
        {
          "internalType": "uint32",
          "name": "resource",
          "type": "uint32"
        }
      ],
      "stateMutability": "view",
      "type": "function"
    },
    {
      "inputs": [
        {
          "internalType": "uint256",
          "name": "",
          "type": "uint256"
        }
      ],
      "name": "chassisToOwner",
      "outputs": [
        {
          "internalType": "address",
          "name": "",
          "type": "address"
        }
      ],
      "stateMutability": "view",
      "type": "function"
    },
    {
      "inputs": [
        {
          "internalType": "string",
          "name": "model",
          "type": "string"
        }
      ],
      "name": "createCar",
      "outputs": [],
      "stateMutability": "nonpayable",
      "type": "function"
    },
    {
      "inputs": [],
      "name": "createFuelStation",
      "outputs": [],
      "stateMutability": "nonpayable",
      "type": "function"
    },
    {
      "inputs": [
        {
          "internalType": "uint256",
          "name": "carId",
          "type": "uint256"
        },
        {
          "internalType": "uint256",
          "name": "chassisId",
          "type": "uint256"
        }
      ],
      "name": "detachChassis",
      "outputs": [],
      "stateMutability": "nonpayable",
      "type": "function"
    },
    {
      "inputs": [
        {
          "internalType": "uint256",
          "name": "carId",
          "type": "uint256"
        },
        {
          "internalType": "uint256",
          "name": "engineId",
          "type": "uint256"
        }
      ],
      "name": "detachEngine",
      "outputs": [],
      "stateMutability": "nonpayable",
      "type": "function"
    },
    {
      "inputs": [
        {
          "internalType": "uint256",
          "name": "",
          "type": "uint256"
        }
      ],
      "name": "engineToOwner",
      "outputs": [
        {
          "internalType": "address",
          "name": "",
          "type": "address"
        }
      ],
      "stateMutability": "view",
      "type": "function"
    },
    {
      "inputs": [
        {
          "internalType": "uint256",
          "name": "",
          "type": "uint256"
        }
      ],
      "name": "engines",
      "outputs": [
        {
          "internalType": "uint256",
          "name": "id",
          "type": "uint256"
        },
        {
          "internalType": "uint16",
          "name": "horsePowers",
          "type": "uint16"
        },
        {
          "internalType": "uint8",
          "name": "consumtion",
          "type": "uint8"
        }
      ],
      "stateMutability": "view",
      "type": "function"
    },
    {
      "inputs": [
        {
          "internalType": "uint256",
          "name": "",
          "type": "uint256"
        }
      ],
      "name": "fuelStationToOwner",
      "outputs": [
        {
          "internalType": "address",
          "name": "",
          "type": "address"
        }
      ],
      "stateMutability": "view",
      "type": "function"
    },
    {
      "inputs": [
        {
          "internalType": "address",
          "name": "_owner",
          "type": "address"
        }
      ],
      "name": "getCarsByOwner",
      "outputs": [
        {
          "components": [
            {
              "internalType": "string",
              "name": "model",
              "type": "string"
            },
            {
              "internalType": "uint256",
              "name": "vin",
              "type": "uint256"
            },
            {
              "internalType": "uint256",
              "name": "engineId",
              "type": "uint256"
            },
            {
              "internalType": "uint256",
              "name": "chassisId",
              "type": "uint256"
            },
            {
              "internalType": "uint8",
              "name": "carLevel",
              "type": "uint8"
            },
            {
              "internalType": "uint256",
              "name": "mileage",
              "type": "uint256"
            },
            {
              "internalType": "uint256",
              "name": "winCountOnCurrentLevel",
              "type": "uint256"
            },
            {
              "internalType": "uint256",
              "name": "lossCountOnCurrentLevel",
              "type": "uint256"
            },
            {
              "internalType": "uint256",
              "name": "id",
              "type": "uint256"
            }
          ],
          "internalType": "struct CarFactory.Car[]",
          "name": "",
          "type": "tuple[]"
        }
      ],
      "stateMutability": "view",
      "type": "function"
    },
    {
      "inputs": [
        {
          "internalType": "address",
          "name": "_owner",
          "type": "address"
        }
      ],
      "name": "getChassisByOwner",
      "outputs": [
        {
          "components": [
            {
              "internalType": "uint256",
              "name": "id",
              "type": "uint256"
            },
            {
              "internalType": "uint32",
              "name": "durability",
              "type": "uint32"
            },
            {
              "internalType": "uint32",
              "name": "resource",
              "type": "uint32"
            }
          ],
          "internalType": "struct CarFactory.Chassis[]",
          "name": "",
          "type": "tuple[]"
        }
      ],
      "stateMutability": "view",
      "type": "function"
    },
    {
      "inputs": [
        {
          "internalType": "address",
          "name": "_owner",
          "type": "address"
        }
      ],
      "name": "getEnginesByOwner",
      "outputs": [
        {
          "components": [
            {
              "internalType": "uint256",
              "name": "id",
              "type": "uint256"
            },
            {
              "internalType": "uint16",
              "name": "horsePowers",
              "type": "uint16"
            },
            {
              "internalType": "uint8",
              "name": "consumtion",
              "type": "uint8"
            }
          ],
          "internalType": "struct CarFactory.Engine[]",
          "name": "",
          "type": "tuple[]"
        }
      ],
      "stateMutability": "view",
      "type": "function"
    },
    {
      "inputs": [
        {
          "internalType": "address",
          "name": "_owner",
          "type": "address"
        }
      ],
      "name": "getFuelStationByOwner",
      "outputs": [
        {
          "components": [
            {
              "internalType": "uint256",
              "name": "id",
              "type": "uint256"
            },
            {
              "internalType": "uint8",
              "name": "capacity",
              "type": "uint8"
            },
            {
              "internalType": "uint8",
              "name": "productionPerHour",
              "type": "uint8"
            },
            {
              "internalType": "uint8",
              "name": "currentFullness",
              "type": "uint8"
            },
            {
              "internalType": "uint256",
              "name": "lastUpdate",
              "type": "uint256"
            }
          ],
          "internalType": "struct FuelStationFactory.FuelStation",
          "name": "",
          "type": "tuple"
        }
      ],
      "stateMutability": "view",
      "type": "function"
    },
    {
      "inputs": [
        {
          "internalType": "uint256",
          "name": "",
          "type": "uint256"
        }
      ],
      "name": "idToStartedRooms",
      "outputs": [
        {
          "internalType": "uint256",
          "name": "numberPlayers",
          "type": "uint256"
        },
        {
          "internalType": "uint256",
          "name": "world",
          "type": "uint256"
        },
        {
          "internalType": "uint256",
          "name": "roomDNA",
          "type": "uint256"
        },
        {
          "internalType": "uint256",
          "name": "startTime",
          "type": "uint256"
        },
        {
          "internalType": "uint256",
          "name": "curAnswer",
          "type": "uint256"
        },
        {
          "internalType": "bool",
          "name": "closed",
          "type": "bool"
        }
      ],
      "stateMutability": "view",
      "type": "function"
    },
    {
      "inputs": [
        {
          "internalType": "uint256",
          "name": "_carId",
          "type": "uint256"
        }
      ],
      "name": "levelUp",
      "outputs": [],
      "stateMutability": "payable",
      "type": "function"
    },
    {
      "inputs": [
        {
          "internalType": "uint256",
          "name": "",
          "type": "uint256"
        }
      ],
      "name": "openedRooms",
      "outputs": [
        {
          "internalType": "uint256",
          "name": "id",
          "type": "uint256"
        },
        {
          "internalType": "uint256",
          "name": "playersEntered",
          "type": "uint256"
        },
        {
          "internalType": "uint256",
          "name": "world",
          "type": "uint256"
        },
        {
          "components": [
            {
              "internalType": "uint256",
              "name": "playersNeeded",
              "type": "uint256"
            },
            {
              "internalType": "uint256",
              "name": "roadsNum",
              "type": "uint256"
            },
            {
              "internalType": "uint256",
              "name": "crossId",
              "type": "uint256"
            }
          ],
          "internalType": "struct RaceHandler.Cross",
          "name": "cross",
          "type": "tuple"
        }
      ],
      "stateMutability": "view",
      "type": "function"
    },
    {
      "inputs": [],
      "name": "owner",
      "outputs": [
        {
          "internalType": "address",
          "name": "",
          "type": "address"
        }
      ],
      "stateMutability": "view",
      "type": "function"
    },
    {
      "inputs": [
        {
          "internalType": "address",
          "name": "",
          "type": "address"
        }
      ],
      "name": "ownerCarCount",
      "outputs": [
        {
          "internalType": "uint256",
          "name": "",
          "type": "uint256"
        }
      ],
      "stateMutability": "view",
      "type": "function"
    },
    {
      "inputs": [],
      "name": "renounceOwnership",
      "outputs": [],
      "stateMutability": "nonpayable",
      "type": "function"
    },
    {
      "inputs": [
        {
          "internalType": "uint256",
          "name": "",
          "type": "uint256"
        }
      ],
      "name": "stations",
      "outputs": [
        {
          "internalType": "uint256",
          "name": "id",
          "type": "uint256"
        },
        {
          "internalType": "uint8",
          "name": "capacity",
          "type": "uint8"
        },
        {
          "internalType": "uint8",
          "name": "productionPerHour",
          "type": "uint8"
        },
        {
          "internalType": "uint8",
          "name": "currentFullness",
          "type": "uint8"
        },
        {
          "internalType": "uint256",
          "name": "lastUpdate",
          "type": "uint256"
        }
      ],
      "stateMutability": "view",
      "type": "function"
    },
    {
      "inputs": [
        {
          "internalType": "uint256",
          "name": "carId",
          "type": "uint256"
        },
        {
          "internalType": "uint256",
          "name": "chassisId",
          "type": "uint256"
        }
      ],
      "name": "switchChassis",
      "outputs": [],
      "stateMutability": "nonpayable",
      "type": "function"
    },
    {
      "inputs": [
        {
          "internalType": "uint256",
          "name": "carId",
          "type": "uint256"
        },
        {
          "internalType": "uint256",
          "name": "engineId",
          "type": "uint256"
        }
      ],
      "name": "switchEngine",
      "outputs": [],
      "stateMutability": "nonpayable",
      "type": "function"
    },
    {
      "inputs": [
        {
          "internalType": "address",
          "name": "newOwner",
          "type": "address"
        }
      ],
      "name": "transferOwnership",
      "outputs": [],
      "stateMutability": "nonpayable",
      "type": "function"
    },
    {
      "inputs": [
        {
          "internalType": "uint256",
          "name": "_fuelStatonId",
          "type": "uint256"
        },
        {
          "internalType": "uint8",
          "name": "_counts",
          "type": "uint8"
        }
      ],
      "name": "upgradeCapacity",
      "outputs": [],
      "stateMutability": "payable",
      "type": "function"
    },
    {
      "inputs": [
        {
          "internalType": "uint256",
          "name": "_engineId",
          "type": "uint256"
        },
        {
          "internalType": "uint8",
          "name": "_counts",
          "type": "uint8"
        }
      ],
      "name": "upgradeConsumtion",
      "outputs": [],
      "stateMutability": "payable",
      "type": "function"
    },
    {
      "inputs": [
        {
          "internalType": "uint256",
          "name": "_chassisId",
          "type": "uint256"
        },
        {
          "internalType": "uint8",
          "name": "_counts",
          "type": "uint8"
        }
      ],
      "name": "upgradeDurability",
      "outputs": [],
      "stateMutability": "payable",
      "type": "function"
    },
    {
      "inputs": [
        {
          "internalType": "uint256",
          "name": "_engineId",
          "type": "uint256"
        },
        {
          "internalType": "uint8",
          "name": "_counts",
          "type": "uint8"
        }
      ],
      "name": "upgradeHorsePowers",
      "outputs": [],
      "stateMutability": "payable",
      "type": "function"
    },
    {
      "inputs": [
        {
          "internalType": "uint256",
          "name": "_fuelStatonId",
          "type": "uint256"
        },
        {
          "internalType": "uint8",
          "name": "_counts",
          "type": "uint8"
        }
      ],
      "name": "upgradeProductionPerHour",
      "outputs": [],
      "stateMutability": "payable",
      "type": "function"
    },
    {
      "inputs": [
        {
          "internalType": "uint256",
          "name": "carId",
          "type": "uint256"
        }
      ],
      "name": "findRoom",
      "outputs": [],
      "stateMutability": "nonpayable",
      "type": "function"
    },
    {
      "inputs": [
        {
          "internalType": "uint256",
          "name": "roomId",
          "type": "uint256"
        }
      ],
      "name": "getClosedRoom",
      "outputs": [
        {
          "components": [
            {
              "internalType": "address",
              "name": "player",
              "type": "address"
            },
            {
              "internalType": "bool",
              "name": "correct",
              "type": "bool"
            },
            {
              "internalType": "uint256",
              "name": "time",
              "type": "uint256"
            },
            {
              "internalType": "uint256",
              "name": "carId",
              "type": "uint256"
            }
          ],
          "internalType": "struct RaceHandler.Answer[]",
          "name": "",
          "type": "tuple[]"
        }
      ],
      "stateMutability": "view",
      "type": "function"
    },
    {
      "inputs": [
        {
          "internalType": "uint256",
          "name": "roomId",
          "type": "uint256"
        },
        {
          "internalType": "uint256[]",
          "name": "answer",
          "type": "uint256[]"
        }
      ],
      "name": "commitAnswer",
      "outputs": [],
      "stateMutability": "nonpayable",
      "type": "function"
    }
  ],
  "bytecode": "0x60806040526000805461ffff60a01b191661014f60a21b179055600160088190556009556509184e72a00060135565b5e620f48000601455650da475abf0006015556611c37937e080006016556305f5e10060175566038d7ea4c6800060185534801561006b57600080fd5b5061007533610247565b60506003908155605b60049081556005805460ff1916600a179055620186a06006556201d4c1600755600b80546001908101909155600c80548201905560408051606080820183528482526020828101868152600084860181815260198054808a0182558184529651968b027f944998273e477b495144fb8794c914197f3ccb46be2900f4698fd0ef743c96958181019890985593517f944998273e477b495144fb8794c914197f3ccb46be2900f4698fd0ef743c96968086019190915591517f944998273e477b495144fb8794c914197f3ccb46be2900f4698fd0ef743c969794850155875180870189528b81528086018b8152818a018581528354808d0185558487529251928e02808b019390935590518285015551908501558751808701895260028082528187019b8c52818a018581528354808d0185558487529251928e02808b01939093559b51828501559a5190850155875180870189528b81528086018c8152818a018b81528354808d0185558487529251928e02808b019390935590518285015551908501558751958601885298855292840189815295840187815288548089018a559890915292519690970292830195909555915193810193909355519190920155601c55610297565b600080546001600160a01b038381166001600160a01b0319831681178455604051919092169283917f8be0079c531659141344cd1fd0a4f28419497f9722a3daafe3b4186f6b6457e09190a35050565b6131d580620002a76000396000f3fe6080604052600436106101ee5760003560e01c80637c62360f1161010d578063c75bb4f4116100a0578063ede6fbf51161006f578063ede6fbf514610855578063f2fde38b14610875578063f7746e3614610895578063faf4bb98146108ca578063fb2d954f146108dd57600080fd5b8063c75bb4f4146107c8578063c85b7fed146107f5578063d1c54eea14610815578063ea1269331461083557600080fd5b806392f859db116100dc57806392f859db146106dc578063b3b29afd1461072c578063b72c0eea14610767578063c34cccc4146107a857600080fd5b80637c62360f1461068557806385909267146106985780638da5cb5b146106ab578063906f5f34146106c957600080fd5b806344901490116101855780636b606d9b116101545780636b606d9b146105f65780636f206fc114610616578063715018a6146106435780637713d5211461065857600080fd5b806344901490146104e95780634e31f9101461051f578063594193d71461058a5780635dcc4cc6146105c057600080fd5b80631c5dde0e116101c15780631c5dde0e146102f8578063224370f01461033a57806333ca504b1461046e5780633521c426146104bc57600080fd5b806303f2e05b146101f35780630418394e14610208578063081315ff1461028f5780630ce90ec2146102e5575b600080fd5b6102066102013660046128ea565b6108fd565b005b34801561021457600080fd5b5061025b610223366004612920565b601e60205260009081526040902080546001820154600283015460038401546005850154600690950154939492939192909160ff1686565b6040805196875260208701959095529385019290925260608401526080830152151560a082015260c0015b60405180910390f35b34801561029b57600080fd5b506102af6102aa366004612920565b6109dc565b604080519485526020808601949094528481019290925280516060850152918201516080840152015160a082015260c001610286565b6102066102f3366004612920565b610a3a565b34801561030457600080fd5b50610318610313366004612920565b610b95565b6040805193845263ffffffff9283166020850152911690820152606001610286565b34801561034657600080fd5b50610206600180546040805160a0810182528281526000805460ff600160a01b820481166020808601828152600160a81b90940483168688019081526060870192835263ffffffff421660808801908152898b018b559986529551600389027fb10e2d527612073b26eecdfd717e6a320cf44b4afac2b0732d9fcbe2b7fa0cf681019190915593517fb10e2d527612073b26eecdfd717e6a320cf44b4afac2b0732d9fcbe2b7fa0cf785018054975193518516620100000262ff0000199486166101000261ffff19909916929095169190911796909617919091169190911790935594517fb10e2d527612073b26eecdfd717e6a320cf44b4afac2b0732d9fcbe2b7fa0cf8909501949094559183526002909152902080546001600160a01b03191633179055565b34801561047a57600080fd5b506104a4610489366004612920565b600d602052600090815260409020546001600160a01b031681565b6040516001600160a01b039091168152602001610286565b3480156104c857600080fd5b506104dc6104d7366004612920565b610bd5565b6040516102869190612939565b3480156104f557600080fd5b506104a4610504366004612920565b600f602052600090815260409020546001600160a01b031681565b34801561052b57600080fd5b5061053f61053a3660046129a8565b610ccc565b6040516102869190600060a0820190508251825260ff602084015116602083015260ff604084015116604083015260ff60608401511660608301526080830151608083015292915050565b34801561059657600080fd5b506104a46105a5366004612920565b6002602052600090815260409020546001600160a01b031681565b3480156105cc57600080fd5b506104a46105db366004612920565b600e602052600090815260409020546001600160a01b031681565b34801561060257600080fd5b506102066106113660046129d8565b610db3565b34801561062257600080fd5b506106366106313660046129a8565b610e99565b60405161028691906129fa565b34801561064f57600080fd5b50610206610fed565b34801561066457600080fd5b506106786106733660046129a8565b611001565b6040516102869190612a50565b6102066106933660046128ea565b611149565b6102066106a63660046128ea565b611229565b3480156106b757600080fd5b506000546001600160a01b03166104a4565b6102066106d73660046128ea565b6112e2565b3480156106e857600080fd5b506106fc6106f7366004612920565b61138f565b6040805195865260ff9485166020870152928416928501929092529091166060830152608082015260a001610286565b34801561073857600080fd5b506107596107473660046129a8565b60106020526000908152604090205481565b604051908152602001610286565b34801561077357600080fd5b50610787610782366004612920565b6113db565b6040805193845261ffff909216602084015260ff1690820152606001610286565b3480156107b457600080fd5b506102066107c33660046129d8565b611418565b3480156107d457600080fd5b506107e86107e33660046129a8565b6114f2565b6040516102869190612aff565b34801561080157600080fd5b50610206610810366004612c10565b611730565b34801561082157600080fd5b506102066108303660046129d8565b61192d565b34801561084157600080fd5b506102066108503660046129d8565b6119f8565b34801561086157600080fd5b50610206610870366004612cc2565b611ab8565b34801561088157600080fd5b506102066108903660046129a8565b611c86565b3480156108a157600080fd5b506108b56108b0366004612920565b611cff565b60405161028699989796959493929190612d57565b6102066108d83660046128ea565b611dec565b3480156108e957600080fd5b506102066108f8366004612920565b611ec1565b6000828152600f602052604090205482906001600160a01b0316331461092257600080fd5b601754600c848154811061093857610938612dae565b600091825260209091206001600290920201015461095f9063ffffffff1660ff8516612dda565b63ffffffff1661096f9190612e06565b341461097a57600080fd5b8160ff16600c848154811061099157610991612dae565b60009182526020822060016002909202010180549091906109b990849063ffffffff16612e25565b92506101000a81548163ffffffff021916908363ffffffff160217905550505050565b601d81815481106109ec57600080fd5b60009182526020918290206006909102018054600182015460028301546040805160608101825260038601548152600486015496810196909652600590940154938501939093529093509184565b600a808281548110610a4e57610a4e612dae565b6000918252602090912060046009909202010154610a6f919060ff16612e63565b60ff16601854610a7f9190612e06565b34148015610ae85750600a8181548110610a9b57610a9b612dae565b6000918252602090912060046009909202010154610abd9060ff166001612e85565b60ff16600a8281548110610ad357610ad3612dae565b90600052602060002090600902016006015410155b610af157600080fd5b600a8181548110610b0457610b04612dae565b600091825260208220600460099092020101805460ff1691610b2583612eaa565b91906101000a81548160ff021916908360ff160217905550506000600a8281548110610b5357610b53612dae565b9060005260206000209060090201600601819055506000600a8281548110610b7d57610b7d612dae565b90600052602060002090600902016007018190555050565b600c8181548110610ba557600080fd5b60009182526020909120600290910201805460019091015490915063ffffffff8082169164010000000090041683565b6000818152601e602052604090206006015460609060ff16610c305760405162461bcd60e51b815260206004820152600f60248201526e1c9bdbdb481b9bdd0818db1bdcd959608a1b60448201526064015b60405180910390fd5b6000828152601e6020908152604080832060040180548251818502810185019093528083529193909284015b82821015610cc1576000848152602090819020604080516080810182526003860290920180546001600160a01b0381168452600160a01b900460ff16151583850152600180820154928401929092526002015460608301529083529092019101610c5c565b505050509050919050565b6040805160a081018252600080825260208201819052918101829052606081018290526080810182905290805b600154811015610d3e576000818152600260205260409020546001600160a01b03808616911603610d2c57809150610d3e565b80610d3681612ec9565b915050610cf9565b5060018181548110610d5257610d52612dae565b60009182526020918290206040805160a081018252600390930290910180548352600181015460ff80821695850195909552610100810485169284019290925262010000909104909216606082015260029091015460808201529392505050565b6000818152600f602052604090205481906001600160a01b03163314610dd857600080fd5b6000838152600d602052604090205483906001600160a01b03163314610dfd57600080fd5b82600a8581548110610e1157610e11612dae565b90600052602060002090600902016003015414610e695760405162461bcd60e51b8152602060048201526016602482015275195b99da5b99481a5cc81b9bdd08185d1d1858da195960521b6044820152606401610c27565b6000600a8581548110610e7e57610e7e612dae565b90600052602060002090600902016003018190555050505050565b6001600160a01b0381166000908152601160205260408120546060919067ffffffffffffffff811115610ece57610ece612bc9565b604051908082528060200260200182016040528015610f1957816020015b6040805160608101825260008082526020808301829052928201528252600019909201910181610eec5790505b5090506000805b600c54811015610fe4576000818152600f60205260409020546001600160a01b03808716911603610fd257600c8181548110610f5e57610f5e612dae565b6000918252602091829020604080516060810182526002909302909101805483526001015463ffffffff808216948401949094526401000000009004909216918101919091528351849084908110610fb857610fb8612dae565b60200260200101819052508180610fce90612ec9565b9250505b80610fdc81612ec9565b915050610f20565b50909392505050565b610ff56123d3565b610fff600061242d565b565b6001600160a01b0381166000908152601160205260408120546060919067ffffffffffffffff81111561103657611036612bc9565b60405190808252806020026020018201604052801561108157816020015b60408051606081018252600080825260208083018290529282015282526000199092019101816110545790505b5090506000805b600b54811015610fe4576000818152600e60205260409020546001600160a01b0380871691160361113757600b81815481106110c6576110c6612dae565b600091825260209182902060408051606081018252600293909302909101805483526001015461ffff8116938301939093526201000090920460ff1691810191909152835184908490811061111d5761111d612dae565b6020026020010181905250818061113390612ec9565b9250505b8061114181612ec9565b915050611088565b6000828152600e602052604090205482906001600160a01b0316331461116e57600080fd5b600b838154811061118157611181612dae565b60009182526020909120600290910201600101546111a99062010000900460ff16600a612ee2565b6111b4906002612fe9565b6016546111c19190612e06565b34146111cc57600080fd5b81600b84815481106111e0576111e0612dae565b906000526020600020906002020160010160028282829054906101000a900460ff1661120c9190612ee2565b92506101000a81548160ff021916908360ff160217905550505050565b60008281526002602052604090205482906001600160a01b0316331461124e57600080fd5b6014546001848154811061126457611264612dae565b600091825260209091206003909102016001015461128a90610100900460ff1684612ff8565b60ff166112979190612e06565b34146112a257600080fd5b81600184815481106112b6576112b6612dae565b906000526020600020906003020160010160018282829054906101000a900460ff1661120c9190612e85565b60008281526002602052604090205482906001600160a01b0316331461130757600080fd5b6013546001848154811061131d5761131d612dae565b600091825260209091206001600390920201015461133e9060ff1684612ff8565b60ff1661134b9190612e06565b341461135657600080fd5b816001848154811061136a5761136a612dae565b600091825260208220600160039092020101805490919061120c90849060ff16612e85565b6001818154811061139f57600080fd5b600091825260209091206003909102018054600182015460029092015490925060ff808316926101008104821692620100009091049091169085565b600b81815481106113eb57600080fd5b60009182526020909120600290910201805460019091015490915061ffff81169062010000900460ff1683565b6000818152600e602052604090205481906001600160a01b0316331461143d57600080fd5b6000838152600d602052604090205483906001600160a01b0316331461146257600080fd5b82600a858154811061147657611476612dae565b906000526020600020906009020160020154036114c35760405162461bcd60e51b815260206004820152600b60248201526a73616d6520656e67696e6560a81b6044820152606401610c27565b82600a85815481106114d7576114d7612dae565b90600052602060002090600902016002018190555050505050565b6001600160a01b0381166000908152601060205260408120546060919067ffffffffffffffff81111561152757611527612bc9565b6040519080825280602002602001820160405280156115aa57816020015b61159760405180610120016040528060608152602001600081526020016000815260200160008152602001600060ff168152602001600081526020016000815260200160008152602001600081525090565b8152602001906001900390816115455790505b5090506000805b600a54811015610fe4576000818152600d60205260409020546001600160a01b0380871691160361171e57600a81815481106115ef576115ef612dae565b90600052602060002090600902016040518061012001604052908160008201805461161990613019565b80601f016020809104026020016040519081016040528092919081815260200182805461164590613019565b80156116925780601f1061166757610100808354040283529160200191611692565b820191906000526020600020905b81548152906001019060200180831161167557829003601f168201915b5050509183525050600182015460208201526002820154604082015260038201546060820152600482015460ff166080820152600582015460a0820152600682015460c0820152600782015460e082015260089091015461010090910152835184908490811061170457611704612dae565b6020026020010181905250818061171a90612ec9565b9250505b8061172881612ec9565b9150506115b1565b336000908152601a6020526040902054821461177e5760405162461bcd60e51b815260206004820152600d60248201526c6e6f7420796f757220726f6f6d60981b6044820152606401610c27565b6000828152601e6020526040808220600201549051634e31f59760e11b815290919073__PDDLib________________________________90639c63eb2e906117cc9085908790600401613053565b602060405180830381865af41580156117e9573d6000803e3d6000fd5b505050506040513d601f19601f8201168201806040525081019061180d91906130a1565b60408051608081018252338082528315156020808401918252428486019081526000938452601b825285842054606086019081528b8552601e8352958420600481018054600181810183558288529487208851600390920201805496511515600160a01b026001600160a81b03199097166001600160a01b03929092169190911795909517855591519284019290925594516002909201919091559088905280549254939450909290919003611925576040518681527f67acaceb58ff1ad2aa8b3069f69c4cd076824e06a09184b75fb197ead7040be79060200160405180910390a16000868152601e60209081526040808320600601805460ff19166001179055338352601a8252808320839055601b9091528120555b505050505050565b6000818152600e602052604090205481906001600160a01b0316331461195257600080fd5b6000838152600d602052604090205483906001600160a01b0316331461197757600080fd5b82600a858154811061198b5761198b612dae565b906000526020600020906009020160020154146119e35760405162461bcd60e51b8152602060048201526016602482015275195b99da5b99481a5cc81b9bdd08185d1d1858da195960521b6044820152606401610c27565b6000600a85815481106114d7576114d7612dae565b6000818152600f602052604090205481906001600160a01b03163314611a1d57600080fd5b6000838152600d602052604090205483906001600160a01b03163314611a4257600080fd5b82600a8581548110611a5657611a56612dae565b90600052602060002090600902016003015403611aa45760405162461bcd60e51b815260206004820152600c60248201526b73616d65206368617373697360a01b6044820152606401610c27565b82600a8581548110610e7e57610e7e612dae565b3360009081526010602052604090205415611ad257600080fd5b600081611ade4261247d565b604051602001611aef9291906130c3565b6040516020818303038152906040529050600081604051602001611b1391906130e9565b6040516020818303038152906040528051906020012060001c90506000611b38612510565b90506000611b44612644565b600a80546040805161012081018252898152602080820189905291810187905260608101859052600160808201819052600060a0830181905260c0830181905260e083018190526101008301859052908401855593909352825180519495509193600985027fc65a7bb8d6351c1cf70c95a316cc6a92839c986682d98bc35f958f4883f9d2a80192611bda928492910190612851565b506020828101516001830155604080840151600284015560608401516003840155608084015160048401805460ff191660ff90921691909117905560a0840151600584015560c0840151600684015560e08401516007840155610100909301516008909201919091556000838152600d82528281208054336001600160a01b0319909116811790915581526010909152908120805491611c7983612ec9565b9190505550505050505050565b611c8e6123d3565b6001600160a01b038116611cf35760405162461bcd60e51b815260206004820152602660248201527f4f776e61626c653a206e6577206f776e657220697320746865207a65726f206160448201526564647265737360d01b6064820152608401610c27565b611cfc8161242d565b50565b600a8181548110611d0f57600080fd5b9060005260206000209060090201600091509050806000018054611d3290613019565b80601f0160208091040260200160405190810160405280929190818152602001828054611d5e90613019565b8015611dab5780601f10611d8057610100808354040283529160200191611dab565b820191906000526020600020905b815481529060010190602001808311611d8e57829003601f168201915b50505060018401546002850154600386015460048701546005880154600689015460078a01546008909a01549899959894975092955060ff90911693909289565b6000828152600e602052604090205482906001600160a01b03163314611e1157600080fd5b601554600b8481548110611e2757611e27612dae565b6000918252602090912060016002909202010154611e4c9061ffff1660ff8516613105565b61ffff16611e5a9190612e06565b3414611e6557600080fd5b8160ff16600b8481548110611e7c57611e7c612dae565b6000918252602082206001600290920201018054909190611ea290849061ffff16613126565b92506101000a81548161ffff021916908361ffff160217905550505050565b6000818152600d602052604090205481906001600160a01b03163314611ee657600080fd5b6000805b601d5481101561227057601d8181548110611f0757611f07612dae565b906000526020600020906006020160020154600a808681548110611f2d57611f2d612dae565b6000918252602090912060046009909202010154611f4e919060ff16612e63565b611f59906001612e85565b60ff160361225e5760019150601d8181548110611f7857611f78612dae565b60009182526020808320600690920290910154338352601a8252604080842091909155601b9091529020849055601d805482908110611fb957611fb9612dae565b600091825260208220600160069092020101805491611fd783612ec9565b9190505550601d8181548110611fef57611fef612dae565b906000526020600020906006020160030160000154601d828154811061201757612017612dae565b9060005260206000209060060201600101540361225e57600073__PDDLib________________________________63c037e545601d848154811061205d5761205d612dae565b906000526020600020906006020160030160020154601d858154811061208557612085612dae565b9060005260206000209060060201600301600001546040518363ffffffff1660e01b81526004016120c0929190918252602082015260400190565b602060405180830381865af41580156120dd573d6000803e3d6000fd5b505050506040513d601f19601f820116820180604052508101906121019190613143565b90506000601e6000601d858154811061211c5761211c612dae565b90600052602060002090600602016000015481526020019081526020016000209050601d838154811061215157612151612dae565b60009182526020909120600360069092020101548155601d80548490811061217b5761217b612dae565b6000918252602082206006918202016002908101546001850155830184905542600384015560058301919091558101805460ff19169055601d80547f2838ebeee7dc83fac85a3d6dbca0c0b6771591ada8b00f97371aa6611e631f9c9190859081106121e9576121e9612dae565b600091825260209182902060069091020154604080519182529181018590520160405180910390a1601d838154811061222457612224612dae565b6000918252602082206006909102018181556001810182905560028101829055600381018290556004810182905560050155506122709050565b8061226881612ec9565b915050611eea565b50801561227c57505050565b601c80546000918261228d83612ec9565b909155506019549091506000906122a4904261315c565b905081601a6000336001600160a01b03166001600160a01b0316815260200190815260200160002081905550601d604051806080016040528084815260200160018152602001600a8089815481106122fe576122fe612dae565b600091825260209091206004600990920201015461231f919060ff16612e63565b61232a906001612e85565b60ff1681526020016019848154811061234557612345612dae565b60009182526020808320604080516060808201835260039586029093018054825260018082015483870152600291820154838501529190975288548082018a5598865294839020875160069099020197885586830151948801949094558584015194870194909455939092015180519285019290925591810151600484015501516005909101555050505050565b6000546001600160a01b03163314610fff5760405162461bcd60e51b815260206004820181905260248201527f4f776e61626c653a2063616c6c6572206973206e6f7420746865206f776e65726044820152606401610c27565b600080546001600160a01b038381166001600160a01b0319831681178455604051919092169283917f8be0079c531659141344cd1fd0a4f28419497f9722a3daafe3b4186f6b6457e09190a35050565b6060600061248a83612778565b600101905060008167ffffffffffffffff8111156124aa576124aa612bc9565b6040519080825280601f01601f1916602001820160405280156124d4576020820181803683370190505b5090508181016020015b600019016f181899199a1a9b1b9c1cb0b131b232b360811b600a86061a8153600a85049450846124de57509392505050565b6000806003546004546125239190613170565b61252d904261315c565b60035461253a9190613187565b60088054919250600091908261254f83612ec9565b909155506040805160608101825282815261ffff808616602080840191825260055460ff908116858701908152600b80546001810182556000918252965160029097027f0175b7a638427703f0dbe7bb9bbf987a2551717b34e79f33b5b1008d1fa01db981019790975593517f0175b7a638427703f0dbe7bb9bbf987a2551717b34e79f33b5b1008d1fa01dba90960180549151909216620100000262ffffff199091169590941694909417929092179092553382526011905290812080549293509061261b83612ec9565b90915550506000818152600e6020526040902080546001600160a01b0319163317905592915050565b6000806006546007546126579190613170565b612661904261315c565b60065461266e9190613187565b60098054919250600091908261268383612ec9565b909155506040805160608101825282815263ffffffff8086166020808401828152848601928352600c80546001810182556000918252955160029096027fdf6966c971051c3d54ec59162606531493a51404a002842f56009d7e5cf4a8c781019690965590517fdf6966c971051c3d54ec59162606531493a51404a002842f56009d7e5cf4a8c89095018054935185166401000000000267ffffffffffffffff199094169590941694909417919091179091553382526012905290812080549293509061274f83612ec9565b90915550506000818152600f6020526040902080546001600160a01b0319163317905592915050565b60008072184f03e93ff9f4daa797ed6e38ed64bf6a1f0160401b83106127b75772184f03e93ff9f4daa797ed6e38ed64bf6a1f0160401b830492506040015b6d04ee2d6d415b85acef810000000083106127e3576d04ee2d6d415b85acef8100000000830492506020015b662386f26fc10000831061280157662386f26fc10000830492506010015b6305f5e1008310612819576305f5e100830492506008015b612710831061282d57612710830492506004015b6064831061283f576064830492506002015b600a831061284b576001015b92915050565b82805461285d90613019565b90600052602060002090601f01602090048101928261287f57600085556128c5565b82601f1061289857805160ff19168380011785556128c5565b828001600101855582156128c5579182015b828111156128c55782518255916020019190600101906128aa565b506128d19291506128d5565b5090565b5b808211156128d157600081556001016128d6565b600080604083850312156128fd57600080fd5b82359150602083013560ff8116811461291557600080fd5b809150509250929050565b60006020828403121561293257600080fd5b5035919050565b602080825282518282018190526000919060409081850190868401855b8281101561299b57815180516001600160a01b031685528681015115158786015285810151868601526060908101519085015260809093019290850190600101612956565b5091979650505050505050565b6000602082840312156129ba57600080fd5b81356001600160a01b03811681146129d157600080fd5b9392505050565b600080604083850312156129eb57600080fd5b50508035926020909101359150565b602080825282518282018190526000919060409081850190868401855b8281101561299b578151805185528681015163ffffffff9081168887015290860151168585015260609093019290850190600101612a17565b602080825282518282018190526000919060409081850190868401855b8281101561299b578151805185528681015161ffff168786015285015160ff168585015260609093019290850190600101612a6d565b60005b83811015612abe578181015183820152602001612aa6565b83811115612acd576000848401525b50505050565b60008151808452612aeb816020860160208601612aa3565b601f01601f19169290920160200192915050565b60006020808301818452808551808352604092508286019150828160051b87010184880160005b83811015612bbb57603f1989840301855281516101208151818652612b4d82870182612ad3565b915050888201518986015287820151888601526060808301518187015250608080830151612b7f8288018260ff169052565b505060a0828101519086015260c0808301519086015260e080830151908601526101009182015191909401529386019390860190600101612b26565b509098975050505050505050565b634e487b7160e01b600052604160045260246000fd5b604051601f8201601f1916810167ffffffffffffffff81118282101715612c0857612c08612bc9565b604052919050565b60008060408385031215612c2357600080fd5b8235915060208084013567ffffffffffffffff80821115612c4357600080fd5b818601915086601f830112612c5757600080fd5b813581811115612c6957612c69612bc9565b8060051b9150612c7a848301612bdf565b8181529183018401918481019089841115612c9457600080fd5b938501935b83851015612cb257843582529385019390850190612c99565b8096505050505050509250929050565b60006020808385031215612cd557600080fd5b823567ffffffffffffffff80821115612ced57600080fd5b818501915085601f830112612d0157600080fd5b813581811115612d1357612d13612bc9565b612d25601f8201601f19168501612bdf565b91508082528684828501011115612d3b57600080fd5b8084840185840137600090820190930192909252509392505050565b6000610120808352612d6b8184018d612ad3565b602084019b909b5250506040810197909752606087019590955260ff93909316608086015260a085019190915260c084015260e083015261010090910152919050565b634e487b7160e01b600052603260045260246000fd5b634e487b7160e01b600052601160045260246000fd5b600063ffffffff80831681851681830481118215151615612dfd57612dfd612dc4565b02949350505050565b6000816000190483118215151615612e2057612e20612dc4565b500290565b600063ffffffff808316818516808303821115612e4457612e44612dc4565b01949350505050565b634e487b7160e01b600052601260045260246000fd5b600060ff831680612e7657612e76612e4d565b8060ff84160491505092915050565b600060ff821660ff84168060ff03821115612ea257612ea2612dc4565b019392505050565b600060ff821660ff8103612ec057612ec0612dc4565b60010192915050565b600060018201612edb57612edb612dc4565b5060010190565b600060ff821660ff841680821015612efc57612efc612dc4565b90039392505050565b600181815b80851115612f40578160001904821115612f2657612f26612dc4565b80851615612f3357918102915b93841c9390800290612f0a565b509250929050565b600082612f575750600161284b565b81612f645750600061284b565b8160018114612f7a5760028114612f8457612fa0565b600191505061284b565b60ff841115612f9557612f95612dc4565b50506001821b61284b565b5060208310610133831016604e8410600b8410161715612fc3575081810a61284b565b612fcd8383612f05565b8060001904821115612fe157612fe1612dc4565b029392505050565b60006129d160ff841683612f48565b600060ff821660ff84168160ff0481118215151615612fe157612fe1612dc4565b600181811c9082168061302d57607f821691505b60208210810361304d57634e487b7160e01b600052602260045260246000fd5b50919050565b6000604082018483526020604081850152818551808452606086019150828701935060005b8181101561309457845183529383019391830191600101613078565b5090979650505050505050565b6000602082840312156130b357600080fd5b815180151581146129d157600080fd5b600083516130d5818460208801612aa3565b835190830190612e44818360208801612aa3565b600082516130fb818460208701612aa3565b9190910192915050565b600061ffff80831681851681830481118215151615612dfd57612dfd612dc4565b600061ffff808316818516808303821115612e4457612e44612dc4565b60006020828403121561315557600080fd5b5051919050565b60008261316b5761316b612e4d565b500690565b60008282101561318257613182612dc4565b500390565b6000821982111561319a5761319a612dc4565b50019056fea26469706673582212204562e83726b140279f84a6408199433274b0790ccb100c3bfc26046bc68ae33364736f6c634300080d0033",
  "immutableReferences": {},
  "source": "// SPDX-License-Identifier: MIT\npragma solidity ^0.8.13;\n\nimport \"./PDDLib.sol\";\nimport \"./CarHelper.sol\";\nimport \"./CarFactory.sol\";\n\ncontract RaceHandler is CarHelper{\n    struct Cross{\n        uint playersNeeded;\n        uint roadsNum;\n        uint crossId;\n    }\n\n    Cross[] crosses;\n    \n    mapping(address => uint) playersToRooms;\n    mapping(address => uint) playersToCars;\n    struct OpenedRoom{\n        uint id;\n        uint playersEntered;\n        uint world;\n        Cross cross;\n    }\n    struct StartedRoom{\n        uint numberPlayers;\n        uint world;\n        uint roomDNA;\n        uint startTime;\n        Answer[] answers;\n        uint curAnswer;\n        bool closed;\n    }\n    struct Answer{\n        address player;\n        bool correct;\n        uint time;\n        uint carId;\n    }\n\n    uint roomsCount;\n\n    constructor(){\n        crosses.push(Cross(4,4,0));\n        crosses.push(Cross(3,4,0));\n        crosses.push(Cross(2,4,0));\n        crosses.push(Cross(3,3,1));\n        crosses.push(Cross(2,3,1));\n        roomsCount = 1;\n    }\n\n    event RoomFull(uint roomId, uint roomDNA);\n    event RoomClosed(uint roomId);\n\n    OpenedRoom[] public openedRooms;\n    mapping(uint => StartedRoom) public idToStartedRooms;\n\n    function findRoom(uint carId) public onlyOwnerOfCar(carId){\n        bool foundRoom = false;\n        for(uint i = 0; i<openedRooms.length; i++){\n            if(cars[carId].carLevel/10+1 != openedRooms[i].world){\n                continue;\n            }\n            foundRoom = true;\n            playersToRooms[msg.sender] = openedRooms[i].id;\n            playersToCars[msg.sender] = carId;\n            openedRooms[i].playersEntered++;\n            if(openedRooms[i].playersEntered == openedRooms[i].cross.playersNeeded){\n                uint roomDNA = PDDLib.generateRoom(openedRooms[i].cross.crossId, openedRooms[i].cross.playersNeeded);\n                \n                StartedRoom storage ss = idToStartedRooms[openedRooms[i].id];\n                ss.numberPlayers = openedRooms[i].cross.playersNeeded;\n                ss.world = openedRooms[i].world;\n                ss.roomDNA = roomDNA;\n                ss.startTime = block.timestamp;\n                ss.curAnswer = 0;\n                ss.closed = false;\n\n                emit RoomFull(openedRooms[i].id, roomDNA);\n                delete openedRooms[i];\n                break;\n            }\n        }\n\n        if(foundRoom){\n            return;\n        }\n        uint id = roomsCount++;\n        uint crossNum = block.timestamp%crosses.length;\n        playersToRooms[msg.sender] = id;\n        openedRooms.push(OpenedRoom(\n            id,\n            1,\n            cars[carId].carLevel/10+1,\n            crosses[crossNum]\n        ));\n    }\n\n    function getClosedRoom(uint roomId) public view returns(Answer[] memory){\n        require(idToStartedRooms[roomId].closed, \"room not closed\");\n        return idToStartedRooms[roomId].answers;\n    }\n\n\n\n    function commitAnswer(uint roomId, uint[] memory answer) public{\n        require(playersToRooms[msg.sender]==roomId, \"not your room\");\n\n        uint roomDNA = idToStartedRooms[roomId].roomDNA;\n        bool right = PDDLib.isCorrectAnswer(roomDNA, answer);\n        //Answer memory ans = Answer(msg.sender, right, block.timestamp);\n        \n        Answer memory ans = Answer(msg.sender, right, block.timestamp, playersToCars[msg.sender]);\n        StartedRoom storage sr = idToStartedRooms[roomId];\n        sr.answers.push(ans);\n\n        if(idToStartedRooms[roomId].answers.length == idToStartedRooms[roomId].numberPlayers){\n            emit RoomClosed(roomId);\n            idToStartedRooms[roomId].closed = true;\n            delete playersToRooms[msg.sender];\n            delete playersToCars[msg.sender];\n        }\n    }\n}\n",
  "sourcePath": "/Users/vvan/Programming/JavaScript/DriveSafely/contract/contracts/RaceHandler.sol",
  "compiler": {
    "name": "solc",
    "version": "0.8.13+commit.abaa5c0e.Emscripten.clang"
  },
  "schemaVersion": "3.4.11",
  "updatedAt": "2023-01-09T00:14:14.786Z",
  "networkType": "ethereum",
  "devdoc": {
    "kind": "dev",
    "methods": {
      "owner()": {
        "details": "Returns the address of the current owner."
      },
      "renounceOwnership()": {
        "details": "Leaves the contract without owner. It will not be possible to call `onlyOwner` functions anymore. Can only be called by the current owner. NOTE: Renouncing ownership will leave the contract without an owner, thereby removing any functionality that is only available to the owner."
      },
      "transferOwnership(address)": {
        "details": "Transfers ownership of the contract to a new account (`newOwner`). Can only be called by the current owner."
      }
    },
    "version": 1
  },
  "userdoc": {
    "kind": "user",
    "methods": {},
    "version": 1
  }
}