{
  "contractName": "RaceHandler",
  "abi": [
    {
      "inputs": [],
      "stateMutability": "nonpayable",
      "type": "constructor"
    },
    {
      "anonymous": false,
      "inputs": [
        {
          "indexed": false,
          "internalType": "uint256",
          "name": "roomId",
          "type": "uint256"
        },
        {
          "indexed": false,
          "internalType": "uint256",
          "name": "roomDNA",
          "type": "uint256"
        }
      ],
      "name": "RoomFull",
      "type": "event"
    },
    {
      "inputs": [
        {
          "internalType": "uint256",
          "name": "",
          "type": "uint256"
        }
      ],
      "name": "openedRooms",
      "outputs": [
        {
          "internalType": "uint256",
          "name": "id",
          "type": "uint256"
        },
        {
          "internalType": "uint8",
          "name": "playersNeeded",
          "type": "uint8"
        },
        {
          "internalType": "uint8",
          "name": "world",
          "type": "uint8"
        },
        {
          "internalType": "uint8",
          "name": "crossNum",
          "type": "uint8"
        }
      ],
      "stateMutability": "view",
      "type": "function"
    },
    {
      "inputs": [
        {
          "internalType": "uint256",
          "name": "",
          "type": "uint256"
        }
      ],
      "name": "startedRooms",
      "outputs": [
        {
          "internalType": "uint256",
          "name": "id",
          "type": "uint256"
        },
        {
          "internalType": "uint8",
          "name": "world",
          "type": "uint8"
        },
        {
          "internalType": "uint256",
          "name": "roomDNA",
          "type": "uint256"
        },
        {
          "internalType": "uint256",
          "name": "startTime",
          "type": "uint256"
        }
      ],
      "stateMutability": "view",
      "type": "function"
    },
    {
      "inputs": [
        {
          "internalType": "uint256",
          "name": "carId",
          "type": "uint256"
        }
      ],
      "name": "findRoom",
      "outputs": [],
      "stateMutability": "nonpayable",
      "type": "function"
    }
  ],
  "bytecode": "0x608060405234801561001057600080fd5b5060018081905550610745806100276000396000f3fe608060405234801561001057600080fd5b50600436106100415760003560e01c8063081315ff14610046578063a269ea2614610079578063fb2d954f146100ac575b600080fd5b610060600480360381019061005b919061055e565b6100c8565b60405161007094939291906105b6565b60405180910390f35b610093600480360381019061008e919061055e565b61012f565b6040516100a394939291906105fb565b60405180910390f35b6100c660048036038101906100c1919061055e565b61017c565b005b600281815481106100d857600080fd5b90600052602060002090600302016000915090508060000154908060020160009054906101000a900460ff16908060020160019054906101000a900460ff16908060020160029054906101000a900460ff16905084565b6003818154811061013f57600080fd5b90600052602060002090600502016000915090508060000154908060020160009054906101000a900460ff16908060030154908060040154905084565b60005b60028054905081101561047857600281815481106101a05761019f610640565b5b9060005260206000209060030201600101339080600181540180825580915050600190039060005260206000200160009091909190916101000a81548173ffffffffffffffffffffffffffffffffffffffff021916908373ffffffffffffffffffffffffffffffffffffffff1602179055506002818154811061022657610225610640565b5b906000526020600020906003020160020160009054906101000a900460ff1660ff166002828154811061025c5761025b610640565b5b90600052602060002090600302016001018054905003610465576000603290506000600160008154809291906102919061069e565b91905055905060036040518060a00160405280838152602001600286815481106102be576102bd610640565b5b906000526020600020906003020160010180548060200260200160405190810160405280929190818152602001828054801561034f57602002820191906000526020600020905b8160009054906101000a900473ffffffffffffffffffffffffffffffffffffffff1673ffffffffffffffffffffffffffffffffffffffff1681526020019060010190808311610305575b505050505081526020016002868154811061036d5761036c610640565b5b906000526020600020906003020160020160019054906101000a900460ff1660ff1681526020018481526020014281525090806001815401808255809150506001900390600052602060002090600502016000909190919091506000820151816000015560208201518160010190805190602001906103ed92919061047c565b5060408201518160020160006101000a81548160ff021916908360ff160217905550606082015181600301556080820151816004015550507f2838ebeee7dc83fac85a3d6dbca0c0b6771591ada8b00f97371aa6611e631f9c81836040516104569291906106e6565b60405180910390a15050610478565b80806104709061069e565b91505061017f565b5050565b8280548282559060005260206000209081019282156104f5579160200282015b828111156104f45782518260006101000a81548173ffffffffffffffffffffffffffffffffffffffff021916908373ffffffffffffffffffffffffffffffffffffffff1602179055509160200191906001019061049c565b5b5090506105029190610506565b5090565b5b8082111561051f576000816000905550600101610507565b5090565b600080fd5b6000819050919050565b61053b81610528565b811461054657600080fd5b50565b60008135905061055881610532565b92915050565b60006020828403121561057457610573610523565b5b600061058284828501610549565b91505092915050565b61059481610528565b82525050565b600060ff82169050919050565b6105b08161059a565b82525050565b60006080820190506105cb600083018761058b565b6105d860208301866105a7565b6105e560408301856105a7565b6105f260608301846105a7565b95945050505050565b6000608082019050610610600083018761058b565b61061d60208301866105a7565b61062a604083018561058b565b610637606083018461058b565b95945050505050565b7f4e487b7100000000000000000000000000000000000000000000000000000000600052603260045260246000fd5b7f4e487b7100000000000000000000000000000000000000000000000000000000600052601160045260246000fd5b60006106a982610528565b91507fffffffffffffffffffffffffffffffffffffffffffffffffffffffffffffffff82036106db576106da61066f565b5b600182019050919050565b60006040820190506106fb600083018561058b565b610708602083018461058b565b939250505056fea264697066735822122030a280a585e32f93ca16e74b4193134fe6f43c000e641a7425a24336d7b2014964736f6c634300080d0033",
  "immutableReferences": {},
  "source": "pragma solidity ^0.8.13;\n\nimport \"@openzeppelin/contracts/utils/Counters.sol\";\nimport \"@openzeppelin/contracts/utils/Strings.sol\";\n\ncontract RaceHandler{\n    using Counters for Counters.Counter;\n    Counters.Counter private _tokenIds;\n\n    struct OpenedRoom{\n        uint id;\n        address[] players;\n        uint8 playersNeeded;\n        uint8 world;\n        uint8 crossNum;\n    }\n    struct StartedRoom{\n        uint id;\n        address[] players;\n        uint8 world;\n        uint roomDNA;\n        uint startTime;\n    }\n\n    uint roomsCount;\n\n    constructor() {\n        roomsCount = 1;\n    }\n\n    event RoomFull(uint roomId, uint roomDNA);\n\n    OpenedRoom[] public openedRooms;\n    StartedRoom[] public startedRooms;\n\n    function findRoom(uint carId) public{\n        for(uint i = 0; i<openedRooms.length; i++){\n            //require() car is actually owned by that user\n            //if(openedRooms[i].world ){} check level of world with car \n            \n            openedRooms[i].players.push(msg.sender);\n            if(openedRooms[i].players.length == openedRooms[i].playersNeeded){\n                //roomDNA get\n                uint roomDNA = 50;\n                uint id = roomsCount++;\n                startedRooms.push(StartedRoom(id, openedRooms[i].players, openedRooms[i].world, roomDNA, block.timestamp));\n                emit RoomFull(id, roomDNA);\n                break;\n            }\n            \n        }\n    }\n}\n",
  "sourcePath": "/Users/vvan/Programming/JavaScript/DriveSafely/contract/contracts/RaceHandler.sol",
  "compiler": {
    "name": "solc",
    "version": "0.8.13+commit.abaa5c0e.Emscripten.clang"
  },
  "schemaVersion": "3.4.11",
  "updatedAt": "2023-01-07T12:22:21.216Z",
  "devdoc": {
    "kind": "dev",
    "methods": {},
    "version": 1
  },
  "userdoc": {
    "kind": "user",
    "methods": {},
    "version": 1
  }
}