{
  "contractName": "RaceHandler",
  "abi": [
    {
      "inputs": [],
      "stateMutability": "nonpayable",
      "type": "constructor"
    },
    {
      "anonymous": false,
      "inputs": [
        {
          "indexed": true,
          "internalType": "address",
          "name": "previousOwner",
          "type": "address"
        },
        {
          "indexed": true,
          "internalType": "address",
          "name": "newOwner",
          "type": "address"
        }
      ],
      "name": "OwnershipTransferred",
      "type": "event"
    },
    {
      "anonymous": false,
      "inputs": [
        {
          "indexed": false,
          "internalType": "uint256",
          "name": "roomId",
          "type": "uint256"
        }
      ],
      "name": "RoomClosed",
      "type": "event"
    },
    {
      "anonymous": false,
      "inputs": [
        {
          "indexed": false,
          "internalType": "uint256",
          "name": "roomId",
          "type": "uint256"
        },
        {
          "indexed": false,
          "internalType": "uint256",
          "name": "roomDNA",
          "type": "uint256"
        }
      ],
      "name": "RoomFull",
      "type": "event"
    },
    {
      "inputs": [
        {
          "internalType": "uint256",
          "name": "",
          "type": "uint256"
        }
      ],
      "name": "carToOwner",
      "outputs": [
        {
          "internalType": "address",
          "name": "",
          "type": "address"
        }
      ],
      "stateMutability": "view",
      "type": "function",
      "constant": true
    },
    {
      "inputs": [
        {
          "internalType": "uint256",
          "name": "",
          "type": "uint256"
        }
      ],
      "name": "cars",
      "outputs": [
        {
          "internalType": "string",
          "name": "model",
          "type": "string"
        },
        {
          "internalType": "uint256",
          "name": "vin",
          "type": "uint256"
        },
        {
          "internalType": "uint256",
          "name": "engineId",
          "type": "uint256"
        },
        {
          "internalType": "uint256",
          "name": "chassisId",
          "type": "uint256"
        },
        {
          "internalType": "uint8",
          "name": "carLevel",
          "type": "uint8"
        },
        {
          "internalType": "uint256",
          "name": "mileage",
          "type": "uint256"
        },
        {
          "internalType": "uint256",
          "name": "winCountOnCurrentLevel",
          "type": "uint256"
        },
        {
          "internalType": "uint256",
          "name": "lossCountOnCurrentLevel",
          "type": "uint256"
        }
      ],
      "stateMutability": "view",
      "type": "function",
      "constant": true
    },
    {
      "inputs": [
        {
          "internalType": "uint256",
          "name": "",
          "type": "uint256"
        }
      ],
      "name": "chassis",
      "outputs": [
        {
          "internalType": "uint256",
          "name": "id",
          "type": "uint256"
        },
        {
          "internalType": "uint32",
          "name": "durability",
          "type": "uint32"
        },
        {
          "internalType": "uint32",
          "name": "resource",
          "type": "uint32"
        }
      ],
      "stateMutability": "view",
      "type": "function",
      "constant": true
    },
    {
      "inputs": [
        {
          "internalType": "uint256",
          "name": "",
          "type": "uint256"
        }
      ],
      "name": "chassisToOwner",
      "outputs": [
        {
          "internalType": "address",
          "name": "",
          "type": "address"
        }
      ],
      "stateMutability": "view",
      "type": "function",
      "constant": true
    },
    {
      "inputs": [
        {
          "internalType": "string",
          "name": "model",
          "type": "string"
        }
      ],
      "name": "createCar",
      "outputs": [],
      "stateMutability": "nonpayable",
      "type": "function"
    },
    {
      "inputs": [],
      "name": "createFuelStation",
      "outputs": [],
      "stateMutability": "nonpayable",
      "type": "function"
    },
    {
      "inputs": [
        {
          "internalType": "uint256",
          "name": "",
          "type": "uint256"
        }
      ],
      "name": "engineToOwner",
      "outputs": [
        {
          "internalType": "address",
          "name": "",
          "type": "address"
        }
      ],
      "stateMutability": "view",
      "type": "function",
      "constant": true
    },
    {
      "inputs": [
        {
          "internalType": "uint256",
          "name": "",
          "type": "uint256"
        }
      ],
      "name": "engines",
      "outputs": [
        {
          "internalType": "uint256",
          "name": "id",
          "type": "uint256"
        },
        {
          "internalType": "uint16",
          "name": "horsePowers",
          "type": "uint16"
        },
        {
          "internalType": "uint8",
          "name": "consumtion",
          "type": "uint8"
        }
      ],
      "stateMutability": "view",
      "type": "function",
      "constant": true
    },
    {
      "inputs": [
        {
          "internalType": "uint256",
          "name": "",
          "type": "uint256"
        }
      ],
      "name": "fuelStationToOwner",
      "outputs": [
        {
          "internalType": "address",
          "name": "",
          "type": "address"
        }
      ],
      "stateMutability": "view",
      "type": "function",
      "constant": true
    },
    {
      "inputs": [
        {
          "internalType": "address",
          "name": "_owner",
          "type": "address"
        }
      ],
      "name": "getCarsByOwner",
      "outputs": [
        {
          "components": [
            {
              "internalType": "string",
              "name": "model",
              "type": "string"
            },
            {
              "internalType": "uint256",
              "name": "vin",
              "type": "uint256"
            },
            {
              "internalType": "uint256",
              "name": "engineId",
              "type": "uint256"
            },
            {
              "internalType": "uint256",
              "name": "chassisId",
              "type": "uint256"
            },
            {
              "internalType": "uint8",
              "name": "carLevel",
              "type": "uint8"
            },
            {
              "internalType": "uint256",
              "name": "mileage",
              "type": "uint256"
            },
            {
              "internalType": "uint256",
              "name": "winCountOnCurrentLevel",
              "type": "uint256"
            },
            {
              "internalType": "uint256",
              "name": "lossCountOnCurrentLevel",
              "type": "uint256"
            }
          ],
          "internalType": "struct CarFactory.Car[]",
          "name": "",
          "type": "tuple[]"
        }
      ],
      "stateMutability": "view",
      "type": "function",
      "constant": true
    },
    {
      "inputs": [
        {
          "internalType": "address",
          "name": "_owner",
          "type": "address"
        }
      ],
      "name": "getChassisByOwner",
      "outputs": [
        {
          "internalType": "uint256[]",
          "name": "",
          "type": "uint256[]"
        }
      ],
      "stateMutability": "view",
      "type": "function",
      "constant": true
    },
    {
      "inputs": [
        {
          "internalType": "address",
          "name": "_owner",
          "type": "address"
        }
      ],
      "name": "getEnginesByOwner",
      "outputs": [
        {
          "internalType": "uint256[]",
          "name": "",
          "type": "uint256[]"
        }
      ],
      "stateMutability": "view",
      "type": "function",
      "constant": true
    },
    {
      "inputs": [
        {
          "internalType": "address",
          "name": "_owner",
          "type": "address"
        }
      ],
      "name": "getFuelStationByOwner",
      "outputs": [
        {
          "components": [
            {
              "internalType": "uint256",
              "name": "id",
              "type": "uint256"
            },
            {
              "internalType": "uint8",
              "name": "capacity",
              "type": "uint8"
            },
            {
              "internalType": "uint8",
              "name": "productionPerHour",
              "type": "uint8"
            },
            {
              "internalType": "uint8",
              "name": "currentFullness",
              "type": "uint8"
            },
            {
              "internalType": "uint256",
              "name": "lastUpdate",
              "type": "uint256"
            }
          ],
          "internalType": "struct FuelStationFactory.FuelStation",
          "name": "",
          "type": "tuple"
        }
      ],
      "stateMutability": "view",
      "type": "function",
      "constant": true
    },
    {
      "inputs": [
        {
          "internalType": "uint256",
          "name": "",
          "type": "uint256"
        }
      ],
      "name": "idToStartedRooms",
      "outputs": [
        {
          "internalType": "uint256",
          "name": "numberPlayers",
          "type": "uint256"
        },
        {
          "internalType": "uint256",
          "name": "world",
          "type": "uint256"
        },
        {
          "internalType": "uint256",
          "name": "roomDNA",
          "type": "uint256"
        },
        {
          "internalType": "uint256",
          "name": "startTime",
          "type": "uint256"
        },
        {
          "internalType": "uint256",
          "name": "curAnswer",
          "type": "uint256"
        },
        {
          "internalType": "bool",
          "name": "closed",
          "type": "bool"
        }
      ],
      "stateMutability": "view",
      "type": "function",
      "constant": true
    },
    {
      "inputs": [
        {
          "internalType": "uint256",
          "name": "_carId",
          "type": "uint256"
        }
      ],
      "name": "levelUp",
      "outputs": [],
      "stateMutability": "payable",
      "type": "function",
      "payable": true
    },
    {
      "inputs": [
        {
          "internalType": "uint256",
          "name": "",
          "type": "uint256"
        }
      ],
      "name": "openedRooms",
      "outputs": [
        {
          "internalType": "uint256",
          "name": "id",
          "type": "uint256"
        },
        {
          "internalType": "uint256",
          "name": "playersEntered",
          "type": "uint256"
        },
        {
          "internalType": "uint256",
          "name": "world",
          "type": "uint256"
        },
        {
          "components": [
            {
              "internalType": "uint256",
              "name": "playersNeeded",
              "type": "uint256"
            },
            {
              "internalType": "uint256",
              "name": "roadsNum",
              "type": "uint256"
            },
            {
              "internalType": "uint256",
              "name": "crossId",
              "type": "uint256"
            }
          ],
          "internalType": "struct RaceHandler.Cross",
          "name": "cross",
          "type": "tuple"
        }
      ],
      "stateMutability": "view",
      "type": "function",
      "constant": true
    },
    {
      "inputs": [],
      "name": "owner",
      "outputs": [
        {
          "internalType": "address",
          "name": "",
          "type": "address"
        }
      ],
      "stateMutability": "view",
      "type": "function",
      "constant": true
    },
    {
      "inputs": [
        {
          "internalType": "address",
          "name": "",
          "type": "address"
        }
      ],
      "name": "ownerCarCount",
      "outputs": [
        {
          "internalType": "uint256",
          "name": "",
          "type": "uint256"
        }
      ],
      "stateMutability": "view",
      "type": "function",
      "constant": true
    },
    {
      "inputs": [],
      "name": "renounceOwnership",
      "outputs": [],
      "stateMutability": "nonpayable",
      "type": "function"
    },
    {
      "inputs": [
        {
          "internalType": "uint256",
          "name": "",
          "type": "uint256"
        }
      ],
      "name": "stations",
      "outputs": [
        {
          "internalType": "uint256",
          "name": "id",
          "type": "uint256"
        },
        {
          "internalType": "uint8",
          "name": "capacity",
          "type": "uint8"
        },
        {
          "internalType": "uint8",
          "name": "productionPerHour",
          "type": "uint8"
        },
        {
          "internalType": "uint8",
          "name": "currentFullness",
          "type": "uint8"
        },
        {
          "internalType": "uint256",
          "name": "lastUpdate",
          "type": "uint256"
        }
      ],
      "stateMutability": "view",
      "type": "function",
      "constant": true
    },
    {
      "inputs": [
        {
          "internalType": "address",
          "name": "newOwner",
          "type": "address"
        }
      ],
      "name": "transferOwnership",
      "outputs": [],
      "stateMutability": "nonpayable",
      "type": "function"
    },
    {
      "inputs": [
        {
          "internalType": "uint256",
          "name": "_fuelStatonId",
          "type": "uint256"
        },
        {
          "internalType": "uint8",
          "name": "_counts",
          "type": "uint8"
        }
      ],
      "name": "upgradeCapacity",
      "outputs": [],
      "stateMutability": "payable",
      "type": "function",
      "payable": true
    },
    {
      "inputs": [
        {
          "internalType": "uint256",
          "name": "_engineId",
          "type": "uint256"
        },
        {
          "internalType": "uint8",
          "name": "_counts",
          "type": "uint8"
        }
      ],
      "name": "upgradeConsumtion",
      "outputs": [],
      "stateMutability": "payable",
      "type": "function",
      "payable": true
    },
    {
      "inputs": [
        {
          "internalType": "uint256",
          "name": "_chassisId",
          "type": "uint256"
        },
        {
          "internalType": "uint8",
          "name": "_counts",
          "type": "uint8"
        }
      ],
      "name": "upgradeDurability",
      "outputs": [],
      "stateMutability": "payable",
      "type": "function",
      "payable": true
    },
    {
      "inputs": [
        {
          "internalType": "uint256",
          "name": "_engineId",
          "type": "uint256"
        },
        {
          "internalType": "uint8",
          "name": "_counts",
          "type": "uint8"
        }
      ],
      "name": "upgradeHorsePowers",
      "outputs": [],
      "stateMutability": "payable",
      "type": "function",
      "payable": true
    },
    {
      "inputs": [
        {
          "internalType": "uint256",
          "name": "_fuelStatonId",
          "type": "uint256"
        },
        {
          "internalType": "uint8",
          "name": "_counts",
          "type": "uint8"
        }
      ],
      "name": "upgradeProductionPerHour",
      "outputs": [],
      "stateMutability": "payable",
      "type": "function",
      "payable": true
    },
    {
      "inputs": [
        {
          "internalType": "uint256",
          "name": "carId",
          "type": "uint256"
        }
      ],
      "name": "findRoom",
      "outputs": [],
      "stateMutability": "nonpayable",
      "type": "function"
    },
    {
      "inputs": [
        {
          "internalType": "uint256",
          "name": "roomId",
          "type": "uint256"
        }
      ],
      "name": "getClosedRoom",
      "outputs": [
        {
          "components": [
            {
              "internalType": "address",
              "name": "player",
              "type": "address"
            },
            {
              "internalType": "bool",
              "name": "correct",
              "type": "bool"
            },
            {
              "internalType": "uint256",
              "name": "time",
              "type": "uint256"
            },
            {
              "internalType": "uint256",
              "name": "carId",
              "type": "uint256"
            }
          ],
          "internalType": "struct RaceHandler.Answer[]",
          "name": "",
          "type": "tuple[]"
        }
      ],
      "stateMutability": "view",
      "type": "function",
      "constant": true
    },
    {
      "inputs": [
        {
          "internalType": "uint256",
          "name": "roomId",
          "type": "uint256"
        },
        {
          "internalType": "uint256[]",
          "name": "answer",
          "type": "uint256[]"
        }
      ],
      "name": "commitAnswer",
      "outputs": [],
      "stateMutability": "nonpayable",
      "type": "function"
    }
  ],
  "bytecode": "0x6080604052603c600060146101000a81548160ff021916908360ff1602179055506005600060156101000a81548160ff021916908360ff160217905550600160085560016009556509184e72a00060135565b5e620f48000601455650da475abf0006015556611c37937e080006016556305f5e10060175566038d7ea4c680006018553480156200008f57600080fd5b50620000b0620000a46200034760201b60201c565b6200034f60201b60201c565b6050600381905550605b600481905550600a600560006101000a81548160ff021916908360ff160217905550620186a06006819055506201d4c1600781905550600b60018160018154018082558091505003906000526020600020905050600c600181600181540180825580915050039060005260206000209050506019604051806060016040528060048152602001600481526020016000815250908060018154018082558091505060019003906000526020600020906003020160009091909190915060008201518160000155602082015181600101556040820151816002015550506019604051806060016040528060038152602001600481526020016000815250908060018154018082558091505060019003906000526020600020906003020160009091909190915060008201518160000155602082015181600101556040820151816002015550506019604051806060016040528060028152602001600481526020016000815250908060018154018082558091505060019003906000526020600020906003020160009091909190915060008201518160000155602082015181600101556040820151816002015550506019604051806060016040528060038152602001600381526020016001815250908060018154018082558091505060019003906000526020600020906003020160009091909190915060008201518160000155602082015181600101556040820151816002015550506019604051806060016040528060028152602001600381526020016001815250908060018154018082558091505060019003906000526020600020906003020160009091909190915060008201518160000155602082015181600101556040820151816002015550506001601c8190555062000413565b600033905090565b60008060009054906101000a900473ffffffffffffffffffffffffffffffffffffffff169050816000806101000a81548173ffffffffffffffffffffffffffffffffffffffff021916908373ffffffffffffffffffffffffffffffffffffffff1602179055508173ffffffffffffffffffffffffffffffffffffffff168173ffffffffffffffffffffffffffffffffffffffff167f8be0079c531659141344cd1fd0a4f28419497f9722a3daafe3b4186f6b6457e060405160405180910390a35050565b61466d80620004236000396000f3fe6080604052600436106101c25760003560e01c80637713d521116100f7578063b72c0eea11610095578063f2fde38b11610064578063f2fde38b146106a1578063f7746e36146106ca578063faf4bb981461070e578063fb2d954f1461072a576101c2565b8063b72c0eea146105d3578063c75bb4f414610612578063c85b7fed1461064f578063ede6fbf514610678576101c2565b80638da5cb5b116100d15780638da5cb5b1461050e578063906f5f341461053957806392f859db14610555578063b3b29afd14610596576101c2565b80637713d521146104995780637c62360f146104d657806385909267146104f2576101c2565b80633521c42611610164578063594193d71161013e578063594193d7146103cb5780635dcc4cc6146104085780636f206fc114610445578063715018a614610482576101c2565b80633521c4261461031457806344901490146103515780634e31f9101461038e576101c2565b80630ce90ec2116101a05780630ce90ec2146102655780631c5dde0e14610281578063224370f0146102c057806333ca504b146102d7576101c2565b806303f2e05b146101c75780630418394e146101e3578063081315ff14610225575b600080fd5b6101e160048036038101906101dc91906130c5565b610753565b005b3480156101ef57600080fd5b5061020a60048036038101906102059190613105565b61088b565b60405161021c9695949392919061315c565b60405180910390f35b34801561023157600080fd5b5061024c60048036038101906102479190613105565b6108d4565b60405161025c949392919061320e565b60405180910390f35b61027f600480360381019061027a9190613105565b61093c565b005b34801561028d57600080fd5b506102a860048036038101906102a39190613105565b610abb565b6040516102b793929190613272565b60405180910390f35b3480156102cc57600080fd5b506102d5610b15565b005b3480156102e357600080fd5b506102fe60048036038101906102f99190613105565b610c81565b60405161030b91906132ea565b60405180910390f35b34801561032057600080fd5b5061033b60048036038101906103369190613105565b610cb4565b6040516103489190613427565b60405180910390f35b34801561035d57600080fd5b5061037860048036038101906103739190613105565b610e11565b60405161038591906132ea565b60405180910390f35b34801561039a57600080fd5b506103b560048036038101906103b09190613475565b610e44565b6040516103c29190613519565b60405180910390f35b3480156103d757600080fd5b506103f260048036038101906103ed9190613105565b610f83565b6040516103ff91906132ea565b60405180910390f35b34801561041457600080fd5b5061042f600480360381019061042a9190613105565b610fb6565b60405161043c91906132ea565b60405180910390f35b34801561045157600080fd5b5061046c60048036038101906104679190613475565b610fe9565b60405161047991906135e3565b60405180910390f35b34801561048e57600080fd5b5061049761113b565b005b3480156104a557600080fd5b506104c060048036038101906104bb9190613475565b61114f565b6040516104cd91906135e3565b60405180910390f35b6104f060048036038101906104eb91906130c5565b6112a1565b005b61050c600480360381019061050791906130c5565b6113ce565b005b34801561051a57600080fd5b506105236114f1565b60405161053091906132ea565b60405180910390f35b610553600480360381019061054e91906130c5565b61151a565b005b34801561056157600080fd5b5061057c60048036038101906105779190613105565b61163d565b60405161058d959493929190613614565b60405180910390f35b3480156105a257600080fd5b506105bd60048036038101906105b89190613475565b6116aa565b6040516105ca9190613667565b60405180910390f35b3480156105df57600080fd5b506105fa60048036038101906105f59190613105565b6116c2565b6040516106099392919061369f565b60405180910390f35b34801561061e57600080fd5b5061063960048036038101906106349190613475565b611717565b60405161064691906138e1565b60405180910390f35b34801561065b57600080fd5b5061067660048036038101906106719190613a4b565b61198b565b005b34801561068457600080fd5b5061069f600480360381019061069a9190613b5c565b611d0e565b005b3480156106ad57600080fd5b506106c860048036038101906106c39190613475565b611f6f565b005b3480156106d657600080fd5b506106f160048036038101906106ec9190613105565b611ff2565b604051610705989796959493929190613bef565b60405180910390f35b610728600480360381019061072391906130c5565b6120df565b005b34801561073657600080fd5b50610751600480360381019061074c9190613105565b61220d565b005b81600f600082815260200190815260200160002060009054906101000a900473ffffffffffffffffffffffffffffffffffffffff1673ffffffffffffffffffffffffffffffffffffffff163373ffffffffffffffffffffffffffffffffffffffff16146107bf57600080fd5b601754600c84815481106107d6576107d5613c74565b5b906000526020600020906002020160010160009054906101000a900463ffffffff168360ff166108069190613cd2565b63ffffffff166108169190613d10565b341461082157600080fd5b8160ff16600c848154811061083957610838613c74565b5b906000526020600020906002020160010160008282829054906101000a900463ffffffff166108689190613d6a565b92506101000a81548163ffffffff021916908363ffffffff160217905550505050565b601e6020528060005260406000206000915090508060000154908060010154908060020154908060030154908060050154908060060160009054906101000a900460ff16905086565b601d81815481106108e457600080fd5b9060005260206000209060060201600091509050806000015490806001015490806002015490806003016040518060600160405290816000820154815260200160018201548152602001600282015481525050905084565b600a80828154811061095157610950613c74565b5b906000526020600020906008020160040160009054906101000a900460ff1661097a9190613dd3565b60ff1660185461098a9190613d10565b341480156109fe57506001600a82815481106109a9576109a8613c74565b5b906000526020600020906008020160040160009054906101000a900460ff166109d29190613e04565b60ff16600a82815481106109e9576109e8613c74565b5b90600052602060002090600802016006015410155b610a0757600080fd5b600a8181548110610a1b57610a1a613c74565b5b9060005260206000209060080201600401600081819054906101000a900460ff1680929190610a4990613e3b565b91906101000a81548160ff021916908360ff160217905550506000600a8281548110610a7857610a77613c74565b5b9060005260206000209060080201600601819055506000600a8281548110610aa357610aa2613c74565b5b90600052602060002090600802016007018190555050565b600c8181548110610acb57600080fd5b90600052602060002090600202016000915090508060000154908060010160009054906101000a900463ffffffff16908060010160049054906101000a900463ffffffff16905083565b60003390506000600180549050905060016040518060a00160405280838152602001600060149054906101000a900460ff1660ff168152602001600060159054906101000a900460ff1660ff168152602001600060149054906101000a900460ff1660ff1681526020014263ffffffff1681525090806001815401808255809150506001900390600052602060002090600302016000909190919091506000820151816000015560208201518160010160006101000a81548160ff021916908360ff16021790555060408201518160010160016101000a81548160ff021916908360ff16021790555060608201518160010160026101000a81548160ff021916908360ff160217905550608082015181600201555050816002600083815260200190815260200160002060006101000a81548173ffffffffffffffffffffffffffffffffffffffff021916908373ffffffffffffffffffffffffffffffffffffffff1602179055505050565b600d6020528060005260406000206000915054906101000a900473ffffffffffffffffffffffffffffffffffffffff1681565b6060601e600083815260200190815260200160002060060160009054906101000a900460ff16610d19576040517f08c379a0000000000000000000000000000000000000000000000000000000008152600401610d1090613eb0565b60405180910390fd5b601e6000838152602001908152602001600020600401805480602002602001604051908101604052809291908181526020016000905b82821015610e0657838290600052602060002090600302016040518060800160405290816000820160009054906101000a900473ffffffffffffffffffffffffffffffffffffffff1673ffffffffffffffffffffffffffffffffffffffff1673ffffffffffffffffffffffffffffffffffffffff1681526020016000820160149054906101000a900460ff161515151581526020016001820154815260200160028201548152505081526020019060010190610d4f565b505050509050919050565b600f6020528060005260406000206000915054906101000a900473ffffffffffffffffffffffffffffffffffffffff1681565b610e4c612f1f565b600080600090505b600180549050811015610ee2578373ffffffffffffffffffffffffffffffffffffffff166002600083815260200190815260200160002060009054906101000a900473ffffffffffffffffffffffffffffffffffffffff1673ffffffffffffffffffffffffffffffffffffffff1603610ecf57809150610ee2565b8080610eda90613ed0565b915050610e54565b5060018181548110610ef757610ef6613c74565b5b90600052602060002090600302016040518060a0016040529081600082015481526020016001820160009054906101000a900460ff1660ff1660ff1681526020016001820160019054906101000a900460ff1660ff1660ff1681526020016001820160029054906101000a900460ff1660ff1660ff168152602001600282015481525050915050919050565b60026020528060005260406000206000915054906101000a900473ffffffffffffffffffffffffffffffffffffffff1681565b600e6020528060005260406000206000915054906101000a900473ffffffffffffffffffffffffffffffffffffffff1681565b60606000601160008473ffffffffffffffffffffffffffffffffffffffff1673ffffffffffffffffffffffffffffffffffffffff1681526020019081526020016000205467ffffffffffffffff81111561104657611045613908565b5b6040519080825280602002602001820160405280156110745781602001602082028036833780820191505090505b5090506000805b600c80549050811015611130578473ffffffffffffffffffffffffffffffffffffffff16600f600083815260200190815260200160002060009054906101000a900473ffffffffffffffffffffffffffffffffffffffff1673ffffffffffffffffffffffffffffffffffffffff160361111d578083838151811061110257611101613c74565b5b602002602001018181525050818061111990613ed0565b9250505b808061112890613ed0565b91505061107b565b508192505050919050565b61114361286e565b61114d60006128ec565b565b60606000601160008473ffffffffffffffffffffffffffffffffffffffff1673ffffffffffffffffffffffffffffffffffffffff1681526020019081526020016000205467ffffffffffffffff8111156111ac576111ab613908565b5b6040519080825280602002602001820160405280156111da5781602001602082028036833780820191505090505b5090506000805b600b80549050811015611296578473ffffffffffffffffffffffffffffffffffffffff16600e600083815260200190815260200160002060009054906101000a900473ffffffffffffffffffffffffffffffffffffffff1673ffffffffffffffffffffffffffffffffffffffff1603611283578083838151811061126857611267613c74565b5b602002602001018181525050818061127f90613ed0565b9250505b808061128e90613ed0565b9150506111e1565b508192505050919050565b81600e600082815260200190815260200160002060009054906101000a900473ffffffffffffffffffffffffffffffffffffffff1673ffffffffffffffffffffffffffffffffffffffff163373ffffffffffffffffffffffffffffffffffffffff161461130d57600080fd5b600b838154811061132157611320613c74565b5b906000526020600020906002020160010160029054906101000a900460ff16600a61134c9190613f18565b6002611358919061407f565b6016546113659190613d10565b341461137057600080fd5b81600b848154811061138557611384613c74565b5b906000526020600020906002020160010160028282829054906101000a900460ff166113b19190613f18565b92506101000a81548160ff021916908360ff160217905550505050565b816002600082815260200190815260200160002060009054906101000a900473ffffffffffffffffffffffffffffffffffffffff1673ffffffffffffffffffffffffffffffffffffffff163373ffffffffffffffffffffffffffffffffffffffff161461143a57600080fd5b6014546001848154811061145157611450613c74565b5b906000526020600020906003020160010160019054906101000a900460ff168361147b91906140ca565b60ff166114889190613d10565b341461149357600080fd5b81600184815481106114a8576114a7613c74565b5b906000526020600020906003020160010160018282829054906101000a900460ff166114d49190613e04565b92506101000a81548160ff021916908360ff160217905550505050565b60008060009054906101000a900473ffffffffffffffffffffffffffffffffffffffff16905090565b816002600082815260200190815260200160002060009054906101000a900473ffffffffffffffffffffffffffffffffffffffff1673ffffffffffffffffffffffffffffffffffffffff163373ffffffffffffffffffffffffffffffffffffffff161461158657600080fd5b6013546001848154811061159d5761159c613c74565b5b906000526020600020906003020160010160009054906101000a900460ff16836115c791906140ca565b60ff166115d49190613d10565b34146115df57600080fd5b81600184815481106115f4576115f3613c74565b5b906000526020600020906003020160010160008282829054906101000a900460ff166116209190613e04565b92506101000a81548160ff021916908360ff160217905550505050565b6001818154811061164d57600080fd5b90600052602060002090600302016000915090508060000154908060010160009054906101000a900460ff16908060010160019054906101000a900460ff16908060010160029054906101000a900460ff16908060020154905085565b60106020528060005260406000206000915090505481565b600b81815481106116d257600080fd5b90600052602060002090600202016000915090508060000154908060010160009054906101000a900461ffff16908060010160029054906101000a900460ff16905083565b60606000601060008473ffffffffffffffffffffffffffffffffffffffff1673ffffffffffffffffffffffffffffffffffffffff1681526020019081526020016000205467ffffffffffffffff81111561177457611773613908565b5b6040519080825280602002602001820160405280156117ad57816020015b61179a612f57565b8152602001906001900390816117925790505b5090506000805b600c80549050811015611980578473ffffffffffffffffffffffffffffffffffffffff16600d600083815260200190815260200160002060009054906101000a900473ffffffffffffffffffffffffffffffffffffffff1673ffffffffffffffffffffffffffffffffffffffff160361196d57600a818154811061183b5761183a613c74565b5b90600052602060002090600802016040518061010001604052908160008201805461186590614134565b80601f016020809104026020016040519081016040528092919081815260200182805461189190614134565b80156118de5780601f106118b3576101008083540402835291602001916118de565b820191906000526020600020905b8154815290600101906020018083116118c157829003601f168201915b505050505081526020016001820154815260200160028201548152602001600382015481526020016004820160009054906101000a900460ff1660ff1660ff168152602001600582015481526020016006820154815260200160078201548152505083838151811061195357611952613c74565b5b6020026020010181905250818061196990613ed0565b9250505b808061197890613ed0565b9150506117b4565b508192505050919050565b81601a60003373ffffffffffffffffffffffffffffffffffffffff1673ffffffffffffffffffffffffffffffffffffffff1681526020019081526020016000205414611a0c576040517f08c379a0000000000000000000000000000000000000000000000000000000008152600401611a03906141b1565b60405180910390fd5b6000601e6000848152602001908152602001600020600201549050600073__PDDLib________________________________639c63eb2e83856040518363ffffffff1660e01b8152600401611a62929190614276565b602060405180830381865af4158015611a7f573d6000803e3d6000fd5b505050506040513d601f19601f82011682018060405250810190611aa391906142d2565b9050600060405180608001604052803373ffffffffffffffffffffffffffffffffffffffff1681526020018315158152602001428152602001601b60003373ffffffffffffffffffffffffffffffffffffffff1673ffffffffffffffffffffffffffffffffffffffff1681526020019081526020016000205481525090506000601e600087815260200190815260200160002090508060040182908060018154018082558091505060019003906000526020600020906003020160009091909190915060008201518160000160006101000a81548173ffffffffffffffffffffffffffffffffffffffff021916908373ffffffffffffffffffffffffffffffffffffffff16021790555060208201518160000160146101000a81548160ff02191690831515021790555060408201518160010155606082015181600201555050601e600087815260200190815260200160002060000154601e60008881526020019081526020016000206004018054905003611d06577f67acaceb58ff1ad2aa8b3069f69c4cd076824e06a09184b75fb197ead7040be786604051611c489190613667565b60405180910390a16001601e600088815260200190815260200160002060060160006101000a81548160ff021916908315150217905550601a60003373ffffffffffffffffffffffffffffffffffffffff1673ffffffffffffffffffffffffffffffffffffffff16815260200190815260200160002060009055601b60003373ffffffffffffffffffffffffffffffffffffffff1673ffffffffffffffffffffffffffffffffffffffff168152602001908152602001600020600090555b505050505050565b6000601060003373ffffffffffffffffffffffffffffffffffffffff1673ffffffffffffffffffffffffffffffffffffffff1681526020019081526020016000205414611d5a57600080fd5b600081611d66426129b0565b604051602001611d7792919061433b565b6040516020818303038152906040529050600081604051602001611d9b919061435f565b6040516020818303038152906040528051906020012060001c90506000611dc0612a7e565b90506000611dcc612c21565b90506000600a805490509050600a604051806101000160405280888152602001868152602001858152602001848152602001600160ff1681526020016000815260200160008152602001600081525090806001815401808255809150506001900390600052602060002090600802016000909190919091506000820151816000019080519060200190611e60929190612f9f565b5060208201518160010155604082015181600201556060820151816003015560808201518160040160006101000a81548160ff021916908360ff16021790555060a0820151816005015560c0820151816006015560e08201518160070155505033600d600083815260200190815260200160002060006101000a81548173ffffffffffffffffffffffffffffffffffffffff021916908373ffffffffffffffffffffffffffffffffffffffff160217905550601060003373ffffffffffffffffffffffffffffffffffffffff1673ffffffffffffffffffffffffffffffffffffffff1681526020019081526020016000206000815480929190611f6290613ed0565b9190505550505050505050565b611f7761286e565b600073ffffffffffffffffffffffffffffffffffffffff168173ffffffffffffffffffffffffffffffffffffffff1603611fe6576040517f08c379a0000000000000000000000000000000000000000000000000000000008152600401611fdd906143e8565b60405180910390fd5b611fef816128ec565b50565b600a818154811061200257600080fd5b906000526020600020906008020160009150905080600001805461202590614134565b80601f016020809104026020016040519081016040528092919081815260200182805461205190614134565b801561209e5780601f106120735761010080835404028352916020019161209e565b820191906000526020600020905b81548152906001019060200180831161208157829003601f168201915b5050505050908060010154908060020154908060030154908060040160009054906101000a900460ff16908060050154908060060154908060070154905088565b81600e600082815260200190815260200160002060009054906101000a900473ffffffffffffffffffffffffffffffffffffffff1673ffffffffffffffffffffffffffffffffffffffff163373ffffffffffffffffffffffffffffffffffffffff161461214b57600080fd5b601554600b848154811061216257612161613c74565b5b906000526020600020906002020160010160009054906101000a900461ffff168360ff166121909190614408565b61ffff1661219e9190613d10565b34146121a957600080fd5b8160ff16600b84815481106121c1576121c0613c74565b5b906000526020600020906002020160010160008282829054906101000a900461ffff166121ee9190614444565b92506101000a81548161ffff021916908361ffff160217905550505050565b80600d600082815260200190815260200160002060009054906101000a900473ffffffffffffffffffffffffffffffffffffffff1673ffffffffffffffffffffffffffffffffffffffff163373ffffffffffffffffffffffffffffffffffffffff161461227957600080fd5b6000805b601d805490508110156126b957601d818154811061229e5761229d613c74565b5b9060005260206000209060060201600201546001600a8087815481106122c7576122c6613c74565b5b906000526020600020906008020160040160009054906101000a900460ff166122f09190613dd3565b6122fa9190613e04565b60ff16036126a65760019150601d818154811061231a57612319613c74565b5b906000526020600020906006020160000154601a60003373ffffffffffffffffffffffffffffffffffffffff1673ffffffffffffffffffffffffffffffffffffffff1681526020019081526020016000208190555083601b60003373ffffffffffffffffffffffffffffffffffffffff1673ffffffffffffffffffffffffffffffffffffffff16815260200190815260200160002081905550601d81815481106123c7576123c6613c74565b5b906000526020600020906006020160010160008154809291906123e990613ed0565b9190505550601d818154811061240257612401613c74565b5b906000526020600020906006020160030160000154601d828154811061242b5761242a613c74565b5b906000526020600020906006020160010154036126a557600073__PDDLib________________________________63c037e545601d848154811061247257612471613c74565b5b906000526020600020906006020160030160020154601d858154811061249b5761249a613c74565b5b9060005260206000209060060201600301600001546040518363ffffffff1660e01b81526004016124cd92919061447c565b602060405180830381865af41580156124ea573d6000803e3d6000fd5b505050506040513d601f19601f8201168201806040525081019061250e91906144ba565b90506000601e6000601d858154811061252a57612529613c74565b5b90600052602060002090600602016000015481526020019081526020016000209050601d83815481106125605761255f613c74565b5b9060005260206000209060060201600301600001548160000181905550601d838154811061259157612590613c74565b5b90600052602060002090600602016002015481600101819055508181600201819055504281600301819055506000816005018190555060008160060160006101000a81548160ff0219169083151502179055507f2838ebeee7dc83fac85a3d6dbca0c0b6771591ada8b00f97371aa6611e631f9c601d848154811061261957612618613c74565b5b9060005260206000209060060201600001548360405161263a9291906144e7565b60405180910390a1601d838154811061265657612655613c74565b5b90600052602060002090600602016000808201600090556001820160009055600282016000905560038201600080820160009055600182016000905560028201600090555050505050506126b9565b5b80806126b190613ed0565b91505061227d565b5080156126c6575061286a565b6000601c60008154809291906126db90613ed0565b9190505590506000601980549050426126f49190614510565b905081601a60003373ffffffffffffffffffffffffffffffffffffffff1673ffffffffffffffffffffffffffffffffffffffff16815260200190815260200160002081905550601d6040518060800160405280848152602001600181526020016001600a808a8154811061276b5761276a613c74565b5b906000526020600020906008020160040160009054906101000a900460ff166127949190613dd3565b61279e9190613e04565b60ff168152602001601984815481106127ba576127b9613c74565b5b906000526020600020906003020160405180606001604052908160008201548152602001600182015481526020016002820154815250508152509080600181540180825580915050600190039060005260206000209060060201600090919091909150600082015181600001556020820151816001015560408201518160020155606082015181600301600082015181600001556020820151816001015560408201518160020155505050505050505b5050565b612876612dc4565b73ffffffffffffffffffffffffffffffffffffffff166128946114f1565b73ffffffffffffffffffffffffffffffffffffffff16146128ea576040517f08c379a00000000000000000000000000000000000000000000000000000000081526004016128e19061458d565b60405180910390fd5b565b60008060009054906101000a900473ffffffffffffffffffffffffffffffffffffffff169050816000806101000a81548173ffffffffffffffffffffffffffffffffffffffff021916908373ffffffffffffffffffffffffffffffffffffffff1602179055508173ffffffffffffffffffffffffffffffffffffffff168173ffffffffffffffffffffffffffffffffffffffff167f8be0079c531659141344cd1fd0a4f28419497f9722a3daafe3b4186f6b6457e060405160405180910390a35050565b6060600060016129bf84612dcc565b01905060008167ffffffffffffffff8111156129de576129dd613908565b5b6040519080825280601f01601f191660200182016040528015612a105781602001600182028036833780820191505090505b509050600082602001820190505b600115612a73578080600190039150507f3031323334353637383961626364656600000000000000000000000000000000600a86061a8153600a8581612a6757612a66613da4565b5b04945060008503612a1e575b819350505050919050565b600080600354600454612a9191906145ad565b42612a9c9190614510565b600354612aa991906145e1565b9050600060086000815480929190612ac090613ed0565b919050559050600b60405180606001604052808381526020018461ffff168152602001600560009054906101000a900460ff1660ff1681525090806001815401808255809150506001900390600052602060002090600202016000909190919091506000820151816000015560208201518160010160006101000a81548161ffff021916908361ffff16021790555060408201518160010160026101000a81548160ff021916908360ff1602179055505050601160003373ffffffffffffffffffffffffffffffffffffffff1673ffffffffffffffffffffffffffffffffffffffff1681526020019081526020016000206000815480929190612bc290613ed0565b919050555033600e600083815260200190815260200160002060006101000a81548173ffffffffffffffffffffffffffffffffffffffff021916908373ffffffffffffffffffffffffffffffffffffffff160217905550809250505090565b600080600654600754612c3491906145ad565b42612c3f9190614510565b600654612c4c91906145e1565b9050600060096000815480929190612c6390613ed0565b919050559050600c60405180606001604052808381526020018463ffffffff1681526020018463ffffffff1681525090806001815401808255809150506001900390600052602060002090600202016000909190919091506000820151816000015560208201518160010160006101000a81548163ffffffff021916908363ffffffff16021790555060408201518160010160046101000a81548163ffffffff021916908363ffffffff1602179055505050601260003373ffffffffffffffffffffffffffffffffffffffff1673ffffffffffffffffffffffffffffffffffffffff1681526020019081526020016000206000815480929190612d6590613ed0565b919050555033600f600083815260200190815260200160002060006101000a81548173ffffffffffffffffffffffffffffffffffffffff021916908373ffffffffffffffffffffffffffffffffffffffff160217905550809250505090565b600033905090565b600080600090507a184f03e93ff9f4daa797ed6e38ed64bf6a1f0100000000000000008310612e2a577a184f03e93ff9f4daa797ed6e38ed64bf6a1f0100000000000000008381612e2057612e1f613da4565b5b0492506040810190505b6d04ee2d6d415b85acef81000000008310612e67576d04ee2d6d415b85acef81000000008381612e5d57612e5c613da4565b5b0492506020810190505b662386f26fc100008310612e9657662386f26fc100008381612e8c57612e8b613da4565b5b0492506010810190505b6305f5e1008310612ebf576305f5e1008381612eb557612eb4613da4565b5b0492506008810190505b6127108310612ee4576127108381612eda57612ed9613da4565b5b0492506004810190505b60648310612f075760648381612efd57612efc613da4565b5b0492506002810190505b600a8310612f16576001810190505b80915050919050565b6040518060a0016040528060008152602001600060ff168152602001600060ff168152602001600060ff168152602001600081525090565b60405180610100016040528060608152602001600081526020016000815260200160008152602001600060ff1681526020016000815260200160008152602001600081525090565b828054612fab90614134565b90600052602060002090601f016020900481019282612fcd5760008555613014565b82601f10612fe657805160ff1916838001178555613014565b82800160010185558215613014579182015b82811115613013578251825591602001919060010190612ff8565b5b5090506130219190613025565b5090565b5b8082111561303e576000816000905550600101613026565b5090565b6000604051905090565b600080fd5b600080fd5b6000819050919050565b61306981613056565b811461307457600080fd5b50565b60008135905061308681613060565b92915050565b600060ff82169050919050565b6130a28161308c565b81146130ad57600080fd5b50565b6000813590506130bf81613099565b92915050565b600080604083850312156130dc576130db61304c565b5b60006130ea85828601613077565b92505060206130fb858286016130b0565b9150509250929050565b60006020828403121561311b5761311a61304c565b5b600061312984828501613077565b91505092915050565b61313b81613056565b82525050565b60008115159050919050565b61315681613141565b82525050565b600060c0820190506131716000830189613132565b61317e6020830188613132565b61318b6040830187613132565b6131986060830186613132565b6131a56080830185613132565b6131b260a083018461314d565b979650505050505050565b6131c681613056565b82525050565b6060820160008201516131e260008501826131bd565b5060208201516131f560208501826131bd565b50604082015161320860408501826131bd565b50505050565b600060c0820190506132236000830187613132565b6132306020830186613132565b61323d6040830185613132565b61324a60608301846131cc565b95945050505050565b600063ffffffff82169050919050565b61326c81613253565b82525050565b60006060820190506132876000830186613132565b6132946020830185613263565b6132a16040830184613263565b949350505050565b600073ffffffffffffffffffffffffffffffffffffffff82169050919050565b60006132d4826132a9565b9050919050565b6132e4816132c9565b82525050565b60006020820190506132ff60008301846132db565b92915050565b600081519050919050565b600082825260208201905092915050565b6000819050602082019050919050565b61333a816132c9565b82525050565b61334981613141565b82525050565b6080820160008201516133656000850182613331565b5060208201516133786020850182613340565b50604082015161338b60408501826131bd565b50606082015161339e60608501826131bd565b50505050565b60006133b0838361334f565b60808301905092915050565b6000602082019050919050565b60006133d482613305565b6133de8185613310565b93506133e983613321565b8060005b8381101561341a57815161340188826133a4565b975061340c836133bc565b9250506001810190506133ed565b5085935050505092915050565b6000602082019050818103600083015261344181846133c9565b905092915050565b613452816132c9565b811461345d57600080fd5b50565b60008135905061346f81613449565b92915050565b60006020828403121561348b5761348a61304c565b5b600061349984828501613460565b91505092915050565b6134ab8161308c565b82525050565b60a0820160008201516134c760008501826131bd565b5060208201516134da60208501826134a2565b5060408201516134ed60408501826134a2565b50606082015161350060608501826134a2565b50608082015161351360808501826131bd565b50505050565b600060a08201905061352e60008301846134b1565b92915050565b600081519050919050565b600082825260208201905092915050565b6000819050602082019050919050565b600061356c83836131bd565b60208301905092915050565b6000602082019050919050565b600061359082613534565b61359a818561353f565b93506135a583613550565b8060005b838110156135d65781516135bd8882613560565b97506135c883613578565b9250506001810190506135a9565b5085935050505092915050565b600060208201905081810360008301526135fd8184613585565b905092915050565b61360e8161308c565b82525050565b600060a0820190506136296000830188613132565b6136366020830187613605565b6136436040830186613605565b6136506060830185613605565b61365d6080830184613132565b9695505050505050565b600060208201905061367c6000830184613132565b92915050565b600061ffff82169050919050565b61369981613682565b82525050565b60006060820190506136b46000830186613132565b6136c16020830185613690565b6136ce6040830184613605565b949350505050565b600081519050919050565b600082825260208201905092915050565b6000819050602082019050919050565b600081519050919050565b600082825260208201905092915050565b60005b8381101561373c578082015181840152602081019050613721565b8381111561374b576000848401525b50505050565b6000601f19601f8301169050919050565b600061376d82613702565b613777818561370d565b935061378781856020860161371e565b61379081613751565b840191505092915050565b60006101008301600083015184820360008601526137b98282613762565b91505060208301516137ce60208601826131bd565b5060408301516137e160408601826131bd565b5060608301516137f460608601826131bd565b50608083015161380760808601826134a2565b5060a083015161381a60a08601826131bd565b5060c083015161382d60c08601826131bd565b5060e083015161384060e08601826131bd565b508091505092915050565b6000613857838361379b565b905092915050565b6000602082019050919050565b6000613877826136d6565b61388181856136e1565b935083602082028501613893856136f2565b8060005b858110156138cf57848403895281516138b0858261384b565b94506138bb8361385f565b925060208a01995050600181019050613897565b50829750879550505050505092915050565b600060208201905081810360008301526138fb818461386c565b905092915050565b600080fd5b7f4e487b7100000000000000000000000000000000000000000000000000000000600052604160045260246000fd5b61394082613751565b810181811067ffffffffffffffff8211171561395f5761395e613908565b5b80604052505050565b6000613972613042565b905061397e8282613937565b919050565b600067ffffffffffffffff82111561399e5761399d613908565b5b602082029050602081019050919050565b600080fd5b60006139c76139c284613983565b613968565b905080838252602082019050602084028301858111156139ea576139e96139af565b5b835b81811015613a1357806139ff8882613077565b8452602084019350506020810190506139ec565b5050509392505050565b600082601f830112613a3257613a31613903565b5b8135613a428482602086016139b4565b91505092915050565b60008060408385031215613a6257613a6161304c565b5b6000613a7085828601613077565b925050602083013567ffffffffffffffff811115613a9157613a90613051565b5b613a9d85828601613a1d565b9150509250929050565b600080fd5b600067ffffffffffffffff821115613ac757613ac6613908565b5b613ad082613751565b9050602081019050919050565b82818337600083830152505050565b6000613aff613afa84613aac565b613968565b905082815260208101848484011115613b1b57613b1a613aa7565b5b613b26848285613add565b509392505050565b600082601f830112613b4357613b42613903565b5b8135613b53848260208601613aec565b91505092915050565b600060208284031215613b7257613b7161304c565b5b600082013567ffffffffffffffff811115613b9057613b8f613051565b5b613b9c84828501613b2e565b91505092915050565b600082825260208201905092915050565b6000613bc182613702565b613bcb8185613ba5565b9350613bdb81856020860161371e565b613be481613751565b840191505092915050565b6000610100820190508181036000830152613c0a818b613bb6565b9050613c19602083018a613132565b613c266040830189613132565b613c336060830188613132565b613c406080830187613605565b613c4d60a0830186613132565b613c5a60c0830185613132565b613c6760e0830184613132565b9998505050505050505050565b7f4e487b7100000000000000000000000000000000000000000000000000000000600052603260045260246000fd5b7f4e487b7100000000000000000000000000000000000000000000000000000000600052601160045260246000fd5b6000613cdd82613253565b9150613ce883613253565b92508163ffffffff0483118215151615613d0557613d04613ca3565b5b828202905092915050565b6000613d1b82613056565b9150613d2683613056565b9250817fffffffffffffffffffffffffffffffffffffffffffffffffffffffffffffffff0483118215151615613d5f57613d5e613ca3565b5b828202905092915050565b6000613d7582613253565b9150613d8083613253565b92508263ffffffff03821115613d9957613d98613ca3565b5b828201905092915050565b7f4e487b7100000000000000000000000000000000000000000000000000000000600052601260045260246000fd5b6000613dde8261308c565b9150613de98361308c565b925082613df957613df8613da4565b5b828204905092915050565b6000613e0f8261308c565b9150613e1a8361308c565b92508260ff03821115613e3057613e2f613ca3565b5b828201905092915050565b6000613e468261308c565b915060ff8203613e5957613e58613ca3565b5b600182019050919050565b7f726f6f6d206e6f7420636c6f7365640000000000000000000000000000000000600082015250565b6000613e9a600f83613ba5565b9150613ea582613e64565b602082019050919050565b60006020820190508181036000830152613ec981613e8d565b9050919050565b6000613edb82613056565b91507fffffffffffffffffffffffffffffffffffffffffffffffffffffffffffffffff8203613f0d57613f0c613ca3565b5b600182019050919050565b6000613f238261308c565b9150613f2e8361308c565b925082821015613f4157613f40613ca3565b5b828203905092915050565b60008160011c9050919050565b6000808291508390505b6001851115613fa357808604811115613f7f57613f7e613ca3565b5b6001851615613f8e5780820291505b8081029050613f9c85613f4c565b9450613f63565b94509492505050565b600082613fbc5760019050614078565b81613fca5760009050614078565b8160018114613fe05760028114613fea57614019565b6001915050614078565b60ff841115613ffc57613ffb613ca3565b5b8360020a91508482111561401357614012613ca3565b5b50614078565b5060208310610133831016604e8410600b841016171561404e5782820a90508381111561404957614048613ca3565b5b614078565b61405b8484846001613f59565b9250905081840481111561407257614071613ca3565b5b81810290505b9392505050565b600061408a82613056565b91506140958361308c565b92506140c27fffffffffffffffffffffffffffffffffffffffffffffffffffffffffffffffff8484613fac565b905092915050565b60006140d58261308c565b91506140e08361308c565b92508160ff04831182151516156140fa576140f9613ca3565b5b828202905092915050565b7f4e487b7100000000000000000000000000000000000000000000000000000000600052602260045260246000fd5b6000600282049050600182168061414c57607f821691505b60208210810361415f5761415e614105565b5b50919050565b7f6e6f7420796f757220726f6f6d00000000000000000000000000000000000000600082015250565b600061419b600d83613ba5565b91506141a682614165565b602082019050919050565b600060208201905081810360008301526141ca8161418e565b9050919050565b6141da81613056565b82525050565b600082825260208201905092915050565b6141fa81613056565b82525050565b600061420c83836141f1565b60208301905092915050565b600061422382613534565b61422d81856141e0565b935061423883613550565b8060005b838110156142695781516142508882614200565b975061425b83613578565b92505060018101905061423c565b5085935050505092915050565b600060408201905061428b60008301856141d1565b818103602083015261429d8184614218565b90509392505050565b6142af81613141565b81146142ba57600080fd5b50565b6000815190506142cc816142a6565b92915050565b6000602082840312156142e8576142e761304c565b5b60006142f6848285016142bd565b91505092915050565b600081905092915050565b600061431582613702565b61431f81856142ff565b935061432f81856020860161371e565b80840191505092915050565b6000614347828561430a565b9150614353828461430a565b91508190509392505050565b600061436b828461430a565b915081905092915050565b7f4f776e61626c653a206e6577206f776e657220697320746865207a65726f206160008201527f6464726573730000000000000000000000000000000000000000000000000000602082015250565b60006143d2602683613ba5565b91506143dd82614376565b604082019050919050565b60006020820190508181036000830152614401816143c5565b9050919050565b600061441382613682565b915061441e83613682565b92508161ffff048311821515161561443957614438613ca3565b5b828202905092915050565b600061444f82613682565b915061445a83613682565b92508261ffff0382111561447157614470613ca3565b5b828201905092915050565b600060408201905061449160008301856141d1565b61449e60208301846141d1565b9392505050565b6000815190506144b481613060565b92915050565b6000602082840312156144d0576144cf61304c565b5b60006144de848285016144a5565b91505092915050565b60006040820190506144fc6000830185613132565b6145096020830184613132565b9392505050565b600061451b82613056565b915061452683613056565b92508261453657614535613da4565b5b828206905092915050565b7f4f776e61626c653a2063616c6c6572206973206e6f7420746865206f776e6572600082015250565b6000614577602083613ba5565b915061458282614541565b602082019050919050565b600060208201905081810360008301526145a68161456a565b9050919050565b60006145b882613056565b91506145c383613056565b9250828210156145d6576145d5613ca3565b5b828203905092915050565b60006145ec82613056565b91506145f783613056565b9250827fffffffffffffffffffffffffffffffffffffffffffffffffffffffffffffffff0382111561462c5761462b613ca3565b5b82820190509291505056fea2646970667358221220f6785c850f827c920a8fb461589ac422520822b4cfeba053bb7b042b54691e4a64736f6c634300080d0033",
  "immutableReferences": {},
  "source": "// SPDX-License-Identifier: MIT\npragma solidity ^0.8.13;\n\nimport \"./PDDLib.sol\";\nimport \"./CarHelper.sol\";\nimport \"./CarFactory.sol\";\n\ncontract RaceHandler is CarHelper{\n    struct Cross{\n        uint playersNeeded;\n        uint roadsNum;\n        uint crossId;\n    }\n\n    Cross[] crosses;\n    \n    mapping(address => uint) playersToRooms;\n    mapping(address => uint) playersToCars;\n    struct OpenedRoom{\n        uint id;\n        uint playersEntered;\n        uint world;\n        Cross cross;\n    }\n    struct StartedRoom{\n        uint numberPlayers;\n        uint world;\n        uint roomDNA;\n        uint startTime;\n        Answer[] answers;\n        uint curAnswer;\n        bool closed;\n    }\n    struct Answer{\n        address player;\n        bool correct;\n        uint time;\n        uint carId;\n    }\n\n    uint roomsCount;\n\n    constructor(){\n        crosses.push(Cross(4,4,0));\n        crosses.push(Cross(3,4,0));\n        crosses.push(Cross(2,4,0));\n        crosses.push(Cross(3,3,1));\n        crosses.push(Cross(2,3,1));\n        roomsCount = 1;\n    }\n\n    event RoomFull(uint roomId, uint roomDNA);\n    event RoomClosed(uint roomId);\n\n    OpenedRoom[] public openedRooms;\n    mapping(uint => StartedRoom) public idToStartedRooms;\n\n    function findRoom(uint carId) public onlyOwnerOfCar(carId){\n        bool foundRoom = false;\n        for(uint i = 0; i<openedRooms.length; i++){\n            if(cars[carId].carLevel/10+1 != openedRooms[i].world){\n                continue;\n            }\n            foundRoom = true;\n            playersToRooms[msg.sender] = openedRooms[i].id;\n            playersToCars[msg.sender] = carId;\n            openedRooms[i].playersEntered++;\n            if(openedRooms[i].playersEntered == openedRooms[i].cross.playersNeeded){\n                uint roomDNA = PDDLib.generateRoom(openedRooms[i].cross.crossId, openedRooms[i].cross.playersNeeded);\n                \n                StartedRoom storage ss = idToStartedRooms[openedRooms[i].id];\n                ss.numberPlayers = openedRooms[i].cross.playersNeeded;\n                ss.world = openedRooms[i].world;\n                ss.roomDNA = roomDNA;\n                ss.startTime = block.timestamp;\n                ss.curAnswer = 0;\n                ss.closed = false;\n\n                emit RoomFull(openedRooms[i].id, roomDNA);\n                delete openedRooms[i];\n                break;\n            }\n        }\n\n        if(foundRoom){\n            return;\n        }\n        uint id = roomsCount++;\n        uint crossNum = block.timestamp%crosses.length;\n        playersToRooms[msg.sender] = id;\n        openedRooms.push(OpenedRoom(\n            id,\n            1,\n            cars[carId].carLevel/10+1,\n            crosses[crossNum]\n        ));\n    }\n\n    function getClosedRoom(uint roomId) public view returns(Answer[] memory){\n        require(idToStartedRooms[roomId].closed, \"room not closed\");\n        return idToStartedRooms[roomId].answers;\n    }\n\n\n\n    function commitAnswer(uint roomId, uint[] memory answer) public{\n        require(playersToRooms[msg.sender]==roomId, \"not your room\");\n\n        uint roomDNA = idToStartedRooms[roomId].roomDNA;\n        bool right = PDDLib.isCorrectAnswer(roomDNA, answer);\n        //Answer memory ans = Answer(msg.sender, right, block.timestamp);\n        \n        Answer memory ans = Answer(msg.sender, right, block.timestamp, playersToCars[msg.sender]);\n        StartedRoom storage sr = idToStartedRooms[roomId];\n        sr.answers.push(ans);\n\n        if(idToStartedRooms[roomId].answers.length == idToStartedRooms[roomId].numberPlayers){\n            emit RoomClosed(roomId);\n            idToStartedRooms[roomId].closed = true;\n            delete playersToRooms[msg.sender];\n            delete playersToCars[msg.sender];\n        }\n    }\n}\n",
  "sourcePath": "/Users/vvan/Programming/JavaScript/DriveSafely/contract/contracts/RaceHandler.sol",
  "compiler": {
    "name": "solc",
    "version": "0.8.13+commit.abaa5c0e.Emscripten.clang"
  },
  "schemaVersion": "3.4.11",
  "updatedAt": "2023-01-08T14:23:14.158Z",
  "networkType": "ethereum",
  "devdoc": {
    "kind": "dev",
    "methods": {
      "owner()": {
        "details": "Returns the address of the current owner."
      },
      "renounceOwnership()": {
        "details": "Leaves the contract without owner. It will not be possible to call `onlyOwner` functions anymore. Can only be called by the current owner. NOTE: Renouncing ownership will leave the contract without an owner, thereby removing any functionality that is only available to the owner."
      },
      "transferOwnership(address)": {
        "details": "Transfers ownership of the contract to a new account (`newOwner`). Can only be called by the current owner."
      }
    },
    "version": 1
  },
  "userdoc": {
    "kind": "user",
    "methods": {},
    "version": 1
  }
}