{
  "contractName": "RaceHandler",
  "abi": [
    {
      "inputs": [],
      "stateMutability": "nonpayable",
      "type": "constructor"
    },
    {
      "anonymous": false,
      "inputs": [
        {
          "indexed": true,
          "internalType": "address",
          "name": "previousOwner",
          "type": "address"
        },
        {
          "indexed": true,
          "internalType": "address",
          "name": "newOwner",
          "type": "address"
        }
      ],
      "name": "OwnershipTransferred",
      "type": "event"
    },
    {
      "anonymous": false,
      "inputs": [
        {
          "indexed": false,
          "internalType": "uint256",
          "name": "roomId",
          "type": "uint256"
        }
      ],
      "name": "RoomClosed",
      "type": "event"
    },
    {
      "anonymous": false,
      "inputs": [
        {
          "indexed": false,
          "internalType": "uint256",
          "name": "roomId",
          "type": "uint256"
        },
        {
          "indexed": false,
          "internalType": "uint256",
          "name": "roomDNA",
          "type": "uint256"
        }
      ],
      "name": "RoomFull",
      "type": "event"
    },
    {
      "inputs": [
        {
          "internalType": "uint256",
          "name": "",
          "type": "uint256"
        }
      ],
      "name": "carToOwner",
      "outputs": [
        {
          "internalType": "address",
          "name": "",
          "type": "address"
        }
      ],
      "stateMutability": "view",
      "type": "function",
      "constant": true
    },
    {
      "inputs": [
        {
          "internalType": "uint256",
          "name": "",
          "type": "uint256"
        }
      ],
      "name": "cars",
      "outputs": [
        {
          "internalType": "string",
          "name": "model",
          "type": "string"
        },
        {
          "internalType": "uint256",
          "name": "vin",
          "type": "uint256"
        },
        {
          "internalType": "uint256",
          "name": "engineId",
          "type": "uint256"
        },
        {
          "internalType": "uint256",
          "name": "chassisId",
          "type": "uint256"
        },
        {
          "internalType": "uint8",
          "name": "carLevel",
          "type": "uint8"
        },
        {
          "internalType": "uint256",
          "name": "mileage",
          "type": "uint256"
        },
        {
          "internalType": "uint256",
          "name": "winCountOnCurrentLevel",
          "type": "uint256"
        },
        {
          "internalType": "uint256",
          "name": "lossCountOnCurrentLevel",
          "type": "uint256"
        }
      ],
      "stateMutability": "view",
      "type": "function",
      "constant": true
    },
    {
      "inputs": [
        {
          "internalType": "uint256",
          "name": "",
          "type": "uint256"
        }
      ],
      "name": "chassis",
      "outputs": [
        {
          "internalType": "uint256",
          "name": "id",
          "type": "uint256"
        },
        {
          "internalType": "uint32",
          "name": "durability",
          "type": "uint32"
        },
        {
          "internalType": "uint32",
          "name": "resource",
          "type": "uint32"
        }
      ],
      "stateMutability": "view",
      "type": "function",
      "constant": true
    },
    {
      "inputs": [
        {
          "internalType": "uint256",
          "name": "",
          "type": "uint256"
        }
      ],
      "name": "chassisToOwner",
      "outputs": [
        {
          "internalType": "address",
          "name": "",
          "type": "address"
        }
      ],
      "stateMutability": "view",
      "type": "function",
      "constant": true
    },
    {
      "inputs": [
        {
          "internalType": "string",
          "name": "model",
          "type": "string"
        }
      ],
      "name": "createCar",
      "outputs": [],
      "stateMutability": "nonpayable",
      "type": "function"
    },
    {
      "inputs": [],
      "name": "createFuelStation",
      "outputs": [],
      "stateMutability": "nonpayable",
      "type": "function"
    },
    {
      "inputs": [
        {
          "internalType": "uint256",
          "name": "",
          "type": "uint256"
        }
      ],
      "name": "engineToOwner",
      "outputs": [
        {
          "internalType": "address",
          "name": "",
          "type": "address"
        }
      ],
      "stateMutability": "view",
      "type": "function",
      "constant": true
    },
    {
      "inputs": [
        {
          "internalType": "uint256",
          "name": "",
          "type": "uint256"
        }
      ],
      "name": "engines",
      "outputs": [
        {
          "internalType": "uint256",
          "name": "id",
          "type": "uint256"
        },
        {
          "internalType": "uint16",
          "name": "horsePowers",
          "type": "uint16"
        },
        {
          "internalType": "uint8",
          "name": "consumtion",
          "type": "uint8"
        }
      ],
      "stateMutability": "view",
      "type": "function",
      "constant": true
    },
    {
      "inputs": [
        {
          "internalType": "uint256",
          "name": "",
          "type": "uint256"
        }
      ],
      "name": "fuelStationToOwner",
      "outputs": [
        {
          "internalType": "address",
          "name": "",
          "type": "address"
        }
      ],
      "stateMutability": "view",
      "type": "function",
      "constant": true
    },
    {
      "inputs": [
        {
          "internalType": "address",
          "name": "_owner",
          "type": "address"
        }
      ],
      "name": "getCarsByOwner",
      "outputs": [
        {
          "components": [
            {
              "internalType": "string",
              "name": "model",
              "type": "string"
            },
            {
              "internalType": "uint256",
              "name": "vin",
              "type": "uint256"
            },
            {
              "internalType": "uint256",
              "name": "engineId",
              "type": "uint256"
            },
            {
              "internalType": "uint256",
              "name": "chassisId",
              "type": "uint256"
            },
            {
              "internalType": "uint8",
              "name": "carLevel",
              "type": "uint8"
            },
            {
              "internalType": "uint256",
              "name": "mileage",
              "type": "uint256"
            },
            {
              "internalType": "uint256",
              "name": "winCountOnCurrentLevel",
              "type": "uint256"
            },
            {
              "internalType": "uint256",
              "name": "lossCountOnCurrentLevel",
              "type": "uint256"
            }
          ],
          "internalType": "struct CarFactory.Car[]",
          "name": "",
          "type": "tuple[]"
        }
      ],
      "stateMutability": "view",
      "type": "function",
      "constant": true
    },
    {
      "inputs": [
        {
          "internalType": "address",
          "name": "_owner",
          "type": "address"
        }
      ],
      "name": "getChassisByOwner",
      "outputs": [
        {
          "internalType": "uint256[]",
          "name": "",
          "type": "uint256[]"
        }
      ],
      "stateMutability": "view",
      "type": "function",
      "constant": true
    },
    {
      "inputs": [
        {
          "internalType": "address",
          "name": "_owner",
          "type": "address"
        }
      ],
      "name": "getEnginesByOwner",
      "outputs": [
        {
          "internalType": "uint256[]",
          "name": "",
          "type": "uint256[]"
        }
      ],
      "stateMutability": "view",
      "type": "function",
      "constant": true
    },
    {
      "inputs": [
        {
          "internalType": "address",
          "name": "_owner",
          "type": "address"
        }
      ],
      "name": "getFuelStationByOwner",
      "outputs": [
        {
          "internalType": "uint256",
          "name": "",
          "type": "uint256"
        }
      ],
      "stateMutability": "view",
      "type": "function",
      "constant": true
    },
    {
      "inputs": [
        {
          "internalType": "uint256",
          "name": "",
          "type": "uint256"
        }
      ],
      "name": "idToStartedRooms",
      "outputs": [
        {
          "internalType": "uint256",
          "name": "numberPlayers",
          "type": "uint256"
        },
        {
          "internalType": "uint256",
          "name": "world",
          "type": "uint256"
        },
        {
          "internalType": "uint256",
          "name": "roomDNA",
          "type": "uint256"
        },
        {
          "internalType": "uint256",
          "name": "startTime",
          "type": "uint256"
        },
        {
          "internalType": "uint256",
          "name": "curAnswer",
          "type": "uint256"
        },
        {
          "internalType": "bool",
          "name": "closed",
          "type": "bool"
        }
      ],
      "stateMutability": "view",
      "type": "function",
      "constant": true
    },
    {
      "inputs": [
        {
          "internalType": "uint256",
          "name": "_carId",
          "type": "uint256"
        }
      ],
      "name": "levelUp",
      "outputs": [],
      "stateMutability": "payable",
      "type": "function",
      "payable": true
    },
    {
      "inputs": [
        {
          "internalType": "uint256",
          "name": "",
          "type": "uint256"
        }
      ],
      "name": "openedRooms",
      "outputs": [
        {
          "internalType": "uint256",
          "name": "id",
          "type": "uint256"
        },
        {
          "internalType": "uint256",
          "name": "playersEntered",
          "type": "uint256"
        },
        {
          "internalType": "uint256",
          "name": "world",
          "type": "uint256"
        },
        {
          "components": [
            {
              "internalType": "uint256",
              "name": "playersNeeded",
              "type": "uint256"
            },
            {
              "internalType": "uint256",
              "name": "roadsNum",
              "type": "uint256"
            },
            {
              "internalType": "uint256",
              "name": "crossId",
              "type": "uint256"
            }
          ],
          "internalType": "struct RaceHandler.Cross",
          "name": "cross",
          "type": "tuple"
        }
      ],
      "stateMutability": "view",
      "type": "function",
      "constant": true
    },
    {
      "inputs": [],
      "name": "owner",
      "outputs": [
        {
          "internalType": "address",
          "name": "",
          "type": "address"
        }
      ],
      "stateMutability": "view",
      "type": "function",
      "constant": true
    },
    {
      "inputs": [
        {
          "internalType": "address",
          "name": "",
          "type": "address"
        }
      ],
      "name": "ownerCarCount",
      "outputs": [
        {
          "internalType": "uint256",
          "name": "",
          "type": "uint256"
        }
      ],
      "stateMutability": "view",
      "type": "function",
      "constant": true
    },
    {
      "inputs": [],
      "name": "renounceOwnership",
      "outputs": [],
      "stateMutability": "nonpayable",
      "type": "function"
    },
    {
      "inputs": [
        {
          "internalType": "uint256",
          "name": "",
          "type": "uint256"
        }
      ],
      "name": "stations",
      "outputs": [
        {
          "internalType": "uint256",
          "name": "id",
          "type": "uint256"
        },
        {
          "internalType": "uint8",
          "name": "capacity",
          "type": "uint8"
        },
        {
          "internalType": "uint8",
          "name": "productionPerHour",
          "type": "uint8"
        },
        {
          "internalType": "uint8",
          "name": "currentFullness",
          "type": "uint8"
        },
        {
          "internalType": "uint256",
          "name": "lastUpdate",
          "type": "uint256"
        }
      ],
      "stateMutability": "view",
      "type": "function",
      "constant": true
    },
    {
      "inputs": [
        {
          "internalType": "address",
          "name": "newOwner",
          "type": "address"
        }
      ],
      "name": "transferOwnership",
      "outputs": [],
      "stateMutability": "nonpayable",
      "type": "function"
    },
    {
      "inputs": [
        {
          "internalType": "uint256",
          "name": "_fuelStatonId",
          "type": "uint256"
        },
        {
          "internalType": "uint8",
          "name": "_counts",
          "type": "uint8"
        }
      ],
      "name": "upgradeCapacity",
      "outputs": [],
      "stateMutability": "payable",
      "type": "function",
      "payable": true
    },
    {
      "inputs": [
        {
          "internalType": "uint256",
          "name": "_engineId",
          "type": "uint256"
        },
        {
          "internalType": "uint8",
          "name": "_counts",
          "type": "uint8"
        }
      ],
      "name": "upgradeConsumtion",
      "outputs": [],
      "stateMutability": "payable",
      "type": "function",
      "payable": true
    },
    {
      "inputs": [
        {
          "internalType": "uint256",
          "name": "_chassisId",
          "type": "uint256"
        },
        {
          "internalType": "uint8",
          "name": "_counts",
          "type": "uint8"
        }
      ],
      "name": "upgradeDurability",
      "outputs": [],
      "stateMutability": "payable",
      "type": "function",
      "payable": true
    },
    {
      "inputs": [
        {
          "internalType": "uint256",
          "name": "_engineId",
          "type": "uint256"
        },
        {
          "internalType": "uint8",
          "name": "_counts",
          "type": "uint8"
        }
      ],
      "name": "upgradeHorsePowers",
      "outputs": [],
      "stateMutability": "payable",
      "type": "function",
      "payable": true
    },
    {
      "inputs": [
        {
          "internalType": "uint256",
          "name": "_fuelStatonId",
          "type": "uint256"
        },
        {
          "internalType": "uint8",
          "name": "_counts",
          "type": "uint8"
        }
      ],
      "name": "upgradeProductionPerHour",
      "outputs": [],
      "stateMutability": "payable",
      "type": "function",
      "payable": true
    },
    {
      "inputs": [
        {
          "internalType": "uint256",
          "name": "carId",
          "type": "uint256"
        }
      ],
      "name": "findRoom",
      "outputs": [],
      "stateMutability": "nonpayable",
      "type": "function"
    },
    {
      "inputs": [
        {
          "internalType": "uint256",
          "name": "roomId",
          "type": "uint256"
        }
      ],
      "name": "getClosedRoom",
      "outputs": [
        {
          "components": [
            {
              "internalType": "address",
              "name": "player",
              "type": "address"
            },
            {
              "internalType": "bool",
              "name": "correct",
              "type": "bool"
            },
            {
              "internalType": "uint256",
              "name": "time",
              "type": "uint256"
            },
            {
              "internalType": "uint256",
              "name": "carId",
              "type": "uint256"
            }
          ],
          "internalType": "struct RaceHandler.Answer[]",
          "name": "",
          "type": "tuple[]"
        }
      ],
      "stateMutability": "view",
      "type": "function",
      "constant": true
    },
    {
      "inputs": [
        {
          "internalType": "uint256",
          "name": "roomId",
          "type": "uint256"
        },
        {
          "internalType": "uint256[]",
          "name": "answer",
          "type": "uint256[]"
        }
      ],
      "name": "commitAnswer",
      "outputs": [],
      "stateMutability": "nonpayable",
      "type": "function"
    }
  ],
  "bytecode": "0x6080604052603c600060146101000a81548160ff021916908360ff1602179055506005600060156101000a81548160ff021916908360ff160217905550600160085560016009556509184e72a00060135565b5e620f48000601455650da475abf0006015556611c37937e080006016556305f5e10060175566038d7ea4c680006018553480156200008f57600080fd5b50620000b0620000a46200034760201b60201c565b6200034f60201b60201c565b6050600381905550605b600481905550600a600560006101000a81548160ff021916908360ff160217905550620186a06006819055506201d4c1600781905550600b60018160018154018082558091505003906000526020600020905050600c600181600181540180825580915050039060005260206000209050506019604051806060016040528060048152602001600481526020016000815250908060018154018082558091505060019003906000526020600020906003020160009091909190915060008201518160000155602082015181600101556040820151816002015550506019604051806060016040528060038152602001600481526020016000815250908060018154018082558091505060019003906000526020600020906003020160009091909190915060008201518160000155602082015181600101556040820151816002015550506019604051806060016040528060028152602001600481526020016000815250908060018154018082558091505060019003906000526020600020906003020160009091909190915060008201518160000155602082015181600101556040820151816002015550506019604051806060016040528060038152602001600381526020016001815250908060018154018082558091505060019003906000526020600020906003020160009091909190915060008201518160000155602082015181600101556040820151816002015550506019604051806060016040528060028152602001600381526020016001815250908060018154018082558091505060019003906000526020600020906003020160009091909190915060008201518160000155602082015181600101556040820151816002015550506001601c8190555062000413565b600033905090565b60008060009054906101000a900473ffffffffffffffffffffffffffffffffffffffff169050816000806101000a81548173ffffffffffffffffffffffffffffffffffffffff021916908373ffffffffffffffffffffffffffffffffffffffff1602179055508173ffffffffffffffffffffffffffffffffffffffff168173ffffffffffffffffffffffffffffffffffffffff167f8be0079c531659141344cd1fd0a4f28419497f9722a3daafe3b4186f6b6457e060405160405180910390a35050565b61451180620004236000396000f3fe6080604052600436106101c25760003560e01c80637713d521116100f7578063b72c0eea11610095578063f2fde38b11610064578063f2fde38b146106a1578063f7746e36146106ca578063faf4bb981461070e578063fb2d954f1461072a576101c2565b8063b72c0eea146105d3578063c75bb4f414610612578063c85b7fed1461064f578063ede6fbf514610678576101c2565b80638da5cb5b116100d15780638da5cb5b1461050e578063906f5f341461053957806392f859db14610555578063b3b29afd14610596576101c2565b80637713d521146104995780637c62360f146104d657806385909267146104f2576101c2565b80633521c42611610164578063594193d71161013e578063594193d7146103cb5780635dcc4cc6146104085780636f206fc114610445578063715018a614610482576101c2565b80633521c4261461031457806344901490146103515780634e31f9101461038e576101c2565b80630ce90ec2116101a05780630ce90ec2146102655780631c5dde0e14610281578063224370f0146102c057806333ca504b146102d7576101c2565b806303f2e05b146101c75780630418394e146101e3578063081315ff14610225575b600080fd5b6101e160048036038101906101dc9190612fec565b610753565b005b3480156101ef57600080fd5b5061020a6004803603810190610205919061302c565b61088b565b60405161021c96959493929190613083565b60405180910390f35b34801561023157600080fd5b5061024c6004803603810190610247919061302c565b6108d4565b60405161025c9493929190613135565b60405180910390f35b61027f600480360381019061027a919061302c565b61093c565b005b34801561028d57600080fd5b506102a860048036038101906102a3919061302c565b610abb565b6040516102b793929190613199565b60405180910390f35b3480156102cc57600080fd5b506102d5610b15565b005b3480156102e357600080fd5b506102fe60048036038101906102f9919061302c565b610c81565b60405161030b9190613211565b60405180910390f35b34801561032057600080fd5b5061033b6004803603810190610336919061302c565b610cb4565b604051610348919061334e565b60405180910390f35b34801561035d57600080fd5b506103786004803603810190610373919061302c565b610e11565b6040516103859190613211565b60405180910390f35b34801561039a57600080fd5b506103b560048036038101906103b0919061339c565b610e44565b6040516103c291906133c9565b60405180910390f35b3480156103d757600080fd5b506103f260048036038101906103ed919061302c565b610ee2565b6040516103ff9190613211565b60405180910390f35b34801561041457600080fd5b5061042f600480360381019061042a919061302c565b610f15565b60405161043c9190613211565b60405180910390f35b34801561045157600080fd5b5061046c6004803603810190610467919061339c565b610f48565b6040516104799190613493565b60405180910390f35b34801561048e57600080fd5b5061049761109a565b005b3480156104a557600080fd5b506104c060048036038101906104bb919061339c565b6110ae565b6040516104cd9190613493565b60405180910390f35b6104f060048036038101906104eb9190612fec565b611200565b005b61050c60048036038101906105079190612fec565b61132d565b005b34801561051a57600080fd5b50610523611450565b6040516105309190613211565b60405180910390f35b610553600480360381019061054e9190612fec565b611479565b005b34801561056157600080fd5b5061057c6004803603810190610577919061302c565b61159c565b60405161058d9594939291906134c4565b60405180910390f35b3480156105a257600080fd5b506105bd60048036038101906105b8919061339c565b611609565b6040516105ca91906133c9565b60405180910390f35b3480156105df57600080fd5b506105fa60048036038101906105f5919061302c565b611621565b60405161060993929190613534565b60405180910390f35b34801561061e57600080fd5b506106396004803603810190610634919061339c565b611676565b6040516106469190613785565b60405180910390f35b34801561065b57600080fd5b50610676600480360381019061067191906138ef565b6118ea565b005b34801561068457600080fd5b5061069f600480360381019061069a9190613a00565b611c6d565b005b3480156106ad57600080fd5b506106c860048036038101906106c3919061339c565b611ece565b005b3480156106d657600080fd5b506106f160048036038101906106ec919061302c565b611f51565b604051610705989796959493929190613a93565b60405180910390f35b61072860048036038101906107239190612fec565b61203e565b005b34801561073657600080fd5b50610751600480360381019061074c919061302c565b61216c565b005b81600f600082815260200190815260200160002060009054906101000a900473ffffffffffffffffffffffffffffffffffffffff1673ffffffffffffffffffffffffffffffffffffffff163373ffffffffffffffffffffffffffffffffffffffff16146107bf57600080fd5b601754600c84815481106107d6576107d5613b18565b5b906000526020600020906002020160010160009054906101000a900463ffffffff168360ff166108069190613b76565b63ffffffff166108169190613bb4565b341461082157600080fd5b8160ff16600c848154811061083957610838613b18565b5b906000526020600020906002020160010160008282829054906101000a900463ffffffff166108689190613c0e565b92506101000a81548163ffffffff021916908363ffffffff160217905550505050565b601e6020528060005260406000206000915090508060000154908060010154908060020154908060030154908060050154908060060160009054906101000a900460ff16905086565b601d81815481106108e457600080fd5b9060005260206000209060060201600091509050806000015490806001015490806002015490806003016040518060600160405290816000820154815260200160018201548152602001600282015481525050905084565b600a80828154811061095157610950613b18565b5b906000526020600020906008020160040160009054906101000a900460ff1661097a9190613c77565b60ff1660185461098a9190613bb4565b341480156109fe57506001600a82815481106109a9576109a8613b18565b5b906000526020600020906008020160040160009054906101000a900460ff166109d29190613ca8565b60ff16600a82815481106109e9576109e8613b18565b5b90600052602060002090600802016006015410155b610a0757600080fd5b600a8181548110610a1b57610a1a613b18565b5b9060005260206000209060080201600401600081819054906101000a900460ff1680929190610a4990613cdf565b91906101000a81548160ff021916908360ff160217905550506000600a8281548110610a7857610a77613b18565b5b9060005260206000209060080201600601819055506000600a8281548110610aa357610aa2613b18565b5b90600052602060002090600802016007018190555050565b600c8181548110610acb57600080fd5b90600052602060002090600202016000915090508060000154908060010160009054906101000a900463ffffffff16908060010160049054906101000a900463ffffffff16905083565b60003390506000600180549050905060016040518060a00160405280838152602001600060149054906101000a900460ff1660ff168152602001600060159054906101000a900460ff1660ff168152602001600060149054906101000a900460ff1660ff1681526020014263ffffffff1681525090806001815401808255809150506001900390600052602060002090600302016000909190919091506000820151816000015560208201518160010160006101000a81548160ff021916908360ff16021790555060408201518160010160016101000a81548160ff021916908360ff16021790555060608201518160010160026101000a81548160ff021916908360ff160217905550608082015181600201555050816002600083815260200190815260200160002060006101000a81548173ffffffffffffffffffffffffffffffffffffffff021916908373ffffffffffffffffffffffffffffffffffffffff1602179055505050565b600d6020528060005260406000206000915054906101000a900473ffffffffffffffffffffffffffffffffffffffff1681565b6060601e600083815260200190815260200160002060060160009054906101000a900460ff16610d19576040517f08c379a0000000000000000000000000000000000000000000000000000000008152600401610d1090613d54565b60405180910390fd5b601e6000838152602001908152602001600020600401805480602002602001604051908101604052809291908181526020016000905b82821015610e0657838290600052602060002090600302016040518060800160405290816000820160009054906101000a900473ffffffffffffffffffffffffffffffffffffffff1673ffffffffffffffffffffffffffffffffffffffff1673ffffffffffffffffffffffffffffffffffffffff1681526020016000820160149054906101000a900460ff161515151581526020016001820154815260200160028201548152505081526020019060010190610d4f565b505050509050919050565b600f6020528060005260406000206000915054906101000a900473ffffffffffffffffffffffffffffffffffffffff1681565b60008060005b600180549050811015610ed8578373ffffffffffffffffffffffffffffffffffffffff166002600083815260200190815260200160002060009054906101000a900473ffffffffffffffffffffffffffffffffffffffff1673ffffffffffffffffffffffffffffffffffffffff1603610ec557809150610ed8565b8080610ed090613d74565b915050610e4a565b5080915050919050565b60026020528060005260406000206000915054906101000a900473ffffffffffffffffffffffffffffffffffffffff1681565b600e6020528060005260406000206000915054906101000a900473ffffffffffffffffffffffffffffffffffffffff1681565b60606000601160008473ffffffffffffffffffffffffffffffffffffffff1673ffffffffffffffffffffffffffffffffffffffff1681526020019081526020016000205467ffffffffffffffff811115610fa557610fa46137ac565b5b604051908082528060200260200182016040528015610fd35781602001602082028036833780820191505090505b5090506000805b600c8054905081101561108f578473ffffffffffffffffffffffffffffffffffffffff16600f600083815260200190815260200160002060009054906101000a900473ffffffffffffffffffffffffffffffffffffffff1673ffffffffffffffffffffffffffffffffffffffff160361107c578083838151811061106157611060613b18565b5b602002602001018181525050818061107890613d74565b9250505b808061108790613d74565b915050610fda565b508192505050919050565b6110a26127cd565b6110ac600061284b565b565b60606000601160008473ffffffffffffffffffffffffffffffffffffffff1673ffffffffffffffffffffffffffffffffffffffff1681526020019081526020016000205467ffffffffffffffff81111561110b5761110a6137ac565b5b6040519080825280602002602001820160405280156111395781602001602082028036833780820191505090505b5090506000805b600b805490508110156111f5578473ffffffffffffffffffffffffffffffffffffffff16600e600083815260200190815260200160002060009054906101000a900473ffffffffffffffffffffffffffffffffffffffff1673ffffffffffffffffffffffffffffffffffffffff16036111e257808383815181106111c7576111c6613b18565b5b60200260200101818152505081806111de90613d74565b9250505b80806111ed90613d74565b915050611140565b508192505050919050565b81600e600082815260200190815260200160002060009054906101000a900473ffffffffffffffffffffffffffffffffffffffff1673ffffffffffffffffffffffffffffffffffffffff163373ffffffffffffffffffffffffffffffffffffffff161461126c57600080fd5b600b83815481106112805761127f613b18565b5b906000526020600020906002020160010160029054906101000a900460ff16600a6112ab9190613dbc565b60026112b79190613f23565b6016546112c49190613bb4565b34146112cf57600080fd5b81600b84815481106112e4576112e3613b18565b5b906000526020600020906002020160010160028282829054906101000a900460ff166113109190613dbc565b92506101000a81548160ff021916908360ff160217905550505050565b816002600082815260200190815260200160002060009054906101000a900473ffffffffffffffffffffffffffffffffffffffff1673ffffffffffffffffffffffffffffffffffffffff163373ffffffffffffffffffffffffffffffffffffffff161461139957600080fd5b601454600184815481106113b0576113af613b18565b5b906000526020600020906003020160010160019054906101000a900460ff16836113da9190613f6e565b60ff166113e79190613bb4565b34146113f257600080fd5b816001848154811061140757611406613b18565b5b906000526020600020906003020160010160018282829054906101000a900460ff166114339190613ca8565b92506101000a81548160ff021916908360ff160217905550505050565b60008060009054906101000a900473ffffffffffffffffffffffffffffffffffffffff16905090565b816002600082815260200190815260200160002060009054906101000a900473ffffffffffffffffffffffffffffffffffffffff1673ffffffffffffffffffffffffffffffffffffffff163373ffffffffffffffffffffffffffffffffffffffff16146114e557600080fd5b601354600184815481106114fc576114fb613b18565b5b906000526020600020906003020160010160009054906101000a900460ff16836115269190613f6e565b60ff166115339190613bb4565b341461153e57600080fd5b816001848154811061155357611552613b18565b5b906000526020600020906003020160010160008282829054906101000a900460ff1661157f9190613ca8565b92506101000a81548160ff021916908360ff160217905550505050565b600181815481106115ac57600080fd5b90600052602060002090600302016000915090508060000154908060010160009054906101000a900460ff16908060010160019054906101000a900460ff16908060010160029054906101000a900460ff16908060020154905085565b60106020528060005260406000206000915090505481565b600b818154811061163157600080fd5b90600052602060002090600202016000915090508060000154908060010160009054906101000a900461ffff16908060010160029054906101000a900460ff16905083565b60606000601060008473ffffffffffffffffffffffffffffffffffffffff1673ffffffffffffffffffffffffffffffffffffffff1681526020019081526020016000205467ffffffffffffffff8111156116d3576116d26137ac565b5b60405190808252806020026020018201604052801561170c57816020015b6116f9612e7e565b8152602001906001900390816116f15790505b5090506000805b600c805490508110156118df578473ffffffffffffffffffffffffffffffffffffffff16600d600083815260200190815260200160002060009054906101000a900473ffffffffffffffffffffffffffffffffffffffff1673ffffffffffffffffffffffffffffffffffffffff16036118cc57600a818154811061179a57611799613b18565b5b9060005260206000209060080201604051806101000160405290816000820180546117c490613fd8565b80601f01602080910402602001604051908101604052809291908181526020018280546117f090613fd8565b801561183d5780601f106118125761010080835404028352916020019161183d565b820191906000526020600020905b81548152906001019060200180831161182057829003601f168201915b505050505081526020016001820154815260200160028201548152602001600382015481526020016004820160009054906101000a900460ff1660ff1660ff16815260200160058201548152602001600682015481526020016007820154815250508383815181106118b2576118b1613b18565b5b602002602001018190525081806118c890613d74565b9250505b80806118d790613d74565b915050611713565b508192505050919050565b81601a60003373ffffffffffffffffffffffffffffffffffffffff1673ffffffffffffffffffffffffffffffffffffffff168152602001908152602001600020541461196b576040517f08c379a000000000000000000000000000000000000000000000000000000000815260040161196290614055565b60405180910390fd5b6000601e6000848152602001908152602001600020600201549050600073__PDDLib________________________________639c63eb2e83856040518363ffffffff1660e01b81526004016119c192919061411a565b602060405180830381865af41580156119de573d6000803e3d6000fd5b505050506040513d601f19601f82011682018060405250810190611a029190614176565b9050600060405180608001604052803373ffffffffffffffffffffffffffffffffffffffff1681526020018315158152602001428152602001601b60003373ffffffffffffffffffffffffffffffffffffffff1673ffffffffffffffffffffffffffffffffffffffff1681526020019081526020016000205481525090506000601e600087815260200190815260200160002090508060040182908060018154018082558091505060019003906000526020600020906003020160009091909190915060008201518160000160006101000a81548173ffffffffffffffffffffffffffffffffffffffff021916908373ffffffffffffffffffffffffffffffffffffffff16021790555060208201518160000160146101000a81548160ff02191690831515021790555060408201518160010155606082015181600201555050601e600087815260200190815260200160002060000154601e60008881526020019081526020016000206004018054905003611c65577f67acaceb58ff1ad2aa8b3069f69c4cd076824e06a09184b75fb197ead7040be786604051611ba791906133c9565b60405180910390a16001601e600088815260200190815260200160002060060160006101000a81548160ff021916908315150217905550601a60003373ffffffffffffffffffffffffffffffffffffffff1673ffffffffffffffffffffffffffffffffffffffff16815260200190815260200160002060009055601b60003373ffffffffffffffffffffffffffffffffffffffff1673ffffffffffffffffffffffffffffffffffffffff168152602001908152602001600020600090555b505050505050565b6000601060003373ffffffffffffffffffffffffffffffffffffffff1673ffffffffffffffffffffffffffffffffffffffff1681526020019081526020016000205414611cb957600080fd5b600081611cc54261290f565b604051602001611cd69291906141df565b6040516020818303038152906040529050600081604051602001611cfa9190614203565b6040516020818303038152906040528051906020012060001c90506000611d1f6129dd565b90506000611d2b612b80565b90506000600a805490509050600a604051806101000160405280888152602001868152602001858152602001848152602001600160ff1681526020016000815260200160008152602001600081525090806001815401808255809150506001900390600052602060002090600802016000909190919091506000820151816000019080519060200190611dbf929190612ec6565b5060208201518160010155604082015181600201556060820151816003015560808201518160040160006101000a81548160ff021916908360ff16021790555060a0820151816005015560c0820151816006015560e08201518160070155505033600d600083815260200190815260200160002060006101000a81548173ffffffffffffffffffffffffffffffffffffffff021916908373ffffffffffffffffffffffffffffffffffffffff160217905550601060003373ffffffffffffffffffffffffffffffffffffffff1673ffffffffffffffffffffffffffffffffffffffff1681526020019081526020016000206000815480929190611ec190613d74565b9190505550505050505050565b611ed66127cd565b600073ffffffffffffffffffffffffffffffffffffffff168173ffffffffffffffffffffffffffffffffffffffff1603611f45576040517f08c379a0000000000000000000000000000000000000000000000000000000008152600401611f3c9061428c565b60405180910390fd5b611f4e8161284b565b50565b600a8181548110611f6157600080fd5b9060005260206000209060080201600091509050806000018054611f8490613fd8565b80601f0160208091040260200160405190810160405280929190818152602001828054611fb090613fd8565b8015611ffd5780601f10611fd257610100808354040283529160200191611ffd565b820191906000526020600020905b815481529060010190602001808311611fe057829003601f168201915b5050505050908060010154908060020154908060030154908060040160009054906101000a900460ff16908060050154908060060154908060070154905088565b81600e600082815260200190815260200160002060009054906101000a900473ffffffffffffffffffffffffffffffffffffffff1673ffffffffffffffffffffffffffffffffffffffff163373ffffffffffffffffffffffffffffffffffffffff16146120aa57600080fd5b601554600b84815481106120c1576120c0613b18565b5b906000526020600020906002020160010160009054906101000a900461ffff168360ff166120ef91906142ac565b61ffff166120fd9190613bb4565b341461210857600080fd5b8160ff16600b84815481106121205761211f613b18565b5b906000526020600020906002020160010160008282829054906101000a900461ffff1661214d91906142e8565b92506101000a81548161ffff021916908361ffff160217905550505050565b80600d600082815260200190815260200160002060009054906101000a900473ffffffffffffffffffffffffffffffffffffffff1673ffffffffffffffffffffffffffffffffffffffff163373ffffffffffffffffffffffffffffffffffffffff16146121d857600080fd5b6000805b601d8054905081101561261857601d81815481106121fd576121fc613b18565b5b9060005260206000209060060201600201546001600a80878154811061222657612225613b18565b5b906000526020600020906008020160040160009054906101000a900460ff1661224f9190613c77565b6122599190613ca8565b60ff16036126055760019150601d818154811061227957612278613b18565b5b906000526020600020906006020160000154601a60003373ffffffffffffffffffffffffffffffffffffffff1673ffffffffffffffffffffffffffffffffffffffff1681526020019081526020016000208190555083601b60003373ffffffffffffffffffffffffffffffffffffffff1673ffffffffffffffffffffffffffffffffffffffff16815260200190815260200160002081905550601d818154811061232657612325613b18565b5b9060005260206000209060060201600101600081548092919061234890613d74565b9190505550601d818154811061236157612360613b18565b5b906000526020600020906006020160030160000154601d828154811061238a57612389613b18565b5b9060005260206000209060060201600101540361260457600073__PDDLib________________________________63c037e545601d84815481106123d1576123d0613b18565b5b906000526020600020906006020160030160020154601d85815481106123fa576123f9613b18565b5b9060005260206000209060060201600301600001546040518363ffffffff1660e01b815260040161242c929190614320565b602060405180830381865af4158015612449573d6000803e3d6000fd5b505050506040513d601f19601f8201168201806040525081019061246d919061435e565b90506000601e6000601d858154811061248957612488613b18565b5b90600052602060002090600602016000015481526020019081526020016000209050601d83815481106124bf576124be613b18565b5b9060005260206000209060060201600301600001548160000181905550601d83815481106124f0576124ef613b18565b5b90600052602060002090600602016002015481600101819055508181600201819055504281600301819055506000816005018190555060008160060160006101000a81548160ff0219169083151502179055507f2838ebeee7dc83fac85a3d6dbca0c0b6771591ada8b00f97371aa6611e631f9c601d848154811061257857612577613b18565b5b9060005260206000209060060201600001548360405161259992919061438b565b60405180910390a1601d83815481106125b5576125b4613b18565b5b9060005260206000209060060201600080820160009055600182016000905560028201600090556003820160008082016000905560018201600090556002820160009055505050505050612618565b5b808061261090613d74565b9150506121dc565b50801561262557506127c9565b6000601c600081548092919061263a90613d74565b91905055905060006019805490504261265391906143b4565b905081601a60003373ffffffffffffffffffffffffffffffffffffffff1673ffffffffffffffffffffffffffffffffffffffff16815260200190815260200160002081905550601d6040518060800160405280848152602001600181526020016001600a808a815481106126ca576126c9613b18565b5b906000526020600020906008020160040160009054906101000a900460ff166126f39190613c77565b6126fd9190613ca8565b60ff1681526020016019848154811061271957612718613b18565b5b906000526020600020906003020160405180606001604052908160008201548152602001600182015481526020016002820154815250508152509080600181540180825580915050600190039060005260206000209060060201600090919091909150600082015181600001556020820151816001015560408201518160020155606082015181600301600082015181600001556020820151816001015560408201518160020155505050505050505b5050565b6127d5612d23565b73ffffffffffffffffffffffffffffffffffffffff166127f3611450565b73ffffffffffffffffffffffffffffffffffffffff1614612849576040517f08c379a000000000000000000000000000000000000000000000000000000000815260040161284090614431565b60405180910390fd5b565b60008060009054906101000a900473ffffffffffffffffffffffffffffffffffffffff169050816000806101000a81548173ffffffffffffffffffffffffffffffffffffffff021916908373ffffffffffffffffffffffffffffffffffffffff1602179055508173ffffffffffffffffffffffffffffffffffffffff168173ffffffffffffffffffffffffffffffffffffffff167f8be0079c531659141344cd1fd0a4f28419497f9722a3daafe3b4186f6b6457e060405160405180910390a35050565b60606000600161291e84612d2b565b01905060008167ffffffffffffffff81111561293d5761293c6137ac565b5b6040519080825280601f01601f19166020018201604052801561296f5781602001600182028036833780820191505090505b509050600082602001820190505b6001156129d2578080600190039150507f3031323334353637383961626364656600000000000000000000000000000000600a86061a8153600a85816129c6576129c5613c48565b5b0494506000850361297d575b819350505050919050565b6000806003546004546129f09190614451565b426129fb91906143b4565b600354612a089190614485565b9050600060086000815480929190612a1f90613d74565b919050559050600b60405180606001604052808381526020018461ffff168152602001600560009054906101000a900460ff1660ff1681525090806001815401808255809150506001900390600052602060002090600202016000909190919091506000820151816000015560208201518160010160006101000a81548161ffff021916908361ffff16021790555060408201518160010160026101000a81548160ff021916908360ff1602179055505050601160003373ffffffffffffffffffffffffffffffffffffffff1673ffffffffffffffffffffffffffffffffffffffff1681526020019081526020016000206000815480929190612b2190613d74565b919050555033600e600083815260200190815260200160002060006101000a81548173ffffffffffffffffffffffffffffffffffffffff021916908373ffffffffffffffffffffffffffffffffffffffff160217905550809250505090565b600080600654600754612b939190614451565b42612b9e91906143b4565b600654612bab9190614485565b9050600060096000815480929190612bc290613d74565b919050559050600c60405180606001604052808381526020018463ffffffff1681526020018463ffffffff1681525090806001815401808255809150506001900390600052602060002090600202016000909190919091506000820151816000015560208201518160010160006101000a81548163ffffffff021916908363ffffffff16021790555060408201518160010160046101000a81548163ffffffff021916908363ffffffff1602179055505050601260003373ffffffffffffffffffffffffffffffffffffffff1673ffffffffffffffffffffffffffffffffffffffff1681526020019081526020016000206000815480929190612cc490613d74565b919050555033600f600083815260200190815260200160002060006101000a81548173ffffffffffffffffffffffffffffffffffffffff021916908373ffffffffffffffffffffffffffffffffffffffff160217905550809250505090565b600033905090565b600080600090507a184f03e93ff9f4daa797ed6e38ed64bf6a1f0100000000000000008310612d89577a184f03e93ff9f4daa797ed6e38ed64bf6a1f0100000000000000008381612d7f57612d7e613c48565b5b0492506040810190505b6d04ee2d6d415b85acef81000000008310612dc6576d04ee2d6d415b85acef81000000008381612dbc57612dbb613c48565b5b0492506020810190505b662386f26fc100008310612df557662386f26fc100008381612deb57612dea613c48565b5b0492506010810190505b6305f5e1008310612e1e576305f5e1008381612e1457612e13613c48565b5b0492506008810190505b6127108310612e43576127108381612e3957612e38613c48565b5b0492506004810190505b60648310612e665760648381612e5c57612e5b613c48565b5b0492506002810190505b600a8310612e75576001810190505b80915050919050565b60405180610100016040528060608152602001600081526020016000815260200160008152602001600060ff1681526020016000815260200160008152602001600081525090565b828054612ed290613fd8565b90600052602060002090601f016020900481019282612ef45760008555612f3b565b82601f10612f0d57805160ff1916838001178555612f3b565b82800160010185558215612f3b579182015b82811115612f3a578251825591602001919060010190612f1f565b5b509050612f489190612f4c565b5090565b5b80821115612f65576000816000905550600101612f4d565b5090565b6000604051905090565b600080fd5b600080fd5b6000819050919050565b612f9081612f7d565b8114612f9b57600080fd5b50565b600081359050612fad81612f87565b92915050565b600060ff82169050919050565b612fc981612fb3565b8114612fd457600080fd5b50565b600081359050612fe681612fc0565b92915050565b6000806040838503121561300357613002612f73565b5b600061301185828601612f9e565b925050602061302285828601612fd7565b9150509250929050565b60006020828403121561304257613041612f73565b5b600061305084828501612f9e565b91505092915050565b61306281612f7d565b82525050565b60008115159050919050565b61307d81613068565b82525050565b600060c0820190506130986000830189613059565b6130a56020830188613059565b6130b26040830187613059565b6130bf6060830186613059565b6130cc6080830185613059565b6130d960a0830184613074565b979650505050505050565b6130ed81612f7d565b82525050565b60608201600082015161310960008501826130e4565b50602082015161311c60208501826130e4565b50604082015161312f60408501826130e4565b50505050565b600060c08201905061314a6000830187613059565b6131576020830186613059565b6131646040830185613059565b61317160608301846130f3565b95945050505050565b600063ffffffff82169050919050565b6131938161317a565b82525050565b60006060820190506131ae6000830186613059565b6131bb602083018561318a565b6131c8604083018461318a565b949350505050565b600073ffffffffffffffffffffffffffffffffffffffff82169050919050565b60006131fb826131d0565b9050919050565b61320b816131f0565b82525050565b60006020820190506132266000830184613202565b92915050565b600081519050919050565b600082825260208201905092915050565b6000819050602082019050919050565b613261816131f0565b82525050565b61327081613068565b82525050565b60808201600082015161328c6000850182613258565b50602082015161329f6020850182613267565b5060408201516132b260408501826130e4565b5060608201516132c560608501826130e4565b50505050565b60006132d78383613276565b60808301905092915050565b6000602082019050919050565b60006132fb8261322c565b6133058185613237565b935061331083613248565b8060005b8381101561334157815161332888826132cb565b9750613333836132e3565b925050600181019050613314565b5085935050505092915050565b6000602082019050818103600083015261336881846132f0565b905092915050565b613379816131f0565b811461338457600080fd5b50565b60008135905061339681613370565b92915050565b6000602082840312156133b2576133b1612f73565b5b60006133c084828501613387565b91505092915050565b60006020820190506133de6000830184613059565b92915050565b600081519050919050565b600082825260208201905092915050565b6000819050602082019050919050565b600061341c83836130e4565b60208301905092915050565b6000602082019050919050565b6000613440826133e4565b61344a81856133ef565b935061345583613400565b8060005b8381101561348657815161346d8882613410565b975061347883613428565b925050600181019050613459565b5085935050505092915050565b600060208201905081810360008301526134ad8184613435565b905092915050565b6134be81612fb3565b82525050565b600060a0820190506134d96000830188613059565b6134e660208301876134b5565b6134f360408301866134b5565b61350060608301856134b5565b61350d6080830184613059565b9695505050505050565b600061ffff82169050919050565b61352e81613517565b82525050565b60006060820190506135496000830186613059565b6135566020830185613525565b61356360408301846134b5565b949350505050565b600081519050919050565b600082825260208201905092915050565b6000819050602082019050919050565b600081519050919050565b600082825260208201905092915050565b60005b838110156135d15780820151818401526020810190506135b6565b838111156135e0576000848401525b50505050565b6000601f19601f8301169050919050565b600061360282613597565b61360c81856135a2565b935061361c8185602086016135b3565b613625816135e6565b840191505092915050565b61363981612fb3565b82525050565b600061010083016000830151848203600086015261365d82826135f7565b915050602083015161367260208601826130e4565b50604083015161368560408601826130e4565b50606083015161369860608601826130e4565b5060808301516136ab6080860182613630565b5060a08301516136be60a08601826130e4565b5060c08301516136d160c08601826130e4565b5060e08301516136e460e08601826130e4565b508091505092915050565b60006136fb838361363f565b905092915050565b6000602082019050919050565b600061371b8261356b565b6137258185613576565b93508360208202850161373785613587565b8060005b85811015613773578484038952815161375485826136ef565b945061375f83613703565b925060208a0199505060018101905061373b565b50829750879550505050505092915050565b6000602082019050818103600083015261379f8184613710565b905092915050565b600080fd5b7f4e487b7100000000000000000000000000000000000000000000000000000000600052604160045260246000fd5b6137e4826135e6565b810181811067ffffffffffffffff82111715613803576138026137ac565b5b80604052505050565b6000613816612f69565b905061382282826137db565b919050565b600067ffffffffffffffff821115613842576138416137ac565b5b602082029050602081019050919050565b600080fd5b600061386b61386684613827565b61380c565b9050808382526020820190506020840283018581111561388e5761388d613853565b5b835b818110156138b757806138a38882612f9e565b845260208401935050602081019050613890565b5050509392505050565b600082601f8301126138d6576138d56137a7565b5b81356138e6848260208601613858565b91505092915050565b6000806040838503121561390657613905612f73565b5b600061391485828601612f9e565b925050602083013567ffffffffffffffff81111561393557613934612f78565b5b613941858286016138c1565b9150509250929050565b600080fd5b600067ffffffffffffffff82111561396b5761396a6137ac565b5b613974826135e6565b9050602081019050919050565b82818337600083830152505050565b60006139a361399e84613950565b61380c565b9050828152602081018484840111156139bf576139be61394b565b5b6139ca848285613981565b509392505050565b600082601f8301126139e7576139e66137a7565b5b81356139f7848260208601613990565b91505092915050565b600060208284031215613a1657613a15612f73565b5b600082013567ffffffffffffffff811115613a3457613a33612f78565b5b613a40848285016139d2565b91505092915050565b600082825260208201905092915050565b6000613a6582613597565b613a6f8185613a49565b9350613a7f8185602086016135b3565b613a88816135e6565b840191505092915050565b6000610100820190508181036000830152613aae818b613a5a565b9050613abd602083018a613059565b613aca6040830189613059565b613ad76060830188613059565b613ae460808301876134b5565b613af160a0830186613059565b613afe60c0830185613059565b613b0b60e0830184613059565b9998505050505050505050565b7f4e487b7100000000000000000000000000000000000000000000000000000000600052603260045260246000fd5b7f4e487b7100000000000000000000000000000000000000000000000000000000600052601160045260246000fd5b6000613b818261317a565b9150613b8c8361317a565b92508163ffffffff0483118215151615613ba957613ba8613b47565b5b828202905092915050565b6000613bbf82612f7d565b9150613bca83612f7d565b9250817fffffffffffffffffffffffffffffffffffffffffffffffffffffffffffffffff0483118215151615613c0357613c02613b47565b5b828202905092915050565b6000613c198261317a565b9150613c248361317a565b92508263ffffffff03821115613c3d57613c3c613b47565b5b828201905092915050565b7f4e487b7100000000000000000000000000000000000000000000000000000000600052601260045260246000fd5b6000613c8282612fb3565b9150613c8d83612fb3565b925082613c9d57613c9c613c48565b5b828204905092915050565b6000613cb382612fb3565b9150613cbe83612fb3565b92508260ff03821115613cd457613cd3613b47565b5b828201905092915050565b6000613cea82612fb3565b915060ff8203613cfd57613cfc613b47565b5b600182019050919050565b7f726f6f6d206e6f7420636c6f7365640000000000000000000000000000000000600082015250565b6000613d3e600f83613a49565b9150613d4982613d08565b602082019050919050565b60006020820190508181036000830152613d6d81613d31565b9050919050565b6000613d7f82612f7d565b91507fffffffffffffffffffffffffffffffffffffffffffffffffffffffffffffffff8203613db157613db0613b47565b5b600182019050919050565b6000613dc782612fb3565b9150613dd283612fb3565b925082821015613de557613de4613b47565b5b828203905092915050565b60008160011c9050919050565b6000808291508390505b6001851115613e4757808604811115613e2357613e22613b47565b5b6001851615613e325780820291505b8081029050613e4085613df0565b9450613e07565b94509492505050565b600082613e605760019050613f1c565b81613e6e5760009050613f1c565b8160018114613e845760028114613e8e57613ebd565b6001915050613f1c565b60ff841115613ea057613e9f613b47565b5b8360020a915084821115613eb757613eb6613b47565b5b50613f1c565b5060208310610133831016604e8410600b8410161715613ef25782820a905083811115613eed57613eec613b47565b5b613f1c565b613eff8484846001613dfd565b92509050818404811115613f1657613f15613b47565b5b81810290505b9392505050565b6000613f2e82612f7d565b9150613f3983612fb3565b9250613f667fffffffffffffffffffffffffffffffffffffffffffffffffffffffffffffffff8484613e50565b905092915050565b6000613f7982612fb3565b9150613f8483612fb3565b92508160ff0483118215151615613f9e57613f9d613b47565b5b828202905092915050565b7f4e487b7100000000000000000000000000000000000000000000000000000000600052602260045260246000fd5b60006002820490506001821680613ff057607f821691505b60208210810361400357614002613fa9565b5b50919050565b7f6e6f7420796f757220726f6f6d00000000000000000000000000000000000000600082015250565b600061403f600d83613a49565b915061404a82614009565b602082019050919050565b6000602082019050818103600083015261406e81614032565b9050919050565b61407e81612f7d565b82525050565b600082825260208201905092915050565b61409e81612f7d565b82525050565b60006140b08383614095565b60208301905092915050565b60006140c7826133e4565b6140d18185614084565b93506140dc83613400565b8060005b8381101561410d5781516140f488826140a4565b97506140ff83613428565b9250506001810190506140e0565b5085935050505092915050565b600060408201905061412f6000830185614075565b818103602083015261414181846140bc565b90509392505050565b61415381613068565b811461415e57600080fd5b50565b6000815190506141708161414a565b92915050565b60006020828403121561418c5761418b612f73565b5b600061419a84828501614161565b91505092915050565b600081905092915050565b60006141b982613597565b6141c381856141a3565b93506141d38185602086016135b3565b80840191505092915050565b60006141eb82856141ae565b91506141f782846141ae565b91508190509392505050565b600061420f82846141ae565b915081905092915050565b7f4f776e61626c653a206e6577206f776e657220697320746865207a65726f206160008201527f6464726573730000000000000000000000000000000000000000000000000000602082015250565b6000614276602683613a49565b91506142818261421a565b604082019050919050565b600060208201905081810360008301526142a581614269565b9050919050565b60006142b782613517565b91506142c283613517565b92508161ffff04831182151516156142dd576142dc613b47565b5b828202905092915050565b60006142f382613517565b91506142fe83613517565b92508261ffff0382111561431557614314613b47565b5b828201905092915050565b60006040820190506143356000830185614075565b6143426020830184614075565b9392505050565b60008151905061435881612f87565b92915050565b60006020828403121561437457614373612f73565b5b600061438284828501614349565b91505092915050565b60006040820190506143a06000830185613059565b6143ad6020830184613059565b9392505050565b60006143bf82612f7d565b91506143ca83612f7d565b9250826143da576143d9613c48565b5b828206905092915050565b7f4f776e61626c653a2063616c6c6572206973206e6f7420746865206f776e6572600082015250565b600061441b602083613a49565b9150614426826143e5565b602082019050919050565b6000602082019050818103600083015261444a8161440e565b9050919050565b600061445c82612f7d565b915061446783612f7d565b92508282101561447a57614479613b47565b5b828203905092915050565b600061449082612f7d565b915061449b83612f7d565b9250827fffffffffffffffffffffffffffffffffffffffffffffffffffffffffffffffff038211156144d0576144cf613b47565b5b82820190509291505056fea264697066735822122039e52dfc6cdb50851c3754fa9ba5bed5d475c9f889dc6d1a2300be945c72d3e964736f6c634300080d0033",
  "immutableReferences": {},
  "source": "// SPDX-License-Identifier: MIT\npragma solidity ^0.8.13;\n\nimport \"./PDDLib.sol\";\nimport \"./CarHelper.sol\";\nimport \"./CarFactory.sol\";\n\ncontract RaceHandler is CarHelper{\n    struct Cross{\n        uint playersNeeded;\n        uint roadsNum;\n        uint crossId;\n    }\n\n    Cross[] crosses;\n    \n    mapping(address => uint) playersToRooms;\n    mapping(address => uint) playersToCars;\n    struct OpenedRoom{\n        uint id;\n        uint playersEntered;\n        uint world;\n        Cross cross;\n    }\n    struct StartedRoom{\n        uint numberPlayers;\n        uint world;\n        uint roomDNA;\n        uint startTime;\n        Answer[] answers;\n        uint curAnswer;\n        bool closed;\n    }\n    struct Answer{\n        address player;\n        bool correct;\n        uint time;\n        uint carId;\n    }\n\n    uint roomsCount;\n\n    constructor(){\n        crosses.push(Cross(4,4,0));\n        crosses.push(Cross(3,4,0));\n        crosses.push(Cross(2,4,0));\n        crosses.push(Cross(3,3,1));\n        crosses.push(Cross(2,3,1));\n        roomsCount = 1;\n    }\n\n    event RoomFull(uint roomId, uint roomDNA);\n    event RoomClosed(uint roomId);\n\n    OpenedRoom[] public openedRooms;\n    mapping(uint => StartedRoom) public idToStartedRooms;\n\n    function findRoom(uint carId) public onlyOwnerOfCar(carId){\n        bool foundRoom = false;\n        for(uint i = 0; i<openedRooms.length; i++){\n            if(cars[carId].carLevel/10+1 != openedRooms[i].world){\n                continue;\n            }\n            foundRoom = true;\n            playersToRooms[msg.sender] = openedRooms[i].id;\n            playersToCars[msg.sender] = carId;\n            openedRooms[i].playersEntered++;\n            if(openedRooms[i].playersEntered == openedRooms[i].cross.playersNeeded){\n                uint roomDNA = PDDLib.generateRoom(openedRooms[i].cross.crossId, openedRooms[i].cross.playersNeeded);\n                \n                StartedRoom storage ss = idToStartedRooms[openedRooms[i].id];\n                ss.numberPlayers = openedRooms[i].cross.playersNeeded;\n                ss.world = openedRooms[i].world;\n                ss.roomDNA = roomDNA;\n                ss.startTime = block.timestamp;\n                ss.curAnswer = 0;\n                ss.closed = false;\n\n                emit RoomFull(openedRooms[i].id, roomDNA);\n                delete openedRooms[i];\n                break;\n            }\n        }\n\n        if(foundRoom){\n            return;\n        }\n        uint id = roomsCount++;\n        uint crossNum = block.timestamp%crosses.length;\n        playersToRooms[msg.sender] = id;\n        openedRooms.push(OpenedRoom(\n            id,\n            1,\n            cars[carId].carLevel/10+1,\n            crosses[crossNum]\n        ));\n    }\n\n    function getClosedRoom(uint roomId) public view returns(Answer[] memory){\n        require(idToStartedRooms[roomId].closed, \"room not closed\");\n        return idToStartedRooms[roomId].answers;\n    }\n\n\n\n    function commitAnswer(uint roomId, uint[] memory answer) public{\n        require(playersToRooms[msg.sender]==roomId, \"not your room\");\n\n        uint roomDNA = idToStartedRooms[roomId].roomDNA;\n        bool right = PDDLib.isCorrectAnswer(roomDNA, answer);\n        //Answer memory ans = Answer(msg.sender, right, block.timestamp);\n        \n        Answer memory ans = Answer(msg.sender, right, block.timestamp, playersToCars[msg.sender]);\n        StartedRoom storage sr = idToStartedRooms[roomId];\n        sr.answers.push(ans);\n\n        if(idToStartedRooms[roomId].answers.length == idToStartedRooms[roomId].numberPlayers){\n            emit RoomClosed(roomId);\n            idToStartedRooms[roomId].closed = true;\n            delete playersToRooms[msg.sender];\n            delete playersToCars[msg.sender];\n        }\n    }\n}\n",
  "sourcePath": "/Users/vvan/Programming/JavaScript/DriveSafely/contract/contracts/RaceHandler.sol",
  "compiler": {
    "name": "solc",
    "version": "0.8.13+commit.abaa5c0e.Emscripten.clang"
  },
  "schemaVersion": "3.4.11",
  "updatedAt": "2023-01-08T10:45:10.609Z",
  "networkType": "ethereum",
  "devdoc": {
    "kind": "dev",
    "methods": {
      "owner()": {
        "details": "Returns the address of the current owner."
      },
      "renounceOwnership()": {
        "details": "Leaves the contract without owner. It will not be possible to call `onlyOwner` functions anymore. Can only be called by the current owner. NOTE: Renouncing ownership will leave the contract without an owner, thereby removing any functionality that is only available to the owner."
      },
      "transferOwnership(address)": {
        "details": "Transfers ownership of the contract to a new account (`newOwner`). Can only be called by the current owner."
      }
    },
    "version": 1
  },
  "userdoc": {
    "kind": "user",
    "methods": {},
    "version": 1
  }
}