{
  "contractName": "RaceHandler",
  "abi": [
    {
      "inputs": [],
      "stateMutability": "nonpayable",
      "type": "constructor"
    },
    {
      "anonymous": false,
      "inputs": [
        {
          "indexed": true,
          "internalType": "address",
          "name": "previousOwner",
          "type": "address"
        },
        {
          "indexed": true,
          "internalType": "address",
          "name": "newOwner",
          "type": "address"
        }
      ],
      "name": "OwnershipTransferred",
      "type": "event"
    },
    {
      "anonymous": false,
      "inputs": [
        {
          "indexed": false,
          "internalType": "uint256",
          "name": "roomId",
          "type": "uint256"
        }
      ],
      "name": "RoomClosed",
      "type": "event"
    },
    {
      "anonymous": false,
      "inputs": [
        {
          "indexed": false,
          "internalType": "uint256",
          "name": "roomId",
          "type": "uint256"
        },
        {
          "indexed": false,
          "internalType": "uint256",
          "name": "roomDNA",
          "type": "uint256"
        }
      ],
      "name": "RoomFull",
      "type": "event"
    },
    {
      "inputs": [
        {
          "internalType": "uint256",
          "name": "",
          "type": "uint256"
        }
      ],
      "name": "carToOwner",
      "outputs": [
        {
          "internalType": "address",
          "name": "",
          "type": "address"
        }
      ],
      "stateMutability": "view",
      "type": "function"
    },
    {
      "inputs": [
        {
          "internalType": "uint256",
          "name": "",
          "type": "uint256"
        }
      ],
      "name": "cars",
      "outputs": [
        {
          "internalType": "string",
          "name": "model",
          "type": "string"
        },
        {
          "internalType": "uint256",
          "name": "vin",
          "type": "uint256"
        },
        {
          "internalType": "uint256",
          "name": "engineId",
          "type": "uint256"
        },
        {
          "internalType": "uint256",
          "name": "chassisId",
          "type": "uint256"
        },
        {
          "internalType": "uint8",
          "name": "carLevel",
          "type": "uint8"
        },
        {
          "internalType": "uint256",
          "name": "mileage",
          "type": "uint256"
        },
        {
          "internalType": "uint256",
          "name": "winCountOnCurrentLevel",
          "type": "uint256"
        },
        {
          "internalType": "uint256",
          "name": "lossCountOnCurrentLevel",
          "type": "uint256"
        },
        {
          "internalType": "uint256",
          "name": "id",
          "type": "uint256"
        }
      ],
      "stateMutability": "view",
      "type": "function"
    },
    {
      "inputs": [
        {
          "internalType": "uint256",
          "name": "",
          "type": "uint256"
        }
      ],
      "name": "chassis",
      "outputs": [
        {
          "internalType": "uint256",
          "name": "id",
          "type": "uint256"
        },
        {
          "internalType": "uint32",
          "name": "durability",
          "type": "uint32"
        },
        {
          "internalType": "uint32",
          "name": "resource",
          "type": "uint32"
        }
      ],
      "stateMutability": "view",
      "type": "function"
    },
    {
      "inputs": [
        {
          "internalType": "uint256",
          "name": "",
          "type": "uint256"
        }
      ],
      "name": "chassisToOwner",
      "outputs": [
        {
          "internalType": "address",
          "name": "",
          "type": "address"
        }
      ],
      "stateMutability": "view",
      "type": "function"
    },
    {
      "inputs": [
        {
          "internalType": "string",
          "name": "model",
          "type": "string"
        }
      ],
      "name": "createCar",
      "outputs": [],
      "stateMutability": "nonpayable",
      "type": "function"
    },
    {
      "inputs": [],
      "name": "createFuelStation",
      "outputs": [],
      "stateMutability": "nonpayable",
      "type": "function"
    },
    {
      "inputs": [
        {
          "internalType": "uint256",
          "name": "",
          "type": "uint256"
        }
      ],
      "name": "engineToOwner",
      "outputs": [
        {
          "internalType": "address",
          "name": "",
          "type": "address"
        }
      ],
      "stateMutability": "view",
      "type": "function"
    },
    {
      "inputs": [
        {
          "internalType": "uint256",
          "name": "",
          "type": "uint256"
        }
      ],
      "name": "engines",
      "outputs": [
        {
          "internalType": "uint256",
          "name": "id",
          "type": "uint256"
        },
        {
          "internalType": "uint16",
          "name": "horsePowers",
          "type": "uint16"
        },
        {
          "internalType": "uint8",
          "name": "consumtion",
          "type": "uint8"
        }
      ],
      "stateMutability": "view",
      "type": "function"
    },
    {
      "inputs": [
        {
          "internalType": "uint256",
          "name": "",
          "type": "uint256"
        }
      ],
      "name": "fuelStationToOwner",
      "outputs": [
        {
          "internalType": "address",
          "name": "",
          "type": "address"
        }
      ],
      "stateMutability": "view",
      "type": "function"
    },
    {
      "inputs": [
        {
          "internalType": "address",
          "name": "_owner",
          "type": "address"
        }
      ],
      "name": "getCarsByOwner",
      "outputs": [
        {
          "components": [
            {
              "internalType": "string",
              "name": "model",
              "type": "string"
            },
            {
              "internalType": "uint256",
              "name": "vin",
              "type": "uint256"
            },
            {
              "internalType": "uint256",
              "name": "engineId",
              "type": "uint256"
            },
            {
              "internalType": "uint256",
              "name": "chassisId",
              "type": "uint256"
            },
            {
              "internalType": "uint8",
              "name": "carLevel",
              "type": "uint8"
            },
            {
              "internalType": "uint256",
              "name": "mileage",
              "type": "uint256"
            },
            {
              "internalType": "uint256",
              "name": "winCountOnCurrentLevel",
              "type": "uint256"
            },
            {
              "internalType": "uint256",
              "name": "lossCountOnCurrentLevel",
              "type": "uint256"
            },
            {
              "internalType": "uint256",
              "name": "id",
              "type": "uint256"
            }
          ],
          "internalType": "struct CarFactory.Car[]",
          "name": "",
          "type": "tuple[]"
        }
      ],
      "stateMutability": "view",
      "type": "function"
    },
    {
      "inputs": [
        {
          "internalType": "address",
          "name": "_owner",
          "type": "address"
        }
      ],
      "name": "getChassisByOwner",
      "outputs": [
        {
          "components": [
            {
              "internalType": "uint256",
              "name": "id",
              "type": "uint256"
            },
            {
              "internalType": "uint32",
              "name": "durability",
              "type": "uint32"
            },
            {
              "internalType": "uint32",
              "name": "resource",
              "type": "uint32"
            }
          ],
          "internalType": "struct CarFactory.Chassis[]",
          "name": "",
          "type": "tuple[]"
        }
      ],
      "stateMutability": "view",
      "type": "function"
    },
    {
      "inputs": [
        {
          "internalType": "address",
          "name": "_owner",
          "type": "address"
        }
      ],
      "name": "getEnginesByOwner",
      "outputs": [
        {
          "components": [
            {
              "internalType": "uint256",
              "name": "id",
              "type": "uint256"
            },
            {
              "internalType": "uint16",
              "name": "horsePowers",
              "type": "uint16"
            },
            {
              "internalType": "uint8",
              "name": "consumtion",
              "type": "uint8"
            }
          ],
          "internalType": "struct CarFactory.Engine[]",
          "name": "",
          "type": "tuple[]"
        }
      ],
      "stateMutability": "view",
      "type": "function"
    },
    {
      "inputs": [
        {
          "internalType": "address",
          "name": "_owner",
          "type": "address"
        }
      ],
      "name": "getFuelStationByOwner",
      "outputs": [
        {
          "components": [
            {
              "internalType": "uint256",
              "name": "id",
              "type": "uint256"
            },
            {
              "internalType": "uint8",
              "name": "capacity",
              "type": "uint8"
            },
            {
              "internalType": "uint8",
              "name": "productionPerHour",
              "type": "uint8"
            },
            {
              "internalType": "uint8",
              "name": "currentFullness",
              "type": "uint8"
            },
            {
              "internalType": "uint256",
              "name": "lastUpdate",
              "type": "uint256"
            }
          ],
          "internalType": "struct FuelStationFactory.FuelStation",
          "name": "",
          "type": "tuple"
        }
      ],
      "stateMutability": "view",
      "type": "function"
    },
    {
      "inputs": [
        {
          "internalType": "uint256",
          "name": "",
          "type": "uint256"
        }
      ],
      "name": "idToStartedRooms",
      "outputs": [
        {
          "internalType": "uint256",
          "name": "numberPlayers",
          "type": "uint256"
        },
        {
          "internalType": "uint256",
          "name": "world",
          "type": "uint256"
        },
        {
          "internalType": "uint256",
          "name": "roomDNA",
          "type": "uint256"
        },
        {
          "internalType": "uint256",
          "name": "startTime",
          "type": "uint256"
        },
        {
          "internalType": "uint256",
          "name": "curAnswer",
          "type": "uint256"
        },
        {
          "internalType": "bool",
          "name": "closed",
          "type": "bool"
        }
      ],
      "stateMutability": "view",
      "type": "function"
    },
    {
      "inputs": [
        {
          "internalType": "uint256",
          "name": "_carId",
          "type": "uint256"
        }
      ],
      "name": "levelUp",
      "outputs": [],
      "stateMutability": "payable",
      "type": "function"
    },
    {
      "inputs": [
        {
          "internalType": "uint256",
          "name": "",
          "type": "uint256"
        }
      ],
      "name": "openedRooms",
      "outputs": [
        {
          "internalType": "uint256",
          "name": "id",
          "type": "uint256"
        },
        {
          "internalType": "uint256",
          "name": "playersEntered",
          "type": "uint256"
        },
        {
          "internalType": "uint256",
          "name": "world",
          "type": "uint256"
        },
        {
          "components": [
            {
              "internalType": "uint256",
              "name": "playersNeeded",
              "type": "uint256"
            },
            {
              "internalType": "uint256",
              "name": "roadsNum",
              "type": "uint256"
            },
            {
              "internalType": "uint256",
              "name": "crossId",
              "type": "uint256"
            }
          ],
          "internalType": "struct RaceHandler.Cross",
          "name": "cross",
          "type": "tuple"
        }
      ],
      "stateMutability": "view",
      "type": "function"
    },
    {
      "inputs": [],
      "name": "owner",
      "outputs": [
        {
          "internalType": "address",
          "name": "",
          "type": "address"
        }
      ],
      "stateMutability": "view",
      "type": "function"
    },
    {
      "inputs": [
        {
          "internalType": "address",
          "name": "",
          "type": "address"
        }
      ],
      "name": "ownerCarCount",
      "outputs": [
        {
          "internalType": "uint256",
          "name": "",
          "type": "uint256"
        }
      ],
      "stateMutability": "view",
      "type": "function"
    },
    {
      "inputs": [],
      "name": "renounceOwnership",
      "outputs": [],
      "stateMutability": "nonpayable",
      "type": "function"
    },
    {
      "inputs": [
        {
          "internalType": "uint256",
          "name": "",
          "type": "uint256"
        }
      ],
      "name": "stations",
      "outputs": [
        {
          "internalType": "uint256",
          "name": "id",
          "type": "uint256"
        },
        {
          "internalType": "uint8",
          "name": "capacity",
          "type": "uint8"
        },
        {
          "internalType": "uint8",
          "name": "productionPerHour",
          "type": "uint8"
        },
        {
          "internalType": "uint8",
          "name": "currentFullness",
          "type": "uint8"
        },
        {
          "internalType": "uint256",
          "name": "lastUpdate",
          "type": "uint256"
        }
      ],
      "stateMutability": "view",
      "type": "function"
    },
    {
      "inputs": [
        {
          "internalType": "uint256",
          "name": "carId",
          "type": "uint256"
        },
        {
          "internalType": "uint256",
          "name": "chassisId",
          "type": "uint256"
        }
      ],
      "name": "switchChassis",
      "outputs": [],
      "stateMutability": "nonpayable",
      "type": "function"
    },
    {
      "inputs": [
        {
          "internalType": "uint256",
          "name": "carId",
          "type": "uint256"
        },
        {
          "internalType": "uint256",
          "name": "engineId",
          "type": "uint256"
        }
      ],
      "name": "switchEngine",
      "outputs": [],
      "stateMutability": "nonpayable",
      "type": "function"
    },
    {
      "inputs": [
        {
          "internalType": "address",
          "name": "newOwner",
          "type": "address"
        }
      ],
      "name": "transferOwnership",
      "outputs": [],
      "stateMutability": "nonpayable",
      "type": "function"
    },
    {
      "inputs": [
        {
          "internalType": "uint256",
          "name": "_fuelStatonId",
          "type": "uint256"
        },
        {
          "internalType": "uint8",
          "name": "_counts",
          "type": "uint8"
        }
      ],
      "name": "upgradeCapacity",
      "outputs": [],
      "stateMutability": "payable",
      "type": "function"
    },
    {
      "inputs": [
        {
          "internalType": "uint256",
          "name": "_engineId",
          "type": "uint256"
        },
        {
          "internalType": "uint8",
          "name": "_counts",
          "type": "uint8"
        }
      ],
      "name": "upgradeConsumtion",
      "outputs": [],
      "stateMutability": "payable",
      "type": "function"
    },
    {
      "inputs": [
        {
          "internalType": "uint256",
          "name": "_chassisId",
          "type": "uint256"
        },
        {
          "internalType": "uint8",
          "name": "_counts",
          "type": "uint8"
        }
      ],
      "name": "upgradeDurability",
      "outputs": [],
      "stateMutability": "payable",
      "type": "function"
    },
    {
      "inputs": [
        {
          "internalType": "uint256",
          "name": "_engineId",
          "type": "uint256"
        },
        {
          "internalType": "uint8",
          "name": "_counts",
          "type": "uint8"
        }
      ],
      "name": "upgradeHorsePowers",
      "outputs": [],
      "stateMutability": "payable",
      "type": "function"
    },
    {
      "inputs": [
        {
          "internalType": "uint256",
          "name": "_fuelStatonId",
          "type": "uint256"
        },
        {
          "internalType": "uint8",
          "name": "_counts",
          "type": "uint8"
        }
      ],
      "name": "upgradeProductionPerHour",
      "outputs": [],
      "stateMutability": "payable",
      "type": "function"
    },
    {
      "inputs": [
        {
          "internalType": "uint256",
          "name": "carId",
          "type": "uint256"
        }
      ],
      "name": "findRoom",
      "outputs": [],
      "stateMutability": "nonpayable",
      "type": "function"
    },
    {
      "inputs": [
        {
          "internalType": "uint256",
          "name": "roomId",
          "type": "uint256"
        }
      ],
      "name": "getClosedRoom",
      "outputs": [
        {
          "components": [
            {
              "internalType": "address",
              "name": "player",
              "type": "address"
            },
            {
              "internalType": "bool",
              "name": "correct",
              "type": "bool"
            },
            {
              "internalType": "uint256",
              "name": "time",
              "type": "uint256"
            },
            {
              "internalType": "uint256",
              "name": "carId",
              "type": "uint256"
            }
          ],
          "internalType": "struct RaceHandler.Answer[]",
          "name": "",
          "type": "tuple[]"
        }
      ],
      "stateMutability": "view",
      "type": "function"
    },
    {
      "inputs": [
        {
          "internalType": "uint256",
          "name": "roomId",
          "type": "uint256"
        },
        {
          "internalType": "uint256[]",
          "name": "answer",
          "type": "uint256[]"
        }
      ],
      "name": "commitAnswer",
      "outputs": [],
      "stateMutability": "nonpayable",
      "type": "function"
    }
  ],
  "bytecode": "0x6080604052603c600060146101000a81548160ff021916908360ff1602179055506005600060156101000a81548160ff021916908360ff160217905550600160085560016009556509184e72a00060135565b5e620f48000601455650da475abf0006015556611c37937e080006016556305f5e10060175566038d7ea4c680006018553480156200008f57600080fd5b50620000b0620000a46200034760201b60201c565b6200034f60201b60201c565b6050600381905550605b600481905550600a600560006101000a81548160ff021916908360ff160217905550620186a06006819055506201d4c1600781905550600b60018160018154018082558091505003906000526020600020905050600c600181600181540180825580915050039060005260206000209050506019604051806060016040528060048152602001600481526020016000815250908060018154018082558091505060019003906000526020600020906003020160009091909190915060008201518160000155602082015181600101556040820151816002015550506019604051806060016040528060038152602001600481526020016000815250908060018154018082558091505060019003906000526020600020906003020160009091909190915060008201518160000155602082015181600101556040820151816002015550506019604051806060016040528060028152602001600481526020016000815250908060018154018082558091505060019003906000526020600020906003020160009091909190915060008201518160000155602082015181600101556040820151816002015550506019604051806060016040528060038152602001600381526020016001815250908060018154018082558091505060019003906000526020600020906003020160009091909190915060008201518160000155602082015181600101556040820151816002015550506019604051806060016040528060028152602001600381526020016001815250908060018154018082558091505060019003906000526020600020906003020160009091909190915060008201518160000155602082015181600101556040820151816002015550506001601c8190555062000413565b600033905090565b60008060009054906101000a900473ffffffffffffffffffffffffffffffffffffffff169050816000806101000a81548173ffffffffffffffffffffffffffffffffffffffff021916908373ffffffffffffffffffffffffffffffffffffffff1602179055508173ffffffffffffffffffffffffffffffffffffffff168173ffffffffffffffffffffffffffffffffffffffff167f8be0079c531659141344cd1fd0a4f28419497f9722a3daafe3b4186f6b6457e060405160405180910390a35050565b614e1180620004236000396000f3fe6080604052600436106101d85760003560e01c80637c62360f11610102578063c75bb4f411610095578063f2fde38b11610064578063f2fde38b14610709578063f7746e3614610732578063faf4bb9814610777578063fb2d954f14610793576101d8565b8063c75bb4f414610651578063c85b7fed1461068e578063ea126933146106b7578063ede6fbf5146106e0576101d8565b806392f859db116100d157806392f859db1461056b578063b3b29afd146105ac578063b72c0eea146105e9578063c34cccc414610628576101d8565b80637c62360f146104ec57806385909267146105085780638da5cb5b14610524578063906f5f341461054f576101d8565b80633521c4261161017a5780635dcc4cc6116101495780635dcc4cc61461041e5780636f206fc11461045b578063715018a6146104985780637713d521146104af576101d8565b80633521c4261461032a57806344901490146103675780634e31f910146103a4578063594193d7146103e1576101d8565b80630ce90ec2116101b65780630ce90ec21461027b5780631c5dde0e14610297578063224370f0146102d657806333ca504b146102ed576101d8565b806303f2e05b146101dd5780630418394e146101f9578063081315ff1461023b575b600080fd5b6101f760048036038101906101f29190613592565b6107bc565b005b34801561020557600080fd5b50610220600480360381019061021b91906135d2565b6108f4565b60405161023296959493929190613629565b60405180910390f35b34801561024757600080fd5b50610262600480360381019061025d91906135d2565b61093d565b60405161027294939291906136db565b60405180910390f35b610295600480360381019061029091906135d2565b6109a5565b005b3480156102a357600080fd5b506102be60048036038101906102b991906135d2565b610b24565b6040516102cd9392919061373f565b60405180910390f35b3480156102e257600080fd5b506102eb610b7e565b005b3480156102f957600080fd5b50610314600480360381019061030f91906135d2565b610cea565b60405161032191906137b7565b60405180910390f35b34801561033657600080fd5b50610351600480360381019061034c91906135d2565b610d1d565b60405161035e91906138f4565b60405180910390f35b34801561037357600080fd5b5061038e600480360381019061038991906135d2565b610e7a565b60405161039b91906137b7565b60405180910390f35b3480156103b057600080fd5b506103cb60048036038101906103c69190613942565b610ead565b6040516103d891906139e6565b60405180910390f35b3480156103ed57600080fd5b50610408600480360381019061040391906135d2565b610fec565b60405161041591906137b7565b60405180910390f35b34801561042a57600080fd5b50610445600480360381019061044091906135d2565b61101f565b60405161045291906137b7565b60405180910390f35b34801561046757600080fd5b50610482600480360381019061047d9190613942565b611052565b60405161048f9190613b01565b60405180910390f35b3480156104a457600080fd5b506104ad611230565b005b3480156104bb57600080fd5b506104d660048036038101906104d19190613942565b611244565b6040516104e39190613c31565b60405180910390f35b61050660048036038101906105019190613592565b611413565b005b610522600480360381019061051d9190613592565b611540565b005b34801561053057600080fd5b50610539611663565b60405161054691906137b7565b60405180910390f35b61056960048036038101906105649190613592565b61168c565b005b34801561057757600080fd5b50610592600480360381019061058d91906135d2565b6117af565b6040516105a3959493929190613c62565b60405180910390f35b3480156105b857600080fd5b506105d360048036038101906105ce9190613942565b61181c565b6040516105e09190613cb5565b60405180910390f35b3480156105f557600080fd5b50610610600480360381019061060b91906135d2565b611834565b60405161061f93929190613cdf565b60405180910390f35b34801561063457600080fd5b5061064f600480360381019061064a9190613d16565b611889565b005b34801561065d57600080fd5b5061067860048036038101906106739190613942565b6119f8565b6040516106859190613f76565b60405180910390f35b34801561069a57600080fd5b506106b560048036038101906106b091906140e0565b611c76565b005b3480156106c357600080fd5b506106de60048036038101906106d99190613d16565b611ff9565b005b3480156106ec57600080fd5b50610707600480360381019061070291906141f1565b612168565b005b34801561071557600080fd5b50610730600480360381019061072b9190613942565b6123da565b005b34801561073e57600080fd5b50610759600480360381019061075491906135d2565b61245d565b60405161076e99989796959493929190614284565b60405180910390f35b610791600480360381019061078c9190613592565b612550565b005b34801561079f57600080fd5b506107ba60048036038101906107b591906135d2565b61267e565b005b81600f600082815260200190815260200160002060009054906101000a900473ffffffffffffffffffffffffffffffffffffffff1673ffffffffffffffffffffffffffffffffffffffff163373ffffffffffffffffffffffffffffffffffffffff161461082857600080fd5b601754600c848154811061083f5761083e614318565b5b906000526020600020906002020160010160009054906101000a900463ffffffff168360ff1661086f9190614376565b63ffffffff1661087f91906143b4565b341461088a57600080fd5b8160ff16600c84815481106108a2576108a1614318565b5b906000526020600020906002020160010160008282829054906101000a900463ffffffff166108d1919061440e565b92506101000a81548163ffffffff021916908363ffffffff160217905550505050565b601e6020528060005260406000206000915090508060000154908060010154908060020154908060030154908060050154908060060160009054906101000a900460ff16905086565b601d818154811061094d57600080fd5b9060005260206000209060060201600091509050806000015490806001015490806002015490806003016040518060600160405290816000820154815260200160018201548152602001600282015481525050905084565b600a8082815481106109ba576109b9614318565b5b906000526020600020906009020160040160009054906101000a900460ff166109e39190614477565b60ff166018546109f391906143b4565b34148015610a6757506001600a8281548110610a1257610a11614318565b5b906000526020600020906009020160040160009054906101000a900460ff16610a3b91906144a8565b60ff16600a8281548110610a5257610a51614318565b5b90600052602060002090600902016006015410155b610a7057600080fd5b600a8181548110610a8457610a83614318565b5b9060005260206000209060090201600401600081819054906101000a900460ff1680929190610ab2906144df565b91906101000a81548160ff021916908360ff160217905550506000600a8281548110610ae157610ae0614318565b5b9060005260206000209060090201600601819055506000600a8281548110610b0c57610b0b614318565b5b90600052602060002090600902016007018190555050565b600c8181548110610b3457600080fd5b90600052602060002090600202016000915090508060000154908060010160009054906101000a900463ffffffff16908060010160049054906101000a900463ffffffff16905083565b60003390506000600180549050905060016040518060a00160405280838152602001600060149054906101000a900460ff1660ff168152602001600060159054906101000a900460ff1660ff168152602001600060149054906101000a900460ff1660ff1681526020014263ffffffff1681525090806001815401808255809150506001900390600052602060002090600302016000909190919091506000820151816000015560208201518160010160006101000a81548160ff021916908360ff16021790555060408201518160010160016101000a81548160ff021916908360ff16021790555060608201518160010160026101000a81548160ff021916908360ff160217905550608082015181600201555050816002600083815260200190815260200160002060006101000a81548173ffffffffffffffffffffffffffffffffffffffff021916908373ffffffffffffffffffffffffffffffffffffffff1602179055505050565b600d6020528060005260406000206000915054906101000a900473ffffffffffffffffffffffffffffffffffffffff1681565b6060601e600083815260200190815260200160002060060160009054906101000a900460ff16610d82576040517f08c379a0000000000000000000000000000000000000000000000000000000008152600401610d7990614554565b60405180910390fd5b601e6000838152602001908152602001600020600401805480602002602001604051908101604052809291908181526020016000905b82821015610e6f57838290600052602060002090600302016040518060800160405290816000820160009054906101000a900473ffffffffffffffffffffffffffffffffffffffff1673ffffffffffffffffffffffffffffffffffffffff1673ffffffffffffffffffffffffffffffffffffffff1681526020016000820160149054906101000a900460ff161515151581526020016001820154815260200160028201548152505081526020019060010190610db8565b505050509050919050565b600f6020528060005260406000206000915054906101000a900473ffffffffffffffffffffffffffffffffffffffff1681565b610eb5613390565b600080600090505b600180549050811015610f4b578373ffffffffffffffffffffffffffffffffffffffff166002600083815260200190815260200160002060009054906101000a900473ffffffffffffffffffffffffffffffffffffffff1673ffffffffffffffffffffffffffffffffffffffff1603610f3857809150610f4b565b8080610f4390614574565b915050610ebd565b5060018181548110610f6057610f5f614318565b5b90600052602060002090600302016040518060a0016040529081600082015481526020016001820160009054906101000a900460ff1660ff1660ff1681526020016001820160019054906101000a900460ff1660ff1660ff1681526020016001820160029054906101000a900460ff1660ff1660ff168152602001600282015481525050915050919050565b60026020528060005260406000206000915054906101000a900473ffffffffffffffffffffffffffffffffffffffff1681565b600e6020528060005260406000206000915054906101000a900473ffffffffffffffffffffffffffffffffffffffff1681565b60606000601160008473ffffffffffffffffffffffffffffffffffffffff1673ffffffffffffffffffffffffffffffffffffffff1681526020019081526020016000205467ffffffffffffffff8111156110af576110ae613f9d565b5b6040519080825280602002602001820160405280156110e857816020015b6110d56133c8565b8152602001906001900390816110cd5790505b5090506000805b600c80549050811015611225578473ffffffffffffffffffffffffffffffffffffffff16600f600083815260200190815260200160002060009054906101000a900473ffffffffffffffffffffffffffffffffffffffff1673ffffffffffffffffffffffffffffffffffffffff160361121257600c818154811061117657611175614318565b5b9060005260206000209060020201604051806060016040529081600082015481526020016001820160009054906101000a900463ffffffff1663ffffffff1663ffffffff1681526020016001820160049054906101000a900463ffffffff1663ffffffff1663ffffffff16815250508383815181106111f8576111f7614318565b5b6020026020010181905250818061120e90614574565b9250505b808061121d90614574565b9150506110ef565b508192505050919050565b611238612cdf565b6112426000612d5d565b565b60606000601160008473ffffffffffffffffffffffffffffffffffffffff1673ffffffffffffffffffffffffffffffffffffffff1681526020019081526020016000205467ffffffffffffffff8111156112a1576112a0613f9d565b5b6040519080825280602002602001820160405280156112da57816020015b6112c76133f5565b8152602001906001900390816112bf5790505b5090506000805b600b80549050811015611408578473ffffffffffffffffffffffffffffffffffffffff16600e600083815260200190815260200160002060009054906101000a900473ffffffffffffffffffffffffffffffffffffffff1673ffffffffffffffffffffffffffffffffffffffff16036113f557600b818154811061136857611367614318565b5b9060005260206000209060020201604051806060016040529081600082015481526020016001820160009054906101000a900461ffff1661ffff1661ffff1681526020016001820160029054906101000a900460ff1660ff1660ff16815250508383815181106113db576113da614318565b5b602002602001018190525081806113f190614574565b9250505b808061140090614574565b9150506112e1565b508192505050919050565b81600e600082815260200190815260200160002060009054906101000a900473ffffffffffffffffffffffffffffffffffffffff1673ffffffffffffffffffffffffffffffffffffffff163373ffffffffffffffffffffffffffffffffffffffff161461147f57600080fd5b600b838154811061149357611492614318565b5b906000526020600020906002020160010160029054906101000a900460ff16600a6114be91906145bc565b60026114ca9190614723565b6016546114d791906143b4565b34146114e257600080fd5b81600b84815481106114f7576114f6614318565b5b906000526020600020906002020160010160028282829054906101000a900460ff1661152391906145bc565b92506101000a81548160ff021916908360ff160217905550505050565b816002600082815260200190815260200160002060009054906101000a900473ffffffffffffffffffffffffffffffffffffffff1673ffffffffffffffffffffffffffffffffffffffff163373ffffffffffffffffffffffffffffffffffffffff16146115ac57600080fd5b601454600184815481106115c3576115c2614318565b5b906000526020600020906003020160010160019054906101000a900460ff16836115ed919061476e565b60ff166115fa91906143b4565b341461160557600080fd5b816001848154811061161a57611619614318565b5b906000526020600020906003020160010160018282829054906101000a900460ff1661164691906144a8565b92506101000a81548160ff021916908360ff160217905550505050565b60008060009054906101000a900473ffffffffffffffffffffffffffffffffffffffff16905090565b816002600082815260200190815260200160002060009054906101000a900473ffffffffffffffffffffffffffffffffffffffff1673ffffffffffffffffffffffffffffffffffffffff163373ffffffffffffffffffffffffffffffffffffffff16146116f857600080fd5b6013546001848154811061170f5761170e614318565b5b906000526020600020906003020160010160009054906101000a900460ff1683611739919061476e565b60ff1661174691906143b4565b341461175157600080fd5b816001848154811061176657611765614318565b5b906000526020600020906003020160010160008282829054906101000a900460ff1661179291906144a8565b92506101000a81548160ff021916908360ff160217905550505050565b600181815481106117bf57600080fd5b90600052602060002090600302016000915090508060000154908060010160009054906101000a900460ff16908060010160019054906101000a900460ff16908060010160029054906101000a900460ff16908060020154905085565b60106020528060005260406000206000915090505481565b600b818154811061184457600080fd5b90600052602060002090600202016000915090508060000154908060010160009054906101000a900461ffff16908060010160029054906101000a900460ff16905083565b80600e600082815260200190815260200160002060009054906101000a900473ffffffffffffffffffffffffffffffffffffffff1673ffffffffffffffffffffffffffffffffffffffff163373ffffffffffffffffffffffffffffffffffffffff16146118f557600080fd5b82600d600082815260200190815260200160002060009054906101000a900473ffffffffffffffffffffffffffffffffffffffff1673ffffffffffffffffffffffffffffffffffffffff163373ffffffffffffffffffffffffffffffffffffffff161461196157600080fd5b82600a858154811061197657611975614318565b5b906000526020600020906009020160020154036119c8576040517f08c379a00000000000000000000000000000000000000000000000000000000081526004016119bf906147f5565b60405180910390fd5b82600a85815481106119dd576119dc614318565b5b90600052602060002090600902016002018190555050505050565b60606000601060008473ffffffffffffffffffffffffffffffffffffffff1673ffffffffffffffffffffffffffffffffffffffff1681526020019081526020016000205467ffffffffffffffff811115611a5557611a54613f9d565b5b604051908082528060200260200182016040528015611a8e57816020015b611a7b61341d565b815260200190600190039081611a735790505b5090506000805b600c80549050811015611c6b578473ffffffffffffffffffffffffffffffffffffffff16600d600083815260200190815260200160002060009054906101000a900473ffffffffffffffffffffffffffffffffffffffff1673ffffffffffffffffffffffffffffffffffffffff1603611c5857600a8181548110611b1c57611b1b614318565b5b906000526020600020906009020160405180610120016040529081600082018054611b4690614844565b80601f0160208091040260200160405190810160405280929190818152602001828054611b7290614844565b8015611bbf5780601f10611b9457610100808354040283529160200191611bbf565b820191906000526020600020905b815481529060010190602001808311611ba257829003601f168201915b505050505081526020016001820154815260200160028201548152602001600382015481526020016004820160009054906101000a900460ff1660ff1660ff168152602001600582015481526020016006820154815260200160078201548152602001600882015481525050838381518110611c3e57611c3d614318565b5b60200260200101819052508180611c5490614574565b9250505b8080611c6390614574565b915050611a95565b508192505050919050565b81601a60003373ffffffffffffffffffffffffffffffffffffffff1673ffffffffffffffffffffffffffffffffffffffff1681526020019081526020016000205414611cf7576040517f08c379a0000000000000000000000000000000000000000000000000000000008152600401611cee906148c1565b60405180910390fd5b6000601e6000848152602001908152602001600020600201549050600073__PDDLib________________________________639c63eb2e83856040518363ffffffff1660e01b8152600401611d4d9291906149ae565b602060405180830381865af4158015611d6a573d6000803e3d6000fd5b505050506040513d601f19601f82011682018060405250810190611d8e9190614a0a565b9050600060405180608001604052803373ffffffffffffffffffffffffffffffffffffffff1681526020018315158152602001428152602001601b60003373ffffffffffffffffffffffffffffffffffffffff1673ffffffffffffffffffffffffffffffffffffffff1681526020019081526020016000205481525090506000601e600087815260200190815260200160002090508060040182908060018154018082558091505060019003906000526020600020906003020160009091909190915060008201518160000160006101000a81548173ffffffffffffffffffffffffffffffffffffffff021916908373ffffffffffffffffffffffffffffffffffffffff16021790555060208201518160000160146101000a81548160ff02191690831515021790555060408201518160010155606082015181600201555050601e600087815260200190815260200160002060000154601e60008881526020019081526020016000206004018054905003611ff1577f67acaceb58ff1ad2aa8b3069f69c4cd076824e06a09184b75fb197ead7040be786604051611f339190613cb5565b60405180910390a16001601e600088815260200190815260200160002060060160006101000a81548160ff021916908315150217905550601a60003373ffffffffffffffffffffffffffffffffffffffff1673ffffffffffffffffffffffffffffffffffffffff16815260200190815260200160002060009055601b60003373ffffffffffffffffffffffffffffffffffffffff1673ffffffffffffffffffffffffffffffffffffffff168152602001908152602001600020600090555b505050505050565b80600f600082815260200190815260200160002060009054906101000a900473ffffffffffffffffffffffffffffffffffffffff1673ffffffffffffffffffffffffffffffffffffffff163373ffffffffffffffffffffffffffffffffffffffff161461206557600080fd5b82600d600082815260200190815260200160002060009054906101000a900473ffffffffffffffffffffffffffffffffffffffff1673ffffffffffffffffffffffffffffffffffffffff163373ffffffffffffffffffffffffffffffffffffffff16146120d157600080fd5b82600a85815481106120e6576120e5614318565b5b90600052602060002090600902016003015403612138576040517f08c379a000000000000000000000000000000000000000000000000000000000815260040161212f90614a83565b60405180910390fd5b82600a858154811061214d5761214c614318565b5b90600052602060002090600902016003018190555050505050565b6000601060003373ffffffffffffffffffffffffffffffffffffffff1673ffffffffffffffffffffffffffffffffffffffff16815260200190815260200160002054146121b457600080fd5b6000816121c042612e21565b6040516020016121d1929190614adf565b60405160208183030381529060405290506000816040516020016121f59190614b03565b6040516020818303038152906040528051906020012060001c9050600061221a612eef565b90506000612226613092565b90506000600a805490509050600a604051806101200160405280888152602001868152602001858152602001848152602001600160ff16815260200160008152602001600081526020016000815260200183815250908060018154018082558091505060019003906000526020600020906009020160009091909190915060008201518160000190805190602001906122c092919061346c565b5060208201518160010155604082015181600201556060820151816003015560808201518160040160006101000a81548160ff021916908360ff16021790555060a0820151816005015560c0820151816006015560e082015181600701556101008201518160080155505033600d600083815260200190815260200160002060006101000a81548173ffffffffffffffffffffffffffffffffffffffff021916908373ffffffffffffffffffffffffffffffffffffffff160217905550601060003373ffffffffffffffffffffffffffffffffffffffff1673ffffffffffffffffffffffffffffffffffffffff16815260200190815260200160002060008154809291906123cd90614574565b9190505550505050505050565b6123e2612cdf565b600073ffffffffffffffffffffffffffffffffffffffff168173ffffffffffffffffffffffffffffffffffffffff1603612451576040517f08c379a000000000000000000000000000000000000000000000000000000000815260040161244890614b8c565b60405180910390fd5b61245a81612d5d565b50565b600a818154811061246d57600080fd5b906000526020600020906009020160009150905080600001805461249090614844565b80601f01602080910402602001604051908101604052809291908181526020018280546124bc90614844565b80156125095780601f106124de57610100808354040283529160200191612509565b820191906000526020600020905b8154815290600101906020018083116124ec57829003601f168201915b5050505050908060010154908060020154908060030154908060040160009054906101000a900460ff16908060050154908060060154908060070154908060080154905089565b81600e600082815260200190815260200160002060009054906101000a900473ffffffffffffffffffffffffffffffffffffffff1673ffffffffffffffffffffffffffffffffffffffff163373ffffffffffffffffffffffffffffffffffffffff16146125bc57600080fd5b601554600b84815481106125d3576125d2614318565b5b906000526020600020906002020160010160009054906101000a900461ffff168360ff166126019190614bac565b61ffff1661260f91906143b4565b341461261a57600080fd5b8160ff16600b848154811061263257612631614318565b5b906000526020600020906002020160010160008282829054906101000a900461ffff1661265f9190614be8565b92506101000a81548161ffff021916908361ffff160217905550505050565b80600d600082815260200190815260200160002060009054906101000a900473ffffffffffffffffffffffffffffffffffffffff1673ffffffffffffffffffffffffffffffffffffffff163373ffffffffffffffffffffffffffffffffffffffff16146126ea57600080fd5b6000805b601d80549050811015612b2a57601d818154811061270f5761270e614318565b5b9060005260206000209060060201600201546001600a80878154811061273857612737614318565b5b906000526020600020906009020160040160009054906101000a900460ff166127619190614477565b61276b91906144a8565b60ff1603612b175760019150601d818154811061278b5761278a614318565b5b906000526020600020906006020160000154601a60003373ffffffffffffffffffffffffffffffffffffffff1673ffffffffffffffffffffffffffffffffffffffff1681526020019081526020016000208190555083601b60003373ffffffffffffffffffffffffffffffffffffffff1673ffffffffffffffffffffffffffffffffffffffff16815260200190815260200160002081905550601d818154811061283857612837614318565b5b9060005260206000209060060201600101600081548092919061285a90614574565b9190505550601d818154811061287357612872614318565b5b906000526020600020906006020160030160000154601d828154811061289c5761289b614318565b5b90600052602060002090600602016001015403612b1657600073__PDDLib________________________________63c037e545601d84815481106128e3576128e2614318565b5b906000526020600020906006020160030160020154601d858154811061290c5761290b614318565b5b9060005260206000209060060201600301600001546040518363ffffffff1660e01b815260040161293e929190614c20565b602060405180830381865af415801561295b573d6000803e3d6000fd5b505050506040513d601f19601f8201168201806040525081019061297f9190614c5e565b90506000601e6000601d858154811061299b5761299a614318565b5b90600052602060002090600602016000015481526020019081526020016000209050601d83815481106129d1576129d0614318565b5b9060005260206000209060060201600301600001548160000181905550601d8381548110612a0257612a01614318565b5b90600052602060002090600602016002015481600101819055508181600201819055504281600301819055506000816005018190555060008160060160006101000a81548160ff0219169083151502179055507f2838ebeee7dc83fac85a3d6dbca0c0b6771591ada8b00f97371aa6611e631f9c601d8481548110612a8a57612a89614318565b5b90600052602060002090600602016000015483604051612aab929190614c8b565b60405180910390a1601d8381548110612ac757612ac6614318565b5b9060005260206000209060060201600080820160009055600182016000905560028201600090556003820160008082016000905560018201600090556002820160009055505050505050612b2a565b5b8080612b2290614574565b9150506126ee565b508015612b375750612cdb565b6000601c6000815480929190612b4c90614574565b919050559050600060198054905042612b659190614cb4565b905081601a60003373ffffffffffffffffffffffffffffffffffffffff1673ffffffffffffffffffffffffffffffffffffffff16815260200190815260200160002081905550601d6040518060800160405280848152602001600181526020016001600a808a81548110612bdc57612bdb614318565b5b906000526020600020906009020160040160009054906101000a900460ff16612c059190614477565b612c0f91906144a8565b60ff16815260200160198481548110612c2b57612c2a614318565b5b906000526020600020906003020160405180606001604052908160008201548152602001600182015481526020016002820154815250508152509080600181540180825580915050600190039060005260206000209060060201600090919091909150600082015181600001556020820151816001015560408201518160020155606082015181600301600082015181600001556020820151816001015560408201518160020155505050505050505b5050565b612ce7613235565b73ffffffffffffffffffffffffffffffffffffffff16612d05611663565b73ffffffffffffffffffffffffffffffffffffffff1614612d5b576040517f08c379a0000000000000000000000000000000000000000000000000000000008152600401612d5290614d31565b60405180910390fd5b565b60008060009054906101000a900473ffffffffffffffffffffffffffffffffffffffff169050816000806101000a81548173ffffffffffffffffffffffffffffffffffffffff021916908373ffffffffffffffffffffffffffffffffffffffff1602179055508173ffffffffffffffffffffffffffffffffffffffff168173ffffffffffffffffffffffffffffffffffffffff167f8be0079c531659141344cd1fd0a4f28419497f9722a3daafe3b4186f6b6457e060405160405180910390a35050565b606060006001612e308461323d565b01905060008167ffffffffffffffff811115612e4f57612e4e613f9d565b5b6040519080825280601f01601f191660200182016040528015612e815781602001600182028036833780820191505090505b509050600082602001820190505b600115612ee4578080600190039150507f3031323334353637383961626364656600000000000000000000000000000000600a86061a8153600a8581612ed857612ed7614448565b5b04945060008503612e8f575b819350505050919050565b600080600354600454612f029190614d51565b42612f0d9190614cb4565b600354612f1a9190614d85565b9050600060086000815480929190612f3190614574565b919050559050600b60405180606001604052808381526020018461ffff168152602001600560009054906101000a900460ff1660ff1681525090806001815401808255809150506001900390600052602060002090600202016000909190919091506000820151816000015560208201518160010160006101000a81548161ffff021916908361ffff16021790555060408201518160010160026101000a81548160ff021916908360ff1602179055505050601160003373ffffffffffffffffffffffffffffffffffffffff1673ffffffffffffffffffffffffffffffffffffffff168152602001908152602001600020600081548092919061303390614574565b919050555033600e600083815260200190815260200160002060006101000a81548173ffffffffffffffffffffffffffffffffffffffff021916908373ffffffffffffffffffffffffffffffffffffffff160217905550809250505090565b6000806006546007546130a59190614d51565b426130b09190614cb4565b6006546130bd9190614d85565b90506000600960008154809291906130d490614574565b919050559050600c60405180606001604052808381526020018463ffffffff1681526020018463ffffffff1681525090806001815401808255809150506001900390600052602060002090600202016000909190919091506000820151816000015560208201518160010160006101000a81548163ffffffff021916908363ffffffff16021790555060408201518160010160046101000a81548163ffffffff021916908363ffffffff1602179055505050601260003373ffffffffffffffffffffffffffffffffffffffff1673ffffffffffffffffffffffffffffffffffffffff16815260200190815260200160002060008154809291906131d690614574565b919050555033600f600083815260200190815260200160002060006101000a81548173ffffffffffffffffffffffffffffffffffffffff021916908373ffffffffffffffffffffffffffffffffffffffff160217905550809250505090565b600033905090565b600080600090507a184f03e93ff9f4daa797ed6e38ed64bf6a1f010000000000000000831061329b577a184f03e93ff9f4daa797ed6e38ed64bf6a1f010000000000000000838161329157613290614448565b5b0492506040810190505b6d04ee2d6d415b85acef810000000083106132d8576d04ee2d6d415b85acef810000000083816132ce576132cd614448565b5b0492506020810190505b662386f26fc10000831061330757662386f26fc1000083816132fd576132fc614448565b5b0492506010810190505b6305f5e1008310613330576305f5e100838161332657613325614448565b5b0492506008810190505b612710831061335557612710838161334b5761334a614448565b5b0492506004810190505b60648310613378576064838161336e5761336d614448565b5b0492506002810190505b600a8310613387576001810190505b80915050919050565b6040518060a0016040528060008152602001600060ff168152602001600060ff168152602001600060ff168152602001600081525090565b604051806060016040528060008152602001600063ffffffff168152602001600063ffffffff1681525090565b604051806060016040528060008152602001600061ffff168152602001600060ff1681525090565b60405180610120016040528060608152602001600081526020016000815260200160008152602001600060ff168152602001600081526020016000815260200160008152602001600081525090565b82805461347890614844565b90600052602060002090601f01602090048101928261349a57600085556134e1565b82601f106134b357805160ff19168380011785556134e1565b828001600101855582156134e1579182015b828111156134e05782518255916020019190600101906134c5565b5b5090506134ee91906134f2565b5090565b5b8082111561350b5760008160009055506001016134f3565b5090565b6000604051905090565b600080fd5b600080fd5b6000819050919050565b61353681613523565b811461354157600080fd5b50565b6000813590506135538161352d565b92915050565b600060ff82169050919050565b61356f81613559565b811461357a57600080fd5b50565b60008135905061358c81613566565b92915050565b600080604083850312156135a9576135a8613519565b5b60006135b785828601613544565b92505060206135c88582860161357d565b9150509250929050565b6000602082840312156135e8576135e7613519565b5b60006135f684828501613544565b91505092915050565b61360881613523565b82525050565b60008115159050919050565b6136238161360e565b82525050565b600060c08201905061363e60008301896135ff565b61364b60208301886135ff565b61365860408301876135ff565b61366560608301866135ff565b61367260808301856135ff565b61367f60a083018461361a565b979650505050505050565b61369381613523565b82525050565b6060820160008201516136af600085018261368a565b5060208201516136c2602085018261368a565b5060408201516136d5604085018261368a565b50505050565b600060c0820190506136f060008301876135ff565b6136fd60208301866135ff565b61370a60408301856135ff565b6137176060830184613699565b95945050505050565b600063ffffffff82169050919050565b61373981613720565b82525050565b600060608201905061375460008301866135ff565b6137616020830185613730565b61376e6040830184613730565b949350505050565b600073ffffffffffffffffffffffffffffffffffffffff82169050919050565b60006137a182613776565b9050919050565b6137b181613796565b82525050565b60006020820190506137cc60008301846137a8565b92915050565b600081519050919050565b600082825260208201905092915050565b6000819050602082019050919050565b61380781613796565b82525050565b6138168161360e565b82525050565b60808201600082015161383260008501826137fe565b506020820151613845602085018261380d565b506040820151613858604085018261368a565b50606082015161386b606085018261368a565b50505050565b600061387d838361381c565b60808301905092915050565b6000602082019050919050565b60006138a1826137d2565b6138ab81856137dd565b93506138b6836137ee565b8060005b838110156138e75781516138ce8882613871565b97506138d983613889565b9250506001810190506138ba565b5085935050505092915050565b6000602082019050818103600083015261390e8184613896565b905092915050565b61391f81613796565b811461392a57600080fd5b50565b60008135905061393c81613916565b92915050565b60006020828403121561395857613957613519565b5b60006139668482850161392d565b91505092915050565b61397881613559565b82525050565b60a082016000820151613994600085018261368a565b5060208201516139a7602085018261396f565b5060408201516139ba604085018261396f565b5060608201516139cd606085018261396f565b5060808201516139e0608085018261368a565b50505050565b600060a0820190506139fb600083018461397e565b92915050565b600081519050919050565b600082825260208201905092915050565b6000819050602082019050919050565b613a3681613720565b82525050565b606082016000820151613a52600085018261368a565b506020820151613a656020850182613a2d565b506040820151613a786040850182613a2d565b50505050565b6000613a8a8383613a3c565b60608301905092915050565b6000602082019050919050565b6000613aae82613a01565b613ab88185613a0c565b9350613ac383613a1d565b8060005b83811015613af4578151613adb8882613a7e565b9750613ae683613a96565b925050600181019050613ac7565b5085935050505092915050565b60006020820190508181036000830152613b1b8184613aa3565b905092915050565b600081519050919050565b600082825260208201905092915050565b6000819050602082019050919050565b600061ffff82169050919050565b613b6681613b4f565b82525050565b606082016000820151613b82600085018261368a565b506020820151613b956020850182613b5d565b506040820151613ba8604085018261396f565b50505050565b6000613bba8383613b6c565b60608301905092915050565b6000602082019050919050565b6000613bde82613b23565b613be88185613b2e565b9350613bf383613b3f565b8060005b83811015613c24578151613c0b8882613bae565b9750613c1683613bc6565b925050600181019050613bf7565b5085935050505092915050565b60006020820190508181036000830152613c4b8184613bd3565b905092915050565b613c5c81613559565b82525050565b600060a082019050613c7760008301886135ff565b613c846020830187613c53565b613c916040830186613c53565b613c9e6060830185613c53565b613cab60808301846135ff565b9695505050505050565b6000602082019050613cca60008301846135ff565b92915050565b613cd981613b4f565b82525050565b6000606082019050613cf460008301866135ff565b613d016020830185613cd0565b613d0e6040830184613c53565b949350505050565b60008060408385031215613d2d57613d2c613519565b5b6000613d3b85828601613544565b9250506020613d4c85828601613544565b9150509250929050565b600081519050919050565b600082825260208201905092915050565b6000819050602082019050919050565b600081519050919050565b600082825260208201905092915050565b60005b83811015613dbc578082015181840152602081019050613da1565b83811115613dcb576000848401525b50505050565b6000601f19601f8301169050919050565b6000613ded82613d82565b613df78185613d8d565b9350613e07818560208601613d9e565b613e1081613dd1565b840191505092915050565b6000610120830160008301518482036000860152613e398282613de2565b9150506020830151613e4e602086018261368a565b506040830151613e61604086018261368a565b506060830151613e74606086018261368a565b506080830151613e87608086018261396f565b5060a0830151613e9a60a086018261368a565b5060c0830151613ead60c086018261368a565b5060e0830151613ec060e086018261368a565b50610100830151613ed561010086018261368a565b508091505092915050565b6000613eec8383613e1b565b905092915050565b6000602082019050919050565b6000613f0c82613d56565b613f168185613d61565b935083602082028501613f2885613d72565b8060005b85811015613f645784840389528151613f458582613ee0565b9450613f5083613ef4565b925060208a01995050600181019050613f2c565b50829750879550505050505092915050565b60006020820190508181036000830152613f908184613f01565b905092915050565b600080fd5b7f4e487b7100000000000000000000000000000000000000000000000000000000600052604160045260246000fd5b613fd582613dd1565b810181811067ffffffffffffffff82111715613ff457613ff3613f9d565b5b80604052505050565b600061400761350f565b90506140138282613fcc565b919050565b600067ffffffffffffffff82111561403357614032613f9d565b5b602082029050602081019050919050565b600080fd5b600061405c61405784614018565b613ffd565b9050808382526020820190506020840283018581111561407f5761407e614044565b5b835b818110156140a857806140948882613544565b845260208401935050602081019050614081565b5050509392505050565b600082601f8301126140c7576140c6613f98565b5b81356140d7848260208601614049565b91505092915050565b600080604083850312156140f7576140f6613519565b5b600061410585828601613544565b925050602083013567ffffffffffffffff8111156141265761412561351e565b5b614132858286016140b2565b9150509250929050565b600080fd5b600067ffffffffffffffff82111561415c5761415b613f9d565b5b61416582613dd1565b9050602081019050919050565b82818337600083830152505050565b600061419461418f84614141565b613ffd565b9050828152602081018484840111156141b0576141af61413c565b5b6141bb848285614172565b509392505050565b600082601f8301126141d8576141d7613f98565b5b81356141e8848260208601614181565b91505092915050565b60006020828403121561420757614206613519565b5b600082013567ffffffffffffffff8111156142255761422461351e565b5b614231848285016141c3565b91505092915050565b600082825260208201905092915050565b600061425682613d82565b614260818561423a565b9350614270818560208601613d9e565b61427981613dd1565b840191505092915050565b600061012082019050818103600083015261429f818c61424b565b90506142ae602083018b6135ff565b6142bb604083018a6135ff565b6142c860608301896135ff565b6142d56080830188613c53565b6142e260a08301876135ff565b6142ef60c08301866135ff565b6142fc60e08301856135ff565b61430a6101008301846135ff565b9a9950505050505050505050565b7f4e487b7100000000000000000000000000000000000000000000000000000000600052603260045260246000fd5b7f4e487b7100000000000000000000000000000000000000000000000000000000600052601160045260246000fd5b600061438182613720565b915061438c83613720565b92508163ffffffff04831182151516156143a9576143a8614347565b5b828202905092915050565b60006143bf82613523565b91506143ca83613523565b9250817fffffffffffffffffffffffffffffffffffffffffffffffffffffffffffffffff048311821515161561440357614402614347565b5b828202905092915050565b600061441982613720565b915061442483613720565b92508263ffffffff0382111561443d5761443c614347565b5b828201905092915050565b7f4e487b7100000000000000000000000000000000000000000000000000000000600052601260045260246000fd5b600061448282613559565b915061448d83613559565b92508261449d5761449c614448565b5b828204905092915050565b60006144b382613559565b91506144be83613559565b92508260ff038211156144d4576144d3614347565b5b828201905092915050565b60006144ea82613559565b915060ff82036144fd576144fc614347565b5b600182019050919050565b7f726f6f6d206e6f7420636c6f7365640000000000000000000000000000000000600082015250565b600061453e600f8361423a565b915061454982614508565b602082019050919050565b6000602082019050818103600083015261456d81614531565b9050919050565b600061457f82613523565b91507fffffffffffffffffffffffffffffffffffffffffffffffffffffffffffffffff82036145b1576145b0614347565b5b600182019050919050565b60006145c782613559565b91506145d283613559565b9250828210156145e5576145e4614347565b5b828203905092915050565b60008160011c9050919050565b6000808291508390505b60018511156146475780860481111561462357614622614347565b5b60018516156146325780820291505b8081029050614640856145f0565b9450614607565b94509492505050565b600082614660576001905061471c565b8161466e576000905061471c565b8160018114614684576002811461468e576146bd565b600191505061471c565b60ff8411156146a05761469f614347565b5b8360020a9150848211156146b7576146b6614347565b5b5061471c565b5060208310610133831016604e8410600b84101617156146f25782820a9050838111156146ed576146ec614347565b5b61471c565b6146ff84848460016145fd565b9250905081840481111561471657614715614347565b5b81810290505b9392505050565b600061472e82613523565b915061473983613559565b92506147667fffffffffffffffffffffffffffffffffffffffffffffffffffffffffffffffff8484614650565b905092915050565b600061477982613559565b915061478483613559565b92508160ff048311821515161561479e5761479d614347565b5b828202905092915050565b7f73616d6520656e67696e65000000000000000000000000000000000000000000600082015250565b60006147df600b8361423a565b91506147ea826147a9565b602082019050919050565b6000602082019050818103600083015261480e816147d2565b9050919050565b7f4e487b7100000000000000000000000000000000000000000000000000000000600052602260045260246000fd5b6000600282049050600182168061485c57607f821691505b60208210810361486f5761486e614815565b5b50919050565b7f6e6f7420796f757220726f6f6d00000000000000000000000000000000000000600082015250565b60006148ab600d8361423a565b91506148b682614875565b602082019050919050565b600060208201905081810360008301526148da8161489e565b9050919050565b6148ea81613523565b82525050565b600081519050919050565b600082825260208201905092915050565b6000819050602082019050919050565b61492581613523565b82525050565b6000614937838361491c565b60208301905092915050565b6000602082019050919050565b600061495b826148f0565b61496581856148fb565b93506149708361490c565b8060005b838110156149a1578151614988888261492b565b975061499383614943565b925050600181019050614974565b5085935050505092915050565b60006040820190506149c360008301856148e1565b81810360208301526149d58184614950565b90509392505050565b6149e78161360e565b81146149f257600080fd5b50565b600081519050614a04816149de565b92915050565b600060208284031215614a2057614a1f613519565b5b6000614a2e848285016149f5565b91505092915050565b7f73616d6520636861737369730000000000000000000000000000000000000000600082015250565b6000614a6d600c8361423a565b9150614a7882614a37565b602082019050919050565b60006020820190508181036000830152614a9c81614a60565b9050919050565b600081905092915050565b6000614ab982613d82565b614ac38185614aa3565b9350614ad3818560208601613d9e565b80840191505092915050565b6000614aeb8285614aae565b9150614af78284614aae565b91508190509392505050565b6000614b0f8284614aae565b915081905092915050565b7f4f776e61626c653a206e6577206f776e657220697320746865207a65726f206160008201527f6464726573730000000000000000000000000000000000000000000000000000602082015250565b6000614b7660268361423a565b9150614b8182614b1a565b604082019050919050565b60006020820190508181036000830152614ba581614b69565b9050919050565b6000614bb782613b4f565b9150614bc283613b4f565b92508161ffff0483118215151615614bdd57614bdc614347565b5b828202905092915050565b6000614bf382613b4f565b9150614bfe83613b4f565b92508261ffff03821115614c1557614c14614347565b5b828201905092915050565b6000604082019050614c3560008301856148e1565b614c4260208301846148e1565b9392505050565b600081519050614c588161352d565b92915050565b600060208284031215614c7457614c73613519565b5b6000614c8284828501614c49565b91505092915050565b6000604082019050614ca060008301856135ff565b614cad60208301846135ff565b9392505050565b6000614cbf82613523565b9150614cca83613523565b925082614cda57614cd9614448565b5b828206905092915050565b7f4f776e61626c653a2063616c6c6572206973206e6f7420746865206f776e6572600082015250565b6000614d1b60208361423a565b9150614d2682614ce5565b602082019050919050565b60006020820190508181036000830152614d4a81614d0e565b9050919050565b6000614d5c82613523565b9150614d6783613523565b925082821015614d7a57614d79614347565b5b828203905092915050565b6000614d9082613523565b9150614d9b83613523565b9250827fffffffffffffffffffffffffffffffffffffffffffffffffffffffffffffffff03821115614dd057614dcf614347565b5b82820190509291505056fea2646970667358221220f3bfdfeefd572a2553ee4d54e720a4673c3f711285d254aa70ffeb280e745b4c64736f6c634300080d0033",
  "immutableReferences": {},
  "source": "// SPDX-License-Identifier: MIT\npragma solidity ^0.8.13;\n\nimport \"./PDDLib.sol\";\nimport \"./CarHelper.sol\";\nimport \"./CarFactory.sol\";\n\ncontract RaceHandler is CarHelper{\n    struct Cross{\n        uint playersNeeded;\n        uint roadsNum;\n        uint crossId;\n    }\n\n    Cross[] crosses;\n    \n    mapping(address => uint) playersToRooms;\n    mapping(address => uint) playersToCars;\n    struct OpenedRoom{\n        uint id;\n        uint playersEntered;\n        uint world;\n        Cross cross;\n    }\n    struct StartedRoom{\n        uint numberPlayers;\n        uint world;\n        uint roomDNA;\n        uint startTime;\n        Answer[] answers;\n        uint curAnswer;\n        bool closed;\n    }\n    struct Answer{\n        address player;\n        bool correct;\n        uint time;\n        uint carId;\n    }\n\n    uint roomsCount;\n\n    constructor(){\n        crosses.push(Cross(4,4,0));\n        crosses.push(Cross(3,4,0));\n        crosses.push(Cross(2,4,0));\n        crosses.push(Cross(3,3,1));\n        crosses.push(Cross(2,3,1));\n        roomsCount = 1;\n    }\n\n    event RoomFull(uint roomId, uint roomDNA);\n    event RoomClosed(uint roomId);\n\n    OpenedRoom[] public openedRooms;\n    mapping(uint => StartedRoom) public idToStartedRooms;\n\n    function findRoom(uint carId) public onlyOwnerOfCar(carId){\n        bool foundRoom = false;\n        for(uint i = 0; i<openedRooms.length; i++){\n            if(cars[carId].carLevel/10+1 != openedRooms[i].world){\n                continue;\n            }\n            foundRoom = true;\n            playersToRooms[msg.sender] = openedRooms[i].id;\n            playersToCars[msg.sender] = carId;\n            openedRooms[i].playersEntered++;\n            if(openedRooms[i].playersEntered == openedRooms[i].cross.playersNeeded){\n                uint roomDNA = PDDLib.generateRoom(openedRooms[i].cross.crossId, openedRooms[i].cross.playersNeeded);\n                \n                StartedRoom storage ss = idToStartedRooms[openedRooms[i].id];\n                ss.numberPlayers = openedRooms[i].cross.playersNeeded;\n                ss.world = openedRooms[i].world;\n                ss.roomDNA = roomDNA;\n                ss.startTime = block.timestamp;\n                ss.curAnswer = 0;\n                ss.closed = false;\n\n                emit RoomFull(openedRooms[i].id, roomDNA);\n                delete openedRooms[i];\n                break;\n            }\n        }\n\n        if(foundRoom){\n            return;\n        }\n        uint id = roomsCount++;\n        uint crossNum = block.timestamp%crosses.length;\n        playersToRooms[msg.sender] = id;\n        openedRooms.push(OpenedRoom(\n            id,\n            1,\n            cars[carId].carLevel/10+1,\n            crosses[crossNum]\n        ));\n    }\n\n    function getClosedRoom(uint roomId) public view returns(Answer[] memory){\n        require(idToStartedRooms[roomId].closed, \"room not closed\");\n        return idToStartedRooms[roomId].answers;\n    }\n\n\n\n    function commitAnswer(uint roomId, uint[] memory answer) public{\n        require(playersToRooms[msg.sender]==roomId, \"not your room\");\n\n        uint roomDNA = idToStartedRooms[roomId].roomDNA;\n        bool right = PDDLib.isCorrectAnswer(roomDNA, answer);\n        //Answer memory ans = Answer(msg.sender, right, block.timestamp);\n        \n        Answer memory ans = Answer(msg.sender, right, block.timestamp, playersToCars[msg.sender]);\n        StartedRoom storage sr = idToStartedRooms[roomId];\n        sr.answers.push(ans);\n\n        if(idToStartedRooms[roomId].answers.length == idToStartedRooms[roomId].numberPlayers){\n            emit RoomClosed(roomId);\n            idToStartedRooms[roomId].closed = true;\n            delete playersToRooms[msg.sender];\n            delete playersToCars[msg.sender];\n        }\n    }\n}\n",
  "sourcePath": "/Users/vvan/Programming/JavaScript/DriveSafely/contract/contracts/RaceHandler.sol",
  "compiler": {
    "name": "solc",
    "version": "0.8.13+commit.abaa5c0e.Emscripten.clang"
  },
  "schemaVersion": "3.4.11",
  "updatedAt": "2023-01-08T15:51:32.169Z",
  "networkType": "ethereum",
  "devdoc": {
    "kind": "dev",
    "methods": {
      "owner()": {
        "details": "Returns the address of the current owner."
      },
      "renounceOwnership()": {
        "details": "Leaves the contract without owner. It will not be possible to call `onlyOwner` functions anymore. Can only be called by the current owner. NOTE: Renouncing ownership will leave the contract without an owner, thereby removing any functionality that is only available to the owner."
      },
      "transferOwnership(address)": {
        "details": "Transfers ownership of the contract to a new account (`newOwner`). Can only be called by the current owner."
      }
    },
    "version": 1
  },
  "userdoc": {
    "kind": "user",
    "methods": {},
    "version": 1
  }
}