{
  "contractName": "RaceHandler",
  "abi": [
    {
      "inputs": [],
      "stateMutability": "nonpayable",
      "type": "constructor"
    },
    {
      "anonymous": false,
      "inputs": [
        {
          "indexed": true,
          "internalType": "address",
          "name": "previousOwner",
          "type": "address"
        },
        {
          "indexed": true,
          "internalType": "address",
          "name": "newOwner",
          "type": "address"
        }
      ],
      "name": "OwnershipTransferred",
      "type": "event"
    },
    {
      "anonymous": false,
      "inputs": [
        {
          "indexed": false,
          "internalType": "uint256",
          "name": "roomId",
          "type": "uint256"
        }
      ],
      "name": "RoomClosed",
      "type": "event"
    },
    {
      "anonymous": false,
      "inputs": [
        {
          "indexed": false,
          "internalType": "uint256",
          "name": "roomId",
          "type": "uint256"
        },
        {
          "indexed": false,
          "internalType": "uint256",
          "name": "roomDNA",
          "type": "uint256"
        }
      ],
      "name": "RoomFull",
      "type": "event"
    },
    {
      "inputs": [
        {
          "internalType": "uint256",
          "name": "",
          "type": "uint256"
        }
      ],
      "name": "carToOwner",
      "outputs": [
        {
          "internalType": "address",
          "name": "",
          "type": "address"
        }
      ],
      "stateMutability": "view",
      "type": "function",
      "constant": true
    },
    {
      "inputs": [
        {
          "internalType": "uint256",
          "name": "",
          "type": "uint256"
        }
      ],
      "name": "cars",
      "outputs": [
        {
          "internalType": "string",
          "name": "model",
          "type": "string"
        },
        {
          "internalType": "uint256",
          "name": "vin",
          "type": "uint256"
        },
        {
          "internalType": "uint256",
          "name": "engineId",
          "type": "uint256"
        },
        {
          "internalType": "uint256",
          "name": "chassisId",
          "type": "uint256"
        },
        {
          "internalType": "uint8",
          "name": "carLevel",
          "type": "uint8"
        },
        {
          "internalType": "uint256",
          "name": "mileage",
          "type": "uint256"
        },
        {
          "internalType": "uint256",
          "name": "winCountOnCurrentLevel",
          "type": "uint256"
        },
        {
          "internalType": "uint256",
          "name": "lossCountOnCurrentLevel",
          "type": "uint256"
        }
      ],
      "stateMutability": "view",
      "type": "function",
      "constant": true
    },
    {
      "inputs": [
        {
          "internalType": "uint256",
          "name": "",
          "type": "uint256"
        }
      ],
      "name": "chassis",
      "outputs": [
        {
          "internalType": "uint256",
          "name": "id",
          "type": "uint256"
        },
        {
          "internalType": "uint32",
          "name": "durability",
          "type": "uint32"
        },
        {
          "internalType": "uint32",
          "name": "resource",
          "type": "uint32"
        }
      ],
      "stateMutability": "view",
      "type": "function",
      "constant": true
    },
    {
      "inputs": [
        {
          "internalType": "uint256",
          "name": "",
          "type": "uint256"
        }
      ],
      "name": "chassisToOwner",
      "outputs": [
        {
          "internalType": "address",
          "name": "",
          "type": "address"
        }
      ],
      "stateMutability": "view",
      "type": "function",
      "constant": true
    },
    {
      "inputs": [],
      "name": "createCar",
      "outputs": [],
      "stateMutability": "nonpayable",
      "type": "function"
    },
    {
      "inputs": [],
      "name": "createFuelStation",
      "outputs": [],
      "stateMutability": "nonpayable",
      "type": "function"
    },
    {
      "inputs": [
        {
          "internalType": "uint256",
          "name": "",
          "type": "uint256"
        }
      ],
      "name": "engineToOwner",
      "outputs": [
        {
          "internalType": "address",
          "name": "",
          "type": "address"
        }
      ],
      "stateMutability": "view",
      "type": "function",
      "constant": true
    },
    {
      "inputs": [
        {
          "internalType": "uint256",
          "name": "",
          "type": "uint256"
        }
      ],
      "name": "engines",
      "outputs": [
        {
          "internalType": "uint256",
          "name": "id",
          "type": "uint256"
        },
        {
          "internalType": "uint16",
          "name": "horsePowers",
          "type": "uint16"
        },
        {
          "internalType": "uint16",
          "name": "consumtion",
          "type": "uint16"
        }
      ],
      "stateMutability": "view",
      "type": "function",
      "constant": true
    },
    {
      "inputs": [
        {
          "internalType": "uint256",
          "name": "",
          "type": "uint256"
        }
      ],
      "name": "fuelStationToOwner",
      "outputs": [
        {
          "internalType": "address",
          "name": "",
          "type": "address"
        }
      ],
      "stateMutability": "view",
      "type": "function",
      "constant": true
    },
    {
      "inputs": [
        {
          "internalType": "address",
          "name": "_owner",
          "type": "address"
        }
      ],
      "name": "getCarsByOwner",
      "outputs": [
        {
          "components": [
            {
              "internalType": "string",
              "name": "model",
              "type": "string"
            },
            {
              "internalType": "uint256",
              "name": "vin",
              "type": "uint256"
            },
            {
              "internalType": "uint256",
              "name": "engineId",
              "type": "uint256"
            },
            {
              "internalType": "uint256",
              "name": "chassisId",
              "type": "uint256"
            },
            {
              "internalType": "uint8",
              "name": "carLevel",
              "type": "uint8"
            },
            {
              "internalType": "uint256",
              "name": "mileage",
              "type": "uint256"
            },
            {
              "internalType": "uint256",
              "name": "winCountOnCurrentLevel",
              "type": "uint256"
            },
            {
              "internalType": "uint256",
              "name": "lossCountOnCurrentLevel",
              "type": "uint256"
            }
          ],
          "internalType": "struct CarFactory.Car[]",
          "name": "",
          "type": "tuple[]"
        }
      ],
      "stateMutability": "view",
      "type": "function",
      "constant": true
    },
    {
      "inputs": [
        {
          "internalType": "address",
          "name": "_owner",
          "type": "address"
        }
      ],
      "name": "getChassisByOwner",
      "outputs": [
        {
          "internalType": "uint256[]",
          "name": "",
          "type": "uint256[]"
        }
      ],
      "stateMutability": "view",
      "type": "function",
      "constant": true
    },
    {
      "inputs": [
        {
          "internalType": "address",
          "name": "_owner",
          "type": "address"
        }
      ],
      "name": "getEnginesByOwner",
      "outputs": [
        {
          "internalType": "uint256[]",
          "name": "",
          "type": "uint256[]"
        }
      ],
      "stateMutability": "view",
      "type": "function",
      "constant": true
    },
    {
      "inputs": [
        {
          "internalType": "address",
          "name": "_owner",
          "type": "address"
        }
      ],
      "name": "getFuelStationByOwner",
      "outputs": [
        {
          "internalType": "uint256",
          "name": "",
          "type": "uint256"
        }
      ],
      "stateMutability": "view",
      "type": "function",
      "constant": true
    },
    {
      "inputs": [
        {
          "internalType": "uint256",
          "name": "",
          "type": "uint256"
        }
      ],
      "name": "idToStartedRooms",
      "outputs": [
        {
          "internalType": "uint256",
          "name": "numberPlayers",
          "type": "uint256"
        },
        {
          "internalType": "uint256",
          "name": "world",
          "type": "uint256"
        },
        {
          "internalType": "uint256",
          "name": "roomDNA",
          "type": "uint256"
        },
        {
          "internalType": "uint256",
          "name": "startTime",
          "type": "uint256"
        },
        {
          "internalType": "uint256",
          "name": "curAnswer",
          "type": "uint256"
        },
        {
          "internalType": "bool",
          "name": "closed",
          "type": "bool"
        }
      ],
      "stateMutability": "view",
      "type": "function",
      "constant": true
    },
    {
      "inputs": [
        {
          "internalType": "uint256",
          "name": "",
          "type": "uint256"
        }
      ],
      "name": "openedRooms",
      "outputs": [
        {
          "internalType": "uint256",
          "name": "id",
          "type": "uint256"
        },
        {
          "internalType": "uint256",
          "name": "playersEntered",
          "type": "uint256"
        },
        {
          "internalType": "uint256",
          "name": "world",
          "type": "uint256"
        },
        {
          "components": [
            {
              "internalType": "uint256",
              "name": "playersNeeded",
              "type": "uint256"
            },
            {
              "internalType": "uint256",
              "name": "roadsNum",
              "type": "uint256"
            },
            {
              "internalType": "uint256",
              "name": "crossId",
              "type": "uint256"
            }
          ],
          "internalType": "struct RaceHandler.Cross",
          "name": "cross",
          "type": "tuple"
        }
      ],
      "stateMutability": "view",
      "type": "function",
      "constant": true
    },
    {
      "inputs": [],
      "name": "owner",
      "outputs": [
        {
          "internalType": "address",
          "name": "",
          "type": "address"
        }
      ],
      "stateMutability": "view",
      "type": "function",
      "constant": true
    },
    {
      "inputs": [],
      "name": "renounceOwnership",
      "outputs": [],
      "stateMutability": "nonpayable",
      "type": "function"
    },
    {
      "inputs": [
        {
          "internalType": "uint256",
          "name": "",
          "type": "uint256"
        }
      ],
      "name": "stations",
      "outputs": [
        {
          "internalType": "uint256",
          "name": "id",
          "type": "uint256"
        },
        {
          "internalType": "uint8",
          "name": "capacity",
          "type": "uint8"
        },
        {
          "internalType": "uint8",
          "name": "productionPerHour",
          "type": "uint8"
        }
      ],
      "stateMutability": "view",
      "type": "function",
      "constant": true
    },
    {
      "inputs": [
        {
          "internalType": "address",
          "name": "newOwner",
          "type": "address"
        }
      ],
      "name": "transferOwnership",
      "outputs": [],
      "stateMutability": "nonpayable",
      "type": "function"
    },
    {
      "inputs": [
        {
          "internalType": "uint256",
          "name": "_fuelStatonId",
          "type": "uint256"
        },
        {
          "internalType": "uint8",
          "name": "_counts",
          "type": "uint8"
        }
      ],
      "name": "upgradeCapacity",
      "outputs": [],
      "stateMutability": "payable",
      "type": "function",
      "payable": true
    },
    {
      "inputs": [
        {
          "internalType": "uint256",
          "name": "_engineId",
          "type": "uint256"
        },
        {
          "internalType": "uint8",
          "name": "_counts",
          "type": "uint8"
        }
      ],
      "name": "upgradeConsumtion",
      "outputs": [],
      "stateMutability": "payable",
      "type": "function",
      "payable": true
    },
    {
      "inputs": [
        {
          "internalType": "uint256",
          "name": "_chassisId",
          "type": "uint256"
        },
        {
          "internalType": "uint8",
          "name": "_counts",
          "type": "uint8"
        }
      ],
      "name": "upgradeDurability",
      "outputs": [],
      "stateMutability": "payable",
      "type": "function",
      "payable": true
    },
    {
      "inputs": [
        {
          "internalType": "uint256",
          "name": "_engineId",
          "type": "uint256"
        },
        {
          "internalType": "uint8",
          "name": "_counts",
          "type": "uint8"
        }
      ],
      "name": "upgradeHorsePowers",
      "outputs": [],
      "stateMutability": "payable",
      "type": "function",
      "payable": true
    },
    {
      "inputs": [
        {
          "internalType": "uint256",
          "name": "_fuelStatonId",
          "type": "uint256"
        },
        {
          "internalType": "uint8",
          "name": "_counts",
          "type": "uint8"
        }
      ],
      "name": "upgradeProductionPerHour",
      "outputs": [],
      "stateMutability": "payable",
      "type": "function",
      "payable": true
    },
    {
      "inputs": [
        {
          "internalType": "uint256",
          "name": "carId",
          "type": "uint256"
        }
      ],
      "name": "findRoom",
      "outputs": [],
      "stateMutability": "nonpayable",
      "type": "function"
    },
    {
      "inputs": [
        {
          "internalType": "uint256",
          "name": "roomId",
          "type": "uint256"
        }
      ],
      "name": "getClosedRoom",
      "outputs": [
        {
          "components": [
            {
              "internalType": "address",
              "name": "player",
              "type": "address"
            },
            {
              "internalType": "bool",
              "name": "correct",
              "type": "bool"
            },
            {
              "internalType": "uint256",
              "name": "time",
              "type": "uint256"
            }
          ],
          "internalType": "struct RaceHandler.Answer[]",
          "name": "",
          "type": "tuple[]"
        }
      ],
      "stateMutability": "view",
      "type": "function",
      "constant": true
    },
    {
      "inputs": [
        {
          "internalType": "uint256",
          "name": "roomId",
          "type": "uint256"
        },
        {
          "internalType": "uint256[]",
          "name": "answer",
          "type": "uint256[]"
        }
      ],
      "name": "commitAnswer",
      "outputs": [],
      "stateMutability": "nonpayable",
      "type": "function"
    }
  ],
  "bytecode": "0x6080604052603c600060146101000a81548160ff021916908360ff1602179055506005600060156101000a81548160ff021916908360ff16021790555060006009556000600a556509184e72a00060145565b5e620f48000601555650da475abf00060165567016345785d8a00006017556305f5e1006018553480156200008557600080fd5b50620000a66200009a620002f560201b60201c565b620002fd60201b60201c565b605a600381905550606560048190555060126005819055506015600681905550620186a06007819055506201d4c16008819055506019604051806060016040528060048152602001600481526020016000815250908060018154018082558091505060019003906000526020600020906003020160009091909190915060008201518160000155602082015181600101556040820151816002015550506019604051806060016040528060038152602001600481526020016000815250908060018154018082558091505060019003906000526020600020906003020160009091909190915060008201518160000155602082015181600101556040820151816002015550506019604051806060016040528060028152602001600481526020016000815250908060018154018082558091505060019003906000526020600020906003020160009091909190915060008201518160000155602082015181600101556040820151816002015550506019604051806060016040528060038152602001600381526020016001815250908060018154018082558091505060019003906000526020600020906003020160009091909190915060008201518160000155602082015181600101556040820151816002015550506019604051806060016040528060028152602001600381526020016001815250908060018154018082558091505060019003906000526020600020906003020160009091909190915060008201518160000155602082015181600101556040820151816002015550506001601b81905550620003c1565b600033905090565b60008060009054906101000a900473ffffffffffffffffffffffffffffffffffffffff169050816000806101000a81548173ffffffffffffffffffffffffffffffffffffffff021916908373ffffffffffffffffffffffffffffffffffffffff1602179055508173ffffffffffffffffffffffffffffffffffffffff168173ffffffffffffffffffffffffffffffffffffffff167f8be0079c531659141344cd1fd0a4f28419497f9722a3daafe3b4186f6b6457e060405160405180910390a35050565b6140c680620003d16000396000f3fe60806040526004361061019c5760003560e01c80637713d521116100ec578063c75bb4f41161008a578063f2fde38b11610064578063f2fde38b1461060e578063f7746e3614610637578063faf4bb981461067b578063fb2d954f146106975761019c565b8063c75bb4f414610591578063c85b7fed146105ce578063e77100d4146105f75761019c565b80638da5cb5b116100c65780638da5cb5b146104cc578063906f5f34146104f757806392f859db14610513578063b72c0eea146105525761019c565b80637713d521146104575780637c62360f1461049457806385909267146104b05761019c565b80633521c42611610159578063594193d711610133578063594193d7146103895780635dcc4cc6146103c65780636f206fc114610403578063715018a6146104405761019c565b80633521c426146102d2578063449014901461030f5780634e31f9101461034c5761019c565b806303f2e05b146101a15780630418394e146101bd578063081315ff146101ff5780631c5dde0e1461023f578063224370f01461027e57806333ca504b14610295575b600080fd5b6101bb60048036038101906101b69190612ce5565b6106c0565b005b3480156101c957600080fd5b506101e460048036038101906101df9190612d25565b6107f8565b6040516101f696959493929190612d7c565b60405180910390f35b34801561020b57600080fd5b5061022660048036038101906102219190612d25565b610841565b6040516102369493929190612e2e565b60405180910390f35b34801561024b57600080fd5b5061026660048036038101906102619190612d25565b6108a9565b60405161027593929190612e92565b60405180910390f35b34801561028a57600080fd5b50610293610903565b005b3480156102a157600080fd5b506102bc60048036038101906102b79190612d25565b610a20565b6040516102c99190612f0a565b60405180910390f35b3480156102de57600080fd5b506102f960048036038101906102f49190612d25565b610a53565b6040516103069190613034565b60405180910390f35b34801561031b57600080fd5b5061033660048036038101906103319190612d25565b610ba6565b6040516103439190612f0a565b60405180910390f35b34801561035857600080fd5b50610373600480360381019061036e9190613082565b610bd9565b60405161038091906130af565b60405180910390f35b34801561039557600080fd5b506103b060048036038101906103ab9190612d25565b610c77565b6040516103bd9190612f0a565b60405180910390f35b3480156103d257600080fd5b506103ed60048036038101906103e89190612d25565b610caa565b6040516103fa9190612f0a565b60405180910390f35b34801561040f57600080fd5b5061042a60048036038101906104259190613082565b610cdd565b6040516104379190613179565b60405180910390f35b34801561044c57600080fd5b50610455610e2f565b005b34801561046357600080fd5b5061047e60048036038101906104799190613082565b610e43565b60405161048b9190613179565b60405180910390f35b6104ae60048036038101906104a99190612ce5565b610f95565b005b6104ca60048036038101906104c59190612ce5565b6110cf565b005b3480156104d857600080fd5b506104e16111f2565b6040516104ee9190612f0a565b60405180910390f35b610511600480360381019061050c9190612ce5565b61121b565b005b34801561051f57600080fd5b5061053a60048036038101906105359190612d25565b61133e565b604051610549939291906131aa565b60405180910390f35b34801561055e57600080fd5b5061057960048036038101906105749190612d25565b611392565b604051610588939291906131fe565b60405180910390f35b34801561059d57600080fd5b506105b860048036038101906105b39190613082565b6113e8565b6040516105c5919061344f565b60405180910390f35b3480156105da57600080fd5b506105f560048036038101906105f091906135b9565b61165c565b005b34801561060357600080fd5b5061060c61194d565b005b34801561061a57600080fd5b5061063560048036038101906106309190613082565b611be8565b005b34801561064357600080fd5b5061065e60048036038101906106599190612d25565b611c6b565b60405161067298979695949392919061365f565b60405180910390f35b61069560048036038101906106909190612ce5565b611d58565b005b3480156106a357600080fd5b506106be60048036038101906106b99190612d25565b611e86565b005b816010600082815260200190815260200160002060009054906101000a900473ffffffffffffffffffffffffffffffffffffffff1673ffffffffffffffffffffffffffffffffffffffff163373ffffffffffffffffffffffffffffffffffffffff161461072c57600080fd5b601854600d8481548110610743576107426136e4565b5b906000526020600020906002020160010160009054906101000a900463ffffffff168360ff166107739190613742565b63ffffffff166107839190613780565b341461078e57600080fd5b8160ff16600d84815481106107a6576107a56136e4565b5b906000526020600020906002020160010160008282829054906101000a900463ffffffff166107d591906137da565b92506101000a81548163ffffffff021916908363ffffffff160217905550505050565b601d6020528060005260406000206000915090508060000154908060010154908060020154908060030154908060050154908060060160009054906101000a900460ff16905086565b601c818154811061085157600080fd5b9060005260206000209060060201600091509050806000015490806001015490806002015490806003016040518060600160405290816000820154815260200160018201548152602001600282015481525050905084565b600d81815481106108b957600080fd5b90600052602060002090600202016000915090508060000154908060010160009054906101000a900463ffffffff16908060010160049054906101000a900463ffffffff16905083565b60003390506000600180549050905060016040518060600160405280838152602001600060149054906101000a900460ff1660ff168152602001600060159054906101000a900460ff1660ff1681525090806001815401808255809150506001900390600052602060002090600202016000909190919091506000820151816000015560208201518160010160006101000a81548160ff021916908360ff16021790555060408201518160010160016101000a81548160ff021916908360ff1602179055505050816002600083815260200190815260200160002060006101000a81548173ffffffffffffffffffffffffffffffffffffffff021916908373ffffffffffffffffffffffffffffffffffffffff1602179055505050565b600e6020528060005260406000206000915054906101000a900473ffffffffffffffffffffffffffffffffffffffff1681565b6060601d600083815260200190815260200160002060060160009054906101000a900460ff16610ab8576040517f08c379a0000000000000000000000000000000000000000000000000000000008152600401610aaf90613860565b60405180910390fd5b601d6000838152602001908152602001600020600401805480602002602001604051908101604052809291908181526020016000905b82821015610b9b57838290600052602060002090600202016040518060600160405290816000820160009054906101000a900473ffffffffffffffffffffffffffffffffffffffff1673ffffffffffffffffffffffffffffffffffffffff1673ffffffffffffffffffffffffffffffffffffffff1681526020016000820160149054906101000a900460ff1615151515815260200160018201548152505081526020019060010190610aee565b505050509050919050565b60106020528060005260406000206000915054906101000a900473ffffffffffffffffffffffffffffffffffffffff1681565b60008060005b600180549050811015610c6d578373ffffffffffffffffffffffffffffffffffffffff166002600083815260200190815260200160002060009054906101000a900473ffffffffffffffffffffffffffffffffffffffff1673ffffffffffffffffffffffffffffffffffffffff1603610c5a57809150610c6d565b8080610c6590613880565b915050610bdf565b5080915050919050565b60026020528060005260406000206000915054906101000a900473ffffffffffffffffffffffffffffffffffffffff1681565b600f6020528060005260406000206000915054906101000a900473ffffffffffffffffffffffffffffffffffffffff1681565b60606000601260008473ffffffffffffffffffffffffffffffffffffffff1673ffffffffffffffffffffffffffffffffffffffff1681526020019081526020016000205467ffffffffffffffff811115610d3a57610d39613476565b5b604051908082528060200260200182016040528015610d685781602001602082028036833780820191505090505b5090506000805b600d80549050811015610e24578473ffffffffffffffffffffffffffffffffffffffff166010600083815260200190815260200160002060009054906101000a900473ffffffffffffffffffffffffffffffffffffffff1673ffffffffffffffffffffffffffffffffffffffff1603610e115780838381518110610df657610df56136e4565b5b6020026020010181815250508180610e0d90613880565b9250505b8080610e1c90613880565b915050610d6f565b508192505050919050565b610e376124a5565b610e416000612523565b565b60606000601260008473ffffffffffffffffffffffffffffffffffffffff1673ffffffffffffffffffffffffffffffffffffffff1681526020019081526020016000205467ffffffffffffffff811115610ea057610e9f613476565b5b604051908082528060200260200182016040528015610ece5781602001602082028036833780820191505090505b5090506000805b600c80549050811015610f8a578473ffffffffffffffffffffffffffffffffffffffff16600f600083815260200190815260200160002060009054906101000a900473ffffffffffffffffffffffffffffffffffffffff1673ffffffffffffffffffffffffffffffffffffffff1603610f775780838381518110610f5c57610f5b6136e4565b5b6020026020010181815250508180610f7390613880565b9250505b8080610f8290613880565b915050610ed5565b508192505050919050565b81600f600082815260200190815260200160002060009054906101000a900473ffffffffffffffffffffffffffffffffffffffff1673ffffffffffffffffffffffffffffffffffffffff163373ffffffffffffffffffffffffffffffffffffffff161461100157600080fd5b601754600c8481548110611018576110176136e4565b5b906000526020600020906002020160010160029054906101000a900461ffff1660028461104591906139fb565b60ff166110529190613a56565b61ffff166110609190613780565b341461106b57600080fd5b8160ff16600c8481548110611083576110826136e4565b5b906000526020600020906002020160010160028282829054906101000a900461ffff166110b09190613a87565b92506101000a81548161ffff021916908361ffff160217905550505050565b816002600082815260200190815260200160002060009054906101000a900473ffffffffffffffffffffffffffffffffffffffff1673ffffffffffffffffffffffffffffffffffffffff163373ffffffffffffffffffffffffffffffffffffffff161461113b57600080fd5b60155460018481548110611152576111516136e4565b5b906000526020600020906002020160010160019054906101000a900460ff168361117c9190613abb565b60ff166111899190613780565b341461119457600080fd5b81600184815481106111a9576111a86136e4565b5b906000526020600020906002020160010160018282829054906101000a900460ff166111d59190613af6565b92506101000a81548160ff021916908360ff160217905550505050565b60008060009054906101000a900473ffffffffffffffffffffffffffffffffffffffff16905090565b816002600082815260200190815260200160002060009054906101000a900473ffffffffffffffffffffffffffffffffffffffff1673ffffffffffffffffffffffffffffffffffffffff163373ffffffffffffffffffffffffffffffffffffffff161461128757600080fd5b6014546001848154811061129e5761129d6136e4565b5b906000526020600020906002020160010160009054906101000a900460ff16836112c89190613abb565b60ff166112d59190613780565b34146112e057600080fd5b81600184815481106112f5576112f46136e4565b5b906000526020600020906002020160010160008282829054906101000a900460ff166113219190613af6565b92506101000a81548160ff021916908360ff160217905550505050565b6001818154811061134e57600080fd5b90600052602060002090600202016000915090508060000154908060010160009054906101000a900460ff16908060010160019054906101000a900460ff16905083565b600c81815481106113a257600080fd5b90600052602060002090600202016000915090508060000154908060010160009054906101000a900461ffff16908060010160029054906101000a900461ffff16905083565b60606000601160008473ffffffffffffffffffffffffffffffffffffffff1673ffffffffffffffffffffffffffffffffffffffff1681526020019081526020016000205467ffffffffffffffff81111561144557611444613476565b5b60405190808252806020026020018201604052801561147e57816020015b61146b612b77565b8152602001906001900390816114635790505b5090506000805b600d80549050811015611651578473ffffffffffffffffffffffffffffffffffffffff16600e600083815260200190815260200160002060009054906101000a900473ffffffffffffffffffffffffffffffffffffffff1673ffffffffffffffffffffffffffffffffffffffff160361163e57600b818154811061150c5761150b6136e4565b5b90600052602060002090600802016040518061010001604052908160008201805461153690613b5c565b80601f016020809104026020016040519081016040528092919081815260200182805461156290613b5c565b80156115af5780601f10611584576101008083540402835291602001916115af565b820191906000526020600020905b81548152906001019060200180831161159257829003601f168201915b505050505081526020016001820154815260200160028201548152602001600382015481526020016004820160009054906101000a900460ff1660ff1660ff1681526020016005820154815260200160068201548152602001600782015481525050838381518110611624576116236136e4565b5b6020026020010181905250818061163a90613880565b9250505b808061164990613880565b915050611485565b508192505050919050565b81601a60003373ffffffffffffffffffffffffffffffffffffffff1673ffffffffffffffffffffffffffffffffffffffff16815260200190815260200160002054146116dd576040517f08c379a00000000000000000000000000000000000000000000000000000000081526004016116d490613bd9565b60405180910390fd5b6000601d6000848152602001908152602001600020600201549050600073__PDDLib________________________________639c63eb2e83856040518363ffffffff1660e01b8152600401611733929190613c9e565b602060405180830381865af4158015611750573d6000803e3d6000fd5b505050506040513d601f19601f820116820180604052508101906117749190613cfa565b9050600060405180606001604052803373ffffffffffffffffffffffffffffffffffffffff16815260200183151581526020014281525090506000601d600087815260200190815260200160002090508060040182908060018154018082558091505060019003906000526020600020906002020160009091909190915060008201518160000160006101000a81548173ffffffffffffffffffffffffffffffffffffffff021916908373ffffffffffffffffffffffffffffffffffffffff16021790555060208201518160000160146101000a81548160ff021916908315150217905550604082015181600101555050601d600087815260200190815260200160002060000154601d60008881526020019081526020016000206004018054905003611945577f67acaceb58ff1ad2aa8b3069f69c4cd076824e06a09184b75fb197ead7040be7866040516118ca91906130af565b60405180910390a16001601d600088815260200190815260200160002060060160006101000a81548160ff021916908315150217905550601a60003373ffffffffffffffffffffffffffffffffffffffff1673ffffffffffffffffffffffffffffffffffffffff168152602001908152602001600020600090555b505050505050565b6000601160003373ffffffffffffffffffffffffffffffffffffffff1673ffffffffffffffffffffffffffffffffffffffff168152602001908152602001600020541461199957600080fd5b60006040518060400160405280600581526020017f6d6f64656c00000000000000000000000000000000000000000000000000000081525090506000816119df426125e7565b6040516020016119f0929190613d63565b6040516020818303038152906040529050600081604051602001611a149190613d87565b6040516020818303038152906040528051906020012060001c90506000611a396126b5565b90506000611a45612879565b90506000600b805490509050600b604051806101000160405280888152602001868152602001858152602001848152602001600160ff1681526020016000815260200160008152602001600081525090806001815401808255809150506001900390600052602060002090600802016000909190919091506000820151816000019080519060200190611ad9929190612bbf565b5060208201518160010155604082015181600201556060820151816003015560808201518160040160006101000a81548160ff021916908360ff16021790555060a0820151816005015560c0820151816006015560e08201518160070155505033600e600083815260200190815260200160002060006101000a81548173ffffffffffffffffffffffffffffffffffffffff021916908373ffffffffffffffffffffffffffffffffffffffff160217905550601160003373ffffffffffffffffffffffffffffffffffffffff1673ffffffffffffffffffffffffffffffffffffffff1681526020019081526020016000206000815480929190611bdb90613880565b9190505550505050505050565b611bf06124a5565b600073ffffffffffffffffffffffffffffffffffffffff168173ffffffffffffffffffffffffffffffffffffffff1603611c5f576040517f08c379a0000000000000000000000000000000000000000000000000000000008152600401611c5690613e10565b60405180910390fd5b611c6881612523565b50565b600b8181548110611c7b57600080fd5b9060005260206000209060080201600091509050806000018054611c9e90613b5c565b80601f0160208091040260200160405190810160405280929190818152602001828054611cca90613b5c565b8015611d175780601f10611cec57610100808354040283529160200191611d17565b820191906000526020600020905b815481529060010190602001808311611cfa57829003601f168201915b5050505050908060010154908060020154908060030154908060040160009054906101000a900460ff16908060050154908060060154908060070154905088565b81600f600082815260200190815260200160002060009054906101000a900473ffffffffffffffffffffffffffffffffffffffff1673ffffffffffffffffffffffffffffffffffffffff163373ffffffffffffffffffffffffffffffffffffffff1614611dc457600080fd5b601654600c8481548110611ddb57611dda6136e4565b5b906000526020600020906002020160010160009054906101000a900461ffff168360ff16611e099190613e30565b61ffff16611e179190613780565b3414611e2257600080fd5b8160ff16600c8481548110611e3a57611e396136e4565b5b906000526020600020906002020160010160008282829054906101000a900461ffff16611e679190613e6c565b92506101000a81548161ffff021916908361ffff160217905550505050565b80600e600082815260200190815260200160002060009054906101000a900473ffffffffffffffffffffffffffffffffffffffff1673ffffffffffffffffffffffffffffffffffffffff163373ffffffffffffffffffffffffffffffffffffffff1614611ef257600080fd5b6000805b601c805490508110156122ef57601c8181548110611f1757611f166136e4565b5b9060005260206000209060060201600201546001600a600b8781548110611f4157611f406136e4565b5b906000526020600020906008020160040160009054906101000a900460ff16611f6a9190613ea4565b611f749190613af6565b60ff16036122dc5760019150601c8181548110611f9457611f936136e4565b5b906000526020600020906006020160000154601a60003373ffffffffffffffffffffffffffffffffffffffff1673ffffffffffffffffffffffffffffffffffffffff16815260200190815260200160002081905550601c8181548110611ffd57611ffc6136e4565b5b9060005260206000209060060201600101600081548092919061201f90613880565b9190505550601c8181548110612038576120376136e4565b5b906000526020600020906006020160030160000154601c8281548110612061576120606136e4565b5b906000526020600020906006020160010154036122db57600073__PDDLib________________________________63c037e545601c84815481106120a8576120a76136e4565b5b906000526020600020906006020160030160020154601c85815481106120d1576120d06136e4565b5b9060005260206000209060060201600301600001546040518363ffffffff1660e01b8152600401612103929190613ed5565b602060405180830381865af4158015612120573d6000803e3d6000fd5b505050506040513d601f19601f820116820180604052508101906121449190613f13565b90506000601d6000601c85815481106121605761215f6136e4565b5b90600052602060002090600602016000015481526020019081526020016000209050601c8381548110612196576121956136e4565b5b9060005260206000209060060201600301600001548160000181905550601c83815481106121c7576121c66136e4565b5b90600052602060002090600602016002015481600101819055508181600201819055504281600301819055506000816005018190555060008160060160006101000a81548160ff0219169083151502179055507f2838ebeee7dc83fac85a3d6dbca0c0b6771591ada8b00f97371aa6611e631f9c601c848154811061224f5761224e6136e4565b5b90600052602060002090600602016000015483604051612270929190613f40565b60405180910390a1601c838154811061228c5761228b6136e4565b5b90600052602060002090600602016000808201600090556001820160009055600282016000905560038201600080820160009055600182016000905560028201600090555050505050506122ef565b5b80806122e790613880565b915050611ef6565b5080156122fc57506124a1565b6000601b600081548092919061231190613880565b91905055905060006019805490504261232a9190613f69565b905081601a60003373ffffffffffffffffffffffffffffffffffffffff1673ffffffffffffffffffffffffffffffffffffffff16815260200190815260200160002081905550601c6040518060800160405280848152602001600181526020016001600a600b8a815481106123a2576123a16136e4565b5b906000526020600020906008020160040160009054906101000a900460ff166123cb9190613ea4565b6123d59190613af6565b60ff168152602001601984815481106123f1576123f06136e4565b5b906000526020600020906003020160405180606001604052908160008201548152602001600182015481526020016002820154815250508152509080600181540180825580915050600190039060005260206000209060060201600090919091909150600082015181600001556020820151816001015560408201518160020155606082015181600301600082015181600001556020820151816001015560408201518160020155505050505050505b5050565b6124ad612a1c565b73ffffffffffffffffffffffffffffffffffffffff166124cb6111f2565b73ffffffffffffffffffffffffffffffffffffffff1614612521576040517f08c379a000000000000000000000000000000000000000000000000000000000815260040161251890613fe6565b60405180910390fd5b565b60008060009054906101000a900473ffffffffffffffffffffffffffffffffffffffff169050816000806101000a81548173ffffffffffffffffffffffffffffffffffffffff021916908373ffffffffffffffffffffffffffffffffffffffff1602179055508173ffffffffffffffffffffffffffffffffffffffff168173ffffffffffffffffffffffffffffffffffffffff167f8be0079c531659141344cd1fd0a4f28419497f9722a3daafe3b4186f6b6457e060405160405180910390a35050565b6060600060016125f684612a24565b01905060008167ffffffffffffffff81111561261557612614613476565b5b6040519080825280601f01601f1916602001820160405280156126475781602001600182028036833780820191505090505b509050600082602001820190505b6001156126aa578080600190039150507f3031323334353637383961626364656600000000000000000000000000000000600a86061a8153600a858161269e5761269d613a27565b5b04945060008503612655575b819350505050919050565b6000806003546004546126c89190614006565b426126d39190613f69565b6003546126e0919061403a565b905060006005546006546126f49190614006565b426126ff9190613f69565b60055461270c919061403a565b905060006009600081548092919061272390613880565b919050559050600c60405180606001604052808381526020018561ffff1681526020018461ffff1681525090806001815401808255809150506001900390600052602060002090600202016000909190919091506000820151816000015560208201518160010160006101000a81548161ffff021916908361ffff16021790555060408201518160010160026101000a81548161ffff021916908361ffff1602179055505050601260003373ffffffffffffffffffffffffffffffffffffffff1673ffffffffffffffffffffffffffffffffffffffff168152602001908152602001600020600081548092919061281990613880565b919050555033600f600083815260200190815260200160002060006101000a81548173ffffffffffffffffffffffffffffffffffffffff021916908373ffffffffffffffffffffffffffffffffffffffff16021790555080935050505090565b60008060075460085461288c9190614006565b426128979190613f69565b6007546128a4919061403a565b90506000600a60008154809291906128bb90613880565b919050559050600d60405180606001604052808381526020018463ffffffff1681526020018463ffffffff1681525090806001815401808255809150506001900390600052602060002090600202016000909190919091506000820151816000015560208201518160010160006101000a81548163ffffffff021916908363ffffffff16021790555060408201518160010160046101000a81548163ffffffff021916908363ffffffff1602179055505050601360003373ffffffffffffffffffffffffffffffffffffffff1673ffffffffffffffffffffffffffffffffffffffff16815260200190815260200160002060008154809291906129bd90613880565b9190505550336010600083815260200190815260200160002060006101000a81548173ffffffffffffffffffffffffffffffffffffffff021916908373ffffffffffffffffffffffffffffffffffffffff160217905550809250505090565b600033905090565b600080600090507a184f03e93ff9f4daa797ed6e38ed64bf6a1f0100000000000000008310612a82577a184f03e93ff9f4daa797ed6e38ed64bf6a1f0100000000000000008381612a7857612a77613a27565b5b0492506040810190505b6d04ee2d6d415b85acef81000000008310612abf576d04ee2d6d415b85acef81000000008381612ab557612ab4613a27565b5b0492506020810190505b662386f26fc100008310612aee57662386f26fc100008381612ae457612ae3613a27565b5b0492506010810190505b6305f5e1008310612b17576305f5e1008381612b0d57612b0c613a27565b5b0492506008810190505b6127108310612b3c576127108381612b3257612b31613a27565b5b0492506004810190505b60648310612b5f5760648381612b5557612b54613a27565b5b0492506002810190505b600a8310612b6e576001810190505b80915050919050565b60405180610100016040528060608152602001600081526020016000815260200160008152602001600060ff1681526020016000815260200160008152602001600081525090565b828054612bcb90613b5c565b90600052602060002090601f016020900481019282612bed5760008555612c34565b82601f10612c0657805160ff1916838001178555612c34565b82800160010185558215612c34579182015b82811115612c33578251825591602001919060010190612c18565b5b509050612c419190612c45565b5090565b5b80821115612c5e576000816000905550600101612c46565b5090565b6000604051905090565b600080fd5b600080fd5b6000819050919050565b612c8981612c76565b8114612c9457600080fd5b50565b600081359050612ca681612c80565b92915050565b600060ff82169050919050565b612cc281612cac565b8114612ccd57600080fd5b50565b600081359050612cdf81612cb9565b92915050565b60008060408385031215612cfc57612cfb612c6c565b5b6000612d0a85828601612c97565b9250506020612d1b85828601612cd0565b9150509250929050565b600060208284031215612d3b57612d3a612c6c565b5b6000612d4984828501612c97565b91505092915050565b612d5b81612c76565b82525050565b60008115159050919050565b612d7681612d61565b82525050565b600060c082019050612d916000830189612d52565b612d9e6020830188612d52565b612dab6040830187612d52565b612db86060830186612d52565b612dc56080830185612d52565b612dd260a0830184612d6d565b979650505050505050565b612de681612c76565b82525050565b606082016000820151612e026000850182612ddd565b506020820151612e156020850182612ddd565b506040820151612e286040850182612ddd565b50505050565b600060c082019050612e436000830187612d52565b612e506020830186612d52565b612e5d6040830185612d52565b612e6a6060830184612dec565b95945050505050565b600063ffffffff82169050919050565b612e8c81612e73565b82525050565b6000606082019050612ea76000830186612d52565b612eb46020830185612e83565b612ec16040830184612e83565b949350505050565b600073ffffffffffffffffffffffffffffffffffffffff82169050919050565b6000612ef482612ec9565b9050919050565b612f0481612ee9565b82525050565b6000602082019050612f1f6000830184612efb565b92915050565b600081519050919050565b600082825260208201905092915050565b6000819050602082019050919050565b612f5a81612ee9565b82525050565b612f6981612d61565b82525050565b606082016000820151612f856000850182612f51565b506020820151612f986020850182612f60565b506040820151612fab6040850182612ddd565b50505050565b6000612fbd8383612f6f565b60608301905092915050565b6000602082019050919050565b6000612fe182612f25565b612feb8185612f30565b9350612ff683612f41565b8060005b8381101561302757815161300e8882612fb1565b975061301983612fc9565b925050600181019050612ffa565b5085935050505092915050565b6000602082019050818103600083015261304e8184612fd6565b905092915050565b61305f81612ee9565b811461306a57600080fd5b50565b60008135905061307c81613056565b92915050565b60006020828403121561309857613097612c6c565b5b60006130a68482850161306d565b91505092915050565b60006020820190506130c46000830184612d52565b92915050565b600081519050919050565b600082825260208201905092915050565b6000819050602082019050919050565b60006131028383612ddd565b60208301905092915050565b6000602082019050919050565b6000613126826130ca565b61313081856130d5565b935061313b836130e6565b8060005b8381101561316c57815161315388826130f6565b975061315e8361310e565b92505060018101905061313f565b5085935050505092915050565b60006020820190508181036000830152613193818461311b565b905092915050565b6131a481612cac565b82525050565b60006060820190506131bf6000830186612d52565b6131cc602083018561319b565b6131d9604083018461319b565b949350505050565b600061ffff82169050919050565b6131f8816131e1565b82525050565b60006060820190506132136000830186612d52565b61322060208301856131ef565b61322d60408301846131ef565b949350505050565b600081519050919050565b600082825260208201905092915050565b6000819050602082019050919050565b600081519050919050565b600082825260208201905092915050565b60005b8381101561329b578082015181840152602081019050613280565b838111156132aa576000848401525b50505050565b6000601f19601f8301169050919050565b60006132cc82613261565b6132d6818561326c565b93506132e681856020860161327d565b6132ef816132b0565b840191505092915050565b61330381612cac565b82525050565b600061010083016000830151848203600086015261332782826132c1565b915050602083015161333c6020860182612ddd565b50604083015161334f6040860182612ddd565b5060608301516133626060860182612ddd565b50608083015161337560808601826132fa565b5060a083015161338860a0860182612ddd565b5060c083015161339b60c0860182612ddd565b5060e08301516133ae60e0860182612ddd565b508091505092915050565b60006133c58383613309565b905092915050565b6000602082019050919050565b60006133e582613235565b6133ef8185613240565b93508360208202850161340185613251565b8060005b8581101561343d578484038952815161341e85826133b9565b9450613429836133cd565b925060208a01995050600181019050613405565b50829750879550505050505092915050565b6000602082019050818103600083015261346981846133da565b905092915050565b600080fd5b7f4e487b7100000000000000000000000000000000000000000000000000000000600052604160045260246000fd5b6134ae826132b0565b810181811067ffffffffffffffff821117156134cd576134cc613476565b5b80604052505050565b60006134e0612c62565b90506134ec82826134a5565b919050565b600067ffffffffffffffff82111561350c5761350b613476565b5b602082029050602081019050919050565b600080fd5b6000613535613530846134f1565b6134d6565b905080838252602082019050602084028301858111156135585761355761351d565b5b835b81811015613581578061356d8882612c97565b84526020840193505060208101905061355a565b5050509392505050565b600082601f8301126135a05761359f613471565b5b81356135b0848260208601613522565b91505092915050565b600080604083850312156135d0576135cf612c6c565b5b60006135de85828601612c97565b925050602083013567ffffffffffffffff8111156135ff576135fe612c71565b5b61360b8582860161358b565b9150509250929050565b600082825260208201905092915050565b600061363182613261565b61363b8185613615565b935061364b81856020860161327d565b613654816132b0565b840191505092915050565b600061010082019050818103600083015261367a818b613626565b9050613689602083018a612d52565b6136966040830189612d52565b6136a36060830188612d52565b6136b0608083018761319b565b6136bd60a0830186612d52565b6136ca60c0830185612d52565b6136d760e0830184612d52565b9998505050505050505050565b7f4e487b7100000000000000000000000000000000000000000000000000000000600052603260045260246000fd5b7f4e487b7100000000000000000000000000000000000000000000000000000000600052601160045260246000fd5b600061374d82612e73565b915061375883612e73565b92508163ffffffff048311821515161561377557613774613713565b5b828202905092915050565b600061378b82612c76565b915061379683612c76565b9250817fffffffffffffffffffffffffffffffffffffffffffffffffffffffffffffffff04831182151516156137cf576137ce613713565b5b828202905092915050565b60006137e582612e73565b91506137f083612e73565b92508263ffffffff0382111561380957613808613713565b5b828201905092915050565b7f726f6f6d206e6f7420636c6f7365640000000000000000000000000000000000600082015250565b600061384a600f83613615565b915061385582613814565b602082019050919050565b600060208201905081810360008301526138798161383d565b9050919050565b600061388b82612c76565b91507fffffffffffffffffffffffffffffffffffffffffffffffffffffffffffffffff82036138bd576138bc613713565b5b600182019050919050565b60008160011c9050919050565b6000808291508390505b600185111561391f578086048111156138fb576138fa613713565b5b600185161561390a5780820291505b8081029050613918856138c8565b94506138df565b94509492505050565b60008261393857600190506139f4565b8161394657600090506139f4565b816001811461395c576002811461396657613995565b60019150506139f4565b60ff84111561397857613977613713565b5b8360020a91508482111561398f5761398e613713565b5b506139f4565b5060208310610133831016604e8410600b84101617156139ca5782820a9050838111156139c5576139c4613713565b5b6139f4565b6139d784848460016138d5565b925090508184048111156139ee576139ed613713565b5b81810290505b9392505050565b6000613a0682612cac565b9150613a1183612cac565b9250613a1f60ff8484613928565b905092915050565b7f4e487b7100000000000000000000000000000000000000000000000000000000600052601260045260246000fd5b6000613a61826131e1565b9150613a6c836131e1565b925082613a7c57613a7b613a27565b5b828204905092915050565b6000613a92826131e1565b9150613a9d836131e1565b925082821015613ab057613aaf613713565b5b828203905092915050565b6000613ac682612cac565b9150613ad183612cac565b92508160ff0483118215151615613aeb57613aea613713565b5b828202905092915050565b6000613b0182612cac565b9150613b0c83612cac565b92508260ff03821115613b2257613b21613713565b5b828201905092915050565b7f4e487b7100000000000000000000000000000000000000000000000000000000600052602260045260246000fd5b60006002820490506001821680613b7457607f821691505b602082108103613b8757613b86613b2d565b5b50919050565b7f6e6f7420796f757220726f6f6d00000000000000000000000000000000000000600082015250565b6000613bc3600d83613615565b9150613bce82613b8d565b602082019050919050565b60006020820190508181036000830152613bf281613bb6565b9050919050565b613c0281612c76565b82525050565b600082825260208201905092915050565b613c2281612c76565b82525050565b6000613c348383613c19565b60208301905092915050565b6000613c4b826130ca565b613c558185613c08565b9350613c60836130e6565b8060005b83811015613c91578151613c788882613c28565b9750613c838361310e565b925050600181019050613c64565b5085935050505092915050565b6000604082019050613cb36000830185613bf9565b8181036020830152613cc58184613c40565b90509392505050565b613cd781612d61565b8114613ce257600080fd5b50565b600081519050613cf481613cce565b92915050565b600060208284031215613d1057613d0f612c6c565b5b6000613d1e84828501613ce5565b91505092915050565b600081905092915050565b6000613d3d82613261565b613d478185613d27565b9350613d5781856020860161327d565b80840191505092915050565b6000613d6f8285613d32565b9150613d7b8284613d32565b91508190509392505050565b6000613d938284613d32565b915081905092915050565b7f4f776e61626c653a206e6577206f776e657220697320746865207a65726f206160008201527f6464726573730000000000000000000000000000000000000000000000000000602082015250565b6000613dfa602683613615565b9150613e0582613d9e565b604082019050919050565b60006020820190508181036000830152613e2981613ded565b9050919050565b6000613e3b826131e1565b9150613e46836131e1565b92508161ffff0483118215151615613e6157613e60613713565b5b828202905092915050565b6000613e77826131e1565b9150613e82836131e1565b92508261ffff03821115613e9957613e98613713565b5b828201905092915050565b6000613eaf82612cac565b9150613eba83612cac565b925082613eca57613ec9613a27565b5b828204905092915050565b6000604082019050613eea6000830185613bf9565b613ef76020830184613bf9565b9392505050565b600081519050613f0d81612c80565b92915050565b600060208284031215613f2957613f28612c6c565b5b6000613f3784828501613efe565b91505092915050565b6000604082019050613f556000830185612d52565b613f626020830184612d52565b9392505050565b6000613f7482612c76565b9150613f7f83612c76565b925082613f8f57613f8e613a27565b5b828206905092915050565b7f4f776e61626c653a2063616c6c6572206973206e6f7420746865206f776e6572600082015250565b6000613fd0602083613615565b9150613fdb82613f9a565b602082019050919050565b60006020820190508181036000830152613fff81613fc3565b9050919050565b600061401182612c76565b915061401c83612c76565b92508282101561402f5761402e613713565b5b828203905092915050565b600061404582612c76565b915061405083612c76565b9250827fffffffffffffffffffffffffffffffffffffffffffffffffffffffffffffffff0382111561408557614084613713565b5b82820190509291505056fea26469706673582212206a36b5a9d2b658133fc3604b83d9eb8b9130f58401ebd6a41f3c918cf5fa895864736f6c634300080d0033",
  "immutableReferences": {},
  "source": "pragma solidity ^0.8.13;\n\nimport \"./PDDLib.sol\";\nimport \"./CarHelper.sol\";\nimport \"./CarFactory.sol\";\n\ncontract RaceHandler is CarHelper{\n    struct Cross{\n        uint playersNeeded;\n        uint roadsNum;\n        uint crossId;\n    }\n\n    Cross[] crosses;\n\n\n\n    mapping(address => uint) playersToRooms;\n    struct OpenedRoom{\n        uint id;\n        uint playersEntered;\n        uint world;\n        Cross cross;\n    }\n    struct StartedRoom{\n        uint numberPlayers;\n        uint world;\n        uint roomDNA;\n        uint startTime;\n        Answer[] answers;\n        uint curAnswer;\n        bool closed;\n    }\n    struct Answer{\n        address player;\n        bool correct;\n        uint time;\n    }\n\n    uint roomsCount;\n\n    constructor(){\n        crosses.push(Cross(4,4,0));\n        crosses.push(Cross(3,4,0));\n        crosses.push(Cross(2,4,0));\n        crosses.push(Cross(3,3,1));\n        crosses.push(Cross(2,3,1));\n        roomsCount = 1;\n    }\n\n    event RoomFull(uint roomId, uint roomDNA);\n    event RoomClosed(uint roomId);\n\n    OpenedRoom[] public openedRooms;\n    mapping(uint => StartedRoom) public idToStartedRooms;\n\n    function findRoom(uint carId) public onlyOwnerOfCar(carId){\n        bool foundRoom = false;\n        for(uint i = 0; i<openedRooms.length; i++){\n            if(cars[carId].carLevel/10+1 != openedRooms[i].world){\n                continue;\n            }\n            foundRoom = true;\n            playersToRooms[msg.sender] = openedRooms[i].id;\n            openedRooms[i].playersEntered++;\n            if(openedRooms[i].playersEntered == openedRooms[i].cross.playersNeeded){\n                uint roomDNA = PDDLib.generateRoom(openedRooms[i].cross.crossId, openedRooms[i].cross.playersNeeded);\n                \n                StartedRoom storage ss = idToStartedRooms[openedRooms[i].id];\n                ss.numberPlayers = openedRooms[i].cross.playersNeeded;\n                ss.world = openedRooms[i].world;\n                ss.roomDNA = roomDNA;\n                ss.startTime = block.timestamp;\n                ss.curAnswer = 0;\n                ss.closed = false;\n\n                emit RoomFull(openedRooms[i].id, roomDNA);\n                delete openedRooms[i];\n                break;\n            }\n        }\n\n        if(foundRoom){\n            return;\n        }\n        uint id = roomsCount++;\n        uint crossNum = block.timestamp%crosses.length;\n        playersToRooms[msg.sender] = id;\n        openedRooms.push(OpenedRoom(\n            id,\n            1,\n            cars[carId].carLevel/10+1,\n            crosses[crossNum]\n        ));\n    }\n\n    function getClosedRoom(uint roomId) public view returns(Answer[] memory){\n        require(idToStartedRooms[roomId].closed, \"room not closed\");\n        return idToStartedRooms[roomId].answers;\n    }\n\n\n\n    function commitAnswer(uint roomId, uint[] memory answer) public{\n        require(playersToRooms[msg.sender]==roomId, \"not your room\");\n\n        uint roomDNA = idToStartedRooms[roomId].roomDNA;\n        bool right = PDDLib.isCorrectAnswer(roomDNA, answer);\n        //Answer memory ans = Answer(msg.sender, right, block.timestamp);\n        \n        Answer memory ans = Answer(msg.sender, right, block.timestamp);\n        StartedRoom storage sr = idToStartedRooms[roomId];\n        sr.answers.push(ans);\n\n        if(idToStartedRooms[roomId].answers.length == idToStartedRooms[roomId].numberPlayers){\n            emit RoomClosed(roomId);\n            idToStartedRooms[roomId].closed = true;\n            delete playersToRooms[msg.sender];\n        }\n    }\n}\n",
  "sourcePath": "/Users/vvan/Programming/JavaScript/DriveSafely/contract/contracts/RaceHandler.sol",
  "compiler": {
    "name": "solc",
    "version": "0.8.13+commit.abaa5c0e.Emscripten.clang"
  },
  "schemaVersion": "3.4.11",
  "updatedAt": "2023-01-08T03:48:48.942Z",
  "networkType": "ethereum",
  "devdoc": {
    "kind": "dev",
    "methods": {
      "owner()": {
        "details": "Returns the address of the current owner."
      },
      "renounceOwnership()": {
        "details": "Leaves the contract without owner. It will not be possible to call `onlyOwner` functions anymore. Can only be called by the current owner. NOTE: Renouncing ownership will leave the contract without an owner, thereby removing any functionality that is only available to the owner."
      },
      "transferOwnership(address)": {
        "details": "Transfers ownership of the contract to a new account (`newOwner`). Can only be called by the current owner."
      }
    },
    "version": 1
  },
  "userdoc": {
    "kind": "user",
    "methods": {},
    "version": 1
  }
}