{
  "contractName": "RaceHandler",
  "abi": [
    {
      "inputs": [],
      "stateMutability": "nonpayable",
      "type": "constructor"
    },
    {
      "anonymous": false,
      "inputs": [
        {
          "indexed": true,
          "internalType": "address",
          "name": "previousOwner",
          "type": "address"
        },
        {
          "indexed": true,
          "internalType": "address",
          "name": "newOwner",
          "type": "address"
        }
      ],
      "name": "OwnershipTransferred",
      "type": "event"
    },
    {
      "anonymous": false,
      "inputs": [
        {
          "indexed": false,
          "internalType": "uint256",
          "name": "roomId",
          "type": "uint256"
        }
      ],
      "name": "RoomClosed",
      "type": "event"
    },
    {
      "anonymous": false,
      "inputs": [
        {
          "indexed": false,
          "internalType": "uint256",
          "name": "roomId",
          "type": "uint256"
        },
        {
          "indexed": false,
          "internalType": "uint256",
          "name": "roomDNA",
          "type": "uint256"
        }
      ],
      "name": "RoomFull",
      "type": "event"
    },
    {
      "inputs": [
        {
          "internalType": "uint256",
          "name": "",
          "type": "uint256"
        }
      ],
      "name": "carToOwner",
      "outputs": [
        {
          "internalType": "address",
          "name": "",
          "type": "address"
        }
      ],
      "stateMutability": "view",
      "type": "function"
    },
    {
      "inputs": [
        {
          "internalType": "uint256",
          "name": "",
          "type": "uint256"
        }
      ],
      "name": "carToPrice",
      "outputs": [
        {
          "internalType": "uint256",
          "name": "",
          "type": "uint256"
        }
      ],
      "stateMutability": "view",
      "type": "function"
    },
    {
      "inputs": [
        {
          "internalType": "uint256",
          "name": "",
          "type": "uint256"
        }
      ],
      "name": "cars",
      "outputs": [
        {
          "internalType": "string",
          "name": "model",
          "type": "string"
        },
        {
          "internalType": "uint256",
          "name": "vin",
          "type": "uint256"
        },
        {
          "internalType": "uint256",
          "name": "engineId",
          "type": "uint256"
        },
        {
          "internalType": "uint256",
          "name": "chassisId",
          "type": "uint256"
        },
        {
          "internalType": "uint8",
          "name": "carLevel",
          "type": "uint8"
        },
        {
          "internalType": "uint256",
          "name": "mileage",
          "type": "uint256"
        },
        {
          "internalType": "uint256",
          "name": "winCountOnCurrentLevel",
          "type": "uint256"
        },
        {
          "internalType": "uint256",
          "name": "lossCountOnCurrentLevel",
          "type": "uint256"
        },
        {
          "internalType": "uint256",
          "name": "id",
          "type": "uint256"
        }
      ],
      "stateMutability": "view",
      "type": "function"
    },
    {
      "inputs": [],
      "name": "carsForSaleCount",
      "outputs": [
        {
          "internalType": "uint256",
          "name": "",
          "type": "uint256"
        }
      ],
      "stateMutability": "view",
      "type": "function"
    },
    {
      "inputs": [
        {
          "internalType": "uint256",
          "name": "",
          "type": "uint256"
        }
      ],
      "name": "chassis",
      "outputs": [
        {
          "internalType": "uint256",
          "name": "id",
          "type": "uint256"
        },
        {
          "internalType": "uint32",
          "name": "durability",
          "type": "uint32"
        },
        {
          "internalType": "uint32",
          "name": "resource",
          "type": "uint32"
        }
      ],
      "stateMutability": "view",
      "type": "function"
    },
    {
      "inputs": [],
      "name": "chassisForSaleCount",
      "outputs": [
        {
          "internalType": "uint256",
          "name": "",
          "type": "uint256"
        }
      ],
      "stateMutability": "view",
      "type": "function"
    },
    {
      "inputs": [
        {
          "internalType": "uint256",
          "name": "",
          "type": "uint256"
        }
      ],
      "name": "chassisToOwner",
      "outputs": [
        {
          "internalType": "address",
          "name": "",
          "type": "address"
        }
      ],
      "stateMutability": "view",
      "type": "function"
    },
    {
      "inputs": [
        {
          "internalType": "uint256",
          "name": "",
          "type": "uint256"
        }
      ],
      "name": "chassisToPrice",
      "outputs": [
        {
          "internalType": "uint256",
          "name": "",
          "type": "uint256"
        }
      ],
      "stateMutability": "view",
      "type": "function"
    },
    {
      "inputs": [
        {
          "internalType": "string",
          "name": "model",
          "type": "string"
        }
      ],
      "name": "createCar",
      "outputs": [],
      "stateMutability": "nonpayable",
      "type": "function"
    },
    {
      "inputs": [
        {
          "internalType": "string",
          "name": "_model",
          "type": "string"
        },
        {
          "internalType": "uint16",
          "name": "_horsePowers",
          "type": "uint16"
        },
        {
          "internalType": "uint8",
          "name": "_consumtion",
          "type": "uint8"
        },
        {
          "internalType": "uint32",
          "name": "_durability",
          "type": "uint32"
        },
        {
          "internalType": "uint8",
          "name": "_carLevel",
          "type": "uint8"
        },
        {
          "internalType": "uint256",
          "name": "_carPrice",
          "type": "uint256"
        }
      ],
      "name": "createCustomCar",
      "outputs": [],
      "stateMutability": "nonpayable",
      "type": "function"
    },
    {
      "inputs": [
        {
          "internalType": "uint32",
          "name": "_durability",
          "type": "uint32"
        },
        {
          "internalType": "uint256",
          "name": "_chassisPrice",
          "type": "uint256"
        }
      ],
      "name": "createCustomChassis",
      "outputs": [
        {
          "internalType": "uint256",
          "name": "",
          "type": "uint256"
        }
      ],
      "stateMutability": "nonpayable",
      "type": "function"
    },
    {
      "inputs": [
        {
          "internalType": "uint16",
          "name": "_horsePowers",
          "type": "uint16"
        },
        {
          "internalType": "uint8",
          "name": "_consumtion",
          "type": "uint8"
        },
        {
          "internalType": "uint256",
          "name": "_enginePrice",
          "type": "uint256"
        }
      ],
      "name": "createCustomEngine",
      "outputs": [
        {
          "internalType": "uint256",
          "name": "",
          "type": "uint256"
        }
      ],
      "stateMutability": "nonpayable",
      "type": "function"
    },
    {
      "inputs": [],
      "name": "createFuelStation",
      "outputs": [],
      "stateMutability": "nonpayable",
      "type": "function"
    },
    {
      "inputs": [
        {
          "internalType": "uint256",
          "name": "carId",
          "type": "uint256"
        },
        {
          "internalType": "uint256",
          "name": "chassisId",
          "type": "uint256"
        }
      ],
      "name": "detachChassis",
      "outputs": [],
      "stateMutability": "nonpayable",
      "type": "function"
    },
    {
      "inputs": [
        {
          "internalType": "uint256",
          "name": "carId",
          "type": "uint256"
        },
        {
          "internalType": "uint256",
          "name": "engineId",
          "type": "uint256"
        }
      ],
      "name": "detachEngine",
      "outputs": [],
      "stateMutability": "nonpayable",
      "type": "function"
    },
    {
      "inputs": [
        {
          "internalType": "uint256",
          "name": "",
          "type": "uint256"
        }
      ],
      "name": "engineToOwner",
      "outputs": [
        {
          "internalType": "address",
          "name": "",
          "type": "address"
        }
      ],
      "stateMutability": "view",
      "type": "function"
    },
    {
      "inputs": [
        {
          "internalType": "uint256",
          "name": "",
          "type": "uint256"
        }
      ],
      "name": "engineToPrice",
      "outputs": [
        {
          "internalType": "uint256",
          "name": "",
          "type": "uint256"
        }
      ],
      "stateMutability": "view",
      "type": "function"
    },
    {
      "inputs": [
        {
          "internalType": "uint256",
          "name": "",
          "type": "uint256"
        }
      ],
      "name": "engines",
      "outputs": [
        {
          "internalType": "uint256",
          "name": "id",
          "type": "uint256"
        },
        {
          "internalType": "uint16",
          "name": "horsePowers",
          "type": "uint16"
        },
        {
          "internalType": "uint8",
          "name": "consumtion",
          "type": "uint8"
        }
      ],
      "stateMutability": "view",
      "type": "function"
    },
    {
      "inputs": [],
      "name": "enginesForSaleCount",
      "outputs": [
        {
          "internalType": "uint256",
          "name": "",
          "type": "uint256"
        }
      ],
      "stateMutability": "view",
      "type": "function"
    },
    {
      "inputs": [
        {
          "internalType": "uint256",
          "name": "",
          "type": "uint256"
        }
      ],
      "name": "fuelStationToOwner",
      "outputs": [
        {
          "internalType": "address",
          "name": "",
          "type": "address"
        }
      ],
      "stateMutability": "view",
      "type": "function"
    },
    {
      "inputs": [
        {
          "internalType": "address",
          "name": "_owner",
          "type": "address"
        }
      ],
      "name": "getCarsByOwner",
      "outputs": [
        {
          "components": [
            {
              "internalType": "string",
              "name": "model",
              "type": "string"
            },
            {
              "internalType": "uint256",
              "name": "vin",
              "type": "uint256"
            },
            {
              "internalType": "uint256",
              "name": "engineId",
              "type": "uint256"
            },
            {
              "internalType": "uint256",
              "name": "chassisId",
              "type": "uint256"
            },
            {
              "internalType": "uint8",
              "name": "carLevel",
              "type": "uint8"
            },
            {
              "internalType": "uint256",
              "name": "mileage",
              "type": "uint256"
            },
            {
              "internalType": "uint256",
              "name": "winCountOnCurrentLevel",
              "type": "uint256"
            },
            {
              "internalType": "uint256",
              "name": "lossCountOnCurrentLevel",
              "type": "uint256"
            },
            {
              "internalType": "uint256",
              "name": "id",
              "type": "uint256"
            }
          ],
          "internalType": "struct CarFactory.Car[]",
          "name": "",
          "type": "tuple[]"
        }
      ],
      "stateMutability": "view",
      "type": "function"
    },
    {
      "inputs": [
        {
          "internalType": "address",
          "name": "_owner",
          "type": "address"
        }
      ],
      "name": "getChassisByOwner",
      "outputs": [
        {
          "components": [
            {
              "internalType": "uint256",
              "name": "id",
              "type": "uint256"
            },
            {
              "internalType": "uint32",
              "name": "durability",
              "type": "uint32"
            },
            {
              "internalType": "uint32",
              "name": "resource",
              "type": "uint32"
            }
          ],
          "internalType": "struct CarFactory.Chassis[]",
          "name": "",
          "type": "tuple[]"
        }
      ],
      "stateMutability": "view",
      "type": "function"
    },
    {
      "inputs": [
        {
          "internalType": "address",
          "name": "_owner",
          "type": "address"
        }
      ],
      "name": "getEnginesByOwner",
      "outputs": [
        {
          "components": [
            {
              "internalType": "uint256",
              "name": "id",
              "type": "uint256"
            },
            {
              "internalType": "uint16",
              "name": "horsePowers",
              "type": "uint16"
            },
            {
              "internalType": "uint8",
              "name": "consumtion",
              "type": "uint8"
            }
          ],
          "internalType": "struct CarFactory.Engine[]",
          "name": "",
          "type": "tuple[]"
        }
      ],
      "stateMutability": "view",
      "type": "function"
    },
    {
      "inputs": [
        {
          "internalType": "address",
          "name": "_owner",
          "type": "address"
        }
      ],
      "name": "getFuelStationByOwner",
      "outputs": [
        {
          "components": [
            {
              "internalType": "uint256",
              "name": "id",
              "type": "uint256"
            },
            {
              "internalType": "uint8",
              "name": "capacity",
              "type": "uint8"
            },
            {
              "internalType": "uint8",
              "name": "productionPerHour",
              "type": "uint8"
            },
            {
              "internalType": "uint8",
              "name": "currentFullness",
              "type": "uint8"
            },
            {
              "internalType": "uint256",
              "name": "lastUpdate",
              "type": "uint256"
            }
          ],
          "internalType": "struct FuelStationFactory.FuelStation",
          "name": "",
          "type": "tuple"
        }
      ],
      "stateMutability": "view",
      "type": "function"
    },
    {
      "inputs": [
        {
          "internalType": "uint256",
          "name": "",
          "type": "uint256"
        }
      ],
      "name": "idToStartedRooms",
      "outputs": [
        {
          "internalType": "uint256",
          "name": "numberPlayers",
          "type": "uint256"
        },
        {
          "internalType": "uint256",
          "name": "world",
          "type": "uint256"
        },
        {
          "internalType": "uint256",
          "name": "roomDNA",
          "type": "uint256"
        },
        {
          "internalType": "uint256",
          "name": "startTime",
          "type": "uint256"
        },
        {
          "internalType": "uint256",
          "name": "curAnswer",
          "type": "uint256"
        },
        {
          "internalType": "bool",
          "name": "closed",
          "type": "bool"
        }
      ],
      "stateMutability": "view",
      "type": "function"
    },
    {
      "inputs": [
        {
          "internalType": "uint256",
          "name": "_carId",
          "type": "uint256"
        }
      ],
      "name": "levelUp",
      "outputs": [],
      "stateMutability": "payable",
      "type": "function"
    },
    {
      "inputs": [
        {
          "internalType": "uint256",
          "name": "",
          "type": "uint256"
        }
      ],
      "name": "openedRooms",
      "outputs": [
        {
          "internalType": "uint256",
          "name": "id",
          "type": "uint256"
        },
        {
          "internalType": "uint256",
          "name": "playersEntered",
          "type": "uint256"
        },
        {
          "internalType": "uint256",
          "name": "world",
          "type": "uint256"
        },
        {
          "components": [
            {
              "internalType": "uint256",
              "name": "playersNeeded",
              "type": "uint256"
            },
            {
              "internalType": "uint256",
              "name": "roadsNum",
              "type": "uint256"
            },
            {
              "internalType": "uint256",
              "name": "crossId",
              "type": "uint256"
            }
          ],
          "internalType": "struct RaceHandler.Cross",
          "name": "cross",
          "type": "tuple"
        }
      ],
      "stateMutability": "view",
      "type": "function"
    },
    {
      "inputs": [],
      "name": "owner",
      "outputs": [
        {
          "internalType": "address",
          "name": "",
          "type": "address"
        }
      ],
      "stateMutability": "view",
      "type": "function"
    },
    {
      "inputs": [
        {
          "internalType": "address",
          "name": "",
          "type": "address"
        }
      ],
      "name": "ownerCarCount",
      "outputs": [
        {
          "internalType": "uint256",
          "name": "",
          "type": "uint256"
        }
      ],
      "stateMutability": "view",
      "type": "function"
    },
    {
      "inputs": [
        {
          "internalType": "address",
          "name": "",
          "type": "address"
        }
      ],
      "name": "ownerChassisCount",
      "outputs": [
        {
          "internalType": "uint256",
          "name": "",
          "type": "uint256"
        }
      ],
      "stateMutability": "view",
      "type": "function"
    },
    {
      "inputs": [
        {
          "internalType": "address",
          "name": "",
          "type": "address"
        }
      ],
      "name": "ownerEngineCount",
      "outputs": [
        {
          "internalType": "uint256",
          "name": "",
          "type": "uint256"
        }
      ],
      "stateMutability": "view",
      "type": "function"
    },
    {
      "inputs": [],
      "name": "renounceOwnership",
      "outputs": [],
      "stateMutability": "nonpayable",
      "type": "function"
    },
    {
      "inputs": [
        {
          "internalType": "uint256",
          "name": "",
          "type": "uint256"
        }
      ],
      "name": "stations",
      "outputs": [
        {
          "internalType": "uint256",
          "name": "id",
          "type": "uint256"
        },
        {
          "internalType": "uint8",
          "name": "capacity",
          "type": "uint8"
        },
        {
          "internalType": "uint8",
          "name": "productionPerHour",
          "type": "uint8"
        },
        {
          "internalType": "uint8",
          "name": "currentFullness",
          "type": "uint8"
        },
        {
          "internalType": "uint256",
          "name": "lastUpdate",
          "type": "uint256"
        }
      ],
      "stateMutability": "view",
      "type": "function"
    },
    {
      "inputs": [
        {
          "internalType": "uint256",
          "name": "carId",
          "type": "uint256"
        },
        {
          "internalType": "uint256",
          "name": "chassisId",
          "type": "uint256"
        }
      ],
      "name": "switchChassis",
      "outputs": [],
      "stateMutability": "nonpayable",
      "type": "function"
    },
    {
      "inputs": [
        {
          "internalType": "uint256",
          "name": "carId",
          "type": "uint256"
        },
        {
          "internalType": "uint256",
          "name": "engineId",
          "type": "uint256"
        }
      ],
      "name": "switchEngine",
      "outputs": [],
      "stateMutability": "nonpayable",
      "type": "function"
    },
    {
      "inputs": [
        {
          "internalType": "address",
          "name": "newOwner",
          "type": "address"
        }
      ],
      "name": "transferOwnership",
      "outputs": [],
      "stateMutability": "nonpayable",
      "type": "function"
    },
    {
      "inputs": [
        {
          "internalType": "uint256",
          "name": "_fuelStatonId",
          "type": "uint256"
        },
        {
          "internalType": "uint8",
          "name": "_counts",
          "type": "uint8"
        }
      ],
      "name": "upgradeCapacity",
      "outputs": [],
      "stateMutability": "payable",
      "type": "function"
    },
    {
      "inputs": [
        {
          "internalType": "uint256",
          "name": "_engineId",
          "type": "uint256"
        },
        {
          "internalType": "uint8",
          "name": "_counts",
          "type": "uint8"
        }
      ],
      "name": "upgradeConsumtion",
      "outputs": [],
      "stateMutability": "payable",
      "type": "function"
    },
    {
      "inputs": [
        {
          "internalType": "uint256",
          "name": "_chassisId",
          "type": "uint256"
        },
        {
          "internalType": "uint8",
          "name": "_counts",
          "type": "uint8"
        }
      ],
      "name": "upgradeDurability",
      "outputs": [],
      "stateMutability": "payable",
      "type": "function"
    },
    {
      "inputs": [
        {
          "internalType": "uint256",
          "name": "_engineId",
          "type": "uint256"
        },
        {
          "internalType": "uint8",
          "name": "_counts",
          "type": "uint8"
        }
      ],
      "name": "upgradeHorsePowers",
      "outputs": [],
      "stateMutability": "payable",
      "type": "function"
    },
    {
      "inputs": [
        {
          "internalType": "uint256",
          "name": "_fuelStatonId",
          "type": "uint256"
        },
        {
          "internalType": "uint8",
          "name": "_counts",
          "type": "uint8"
        }
      ],
      "name": "upgradeProductionPerHour",
      "outputs": [],
      "stateMutability": "payable",
      "type": "function"
    },
    {
      "inputs": [
        {
          "internalType": "uint256",
          "name": "carId",
          "type": "uint256"
        }
      ],
      "name": "findRoom",
      "outputs": [],
      "stateMutability": "nonpayable",
      "type": "function"
    },
    {
      "inputs": [
        {
          "internalType": "uint256",
          "name": "roomId",
          "type": "uint256"
        }
      ],
      "name": "getClosedRoom",
      "outputs": [
        {
          "components": [
            {
              "internalType": "address",
              "name": "player",
              "type": "address"
            },
            {
              "internalType": "bool",
              "name": "correct",
              "type": "bool"
            },
            {
              "internalType": "uint256",
              "name": "time",
              "type": "uint256"
            },
            {
              "internalType": "uint256",
              "name": "carId",
              "type": "uint256"
            }
          ],
          "internalType": "struct RaceHandler.Answer[]",
          "name": "",
          "type": "tuple[]"
        }
      ],
      "stateMutability": "view",
      "type": "function"
    },
    {
      "inputs": [
        {
          "internalType": "uint256",
          "name": "roomId",
          "type": "uint256"
        },
        {
          "internalType": "uint256[]",
          "name": "answer",
          "type": "uint256[]"
        }
      ],
      "name": "commitAnswer",
      "outputs": [],
      "stateMutability": "nonpayable",
      "type": "function"
    }
  ],
  "bytecode": "0x60806040526000805461ffff60a01b191661014f60a21b17815560088190556009819055600a556001600b819055600c556509184e72a00060195565b5e620f48000601a55650da475abf000601b556611c37937e08000601c556305f5e100601d5566038d7ea4c68000601e553480156200007957600080fd5b50620000853362000258565b60506003908155605b60049081556005805460ff1916600a179055620186a06006556201d4c1600755600e80546001908101909155600f805482019055604080516060808201835284825260208281018681526000848601818152601f8054808a0182558184529651968b027fa03837a25210ee280c2113ff4b77ca23440b19d4866cca721c801278fd08d8078181019890985593517fa03837a25210ee280c2113ff4b77ca23440b19d4866cca721c801278fd08d8088086019190915591517fa03837a25210ee280c2113ff4b77ca23440b19d4866cca721c801278fd08d80994850155875180870189528b81528086018b8152818a018581528354808d0185558487529251928e02808b019390935590518285015551908501558751808701895260028082528187019b8c52818a018581528354808d0185558487529251928e02808b01939093559b51828501559a5190850155875180870189528b81528086018c8152818a018b81528354808d0185558487529251928e02808b019390935590518285015551908501558751958601885298855292840189815295840187815288548089018a559890915292519690970292830195909555915193810193909355519190920155602255620002a8565b600080546001600160a01b038381166001600160a01b0319831681178455604051919092169283917f8be0079c531659141344cd1fd0a4f28419497f9722a3daafe3b4186f6b6457e09190a35050565b613c5780620002b86000396000f3fe6080604052600436106102675760003560e01c80638776601911610144578063c85b7fed116100b6578063f2fde38b1161007a578063f2fde38b14610a24578063f7746e3614610a44578063f85993b914610a79578063faf4bb9814610aa6578063fb2d954f14610ab9578063fb33250f14610ad957600080fd5b8063c85b7fed14610984578063d1c54eea146109a4578063d7086fab146109c4578063ea126933146109e4578063ede6fbf514610a0457600080fd5b8063aa11b68111610108578063aa11b6811461087c578063b3b29afd146108a9578063b72c0eea146108d6578063bfcc971614610917578063c34cccc414610937578063c75bb4f41461095757600080fd5b806387766019146107b85780638da5cb5b146107e5578063906f5f341461080357806392f859db14610816578063982b691c1461086657600080fd5b806344901490116101dd5780636f206fc1116101a15780636f206fc1146106f6578063715018a6146107235780637713d521146107385780637c62360f146107655780637fb2aa4d1461077857806385909267146107a557600080fd5b806344901490146105c95780634e31f910146105ff578063594193d71461066a5780635dcc4cc6146106a05780636b606d9b146106d657600080fd5b80630ce90ec21161022f5780630ce90ec2146103af5780631702bf42146103c25780631c5dde0e146103d8578063224370f01461041a57806333ca504b1461054e5780633521c4261461059c57600080fd5b806303f2e05b1461026c5780630418394e14610281578063081315ff146103085780630a0176fc1461035e5780630c0cd53214610399575b600080fd5b61027f61027a366004613224565b610af9565b005b34801561028d57600080fd5b506102d461029c366004613250565b602460205260009081526040902080546001820154600283015460038401546005850154600690950154939492939192909160ff1686565b6040805196875260208701959095529385019290925260608401526080830152151560a082015260c0015b60405180910390f35b34801561031457600080fd5b50610328610323366004613250565b610c2f565b604080519485526020808601949094528481019290925280516060850152918201516080840152015160a082015260c0016102ff565b34801561036a57600080fd5b5061038b610379366004613250565b60186020526000908152604090205481565b6040519081526020016102ff565b3480156103a557600080fd5b5061038b600a5481565b61027f6103bd366004613250565b610c8d565b3480156103ce57600080fd5b5061038b60085481565b3480156103e457600080fd5b506103f86103f3366004613250565b610dfe565b6040805193845263ffffffff92831660208501529116908201526060016102ff565b34801561042657600080fd5b5061027f600180546040805160a0810182528281526000805460ff600160a01b820481166020808601828152600160a81b90940483168688019081526060870192835263ffffffff421660808801908152898b018b559986529551600389027fb10e2d527612073b26eecdfd717e6a320cf44b4afac2b0732d9fcbe2b7fa0cf681019190915593517fb10e2d527612073b26eecdfd717e6a320cf44b4afac2b0732d9fcbe2b7fa0cf785018054975193518516620100000262ff0000199486166101000261ffff19909916929095169190911796909617919091169190911790935594517fb10e2d527612073b26eecdfd717e6a320cf44b4afac2b0732d9fcbe2b7fa0cf8909501949094559183526002909152902080546001600160a01b03191633179055565b34801561055a57600080fd5b50610584610569366004613250565b6010602052600090815260409020546001600160a01b031681565b6040516001600160a01b0390911681526020016102ff565b3480156105a857600080fd5b506105bc6105b7366004613250565b610e3e565b6040516102ff9190613269565b3480156105d557600080fd5b506105846105e4366004613250565b6012602052600090815260409020546001600160a01b031681565b34801561060b57600080fd5b5061061f61061a3660046132d8565b610f30565b6040516102ff9190600060a0820190508251825260ff602084015116602083015260ff604084015116604083015260ff60608401511660608301526080830151608083015292915050565b34801561067657600080fd5b50610584610685366004613250565b6002602052600090815260409020546001600160a01b031681565b3480156106ac57600080fd5b506105846106bb366004613250565b6011602052600090815260409020546001600160a01b031681565b3480156106e257600080fd5b5061027f6106f1366004613301565b611017565b34801561070257600080fd5b506107166107113660046132d8565b611117565b6040516102ff9190613323565b34801561072f57600080fd5b5061027f61126b565b34801561074457600080fd5b506107586107533660046132d8565b61127f565b6040516102ff9190613379565b61027f610773366004613224565b6113c7565b34801561078457600080fd5b5061038b6107933660046132d8565b60146020526000908152604090205481565b61027f6107b3366004613224565b6114e2565b3480156107c457600080fd5b5061038b6107d33660046132d8565b60156020526000908152604090205481565b3480156107f157600080fd5b506000546001600160a01b0316610584565b61027f610811366004613224565b6115d6565b34801561082257600080fd5b50610836610831366004613250565b6116be565b6040805195865260ff9485166020870152928416928501929092529091166060830152608082015260a0016102ff565b34801561087257600080fd5b5061038b60095481565b34801561088857600080fd5b5061038b610897366004613250565b60166020526000908152604090205481565b3480156108b557600080fd5b5061038b6108c43660046132d8565b60136020526000908152604090205481565b3480156108e257600080fd5b506108f66108f1366004613250565b61170a565b6040805193845261ffff909216602084015260ff16908201526060016102ff565b34801561092357600080fd5b5061038b6109323660046133e0565b611747565b34801561094357600080fd5b5061027f610952366004613301565b61188c565b34801561096357600080fd5b506109776109723660046132d8565b6119dc565b6040516102ff9190613466565b34801561099057600080fd5b5061027f61099f366004613577565b611c1a565b3480156109b057600080fd5b5061027f6109bf366004613301565b611e15565b3480156109d057600080fd5b5061038b6109df36600461363b565b611efb565b3480156109f057600080fd5b5061027f6109ff366004613301565b612057565b348015610a1057600080fd5b5061027f610a1f3660046136e7565b6121bb565b348015610a3057600080fd5b5061027f610a3f3660046132d8565b612389565b348015610a5057600080fd5b50610a64610a5f366004613250565b612402565b6040516102ff9998979695949392919061371c565b348015610a8557600080fd5b5061038b610a94366004613250565b60176020526000908152604090205481565b61027f610ab4366004613224565b6124ef565b348015610ac557600080fd5b5061027f610ad4366004613250565b6125ff565b348015610ae557600080fd5b5061027f610af4366004613773565b612b12565b60008281526012602052604090205482906001600160a01b03163314610b3a5760405162461bcd60e51b8152600401610b31906137fb565b60405180910390fd5b601d54600f8481548110610b5057610b50613829565b6000918252602090912060016002909202010154610b779063ffffffff1660ff8516613855565b63ffffffff16610b879190613881565b3414610b9257600080fd5b600080546040516001600160a01b03909116913480156108fc02929091818181858888f19350505050158015610bcc573d6000803e3d6000fd5b508160ff16600f8481548110610be457610be4613829565b6000918252602082206001600290920201018054909190610c0c90849063ffffffff166138a0565b92506101000a81548163ffffffff021916908363ffffffff160217905550505050565b60238181548110610c3f57600080fd5b60009182526020918290206006909102018054600182015460028301546040805160608101825260038601548152600486015496810196909652600590940154938501939093529093509184565b6000600a600d8381548110610ca457610ca4613829565b6000918252602090912060046009909202010154610cc5919060ff166138de565b610cd0906001613900565b60ff16601e54610ce09190613881565b9050803414610d1e5760405162461bcd60e51b815260206004820152600a6024820152691ddc9bdb99c818dbdcdd60b21b6044820152606401610b31565b600080546040516001600160a01b03909116913480156108fc02929091818181858888f19350505050158015610d58573d6000803e3d6000fd5b50600d8281548110610d6c57610d6c613829565b600091825260208220600460099092020101805460ff1691610d8d83613925565b91906101000a81548160ff021916908360ff160217905550506000600d8381548110610dbb57610dbb613829565b9060005260206000209060090201600601819055506000600d8381548110610de557610de5613829565b9060005260206000209060090201600701819055505050565b600f8181548110610e0e57600080fd5b60009182526020909120600290910201805460019091015490915063ffffffff8082169164010000000090041683565b60008181526024602052604090206006015460609060ff16610e945760405162461bcd60e51b815260206004820152600f60248201526e1c9bdbdb481b9bdd0818db1bdcd959608a1b6044820152606401610b31565b600082815260246020908152604080832060040180548251818502810185019093528083529193909284015b82821015610f25576000848152602090819020604080516080810182526003860290920180546001600160a01b0381168452600160a01b900460ff16151583850152600180820154928401929092526002015460608301529083529092019101610ec0565b505050509050919050565b6040805160a081018252600080825260208201819052918101829052606081018290526080810182905290805b600154811015610fa2576000818152600260205260409020546001600160a01b03808616911603610f9057809150610fa2565b80610f9a81613944565b915050610f5d565b5060018181548110610fb657610fb6613829565b60009182526020918290206040805160a081018252600390930290910180548352600181015460ff80821695850195909552610100810485169284019290925262010000909104909216606082015260029091015460808201529392505050565b60008181526012602052604090205481906001600160a01b0316331461104f5760405162461bcd60e51b8152600401610b31906137fb565b60008381526010602052604090205483906001600160a01b0316331461107457600080fd5b82600d858154811061108857611088613829565b906000526020600020906009020160030154146110e75760405162461bcd60e51b815260206004820152601860248201527f6368617373697320617265206e6f7420617474616368656400000000000000006044820152606401610b31565b6000600d85815481106110fc576110fc613829565b90600052602060002090600902016003018190555050505050565b6001600160a01b0381166000908152601560205260408120546060919067ffffffffffffffff81111561114c5761114c613530565b60405190808252806020026020018201604052801561119757816020015b604080516060810182526000808252602080830182905292820152825260001990920191018161116a5790505b5090506000805b600f54811015611262576000818152601260205260409020546001600160a01b0380871691160361125057600f81815481106111dc576111dc613829565b6000918252602091829020604080516060810182526002909302909101805483526001015463ffffffff80821694840194909452640100000000900490921691810191909152835184908490811061123657611236613829565b6020026020010181905250818061124c90613944565b9250505b8061125a81613944565b91505061119e565b50909392505050565b611273612cf8565b61127d6000612d52565b565b6001600160a01b0381166000908152601460205260408120546060919067ffffffffffffffff8111156112b4576112b4613530565b6040519080825280602002602001820160405280156112ff57816020015b60408051606081018252600080825260208083018290529282015282526000199092019101816112d25790505b5090506000805b600e54811015611262576000818152601160205260409020546001600160a01b038087169116036113b557600e818154811061134457611344613829565b600091825260209182902060408051606081018252600293909302909101805483526001015461ffff8116938301939093526201000090920460ff1691810191909152835184908490811061139b5761139b613829565b602002602001018190525081806113b190613944565b9250505b806113bf81613944565b915050611306565b60008281526011602052604090205482906001600160a01b031633146113ec57600080fd5b600e83815481106113ff576113ff613829565b60009182526020909120600290910201600101546114279062010000900460ff16600a61395d565b611432906002613a64565b601c5461143f9190613881565b341461144a57600080fd5b600080546040516001600160a01b03909116913480156108fc02929091818181858888f19350505050158015611484573d6000803e3d6000fd5b5081600e848154811061149957611499613829565b906000526020600020906002020160010160028282829054906101000a900460ff166114c5919061395d565b92506101000a81548160ff021916908360ff160217905550505050565b60008281526002602052604090205482906001600160a01b0316331461150757600080fd5b601a546001848154811061151d5761151d613829565b600091825260209091206003909102016001015461154390610100900460ff1684613a7a565b60ff166115509190613881565b341461155b57600080fd5b600080546040516001600160a01b03909116913480156108fc02929091818181858888f19350505050158015611595573d6000803e3d6000fd5b5081600184815481106115aa576115aa613829565b906000526020600020906003020160010160018282829054906101000a900460ff166114c59190613900565b60008281526002602052604090205482906001600160a01b031633146115fb57600080fd5b6019546001848154811061161157611611613829565b60009182526020909120600160039092020101546116329060ff1684613a7a565b60ff1661163f9190613881565b341461164a57600080fd5b600080546040516001600160a01b03909116913480156108fc02929091818181858888f19350505050158015611684573d6000803e3d6000fd5b50816001848154811061169957611699613829565b60009182526020822060016003909202010180549091906114c590849060ff16613900565b600181815481106116ce57600080fd5b600091825260209091206003909102018054600182015460029092015490925060ff808316926101008104821692620100009091049091169085565b600e818154811061171a57600080fd5b60009182526020909120600290910201805460019091015490915061ffff81169062010000900460ff1683565b6000611751612cf8565b600c80546000918261176283613944565b909155506040805160608101825282815263ffffffff8781166020808401828152848601928352600f80546001810182556000918252955160029096027f8d1108e10bcb7c27dddfc02ed9d693a074039d026cf4ea4240b40f7d581ac80281019690965590517f8d1108e10bcb7c27dddfc02ed9d693a074039d026cf4ea4240b40f7d581ac8039095018054935185166401000000000267ffffffffffffffff1990941695909416949094179190911790915581546001600160a01b031682526015905290812080549293509061183883613944565b9091555050600080548282526012602052604090912080546001600160a01b0319166001600160a01b0390921691909117905582156118835760008181526018602052604090208390555b90505b92915050565b60008181526011602052604090205481906001600160a01b031633146118b157600080fd5b60008381526010602052604090205483906001600160a01b031633146118d657600080fd5b82600d85815481106118ea576118ea613829565b906000526020600020906009020160020154036119375760405162461bcd60e51b815260206004820152600b60248201526a73616d6520656e67696e6560a81b6044820152606401610b31565b6000611942336119dc565b905060005b81518110156119ab578482828151811061196357611963613829565b6020026020010151604001510361199957600082828151811061198857611988613829565b602002602001015160400181815250505b806119a381613944565b915050611947565b5083600d86815481106119c0576119c0613829565b9060005260206000209060090201600201819055505050505050565b6001600160a01b0381166000908152601360205260408120546060919067ffffffffffffffff811115611a1157611a11613530565b604051908082528060200260200182016040528015611a9457816020015b611a8160405180610120016040528060608152602001600081526020016000815260200160008152602001600060ff168152602001600081526020016000815260200160008152602001600081525090565b815260200190600190039081611a2f5790505b5090506000805b600d54811015611262576000818152601060205260409020546001600160a01b03808716911603611c0857600d8181548110611ad957611ad9613829565b906000526020600020906009020160405180610120016040529081600082018054611b0390613a9b565b80601f0160208091040260200160405190810160405280929190818152602001828054611b2f90613a9b565b8015611b7c5780601f10611b5157610100808354040283529160200191611b7c565b820191906000526020600020905b815481529060010190602001808311611b5f57829003601f168201915b5050509183525050600182015460208201526002820154604082015260038201546060820152600482015460ff166080820152600582015460a0820152600682015460c0820152600782015460e0820152600890910154610100909101528351849084908110611bee57611bee613829565b60200260200101819052508180611c0490613944565b9250505b80611c1281613944565b915050611a9b565b3360009081526020805260409020548214611c675760405162461bcd60e51b815260206004820152600d60248201526c6e6f7420796f757220726f6f6d60981b6044820152606401610b31565b600082815260246020526040808220600201549051634e31f59760e11b815290919073__PDDLib________________________________90639c63eb2e90611cb59085908790600401613ad5565b602060405180830381865af4158015611cd2573d6000803e3d6000fd5b505050506040513d601f19601f82011682018060405250810190611cf69190613b23565b604080516080810182523380825283151560208084019182524284860190815260009384526021825285842054606086019081528b855260248352958420600481018054600181810183558288529487208851600390920201805496511515600160a01b026001600160a81b03199097166001600160a01b03929092169190911795909517855591519284019290925594516002909201919091559088905280549254939450909290919003611e0d576040518681527f67acaceb58ff1ad2aa8b3069f69c4cd076824e06a09184b75fb197ead7040be79060200160405180910390a16000868152602460209081526040808320600601805460ff1916600117905533835281805280832083905560219091528120555b505050505050565b60008181526011602052604090205481906001600160a01b03163314611e3a57600080fd5b60008381526010602052604090205483906001600160a01b03163314611e5f57600080fd5b82600d8581548110611e7357611e73613829565b90600052602060002090600902016002015414611ecb5760405162461bcd60e51b8152602060048201526016602482015275195b99da5b99481a5cc81b9bdd08185d1d1858da195960521b6044820152606401610b31565b6000600d8581548110611ee057611ee0613829565b90600052602060002090600902016002018190555050505050565b6000611f05612cf8565b600b805460009182611f1683613944565b909155506040805160608101825282815261ffff8089166020830190815260ff808a16948401948552600e80546001810182556000918252945160029095027fbb7b4a454dc3493923482f07822329ed19e8244eff582cc204f8554c3620c3fd81019590955591517fbb7b4a454dc3493923482f07822329ed19e8244eff582cc204f8554c3620c3fe90940180549551909116620100000262ffffff19909516939092169290921792909217909155909150601490611fdd6000546001600160a01b031690565b6001600160a01b031681526020810191909152604001600090812080549161200483613944565b9091555050600080548282526011602052604090912080546001600160a01b0319166001600160a01b03909216919091179055821561204f5760008181526017602052604090208390555b949350505050565b60008181526012602052604090205481906001600160a01b0316331461208f5760405162461bcd60e51b8152600401610b31906137fb565b60008381526010602052604090205483906001600160a01b031633146120b457600080fd5b82600d85815481106120c8576120c8613829565b906000526020600020906009020160030154036121165760405162461bcd60e51b815260206004820152600c60248201526b73616d65206368617373697360a01b6044820152606401610b31565b6000612121336119dc565b905060005b815181101561218a578482828151811061214257612142613829565b6020026020010151606001510361217857600082828151811061216757612167613829565b602002602001015160600181815250505b8061218281613944565b915050612126565b5083600d868154811061219f5761219f613829565b9060005260206000209060090201600301819055505050505050565b33600090815260136020526040902054156121d557600080fd5b6000816121e142612da2565b6040516020016121f2929190613b45565b60405160208183030381529060405290506000816040516020016122169190613b6b565b6040516020818303038152906040528051906020012060001c9050600061223b612e35565b90506000612247612f69565b600d80546040805161012081018252898152602080820189905291810187905260608101859052600160808201819052600060a0830181905260c0830181905260e083018190526101008301859052908401855593909352825180519495509193600985027fd7b6990105719101dabeb77144f2a3385c8033acd3af97e9423a695e81ad1eb501926122dd928492910190613175565b506020828101516001830155604080840151600284015560608401516003840155608084015160048401805460ff191660ff90921691909117905560a0840151600584015560c0840151600684015560e08401516007840155610100909301516008909201919091556000838152601082528281208054336001600160a01b031990911681179091558152601390915290812080549161237c83613944565b9190505550505050505050565b612391612cf8565b6001600160a01b0381166123f65760405162461bcd60e51b815260206004820152602660248201527f4f776e61626c653a206e6577206f776e657220697320746865207a65726f206160448201526564647265737360d01b6064820152608401610b31565b6123ff81612d52565b50565b600d818154811061241257600080fd5b906000526020600020906009020160009150905080600001805461243590613a9b565b80601f016020809104026020016040519081016040528092919081815260200182805461246190613a9b565b80156124ae5780601f10612483576101008083540402835291602001916124ae565b820191906000526020600020905b81548152906001019060200180831161249157829003601f168201915b50505060018401546002850154600386015460048701546005880154600689015460078a01546008909a01549899959894975092955060ff90911693909289565b60008281526011602052604090205482906001600160a01b0316331461251457600080fd5b601b54600e848154811061252a5761252a613829565b600091825260209091206001600290920201015461254f9061ffff1660ff8516613b87565b61ffff1661255d9190613881565b341461256857600080fd5b600080546040516001600160a01b03909116913480156108fc02929091818181858888f193505050501580156125a2573d6000803e3d6000fd5b508160ff16600e84815481106125ba576125ba613829565b60009182526020822060016002909202010180549091906125e090849061ffff16613ba8565b92506101000a81548161ffff021916908361ffff160217905550505050565b60008181526010602052604090205481906001600160a01b0316331461262457600080fd5b6000805b6023548110156129ae576023818154811061264557612645613829565b906000526020600020906006020160020154600a600d868154811061266c5761266c613829565b600091825260209091206004600990920201015461268d919060ff166138de565b612698906001613900565b60ff160361299c5760019150602381815481106126b7576126b7613829565b600091825260208083206006909202909101543383528180526040808420919091556021909152902084905560238054829081106126f7576126f7613829565b60009182526020822060016006909202010180549161271583613944565b91905055506023818154811061272d5761272d613829565b9060005260206000209060060201600301600001546023828154811061275557612755613829565b9060005260206000209060060201600101540361299c57600073__PDDLib________________________________63c037e5456023848154811061279b5761279b613829565b906000526020600020906006020160030160020154602385815481106127c3576127c3613829565b9060005260206000209060060201600301600001546040518363ffffffff1660e01b81526004016127fe929190918252602082015260400190565b602060405180830381865af415801561281b573d6000803e3d6000fd5b505050506040513d601f19601f8201168201806040525081019061283f9190613bc5565b90506000602460006023858154811061285a5761285a613829565b906000526020600020906006020160000154815260200190815260200160002090506023838154811061288f5761288f613829565b6000918252602090912060036006909202010154815560238054849081106128b9576128b9613829565b6000918252602082206006918202016002908101546001850155830184905542600384015560058301919091558101805460ff19169055602380547f2838ebeee7dc83fac85a3d6dbca0c0b6771591ada8b00f97371aa6611e631f9c91908590811061292757612927613829565b600091825260209182902060069091020154604080519182529181018590520160405180910390a16023838154811061296257612962613829565b6000918252602082206006909102018181556001810182905560028101829055600381018290556004810182905560050155506129ae9050565b806129a681613944565b915050612628565b5080156129ba57505050565b60228054600091826129cb83613944565b90915550601f549091506000906129e29042613bde565b90508160206000336001600160a01b03166001600160a01b03168152602001908152602001600020819055506023604051806080016040528084815260200160018152602001600a600d8981548110612a3d57612a3d613829565b6000918252602090912060046009909202010154612a5e919060ff166138de565b612a69906001613900565b60ff168152602001601f8481548110612a8457612a84613829565b60009182526020808320604080516060808201835260039586029093018054825260018082015483870152600291820154838501529190975288548082018a5598865294839020875160069099020197885586830151948801949094558584015194870194909455939092015180519285019290925591810151600484015501516005909101555050505050565b612b1a612cf8565b600086612b2642612da2565b604051602001612b37929190613b45565b6040516020818303038152906040529050600081604051602001612b5b9190613b6b565b6040516020818303038152906040528051906020012060001c90506000612b8488886000611efb565b90506000612b93876000611747565b600d805460408051610120810182528e815260208082018990529181018790526060810185905260ff8b166080820152600060a0820181905260c0820181905260e08201819052610100820184905260018401855593909352825180519495509193600985027fd7b6990105719101dabeb77144f2a3385c8033acd3af97e9423a695e81ad1eb50192612c2a928492910190613175565b506020828101516001830155604080840151600284015560608401516003840155608084015160048401805460ff90921660ff1990921691909117905560a0840151600584015560c0840151600684015560e0840151600784015561010090930151600890920191909155600080548482526010835283822080546001600160a01b0319166001600160a01b0392831617905581541681526013909152908120805491612cd683613944565b9091555050600090815260166020526040902094909455505050505050505050565b6000546001600160a01b0316331461127d5760405162461bcd60e51b815260206004820181905260248201527f4f776e61626c653a2063616c6c6572206973206e6f7420746865206f776e65726044820152606401610b31565b600080546001600160a01b038381166001600160a01b0319831681178455604051919092169283917f8be0079c531659141344cd1fd0a4f28419497f9722a3daafe3b4186f6b6457e09190a35050565b60606000612daf8361309d565b600101905060008167ffffffffffffffff811115612dcf57612dcf613530565b6040519080825280601f01601f191660200182016040528015612df9576020820181803683370190505b5090508181016020015b600019016f181899199a1a9b1b9c1cb0b131b232b360811b600a86061a8153600a8504945084612e0357509392505050565b600080600354600454612e489190613bf2565b612e529042613bde565b600354612e5f9190613c09565b600b80549192506000919082612e7483613944565b909155506040805160608101825282815261ffff808616602080840191825260055460ff908116858701908152600e80546001810182556000918252965160029097027fbb7b4a454dc3493923482f07822329ed19e8244eff582cc204f8554c3620c3fd81019790975593517fbb7b4a454dc3493923482f07822329ed19e8244eff582cc204f8554c3620c3fe90960180549151909216620100000262ffffff1990911695909416949094179290921790925533825260149052908120805492935090612f4083613944565b9091555050600081815260116020526040902080546001600160a01b0319163317905592915050565b600080600654600754612f7c9190613bf2565b612f869042613bde565b600654612f939190613c09565b600c80549192506000919082612fa883613944565b909155506040805160608101825282815263ffffffff8086166020808401828152848601928352600f80546001810182556000918252955160029096027f8d1108e10bcb7c27dddfc02ed9d693a074039d026cf4ea4240b40f7d581ac80281019690965590517f8d1108e10bcb7c27dddfc02ed9d693a074039d026cf4ea4240b40f7d581ac8039095018054935185166401000000000267ffffffffffffffff199094169590941694909417919091179091553382526015905290812080549293509061307483613944565b9091555050600081815260126020526040902080546001600160a01b0319163317905592915050565b60008072184f03e93ff9f4daa797ed6e38ed64bf6a1f0160401b83106130dc5772184f03e93ff9f4daa797ed6e38ed64bf6a1f0160401b830492506040015b6d04ee2d6d415b85acef81000000008310613108576d04ee2d6d415b85acef8100000000830492506020015b662386f26fc10000831061312657662386f26fc10000830492506010015b6305f5e100831061313e576305f5e100830492506008015b612710831061315257612710830492506004015b60648310613164576064830492506002015b600a83106118865760010192915050565b82805461318190613a9b565b90600052602060002090601f0160209004810192826131a357600085556131e9565b82601f106131bc57805160ff19168380011785556131e9565b828001600101855582156131e9579182015b828111156131e95782518255916020019190600101906131ce565b506131f59291506131f9565b5090565b5b808211156131f557600081556001016131fa565b803560ff8116811461321f57600080fd5b919050565b6000806040838503121561323757600080fd5b823591506132476020840161320e565b90509250929050565b60006020828403121561326257600080fd5b5035919050565b602080825282518282018190526000919060409081850190868401855b828110156132cb57815180516001600160a01b031685528681015115158786015285810151868601526060908101519085015260809093019290850190600101613286565b5091979650505050505050565b6000602082840312156132ea57600080fd5b81356001600160a01b038116811461188357600080fd5b6000806040838503121561331457600080fd5b50508035926020909101359150565b602080825282518282018190526000919060409081850190868401855b828110156132cb578151805185528681015163ffffffff9081168887015290860151168585015260609093019290850190600101613340565b602080825282518282018190526000919060409081850190868401855b828110156132cb578151805185528681015161ffff168786015285015160ff168585015260609093019290850190600101613396565b803563ffffffff8116811461321f57600080fd5b600080604083850312156133f357600080fd5b6133fc836133cc565b946020939093013593505050565b60005b8381101561342557818101518382015260200161340d565b83811115613434576000848401525b50505050565b6000815180845261345281602086016020860161340a565b601f01601f19169290920160200192915050565b60006020808301818452808551808352604092508286019150828160051b87010184880160005b8381101561352257603f19898403018552815161012081518186526134b48287018261343a565b9150508882015189860152878201518886015260608083015181870152506080808301516134e68288018260ff169052565b505060a0828101519086015260c0808301519086015260e08083015190860152610100918201519190940152938601939086019060010161348d565b509098975050505050505050565b634e487b7160e01b600052604160045260246000fd5b604051601f8201601f1916810167ffffffffffffffff8111828210171561356f5761356f613530565b604052919050565b6000806040838503121561358a57600080fd5b8235915060208084013567ffffffffffffffff808211156135aa57600080fd5b818601915086601f8301126135be57600080fd5b8135818111156135d0576135d0613530565b8060051b91506135e1848301613546565b81815291830184019184810190898411156135fb57600080fd5b938501935b8385101561361957843582529385019390850190613600565b8096505050505050509250929050565b803561ffff8116811461321f57600080fd5b60008060006060848603121561365057600080fd5b61365984613629565b92506136676020850161320e565b9150604084013590509250925092565b600082601f83011261368857600080fd5b813567ffffffffffffffff8111156136a2576136a2613530565b6136b5601f8201601f1916602001613546565b8181528460208386010111156136ca57600080fd5b816020850160208301376000918101602001919091529392505050565b6000602082840312156136f957600080fd5b813567ffffffffffffffff81111561371057600080fd5b61204f84828501613677565b60006101208083526137308184018d61343a565b602084019b909b5250506040810197909752606087019590955260ff93909316608086015260a085019190915260c084015260e083015261010090910152919050565b60008060008060008060c0878903121561378c57600080fd5b863567ffffffffffffffff8111156137a357600080fd5b6137af89828a01613677565b9650506137be60208801613629565b94506137cc6040880161320e565b93506137da606088016133cc565b92506137e86080880161320e565b915060a087013590509295509295509295565b6020808252601490820152730c6d0c2e6e6d2e640dcdee840f2deeae4407c74560631b604082015260600190565b634e487b7160e01b600052603260045260246000fd5b634e487b7160e01b600052601160045260246000fd5b600063ffffffff808316818516818304811182151516156138785761387861383f565b02949350505050565b600081600019048311821515161561389b5761389b61383f565b500290565b600063ffffffff8083168185168083038211156138bf576138bf61383f565b01949350505050565b634e487b7160e01b600052601260045260246000fd5b600060ff8316806138f1576138f16138c8565b8060ff84160491505092915050565b600060ff821660ff84168060ff0382111561391d5761391d61383f565b019392505050565b600060ff821660ff810361393b5761393b61383f565b60010192915050565b6000600182016139565761395661383f565b5060010190565b600060ff821660ff8416808210156139775761397761383f565b90039392505050565b600181815b808511156139bb5781600019048211156139a1576139a161383f565b808516156139ae57918102915b93841c9390800290613985565b509250929050565b6000826139d257506001611886565b816139df57506000611886565b81600181146139f557600281146139ff57613a1b565b6001915050611886565b60ff841115613a1057613a1061383f565b50506001821b611886565b5060208310610133831016604e8410600b8410161715613a3e575081810a611886565b613a488383613980565b8060001904821115613a5c57613a5c61383f565b029392505050565b6000613a7360ff8416836139c3565b9392505050565b600060ff821660ff84168160ff0481118215151615613a5c57613a5c61383f565b600181811c90821680613aaf57607f821691505b602082108103613acf57634e487b7160e01b600052602260045260246000fd5b50919050565b6000604082018483526020604081850152818551808452606086019150828701935060005b81811015613b1657845183529383019391830191600101613afa565b5090979650505050505050565b600060208284031215613b3557600080fd5b8151801515811461188357600080fd5b60008351613b5781846020880161340a565b8351908301906138bf81836020880161340a565b60008251613b7d81846020870161340a565b9190910192915050565b600061ffff808316818516818304811182151516156138785761387861383f565b600061ffff8083168185168083038211156138bf576138bf61383f565b600060208284031215613bd757600080fd5b5051919050565b600082613bed57613bed6138c8565b500690565b600082821015613c0457613c0461383f565b500390565b60008219821115613c1c57613c1c61383f565b50019056fea264697066735822122039577fd8f10f77f399e71c049ea357482f2652666fb2e06610930b5d32f2fefb64736f6c634300080d0033",
  "immutableReferences": {},
  "source": "// SPDX-License-Identifier: MIT\npragma solidity ^0.8.13;\n\nimport \"./PDDLib.sol\";\nimport \"./CarHelper.sol\";\nimport \"./CarFactory.sol\";\n\ncontract RaceHandler is CarHelper{\n    struct Cross{\n        uint playersNeeded;\n        uint roadsNum;\n        uint crossId;\n    }\n\n    Cross[] crosses;\n    \n    mapping(address => uint) playersToRooms;\n    mapping(address => uint) playersToCars;\n    struct OpenedRoom{\n        uint id;\n        uint playersEntered;\n        uint world;\n        Cross cross;\n    }\n    struct StartedRoom{\n        uint numberPlayers;\n        uint world;\n        uint roomDNA;\n        uint startTime;\n        Answer[] answers;\n        uint curAnswer;\n        bool closed;\n    }\n    struct Answer{\n        address player;\n        bool correct;\n        uint time;\n        uint carId;\n    }\n\n    uint roomsCount;\n\n    constructor(){\n        crosses.push(Cross(4,4,0));\n        crosses.push(Cross(3,4,0));\n        crosses.push(Cross(2,4,0));\n        crosses.push(Cross(3,3,1));\n        crosses.push(Cross(2,3,1));\n        roomsCount = 1;\n    }\n\n    event RoomFull(uint roomId, uint roomDNA);\n    event RoomClosed(uint roomId);\n\n    OpenedRoom[] public openedRooms;\n    mapping(uint => StartedRoom) public idToStartedRooms;\n\n    function findRoom(uint carId) public onlyOwnerOfCar(carId){\n        bool foundRoom = false;\n        for(uint i = 0; i<openedRooms.length; i++){\n            if(cars[carId].carLevel/10+1 != openedRooms[i].world){\n                continue;\n            }\n            foundRoom = true;\n            playersToRooms[msg.sender] = openedRooms[i].id;\n            playersToCars[msg.sender] = carId;\n            openedRooms[i].playersEntered++;\n            if(openedRooms[i].playersEntered == openedRooms[i].cross.playersNeeded){\n                uint roomDNA = PDDLib.generateRoom(openedRooms[i].cross.crossId, openedRooms[i].cross.playersNeeded);\n                \n                StartedRoom storage ss = idToStartedRooms[openedRooms[i].id];\n                ss.numberPlayers = openedRooms[i].cross.playersNeeded;\n                ss.world = openedRooms[i].world;\n                ss.roomDNA = roomDNA;\n                ss.startTime = block.timestamp;\n                ss.curAnswer = 0;\n                ss.closed = false;\n\n                emit RoomFull(openedRooms[i].id, roomDNA);\n                delete openedRooms[i];\n                break;\n            }\n        }\n\n        if(foundRoom){\n            return;\n        }\n        uint id = roomsCount++;\n        uint crossNum = block.timestamp%crosses.length;\n        playersToRooms[msg.sender] = id;\n        openedRooms.push(OpenedRoom(\n            id,\n            1,\n            cars[carId].carLevel/10+1,\n            crosses[crossNum]\n        ));\n    }\n\n    function getClosedRoom(uint roomId) public view returns(Answer[] memory){\n        require(idToStartedRooms[roomId].closed, \"room not closed\");\n        return idToStartedRooms[roomId].answers;\n    }\n\n\n\n    function commitAnswer(uint roomId, uint[] memory answer) public{\n        require(playersToRooms[msg.sender]==roomId, \"not your room\");\n\n        uint roomDNA = idToStartedRooms[roomId].roomDNA;\n        bool right = PDDLib.isCorrectAnswer(roomDNA, answer);\n        //Answer memory ans = Answer(msg.sender, right, block.timestamp);\n        \n        Answer memory ans = Answer(msg.sender, right, block.timestamp, playersToCars[msg.sender]);\n        StartedRoom storage sr = idToStartedRooms[roomId];\n        sr.answers.push(ans);\n\n        if(idToStartedRooms[roomId].answers.length == idToStartedRooms[roomId].numberPlayers){\n            emit RoomClosed(roomId);\n            idToStartedRooms[roomId].closed = true;\n            delete playersToRooms[msg.sender];\n            delete playersToCars[msg.sender];\n        }\n    }\n}\n",
  "sourcePath": "/Users/vvan/Programming/JavaScript/DriveSafely/contract/contracts/RaceHandler.sol",
  "compiler": {
    "name": "solc",
    "version": "0.8.13+commit.abaa5c0e.Emscripten.clang"
  },
  "schemaVersion": "3.4.11",
  "updatedAt": "2023-01-11T13:50:04.591Z",
  "networkType": "ethereum",
  "devdoc": {
    "kind": "dev",
    "methods": {
      "owner()": {
        "details": "Returns the address of the current owner."
      },
      "renounceOwnership()": {
        "details": "Leaves the contract without owner. It will not be possible to call `onlyOwner` functions anymore. Can only be called by the current owner. NOTE: Renouncing ownership will leave the contract without an owner, thereby removing any functionality that is only available to the owner."
      },
      "transferOwnership(address)": {
        "details": "Transfers ownership of the contract to a new account (`newOwner`). Can only be called by the current owner."
      }
    },
    "version": 1
  },
  "userdoc": {
    "kind": "user",
    "methods": {},
    "version": 1
  }
}