{
  "contractName": "RaceHandler",
  "abi": [
    {
      "inputs": [],
      "stateMutability": "nonpayable",
      "type": "constructor"
    },
    {
      "anonymous": false,
      "inputs": [
        {
          "indexed": true,
          "internalType": "address",
          "name": "previousOwner",
          "type": "address"
        },
        {
          "indexed": true,
          "internalType": "address",
          "name": "newOwner",
          "type": "address"
        }
      ],
      "name": "OwnershipTransferred",
      "type": "event"
    },
    {
      "anonymous": false,
      "inputs": [
        {
          "indexed": false,
          "internalType": "uint256",
          "name": "roomId",
          "type": "uint256"
        }
      ],
      "name": "RoomClosed",
      "type": "event"
    },
    {
      "anonymous": false,
      "inputs": [
        {
          "indexed": false,
          "internalType": "uint256",
          "name": "roomId",
          "type": "uint256"
        },
        {
          "indexed": false,
          "internalType": "uint256",
          "name": "roomDNA",
          "type": "uint256"
        }
      ],
      "name": "RoomFull",
      "type": "event"
    },
    {
      "inputs": [
        {
          "internalType": "uint256",
          "name": "",
          "type": "uint256"
        }
      ],
      "name": "carToOwner",
      "outputs": [
        {
          "internalType": "address",
          "name": "",
          "type": "address"
        }
      ],
      "stateMutability": "view",
      "type": "function"
    },
    {
      "inputs": [
        {
          "internalType": "uint256",
          "name": "",
          "type": "uint256"
        }
      ],
      "name": "carToPrice",
      "outputs": [
        {
          "internalType": "uint256",
          "name": "",
          "type": "uint256"
        }
      ],
      "stateMutability": "view",
      "type": "function"
    },
    {
      "inputs": [
        {
          "internalType": "uint256",
          "name": "",
          "type": "uint256"
        }
      ],
      "name": "cars",
      "outputs": [
        {
          "internalType": "string",
          "name": "model",
          "type": "string"
        },
        {
          "internalType": "uint256",
          "name": "vin",
          "type": "uint256"
        },
        {
          "internalType": "uint256",
          "name": "engineId",
          "type": "uint256"
        },
        {
          "internalType": "uint256",
          "name": "chassisId",
          "type": "uint256"
        },
        {
          "internalType": "uint8",
          "name": "carLevel",
          "type": "uint8"
        },
        {
          "internalType": "uint256",
          "name": "mileage",
          "type": "uint256"
        },
        {
          "internalType": "uint256",
          "name": "winCountOnCurrentLevel",
          "type": "uint256"
        },
        {
          "internalType": "uint256",
          "name": "lossCountOnCurrentLevel",
          "type": "uint256"
        },
        {
          "internalType": "uint256",
          "name": "id",
          "type": "uint256"
        }
      ],
      "stateMutability": "view",
      "type": "function"
    },
    {
      "inputs": [],
      "name": "carsForSaleCount",
      "outputs": [
        {
          "internalType": "uint256",
          "name": "",
          "type": "uint256"
        }
      ],
      "stateMutability": "view",
      "type": "function"
    },
    {
      "inputs": [
        {
          "internalType": "uint256",
          "name": "",
          "type": "uint256"
        }
      ],
      "name": "chassis",
      "outputs": [
        {
          "internalType": "uint256",
          "name": "id",
          "type": "uint256"
        },
        {
          "internalType": "uint32",
          "name": "durability",
          "type": "uint32"
        },
        {
          "internalType": "uint32",
          "name": "resource",
          "type": "uint32"
        }
      ],
      "stateMutability": "view",
      "type": "function"
    },
    {
      "inputs": [],
      "name": "chassisForSaleCount",
      "outputs": [
        {
          "internalType": "uint256",
          "name": "",
          "type": "uint256"
        }
      ],
      "stateMutability": "view",
      "type": "function"
    },
    {
      "inputs": [
        {
          "internalType": "uint256",
          "name": "",
          "type": "uint256"
        }
      ],
      "name": "chassisToOwner",
      "outputs": [
        {
          "internalType": "address",
          "name": "",
          "type": "address"
        }
      ],
      "stateMutability": "view",
      "type": "function"
    },
    {
      "inputs": [
        {
          "internalType": "uint256",
          "name": "",
          "type": "uint256"
        }
      ],
      "name": "chassisToPrice",
      "outputs": [
        {
          "internalType": "uint256",
          "name": "",
          "type": "uint256"
        }
      ],
      "stateMutability": "view",
      "type": "function"
    },
    {
      "inputs": [
        {
          "internalType": "string",
          "name": "model",
          "type": "string"
        }
      ],
      "name": "createCar",
      "outputs": [],
      "stateMutability": "nonpayable",
      "type": "function"
    },
    {
      "inputs": [
        {
          "internalType": "string",
          "name": "_model",
          "type": "string"
        },
        {
          "internalType": "uint16",
          "name": "_horsePowers",
          "type": "uint16"
        },
        {
          "internalType": "uint8",
          "name": "_consumtion",
          "type": "uint8"
        },
        {
          "internalType": "uint32",
          "name": "_durability",
          "type": "uint32"
        },
        {
          "internalType": "uint8",
          "name": "_carLevel",
          "type": "uint8"
        },
        {
          "internalType": "uint256",
          "name": "_carPrice",
          "type": "uint256"
        }
      ],
      "name": "createCustomCar",
      "outputs": [],
      "stateMutability": "nonpayable",
      "type": "function"
    },
    {
      "inputs": [
        {
          "internalType": "uint32",
          "name": "_durability",
          "type": "uint32"
        },
        {
          "internalType": "uint256",
          "name": "_chassisPrice",
          "type": "uint256"
        }
      ],
      "name": "createCustomChassis",
      "outputs": [
        {
          "internalType": "uint256",
          "name": "",
          "type": "uint256"
        }
      ],
      "stateMutability": "nonpayable",
      "type": "function"
    },
    {
      "inputs": [
        {
          "internalType": "uint16",
          "name": "_horsePowers",
          "type": "uint16"
        },
        {
          "internalType": "uint8",
          "name": "_consumtion",
          "type": "uint8"
        },
        {
          "internalType": "uint256",
          "name": "_enginePrice",
          "type": "uint256"
        }
      ],
      "name": "createCustomEngine",
      "outputs": [
        {
          "internalType": "uint256",
          "name": "",
          "type": "uint256"
        }
      ],
      "stateMutability": "nonpayable",
      "type": "function"
    },
    {
      "inputs": [],
      "name": "createFuelStation",
      "outputs": [],
      "stateMutability": "nonpayable",
      "type": "function"
    },
    {
      "inputs": [
        {
          "internalType": "uint256",
          "name": "carId",
          "type": "uint256"
        },
        {
          "internalType": "uint256",
          "name": "chassisId",
          "type": "uint256"
        }
      ],
      "name": "detachChassis",
      "outputs": [],
      "stateMutability": "nonpayable",
      "type": "function"
    },
    {
      "inputs": [
        {
          "internalType": "uint256",
          "name": "carId",
          "type": "uint256"
        },
        {
          "internalType": "uint256",
          "name": "engineId",
          "type": "uint256"
        }
      ],
      "name": "detachEngine",
      "outputs": [],
      "stateMutability": "nonpayable",
      "type": "function"
    },
    {
      "inputs": [
        {
          "internalType": "uint256",
          "name": "",
          "type": "uint256"
        }
      ],
      "name": "engineToOwner",
      "outputs": [
        {
          "internalType": "address",
          "name": "",
          "type": "address"
        }
      ],
      "stateMutability": "view",
      "type": "function"
    },
    {
      "inputs": [
        {
          "internalType": "uint256",
          "name": "",
          "type": "uint256"
        }
      ],
      "name": "engineToPrice",
      "outputs": [
        {
          "internalType": "uint256",
          "name": "",
          "type": "uint256"
        }
      ],
      "stateMutability": "view",
      "type": "function"
    },
    {
      "inputs": [
        {
          "internalType": "uint256",
          "name": "",
          "type": "uint256"
        }
      ],
      "name": "engines",
      "outputs": [
        {
          "internalType": "uint256",
          "name": "id",
          "type": "uint256"
        },
        {
          "internalType": "uint16",
          "name": "horsePowers",
          "type": "uint16"
        },
        {
          "internalType": "uint8",
          "name": "consumtion",
          "type": "uint8"
        }
      ],
      "stateMutability": "view",
      "type": "function"
    },
    {
      "inputs": [],
      "name": "enginesForSaleCount",
      "outputs": [
        {
          "internalType": "uint256",
          "name": "",
          "type": "uint256"
        }
      ],
      "stateMutability": "view",
      "type": "function"
    },
    {
      "inputs": [
        {
          "internalType": "uint256",
          "name": "",
          "type": "uint256"
        }
      ],
      "name": "fuelStationToOwner",
      "outputs": [
        {
          "internalType": "address",
          "name": "",
          "type": "address"
        }
      ],
      "stateMutability": "view",
      "type": "function"
    },
    {
      "inputs": [
        {
          "internalType": "uint256",
          "name": "_fuelStatonId",
          "type": "uint256"
        },
        {
          "internalType": "uint8",
          "name": "_counts",
          "type": "uint8"
        }
      ],
      "name": "getCapacityUpgradeCost",
      "outputs": [
        {
          "internalType": "uint256",
          "name": "",
          "type": "uint256"
        }
      ],
      "stateMutability": "view",
      "type": "function"
    },
    {
      "inputs": [
        {
          "internalType": "address",
          "name": "_owner",
          "type": "address"
        }
      ],
      "name": "getCarsByOwner",
      "outputs": [
        {
          "components": [
            {
              "internalType": "string",
              "name": "model",
              "type": "string"
            },
            {
              "internalType": "uint256",
              "name": "vin",
              "type": "uint256"
            },
            {
              "internalType": "uint256",
              "name": "engineId",
              "type": "uint256"
            },
            {
              "internalType": "uint256",
              "name": "chassisId",
              "type": "uint256"
            },
            {
              "internalType": "uint8",
              "name": "carLevel",
              "type": "uint8"
            },
            {
              "internalType": "uint256",
              "name": "mileage",
              "type": "uint256"
            },
            {
              "internalType": "uint256",
              "name": "winCountOnCurrentLevel",
              "type": "uint256"
            },
            {
              "internalType": "uint256",
              "name": "lossCountOnCurrentLevel",
              "type": "uint256"
            },
            {
              "internalType": "uint256",
              "name": "id",
              "type": "uint256"
            }
          ],
          "internalType": "struct CarFactory.Car[]",
          "name": "",
          "type": "tuple[]"
        }
      ],
      "stateMutability": "view",
      "type": "function"
    },
    {
      "inputs": [
        {
          "internalType": "address",
          "name": "_owner",
          "type": "address"
        }
      ],
      "name": "getChassisByOwner",
      "outputs": [
        {
          "components": [
            {
              "internalType": "uint256",
              "name": "id",
              "type": "uint256"
            },
            {
              "internalType": "uint32",
              "name": "durability",
              "type": "uint32"
            },
            {
              "internalType": "uint32",
              "name": "resource",
              "type": "uint32"
            }
          ],
          "internalType": "struct CarFactory.Chassis[]",
          "name": "",
          "type": "tuple[]"
        }
      ],
      "stateMutability": "view",
      "type": "function"
    },
    {
      "inputs": [
        {
          "internalType": "uint256",
          "name": "_engineId",
          "type": "uint256"
        }
      ],
      "name": "getConsumtionUpgradeCost",
      "outputs": [
        {
          "internalType": "uint256",
          "name": "",
          "type": "uint256"
        }
      ],
      "stateMutability": "view",
      "type": "function"
    },
    {
      "inputs": [
        {
          "internalType": "uint256",
          "name": "_chassisId",
          "type": "uint256"
        },
        {
          "internalType": "uint8",
          "name": "_counts",
          "type": "uint8"
        }
      ],
      "name": "getDurabilityUpgradeCost",
      "outputs": [
        {
          "internalType": "uint256",
          "name": "",
          "type": "uint256"
        }
      ],
      "stateMutability": "view",
      "type": "function"
    },
    {
      "inputs": [
        {
          "internalType": "address",
          "name": "_owner",
          "type": "address"
        }
      ],
      "name": "getEnginesByOwner",
      "outputs": [
        {
          "components": [
            {
              "internalType": "uint256",
              "name": "id",
              "type": "uint256"
            },
            {
              "internalType": "uint16",
              "name": "horsePowers",
              "type": "uint16"
            },
            {
              "internalType": "uint8",
              "name": "consumtion",
              "type": "uint8"
            }
          ],
          "internalType": "struct CarFactory.Engine[]",
          "name": "",
          "type": "tuple[]"
        }
      ],
      "stateMutability": "view",
      "type": "function"
    },
    {
      "inputs": [
        {
          "internalType": "address",
          "name": "_owner",
          "type": "address"
        }
      ],
      "name": "getFuelStationByOwner",
      "outputs": [
        {
          "components": [
            {
              "internalType": "uint256",
              "name": "id",
              "type": "uint256"
            },
            {
              "internalType": "uint8",
              "name": "capacity",
              "type": "uint8"
            },
            {
              "internalType": "uint8",
              "name": "productionPerHour",
              "type": "uint8"
            },
            {
              "internalType": "uint8",
              "name": "currentFullness",
              "type": "uint8"
            },
            {
              "internalType": "uint256",
              "name": "lastUpdate",
              "type": "uint256"
            }
          ],
          "internalType": "struct FuelStationFactory.FuelStation",
          "name": "",
          "type": "tuple"
        }
      ],
      "stateMutability": "view",
      "type": "function"
    },
    {
      "inputs": [
        {
          "internalType": "uint256",
          "name": "_engineId",
          "type": "uint256"
        },
        {
          "internalType": "uint8",
          "name": "_counts",
          "type": "uint8"
        }
      ],
      "name": "getHorsePowersUpgradeCost",
      "outputs": [
        {
          "internalType": "uint256",
          "name": "",
          "type": "uint256"
        }
      ],
      "stateMutability": "view",
      "type": "function"
    },
    {
      "inputs": [
        {
          "internalType": "uint256",
          "name": "_carId",
          "type": "uint256"
        }
      ],
      "name": "getLevelUpCost",
      "outputs": [
        {
          "internalType": "uint256",
          "name": "",
          "type": "uint256"
        }
      ],
      "stateMutability": "view",
      "type": "function"
    },
    {
      "inputs": [
        {
          "internalType": "uint256",
          "name": "_fuelStatonId",
          "type": "uint256"
        },
        {
          "internalType": "uint8",
          "name": "_counts",
          "type": "uint8"
        }
      ],
      "name": "getProductionPerHourUpgradeCost",
      "outputs": [
        {
          "internalType": "uint256",
          "name": "",
          "type": "uint256"
        }
      ],
      "stateMutability": "view",
      "type": "function"
    },
    {
      "inputs": [
        {
          "internalType": "uint256",
          "name": "",
          "type": "uint256"
        }
      ],
      "name": "idToStartedRooms",
      "outputs": [
        {
          "internalType": "uint256",
          "name": "numberPlayers",
          "type": "uint256"
        },
        {
          "internalType": "uint256",
          "name": "world",
          "type": "uint256"
        },
        {
          "internalType": "uint256",
          "name": "roomDNA",
          "type": "uint256"
        },
        {
          "internalType": "uint256",
          "name": "startTime",
          "type": "uint256"
        },
        {
          "internalType": "uint256",
          "name": "curAnswer",
          "type": "uint256"
        },
        {
          "internalType": "bool",
          "name": "closed",
          "type": "bool"
        }
      ],
      "stateMutability": "view",
      "type": "function"
    },
    {
      "inputs": [
        {
          "internalType": "uint256",
          "name": "_carId",
          "type": "uint256"
        }
      ],
      "name": "levelUp",
      "outputs": [],
      "stateMutability": "payable",
      "type": "function"
    },
    {
      "inputs": [
        {
          "internalType": "uint256",
          "name": "",
          "type": "uint256"
        }
      ],
      "name": "openedRooms",
      "outputs": [
        {
          "internalType": "uint256",
          "name": "id",
          "type": "uint256"
        },
        {
          "internalType": "uint256",
          "name": "playersEntered",
          "type": "uint256"
        },
        {
          "internalType": "uint256",
          "name": "world",
          "type": "uint256"
        },
        {
          "components": [
            {
              "internalType": "uint256",
              "name": "playersNeeded",
              "type": "uint256"
            },
            {
              "internalType": "uint256",
              "name": "crossId",
              "type": "uint256"
            }
          ],
          "internalType": "struct RaceHandler.Cross",
          "name": "cross",
          "type": "tuple"
        },
        {
          "internalType": "uint256",
          "name": "roomSeed",
          "type": "uint256"
        }
      ],
      "stateMutability": "view",
      "type": "function"
    },
    {
      "inputs": [],
      "name": "owner",
      "outputs": [
        {
          "internalType": "address",
          "name": "",
          "type": "address"
        }
      ],
      "stateMutability": "view",
      "type": "function"
    },
    {
      "inputs": [
        {
          "internalType": "address",
          "name": "",
          "type": "address"
        }
      ],
      "name": "ownerCarCount",
      "outputs": [
        {
          "internalType": "uint256",
          "name": "",
          "type": "uint256"
        }
      ],
      "stateMutability": "view",
      "type": "function"
    },
    {
      "inputs": [
        {
          "internalType": "address",
          "name": "",
          "type": "address"
        }
      ],
      "name": "ownerChassisCount",
      "outputs": [
        {
          "internalType": "uint256",
          "name": "",
          "type": "uint256"
        }
      ],
      "stateMutability": "view",
      "type": "function"
    },
    {
      "inputs": [
        {
          "internalType": "address",
          "name": "",
          "type": "address"
        }
      ],
      "name": "ownerEngineCount",
      "outputs": [
        {
          "internalType": "uint256",
          "name": "",
          "type": "uint256"
        }
      ],
      "stateMutability": "view",
      "type": "function"
    },
    {
      "inputs": [],
      "name": "renounceOwnership",
      "outputs": [],
      "stateMutability": "nonpayable",
      "type": "function"
    },
    {
      "inputs": [
        {
          "internalType": "uint256",
          "name": "",
          "type": "uint256"
        }
      ],
      "name": "stations",
      "outputs": [
        {
          "internalType": "uint256",
          "name": "id",
          "type": "uint256"
        },
        {
          "internalType": "uint8",
          "name": "capacity",
          "type": "uint8"
        },
        {
          "internalType": "uint8",
          "name": "productionPerHour",
          "type": "uint8"
        },
        {
          "internalType": "uint8",
          "name": "currentFullness",
          "type": "uint8"
        },
        {
          "internalType": "uint256",
          "name": "lastUpdate",
          "type": "uint256"
        }
      ],
      "stateMutability": "view",
      "type": "function"
    },
    {
      "inputs": [
        {
          "internalType": "uint256",
          "name": "carId",
          "type": "uint256"
        },
        {
          "internalType": "uint256",
          "name": "chassisId",
          "type": "uint256"
        }
      ],
      "name": "switchChassis",
      "outputs": [],
      "stateMutability": "nonpayable",
      "type": "function"
    },
    {
      "inputs": [
        {
          "internalType": "uint256",
          "name": "carId",
          "type": "uint256"
        },
        {
          "internalType": "uint256",
          "name": "engineId",
          "type": "uint256"
        }
      ],
      "name": "switchEngine",
      "outputs": [],
      "stateMutability": "nonpayable",
      "type": "function"
    },
    {
      "inputs": [
        {
          "internalType": "address",
          "name": "newOwner",
          "type": "address"
        }
      ],
      "name": "transferOwnership",
      "outputs": [],
      "stateMutability": "nonpayable",
      "type": "function"
    },
    {
      "inputs": [
        {
          "internalType": "uint256",
          "name": "_fuelStatonId",
          "type": "uint256"
        },
        {
          "internalType": "uint8",
          "name": "_counts",
          "type": "uint8"
        }
      ],
      "name": "upgradeCapacity",
      "outputs": [],
      "stateMutability": "payable",
      "type": "function"
    },
    {
      "inputs": [
        {
          "internalType": "uint256",
          "name": "_engineId",
          "type": "uint256"
        }
      ],
      "name": "upgradeConsumtion",
      "outputs": [],
      "stateMutability": "payable",
      "type": "function"
    },
    {
      "inputs": [
        {
          "internalType": "uint256",
          "name": "_chassisId",
          "type": "uint256"
        },
        {
          "internalType": "uint8",
          "name": "_counts",
          "type": "uint8"
        }
      ],
      "name": "upgradeDurability",
      "outputs": [],
      "stateMutability": "payable",
      "type": "function"
    },
    {
      "inputs": [
        {
          "internalType": "uint256",
          "name": "_engineId",
          "type": "uint256"
        },
        {
          "internalType": "uint8",
          "name": "_counts",
          "type": "uint8"
        }
      ],
      "name": "upgradeHorsePowers",
      "outputs": [],
      "stateMutability": "payable",
      "type": "function"
    },
    {
      "inputs": [
        {
          "internalType": "uint256",
          "name": "_fuelStatonId",
          "type": "uint256"
        },
        {
          "internalType": "uint8",
          "name": "_counts",
          "type": "uint8"
        }
      ],
      "name": "upgradeProductionPerHour",
      "outputs": [],
      "stateMutability": "payable",
      "type": "function"
    },
    {
      "inputs": [
        {
          "internalType": "uint256",
          "name": "carId",
          "type": "uint256"
        }
      ],
      "name": "findRoom",
      "outputs": [],
      "stateMutability": "nonpayable",
      "type": "function"
    },
    {
      "inputs": [
        {
          "internalType": "uint256",
          "name": "roomId",
          "type": "uint256"
        }
      ],
      "name": "getClosedRoom",
      "outputs": [
        {
          "components": [
            {
              "internalType": "address",
              "name": "player",
              "type": "address"
            },
            {
              "internalType": "bool",
              "name": "correct",
              "type": "bool"
            },
            {
              "internalType": "uint256",
              "name": "time",
              "type": "uint256"
            },
            {
              "internalType": "uint256",
              "name": "carId",
              "type": "uint256"
            }
          ],
          "internalType": "struct RaceHandler.Answer[]",
          "name": "",
          "type": "tuple[]"
        }
      ],
      "stateMutability": "view",
      "type": "function"
    },
    {
      "inputs": [
        {
          "internalType": "uint256",
          "name": "roomId",
          "type": "uint256"
        },
        {
          "internalType": "uint256[]",
          "name": "answer",
          "type": "uint256[]"
        }
      ],
      "name": "commitAnswer",
      "outputs": [],
      "stateMutability": "nonpayable",
      "type": "function"
    }
  ],
  "bytecode": "0x6000805461ffff60a01b191661014f60a21b17815560088190556009819055600a9081556001600b819055600c556509184e72a000601981905565b5e620f48000601a55650da475abf000601b556611c37937e08000601c556305f5e100601d5566038d7ea4c68000601e556101c060405260809081526512309ce5400060a05265246139ca800060c0526548c27395000060e052659184e72a00006101005266012309ce54000061012052660246139ca800006101405266048c2739500000610160526609184e72a00000610180526612309ce54000006101a052620000ea916020919062000199565b50348015620000f857600080fd5b50620001043362000149565b6050600355605b6004556005805460ff1916600a179055620186a06006556201d4c1600755600e80546001908101909155600f8054820181556000526023556200020b565b600080546001600160a01b038381166001600160a01b0319831681178455604051919092169283917f8be0079c531659141344cd1fd0a4f28419497f9722a3daafe3b4186f6b6457e09190a35050565b828054828255906000526020600020908101928215620001e2579160200282015b82811115620001e2578251829066ffffffffffffff16905591602001919060010190620001ba565b50620001f0929150620001f4565b5090565b5b80821115620001f05760008155600101620001f5565b613f64806200021b6000396000f3fe6080604052600436106102c95760003560e01c80638da5cb5b11610175578063c75bb4f4116100dc578063ede6fbf511610095578063f85993b91161006f578063f85993b914610b98578063faf4bb9814610bc5578063fb2d954f14610bd8578063fb33250f14610bf857600080fd5b8063ede6fbf514610b23578063f2fde38b14610b43578063f7746e3614610b6357600080fd5b8063c75bb4f414610a56578063c85b7fed14610a83578063d1c54eea14610aa3578063d7086fab14610ac3578063df750c5214610ae3578063ea12693314610b0357600080fd5b8063b3b29afd1161012e578063b3b29afd14610968578063b72c0eea14610995578063bf5070d3146109d6578063bf9bc0b2146109f6578063bfcc971614610a16578063c34cccc414610a3657600080fd5b80638da5cb5b146108915780638ff90c6b146108af578063906f5f34146108c257806392f859db146108d5578063982b691c14610925578063aa11b6811461093b57600080fd5b80633521c426116102345780636f206fc1116101ed5780637713d521116101c75780637713d521146107f75780637fb2aa4d146108245780638590926714610851578063877660191461086457600080fd5b80636f206fc114610795578063715018a6146107c257806376997de0146107d757600080fd5b80633521c4261461063b57806344901490146106685780634e31f9101461069e578063594193d7146107095780635dcc4cc61461073f5780636b606d9b1461077557600080fd5b80631702bf42116102865780631702bf42146104215780631a56afda146104375780631c5dde0e14610457578063224370f0146104995780632ca4769e146105cd57806333ca504b146105ed57600080fd5b806303f2e05b146102ce5780630418394e146102e3578063081315ff1461036a5780630a0176fc146103bd5780630c0cd532146103f85780630ce90ec21461040e575b600080fd5b6102e16102dc36600461352c565b610c18565b005b3480156102ef57600080fd5b506103366102fe366004613558565b602560205260009081526040902080546001820154600283015460038401546005850154600690950154939492939192909160ff1686565b6040805196875260208701959095529385019290925260608401526080830152151560a082015260c0015b60405180910390f35b34801561037657600080fd5b5061038a610385366004613558565b610d1e565b604080519586526020808701959095528501929092528051606085015290910151608083015260a082015260c001610361565b3480156103c957600080fd5b506103ea6103d8366004613558565b60186020526000908152604090205481565b604051908152602001610361565b34801561040457600080fd5b506103ea600a5481565b6102e161041c366004613558565b610d76565b34801561042d57600080fd5b506103ea60085481565b34801561044357600080fd5b506103ea61045236600461352c565b610e7c565b34801561046357600080fd5b50610477610472366004613558565b610ece565b6040805193845263ffffffff9283166020850152911690820152606001610361565b3480156104a557600080fd5b506102e1600180546040805160a0810182528281526000805460ff600160a01b820481166020808601828152600160a81b90940483168688019081526060870192835263ffffffff421660808801908152898b018b559986529551600389027fb10e2d527612073b26eecdfd717e6a320cf44b4afac2b0732d9fcbe2b7fa0cf681019190915593517fb10e2d527612073b26eecdfd717e6a320cf44b4afac2b0732d9fcbe2b7fa0cf785018054975193518516620100000262ff0000199486166101000261ffff19909916929095169190911796909617919091169190911790935594517fb10e2d527612073b26eecdfd717e6a320cf44b4afac2b0732d9fcbe2b7fa0cf8909501949094559183526002909152902080546001600160a01b03191633179055565b3480156105d957600080fd5b506103ea6105e836600461352c565b610f0e565b3480156105f957600080fd5b50610623610608366004613558565b6010602052600090815260409020546001600160a01b031681565b6040516001600160a01b039091168152602001610361565b34801561064757600080fd5b5061065b610656366004613558565b610f50565b6040516103619190613571565b34801561067457600080fd5b50610623610683366004613558565b6012602052600090815260409020546001600160a01b031681565b3480156106aa57600080fd5b506106be6106b93660046135e0565b611042565b6040516103619190600060a0820190508251825260ff602084015116602083015260ff604084015116604083015260ff60608401511660608301526080830151608083015292915050565b34801561071557600080fd5b50610623610724366004613558565b6002602052600090815260409020546001600160a01b031681565b34801561074b57600080fd5b5061062361075a366004613558565b6011602052600090815260409020546001600160a01b031681565b34801561078157600080fd5b506102e1610790366004613609565b611129565b3480156107a157600080fd5b506107b56107b03660046135e0565b611229565b604051610361919061362b565b3480156107ce57600080fd5b506102e161137d565b3480156107e357600080fd5b506103ea6107f236600461352c565b611391565b34801561080357600080fd5b506108176108123660046135e0565b6113ce565b6040516103619190613681565b34801561083057600080fd5b506103ea61083f3660046135e0565b60146020526000908152604090205481565b6102e161085f36600461352c565b611516565b34801561087057600080fd5b506103ea61087f3660046135e0565b60156020526000908152604090205481565b34801561089d57600080fd5b506000546001600160a01b0316610623565b6102e16108bd366004613558565b6115fb565b6102e16108d036600461352c565b6116da565b3480156108e157600080fd5b506108f56108f0366004613558565b61179b565b6040805195865260ff9485166020870152928416928501929092529091166060830152608082015260a001610361565b34801561093157600080fd5b506103ea60095481565b34801561094757600080fd5b506103ea610956366004613558565b60166020526000908152604090205481565b34801561097457600080fd5b506103ea6109833660046135e0565b60136020526000908152604090205481565b3480156109a157600080fd5b506109b56109b0366004613558565b6117e7565b6040805193845261ffff909216602084015260ff1690820152606001610361565b3480156109e257600080fd5b506103ea6109f136600461352c565b611824565b348015610a0257600080fd5b506103ea610a11366004613558565b611861565b348015610a2257600080fd5b506103ea610a313660046136e8565b6118b4565b348015610a4257600080fd5b506102e1610a51366004613609565b611a09565b348015610a6257600080fd5b50610a76610a713660046135e0565b611b59565b604051610361919061376e565b348015610a8f57600080fd5b506102e1610a9e36600461387f565b611d97565b348015610aaf57600080fd5b506102e1610abe366004613609565b612024565b348015610acf57600080fd5b506103ea610ade366004613943565b61210a565b348015610aef57600080fd5b506103ea610afe366004613558565b612279565b348015610b0f57600080fd5b506102e1610b1e366004613609565b6122d1565b348015610b2f57600080fd5b506102e1610b3e3660046139ef565b612435565b348015610b4f57600080fd5b506102e1610b5e3660046135e0565b612603565b348015610b6f57600080fd5b50610b83610b7e366004613558565b61267c565b60405161036199989796959493929190613a24565b348015610ba457600080fd5b506103ea610bb3366004613558565b60176020526000908152604090205481565b6102e1610bd336600461352c565b612769565b348015610be457600080fd5b506102e1610bf3366004613558565b61284d565b348015610c0457600080fd5b506102e1610c13366004613a7b565b612e06565b60008281526012602052604090205482906001600160a01b03163314610c595760405162461bcd60e51b8152600401610c5090613b03565b60405180910390fd5b610c638383610e7c565b3414610c815760405162461bcd60e51b8152600401610c5090613b31565b600080546040516001600160a01b03909116913480156108fc02929091818181858888f19350505050158015610cbb573d6000803e3d6000fd5b508160ff16600f8481548110610cd357610cd3613b55565b6000918252602082206001600290920201018054909190610cfb90849063ffffffff16613b81565b92506101000a81548163ffffffff021916908363ffffffff160217905550505050565b60248181548110610d2e57600080fd5b60009182526020918290206006909102018054600182015460028301546040805180820190915260038501548152600485015495810195909552600590930154919450929085565b610d7f81611861565b3414610d9d5760405162461bcd60e51b8152600401610c5090613b31565b600080546040516001600160a01b03909116913480156108fc02929091818181858888f19350505050158015610dd7573d6000803e3d6000fd5b50600d8181548110610deb57610deb613b55565b600091825260208220600460099092020101805460ff1691610e0c83613ba9565b91906101000a81548160ff021916908360ff160217905550506000600d8281548110610e3a57610e3a613b55565b9060005260206000209060090201600601819055506000600d8281548110610e6457610e64613b55565b90600052602060002090600902016007018190555050565b6000601d54600f8481548110610e9457610e94613b55565b6000918252602090912060016002909202010154610ebb9063ffffffff1660ff8516613bc8565b610ec59190613bc8565b90505b92915050565b600f8181548110610ede57600080fd5b60009182526020909120600290910201805460019091015490915063ffffffff8082169164010000000090041683565b6000601a5460018481548110610f2657610f26613b55565b6000918252602090912060016003909202010154610ebb9060ff6101009091048116908516613bc8565b60008181526025602052604090206006015460609060ff16610fa65760405162461bcd60e51b815260206004820152600f60248201526e1c9bdbdb481b9bdd0818db1bdcd959608a1b6044820152606401610c50565b600082815260256020908152604080832060040180548251818502810185019093528083529193909284015b82821015611037576000848152602090819020604080516080810182526003860290920180546001600160a01b0381168452600160a01b900460ff16151583850152600180820154928401929092526002015460608301529083529092019101610fd2565b505050509050919050565b6040805160a081018252600080825260208201819052918101829052606081018290526080810182905290805b6001548110156110b4576000818152600260205260409020546001600160a01b038086169116036110a2578091506110b4565b806110ac81613be7565b91505061106f565b50600181815481106110c8576110c8613b55565b60009182526020918290206040805160a081018252600390930290910180548352600181015460ff80821695850195909552610100810485169284019290925262010000909104909216606082015260029091015460808201529392505050565b60008181526012602052604090205481906001600160a01b031633146111615760405162461bcd60e51b8152600401610c5090613b03565b60008381526010602052604090205483906001600160a01b0316331461118657600080fd5b82600d858154811061119a5761119a613b55565b906000526020600020906009020160030154146111f95760405162461bcd60e51b815260206004820152601860248201527f6368617373697320617265206e6f7420617474616368656400000000000000006044820152606401610c50565b6000600d858154811061120e5761120e613b55565b90600052602060002090600902016003018190555050505050565b6001600160a01b0381166000908152601560205260408120546060919067ffffffffffffffff81111561125e5761125e613838565b6040519080825280602002602001820160405280156112a957816020015b604080516060810182526000808252602080830182905292820152825260001990920191018161127c5790505b5090506000805b600f54811015611374576000818152601260205260409020546001600160a01b0380871691160361136257600f81815481106112ee576112ee613b55565b6000918252602091829020604080516060810182526002909302909101805483526001015463ffffffff80821694840194909452640100000000900490921691810191909152835184908490811061134857611348613b55565b6020026020010181905250818061135e90613be7565b9250505b8061136c81613be7565b9150506112b0565b50909392505050565b611385613000565b61138f600061305a565b565b6000601954600184815481106113a9576113a9613b55565b6000918252602090912060016003909202010154610ebb9060ff908116908516613bc8565b6001600160a01b0381166000908152601460205260408120546060919067ffffffffffffffff81111561140357611403613838565b60405190808252806020026020018201604052801561144e57816020015b60408051606081018252600080825260208083018290529282015282526000199092019101816114215790505b5090506000805b600e54811015611374576000818152601160205260409020546001600160a01b0380871691160361150457600e818154811061149357611493613b55565b600091825260209182902060408051606081018252600293909302909101805483526001015461ffff8116938301939093526201000090920460ff169181019190915283518490849081106114ea576114ea613b55565b6020026020010181905250818061150090613be7565b9250505b8061150e81613be7565b915050611455565b60008281526002602052604090205482906001600160a01b0316331461153b57600080fd5b6115458383610f0e565b34146115635760405162461bcd60e51b8152600401610c5090613b31565b600080546040516001600160a01b03909116913480156108fc02929091818181858888f1935050505015801561159d573d6000803e3d6000fd5b5081600184815481106115b2576115b2613b55565b906000526020600020906003020160010160018282829054906101000a900460ff166115de9190613c00565b92506101000a81548160ff021916908360ff160217905550505050565b60008181526011602052604090205481906001600160a01b0316331461162057600080fd5b61162982612279565b34146116475760405162461bcd60e51b8152600401610c5090613b31565b600080546040516001600160a01b03909116913480156108fc02929091818181858888f19350505050158015611681573d6000803e3d6000fd5b50600e828154811061169557611695613b55565b60009182526020909120600291820201600101805462010000900460ff16916116bd83613c25565b91906101000a81548160ff021916908360ff160217905550505050565b60008281526002602052604090205482906001600160a01b031633146116ff57600080fd5b6117098383611391565b34146117275760405162461bcd60e51b8152600401610c5090613b31565b600080546040516001600160a01b03909116913480156108fc02929091818181858888f19350505050158015611761573d6000803e3d6000fd5b50816001848154811061177657611776613b55565b60009182526020822060016003909202010180549091906115de90849060ff16613c00565b600181815481106117ab57600080fd5b600091825260209091206003909102018054600182015460029092015490925060ff808316926101008104821692620100009091049091169085565b600e81815481106117f757600080fd5b60009182526020909120600290910201805460019091015490915061ffff81169062010000900460ff1683565b6000601b54600e848154811061183c5761183c613b55565b6000918252602090912060016002909202010154610ebb9061ffff1660ff8516613bc8565b6000600a600d838154811061187857611878613b55565b6000918252602090912060046009909202010154611899919060ff16613c58565b6118a4906001613c00565b60ff16601e54610ec89190613bc8565b60006118be613000565b600c8054600091826118cf83613be7565b909155506040805160608101825282815263ffffffff8781166020808401828152848601928352600f80546001810182556000918252955160029096027f8d1108e10bcb7c27dddfc02ed9d693a074039d026cf4ea4240b40f7d581ac80281019690965590517f8d1108e10bcb7c27dddfc02ed9d693a074039d026cf4ea4240b40f7d581ac8039095018054935185166401000000000267ffffffffffffffff1990941695909416949094179190911790915581546001600160a01b03168252601590529081208054929350906119a583613be7565b9091555050600080548282526012602052604090912080546001600160a01b0319166001600160a01b039092169190911790558215610ec557600081815260186020526040812084905560098054916119fd83613be7565b91905055509392505050565b60008181526011602052604090205481906001600160a01b03163314611a2e57600080fd5b60008381526010602052604090205483906001600160a01b03163314611a5357600080fd5b82600d8581548110611a6757611a67613b55565b90600052602060002090600902016002015403611ab45760405162461bcd60e51b815260206004820152600b60248201526a73616d6520656e67696e6560a81b6044820152606401610c50565b6000611abf33611b59565b905060005b8151811015611b285784828281518110611ae057611ae0613b55565b60200260200101516040015103611b16576000828281518110611b0557611b05613b55565b602002602001015160400181815250505b80611b2081613be7565b915050611ac4565b5083600d8681548110611b3d57611b3d613b55565b9060005260206000209060090201600201819055505050505050565b6001600160a01b0381166000908152601360205260408120546060919067ffffffffffffffff811115611b8e57611b8e613838565b604051908082528060200260200182016040528015611c1157816020015b611bfe60405180610120016040528060608152602001600081526020016000815260200160008152602001600060ff168152602001600081526020016000815260200160008152602001600081525090565b815260200190600190039081611bac5790505b5090506000805b600d54811015611374576000818152601060205260409020546001600160a01b03808716911603611d8557600d8181548110611c5657611c56613b55565b906000526020600020906009020160405180610120016040529081600082018054611c8090613c7a565b80601f0160208091040260200160405190810160405280929190818152602001828054611cac90613c7a565b8015611cf95780601f10611cce57610100808354040283529160200191611cf9565b820191906000526020600020905b815481529060010190602001808311611cdc57829003601f168201915b5050509183525050600182015460208201526002820154604082015260038201546060820152600482015460ff166080820152600582015460a0820152600682015460c0820152600782015460e0820152600890910154610100909101528351849084908110611d6b57611d6b613b55565b60200260200101819052508180611d8190613be7565b9250505b80611d8f81613be7565b915050611c18565b336000908152602160205260409020548214611de55760405162461bcd60e51b815260206004820152600d60248201526c6e6f7420796f757220726f6f6d60981b6044820152606401610c50565b600082815260256020526040808220600201549051634e31f59760e11b815290919073__PDDLib________________________________90639c63eb2e90611e339085908790600401613cb4565b602060405180830381865af4158015611e50573d6000803e3d6000fd5b505050506040513d601f19601f82011682018060405250810190611e749190613d02565b604080516080810182523380825283151560208084019182524284860190815260009384526022825285842054606086019081528b855260258352958420600481018054600181810183558288529487208851600390920201805496511515600160a01b026001600160a81b03199097166001600160a01b0392909216919091179590951785559151928401929092559451600290920191909155908890528054925493945090929091900361201c576040518681527f67acaceb58ff1ad2aa8b3069f69c4cd076824e06a09184b75fb197ead7040be79060200160405180910390a16000868152602560209081526040808320600601805460ff191660011790553383526021825280832083905560229091528120819055805b600088815260256020526040902054811015612008576000888152602560205260409020600401805482908110611fc857611fc8613b55565b6000918252602090912060039091020154600160a01b900460ff1615611ff65781611ff281613be7565b9250505b8061200081613be7565b915050611f8f565b508060000361201a5750505050505050565b505b505050505050565b60008181526011602052604090205481906001600160a01b0316331461204957600080fd5b60008381526010602052604090205483906001600160a01b0316331461206e57600080fd5b82600d858154811061208257612082613b55565b906000526020600020906009020160020154146120da5760405162461bcd60e51b8152602060048201526016602482015275195b99da5b99481a5cc81b9bdd08185d1d1858da195960521b6044820152606401610c50565b6000600d85815481106120ef576120ef613b55565b90600052602060002090600902016002018190555050505050565b6000612114613000565b600b80546000918261212583613be7565b909155506040805160608101825282815261ffff8089166020830190815260ff808a16948401948552600e80546001810182556000918252945160029095027fbb7b4a454dc3493923482f07822329ed19e8244eff582cc204f8554c3620c3fd81019590955591517fbb7b4a454dc3493923482f07822329ed19e8244eff582cc204f8554c3620c3fe90940180549551909116620100000262ffffff199095169390921692909217929092179091559091506014906121ec6000546001600160a01b031690565b6001600160a01b031681526020810191909152604001600090812080549161221383613be7565b9091555050600080548282526011602052604090912080546001600160a01b0319166001600160a01b039092169190911790558215612271576000818152601760205260408120849055600a80549161226b83613be7565b91905055505b949350505050565b6000601c54600e838154811061229157612291613b55565b60009182526020909120600290910201600101546122b99062010000900460ff16600a613d24565b6122c79060ff166002613e2b565b610ec89190613bc8565b60008181526012602052604090205481906001600160a01b031633146123095760405162461bcd60e51b8152600401610c5090613b03565b60008381526010602052604090205483906001600160a01b0316331461232e57600080fd5b82600d858154811061234257612342613b55565b906000526020600020906009020160030154036123905760405162461bcd60e51b815260206004820152600c60248201526b73616d65206368617373697360a01b6044820152606401610c50565b600061239b33611b59565b905060005b815181101561240457848282815181106123bc576123bc613b55565b602002602001015160600151036123f25760008282815181106123e1576123e1613b55565b602002602001015160600181815250505b806123fc81613be7565b9150506123a0565b5083600d868154811061241957612419613b55565b9060005260206000209060090201600301819055505050505050565b336000908152601360205260409020541561244f57600080fd5b60008161245b426130aa565b60405160200161246c929190613e37565b60405160208183030381529060405290506000816040516020016124909190613e5d565b6040516020818303038152906040528051906020012060001c905060006124b561313d565b905060006124c1613271565b600d80546040805161012081018252898152602080820189905291810187905260608101859052600160808201819052600060a0830181905260c0830181905260e083018190526101008301859052908401855593909352825180519495509193600985027fd7b6990105719101dabeb77144f2a3385c8033acd3af97e9423a695e81ad1eb5019261255792849291019061347d565b506020828101516001830155604080840151600284015560608401516003840155608084015160048401805460ff191660ff90921691909117905560a0840151600584015560c0840151600684015560e08401516007840155610100909301516008909201919091556000838152601082528281208054336001600160a01b03199091168117909155815260139091529081208054916125f683613be7565b9190505550505050505050565b61260b613000565b6001600160a01b0381166126705760405162461bcd60e51b815260206004820152602660248201527f4f776e61626c653a206e6577206f776e657220697320746865207a65726f206160448201526564647265737360d01b6064820152608401610c50565b6126798161305a565b50565b600d818154811061268c57600080fd5b90600052602060002090600902016000915090508060000180546126af90613c7a565b80601f01602080910402602001604051908101604052809291908181526020018280546126db90613c7a565b80156127285780601f106126fd57610100808354040283529160200191612728565b820191906000526020600020905b81548152906001019060200180831161270b57829003601f168201915b50505060018401546002850154600386015460048701546005880154600689015460078a01546008909a01549899959894975092955060ff90911693909289565b60008281526011602052604090205482906001600160a01b0316331461278e57600080fd5b6127988383611824565b34146127b65760405162461bcd60e51b8152600401610c5090613b31565b600080546040516001600160a01b03909116913480156108fc02929091818181858888f193505050501580156127f0573d6000803e3d6000fd5b508160ff16600e848154811061280857612808613b55565b600091825260208220600160029092020101805490919061282e90849061ffff16613e79565b92506101000a81548161ffff021916908361ffff160217905550505050565b60008181526010602052604090205481906001600160a01b0316331461287257600080fd5b6000805b602454811015612c8c576024818154811061289357612893613b55565b906000526020600020906006020160020154600a600d86815481106128ba576128ba613b55565b60009182526020909120600460099092020101546128db919060ff16613c58565b6128e6906001613c00565b60ff1603612c7a57600191506024818154811061290557612905613b55565b600091825260208083206006909202909101543383526021825260408084209190915560229091529020849055602480548290811061294657612946613b55565b60009182526020822060016006909202010180549161296483613be7565b91905055506002600d858154811061297e5761297e613b55565b90600052602060002090600902016001015461299a9190613e96565b602482815481106129ad576129ad613b55565b906000526020600020906006020160050160008282546129cd9190613eaa565b909155505060248054829081106129e6576129e6613b55565b90600052602060002090600602016003016000015460248281548110612a0e57612a0e613b55565b90600052602060002090600602016001015403612c7a57600073__PDDLib________________________________63c9827d8660248481548110612a5457612a54613b55565b90600052602060002090600602016003016001015460248581548110612a7c57612a7c613b55565b906000526020600020906006020160030160000154612abe60248781548110612aa757612aa7613b55565b9060005260206000209060060201600501546130aa565b6040518463ffffffff1660e01b8152600401612adc93929190613ec2565b602060405180830381865af4158015612af9573d6000803e3d6000fd5b505050506040513d601f19601f82011682018060405250810190612b1d9190613eea565b905060006025600060248581548110612b3857612b38613b55565b9060005260206000209060060201600001548152602001908152602001600020905060248381548110612b6d57612b6d613b55565b600091825260209091206003600690920201015481556024805484908110612b9757612b97613b55565b6000918252602082206006918202016002908101546001850155830184905542600384015560058301919091558101805460ff19169055602480547f2838ebeee7dc83fac85a3d6dbca0c0b6771591ada8b00f97371aa6611e631f9c919085908110612c0557612c05613b55565b600091825260209182902060069091020154604080519182529181018590520160405180910390a160248381548110612c4057612c40613b55565b600091825260208220600690910201818155600181018290556002810182905560038101829055600481018290556005015550612c8c9050565b80612c8481613be7565b915050612876565b508015612c9857505050565b6023805460009182612ca983613be7565b91905055905060006040518060400160405280600542612cc99190613f03565b612cd4906002613eaa565b8152602001612ce4600242613f03565b81525090508160216000336001600160a01b03166001600160a01b031681526020019081526020016000208190555060246040518060a0016040528084815260200160018152602001600a600d8981548110612d4257612d42613b55565b6000918252602090912060046009909202010154612d63919060ff16613c58565b612d6e906001613c00565b60ff1681526020018381526020016002600d8981548110612d9157612d91613b55565b906000526020600020906009020160010154612dad9190613e96565b905281546001818101845560009384526020938490208351600690930201918255838301519082015560408201516002820155606082015180516003830155909201516004830155608001516005909101555050505050565b612e0e613000565b600086612e1a426130aa565b604051602001612e2b929190613e37565b6040516020818303038152906040529050600081604051602001612e4f9190613e5d565b6040516020818303038152906040528051906020012060001c90506000612e788888600061210a565b90506000612e878760006118b4565b600d805460408051610120810182528e815260208082018990529181018790526060810185905260ff8b166080820152600060a0820181905260c0820181905260e08201819052610100820184905260018401855593909352825180519495509193600985027fd7b6990105719101dabeb77144f2a3385c8033acd3af97e9423a695e81ad1eb50192612f1e92849291019061347d565b506020828101516001830155604080840151600284015560608401516003840155608084015160048401805460ff90921660ff1990921691909117905560a0840151600584015560c0840151600684015560e0840151600784015561010090930151600890920191909155600080548482526010835283822080546001600160a01b0319166001600160a01b0392831617905581541681526013909152908120805491612fca83613be7565b909155505060008181526016602052604081208790556008805491612fee83613be7565b91905055505050505050505050505050565b6000546001600160a01b0316331461138f5760405162461bcd60e51b815260206004820181905260248201527f4f776e61626c653a2063616c6c6572206973206e6f7420746865206f776e65726044820152606401610c50565b600080546001600160a01b038381166001600160a01b0319831681178455604051919092169283917f8be0079c531659141344cd1fd0a4f28419497f9722a3daafe3b4186f6b6457e09190a35050565b606060006130b7836133a5565b600101905060008167ffffffffffffffff8111156130d7576130d7613838565b6040519080825280601f01601f191660200182016040528015613101576020820181803683370190505b5090508181016020015b600019016f181899199a1a9b1b9c1cb0b131b232b360811b600a86061a8153600a850494508461310b57509392505050565b6000806003546004546131509190613f17565b61315a9042613f03565b6003546131679190613eaa565b600b8054919250600091908261317c83613be7565b909155506040805160608101825282815261ffff808616602080840191825260055460ff908116858701908152600e80546001810182556000918252965160029097027fbb7b4a454dc3493923482f07822329ed19e8244eff582cc204f8554c3620c3fd81019790975593517fbb7b4a454dc3493923482f07822329ed19e8244eff582cc204f8554c3620c3fe90960180549151909216620100000262ffffff199091169590941694909417929092179092553382526014905290812080549293509061324883613be7565b9091555050600081815260116020526040902080546001600160a01b0319163317905592915050565b6000806006546007546132849190613f17565b61328e9042613f03565b60065461329b9190613eaa565b600c805491925060009190826132b083613be7565b909155506040805160608101825282815263ffffffff8086166020808401828152848601928352600f80546001810182556000918252955160029096027f8d1108e10bcb7c27dddfc02ed9d693a074039d026cf4ea4240b40f7d581ac80281019690965590517f8d1108e10bcb7c27dddfc02ed9d693a074039d026cf4ea4240b40f7d581ac8039095018054935185166401000000000267ffffffffffffffff199094169590941694909417919091179091553382526015905290812080549293509061337c83613be7565b9091555050600081815260126020526040902080546001600160a01b0319163317905592915050565b60008072184f03e93ff9f4daa797ed6e38ed64bf6a1f0160401b83106133e45772184f03e93ff9f4daa797ed6e38ed64bf6a1f0160401b830492506040015b6d04ee2d6d415b85acef81000000008310613410576d04ee2d6d415b85acef8100000000830492506020015b662386f26fc10000831061342e57662386f26fc10000830492506010015b6305f5e1008310613446576305f5e100830492506008015b612710831061345a57612710830492506004015b6064831061346c576064830492506002015b600a8310610ec85760010192915050565b82805461348990613c7a565b90600052602060002090601f0160209004810192826134ab57600085556134f1565b82601f106134c457805160ff19168380011785556134f1565b828001600101855582156134f1579182015b828111156134f15782518255916020019190600101906134d6565b506134fd929150613501565b5090565b5b808211156134fd5760008155600101613502565b803560ff8116811461352757600080fd5b919050565b6000806040838503121561353f57600080fd5b8235915061354f60208401613516565b90509250929050565b60006020828403121561356a57600080fd5b5035919050565b602080825282518282018190526000919060409081850190868401855b828110156135d357815180516001600160a01b03168552868101511515878601528581015186860152606090810151908501526080909301929085019060010161358e565b5091979650505050505050565b6000602082840312156135f257600080fd5b81356001600160a01b0381168114610ec557600080fd5b6000806040838503121561361c57600080fd5b50508035926020909101359150565b602080825282518282018190526000919060409081850190868401855b828110156135d3578151805185528681015163ffffffff9081168887015290860151168585015260609093019290850190600101613648565b602080825282518282018190526000919060409081850190868401855b828110156135d3578151805185528681015161ffff168786015285015160ff16858501526060909301929085019060010161369e565b803563ffffffff8116811461352757600080fd5b600080604083850312156136fb57600080fd5b613704836136d4565b946020939093013593505050565b60005b8381101561372d578181015183820152602001613715565b8381111561373c576000848401525b50505050565b6000815180845261375a816020860160208601613712565b601f01601f19169290920160200192915050565b60006020808301818452808551808352604092508286019150828160051b87010184880160005b8381101561382a57603f19898403018552815161012081518186526137bc82870182613742565b9150508882015189860152878201518886015260608083015181870152506080808301516137ee8288018260ff169052565b505060a0828101519086015260c0808301519086015260e080830151908601526101009182015191909401529386019390860190600101613795565b509098975050505050505050565b634e487b7160e01b600052604160045260246000fd5b604051601f8201601f1916810167ffffffffffffffff8111828210171561387757613877613838565b604052919050565b6000806040838503121561389257600080fd5b8235915060208084013567ffffffffffffffff808211156138b257600080fd5b818601915086601f8301126138c657600080fd5b8135818111156138d8576138d8613838565b8060051b91506138e984830161384e565b818152918301840191848101908984111561390357600080fd5b938501935b8385101561392157843582529385019390850190613908565b8096505050505050509250929050565b803561ffff8116811461352757600080fd5b60008060006060848603121561395857600080fd5b61396184613931565b925061396f60208501613516565b9150604084013590509250925092565b600082601f83011261399057600080fd5b813567ffffffffffffffff8111156139aa576139aa613838565b6139bd601f8201601f191660200161384e565b8181528460208386010111156139d257600080fd5b816020850160208301376000918101602001919091529392505050565b600060208284031215613a0157600080fd5b813567ffffffffffffffff811115613a1857600080fd5b6122718482850161397f565b6000610120808352613a388184018d613742565b602084019b909b5250506040810197909752606087019590955260ff93909316608086015260a085019190915260c084015260e083015261010090910152919050565b60008060008060008060c08789031215613a9457600080fd5b863567ffffffffffffffff811115613aab57600080fd5b613ab789828a0161397f565b965050613ac660208801613931565b9450613ad460408801613516565b9350613ae2606088016136d4565b9250613af060808801613516565b915060a087013590509295509295509295565b6020808252601490820152730c6d0c2e6e6d2e640dcdee840f2deeae4407c74560631b604082015260600190565b6020808252600a90820152691ddc9bdb99c818dbdcdd60b21b604082015260600190565b634e487b7160e01b600052603260045260246000fd5b634e487b7160e01b600052601160045260246000fd5b600063ffffffff808316818516808303821115613ba057613ba0613b6b565b01949350505050565b600060ff821660ff8103613bbf57613bbf613b6b565b60010192915050565b6000816000190483118215151615613be257613be2613b6b565b500290565b600060018201613bf957613bf9613b6b565b5060010190565b600060ff821660ff84168060ff03821115613c1d57613c1d613b6b565b019392505050565b600060ff821680613c3857613c38613b6b565b6000190192915050565b634e487b7160e01b600052601260045260246000fd5b600060ff831680613c6b57613c6b613c42565b8060ff84160491505092915050565b600181811c90821680613c8e57607f821691505b602082108103613cae57634e487b7160e01b600052602260045260246000fd5b50919050565b6000604082018483526020604081850152818551808452606086019150828701935060005b81811015613cf557845183529383019391830191600101613cd9565b5090979650505050505050565b600060208284031215613d1457600080fd5b81518015158114610ec557600080fd5b600060ff821660ff841680821015613d3e57613d3e613b6b565b90039392505050565b600181815b80851115613d82578160001904821115613d6857613d68613b6b565b80851615613d7557918102915b93841c9390800290613d4c565b509250929050565b600082613d9957506001610ec8565b81613da657506000610ec8565b8160018114613dbc5760028114613dc657613de2565b6001915050610ec8565b60ff841115613dd757613dd7613b6b565b50506001821b610ec8565b5060208310610133831016604e8410600b8410161715613e05575081810a610ec8565b613e0f8383613d47565b8060001904821115613e2357613e23613b6b565b029392505050565b6000610ec58383613d8a565b60008351613e49818460208801613712565b835190830190613ba0818360208801613712565b60008251613e6f818460208701613712565b9190910192915050565b600061ffff808316818516808303821115613ba057613ba0613b6b565b600082613ea557613ea5613c42565b500490565b60008219821115613ebd57613ebd613b6b565b500190565b838152826020820152606060408201526000613ee16060830184613742565b95945050505050565b600060208284031215613efc57600080fd5b5051919050565b600082613f1257613f12613c42565b500690565b600082821015613f2957613f29613b6b565b50039056fea2646970667358221220df108a2027109b571b9493be28d84dfa3f88f08a83996f8d3765105b86a7886d64736f6c634300080d0033",
  "immutableReferences": {},
  "source": "// SPDX-License-Identifier: MIT\npragma solidity ^0.8.13;\n\nimport \"./PDDLib.sol\";\nimport \"./CarHelper.sol\";\nimport \"./CarFactory.sol\";\nimport \"../node_modules/@openzeppelin/contracts/utils/Strings.sol\";\n\n\n/// @title An auxiliary contract that implements the interaction with the rooms and connects them with the functions of the main game mechanics\ncontract RaceHandler is CarHelper{\n    struct Cross{\n        uint playersNeeded;\n        uint crossId;\n    }\n\n    Cross[] crosses;\n\n    uint[] levelToReward = [\n        10000000000000,\n        20000000000000,\n        40000000000000,\n        80000000000000,\n        160000000000000,\n        320000000000000,\n        640000000000000,\n        1280000000000000,\n        2560000000000000,\n        5120000000000000\n    ];\n    \n    mapping(address => uint) playersToRooms;\n    mapping(address => uint) playersToCars;\n    struct OpenedRoom{\n        uint id;\n        uint playersEntered;\n        uint world;\n        Cross cross;\n        uint roomSeed;\n    }\n    struct StartedRoom{\n        uint numberPlayers;\n        uint world;\n        uint roomDNA;\n        uint startTime;\n        Answer[] answers;\n        uint curAnswer;\n        bool closed;\n    }\n    struct Answer{\n        address player;\n        bool correct;\n        uint time;\n        uint carId;\n    }\n\n    uint roomsCount;\n\n    constructor(){\n        // crosses.push(Cross(4,4,0));\n        // crosses.push(Cross(3,4,0));\n        // crosses.push(Cross(2,4,0));\n        // crosses.push(Cross(3,3,1));\n        // crosses.push(Cross(2,3,1));\n        roomsCount = 1;\n    }\n\n    event RoomFull(uint roomId, uint roomDNA);\n    event RoomClosed(uint roomId);\n\n    OpenedRoom[] public openedRooms;\n    mapping(uint => StartedRoom) public idToStartedRooms;\n\n\n    /// search room for competition\n    /// @param carId car id\n    /// @dev if exist appropriate room for current user, user start competition in this room, else add new room\n    function findRoom(uint carId) public onlyOwnerOfCar(carId){\n        bool foundRoom = false;\n        for(uint i = 0; i<openedRooms.length; i++){\n            if(cars[carId].carLevel/10+1 != openedRooms[i].world){\n                continue;\n            }\n            foundRoom = true;\n            playersToRooms[msg.sender] = openedRooms[i].id;\n            playersToCars[msg.sender] = carId;\n            openedRooms[i].playersEntered++;\n            openedRooms[i].roomSeed += cars[carId].vin/2;\n            if(openedRooms[i].playersEntered == openedRooms[i].cross.playersNeeded){\n                uint roomDNA = PDDLib.generateRoom(\n                    openedRooms[i].cross.crossId,\n                    openedRooms[i].cross.playersNeeded,\n                    Strings.toString(openedRooms[i].roomSeed));\n                \n                StartedRoom storage ss = idToStartedRooms[openedRooms[i].id];\n                ss.numberPlayers = openedRooms[i].cross.playersNeeded;\n                ss.world = openedRooms[i].world;\n                ss.roomDNA = roomDNA;\n                ss.startTime = block.timestamp;\n                ss.curAnswer = 0;\n                ss.closed = false;\n\n                emit RoomFull(openedRooms[i].id, roomDNA);\n                delete openedRooms[i];\n                break;\n            }\n        }\n\n        if(foundRoom){\n            return;\n        }\n        uint id = roomsCount++;\n        Cross memory cr = Cross(\n            block.timestamp%5 + 2,\n            block.timestamp%2\n        );\n        playersToRooms[msg.sender] = id;\n        openedRooms.push(OpenedRoom(\n            id,\n            1,\n            cars[carId].carLevel/10+1,\n            cr,\n            cars[carId].vin/2\n        ));\n    }\n\n    /// get closed room\n    /// @param roomId room id\n    /// @return Answer[] memory list with player response, player, player car and response time\n    /// @dev called after receiving the event about sending the last response to the room\n    function getClosedRoom(uint roomId) public view returns(Answer[] memory){\n        require(idToStartedRooms[roomId].closed, \"room not closed\");\n        return idToStartedRooms[roomId].answers;\n    }\n\n\n\n\n    /// commit ans\n    /// @param roomId room id\n    /// @param answer ?\n    function commitAnswer(uint roomId, uint[] memory answer) public{\n        require(playersToRooms[msg.sender]==roomId, \"not your room\");\n\n        uint roomDNA = idToStartedRooms[roomId].roomDNA;\n        bool right = PDDLib.isCorrectAnswer(roomDNA, answer);\n        //Answer memory ans = Answer(msg.sender, right, block.timestamp);\n        \n        Answer memory ans = Answer(msg.sender, right, block.timestamp, playersToCars[msg.sender]);\n        StartedRoom storage sr = idToStartedRooms[roomId];\n        sr.answers.push(ans);\n\n        if(idToStartedRooms[roomId].answers.length == idToStartedRooms[roomId].numberPlayers){\n            emit RoomClosed(roomId);\n            idToStartedRooms[roomId].closed = true;\n            delete playersToRooms[msg.sender];\n            delete playersToCars[msg.sender];\n\n            //\n            uint numCorrectAnswers = 0;\n            for(uint i = 0; i<idToStartedRooms[roomId].numberPlayers; i++){\n                if(idToStartedRooms[roomId].answers[i].correct){\n                    numCorrectAnswers++;\n                }\n            }\n            if(numCorrectAnswers==0){\n                return;\n            }\n            if(numCorrectAnswers==1){\n                //payable(idToStartedRooms[roomId].answers[0].player).transfer(1000);\n            }\n        }\n    }\n}\n",
  "sourcePath": "/Users/vvan/Programming/JavaScript/DriveSafely/contract/contracts/RaceHandler.sol",
  "compiler": {
    "name": "solc",
    "version": "0.8.13+commit.abaa5c0e.Emscripten.clang"
  },
  "schemaVersion": "3.4.11",
  "updatedAt": "2023-01-12T16:50:30.732Z",
  "networkType": "ethereum",
  "devdoc": {
    "kind": "dev",
    "methods": {
      "commitAnswer(uint256,uint256[])": {
        "params": {
          "answer": "?",
          "roomId": "room id"
        }
      },
      "createCar(string)": {
        "details": "creating new car for user",
        "params": {
          "model": "car model"
        }
      },
      "createCustomCar(string,uint16,uint8,uint32,uint8,uint256)": {
        "details": "creation car for customer with different characteristics",
        "params": {
          "_carLevel": "car level",
          "_carPrice": "car price",
          "_consumtion": "car consumtion",
          "_durability": "car durability",
          "_horsePowers": "car horse powers",
          "_model": "car model"
        }
      },
      "createCustomChassis(uint32,uint256)": {
        "params": {
          "_chassisPrice": "chassis price",
          "_durability": "car durability"
        },
        "returns": {
          "_0": "id new chassis"
        }
      },
      "createCustomEngine(uint16,uint8,uint256)": {
        "params": {
          "_consumtion": "car consumtion",
          "_enginePrice": "car engine price",
          "_horsePowers": "car horse powers"
        },
        "returns": {
          "_0": "id new engine"
        }
      },
      "detachChassis(uint256,uint256)": {
        "details": "for installation new chassis",
        "params": {
          "carId": "car id",
          "chassisId": "chassis id"
        }
      },
      "detachEngine(uint256,uint256)": {
        "details": "for installation new engine",
        "params": {
          "carId": "car id",
          "engineId": "engine id"
        }
      },
      "findRoom(uint256)": {
        "details": "if exist appropriate room for current user, user start competition in this room, else add new room",
        "params": {
          "carId": "car id"
        }
      },
      "getCarsByOwner(address)": {
        "params": {
          "_owner": "owner's address"
        },
        "returns": {
          "_0": "Car[] memory owner's list of cars"
        }
      },
      "getChassisByOwner(address)": {
        "params": {
          "_owner": "owner's address"
        },
        "returns": {
          "_0": "Chassis[] memory owner's list of engines"
        }
      },
      "getClosedRoom(uint256)": {
        "details": "called after receiving the event about sending the last response to the room",
        "params": {
          "roomId": "room id"
        },
        "returns": {
          "_0": "Answer[] memory list with player response, player, player car and response time"
        }
      },
      "getEnginesByOwner(address)": {
        "params": {
          "_owner": "owner's address"
        },
        "returns": {
          "_0": "Engine[] memory owner's list of engines"
        }
      },
      "getFuelStationByOwner(address)": {
        "details": "exist only one",
        "params": {
          "_owner": "owner's address"
        },
        "returns": {
          "_0": "FuelStation memory one owner fuel station"
        }
      },
      "levelUp(uint256)": {
        "params": {
          "_carId": "car id"
        }
      },
      "owner()": {
        "details": "Returns the address of the current owner."
      },
      "renounceOwnership()": {
        "details": "Leaves the contract without owner. It will not be possible to call `onlyOwner` functions anymore. Can only be called by the current owner. NOTE: Renouncing ownership will leave the contract without an owner, thereby removing any functionality that is only available to the owner."
      },
      "switchChassis(uint256,uint256)": {
        "params": {
          "carId": "car id",
          "chassisId": "chassis id"
        }
      },
      "switchEngine(uint256,uint256)": {
        "params": {
          "carId": "car id",
          "engineId": "engine id"
        }
      },
      "transferOwnership(address)": {
        "details": "Transfers ownership of the contract to a new account (`newOwner`). Can only be called by the current owner."
      },
      "upgradeCapacity(uint256,uint8)": {
        "params": {
          "_counts": "size",
          "_fuelStatonId": "fuel station id"
        }
      },
      "upgradeConsumtion(uint256)": {
        "params": {
          "_engineId": "engine id"
        }
      },
      "upgradeDurability(uint256,uint8)": {
        "params": {
          "_chassisId": "chassis id",
          "_counts": "size"
        }
      },
      "upgradeHorsePowers(uint256,uint8)": {
        "params": {
          "_counts": "size",
          "_engineId": "engine id"
        }
      },
      "upgradeProductionPerHour(uint256,uint8)": {
        "params": {
          "_counts": "size",
          "_fuelStatonId": "fuel station id"
        }
      }
    },
    "title": "An auxiliary contract that implements the interaction with the rooms and connects them with the functions of the main game mechanics",
    "version": 1
  },
  "userdoc": {
    "kind": "user",
    "methods": {
      "commitAnswer(uint256,uint256[])": {
        "notice": "commit ans"
      },
      "createCar(string)": {
        "notice": "creating car"
      },
      "createCustomCar(string,uint16,uint8,uint32,uint8,uint256)": {
        "notice": "customer car creation    (    )"
      },
      "createCustomChassis(uint32,uint256)": {
        "notice": "customer chassis creation"
      },
      "createCustomEngine(uint16,uint8,uint256)": {
        "notice": "customer engine creation"
      },
      "detachChassis(uint256,uint256)": {
        "notice": "removal of the old chassis"
      },
      "detachEngine(uint256,uint256)": {
        "notice": "removal of the old engine"
      },
      "findRoom(uint256)": {
        "notice": "search room for competition"
      },
      "getCarsByOwner(address)": {
        "notice": "list of owner cars"
      },
      "getChassisByOwner(address)": {
        "notice": "list of owner chassis"
      },
      "getClosedRoom(uint256)": {
        "notice": "get closed room"
      },
      "getEnginesByOwner(address)": {
        "notice": "list of owner engines"
      },
      "getFuelStationByOwner(address)": {
        "notice": "fuel station of owner"
      },
      "levelUp(uint256)": {
        "notice": "upgrade car level"
      },
      "switchChassis(uint256,uint256)": {
        "notice": "changing chassis in owner's car"
      },
      "switchEngine(uint256,uint256)": {
        "notice": "changing engine in owner's car"
      },
      "upgradeCapacity(uint256,uint8)": {
        "notice": "upgrade capacity of fuel station"
      },
      "upgradeConsumtion(uint256)": {
        "notice": "upgrade consumption"
      },
      "upgradeDurability(uint256,uint8)": {
        "notice": "upgrade durability"
      },
      "upgradeHorsePowers(uint256,uint8)": {
        "notice": "upgrade horse powers"
      },
      "upgradeProductionPerHour(uint256,uint8)": {
        "notice": "upgrade production on per hour"
      }
    },
    "version": 1
  }
}