{
  "contractName": "RaceHandler",
  "abi": [
    {
      "inputs": [],
      "stateMutability": "nonpayable",
      "type": "constructor"
    },
    {
      "anonymous": false,
      "inputs": [
        {
          "indexed": true,
          "internalType": "address",
          "name": "previousOwner",
          "type": "address"
        },
        {
          "indexed": true,
          "internalType": "address",
          "name": "newOwner",
          "type": "address"
        }
      ],
      "name": "OwnershipTransferred",
      "type": "event"
    },
    {
      "anonymous": false,
      "inputs": [
        {
          "indexed": false,
          "internalType": "uint256",
          "name": "roomId",
          "type": "uint256"
        }
      ],
      "name": "RoomClosed",
      "type": "event"
    },
    {
      "anonymous": false,
      "inputs": [
        {
          "indexed": false,
          "internalType": "uint256",
          "name": "roomId",
          "type": "uint256"
        },
        {
          "indexed": false,
          "internalType": "uint256",
          "name": "roomDNA",
          "type": "uint256"
        }
      ],
      "name": "RoomFull",
      "type": "event"
    },
    {
      "inputs": [
        {
          "internalType": "uint256",
          "name": "",
          "type": "uint256"
        }
      ],
      "name": "carToOwner",
      "outputs": [
        {
          "internalType": "address",
          "name": "",
          "type": "address"
        }
      ],
      "stateMutability": "view",
      "type": "function"
    },
    {
      "inputs": [
        {
          "internalType": "uint256",
          "name": "",
          "type": "uint256"
        }
      ],
      "name": "carToPrice",
      "outputs": [
        {
          "internalType": "uint256",
          "name": "",
          "type": "uint256"
        }
      ],
      "stateMutability": "view",
      "type": "function"
    },
    {
      "inputs": [
        {
          "internalType": "uint256",
          "name": "",
          "type": "uint256"
        }
      ],
      "name": "cars",
      "outputs": [
        {
          "internalType": "string",
          "name": "model",
          "type": "string"
        },
        {
          "internalType": "uint256",
          "name": "vin",
          "type": "uint256"
        },
        {
          "internalType": "uint256",
          "name": "engineId",
          "type": "uint256"
        },
        {
          "internalType": "uint256",
          "name": "chassisId",
          "type": "uint256"
        },
        {
          "internalType": "uint8",
          "name": "carLevel",
          "type": "uint8"
        },
        {
          "internalType": "uint256",
          "name": "mileage",
          "type": "uint256"
        },
        {
          "internalType": "uint256",
          "name": "winCountOnCurrentLevel",
          "type": "uint256"
        },
        {
          "internalType": "uint256",
          "name": "lossCountOnCurrentLevel",
          "type": "uint256"
        },
        {
          "internalType": "uint256",
          "name": "id",
          "type": "uint256"
        }
      ],
      "stateMutability": "view",
      "type": "function"
    },
    {
      "inputs": [
        {
          "internalType": "uint256",
          "name": "",
          "type": "uint256"
        }
      ],
      "name": "chassis",
      "outputs": [
        {
          "internalType": "uint256",
          "name": "id",
          "type": "uint256"
        },
        {
          "internalType": "uint32",
          "name": "durability",
          "type": "uint32"
        },
        {
          "internalType": "uint32",
          "name": "resource",
          "type": "uint32"
        }
      ],
      "stateMutability": "view",
      "type": "function"
    },
    {
      "inputs": [
        {
          "internalType": "uint256",
          "name": "",
          "type": "uint256"
        }
      ],
      "name": "chassisToOwner",
      "outputs": [
        {
          "internalType": "address",
          "name": "",
          "type": "address"
        }
      ],
      "stateMutability": "view",
      "type": "function"
    },
    {
      "inputs": [
        {
          "internalType": "uint256",
          "name": "",
          "type": "uint256"
        }
      ],
      "name": "chassisToPrice",
      "outputs": [
        {
          "internalType": "uint256",
          "name": "",
          "type": "uint256"
        }
      ],
      "stateMutability": "view",
      "type": "function"
    },
    {
      "inputs": [
        {
          "internalType": "string",
          "name": "model",
          "type": "string"
        }
      ],
      "name": "createCar",
      "outputs": [],
      "stateMutability": "nonpayable",
      "type": "function"
    },
    {
      "inputs": [
        {
          "internalType": "string",
          "name": "_model",
          "type": "string"
        },
        {
          "internalType": "uint16",
          "name": "_horsePowers",
          "type": "uint16"
        },
        {
          "internalType": "uint8",
          "name": "_consumtion",
          "type": "uint8"
        },
        {
          "internalType": "uint32",
          "name": "_durability",
          "type": "uint32"
        },
        {
          "internalType": "uint8",
          "name": "_carLevel",
          "type": "uint8"
        },
        {
          "internalType": "uint256",
          "name": "_carPrice",
          "type": "uint256"
        }
      ],
      "name": "createCustomCar",
      "outputs": [],
      "stateMutability": "nonpayable",
      "type": "function"
    },
    {
      "inputs": [
        {
          "internalType": "uint32",
          "name": "_durability",
          "type": "uint32"
        },
        {
          "internalType": "uint256",
          "name": "_chassisPrice",
          "type": "uint256"
        }
      ],
      "name": "createCustomChassis",
      "outputs": [
        {
          "internalType": "uint256",
          "name": "",
          "type": "uint256"
        }
      ],
      "stateMutability": "nonpayable",
      "type": "function"
    },
    {
      "inputs": [
        {
          "internalType": "uint16",
          "name": "_horsePowers",
          "type": "uint16"
        },
        {
          "internalType": "uint8",
          "name": "_consumtion",
          "type": "uint8"
        },
        {
          "internalType": "uint256",
          "name": "_enginePrice",
          "type": "uint256"
        }
      ],
      "name": "createCustomEngine",
      "outputs": [
        {
          "internalType": "uint256",
          "name": "",
          "type": "uint256"
        }
      ],
      "stateMutability": "nonpayable",
      "type": "function"
    },
    {
      "inputs": [],
      "name": "createFuelStation",
      "outputs": [],
      "stateMutability": "nonpayable",
      "type": "function"
    },
    {
      "inputs": [
        {
          "internalType": "uint256",
          "name": "carId",
          "type": "uint256"
        },
        {
          "internalType": "uint256",
          "name": "chassisId",
          "type": "uint256"
        }
      ],
      "name": "detachChassis",
      "outputs": [],
      "stateMutability": "nonpayable",
      "type": "function"
    },
    {
      "inputs": [
        {
          "internalType": "uint256",
          "name": "carId",
          "type": "uint256"
        },
        {
          "internalType": "uint256",
          "name": "engineId",
          "type": "uint256"
        }
      ],
      "name": "detachEngine",
      "outputs": [],
      "stateMutability": "nonpayable",
      "type": "function"
    },
    {
      "inputs": [
        {
          "internalType": "uint256",
          "name": "",
          "type": "uint256"
        }
      ],
      "name": "engineToOwner",
      "outputs": [
        {
          "internalType": "address",
          "name": "",
          "type": "address"
        }
      ],
      "stateMutability": "view",
      "type": "function"
    },
    {
      "inputs": [
        {
          "internalType": "uint256",
          "name": "",
          "type": "uint256"
        }
      ],
      "name": "engineToPrice",
      "outputs": [
        {
          "internalType": "uint256",
          "name": "",
          "type": "uint256"
        }
      ],
      "stateMutability": "view",
      "type": "function"
    },
    {
      "inputs": [
        {
          "internalType": "uint256",
          "name": "",
          "type": "uint256"
        }
      ],
      "name": "engines",
      "outputs": [
        {
          "internalType": "uint256",
          "name": "id",
          "type": "uint256"
        },
        {
          "internalType": "uint16",
          "name": "horsePowers",
          "type": "uint16"
        },
        {
          "internalType": "uint8",
          "name": "consumtion",
          "type": "uint8"
        }
      ],
      "stateMutability": "view",
      "type": "function"
    },
    {
      "inputs": [
        {
          "internalType": "uint256",
          "name": "",
          "type": "uint256"
        }
      ],
      "name": "fuelStationToOwner",
      "outputs": [
        {
          "internalType": "address",
          "name": "",
          "type": "address"
        }
      ],
      "stateMutability": "view",
      "type": "function"
    },
    {
      "inputs": [
        {
          "internalType": "address",
          "name": "_owner",
          "type": "address"
        }
      ],
      "name": "getCarsByOwner",
      "outputs": [
        {
          "components": [
            {
              "internalType": "string",
              "name": "model",
              "type": "string"
            },
            {
              "internalType": "uint256",
              "name": "vin",
              "type": "uint256"
            },
            {
              "internalType": "uint256",
              "name": "engineId",
              "type": "uint256"
            },
            {
              "internalType": "uint256",
              "name": "chassisId",
              "type": "uint256"
            },
            {
              "internalType": "uint8",
              "name": "carLevel",
              "type": "uint8"
            },
            {
              "internalType": "uint256",
              "name": "mileage",
              "type": "uint256"
            },
            {
              "internalType": "uint256",
              "name": "winCountOnCurrentLevel",
              "type": "uint256"
            },
            {
              "internalType": "uint256",
              "name": "lossCountOnCurrentLevel",
              "type": "uint256"
            },
            {
              "internalType": "uint256",
              "name": "id",
              "type": "uint256"
            }
          ],
          "internalType": "struct CarFactory.Car[]",
          "name": "",
          "type": "tuple[]"
        }
      ],
      "stateMutability": "view",
      "type": "function"
    },
    {
      "inputs": [
        {
          "internalType": "address",
          "name": "_owner",
          "type": "address"
        }
      ],
      "name": "getChassisByOwner",
      "outputs": [
        {
          "components": [
            {
              "internalType": "uint256",
              "name": "id",
              "type": "uint256"
            },
            {
              "internalType": "uint32",
              "name": "durability",
              "type": "uint32"
            },
            {
              "internalType": "uint32",
              "name": "resource",
              "type": "uint32"
            }
          ],
          "internalType": "struct CarFactory.Chassis[]",
          "name": "",
          "type": "tuple[]"
        }
      ],
      "stateMutability": "view",
      "type": "function"
    },
    {
      "inputs": [
        {
          "internalType": "uint256",
          "name": "_carId",
          "type": "uint256"
        }
      ],
      "name": "getCost",
      "outputs": [
        {
          "internalType": "uint256",
          "name": "",
          "type": "uint256"
        }
      ],
      "stateMutability": "view",
      "type": "function"
    },
    {
      "inputs": [
        {
          "internalType": "address",
          "name": "_owner",
          "type": "address"
        }
      ],
      "name": "getEnginesByOwner",
      "outputs": [
        {
          "components": [
            {
              "internalType": "uint256",
              "name": "id",
              "type": "uint256"
            },
            {
              "internalType": "uint16",
              "name": "horsePowers",
              "type": "uint16"
            },
            {
              "internalType": "uint8",
              "name": "consumtion",
              "type": "uint8"
            }
          ],
          "internalType": "struct CarFactory.Engine[]",
          "name": "",
          "type": "tuple[]"
        }
      ],
      "stateMutability": "view",
      "type": "function"
    },
    {
      "inputs": [
        {
          "internalType": "address",
          "name": "_owner",
          "type": "address"
        }
      ],
      "name": "getFuelStationByOwner",
      "outputs": [
        {
          "components": [
            {
              "internalType": "uint256",
              "name": "id",
              "type": "uint256"
            },
            {
              "internalType": "uint8",
              "name": "capacity",
              "type": "uint8"
            },
            {
              "internalType": "uint8",
              "name": "productionPerHour",
              "type": "uint8"
            },
            {
              "internalType": "uint8",
              "name": "currentFullness",
              "type": "uint8"
            },
            {
              "internalType": "uint256",
              "name": "lastUpdate",
              "type": "uint256"
            }
          ],
          "internalType": "struct FuelStationFactory.FuelStation",
          "name": "",
          "type": "tuple"
        }
      ],
      "stateMutability": "view",
      "type": "function"
    },
    {
      "inputs": [
        {
          "internalType": "uint256",
          "name": "",
          "type": "uint256"
        }
      ],
      "name": "idToStartedRooms",
      "outputs": [
        {
          "internalType": "uint256",
          "name": "numberPlayers",
          "type": "uint256"
        },
        {
          "internalType": "uint256",
          "name": "world",
          "type": "uint256"
        },
        {
          "internalType": "uint256",
          "name": "roomDNA",
          "type": "uint256"
        },
        {
          "internalType": "uint256",
          "name": "startTime",
          "type": "uint256"
        },
        {
          "internalType": "uint256",
          "name": "curAnswer",
          "type": "uint256"
        },
        {
          "internalType": "bool",
          "name": "closed",
          "type": "bool"
        }
      ],
      "stateMutability": "view",
      "type": "function"
    },
    {
      "inputs": [
        {
          "internalType": "uint256",
          "name": "_carId",
          "type": "uint256"
        }
      ],
      "name": "levelUp",
      "outputs": [],
      "stateMutability": "payable",
      "type": "function"
    },
    {
      "inputs": [
        {
          "internalType": "uint256",
          "name": "",
          "type": "uint256"
        }
      ],
      "name": "openedRooms",
      "outputs": [
        {
          "internalType": "uint256",
          "name": "id",
          "type": "uint256"
        },
        {
          "internalType": "uint256",
          "name": "playersEntered",
          "type": "uint256"
        },
        {
          "internalType": "uint256",
          "name": "world",
          "type": "uint256"
        },
        {
          "components": [
            {
              "internalType": "uint256",
              "name": "playersNeeded",
              "type": "uint256"
            },
            {
              "internalType": "uint256",
              "name": "roadsNum",
              "type": "uint256"
            },
            {
              "internalType": "uint256",
              "name": "crossId",
              "type": "uint256"
            }
          ],
          "internalType": "struct RaceHandler.Cross",
          "name": "cross",
          "type": "tuple"
        }
      ],
      "stateMutability": "view",
      "type": "function"
    },
    {
      "inputs": [],
      "name": "owner",
      "outputs": [
        {
          "internalType": "address",
          "name": "",
          "type": "address"
        }
      ],
      "stateMutability": "view",
      "type": "function"
    },
    {
      "inputs": [
        {
          "internalType": "address",
          "name": "",
          "type": "address"
        }
      ],
      "name": "ownerCarCount",
      "outputs": [
        {
          "internalType": "uint256",
          "name": "",
          "type": "uint256"
        }
      ],
      "stateMutability": "view",
      "type": "function"
    },
    {
      "inputs": [
        {
          "internalType": "address",
          "name": "",
          "type": "address"
        }
      ],
      "name": "ownerChassisCount",
      "outputs": [
        {
          "internalType": "uint256",
          "name": "",
          "type": "uint256"
        }
      ],
      "stateMutability": "view",
      "type": "function"
    },
    {
      "inputs": [
        {
          "internalType": "address",
          "name": "",
          "type": "address"
        }
      ],
      "name": "ownerEngineCount",
      "outputs": [
        {
          "internalType": "uint256",
          "name": "",
          "type": "uint256"
        }
      ],
      "stateMutability": "view",
      "type": "function"
    },
    {
      "inputs": [],
      "name": "renounceOwnership",
      "outputs": [],
      "stateMutability": "nonpayable",
      "type": "function"
    },
    {
      "inputs": [
        {
          "internalType": "uint256",
          "name": "",
          "type": "uint256"
        }
      ],
      "name": "stations",
      "outputs": [
        {
          "internalType": "uint256",
          "name": "id",
          "type": "uint256"
        },
        {
          "internalType": "uint8",
          "name": "capacity",
          "type": "uint8"
        },
        {
          "internalType": "uint8",
          "name": "productionPerHour",
          "type": "uint8"
        },
        {
          "internalType": "uint8",
          "name": "currentFullness",
          "type": "uint8"
        },
        {
          "internalType": "uint256",
          "name": "lastUpdate",
          "type": "uint256"
        }
      ],
      "stateMutability": "view",
      "type": "function"
    },
    {
      "inputs": [
        {
          "internalType": "uint256",
          "name": "carId",
          "type": "uint256"
        },
        {
          "internalType": "uint256",
          "name": "chassisId",
          "type": "uint256"
        }
      ],
      "name": "switchChassis",
      "outputs": [],
      "stateMutability": "nonpayable",
      "type": "function"
    },
    {
      "inputs": [
        {
          "internalType": "uint256",
          "name": "carId",
          "type": "uint256"
        },
        {
          "internalType": "uint256",
          "name": "engineId",
          "type": "uint256"
        }
      ],
      "name": "switchEngine",
      "outputs": [],
      "stateMutability": "nonpayable",
      "type": "function"
    },
    {
      "inputs": [
        {
          "internalType": "address",
          "name": "newOwner",
          "type": "address"
        }
      ],
      "name": "transferOwnership",
      "outputs": [],
      "stateMutability": "nonpayable",
      "type": "function"
    },
    {
      "inputs": [
        {
          "internalType": "uint256",
          "name": "_fuelStatonId",
          "type": "uint256"
        },
        {
          "internalType": "uint8",
          "name": "_counts",
          "type": "uint8"
        }
      ],
      "name": "upgradeCapacity",
      "outputs": [],
      "stateMutability": "payable",
      "type": "function"
    },
    {
      "inputs": [
        {
          "internalType": "uint256",
          "name": "_engineId",
          "type": "uint256"
        },
        {
          "internalType": "uint8",
          "name": "_counts",
          "type": "uint8"
        }
      ],
      "name": "upgradeConsumtion",
      "outputs": [],
      "stateMutability": "payable",
      "type": "function"
    },
    {
      "inputs": [
        {
          "internalType": "uint256",
          "name": "_chassisId",
          "type": "uint256"
        },
        {
          "internalType": "uint8",
          "name": "_counts",
          "type": "uint8"
        }
      ],
      "name": "upgradeDurability",
      "outputs": [],
      "stateMutability": "payable",
      "type": "function"
    },
    {
      "inputs": [
        {
          "internalType": "uint256",
          "name": "_engineId",
          "type": "uint256"
        },
        {
          "internalType": "uint8",
          "name": "_counts",
          "type": "uint8"
        }
      ],
      "name": "upgradeHorsePowers",
      "outputs": [],
      "stateMutability": "payable",
      "type": "function"
    },
    {
      "inputs": [
        {
          "internalType": "uint256",
          "name": "_fuelStatonId",
          "type": "uint256"
        },
        {
          "internalType": "uint8",
          "name": "_counts",
          "type": "uint8"
        }
      ],
      "name": "upgradeProductionPerHour",
      "outputs": [],
      "stateMutability": "payable",
      "type": "function"
    },
    {
      "inputs": [
        {
          "internalType": "uint256",
          "name": "carId",
          "type": "uint256"
        }
      ],
      "name": "findRoom",
      "outputs": [],
      "stateMutability": "nonpayable",
      "type": "function"
    },
    {
      "inputs": [
        {
          "internalType": "uint256",
          "name": "roomId",
          "type": "uint256"
        }
      ],
      "name": "getClosedRoom",
      "outputs": [
        {
          "components": [
            {
              "internalType": "address",
              "name": "player",
              "type": "address"
            },
            {
              "internalType": "bool",
              "name": "correct",
              "type": "bool"
            },
            {
              "internalType": "uint256",
              "name": "time",
              "type": "uint256"
            },
            {
              "internalType": "uint256",
              "name": "carId",
              "type": "uint256"
            }
          ],
          "internalType": "struct RaceHandler.Answer[]",
          "name": "",
          "type": "tuple[]"
        }
      ],
      "stateMutability": "view",
      "type": "function"
    },
    {
      "inputs": [
        {
          "internalType": "uint256",
          "name": "roomId",
          "type": "uint256"
        },
        {
          "internalType": "uint256[]",
          "name": "answer",
          "type": "uint256[]"
        }
      ],
      "name": "commitAnswer",
      "outputs": [],
      "stateMutability": "nonpayable",
      "type": "function"
    }
  ],
  "bytecode": "0x60806040526000805461ffff60a01b191661014f60a21b179055600160088190556009556509184e72a00060165565b5e620f48000601755650da475abf0006018556611c37937e080006019556305f5e100601a5566038d7ea4c68000601b553480156200006c57600080fd5b5062000078336200024b565b60506003908155605b60049081556005805460ff1916600a179055620186a06006556201d4c1600755600b80546001908101909155600c805482019055604080516060808201835284825260208281018681526000848601818152601c8054808a0182558184529651968b027f0e4562a10381dec21b205ed72637e6b1b523bdd0e4d4d50af5cd23dd4500a2118181019890985593517f0e4562a10381dec21b205ed72637e6b1b523bdd0e4d4d50af5cd23dd4500a2128086019190915591517f0e4562a10381dec21b205ed72637e6b1b523bdd0e4d4d50af5cd23dd4500a21394850155875180870189528b81528086018b8152818a018581528354808d0185558487529251928e02808b019390935590518285015551908501558751808701895260028082528187019b8c52818a018581528354808d0185558487529251928e02808b01939093559b51828501559a5190850155875180870189528b81528086018c8152818a018b81528354808d0185558487529251928e02808b019390935590518285015551908501558751958601885298855292840189815295840187815288548089018a559890915292519690970292830195909555915193810193909355519190920155601f556200029b565b600080546001600160a01b038381166001600160a01b0319831681178455604051919092169283917f8be0079c531659141344cd1fd0a4f28419497f9722a3daafe3b4186f6b6457e09190a35050565b613c6e80620002ab6000396000f3fe6080604052600436106102515760003560e01c80638776601911610139578063c85b7fed116100b6578063f2fde38b1161007a578063f2fde38b146109ec578063f7746e3614610a0c578063f85993b914610a41578063faf4bb9814610a6e578063fb2d954f14610a81578063fb33250f14610aa157600080fd5b8063c85b7fed1461094c578063d1c54eea1461096c578063d7086fab1461098c578063ea126933146109ac578063ede6fbf5146109cc57600080fd5b8063b3b29afd116100fd578063b3b29afd14610871578063b72c0eea1461089e578063bfcc9716146108df578063c34cccc4146108ff578063c75bb4f41461091f57600080fd5b806387766019146107965780638da5cb5b146107c3578063906f5f34146107e157806392f859db146107f4578063aa11b6811461084457600080fd5b80634e31f910116101d25780636f206fc1116101965780636f206fc1146106d4578063715018a6146107015780637713d521146107165780637c62360f146107435780637fb2aa4d14610756578063859092671461078357600080fd5b80634e31f910146105bd578063594193d7146106285780635a4dd47d1461065e5780635dcc4cc61461067e5780636b606d9b146106b457600080fd5b80631c5dde0e116102195780631c5dde0e14610396578063224370f0146103d857806333ca504b1461050c5780633521c4261461055a578063449014901461058757600080fd5b806303f2e05b146102565780630418394e1461026b578063081315ff146102f25780630a0176fc146103485780630ce90ec214610383575b600080fd5b610269610264366004613242565b610ac1565b005b34801561027757600080fd5b506102be61028636600461326e565b602160205260009081526040902080546001820154600283015460038401546005850154600690950154939492939192909160ff1686565b6040805196875260208701959095529385019290925260608401526080830152151560a082015260c0015b60405180910390f35b3480156102fe57600080fd5b5061031261030d36600461326e565b610bf7565b604080519485526020808601949094528481019290925280516060850152918201516080840152015160a082015260c0016102e9565b34801561035457600080fd5b5061037561036336600461326e565b60156020526000908152604090205481565b6040519081526020016102e9565b61026961039136600461326e565b610c55565b3480156103a257600080fd5b506103b66103b136600461326e565b610dc5565b6040805193845263ffffffff92831660208501529116908201526060016102e9565b3480156103e457600080fd5b50610269600180546040805160a0810182528281526000805460ff600160a01b820481166020808601828152600160a81b90940483168688019081526060870192835263ffffffff421660808801908152898b018b559986529551600389027fb10e2d527612073b26eecdfd717e6a320cf44b4afac2b0732d9fcbe2b7fa0cf681019190915593517fb10e2d527612073b26eecdfd717e6a320cf44b4afac2b0732d9fcbe2b7fa0cf785018054975193518516620100000262ff0000199486166101000261ffff19909916929095169190911796909617919091169190911790935594517fb10e2d527612073b26eecdfd717e6a320cf44b4afac2b0732d9fcbe2b7fa0cf8909501949094559183526002909152902080546001600160a01b03191633179055565b34801561051857600080fd5b5061054261052736600461326e565b600d602052600090815260409020546001600160a01b031681565b6040516001600160a01b0390911681526020016102e9565b34801561056657600080fd5b5061057a61057536600461326e565b610e05565b6040516102e99190613287565b34801561059357600080fd5b506105426105a236600461326e565b600f602052600090815260409020546001600160a01b031681565b3480156105c957600080fd5b506105dd6105d83660046132f6565b610ef7565b6040516102e99190600060a0820190508251825260ff602084015116602083015260ff604084015116604083015260ff60608401511660608301526080830151608083015292915050565b34801561063457600080fd5b5061054261064336600461326e565b6002602052600090815260409020546001600160a01b031681565b34801561066a57600080fd5b5061037561067936600461326e565b610fde565b34801561068a57600080fd5b5061054261069936600461326e565b600e602052600090815260409020546001600160a01b031681565b3480156106c057600080fd5b506102696106cf36600461331f565b611038565b3480156106e057600080fd5b506106f46106ef3660046132f6565b611138565b6040516102e99190613341565b34801561070d57600080fd5b5061026961128c565b34801561072257600080fd5b506107366107313660046132f6565b6112a0565b6040516102e99190613397565b610269610751366004613242565b6113e8565b34801561076257600080fd5b506103756107713660046132f6565b60116020526000908152604090205481565b610269610791366004613242565b611503565b3480156107a257600080fd5b506103756107b13660046132f6565b60126020526000908152604090205481565b3480156107cf57600080fd5b506000546001600160a01b0316610542565b6102696107ef366004613242565b6115f7565b34801561080057600080fd5b5061081461080f36600461326e565b6116df565b6040805195865260ff9485166020870152928416928501929092529091166060830152608082015260a0016102e9565b34801561085057600080fd5b5061037561085f36600461326e565b60136020526000908152604090205481565b34801561087d57600080fd5b5061037561088c3660046132f6565b60106020526000908152604090205481565b3480156108aa57600080fd5b506108be6108b936600461326e565b61172b565b6040805193845261ffff909216602084015260ff16908201526060016102e9565b3480156108eb57600080fd5b506103756108fa3660046133fe565b611768565b34801561090b57600080fd5b5061026961091a36600461331f565b6118ad565b34801561092b57600080fd5b5061093f61093a3660046132f6565b6119fd565b6040516102e99190613484565b34801561095857600080fd5b50610269610967366004613595565b611c3b565b34801561097857600080fd5b5061026961098736600461331f565b611e38565b34801561099857600080fd5b506103756109a7366004613659565b611f1e565b3480156109b857600080fd5b506102696109c736600461331f565b61207a565b3480156109d857600080fd5b506102696109e7366004613705565b6121de565b3480156109f857600080fd5b50610269610a073660046132f6565b6123ac565b348015610a1857600080fd5b50610a2c610a2736600461326e565b612425565b6040516102e99998979695949392919061373a565b348015610a4d57600080fd5b50610375610a5c36600461326e565b60146020526000908152604090205481565b610269610a7c366004613242565b612512565b348015610a8d57600080fd5b50610269610a9c36600461326e565b612622565b348015610aad57600080fd5b50610269610abc366004613791565b612b30565b6000828152600f602052604090205482906001600160a01b03163314610b025760405162461bcd60e51b8152600401610af990613819565b60405180910390fd5b601a54600c8481548110610b1857610b18613847565b6000918252602090912060016002909202010154610b3f9063ffffffff1660ff8516613873565b63ffffffff16610b4f919061389f565b3414610b5a57600080fd5b600080546040516001600160a01b03909116913480156108fc02929091818181858888f19350505050158015610b94573d6000803e3d6000fd5b508160ff16600c8481548110610bac57610bac613847565b6000918252602082206001600290920201018054909190610bd490849063ffffffff166138be565b92506101000a81548163ffffffff021916908363ffffffff160217905550505050565b60208181548110610c0757600080fd5b60009182526020918290206006909102018054600182015460028301546040805160608101825260038601548152600486015496810196909652600590940154938501939093529093509184565b6000600a808381548110610c6b57610c6b613847565b6000918252602090912060046009909202010154610c8c919060ff166138fc565b610c9790600161391e565b60ff16601b54610ca7919061389f565b9050803414610ce55760405162461bcd60e51b815260206004820152600a6024820152691ddc9bdb99c818dbdcdd60b21b6044820152606401610af9565b600080546040516001600160a01b03909116913480156108fc02929091818181858888f19350505050158015610d1f573d6000803e3d6000fd5b50600a8281548110610d3357610d33613847565b600091825260208220600460099092020101805460ff1691610d5483613943565b91906101000a81548160ff021916908360ff160217905550506000600a8381548110610d8257610d82613847565b9060005260206000209060090201600601819055506000600a8381548110610dac57610dac613847565b9060005260206000209060090201600701819055505050565b600c8181548110610dd557600080fd5b60009182526020909120600290910201805460019091015490915063ffffffff8082169164010000000090041683565b60008181526021602052604090206006015460609060ff16610e5b5760405162461bcd60e51b815260206004820152600f60248201526e1c9bdbdb481b9bdd0818db1bdcd959608a1b6044820152606401610af9565b600082815260216020908152604080832060040180548251818502810185019093528083529193909284015b82821015610eec576000848152602090819020604080516080810182526003860290920180546001600160a01b0381168452600160a01b900460ff16151583850152600180820154928401929092526002015460608301529083529092019101610e87565b505050509050919050565b6040805160a081018252600080825260208201819052918101829052606081018290526080810182905290805b600154811015610f69576000818152600260205260409020546001600160a01b03808616911603610f5757809150610f69565b80610f6181613962565b915050610f24565b5060018181548110610f7d57610f7d613847565b60009182526020918290206040805160a081018252600390930290910180548352600181015460ff80821695850195909552610100810485169284019290925262010000909104909216606082015260029091015460808201529392505050565b600080600a808481548110610ff557610ff5613847565b6000918252602090912060046009909202010154611016919060ff166138fc565b61102190600161391e565b60ff16601b54611031919061389f565b9392505050565b6000818152600f602052604090205481906001600160a01b031633146110705760405162461bcd60e51b8152600401610af990613819565b6000838152600d602052604090205483906001600160a01b0316331461109557600080fd5b82600a85815481106110a9576110a9613847565b906000526020600020906009020160030154146111085760405162461bcd60e51b815260206004820152601860248201527f6368617373697320617265206e6f7420617474616368656400000000000000006044820152606401610af9565b6000600a858154811061111d5761111d613847565b90600052602060002090600902016003018190555050505050565b6001600160a01b0381166000908152601160205260408120546060919067ffffffffffffffff81111561116d5761116d61354e565b6040519080825280602002602001820160405280156111b857816020015b604080516060810182526000808252602080830182905292820152825260001990920191018161118b5790505b5090506000805b600c54811015611283576000818152600f60205260409020546001600160a01b0380871691160361127157600c81815481106111fd576111fd613847565b6000918252602091829020604080516060810182526002909302909101805483526001015463ffffffff80821694840194909452640100000000900490921691810191909152835184908490811061125757611257613847565b6020026020010181905250818061126d90613962565b9250505b8061127b81613962565b9150506111bf565b50909392505050565b611294612d16565b61129e6000612d70565b565b6001600160a01b0381166000908152601160205260408120546060919067ffffffffffffffff8111156112d5576112d561354e565b60405190808252806020026020018201604052801561132057816020015b60408051606081018252600080825260208083018290529282015282526000199092019101816112f35790505b5090506000805b600b54811015611283576000818152600e60205260409020546001600160a01b038087169116036113d657600b818154811061136557611365613847565b600091825260209182902060408051606081018252600293909302909101805483526001015461ffff8116938301939093526201000090920460ff169181019190915283518490849081106113bc576113bc613847565b602002602001018190525081806113d290613962565b9250505b806113e081613962565b915050611327565b6000828152600e602052604090205482906001600160a01b0316331461140d57600080fd5b600b838154811061142057611420613847565b60009182526020909120600290910201600101546114489062010000900460ff16600a61397b565b611453906002613a82565b601954611460919061389f565b341461146b57600080fd5b600080546040516001600160a01b03909116913480156108fc02929091818181858888f193505050501580156114a5573d6000803e3d6000fd5b5081600b84815481106114ba576114ba613847565b906000526020600020906002020160010160028282829054906101000a900460ff166114e6919061397b565b92506101000a81548160ff021916908360ff160217905550505050565b60008281526002602052604090205482906001600160a01b0316331461152857600080fd5b6017546001848154811061153e5761153e613847565b600091825260209091206003909102016001015461156490610100900460ff1684613a91565b60ff16611571919061389f565b341461157c57600080fd5b600080546040516001600160a01b03909116913480156108fc02929091818181858888f193505050501580156115b6573d6000803e3d6000fd5b5081600184815481106115cb576115cb613847565b906000526020600020906003020160010160018282829054906101000a900460ff166114e6919061391e565b60008281526002602052604090205482906001600160a01b0316331461161c57600080fd5b6016546001848154811061163257611632613847565b60009182526020909120600160039092020101546116539060ff1684613a91565b60ff16611660919061389f565b341461166b57600080fd5b600080546040516001600160a01b03909116913480156108fc02929091818181858888f193505050501580156116a5573d6000803e3d6000fd5b5081600184815481106116ba576116ba613847565b60009182526020822060016003909202010180549091906114e690849060ff1661391e565b600181815481106116ef57600080fd5b600091825260209091206003909102018054600182015460029092015490925060ff808316926101008104821692620100009091049091169085565b600b818154811061173b57600080fd5b60009182526020909120600290910201805460019091015490915061ffff81169062010000900460ff1683565b6000611772612d16565b600980546000918261178383613962565b909155506040805160608101825282815263ffffffff8781166020808401828152848601928352600c80546001810182556000918252955160029096027fdf6966c971051c3d54ec59162606531493a51404a002842f56009d7e5cf4a8c781019690965590517fdf6966c971051c3d54ec59162606531493a51404a002842f56009d7e5cf4a8c89095018054935185166401000000000267ffffffffffffffff1990941695909416949094179190911790915581546001600160a01b031682526012905290812080549293509061185983613962565b909155505060008054828252600f602052604090912080546001600160a01b0319166001600160a01b0390921691909117905582156118a45760008181526015602052604090208390555b90505b92915050565b6000818152600e602052604090205481906001600160a01b031633146118d257600080fd5b6000838152600d602052604090205483906001600160a01b031633146118f757600080fd5b82600a858154811061190b5761190b613847565b906000526020600020906009020160020154036119585760405162461bcd60e51b815260206004820152600b60248201526a73616d6520656e67696e6560a81b6044820152606401610af9565b6000611963336119fd565b905060005b81518110156119cc578482828151811061198457611984613847565b602002602001015160400151036119ba5760008282815181106119a9576119a9613847565b602002602001015160400181815250505b806119c481613962565b915050611968565b5083600a86815481106119e1576119e1613847565b9060005260206000209060090201600201819055505050505050565b6001600160a01b0381166000908152601060205260408120546060919067ffffffffffffffff811115611a3257611a3261354e565b604051908082528060200260200182016040528015611ab557816020015b611aa260405180610120016040528060608152602001600081526020016000815260200160008152602001600060ff168152602001600081526020016000815260200160008152602001600081525090565b815260200190600190039081611a505790505b5090506000805b600a54811015611283576000818152600d60205260409020546001600160a01b03808716911603611c2957600a8181548110611afa57611afa613847565b906000526020600020906009020160405180610120016040529081600082018054611b2490613ab2565b80601f0160208091040260200160405190810160405280929190818152602001828054611b5090613ab2565b8015611b9d5780601f10611b7257610100808354040283529160200191611b9d565b820191906000526020600020905b815481529060010190602001808311611b8057829003601f168201915b5050509183525050600182015460208201526002820154604082015260038201546060820152600482015460ff166080820152600582015460a0820152600682015460c0820152600782015460e0820152600890910154610100909101528351849084908110611c0f57611c0f613847565b60200260200101819052508180611c2590613962565b9250505b80611c3381613962565b915050611abc565b336000908152601d60205260409020548214611c895760405162461bcd60e51b815260206004820152600d60248201526c6e6f7420796f757220726f6f6d60981b6044820152606401610af9565b600082815260216020526040808220600201549051634e31f59760e11b815290919073__PDDLib________________________________90639c63eb2e90611cd79085908790600401613aec565b602060405180830381865af4158015611cf4573d6000803e3d6000fd5b505050506040513d601f19601f82011682018060405250810190611d189190613b3a565b60408051608081018252338082528315156020808401918252428486019081526000938452601e825285842054606086019081528b855260218352958420600481018054600181810183558288529487208851600390920201805496511515600160a01b026001600160a81b03199097166001600160a01b03929092169190911795909517855591519284019290925594516002909201919091559088905280549254939450909290919003611e30576040518681527f67acaceb58ff1ad2aa8b3069f69c4cd076824e06a09184b75fb197ead7040be79060200160405180910390a16000868152602160209081526040808320600601805460ff19166001179055338352601d8252808320839055601e9091528120555b505050505050565b6000818152600e602052604090205481906001600160a01b03163314611e5d57600080fd5b6000838152600d602052604090205483906001600160a01b03163314611e8257600080fd5b82600a8581548110611e9657611e96613847565b90600052602060002090600902016002015414611eee5760405162461bcd60e51b8152602060048201526016602482015275195b99da5b99481a5cc81b9bdd08185d1d1858da195960521b6044820152606401610af9565b6000600a8581548110611f0357611f03613847565b90600052602060002090600902016002018190555050505050565b6000611f28612d16565b6008805460009182611f3983613962565b909155506040805160608101825282815261ffff8089166020830190815260ff808a16948401948552600b80546001810182556000918252945160029095027f0175b7a638427703f0dbe7bb9bbf987a2551717b34e79f33b5b1008d1fa01db981019590955591517f0175b7a638427703f0dbe7bb9bbf987a2551717b34e79f33b5b1008d1fa01dba90940180549551909116620100000262ffffff199095169390921692909217929092179091559091506011906120006000546001600160a01b031690565b6001600160a01b031681526020810191909152604001600090812080549161202783613962565b909155505060008054828252600e602052604090912080546001600160a01b0319166001600160a01b0390921691909117905582156120725760008181526014602052604090208390555b949350505050565b6000818152600f602052604090205481906001600160a01b031633146120b25760405162461bcd60e51b8152600401610af990613819565b6000838152600d602052604090205483906001600160a01b031633146120d757600080fd5b82600a85815481106120eb576120eb613847565b906000526020600020906009020160030154036121395760405162461bcd60e51b815260206004820152600c60248201526b73616d65206368617373697360a01b6044820152606401610af9565b6000612144336119fd565b905060005b81518110156121ad578482828151811061216557612165613847565b6020026020010151606001510361219b57600082828151811061218a5761218a613847565b602002602001015160600181815250505b806121a581613962565b915050612149565b5083600a86815481106121c2576121c2613847565b9060005260206000209060090201600301819055505050505050565b33600090815260106020526040902054156121f857600080fd5b60008161220442612dc0565b604051602001612215929190613b5c565b60405160208183030381529060405290506000816040516020016122399190613b82565b6040516020818303038152906040528051906020012060001c9050600061225e612e53565b9050600061226a612f87565b600a80546040805161012081018252898152602080820189905291810187905260608101859052600160808201819052600060a0830181905260c0830181905260e083018190526101008301859052908401855593909352825180519495509193600985027fc65a7bb8d6351c1cf70c95a316cc6a92839c986682d98bc35f958f4883f9d2a80192612300928492910190613193565b506020828101516001830155604080840151600284015560608401516003840155608084015160048401805460ff191660ff90921691909117905560a0840151600584015560c0840151600684015560e08401516007840155610100909301516008909201919091556000838152600d82528281208054336001600160a01b031990911681179091558152601090915290812080549161239f83613962565b9190505550505050505050565b6123b4612d16565b6001600160a01b0381166124195760405162461bcd60e51b815260206004820152602660248201527f4f776e61626c653a206e6577206f776e657220697320746865207a65726f206160448201526564647265737360d01b6064820152608401610af9565b61242281612d70565b50565b600a818154811061243557600080fd5b906000526020600020906009020160009150905080600001805461245890613ab2565b80601f016020809104026020016040519081016040528092919081815260200182805461248490613ab2565b80156124d15780601f106124a6576101008083540402835291602001916124d1565b820191906000526020600020905b8154815290600101906020018083116124b457829003601f168201915b50505060018401546002850154600386015460048701546005880154600689015460078a01546008909a01549899959894975092955060ff90911693909289565b6000828152600e602052604090205482906001600160a01b0316331461253757600080fd5b601854600b848154811061254d5761254d613847565b60009182526020909120600160029092020101546125729061ffff1660ff8516613b9e565b61ffff16612580919061389f565b341461258b57600080fd5b600080546040516001600160a01b03909116913480156108fc02929091818181858888f193505050501580156125c5573d6000803e3d6000fd5b508160ff16600b84815481106125dd576125dd613847565b600091825260208220600160029092020101805490919061260390849061ffff16613bbf565b92506101000a81548161ffff021916908361ffff160217905550505050565b6000818152600d602052604090205481906001600160a01b0316331461264757600080fd5b6000805b6020548110156129cd576020818154811061266857612668613847565b906000526020600020906006020160020154600a80868154811061268e5761268e613847565b60009182526020909120600460099092020101546126af919060ff166138fc565b6126ba90600161391e565b60ff16036129bb5760019150602081815481106126d9576126d9613847565b60009182526020808320600690920290910154338352601d8252604080842091909155601e825290912085905580548290811061271857612718613847565b60009182526020822060016006909202010180549161273683613962565b91905055506020818154811061274e5761274e613847565b9060005260206000209060060201600301600001546020828154811061277657612776613847565b906000526020600020906006020160010154036129bb57600073__PDDLib________________________________63c037e545602084815481106127bc576127bc613847565b906000526020600020906006020160030160020154602085815481106127e4576127e4613847565b9060005260206000209060060201600301600001546040518363ffffffff1660e01b815260040161281f929190918252602082015260400190565b602060405180830381865af415801561283c573d6000803e3d6000fd5b505050506040513d601f19601f820116820180604052508101906128609190613bdc565b90506000602160006020858154811061287b5761287b613847565b90600052602060002090600602016000015481526020019081526020016000209050602083815481106128b0576128b0613847565b60009182526020918290206003600690920201015482558054849081106128d9576128d9613847565b600091825260208083206006928302016002908101546001860155840185905542600385015560058401929092558201805460ff1916905580547f2838ebeee7dc83fac85a3d6dbca0c0b6771591ada8b00f97371aa6611e631f9c91908590811061294657612946613847565b600091825260209182902060069091020154604080519182529181018590520160405180910390a16020838154811061298157612981613847565b6000918252602082206006909102018181556001810182905560028101829055600381018290556004810182905560050155506129cd9050565b806129c581613962565b91505061264b565b5080156129d957505050565b601f8054600091826129ea83613962565b90915550601c54909150600090612a019042613bf5565b905081601d6000336001600160a01b03166001600160a01b03168152602001908152602001600020819055506020604051806080016040528084815260200160018152602001600a808981548110612a5b57612a5b613847565b6000918252602090912060046009909202010154612a7c919060ff166138fc565b612a8790600161391e565b60ff168152602001601c8481548110612aa257612aa2613847565b60009182526020808320604080516060808201835260039586029093018054825260018082015483870152600291820154838501529190975288548082018a5598865294839020875160069099020197885586830151948801949094558584015194870194909455939092015180519285019290925591810151600484015501516005909101555050505050565b612b38612d16565b600086612b4442612dc0565b604051602001612b55929190613b5c565b6040516020818303038152906040529050600081604051602001612b799190613b82565b6040516020818303038152906040528051906020012060001c90506000612ba288886000611f1e565b90506000612bb1876000611768565b600a805460408051610120810182528e815260208082018990529181018790526060810185905260ff8b166080820152600060a0820181905260c0820181905260e08201819052610100820184905260018401855593909352825180519495509193600985027fc65a7bb8d6351c1cf70c95a316cc6a92839c986682d98bc35f958f4883f9d2a80192612c48928492910190613193565b506020828101516001830155604080840151600284015560608401516003840155608084015160048401805460ff90921660ff1990921691909117905560a0840151600584015560c0840151600684015560e084015160078401556101009093015160089092019190915560008054848252600d835283822080546001600160a01b0319166001600160a01b0392831617905581541681526010909152908120805491612cf483613962565b9091555050600090815260136020526040902094909455505050505050505050565b6000546001600160a01b0316331461129e5760405162461bcd60e51b815260206004820181905260248201527f4f776e61626c653a2063616c6c6572206973206e6f7420746865206f776e65726044820152606401610af9565b600080546001600160a01b038381166001600160a01b0319831681178455604051919092169283917f8be0079c531659141344cd1fd0a4f28419497f9722a3daafe3b4186f6b6457e09190a35050565b60606000612dcd836130bb565b600101905060008167ffffffffffffffff811115612ded57612ded61354e565b6040519080825280601f01601f191660200182016040528015612e17576020820181803683370190505b5090508181016020015b600019016f181899199a1a9b1b9c1cb0b131b232b360811b600a86061a8153600a8504945084612e2157509392505050565b600080600354600454612e669190613c09565b612e709042613bf5565b600354612e7d9190613c20565b600880549192506000919082612e9283613962565b909155506040805160608101825282815261ffff808616602080840191825260055460ff908116858701908152600b80546001810182556000918252965160029097027f0175b7a638427703f0dbe7bb9bbf987a2551717b34e79f33b5b1008d1fa01db981019790975593517f0175b7a638427703f0dbe7bb9bbf987a2551717b34e79f33b5b1008d1fa01dba90960180549151909216620100000262ffffff1990911695909416949094179290921790925533825260119052908120805492935090612f5e83613962565b90915550506000818152600e6020526040902080546001600160a01b0319163317905592915050565b600080600654600754612f9a9190613c09565b612fa49042613bf5565b600654612fb19190613c20565b600980549192506000919082612fc683613962565b909155506040805160608101825282815263ffffffff8086166020808401828152848601928352600c80546001810182556000918252955160029096027fdf6966c971051c3d54ec59162606531493a51404a002842f56009d7e5cf4a8c781019690965590517fdf6966c971051c3d54ec59162606531493a51404a002842f56009d7e5cf4a8c89095018054935185166401000000000267ffffffffffffffff199094169590941694909417919091179091553382526012905290812080549293509061309283613962565b90915550506000818152600f6020526040902080546001600160a01b0319163317905592915050565b60008072184f03e93ff9f4daa797ed6e38ed64bf6a1f0160401b83106130fa5772184f03e93ff9f4daa797ed6e38ed64bf6a1f0160401b830492506040015b6d04ee2d6d415b85acef81000000008310613126576d04ee2d6d415b85acef8100000000830492506020015b662386f26fc10000831061314457662386f26fc10000830492506010015b6305f5e100831061315c576305f5e100830492506008015b612710831061317057612710830492506004015b60648310613182576064830492506002015b600a83106118a75760010192915050565b82805461319f90613ab2565b90600052602060002090601f0160209004810192826131c15760008555613207565b82601f106131da57805160ff1916838001178555613207565b82800160010185558215613207579182015b828111156132075782518255916020019190600101906131ec565b50613213929150613217565b5090565b5b808211156132135760008155600101613218565b803560ff8116811461323d57600080fd5b919050565b6000806040838503121561325557600080fd5b823591506132656020840161322c565b90509250929050565b60006020828403121561328057600080fd5b5035919050565b602080825282518282018190526000919060409081850190868401855b828110156132e957815180516001600160a01b0316855286810151151587860152858101518686015260609081015190850152608090930192908501906001016132a4565b5091979650505050505050565b60006020828403121561330857600080fd5b81356001600160a01b03811681146118a457600080fd5b6000806040838503121561333257600080fd5b50508035926020909101359150565b602080825282518282018190526000919060409081850190868401855b828110156132e9578151805185528681015163ffffffff908116888701529086015116858501526060909301929085019060010161335e565b602080825282518282018190526000919060409081850190868401855b828110156132e9578151805185528681015161ffff168786015285015160ff1685850152606090930192908501906001016133b4565b803563ffffffff8116811461323d57600080fd5b6000806040838503121561341157600080fd5b61341a836133ea565b946020939093013593505050565b60005b8381101561344357818101518382015260200161342b565b83811115613452576000848401525b50505050565b60008151808452613470816020860160208601613428565b601f01601f19169290920160200192915050565b60006020808301818452808551808352604092508286019150828160051b87010184880160005b8381101561354057603f19898403018552815161012081518186526134d282870182613458565b9150508882015189860152878201518886015260608083015181870152506080808301516135048288018260ff169052565b505060a0828101519086015260c0808301519086015260e0808301519086015261010091820151919094015293860193908601906001016134ab565b509098975050505050505050565b634e487b7160e01b600052604160045260246000fd5b604051601f8201601f1916810167ffffffffffffffff8111828210171561358d5761358d61354e565b604052919050565b600080604083850312156135a857600080fd5b8235915060208084013567ffffffffffffffff808211156135c857600080fd5b818601915086601f8301126135dc57600080fd5b8135818111156135ee576135ee61354e565b8060051b91506135ff848301613564565b818152918301840191848101908984111561361957600080fd5b938501935b838510156136375784358252938501939085019061361e565b8096505050505050509250929050565b803561ffff8116811461323d57600080fd5b60008060006060848603121561366e57600080fd5b61367784613647565b92506136856020850161322c565b9150604084013590509250925092565b600082601f8301126136a657600080fd5b813567ffffffffffffffff8111156136c0576136c061354e565b6136d3601f8201601f1916602001613564565b8181528460208386010111156136e857600080fd5b816020850160208301376000918101602001919091529392505050565b60006020828403121561371757600080fd5b813567ffffffffffffffff81111561372e57600080fd5b61207284828501613695565b600061012080835261374e8184018d613458565b602084019b909b5250506040810197909752606087019590955260ff93909316608086015260a085019190915260c084015260e083015261010090910152919050565b60008060008060008060c087890312156137aa57600080fd5b863567ffffffffffffffff8111156137c157600080fd5b6137cd89828a01613695565b9650506137dc60208801613647565b94506137ea6040880161322c565b93506137f8606088016133ea565b92506138066080880161322c565b915060a087013590509295509295509295565b6020808252601490820152730c6d0c2e6e6d2e640dcdee840f2deeae4407c74560631b604082015260600190565b634e487b7160e01b600052603260045260246000fd5b634e487b7160e01b600052601160045260246000fd5b600063ffffffff808316818516818304811182151516156138965761389661385d565b02949350505050565b60008160001904831182151516156138b9576138b961385d565b500290565b600063ffffffff8083168185168083038211156138dd576138dd61385d565b01949350505050565b634e487b7160e01b600052601260045260246000fd5b600060ff83168061390f5761390f6138e6565b8060ff84160491505092915050565b600060ff821660ff84168060ff0382111561393b5761393b61385d565b019392505050565b600060ff821660ff81036139595761395961385d565b60010192915050565b6000600182016139745761397461385d565b5060010190565b600060ff821660ff8416808210156139955761399561385d565b90039392505050565b600181815b808511156139d95781600019048211156139bf576139bf61385d565b808516156139cc57918102915b93841c93908002906139a3565b509250929050565b6000826139f0575060016118a7565b816139fd575060006118a7565b8160018114613a135760028114613a1d57613a39565b60019150506118a7565b60ff841115613a2e57613a2e61385d565b50506001821b6118a7565b5060208310610133831016604e8410600b8410161715613a5c575081810a6118a7565b613a66838361399e565b8060001904821115613a7a57613a7a61385d565b029392505050565b600061103160ff8416836139e1565b600060ff821660ff84168160ff0481118215151615613a7a57613a7a61385d565b600181811c90821680613ac657607f821691505b602082108103613ae657634e487b7160e01b600052602260045260246000fd5b50919050565b6000604082018483526020604081850152818551808452606086019150828701935060005b81811015613b2d57845183529383019391830191600101613b11565b5090979650505050505050565b600060208284031215613b4c57600080fd5b815180151581146118a457600080fd5b60008351613b6e818460208801613428565b8351908301906138dd818360208801613428565b60008251613b94818460208701613428565b9190910192915050565b600061ffff808316818516818304811182151516156138965761389661385d565b600061ffff8083168185168083038211156138dd576138dd61385d565b600060208284031215613bee57600080fd5b5051919050565b600082613c0457613c046138e6565b500690565b600082821015613c1b57613c1b61385d565b500390565b60008219821115613c3357613c3361385d565b50019056fea264697066735822122031f4daca2d16fe1b305bab7f27ed632f69200e737aea7e327d82d16899af7b8564736f6c634300080d0033",
  "immutableReferences": {},
  "source": "// SPDX-License-Identifier: MIT\npragma solidity ^0.8.13;\n\nimport \"./PDDLib.sol\";\nimport \"./CarHelper.sol\";\nimport \"./CarFactory.sol\";\n\ncontract RaceHandler is CarHelper{\n    struct Cross{\n        uint playersNeeded;\n        uint roadsNum;\n        uint crossId;\n    }\n\n    Cross[] crosses;\n    \n    mapping(address => uint) playersToRooms;\n    mapping(address => uint) playersToCars;\n    struct OpenedRoom{\n        uint id;\n        uint playersEntered;\n        uint world;\n        Cross cross;\n    }\n    struct StartedRoom{\n        uint numberPlayers;\n        uint world;\n        uint roomDNA;\n        uint startTime;\n        Answer[] answers;\n        uint curAnswer;\n        bool closed;\n    }\n    struct Answer{\n        address player;\n        bool correct;\n        uint time;\n        uint carId;\n    }\n\n    uint roomsCount;\n\n    constructor(){\n        crosses.push(Cross(4,4,0));\n        crosses.push(Cross(3,4,0));\n        crosses.push(Cross(2,4,0));\n        crosses.push(Cross(3,3,1));\n        crosses.push(Cross(2,3,1));\n        roomsCount = 1;\n    }\n\n    event RoomFull(uint roomId, uint roomDNA);\n    event RoomClosed(uint roomId);\n\n    OpenedRoom[] public openedRooms;\n    mapping(uint => StartedRoom) public idToStartedRooms;\n\n    function findRoom(uint carId) public onlyOwnerOfCar(carId){\n        bool foundRoom = false;\n        for(uint i = 0; i<openedRooms.length; i++){\n            if(cars[carId].carLevel/10+1 != openedRooms[i].world){\n                continue;\n            }\n            foundRoom = true;\n            playersToRooms[msg.sender] = openedRooms[i].id;\n            playersToCars[msg.sender] = carId;\n            openedRooms[i].playersEntered++;\n            if(openedRooms[i].playersEntered == openedRooms[i].cross.playersNeeded){\n                uint roomDNA = PDDLib.generateRoom(openedRooms[i].cross.crossId, openedRooms[i].cross.playersNeeded);\n                \n                StartedRoom storage ss = idToStartedRooms[openedRooms[i].id];\n                ss.numberPlayers = openedRooms[i].cross.playersNeeded;\n                ss.world = openedRooms[i].world;\n                ss.roomDNA = roomDNA;\n                ss.startTime = block.timestamp;\n                ss.curAnswer = 0;\n                ss.closed = false;\n\n                emit RoomFull(openedRooms[i].id, roomDNA);\n                delete openedRooms[i];\n                break;\n            }\n        }\n\n        if(foundRoom){\n            return;\n        }\n        uint id = roomsCount++;\n        uint crossNum = block.timestamp%crosses.length;\n        playersToRooms[msg.sender] = id;\n        openedRooms.push(OpenedRoom(\n            id,\n            1,\n            cars[carId].carLevel/10+1,\n            crosses[crossNum]\n        ));\n    }\n\n    function getClosedRoom(uint roomId) public view returns(Answer[] memory){\n        require(idToStartedRooms[roomId].closed, \"room not closed\");\n        return idToStartedRooms[roomId].answers;\n    }\n\n\n\n    function commitAnswer(uint roomId, uint[] memory answer) public{\n        require(playersToRooms[msg.sender]==roomId, \"not your room\");\n\n        uint roomDNA = idToStartedRooms[roomId].roomDNA;\n        bool right = PDDLib.isCorrectAnswer(roomDNA, answer);\n        //Answer memory ans = Answer(msg.sender, right, block.timestamp);\n        \n        Answer memory ans = Answer(msg.sender, right, block.timestamp, playersToCars[msg.sender]);\n        StartedRoom storage sr = idToStartedRooms[roomId];\n        sr.answers.push(ans);\n\n        if(idToStartedRooms[roomId].answers.length == idToStartedRooms[roomId].numberPlayers){\n            emit RoomClosed(roomId);\n            idToStartedRooms[roomId].closed = true;\n            delete playersToRooms[msg.sender];\n            delete playersToCars[msg.sender];\n        }\n    }\n}\n",
  "sourcePath": "/Users/vvan/Programming/JavaScript/DriveSafely/contract/contracts/RaceHandler.sol",
  "compiler": {
    "name": "solc",
    "version": "0.8.13+commit.abaa5c0e.Emscripten.clang"
  },
  "schemaVersion": "3.4.11",
  "updatedAt": "2023-01-10T16:55:08.669Z",
  "networkType": "ethereum",
  "devdoc": {
    "kind": "dev",
    "methods": {
      "owner()": {
        "details": "Returns the address of the current owner."
      },
      "renounceOwnership()": {
        "details": "Leaves the contract without owner. It will not be possible to call `onlyOwner` functions anymore. Can only be called by the current owner. NOTE: Renouncing ownership will leave the contract without an owner, thereby removing any functionality that is only available to the owner."
      },
      "transferOwnership(address)": {
        "details": "Transfers ownership of the contract to a new account (`newOwner`). Can only be called by the current owner."
      }
    },
    "version": 1
  },
  "userdoc": {
    "kind": "user",
    "methods": {},
    "version": 1
  }
}