{
  "contractName": "RaceHandler",
  "abi": [
    {
      "inputs": [],
      "stateMutability": "nonpayable",
      "type": "constructor"
    },
    {
      "anonymous": false,
      "inputs": [
        {
          "indexed": true,
          "internalType": "address",
          "name": "previousOwner",
          "type": "address"
        },
        {
          "indexed": true,
          "internalType": "address",
          "name": "newOwner",
          "type": "address"
        }
      ],
      "name": "OwnershipTransferred",
      "type": "event"
    },
    {
      "anonymous": false,
      "inputs": [
        {
          "indexed": false,
          "internalType": "uint256",
          "name": "roomId",
          "type": "uint256"
        }
      ],
      "name": "RoomClosed",
      "type": "event"
    },
    {
      "anonymous": false,
      "inputs": [
        {
          "indexed": false,
          "internalType": "uint256",
          "name": "roomId",
          "type": "uint256"
        },
        {
          "indexed": false,
          "internalType": "uint256",
          "name": "roomDNA",
          "type": "uint256"
        }
      ],
      "name": "RoomFull",
      "type": "event"
    },
    {
      "inputs": [
        {
          "internalType": "uint256",
          "name": "",
          "type": "uint256"
        }
      ],
      "name": "carToOwner",
      "outputs": [
        {
          "internalType": "address",
          "name": "",
          "type": "address"
        }
      ],
      "stateMutability": "view",
      "type": "function"
    },
    {
      "inputs": [
        {
          "internalType": "uint256",
          "name": "",
          "type": "uint256"
        }
      ],
      "name": "carToPrice",
      "outputs": [
        {
          "internalType": "uint256",
          "name": "",
          "type": "uint256"
        }
      ],
      "stateMutability": "view",
      "type": "function"
    },
    {
      "inputs": [
        {
          "internalType": "uint256",
          "name": "",
          "type": "uint256"
        }
      ],
      "name": "cars",
      "outputs": [
        {
          "internalType": "string",
          "name": "model",
          "type": "string"
        },
        {
          "internalType": "uint256",
          "name": "vin",
          "type": "uint256"
        },
        {
          "internalType": "uint256",
          "name": "engineId",
          "type": "uint256"
        },
        {
          "internalType": "uint256",
          "name": "chassisId",
          "type": "uint256"
        },
        {
          "internalType": "uint8",
          "name": "carLevel",
          "type": "uint8"
        },
        {
          "internalType": "uint256",
          "name": "mileage",
          "type": "uint256"
        },
        {
          "internalType": "uint256",
          "name": "winCountOnCurrentLevel",
          "type": "uint256"
        },
        {
          "internalType": "uint256",
          "name": "lossCountOnCurrentLevel",
          "type": "uint256"
        },
        {
          "internalType": "uint256",
          "name": "id",
          "type": "uint256"
        }
      ],
      "stateMutability": "view",
      "type": "function"
    },
    {
      "inputs": [],
      "name": "carsForSaleCount",
      "outputs": [
        {
          "internalType": "uint256",
          "name": "",
          "type": "uint256"
        }
      ],
      "stateMutability": "view",
      "type": "function"
    },
    {
      "inputs": [
        {
          "internalType": "uint256",
          "name": "",
          "type": "uint256"
        }
      ],
      "name": "chassis",
      "outputs": [
        {
          "internalType": "uint256",
          "name": "id",
          "type": "uint256"
        },
        {
          "internalType": "uint32",
          "name": "durability",
          "type": "uint32"
        },
        {
          "internalType": "uint32",
          "name": "resource",
          "type": "uint32"
        }
      ],
      "stateMutability": "view",
      "type": "function"
    },
    {
      "inputs": [],
      "name": "chassisForSaleCount",
      "outputs": [
        {
          "internalType": "uint256",
          "name": "",
          "type": "uint256"
        }
      ],
      "stateMutability": "view",
      "type": "function"
    },
    {
      "inputs": [
        {
          "internalType": "uint256",
          "name": "",
          "type": "uint256"
        }
      ],
      "name": "chassisToOwner",
      "outputs": [
        {
          "internalType": "address",
          "name": "",
          "type": "address"
        }
      ],
      "stateMutability": "view",
      "type": "function"
    },
    {
      "inputs": [
        {
          "internalType": "uint256",
          "name": "",
          "type": "uint256"
        }
      ],
      "name": "chassisToPrice",
      "outputs": [
        {
          "internalType": "uint256",
          "name": "",
          "type": "uint256"
        }
      ],
      "stateMutability": "view",
      "type": "function"
    },
    {
      "inputs": [
        {
          "internalType": "string",
          "name": "model",
          "type": "string"
        }
      ],
      "name": "createCar",
      "outputs": [],
      "stateMutability": "nonpayable",
      "type": "function"
    },
    {
      "inputs": [
        {
          "internalType": "string",
          "name": "_model",
          "type": "string"
        },
        {
          "internalType": "uint16",
          "name": "_horsePowers",
          "type": "uint16"
        },
        {
          "internalType": "uint8",
          "name": "_consumtion",
          "type": "uint8"
        },
        {
          "internalType": "uint32",
          "name": "_durability",
          "type": "uint32"
        },
        {
          "internalType": "uint8",
          "name": "_carLevel",
          "type": "uint8"
        },
        {
          "internalType": "uint256",
          "name": "_carPrice",
          "type": "uint256"
        }
      ],
      "name": "createCustomCar",
      "outputs": [],
      "stateMutability": "nonpayable",
      "type": "function"
    },
    {
      "inputs": [
        {
          "internalType": "uint32",
          "name": "_durability",
          "type": "uint32"
        },
        {
          "internalType": "uint256",
          "name": "_chassisPrice",
          "type": "uint256"
        }
      ],
      "name": "createCustomChassis",
      "outputs": [
        {
          "internalType": "uint256",
          "name": "",
          "type": "uint256"
        }
      ],
      "stateMutability": "nonpayable",
      "type": "function"
    },
    {
      "inputs": [
        {
          "internalType": "uint16",
          "name": "_horsePowers",
          "type": "uint16"
        },
        {
          "internalType": "uint8",
          "name": "_consumtion",
          "type": "uint8"
        },
        {
          "internalType": "uint256",
          "name": "_enginePrice",
          "type": "uint256"
        }
      ],
      "name": "createCustomEngine",
      "outputs": [
        {
          "internalType": "uint256",
          "name": "",
          "type": "uint256"
        }
      ],
      "stateMutability": "nonpayable",
      "type": "function"
    },
    {
      "inputs": [],
      "name": "createFuelStation",
      "outputs": [],
      "stateMutability": "nonpayable",
      "type": "function"
    },
    {
      "inputs": [
        {
          "internalType": "uint256",
          "name": "carId",
          "type": "uint256"
        },
        {
          "internalType": "uint256",
          "name": "chassisId",
          "type": "uint256"
        }
      ],
      "name": "detachChassis",
      "outputs": [],
      "stateMutability": "nonpayable",
      "type": "function"
    },
    {
      "inputs": [
        {
          "internalType": "uint256",
          "name": "carId",
          "type": "uint256"
        },
        {
          "internalType": "uint256",
          "name": "engineId",
          "type": "uint256"
        }
      ],
      "name": "detachEngine",
      "outputs": [],
      "stateMutability": "nonpayable",
      "type": "function"
    },
    {
      "inputs": [
        {
          "internalType": "uint256",
          "name": "",
          "type": "uint256"
        }
      ],
      "name": "engineToOwner",
      "outputs": [
        {
          "internalType": "address",
          "name": "",
          "type": "address"
        }
      ],
      "stateMutability": "view",
      "type": "function"
    },
    {
      "inputs": [
        {
          "internalType": "uint256",
          "name": "",
          "type": "uint256"
        }
      ],
      "name": "engineToPrice",
      "outputs": [
        {
          "internalType": "uint256",
          "name": "",
          "type": "uint256"
        }
      ],
      "stateMutability": "view",
      "type": "function"
    },
    {
      "inputs": [
        {
          "internalType": "uint256",
          "name": "",
          "type": "uint256"
        }
      ],
      "name": "engines",
      "outputs": [
        {
          "internalType": "uint256",
          "name": "id",
          "type": "uint256"
        },
        {
          "internalType": "uint16",
          "name": "horsePowers",
          "type": "uint16"
        },
        {
          "internalType": "uint8",
          "name": "consumtion",
          "type": "uint8"
        }
      ],
      "stateMutability": "view",
      "type": "function"
    },
    {
      "inputs": [],
      "name": "enginesForSaleCount",
      "outputs": [
        {
          "internalType": "uint256",
          "name": "",
          "type": "uint256"
        }
      ],
      "stateMutability": "view",
      "type": "function"
    },
    {
      "inputs": [
        {
          "internalType": "uint256",
          "name": "",
          "type": "uint256"
        }
      ],
      "name": "fuelStationToOwner",
      "outputs": [
        {
          "internalType": "address",
          "name": "",
          "type": "address"
        }
      ],
      "stateMutability": "view",
      "type": "function"
    },
    {
      "inputs": [
        {
          "internalType": "uint256",
          "name": "_fuelStatonId",
          "type": "uint256"
        },
        {
          "internalType": "uint8",
          "name": "_counts",
          "type": "uint8"
        }
      ],
      "name": "getCapacityUpgradeCost",
      "outputs": [
        {
          "internalType": "uint256",
          "name": "",
          "type": "uint256"
        }
      ],
      "stateMutability": "view",
      "type": "function"
    },
    {
      "inputs": [
        {
          "internalType": "address",
          "name": "_owner",
          "type": "address"
        }
      ],
      "name": "getCarsByOwner",
      "outputs": [
        {
          "components": [
            {
              "internalType": "string",
              "name": "model",
              "type": "string"
            },
            {
              "internalType": "uint256",
              "name": "vin",
              "type": "uint256"
            },
            {
              "internalType": "uint256",
              "name": "engineId",
              "type": "uint256"
            },
            {
              "internalType": "uint256",
              "name": "chassisId",
              "type": "uint256"
            },
            {
              "internalType": "uint8",
              "name": "carLevel",
              "type": "uint8"
            },
            {
              "internalType": "uint256",
              "name": "mileage",
              "type": "uint256"
            },
            {
              "internalType": "uint256",
              "name": "winCountOnCurrentLevel",
              "type": "uint256"
            },
            {
              "internalType": "uint256",
              "name": "lossCountOnCurrentLevel",
              "type": "uint256"
            },
            {
              "internalType": "uint256",
              "name": "id",
              "type": "uint256"
            }
          ],
          "internalType": "struct CarFactory.Car[]",
          "name": "",
          "type": "tuple[]"
        }
      ],
      "stateMutability": "view",
      "type": "function"
    },
    {
      "inputs": [
        {
          "internalType": "address",
          "name": "_owner",
          "type": "address"
        }
      ],
      "name": "getChassisByOwner",
      "outputs": [
        {
          "components": [
            {
              "internalType": "uint256",
              "name": "id",
              "type": "uint256"
            },
            {
              "internalType": "uint32",
              "name": "durability",
              "type": "uint32"
            },
            {
              "internalType": "uint32",
              "name": "resource",
              "type": "uint32"
            }
          ],
          "internalType": "struct CarFactory.Chassis[]",
          "name": "",
          "type": "tuple[]"
        }
      ],
      "stateMutability": "view",
      "type": "function"
    },
    {
      "inputs": [
        {
          "internalType": "uint256",
          "name": "_engineId",
          "type": "uint256"
        }
      ],
      "name": "getConsumtionUpgradeCost",
      "outputs": [
        {
          "internalType": "uint256",
          "name": "",
          "type": "uint256"
        }
      ],
      "stateMutability": "view",
      "type": "function"
    },
    {
      "inputs": [
        {
          "internalType": "uint256",
          "name": "_chassisId",
          "type": "uint256"
        },
        {
          "internalType": "uint8",
          "name": "_counts",
          "type": "uint8"
        }
      ],
      "name": "getDurabilityUpgradeCost",
      "outputs": [
        {
          "internalType": "uint256",
          "name": "",
          "type": "uint256"
        }
      ],
      "stateMutability": "view",
      "type": "function"
    },
    {
      "inputs": [
        {
          "internalType": "address",
          "name": "_owner",
          "type": "address"
        }
      ],
      "name": "getEnginesByOwner",
      "outputs": [
        {
          "components": [
            {
              "internalType": "uint256",
              "name": "id",
              "type": "uint256"
            },
            {
              "internalType": "uint16",
              "name": "horsePowers",
              "type": "uint16"
            },
            {
              "internalType": "uint8",
              "name": "consumtion",
              "type": "uint8"
            }
          ],
          "internalType": "struct CarFactory.Engine[]",
          "name": "",
          "type": "tuple[]"
        }
      ],
      "stateMutability": "view",
      "type": "function"
    },
    {
      "inputs": [
        {
          "internalType": "address",
          "name": "_owner",
          "type": "address"
        }
      ],
      "name": "getFuelStationByOwner",
      "outputs": [
        {
          "components": [
            {
              "internalType": "uint256",
              "name": "id",
              "type": "uint256"
            },
            {
              "internalType": "uint8",
              "name": "capacity",
              "type": "uint8"
            },
            {
              "internalType": "uint8",
              "name": "productionPerHour",
              "type": "uint8"
            },
            {
              "internalType": "uint8",
              "name": "currentFullness",
              "type": "uint8"
            },
            {
              "internalType": "uint256",
              "name": "lastUpdate",
              "type": "uint256"
            }
          ],
          "internalType": "struct FuelStationFactory.FuelStation",
          "name": "",
          "type": "tuple"
        }
      ],
      "stateMutability": "view",
      "type": "function"
    },
    {
      "inputs": [
        {
          "internalType": "uint256",
          "name": "_engineId",
          "type": "uint256"
        },
        {
          "internalType": "uint8",
          "name": "_counts",
          "type": "uint8"
        }
      ],
      "name": "getHorsePowersUpgradeCost",
      "outputs": [
        {
          "internalType": "uint256",
          "name": "",
          "type": "uint256"
        }
      ],
      "stateMutability": "view",
      "type": "function"
    },
    {
      "inputs": [
        {
          "internalType": "uint256",
          "name": "_carId",
          "type": "uint256"
        }
      ],
      "name": "getLevelUpCost",
      "outputs": [
        {
          "internalType": "uint256",
          "name": "",
          "type": "uint256"
        }
      ],
      "stateMutability": "view",
      "type": "function"
    },
    {
      "inputs": [
        {
          "internalType": "uint256",
          "name": "_fuelStatonId",
          "type": "uint256"
        },
        {
          "internalType": "uint8",
          "name": "_counts",
          "type": "uint8"
        }
      ],
      "name": "getProductionPerHourUpgradeCost",
      "outputs": [
        {
          "internalType": "uint256",
          "name": "",
          "type": "uint256"
        }
      ],
      "stateMutability": "view",
      "type": "function"
    },
    {
      "inputs": [
        {
          "internalType": "uint256",
          "name": "",
          "type": "uint256"
        }
      ],
      "name": "idToStartedRooms",
      "outputs": [
        {
          "internalType": "uint256",
          "name": "numberPlayers",
          "type": "uint256"
        },
        {
          "internalType": "uint256",
          "name": "world",
          "type": "uint256"
        },
        {
          "internalType": "uint256",
          "name": "roomDNA",
          "type": "uint256"
        },
        {
          "internalType": "uint256",
          "name": "startTime",
          "type": "uint256"
        },
        {
          "internalType": "uint256",
          "name": "curAnswer",
          "type": "uint256"
        },
        {
          "internalType": "bool",
          "name": "closed",
          "type": "bool"
        }
      ],
      "stateMutability": "view",
      "type": "function"
    },
    {
      "inputs": [
        {
          "internalType": "uint256",
          "name": "_carId",
          "type": "uint256"
        }
      ],
      "name": "levelUp",
      "outputs": [],
      "stateMutability": "payable",
      "type": "function"
    },
    {
      "inputs": [
        {
          "internalType": "uint256",
          "name": "",
          "type": "uint256"
        }
      ],
      "name": "openedRooms",
      "outputs": [
        {
          "internalType": "uint256",
          "name": "id",
          "type": "uint256"
        },
        {
          "internalType": "uint256",
          "name": "playersEntered",
          "type": "uint256"
        },
        {
          "internalType": "uint256",
          "name": "world",
          "type": "uint256"
        },
        {
          "components": [
            {
              "internalType": "uint256",
              "name": "playersNeeded",
              "type": "uint256"
            },
            {
              "internalType": "uint256",
              "name": "crossId",
              "type": "uint256"
            }
          ],
          "internalType": "struct RaceHandler.Cross",
          "name": "cross",
          "type": "tuple"
        },
        {
          "internalType": "uint256",
          "name": "roomSeed",
          "type": "uint256"
        }
      ],
      "stateMutability": "view",
      "type": "function"
    },
    {
      "inputs": [],
      "name": "owner",
      "outputs": [
        {
          "internalType": "address",
          "name": "",
          "type": "address"
        }
      ],
      "stateMutability": "view",
      "type": "function"
    },
    {
      "inputs": [
        {
          "internalType": "address",
          "name": "",
          "type": "address"
        }
      ],
      "name": "ownerCarCount",
      "outputs": [
        {
          "internalType": "uint256",
          "name": "",
          "type": "uint256"
        }
      ],
      "stateMutability": "view",
      "type": "function"
    },
    {
      "inputs": [
        {
          "internalType": "address",
          "name": "",
          "type": "address"
        }
      ],
      "name": "ownerChassisCount",
      "outputs": [
        {
          "internalType": "uint256",
          "name": "",
          "type": "uint256"
        }
      ],
      "stateMutability": "view",
      "type": "function"
    },
    {
      "inputs": [
        {
          "internalType": "address",
          "name": "",
          "type": "address"
        }
      ],
      "name": "ownerEngineCount",
      "outputs": [
        {
          "internalType": "uint256",
          "name": "",
          "type": "uint256"
        }
      ],
      "stateMutability": "view",
      "type": "function"
    },
    {
      "inputs": [
        {
          "internalType": "address",
          "name": "",
          "type": "address"
        }
      ],
      "name": "playersToCars",
      "outputs": [
        {
          "internalType": "uint256",
          "name": "",
          "type": "uint256"
        }
      ],
      "stateMutability": "view",
      "type": "function"
    },
    {
      "inputs": [
        {
          "internalType": "address",
          "name": "",
          "type": "address"
        }
      ],
      "name": "playersToRooms",
      "outputs": [
        {
          "internalType": "uint256",
          "name": "",
          "type": "uint256"
        }
      ],
      "stateMutability": "view",
      "type": "function"
    },
    {
      "inputs": [],
      "name": "renounceOwnership",
      "outputs": [],
      "stateMutability": "nonpayable",
      "type": "function"
    },
    {
      "inputs": [
        {
          "internalType": "uint256",
          "name": "",
          "type": "uint256"
        }
      ],
      "name": "roomIdToRoomDNA",
      "outputs": [
        {
          "internalType": "uint256",
          "name": "",
          "type": "uint256"
        }
      ],
      "stateMutability": "view",
      "type": "function"
    },
    {
      "inputs": [
        {
          "internalType": "uint256",
          "name": "",
          "type": "uint256"
        }
      ],
      "name": "stations",
      "outputs": [
        {
          "internalType": "uint256",
          "name": "id",
          "type": "uint256"
        },
        {
          "internalType": "uint8",
          "name": "capacity",
          "type": "uint8"
        },
        {
          "internalType": "uint8",
          "name": "productionPerHour",
          "type": "uint8"
        },
        {
          "internalType": "uint8",
          "name": "currentFullness",
          "type": "uint8"
        },
        {
          "internalType": "uint256",
          "name": "lastUpdate",
          "type": "uint256"
        }
      ],
      "stateMutability": "view",
      "type": "function"
    },
    {
      "inputs": [
        {
          "internalType": "uint256",
          "name": "carId",
          "type": "uint256"
        },
        {
          "internalType": "uint256",
          "name": "chassisId",
          "type": "uint256"
        }
      ],
      "name": "switchChassis",
      "outputs": [],
      "stateMutability": "nonpayable",
      "type": "function"
    },
    {
      "inputs": [
        {
          "internalType": "uint256",
          "name": "carId",
          "type": "uint256"
        },
        {
          "internalType": "uint256",
          "name": "engineId",
          "type": "uint256"
        }
      ],
      "name": "switchEngine",
      "outputs": [],
      "stateMutability": "nonpayable",
      "type": "function"
    },
    {
      "inputs": [
        {
          "internalType": "address",
          "name": "newOwner",
          "type": "address"
        }
      ],
      "name": "transferOwnership",
      "outputs": [],
      "stateMutability": "nonpayable",
      "type": "function"
    },
    {
      "inputs": [
        {
          "internalType": "uint256",
          "name": "_fuelStatonId",
          "type": "uint256"
        },
        {
          "internalType": "uint8",
          "name": "_counts",
          "type": "uint8"
        }
      ],
      "name": "upgradeCapacity",
      "outputs": [],
      "stateMutability": "payable",
      "type": "function"
    },
    {
      "inputs": [
        {
          "internalType": "uint256",
          "name": "_engineId",
          "type": "uint256"
        }
      ],
      "name": "upgradeConsumtion",
      "outputs": [],
      "stateMutability": "payable",
      "type": "function"
    },
    {
      "inputs": [
        {
          "internalType": "uint256",
          "name": "_chassisId",
          "type": "uint256"
        },
        {
          "internalType": "uint8",
          "name": "_counts",
          "type": "uint8"
        }
      ],
      "name": "upgradeDurability",
      "outputs": [],
      "stateMutability": "payable",
      "type": "function"
    },
    {
      "inputs": [
        {
          "internalType": "uint256",
          "name": "_engineId",
          "type": "uint256"
        },
        {
          "internalType": "uint8",
          "name": "_counts",
          "type": "uint8"
        }
      ],
      "name": "upgradeHorsePowers",
      "outputs": [],
      "stateMutability": "payable",
      "type": "function"
    },
    {
      "inputs": [
        {
          "internalType": "uint256",
          "name": "_fuelStatonId",
          "type": "uint256"
        },
        {
          "internalType": "uint8",
          "name": "_counts",
          "type": "uint8"
        }
      ],
      "name": "upgradeProductionPerHour",
      "outputs": [],
      "stateMutability": "payable",
      "type": "function"
    },
    {
      "inputs": [
        {
          "internalType": "address",
          "name": "user",
          "type": "address"
        },
        {
          "internalType": "uint256",
          "name": "carId",
          "type": "uint256"
        }
      ],
      "name": "findRoom",
      "outputs": [],
      "stateMutability": "nonpayable",
      "type": "function"
    },
    {
      "inputs": [
        {
          "internalType": "uint256",
          "name": "roomId",
          "type": "uint256"
        }
      ],
      "name": "getClosedRoom",
      "outputs": [
        {
          "components": [
            {
              "internalType": "address",
              "name": "player",
              "type": "address"
            },
            {
              "internalType": "bool",
              "name": "correct",
              "type": "bool"
            },
            {
              "internalType": "uint256",
              "name": "time",
              "type": "uint256"
            },
            {
              "internalType": "uint256",
              "name": "carId",
              "type": "uint256"
            }
          ],
          "internalType": "struct RaceHandler.Answer[]",
          "name": "",
          "type": "tuple[]"
        }
      ],
      "stateMutability": "view",
      "type": "function"
    },
    {
      "inputs": [
        {
          "internalType": "uint256",
          "name": "roomId",
          "type": "uint256"
        },
        {
          "internalType": "uint256[]",
          "name": "answer",
          "type": "uint256[]"
        }
      ],
      "name": "commitAnswer",
      "outputs": [],
      "stateMutability": "nonpayable",
      "type": "function"
    },
    {
      "inputs": [
        {
          "internalType": "address",
          "name": "reciever",
          "type": "address"
        }
      ],
      "name": "payToWinner",
      "outputs": [],
      "stateMutability": "payable",
      "type": "function"
    }
  ],
  "bytecode": "0x6000805461ffff60a01b191661014f60a21b17815560088190556009819055600a9081556001600b819055600c556509184e72a000601981905565b5e620f48000601a55650da475abf000601b556611c37937e08000601c556305f5e100601d5566038d7ea4c68000601e556101c060405260809081526512309ce5400060a05265246139ca800060c0526548c27395000060e052659184e72a00006101005266012309ce54000061012052660246139ca800006101405266048c2739500000610160526609184e72a00000610180526612309ce54000006101a052620000ea916020919062000199565b50348015620000f857600080fd5b50620001043362000149565b6050600355605b6004556005805460ff1916600a179055620186a06006556201d4c1600755600e80546001908101909155600f8054820181556000526023556200020b565b600080546001600160a01b038381166001600160a01b0319831681178455604051919092169283917f8be0079c531659141344cd1fd0a4f28419497f9722a3daafe3b4186f6b6457e09190a35050565b828054828255906000526020600020908101928215620001e2579160200282015b82811115620001e2578251829066ffffffffffffff16905591602001919060010190620001ba565b50620001f0929150620001f4565b5090565b5b80821115620001f05760008155600101620001f5565b61420d806200021b6000396000f3fe6080604052600436106103355760003560e01c80638da5cb5b116101ab578063c34cccc4116100f7578063ede6fbf511610095578063f7746e361161006f578063f7746e3614610c89578063f85993b914610cbe578063faf4bb9814610ceb578063fb33250f14610cfe57600080fd5b8063ede6fbf514610c1c578063f2fde38b14610c3c578063f332817314610c5c57600080fd5b8063d1c54eea116100d1578063d1c54eea14610b9c578063d7086fab14610bbc578063df750c5214610bdc578063ea12693314610bfc57600080fd5b8063c34cccc414610b2f578063c75bb4f414610b4f578063c85b7fed14610b7c57600080fd5b8063aa11b68111610164578063b72c0eea1161013e578063b72c0eea14610a8e578063bf5070d314610acf578063bf9bc0b214610aef578063bfcc971614610b0f57600080fd5b8063aa11b68114610a07578063aca7413114610a34578063b3b29afd14610a6157600080fd5b80638da5cb5b1461093d5780638ff90c6b1461095b578063906f5f341461096e57806392f859db14610981578063982b691c146109d1578063a351a4a7146109e757600080fd5b806333ca504b116102855780636f206fc1116102235780637713d521116101fd5780637713d521146108a35780637fb2aa4d146108d057806385909267146108fd578063877660191461091057600080fd5b80636f206fc114610841578063715018a61461086e57806376997de01461088357600080fd5b80634e31f9101161025f5780634e31f9101461074a578063594193d7146107b55780635dcc4cc6146107eb5780636b606d9b1461082157600080fd5b806333ca504b146106995780633521c426146106e7578063449014901461071457600080fd5b80631702bf42116102f25780631c5dde0e116102cc5780631c5dde0e146104f0578063224370f01461053257806328ae4034146106665780632ca4769e1461067957600080fd5b80631702bf421461048d5780631a56afda146104a35780631c2fab78146104c357600080fd5b806303f2e05b1461033a5780630418394e1461034f578063081315ff146103d65780630a0176fc146104295780630c0cd532146104645780630ce90ec21461047a575b600080fd5b61034d610348366004613738565b610d1e565b005b34801561035b57600080fd5b506103a261036a366004613764565b602560205260009081526040902080546001820154600283015460038401546005850154600690950154939492939192909160ff1686565b6040805196875260208701959095529385019290925260608401526080830152151560a082015260c0015b60405180910390f35b3480156103e257600080fd5b506103f66103f1366004613764565b610e24565b604080519586526020808701959095528501929092528051606085015290910151608083015260a082015260c0016103cd565b34801561043557600080fd5b50610456610444366004613764565b60186020526000908152604090205481565b6040519081526020016103cd565b34801561047057600080fd5b50610456600a5481565b61034d610488366004613764565b610e7c565b34801561049957600080fd5b5061045660085481565b3480156104af57600080fd5b506104566104be366004613738565b610f82565b3480156104cf57600080fd5b506104566104de366004613794565b60216020526000908152604090205481565b3480156104fc57600080fd5b5061051061050b366004613764565b610fd4565b6040805193845263ffffffff92831660208501529116908201526060016103cd565b34801561053e57600080fd5b5061034d600180546040805160a0810182528281526000805460ff600160a01b820481166020808601828152600160a81b90940483168688019081526060870192835263ffffffff421660808801908152898b018b559986529551600389027fb10e2d527612073b26eecdfd717e6a320cf44b4afac2b0732d9fcbe2b7fa0cf681019190915593517fb10e2d527612073b26eecdfd717e6a320cf44b4afac2b0732d9fcbe2b7fa0cf785018054975193518516620100000262ff0000199486166101000261ffff19909916929095169190911796909617919091169190911790935594517fb10e2d527612073b26eecdfd717e6a320cf44b4afac2b0732d9fcbe2b7fa0cf8909501949094559183526002909152902080546001600160a01b03191633179055565b61034d610674366004613794565b611014565b34801561068557600080fd5b50610456610694366004613738565b611055565b3480156106a557600080fd5b506106cf6106b4366004613764565b6010602052600090815260409020546001600160a01b031681565b6040516001600160a01b0390911681526020016103cd565b3480156106f357600080fd5b50610707610702366004613764565b611097565b6040516103cd91906137af565b34801561072057600080fd5b506106cf61072f366004613764565b6012602052600090815260409020546001600160a01b031681565b34801561075657600080fd5b5061076a610765366004613794565b611189565b6040516103cd9190600060a0820190508251825260ff602084015116602083015260ff604084015116604083015260ff60608401511660608301526080830151608083015292915050565b3480156107c157600080fd5b506106cf6107d0366004613764565b6002602052600090815260409020546001600160a01b031681565b3480156107f757600080fd5b506106cf610806366004613764565b6011602052600090815260409020546001600160a01b031681565b34801561082d57600080fd5b5061034d61083c36600461381e565b611270565b34801561084d57600080fd5b5061086161085c366004613794565b611383565b6040516103cd9190613840565b34801561087a57600080fd5b5061034d6114d7565b34801561088f57600080fd5b5061045661089e366004613738565b6114eb565b3480156108af57600080fd5b506108c36108be366004613794565b611528565b6040516103cd9190613896565b3480156108dc57600080fd5b506104566108eb366004613794565b60146020526000908152604090205481565b61034d61090b366004613738565b611670565b34801561091c57600080fd5b5061045661092b366004613794565b60156020526000908152604090205481565b34801561094957600080fd5b506000546001600160a01b03166106cf565b61034d610969366004613764565b611755565b61034d61097c366004613738565b611847565b34801561098d57600080fd5b506109a161099c366004613764565b611908565b6040805195865260ff9485166020870152928416928501929092529091166060830152608082015260a0016103cd565b3480156109dd57600080fd5b5061045660095481565b3480156109f357600080fd5b5061034d610a023660046138e9565b611954565b348015610a1357600080fd5b50610456610a22366004613764565b60166020526000908152604090205481565b348015610a4057600080fd5b50610456610a4f366004613764565b60266020526000908152604090205481565b348015610a6d57600080fd5b50610456610a7c366004613794565b60136020526000908152604090205481565b348015610a9a57600080fd5b50610aae610aa9366004613764565b611f3a565b6040805193845261ffff909216602084015260ff16908201526060016103cd565b348015610adb57600080fd5b50610456610aea366004613738565b611f77565b348015610afb57600080fd5b50610456610b0a366004613764565b611fb4565b348015610b1b57600080fd5b50610456610b2a366004613927565b612007565b348015610b3b57600080fd5b5061034d610b4a36600461381e565b61215c565b348015610b5b57600080fd5b50610b6f610b6a366004613794565b6122d2565b6040516103cd919061399f565b348015610b8857600080fd5b5061034d610b97366004613ab0565b612510565b348015610ba857600080fd5b5061034d610bb736600461381e565b61279d565b348015610bc857600080fd5b50610456610bd7366004613b74565b6128a9565b348015610be857600080fd5b50610456610bf7366004613764565b612a18565b348015610c0857600080fd5b5061034d610c1736600461381e565b612a70565b348015610c2857600080fd5b5061034d610c37366004613c20565b612be7565b348015610c4857600080fd5b5061034d610c57366004613794565b612db5565b348015610c6857600080fd5b50610456610c77366004613794565b60226020526000908152604090205481565b348015610c9557600080fd5b50610ca9610ca4366004613764565b612e2e565b6040516103cd99989796959493929190613c55565b348015610cca57600080fd5b50610456610cd9366004613764565b60176020526000908152604090205481565b61034d610cf9366004613738565b612f1b565b348015610d0a57600080fd5b5061034d610d19366004613cac565b613012565b60008281526012602052604090205482906001600160a01b03163314610d5f5760405162461bcd60e51b8152600401610d5690613d34565b60405180910390fd5b610d698383610f82565b3414610d875760405162461bcd60e51b8152600401610d5690613d76565b600080546040516001600160a01b03909116913480156108fc02929091818181858888f19350505050158015610dc1573d6000803e3d6000fd5b508160ff16600f8481548110610dd957610dd9613d9a565b6000918252602082206001600290920201018054909190610e0190849063ffffffff16613dc6565b92506101000a81548163ffffffff021916908363ffffffff160217905550505050565b60248181548110610e3457600080fd5b60009182526020918290206006909102018054600182015460028301546040805180820190915260038501548152600485015495810195909552600590930154919450929085565b610e8581611fb4565b3414610ea35760405162461bcd60e51b8152600401610d5690613d76565b600080546040516001600160a01b03909116913480156108fc02929091818181858888f19350505050158015610edd573d6000803e3d6000fd5b50600d8181548110610ef157610ef1613d9a565b600091825260208220600460099092020101805460ff1691610f1283613dee565b91906101000a81548160ff021916908360ff160217905550506000600d8281548110610f4057610f40613d9a565b9060005260206000209060090201600601819055506000600d8281548110610f6a57610f6a613d9a565b90600052602060002090600902016007018190555050565b6000601d54600f8481548110610f9a57610f9a613d9a565b6000918252602090912060016002909202010154610fc19063ffffffff1660ff8516613e0d565b610fcb9190613e0d565b90505b92915050565b600f8181548110610fe457600080fd5b60009182526020909120600290910201805460019091015490915063ffffffff8082169164010000000090041683565b61101c61320c565b6040516001600160a01b038216903480156108fc02916000818181858888f19350505050158015611051573d6000803e3d6000fd5b5050565b6000601a546001848154811061106d5761106d613d9a565b6000918252602090912060016003909202010154610fc19060ff6101009091048116908516613e0d565b60008181526025602052604090206006015460609060ff166110ed5760405162461bcd60e51b815260206004820152600f60248201526e1c9bdbdb481b9bdd0818db1bdcd959608a1b6044820152606401610d56565b600082815260256020908152604080832060040180548251818502810185019093528083529193909284015b8282101561117e576000848152602090819020604080516080810182526003860290920180546001600160a01b0381168452600160a01b900460ff16151583850152600180820154928401929092526002015460608301529083529092019101611119565b505050509050919050565b6040805160a081018252600080825260208201819052918101829052606081018290526080810182905290805b6001548110156111fb576000818152600260205260409020546001600160a01b038086169116036111e9578091506111fb565b806111f381613e2c565b9150506111b6565b506001818154811061120f5761120f613d9a565b60009182526020918290206040805160a081018252600390930290910180548352600181015460ff80821695850195909552610100810485169284019290925262010000909104909216606082015260029091015460808201529392505050565b60008181526012602052604090205481906001600160a01b031633146112a85760405162461bcd60e51b8152600401610d5690613d34565b60008381526010602052604090205483906001600160a01b031633146112e05760405162461bcd60e51b8152600401610d5690613e45565b82600d85815481106112f4576112f4613d9a565b906000526020600020906009020160030154146113535760405162461bcd60e51b815260206004820152601860248201527f6368617373697320617265206e6f7420617474616368656400000000000000006044820152606401610d56565b6000600d858154811061136857611368613d9a565b90600052602060002090600902016003018190555050505050565b6001600160a01b0381166000908152601560205260408120546060919067ffffffffffffffff8111156113b8576113b8613a69565b60405190808252806020026020018201604052801561140357816020015b60408051606081018252600080825260208083018290529282015282526000199092019101816113d65790505b5090506000805b600f548110156114ce576000818152601260205260409020546001600160a01b038087169116036114bc57600f818154811061144857611448613d9a565b6000918252602091829020604080516060810182526002909302909101805483526001015463ffffffff8082169484019490945264010000000090049092169181019190915283518490849081106114a2576114a2613d9a565b602002602001018190525081806114b890613e2c565b9250505b806114c681613e2c565b91505061140a565b50909392505050565b6114df61320c565b6114e96000613266565b565b60006019546001848154811061150357611503613d9a565b6000918252602090912060016003909202010154610fc19060ff908116908516613e0d565b6001600160a01b0381166000908152601460205260408120546060919067ffffffffffffffff81111561155d5761155d613a69565b6040519080825280602002602001820160405280156115a857816020015b604080516060810182526000808252602080830182905292820152825260001990920191018161157b5790505b5090506000805b600e548110156114ce576000818152601160205260409020546001600160a01b0380871691160361165e57600e81815481106115ed576115ed613d9a565b600091825260209182902060408051606081018252600293909302909101805483526001015461ffff8116938301939093526201000090920460ff1691810191909152835184908490811061164457611644613d9a565b6020026020010181905250818061165a90613e2c565b9250505b8061166881613e2c565b9150506115af565b60008281526002602052604090205482906001600160a01b0316331461169557600080fd5b61169f8383611055565b34146116bd5760405162461bcd60e51b8152600401610d5690613d76565b600080546040516001600160a01b03909116913480156108fc02929091818181858888f193505050501580156116f7573d6000803e3d6000fd5b50816001848154811061170c5761170c613d9a565b906000526020600020906003020160010160018282829054906101000a900460ff166117389190613e7c565b92506101000a81548160ff021916908360ff160217905550505050565b60008181526011602052604090205481906001600160a01b0316331461178d5760405162461bcd60e51b8152600401610d5690613ea1565b61179682612a18565b34146117b45760405162461bcd60e51b8152600401610d5690613d76565b600080546040516001600160a01b03909116913480156108fc02929091818181858888f193505050501580156117ee573d6000803e3d6000fd5b50600e828154811061180257611802613d9a565b60009182526020909120600291820201600101805462010000900460ff169161182a83613ee2565b91906101000a81548160ff021916908360ff160217905550505050565b60008281526002602052604090205482906001600160a01b0316331461186c57600080fd5b61187683836114eb565b34146118945760405162461bcd60e51b8152600401610d5690613d76565b600080546040516001600160a01b03909116913480156108fc02929091818181858888f193505050501580156118ce573d6000803e3d6000fd5b5081600184815481106118e3576118e3613d9a565b600091825260208220600160039092020101805490919061173890849060ff16613e7c565b6001818154811061191857600080fd5b600091825260209091206003909102018054600182015460029092015490925060ff808316926101008104821692620100009091049091169085565b60008181526010602052604090205481906001600160a01b0316331461198c5760405162461bcd60e51b8152600401610d5690613e45565b6000805b602454811015611dbe57602481815481106119ad576119ad613d9a565b906000526020600020906006020160020154600a600d86815481106119d4576119d4613d9a565b60009182526020909120600460099092020101546119f5919060ff16613f15565b611a00906001613e7c565b60ff1603611dac576001915060248181548110611a1f57611a1f613d9a565b600091825260208083206006909202909101546001600160a01b038816835260218252604080842091909155602290915290208490556024805482908110611a6957611a69613d9a565b600091825260208220600160069092020101805491611a8783613e2c565b91905055506064600d8581548110611aa157611aa1613d9a565b906000526020600020906009020160010154611abd9190613f37565b60248281548110611ad057611ad0613d9a565b90600052602060002090600602016005016000828254611af09190613f4b565b90915550506024805482908110611b0957611b09613d9a565b90600052602060002090600602016003016000015460248281548110611b3157611b31613d9a565b90600052602060002090600602016001015403611dac57600073__PDDLib________________________________63c9827d8660248481548110611b7757611b77613d9a565b90600052602060002090600602016003016001015460248581548110611b9f57611b9f613d9a565b906000526020600020906006020160030160000154611be160248781548110611bca57611bca613d9a565b9060005260206000209060060201600501546132b6565b6040518463ffffffff1660e01b8152600401611bff93929190613f63565b602060405180830381865af4158015611c1c573d6000803e3d6000fd5b505050506040513d601f19601f82011682018060405250810190611c409190613f8b565b905060006025600060248581548110611c5b57611c5b613d9a565b9060005260206000209060060201600001548152602001908152602001600020905060248381548110611c9057611c90613d9a565b600091825260209091206003600690920201015481556024805484908110611cba57611cba613d9a565b600091825260208083206006928302016002908101546001860155840185905542600385015560058401839055908301805460ff191690558482526026905260409020829055602480547f2838ebeee7dc83fac85a3d6dbca0c0b6771591ada8b00f97371aa6611e631f9c919085908110611d3757611d37613d9a565b600091825260209182902060069091020154604080519182529181018590520160405180910390a160248381548110611d7257611d72613d9a565b600091825260208220600690910201818155600181018290556002810182905560038101829055600481018290556005015550611dbe9050565b80611db681613e2c565b915050611990565b508015611dcb5750505050565b6023805460009182611ddc83613e2c565b91905055905060006040518060400160405280600542611dfc9190613f37565b611e07906002613f4b565b8152602001611e17600242613f37565b81525090508160216000336001600160a01b03166001600160a01b031681526020019081526020016000208190555060246040518060a0016040528084815260200160018152602001600a600d8981548110611e7557611e75613d9a565b6000918252602090912060046009909202010154611e96919060ff16613f15565b611ea1906001613e7c565b60ff1681526020018381526020016064600d8981548110611ec457611ec4613d9a565b906000526020600020906009020160010154611ee09190613f37565b90528154600181810184556000938452602093849020835160069093020191825583830151908201556040820151600282015560608201518051600383015590920151600483015560800151600590910155505050505050565b600e8181548110611f4a57600080fd5b60009182526020909120600290910201805460019091015490915061ffff81169062010000900460ff1683565b6000601b54600e8481548110611f8f57611f8f613d9a565b6000918252602090912060016002909202010154610fc19061ffff1660ff8516613e0d565b6000600a600d8381548110611fcb57611fcb613d9a565b6000918252602090912060046009909202010154611fec919060ff16613f15565b611ff7906001613e7c565b60ff16601e54610fce9190613e0d565b600061201161320c565b600c80546000918261202283613e2c565b909155506040805160608101825282815263ffffffff8781166020808401828152848601928352600f80546001810182556000918252955160029096027f8d1108e10bcb7c27dddfc02ed9d693a074039d026cf4ea4240b40f7d581ac80281019690965590517f8d1108e10bcb7c27dddfc02ed9d693a074039d026cf4ea4240b40f7d581ac8039095018054935185166401000000000267ffffffffffffffff1990941695909416949094179190911790915581546001600160a01b03168252601590529081208054929350906120f883613e2c565b9091555050600080548282526012602052604090912080546001600160a01b0319166001600160a01b039092169190911790558215610fcb576000818152601860205260408120849055600980549161215083613e2c565b91905055509392505050565b60008181526011602052604090205481906001600160a01b031633146121945760405162461bcd60e51b8152600401610d5690613ea1565b60008381526010602052604090205483906001600160a01b031633146121cc5760405162461bcd60e51b8152600401610d5690613e45565b82600d85815481106121e0576121e0613d9a565b9060005260206000209060090201600201540361222d5760405162461bcd60e51b815260206004820152600b60248201526a73616d6520656e67696e6560a81b6044820152606401610d56565b6000612238336122d2565b905060005b81518110156122a1578482828151811061225957612259613d9a565b6020026020010151604001510361228f57600082828151811061227e5761227e613d9a565b602002602001015160400181815250505b8061229981613e2c565b91505061223d565b5083600d86815481106122b6576122b6613d9a565b9060005260206000209060090201600201819055505050505050565b6001600160a01b0381166000908152601360205260408120546060919067ffffffffffffffff81111561230757612307613a69565b60405190808252806020026020018201604052801561238a57816020015b61237760405180610120016040528060608152602001600081526020016000815260200160008152602001600060ff168152602001600081526020016000815260200160008152602001600081525090565b8152602001906001900390816123255790505b5090506000805b600d548110156114ce576000818152601060205260409020546001600160a01b038087169116036124fe57600d81815481106123cf576123cf613d9a565b9060005260206000209060090201604051806101200160405290816000820180546123f990613fa4565b80601f016020809104026020016040519081016040528092919081815260200182805461242590613fa4565b80156124725780601f1061244757610100808354040283529160200191612472565b820191906000526020600020905b81548152906001019060200180831161245557829003601f168201915b5050509183525050600182015460208201526002820154604082015260038201546060820152600482015460ff166080820152600582015460a0820152600682015460c0820152600782015460e08201526008909101546101009091015283518490849081106124e4576124e4613d9a565b602002602001018190525081806124fa90613e2c565b9250505b8061250881613e2c565b915050612391565b33600090815260216020526040902054821461255e5760405162461bcd60e51b815260206004820152600d60248201526c6e6f7420796f757220726f6f6d60981b6044820152606401610d56565b600082815260256020526040808220600201549051634e31f59760e11b815290919073__PDDLib________________________________90639c63eb2e906125ac9085908790600401613fde565b602060405180830381865af41580156125c9573d6000803e3d6000fd5b505050506040513d601f19601f820116820180604052508101906125ed919061402c565b604080516080810182523380825283151560208084019182524284860190815260009384526022825285842054606086019081528b855260258352958420600481018054600181810183558288529487208851600390920201805496511515600160a01b026001600160a81b03199097166001600160a01b03929092169190911795909517855591519284019290925594516002909201919091559088905280549254939450909290919003612795576040518681527f67acaceb58ff1ad2aa8b3069f69c4cd076824e06a09184b75fb197ead7040be79060200160405180910390a16000868152602560209081526040808320600601805460ff191660011790553383526021825280832083905560229091528120819055805b60008881526025602052604090205481101561278157600088815260256020526040902060040180548290811061274157612741613d9a565b6000918252602090912060039091020154600160a01b900460ff161561276f578161276b81613e2c565b9250505b8061277981613e2c565b915050612708565b50806000036127935750505050505050565b505b505050505050565b60008181526011602052604090205481906001600160a01b031633146127d55760405162461bcd60e51b8152600401610d5690613ea1565b60008381526010602052604090205483906001600160a01b0316331461280d5760405162461bcd60e51b8152600401610d5690613e45565b82600d858154811061282157612821613d9a565b906000526020600020906009020160020154146128795760405162461bcd60e51b8152602060048201526016602482015275195b99da5b99481a5cc81b9bdd08185d1d1858da195960521b6044820152606401610d56565b6000600d858154811061288e5761288e613d9a565b90600052602060002090600902016002018190555050505050565b60006128b361320c565b600b8054600091826128c483613e2c565b909155506040805160608101825282815261ffff8089166020830190815260ff808a16948401948552600e80546001810182556000918252945160029095027fbb7b4a454dc3493923482f07822329ed19e8244eff582cc204f8554c3620c3fd81019590955591517fbb7b4a454dc3493923482f07822329ed19e8244eff582cc204f8554c3620c3fe90940180549551909116620100000262ffffff1990951693909216929092179290921790915590915060149061298b6000546001600160a01b031690565b6001600160a01b03168152602081019190915260400160009081208054916129b283613e2c565b9091555050600080548282526011602052604090912080546001600160a01b0319166001600160a01b039092169190911790558215612a10576000818152601760205260408120849055600a805491612a0a83613e2c565b91905055505b949350505050565b6000601c54600e8381548110612a3057612a30613d9a565b6000918252602090912060029091020160010154612a589062010000900460ff16600a61404e565b612a669060ff166002614155565b610fce9190613e0d565b60008181526012602052604090205481906001600160a01b03163314612aa85760405162461bcd60e51b8152600401610d5690613d34565b60008381526010602052604090205483906001600160a01b03163314612ae05760405162461bcd60e51b8152600401610d5690613e45565b82600d8581548110612af457612af4613d9a565b90600052602060002090600902016003015403612b425760405162461bcd60e51b815260206004820152600c60248201526b73616d65206368617373697360a01b6044820152606401610d56565b6000612b4d336122d2565b905060005b8151811015612bb65784828281518110612b6e57612b6e613d9a565b60200260200101516060015103612ba4576000828281518110612b9357612b93613d9a565b602002602001015160600181815250505b80612bae81613e2c565b915050612b52565b5083600d8681548110612bcb57612bcb613d9a565b9060005260206000209060090201600301819055505050505050565b3360009081526013602052604090205415612c0157600080fd5b600081612c0d426132b6565b604051602001612c1e929190614161565b6040516020818303038152906040529050600081604051602001612c429190614187565b6040516020818303038152906040528051906020012060001c90506000612c67613349565b90506000612c7361347d565b600d80546040805161012081018252898152602080820189905291810187905260608101859052600160808201819052600060a0830181905260c0830181905260e083018190526101008301859052908401855593909352825180519495509193600985027fd7b6990105719101dabeb77144f2a3385c8033acd3af97e9423a695e81ad1eb50192612d09928492910190613689565b506020828101516001830155604080840151600284015560608401516003840155608084015160048401805460ff191660ff90921691909117905560a0840151600584015560c0840151600684015560e08401516007840155610100909301516008909201919091556000838152601082528281208054336001600160a01b0319909116811790915581526013909152908120805491612da883613e2c565b9190505550505050505050565b612dbd61320c565b6001600160a01b038116612e225760405162461bcd60e51b815260206004820152602660248201527f4f776e61626c653a206e6577206f776e657220697320746865207a65726f206160448201526564647265737360d01b6064820152608401610d56565b612e2b81613266565b50565b600d8181548110612e3e57600080fd5b9060005260206000209060090201600091509050806000018054612e6190613fa4565b80601f0160208091040260200160405190810160405280929190818152602001828054612e8d90613fa4565b8015612eda5780601f10612eaf57610100808354040283529160200191612eda565b820191906000526020600020905b815481529060010190602001808311612ebd57829003601f168201915b50505060018401546002850154600386015460048701546005880154600689015460078a01546008909a01549899959894975092955060ff90911693909289565b60008281526011602052604090205482906001600160a01b03163314612f535760405162461bcd60e51b8152600401610d5690613ea1565b612f5d8383611f77565b3414612f7b5760405162461bcd60e51b8152600401610d5690613d76565b600080546040516001600160a01b03909116913480156108fc02929091818181858888f19350505050158015612fb5573d6000803e3d6000fd5b508160ff16600e8481548110612fcd57612fcd613d9a565b6000918252602082206001600290920201018054909190612ff390849061ffff166141a3565b92506101000a81548161ffff021916908361ffff160217905550505050565b61301a61320c565b600086613026426132b6565b604051602001613037929190614161565b604051602081830303815290604052905060008160405160200161305b9190614187565b6040516020818303038152906040528051906020012060001c90506000613084888860006128a9565b90506000613093876000612007565b600d805460408051610120810182528e815260208082018990529181018790526060810185905260ff8b166080820152600060a0820181905260c0820181905260e08201819052610100820184905260018401855593909352825180519495509193600985027fd7b6990105719101dabeb77144f2a3385c8033acd3af97e9423a695e81ad1eb5019261312a928492910190613689565b506020828101516001830155604080840151600284015560608401516003840155608084015160048401805460ff90921660ff1990921691909117905560a0840151600584015560c0840151600684015560e0840151600784015561010090930151600890920191909155600080548482526010835283822080546001600160a01b0319166001600160a01b03928316179055815416815260139091529081208054916131d683613e2c565b9091555050600081815260166020526040812087905560088054916131fa83613e2c565b91905055505050505050505050505050565b6000546001600160a01b031633146114e95760405162461bcd60e51b815260206004820181905260248201527f4f776e61626c653a2063616c6c6572206973206e6f7420746865206f776e65726044820152606401610d56565b600080546001600160a01b038381166001600160a01b0319831681178455604051919092169283917f8be0079c531659141344cd1fd0a4f28419497f9722a3daafe3b4186f6b6457e09190a35050565b606060006132c3836135b1565b600101905060008167ffffffffffffffff8111156132e3576132e3613a69565b6040519080825280601f01601f19166020018201604052801561330d576020820181803683370190505b5090508181016020015b600019016f181899199a1a9b1b9c1cb0b131b232b360811b600a86061a8153600a850494508461331757509392505050565b60008060035460045461335c91906141c0565b6133669042613f37565b6003546133739190613f4b565b600b8054919250600091908261338883613e2c565b909155506040805160608101825282815261ffff808616602080840191825260055460ff908116858701908152600e80546001810182556000918252965160029097027fbb7b4a454dc3493923482f07822329ed19e8244eff582cc204f8554c3620c3fd81019790975593517fbb7b4a454dc3493923482f07822329ed19e8244eff582cc204f8554c3620c3fe90960180549151909216620100000262ffffff199091169590941694909417929092179092553382526014905290812080549293509061345483613e2c565b9091555050600081815260116020526040902080546001600160a01b0319163317905592915050565b60008060065460075461349091906141c0565b61349a9042613f37565b6006546134a79190613f4b565b600c805491925060009190826134bc83613e2c565b909155506040805160608101825282815263ffffffff8086166020808401828152848601928352600f80546001810182556000918252955160029096027f8d1108e10bcb7c27dddfc02ed9d693a074039d026cf4ea4240b40f7d581ac80281019690965590517f8d1108e10bcb7c27dddfc02ed9d693a074039d026cf4ea4240b40f7d581ac8039095018054935185166401000000000267ffffffffffffffff199094169590941694909417919091179091553382526015905290812080549293509061358883613e2c565b9091555050600081815260126020526040902080546001600160a01b0319163317905592915050565b60008072184f03e93ff9f4daa797ed6e38ed64bf6a1f0160401b83106135f05772184f03e93ff9f4daa797ed6e38ed64bf6a1f0160401b830492506040015b6d04ee2d6d415b85acef8100000000831061361c576d04ee2d6d415b85acef8100000000830492506020015b662386f26fc10000831061363a57662386f26fc10000830492506010015b6305f5e1008310613652576305f5e100830492506008015b612710831061366657612710830492506004015b60648310613678576064830492506002015b600a8310610fce5760010192915050565b82805461369590613fa4565b90600052602060002090601f0160209004810192826136b757600085556136fd565b82601f106136d057805160ff19168380011785556136fd565b828001600101855582156136fd579182015b828111156136fd5782518255916020019190600101906136e2565b5061370992915061370d565b5090565b5b80821115613709576000815560010161370e565b803560ff8116811461373357600080fd5b919050565b6000806040838503121561374b57600080fd5b8235915061375b60208401613722565b90509250929050565b60006020828403121561377657600080fd5b5035919050565b80356001600160a01b038116811461373357600080fd5b6000602082840312156137a657600080fd5b610fcb8261377d565b602080825282518282018190526000919060409081850190868401855b8281101561381157815180516001600160a01b0316855286810151151587860152858101518686015260609081015190850152608090930192908501906001016137cc565b5091979650505050505050565b6000806040838503121561383157600080fd5b50508035926020909101359150565b602080825282518282018190526000919060409081850190868401855b82811015613811578151805185528681015163ffffffff908116888701529086015116858501526060909301929085019060010161385d565b602080825282518282018190526000919060409081850190868401855b82811015613811578151805185528681015161ffff168786015285015160ff1685850152606090930192908501906001016138b3565b600080604083850312156138fc57600080fd5b6139058361377d565b946020939093013593505050565b803563ffffffff8116811461373357600080fd5b6000806040838503121561393a57600080fd5b61390583613913565b60005b8381101561395e578181015183820152602001613946565b8381111561396d576000848401525b50505050565b6000815180845261398b816020860160208601613943565b601f01601f19169290920160200192915050565b60006020808301818452808551808352604092508286019150828160051b87010184880160005b83811015613a5b57603f19898403018552815161012081518186526139ed82870182613973565b915050888201518986015287820151888601526060808301518187015250608080830151613a1f8288018260ff169052565b505060a0828101519086015260c0808301519086015260e0808301519086015261010091820151919094015293860193908601906001016139c6565b509098975050505050505050565b634e487b7160e01b600052604160045260246000fd5b604051601f8201601f1916810167ffffffffffffffff81118282101715613aa857613aa8613a69565b604052919050565b60008060408385031215613ac357600080fd5b8235915060208084013567ffffffffffffffff80821115613ae357600080fd5b818601915086601f830112613af757600080fd5b813581811115613b0957613b09613a69565b8060051b9150613b1a848301613a7f565b8181529183018401918481019089841115613b3457600080fd5b938501935b83851015613b5257843582529385019390850190613b39565b8096505050505050509250929050565b803561ffff8116811461373357600080fd5b600080600060608486031215613b8957600080fd5b613b9284613b62565b9250613ba060208501613722565b9150604084013590509250925092565b600082601f830112613bc157600080fd5b813567ffffffffffffffff811115613bdb57613bdb613a69565b613bee601f8201601f1916602001613a7f565b818152846020838601011115613c0357600080fd5b816020850160208301376000918101602001919091529392505050565b600060208284031215613c3257600080fd5b813567ffffffffffffffff811115613c4957600080fd5b612a1084828501613bb0565b6000610120808352613c698184018d613973565b602084019b909b5250506040810197909752606087019590955260ff93909316608086015260a085019190915260c084015260e083015261010090910152919050565b60008060008060008060c08789031215613cc557600080fd5b863567ffffffffffffffff811115613cdc57600080fd5b613ce889828a01613bb0565b965050613cf760208801613b62565b9450613d0560408801613722565b9350613d1360608801613913565b9250613d2160808801613722565b915060a087013590509295509295509295565b60208082526022908201527f796f75277265206e6f74206f776e657220666f72207468697320436861737369604082015261732160f01b606082015260800190565b6020808252600a90820152691ddc9bdb99c818dbdcdd60b21b604082015260600190565b634e487b7160e01b600052603260045260246000fd5b634e487b7160e01b600052601160045260246000fd5b600063ffffffff808316818516808303821115613de557613de5613db0565b01949350505050565b600060ff821660ff8103613e0457613e04613db0565b60010192915050565b6000816000190483118215151615613e2757613e27613db0565b500290565b600060018201613e3e57613e3e613db0565b5060010190565b6020808252601e908201527f796f75277265206e6f74206f776e657220666f72207468697320436172210000604082015260600190565b600060ff821660ff84168060ff03821115613e9957613e99613db0565b019392505050565b60208082526021908201527f796f75277265206e6f74206f776e657220666f72207468697320456e67696e656040820152602160f81b606082015260800190565b600060ff821680613ef557613ef5613db0565b6000190192915050565b634e487b7160e01b600052601260045260246000fd5b600060ff831680613f2857613f28613eff565b8060ff84160491505092915050565b600082613f4657613f46613eff565b500690565b60008219821115613f5e57613f5e613db0565b500190565b838152826020820152606060408201526000613f826060830184613973565b95945050505050565b600060208284031215613f9d57600080fd5b5051919050565b600181811c90821680613fb857607f821691505b602082108103613fd857634e487b7160e01b600052602260045260246000fd5b50919050565b6000604082018483526020604081850152818551808452606086019150828701935060005b8181101561401f57845183529383019391830191600101614003565b5090979650505050505050565b60006020828403121561403e57600080fd5b81518015158114610fcb57600080fd5b600060ff821660ff84168082101561406857614068613db0565b90039392505050565b600181815b808511156140ac57816000190482111561409257614092613db0565b8085161561409f57918102915b93841c9390800290614076565b509250929050565b6000826140c357506001610fce565b816140d057506000610fce565b81600181146140e657600281146140f05761410c565b6001915050610fce565b60ff84111561410157614101613db0565b50506001821b610fce565b5060208310610133831016604e8410600b841016171561412f575081810a610fce565b6141398383614071565b806000190482111561414d5761414d613db0565b029392505050565b6000610fcb83836140b4565b60008351614173818460208801613943565b835190830190613de5818360208801613943565b60008251614199818460208701613943565b9190910192915050565b600061ffff808316818516808303821115613de557613de5613db0565b6000828210156141d2576141d2613db0565b50039056fea2646970667358221220d69782d0783def6af29c7802c1d8a9e23a2c1b826b384891b6c3646cb02e47ca64736f6c634300080d0033",
  "immutableReferences": {},
  "source": "// SPDX-License-Identifier: MIT\npragma solidity ^0.8.13;\n\nimport \"./PDDLib.sol\";\nimport \"./CarHelper.sol\";\nimport \"./CarFactory.sol\";\nimport \"../node_modules/@openzeppelin/contracts/utils/Strings.sol\";\n\n\n/// @title An auxiliary contract that implements the interaction with the rooms and connects them with the functions of the main game mechanics\ncontract RaceHandler is CarHelper{\n    struct Cross{\n        uint playersNeeded;\n        uint crossId;\n    }\n\n    Cross[] crosses;\n\n    uint[] levelToReward = [\n        10000000000000,\n        20000000000000,\n        40000000000000,\n        80000000000000,\n        160000000000000,\n        320000000000000,\n        640000000000000,\n        1280000000000000,\n        2560000000000000,\n        5120000000000000\n    ];\n    \n    mapping(address => uint) public playersToRooms;\n    mapping(address => uint) public playersToCars;\n    struct OpenedRoom{\n        uint id;\n        uint playersEntered;\n        uint world;\n        Cross cross;\n        uint roomSeed;\n    }\n    struct StartedRoom{\n        uint numberPlayers;\n        uint world;\n        uint roomDNA;\n        uint startTime;\n        Answer[] answers;\n        uint curAnswer;\n        bool closed;\n    }\n    struct Answer{\n        address player;\n        bool correct;\n        uint time;\n        uint carId;\n    }\n\n    uint roomsCount;\n\n    constructor(){\n        // crosses.push(Cross(4,4,0));\n        // crosses.push(Cross(3,4,0));\n        // crosses.push(Cross(2,4,0));\n        // crosses.push(Cross(3,3,1));\n        // crosses.push(Cross(2,3,1));\n        roomsCount = 1;\n    }\n\n    event RoomFull(uint roomId, uint roomDNA);\n    event RoomClosed(uint roomId);\n\n    OpenedRoom[] public openedRooms;\n    mapping(uint => StartedRoom) public idToStartedRooms;\n    mapping(uint => uint) public roomIdToRoomDNA;\n\n\n    /// search room for competition\n    /// @param carId car id\n    /// @dev if exist appropriate room for current user, user start competition in this room, else add new room\n    function findRoom(address user, uint carId) public onlyOwnerOfCar(carId){\n        bool foundRoom = false;\n        for(uint i = 0; i<openedRooms.length; i++){\n            if(cars[carId].carLevel/10+1 != openedRooms[i].world){\n                continue;\n            }\n            foundRoom = true;\n            playersToRooms[user] = openedRooms[i].id;\n            playersToCars[user] = carId;\n            openedRooms[i].playersEntered++;\n            openedRooms[i].roomSeed += cars[carId].vin%100;\n            if(openedRooms[i].playersEntered == openedRooms[i].cross.playersNeeded){\n                uint roomDNA = PDDLib.generateRoom(\n                    openedRooms[i].cross.crossId,\n                    openedRooms[i].cross.playersNeeded,\n                    Strings.toString(openedRooms[i].roomSeed));\n                \n                StartedRoom storage ss = idToStartedRooms[openedRooms[i].id];\n                ss.numberPlayers = openedRooms[i].cross.playersNeeded;\n                ss.world = openedRooms[i].world;\n                ss.roomDNA = roomDNA;\n                ss.startTime = block.timestamp;\n                ss.curAnswer = 0;\n                ss.closed = false;\n                roomIdToRoomDNA[i] = roomDNA;\n\n                emit RoomFull(openedRooms[i].id, roomDNA);\n                delete openedRooms[i];\n                break;\n            }\n        }\n\n        if(foundRoom){\n            return;\n        }\n        uint id = roomsCount++;\n        Cross memory cr = Cross(\n            block.timestamp%5 + 2,\n            block.timestamp%2\n        );\n        playersToRooms[msg.sender] = id;\n        openedRooms.push(OpenedRoom(\n            id,\n            1,\n            cars[carId].carLevel/10+1,\n            cr,\n            cars[carId].vin%100\n        ));\n    }\n\n    /// get closed room\n    /// @param roomId room id\n    /// @return Answer[] memory list with player response, player, player car and response time\n    /// @dev called after receiving the event about sending the last response to the room\n    function getClosedRoom(uint roomId) public view returns(Answer[] memory){\n        require(idToStartedRooms[roomId].closed, \"room not closed\");\n        return idToStartedRooms[roomId].answers;\n    }\n\n\n\n\n    /// commit ans\n    /// @param roomId room id\n    /// @param answer ?\n    function commitAnswer(uint roomId, uint[] memory answer) public{\n        require(playersToRooms[msg.sender]==roomId, \"not your room\");\n\n        uint roomDNA = idToStartedRooms[roomId].roomDNA;\n        bool right = PDDLib.isCorrectAnswer(roomDNA, answer);\n        //Answer memory ans = Answer(msg.sender, right, block.timestamp);\n        \n        Answer memory ans = Answer(msg.sender, right, block.timestamp, playersToCars[msg.sender]);\n        StartedRoom storage sr = idToStartedRooms[roomId];\n        sr.answers.push(ans);\n\n        if(idToStartedRooms[roomId].answers.length == idToStartedRooms[roomId].numberPlayers){\n            emit RoomClosed(roomId);\n            idToStartedRooms[roomId].closed = true;\n            delete playersToRooms[msg.sender];\n            delete playersToCars[msg.sender];\n\n            //\n            uint numCorrectAnswers = 0;\n            for(uint i = 0; i<idToStartedRooms[roomId].numberPlayers; i++){\n                if(idToStartedRooms[roomId].answers[i].correct){\n                    numCorrectAnswers++;\n                }\n            }\n            if(numCorrectAnswers==0){\n                return;\n            }\n            if(numCorrectAnswers==1){\n                // payToWinner{value:levelToReward[idToStartedRooms[roomId].world]}(idToStartedRooms[roomId].answers[0].player);\n            }\n            if(numCorrectAnswers==2){\n                // payToWinner(idToStartedRooms[roomId].answers[0].player);\n            }\n        }\n    }\n\n    function payToWinner(address reciever) public payable onlyOwner {\n        payable(reciever).transfer(msg.value);\n    }\n}\n",
  "sourcePath": "/Users/vvan/Programming/JavaScript/DriveSafely/contract/contracts/RaceHandler.sol",
  "compiler": {
    "name": "solc",
    "version": "0.8.13+commit.abaa5c0e.Emscripten.clang"
  },
  "schemaVersion": "3.4.11",
  "updatedAt": "2023-01-12T23:42:32.645Z",
  "networkType": "ethereum",
  "devdoc": {
    "kind": "dev",
    "methods": {
      "commitAnswer(uint256,uint256[])": {
        "params": {
          "answer": "?",
          "roomId": "room id"
        }
      },
      "createCar(string)": {
        "details": "creating new car for user",
        "params": {
          "model": "car model"
        }
      },
      "createCustomCar(string,uint16,uint8,uint32,uint8,uint256)": {
        "details": "creation car for customer with different characteristics",
        "params": {
          "_carLevel": "car level",
          "_carPrice": "car price",
          "_consumtion": "car consumtion",
          "_durability": "car durability",
          "_horsePowers": "car horse powers",
          "_model": "car model"
        }
      },
      "createCustomChassis(uint32,uint256)": {
        "params": {
          "_chassisPrice": "chassis price",
          "_durability": "car durability"
        },
        "returns": {
          "_0": "id new chassis"
        }
      },
      "createCustomEngine(uint16,uint8,uint256)": {
        "params": {
          "_consumtion": "car consumtion",
          "_enginePrice": "car engine price",
          "_horsePowers": "car horse powers"
        },
        "returns": {
          "_0": "id new engine"
        }
      },
      "detachChassis(uint256,uint256)": {
        "details": "for installation new chassis",
        "params": {
          "carId": "car id",
          "chassisId": "chassis id"
        }
      },
      "detachEngine(uint256,uint256)": {
        "details": "for installation new engine",
        "params": {
          "carId": "car id",
          "engineId": "engine id"
        }
      },
      "findRoom(address,uint256)": {
        "details": "if exist appropriate room for current user, user start competition in this room, else add new room",
        "params": {
          "carId": "car id"
        }
      },
      "getCapacityUpgradeCost(uint256,uint8)": {
        "params": {
          "_counts": "size",
          "_fuelStatonId": "fuel station id"
        },
        "returns": {
          "_0": "uint new capacity"
        }
      },
      "getCarsByOwner(address)": {
        "params": {
          "_owner": "owner's address"
        },
        "returns": {
          "_0": "Car[] memory owner's list of cars"
        }
      },
      "getChassisByOwner(address)": {
        "params": {
          "_owner": "owner's address"
        },
        "returns": {
          "_0": "Chassis[] memory owner's list of chassis"
        }
      },
      "getClosedRoom(uint256)": {
        "details": "called after receiving the event about sending the last response to the room",
        "params": {
          "roomId": "room id"
        },
        "returns": {
          "_0": "Answer[] memory list with player response, player, player car and response time"
        }
      },
      "getEnginesByOwner(address)": {
        "params": {
          "_owner": "owner's address"
        },
        "returns": {
          "_0": "Engine[] memory owner's list of engines"
        }
      },
      "getFuelStationByOwner(address)": {
        "details": "exist only one",
        "params": {
          "_owner": "owner's address"
        },
        "returns": {
          "_0": "FuelStation memory one owner fuel station"
        }
      },
      "levelUp(uint256)": {
        "params": {
          "_carId": "car id"
        }
      },
      "owner()": {
        "details": "Returns the address of the current owner."
      },
      "renounceOwnership()": {
        "details": "Leaves the contract without owner. It will not be possible to call `onlyOwner` functions anymore. Can only be called by the current owner. NOTE: Renouncing ownership will leave the contract without an owner, thereby removing any functionality that is only available to the owner."
      },
      "switchChassis(uint256,uint256)": {
        "params": {
          "carId": "car id",
          "chassisId": "chassis id"
        }
      },
      "switchEngine(uint256,uint256)": {
        "params": {
          "carId": "car id",
          "engineId": "engine id"
        }
      },
      "transferOwnership(address)": {
        "details": "Transfers ownership of the contract to a new account (`newOwner`). Can only be called by the current owner."
      },
      "upgradeCapacity(uint256,uint8)": {
        "params": {
          "_counts": "size",
          "_fuelStatonId": "fuel station id"
        }
      },
      "upgradeConsumtion(uint256)": {
        "params": {
          "_engineId": "engine id"
        }
      },
      "upgradeDurability(uint256,uint8)": {
        "params": {
          "_chassisId": "chassis id",
          "_counts": "size"
        }
      },
      "upgradeHorsePowers(uint256,uint8)": {
        "params": {
          "_counts": "size",
          "_engineId": "engine id"
        }
      },
      "upgradeProductionPerHour(uint256,uint8)": {
        "params": {
          "_counts": "size",
          "_fuelStatonId": "fuel station id"
        }
      }
    },
    "title": "An auxiliary contract that implements the interaction with the rooms and connects them with the functions of the main game mechanics",
    "version": 1
  },
  "userdoc": {
    "kind": "user",
    "methods": {
      "commitAnswer(uint256,uint256[])": {
        "notice": "commit ans"
      },
      "createCar(string)": {
        "notice": "creating car"
      },
      "createCustomCar(string,uint16,uint8,uint32,uint8,uint256)": {
        "notice": "customer car creation    (    )"
      },
      "createCustomChassis(uint32,uint256)": {
        "notice": "customer chassis creation"
      },
      "createCustomEngine(uint16,uint8,uint256)": {
        "notice": "customer engine creation"
      },
      "detachChassis(uint256,uint256)": {
        "notice": "removal of the old chassis"
      },
      "detachEngine(uint256,uint256)": {
        "notice": "removal of the old engine"
      },
      "findRoom(address,uint256)": {
        "notice": "search room for competition"
      },
      "getCapacityUpgradeCost(uint256,uint8)": {
        "notice": "upgrade capacity"
      },
      "getCarsByOwner(address)": {
        "notice": "list of owner cars"
      },
      "getChassisByOwner(address)": {
        "notice": "list of owner chassis"
      },
      "getClosedRoom(uint256)": {
        "notice": "get closed room"
      },
      "getEnginesByOwner(address)": {
        "notice": "list of owner engines"
      },
      "getFuelStationByOwner(address)": {
        "notice": "fuel station of owner"
      },
      "levelUp(uint256)": {
        "notice": "upgrade car level"
      },
      "switchChassis(uint256,uint256)": {
        "notice": "changing chassis in owner's car"
      },
      "switchEngine(uint256,uint256)": {
        "notice": "changing engine in owner's car"
      },
      "upgradeCapacity(uint256,uint8)": {
        "notice": "upgrade capacity of fuel station"
      },
      "upgradeConsumtion(uint256)": {
        "notice": "upgrade consumption"
      },
      "upgradeDurability(uint256,uint8)": {
        "notice": "upgrade durability"
      },
      "upgradeHorsePowers(uint256,uint8)": {
        "notice": "upgrade horse powers"
      },
      "upgradeProductionPerHour(uint256,uint8)": {
        "notice": "upgrade production on per hour"
      }
    },
    "version": 1
  }
}