{
  "contractName": "TokenOwnership",
  "abi": [
    {
      "anonymous": false,
      "inputs": [
        {
          "indexed": true,
          "internalType": "address",
          "name": "previousOwner",
          "type": "address"
        },
        {
          "indexed": true,
          "internalType": "address",
          "name": "newOwner",
          "type": "address"
        }
      ],
      "name": "OwnershipTransferred",
      "type": "event"
    },
    {
      "anonymous": false,
      "inputs": [
        {
          "indexed": false,
          "internalType": "uint256",
          "name": "roomId",
          "type": "uint256"
        }
      ],
      "name": "RoomClosed",
      "type": "event"
    },
    {
      "anonymous": false,
      "inputs": [
        {
          "indexed": false,
          "internalType": "uint256",
          "name": "roomId",
          "type": "uint256"
        },
        {
          "indexed": false,
          "internalType": "uint256",
          "name": "roomDNA",
          "type": "uint256"
        }
      ],
      "name": "RoomFull",
      "type": "event"
    },
    {
      "inputs": [
        {
          "internalType": "uint256",
          "name": "",
          "type": "uint256"
        }
      ],
      "name": "carToOwner",
      "outputs": [
        {
          "internalType": "address",
          "name": "",
          "type": "address"
        }
      ],
      "stateMutability": "view",
      "type": "function",
      "constant": true
    },
    {
      "inputs": [
        {
          "internalType": "uint256",
          "name": "",
          "type": "uint256"
        }
      ],
      "name": "carToPrice",
      "outputs": [
        {
          "internalType": "uint256",
          "name": "",
          "type": "uint256"
        }
      ],
      "stateMutability": "view",
      "type": "function",
      "constant": true
    },
    {
      "inputs": [
        {
          "internalType": "uint256",
          "name": "",
          "type": "uint256"
        }
      ],
      "name": "cars",
      "outputs": [
        {
          "internalType": "string",
          "name": "model",
          "type": "string"
        },
        {
          "internalType": "uint256",
          "name": "vin",
          "type": "uint256"
        },
        {
          "internalType": "uint256",
          "name": "engineId",
          "type": "uint256"
        },
        {
          "internalType": "uint256",
          "name": "chassisId",
          "type": "uint256"
        },
        {
          "internalType": "uint8",
          "name": "carLevel",
          "type": "uint8"
        },
        {
          "internalType": "uint256",
          "name": "mileage",
          "type": "uint256"
        },
        {
          "internalType": "uint256",
          "name": "winCountOnCurrentLevel",
          "type": "uint256"
        },
        {
          "internalType": "uint256",
          "name": "lossCountOnCurrentLevel",
          "type": "uint256"
        },
        {
          "internalType": "uint256",
          "name": "id",
          "type": "uint256"
        }
      ],
      "stateMutability": "view",
      "type": "function",
      "constant": true
    },
    {
      "inputs": [],
      "name": "carsForSaleCount",
      "outputs": [
        {
          "internalType": "uint256",
          "name": "",
          "type": "uint256"
        }
      ],
      "stateMutability": "view",
      "type": "function",
      "constant": true
    },
    {
      "inputs": [
        {
          "internalType": "uint256",
          "name": "",
          "type": "uint256"
        }
      ],
      "name": "chassis",
      "outputs": [
        {
          "internalType": "uint256",
          "name": "id",
          "type": "uint256"
        },
        {
          "internalType": "uint32",
          "name": "durability",
          "type": "uint32"
        },
        {
          "internalType": "uint32",
          "name": "resource",
          "type": "uint32"
        }
      ],
      "stateMutability": "view",
      "type": "function",
      "constant": true
    },
    {
      "inputs": [],
      "name": "chassisForSaleCount",
      "outputs": [
        {
          "internalType": "uint256",
          "name": "",
          "type": "uint256"
        }
      ],
      "stateMutability": "view",
      "type": "function",
      "constant": true
    },
    {
      "inputs": [
        {
          "internalType": "uint256",
          "name": "",
          "type": "uint256"
        }
      ],
      "name": "chassisToOwner",
      "outputs": [
        {
          "internalType": "address",
          "name": "",
          "type": "address"
        }
      ],
      "stateMutability": "view",
      "type": "function",
      "constant": true
    },
    {
      "inputs": [
        {
          "internalType": "uint256",
          "name": "",
          "type": "uint256"
        }
      ],
      "name": "chassisToPrice",
      "outputs": [
        {
          "internalType": "uint256",
          "name": "",
          "type": "uint256"
        }
      ],
      "stateMutability": "view",
      "type": "function",
      "constant": true
    },
    {
      "inputs": [
        {
          "internalType": "uint256",
          "name": "roomId",
          "type": "uint256"
        },
        {
          "internalType": "uint256[]",
          "name": "answer",
          "type": "uint256[]"
        }
      ],
      "name": "commitAnswer",
      "outputs": [],
      "stateMutability": "nonpayable",
      "type": "function"
    },
    {
      "inputs": [
        {
          "internalType": "string",
          "name": "model",
          "type": "string"
        }
      ],
      "name": "createCar",
      "outputs": [],
      "stateMutability": "nonpayable",
      "type": "function"
    },
    {
      "inputs": [
        {
          "internalType": "string",
          "name": "_model",
          "type": "string"
        },
        {
          "internalType": "uint16",
          "name": "_horsePowers",
          "type": "uint16"
        },
        {
          "internalType": "uint8",
          "name": "_consumtion",
          "type": "uint8"
        },
        {
          "internalType": "uint32",
          "name": "_durability",
          "type": "uint32"
        },
        {
          "internalType": "uint8",
          "name": "_carLevel",
          "type": "uint8"
        },
        {
          "internalType": "uint256",
          "name": "_carPrice",
          "type": "uint256"
        }
      ],
      "name": "createCustomCar",
      "outputs": [],
      "stateMutability": "nonpayable",
      "type": "function"
    },
    {
      "inputs": [
        {
          "internalType": "uint32",
          "name": "_durability",
          "type": "uint32"
        },
        {
          "internalType": "uint256",
          "name": "_chassisPrice",
          "type": "uint256"
        }
      ],
      "name": "createCustomChassis",
      "outputs": [
        {
          "internalType": "uint256",
          "name": "",
          "type": "uint256"
        }
      ],
      "stateMutability": "nonpayable",
      "type": "function"
    },
    {
      "inputs": [
        {
          "internalType": "uint16",
          "name": "_horsePowers",
          "type": "uint16"
        },
        {
          "internalType": "uint8",
          "name": "_consumtion",
          "type": "uint8"
        },
        {
          "internalType": "uint256",
          "name": "_enginePrice",
          "type": "uint256"
        }
      ],
      "name": "createCustomEngine",
      "outputs": [
        {
          "internalType": "uint256",
          "name": "",
          "type": "uint256"
        }
      ],
      "stateMutability": "nonpayable",
      "type": "function"
    },
    {
      "inputs": [],
      "name": "createFuelStation",
      "outputs": [],
      "stateMutability": "nonpayable",
      "type": "function"
    },
    {
      "inputs": [
        {
          "internalType": "uint256",
          "name": "carId",
          "type": "uint256"
        },
        {
          "internalType": "uint256",
          "name": "chassisId",
          "type": "uint256"
        }
      ],
      "name": "detachChassis",
      "outputs": [],
      "stateMutability": "nonpayable",
      "type": "function"
    },
    {
      "inputs": [
        {
          "internalType": "uint256",
          "name": "carId",
          "type": "uint256"
        },
        {
          "internalType": "uint256",
          "name": "engineId",
          "type": "uint256"
        }
      ],
      "name": "detachEngine",
      "outputs": [],
      "stateMutability": "nonpayable",
      "type": "function"
    },
    {
      "inputs": [
        {
          "internalType": "uint256",
          "name": "",
          "type": "uint256"
        }
      ],
      "name": "engineToOwner",
      "outputs": [
        {
          "internalType": "address",
          "name": "",
          "type": "address"
        }
      ],
      "stateMutability": "view",
      "type": "function",
      "constant": true
    },
    {
      "inputs": [
        {
          "internalType": "uint256",
          "name": "",
          "type": "uint256"
        }
      ],
      "name": "engineToPrice",
      "outputs": [
        {
          "internalType": "uint256",
          "name": "",
          "type": "uint256"
        }
      ],
      "stateMutability": "view",
      "type": "function",
      "constant": true
    },
    {
      "inputs": [
        {
          "internalType": "uint256",
          "name": "",
          "type": "uint256"
        }
      ],
      "name": "engines",
      "outputs": [
        {
          "internalType": "uint256",
          "name": "id",
          "type": "uint256"
        },
        {
          "internalType": "uint16",
          "name": "horsePowers",
          "type": "uint16"
        },
        {
          "internalType": "uint8",
          "name": "consumtion",
          "type": "uint8"
        }
      ],
      "stateMutability": "view",
      "type": "function",
      "constant": true
    },
    {
      "inputs": [],
      "name": "enginesForSaleCount",
      "outputs": [
        {
          "internalType": "uint256",
          "name": "",
          "type": "uint256"
        }
      ],
      "stateMutability": "view",
      "type": "function",
      "constant": true
    },
    {
      "inputs": [
        {
          "internalType": "uint256",
          "name": "carId",
          "type": "uint256"
        }
      ],
      "name": "findRoom",
      "outputs": [],
      "stateMutability": "nonpayable",
      "type": "function"
    },
    {
      "inputs": [
        {
          "internalType": "uint256",
          "name": "",
          "type": "uint256"
        }
      ],
      "name": "fuelStationToOwner",
      "outputs": [
        {
          "internalType": "address",
          "name": "",
          "type": "address"
        }
      ],
      "stateMutability": "view",
      "type": "function",
      "constant": true
    },
    {
      "inputs": [
        {
          "internalType": "uint256",
          "name": "_fuelStatonId",
          "type": "uint256"
        },
        {
          "internalType": "uint8",
          "name": "_counts",
          "type": "uint8"
        }
      ],
      "name": "getCapacityUpgradeCost",
      "outputs": [
        {
          "internalType": "uint256",
          "name": "",
          "type": "uint256"
        }
      ],
      "stateMutability": "view",
      "type": "function",
      "constant": true
    },
    {
      "inputs": [
        {
          "internalType": "address",
          "name": "_owner",
          "type": "address"
        }
      ],
      "name": "getCarsByOwner",
      "outputs": [
        {
          "components": [
            {
              "internalType": "string",
              "name": "model",
              "type": "string"
            },
            {
              "internalType": "uint256",
              "name": "vin",
              "type": "uint256"
            },
            {
              "internalType": "uint256",
              "name": "engineId",
              "type": "uint256"
            },
            {
              "internalType": "uint256",
              "name": "chassisId",
              "type": "uint256"
            },
            {
              "internalType": "uint8",
              "name": "carLevel",
              "type": "uint8"
            },
            {
              "internalType": "uint256",
              "name": "mileage",
              "type": "uint256"
            },
            {
              "internalType": "uint256",
              "name": "winCountOnCurrentLevel",
              "type": "uint256"
            },
            {
              "internalType": "uint256",
              "name": "lossCountOnCurrentLevel",
              "type": "uint256"
            },
            {
              "internalType": "uint256",
              "name": "id",
              "type": "uint256"
            }
          ],
          "internalType": "struct CarFactory.Car[]",
          "name": "",
          "type": "tuple[]"
        }
      ],
      "stateMutability": "view",
      "type": "function",
      "constant": true
    },
    {
      "inputs": [
        {
          "internalType": "address",
          "name": "_owner",
          "type": "address"
        }
      ],
      "name": "getChassisByOwner",
      "outputs": [
        {
          "components": [
            {
              "internalType": "uint256",
              "name": "id",
              "type": "uint256"
            },
            {
              "internalType": "uint32",
              "name": "durability",
              "type": "uint32"
            },
            {
              "internalType": "uint32",
              "name": "resource",
              "type": "uint32"
            }
          ],
          "internalType": "struct CarFactory.Chassis[]",
          "name": "",
          "type": "tuple[]"
        }
      ],
      "stateMutability": "view",
      "type": "function",
      "constant": true
    },
    {
      "inputs": [
        {
          "internalType": "uint256",
          "name": "roomId",
          "type": "uint256"
        }
      ],
      "name": "getClosedRoom",
      "outputs": [
        {
          "components": [
            {
              "internalType": "address",
              "name": "player",
              "type": "address"
            },
            {
              "internalType": "bool",
              "name": "correct",
              "type": "bool"
            },
            {
              "internalType": "uint256",
              "name": "time",
              "type": "uint256"
            },
            {
              "internalType": "uint256",
              "name": "carId",
              "type": "uint256"
            }
          ],
          "internalType": "struct RaceHandler.Answer[]",
          "name": "",
          "type": "tuple[]"
        }
      ],
      "stateMutability": "view",
      "type": "function",
      "constant": true
    },
    {
      "inputs": [
        {
          "internalType": "uint256",
          "name": "_engineId",
          "type": "uint256"
        }
      ],
      "name": "getConsumtionUpgradeCost",
      "outputs": [
        {
          "internalType": "uint256",
          "name": "",
          "type": "uint256"
        }
      ],
      "stateMutability": "view",
      "type": "function",
      "constant": true
    },
    {
      "inputs": [
        {
          "internalType": "uint256",
          "name": "_chassisId",
          "type": "uint256"
        },
        {
          "internalType": "uint8",
          "name": "_counts",
          "type": "uint8"
        }
      ],
      "name": "getDurabilityUpgradeCost",
      "outputs": [
        {
          "internalType": "uint256",
          "name": "",
          "type": "uint256"
        }
      ],
      "stateMutability": "view",
      "type": "function",
      "constant": true
    },
    {
      "inputs": [
        {
          "internalType": "address",
          "name": "_owner",
          "type": "address"
        }
      ],
      "name": "getEnginesByOwner",
      "outputs": [
        {
          "components": [
            {
              "internalType": "uint256",
              "name": "id",
              "type": "uint256"
            },
            {
              "internalType": "uint16",
              "name": "horsePowers",
              "type": "uint16"
            },
            {
              "internalType": "uint8",
              "name": "consumtion",
              "type": "uint8"
            }
          ],
          "internalType": "struct CarFactory.Engine[]",
          "name": "",
          "type": "tuple[]"
        }
      ],
      "stateMutability": "view",
      "type": "function",
      "constant": true
    },
    {
      "inputs": [
        {
          "internalType": "address",
          "name": "_owner",
          "type": "address"
        }
      ],
      "name": "getFuelStationByOwner",
      "outputs": [
        {
          "components": [
            {
              "internalType": "uint256",
              "name": "id",
              "type": "uint256"
            },
            {
              "internalType": "uint8",
              "name": "capacity",
              "type": "uint8"
            },
            {
              "internalType": "uint8",
              "name": "productionPerHour",
              "type": "uint8"
            },
            {
              "internalType": "uint8",
              "name": "currentFullness",
              "type": "uint8"
            },
            {
              "internalType": "uint256",
              "name": "lastUpdate",
              "type": "uint256"
            }
          ],
          "internalType": "struct FuelStationFactory.FuelStation",
          "name": "",
          "type": "tuple"
        }
      ],
      "stateMutability": "view",
      "type": "function",
      "constant": true
    },
    {
      "inputs": [
        {
          "internalType": "uint256",
          "name": "_engineId",
          "type": "uint256"
        },
        {
          "internalType": "uint8",
          "name": "_counts",
          "type": "uint8"
        }
      ],
      "name": "getHorsePowersUpgradeCost",
      "outputs": [
        {
          "internalType": "uint256",
          "name": "",
          "type": "uint256"
        }
      ],
      "stateMutability": "view",
      "type": "function",
      "constant": true
    },
    {
      "inputs": [
        {
          "internalType": "uint256",
          "name": "_carId",
          "type": "uint256"
        }
      ],
      "name": "getLevelUpCost",
      "outputs": [
        {
          "internalType": "uint256",
          "name": "",
          "type": "uint256"
        }
      ],
      "stateMutability": "view",
      "type": "function",
      "constant": true
    },
    {
      "inputs": [
        {
          "internalType": "uint256",
          "name": "_fuelStatonId",
          "type": "uint256"
        },
        {
          "internalType": "uint8",
          "name": "_counts",
          "type": "uint8"
        }
      ],
      "name": "getProductionPerHourUpgradeCost",
      "outputs": [
        {
          "internalType": "uint256",
          "name": "",
          "type": "uint256"
        }
      ],
      "stateMutability": "view",
      "type": "function",
      "constant": true
    },
    {
      "inputs": [
        {
          "internalType": "uint256",
          "name": "",
          "type": "uint256"
        }
      ],
      "name": "idToStartedRooms",
      "outputs": [
        {
          "internalType": "uint256",
          "name": "numberPlayers",
          "type": "uint256"
        },
        {
          "internalType": "uint256",
          "name": "world",
          "type": "uint256"
        },
        {
          "internalType": "uint256",
          "name": "roomDNA",
          "type": "uint256"
        },
        {
          "internalType": "uint256",
          "name": "startTime",
          "type": "uint256"
        },
        {
          "internalType": "uint256",
          "name": "curAnswer",
          "type": "uint256"
        },
        {
          "internalType": "bool",
          "name": "closed",
          "type": "bool"
        }
      ],
      "stateMutability": "view",
      "type": "function",
      "constant": true
    },
    {
      "inputs": [
        {
          "internalType": "uint256",
          "name": "_carId",
          "type": "uint256"
        }
      ],
      "name": "levelUp",
      "outputs": [],
      "stateMutability": "payable",
      "type": "function",
      "payable": true
    },
    {
      "inputs": [
        {
          "internalType": "uint256",
          "name": "",
          "type": "uint256"
        }
      ],
      "name": "openedRooms",
      "outputs": [
        {
          "internalType": "uint256",
          "name": "id",
          "type": "uint256"
        },
        {
          "internalType": "uint256",
          "name": "playersEntered",
          "type": "uint256"
        },
        {
          "internalType": "uint256",
          "name": "world",
          "type": "uint256"
        },
        {
          "components": [
            {
              "internalType": "uint256",
              "name": "playersNeeded",
              "type": "uint256"
            },
            {
              "internalType": "uint256",
              "name": "crossId",
              "type": "uint256"
            }
          ],
          "internalType": "struct RaceHandler.Cross",
          "name": "cross",
          "type": "tuple"
        },
        {
          "internalType": "uint256",
          "name": "roomSeed",
          "type": "uint256"
        }
      ],
      "stateMutability": "view",
      "type": "function",
      "constant": true
    },
    {
      "inputs": [],
      "name": "owner",
      "outputs": [
        {
          "internalType": "address",
          "name": "",
          "type": "address"
        }
      ],
      "stateMutability": "view",
      "type": "function",
      "constant": true
    },
    {
      "inputs": [
        {
          "internalType": "address",
          "name": "",
          "type": "address"
        }
      ],
      "name": "ownerCarCount",
      "outputs": [
        {
          "internalType": "uint256",
          "name": "",
          "type": "uint256"
        }
      ],
      "stateMutability": "view",
      "type": "function",
      "constant": true
    },
    {
      "inputs": [
        {
          "internalType": "address",
          "name": "",
          "type": "address"
        }
      ],
      "name": "ownerChassisCount",
      "outputs": [
        {
          "internalType": "uint256",
          "name": "",
          "type": "uint256"
        }
      ],
      "stateMutability": "view",
      "type": "function",
      "constant": true
    },
    {
      "inputs": [
        {
          "internalType": "address",
          "name": "",
          "type": "address"
        }
      ],
      "name": "ownerEngineCount",
      "outputs": [
        {
          "internalType": "uint256",
          "name": "",
          "type": "uint256"
        }
      ],
      "stateMutability": "view",
      "type": "function",
      "constant": true
    },
    {
      "inputs": [],
      "name": "renounceOwnership",
      "outputs": [],
      "stateMutability": "nonpayable",
      "type": "function"
    },
    {
      "inputs": [
        {
          "internalType": "uint256",
          "name": "_carId",
          "type": "uint256"
        }
      ],
      "name": "startRace",
      "outputs": [],
      "stateMutability": "nonpayable",
      "type": "function"
    },
    {
      "inputs": [
        {
          "internalType": "uint256",
          "name": "",
          "type": "uint256"
        }
      ],
      "name": "stations",
      "outputs": [
        {
          "internalType": "uint256",
          "name": "id",
          "type": "uint256"
        },
        {
          "internalType": "uint8",
          "name": "capacity",
          "type": "uint8"
        },
        {
          "internalType": "uint8",
          "name": "productionPerHour",
          "type": "uint8"
        },
        {
          "internalType": "uint8",
          "name": "currentFullness",
          "type": "uint8"
        },
        {
          "internalType": "uint256",
          "name": "lastUpdate",
          "type": "uint256"
        }
      ],
      "stateMutability": "view",
      "type": "function",
      "constant": true
    },
    {
      "inputs": [
        {
          "internalType": "uint256",
          "name": "carId",
          "type": "uint256"
        },
        {
          "internalType": "uint256",
          "name": "chassisId",
          "type": "uint256"
        }
      ],
      "name": "switchChassis",
      "outputs": [],
      "stateMutability": "nonpayable",
      "type": "function"
    },
    {
      "inputs": [
        {
          "internalType": "uint256",
          "name": "carId",
          "type": "uint256"
        },
        {
          "internalType": "uint256",
          "name": "engineId",
          "type": "uint256"
        }
      ],
      "name": "switchEngine",
      "outputs": [],
      "stateMutability": "nonpayable",
      "type": "function"
    },
    {
      "inputs": [
        {
          "internalType": "address",
          "name": "newOwner",
          "type": "address"
        }
      ],
      "name": "transferOwnership",
      "outputs": [],
      "stateMutability": "nonpayable",
      "type": "function"
    },
    {
      "inputs": [
        {
          "internalType": "uint256",
          "name": "_fuelStatonId",
          "type": "uint256"
        },
        {
          "internalType": "uint8",
          "name": "_counts",
          "type": "uint8"
        }
      ],
      "name": "upgradeCapacity",
      "outputs": [],
      "stateMutability": "payable",
      "type": "function",
      "payable": true
    },
    {
      "inputs": [
        {
          "internalType": "uint256",
          "name": "_engineId",
          "type": "uint256"
        }
      ],
      "name": "upgradeConsumtion",
      "outputs": [],
      "stateMutability": "payable",
      "type": "function",
      "payable": true
    },
    {
      "inputs": [
        {
          "internalType": "uint256",
          "name": "_chassisId",
          "type": "uint256"
        },
        {
          "internalType": "uint8",
          "name": "_counts",
          "type": "uint8"
        }
      ],
      "name": "upgradeDurability",
      "outputs": [],
      "stateMutability": "payable",
      "type": "function",
      "payable": true
    },
    {
      "inputs": [
        {
          "internalType": "uint256",
          "name": "_engineId",
          "type": "uint256"
        },
        {
          "internalType": "uint8",
          "name": "_counts",
          "type": "uint8"
        }
      ],
      "name": "upgradeHorsePowers",
      "outputs": [],
      "stateMutability": "payable",
      "type": "function",
      "payable": true
    },
    {
      "inputs": [
        {
          "internalType": "uint256",
          "name": "_fuelStatonId",
          "type": "uint256"
        },
        {
          "internalType": "uint8",
          "name": "_counts",
          "type": "uint8"
        }
      ],
      "name": "upgradeProductionPerHour",
      "outputs": [],
      "stateMutability": "payable",
      "type": "function",
      "payable": true
    },
    {
      "inputs": [
        {
          "internalType": "address",
          "name": "_chassisOwnership",
          "type": "address"
        },
        {
          "internalType": "address",
          "name": "_engineOwnership",
          "type": "address"
        },
        {
          "internalType": "address",
          "name": "_carOwnership",
          "type": "address"
        }
      ],
      "name": "init",
      "outputs": [],
      "stateMutability": "nonpayable",
      "type": "function"
    },
    {
      "inputs": [
        {
          "internalType": "address",
          "name": "_owner",
          "type": "address"
        }
      ],
      "name": "balanceOfCars",
      "outputs": [
        {
          "internalType": "uint256",
          "name": "",
          "type": "uint256"
        }
      ],
      "stateMutability": "view",
      "type": "function",
      "constant": true
    },
    {
      "inputs": [
        {
          "internalType": "uint256",
          "name": "_tokenId",
          "type": "uint256"
        }
      ],
      "name": "ownerOfCar",
      "outputs": [
        {
          "internalType": "address",
          "name": "",
          "type": "address"
        }
      ],
      "stateMutability": "view",
      "type": "function",
      "constant": true
    },
    {
      "inputs": [
        {
          "internalType": "address",
          "name": "_from",
          "type": "address"
        },
        {
          "internalType": "address",
          "name": "_to",
          "type": "address"
        },
        {
          "internalType": "uint256",
          "name": "_tokenId",
          "type": "uint256"
        }
      ],
      "name": "transferCarFrom",
      "outputs": [],
      "stateMutability": "nonpayable",
      "type": "function"
    },
    {
      "inputs": [
        {
          "internalType": "address",
          "name": "_owner",
          "type": "address"
        }
      ],
      "name": "balanceOfEngines",
      "outputs": [
        {
          "internalType": "uint256",
          "name": "",
          "type": "uint256"
        }
      ],
      "stateMutability": "view",
      "type": "function",
      "constant": true
    },
    {
      "inputs": [
        {
          "internalType": "uint256",
          "name": "_tokenId",
          "type": "uint256"
        }
      ],
      "name": "ownerOfEngine",
      "outputs": [
        {
          "internalType": "address",
          "name": "",
          "type": "address"
        }
      ],
      "stateMutability": "view",
      "type": "function",
      "constant": true
    },
    {
      "inputs": [
        {
          "internalType": "address",
          "name": "_from",
          "type": "address"
        },
        {
          "internalType": "address",
          "name": "_to",
          "type": "address"
        },
        {
          "internalType": "uint256",
          "name": "_tokenId",
          "type": "uint256"
        }
      ],
      "name": "transferEngineFrom",
      "outputs": [],
      "stateMutability": "nonpayable",
      "type": "function"
    },
    {
      "inputs": [
        {
          "internalType": "address",
          "name": "_owner",
          "type": "address"
        }
      ],
      "name": "balanceOfChassis",
      "outputs": [
        {
          "internalType": "uint256",
          "name": "",
          "type": "uint256"
        }
      ],
      "stateMutability": "view",
      "type": "function",
      "constant": true
    },
    {
      "inputs": [
        {
          "internalType": "uint256",
          "name": "_tokenId",
          "type": "uint256"
        }
      ],
      "name": "ownerOfChassis",
      "outputs": [
        {
          "internalType": "address",
          "name": "",
          "type": "address"
        }
      ],
      "stateMutability": "view",
      "type": "function",
      "constant": true
    },
    {
      "inputs": [
        {
          "internalType": "address",
          "name": "_from",
          "type": "address"
        },
        {
          "internalType": "address",
          "name": "_to",
          "type": "address"
        },
        {
          "internalType": "uint256",
          "name": "_tokenId",
          "type": "uint256"
        }
      ],
      "name": "transferChassisFrom",
      "outputs": [],
      "stateMutability": "nonpayable",
      "type": "function"
    },
    {
      "inputs": [
        {
          "internalType": "uint256",
          "name": "chassisId",
          "type": "uint256"
        },
        {
          "internalType": "uint256",
          "name": "price",
          "type": "uint256"
        }
      ],
      "name": "putChassisOnMarketplace",
      "outputs": [],
      "stateMutability": "nonpayable",
      "type": "function"
    },
    {
      "inputs": [
        {
          "internalType": "uint256",
          "name": "chassisId",
          "type": "uint256"
        }
      ],
      "name": "removeChassisFromMarketplace",
      "outputs": [],
      "stateMutability": "nonpayable",
      "type": "function"
    },
    {
      "inputs": [
        {
          "internalType": "uint256",
          "name": "engineId",
          "type": "uint256"
        },
        {
          "internalType": "uint256",
          "name": "price",
          "type": "uint256"
        }
      ],
      "name": "putEngineOnMarketplace",
      "outputs": [],
      "stateMutability": "nonpayable",
      "type": "function"
    },
    {
      "inputs": [
        {
          "internalType": "uint256",
          "name": "engineId",
          "type": "uint256"
        }
      ],
      "name": "removeEngineFromMarketplace",
      "outputs": [],
      "stateMutability": "nonpayable",
      "type": "function"
    },
    {
      "inputs": [
        {
          "internalType": "uint256",
          "name": "carId",
          "type": "uint256"
        },
        {
          "internalType": "uint256",
          "name": "price",
          "type": "uint256"
        }
      ],
      "name": "putCarOnMarketplace",
      "outputs": [],
      "stateMutability": "nonpayable",
      "type": "function"
    },
    {
      "inputs": [
        {
          "internalType": "uint256",
          "name": "carId",
          "type": "uint256"
        }
      ],
      "name": "removeCarFromMarketplace",
      "outputs": [],
      "stateMutability": "nonpayable",
      "type": "function"
    },
    {
      "inputs": [],
      "name": "getCarsForSale",
      "outputs": [
        {
          "components": [
            {
              "internalType": "string",
              "name": "model",
              "type": "string"
            },
            {
              "internalType": "uint256",
              "name": "vin",
              "type": "uint256"
            },
            {
              "internalType": "uint256",
              "name": "engineId",
              "type": "uint256"
            },
            {
              "internalType": "uint256",
              "name": "chassisId",
              "type": "uint256"
            },
            {
              "internalType": "uint8",
              "name": "carLevel",
              "type": "uint8"
            },
            {
              "internalType": "uint256",
              "name": "mileage",
              "type": "uint256"
            },
            {
              "internalType": "uint256",
              "name": "winCountOnCurrentLevel",
              "type": "uint256"
            },
            {
              "internalType": "uint256",
              "name": "lossCountOnCurrentLevel",
              "type": "uint256"
            },
            {
              "internalType": "uint256",
              "name": "id",
              "type": "uint256"
            }
          ],
          "internalType": "struct CarFactory.Car[]",
          "name": "",
          "type": "tuple[]"
        }
      ],
      "stateMutability": "view",
      "type": "function",
      "constant": true
    },
    {
      "inputs": [],
      "name": "getEnginesForSale",
      "outputs": [
        {
          "components": [
            {
              "internalType": "uint256",
              "name": "id",
              "type": "uint256"
            },
            {
              "internalType": "uint16",
              "name": "horsePowers",
              "type": "uint16"
            },
            {
              "internalType": "uint8",
              "name": "consumtion",
              "type": "uint8"
            }
          ],
          "internalType": "struct CarFactory.Engine[]",
          "name": "",
          "type": "tuple[]"
        }
      ],
      "stateMutability": "view",
      "type": "function",
      "constant": true
    },
    {
      "inputs": [],
      "name": "getChassisForSale",
      "outputs": [
        {
          "components": [
            {
              "internalType": "uint256",
              "name": "id",
              "type": "uint256"
            },
            {
              "internalType": "uint32",
              "name": "durability",
              "type": "uint32"
            },
            {
              "internalType": "uint32",
              "name": "resource",
              "type": "uint32"
            }
          ],
          "internalType": "struct CarFactory.Chassis[]",
          "name": "",
          "type": "tuple[]"
        }
      ],
      "stateMutability": "view",
      "type": "function",
      "constant": true
    }
  ],
  "bytecode": "0x6000805461ffff60a01b191661014f60a21b17815560088190556009819055600a9081556001600b819055600c556509184e72a000601981905565b5e620f48000601a55650da475abf000601b556611c37937e08000601c556305f5e100601d5566038d7ea4c68000601e556101c060405260809081526512309ce5400060a05265246139ca800060c0526548c27395000060e052659184e72a00006101005266012309ce54000061012052660246139ca800006101405266048c2739500000610160526609184e72a00000610180526612309ce54000006101a052620000ea916020919062000199565b50348015620000f857600080fd5b50620001043362000149565b6050600355605b6004556005805460ff1916600a179055620186a06006556201d4c1600755600e80546001908101909155600f8054820181556000526023556200020b565b600080546001600160a01b038381166001600160a01b0319831681178455604051919092169283917f8be0079c531659141344cd1fd0a4f28419497f9722a3daafe3b4186f6b6457e09190a35050565b828054828255906000526020600020908101928215620001e2579160200282015b82811115620001e2578251829066ffffffffffffff16905591602001919060010190620001ba565b50620001f0929150620001f4565b5090565b5b80821115620001f05760008155600101620001f5565b615b9a806200021b6000396000f3fe6080604052600436106104055760003560e01c80637fb2aa4d11610213578063bfcc971611610123578063ea126933116100ab578063f7746e361161007a578063f7746e3614610f82578063f85993b914610fb7578063faf4bb9814610fe4578063fb2d954f14610ff7578063fb33250f1461101757600080fd5b8063ea12693314610f02578063ede6fbf514610f22578063f2fde38b14610f42578063f66911b114610f6257600080fd5b8063d1c54eea116100f2578063d1c54eea14610e62578063d7086fab14610e82578063d720be4a14610ea2578063df750c5214610ec2578063e215a7e414610ee257600080fd5b8063bfcc971614610de2578063c34cccc414610e02578063c75bb4f414610e22578063c85b7fed14610e4257600080fd5b8063906f5f34116101a6578063b3b29afd11610175578063b3b29afd14610d1f578063b72c0eea14610d4c578063b972486f14610d8d578063bf5070d314610da2578063bf9bc0b214610dc257600080fd5b8063906f5f3414610c7957806392f859db14610c8c578063982b691c14610cdc578063aa11b68114610cf257600080fd5b806389895f77116101e257806389895f7714610c085780638b57997314610c285780638da5cb5b14610c485780638ff90c6b14610c6657600080fd5b80637fb2aa4d14610b655780638590926714610b925780638776601914610ba557806387d6b9b214610bd257600080fd5b806333ca504b116103195780635c426aff116102a1578063715018a611610270578063715018a614610ace57806376997de014610ae357806376b4646d14610b035780637713d52114610b255780637ec5c75c14610b4557600080fd5b80635c426aff14610a155780635dcc4cc614610a4b5780636b606d9b14610a815780636f206fc114610aa157600080fd5b8063491d61c2116102e8578063491d61c2146109125780634ced3056146109345780634e31f91014610954578063567754e4146109bf578063594193d7146109df57600080fd5b806333ca504b146108435780633521c426146108795780633dfd6f54146108a657806344901490146108dc57600080fd5b80631702bf421161039c578063224370f01161036b578063224370f01461066357806324d822bf14610797578063254dc065146107b75780632ca4769e146107ed5780632cb03a3a1461080d57600080fd5b80631702bf42146105cb578063184b9559146105e15780631a56afda146106015780631c5dde0e1461062157600080fd5b80630a0176fc116103d85780630a0176fc146105475780630c0cd532146105825780630ce90ec21461059857806314ed0450146105ab57600080fd5b806302b677451461040a57806303f2e05b1461045d5780630418394e14610472578063081315ff146104f4575b600080fd5b34801561041657600080fd5b50610440610425366004614fc4565b6000908152601060205260409020546001600160a01b031690565b6040516001600160a01b0390911681526020015b60405180910390f35b61047061046b366004614ff3565b611037565b005b34801561047e57600080fd5b506104c561048d366004614fc4565b602560205260009081526040902080546001820154600283015460038401546005850154600690950154939492939192909160ff1686565b6040805196875260208701959095529385019290925260608401526080830152151560a082015260c001610454565b34801561050057600080fd5b5061051461050f366004614fc4565b61113d565b604080519586526020808701959095528501929092528051606085015290910151608083015260a082015260c001610454565b34801561055357600080fd5b50610574610562366004614fc4565b60186020526000908152604090205481565b604051908152602001610454565b34801561058e57600080fd5b50610574600a5481565b6104706105a6366004614fc4565b611195565b3480156105b757600080fd5b506104706105c6366004614fc4565b61129b565b3480156105d757600080fd5b5061057460085481565b3480156105ed57600080fd5b506104706105fc366004615036565b61130f565b34801561060d57600080fd5b5061057461061c366004614ff3565b611356565b34801561062d57600080fd5b5061064161063c366004614fc4565b6113a8565b6040805193845263ffffffff9283166020850152911690820152606001610454565b34801561066f57600080fd5b50610470600180546040805160a0810182528281526000805460ff600160a01b820481166020808601828152600160a81b90940483168688019081526060870192835263ffffffff421660808801908152898b018b559986529551600389027fb10e2d527612073b26eecdfd717e6a320cf44b4afac2b0732d9fcbe2b7fa0cf681019190915593517fb10e2d527612073b26eecdfd717e6a320cf44b4afac2b0732d9fcbe2b7fa0cf785018054975193518516620100000262ff0000199486166101000261ffff19909916929095169190911796909617919091169190911790935594517fb10e2d527612073b26eecdfd717e6a320cf44b4afac2b0732d9fcbe2b7fa0cf8909501949094559183526002909152902080546001600160a01b03191633179055565b3480156107a357600080fd5b506104706107b2366004614fc4565b6113e8565b3480156107c357600080fd5b506105746107d2366004615079565b6001600160a01b031660009081526015602052604090205490565b3480156107f957600080fd5b50610574610808366004614ff3565b61172c565b34801561081957600080fd5b50610574610828366004615079565b6001600160a01b031660009081526013602052604090205490565b34801561084f57600080fd5b5061044061085e366004614fc4565b6010602052600090815260409020546001600160a01b031681565b34801561088557600080fd5b50610899610894366004614fc4565b61176e565b6040516104549190615094565b3480156108b257600080fd5b506104406108c1366004614fc4565b6000908152601160205260409020546001600160a01b031690565b3480156108e857600080fd5b506104406108f7366004614fc4565b6012602052600090815260409020546001600160a01b031681565b34801561091e57600080fd5b50610927611860565b6040516104549190615103565b34801561094057600080fd5b5061047061094f366004614fc4565b611989565b34801561096057600080fd5b5061097461096f366004615079565b6119fd565b6040516104549190600060a0820190508251825260ff602084015116602083015260ff604084015116604083015260ff60608401511660608301526080830151608083015292915050565b3480156109cb57600080fd5b506104706109da366004614fc4565b611ae4565b3480156109eb57600080fd5b506104406109fa366004614fc4565b6002602052600090815260409020546001600160a01b031681565b348015610a2157600080fd5b50610440610a30366004614fc4565b6000908152601260205260409020546001600160a01b031690565b348015610a5757600080fd5b50610440610a66366004614fc4565b6011602052600090815260409020546001600160a01b031681565b348015610a8d57600080fd5b50610470610a9c366004615156565b611b58565b348015610aad57600080fd5b50610ac1610abc366004615079565b611c6b565b6040516104549190615178565b348015610ada57600080fd5b50610470611dbf565b348015610aef57600080fd5b50610574610afe366004614ff3565b611dd3565b348015610b0f57600080fd5b50610b18611e10565b604051610454919061522a565b348015610b3157600080fd5b50610927610b40366004615079565b611fdc565b348015610b5157600080fd5b50610470610b603660046152f4565b612124565b348015610b7157600080fd5b50610574610b80366004615079565b60146020526000908152604090205481565b610470610ba0366004614ff3565b6121cc565b348015610bb157600080fd5b50610574610bc0366004615079565b60156020526000908152604090205481565b348015610bde57600080fd5b50610574610bed366004615079565b6001600160a01b031660009081526014602052604090205490565b348015610c1457600080fd5b50610470610c23366004615156565b6122b1565b348015610c3457600080fd5b50610470610c433660046152f4565b6123d0565b348015610c5457600080fd5b506000546001600160a01b0316610440565b610470610c74366004614fc4565b61245b565b610470610c87366004614ff3565b61254d565b348015610c9857600080fd5b50610cac610ca7366004614fc4565b61260e565b6040805195865260ff9485166020870152928416928501929092529091166060830152608082015260a001610454565b348015610ce857600080fd5b5061057460095481565b348015610cfe57600080fd5b50610574610d0d366004614fc4565b60166020526000908152604090205481565b348015610d2b57600080fd5b50610574610d3a366004615079565b60136020526000908152604090205481565b348015610d5857600080fd5b50610d6c610d67366004614fc4565b61265a565b6040805193845261ffff909216602084015260ff1690820152606001610454565b348015610d9957600080fd5b50610ac1612697565b348015610dae57600080fd5b50610574610dbd366004614ff3565b6127bb565b348015610dce57600080fd5b50610574610ddd366004614fc4565b6127f8565b348015610dee57600080fd5b50610574610dfd366004615344565b61284b565b348015610e0e57600080fd5b50610470610e1d366004615156565b6129a0565b348015610e2e57600080fd5b50610b18610e3d366004615079565b612b16565b348015610e4e57600080fd5b50610470610e5d3660046153b5565b612d0a565b348015610e6e57600080fd5b50610470610e7d366004615156565b612f97565b348015610e8e57600080fd5b50610574610e9d366004615479565b6130a3565b348015610eae57600080fd5b50610470610ebd366004615156565b613212565b348015610ece57600080fd5b50610574610edd366004614fc4565b613331565b348015610eee57600080fd5b50610470610efd366004615156565b613389565b348015610f0e57600080fd5b50610470610f1d366004615156565b6134a8565b348015610f2e57600080fd5b50610470610f3d366004615515565b61361f565b348015610f4e57600080fd5b50610470610f5d366004615079565b6137ed565b348015610f6e57600080fd5b50610470610f7d3660046152f4565b613866565b348015610f8e57600080fd5b50610fa2610f9d366004614fc4565b6138f1565b6040516104549998979695949392919061554a565b348015610fc357600080fd5b50610574610fd2366004614fc4565b60176020526000908152604090205481565b610470610ff2366004614ff3565b6139de565b34801561100357600080fd5b50610470611012366004614fc4565b613ad5565b34801561102357600080fd5b506104706110323660046155a1565b6140a1565b60008281526012602052604090205482906001600160a01b031633146110785760405162461bcd60e51b815260040161106f90615629565b60405180910390fd5b6110828383611356565b34146110a05760405162461bcd60e51b815260040161106f9061566b565b600080546040516001600160a01b03909116913480156108fc02929091818181858888f193505050501580156110da573d6000803e3d6000fd5b508160ff16600f84815481106110f2576110f261568f565b600091825260208220600160029092020101805490919061111a90849063ffffffff166156bb565b92506101000a81548163ffffffff021916908363ffffffff160217905550505050565b6024818154811061114d57600080fd5b60009182526020918290206006909102018054600182015460028301546040805180820190915260038501548152600485015495810195909552600590930154919450929085565b61119e816127f8565b34146111bc5760405162461bcd60e51b815260040161106f9061566b565b600080546040516001600160a01b03909116913480156108fc02929091818181858888f193505050501580156111f6573d6000803e3d6000fd5b50600d818154811061120a5761120a61568f565b600091825260208220600460099092020101805460ff169161122b836156e3565b91906101000a81548160ff021916908360ff160217905550506000600d82815481106112595761125961568f565b9060005260206000209060090201600601819055506000600d82815481106112835761128361568f565b90600052602060002090600902016007018190555050565b60008181526011602052604090205481906001600160a01b031633146112d35760405162461bcd60e51b815260040161106f90615702565b600082815260176020526040902054156112fd57600a80549060006112f783615743565b91905055505b50600090815260176020526040812055565b61131761429b565b602680546001600160a01b039485166001600160a01b031991821617909155602780549385169382169390931790925560288054919093169116179055565b6000601d54600f848154811061136e5761136e61568f565b60009182526020909120600160029092020101546113959063ffffffff1660ff851661575a565b61139f919061575a565b90505b92915050565b600f81815481106113b857600080fd5b60009182526020909120600290910201805460019091015490915063ffffffff8082169164010000000090041683565b60008181526010602052604090205481906001600160a01b031633146114205760405162461bcd60e51b815260040161106f90615779565b6000600a600d84815481106114375761143761568f565b6000918252602090912060046009909202010154611458919060ff166157c6565b61146390600a6157e8565b61146e90600261580b565b33600090815260226020526040902054909150156114c45760405162461bcd60e51b815260206004820152601360248201527263617220616c726561647920696e207261636560681b604482015260640161106f565b600d83815481106114d7576114d761568f565b9060005260206000209060090201600301546000036115255760405162461bcd60e51b815260206004820152600a6024820152696e6f206368617373697360b01b604482015260640161106f565b600d83815481106115385761153861568f565b9060005260206000209060090201600201546000036115855760405162461bcd60e51b81526020600482015260096024820152686e6f20656e67696e6560b81b604482015260640161106f565b61158f83826142f5565b6115cd5760405162461bcd60e51b815260206004820152600f60248201526e1b9bdd08195b9bdd59da08199d595b608a1b604482015260640161106f565b8060ff16600f600d85815481106115e6576115e661568f565b906000526020600020906009020160030154815481106116085761160861568f565b6000918252602090912060029091020160010154640100000000900463ffffffff1610156116635760405162461bcd60e51b81526020600482015260086024820152677265736f7572636560c01b604482015260640161106f565b8060ff16600f600d858154811061167c5761167c61568f565b9060005260206000209060090201600301548154811061169e5761169e61568f565b906000526020600020906002020160010160048282829054906101000a900463ffffffff166116cd9190615834565b92506101000a81548163ffffffff021916908363ffffffff1602179055508060ff16600d84815481106117025761170261568f565b906000526020600020906009020160050160008282546117229190615859565b9091555050505050565b6000601a54600184815481106117445761174461568f565b60009182526020909120600160039092020101546113959060ff610100909104811690851661575a565b60008181526025602052604090206006015460609060ff166117c45760405162461bcd60e51b815260206004820152600f60248201526e1c9bdbdb481b9bdd0818db1bdcd959608a1b604482015260640161106f565b600082815260256020908152604080832060040180548251818502810185019093528083529193909284015b82821015611855576000848152602090819020604080516080810182526003860290920180546001600160a01b0381168452600160a01b900460ff161515838501526001808201549284019290925260020154606083015290835290920191016117f0565b505050509050919050565b60606000600a5467ffffffffffffffff81111561187f5761187f61536e565b6040519080825280602002602001820160405280156118ca57816020015b604080516060810182526000808252602080830182905292820152825260001990920191018161189d5790505b509050600060015b600e54811015611981576000818152601760205260409020541561196f57600e81815481106119035761190361568f565b600091825260209182902060408051606081018252600293909302909101805483526001015461ffff8116938301939093526201000090920460ff1691810191909152838361195181615871565b9450815181106119635761196361568f565b60200260200101819052505b8061197981615871565b9150506118d2565b509092915050565b60008181526012602052604090205481906001600160a01b031633146119c15760405162461bcd60e51b815260040161106f90615629565b600082815260186020526040902054156119eb57600980549060006119e583615743565b91905055505b50600090815260186020526040812055565b6040805160a081018252600080825260208201819052918101829052606081018290526080810182905290805b600154811015611a6f576000818152600260205260409020546001600160a01b03808616911603611a5d57809150611a6f565b80611a6781615871565b915050611a2a565b5060018181548110611a8357611a8361568f565b60009182526020918290206040805160a081018252600390930290910180548352600181015460ff80821695850195909552610100810485169284019290925262010000909104909216606082015260029091015460808201529392505050565b60008181526010602052604090205481906001600160a01b03163314611b1c5760405162461bcd60e51b815260040161106f90615779565b60008281526016602052604090205415611b465760088054906000611b4083615743565b91905055505b50600090815260166020526040812055565b60008181526012602052604090205481906001600160a01b03163314611b905760405162461bcd60e51b815260040161106f90615629565b60008381526010602052604090205483906001600160a01b03163314611bc85760405162461bcd60e51b815260040161106f90615779565b82600d8581548110611bdc57611bdc61568f565b90600052602060002090600902016003015414611c3b5760405162461bcd60e51b815260206004820152601860248201527f6368617373697320617265206e6f742061747461636865640000000000000000604482015260640161106f565b6000600d8581548110611c5057611c5061568f565b90600052602060002090600902016003018190555050505050565b6001600160a01b0381166000908152601560205260408120546060919067ffffffffffffffff811115611ca057611ca061536e565b604051908082528060200260200182016040528015611ceb57816020015b6040805160608101825260008082526020808301829052928201528252600019909201910181611cbe5790505b5090506000805b600f54811015611db6576000818152601260205260409020546001600160a01b03808716911603611da457600f8181548110611d3057611d3061568f565b6000918252602091829020604080516060810182526002909302909101805483526001015463ffffffff808216948401949094526401000000009004909216918101919091528351849084908110611d8a57611d8a61568f565b60200260200101819052508180611da090615871565b9250505b80611dae81615871565b915050611cf2565b50909392505050565b611dc761429b565b611dd16000614497565b565b600060195460018481548110611deb57611deb61568f565b60009182526020909120600160039092020101546113959060ff90811690851661575a565b6060600060085467ffffffffffffffff811115611e2f57611e2f61536e565b604051908082528060200260200182016040528015611e6857816020015b611e55614edc565b815260200190600190039081611e4d5790505b5090506000805b600d548110156119815760008181526016602052604090205415611fca57600d8181548110611ea057611ea061568f565b906000526020600020906009020160405180610120016040529081600082018054611eca9061588a565b80601f0160208091040260200160405190810160405280929190818152602001828054611ef69061588a565b8015611f435780601f10611f1857610100808354040283529160200191611f43565b820191906000526020600020905b815481529060010190602001808311611f2657829003601f168201915b5050509183525050600182015460208201526002820154604082015260038201546060820152600482015460ff166080820152600582015460a0820152600682015460c0820152600782015460e0820152600890910154610100909101528383611fac81615871565b945081518110611fbe57611fbe61568f565b60200260200101819052505b80611fd481615871565b915050611e6f565b6001600160a01b0381166000908152601460205260408120546060919067ffffffffffffffff8111156120115761201161536e565b60405190808252806020026020018201604052801561205c57816020015b604080516060810182526000808252602080830182905292820152825260001990920191018161202f5790505b5090506000805b600e54811015611db6576000818152601160205260409020546001600160a01b0380871691160361211257600e81815481106120a1576120a161568f565b600091825260209182902060408051606081018252600293909302909101805483526001015461ffff8116938301939093526201000090920460ff169181019190915283518490849081106120f8576120f861568f565b6020026020010181905250818061210e90615871565b9250505b8061211c81615871565b915050612063565b6028546001600160a01b0316331461217e5760405162461bcd60e51b815260206004820152601960248201527f796f7520617265206e6f7420636172206f776e65727368697000000000000000604482015260640161106f565b6000818152601060205260409020546001600160a01b03848116911614806121b3575060008181526016602052604090205415155b6121bc57600080fd5b6121c78383836144e7565b505050565b60008281526002602052604090205482906001600160a01b031633146121f157600080fd5b6121fb838361172c565b34146122195760405162461bcd60e51b815260040161106f9061566b565b600080546040516001600160a01b03909116913480156108fc02929091818181858888f19350505050158015612253573d6000803e3d6000fd5b5081600184815481106122685761226861568f565b906000526020600020906003020160010160018282829054906101000a900460ff1661229491906158c4565b92506101000a81548160ff021916908360ff160217905550505050565b60008281526011602052604090205482906001600160a01b031633146122e95760405162461bcd60e51b815260040161106f90615702565b6000838152601160209081526040808320546001600160a01b0316835260149091529020546001108061232657506000546001600160a01b031633145b6123725760405162461bcd60e51b815260206004820152601b60248201527f796f752063616e27742073616c65206c61737420656e67696e65210000000000604482015260640161106f565b600082116123925760405162461bcd60e51b815260040161106f906158e9565b60008381526017602052604081205490036123bd57600a80549060006123b783615871565b91905055505b5060009182526017602052604090912055565b6027546001600160a01b0316331461242a5760405162461bcd60e51b815260206004820152601c60248201527f796f7520617265206e6f7420656e67696e65206f776e65727368697000000000604482015260640161106f565b6000818152601160205260409020546001600160a01b0384811691161461245057600080fd5b6121c7838383614697565b60008181526011602052604090205481906001600160a01b031633146124935760405162461bcd60e51b815260040161106f90615702565b61249c82613331565b34146124ba5760405162461bcd60e51b815260040161106f9061566b565b600080546040516001600160a01b03909116913480156108fc02929091818181858888f193505050501580156124f4573d6000803e3d6000fd5b50600e82815481106125085761250861568f565b60009182526020909120600291820201600101805462010000900460ff169161253083615910565b91906101000a81548160ff021916908360ff160217905550505050565b60008281526002602052604090205482906001600160a01b0316331461257257600080fd5b61257c8383611dd3565b341461259a5760405162461bcd60e51b815260040161106f9061566b565b600080546040516001600160a01b03909116913480156108fc02929091818181858888f193505050501580156125d4573d6000803e3d6000fd5b5081600184815481106125e9576125e961568f565b600091825260208220600160039092020101805490919061229490849060ff166158c4565b6001818154811061261e57600080fd5b600091825260209091206003909102018054600182015460029092015490925060ff808316926101008104821692620100009091049091169085565b600e818154811061266a57600080fd5b60009182526020909120600290910201805460019091015490915061ffff81169062010000900460ff1683565b6060600060095467ffffffffffffffff8111156126b6576126b661536e565b60405190808252806020026020018201604052801561270157816020015b60408051606081018252600080825260208083018290529282015282526000199092019101816126d45790505b509050600060015b600f5481101561198157600081815260186020526040902054156127a957600f818154811061273a5761273a61568f565b6000918252602091829020604080516060810182526002909302909101805483526001015463ffffffff80821694840194909452640100000000900490921691810191909152838361278b81615871565b94508151811061279d5761279d61568f565b60200260200101819052505b806127b381615871565b915050612709565b6000601b54600e84815481106127d3576127d361568f565b60009182526020909120600160029092020101546113959061ffff1660ff851661575a565b6000600a600d838154811061280f5761280f61568f565b6000918252602090912060046009909202010154612830919060ff166157c6565b61283b9060016158c4565b60ff16601e546113a2919061575a565b600061285561429b565b600c80546000918261286683615871565b909155506040805160608101825282815263ffffffff8781166020808401828152848601928352600f80546001810182556000918252955160029096027f8d1108e10bcb7c27dddfc02ed9d693a074039d026cf4ea4240b40f7d581ac80281019690965590517f8d1108e10bcb7c27dddfc02ed9d693a074039d026cf4ea4240b40f7d581ac8039095018054935185166401000000000267ffffffffffffffff1990941695909416949094179190911790915581546001600160a01b031682526015905290812080549293509061293c83615871565b9091555050600080548282526012602052604090912080546001600160a01b0319166001600160a01b03909216919091179055821561139f576000818152601860205260408120849055600980549161299483615871565b91905055509392505050565b60008181526011602052604090205481906001600160a01b031633146129d85760405162461bcd60e51b815260040161106f90615702565b60008381526010602052604090205483906001600160a01b03163314612a105760405162461bcd60e51b815260040161106f90615779565b82600d8581548110612a2457612a2461568f565b90600052602060002090600902016002015403612a715760405162461bcd60e51b815260206004820152600b60248201526a73616d6520656e67696e6560a81b604482015260640161106f565b6000612a7c33612b16565b905060005b8151811015612ae55784828281518110612a9d57612a9d61568f565b60200260200101516040015103612ad3576000828281518110612ac257612ac261568f565b602002602001015160400181815250505b80612add81615871565b915050612a81565b5083600d8681548110612afa57612afa61568f565b9060005260206000209060090201600201819055505050505050565b6001600160a01b0381166000908152601360205260408120546060919067ffffffffffffffff811115612b4b57612b4b61536e565b604051908082528060200260200182016040528015612b8457816020015b612b71614edc565b815260200190600190039081612b695790505b5090506000805b600d54811015611db6576000818152601060205260409020546001600160a01b03808716911603612cf857600d8181548110612bc957612bc961568f565b906000526020600020906009020160405180610120016040529081600082018054612bf39061588a565b80601f0160208091040260200160405190810160405280929190818152602001828054612c1f9061588a565b8015612c6c5780601f10612c4157610100808354040283529160200191612c6c565b820191906000526020600020905b815481529060010190602001808311612c4f57829003601f168201915b5050509183525050600182015460208201526002820154604082015260038201546060820152600482015460ff166080820152600582015460a0820152600682015460c0820152600782015460e0820152600890910154610100909101528351849084908110612cde57612cde61568f565b60200260200101819052508180612cf490615871565b9250505b80612d0281615871565b915050612b8b565b336000908152602160205260409020548214612d585760405162461bcd60e51b815260206004820152600d60248201526c6e6f7420796f757220726f6f6d60981b604482015260640161106f565b600082815260256020526040808220600201549051634e31f59760e11b815290919073__PDDLib________________________________90639c63eb2e90612da6908590879060040161592d565b602060405180830381865af4158015612dc3573d6000803e3d6000fd5b505050506040513d601f19601f82011682018060405250810190612de7919061597b565b604080516080810182523380825283151560208084019182524284860190815260009384526022825285842054606086019081528b855260258352958420600481018054600181810183558288529487208851600390920201805496511515600160a01b026001600160a81b03199097166001600160a01b03929092169190911795909517855591519284019290925594516002909201919091559088905280549254939450909290919003612f8f576040518681527f67acaceb58ff1ad2aa8b3069f69c4cd076824e06a09184b75fb197ead7040be79060200160405180910390a16000868152602560209081526040808320600601805460ff191660011790553383526021825280832083905560229091528120819055805b600088815260256020526040902054811015612f7b576000888152602560205260409020600401805482908110612f3b57612f3b61568f565b6000918252602090912060039091020154600160a01b900460ff1615612f695781612f6581615871565b9250505b80612f7381615871565b915050612f02565b5080600003612f8d5750505050505050565b505b505050505050565b60008181526011602052604090205481906001600160a01b03163314612fcf5760405162461bcd60e51b815260040161106f90615702565b60008381526010602052604090205483906001600160a01b031633146130075760405162461bcd60e51b815260040161106f90615779565b82600d858154811061301b5761301b61568f565b906000526020600020906009020160020154146130735760405162461bcd60e51b8152602060048201526016602482015275195b99da5b99481a5cc81b9bdd08185d1d1858da195960521b604482015260640161106f565b6000600d85815481106130885761308861568f565b90600052602060002090600902016002018190555050505050565b60006130ad61429b565b600b8054600091826130be83615871565b909155506040805160608101825282815261ffff8089166020830190815260ff808a16948401948552600e80546001810182556000918252945160029095027fbb7b4a454dc3493923482f07822329ed19e8244eff582cc204f8554c3620c3fd81019590955591517fbb7b4a454dc3493923482f07822329ed19e8244eff582cc204f8554c3620c3fe90940180549551909116620100000262ffffff199095169390921692909217929092179091559091506014906131856000546001600160a01b031690565b6001600160a01b03168152602081019190915260400160009081208054916131ac83615871565b9091555050600080548282526011602052604090912080546001600160a01b0319166001600160a01b03909216919091179055821561320a576000818152601760205260408120849055600a80549161320483615871565b91905055505b949350505050565b60008281526012602052604090205482906001600160a01b0316331461324a5760405162461bcd60e51b815260040161106f90615629565b6000838152601260209081526040808320546001600160a01b0316835260159091529020546001108061328757506000546001600160a01b031633145b6132d35760405162461bcd60e51b815260206004820152601c60248201527f796f752063616e27742073616c65206c61737420636861737369732100000000604482015260640161106f565b600082116132f35760405162461bcd60e51b815260040161106f906158e9565b600083815260186020526040812054900361331e576009805490600061331883615871565b91905055505b5060009182526018602052604090912055565b6000601c54600e83815481106133495761334961568f565b60009182526020909120600290910201600101546133719062010000900460ff16600a6157e8565b61337f9060ff166002615a79565b6113a2919061575a565b60008281526010602052604090205482906001600160a01b031633146133c15760405162461bcd60e51b815260040161106f90615779565b6000838152601060209081526040808320546001600160a01b031683526013909152902054600110806133fe57506000546001600160a01b031633145b61344a5760405162461bcd60e51b815260206004820152601860248201527f796f752063616e27742073616c65206c61737420636172210000000000000000604482015260640161106f565b6000821161346a5760405162461bcd60e51b815260040161106f906158e9565b6000838152601660205260408120549003613495576008805490600061348f83615871565b91905055505b5060009182526016602052604090912055565b60008181526012602052604090205481906001600160a01b031633146134e05760405162461bcd60e51b815260040161106f90615629565b60008381526010602052604090205483906001600160a01b031633146135185760405162461bcd60e51b815260040161106f90615779565b82600d858154811061352c5761352c61568f565b9060005260206000209060090201600301540361357a5760405162461bcd60e51b815260206004820152600c60248201526b73616d65206368617373697360a01b604482015260640161106f565b600061358533612b16565b905060005b81518110156135ee57848282815181106135a6576135a661568f565b602002602001015160600151036135dc5760008282815181106135cb576135cb61568f565b602002602001015160600181815250505b806135e681615871565b91505061358a565b5083600d86815481106136035761360361568f565b9060005260206000209060090201600301819055505050505050565b336000908152601360205260409020541561363957600080fd5b60008161364542614812565b604051602001613656929190615a85565b604051602081830303815290604052905060008160405160200161367a9190615aab565b6040516020818303038152906040528051906020012060001c9050600061369f6148a5565b905060006136ab6149d9565b600d80546040805161012081018252898152602080820189905291810187905260608101859052600160808201819052600060a0830181905260c0830181905260e083018190526101008301859052908401855593909352825180519495509193600985027fd7b6990105719101dabeb77144f2a3385c8033acd3af97e9423a695e81ad1eb50192613741928492910190614f2b565b506020828101516001830155604080840151600284015560608401516003840155608084015160048401805460ff191660ff90921691909117905560a0840151600584015560c0840151600684015560e08401516007840155610100909301516008909201919091556000838152601082528281208054336001600160a01b03199091168117909155815260139091529081208054916137e083615871565b9190505550505050505050565b6137f561429b565b6001600160a01b03811661385a5760405162461bcd60e51b815260206004820152602660248201527f4f776e61626c653a206e6577206f776e657220697320746865207a65726f206160448201526564647265737360d01b606482015260840161106f565b61386381614497565b50565b6026546001600160a01b031633146138c05760405162461bcd60e51b815260206004820152601d60248201527f796f7520617265206e6f742063686173736973206f776e657273686970000000604482015260640161106f565b6000818152601260205260409020546001600160a01b038481169116146138e657600080fd5b6121c7838383614b0d565b600d818154811061390157600080fd5b90600052602060002090600902016000915090508060000180546139249061588a565b80601f01602080910402602001604051908101604052809291908181526020018280546139509061588a565b801561399d5780601f106139725761010080835404028352916020019161399d565b820191906000526020600020905b81548152906001019060200180831161398057829003601f168201915b50505060018401546002850154600386015460048701546005880154600689015460078a01546008909a01549899959894975092955060ff90911693909289565b60008281526011602052604090205482906001600160a01b03163314613a165760405162461bcd60e51b815260040161106f90615702565b613a2083836127bb565b3414613a3e5760405162461bcd60e51b815260040161106f9061566b565b600080546040516001600160a01b03909116913480156108fc02929091818181858888f19350505050158015613a78573d6000803e3d6000fd5b508160ff16600e8481548110613a9057613a9061568f565b6000918252602082206001600290920201018054909190613ab690849061ffff16615ac7565b92506101000a81548161ffff021916908361ffff160217905550505050565b60008181526010602052604090205481906001600160a01b03163314613b0d5760405162461bcd60e51b815260040161106f90615779565b6000805b602454811015613f275760248181548110613b2e57613b2e61568f565b906000526020600020906006020160020154600a600d8681548110613b5557613b5561568f565b6000918252602090912060046009909202010154613b76919060ff166157c6565b613b819060016158c4565b60ff1603613f15576001915060248181548110613ba057613ba061568f565b6000918252602080832060069092029091015433835260218252604080842091909155602290915290208490556024805482908110613be157613be161568f565b600091825260208220600160069092020101805491613bff83615871565b91905055506064600d8581548110613c1957613c1961568f565b906000526020600020906009020160010154613c359190615ae4565b60248281548110613c4857613c4861568f565b90600052602060002090600602016005016000828254613c689190615859565b90915550506024805482908110613c8157613c8161568f565b90600052602060002090600602016003016000015460248281548110613ca957613ca961568f565b90600052602060002090600602016001015403613f1557600073__PDDLib________________________________63c9827d8660248481548110613cef57613cef61568f565b90600052602060002090600602016003016001015460248581548110613d1757613d1761568f565b906000526020600020906006020160030160000154613d5960248781548110613d4257613d4261568f565b906000526020600020906006020160050154614812565b6040518463ffffffff1660e01b8152600401613d7793929190615af8565b602060405180830381865af4158015613d94573d6000803e3d6000fd5b505050506040513d601f19601f82011682018060405250810190613db89190615b20565b905060006025600060248581548110613dd357613dd361568f565b9060005260206000209060060201600001548152602001908152602001600020905060248381548110613e0857613e0861568f565b600091825260209091206003600690920201015481556024805484908110613e3257613e3261568f565b6000918252602082206006918202016002908101546001850155830184905542600384015560058301919091558101805460ff19169055602480547f2838ebeee7dc83fac85a3d6dbca0c0b6771591ada8b00f97371aa6611e631f9c919085908110613ea057613ea061568f565b600091825260209182902060069091020154604080519182529181018590520160405180910390a160248381548110613edb57613edb61568f565b600091825260208220600690910201818155600181018290556002810182905560038101829055600481018290556005015550613f279050565b80613f1f81615871565b915050613b11565b508015613f3357505050565b6023805460009182613f4483615871565b91905055905060006040518060400160405280600542613f649190615ae4565b613f6f906002615859565b8152602001613f7f600242615ae4565b81525090508160216000336001600160a01b03166001600160a01b031681526020019081526020016000208190555060246040518060a0016040528084815260200160018152602001600a600d8981548110613fdd57613fdd61568f565b6000918252602090912060046009909202010154613ffe919060ff166157c6565b6140099060016158c4565b60ff1681526020018381526020016064600d898154811061402c5761402c61568f565b9060005260206000209060090201600101546140489190615ae4565b905281546001818101845560009384526020938490208351600690930201918255838301519082015560408201516002820155606082015180516003830155909201516004830155608001516005909101555050505050565b6140a961429b565b6000866140b542614812565b6040516020016140c6929190615a85565b60405160208183030381529060405290506000816040516020016140ea9190615aab565b6040516020818303038152906040528051906020012060001c90506000614113888860006130a3565b9050600061412287600061284b565b600d805460408051610120810182528e815260208082018990529181018790526060810185905260ff8b166080820152600060a0820181905260c0820181905260e08201819052610100820184905260018401855593909352825180519495509193600985027fd7b6990105719101dabeb77144f2a3385c8033acd3af97e9423a695e81ad1eb501926141b9928492910190614f2b565b506020828101516001830155604080840151600284015560608401516003840155608084015160048401805460ff90921660ff1990921691909117905560a0840151600584015560c0840151600684015560e0840151600784015561010090930151600890920191909155600080548482526010835283822080546001600160a01b0319166001600160a01b039283161790558154168152601390915290812080549161426583615871565b90915550506000818152601660205260408120879055600880549161428983615871565b91905055505050505050505050505050565b6000546001600160a01b03163314611dd15760405162461bcd60e51b815260206004820181905260248201527f4f776e61626c653a2063616c6c6572206973206e6f7420746865206f776e6572604482015260640161106f565b6000828152601060205260408120548190614318906001600160a01b03166119fd565b90506143278160000151614c8f565b6000600d858154811061433c5761433c61568f565b9060005260206000209060090201600201549050600060019050600a85600e848154811061436c5761436c61568f565b906000526020600020906002020160010160029054906101000a900460ff16614395919061580b565b60ff16106143e657600a600e83815481106143b2576143b261568f565b60009182526020909120600290910201600101546143d99062010000900460ff168761580b565b6143e391906157c6565b90505b8060ff1660018460000151815481106144015761440161568f565b600091825260209091206003909102016001015462010000900460ff161061448b5780600184600001518154811061443b5761443b61568f565b906000526020600020906003020160010160028282829054906101000a900460ff1661446791906157e8565b92506101000a81548160ff021916908360ff160217905550600193505050506113a2565b600093505050506113a2565b600080546001600160a01b038381166001600160a01b0319831681178455604051919092169283917f8be0079c531659141344cd1fd0a4f28419497f9722a3daafe3b4186f6b6457e09190a35050565b6001600160a01b03831660009081526013602052604090205415158061451a57506000546001600160a01b038481169116145b61455c5760405162461bcd60e51b815260206004820152601360248201527234ba1034b9903cb7bab9103630b9ba1031b0b960691b604482015260640161106f565b600d818154811061456f5761456f61568f565b9060005260206000209060090201600301546000146145b3576000600d828154811061459d5761459d61568f565b9060005260206000209060090201600301819055505b600d81815481106145c6576145c661568f565b90600052602060002090600902016002015460001461460a576000600d82815481106145f4576145f461568f565b9060005260206000209060090201600201819055505b6001600160a01b038216600090815260136020526040812080549161462e83615871565b90915550506001600160a01b038316600090815260136020526040812080549161465783615743565b9091555050600090815260106020908152604080832080546001600160a01b0319166001600160a01b039590951694909417909355601690529081205550565b6001600160a01b0383166000908152601460205260409020541515806146ca57506000546001600160a01b038481169116145b61470f5760405162461bcd60e51b8152602060048201526016602482015275697420697320796f7572206c61737420656e67696e6560501b604482015260640161106f565b600061471a84612b16565b905060005b8151811015614783578282828151811061473b5761473b61568f565b602002602001015160400151036147715760008282815181106147605761476061568f565b602002602001015160400181815250505b8061477b81615871565b91505061471f565b506001600160a01b03831660009081526014602052604081208054916147a883615871565b90915550506001600160a01b03841660009081526014602052604081208054916147d183615743565b909155505050600090815260116020908152604080832080546001600160a01b0319166001600160a01b039590951694909417909355601790529081205550565b6060600061481f83614dee565b600101905060008167ffffffffffffffff81111561483f5761483f61536e565b6040519080825280601f01601f191660200182016040528015614869576020820181803683370190505b5090508181016020015b600019016f181899199a1a9b1b9c1cb0b131b232b360811b600a86061a8153600a850494508461487357509392505050565b6000806003546004546148b89190615b39565b6148c29042615ae4565b6003546148cf9190615859565b600b805491925060009190826148e483615871565b909155506040805160608101825282815261ffff808616602080840191825260055460ff908116858701908152600e80546001810182556000918252965160029097027fbb7b4a454dc3493923482f07822329ed19e8244eff582cc204f8554c3620c3fd81019790975593517fbb7b4a454dc3493923482f07822329ed19e8244eff582cc204f8554c3620c3fe90960180549151909216620100000262ffffff19909116959094169490941792909217909255338252601490529081208054929350906149b083615871565b9091555050600081815260116020526040902080546001600160a01b0319163317905592915050565b6000806006546007546149ec9190615b39565b6149f69042615ae4565b600654614a039190615859565b600c80549192506000919082614a1883615871565b909155506040805160608101825282815263ffffffff8086166020808401828152848601928352600f80546001810182556000918252955160029096027f8d1108e10bcb7c27dddfc02ed9d693a074039d026cf4ea4240b40f7d581ac80281019690965590517f8d1108e10bcb7c27dddfc02ed9d693a074039d026cf4ea4240b40f7d581ac8039095018054935185166401000000000267ffffffffffffffff1990941695909416949094179190911790915533825260159052908120805492935090614ae483615871565b9091555050600081815260126020526040902080546001600160a01b0319163317905592915050565b6001600160a01b038316600090815260156020526040902054151580614b4057506000546001600160a01b038481169116145b614b8c5760405162461bcd60e51b815260206004820152601760248201527f697420697320796f7572206c6173742063686173736973000000000000000000604482015260640161106f565b6001600160a01b0382166000908152601560205260408120805491614bb083615871565b90915550506001600160a01b0383166000908152601560205260408120805491614bd983615743565b91905055506000614be984612b16565b905060005b8151811015614c525782828281518110614c0a57614c0a61568f565b60200260200101516060015103614c40576000828281518110614c2f57614c2f61568f565b602002602001015160600181815250505b80614c4a81615871565b915050614bee565b5050600090815260126020908152604080832080546001600160a01b0319166001600160a01b039590951694909417909355601890529081205550565b60004290506000610e1060018481548110614cac57614cac61568f565b90600052602060002090600302016002015483614cc99190615b39565b614cd39190615b50565b9050600060018481548110614cea57614cea61568f565b6000918252602090912060039091020160010154614d1090610100900460ff168361575a565b60018581548110614d2357614d2361568f565b6000918252602090912060039091020160010154614d4a919062010000900460ff16615859565b9050614d8360018581548110614d6257614d6261568f565b600091825260209091206001600390920201015460ff908116908316614ec6565b60018581548110614d9657614d9661568f565b906000526020600020906003020160010160026101000a81548160ff021916908360ff1602179055508260018581548110614dd357614dd361568f565b90600052602060002090600302016002018190555050505050565b60008072184f03e93ff9f4daa797ed6e38ed64bf6a1f0160401b8310614e2d5772184f03e93ff9f4daa797ed6e38ed64bf6a1f0160401b830492506040015b6d04ee2d6d415b85acef81000000008310614e59576d04ee2d6d415b85acef8100000000830492506020015b662386f26fc100008310614e7757662386f26fc10000830492506010015b6305f5e1008310614e8f576305f5e100830492506008015b6127108310614ea357612710830492506004015b60648310614eb5576064830492506002015b600a83106113a25760010192915050565b6000818310614ed5578161139f565b5090919050565b60405180610120016040528060608152602001600081526020016000815260200160008152602001600060ff168152602001600081526020016000815260200160008152602001600081525090565b828054614f379061588a565b90600052602060002090601f016020900481019282614f595760008555614f9f565b82601f10614f7257805160ff1916838001178555614f9f565b82800160010185558215614f9f579182015b82811115614f9f578251825591602001919060010190614f84565b50614fab929150614faf565b5090565b5b80821115614fab5760008155600101614fb0565b600060208284031215614fd657600080fd5b5035919050565b803560ff81168114614fee57600080fd5b919050565b6000806040838503121561500657600080fd5b8235915061501660208401614fdd565b90509250929050565b80356001600160a01b0381168114614fee57600080fd5b60008060006060848603121561504b57600080fd5b6150548461501f565b92506150626020850161501f565b91506150706040850161501f565b90509250925092565b60006020828403121561508b57600080fd5b61139f8261501f565b602080825282518282018190526000919060409081850190868401855b828110156150f657815180516001600160a01b0316855286810151151587860152858101518686015260609081015190850152608090930192908501906001016150b1565b5091979650505050505050565b602080825282518282018190526000919060409081850190868401855b828110156150f6578151805185528681015161ffff168786015285015160ff168585015260609093019290850190600101615120565b6000806040838503121561516957600080fd5b50508035926020909101359150565b602080825282518282018190526000919060409081850190868401855b828110156150f6578151805185528681015163ffffffff9081168887015290860151168585015260609093019290850190600101615195565b60005b838110156151e95781810151838201526020016151d1565b838111156151f8576000848401525b50505050565b600081518084526152168160208601602086016151ce565b601f01601f19169290920160200192915050565b60006020808301818452808551808352604092508286019150828160051b87010184880160005b838110156152e657603f1989840301855281516101208151818652615278828701826151fe565b9150508882015189860152878201518886015260608083015181870152506080808301516152aa8288018260ff169052565b505060a0828101519086015260c0808301519086015260e080830151908601526101009182015191909401529386019390860190600101615251565b509098975050505050505050565b60008060006060848603121561530957600080fd5b6153128461501f565b92506153206020850161501f565b9150604084013590509250925092565b803563ffffffff81168114614fee57600080fd5b6000806040838503121561535757600080fd5b61536083615330565b946020939093013593505050565b634e487b7160e01b600052604160045260246000fd5b604051601f8201601f1916810167ffffffffffffffff811182821017156153ad576153ad61536e565b604052919050565b600080604083850312156153c857600080fd5b8235915060208084013567ffffffffffffffff808211156153e857600080fd5b818601915086601f8301126153fc57600080fd5b81358181111561540e5761540e61536e565b8060051b915061541f848301615384565b818152918301840191848101908984111561543957600080fd5b938501935b838510156154575784358252938501939085019061543e565b8096505050505050509250929050565b803561ffff81168114614fee57600080fd5b60008060006060848603121561548e57600080fd5b61549784615467565b925061532060208501614fdd565b600082601f8301126154b657600080fd5b813567ffffffffffffffff8111156154d0576154d061536e565b6154e3601f8201601f1916602001615384565b8181528460208386010111156154f857600080fd5b816020850160208301376000918101602001919091529392505050565b60006020828403121561552757600080fd5b813567ffffffffffffffff81111561553e57600080fd5b61320a848285016154a5565b600061012080835261555e8184018d6151fe565b602084019b909b5250506040810197909752606087019590955260ff93909316608086015260a085019190915260c084015260e083015261010090910152919050565b60008060008060008060c087890312156155ba57600080fd5b863567ffffffffffffffff8111156155d157600080fd5b6155dd89828a016154a5565b9650506155ec60208801615467565b94506155fa60408801614fdd565b935061560860608801615330565b925061561660808801614fdd565b915060a087013590509295509295509295565b60208082526022908201527f796f75277265206e6f74206f776e657220666f72207468697320436861737369604082015261732160f01b606082015260800190565b6020808252600a90820152691ddc9bdb99c818dbdcdd60b21b604082015260600190565b634e487b7160e01b600052603260045260246000fd5b634e487b7160e01b600052601160045260246000fd5b600063ffffffff8083168185168083038211156156da576156da6156a5565b01949350505050565b600060ff821660ff81036156f9576156f96156a5565b60010192915050565b60208082526021908201527f796f75277265206e6f74206f776e657220666f72207468697320456e67696e656040820152602160f81b606082015260800190565b600081615752576157526156a5565b506000190190565b6000816000190483118215151615615774576157746156a5565b500290565b6020808252601e908201527f796f75277265206e6f74206f776e657220666f72207468697320436172210000604082015260600190565b634e487b7160e01b600052601260045260246000fd5b600060ff8316806157d9576157d96157b0565b8060ff84160491505092915050565b600060ff821660ff841680821015615802576158026156a5565b90039392505050565b600060ff821660ff84168160ff048111821515161561582c5761582c6156a5565b029392505050565b600063ffffffff83811690831681811015615851576158516156a5565b039392505050565b6000821982111561586c5761586c6156a5565b500190565b600060018201615883576158836156a5565b5060010190565b600181811c9082168061589e57607f821691505b6020821081036158be57634e487b7160e01b600052602260045260246000fd5b50919050565b600060ff821660ff84168060ff038211156158e1576158e16156a5565b019392505050565b6020808252600d908201526c696e76616c696420707269636560981b604082015260600190565b600060ff821680615923576159236156a5565b6000190192915050565b6000604082018483526020604081850152818551808452606086019150828701935060005b8181101561596e57845183529383019391830191600101615952565b5090979650505050505050565b60006020828403121561598d57600080fd5b8151801515811461139f57600080fd5b600181815b808511156159d85781600019048211156159be576159be6156a5565b808516156159cb57918102915b93841c93908002906159a2565b509250929050565b6000826159ef575060016113a2565b816159fc575060006113a2565b8160018114615a125760028114615a1c57615a38565b60019150506113a2565b60ff841115615a2d57615a2d6156a5565b50506001821b6113a2565b5060208310610133831016604e8410600b8410161715615a5b575081810a6113a2565b615a65838361599d565b806000190482111561582c5761582c6156a5565b600061139f83836159e0565b60008351615a978184602088016151ce565b8351908301906156da8183602088016151ce565b60008251615abd8184602087016151ce565b9190910192915050565b600061ffff8083168185168083038211156156da576156da6156a5565b600082615af357615af36157b0565b500690565b838152826020820152606060408201526000615b1760608301846151fe565b95945050505050565b600060208284031215615b3257600080fd5b5051919050565b600082821015615b4b57615b4b6156a5565b500390565b600082615b5f57615b5f6157b0565b50049056fea2646970667358221220fda43a466ebe478de2bd39957b73e25a332124297486dad9699e4badb42556d964736f6c634300080d0033",
  "immutableReferences": {},
  "source": "// SPDX-License-Identifier: MIT\npragma solidity ^0.8.13;\n\nimport \"./CarRacing.sol\";\n\n/// @title token owner\ncontract TokenOwnership is CarRacing{\n\n\n\n    address chassisOwnership;\n    address engineOwnership;\n    address carOwnership;\n\n    function init(address _chassisOwnership, address _engineOwnership, address _carOwnership) public onlyOwner{\n        chassisOwnership = _chassisOwnership;\n        engineOwnership = _engineOwnership;\n        carOwnership = _carOwnership;\n    }\n\n    /// @notice number of user cars\n    /// @param _owner owner address\n    /// @return uint256 number of cars\n    function balanceOfCars(address _owner) external view returns (uint256) {\n        return ownerCarCount[_owner];\n    }\n\n    /// @notice car owner\n    /// @param _tokenId car id token\n    /// @return address owner adress\n    function ownerOfCar(uint256 _tokenId) external view returns(address) {\n        return carToOwner[_tokenId];\n    }\n\n    /// @notice car token transfer\n    /// @param _from sender's address\n    /// @param _to address of the recipient\n    /// @param _tokenId car id token\n    /// @dev the car is sold disassembled (without chassis and engine), chassis and engine remain with the sender\n    function _transferCar(address _from, address _to, uint256 _tokenId) private {\n        require(ownerCarCount[_from]>0 || _from==owner(), \"it is your last car\");\n\n        if(cars[_tokenId].chassisId != 0){\n            cars[_tokenId].chassisId = 0;\n        }\n        if(cars[_tokenId].engineId != 0){\n            cars[_tokenId].engineId = 0;\n        }\n        ownerCarCount[_to]++;// = ownerCarCount[_to].add(1);\n        ownerCarCount[_from]--;// = ownerCarCount[_from].sub(1);\n        carToOwner[_tokenId] = _to;\n        delete carToPrice[_tokenId];\n    }\n    \n    /// @notice moving car after payment\n    /// @param _from sender's address\n    /// @param _to address of the recipient\n    /// @param _tokenId token id\n    /// @dev call function for moving car after payment\n    function transferCarFrom(address _from, address _to, uint256 _tokenId) external {\n        require(msg.sender == carOwnership, \"you are not car ownership\");\n        require (carToOwner[_tokenId] == _from || carToPrice[_tokenId] != 0);\n        _transferCar(_from, _to, _tokenId);\n    }\n\n\n    /// @notice number of user engines\n    /// @param _owner owner address\n    /// @return uint256 number of owner engine\n    function balanceOfEngines(address _owner) external view returns (uint256) {\n        return ownerEngineCount[_owner];\n    }\n\n    /// @notice owner of engine\n    /// @param _tokenId token id\n    /// @return address owner address\n    function ownerOfEngine(uint256 _tokenId) external view returns(address) {\n        return engineToOwner[_tokenId];\n    }\n\n    /// @notice engine token transfer\n    /// @param _from sender's address\n    /// @param _to address of the recipient\n    /// @param _tokenId engine id token\n    function _transferEngine(address _from, address _to, uint256 _tokenId) private {\n        require(ownerEngineCount[_from]>0 || _from==owner(), \"it is your last engine\");\n\n        Car[] memory cars = getCarsByOwner(_from);\n        \n        for(uint i = 0; i<cars.length; i++){\n            if(cars[i].engineId == _tokenId){\n                cars[i].engineId = 0;\n            }\n        }\n        ownerEngineCount[_to]++;// = ownerEngineCount[_to].add(1);\n        ownerEngineCount[_from]--;// = ownerEngineCount[_from].sub(1);\n        engineToOwner[_tokenId] = _to;\n        \n        delete engineToPrice[_tokenId];\n    }\n\n    /// @notice moving engine from sender\n    /// @param _from sender's address\n    /// @param _to address of the recipient\n    /// @param _tokenId engine id token\n    /// @dev call function for moving engine from sender after payment\n    function transferEngineFrom(address _from, address _to, uint256 _tokenId) external {\n        require(msg.sender == engineOwnership, \"you are not engine ownership\");\n        require (engineToOwner[_tokenId] == _from);\n        _transferEngine(_from, _to, _tokenId);\n    }\n    \n\n    /// @notice number of user chassis\n    /// @param _owner owner address\n    /// @return uint256 number of owner chassis\n    function balanceOfChassis(address _owner) external view returns (uint256) {\n        return ownerChassisCount[_owner];\n    }\n\n    /// @notice chassis owner\n    /// @param _tokenId chassis id token\n    /// @return address owner adress\n    function ownerOfChassis(uint256 _tokenId) external view returns(address) {\n        return chassisToOwner[_tokenId];\n    }\n\n    /// @notice transfer chassis\n    /// @param _from sender's address\n    /// @param _to address of the recipient\n    /// @param _tokenId chassis id token\n    /// @dev add chassis to recipient\n    function _transferChassis(address _from, address _to, uint256 _tokenId) private {\n        require(ownerChassisCount[_from]>0 || _from==owner(), \"it is your last chassis\");\n\n        ownerChassisCount[_to]++;// = ownerChassisCount[_to].add(1);\n        ownerChassisCount[_from]--;// = ownerChassisCount[_from].sub(1);\n        Car[] memory cars = getCarsByOwner(_from);\n        for(uint i = 0; i<cars.length; i++){\n            if(cars[i].chassisId == _tokenId){\n                cars[i].chassisId = 0;\n            }\n        }\n        chassisToOwner[_tokenId] = _to;\n\n        delete chassisToPrice[_tokenId];\n    }\n\n    /// @notice moving chassis after payment\n    /// @param _from sender's address\n    /// @param _to address of the recipient\n    /// @param _tokenId token id\n    /// @dev call function for moving chassis after payment\n    function transferChassisFrom(address _from, address _to, uint256 _tokenId) external {\n        require(msg.sender == chassisOwnership, \"you are not chassis ownership\");\n        require (chassisToOwner[_tokenId] == _from);\n        _transferChassis(_from, _to, _tokenId);\n    }\n\n\n    /// @notice selling chassis from owner on marketplace\n    /// @param chassisId chassis id\n    /// @param price chassis cost\n    /// @dev using only for owner chassis\n    function putChassisOnMarketplace(uint chassisId, uint price) public onlyOwnerOfChassis(chassisId){\n        require(ownerChassisCount[chassisToOwner[chassisId]] > 1 || msg.sender == owner(), \"you can't sale last chassis!\");\n        require(price>0, \"invalid price\");\n        if(chassisToPrice[chassisId]==0){\n            chassisForSaleCount++;\n        }\n        chassisToPrice[chassisId] = price;\n    }\n\n    /// @notice withdraw chassis from marketplace\n    /// @param chassisId chassis id\n    /// @dev using only for owner chassis\n    function removeChassisFromMarketplace(uint chassisId) public onlyOwnerOfChassis(chassisId){\n        if(chassisToPrice[chassisId]!=0){\n            chassisForSaleCount--;\n        }\n        chassisToPrice[chassisId] = 0;\n    }\n\n    /// @notice selling engine from owner on marketplace\n    /// @param engineId engine id\n    /// @param price engine cost\n    /// @dev using only for owner engine\n    function putEngineOnMarketplace(uint engineId, uint price) public onlyOwnerOfEngine(engineId){\n        require(ownerEngineCount[engineToOwner[engineId]] > 1 || msg.sender == owner(), \"you can't sale last engine!\");\n        require(price>0, \"invalid price\");\n        if(engineToPrice[engineId]==0){\n            enginesForSaleCount++;\n        }\n        engineToPrice[engineId] = price;\n    }\n\n    /// @notice withdraw engine from marketplace\n    /// @param engineId engine id\n    /// @dev using only for owner engine\n    function removeEngineFromMarketplace(uint engineId) public onlyOwnerOfEngine(engineId){\n        if(engineToPrice[engineId]!=0){\n            enginesForSaleCount--;\n        }\n        engineToPrice[engineId] = 0;\n    }\n\n    /// @notice selling car from owner on marketplace\n    /// @param carId car id\n    /// @param price car cost\n    /// @dev using only for owner car\n    function putCarOnMarketplace(uint carId, uint price) public onlyOwnerOfCar(carId){\n        require(ownerCarCount[carToOwner[carId]] > 1 || msg.sender == owner(), \"you can't sale last car!\");\n        require(price>0, \"invalid price\");\n        if(carToPrice[carId]==0){\n            carsForSaleCount++;\n        }\n        carToPrice[carId] = price;\n    }\n\n    /// @notice withdraw car from marketplace\n    /// @param carId car id\n    /// @dev using only for owner car\n    function removeCarFromMarketplace(uint carId) public onlyOwnerOfCar(carId){\n        if(carToPrice[carId]!=0){\n            carsForSaleCount--;\n        }\n        carToPrice[carId] = 0;\n    }\n\n\n    function getCarsForSale() public view returns(Car[] memory){\n        Car[] memory res = new Car[](carsForSaleCount);\n        uint c = 0;\n        for(uint i = 0; i<cars.length; i++){\n            if(carToPrice[i]!=0){\n                res[c++] = cars[i];\n            }\n        }\n        return res;\n    }\n\n    function getEnginesForSale() public view returns(Engine[] memory){\n        Engine[] memory res = new Engine[](enginesForSaleCount);\n        uint c = 0;\n        for(uint i = 1; i<engines.length; i++){\n            if(engineToPrice[i]!=0){\n                res[c++] = engines[i];\n            }\n        }\n        return res;\n    }\n\n    function getChassisForSale() public view returns(Chassis[] memory){\n        Chassis[] memory res = new Chassis[](chassisForSaleCount);\n        uint c = 0;\n        for(uint i = 1; i<chassis.length; i++){\n            if(chassisToPrice[i]!=0){\n                res[c++] = chassis[i];\n            }\n        }\n        return res;\n    }\n\n}",
  "sourcePath": "/Users/vvan/Programming/JavaScript/DriveSafely/contract/contracts/TokenOwnership.sol",
  "compiler": {
    "name": "solc",
    "version": "0.8.13+commit.abaa5c0e.Emscripten.clang"
  },
  "schemaVersion": "3.4.11",
  "updatedAt": "2023-01-12T18:53:59.588Z",
  "networkType": "ethereum",
  "devdoc": {
    "kind": "dev",
    "methods": {
      "balanceOfCars(address)": {
        "params": {
          "_owner": "owner address"
        },
        "returns": {
          "_0": "uint256 number of cars"
        }
      },
      "balanceOfChassis(address)": {
        "params": {
          "_owner": "owner address"
        },
        "returns": {
          "_0": "uint256 number of owner chassis"
        }
      },
      "balanceOfEngines(address)": {
        "params": {
          "_owner": "owner address"
        },
        "returns": {
          "_0": "uint256 number of owner engine"
        }
      },
      "commitAnswer(uint256,uint256[])": {
        "params": {
          "answer": "?",
          "roomId": "room id"
        }
      },
      "createCar(string)": {
        "details": "creating new car for user",
        "params": {
          "model": "car model"
        }
      },
      "createCustomCar(string,uint16,uint8,uint32,uint8,uint256)": {
        "details": "creation car for customer with different characteristics",
        "params": {
          "_carLevel": "car level",
          "_carPrice": "car price",
          "_consumtion": "car consumtion",
          "_durability": "car durability",
          "_horsePowers": "car horse powers",
          "_model": "car model"
        }
      },
      "createCustomChassis(uint32,uint256)": {
        "params": {
          "_chassisPrice": "chassis price",
          "_durability": "car durability"
        },
        "returns": {
          "_0": "id new chassis"
        }
      },
      "createCustomEngine(uint16,uint8,uint256)": {
        "params": {
          "_consumtion": "car consumtion",
          "_enginePrice": "car engine price",
          "_horsePowers": "car horse powers"
        },
        "returns": {
          "_0": "id new engine"
        }
      },
      "detachChassis(uint256,uint256)": {
        "details": "for installation new chassis",
        "params": {
          "carId": "car id",
          "chassisId": "chassis id"
        }
      },
      "detachEngine(uint256,uint256)": {
        "details": "for installation new engine",
        "params": {
          "carId": "car id",
          "engineId": "engine id"
        }
      },
      "findRoom(uint256)": {
        "details": "if exist appropriate room for current user, user start competition in this room, else add new room",
        "params": {
          "carId": "car id"
        }
      },
      "getCarsByOwner(address)": {
        "params": {
          "_owner": "owner's address"
        },
        "returns": {
          "_0": "Car[] memory owner's list of cars"
        }
      },
      "getChassisByOwner(address)": {
        "params": {
          "_owner": "owner's address"
        },
        "returns": {
          "_0": "Chassis[] memory owner's list of engines"
        }
      },
      "getClosedRoom(uint256)": {
        "details": "called after receiving the event about sending the last response to the room",
        "params": {
          "roomId": "room id"
        },
        "returns": {
          "_0": "Answer[] memory list with player response, player, player car and response time"
        }
      },
      "getEnginesByOwner(address)": {
        "params": {
          "_owner": "owner's address"
        },
        "returns": {
          "_0": "Engine[] memory owner's list of engines"
        }
      },
      "getFuelStationByOwner(address)": {
        "details": "exist only one",
        "params": {
          "_owner": "owner's address"
        },
        "returns": {
          "_0": "FuelStation memory one owner fuel station"
        }
      },
      "levelUp(uint256)": {
        "params": {
          "_carId": "car id"
        }
      },
      "owner()": {
        "details": "Returns the address of the current owner."
      },
      "ownerOfCar(uint256)": {
        "params": {
          "_tokenId": "car id token"
        },
        "returns": {
          "_0": "address owner adress"
        }
      },
      "ownerOfChassis(uint256)": {
        "params": {
          "_tokenId": "chassis id token"
        },
        "returns": {
          "_0": "address owner adress"
        }
      },
      "ownerOfEngine(uint256)": {
        "params": {
          "_tokenId": "token id"
        },
        "returns": {
          "_0": "address owner address"
        }
      },
      "putCarOnMarketplace(uint256,uint256)": {
        "details": "using only for owner car",
        "params": {
          "carId": "car id",
          "price": "car cost"
        }
      },
      "putChassisOnMarketplace(uint256,uint256)": {
        "details": "using only for owner chassis",
        "params": {
          "chassisId": "chassis id",
          "price": "chassis cost"
        }
      },
      "putEngineOnMarketplace(uint256,uint256)": {
        "details": "using only for owner engine",
        "params": {
          "engineId": "engine id",
          "price": "engine cost"
        }
      },
      "removeCarFromMarketplace(uint256)": {
        "details": "using only for owner car",
        "params": {
          "carId": "car id"
        }
      },
      "removeChassisFromMarketplace(uint256)": {
        "details": "using only for owner chassis",
        "params": {
          "chassisId": "chassis id"
        }
      },
      "removeEngineFromMarketplace(uint256)": {
        "details": "using only for owner engine",
        "params": {
          "engineId": "engine id"
        }
      },
      "renounceOwnership()": {
        "details": "Leaves the contract without owner. It will not be possible to call `onlyOwner` functions anymore. Can only be called by the current owner. NOTE: Renouncing ownership will leave the contract without an owner, thereby removing any functionality that is only available to the owner."
      },
      "startRace(uint256)": {
        "params": {
          "_carId": "car id"
        }
      },
      "switchChassis(uint256,uint256)": {
        "params": {
          "carId": "car id",
          "chassisId": "chassis id"
        }
      },
      "switchEngine(uint256,uint256)": {
        "params": {
          "carId": "car id",
          "engineId": "engine id"
        }
      },
      "transferCarFrom(address,address,uint256)": {
        "details": "call function for moving car after payment",
        "params": {
          "_from": "sender's address",
          "_to": "address of the recipient",
          "_tokenId": "token id"
        }
      },
      "transferChassisFrom(address,address,uint256)": {
        "details": "call function for moving chassis after payment",
        "params": {
          "_from": "sender's address",
          "_to": "address of the recipient",
          "_tokenId": "token id"
        }
      },
      "transferEngineFrom(address,address,uint256)": {
        "details": "call function for moving engine from sender after payment",
        "params": {
          "_from": "sender's address",
          "_to": "address of the recipient",
          "_tokenId": "engine id token"
        }
      },
      "transferOwnership(address)": {
        "details": "Transfers ownership of the contract to a new account (`newOwner`). Can only be called by the current owner."
      },
      "upgradeCapacity(uint256,uint8)": {
        "params": {
          "_counts": "size",
          "_fuelStatonId": "fuel station id"
        }
      },
      "upgradeConsumtion(uint256)": {
        "params": {
          "_engineId": "engine id"
        }
      },
      "upgradeDurability(uint256,uint8)": {
        "params": {
          "_chassisId": "chassis id",
          "_counts": "size"
        }
      },
      "upgradeHorsePowers(uint256,uint8)": {
        "params": {
          "_counts": "size",
          "_engineId": "engine id"
        }
      },
      "upgradeProductionPerHour(uint256,uint8)": {
        "params": {
          "_counts": "size",
          "_fuelStatonId": "fuel station id"
        }
      }
    },
    "title": "token owner",
    "version": 1
  },
  "userdoc": {
    "kind": "user",
    "methods": {
      "balanceOfCars(address)": {
        "notice": "number of user cars"
      },
      "balanceOfChassis(address)": {
        "notice": "number of user chassis"
      },
      "balanceOfEngines(address)": {
        "notice": "number of user engines"
      },
      "commitAnswer(uint256,uint256[])": {
        "notice": "commit ans"
      },
      "createCar(string)": {
        "notice": "creating car"
      },
      "createCustomCar(string,uint16,uint8,uint32,uint8,uint256)": {
        "notice": "customer car creation    (    )"
      },
      "createCustomChassis(uint32,uint256)": {
        "notice": "customer chassis creation"
      },
      "createCustomEngine(uint16,uint8,uint256)": {
        "notice": "customer engine creation"
      },
      "detachChassis(uint256,uint256)": {
        "notice": "removal of the old chassis"
      },
      "detachEngine(uint256,uint256)": {
        "notice": "removal of the old engine"
      },
      "findRoom(uint256)": {
        "notice": "search room for competition"
      },
      "getCarsByOwner(address)": {
        "notice": "list of owner cars"
      },
      "getChassisByOwner(address)": {
        "notice": "list of owner chassis"
      },
      "getClosedRoom(uint256)": {
        "notice": "get closed room"
      },
      "getEnginesByOwner(address)": {
        "notice": "list of owner engines"
      },
      "getFuelStationByOwner(address)": {
        "notice": "fuel station of owner"
      },
      "levelUp(uint256)": {
        "notice": "upgrade car level"
      },
      "ownerOfCar(uint256)": {
        "notice": "car owner"
      },
      "ownerOfChassis(uint256)": {
        "notice": "chassis owner"
      },
      "ownerOfEngine(uint256)": {
        "notice": "owner of engine"
      },
      "putCarOnMarketplace(uint256,uint256)": {
        "notice": "selling car from owner on marketplace"
      },
      "putChassisOnMarketplace(uint256,uint256)": {
        "notice": "selling chassis from owner on marketplace"
      },
      "putEngineOnMarketplace(uint256,uint256)": {
        "notice": "selling engine from owner on marketplace"
      },
      "removeCarFromMarketplace(uint256)": {
        "notice": "withdraw car from marketplace"
      },
      "removeChassisFromMarketplace(uint256)": {
        "notice": "withdraw chassis from marketplace"
      },
      "removeEngineFromMarketplace(uint256)": {
        "notice": "withdraw engine from marketplace"
      },
      "startRace(uint256)": {
        "notice": "start race"
      },
      "switchChassis(uint256,uint256)": {
        "notice": "changing chassis in owner's car"
      },
      "switchEngine(uint256,uint256)": {
        "notice": "changing engine in owner's car"
      },
      "transferCarFrom(address,address,uint256)": {
        "notice": "moving car after payment"
      },
      "transferChassisFrom(address,address,uint256)": {
        "notice": "moving chassis after payment"
      },
      "transferEngineFrom(address,address,uint256)": {
        "notice": "moving engine from sender"
      },
      "upgradeCapacity(uint256,uint8)": {
        "notice": "upgrade capacity of fuel station"
      },
      "upgradeConsumtion(uint256)": {
        "notice": "upgrade consumption"
      },
      "upgradeDurability(uint256,uint8)": {
        "notice": "upgrade durability"
      },
      "upgradeHorsePowers(uint256,uint8)": {
        "notice": "upgrade horse powers"
      },
      "upgradeProductionPerHour(uint256,uint8)": {
        "notice": "upgrade production on per hour"
      }
    },
    "version": 1
  }
}