{
  "contractName": "TokenOwnership",
  "abi": [
    {
      "anonymous": false,
      "inputs": [
        {
          "indexed": true,
          "internalType": "address",
          "name": "previousOwner",
          "type": "address"
        },
        {
          "indexed": true,
          "internalType": "address",
          "name": "newOwner",
          "type": "address"
        }
      ],
      "name": "OwnershipTransferred",
      "type": "event"
    },
    {
      "anonymous": false,
      "inputs": [
        {
          "indexed": false,
          "internalType": "uint256",
          "name": "roomId",
          "type": "uint256"
        }
      ],
      "name": "RoomClosed",
      "type": "event"
    },
    {
      "anonymous": false,
      "inputs": [
        {
          "indexed": false,
          "internalType": "uint256",
          "name": "roomId",
          "type": "uint256"
        },
        {
          "indexed": false,
          "internalType": "uint256",
          "name": "roomDNA",
          "type": "uint256"
        }
      ],
      "name": "RoomFull",
      "type": "event"
    },
    {
      "inputs": [
        {
          "internalType": "uint256",
          "name": "",
          "type": "uint256"
        }
      ],
      "name": "carToOwner",
      "outputs": [
        {
          "internalType": "address",
          "name": "",
          "type": "address"
        }
      ],
      "stateMutability": "view",
      "type": "function"
    },
    {
      "inputs": [
        {
          "internalType": "uint256",
          "name": "",
          "type": "uint256"
        }
      ],
      "name": "cars",
      "outputs": [
        {
          "internalType": "string",
          "name": "model",
          "type": "string"
        },
        {
          "internalType": "uint256",
          "name": "vin",
          "type": "uint256"
        },
        {
          "internalType": "uint256",
          "name": "engineId",
          "type": "uint256"
        },
        {
          "internalType": "uint256",
          "name": "chassisId",
          "type": "uint256"
        },
        {
          "internalType": "uint8",
          "name": "carLevel",
          "type": "uint8"
        },
        {
          "internalType": "uint256",
          "name": "mileage",
          "type": "uint256"
        },
        {
          "internalType": "uint256",
          "name": "winCountOnCurrentLevel",
          "type": "uint256"
        },
        {
          "internalType": "uint256",
          "name": "lossCountOnCurrentLevel",
          "type": "uint256"
        }
      ],
      "stateMutability": "view",
      "type": "function"
    },
    {
      "inputs": [
        {
          "internalType": "uint256",
          "name": "",
          "type": "uint256"
        }
      ],
      "name": "chassis",
      "outputs": [
        {
          "internalType": "uint256",
          "name": "id",
          "type": "uint256"
        },
        {
          "internalType": "uint32",
          "name": "durability",
          "type": "uint32"
        },
        {
          "internalType": "uint32",
          "name": "resource",
          "type": "uint32"
        }
      ],
      "stateMutability": "view",
      "type": "function"
    },
    {
      "inputs": [
        {
          "internalType": "uint256",
          "name": "",
          "type": "uint256"
        }
      ],
      "name": "chassisToOwner",
      "outputs": [
        {
          "internalType": "address",
          "name": "",
          "type": "address"
        }
      ],
      "stateMutability": "view",
      "type": "function"
    },
    {
      "inputs": [
        {
          "internalType": "uint256",
          "name": "roomId",
          "type": "uint256"
        },
        {
          "internalType": "uint256[]",
          "name": "answer",
          "type": "uint256[]"
        }
      ],
      "name": "commitAnswer",
      "outputs": [],
      "stateMutability": "nonpayable",
      "type": "function"
    },
    {
      "inputs": [
        {
          "internalType": "string",
          "name": "model",
          "type": "string"
        }
      ],
      "name": "createCar",
      "outputs": [],
      "stateMutability": "nonpayable",
      "type": "function"
    },
    {
      "inputs": [],
      "name": "createFuelStation",
      "outputs": [],
      "stateMutability": "nonpayable",
      "type": "function"
    },
    {
      "inputs": [
        {
          "internalType": "uint256",
          "name": "",
          "type": "uint256"
        }
      ],
      "name": "engineToOwner",
      "outputs": [
        {
          "internalType": "address",
          "name": "",
          "type": "address"
        }
      ],
      "stateMutability": "view",
      "type": "function"
    },
    {
      "inputs": [
        {
          "internalType": "uint256",
          "name": "",
          "type": "uint256"
        }
      ],
      "name": "engines",
      "outputs": [
        {
          "internalType": "uint256",
          "name": "id",
          "type": "uint256"
        },
        {
          "internalType": "uint16",
          "name": "horsePowers",
          "type": "uint16"
        },
        {
          "internalType": "uint8",
          "name": "consumtion",
          "type": "uint8"
        }
      ],
      "stateMutability": "view",
      "type": "function"
    },
    {
      "inputs": [
        {
          "internalType": "uint256",
          "name": "carId",
          "type": "uint256"
        }
      ],
      "name": "findRoom",
      "outputs": [],
      "stateMutability": "nonpayable",
      "type": "function"
    },
    {
      "inputs": [
        {
          "internalType": "uint256",
          "name": "",
          "type": "uint256"
        }
      ],
      "name": "fuelStationToOwner",
      "outputs": [
        {
          "internalType": "address",
          "name": "",
          "type": "address"
        }
      ],
      "stateMutability": "view",
      "type": "function"
    },
    {
      "inputs": [
        {
          "internalType": "address",
          "name": "_owner",
          "type": "address"
        }
      ],
      "name": "getCarsByOwner",
      "outputs": [
        {
          "components": [
            {
              "internalType": "string",
              "name": "model",
              "type": "string"
            },
            {
              "internalType": "uint256",
              "name": "vin",
              "type": "uint256"
            },
            {
              "internalType": "uint256",
              "name": "engineId",
              "type": "uint256"
            },
            {
              "internalType": "uint256",
              "name": "chassisId",
              "type": "uint256"
            },
            {
              "internalType": "uint8",
              "name": "carLevel",
              "type": "uint8"
            },
            {
              "internalType": "uint256",
              "name": "mileage",
              "type": "uint256"
            },
            {
              "internalType": "uint256",
              "name": "winCountOnCurrentLevel",
              "type": "uint256"
            },
            {
              "internalType": "uint256",
              "name": "lossCountOnCurrentLevel",
              "type": "uint256"
            }
          ],
          "internalType": "struct CarFactory.Car[]",
          "name": "",
          "type": "tuple[]"
        }
      ],
      "stateMutability": "view",
      "type": "function"
    },
    {
      "inputs": [
        {
          "internalType": "address",
          "name": "_owner",
          "type": "address"
        }
      ],
      "name": "getChassisByOwner",
      "outputs": [
        {
          "internalType": "uint256[]",
          "name": "",
          "type": "uint256[]"
        }
      ],
      "stateMutability": "view",
      "type": "function"
    },
    {
      "inputs": [
        {
          "internalType": "uint256",
          "name": "roomId",
          "type": "uint256"
        }
      ],
      "name": "getClosedRoom",
      "outputs": [
        {
          "components": [
            {
              "internalType": "address",
              "name": "player",
              "type": "address"
            },
            {
              "internalType": "bool",
              "name": "correct",
              "type": "bool"
            },
            {
              "internalType": "uint256",
              "name": "time",
              "type": "uint256"
            },
            {
              "internalType": "uint256",
              "name": "carId",
              "type": "uint256"
            }
          ],
          "internalType": "struct RaceHandler.Answer[]",
          "name": "",
          "type": "tuple[]"
        }
      ],
      "stateMutability": "view",
      "type": "function"
    },
    {
      "inputs": [
        {
          "internalType": "address",
          "name": "_owner",
          "type": "address"
        }
      ],
      "name": "getEnginesByOwner",
      "outputs": [
        {
          "internalType": "uint256[]",
          "name": "",
          "type": "uint256[]"
        }
      ],
      "stateMutability": "view",
      "type": "function"
    },
    {
      "inputs": [
        {
          "internalType": "address",
          "name": "_owner",
          "type": "address"
        }
      ],
      "name": "getFuelStationByOwner",
      "outputs": [
        {
          "internalType": "uint256",
          "name": "",
          "type": "uint256"
        }
      ],
      "stateMutability": "view",
      "type": "function"
    },
    {
      "inputs": [
        {
          "internalType": "uint256",
          "name": "",
          "type": "uint256"
        }
      ],
      "name": "idToStartedRooms",
      "outputs": [
        {
          "internalType": "uint256",
          "name": "numberPlayers",
          "type": "uint256"
        },
        {
          "internalType": "uint256",
          "name": "world",
          "type": "uint256"
        },
        {
          "internalType": "uint256",
          "name": "roomDNA",
          "type": "uint256"
        },
        {
          "internalType": "uint256",
          "name": "startTime",
          "type": "uint256"
        },
        {
          "internalType": "uint256",
          "name": "curAnswer",
          "type": "uint256"
        },
        {
          "internalType": "bool",
          "name": "closed",
          "type": "bool"
        }
      ],
      "stateMutability": "view",
      "type": "function"
    },
    {
      "inputs": [
        {
          "internalType": "uint256",
          "name": "_carId",
          "type": "uint256"
        }
      ],
      "name": "levelUp",
      "outputs": [],
      "stateMutability": "payable",
      "type": "function"
    },
    {
      "inputs": [
        {
          "internalType": "uint256",
          "name": "",
          "type": "uint256"
        }
      ],
      "name": "openedRooms",
      "outputs": [
        {
          "internalType": "uint256",
          "name": "id",
          "type": "uint256"
        },
        {
          "internalType": "uint256",
          "name": "playersEntered",
          "type": "uint256"
        },
        {
          "internalType": "uint256",
          "name": "world",
          "type": "uint256"
        },
        {
          "components": [
            {
              "internalType": "uint256",
              "name": "playersNeeded",
              "type": "uint256"
            },
            {
              "internalType": "uint256",
              "name": "roadsNum",
              "type": "uint256"
            },
            {
              "internalType": "uint256",
              "name": "crossId",
              "type": "uint256"
            }
          ],
          "internalType": "struct RaceHandler.Cross",
          "name": "cross",
          "type": "tuple"
        }
      ],
      "stateMutability": "view",
      "type": "function"
    },
    {
      "inputs": [],
      "name": "owner",
      "outputs": [
        {
          "internalType": "address",
          "name": "",
          "type": "address"
        }
      ],
      "stateMutability": "view",
      "type": "function"
    },
    {
      "inputs": [
        {
          "internalType": "address",
          "name": "",
          "type": "address"
        }
      ],
      "name": "ownerCarCount",
      "outputs": [
        {
          "internalType": "uint256",
          "name": "",
          "type": "uint256"
        }
      ],
      "stateMutability": "view",
      "type": "function"
    },
    {
      "inputs": [],
      "name": "renounceOwnership",
      "outputs": [],
      "stateMutability": "nonpayable",
      "type": "function"
    },
    {
      "inputs": [
        {
          "internalType": "uint256",
          "name": "_carId",
          "type": "uint256"
        }
      ],
      "name": "startRace",
      "outputs": [],
      "stateMutability": "nonpayable",
      "type": "function"
    },
    {
      "inputs": [
        {
          "internalType": "uint256",
          "name": "",
          "type": "uint256"
        }
      ],
      "name": "stations",
      "outputs": [
        {
          "internalType": "uint256",
          "name": "id",
          "type": "uint256"
        },
        {
          "internalType": "uint8",
          "name": "capacity",
          "type": "uint8"
        },
        {
          "internalType": "uint8",
          "name": "productionPerHour",
          "type": "uint8"
        },
        {
          "internalType": "uint8",
          "name": "currentFullness",
          "type": "uint8"
        },
        {
          "internalType": "uint256",
          "name": "lastUpdate",
          "type": "uint256"
        }
      ],
      "stateMutability": "view",
      "type": "function"
    },
    {
      "inputs": [
        {
          "internalType": "address",
          "name": "newOwner",
          "type": "address"
        }
      ],
      "name": "transferOwnership",
      "outputs": [],
      "stateMutability": "nonpayable",
      "type": "function"
    },
    {
      "inputs": [
        {
          "internalType": "uint256",
          "name": "_fuelStatonId",
          "type": "uint256"
        },
        {
          "internalType": "uint8",
          "name": "_counts",
          "type": "uint8"
        }
      ],
      "name": "upgradeCapacity",
      "outputs": [],
      "stateMutability": "payable",
      "type": "function"
    },
    {
      "inputs": [
        {
          "internalType": "uint256",
          "name": "_engineId",
          "type": "uint256"
        },
        {
          "internalType": "uint8",
          "name": "_counts",
          "type": "uint8"
        }
      ],
      "name": "upgradeConsumtion",
      "outputs": [],
      "stateMutability": "payable",
      "type": "function"
    },
    {
      "inputs": [
        {
          "internalType": "uint256",
          "name": "_chassisId",
          "type": "uint256"
        },
        {
          "internalType": "uint8",
          "name": "_counts",
          "type": "uint8"
        }
      ],
      "name": "upgradeDurability",
      "outputs": [],
      "stateMutability": "payable",
      "type": "function"
    },
    {
      "inputs": [
        {
          "internalType": "uint256",
          "name": "_engineId",
          "type": "uint256"
        },
        {
          "internalType": "uint8",
          "name": "_counts",
          "type": "uint8"
        }
      ],
      "name": "upgradeHorsePowers",
      "outputs": [],
      "stateMutability": "payable",
      "type": "function"
    },
    {
      "inputs": [
        {
          "internalType": "uint256",
          "name": "_fuelStatonId",
          "type": "uint256"
        },
        {
          "internalType": "uint8",
          "name": "_counts",
          "type": "uint8"
        }
      ],
      "name": "upgradeProductionPerHour",
      "outputs": [],
      "stateMutability": "payable",
      "type": "function"
    },
    {
      "inputs": [
        {
          "internalType": "address",
          "name": "_owner",
          "type": "address"
        }
      ],
      "name": "balanceOfCars",
      "outputs": [
        {
          "internalType": "uint256",
          "name": "",
          "type": "uint256"
        }
      ],
      "stateMutability": "view",
      "type": "function"
    },
    {
      "inputs": [
        {
          "internalType": "uint256",
          "name": "_tokenId",
          "type": "uint256"
        }
      ],
      "name": "ownerOfCar",
      "outputs": [
        {
          "internalType": "address",
          "name": "",
          "type": "address"
        }
      ],
      "stateMutability": "view",
      "type": "function"
    },
    {
      "inputs": [
        {
          "internalType": "address",
          "name": "_from",
          "type": "address"
        },
        {
          "internalType": "address",
          "name": "_to",
          "type": "address"
        },
        {
          "internalType": "uint256",
          "name": "_tokenId",
          "type": "uint256"
        }
      ],
      "name": "transferCarFrom",
      "outputs": [],
      "stateMutability": "payable",
      "type": "function"
    },
    {
      "inputs": [
        {
          "internalType": "address",
          "name": "_approved",
          "type": "address"
        },
        {
          "internalType": "uint256",
          "name": "_tokenId",
          "type": "uint256"
        }
      ],
      "name": "approveCar",
      "outputs": [],
      "stateMutability": "payable",
      "type": "function"
    },
    {
      "inputs": [
        {
          "internalType": "address",
          "name": "_owner",
          "type": "address"
        }
      ],
      "name": "balanceOfEngines",
      "outputs": [
        {
          "internalType": "uint256",
          "name": "",
          "type": "uint256"
        }
      ],
      "stateMutability": "view",
      "type": "function"
    },
    {
      "inputs": [
        {
          "internalType": "uint256",
          "name": "_tokenId",
          "type": "uint256"
        }
      ],
      "name": "ownerOfEngine",
      "outputs": [
        {
          "internalType": "address",
          "name": "",
          "type": "address"
        }
      ],
      "stateMutability": "view",
      "type": "function"
    },
    {
      "inputs": [
        {
          "internalType": "address",
          "name": "_from",
          "type": "address"
        },
        {
          "internalType": "address",
          "name": "_to",
          "type": "address"
        },
        {
          "internalType": "uint256",
          "name": "_tokenId",
          "type": "uint256"
        }
      ],
      "name": "transferEngineFrom",
      "outputs": [],
      "stateMutability": "payable",
      "type": "function"
    },
    {
      "inputs": [
        {
          "internalType": "address",
          "name": "_approved",
          "type": "address"
        },
        {
          "internalType": "uint256",
          "name": "_tokenId",
          "type": "uint256"
        }
      ],
      "name": "approveEngine",
      "outputs": [],
      "stateMutability": "payable",
      "type": "function"
    },
    {
      "inputs": [
        {
          "internalType": "address",
          "name": "_owner",
          "type": "address"
        }
      ],
      "name": "balanceOfChassis",
      "outputs": [
        {
          "internalType": "uint256",
          "name": "",
          "type": "uint256"
        }
      ],
      "stateMutability": "view",
      "type": "function"
    },
    {
      "inputs": [
        {
          "internalType": "uint256",
          "name": "_tokenId",
          "type": "uint256"
        }
      ],
      "name": "ownerOfChassis",
      "outputs": [
        {
          "internalType": "address",
          "name": "",
          "type": "address"
        }
      ],
      "stateMutability": "view",
      "type": "function"
    },
    {
      "inputs": [
        {
          "internalType": "address",
          "name": "_from",
          "type": "address"
        },
        {
          "internalType": "address",
          "name": "_to",
          "type": "address"
        },
        {
          "internalType": "uint256",
          "name": "_tokenId",
          "type": "uint256"
        }
      ],
      "name": "transferChassisFrom",
      "outputs": [],
      "stateMutability": "payable",
      "type": "function"
    },
    {
      "inputs": [
        {
          "internalType": "address",
          "name": "_approved",
          "type": "address"
        },
        {
          "internalType": "uint256",
          "name": "_tokenId",
          "type": "uint256"
        }
      ],
      "name": "approveChassis",
      "outputs": [],
      "stateMutability": "payable",
      "type": "function"
    }
  ],
  "bytecode": "0x6080604052603c600060146101000a81548160ff021916908360ff1602179055506005600060156101000a81548160ff021916908360ff160217905550600160085560016009556509184e72a00060135565b5e620f48000601455650da475abf0006015556611c37937e080006016556305f5e10060175566038d7ea4c680006018553480156200008f57600080fd5b50620000b0620000a46200034760201b60201c565b6200034f60201b60201c565b6050600381905550605b600481905550600a600560006101000a81548160ff021916908360ff160217905550620186a06006819055506201d4c1600781905550600b60018160018154018082558091505003906000526020600020905050600c600181600181540180825580915050039060005260206000209050506019604051806060016040528060048152602001600481526020016000815250908060018154018082558091505060019003906000526020600020906003020160009091909190915060008201518160000155602082015181600101556040820151816002015550506019604051806060016040528060038152602001600481526020016000815250908060018154018082558091505060019003906000526020600020906003020160009091909190915060008201518160000155602082015181600101556040820151816002015550506019604051806060016040528060028152602001600481526020016000815250908060018154018082558091505060019003906000526020600020906003020160009091909190915060008201518160000155602082015181600101556040820151816002015550506019604051806060016040528060038152602001600381526020016001815250908060018154018082558091505060019003906000526020600020906003020160009091909190915060008201518160000155602082015181600101556040820151816002015550506019604051806060016040528060028152602001600381526020016001815250908060018154018082558091505060019003906000526020600020906003020160009091909190915060008201518160000155602082015181600101556040820151816002015550506001601c8190555062000413565b600033905090565b60008060009054906101000a900473ffffffffffffffffffffffffffffffffffffffff169050816000806101000a81548173ffffffffffffffffffffffffffffffffffffffff021916908373ffffffffffffffffffffffffffffffffffffffff1602179055508173ffffffffffffffffffffffffffffffffffffffff168173ffffffffffffffffffffffffffffffffffffffff167f8be0079c531659141344cd1fd0a4f28419497f9722a3daafe3b4186f6b6457e060405160405180910390a35050565b615c1480620004236000396000f3fe6080604052600436106102515760003560e01c8063715018a611610139578063b3b29afd116100b6578063ede6fbf51161007a578063ede6fbf51461092a578063f2fde38b14610953578063f66911b11461097c578063f7746e3614610998578063faf4bb98146109dc578063fb2d954f146109f857610251565b8063b3b29afd1461082c578063b44a4e9314610869578063b72c0eea14610885578063c75bb4f4146108c4578063c85b7fed1461090157610251565b806387d6b9b2116100fd57806387d6b9b21461074b5780638b579973146107885780638da5cb5b146107a4578063906f5f34146107cf57806392f859db146107eb57610251565b8063715018a6146106a35780637713d521146106ba5780637c62360f146106f75780637ec5c75c14610713578063859092671461072f57610251565b8063254dc065116101d2578063449014901161019657806344901490146105355780634e31f91014610572578063594193d7146105af5780635c426aff146105ec5780635dcc4cc6146106295780636f206fc11461066657610251565b8063254dc065146104045780632cb03a3a1461044157806333ca504b1461047e5780633521c426146104bb5780633dfd6f54146104f857610251565b80630e0f7049116102195780630e0f70491461034d5780631c5dde0e146103695780631e85ab9b146103a8578063224370f0146103c457806324d822bf146103db57610251565b806302b677451461025657806303f2e05b146102935780630418394e146102af578063081315ff146102f15780630ce90ec214610331575b600080fd5b34801561026257600080fd5b5061027d6004803603810190610278919061447a565b610a21565b60405161028a91906144e8565b60405180910390f35b6102ad60048036038101906102a8919061453c565b610a5e565b005b3480156102bb57600080fd5b506102d660048036038101906102d1919061447a565b610b96565b6040516102e8969594939291906145a6565b60405180910390f35b3480156102fd57600080fd5b506103186004803603810190610313919061447a565b610bdf565b6040516103289493929190614658565b60405180910390f35b61034b6004803603810190610346919061447a565b610c47565b005b610367600480360381019061036291906146c9565b610dc6565b005b34801561037557600080fd5b50610390600480360381019061038b919061447a565b610e89565b60405161039f93929190614728565b60405180910390f35b6103c260048036038101906103bd91906146c9565b610ee3565b005b3480156103d057600080fd5b506103d9610fa6565b005b3480156103e757600080fd5b5061040260048036038101906103fd919061447a565b611112565b005b34801561041057600080fd5b5061042b6004803603810190610426919061475f565b611328565b604051610438919061478c565b60405180910390f35b34801561044d57600080fd5b506104686004803603810190610463919061475f565b611371565b604051610475919061478c565b60405180910390f35b34801561048a57600080fd5b506104a560048036038101906104a0919061447a565b6113ba565b6040516104b291906144e8565b60405180910390f35b3480156104c757600080fd5b506104e260048036038101906104dd919061447a565b6113ed565b6040516104ef91906148c9565b60405180910390f35b34801561050457600080fd5b5061051f600480360381019061051a919061447a565b61154a565b60405161052c91906144e8565b60405180910390f35b34801561054157600080fd5b5061055c6004803603810190610557919061447a565b611587565b60405161056991906144e8565b60405180910390f35b34801561057e57600080fd5b506105996004803603810190610594919061475f565b6115ba565b6040516105a6919061478c565b60405180910390f35b3480156105bb57600080fd5b506105d660048036038101906105d1919061447a565b611658565b6040516105e391906144e8565b60405180910390f35b3480156105f857600080fd5b50610613600480360381019061060e919061447a565b61168b565b60405161062091906144e8565b60405180910390f35b34801561063557600080fd5b50610650600480360381019061064b919061447a565b6116c8565b60405161065d91906144e8565b60405180910390f35b34801561067257600080fd5b5061068d6004803603810190610688919061475f565b6116fb565b60405161069a919061499a565b60405180910390f35b3480156106af57600080fd5b506106b861184d565b005b3480156106c657600080fd5b506106e160048036038101906106dc919061475f565b611861565b6040516106ee919061499a565b60405180910390f35b610711600480360381019061070c919061453c565b6119b3565b005b61072d600480360381019061072891906149bc565b611ae0565b005b6107496004803603810190610744919061453c565b611bc4565b005b34801561075757600080fd5b50610772600480360381019061076d919061475f565b611ce7565b60405161077f919061478c565b60405180910390f35b6107a2600480360381019061079d91906149bc565b611d30565b005b3480156107b057600080fd5b506107b9611e14565b6040516107c691906144e8565b60405180910390f35b6107e960048036038101906107e4919061453c565b611e3d565b005b3480156107f757600080fd5b50610812600480360381019061080d919061447a565b611f60565b604051610823959493929190614a1e565b60405180910390f35b34801561083857600080fd5b50610853600480360381019061084e919061475f565b611fcd565b604051610860919061478c565b60405180910390f35b610883600480360381019061087e91906146c9565b611fe5565b005b34801561089157600080fd5b506108ac60048036038101906108a7919061447a565b6120a8565b6040516108bb93929190614a8e565b60405180910390f35b3480156108d057600080fd5b506108eb60048036038101906108e6919061475f565b6120fd565b6040516108f89190614cdf565b60405180910390f35b34801561090d57600080fd5b5061092860048036038101906109239190614e49565b612371565b005b34801561093657600080fd5b50610951600480360381019061094c9190614f5a565b6126f4565b005b34801561095f57600080fd5b5061097a6004803603810190610975919061475f565b612955565b005b610996600480360381019061099191906149bc565b6129d8565b005b3480156109a457600080fd5b506109bf60048036038101906109ba919061447a565b612abc565b6040516109d3989796959493929190614fed565b60405180910390f35b6109f660048036038101906109f1919061453c565b612ba9565b005b348015610a0457600080fd5b50610a1f6004803603810190610a1a919061447a565b612cd7565b005b6000600d600083815260200190815260200160002060009054906101000a900473ffffffffffffffffffffffffffffffffffffffff169050919050565b81600f600082815260200190815260200160002060009054906101000a900473ffffffffffffffffffffffffffffffffffffffff1673ffffffffffffffffffffffffffffffffffffffff163373ffffffffffffffffffffffffffffffffffffffff1614610aca57600080fd5b601754600c8481548110610ae157610ae0615072565b5b906000526020600020906002020160010160009054906101000a900463ffffffff168360ff16610b1191906150d0565b63ffffffff16610b21919061510e565b3414610b2c57600080fd5b8160ff16600c8481548110610b4457610b43615072565b5b906000526020600020906002020160010160008282829054906101000a900463ffffffff16610b739190615168565b92506101000a81548163ffffffff021916908363ffffffff160217905550505050565b601e6020528060005260406000206000915090508060000154908060010154908060020154908060030154908060050154908060060160009054906101000a900460ff16905086565b601d8181548110610bef57600080fd5b9060005260206000209060060201600091509050806000015490806001015490806002015490806003016040518060600160405290816000820154815260200160018201548152602001600282015481525050905084565b600a808281548110610c5c57610c5b615072565b5b906000526020600020906008020160040160009054906101000a900460ff16610c8591906151d1565b60ff16601854610c95919061510e565b34148015610d0957506001600a8281548110610cb457610cb3615072565b5b906000526020600020906008020160040160009054906101000a900460ff16610cdd9190615202565b60ff16600a8281548110610cf457610cf3615072565b5b90600052602060002090600802016006015410155b610d1257600080fd5b600a8181548110610d2657610d25615072565b5b9060005260206000209060080201600401600081819054906101000a900460ff1680929190610d5490615239565b91906101000a81548160ff021916908360ff160217905550506000600a8281548110610d8357610d82615072565b5b9060005260206000209060080201600601819055506000600a8281548110610dae57610dad615072565b5b90600052602060002090600802016007018190555050565b80600e600082815260200190815260200160002060009054906101000a900473ffffffffffffffffffffffffffffffffffffffff1673ffffffffffffffffffffffffffffffffffffffff163373ffffffffffffffffffffffffffffffffffffffff1614610e3257600080fd5b826020600084815260200190815260200160002060006101000a81548173ffffffffffffffffffffffffffffffffffffffff021916908373ffffffffffffffffffffffffffffffffffffffff160217905550505050565b600c8181548110610e9957600080fd5b90600052602060002090600202016000915090508060000154908060010160009054906101000a900463ffffffff16908060010160049054906101000a900463ffffffff16905083565b80600f600082815260200190815260200160002060009054906101000a900473ffffffffffffffffffffffffffffffffffffffff1673ffffffffffffffffffffffffffffffffffffffff163373ffffffffffffffffffffffffffffffffffffffff1614610f4f57600080fd5b826021600084815260200190815260200160002060006101000a81548173ffffffffffffffffffffffffffffffffffffffff021916908373ffffffffffffffffffffffffffffffffffffffff160217905550505050565b60003390506000600180549050905060016040518060a00160405280838152602001600060149054906101000a900460ff1660ff168152602001600060159054906101000a900460ff1660ff168152602001600060149054906101000a900460ff1660ff1681526020014263ffffffff1681525090806001815401808255809150506001900390600052602060002090600302016000909190919091506000820151816000015560208201518160010160006101000a81548160ff021916908360ff16021790555060408201518160010160016101000a81548160ff021916908360ff16021790555060608201518160010160026101000a81548160ff021916908360ff160217905550608082015181600201555050816002600083815260200190815260200160002060006101000a81548173ffffffffffffffffffffffffffffffffffffffff021916908373ffffffffffffffffffffffffffffffffffffffff1602179055505050565b80600d600082815260200190815260200160002060009054906101000a900473ffffffffffffffffffffffffffffffffffffffff1673ffffffffffffffffffffffffffffffffffffffff163373ffffffffffffffffffffffffffffffffffffffff161461117e57600080fd5b6000600a80848154811061119557611194615072565b5b906000526020600020906008020160040160009054906101000a900460ff166111be91906151d1565b600a6111ca9190615262565b60026111d69190615296565b90506111e28382613338565b801561125157508060ff16600c600a858154811061120357611202615072565b5b9060005260206000209060080201600301548154811061122657611225615072565b5b906000526020600020906002020160010160049054906101000a900463ffffffff1663ffffffff1610155b61125a57600080fd5b8060ff16600c600a858154811061127457611273615072565b5b9060005260206000209060080201600301548154811061129757611296615072565b5b906000526020600020906002020160010160048282829054906101000a900463ffffffff166112c691906152d1565b92506101000a81548163ffffffff021916908363ffffffff1602179055508060ff16600a84815481106112fc576112fb615072565b5b9060005260206000209060080201600501600082825461131c9190615305565b92505081905550505050565b6000601260008373ffffffffffffffffffffffffffffffffffffffff1673ffffffffffffffffffffffffffffffffffffffff168152602001908152602001600020549050919050565b6000601060008373ffffffffffffffffffffffffffffffffffffffff1673ffffffffffffffffffffffffffffffffffffffff168152602001908152602001600020549050919050565b600d6020528060005260406000206000915054906101000a900473ffffffffffffffffffffffffffffffffffffffff1681565b6060601e600083815260200190815260200160002060060160009054906101000a900460ff16611452576040517f08c379a0000000000000000000000000000000000000000000000000000000008152600401611449906153a7565b60405180910390fd5b601e6000838152602001908152602001600020600401805480602002602001604051908101604052809291908181526020016000905b8282101561153f57838290600052602060002090600302016040518060800160405290816000820160009054906101000a900473ffffffffffffffffffffffffffffffffffffffff1673ffffffffffffffffffffffffffffffffffffffff1673ffffffffffffffffffffffffffffffffffffffff1681526020016000820160149054906101000a900460ff161515151581526020016001820154815260200160028201548152505081526020019060010190611488565b505050509050919050565b6000600e600083815260200190815260200160002060009054906101000a900473ffffffffffffffffffffffffffffffffffffffff169050919050565b600f6020528060005260406000206000915054906101000a900473ffffffffffffffffffffffffffffffffffffffff1681565b60008060005b60018054905081101561164e578373ffffffffffffffffffffffffffffffffffffffff166002600083815260200190815260200160002060009054906101000a900473ffffffffffffffffffffffffffffffffffffffff1673ffffffffffffffffffffffffffffffffffffffff160361163b5780915061164e565b8080611646906153c7565b9150506115c0565b5080915050919050565b60026020528060005260406000206000915054906101000a900473ffffffffffffffffffffffffffffffffffffffff1681565b6000600f600083815260200190815260200160002060009054906101000a900473ffffffffffffffffffffffffffffffffffffffff169050919050565b600e6020528060005260406000206000915054906101000a900473ffffffffffffffffffffffffffffffffffffffff1681565b60606000601160008473ffffffffffffffffffffffffffffffffffffffff1673ffffffffffffffffffffffffffffffffffffffff1681526020019081526020016000205467ffffffffffffffff81111561175857611757614d06565b5b6040519080825280602002602001820160405280156117865781602001602082028036833780820191505090505b5090506000805b600c80549050811015611842578473ffffffffffffffffffffffffffffffffffffffff16600f600083815260200190815260200160002060009054906101000a900473ffffffffffffffffffffffffffffffffffffffff1673ffffffffffffffffffffffffffffffffffffffff160361182f578083838151811061181457611813615072565b5b602002602001018181525050818061182b906153c7565b9250505b808061183a906153c7565b91505061178d565b508192505050919050565b6118556134f9565b61185f6000613577565b565b60606000601160008473ffffffffffffffffffffffffffffffffffffffff1673ffffffffffffffffffffffffffffffffffffffff1681526020019081526020016000205467ffffffffffffffff8111156118be576118bd614d06565b5b6040519080825280602002602001820160405280156118ec5781602001602082028036833780820191505090505b5090506000805b600b805490508110156119a8578473ffffffffffffffffffffffffffffffffffffffff16600e600083815260200190815260200160002060009054906101000a900473ffffffffffffffffffffffffffffffffffffffff1673ffffffffffffffffffffffffffffffffffffffff1603611995578083838151811061197a57611979615072565b5b6020026020010181815250508180611991906153c7565b9250505b80806119a0906153c7565b9150506118f3565b508192505050919050565b81600e600082815260200190815260200160002060009054906101000a900473ffffffffffffffffffffffffffffffffffffffff1673ffffffffffffffffffffffffffffffffffffffff163373ffffffffffffffffffffffffffffffffffffffff1614611a1f57600080fd5b600b8381548110611a3357611a32615072565b5b906000526020600020906002020160010160029054906101000a900460ff16600a611a5e9190615262565b6002611a6a9190615542565b601654611a77919061510e565b3414611a8257600080fd5b81600b8481548110611a9757611a96615072565b5b906000526020600020906002020160010160028282829054906101000a900460ff16611ac39190615262565b92506101000a81548160ff021916908360ff160217905550505050565b8273ffffffffffffffffffffffffffffffffffffffff16600d600083815260200190815260200160002060009054906101000a900473ffffffffffffffffffffffffffffffffffffffff1673ffffffffffffffffffffffffffffffffffffffff161480611bab57503373ffffffffffffffffffffffffffffffffffffffff16601f600083815260200190815260200160002060009054906101000a900473ffffffffffffffffffffffffffffffffffffffff1673ffffffffffffffffffffffffffffffffffffffff16145b611bb457600080fd5b611bbf83838361363b565b505050565b816002600082815260200190815260200160002060009054906101000a900473ffffffffffffffffffffffffffffffffffffffff1673ffffffffffffffffffffffffffffffffffffffff163373ffffffffffffffffffffffffffffffffffffffff1614611c3057600080fd5b60145460018481548110611c4757611c46615072565b5b906000526020600020906003020160010160019054906101000a900460ff1683611c719190615296565b60ff16611c7e919061510e565b3414611c8957600080fd5b8160018481548110611c9e57611c9d615072565b5b906000526020600020906003020160010160018282829054906101000a900460ff16611cca9190615202565b92506101000a81548160ff021916908360ff160217905550505050565b6000601160008373ffffffffffffffffffffffffffffffffffffffff1673ffffffffffffffffffffffffffffffffffffffff168152602001908152602001600020549050919050565b8273ffffffffffffffffffffffffffffffffffffffff16600e600083815260200190815260200160002060009054906101000a900473ffffffffffffffffffffffffffffffffffffffff1673ffffffffffffffffffffffffffffffffffffffff161480611dfb57503373ffffffffffffffffffffffffffffffffffffffff166020600083815260200190815260200160002060009054906101000a900473ffffffffffffffffffffffffffffffffffffffff1673ffffffffffffffffffffffffffffffffffffffff16145b611e0457600080fd5b611e0f838383613910565b505050565b60008060009054906101000a900473ffffffffffffffffffffffffffffffffffffffff16905090565b816002600082815260200190815260200160002060009054906101000a900473ffffffffffffffffffffffffffffffffffffffff1673ffffffffffffffffffffffffffffffffffffffff163373ffffffffffffffffffffffffffffffffffffffff1614611ea957600080fd5b60135460018481548110611ec057611ebf615072565b5b906000526020600020906003020160010160009054906101000a900460ff1683611eea9190615296565b60ff16611ef7919061510e565b3414611f0257600080fd5b8160018481548110611f1757611f16615072565b5b906000526020600020906003020160010160008282829054906101000a900460ff16611f439190615202565b92506101000a81548160ff021916908360ff160217905550505050565b60018181548110611f7057600080fd5b90600052602060002090600302016000915090508060000154908060010160009054906101000a900460ff16908060010160019054906101000a900460ff16908060010160029054906101000a900460ff16908060020154905085565b60106020528060005260406000206000915090505481565b80600d600082815260200190815260200160002060009054906101000a900473ffffffffffffffffffffffffffffffffffffffff1673ffffffffffffffffffffffffffffffffffffffff163373ffffffffffffffffffffffffffffffffffffffff161461205157600080fd5b82601f600084815260200190815260200160002060006101000a81548173ffffffffffffffffffffffffffffffffffffffff021916908373ffffffffffffffffffffffffffffffffffffffff160217905550505050565b600b81815481106120b857600080fd5b90600052602060002090600202016000915090508060000154908060010160009054906101000a900461ffff16908060010160029054906101000a900460ff16905083565b60606000601060008473ffffffffffffffffffffffffffffffffffffffff1673ffffffffffffffffffffffffffffffffffffffff1681526020019081526020016000205467ffffffffffffffff81111561215a57612159614d06565b5b60405190808252806020026020018201604052801561219357816020015b612180614345565b8152602001906001900390816121785790505b5090506000805b600c80549050811015612366578473ffffffffffffffffffffffffffffffffffffffff16600d600083815260200190815260200160002060009054906101000a900473ffffffffffffffffffffffffffffffffffffffff1673ffffffffffffffffffffffffffffffffffffffff160361235357600a818154811061222157612220615072565b5b90600052602060002090600802016040518061010001604052908160008201805461224b906155bc565b80601f0160208091040260200160405190810160405280929190818152602001828054612277906155bc565b80156122c45780601f10612299576101008083540402835291602001916122c4565b820191906000526020600020905b8154815290600101906020018083116122a757829003601f168201915b505050505081526020016001820154815260200160028201548152602001600382015481526020016004820160009054906101000a900460ff1660ff1660ff168152602001600582015481526020016006820154815260200160078201548152505083838151811061233957612338615072565b5b6020026020010181905250818061234f906153c7565b9250505b808061235e906153c7565b91505061219a565b508192505050919050565b81601a60003373ffffffffffffffffffffffffffffffffffffffff1673ffffffffffffffffffffffffffffffffffffffff16815260200190815260200160002054146123f2576040517f08c379a00000000000000000000000000000000000000000000000000000000081526004016123e990615639565b60405180910390fd5b6000601e6000848152602001908152602001600020600201549050600073__PDDLib________________________________639c63eb2e83856040518363ffffffff1660e01b81526004016124489291906156fe565b602060405180830381865af4158015612465573d6000803e3d6000fd5b505050506040513d601f19601f82011682018060405250810190612489919061575a565b9050600060405180608001604052803373ffffffffffffffffffffffffffffffffffffffff1681526020018315158152602001428152602001601b60003373ffffffffffffffffffffffffffffffffffffffff1673ffffffffffffffffffffffffffffffffffffffff1681526020019081526020016000205481525090506000601e600087815260200190815260200160002090508060040182908060018154018082558091505060019003906000526020600020906003020160009091909190915060008201518160000160006101000a81548173ffffffffffffffffffffffffffffffffffffffff021916908373ffffffffffffffffffffffffffffffffffffffff16021790555060208201518160000160146101000a81548160ff02191690831515021790555060408201518160010155606082015181600201555050601e600087815260200190815260200160002060000154601e600088815260200190815260200160002060040180549050036126ec577f67acaceb58ff1ad2aa8b3069f69c4cd076824e06a09184b75fb197ead7040be78660405161262e919061478c565b60405180910390a16001601e600088815260200190815260200160002060060160006101000a81548160ff021916908315150217905550601a60003373ffffffffffffffffffffffffffffffffffffffff1673ffffffffffffffffffffffffffffffffffffffff16815260200190815260200160002060009055601b60003373ffffffffffffffffffffffffffffffffffffffff1673ffffffffffffffffffffffffffffffffffffffff168152602001908152602001600020600090555b505050505050565b6000601060003373ffffffffffffffffffffffffffffffffffffffff1673ffffffffffffffffffffffffffffffffffffffff168152602001908152602001600020541461274057600080fd5b60008161274c42613a93565b60405160200161275d9291906157c3565b604051602081830303815290604052905060008160405160200161278191906157e7565b6040516020818303038152906040528051906020012060001c905060006127a6613b61565b905060006127b2613d04565b90506000600a805490509050600a604051806101000160405280888152602001868152602001858152602001848152602001600160ff168152602001600081526020016000815260200160008152509080600181540180825580915050600190039060005260206000209060080201600090919091909150600082015181600001908051906020019061284692919061438d565b5060208201518160010155604082015181600201556060820151816003015560808201518160040160006101000a81548160ff021916908360ff16021790555060a0820151816005015560c0820151816006015560e08201518160070155505033600d600083815260200190815260200160002060006101000a81548173ffffffffffffffffffffffffffffffffffffffff021916908373ffffffffffffffffffffffffffffffffffffffff160217905550601060003373ffffffffffffffffffffffffffffffffffffffff1673ffffffffffffffffffffffffffffffffffffffff1681526020019081526020016000206000815480929190612948906153c7565b9190505550505050505050565b61295d6134f9565b600073ffffffffffffffffffffffffffffffffffffffff168173ffffffffffffffffffffffffffffffffffffffff16036129cc576040517f08c379a00000000000000000000000000000000000000000000000000000000081526004016129c390615870565b60405180910390fd5b6129d581613577565b50565b8273ffffffffffffffffffffffffffffffffffffffff16600f600083815260200190815260200160002060009054906101000a900473ffffffffffffffffffffffffffffffffffffffff1673ffffffffffffffffffffffffffffffffffffffff161480612aa357503373ffffffffffffffffffffffffffffffffffffffff166021600083815260200190815260200160002060009054906101000a900473ffffffffffffffffffffffffffffffffffffffff1673ffffffffffffffffffffffffffffffffffffffff16145b612aac57600080fd5b612ab7838383613ea7565b505050565b600a8181548110612acc57600080fd5b9060005260206000209060080201600091509050806000018054612aef906155bc565b80601f0160208091040260200160405190810160405280929190818152602001828054612b1b906155bc565b8015612b685780601f10612b3d57610100808354040283529160200191612b68565b820191906000526020600020905b815481529060010190602001808311612b4b57829003601f168201915b5050505050908060010154908060020154908060030154908060040160009054906101000a900460ff16908060050154908060060154908060070154905088565b81600e600082815260200190815260200160002060009054906101000a900473ffffffffffffffffffffffffffffffffffffffff1673ffffffffffffffffffffffffffffffffffffffff163373ffffffffffffffffffffffffffffffffffffffff1614612c1557600080fd5b601554600b8481548110612c2c57612c2b615072565b5b906000526020600020906002020160010160009054906101000a900461ffff168360ff16612c5a9190615890565b61ffff16612c68919061510e565b3414612c7357600080fd5b8160ff16600b8481548110612c8b57612c8a615072565b5b906000526020600020906002020160010160008282829054906101000a900461ffff16612cb891906158cc565b92506101000a81548161ffff021916908361ffff160217905550505050565b80600d600082815260200190815260200160002060009054906101000a900473ffffffffffffffffffffffffffffffffffffffff1673ffffffffffffffffffffffffffffffffffffffff163373ffffffffffffffffffffffffffffffffffffffff1614612d4357600080fd5b6000805b601d8054905081101561318357601d8181548110612d6857612d67615072565b5b9060005260206000209060060201600201546001600a808781548110612d9157612d90615072565b5b906000526020600020906008020160040160009054906101000a900460ff16612dba91906151d1565b612dc49190615202565b60ff16036131705760019150601d8181548110612de457612de3615072565b5b906000526020600020906006020160000154601a60003373ffffffffffffffffffffffffffffffffffffffff1673ffffffffffffffffffffffffffffffffffffffff1681526020019081526020016000208190555083601b60003373ffffffffffffffffffffffffffffffffffffffff1673ffffffffffffffffffffffffffffffffffffffff16815260200190815260200160002081905550601d8181548110612e9157612e90615072565b5b90600052602060002090600602016001016000815480929190612eb3906153c7565b9190505550601d8181548110612ecc57612ecb615072565b5b906000526020600020906006020160030160000154601d8281548110612ef557612ef4615072565b5b9060005260206000209060060201600101540361316f57600073__PDDLib________________________________63c037e545601d8481548110612f3c57612f3b615072565b5b906000526020600020906006020160030160020154601d8581548110612f6557612f64615072565b5b9060005260206000209060060201600301600001546040518363ffffffff1660e01b8152600401612f97929190615904565b602060405180830381865af4158015612fb4573d6000803e3d6000fd5b505050506040513d601f19601f82011682018060405250810190612fd89190615942565b90506000601e6000601d8581548110612ff457612ff3615072565b5b90600052602060002090600602016000015481526020019081526020016000209050601d838154811061302a57613029615072565b5b9060005260206000209060060201600301600001548160000181905550601d838154811061305b5761305a615072565b5b90600052602060002090600602016002015481600101819055508181600201819055504281600301819055506000816005018190555060008160060160006101000a81548160ff0219169083151502179055507f2838ebeee7dc83fac85a3d6dbca0c0b6771591ada8b00f97371aa6611e631f9c601d84815481106130e3576130e2615072565b5b9060005260206000209060060201600001548360405161310492919061596f565b60405180910390a1601d83815481106131205761311f615072565b5b9060005260206000209060060201600080820160009055600182016000905560028201600090556003820160008082016000905560018201600090556002820160009055505050505050613183565b5b808061317b906153c7565b915050612d47565b5080156131905750613334565b6000601c60008154809291906131a5906153c7565b9190505590506000601980549050426131be9190615998565b905081601a60003373ffffffffffffffffffffffffffffffffffffffff1673ffffffffffffffffffffffffffffffffffffffff16815260200190815260200160002081905550601d6040518060800160405280848152602001600181526020016001600a808a8154811061323557613234615072565b5b906000526020600020906008020160040160009054906101000a900460ff1661325e91906151d1565b6132689190615202565b60ff1681526020016019848154811061328457613283615072565b5b906000526020600020906003020160405180606001604052908160008201548152602001600182015481526020016002820154815250508152509080600181540180825580915050600190039060005260206000209060060201600090919091909150600082015181600001556020820151816001015560408201518160020155606082015181600301600082015181600001556020820151816001015560408201518160020155505050505050505b5050565b600080613377600d600086815260200190815260200160002060009054906101000a900473ffffffffffffffffffffffffffffffffffffffff166115ba565b90506133828161402a565b6000600a858154811061339857613397615072565b5b9060005260206000209060080201600201549050600060019050600a85600b84815481106133c9576133c8615072565b5b906000526020600020906002020160010160029054906101000a900460ff166133f29190615296565b60ff161061344757600a600b83815481106134105761340f615072565b5b906000526020600020906002020160010160029054906101000a900460ff168661343a9190615296565b61344491906151d1565b90505b8060ff166001848154811061345f5761345e615072565b5b906000526020600020906003020160010160029054906101000a900460ff1660ff16106134eb57806001848154811061349b5761349a615072565b5b906000526020600020906003020160010160028282829054906101000a900460ff166134c79190615262565b92506101000a81548160ff021916908360ff160217905550600193505050506134f3565b600093505050505b92915050565b6135016141a5565b73ffffffffffffffffffffffffffffffffffffffff1661351f611e14565b73ffffffffffffffffffffffffffffffffffffffff1614613575576040517f08c379a000000000000000000000000000000000000000000000000000000000815260040161356c90615a15565b60405180910390fd5b565b60008060009054906101000a900473ffffffffffffffffffffffffffffffffffffffff169050816000806101000a81548173ffffffffffffffffffffffffffffffffffffffff021916908373ffffffffffffffffffffffffffffffffffffffff1602179055508173ffffffffffffffffffffffffffffffffffffffff168173ffffffffffffffffffffffffffffffffffffffff167f8be0079c531659141344cd1fd0a4f28419497f9722a3daafe3b4186f6b6457e060405160405180910390a35050565b6000600a828154811061365157613650615072565b5b906000526020600020906008020160020154146136a3576040517f08c379a000000000000000000000000000000000000000000000000000000000815260040161369a90615a81565b60405180910390fd5b6000600a82815481106136b9576136b8615072565b5b9060005260206000209060080201600301541461370b576040517f08c379a000000000000000000000000000000000000000000000000000000000815260040161370290615aed565b60405180910390fd5b6000601060008573ffffffffffffffffffffffffffffffffffffffff1673ffffffffffffffffffffffffffffffffffffffff168152602001908152602001600020541161378d576040517f08c379a000000000000000000000000000000000000000000000000000000000815260040161378490615b59565b60405180910390fd5b6137e06001601060008573ffffffffffffffffffffffffffffffffffffffff1673ffffffffffffffffffffffffffffffffffffffff168152602001908152602001600020546141ad90919063ffffffff16565b601060008473ffffffffffffffffffffffffffffffffffffffff1673ffffffffffffffffffffffffffffffffffffffff168152602001908152602001600020819055506138766001601060008673ffffffffffffffffffffffffffffffffffffffff1673ffffffffffffffffffffffffffffffffffffffff168152602001908152602001600020546141c390919063ffffffff16565b601060008573ffffffffffffffffffffffffffffffffffffffff1673ffffffffffffffffffffffffffffffffffffffff1681526020019081526020016000208190555081600d600083815260200190815260200160002060006101000a81548173ffffffffffffffffffffffffffffffffffffffff021916908373ffffffffffffffffffffffffffffffffffffffff160217905550505050565b6139636001601160008573ffffffffffffffffffffffffffffffffffffffff1673ffffffffffffffffffffffffffffffffffffffff168152602001908152602001600020546141ad90919063ffffffff16565b601160008473ffffffffffffffffffffffffffffffffffffffff1673ffffffffffffffffffffffffffffffffffffffff168152602001908152602001600020819055506139f96001601160008673ffffffffffffffffffffffffffffffffffffffff1673ffffffffffffffffffffffffffffffffffffffff168152602001908152602001600020546141c390919063ffffffff16565b601160008573ffffffffffffffffffffffffffffffffffffffff1673ffffffffffffffffffffffffffffffffffffffff1681526020019081526020016000208190555081600e600083815260200190815260200160002060006101000a81548173ffffffffffffffffffffffffffffffffffffffff021916908373ffffffffffffffffffffffffffffffffffffffff160217905550505050565b606060006001613aa2846141d9565b01905060008167ffffffffffffffff811115613ac157613ac0614d06565b5b6040519080825280601f01601f191660200182016040528015613af35781602001600182028036833780820191505090505b509050600082602001820190505b600115613b56578080600190039150507f3031323334353637383961626364656600000000000000000000000000000000600a86061a8153600a8581613b4a57613b496151a2565b5b04945060008503613b01575b819350505050919050565b600080600354600454613b749190615b79565b42613b7f9190615998565b600354613b8c9190615305565b9050600060086000815480929190613ba3906153c7565b919050559050600b60405180606001604052808381526020018461ffff168152602001600560009054906101000a900460ff1660ff1681525090806001815401808255809150506001900390600052602060002090600202016000909190919091506000820151816000015560208201518160010160006101000a81548161ffff021916908361ffff16021790555060408201518160010160026101000a81548160ff021916908360ff1602179055505050601160003373ffffffffffffffffffffffffffffffffffffffff1673ffffffffffffffffffffffffffffffffffffffff1681526020019081526020016000206000815480929190613ca5906153c7565b919050555033600e600083815260200190815260200160002060006101000a81548173ffffffffffffffffffffffffffffffffffffffff021916908373ffffffffffffffffffffffffffffffffffffffff160217905550809250505090565b600080600654600754613d179190615b79565b42613d229190615998565b600654613d2f9190615305565b9050600060096000815480929190613d46906153c7565b919050559050600c60405180606001604052808381526020018463ffffffff1681526020018463ffffffff1681525090806001815401808255809150506001900390600052602060002090600202016000909190919091506000820151816000015560208201518160010160006101000a81548163ffffffff021916908363ffffffff16021790555060408201518160010160046101000a81548163ffffffff021916908363ffffffff1602179055505050601260003373ffffffffffffffffffffffffffffffffffffffff1673ffffffffffffffffffffffffffffffffffffffff1681526020019081526020016000206000815480929190613e48906153c7565b919050555033600f600083815260200190815260200160002060006101000a81548173ffffffffffffffffffffffffffffffffffffffff021916908373ffffffffffffffffffffffffffffffffffffffff160217905550809250505090565b613efa6001601260008573ffffffffffffffffffffffffffffffffffffffff1673ffffffffffffffffffffffffffffffffffffffff168152602001908152602001600020546141ad90919063ffffffff16565b601260008473ffffffffffffffffffffffffffffffffffffffff1673ffffffffffffffffffffffffffffffffffffffff16815260200190815260200160002081905550613f906001601260008673ffffffffffffffffffffffffffffffffffffffff1673ffffffffffffffffffffffffffffffffffffffff168152602001908152602001600020546141c390919063ffffffff16565b601260008573ffffffffffffffffffffffffffffffffffffffff1673ffffffffffffffffffffffffffffffffffffffff1681526020019081526020016000208190555081600f600083815260200190815260200160002060006101000a81548173ffffffffffffffffffffffffffffffffffffffff021916908373ffffffffffffffffffffffffffffffffffffffff160217905550505050565b60004290506000610e106001848154811061404857614047615072565b5b906000526020600020906003020160020154836140659190615b79565b61406f9190615bad565b905060006001848154811061408757614086615072565b5b906000526020600020906003020160010160019054906101000a900460ff1660ff16826140b4919061510e565b600185815481106140c8576140c7615072565b5b906000526020600020906003020160010160029054906101000a900460ff1660ff166140f49190615305565b90506141386001858154811061410d5761410c615072565b5b906000526020600020906003020160010160009054906101000a900460ff1660ff168260ff1661432c565b6001858154811061414c5761414b615072565b5b906000526020600020906003020160010160026101000a81548160ff021916908360ff160217905550826001858154811061418a57614189615072565b5b90600052602060002090600302016002018190555050505050565b600033905090565b600081836141bb9190615305565b905092915050565b600081836141d19190615b79565b905092915050565b600080600090507a184f03e93ff9f4daa797ed6e38ed64bf6a1f0100000000000000008310614237577a184f03e93ff9f4daa797ed6e38ed64bf6a1f010000000000000000838161422d5761422c6151a2565b5b0492506040810190505b6d04ee2d6d415b85acef81000000008310614274576d04ee2d6d415b85acef8100000000838161426a576142696151a2565b5b0492506020810190505b662386f26fc1000083106142a357662386f26fc100008381614299576142986151a2565b5b0492506010810190505b6305f5e10083106142cc576305f5e10083816142c2576142c16151a2565b5b0492506008810190505b61271083106142f15761271083816142e7576142e66151a2565b5b0492506004810190505b60648310614314576064838161430a576143096151a2565b5b0492506002810190505b600a8310614323576001810190505b80915050919050565b600081831061433b578161433d565b825b905092915050565b60405180610100016040528060608152602001600081526020016000815260200160008152602001600060ff1681526020016000815260200160008152602001600081525090565b828054614399906155bc565b90600052602060002090601f0160209004810192826143bb5760008555614402565b82601f106143d457805160ff1916838001178555614402565b82800160010185558215614402579182015b828111156144015782518255916020019190600101906143e6565b5b50905061440f9190614413565b5090565b5b8082111561442c576000816000905550600101614414565b5090565b6000604051905090565b600080fd5b600080fd5b6000819050919050565b61445781614444565b811461446257600080fd5b50565b6000813590506144748161444e565b92915050565b6000602082840312156144905761448f61443a565b5b600061449e84828501614465565b91505092915050565b600073ffffffffffffffffffffffffffffffffffffffff82169050919050565b60006144d2826144a7565b9050919050565b6144e2816144c7565b82525050565b60006020820190506144fd60008301846144d9565b92915050565b600060ff82169050919050565b61451981614503565b811461452457600080fd5b50565b60008135905061453681614510565b92915050565b600080604083850312156145535761455261443a565b5b600061456185828601614465565b925050602061457285828601614527565b9150509250929050565b61458581614444565b82525050565b60008115159050919050565b6145a08161458b565b82525050565b600060c0820190506145bb600083018961457c565b6145c8602083018861457c565b6145d5604083018761457c565b6145e2606083018661457c565b6145ef608083018561457c565b6145fc60a0830184614597565b979650505050505050565b61461081614444565b82525050565b60608201600082015161462c6000850182614607565b50602082015161463f6020850182614607565b5060408201516146526040850182614607565b50505050565b600060c08201905061466d600083018761457c565b61467a602083018661457c565b614687604083018561457c565b6146946060830184614616565b95945050505050565b6146a6816144c7565b81146146b157600080fd5b50565b6000813590506146c38161469d565b92915050565b600080604083850312156146e0576146df61443a565b5b60006146ee858286016146b4565b92505060206146ff85828601614465565b9150509250929050565b600063ffffffff82169050919050565b61472281614709565b82525050565b600060608201905061473d600083018661457c565b61474a6020830185614719565b6147576040830184614719565b949350505050565b6000602082840312156147755761477461443a565b5b6000614783848285016146b4565b91505092915050565b60006020820190506147a1600083018461457c565b92915050565b600081519050919050565b600082825260208201905092915050565b6000819050602082019050919050565b6147dc816144c7565b82525050565b6147eb8161458b565b82525050565b60808201600082015161480760008501826147d3565b50602082015161481a60208501826147e2565b50604082015161482d6040850182614607565b5060608201516148406060850182614607565b50505050565b600061485283836147f1565b60808301905092915050565b6000602082019050919050565b6000614876826147a7565b61488081856147b2565b935061488b836147c3565b8060005b838110156148bc5781516148a38882614846565b97506148ae8361485e565b92505060018101905061488f565b5085935050505092915050565b600060208201905081810360008301526148e3818461486b565b905092915050565b600081519050919050565b600082825260208201905092915050565b6000819050602082019050919050565b60006149238383614607565b60208301905092915050565b6000602082019050919050565b6000614947826148eb565b61495181856148f6565b935061495c83614907565b8060005b8381101561498d5781516149748882614917565b975061497f8361492f565b925050600181019050614960565b5085935050505092915050565b600060208201905081810360008301526149b4818461493c565b905092915050565b6000806000606084860312156149d5576149d461443a565b5b60006149e3868287016146b4565b93505060206149f4868287016146b4565b9250506040614a0586828701614465565b9150509250925092565b614a1881614503565b82525050565b600060a082019050614a33600083018861457c565b614a406020830187614a0f565b614a4d6040830186614a0f565b614a5a6060830185614a0f565b614a67608083018461457c565b9695505050505050565b600061ffff82169050919050565b614a8881614a71565b82525050565b6000606082019050614aa3600083018661457c565b614ab06020830185614a7f565b614abd6040830184614a0f565b949350505050565b600081519050919050565b600082825260208201905092915050565b6000819050602082019050919050565b600081519050919050565b600082825260208201905092915050565b60005b83811015614b2b578082015181840152602081019050614b10565b83811115614b3a576000848401525b50505050565b6000601f19601f8301169050919050565b6000614b5c82614af1565b614b668185614afc565b9350614b76818560208601614b0d565b614b7f81614b40565b840191505092915050565b614b9381614503565b82525050565b6000610100830160008301518482036000860152614bb78282614b51565b9150506020830151614bcc6020860182614607565b506040830151614bdf6040860182614607565b506060830151614bf26060860182614607565b506080830151614c056080860182614b8a565b5060a0830151614c1860a0860182614607565b5060c0830151614c2b60c0860182614607565b5060e0830151614c3e60e0860182614607565b508091505092915050565b6000614c558383614b99565b905092915050565b6000602082019050919050565b6000614c7582614ac5565b614c7f8185614ad0565b935083602082028501614c9185614ae1565b8060005b85811015614ccd5784840389528151614cae8582614c49565b9450614cb983614c5d565b925060208a01995050600181019050614c95565b50829750879550505050505092915050565b60006020820190508181036000830152614cf98184614c6a565b905092915050565b600080fd5b7f4e487b7100000000000000000000000000000000000000000000000000000000600052604160045260246000fd5b614d3e82614b40565b810181811067ffffffffffffffff82111715614d5d57614d5c614d06565b5b80604052505050565b6000614d70614430565b9050614d7c8282614d35565b919050565b600067ffffffffffffffff821115614d9c57614d9b614d06565b5b602082029050602081019050919050565b600080fd5b6000614dc5614dc084614d81565b614d66565b90508083825260208201905060208402830185811115614de857614de7614dad565b5b835b81811015614e115780614dfd8882614465565b845260208401935050602081019050614dea565b5050509392505050565b600082601f830112614e3057614e2f614d01565b5b8135614e40848260208601614db2565b91505092915050565b60008060408385031215614e6057614e5f61443a565b5b6000614e6e85828601614465565b925050602083013567ffffffffffffffff811115614e8f57614e8e61443f565b5b614e9b85828601614e1b565b9150509250929050565b600080fd5b600067ffffffffffffffff821115614ec557614ec4614d06565b5b614ece82614b40565b9050602081019050919050565b82818337600083830152505050565b6000614efd614ef884614eaa565b614d66565b905082815260208101848484011115614f1957614f18614ea5565b5b614f24848285614edb565b509392505050565b600082601f830112614f4157614f40614d01565b5b8135614f51848260208601614eea565b91505092915050565b600060208284031215614f7057614f6f61443a565b5b600082013567ffffffffffffffff811115614f8e57614f8d61443f565b5b614f9a84828501614f2c565b91505092915050565b600082825260208201905092915050565b6000614fbf82614af1565b614fc98185614fa3565b9350614fd9818560208601614b0d565b614fe281614b40565b840191505092915050565b6000610100820190508181036000830152615008818b614fb4565b9050615017602083018a61457c565b615024604083018961457c565b615031606083018861457c565b61503e6080830187614a0f565b61504b60a083018661457c565b61505860c083018561457c565b61506560e083018461457c565b9998505050505050505050565b7f4e487b7100000000000000000000000000000000000000000000000000000000600052603260045260246000fd5b7f4e487b7100000000000000000000000000000000000000000000000000000000600052601160045260246000fd5b60006150db82614709565b91506150e683614709565b92508163ffffffff0483118215151615615103576151026150a1565b5b828202905092915050565b600061511982614444565b915061512483614444565b9250817fffffffffffffffffffffffffffffffffffffffffffffffffffffffffffffffff048311821515161561515d5761515c6150a1565b5b828202905092915050565b600061517382614709565b915061517e83614709565b92508263ffffffff03821115615197576151966150a1565b5b828201905092915050565b7f4e487b7100000000000000000000000000000000000000000000000000000000600052601260045260246000fd5b60006151dc82614503565b91506151e783614503565b9250826151f7576151f66151a2565b5b828204905092915050565b600061520d82614503565b915061521883614503565b92508260ff0382111561522e5761522d6150a1565b5b828201905092915050565b600061524482614503565b915060ff8203615257576152566150a1565b5b600182019050919050565b600061526d82614503565b915061527883614503565b92508282101561528b5761528a6150a1565b5b828203905092915050565b60006152a182614503565b91506152ac83614503565b92508160ff04831182151516156152c6576152c56150a1565b5b828202905092915050565b60006152dc82614709565b91506152e783614709565b9250828210156152fa576152f96150a1565b5b828203905092915050565b600061531082614444565b915061531b83614444565b9250827fffffffffffffffffffffffffffffffffffffffffffffffffffffffffffffffff038211156153505761534f6150a1565b5b828201905092915050565b7f726f6f6d206e6f7420636c6f7365640000000000000000000000000000000000600082015250565b6000615391600f83614fa3565b915061539c8261535b565b602082019050919050565b600060208201905081810360008301526153c081615384565b9050919050565b60006153d282614444565b91507fffffffffffffffffffffffffffffffffffffffffffffffffffffffffffffffff8203615404576154036150a1565b5b600182019050919050565b60008160011c9050919050565b6000808291508390505b600185111561546657808604811115615442576154416150a1565b5b60018516156154515780820291505b808102905061545f8561540f565b9450615426565b94509492505050565b60008261547f576001905061553b565b8161548d576000905061553b565b81600181146154a357600281146154ad576154dc565b600191505061553b565b60ff8411156154bf576154be6150a1565b5b8360020a9150848211156154d6576154d56150a1565b5b5061553b565b5060208310610133831016604e8410600b84101617156155115782820a90508381111561550c5761550b6150a1565b5b61553b565b61551e848484600161541c565b92509050818404811115615535576155346150a1565b5b81810290505b9392505050565b600061554d82614444565b915061555883614503565b92506155857fffffffffffffffffffffffffffffffffffffffffffffffffffffffffffffffff848461546f565b905092915050565b7f4e487b7100000000000000000000000000000000000000000000000000000000600052602260045260246000fd5b600060028204905060018216806155d457607f821691505b6020821081036155e7576155e661558d565b5b50919050565b7f6e6f7420796f757220726f6f6d00000000000000000000000000000000000000600082015250565b6000615623600d83614fa3565b915061562e826155ed565b602082019050919050565b6000602082019050818103600083015261565281615616565b9050919050565b61566281614444565b82525050565b600082825260208201905092915050565b61568281614444565b82525050565b60006156948383615679565b60208301905092915050565b60006156ab826148eb565b6156b58185615668565b93506156c083614907565b8060005b838110156156f15781516156d88882615688565b97506156e38361492f565b9250506001810190506156c4565b5085935050505092915050565b60006040820190506157136000830185615659565b818103602083015261572581846156a0565b90509392505050565b6157378161458b565b811461574257600080fd5b50565b6000815190506157548161572e565b92915050565b6000602082840312156157705761576f61443a565b5b600061577e84828501615745565b91505092915050565b600081905092915050565b600061579d82614af1565b6157a78185615787565b93506157b7818560208601614b0d565b80840191505092915050565b60006157cf8285615792565b91506157db8284615792565b91508190509392505050565b60006157f38284615792565b915081905092915050565b7f4f776e61626c653a206e6577206f776e657220697320746865207a65726f206160008201527f6464726573730000000000000000000000000000000000000000000000000000602082015250565b600061585a602683614fa3565b9150615865826157fe565b604082019050919050565b600060208201905081810360008301526158898161584d565b9050919050565b600061589b82614a71565b91506158a683614a71565b92508161ffff04831182151516156158c1576158c06150a1565b5b828202905092915050565b60006158d782614a71565b91506158e283614a71565b92508261ffff038211156158f9576158f86150a1565b5b828201905092915050565b60006040820190506159196000830185615659565b6159266020830184615659565b9392505050565b60008151905061593c8161444e565b92915050565b6000602082840312156159585761595761443a565b5b60006159668482850161592d565b91505092915050565b6000604082019050615984600083018561457c565b615991602083018461457c565b9392505050565b60006159a382614444565b91506159ae83614444565b9250826159be576159bd6151a2565b5b828206905092915050565b7f4f776e61626c653a2063616c6c6572206973206e6f7420746865206f776e6572600082015250565b60006159ff602083614fa3565b9150615a0a826159c9565b602082019050919050565b60006020820190508181036000830152615a2e816159f2565b9050919050565b7f656e67696e65206d75737420626520656d707479000000000000000000000000600082015250565b6000615a6b601483614fa3565b9150615a7682615a35565b602082019050919050565b60006020820190508181036000830152615a9a81615a5e565b9050919050565b7f63686173736973206d75737420626520656d7074790000000000000000000000600082015250565b6000615ad7601583614fa3565b9150615ae282615aa1565b602082019050919050565b60006020820190508181036000830152615b0681615aca565b9050919050565b7f697420697320796f7572206c6173742063617200000000000000000000000000600082015250565b6000615b43601383614fa3565b9150615b4e82615b0d565b602082019050919050565b60006020820190508181036000830152615b7281615b36565b9050919050565b6000615b8482614444565b9150615b8f83614444565b925082821015615ba257615ba16150a1565b5b828203905092915050565b6000615bb882614444565b9150615bc383614444565b925082615bd357615bd26151a2565b5b82820490509291505056fea26469706673582212201828f9c7037959ae2ada13d4546b346aca165f30249c1f69c7d6a6498a97a5b564736f6c634300080d0033",
  "immutableReferences": {},
  "source": "// SPDX-License-Identifier: MIT\npragma solidity ^0.8.13;\n\nimport \"../node_modules/@openzeppelin/contracts/utils/math/SafeMath.sol\";\nimport \"./CarRacing.sol\";\n\ncontract TokenOwnership is CarRacing{\n    using SafeMath for uint256;\n\n    mapping (uint => address) carApprovals;\n    mapping (uint => address) engineApprovals;\n    mapping (uint => address) chassisApprovals;\n\n\n    function balanceOfCars(address _owner) external view returns (uint256) {\n        return ownerCarCount[_owner];\n    }\n    function ownerOfCar(uint256 _tokenId) external view returns(address) {\n        return carToOwner[_tokenId];\n    }\n    function _transferCar(address _from, address _to, uint256 _tokenId) private {\n        require(cars[_tokenId].engineId == 0, \"engine must be empty\");\n        require(cars[_tokenId].chassisId == 0, \"chassis must be empty\");\n        require(ownerCarCount[_from]>0, \"it is your last car\");\n        ownerCarCount[_to] = ownerCarCount[_to].add(1);\n        ownerCarCount[_from] = ownerCarCount[_from].sub(1);\n        carToOwner[_tokenId] = _to;\n    }\n    function transferCarFrom(address _from, address _to, uint256 _tokenId) external payable {\n        require (carToOwner[_tokenId] == _from || carApprovals[_tokenId] == msg.sender);\n        _transferCar(_from, _to, _tokenId);\n    }\n    function approveCar(address _approved, uint256 _tokenId) external payable onlyOwnerOfCar(_tokenId) {\n        carApprovals[_tokenId] = _approved;\n    }\n\n\n    function balanceOfEngines(address _owner) external view returns (uint256) {\n        return ownerEngineCount[_owner];\n    }\n    function ownerOfEngine(uint256 _tokenId) external view returns(address) {\n        return engineToOwner[_tokenId];\n    }\n    function _transferEngine(address _from, address _to, uint256 _tokenId) private {\n        ownerEngineCount[_to] = ownerEngineCount[_to].add(1);\n        ownerEngineCount[_from] = ownerEngineCount[_from].sub(1);\n        engineToOwner[_tokenId] = _to;\n    }\n    function transferEngineFrom(address _from, address _to, uint256 _tokenId) external payable {\n        require (engineToOwner[_tokenId] == _from || engineApprovals[_tokenId] == msg.sender);\n        _transferEngine(_from, _to, _tokenId);\n    }\n    function approveEngine(address _approved, uint256 _tokenId) external payable onlyOwnerOfEngine(_tokenId) {\n        engineApprovals[_tokenId] = _approved;\n    }\n\n    \n    function balanceOfChassis(address _owner) external view returns (uint256) {\n        return ownerChassisCount[_owner];\n    }\n    function ownerOfChassis(uint256 _tokenId) external view returns(address) {\n        return chassisToOwner[_tokenId];\n    }\n    function _transferChassis(address _from, address _to, uint256 _tokenId) private {\n        ownerChassisCount[_to] = ownerChassisCount[_to].add(1);\n        ownerChassisCount[_from] = ownerChassisCount[_from].sub(1);\n        chassisToOwner[_tokenId] = _to;\n    }\n    function transferChassisFrom(address _from, address _to, uint256 _tokenId) external payable {\n        require (chassisToOwner[_tokenId] == _from || chassisApprovals[_tokenId] == msg.sender);\n        _transferChassis(_from, _to, _tokenId);\n    }\n    function approveChassis(address _approved, uint256 _tokenId) external payable onlyOwnerOfChassis(_tokenId) {\n        chassisApprovals[_tokenId] = _approved;\n    }\n}",
  "sourcePath": "/Users/vvan/Programming/JavaScript/DriveSafely/contract/contracts/TokenOwnership.sol",
  "compiler": {
    "name": "solc",
    "version": "0.8.13+commit.abaa5c0e.Emscripten.clang"
  },
  "schemaVersion": "3.4.11",
  "updatedAt": "2023-01-08T10:44:12.340Z",
  "devdoc": {
    "kind": "dev",
    "methods": {
      "owner()": {
        "details": "Returns the address of the current owner."
      },
      "renounceOwnership()": {
        "details": "Leaves the contract without owner. It will not be possible to call `onlyOwner` functions anymore. Can only be called by the current owner. NOTE: Renouncing ownership will leave the contract without an owner, thereby removing any functionality that is only available to the owner."
      },
      "transferOwnership(address)": {
        "details": "Transfers ownership of the contract to a new account (`newOwner`). Can only be called by the current owner."
      }
    },
    "version": 1
  },
  "userdoc": {
    "kind": "user",
    "methods": {},
    "version": 1
  }
}