{
  "contractName": "TokenOwnership",
  "abi": [
    {
      "anonymous": false,
      "inputs": [
        {
          "indexed": true,
          "internalType": "address",
          "name": "previousOwner",
          "type": "address"
        },
        {
          "indexed": true,
          "internalType": "address",
          "name": "newOwner",
          "type": "address"
        }
      ],
      "name": "OwnershipTransferred",
      "type": "event"
    },
    {
      "anonymous": false,
      "inputs": [
        {
          "indexed": false,
          "internalType": "uint256",
          "name": "roomId",
          "type": "uint256"
        }
      ],
      "name": "RoomClosed",
      "type": "event"
    },
    {
      "anonymous": false,
      "inputs": [
        {
          "indexed": false,
          "internalType": "uint256",
          "name": "roomId",
          "type": "uint256"
        },
        {
          "indexed": false,
          "internalType": "uint256",
          "name": "roomDNA",
          "type": "uint256"
        }
      ],
      "name": "RoomFull",
      "type": "event"
    },
    {
      "inputs": [
        {
          "internalType": "uint256",
          "name": "",
          "type": "uint256"
        }
      ],
      "name": "carToOwner",
      "outputs": [
        {
          "internalType": "address",
          "name": "",
          "type": "address"
        }
      ],
      "stateMutability": "view",
      "type": "function"
    },
    {
      "inputs": [
        {
          "internalType": "uint256",
          "name": "",
          "type": "uint256"
        }
      ],
      "name": "cars",
      "outputs": [
        {
          "internalType": "string",
          "name": "model",
          "type": "string"
        },
        {
          "internalType": "uint256",
          "name": "vin",
          "type": "uint256"
        },
        {
          "internalType": "uint256",
          "name": "engineId",
          "type": "uint256"
        },
        {
          "internalType": "uint256",
          "name": "chassisId",
          "type": "uint256"
        },
        {
          "internalType": "uint8",
          "name": "carLevel",
          "type": "uint8"
        },
        {
          "internalType": "uint256",
          "name": "mileage",
          "type": "uint256"
        },
        {
          "internalType": "uint256",
          "name": "winCountOnCurrentLevel",
          "type": "uint256"
        },
        {
          "internalType": "uint256",
          "name": "lossCountOnCurrentLevel",
          "type": "uint256"
        }
      ],
      "stateMutability": "view",
      "type": "function"
    },
    {
      "inputs": [
        {
          "internalType": "uint256",
          "name": "",
          "type": "uint256"
        }
      ],
      "name": "chassis",
      "outputs": [
        {
          "internalType": "uint256",
          "name": "id",
          "type": "uint256"
        },
        {
          "internalType": "uint32",
          "name": "durability",
          "type": "uint32"
        },
        {
          "internalType": "uint32",
          "name": "resource",
          "type": "uint32"
        }
      ],
      "stateMutability": "view",
      "type": "function"
    },
    {
      "inputs": [
        {
          "internalType": "uint256",
          "name": "",
          "type": "uint256"
        }
      ],
      "name": "chassisToOwner",
      "outputs": [
        {
          "internalType": "address",
          "name": "",
          "type": "address"
        }
      ],
      "stateMutability": "view",
      "type": "function"
    },
    {
      "inputs": [
        {
          "internalType": "uint256",
          "name": "roomId",
          "type": "uint256"
        },
        {
          "internalType": "uint256[]",
          "name": "answer",
          "type": "uint256[]"
        }
      ],
      "name": "commitAnswer",
      "outputs": [],
      "stateMutability": "nonpayable",
      "type": "function"
    },
    {
      "inputs": [
        {
          "internalType": "string",
          "name": "model",
          "type": "string"
        }
      ],
      "name": "createCar",
      "outputs": [],
      "stateMutability": "nonpayable",
      "type": "function"
    },
    {
      "inputs": [],
      "name": "createFuelStation",
      "outputs": [],
      "stateMutability": "nonpayable",
      "type": "function"
    },
    {
      "inputs": [
        {
          "internalType": "uint256",
          "name": "",
          "type": "uint256"
        }
      ],
      "name": "engineToOwner",
      "outputs": [
        {
          "internalType": "address",
          "name": "",
          "type": "address"
        }
      ],
      "stateMutability": "view",
      "type": "function"
    },
    {
      "inputs": [
        {
          "internalType": "uint256",
          "name": "",
          "type": "uint256"
        }
      ],
      "name": "engines",
      "outputs": [
        {
          "internalType": "uint256",
          "name": "id",
          "type": "uint256"
        },
        {
          "internalType": "uint16",
          "name": "horsePowers",
          "type": "uint16"
        },
        {
          "internalType": "uint8",
          "name": "consumtion",
          "type": "uint8"
        }
      ],
      "stateMutability": "view",
      "type": "function"
    },
    {
      "inputs": [
        {
          "internalType": "uint256",
          "name": "carId",
          "type": "uint256"
        }
      ],
      "name": "findRoom",
      "outputs": [],
      "stateMutability": "nonpayable",
      "type": "function"
    },
    {
      "inputs": [
        {
          "internalType": "uint256",
          "name": "",
          "type": "uint256"
        }
      ],
      "name": "fuelStationToOwner",
      "outputs": [
        {
          "internalType": "address",
          "name": "",
          "type": "address"
        }
      ],
      "stateMutability": "view",
      "type": "function"
    },
    {
      "inputs": [
        {
          "internalType": "address",
          "name": "_owner",
          "type": "address"
        }
      ],
      "name": "getCarsByOwner",
      "outputs": [
        {
          "components": [
            {
              "internalType": "string",
              "name": "model",
              "type": "string"
            },
            {
              "internalType": "uint256",
              "name": "vin",
              "type": "uint256"
            },
            {
              "internalType": "uint256",
              "name": "engineId",
              "type": "uint256"
            },
            {
              "internalType": "uint256",
              "name": "chassisId",
              "type": "uint256"
            },
            {
              "internalType": "uint8",
              "name": "carLevel",
              "type": "uint8"
            },
            {
              "internalType": "uint256",
              "name": "mileage",
              "type": "uint256"
            },
            {
              "internalType": "uint256",
              "name": "winCountOnCurrentLevel",
              "type": "uint256"
            },
            {
              "internalType": "uint256",
              "name": "lossCountOnCurrentLevel",
              "type": "uint256"
            }
          ],
          "internalType": "struct CarFactory.Car[]",
          "name": "",
          "type": "tuple[]"
        }
      ],
      "stateMutability": "view",
      "type": "function"
    },
    {
      "inputs": [
        {
          "internalType": "address",
          "name": "_owner",
          "type": "address"
        }
      ],
      "name": "getChassisByOwner",
      "outputs": [
        {
          "internalType": "uint256[]",
          "name": "",
          "type": "uint256[]"
        }
      ],
      "stateMutability": "view",
      "type": "function"
    },
    {
      "inputs": [
        {
          "internalType": "uint256",
          "name": "roomId",
          "type": "uint256"
        }
      ],
      "name": "getClosedRoom",
      "outputs": [
        {
          "components": [
            {
              "internalType": "address",
              "name": "player",
              "type": "address"
            },
            {
              "internalType": "bool",
              "name": "correct",
              "type": "bool"
            },
            {
              "internalType": "uint256",
              "name": "time",
              "type": "uint256"
            },
            {
              "internalType": "uint256",
              "name": "carId",
              "type": "uint256"
            }
          ],
          "internalType": "struct RaceHandler.Answer[]",
          "name": "",
          "type": "tuple[]"
        }
      ],
      "stateMutability": "view",
      "type": "function"
    },
    {
      "inputs": [
        {
          "internalType": "address",
          "name": "_owner",
          "type": "address"
        }
      ],
      "name": "getEnginesByOwner",
      "outputs": [
        {
          "internalType": "uint256[]",
          "name": "",
          "type": "uint256[]"
        }
      ],
      "stateMutability": "view",
      "type": "function"
    },
    {
      "inputs": [
        {
          "internalType": "address",
          "name": "_owner",
          "type": "address"
        }
      ],
      "name": "getFuelStationByOwner",
      "outputs": [
        {
          "components": [
            {
              "internalType": "uint256",
              "name": "id",
              "type": "uint256"
            },
            {
              "internalType": "uint8",
              "name": "capacity",
              "type": "uint8"
            },
            {
              "internalType": "uint8",
              "name": "productionPerHour",
              "type": "uint8"
            },
            {
              "internalType": "uint8",
              "name": "currentFullness",
              "type": "uint8"
            },
            {
              "internalType": "uint256",
              "name": "lastUpdate",
              "type": "uint256"
            }
          ],
          "internalType": "struct FuelStationFactory.FuelStation",
          "name": "",
          "type": "tuple"
        }
      ],
      "stateMutability": "view",
      "type": "function"
    },
    {
      "inputs": [
        {
          "internalType": "uint256",
          "name": "",
          "type": "uint256"
        }
      ],
      "name": "idToStartedRooms",
      "outputs": [
        {
          "internalType": "uint256",
          "name": "numberPlayers",
          "type": "uint256"
        },
        {
          "internalType": "uint256",
          "name": "world",
          "type": "uint256"
        },
        {
          "internalType": "uint256",
          "name": "roomDNA",
          "type": "uint256"
        },
        {
          "internalType": "uint256",
          "name": "startTime",
          "type": "uint256"
        },
        {
          "internalType": "uint256",
          "name": "curAnswer",
          "type": "uint256"
        },
        {
          "internalType": "bool",
          "name": "closed",
          "type": "bool"
        }
      ],
      "stateMutability": "view",
      "type": "function"
    },
    {
      "inputs": [
        {
          "internalType": "uint256",
          "name": "_carId",
          "type": "uint256"
        }
      ],
      "name": "levelUp",
      "outputs": [],
      "stateMutability": "payable",
      "type": "function"
    },
    {
      "inputs": [
        {
          "internalType": "uint256",
          "name": "",
          "type": "uint256"
        }
      ],
      "name": "openedRooms",
      "outputs": [
        {
          "internalType": "uint256",
          "name": "id",
          "type": "uint256"
        },
        {
          "internalType": "uint256",
          "name": "playersEntered",
          "type": "uint256"
        },
        {
          "internalType": "uint256",
          "name": "world",
          "type": "uint256"
        },
        {
          "components": [
            {
              "internalType": "uint256",
              "name": "playersNeeded",
              "type": "uint256"
            },
            {
              "internalType": "uint256",
              "name": "roadsNum",
              "type": "uint256"
            },
            {
              "internalType": "uint256",
              "name": "crossId",
              "type": "uint256"
            }
          ],
          "internalType": "struct RaceHandler.Cross",
          "name": "cross",
          "type": "tuple"
        }
      ],
      "stateMutability": "view",
      "type": "function"
    },
    {
      "inputs": [],
      "name": "owner",
      "outputs": [
        {
          "internalType": "address",
          "name": "",
          "type": "address"
        }
      ],
      "stateMutability": "view",
      "type": "function"
    },
    {
      "inputs": [
        {
          "internalType": "address",
          "name": "",
          "type": "address"
        }
      ],
      "name": "ownerCarCount",
      "outputs": [
        {
          "internalType": "uint256",
          "name": "",
          "type": "uint256"
        }
      ],
      "stateMutability": "view",
      "type": "function"
    },
    {
      "inputs": [],
      "name": "renounceOwnership",
      "outputs": [],
      "stateMutability": "nonpayable",
      "type": "function"
    },
    {
      "inputs": [
        {
          "internalType": "uint256",
          "name": "_carId",
          "type": "uint256"
        }
      ],
      "name": "startRace",
      "outputs": [],
      "stateMutability": "nonpayable",
      "type": "function"
    },
    {
      "inputs": [
        {
          "internalType": "uint256",
          "name": "",
          "type": "uint256"
        }
      ],
      "name": "stations",
      "outputs": [
        {
          "internalType": "uint256",
          "name": "id",
          "type": "uint256"
        },
        {
          "internalType": "uint8",
          "name": "capacity",
          "type": "uint8"
        },
        {
          "internalType": "uint8",
          "name": "productionPerHour",
          "type": "uint8"
        },
        {
          "internalType": "uint8",
          "name": "currentFullness",
          "type": "uint8"
        },
        {
          "internalType": "uint256",
          "name": "lastUpdate",
          "type": "uint256"
        }
      ],
      "stateMutability": "view",
      "type": "function"
    },
    {
      "inputs": [
        {
          "internalType": "address",
          "name": "newOwner",
          "type": "address"
        }
      ],
      "name": "transferOwnership",
      "outputs": [],
      "stateMutability": "nonpayable",
      "type": "function"
    },
    {
      "inputs": [
        {
          "internalType": "uint256",
          "name": "_fuelStatonId",
          "type": "uint256"
        },
        {
          "internalType": "uint8",
          "name": "_counts",
          "type": "uint8"
        }
      ],
      "name": "upgradeCapacity",
      "outputs": [],
      "stateMutability": "payable",
      "type": "function"
    },
    {
      "inputs": [
        {
          "internalType": "uint256",
          "name": "_engineId",
          "type": "uint256"
        },
        {
          "internalType": "uint8",
          "name": "_counts",
          "type": "uint8"
        }
      ],
      "name": "upgradeConsumtion",
      "outputs": [],
      "stateMutability": "payable",
      "type": "function"
    },
    {
      "inputs": [
        {
          "internalType": "uint256",
          "name": "_chassisId",
          "type": "uint256"
        },
        {
          "internalType": "uint8",
          "name": "_counts",
          "type": "uint8"
        }
      ],
      "name": "upgradeDurability",
      "outputs": [],
      "stateMutability": "payable",
      "type": "function"
    },
    {
      "inputs": [
        {
          "internalType": "uint256",
          "name": "_engineId",
          "type": "uint256"
        },
        {
          "internalType": "uint8",
          "name": "_counts",
          "type": "uint8"
        }
      ],
      "name": "upgradeHorsePowers",
      "outputs": [],
      "stateMutability": "payable",
      "type": "function"
    },
    {
      "inputs": [
        {
          "internalType": "uint256",
          "name": "_fuelStatonId",
          "type": "uint256"
        },
        {
          "internalType": "uint8",
          "name": "_counts",
          "type": "uint8"
        }
      ],
      "name": "upgradeProductionPerHour",
      "outputs": [],
      "stateMutability": "payable",
      "type": "function"
    },
    {
      "inputs": [
        {
          "internalType": "address",
          "name": "_owner",
          "type": "address"
        }
      ],
      "name": "balanceOfCars",
      "outputs": [
        {
          "internalType": "uint256",
          "name": "",
          "type": "uint256"
        }
      ],
      "stateMutability": "view",
      "type": "function"
    },
    {
      "inputs": [
        {
          "internalType": "uint256",
          "name": "_tokenId",
          "type": "uint256"
        }
      ],
      "name": "ownerOfCar",
      "outputs": [
        {
          "internalType": "address",
          "name": "",
          "type": "address"
        }
      ],
      "stateMutability": "view",
      "type": "function"
    },
    {
      "inputs": [
        {
          "internalType": "address",
          "name": "_from",
          "type": "address"
        },
        {
          "internalType": "address",
          "name": "_to",
          "type": "address"
        },
        {
          "internalType": "uint256",
          "name": "_tokenId",
          "type": "uint256"
        }
      ],
      "name": "transferCarFrom",
      "outputs": [],
      "stateMutability": "payable",
      "type": "function"
    },
    {
      "inputs": [
        {
          "internalType": "address",
          "name": "_approved",
          "type": "address"
        },
        {
          "internalType": "uint256",
          "name": "_tokenId",
          "type": "uint256"
        }
      ],
      "name": "approveCar",
      "outputs": [],
      "stateMutability": "payable",
      "type": "function"
    },
    {
      "inputs": [
        {
          "internalType": "address",
          "name": "_owner",
          "type": "address"
        }
      ],
      "name": "balanceOfEngines",
      "outputs": [
        {
          "internalType": "uint256",
          "name": "",
          "type": "uint256"
        }
      ],
      "stateMutability": "view",
      "type": "function"
    },
    {
      "inputs": [
        {
          "internalType": "uint256",
          "name": "_tokenId",
          "type": "uint256"
        }
      ],
      "name": "ownerOfEngine",
      "outputs": [
        {
          "internalType": "address",
          "name": "",
          "type": "address"
        }
      ],
      "stateMutability": "view",
      "type": "function"
    },
    {
      "inputs": [
        {
          "internalType": "address",
          "name": "_from",
          "type": "address"
        },
        {
          "internalType": "address",
          "name": "_to",
          "type": "address"
        },
        {
          "internalType": "uint256",
          "name": "_tokenId",
          "type": "uint256"
        }
      ],
      "name": "transferEngineFrom",
      "outputs": [],
      "stateMutability": "payable",
      "type": "function"
    },
    {
      "inputs": [
        {
          "internalType": "address",
          "name": "_approved",
          "type": "address"
        },
        {
          "internalType": "uint256",
          "name": "_tokenId",
          "type": "uint256"
        }
      ],
      "name": "approveEngine",
      "outputs": [],
      "stateMutability": "payable",
      "type": "function"
    },
    {
      "inputs": [
        {
          "internalType": "address",
          "name": "_owner",
          "type": "address"
        }
      ],
      "name": "balanceOfChassis",
      "outputs": [
        {
          "internalType": "uint256",
          "name": "",
          "type": "uint256"
        }
      ],
      "stateMutability": "view",
      "type": "function"
    },
    {
      "inputs": [
        {
          "internalType": "uint256",
          "name": "_tokenId",
          "type": "uint256"
        }
      ],
      "name": "ownerOfChassis",
      "outputs": [
        {
          "internalType": "address",
          "name": "",
          "type": "address"
        }
      ],
      "stateMutability": "view",
      "type": "function"
    },
    {
      "inputs": [
        {
          "internalType": "address",
          "name": "_from",
          "type": "address"
        },
        {
          "internalType": "address",
          "name": "_to",
          "type": "address"
        },
        {
          "internalType": "uint256",
          "name": "_tokenId",
          "type": "uint256"
        }
      ],
      "name": "transferChassisFrom",
      "outputs": [],
      "stateMutability": "payable",
      "type": "function"
    },
    {
      "inputs": [
        {
          "internalType": "address",
          "name": "_approved",
          "type": "address"
        },
        {
          "internalType": "uint256",
          "name": "_tokenId",
          "type": "uint256"
        }
      ],
      "name": "approveChassis",
      "outputs": [],
      "stateMutability": "payable",
      "type": "function"
    }
  ],
  "bytecode": "0x6080604052603c600060146101000a81548160ff021916908360ff1602179055506005600060156101000a81548160ff021916908360ff160217905550600160085560016009556509184e72a00060135565b5e620f48000601455650da475abf0006015556611c37937e080006016556305f5e10060175566038d7ea4c680006018553480156200008f57600080fd5b50620000b0620000a46200034760201b60201c565b6200034f60201b60201c565b6050600381905550605b600481905550600a600560006101000a81548160ff021916908360ff160217905550620186a06006819055506201d4c1600781905550600b60018160018154018082558091505003906000526020600020905050600c600181600181540180825580915050039060005260206000209050506019604051806060016040528060048152602001600481526020016000815250908060018154018082558091505060019003906000526020600020906003020160009091909190915060008201518160000155602082015181600101556040820151816002015550506019604051806060016040528060038152602001600481526020016000815250908060018154018082558091505060019003906000526020600020906003020160009091909190915060008201518160000155602082015181600101556040820151816002015550506019604051806060016040528060028152602001600481526020016000815250908060018154018082558091505060019003906000526020600020906003020160009091909190915060008201518160000155602082015181600101556040820151816002015550506019604051806060016040528060038152602001600381526020016001815250908060018154018082558091505060019003906000526020600020906003020160009091909190915060008201518160000155602082015181600101556040820151816002015550506019604051806060016040528060028152602001600381526020016001815250908060018154018082558091505060019003906000526020600020906003020160009091909190915060008201518160000155602082015181600101556040820151816002015550506001601c8190555062000413565b600033905090565b60008060009054906101000a900473ffffffffffffffffffffffffffffffffffffffff169050816000806101000a81548173ffffffffffffffffffffffffffffffffffffffff021916908373ffffffffffffffffffffffffffffffffffffffff1602179055508173ffffffffffffffffffffffffffffffffffffffff168173ffffffffffffffffffffffffffffffffffffffff167f8be0079c531659141344cd1fd0a4f28419497f9722a3daafe3b4186f6b6457e060405160405180910390a35050565b615d7c80620004236000396000f3fe6080604052600436106102515760003560e01c8063715018a611610139578063b3b29afd116100b6578063ede6fbf51161007a578063ede6fbf51461092a578063f2fde38b14610953578063f66911b11461097c578063f7746e3614610998578063faf4bb98146109dc578063fb2d954f146109f857610251565b8063b3b29afd1461082c578063b44a4e9314610869578063b72c0eea14610885578063c75bb4f4146108c4578063c85b7fed1461090157610251565b806387d6b9b2116100fd57806387d6b9b21461074b5780638b579973146107885780638da5cb5b146107a4578063906f5f34146107cf57806392f859db146107eb57610251565b8063715018a6146106a35780637713d521146106ba5780637c62360f146106f75780637ec5c75c14610713578063859092671461072f57610251565b8063254dc065116101d2578063449014901161019657806344901490146105355780634e31f91014610572578063594193d7146105af5780635c426aff146105ec5780635dcc4cc6146106295780636f206fc11461066657610251565b8063254dc065146104045780632cb03a3a1461044157806333ca504b1461047e5780633521c426146104bb5780633dfd6f54146104f857610251565b80630e0f7049116102195780630e0f70491461034d5780631c5dde0e146103695780631e85ab9b146103a8578063224370f0146103c457806324d822bf146103db57610251565b806302b677451461025657806303f2e05b146102935780630418394e146102af578063081315ff146102f15780630ce90ec214610331575b600080fd5b34801561026257600080fd5b5061027d6004803603810190610278919061455f565b610a21565b60405161028a91906145cd565b60405180910390f35b6102ad60048036038101906102a89190614621565b610a5e565b005b3480156102bb57600080fd5b506102d660048036038101906102d1919061455f565b610b96565b6040516102e89695949392919061468b565b60405180910390f35b3480156102fd57600080fd5b506103186004803603810190610313919061455f565b610bdf565b604051610328949392919061473d565b60405180910390f35b61034b6004803603810190610346919061455f565b610c47565b005b610367600480360381019061036291906147ae565b610dc6565b005b34801561037557600080fd5b50610390600480360381019061038b919061455f565b610e89565b60405161039f9392919061480d565b60405180910390f35b6103c260048036038101906103bd91906147ae565b610ee3565b005b3480156103d057600080fd5b506103d9610fa6565b005b3480156103e757600080fd5b5061040260048036038101906103fd919061455f565b611112565b005b34801561041057600080fd5b5061042b60048036038101906104269190614844565b611328565b6040516104389190614871565b60405180910390f35b34801561044d57600080fd5b5061046860048036038101906104639190614844565b611371565b6040516104759190614871565b60405180910390f35b34801561048a57600080fd5b506104a560048036038101906104a0919061455f565b6113ba565b6040516104b291906145cd565b60405180910390f35b3480156104c757600080fd5b506104e260048036038101906104dd919061455f565b6113ed565b6040516104ef91906149ae565b60405180910390f35b34801561050457600080fd5b5061051f600480360381019061051a919061455f565b61154a565b60405161052c91906145cd565b60405180910390f35b34801561054157600080fd5b5061055c6004803603810190610557919061455f565b611587565b60405161056991906145cd565b60405180910390f35b34801561057e57600080fd5b5061059960048036038101906105949190614844565b6115ba565b6040516105a69190614a47565b60405180910390f35b3480156105bb57600080fd5b506105d660048036038101906105d1919061455f565b6116f9565b6040516105e391906145cd565b60405180910390f35b3480156105f857600080fd5b50610613600480360381019061060e919061455f565b61172c565b60405161062091906145cd565b60405180910390f35b34801561063557600080fd5b50610650600480360381019061064b919061455f565b611769565b60405161065d91906145cd565b60405180910390f35b34801561067257600080fd5b5061068d60048036038101906106889190614844565b61179c565b60405161069a9190614b11565b60405180910390f35b3480156106af57600080fd5b506106b86118ee565b005b3480156106c657600080fd5b506106e160048036038101906106dc9190614844565b611902565b6040516106ee9190614b11565b60405180910390f35b610711600480360381019061070c9190614621565b611a54565b005b61072d60048036038101906107289190614b33565b611b81565b005b61074960048036038101906107449190614621565b611c65565b005b34801561075757600080fd5b50610772600480360381019061076d9190614844565b611d88565b60405161077f9190614871565b60405180910390f35b6107a2600480360381019061079d9190614b33565b611dd1565b005b3480156107b057600080fd5b506107b9611eb5565b6040516107c691906145cd565b60405180910390f35b6107e960048036038101906107e49190614621565b611ede565b005b3480156107f757600080fd5b50610812600480360381019061080d919061455f565b612001565b604051610823959493929190614b95565b60405180910390f35b34801561083857600080fd5b50610853600480360381019061084e9190614844565b61206e565b6040516108609190614871565b60405180910390f35b610883600480360381019061087e91906147ae565b612086565b005b34801561089157600080fd5b506108ac60048036038101906108a7919061455f565b612149565b6040516108bb93929190614c05565b60405180910390f35b3480156108d057600080fd5b506108eb60048036038101906108e69190614844565b61219e565b6040516108f89190614e47565b60405180910390f35b34801561090d57600080fd5b5061092860048036038101906109239190614fb1565b612412565b005b34801561093657600080fd5b50610951600480360381019061094c91906150c2565b612795565b005b34801561095f57600080fd5b5061097a60048036038101906109759190614844565b6129f6565b005b61099660048036038101906109919190614b33565b612a79565b005b3480156109a457600080fd5b506109bf60048036038101906109ba919061455f565b612b5d565b6040516109d3989796959493929190615155565b60405180910390f35b6109f660048036038101906109f19190614621565b612c4a565b005b348015610a0457600080fd5b50610a1f6004803603810190610a1a919061455f565b612d78565b005b6000600d600083815260200190815260200160002060009054906101000a900473ffffffffffffffffffffffffffffffffffffffff169050919050565b81600f600082815260200190815260200160002060009054906101000a900473ffffffffffffffffffffffffffffffffffffffff1673ffffffffffffffffffffffffffffffffffffffff163373ffffffffffffffffffffffffffffffffffffffff1614610aca57600080fd5b601754600c8481548110610ae157610ae06151da565b5b906000526020600020906002020160010160009054906101000a900463ffffffff168360ff16610b119190615238565b63ffffffff16610b219190615276565b3414610b2c57600080fd5b8160ff16600c8481548110610b4457610b436151da565b5b906000526020600020906002020160010160008282829054906101000a900463ffffffff16610b7391906152d0565b92506101000a81548163ffffffff021916908363ffffffff160217905550505050565b601e6020528060005260406000206000915090508060000154908060010154908060020154908060030154908060050154908060060160009054906101000a900460ff16905086565b601d8181548110610bef57600080fd5b9060005260206000209060060201600091509050806000015490806001015490806002015490806003016040518060600160405290816000820154815260200160018201548152602001600282015481525050905084565b600a808281548110610c5c57610c5b6151da565b5b906000526020600020906008020160040160009054906101000a900460ff16610c859190615339565b60ff16601854610c959190615276565b34148015610d0957506001600a8281548110610cb457610cb36151da565b5b906000526020600020906008020160040160009054906101000a900460ff16610cdd919061536a565b60ff16600a8281548110610cf457610cf36151da565b5b90600052602060002090600802016006015410155b610d1257600080fd5b600a8181548110610d2657610d256151da565b5b9060005260206000209060080201600401600081819054906101000a900460ff1680929190610d54906153a1565b91906101000a81548160ff021916908360ff160217905550506000600a8281548110610d8357610d826151da565b5b9060005260206000209060080201600601819055506000600a8281548110610dae57610dad6151da565b5b90600052602060002090600802016007018190555050565b80600e600082815260200190815260200160002060009054906101000a900473ffffffffffffffffffffffffffffffffffffffff1673ffffffffffffffffffffffffffffffffffffffff163373ffffffffffffffffffffffffffffffffffffffff1614610e3257600080fd5b826020600084815260200190815260200160002060006101000a81548173ffffffffffffffffffffffffffffffffffffffff021916908373ffffffffffffffffffffffffffffffffffffffff160217905550505050565b600c8181548110610e9957600080fd5b90600052602060002090600202016000915090508060000154908060010160009054906101000a900463ffffffff16908060010160049054906101000a900463ffffffff16905083565b80600f600082815260200190815260200160002060009054906101000a900473ffffffffffffffffffffffffffffffffffffffff1673ffffffffffffffffffffffffffffffffffffffff163373ffffffffffffffffffffffffffffffffffffffff1614610f4f57600080fd5b826021600084815260200190815260200160002060006101000a81548173ffffffffffffffffffffffffffffffffffffffff021916908373ffffffffffffffffffffffffffffffffffffffff160217905550505050565b60003390506000600180549050905060016040518060a00160405280838152602001600060149054906101000a900460ff1660ff168152602001600060159054906101000a900460ff1660ff168152602001600060149054906101000a900460ff1660ff1681526020014263ffffffff1681525090806001815401808255809150506001900390600052602060002090600302016000909190919091506000820151816000015560208201518160010160006101000a81548160ff021916908360ff16021790555060408201518160010160016101000a81548160ff021916908360ff16021790555060608201518160010160026101000a81548160ff021916908360ff160217905550608082015181600201555050816002600083815260200190815260200160002060006101000a81548173ffffffffffffffffffffffffffffffffffffffff021916908373ffffffffffffffffffffffffffffffffffffffff1602179055505050565b80600d600082815260200190815260200160002060009054906101000a900473ffffffffffffffffffffffffffffffffffffffff1673ffffffffffffffffffffffffffffffffffffffff163373ffffffffffffffffffffffffffffffffffffffff161461117e57600080fd5b6000600a808481548110611195576111946151da565b5b906000526020600020906008020160040160009054906101000a900460ff166111be9190615339565b600a6111ca91906153ca565b60026111d691906153fe565b90506111e283826133d9565b801561125157508060ff16600c600a8581548110611203576112026151da565b5b90600052602060002090600802016003015481548110611226576112256151da565b5b906000526020600020906002020160010160049054906101000a900463ffffffff1663ffffffff1610155b61125a57600080fd5b8060ff16600c600a8581548110611274576112736151da565b5b90600052602060002090600802016003015481548110611297576112966151da565b5b906000526020600020906002020160010160048282829054906101000a900463ffffffff166112c69190615439565b92506101000a81548163ffffffff021916908363ffffffff1602179055508060ff16600a84815481106112fc576112fb6151da565b5b9060005260206000209060080201600501600082825461131c919061546d565b92505081905550505050565b6000601260008373ffffffffffffffffffffffffffffffffffffffff1673ffffffffffffffffffffffffffffffffffffffff168152602001908152602001600020549050919050565b6000601060008373ffffffffffffffffffffffffffffffffffffffff1673ffffffffffffffffffffffffffffffffffffffff168152602001908152602001600020549050919050565b600d6020528060005260406000206000915054906101000a900473ffffffffffffffffffffffffffffffffffffffff1681565b6060601e600083815260200190815260200160002060060160009054906101000a900460ff16611452576040517f08c379a00000000000000000000000000000000000000000000000000000000081526004016114499061550f565b60405180910390fd5b601e6000838152602001908152602001600020600401805480602002602001604051908101604052809291908181526020016000905b8282101561153f57838290600052602060002090600302016040518060800160405290816000820160009054906101000a900473ffffffffffffffffffffffffffffffffffffffff1673ffffffffffffffffffffffffffffffffffffffff1673ffffffffffffffffffffffffffffffffffffffff1681526020016000820160149054906101000a900460ff161515151581526020016001820154815260200160028201548152505081526020019060010190611488565b505050509050919050565b6000600e600083815260200190815260200160002060009054906101000a900473ffffffffffffffffffffffffffffffffffffffff169050919050565b600f6020528060005260406000206000915054906101000a900473ffffffffffffffffffffffffffffffffffffffff1681565b6115c26143f2565b600080600090505b600180549050811015611658578373ffffffffffffffffffffffffffffffffffffffff166002600083815260200190815260200160002060009054906101000a900473ffffffffffffffffffffffffffffffffffffffff1673ffffffffffffffffffffffffffffffffffffffff160361164557809150611658565b80806116509061552f565b9150506115ca565b506001818154811061166d5761166c6151da565b5b90600052602060002090600302016040518060a0016040529081600082015481526020016001820160009054906101000a900460ff1660ff1660ff1681526020016001820160019054906101000a900460ff1660ff1660ff1681526020016001820160029054906101000a900460ff1660ff1660ff168152602001600282015481525050915050919050565b60026020528060005260406000206000915054906101000a900473ffffffffffffffffffffffffffffffffffffffff1681565b6000600f600083815260200190815260200160002060009054906101000a900473ffffffffffffffffffffffffffffffffffffffff169050919050565b600e6020528060005260406000206000915054906101000a900473ffffffffffffffffffffffffffffffffffffffff1681565b60606000601160008473ffffffffffffffffffffffffffffffffffffffff1673ffffffffffffffffffffffffffffffffffffffff1681526020019081526020016000205467ffffffffffffffff8111156117f9576117f8614e6e565b5b6040519080825280602002602001820160405280156118275781602001602082028036833780820191505090505b5090506000805b600c805490508110156118e3578473ffffffffffffffffffffffffffffffffffffffff16600f600083815260200190815260200160002060009054906101000a900473ffffffffffffffffffffffffffffffffffffffff1673ffffffffffffffffffffffffffffffffffffffff16036118d057808383815181106118b5576118b46151da565b5b60200260200101818152505081806118cc9061552f565b9250505b80806118db9061552f565b91505061182e565b508192505050919050565b6118f66135a6565b6119006000613624565b565b60606000601160008473ffffffffffffffffffffffffffffffffffffffff1673ffffffffffffffffffffffffffffffffffffffff1681526020019081526020016000205467ffffffffffffffff81111561195f5761195e614e6e565b5b60405190808252806020026020018201604052801561198d5781602001602082028036833780820191505090505b5090506000805b600b80549050811015611a49578473ffffffffffffffffffffffffffffffffffffffff16600e600083815260200190815260200160002060009054906101000a900473ffffffffffffffffffffffffffffffffffffffff1673ffffffffffffffffffffffffffffffffffffffff1603611a365780838381518110611a1b57611a1a6151da565b5b6020026020010181815250508180611a329061552f565b9250505b8080611a419061552f565b915050611994565b508192505050919050565b81600e600082815260200190815260200160002060009054906101000a900473ffffffffffffffffffffffffffffffffffffffff1673ffffffffffffffffffffffffffffffffffffffff163373ffffffffffffffffffffffffffffffffffffffff1614611ac057600080fd5b600b8381548110611ad457611ad36151da565b5b906000526020600020906002020160010160029054906101000a900460ff16600a611aff91906153ca565b6002611b0b91906156aa565b601654611b189190615276565b3414611b2357600080fd5b81600b8481548110611b3857611b376151da565b5b906000526020600020906002020160010160028282829054906101000a900460ff16611b6491906153ca565b92506101000a81548160ff021916908360ff160217905550505050565b8273ffffffffffffffffffffffffffffffffffffffff16600d600083815260200190815260200160002060009054906101000a900473ffffffffffffffffffffffffffffffffffffffff1673ffffffffffffffffffffffffffffffffffffffff161480611c4c57503373ffffffffffffffffffffffffffffffffffffffff16601f600083815260200190815260200160002060009054906101000a900473ffffffffffffffffffffffffffffffffffffffff1673ffffffffffffffffffffffffffffffffffffffff16145b611c5557600080fd5b611c608383836136e8565b505050565b816002600082815260200190815260200160002060009054906101000a900473ffffffffffffffffffffffffffffffffffffffff1673ffffffffffffffffffffffffffffffffffffffff163373ffffffffffffffffffffffffffffffffffffffff1614611cd157600080fd5b60145460018481548110611ce857611ce76151da565b5b906000526020600020906003020160010160019054906101000a900460ff1683611d1291906153fe565b60ff16611d1f9190615276565b3414611d2a57600080fd5b8160018481548110611d3f57611d3e6151da565b5b906000526020600020906003020160010160018282829054906101000a900460ff16611d6b919061536a565b92506101000a81548160ff021916908360ff160217905550505050565b6000601160008373ffffffffffffffffffffffffffffffffffffffff1673ffffffffffffffffffffffffffffffffffffffff168152602001908152602001600020549050919050565b8273ffffffffffffffffffffffffffffffffffffffff16600e600083815260200190815260200160002060009054906101000a900473ffffffffffffffffffffffffffffffffffffffff1673ffffffffffffffffffffffffffffffffffffffff161480611e9c57503373ffffffffffffffffffffffffffffffffffffffff166020600083815260200190815260200160002060009054906101000a900473ffffffffffffffffffffffffffffffffffffffff1673ffffffffffffffffffffffffffffffffffffffff16145b611ea557600080fd5b611eb08383836139bd565b505050565b60008060009054906101000a900473ffffffffffffffffffffffffffffffffffffffff16905090565b816002600082815260200190815260200160002060009054906101000a900473ffffffffffffffffffffffffffffffffffffffff1673ffffffffffffffffffffffffffffffffffffffff163373ffffffffffffffffffffffffffffffffffffffff1614611f4a57600080fd5b60135460018481548110611f6157611f606151da565b5b906000526020600020906003020160010160009054906101000a900460ff1683611f8b91906153fe565b60ff16611f989190615276565b3414611fa357600080fd5b8160018481548110611fb857611fb76151da565b5b906000526020600020906003020160010160008282829054906101000a900460ff16611fe4919061536a565b92506101000a81548160ff021916908360ff160217905550505050565b6001818154811061201157600080fd5b90600052602060002090600302016000915090508060000154908060010160009054906101000a900460ff16908060010160019054906101000a900460ff16908060010160029054906101000a900460ff16908060020154905085565b60106020528060005260406000206000915090505481565b80600d600082815260200190815260200160002060009054906101000a900473ffffffffffffffffffffffffffffffffffffffff1673ffffffffffffffffffffffffffffffffffffffff163373ffffffffffffffffffffffffffffffffffffffff16146120f257600080fd5b82601f600084815260200190815260200160002060006101000a81548173ffffffffffffffffffffffffffffffffffffffff021916908373ffffffffffffffffffffffffffffffffffffffff160217905550505050565b600b818154811061215957600080fd5b90600052602060002090600202016000915090508060000154908060010160009054906101000a900461ffff16908060010160029054906101000a900460ff16905083565b60606000601060008473ffffffffffffffffffffffffffffffffffffffff1673ffffffffffffffffffffffffffffffffffffffff1681526020019081526020016000205467ffffffffffffffff8111156121fb576121fa614e6e565b5b60405190808252806020026020018201604052801561223457816020015b61222161442a565b8152602001906001900390816122195790505b5090506000805b600c80549050811015612407578473ffffffffffffffffffffffffffffffffffffffff16600d600083815260200190815260200160002060009054906101000a900473ffffffffffffffffffffffffffffffffffffffff1673ffffffffffffffffffffffffffffffffffffffff16036123f457600a81815481106122c2576122c16151da565b5b9060005260206000209060080201604051806101000160405290816000820180546122ec90615724565b80601f016020809104026020016040519081016040528092919081815260200182805461231890615724565b80156123655780601f1061233a57610100808354040283529160200191612365565b820191906000526020600020905b81548152906001019060200180831161234857829003601f168201915b505050505081526020016001820154815260200160028201548152602001600382015481526020016004820160009054906101000a900460ff1660ff1660ff16815260200160058201548152602001600682015481526020016007820154815250508383815181106123da576123d96151da565b5b602002602001018190525081806123f09061552f565b9250505b80806123ff9061552f565b91505061223b565b508192505050919050565b81601a60003373ffffffffffffffffffffffffffffffffffffffff1673ffffffffffffffffffffffffffffffffffffffff1681526020019081526020016000205414612493576040517f08c379a000000000000000000000000000000000000000000000000000000000815260040161248a906157a1565b60405180910390fd5b6000601e6000848152602001908152602001600020600201549050600073__PDDLib________________________________639c63eb2e83856040518363ffffffff1660e01b81526004016124e9929190615866565b602060405180830381865af4158015612506573d6000803e3d6000fd5b505050506040513d601f19601f8201168201806040525081019061252a91906158c2565b9050600060405180608001604052803373ffffffffffffffffffffffffffffffffffffffff1681526020018315158152602001428152602001601b60003373ffffffffffffffffffffffffffffffffffffffff1673ffffffffffffffffffffffffffffffffffffffff1681526020019081526020016000205481525090506000601e600087815260200190815260200160002090508060040182908060018154018082558091505060019003906000526020600020906003020160009091909190915060008201518160000160006101000a81548173ffffffffffffffffffffffffffffffffffffffff021916908373ffffffffffffffffffffffffffffffffffffffff16021790555060208201518160000160146101000a81548160ff02191690831515021790555060408201518160010155606082015181600201555050601e600087815260200190815260200160002060000154601e6000888152602001908152602001600020600401805490500361278d577f67acaceb58ff1ad2aa8b3069f69c4cd076824e06a09184b75fb197ead7040be7866040516126cf9190614871565b60405180910390a16001601e600088815260200190815260200160002060060160006101000a81548160ff021916908315150217905550601a60003373ffffffffffffffffffffffffffffffffffffffff1673ffffffffffffffffffffffffffffffffffffffff16815260200190815260200160002060009055601b60003373ffffffffffffffffffffffffffffffffffffffff1673ffffffffffffffffffffffffffffffffffffffff168152602001908152602001600020600090555b505050505050565b6000601060003373ffffffffffffffffffffffffffffffffffffffff1673ffffffffffffffffffffffffffffffffffffffff16815260200190815260200160002054146127e157600080fd5b6000816127ed42613b40565b6040516020016127fe92919061592b565b6040516020818303038152906040529050600081604051602001612822919061594f565b6040516020818303038152906040528051906020012060001c90506000612847613c0e565b90506000612853613db1565b90506000600a805490509050600a604051806101000160405280888152602001868152602001858152602001848152602001600160ff16815260200160008152602001600081526020016000815250908060018154018082558091505060019003906000526020600020906008020160009091909190915060008201518160000190805190602001906128e7929190614472565b5060208201518160010155604082015181600201556060820151816003015560808201518160040160006101000a81548160ff021916908360ff16021790555060a0820151816005015560c0820151816006015560e08201518160070155505033600d600083815260200190815260200160002060006101000a81548173ffffffffffffffffffffffffffffffffffffffff021916908373ffffffffffffffffffffffffffffffffffffffff160217905550601060003373ffffffffffffffffffffffffffffffffffffffff1673ffffffffffffffffffffffffffffffffffffffff16815260200190815260200160002060008154809291906129e99061552f565b9190505550505050505050565b6129fe6135a6565b600073ffffffffffffffffffffffffffffffffffffffff168173ffffffffffffffffffffffffffffffffffffffff1603612a6d576040517f08c379a0000000000000000000000000000000000000000000000000000000008152600401612a64906159d8565b60405180910390fd5b612a7681613624565b50565b8273ffffffffffffffffffffffffffffffffffffffff16600f600083815260200190815260200160002060009054906101000a900473ffffffffffffffffffffffffffffffffffffffff1673ffffffffffffffffffffffffffffffffffffffff161480612b4457503373ffffffffffffffffffffffffffffffffffffffff166021600083815260200190815260200160002060009054906101000a900473ffffffffffffffffffffffffffffffffffffffff1673ffffffffffffffffffffffffffffffffffffffff16145b612b4d57600080fd5b612b58838383613f54565b505050565b600a8181548110612b6d57600080fd5b9060005260206000209060080201600091509050806000018054612b9090615724565b80601f0160208091040260200160405190810160405280929190818152602001828054612bbc90615724565b8015612c095780601f10612bde57610100808354040283529160200191612c09565b820191906000526020600020905b815481529060010190602001808311612bec57829003601f168201915b5050505050908060010154908060020154908060030154908060040160009054906101000a900460ff16908060050154908060060154908060070154905088565b81600e600082815260200190815260200160002060009054906101000a900473ffffffffffffffffffffffffffffffffffffffff1673ffffffffffffffffffffffffffffffffffffffff163373ffffffffffffffffffffffffffffffffffffffff1614612cb657600080fd5b601554600b8481548110612ccd57612ccc6151da565b5b906000526020600020906002020160010160009054906101000a900461ffff168360ff16612cfb91906159f8565b61ffff16612d099190615276565b3414612d1457600080fd5b8160ff16600b8481548110612d2c57612d2b6151da565b5b906000526020600020906002020160010160008282829054906101000a900461ffff16612d599190615a34565b92506101000a81548161ffff021916908361ffff160217905550505050565b80600d600082815260200190815260200160002060009054906101000a900473ffffffffffffffffffffffffffffffffffffffff1673ffffffffffffffffffffffffffffffffffffffff163373ffffffffffffffffffffffffffffffffffffffff1614612de457600080fd5b6000805b601d8054905081101561322457601d8181548110612e0957612e086151da565b5b9060005260206000209060060201600201546001600a808781548110612e3257612e316151da565b5b906000526020600020906008020160040160009054906101000a900460ff16612e5b9190615339565b612e65919061536a565b60ff16036132115760019150601d8181548110612e8557612e846151da565b5b906000526020600020906006020160000154601a60003373ffffffffffffffffffffffffffffffffffffffff1673ffffffffffffffffffffffffffffffffffffffff1681526020019081526020016000208190555083601b60003373ffffffffffffffffffffffffffffffffffffffff1673ffffffffffffffffffffffffffffffffffffffff16815260200190815260200160002081905550601d8181548110612f3257612f316151da565b5b90600052602060002090600602016001016000815480929190612f549061552f565b9190505550601d8181548110612f6d57612f6c6151da565b5b906000526020600020906006020160030160000154601d8281548110612f9657612f956151da565b5b9060005260206000209060060201600101540361321057600073__PDDLib________________________________63c037e545601d8481548110612fdd57612fdc6151da565b5b906000526020600020906006020160030160020154601d8581548110613006576130056151da565b5b9060005260206000209060060201600301600001546040518363ffffffff1660e01b8152600401613038929190615a6c565b602060405180830381865af4158015613055573d6000803e3d6000fd5b505050506040513d601f19601f820116820180604052508101906130799190615aaa565b90506000601e6000601d8581548110613095576130946151da565b5b90600052602060002090600602016000015481526020019081526020016000209050601d83815481106130cb576130ca6151da565b5b9060005260206000209060060201600301600001548160000181905550601d83815481106130fc576130fb6151da565b5b90600052602060002090600602016002015481600101819055508181600201819055504281600301819055506000816005018190555060008160060160006101000a81548160ff0219169083151502179055507f2838ebeee7dc83fac85a3d6dbca0c0b6771591ada8b00f97371aa6611e631f9c601d8481548110613184576131836151da565b5b906000526020600020906006020160000154836040516131a5929190615ad7565b60405180910390a1601d83815481106131c1576131c06151da565b5b9060005260206000209060060201600080820160009055600182016000905560028201600090556003820160008082016000905560018201600090556002820160009055505050505050613224565b5b808061321c9061552f565b915050612de8565b50801561323157506133d5565b6000601c60008154809291906132469061552f565b91905055905060006019805490504261325f9190615b00565b905081601a60003373ffffffffffffffffffffffffffffffffffffffff1673ffffffffffffffffffffffffffffffffffffffff16815260200190815260200160002081905550601d6040518060800160405280848152602001600181526020016001600a808a815481106132d6576132d56151da565b5b906000526020600020906008020160040160009054906101000a900460ff166132ff9190615339565b613309919061536a565b60ff16815260200160198481548110613325576133246151da565b5b906000526020600020906003020160405180606001604052908160008201548152602001600182015481526020016002820154815250508152509080600181540180825580915050600190039060005260206000209060060201600090919091909150600082015181600001556020820151816001015560408201518160020155606082015181600301600082015181600001556020820151816001015560408201518160020155505050505050505b5050565b600080613418600d600086815260200190815260200160002060009054906101000a900473ffffffffffffffffffffffffffffffffffffffff166115ba565b905061342781600001516140d7565b6000600a858154811061343d5761343c6151da565b5b9060005260206000209060080201600201549050600060019050600a85600b848154811061346e5761346d6151da565b5b906000526020600020906002020160010160029054906101000a900460ff1661349791906153fe565b60ff16106134ec57600a600b83815481106134b5576134b46151da565b5b906000526020600020906002020160010160029054906101000a900460ff16866134df91906153fe565b6134e99190615339565b90505b8060ff166001846000015181548110613508576135076151da565b5b906000526020600020906003020160010160029054906101000a900460ff1660ff161061359857806001846000015181548110613548576135476151da565b5b906000526020600020906003020160010160028282829054906101000a900460ff1661357491906153ca565b92506101000a81548160ff021916908360ff160217905550600193505050506135a0565b600093505050505b92915050565b6135ae614252565b73ffffffffffffffffffffffffffffffffffffffff166135cc611eb5565b73ffffffffffffffffffffffffffffffffffffffff1614613622576040517f08c379a000000000000000000000000000000000000000000000000000000000815260040161361990615b7d565b60405180910390fd5b565b60008060009054906101000a900473ffffffffffffffffffffffffffffffffffffffff169050816000806101000a81548173ffffffffffffffffffffffffffffffffffffffff021916908373ffffffffffffffffffffffffffffffffffffffff1602179055508173ffffffffffffffffffffffffffffffffffffffff168173ffffffffffffffffffffffffffffffffffffffff167f8be0079c531659141344cd1fd0a4f28419497f9722a3daafe3b4186f6b6457e060405160405180910390a35050565b6000600a82815481106136fe576136fd6151da565b5b90600052602060002090600802016002015414613750576040517f08c379a000000000000000000000000000000000000000000000000000000000815260040161374790615be9565b60405180910390fd5b6000600a8281548110613766576137656151da565b5b906000526020600020906008020160030154146137b8576040517f08c379a00000000000000000000000000000000000000000000000000000000081526004016137af90615c55565b60405180910390fd5b6000601060008573ffffffffffffffffffffffffffffffffffffffff1673ffffffffffffffffffffffffffffffffffffffff168152602001908152602001600020541161383a576040517f08c379a000000000000000000000000000000000000000000000000000000000815260040161383190615cc1565b60405180910390fd5b61388d6001601060008573ffffffffffffffffffffffffffffffffffffffff1673ffffffffffffffffffffffffffffffffffffffff1681526020019081526020016000205461425a90919063ffffffff16565b601060008473ffffffffffffffffffffffffffffffffffffffff1673ffffffffffffffffffffffffffffffffffffffff168152602001908152602001600020819055506139236001601060008673ffffffffffffffffffffffffffffffffffffffff1673ffffffffffffffffffffffffffffffffffffffff1681526020019081526020016000205461427090919063ffffffff16565b601060008573ffffffffffffffffffffffffffffffffffffffff1673ffffffffffffffffffffffffffffffffffffffff1681526020019081526020016000208190555081600d600083815260200190815260200160002060006101000a81548173ffffffffffffffffffffffffffffffffffffffff021916908373ffffffffffffffffffffffffffffffffffffffff160217905550505050565b613a106001601160008573ffffffffffffffffffffffffffffffffffffffff1673ffffffffffffffffffffffffffffffffffffffff1681526020019081526020016000205461425a90919063ffffffff16565b601160008473ffffffffffffffffffffffffffffffffffffffff1673ffffffffffffffffffffffffffffffffffffffff16815260200190815260200160002081905550613aa66001601160008673ffffffffffffffffffffffffffffffffffffffff1673ffffffffffffffffffffffffffffffffffffffff1681526020019081526020016000205461427090919063ffffffff16565b601160008573ffffffffffffffffffffffffffffffffffffffff1673ffffffffffffffffffffffffffffffffffffffff1681526020019081526020016000208190555081600e600083815260200190815260200160002060006101000a81548173ffffffffffffffffffffffffffffffffffffffff021916908373ffffffffffffffffffffffffffffffffffffffff160217905550505050565b606060006001613b4f84614286565b01905060008167ffffffffffffffff811115613b6e57613b6d614e6e565b5b6040519080825280601f01601f191660200182016040528015613ba05781602001600182028036833780820191505090505b509050600082602001820190505b600115613c03578080600190039150507f3031323334353637383961626364656600000000000000000000000000000000600a86061a8153600a8581613bf757613bf661530a565b5b04945060008503613bae575b819350505050919050565b600080600354600454613c219190615ce1565b42613c2c9190615b00565b600354613c39919061546d565b9050600060086000815480929190613c509061552f565b919050559050600b60405180606001604052808381526020018461ffff168152602001600560009054906101000a900460ff1660ff1681525090806001815401808255809150506001900390600052602060002090600202016000909190919091506000820151816000015560208201518160010160006101000a81548161ffff021916908361ffff16021790555060408201518160010160026101000a81548160ff021916908360ff1602179055505050601160003373ffffffffffffffffffffffffffffffffffffffff1673ffffffffffffffffffffffffffffffffffffffff1681526020019081526020016000206000815480929190613d529061552f565b919050555033600e600083815260200190815260200160002060006101000a81548173ffffffffffffffffffffffffffffffffffffffff021916908373ffffffffffffffffffffffffffffffffffffffff160217905550809250505090565b600080600654600754613dc49190615ce1565b42613dcf9190615b00565b600654613ddc919061546d565b9050600060096000815480929190613df39061552f565b919050559050600c60405180606001604052808381526020018463ffffffff1681526020018463ffffffff1681525090806001815401808255809150506001900390600052602060002090600202016000909190919091506000820151816000015560208201518160010160006101000a81548163ffffffff021916908363ffffffff16021790555060408201518160010160046101000a81548163ffffffff021916908363ffffffff1602179055505050601260003373ffffffffffffffffffffffffffffffffffffffff1673ffffffffffffffffffffffffffffffffffffffff1681526020019081526020016000206000815480929190613ef59061552f565b919050555033600f600083815260200190815260200160002060006101000a81548173ffffffffffffffffffffffffffffffffffffffff021916908373ffffffffffffffffffffffffffffffffffffffff160217905550809250505090565b613fa76001601260008573ffffffffffffffffffffffffffffffffffffffff1673ffffffffffffffffffffffffffffffffffffffff1681526020019081526020016000205461425a90919063ffffffff16565b601260008473ffffffffffffffffffffffffffffffffffffffff1673ffffffffffffffffffffffffffffffffffffffff1681526020019081526020016000208190555061403d6001601260008673ffffffffffffffffffffffffffffffffffffffff1673ffffffffffffffffffffffffffffffffffffffff1681526020019081526020016000205461427090919063ffffffff16565b601260008573ffffffffffffffffffffffffffffffffffffffff1673ffffffffffffffffffffffffffffffffffffffff1681526020019081526020016000208190555081600f600083815260200190815260200160002060006101000a81548173ffffffffffffffffffffffffffffffffffffffff021916908373ffffffffffffffffffffffffffffffffffffffff160217905550505050565b60004290506000610e10600184815481106140f5576140f46151da565b5b906000526020600020906003020160020154836141129190615ce1565b61411c9190615d15565b9050600060018481548110614134576141336151da565b5b906000526020600020906003020160010160019054906101000a900460ff1660ff16826141619190615276565b60018581548110614175576141746151da565b5b906000526020600020906003020160010160029054906101000a900460ff1660ff166141a1919061546d565b90506141e5600185815481106141ba576141b96151da565b5b906000526020600020906003020160010160009054906101000a900460ff1660ff168260ff166143d9565b600185815481106141f9576141f86151da565b5b906000526020600020906003020160010160026101000a81548160ff021916908360ff1602179055508260018581548110614237576142366151da565b5b90600052602060002090600302016002018190555050505050565b600033905090565b60008183614268919061546d565b905092915050565b6000818361427e9190615ce1565b905092915050565b600080600090507a184f03e93ff9f4daa797ed6e38ed64bf6a1f01000000000000000083106142e4577a184f03e93ff9f4daa797ed6e38ed64bf6a1f01000000000000000083816142da576142d961530a565b5b0492506040810190505b6d04ee2d6d415b85acef81000000008310614321576d04ee2d6d415b85acef810000000083816143175761431661530a565b5b0492506020810190505b662386f26fc10000831061435057662386f26fc1000083816143465761434561530a565b5b0492506010810190505b6305f5e1008310614379576305f5e100838161436f5761436e61530a565b5b0492506008810190505b612710831061439e5761271083816143945761439361530a565b5b0492506004810190505b606483106143c157606483816143b7576143b661530a565b5b0492506002810190505b600a83106143d0576001810190505b80915050919050565b60008183106143e857816143ea565b825b905092915050565b6040518060a0016040528060008152602001600060ff168152602001600060ff168152602001600060ff168152602001600081525090565b60405180610100016040528060608152602001600081526020016000815260200160008152602001600060ff1681526020016000815260200160008152602001600081525090565b82805461447e90615724565b90600052602060002090601f0160209004810192826144a057600085556144e7565b82601f106144b957805160ff19168380011785556144e7565b828001600101855582156144e7579182015b828111156144e65782518255916020019190600101906144cb565b5b5090506144f491906144f8565b5090565b5b808211156145115760008160009055506001016144f9565b5090565b6000604051905090565b600080fd5b600080fd5b6000819050919050565b61453c81614529565b811461454757600080fd5b50565b60008135905061455981614533565b92915050565b6000602082840312156145755761457461451f565b5b60006145838482850161454a565b91505092915050565b600073ffffffffffffffffffffffffffffffffffffffff82169050919050565b60006145b78261458c565b9050919050565b6145c7816145ac565b82525050565b60006020820190506145e260008301846145be565b92915050565b600060ff82169050919050565b6145fe816145e8565b811461460957600080fd5b50565b60008135905061461b816145f5565b92915050565b600080604083850312156146385761463761451f565b5b60006146468582860161454a565b92505060206146578582860161460c565b9150509250929050565b61466a81614529565b82525050565b60008115159050919050565b61468581614670565b82525050565b600060c0820190506146a06000830189614661565b6146ad6020830188614661565b6146ba6040830187614661565b6146c76060830186614661565b6146d46080830185614661565b6146e160a083018461467c565b979650505050505050565b6146f581614529565b82525050565b60608201600082015161471160008501826146ec565b50602082015161472460208501826146ec565b50604082015161473760408501826146ec565b50505050565b600060c0820190506147526000830187614661565b61475f6020830186614661565b61476c6040830185614661565b61477960608301846146fb565b95945050505050565b61478b816145ac565b811461479657600080fd5b50565b6000813590506147a881614782565b92915050565b600080604083850312156147c5576147c461451f565b5b60006147d385828601614799565b92505060206147e48582860161454a565b9150509250929050565b600063ffffffff82169050919050565b614807816147ee565b82525050565b60006060820190506148226000830186614661565b61482f60208301856147fe565b61483c60408301846147fe565b949350505050565b60006020828403121561485a5761485961451f565b5b600061486884828501614799565b91505092915050565b60006020820190506148866000830184614661565b92915050565b600081519050919050565b600082825260208201905092915050565b6000819050602082019050919050565b6148c1816145ac565b82525050565b6148d081614670565b82525050565b6080820160008201516148ec60008501826148b8565b5060208201516148ff60208501826148c7565b50604082015161491260408501826146ec565b50606082015161492560608501826146ec565b50505050565b600061493783836148d6565b60808301905092915050565b6000602082019050919050565b600061495b8261488c565b6149658185614897565b9350614970836148a8565b8060005b838110156149a1578151614988888261492b565b975061499383614943565b925050600181019050614974565b5085935050505092915050565b600060208201905081810360008301526149c88184614950565b905092915050565b6149d9816145e8565b82525050565b60a0820160008201516149f560008501826146ec565b506020820151614a0860208501826149d0565b506040820151614a1b60408501826149d0565b506060820151614a2e60608501826149d0565b506080820151614a4160808501826146ec565b50505050565b600060a082019050614a5c60008301846149df565b92915050565b600081519050919050565b600082825260208201905092915050565b6000819050602082019050919050565b6000614a9a83836146ec565b60208301905092915050565b6000602082019050919050565b6000614abe82614a62565b614ac88185614a6d565b9350614ad383614a7e565b8060005b83811015614b04578151614aeb8882614a8e565b9750614af683614aa6565b925050600181019050614ad7565b5085935050505092915050565b60006020820190508181036000830152614b2b8184614ab3565b905092915050565b600080600060608486031215614b4c57614b4b61451f565b5b6000614b5a86828701614799565b9350506020614b6b86828701614799565b9250506040614b7c8682870161454a565b9150509250925092565b614b8f816145e8565b82525050565b600060a082019050614baa6000830188614661565b614bb76020830187614b86565b614bc46040830186614b86565b614bd16060830185614b86565b614bde6080830184614661565b9695505050505050565b600061ffff82169050919050565b614bff81614be8565b82525050565b6000606082019050614c1a6000830186614661565b614c276020830185614bf6565b614c346040830184614b86565b949350505050565b600081519050919050565b600082825260208201905092915050565b6000819050602082019050919050565b600081519050919050565b600082825260208201905092915050565b60005b83811015614ca2578082015181840152602081019050614c87565b83811115614cb1576000848401525b50505050565b6000601f19601f8301169050919050565b6000614cd382614c68565b614cdd8185614c73565b9350614ced818560208601614c84565b614cf681614cb7565b840191505092915050565b6000610100830160008301518482036000860152614d1f8282614cc8565b9150506020830151614d3460208601826146ec565b506040830151614d4760408601826146ec565b506060830151614d5a60608601826146ec565b506080830151614d6d60808601826149d0565b5060a0830151614d8060a08601826146ec565b5060c0830151614d9360c08601826146ec565b5060e0830151614da660e08601826146ec565b508091505092915050565b6000614dbd8383614d01565b905092915050565b6000602082019050919050565b6000614ddd82614c3c565b614de78185614c47565b935083602082028501614df985614c58565b8060005b85811015614e355784840389528151614e168582614db1565b9450614e2183614dc5565b925060208a01995050600181019050614dfd565b50829750879550505050505092915050565b60006020820190508181036000830152614e618184614dd2565b905092915050565b600080fd5b7f4e487b7100000000000000000000000000000000000000000000000000000000600052604160045260246000fd5b614ea682614cb7565b810181811067ffffffffffffffff82111715614ec557614ec4614e6e565b5b80604052505050565b6000614ed8614515565b9050614ee48282614e9d565b919050565b600067ffffffffffffffff821115614f0457614f03614e6e565b5b602082029050602081019050919050565b600080fd5b6000614f2d614f2884614ee9565b614ece565b90508083825260208201905060208402830185811115614f5057614f4f614f15565b5b835b81811015614f795780614f65888261454a565b845260208401935050602081019050614f52565b5050509392505050565b600082601f830112614f9857614f97614e69565b5b8135614fa8848260208601614f1a565b91505092915050565b60008060408385031215614fc857614fc761451f565b5b6000614fd68582860161454a565b925050602083013567ffffffffffffffff811115614ff757614ff6614524565b5b61500385828601614f83565b9150509250929050565b600080fd5b600067ffffffffffffffff82111561502d5761502c614e6e565b5b61503682614cb7565b9050602081019050919050565b82818337600083830152505050565b600061506561506084615012565b614ece565b9050828152602081018484840111156150815761508061500d565b5b61508c848285615043565b509392505050565b600082601f8301126150a9576150a8614e69565b5b81356150b9848260208601615052565b91505092915050565b6000602082840312156150d8576150d761451f565b5b600082013567ffffffffffffffff8111156150f6576150f5614524565b5b61510284828501615094565b91505092915050565b600082825260208201905092915050565b600061512782614c68565b615131818561510b565b9350615141818560208601614c84565b61514a81614cb7565b840191505092915050565b6000610100820190508181036000830152615170818b61511c565b905061517f602083018a614661565b61518c6040830189614661565b6151996060830188614661565b6151a66080830187614b86565b6151b360a0830186614661565b6151c060c0830185614661565b6151cd60e0830184614661565b9998505050505050505050565b7f4e487b7100000000000000000000000000000000000000000000000000000000600052603260045260246000fd5b7f4e487b7100000000000000000000000000000000000000000000000000000000600052601160045260246000fd5b6000615243826147ee565b915061524e836147ee565b92508163ffffffff048311821515161561526b5761526a615209565b5b828202905092915050565b600061528182614529565b915061528c83614529565b9250817fffffffffffffffffffffffffffffffffffffffffffffffffffffffffffffffff04831182151516156152c5576152c4615209565b5b828202905092915050565b60006152db826147ee565b91506152e6836147ee565b92508263ffffffff038211156152ff576152fe615209565b5b828201905092915050565b7f4e487b7100000000000000000000000000000000000000000000000000000000600052601260045260246000fd5b6000615344826145e8565b915061534f836145e8565b92508261535f5761535e61530a565b5b828204905092915050565b6000615375826145e8565b9150615380836145e8565b92508260ff0382111561539657615395615209565b5b828201905092915050565b60006153ac826145e8565b915060ff82036153bf576153be615209565b5b600182019050919050565b60006153d5826145e8565b91506153e0836145e8565b9250828210156153f3576153f2615209565b5b828203905092915050565b6000615409826145e8565b9150615414836145e8565b92508160ff048311821515161561542e5761542d615209565b5b828202905092915050565b6000615444826147ee565b915061544f836147ee565b92508282101561546257615461615209565b5b828203905092915050565b600061547882614529565b915061548383614529565b9250827fffffffffffffffffffffffffffffffffffffffffffffffffffffffffffffffff038211156154b8576154b7615209565b5b828201905092915050565b7f726f6f6d206e6f7420636c6f7365640000000000000000000000000000000000600082015250565b60006154f9600f8361510b565b9150615504826154c3565b602082019050919050565b60006020820190508181036000830152615528816154ec565b9050919050565b600061553a82614529565b91507fffffffffffffffffffffffffffffffffffffffffffffffffffffffffffffffff820361556c5761556b615209565b5b600182019050919050565b60008160011c9050919050565b6000808291508390505b60018511156155ce578086048111156155aa576155a9615209565b5b60018516156155b95780820291505b80810290506155c785615577565b945061558e565b94509492505050565b6000826155e757600190506156a3565b816155f557600090506156a3565b816001811461560b576002811461561557615644565b60019150506156a3565b60ff84111561562757615626615209565b5b8360020a91508482111561563e5761563d615209565b5b506156a3565b5060208310610133831016604e8410600b84101617156156795782820a90508381111561567457615673615209565b5b6156a3565b6156868484846001615584565b9250905081840481111561569d5761569c615209565b5b81810290505b9392505050565b60006156b582614529565b91506156c0836145e8565b92506156ed7fffffffffffffffffffffffffffffffffffffffffffffffffffffffffffffffff84846155d7565b905092915050565b7f4e487b7100000000000000000000000000000000000000000000000000000000600052602260045260246000fd5b6000600282049050600182168061573c57607f821691505b60208210810361574f5761574e6156f5565b5b50919050565b7f6e6f7420796f757220726f6f6d00000000000000000000000000000000000000600082015250565b600061578b600d8361510b565b915061579682615755565b602082019050919050565b600060208201905081810360008301526157ba8161577e565b9050919050565b6157ca81614529565b82525050565b600082825260208201905092915050565b6157ea81614529565b82525050565b60006157fc83836157e1565b60208301905092915050565b600061581382614a62565b61581d81856157d0565b935061582883614a7e565b8060005b8381101561585957815161584088826157f0565b975061584b83614aa6565b92505060018101905061582c565b5085935050505092915050565b600060408201905061587b60008301856157c1565b818103602083015261588d8184615808565b90509392505050565b61589f81614670565b81146158aa57600080fd5b50565b6000815190506158bc81615896565b92915050565b6000602082840312156158d8576158d761451f565b5b60006158e6848285016158ad565b91505092915050565b600081905092915050565b600061590582614c68565b61590f81856158ef565b935061591f818560208601614c84565b80840191505092915050565b600061593782856158fa565b915061594382846158fa565b91508190509392505050565b600061595b82846158fa565b915081905092915050565b7f4f776e61626c653a206e6577206f776e657220697320746865207a65726f206160008201527f6464726573730000000000000000000000000000000000000000000000000000602082015250565b60006159c260268361510b565b91506159cd82615966565b604082019050919050565b600060208201905081810360008301526159f1816159b5565b9050919050565b6000615a0382614be8565b9150615a0e83614be8565b92508161ffff0483118215151615615a2957615a28615209565b5b828202905092915050565b6000615a3f82614be8565b9150615a4a83614be8565b92508261ffff03821115615a6157615a60615209565b5b828201905092915050565b6000604082019050615a8160008301856157c1565b615a8e60208301846157c1565b9392505050565b600081519050615aa481614533565b92915050565b600060208284031215615ac057615abf61451f565b5b6000615ace84828501615a95565b91505092915050565b6000604082019050615aec6000830185614661565b615af96020830184614661565b9392505050565b6000615b0b82614529565b9150615b1683614529565b925082615b2657615b2561530a565b5b828206905092915050565b7f4f776e61626c653a2063616c6c6572206973206e6f7420746865206f776e6572600082015250565b6000615b6760208361510b565b9150615b7282615b31565b602082019050919050565b60006020820190508181036000830152615b9681615b5a565b9050919050565b7f656e67696e65206d75737420626520656d707479000000000000000000000000600082015250565b6000615bd360148361510b565b9150615bde82615b9d565b602082019050919050565b60006020820190508181036000830152615c0281615bc6565b9050919050565b7f63686173736973206d75737420626520656d7074790000000000000000000000600082015250565b6000615c3f60158361510b565b9150615c4a82615c09565b602082019050919050565b60006020820190508181036000830152615c6e81615c32565b9050919050565b7f697420697320796f7572206c6173742063617200000000000000000000000000600082015250565b6000615cab60138361510b565b9150615cb682615c75565b602082019050919050565b60006020820190508181036000830152615cda81615c9e565b9050919050565b6000615cec82614529565b9150615cf783614529565b925082821015615d0a57615d09615209565b5b828203905092915050565b6000615d2082614529565b9150615d2b83614529565b925082615d3b57615d3a61530a565b5b82820490509291505056fea2646970667358221220121b3601c9b9a70aabbc8a07b4dcb641bad30767b4f960baff4f8130abe811e364736f6c634300080d0033",
  "immutableReferences": {},
  "source": "// SPDX-License-Identifier: MIT\npragma solidity ^0.8.13;\n\nimport \"../node_modules/@openzeppelin/contracts/utils/math/SafeMath.sol\";\nimport \"./CarRacing.sol\";\n\ncontract TokenOwnership is CarRacing{\n    using SafeMath for uint256;\n\n    mapping (uint => address) carApprovals;\n    mapping (uint => address) engineApprovals;\n    mapping (uint => address) chassisApprovals;\n\n\n    function balanceOfCars(address _owner) external view returns (uint256) {\n        return ownerCarCount[_owner];\n    }\n    function ownerOfCar(uint256 _tokenId) external view returns(address) {\n        return carToOwner[_tokenId];\n    }\n    function _transferCar(address _from, address _to, uint256 _tokenId) private {\n        require(cars[_tokenId].engineId == 0, \"engine must be empty\");\n        require(cars[_tokenId].chassisId == 0, \"chassis must be empty\");\n        require(ownerCarCount[_from]>0, \"it is your last car\");\n        ownerCarCount[_to] = ownerCarCount[_to].add(1);\n        ownerCarCount[_from] = ownerCarCount[_from].sub(1);\n        carToOwner[_tokenId] = _to;\n    }\n    function transferCarFrom(address _from, address _to, uint256 _tokenId) external payable {\n        require (carToOwner[_tokenId] == _from || carApprovals[_tokenId] == msg.sender);\n        _transferCar(_from, _to, _tokenId);\n    }\n    function approveCar(address _approved, uint256 _tokenId) external payable onlyOwnerOfCar(_tokenId) {\n        carApprovals[_tokenId] = _approved;\n    }\n\n\n    function balanceOfEngines(address _owner) external view returns (uint256) {\n        return ownerEngineCount[_owner];\n    }\n    function ownerOfEngine(uint256 _tokenId) external view returns(address) {\n        return engineToOwner[_tokenId];\n    }\n    function _transferEngine(address _from, address _to, uint256 _tokenId) private {\n        ownerEngineCount[_to] = ownerEngineCount[_to].add(1);\n        ownerEngineCount[_from] = ownerEngineCount[_from].sub(1);\n        engineToOwner[_tokenId] = _to;\n    }\n    function transferEngineFrom(address _from, address _to, uint256 _tokenId) external payable {\n        require (engineToOwner[_tokenId] == _from || engineApprovals[_tokenId] == msg.sender);\n        _transferEngine(_from, _to, _tokenId);\n    }\n    function approveEngine(address _approved, uint256 _tokenId) external payable onlyOwnerOfEngine(_tokenId) {\n        engineApprovals[_tokenId] = _approved;\n    }\n\n    \n    function balanceOfChassis(address _owner) external view returns (uint256) {\n        return ownerChassisCount[_owner];\n    }\n    function ownerOfChassis(uint256 _tokenId) external view returns(address) {\n        return chassisToOwner[_tokenId];\n    }\n    function _transferChassis(address _from, address _to, uint256 _tokenId) private {\n        ownerChassisCount[_to] = ownerChassisCount[_to].add(1);\n        ownerChassisCount[_from] = ownerChassisCount[_from].sub(1);\n        chassisToOwner[_tokenId] = _to;\n    }\n    function transferChassisFrom(address _from, address _to, uint256 _tokenId) external payable {\n        require (chassisToOwner[_tokenId] == _from || chassisApprovals[_tokenId] == msg.sender);\n        _transferChassis(_from, _to, _tokenId);\n    }\n    function approveChassis(address _approved, uint256 _tokenId) external payable onlyOwnerOfChassis(_tokenId) {\n        chassisApprovals[_tokenId] = _approved;\n    }\n}",
  "sourcePath": "/Users/vvan/Programming/JavaScript/DriveSafely/contract/contracts/TokenOwnership.sol",
  "compiler": {
    "name": "solc",
    "version": "0.8.13+commit.abaa5c0e.Emscripten.clang"
  },
  "schemaVersion": "3.4.11",
  "updatedAt": "2023-01-08T14:23:09.564Z",
  "devdoc": {
    "kind": "dev",
    "methods": {
      "owner()": {
        "details": "Returns the address of the current owner."
      },
      "renounceOwnership()": {
        "details": "Leaves the contract without owner. It will not be possible to call `onlyOwner` functions anymore. Can only be called by the current owner. NOTE: Renouncing ownership will leave the contract without an owner, thereby removing any functionality that is only available to the owner."
      },
      "transferOwnership(address)": {
        "details": "Transfers ownership of the contract to a new account (`newOwner`). Can only be called by the current owner."
      }
    },
    "version": 1
  },
  "userdoc": {
    "kind": "user",
    "methods": {},
    "version": 1
  }
}