{
  "contractName": "TokenOwnership",
  "abi": [
    {
      "anonymous": false,
      "inputs": [
        {
          "indexed": true,
          "internalType": "address",
          "name": "previousOwner",
          "type": "address"
        },
        {
          "indexed": true,
          "internalType": "address",
          "name": "newOwner",
          "type": "address"
        }
      ],
      "name": "OwnershipTransferred",
      "type": "event"
    },
    {
      "anonymous": false,
      "inputs": [
        {
          "indexed": false,
          "internalType": "uint256",
          "name": "roomId",
          "type": "uint256"
        }
      ],
      "name": "RoomClosed",
      "type": "event"
    },
    {
      "anonymous": false,
      "inputs": [
        {
          "indexed": false,
          "internalType": "uint256",
          "name": "roomId",
          "type": "uint256"
        },
        {
          "indexed": false,
          "internalType": "uint256",
          "name": "roomDNA",
          "type": "uint256"
        }
      ],
      "name": "RoomFull",
      "type": "event"
    },
    {
      "inputs": [
        {
          "internalType": "uint256",
          "name": "",
          "type": "uint256"
        }
      ],
      "name": "carToOwner",
      "outputs": [
        {
          "internalType": "address",
          "name": "",
          "type": "address"
        }
      ],
      "stateMutability": "view",
      "type": "function",
      "constant": true
    },
    {
      "inputs": [
        {
          "internalType": "uint256",
          "name": "",
          "type": "uint256"
        }
      ],
      "name": "carToPrice",
      "outputs": [
        {
          "internalType": "uint256",
          "name": "",
          "type": "uint256"
        }
      ],
      "stateMutability": "view",
      "type": "function",
      "constant": true
    },
    {
      "inputs": [
        {
          "internalType": "uint256",
          "name": "",
          "type": "uint256"
        }
      ],
      "name": "cars",
      "outputs": [
        {
          "internalType": "string",
          "name": "model",
          "type": "string"
        },
        {
          "internalType": "uint256",
          "name": "vin",
          "type": "uint256"
        },
        {
          "internalType": "uint256",
          "name": "engineId",
          "type": "uint256"
        },
        {
          "internalType": "uint256",
          "name": "chassisId",
          "type": "uint256"
        },
        {
          "internalType": "uint8",
          "name": "carLevel",
          "type": "uint8"
        },
        {
          "internalType": "uint256",
          "name": "mileage",
          "type": "uint256"
        },
        {
          "internalType": "uint256",
          "name": "winCountOnCurrentLevel",
          "type": "uint256"
        },
        {
          "internalType": "uint256",
          "name": "lossCountOnCurrentLevel",
          "type": "uint256"
        },
        {
          "internalType": "uint256",
          "name": "id",
          "type": "uint256"
        }
      ],
      "stateMutability": "view",
      "type": "function",
      "constant": true
    },
    {
      "inputs": [],
      "name": "carsForSaleCount",
      "outputs": [
        {
          "internalType": "uint256",
          "name": "",
          "type": "uint256"
        }
      ],
      "stateMutability": "view",
      "type": "function",
      "constant": true
    },
    {
      "inputs": [
        {
          "internalType": "uint256",
          "name": "",
          "type": "uint256"
        }
      ],
      "name": "chassis",
      "outputs": [
        {
          "internalType": "uint256",
          "name": "id",
          "type": "uint256"
        },
        {
          "internalType": "uint32",
          "name": "durability",
          "type": "uint32"
        },
        {
          "internalType": "uint32",
          "name": "resource",
          "type": "uint32"
        }
      ],
      "stateMutability": "view",
      "type": "function",
      "constant": true
    },
    {
      "inputs": [],
      "name": "chassisForSaleCount",
      "outputs": [
        {
          "internalType": "uint256",
          "name": "",
          "type": "uint256"
        }
      ],
      "stateMutability": "view",
      "type": "function",
      "constant": true
    },
    {
      "inputs": [
        {
          "internalType": "uint256",
          "name": "",
          "type": "uint256"
        }
      ],
      "name": "chassisToOwner",
      "outputs": [
        {
          "internalType": "address",
          "name": "",
          "type": "address"
        }
      ],
      "stateMutability": "view",
      "type": "function",
      "constant": true
    },
    {
      "inputs": [
        {
          "internalType": "uint256",
          "name": "",
          "type": "uint256"
        }
      ],
      "name": "chassisToPrice",
      "outputs": [
        {
          "internalType": "uint256",
          "name": "",
          "type": "uint256"
        }
      ],
      "stateMutability": "view",
      "type": "function",
      "constant": true
    },
    {
      "inputs": [
        {
          "internalType": "uint256",
          "name": "roomId",
          "type": "uint256"
        },
        {
          "internalType": "uint256[]",
          "name": "answer",
          "type": "uint256[]"
        }
      ],
      "name": "commitAnswer",
      "outputs": [],
      "stateMutability": "nonpayable",
      "type": "function"
    },
    {
      "inputs": [
        {
          "internalType": "string",
          "name": "model",
          "type": "string"
        }
      ],
      "name": "createCar",
      "outputs": [],
      "stateMutability": "nonpayable",
      "type": "function"
    },
    {
      "inputs": [
        {
          "internalType": "string",
          "name": "_model",
          "type": "string"
        },
        {
          "internalType": "uint16",
          "name": "_horsePowers",
          "type": "uint16"
        },
        {
          "internalType": "uint8",
          "name": "_consumtion",
          "type": "uint8"
        },
        {
          "internalType": "uint32",
          "name": "_durability",
          "type": "uint32"
        },
        {
          "internalType": "uint8",
          "name": "_carLevel",
          "type": "uint8"
        },
        {
          "internalType": "uint256",
          "name": "_carPrice",
          "type": "uint256"
        }
      ],
      "name": "createCustomCar",
      "outputs": [],
      "stateMutability": "nonpayable",
      "type": "function"
    },
    {
      "inputs": [
        {
          "internalType": "uint32",
          "name": "_durability",
          "type": "uint32"
        },
        {
          "internalType": "uint256",
          "name": "_chassisPrice",
          "type": "uint256"
        }
      ],
      "name": "createCustomChassis",
      "outputs": [
        {
          "internalType": "uint256",
          "name": "",
          "type": "uint256"
        }
      ],
      "stateMutability": "nonpayable",
      "type": "function"
    },
    {
      "inputs": [
        {
          "internalType": "uint16",
          "name": "_horsePowers",
          "type": "uint16"
        },
        {
          "internalType": "uint8",
          "name": "_consumtion",
          "type": "uint8"
        },
        {
          "internalType": "uint256",
          "name": "_enginePrice",
          "type": "uint256"
        }
      ],
      "name": "createCustomEngine",
      "outputs": [
        {
          "internalType": "uint256",
          "name": "",
          "type": "uint256"
        }
      ],
      "stateMutability": "nonpayable",
      "type": "function"
    },
    {
      "inputs": [],
      "name": "createFuelStation",
      "outputs": [],
      "stateMutability": "nonpayable",
      "type": "function"
    },
    {
      "inputs": [
        {
          "internalType": "uint256",
          "name": "carId",
          "type": "uint256"
        },
        {
          "internalType": "uint256",
          "name": "chassisId",
          "type": "uint256"
        }
      ],
      "name": "detachChassis",
      "outputs": [],
      "stateMutability": "nonpayable",
      "type": "function"
    },
    {
      "inputs": [
        {
          "internalType": "uint256",
          "name": "carId",
          "type": "uint256"
        },
        {
          "internalType": "uint256",
          "name": "engineId",
          "type": "uint256"
        }
      ],
      "name": "detachEngine",
      "outputs": [],
      "stateMutability": "nonpayable",
      "type": "function"
    },
    {
      "inputs": [
        {
          "internalType": "uint256",
          "name": "",
          "type": "uint256"
        }
      ],
      "name": "engineToOwner",
      "outputs": [
        {
          "internalType": "address",
          "name": "",
          "type": "address"
        }
      ],
      "stateMutability": "view",
      "type": "function",
      "constant": true
    },
    {
      "inputs": [
        {
          "internalType": "uint256",
          "name": "",
          "type": "uint256"
        }
      ],
      "name": "engineToPrice",
      "outputs": [
        {
          "internalType": "uint256",
          "name": "",
          "type": "uint256"
        }
      ],
      "stateMutability": "view",
      "type": "function",
      "constant": true
    },
    {
      "inputs": [
        {
          "internalType": "uint256",
          "name": "",
          "type": "uint256"
        }
      ],
      "name": "engines",
      "outputs": [
        {
          "internalType": "uint256",
          "name": "id",
          "type": "uint256"
        },
        {
          "internalType": "uint16",
          "name": "horsePowers",
          "type": "uint16"
        },
        {
          "internalType": "uint8",
          "name": "consumtion",
          "type": "uint8"
        }
      ],
      "stateMutability": "view",
      "type": "function",
      "constant": true
    },
    {
      "inputs": [],
      "name": "enginesForSaleCount",
      "outputs": [
        {
          "internalType": "uint256",
          "name": "",
          "type": "uint256"
        }
      ],
      "stateMutability": "view",
      "type": "function",
      "constant": true
    },
    {
      "inputs": [
        {
          "internalType": "uint256",
          "name": "carId",
          "type": "uint256"
        }
      ],
      "name": "findRoom",
      "outputs": [],
      "stateMutability": "nonpayable",
      "type": "function"
    },
    {
      "inputs": [
        {
          "internalType": "uint256",
          "name": "",
          "type": "uint256"
        }
      ],
      "name": "fuelStationToOwner",
      "outputs": [
        {
          "internalType": "address",
          "name": "",
          "type": "address"
        }
      ],
      "stateMutability": "view",
      "type": "function",
      "constant": true
    },
    {
      "inputs": [
        {
          "internalType": "uint256",
          "name": "_fuelStatonId",
          "type": "uint256"
        },
        {
          "internalType": "uint8",
          "name": "_counts",
          "type": "uint8"
        }
      ],
      "name": "getCapacityUpgradeCost",
      "outputs": [
        {
          "internalType": "uint256",
          "name": "",
          "type": "uint256"
        }
      ],
      "stateMutability": "view",
      "type": "function",
      "constant": true
    },
    {
      "inputs": [
        {
          "internalType": "address",
          "name": "_owner",
          "type": "address"
        }
      ],
      "name": "getCarsByOwner",
      "outputs": [
        {
          "components": [
            {
              "internalType": "string",
              "name": "model",
              "type": "string"
            },
            {
              "internalType": "uint256",
              "name": "vin",
              "type": "uint256"
            },
            {
              "internalType": "uint256",
              "name": "engineId",
              "type": "uint256"
            },
            {
              "internalType": "uint256",
              "name": "chassisId",
              "type": "uint256"
            },
            {
              "internalType": "uint8",
              "name": "carLevel",
              "type": "uint8"
            },
            {
              "internalType": "uint256",
              "name": "mileage",
              "type": "uint256"
            },
            {
              "internalType": "uint256",
              "name": "winCountOnCurrentLevel",
              "type": "uint256"
            },
            {
              "internalType": "uint256",
              "name": "lossCountOnCurrentLevel",
              "type": "uint256"
            },
            {
              "internalType": "uint256",
              "name": "id",
              "type": "uint256"
            }
          ],
          "internalType": "struct CarFactory.Car[]",
          "name": "",
          "type": "tuple[]"
        }
      ],
      "stateMutability": "view",
      "type": "function",
      "constant": true
    },
    {
      "inputs": [
        {
          "internalType": "address",
          "name": "_owner",
          "type": "address"
        }
      ],
      "name": "getChassisByOwner",
      "outputs": [
        {
          "components": [
            {
              "internalType": "uint256",
              "name": "id",
              "type": "uint256"
            },
            {
              "internalType": "uint32",
              "name": "durability",
              "type": "uint32"
            },
            {
              "internalType": "uint32",
              "name": "resource",
              "type": "uint32"
            }
          ],
          "internalType": "struct CarFactory.Chassis[]",
          "name": "",
          "type": "tuple[]"
        }
      ],
      "stateMutability": "view",
      "type": "function",
      "constant": true
    },
    {
      "inputs": [
        {
          "internalType": "uint256",
          "name": "roomId",
          "type": "uint256"
        }
      ],
      "name": "getClosedRoom",
      "outputs": [
        {
          "components": [
            {
              "internalType": "address",
              "name": "player",
              "type": "address"
            },
            {
              "internalType": "bool",
              "name": "correct",
              "type": "bool"
            },
            {
              "internalType": "uint256",
              "name": "time",
              "type": "uint256"
            },
            {
              "internalType": "uint256",
              "name": "carId",
              "type": "uint256"
            }
          ],
          "internalType": "struct RaceHandler.Answer[]",
          "name": "",
          "type": "tuple[]"
        }
      ],
      "stateMutability": "view",
      "type": "function",
      "constant": true
    },
    {
      "inputs": [
        {
          "internalType": "uint256",
          "name": "_engineId",
          "type": "uint256"
        }
      ],
      "name": "getConsumtionUpgradeCost",
      "outputs": [
        {
          "internalType": "uint256",
          "name": "",
          "type": "uint256"
        }
      ],
      "stateMutability": "view",
      "type": "function",
      "constant": true
    },
    {
      "inputs": [
        {
          "internalType": "uint256",
          "name": "_chassisId",
          "type": "uint256"
        },
        {
          "internalType": "uint8",
          "name": "_counts",
          "type": "uint8"
        }
      ],
      "name": "getDurabilityUpgradeCost",
      "outputs": [
        {
          "internalType": "uint256",
          "name": "",
          "type": "uint256"
        }
      ],
      "stateMutability": "view",
      "type": "function",
      "constant": true
    },
    {
      "inputs": [
        {
          "internalType": "address",
          "name": "_owner",
          "type": "address"
        }
      ],
      "name": "getEnginesByOwner",
      "outputs": [
        {
          "components": [
            {
              "internalType": "uint256",
              "name": "id",
              "type": "uint256"
            },
            {
              "internalType": "uint16",
              "name": "horsePowers",
              "type": "uint16"
            },
            {
              "internalType": "uint8",
              "name": "consumtion",
              "type": "uint8"
            }
          ],
          "internalType": "struct CarFactory.Engine[]",
          "name": "",
          "type": "tuple[]"
        }
      ],
      "stateMutability": "view",
      "type": "function",
      "constant": true
    },
    {
      "inputs": [
        {
          "internalType": "address",
          "name": "_owner",
          "type": "address"
        }
      ],
      "name": "getFuelStationByOwner",
      "outputs": [
        {
          "components": [
            {
              "internalType": "uint256",
              "name": "id",
              "type": "uint256"
            },
            {
              "internalType": "uint8",
              "name": "capacity",
              "type": "uint8"
            },
            {
              "internalType": "uint8",
              "name": "productionPerHour",
              "type": "uint8"
            },
            {
              "internalType": "uint8",
              "name": "currentFullness",
              "type": "uint8"
            },
            {
              "internalType": "uint256",
              "name": "lastUpdate",
              "type": "uint256"
            }
          ],
          "internalType": "struct FuelStationFactory.FuelStation",
          "name": "",
          "type": "tuple"
        }
      ],
      "stateMutability": "view",
      "type": "function",
      "constant": true
    },
    {
      "inputs": [
        {
          "internalType": "uint256",
          "name": "_engineId",
          "type": "uint256"
        },
        {
          "internalType": "uint8",
          "name": "_counts",
          "type": "uint8"
        }
      ],
      "name": "getHorsePowersUpgradeCost",
      "outputs": [
        {
          "internalType": "uint256",
          "name": "",
          "type": "uint256"
        }
      ],
      "stateMutability": "view",
      "type": "function",
      "constant": true
    },
    {
      "inputs": [
        {
          "internalType": "uint256",
          "name": "_carId",
          "type": "uint256"
        }
      ],
      "name": "getLevelUpCost",
      "outputs": [
        {
          "internalType": "uint256",
          "name": "",
          "type": "uint256"
        }
      ],
      "stateMutability": "view",
      "type": "function",
      "constant": true
    },
    {
      "inputs": [
        {
          "internalType": "uint256",
          "name": "_fuelStatonId",
          "type": "uint256"
        },
        {
          "internalType": "uint8",
          "name": "_counts",
          "type": "uint8"
        }
      ],
      "name": "getProductionPerHourUpgradeCost",
      "outputs": [
        {
          "internalType": "uint256",
          "name": "",
          "type": "uint256"
        }
      ],
      "stateMutability": "view",
      "type": "function",
      "constant": true
    },
    {
      "inputs": [
        {
          "internalType": "uint256",
          "name": "",
          "type": "uint256"
        }
      ],
      "name": "idToStartedRooms",
      "outputs": [
        {
          "internalType": "uint256",
          "name": "numberPlayers",
          "type": "uint256"
        },
        {
          "internalType": "uint256",
          "name": "world",
          "type": "uint256"
        },
        {
          "internalType": "uint256",
          "name": "roomDNA",
          "type": "uint256"
        },
        {
          "internalType": "uint256",
          "name": "startTime",
          "type": "uint256"
        },
        {
          "internalType": "uint256",
          "name": "curAnswer",
          "type": "uint256"
        },
        {
          "internalType": "bool",
          "name": "closed",
          "type": "bool"
        }
      ],
      "stateMutability": "view",
      "type": "function",
      "constant": true
    },
    {
      "inputs": [
        {
          "internalType": "uint256",
          "name": "_carId",
          "type": "uint256"
        }
      ],
      "name": "levelUp",
      "outputs": [],
      "stateMutability": "payable",
      "type": "function",
      "payable": true
    },
    {
      "inputs": [
        {
          "internalType": "uint256",
          "name": "",
          "type": "uint256"
        }
      ],
      "name": "openedRooms",
      "outputs": [
        {
          "internalType": "uint256",
          "name": "id",
          "type": "uint256"
        },
        {
          "internalType": "uint256",
          "name": "playersEntered",
          "type": "uint256"
        },
        {
          "internalType": "uint256",
          "name": "world",
          "type": "uint256"
        },
        {
          "components": [
            {
              "internalType": "uint256",
              "name": "playersNeeded",
              "type": "uint256"
            },
            {
              "internalType": "uint256",
              "name": "crossId",
              "type": "uint256"
            }
          ],
          "internalType": "struct RaceHandler.Cross",
          "name": "cross",
          "type": "tuple"
        },
        {
          "internalType": "uint256",
          "name": "roomSeed",
          "type": "uint256"
        }
      ],
      "stateMutability": "view",
      "type": "function",
      "constant": true
    },
    {
      "inputs": [],
      "name": "owner",
      "outputs": [
        {
          "internalType": "address",
          "name": "",
          "type": "address"
        }
      ],
      "stateMutability": "view",
      "type": "function",
      "constant": true
    },
    {
      "inputs": [
        {
          "internalType": "address",
          "name": "",
          "type": "address"
        }
      ],
      "name": "ownerCarCount",
      "outputs": [
        {
          "internalType": "uint256",
          "name": "",
          "type": "uint256"
        }
      ],
      "stateMutability": "view",
      "type": "function",
      "constant": true
    },
    {
      "inputs": [
        {
          "internalType": "address",
          "name": "",
          "type": "address"
        }
      ],
      "name": "ownerChassisCount",
      "outputs": [
        {
          "internalType": "uint256",
          "name": "",
          "type": "uint256"
        }
      ],
      "stateMutability": "view",
      "type": "function",
      "constant": true
    },
    {
      "inputs": [
        {
          "internalType": "address",
          "name": "",
          "type": "address"
        }
      ],
      "name": "ownerEngineCount",
      "outputs": [
        {
          "internalType": "uint256",
          "name": "",
          "type": "uint256"
        }
      ],
      "stateMutability": "view",
      "type": "function",
      "constant": true
    },
    {
      "inputs": [],
      "name": "renounceOwnership",
      "outputs": [],
      "stateMutability": "nonpayable",
      "type": "function"
    },
    {
      "inputs": [
        {
          "internalType": "uint256",
          "name": "_carId",
          "type": "uint256"
        }
      ],
      "name": "startRace",
      "outputs": [],
      "stateMutability": "nonpayable",
      "type": "function"
    },
    {
      "inputs": [
        {
          "internalType": "uint256",
          "name": "",
          "type": "uint256"
        }
      ],
      "name": "stations",
      "outputs": [
        {
          "internalType": "uint256",
          "name": "id",
          "type": "uint256"
        },
        {
          "internalType": "uint8",
          "name": "capacity",
          "type": "uint8"
        },
        {
          "internalType": "uint8",
          "name": "productionPerHour",
          "type": "uint8"
        },
        {
          "internalType": "uint8",
          "name": "currentFullness",
          "type": "uint8"
        },
        {
          "internalType": "uint256",
          "name": "lastUpdate",
          "type": "uint256"
        }
      ],
      "stateMutability": "view",
      "type": "function",
      "constant": true
    },
    {
      "inputs": [
        {
          "internalType": "uint256",
          "name": "carId",
          "type": "uint256"
        },
        {
          "internalType": "uint256",
          "name": "chassisId",
          "type": "uint256"
        }
      ],
      "name": "switchChassis",
      "outputs": [],
      "stateMutability": "nonpayable",
      "type": "function"
    },
    {
      "inputs": [
        {
          "internalType": "uint256",
          "name": "carId",
          "type": "uint256"
        },
        {
          "internalType": "uint256",
          "name": "engineId",
          "type": "uint256"
        }
      ],
      "name": "switchEngine",
      "outputs": [],
      "stateMutability": "nonpayable",
      "type": "function"
    },
    {
      "inputs": [
        {
          "internalType": "address",
          "name": "newOwner",
          "type": "address"
        }
      ],
      "name": "transferOwnership",
      "outputs": [],
      "stateMutability": "nonpayable",
      "type": "function"
    },
    {
      "inputs": [
        {
          "internalType": "uint256",
          "name": "_fuelStatonId",
          "type": "uint256"
        },
        {
          "internalType": "uint8",
          "name": "_counts",
          "type": "uint8"
        }
      ],
      "name": "upgradeCapacity",
      "outputs": [],
      "stateMutability": "payable",
      "type": "function",
      "payable": true
    },
    {
      "inputs": [
        {
          "internalType": "uint256",
          "name": "_engineId",
          "type": "uint256"
        }
      ],
      "name": "upgradeConsumtion",
      "outputs": [],
      "stateMutability": "payable",
      "type": "function",
      "payable": true
    },
    {
      "inputs": [
        {
          "internalType": "uint256",
          "name": "_chassisId",
          "type": "uint256"
        },
        {
          "internalType": "uint8",
          "name": "_counts",
          "type": "uint8"
        }
      ],
      "name": "upgradeDurability",
      "outputs": [],
      "stateMutability": "payable",
      "type": "function",
      "payable": true
    },
    {
      "inputs": [
        {
          "internalType": "uint256",
          "name": "_engineId",
          "type": "uint256"
        },
        {
          "internalType": "uint8",
          "name": "_counts",
          "type": "uint8"
        }
      ],
      "name": "upgradeHorsePowers",
      "outputs": [],
      "stateMutability": "payable",
      "type": "function",
      "payable": true
    },
    {
      "inputs": [
        {
          "internalType": "uint256",
          "name": "_fuelStatonId",
          "type": "uint256"
        },
        {
          "internalType": "uint8",
          "name": "_counts",
          "type": "uint8"
        }
      ],
      "name": "upgradeProductionPerHour",
      "outputs": [],
      "stateMutability": "payable",
      "type": "function",
      "payable": true
    },
    {
      "inputs": [
        {
          "internalType": "address",
          "name": "_chassisOwnership",
          "type": "address"
        },
        {
          "internalType": "address",
          "name": "_engineOwnership",
          "type": "address"
        },
        {
          "internalType": "address",
          "name": "_carOwnership",
          "type": "address"
        }
      ],
      "name": "init",
      "outputs": [],
      "stateMutability": "nonpayable",
      "type": "function"
    },
    {
      "inputs": [
        {
          "internalType": "address",
          "name": "_owner",
          "type": "address"
        }
      ],
      "name": "balanceOfCars",
      "outputs": [
        {
          "internalType": "uint256",
          "name": "",
          "type": "uint256"
        }
      ],
      "stateMutability": "view",
      "type": "function",
      "constant": true
    },
    {
      "inputs": [
        {
          "internalType": "uint256",
          "name": "_tokenId",
          "type": "uint256"
        }
      ],
      "name": "ownerOfCar",
      "outputs": [
        {
          "internalType": "address",
          "name": "",
          "type": "address"
        }
      ],
      "stateMutability": "view",
      "type": "function",
      "constant": true
    },
    {
      "inputs": [
        {
          "internalType": "address",
          "name": "_from",
          "type": "address"
        },
        {
          "internalType": "address",
          "name": "_to",
          "type": "address"
        },
        {
          "internalType": "uint256",
          "name": "_tokenId",
          "type": "uint256"
        }
      ],
      "name": "transferCarFrom",
      "outputs": [],
      "stateMutability": "nonpayable",
      "type": "function"
    },
    {
      "inputs": [
        {
          "internalType": "address",
          "name": "_owner",
          "type": "address"
        }
      ],
      "name": "balanceOfEngines",
      "outputs": [
        {
          "internalType": "uint256",
          "name": "",
          "type": "uint256"
        }
      ],
      "stateMutability": "view",
      "type": "function",
      "constant": true
    },
    {
      "inputs": [
        {
          "internalType": "uint256",
          "name": "_tokenId",
          "type": "uint256"
        }
      ],
      "name": "ownerOfEngine",
      "outputs": [
        {
          "internalType": "address",
          "name": "",
          "type": "address"
        }
      ],
      "stateMutability": "view",
      "type": "function",
      "constant": true
    },
    {
      "inputs": [
        {
          "internalType": "address",
          "name": "_from",
          "type": "address"
        },
        {
          "internalType": "address",
          "name": "_to",
          "type": "address"
        },
        {
          "internalType": "uint256",
          "name": "_tokenId",
          "type": "uint256"
        }
      ],
      "name": "transferEngineFrom",
      "outputs": [],
      "stateMutability": "nonpayable",
      "type": "function"
    },
    {
      "inputs": [
        {
          "internalType": "address",
          "name": "_owner",
          "type": "address"
        }
      ],
      "name": "balanceOfChassis",
      "outputs": [
        {
          "internalType": "uint256",
          "name": "",
          "type": "uint256"
        }
      ],
      "stateMutability": "view",
      "type": "function",
      "constant": true
    },
    {
      "inputs": [
        {
          "internalType": "uint256",
          "name": "_tokenId",
          "type": "uint256"
        }
      ],
      "name": "ownerOfChassis",
      "outputs": [
        {
          "internalType": "address",
          "name": "",
          "type": "address"
        }
      ],
      "stateMutability": "view",
      "type": "function",
      "constant": true
    },
    {
      "inputs": [
        {
          "internalType": "address",
          "name": "_from",
          "type": "address"
        },
        {
          "internalType": "address",
          "name": "_to",
          "type": "address"
        },
        {
          "internalType": "uint256",
          "name": "_tokenId",
          "type": "uint256"
        }
      ],
      "name": "transferChassisFrom",
      "outputs": [],
      "stateMutability": "nonpayable",
      "type": "function"
    },
    {
      "inputs": [
        {
          "internalType": "uint256",
          "name": "chassisId",
          "type": "uint256"
        },
        {
          "internalType": "uint256",
          "name": "price",
          "type": "uint256"
        }
      ],
      "name": "putChassisOnMarketplace",
      "outputs": [],
      "stateMutability": "nonpayable",
      "type": "function"
    },
    {
      "inputs": [
        {
          "internalType": "uint256",
          "name": "chassisId",
          "type": "uint256"
        }
      ],
      "name": "removeChassisFromMarketplace",
      "outputs": [],
      "stateMutability": "nonpayable",
      "type": "function"
    },
    {
      "inputs": [
        {
          "internalType": "uint256",
          "name": "engineId",
          "type": "uint256"
        },
        {
          "internalType": "uint256",
          "name": "price",
          "type": "uint256"
        }
      ],
      "name": "putEngineOnMarketplace",
      "outputs": [],
      "stateMutability": "nonpayable",
      "type": "function"
    },
    {
      "inputs": [
        {
          "internalType": "uint256",
          "name": "engineId",
          "type": "uint256"
        }
      ],
      "name": "removeEngineFromMarketplace",
      "outputs": [],
      "stateMutability": "nonpayable",
      "type": "function"
    },
    {
      "inputs": [
        {
          "internalType": "uint256",
          "name": "carId",
          "type": "uint256"
        },
        {
          "internalType": "uint256",
          "name": "price",
          "type": "uint256"
        }
      ],
      "name": "putCarOnMarketplace",
      "outputs": [],
      "stateMutability": "nonpayable",
      "type": "function"
    },
    {
      "inputs": [
        {
          "internalType": "uint256",
          "name": "carId",
          "type": "uint256"
        }
      ],
      "name": "removeCarFromMarketplace",
      "outputs": [],
      "stateMutability": "nonpayable",
      "type": "function"
    },
    {
      "inputs": [],
      "name": "getCarsForSale",
      "outputs": [
        {
          "components": [
            {
              "internalType": "string",
              "name": "model",
              "type": "string"
            },
            {
              "internalType": "uint256",
              "name": "vin",
              "type": "uint256"
            },
            {
              "internalType": "uint256",
              "name": "engineId",
              "type": "uint256"
            },
            {
              "internalType": "uint256",
              "name": "chassisId",
              "type": "uint256"
            },
            {
              "internalType": "uint8",
              "name": "carLevel",
              "type": "uint8"
            },
            {
              "internalType": "uint256",
              "name": "mileage",
              "type": "uint256"
            },
            {
              "internalType": "uint256",
              "name": "winCountOnCurrentLevel",
              "type": "uint256"
            },
            {
              "internalType": "uint256",
              "name": "lossCountOnCurrentLevel",
              "type": "uint256"
            },
            {
              "internalType": "uint256",
              "name": "id",
              "type": "uint256"
            }
          ],
          "internalType": "struct CarFactory.Car[]",
          "name": "",
          "type": "tuple[]"
        }
      ],
      "stateMutability": "view",
      "type": "function",
      "constant": true
    },
    {
      "inputs": [],
      "name": "getEnginesForSale",
      "outputs": [
        {
          "components": [
            {
              "internalType": "uint256",
              "name": "id",
              "type": "uint256"
            },
            {
              "internalType": "uint16",
              "name": "horsePowers",
              "type": "uint16"
            },
            {
              "internalType": "uint8",
              "name": "consumtion",
              "type": "uint8"
            }
          ],
          "internalType": "struct CarFactory.Engine[]",
          "name": "",
          "type": "tuple[]"
        }
      ],
      "stateMutability": "view",
      "type": "function",
      "constant": true
    },
    {
      "inputs": [],
      "name": "getChassisForSale",
      "outputs": [
        {
          "components": [
            {
              "internalType": "uint256",
              "name": "id",
              "type": "uint256"
            },
            {
              "internalType": "uint32",
              "name": "durability",
              "type": "uint32"
            },
            {
              "internalType": "uint32",
              "name": "resource",
              "type": "uint32"
            }
          ],
          "internalType": "struct CarFactory.Chassis[]",
          "name": "",
          "type": "tuple[]"
        }
      ],
      "stateMutability": "view",
      "type": "function",
      "constant": true
    }
  ],
  "bytecode": "0x6000805461ffff60a01b191661014f60a21b17815560088190556009819055600a9081556001600b819055600c556509184e72a000601981905565b5e620f48000601a55650da475abf000601b556611c37937e08000601c556305f5e100601d5566038d7ea4c68000601e556101c060405260809081526512309ce5400060a05265246139ca800060c0526548c27395000060e052659184e72a00006101005266012309ce54000061012052660246139ca800006101405266048c2739500000610160526609184e72a00000610180526612309ce54000006101a052620000ea916020919062000199565b50348015620000f857600080fd5b50620001043362000149565b6050600355605b6004556005805460ff1916600a179055620186a06006556201d4c1600755600e80546001908101909155600f8054820181556000526023556200020b565b600080546001600160a01b038381166001600160a01b0319831681178455604051919092169283917f8be0079c531659141344cd1fd0a4f28419497f9722a3daafe3b4186f6b6457e09190a35050565b828054828255906000526020600020908101928215620001e2579160200282015b82811115620001e2578251829066ffffffffffffff16905591602001919060010190620001ba565b50620001f0929150620001f4565b5090565b5b80821115620001f05760008155600101620001f5565b615869806200021b6000396000f3fe6080604052600436106104055760003560e01c80637fb2aa4d11610213578063bfcc971611610123578063ea126933116100ab578063f7746e361161007a578063f7746e3614610f82578063f85993b914610fb7578063faf4bb9814610fe4578063fb2d954f14610ff7578063fb33250f1461101757600080fd5b8063ea12693314610f02578063ede6fbf514610f22578063f2fde38b14610f42578063f66911b114610f6257600080fd5b8063d1c54eea116100f2578063d1c54eea14610e62578063d7086fab14610e82578063d720be4a14610ea2578063df750c5214610ec2578063e215a7e414610ee257600080fd5b8063bfcc971614610de2578063c34cccc414610e02578063c75bb4f414610e22578063c85b7fed14610e4257600080fd5b8063906f5f34116101a6578063b3b29afd11610175578063b3b29afd14610d1f578063b72c0eea14610d4c578063b972486f14610d8d578063bf5070d314610da2578063bf9bc0b214610dc257600080fd5b8063906f5f3414610c7957806392f859db14610c8c578063982b691c14610cdc578063aa11b68114610cf257600080fd5b806389895f77116101e257806389895f7714610c085780638b57997314610c285780638da5cb5b14610c485780638ff90c6b14610c6657600080fd5b80637fb2aa4d14610b655780638590926714610b925780638776601914610ba557806387d6b9b214610bd257600080fd5b806333ca504b116103195780635c426aff116102a1578063715018a611610270578063715018a614610ace57806376997de014610ae357806376b4646d14610b035780637713d52114610b255780637ec5c75c14610b4557600080fd5b80635c426aff14610a155780635dcc4cc614610a4b5780636b606d9b14610a815780636f206fc114610aa157600080fd5b8063491d61c2116102e8578063491d61c2146109125780634ced3056146109345780634e31f91014610954578063567754e4146109bf578063594193d7146109df57600080fd5b806333ca504b146108435780633521c426146108795780633dfd6f54146108a657806344901490146108dc57600080fd5b80631702bf421161039c578063224370f01161036b578063224370f01461066357806324d822bf14610797578063254dc065146107b75780632ca4769e146107ed5780632cb03a3a1461080d57600080fd5b80631702bf42146105cb578063184b9559146105e15780631a56afda146106015780631c5dde0e1461062157600080fd5b80630a0176fc116103d85780630a0176fc146105475780630c0cd532146105825780630ce90ec21461059857806314ed0450146105ab57600080fd5b806302b677451461040a57806303f2e05b1461045d5780630418394e14610472578063081315ff146104f4575b600080fd5b34801561041657600080fd5b50610440610425366004614d1f565b6000908152601060205260409020546001600160a01b031690565b6040516001600160a01b0390911681526020015b60405180910390f35b61047061046b366004614d4e565b611037565b005b34801561047e57600080fd5b506104c561048d366004614d1f565b602560205260009081526040902080546001820154600283015460038401546005850154600690950154939492939192909160ff1686565b6040805196875260208701959095529385019290925260608401526080830152151560a082015260c001610454565b34801561050057600080fd5b5061051461050f366004614d1f565b61113d565b604080519586526020808701959095528501929092528051606085015290910151608083015260a082015260c001610454565b34801561055357600080fd5b50610574610562366004614d1f565b60186020526000908152604090205481565b604051908152602001610454565b34801561058e57600080fd5b50610574600a5481565b6104706105a6366004614d1f565b611195565b3480156105b757600080fd5b506104706105c6366004614d1f565b61129b565b3480156105d757600080fd5b5061057460085481565b3480156105ed57600080fd5b506104706105fc366004614d91565b6112fc565b34801561060d57600080fd5b5061057461061c366004614d4e565b611343565b34801561062d57600080fd5b5061064161063c366004614d1f565b611395565b6040805193845263ffffffff9283166020850152911690820152606001610454565b34801561066f57600080fd5b50610470600180546040805160a0810182528281526000805460ff600160a01b820481166020808601828152600160a81b90940483168688019081526060870192835263ffffffff421660808801908152898b018b559986529551600389027fb10e2d527612073b26eecdfd717e6a320cf44b4afac2b0732d9fcbe2b7fa0cf681019190915593517fb10e2d527612073b26eecdfd717e6a320cf44b4afac2b0732d9fcbe2b7fa0cf785018054975193518516620100000262ff0000199486166101000261ffff19909916929095169190911796909617919091169190911790935594517fb10e2d527612073b26eecdfd717e6a320cf44b4afac2b0732d9fcbe2b7fa0cf8909501949094559183526002909152902080546001600160a01b03191633179055565b3480156107a357600080fd5b506104706107b2366004614d1f565b6113d5565b3480156107c357600080fd5b506105746107d2366004614dd4565b6001600160a01b031660009081526015602052604090205490565b3480156107f957600080fd5b50610574610808366004614d4e565b611706565b34801561081957600080fd5b50610574610828366004614dd4565b6001600160a01b031660009081526013602052604090205490565b34801561084f57600080fd5b5061044061085e366004614d1f565b6010602052600090815260409020546001600160a01b031681565b34801561088557600080fd5b50610899610894366004614d1f565b611748565b6040516104549190614def565b3480156108b257600080fd5b506104406108c1366004614d1f565b6000908152601160205260409020546001600160a01b031690565b3480156108e857600080fd5b506104406108f7366004614d1f565b6012602052600090815260409020546001600160a01b031681565b34801561091e57600080fd5b5061092761183a565b6040516104549190614e5e565b34801561094057600080fd5b5061047061094f366004614d1f565b611963565b34801561096057600080fd5b5061097461096f366004614dd4565b6119d7565b6040516104549190600060a0820190508251825260ff602084015116602083015260ff604084015116604083015260ff60608401511660608301526080830151608083015292915050565b3480156109cb57600080fd5b506104706109da366004614d1f565b611abe565b3480156109eb57600080fd5b506104406109fa366004614d1f565b6002602052600090815260409020546001600160a01b031681565b348015610a2157600080fd5b50610440610a30366004614d1f565b6000908152601260205260409020546001600160a01b031690565b348015610a5757600080fd5b50610440610a66366004614d1f565b6011602052600090815260409020546001600160a01b031681565b348015610a8d57600080fd5b50610470610a9c366004614eb1565b611b1f565b348015610aad57600080fd5b50610ac1610abc366004614dd4565b611c1f565b6040516104549190614ed3565b348015610ada57600080fd5b50610470611d73565b348015610aef57600080fd5b50610574610afe366004614d4e565b611d87565b348015610b0f57600080fd5b50610b18611dc4565b6040516104549190614f85565b348015610b3157600080fd5b50610927610b40366004614dd4565b611f90565b348015610b5157600080fd5b50610470610b6036600461504f565b6120d8565b348015610b7157600080fd5b50610574610b80366004614dd4565b60146020526000908152604090205481565b610470610ba0366004614d4e565b612180565b348015610bb157600080fd5b50610574610bc0366004614dd4565b60156020526000908152604090205481565b348015610bde57600080fd5b50610574610bed366004614dd4565b6001600160a01b031660009081526014602052604090205490565b348015610c1457600080fd5b50610470610c23366004614eb1565b612265565b348015610c3457600080fd5b50610470610c4336600461504f565b6122e8565b348015610c5457600080fd5b506000546001600160a01b0316610440565b610470610c74366004614d1f565b612373565b610470610c87366004614d4e565b612452565b348015610c9857600080fd5b50610cac610ca7366004614d1f565b612513565b6040805195865260ff9485166020870152928416928501929092529091166060830152608082015260a001610454565b348015610ce857600080fd5b5061057460095481565b348015610cfe57600080fd5b50610574610d0d366004614d1f565b60166020526000908152604090205481565b348015610d2b57600080fd5b50610574610d3a366004614dd4565b60136020526000908152604090205481565b348015610d5857600080fd5b50610d6c610d67366004614d1f565b61255f565b6040805193845261ffff909216602084015260ff1690820152606001610454565b348015610d9957600080fd5b50610ac161259c565b348015610dae57600080fd5b50610574610dbd366004614d4e565b6126c0565b348015610dce57600080fd5b50610574610ddd366004614d1f565b6126fd565b348015610dee57600080fd5b50610574610dfd36600461509f565b612750565b348015610e0e57600080fd5b50610470610e1d366004614eb1565b6128a5565b348015610e2e57600080fd5b50610b18610e3d366004614dd4565b6129f5565b348015610e4e57600080fd5b50610470610e5d366004615110565b612be9565b348015610e6e57600080fd5b50610470610e7d366004614eb1565b612e76565b348015610e8e57600080fd5b50610574610e9d3660046151d4565b612f5c565b348015610eae57600080fd5b50610470610ebd366004614eb1565b6130cb565b348015610ece57600080fd5b50610574610edd366004614d1f565b613161565b348015610eee57600080fd5b50610470610efd366004614eb1565b6131b9565b348015610f0e57600080fd5b50610470610f1d366004614eb1565b61323c565b348015610f2e57600080fd5b50610470610f3d366004615270565b6133a0565b348015610f4e57600080fd5b50610470610f5d366004614dd4565b61356e565b348015610f6e57600080fd5b50610470610f7d36600461504f565b6135e7565b348015610f8e57600080fd5b50610fa2610f9d366004614d1f565b613672565b604051610454999897969594939291906152a5565b348015610fc357600080fd5b50610574610fd2366004614d1f565b60176020526000908152604090205481565b610470610ff2366004614d4e565b61375f565b34801561100357600080fd5b50610470611012366004614d1f565b613843565b34801561102357600080fd5b506104706110323660046152fc565b613dfc565b60008281526012602052604090205482906001600160a01b031633146110785760405162461bcd60e51b815260040161106f90615384565b60405180910390fd5b6110828383611343565b34146110a05760405162461bcd60e51b815260040161106f906153b2565b600080546040516001600160a01b03909116913480156108fc02929091818181858888f193505050501580156110da573d6000803e3d6000fd5b508160ff16600f84815481106110f2576110f26153d6565b600091825260208220600160029092020101805490919061111a90849063ffffffff16615402565b92506101000a81548163ffffffff021916908363ffffffff160217905550505050565b6024818154811061114d57600080fd5b60009182526020918290206006909102018054600182015460028301546040805180820190915260038501548152600485015495810195909552600590930154919450929085565b61119e816126fd565b34146111bc5760405162461bcd60e51b815260040161106f906153b2565b600080546040516001600160a01b03909116913480156108fc02929091818181858888f193505050501580156111f6573d6000803e3d6000fd5b50600d818154811061120a5761120a6153d6565b600091825260208220600460099092020101805460ff169161122b8361542a565b91906101000a81548160ff021916908360ff160217905550506000600d8281548110611259576112596153d6565b9060005260206000209060090201600601819055506000600d8281548110611283576112836153d6565b90600052602060002090600902016007018190555050565b60008181526011602052604090205481906001600160a01b031633146112c057600080fd5b600082815260176020526040902054156112ea57600a80549060006112e483615449565b91905055505b50600090815260176020526040812055565b611304613ff6565b602680546001600160a01b039485166001600160a01b031991821617909155602780549385169382169390931790925560288054919093169116179055565b6000601d54600f848154811061135b5761135b6153d6565b60009182526020909120600160029092020101546113829063ffffffff1660ff8516615460565b61138c9190615460565b90505b92915050565b600f81815481106113a557600080fd5b60009182526020909120600290910201805460019091015490915063ffffffff8082169164010000000090041683565b60008181526010602052604090205481906001600160a01b031633146113fa57600080fd5b6000600a600d8481548110611411576114116153d6565b6000918252602090912060046009909202010154611432919060ff16615495565b61143d90600a6154b7565b6114489060026154da565b336000908152602260205260409020549091501561149e5760405162461bcd60e51b815260206004820152601360248201527263617220616c726561647920696e207261636560681b604482015260640161106f565b600d83815481106114b1576114b16153d6565b9060005260206000209060090201600301546000036114ff5760405162461bcd60e51b815260206004820152600a6024820152696e6f206368617373697360b01b604482015260640161106f565b600d8381548110611512576115126153d6565b90600052602060002090600902016002015460000361155f5760405162461bcd60e51b81526020600482015260096024820152686e6f20656e67696e6560b81b604482015260640161106f565b6115698382614050565b6115a75760405162461bcd60e51b815260206004820152600f60248201526e1b9bdd08195b9bdd59da08199d595b608a1b604482015260640161106f565b8060ff16600f600d85815481106115c0576115c06153d6565b906000526020600020906009020160030154815481106115e2576115e26153d6565b6000918252602090912060029091020160010154640100000000900463ffffffff16101561163d5760405162461bcd60e51b81526020600482015260086024820152677265736f7572636560c01b604482015260640161106f565b8060ff16600f600d8581548110611656576116566153d6565b90600052602060002090600902016003015481548110611678576116786153d6565b906000526020600020906002020160010160048282829054906101000a900463ffffffff166116a79190615503565b92506101000a81548163ffffffff021916908363ffffffff1602179055508060ff16600d84815481106116dc576116dc6153d6565b906000526020600020906009020160050160008282546116fc9190615528565b9091555050505050565b6000601a546001848154811061171e5761171e6153d6565b60009182526020909120600160039092020101546113829060ff6101009091048116908516615460565b60008181526025602052604090206006015460609060ff1661179e5760405162461bcd60e51b815260206004820152600f60248201526e1c9bdbdb481b9bdd0818db1bdcd959608a1b604482015260640161106f565b600082815260256020908152604080832060040180548251818502810185019093528083529193909284015b8282101561182f576000848152602090819020604080516080810182526003860290920180546001600160a01b0381168452600160a01b900460ff161515838501526001808201549284019290925260020154606083015290835290920191016117ca565b505050509050919050565b60606000600a5467ffffffffffffffff811115611859576118596150c9565b6040519080825280602002602001820160405280156118a457816020015b60408051606081018252600080825260208083018290529282015282526000199092019101816118775790505b509050600060015b600e5481101561195b576000818152601760205260409020541561194957600e81815481106118dd576118dd6153d6565b600091825260209182902060408051606081018252600293909302909101805483526001015461ffff8116938301939093526201000090920460ff1691810191909152838361192b81615540565b94508151811061193d5761193d6153d6565b60200260200101819052505b8061195381615540565b9150506118ac565b509092915050565b60008181526012602052604090205481906001600160a01b0316331461199b5760405162461bcd60e51b815260040161106f90615384565b600082815260186020526040902054156119c557600980549060006119bf83615449565b91905055505b50600090815260186020526040812055565b6040805160a081018252600080825260208201819052918101829052606081018290526080810182905290805b600154811015611a49576000818152600260205260409020546001600160a01b03808616911603611a3757809150611a49565b80611a4181615540565b915050611a04565b5060018181548110611a5d57611a5d6153d6565b60009182526020918290206040805160a081018252600390930290910180548352600181015460ff80821695850195909552610100810485169284019290925262010000909104909216606082015260029091015460808201529392505050565b60008181526010602052604090205481906001600160a01b03163314611ae357600080fd5b60008281526016602052604090205415611b0d5760088054906000611b0783615449565b91905055505b50600090815260166020526040812055565b60008181526012602052604090205481906001600160a01b03163314611b575760405162461bcd60e51b815260040161106f90615384565b60008381526010602052604090205483906001600160a01b03163314611b7c57600080fd5b82600d8581548110611b9057611b906153d6565b90600052602060002090600902016003015414611bef5760405162461bcd60e51b815260206004820152601860248201527f6368617373697320617265206e6f742061747461636865640000000000000000604482015260640161106f565b6000600d8581548110611c0457611c046153d6565b90600052602060002090600902016003018190555050505050565b6001600160a01b0381166000908152601560205260408120546060919067ffffffffffffffff811115611c5457611c546150c9565b604051908082528060200260200182016040528015611c9f57816020015b6040805160608101825260008082526020808301829052928201528252600019909201910181611c725790505b5090506000805b600f54811015611d6a576000818152601260205260409020546001600160a01b03808716911603611d5857600f8181548110611ce457611ce46153d6565b6000918252602091829020604080516060810182526002909302909101805483526001015463ffffffff808216948401949094526401000000009004909216918101919091528351849084908110611d3e57611d3e6153d6565b60200260200101819052508180611d5490615540565b9250505b80611d6281615540565b915050611ca6565b50909392505050565b611d7b613ff6565b611d8560006141f2565b565b600060195460018481548110611d9f57611d9f6153d6565b60009182526020909120600160039092020101546113829060ff908116908516615460565b6060600060085467ffffffffffffffff811115611de357611de36150c9565b604051908082528060200260200182016040528015611e1c57816020015b611e09614c37565b815260200190600190039081611e015790505b5090506000805b600d5481101561195b5760008181526016602052604090205415611f7e57600d8181548110611e5457611e546153d6565b906000526020600020906009020160405180610120016040529081600082018054611e7e90615559565b80601f0160208091040260200160405190810160405280929190818152602001828054611eaa90615559565b8015611ef75780601f10611ecc57610100808354040283529160200191611ef7565b820191906000526020600020905b815481529060010190602001808311611eda57829003601f168201915b5050509183525050600182015460208201526002820154604082015260038201546060820152600482015460ff166080820152600582015460a0820152600682015460c0820152600782015460e0820152600890910154610100909101528383611f6081615540565b945081518110611f7257611f726153d6565b60200260200101819052505b80611f8881615540565b915050611e23565b6001600160a01b0381166000908152601460205260408120546060919067ffffffffffffffff811115611fc557611fc56150c9565b60405190808252806020026020018201604052801561201057816020015b6040805160608101825260008082526020808301829052928201528252600019909201910181611fe35790505b5090506000805b600e54811015611d6a576000818152601160205260409020546001600160a01b038087169116036120c657600e8181548110612055576120556153d6565b600091825260209182902060408051606081018252600293909302909101805483526001015461ffff8116938301939093526201000090920460ff169181019190915283518490849081106120ac576120ac6153d6565b602002602001018190525081806120c290615540565b9250505b806120d081615540565b915050612017565b6028546001600160a01b031633146121325760405162461bcd60e51b815260206004820152601960248201527f796f7520617265206e6f7420636172206f776e65727368697000000000000000604482015260640161106f565b6000818152601060205260409020546001600160a01b0384811691161480612167575060008181526016602052604090205415155b61217057600080fd5b61217b838383614242565b505050565b60008281526002602052604090205482906001600160a01b031633146121a557600080fd5b6121af8383611706565b34146121cd5760405162461bcd60e51b815260040161106f906153b2565b600080546040516001600160a01b03909116913480156108fc02929091818181858888f19350505050158015612207573d6000803e3d6000fd5b50816001848154811061221c5761221c6153d6565b906000526020600020906003020160010160018282829054906101000a900460ff166122489190615593565b92506101000a81548160ff021916908360ff160217905550505050565b60008281526011602052604090205482906001600160a01b0316331461228a57600080fd5b600082116122aa5760405162461bcd60e51b815260040161106f906155b8565b60008381526017602052604081205490036122d557600a80549060006122cf83615540565b91905055505b5060009182526017602052604090912055565b6027546001600160a01b031633146123425760405162461bcd60e51b815260206004820152601c60248201527f796f7520617265206e6f7420656e67696e65206f776e65727368697000000000604482015260640161106f565b6000818152601160205260409020546001600160a01b0384811691161461236857600080fd5b61217b8383836143f2565b60008181526011602052604090205481906001600160a01b0316331461239857600080fd5b6123a182613161565b34146123bf5760405162461bcd60e51b815260040161106f906153b2565b600080546040516001600160a01b03909116913480156108fc02929091818181858888f193505050501580156123f9573d6000803e3d6000fd5b50600e828154811061240d5761240d6153d6565b60009182526020909120600291820201600101805462010000900460ff1691612435836155df565b91906101000a81548160ff021916908360ff160217905550505050565b60008281526002602052604090205482906001600160a01b0316331461247757600080fd5b6124818383611d87565b341461249f5760405162461bcd60e51b815260040161106f906153b2565b600080546040516001600160a01b03909116913480156108fc02929091818181858888f193505050501580156124d9573d6000803e3d6000fd5b5081600184815481106124ee576124ee6153d6565b600091825260208220600160039092020101805490919061224890849060ff16615593565b6001818154811061252357600080fd5b600091825260209091206003909102018054600182015460029092015490925060ff808316926101008104821692620100009091049091169085565b600e818154811061256f57600080fd5b60009182526020909120600290910201805460019091015490915061ffff81169062010000900460ff1683565b6060600060095467ffffffffffffffff8111156125bb576125bb6150c9565b60405190808252806020026020018201604052801561260657816020015b60408051606081018252600080825260208083018290529282015282526000199092019101816125d95790505b509050600060015b600f5481101561195b57600081815260186020526040902054156126ae57600f818154811061263f5761263f6153d6565b6000918252602091829020604080516060810182526002909302909101805483526001015463ffffffff80821694840194909452640100000000900490921691810191909152838361269081615540565b9450815181106126a2576126a26153d6565b60200260200101819052505b806126b881615540565b91505061260e565b6000601b54600e84815481106126d8576126d86153d6565b60009182526020909120600160029092020101546113829061ffff1660ff8516615460565b6000600a600d8381548110612714576127146153d6565b6000918252602090912060046009909202010154612735919060ff16615495565b612740906001615593565b60ff16601e5461138f9190615460565b600061275a613ff6565b600c80546000918261276b83615540565b909155506040805160608101825282815263ffffffff8781166020808401828152848601928352600f80546001810182556000918252955160029096027f8d1108e10bcb7c27dddfc02ed9d693a074039d026cf4ea4240b40f7d581ac80281019690965590517f8d1108e10bcb7c27dddfc02ed9d693a074039d026cf4ea4240b40f7d581ac8039095018054935185166401000000000267ffffffffffffffff1990941695909416949094179190911790915581546001600160a01b031682526015905290812080549293509061284183615540565b9091555050600080548282526012602052604090912080546001600160a01b0319166001600160a01b03909216919091179055821561138c576000818152601860205260408120849055600980549161289983615540565b91905055509392505050565b60008181526011602052604090205481906001600160a01b031633146128ca57600080fd5b60008381526010602052604090205483906001600160a01b031633146128ef57600080fd5b82600d8581548110612903576129036153d6565b906000526020600020906009020160020154036129505760405162461bcd60e51b815260206004820152600b60248201526a73616d6520656e67696e6560a81b604482015260640161106f565b600061295b336129f5565b905060005b81518110156129c4578482828151811061297c5761297c6153d6565b602002602001015160400151036129b25760008282815181106129a1576129a16153d6565b602002602001015160400181815250505b806129bc81615540565b915050612960565b5083600d86815481106129d9576129d96153d6565b9060005260206000209060090201600201819055505050505050565b6001600160a01b0381166000908152601360205260408120546060919067ffffffffffffffff811115612a2a57612a2a6150c9565b604051908082528060200260200182016040528015612a6357816020015b612a50614c37565b815260200190600190039081612a485790505b5090506000805b600d54811015611d6a576000818152601060205260409020546001600160a01b03808716911603612bd757600d8181548110612aa857612aa86153d6565b906000526020600020906009020160405180610120016040529081600082018054612ad290615559565b80601f0160208091040260200160405190810160405280929190818152602001828054612afe90615559565b8015612b4b5780601f10612b2057610100808354040283529160200191612b4b565b820191906000526020600020905b815481529060010190602001808311612b2e57829003601f168201915b5050509183525050600182015460208201526002820154604082015260038201546060820152600482015460ff166080820152600582015460a0820152600682015460c0820152600782015460e0820152600890910154610100909101528351849084908110612bbd57612bbd6153d6565b60200260200101819052508180612bd390615540565b9250505b80612be181615540565b915050612a6a565b336000908152602160205260409020548214612c375760405162461bcd60e51b815260206004820152600d60248201526c6e6f7420796f757220726f6f6d60981b604482015260640161106f565b600082815260256020526040808220600201549051634e31f59760e11b815290919073__PDDLib________________________________90639c63eb2e90612c8590859087906004016155fc565b602060405180830381865af4158015612ca2573d6000803e3d6000fd5b505050506040513d601f19601f82011682018060405250810190612cc6919061564a565b604080516080810182523380825283151560208084019182524284860190815260009384526022825285842054606086019081528b855260258352958420600481018054600181810183558288529487208851600390920201805496511515600160a01b026001600160a81b03199097166001600160a01b03929092169190911795909517855591519284019290925594516002909201919091559088905280549254939450909290919003612e6e576040518681527f67acaceb58ff1ad2aa8b3069f69c4cd076824e06a09184b75fb197ead7040be79060200160405180910390a16000868152602560209081526040808320600601805460ff191660011790553383526021825280832083905560229091528120819055805b600088815260256020526040902054811015612e5a576000888152602560205260409020600401805482908110612e1a57612e1a6153d6565b6000918252602090912060039091020154600160a01b900460ff1615612e485781612e4481615540565b9250505b80612e5281615540565b915050612de1565b5080600003612e6c5750505050505050565b505b505050505050565b60008181526011602052604090205481906001600160a01b03163314612e9b57600080fd5b60008381526010602052604090205483906001600160a01b03163314612ec057600080fd5b82600d8581548110612ed457612ed46153d6565b90600052602060002090600902016002015414612f2c5760405162461bcd60e51b8152602060048201526016602482015275195b99da5b99481a5cc81b9bdd08185d1d1858da195960521b604482015260640161106f565b6000600d8581548110612f4157612f416153d6565b90600052602060002090600902016002018190555050505050565b6000612f66613ff6565b600b805460009182612f7783615540565b909155506040805160608101825282815261ffff8089166020830190815260ff808a16948401948552600e80546001810182556000918252945160029095027fbb7b4a454dc3493923482f07822329ed19e8244eff582cc204f8554c3620c3fd81019590955591517fbb7b4a454dc3493923482f07822329ed19e8244eff582cc204f8554c3620c3fe90940180549551909116620100000262ffffff1990951693909216929092179290921790915590915060149061303e6000546001600160a01b031690565b6001600160a01b031681526020810191909152604001600090812080549161306583615540565b9091555050600080548282526011602052604090912080546001600160a01b0319166001600160a01b0390921691909117905582156130c3576000818152601760205260408120849055600a8054916130bd83615540565b91905055505b949350505050565b60008281526012602052604090205482906001600160a01b031633146131035760405162461bcd60e51b815260040161106f90615384565b600082116131235760405162461bcd60e51b815260040161106f906155b8565b600083815260186020526040812054900361314e576009805490600061314883615540565b91905055505b5060009182526018602052604090912055565b6000601c54600e8381548110613179576131796153d6565b60009182526020909120600290910201600101546131a19062010000900460ff16600a6154b7565b6131af9060ff166002615748565b61138f9190615460565b60008281526010602052604090205482906001600160a01b031633146131de57600080fd5b600082116131fe5760405162461bcd60e51b815260040161106f906155b8565b6000838152601660205260408120549003613229576008805490600061322383615540565b91905055505b5060009182526016602052604090912055565b60008181526012602052604090205481906001600160a01b031633146132745760405162461bcd60e51b815260040161106f90615384565b60008381526010602052604090205483906001600160a01b0316331461329957600080fd5b82600d85815481106132ad576132ad6153d6565b906000526020600020906009020160030154036132fb5760405162461bcd60e51b815260206004820152600c60248201526b73616d65206368617373697360a01b604482015260640161106f565b6000613306336129f5565b905060005b815181101561336f5784828281518110613327576133276153d6565b6020026020010151606001510361335d57600082828151811061334c5761334c6153d6565b602002602001015160600181815250505b8061336781615540565b91505061330b565b5083600d8681548110613384576133846153d6565b9060005260206000209060090201600301819055505050505050565b33600090815260136020526040902054156133ba57600080fd5b6000816133c64261456d565b6040516020016133d7929190615754565b60405160208183030381529060405290506000816040516020016133fb919061577a565b6040516020818303038152906040528051906020012060001c90506000613420614600565b9050600061342c614734565b600d80546040805161012081018252898152602080820189905291810187905260608101859052600160808201819052600060a0830181905260c0830181905260e083018190526101008301859052908401855593909352825180519495509193600985027fd7b6990105719101dabeb77144f2a3385c8033acd3af97e9423a695e81ad1eb501926134c2928492910190614c86565b506020828101516001830155604080840151600284015560608401516003840155608084015160048401805460ff191660ff90921691909117905560a0840151600584015560c0840151600684015560e08401516007840155610100909301516008909201919091556000838152601082528281208054336001600160a01b031990911681179091558152601390915290812080549161356183615540565b9190505550505050505050565b613576613ff6565b6001600160a01b0381166135db5760405162461bcd60e51b815260206004820152602660248201527f4f776e61626c653a206e6577206f776e657220697320746865207a65726f206160448201526564647265737360d01b606482015260840161106f565b6135e4816141f2565b50565b6026546001600160a01b031633146136415760405162461bcd60e51b815260206004820152601d60248201527f796f7520617265206e6f742063686173736973206f776e657273686970000000604482015260640161106f565b6000818152601260205260409020546001600160a01b0384811691161461366757600080fd5b61217b838383614868565b600d818154811061368257600080fd5b90600052602060002090600902016000915090508060000180546136a590615559565b80601f01602080910402602001604051908101604052809291908181526020018280546136d190615559565b801561371e5780601f106136f35761010080835404028352916020019161371e565b820191906000526020600020905b81548152906001019060200180831161370157829003601f168201915b50505060018401546002850154600386015460048701546005880154600689015460078a01546008909a01549899959894975092955060ff90911693909289565b60008281526011602052604090205482906001600160a01b0316331461378457600080fd5b61378e83836126c0565b34146137ac5760405162461bcd60e51b815260040161106f906153b2565b600080546040516001600160a01b03909116913480156108fc02929091818181858888f193505050501580156137e6573d6000803e3d6000fd5b508160ff16600e84815481106137fe576137fe6153d6565b600091825260208220600160029092020101805490919061382490849061ffff16615796565b92506101000a81548161ffff021916908361ffff160217905550505050565b60008181526010602052604090205481906001600160a01b0316331461386857600080fd5b6000805b602454811015613c825760248181548110613889576138896153d6565b906000526020600020906006020160020154600a600d86815481106138b0576138b06153d6565b60009182526020909120600460099092020101546138d1919060ff16615495565b6138dc906001615593565b60ff1603613c705760019150602481815481106138fb576138fb6153d6565b600091825260208083206006909202909101543383526021825260408084209190915560229091529020849055602480548290811061393c5761393c6153d6565b60009182526020822060016006909202010180549161395a83615540565b91905055506002600d8581548110613974576139746153d6565b90600052602060002090600902016001015461399091906157b3565b602482815481106139a3576139a36153d6565b906000526020600020906006020160050160008282546139c39190615528565b909155505060248054829081106139dc576139dc6153d6565b90600052602060002090600602016003016000015460248281548110613a0457613a046153d6565b90600052602060002090600602016001015403613c7057600073__PDDLib________________________________63c9827d8660248481548110613a4a57613a4a6153d6565b90600052602060002090600602016003016001015460248581548110613a7257613a726153d6565b906000526020600020906006020160030160000154613ab460248781548110613a9d57613a9d6153d6565b90600052602060002090600602016005015461456d565b6040518463ffffffff1660e01b8152600401613ad2939291906157c7565b602060405180830381865af4158015613aef573d6000803e3d6000fd5b505050506040513d601f19601f82011682018060405250810190613b1391906157ef565b905060006025600060248581548110613b2e57613b2e6153d6565b9060005260206000209060060201600001548152602001908152602001600020905060248381548110613b6357613b636153d6565b600091825260209091206003600690920201015481556024805484908110613b8d57613b8d6153d6565b6000918252602082206006918202016002908101546001850155830184905542600384015560058301919091558101805460ff19169055602480547f2838ebeee7dc83fac85a3d6dbca0c0b6771591ada8b00f97371aa6611e631f9c919085908110613bfb57613bfb6153d6565b600091825260209182902060069091020154604080519182529181018590520160405180910390a160248381548110613c3657613c366153d6565b600091825260208220600690910201818155600181018290556002810182905560038101829055600481018290556005015550613c829050565b80613c7a81615540565b91505061386c565b508015613c8e57505050565b6023805460009182613c9f83615540565b91905055905060006040518060400160405280600542613cbf9190615808565b613cca906002615528565b8152602001613cda600242615808565b81525090508160216000336001600160a01b03166001600160a01b031681526020019081526020016000208190555060246040518060a0016040528084815260200160018152602001600a600d8981548110613d3857613d386153d6565b6000918252602090912060046009909202010154613d59919060ff16615495565b613d64906001615593565b60ff1681526020018381526020016002600d8981548110613d8757613d876153d6565b906000526020600020906009020160010154613da391906157b3565b905281546001818101845560009384526020938490208351600690930201918255838301519082015560408201516002820155606082015180516003830155909201516004830155608001516005909101555050505050565b613e04613ff6565b600086613e104261456d565b604051602001613e21929190615754565b6040516020818303038152906040529050600081604051602001613e45919061577a565b6040516020818303038152906040528051906020012060001c90506000613e6e88886000612f5c565b90506000613e7d876000612750565b600d805460408051610120810182528e815260208082018990529181018790526060810185905260ff8b166080820152600060a0820181905260c0820181905260e08201819052610100820184905260018401855593909352825180519495509193600985027fd7b6990105719101dabeb77144f2a3385c8033acd3af97e9423a695e81ad1eb50192613f14928492910190614c86565b506020828101516001830155604080840151600284015560608401516003840155608084015160048401805460ff90921660ff1990921691909117905560a0840151600584015560c0840151600684015560e0840151600784015561010090930151600890920191909155600080548482526010835283822080546001600160a01b0319166001600160a01b0392831617905581541681526013909152908120805491613fc083615540565b909155505060008181526016602052604081208790556008805491613fe483615540565b91905055505050505050505050505050565b6000546001600160a01b03163314611d855760405162461bcd60e51b815260206004820181905260248201527f4f776e61626c653a2063616c6c6572206973206e6f7420746865206f776e6572604482015260640161106f565b6000828152601060205260408120548190614073906001600160a01b03166119d7565b905061408281600001516149ea565b6000600d8581548110614097576140976153d6565b9060005260206000209060090201600201549050600060019050600a85600e84815481106140c7576140c76153d6565b906000526020600020906002020160010160029054906101000a900460ff166140f091906154da565b60ff161061414157600a600e838154811061410d5761410d6153d6565b60009182526020909120600290910201600101546141349062010000900460ff16876154da565b61413e9190615495565b90505b8060ff16600184600001518154811061415c5761415c6153d6565b600091825260209091206003909102016001015462010000900460ff16106141e657806001846000015181548110614196576141966153d6565b906000526020600020906003020160010160028282829054906101000a900460ff166141c291906154b7565b92506101000a81548160ff021916908360ff1602179055506001935050505061138f565b6000935050505061138f565b600080546001600160a01b038381166001600160a01b0319831681178455604051919092169283917f8be0079c531659141344cd1fd0a4f28419497f9722a3daafe3b4186f6b6457e09190a35050565b6001600160a01b03831660009081526013602052604090205415158061427557506000546001600160a01b038481169116145b6142b75760405162461bcd60e51b815260206004820152601360248201527234ba1034b9903cb7bab9103630b9ba1031b0b960691b604482015260640161106f565b600d81815481106142ca576142ca6153d6565b90600052602060002090600902016003015460001461430e576000600d82815481106142f8576142f86153d6565b9060005260206000209060090201600301819055505b600d8181548110614321576143216153d6565b906000526020600020906009020160020154600014614365576000600d828154811061434f5761434f6153d6565b9060005260206000209060090201600201819055505b6001600160a01b038216600090815260136020526040812080549161438983615540565b90915550506001600160a01b03831660009081526013602052604081208054916143b283615449565b9091555050600090815260106020908152604080832080546001600160a01b0319166001600160a01b039590951694909417909355601690529081205550565b6001600160a01b03831660009081526014602052604090205415158061442557506000546001600160a01b038481169116145b61446a5760405162461bcd60e51b8152602060048201526016602482015275697420697320796f7572206c61737420656e67696e6560501b604482015260640161106f565b6000614475846129f5565b905060005b81518110156144de5782828281518110614496576144966153d6565b602002602001015160400151036144cc5760008282815181106144bb576144bb6153d6565b602002602001015160400181815250505b806144d681615540565b91505061447a565b506001600160a01b038316600090815260146020526040812080549161450383615540565b90915550506001600160a01b038416600090815260146020526040812080549161452c83615449565b909155505050600090815260116020908152604080832080546001600160a01b0319166001600160a01b039590951694909417909355601790529081205550565b6060600061457a83614b49565b600101905060008167ffffffffffffffff81111561459a5761459a6150c9565b6040519080825280601f01601f1916602001820160405280156145c4576020820181803683370190505b5090508181016020015b600019016f181899199a1a9b1b9c1cb0b131b232b360811b600a86061a8153600a85049450846145ce57509392505050565b600080600354600454614613919061581c565b61461d9042615808565b60035461462a9190615528565b600b8054919250600091908261463f83615540565b909155506040805160608101825282815261ffff808616602080840191825260055460ff908116858701908152600e80546001810182556000918252965160029097027fbb7b4a454dc3493923482f07822329ed19e8244eff582cc204f8554c3620c3fd81019790975593517fbb7b4a454dc3493923482f07822329ed19e8244eff582cc204f8554c3620c3fe90960180549151909216620100000262ffffff199091169590941694909417929092179092553382526014905290812080549293509061470b83615540565b9091555050600081815260116020526040902080546001600160a01b0319163317905592915050565b600080600654600754614747919061581c565b6147519042615808565b60065461475e9190615528565b600c8054919250600091908261477383615540565b909155506040805160608101825282815263ffffffff8086166020808401828152848601928352600f80546001810182556000918252955160029096027f8d1108e10bcb7c27dddfc02ed9d693a074039d026cf4ea4240b40f7d581ac80281019690965590517f8d1108e10bcb7c27dddfc02ed9d693a074039d026cf4ea4240b40f7d581ac8039095018054935185166401000000000267ffffffffffffffff199094169590941694909417919091179091553382526015905290812080549293509061483f83615540565b9091555050600081815260126020526040902080546001600160a01b0319163317905592915050565b6001600160a01b03831660009081526015602052604090205415158061489b57506000546001600160a01b038481169116145b6148e75760405162461bcd60e51b815260206004820152601760248201527f697420697320796f7572206c6173742063686173736973000000000000000000604482015260640161106f565b6001600160a01b038216600090815260156020526040812080549161490b83615540565b90915550506001600160a01b038316600090815260156020526040812080549161493483615449565b91905055506000614944846129f5565b905060005b81518110156149ad5782828281518110614965576149656153d6565b6020026020010151606001510361499b57600082828151811061498a5761498a6153d6565b602002602001015160600181815250505b806149a581615540565b915050614949565b5050600090815260126020908152604080832080546001600160a01b0319166001600160a01b039590951694909417909355601890529081205550565b60004290506000610e1060018481548110614a0757614a076153d6565b90600052602060002090600302016002015483614a24919061581c565b614a2e91906157b3565b9050600060018481548110614a4557614a456153d6565b6000918252602090912060039091020160010154614a6b90610100900460ff1683615460565b60018581548110614a7e57614a7e6153d6565b6000918252602090912060039091020160010154614aa5919062010000900460ff16615528565b9050614ade60018581548110614abd57614abd6153d6565b600091825260209091206001600390920201015460ff908116908316614c21565b60018581548110614af157614af16153d6565b906000526020600020906003020160010160026101000a81548160ff021916908360ff1602179055508260018581548110614b2e57614b2e6153d6565b90600052602060002090600302016002018190555050505050565b60008072184f03e93ff9f4daa797ed6e38ed64bf6a1f0160401b8310614b885772184f03e93ff9f4daa797ed6e38ed64bf6a1f0160401b830492506040015b6d04ee2d6d415b85acef81000000008310614bb4576d04ee2d6d415b85acef8100000000830492506020015b662386f26fc100008310614bd257662386f26fc10000830492506010015b6305f5e1008310614bea576305f5e100830492506008015b6127108310614bfe57612710830492506004015b60648310614c10576064830492506002015b600a831061138f5760010192915050565b6000818310614c30578161138c565b5090919050565b60405180610120016040528060608152602001600081526020016000815260200160008152602001600060ff168152602001600081526020016000815260200160008152602001600081525090565b828054614c9290615559565b90600052602060002090601f016020900481019282614cb45760008555614cfa565b82601f10614ccd57805160ff1916838001178555614cfa565b82800160010185558215614cfa579182015b82811115614cfa578251825591602001919060010190614cdf565b50614d06929150614d0a565b5090565b5b80821115614d065760008155600101614d0b565b600060208284031215614d3157600080fd5b5035919050565b803560ff81168114614d4957600080fd5b919050565b60008060408385031215614d6157600080fd5b82359150614d7160208401614d38565b90509250929050565b80356001600160a01b0381168114614d4957600080fd5b600080600060608486031215614da657600080fd5b614daf84614d7a565b9250614dbd60208501614d7a565b9150614dcb60408501614d7a565b90509250925092565b600060208284031215614de657600080fd5b61138c82614d7a565b602080825282518282018190526000919060409081850190868401855b82811015614e5157815180516001600160a01b031685528681015115158786015285810151868601526060908101519085015260809093019290850190600101614e0c565b5091979650505050505050565b602080825282518282018190526000919060409081850190868401855b82811015614e51578151805185528681015161ffff168786015285015160ff168585015260609093019290850190600101614e7b565b60008060408385031215614ec457600080fd5b50508035926020909101359150565b602080825282518282018190526000919060409081850190868401855b82811015614e51578151805185528681015163ffffffff9081168887015290860151168585015260609093019290850190600101614ef0565b60005b83811015614f44578181015183820152602001614f2c565b83811115614f53576000848401525b50505050565b60008151808452614f71816020860160208601614f29565b601f01601f19169290920160200192915050565b60006020808301818452808551808352604092508286019150828160051b87010184880160005b8381101561504157603f1989840301855281516101208151818652614fd382870182614f59565b9150508882015189860152878201518886015260608083015181870152506080808301516150058288018260ff169052565b505060a0828101519086015260c0808301519086015260e080830151908601526101009182015191909401529386019390860190600101614fac565b509098975050505050505050565b60008060006060848603121561506457600080fd5b61506d84614d7a565b925061507b60208501614d7a565b9150604084013590509250925092565b803563ffffffff81168114614d4957600080fd5b600080604083850312156150b257600080fd5b6150bb8361508b565b946020939093013593505050565b634e487b7160e01b600052604160045260246000fd5b604051601f8201601f1916810167ffffffffffffffff81118282101715615108576151086150c9565b604052919050565b6000806040838503121561512357600080fd5b8235915060208084013567ffffffffffffffff8082111561514357600080fd5b818601915086601f83011261515757600080fd5b813581811115615169576151696150c9565b8060051b915061517a8483016150df565b818152918301840191848101908984111561519457600080fd5b938501935b838510156151b257843582529385019390850190615199565b8096505050505050509250929050565b803561ffff81168114614d4957600080fd5b6000806000606084860312156151e957600080fd5b6151f2846151c2565b925061507b60208501614d38565b600082601f83011261521157600080fd5b813567ffffffffffffffff81111561522b5761522b6150c9565b61523e601f8201601f19166020016150df565b81815284602083860101111561525357600080fd5b816020850160208301376000918101602001919091529392505050565b60006020828403121561528257600080fd5b813567ffffffffffffffff81111561529957600080fd5b6130c384828501615200565b60006101208083526152b98184018d614f59565b602084019b909b5250506040810197909752606087019590955260ff93909316608086015260a085019190915260c084015260e083015261010090910152919050565b60008060008060008060c0878903121561531557600080fd5b863567ffffffffffffffff81111561532c57600080fd5b61533889828a01615200565b965050615347602088016151c2565b945061535560408801614d38565b93506153636060880161508b565b925061537160808801614d38565b915060a087013590509295509295509295565b6020808252601490820152730c6d0c2e6e6d2e640dcdee840f2deeae4407c74560631b604082015260600190565b6020808252600a90820152691ddc9bdb99c818dbdcdd60b21b604082015260600190565b634e487b7160e01b600052603260045260246000fd5b634e487b7160e01b600052601160045260246000fd5b600063ffffffff808316818516808303821115615421576154216153ec565b01949350505050565b600060ff821660ff8103615440576154406153ec565b60010192915050565b600081615458576154586153ec565b506000190190565b600081600019048311821515161561547a5761547a6153ec565b500290565b634e487b7160e01b600052601260045260246000fd5b600060ff8316806154a8576154a861547f565b8060ff84160491505092915050565b600060ff821660ff8416808210156154d1576154d16153ec565b90039392505050565b600060ff821660ff84168160ff04811182151516156154fb576154fb6153ec565b029392505050565b600063ffffffff83811690831681811015615520576155206153ec565b039392505050565b6000821982111561553b5761553b6153ec565b500190565b600060018201615552576155526153ec565b5060010190565b600181811c9082168061556d57607f821691505b60208210810361558d57634e487b7160e01b600052602260045260246000fd5b50919050565b600060ff821660ff84168060ff038211156155b0576155b06153ec565b019392505050565b6020808252600d908201526c696e76616c696420707269636560981b604082015260600190565b600060ff8216806155f2576155f26153ec565b6000190192915050565b6000604082018483526020604081850152818551808452606086019150828701935060005b8181101561563d57845183529383019391830191600101615621565b5090979650505050505050565b60006020828403121561565c57600080fd5b8151801515811461138c57600080fd5b600181815b808511156156a757816000190482111561568d5761568d6153ec565b8085161561569a57918102915b93841c9390800290615671565b509250929050565b6000826156be5750600161138f565b816156cb5750600061138f565b81600181146156e157600281146156eb57615707565b600191505061138f565b60ff8411156156fc576156fc6153ec565b50506001821b61138f565b5060208310610133831016604e8410600b841016171561572a575081810a61138f565b615734838361566c565b80600019048211156154fb576154fb6153ec565b600061138c83836156af565b60008351615766818460208801614f29565b835190830190615421818360208801614f29565b6000825161578c818460208701614f29565b9190910192915050565b600061ffff808316818516808303821115615421576154216153ec565b6000826157c2576157c261547f565b500490565b8381528260208201526060604082015260006157e66060830184614f59565b95945050505050565b60006020828403121561580157600080fd5b5051919050565b6000826158175761581761547f565b500690565b60008282101561582e5761582e6153ec565b50039056fea2646970667358221220dead4661255b94fc0ee207fef7918d572cdf1f18cef70652e96c7147b6da411264736f6c634300080d0033",
  "immutableReferences": {},
  "source": "// SPDX-License-Identifier: MIT\npragma solidity ^0.8.13;\n\nimport \"./CarRacing.sol\";\n\n/// @title token owner\ncontract TokenOwnership is CarRacing{\n\n\n\n    address chassisOwnership;\n    address engineOwnership;\n    address carOwnership;\n\n    function init(address _chassisOwnership, address _engineOwnership, address _carOwnership) public onlyOwner{\n        chassisOwnership = _chassisOwnership;\n        engineOwnership = _engineOwnership;\n        carOwnership = _carOwnership;\n    }\n\n    /// @notice number of user cars\n    /// @param _owner owner address\n    /// @return uint256 number of cars\n    function balanceOfCars(address _owner) external view returns (uint256) {\n        return ownerCarCount[_owner];\n    }\n\n    /// @notice car owner\n    /// @param _tokenId car id token\n    /// @return address owner adress\n    function ownerOfCar(uint256 _tokenId) external view returns(address) {\n        return carToOwner[_tokenId];\n    }\n\n    /// @notice car token transfer\n    /// @param _from sender's address\n    /// @param _to address of the recipient\n    /// @param _tokenId car id token\n    /// @dev the car is sold disassembled (without chassis and engine), chassis and engine remain with the sender\n    function _transferCar(address _from, address _to, uint256 _tokenId) private {\n        require(ownerCarCount[_from]>0 || _from==owner(), \"it is your last car\");\n\n        if(cars[_tokenId].chassisId != 0){\n            cars[_tokenId].chassisId = 0;\n        }\n        if(cars[_tokenId].engineId != 0){\n            cars[_tokenId].engineId = 0;\n        }\n        ownerCarCount[_to]++;// = ownerCarCount[_to].add(1);\n        ownerCarCount[_from]--;// = ownerCarCount[_from].sub(1);\n        carToOwner[_tokenId] = _to;\n        delete carToPrice[_tokenId];\n    }\n    \n    /// @notice moving car after payment\n    /// @param _from sender's address\n    /// @param _to address of the recipient\n    /// @param _tokenId token id\n    /// @dev call function for moving car after payment\n    function transferCarFrom(address _from, address _to, uint256 _tokenId) external {\n        require(msg.sender == carOwnership, \"you are not car ownership\");\n        require (carToOwner[_tokenId] == _from || carToPrice[_tokenId] != 0);\n        _transferCar(_from, _to, _tokenId);\n    }\n\n\n    /// @notice number of user engines\n    /// @param _owner owner address\n    /// @return uint256 number of owner engine\n    function balanceOfEngines(address _owner) external view returns (uint256) {\n        return ownerEngineCount[_owner];\n    }\n\n    /// @notice owner of engine\n    /// @param _tokenId token id\n    /// @return address owner address\n    function ownerOfEngine(uint256 _tokenId) external view returns(address) {\n        return engineToOwner[_tokenId];\n    }\n\n    /// @notice engine token transfer\n    /// @param _from sender's address\n    /// @param _to address of the recipient\n    /// @param _tokenId engine id token\n    function _transferEngine(address _from, address _to, uint256 _tokenId) private {\n        require(ownerEngineCount[_from]>0 || _from==owner(), \"it is your last engine\");\n\n        Car[] memory cars = getCarsByOwner(_from);\n        \n        for(uint i = 0; i<cars.length; i++){\n            if(cars[i].engineId == _tokenId){\n                cars[i].engineId = 0;\n            }\n        }\n        ownerEngineCount[_to]++;// = ownerEngineCount[_to].add(1);\n        ownerEngineCount[_from]--;// = ownerEngineCount[_from].sub(1);\n        engineToOwner[_tokenId] = _to;\n        \n        delete engineToPrice[_tokenId];\n    }\n\n    /// @notice moving engine from sender\n    /// @param _from sender's address\n    /// @param _to address of the recipient\n    /// @param _tokenId engine id token\n    /// @dev call function for moving engine from sender after payment\n    function transferEngineFrom(address _from, address _to, uint256 _tokenId) external {\n        require(msg.sender == engineOwnership, \"you are not engine ownership\");\n        require (engineToOwner[_tokenId] == _from);\n        _transferEngine(_from, _to, _tokenId);\n    }\n    \n\n    /// @notice number of user chassis\n    /// @param _owner owner address\n    /// @return uint256 number of owner chassis\n    function balanceOfChassis(address _owner) external view returns (uint256) {\n        return ownerChassisCount[_owner];\n    }\n\n    /// @notice chassis owner\n    /// @param _tokenId chassis id token\n    /// @return address owner adress\n    function ownerOfChassis(uint256 _tokenId) external view returns(address) {\n        return chassisToOwner[_tokenId];\n    }\n\n    /// @notice transfer chassis\n    /// @param _from sender's address\n    /// @param _to address of the recipient\n    /// @param _tokenId chassis id token\n    /// @dev add chassis to recipient\n    function _transferChassis(address _from, address _to, uint256 _tokenId) private {\n        require(ownerChassisCount[_from]>0 || _from==owner(), \"it is your last chassis\");\n\n        ownerChassisCount[_to]++;// = ownerChassisCount[_to].add(1);\n        ownerChassisCount[_from]--;// = ownerChassisCount[_from].sub(1);\n        Car[] memory cars = getCarsByOwner(_from);\n        for(uint i = 0; i<cars.length; i++){\n            if(cars[i].chassisId == _tokenId){\n                cars[i].chassisId = 0;\n            }\n        }\n        chassisToOwner[_tokenId] = _to;\n\n        delete chassisToPrice[_tokenId];\n    }\n\n    /// @notice moving chassis after payment\n    /// @param _from sender's address\n    /// @param _to address of the recipient\n    /// @param _tokenId token id\n    /// @dev call function for moving chassis after payment\n    function transferChassisFrom(address _from, address _to, uint256 _tokenId) external {\n        require(msg.sender == chassisOwnership, \"you are not chassis ownership\");\n        require (chassisToOwner[_tokenId] == _from);\n        _transferChassis(_from, _to, _tokenId);\n    }\n\n\n    /// @notice selling chassis from owner on marketplace\n    /// @param chassisId chassis id\n    /// @param price chassis cost\n    /// @dev using only for owner chassis\n    function putChassisOnMarketplace(uint chassisId, uint price) public onlyOwnerOfChassis(chassisId){\n        require(price>0, \"invalid price\");\n        if(chassisToPrice[chassisId]==0){\n            chassisForSaleCount++;\n        }\n        chassisToPrice[chassisId] = price;\n    }\n\n    /// @notice withdraw chassis from marketplace\n    /// @param chassisId chassis id\n    /// @dev using only for owner chassis\n    function removeChassisFromMarketplace(uint chassisId) public onlyOwnerOfChassis(chassisId){\n        if(chassisToPrice[chassisId]!=0){\n            chassisForSaleCount--;\n        }\n        chassisToPrice[chassisId] = 0;\n    }\n\n    /// @notice selling engine from owner on marketplace\n    /// @param engineId engine id\n    /// @param price engine cost\n    /// @dev using only for owner engine\n    function putEngineOnMarketplace(uint engineId, uint price) public onlyOwnerOfEngine(engineId){\n        require(price>0, \"invalid price\");\n        if(engineToPrice[engineId]==0){\n            enginesForSaleCount++;\n        }\n        engineToPrice[engineId] = price;\n    }\n\n    /// @notice withdraw engine from marketplace\n    /// @param engineId engine id\n    /// @dev using only for owner engine\n    function removeEngineFromMarketplace(uint engineId) public onlyOwnerOfEngine(engineId){\n        if(engineToPrice[engineId]!=0){\n            enginesForSaleCount--;\n        }\n        engineToPrice[engineId] = 0;\n    }\n\n    /// @notice selling car from owner on marketplace\n    /// @param carId car id\n    /// @param price car cost\n    /// @dev using only for owner car\n    function putCarOnMarketplace(uint carId, uint price) public onlyOwnerOfCar(carId){\n        require(price>0, \"invalid price\");\n        if(carToPrice[carId]==0){\n            carsForSaleCount++;\n        }\n        carToPrice[carId] = price;\n    }\n\n    /// @notice withdraw car from marketplace\n    /// @param carId car id\n    /// @dev using only for owner car\n    function removeCarFromMarketplace(uint carId) public onlyOwnerOfCar(carId){\n        if(carToPrice[carId]!=0){\n            carsForSaleCount--;\n        }\n        carToPrice[carId] = 0;\n    }\n\n\n    function getCarsForSale() public view returns(Car[] memory){\n        Car[] memory res = new Car[](carsForSaleCount);\n        uint c = 0;\n        for(uint i = 0; i<cars.length; i++){\n            if(carToPrice[i]!=0){\n                res[c++] = cars[i];\n            }\n        }\n        return res;\n    }\n\n    function getEnginesForSale() public view returns(Engine[] memory){\n        Engine[] memory res = new Engine[](enginesForSaleCount);\n        uint c = 0;\n        for(uint i = 1; i<engines.length; i++){\n            if(engineToPrice[i]!=0){\n                res[c++] = engines[i];\n            }\n        }\n        return res;\n    }\n\n    function getChassisForSale() public view returns(Chassis[] memory){\n        Chassis[] memory res = new Chassis[](chassisForSaleCount);\n        uint c = 0;\n        for(uint i = 1; i<chassis.length; i++){\n            if(chassisToPrice[i]!=0){\n                res[c++] = chassis[i];\n            }\n        }\n        return res;\n    }\n\n}",
  "sourcePath": "/Users/vvan/Programming/JavaScript/DriveSafely/contract/contracts/TokenOwnership.sol",
  "compiler": {
    "name": "solc",
    "version": "0.8.13+commit.abaa5c0e.Emscripten.clang"
  },
  "schemaVersion": "3.4.11",
  "updatedAt": "2023-01-12T15:01:18.206Z",
  "networkType": "ethereum",
  "devdoc": {
    "kind": "dev",
    "methods": {
      "balanceOfCars(address)": {
        "params": {
          "_owner": "owner address"
        },
        "returns": {
          "_0": "uint256 number of cars"
        }
      },
      "balanceOfChassis(address)": {
        "params": {
          "_owner": "owner address"
        },
        "returns": {
          "_0": "uint256 number of owner chassis"
        }
      },
      "balanceOfEngines(address)": {
        "params": {
          "_owner": "owner address"
        },
        "returns": {
          "_0": "uint256 number of owner engine"
        }
      },
      "commitAnswer(uint256,uint256[])": {
        "params": {
          "answer": "?",
          "roomId": "room id"
        }
      },
      "createCar(string)": {
        "details": "creating new car for user",
        "params": {
          "model": "car model"
        }
      },
      "createCustomCar(string,uint16,uint8,uint32,uint8,uint256)": {
        "details": "creation car for customer with different characteristics",
        "params": {
          "_carLevel": "car level",
          "_carPrice": "car price",
          "_consumtion": "car consumtion",
          "_durability": "car durability",
          "_horsePowers": "car horse powers",
          "_model": "car model"
        }
      },
      "createCustomChassis(uint32,uint256)": {
        "params": {
          "_chassisPrice": "chassis price",
          "_durability": "car durability"
        },
        "returns": {
          "_0": "id new chassis"
        }
      },
      "createCustomEngine(uint16,uint8,uint256)": {
        "params": {
          "_consumtion": "car consumtion",
          "_enginePrice": "car engine price",
          "_horsePowers": "car horse powers"
        },
        "returns": {
          "_0": "id new engine"
        }
      },
      "detachChassis(uint256,uint256)": {
        "details": "for installation new chassis",
        "params": {
          "carId": "car id",
          "chassisId": "chassis id"
        }
      },
      "detachEngine(uint256,uint256)": {
        "details": "for installation new engine",
        "params": {
          "carId": "car id",
          "engineId": "engine id"
        }
      },
      "findRoom(uint256)": {
        "details": "if exist appropriate room for current user, user start competition in this room, else add new room",
        "params": {
          "carId": "car id"
        }
      },
      "getCarsByOwner(address)": {
        "params": {
          "_owner": "owner's address"
        },
        "returns": {
          "_0": "Car[] memory owner's list of cars"
        }
      },
      "getChassisByOwner(address)": {
        "params": {
          "_owner": "owner's address"
        },
        "returns": {
          "_0": "Chassis[] memory owner's list of engines"
        }
      },
      "getClosedRoom(uint256)": {
        "details": "called after receiving the event about sending the last response to the room",
        "params": {
          "roomId": "room id"
        },
        "returns": {
          "_0": "Answer[] memory list with player response, player, player car and response time"
        }
      },
      "getEnginesByOwner(address)": {
        "params": {
          "_owner": "owner's address"
        },
        "returns": {
          "_0": "Engine[] memory owner's list of engines"
        }
      },
      "getFuelStationByOwner(address)": {
        "details": "exist only one",
        "params": {
          "_owner": "owner's address"
        },
        "returns": {
          "_0": "FuelStation memory one owner fuel station"
        }
      },
      "levelUp(uint256)": {
        "params": {
          "_carId": "car id"
        }
      },
      "owner()": {
        "details": "Returns the address of the current owner."
      },
      "ownerOfCar(uint256)": {
        "params": {
          "_tokenId": "car id token"
        },
        "returns": {
          "_0": "address owner adress"
        }
      },
      "ownerOfChassis(uint256)": {
        "params": {
          "_tokenId": "chassis id token"
        },
        "returns": {
          "_0": "address owner adress"
        }
      },
      "ownerOfEngine(uint256)": {
        "params": {
          "_tokenId": "token id"
        },
        "returns": {
          "_0": "address owner address"
        }
      },
      "putCarOnMarketplace(uint256,uint256)": {
        "details": "using only for owner car",
        "params": {
          "carId": "car id",
          "price": "car cost"
        }
      },
      "putChassisOnMarketplace(uint256,uint256)": {
        "details": "using only for owner chassis",
        "params": {
          "chassisId": "chassis id",
          "price": "chassis cost"
        }
      },
      "putEngineOnMarketplace(uint256,uint256)": {
        "details": "using only for owner engine",
        "params": {
          "engineId": "engine id",
          "price": "engine cost"
        }
      },
      "removeCarFromMarketplace(uint256)": {
        "details": "using only for owner car",
        "params": {
          "carId": "car id"
        }
      },
      "removeChassisFromMarketplace(uint256)": {
        "details": "using only for owner chassis",
        "params": {
          "chassisId": "chassis id"
        }
      },
      "removeEngineFromMarketplace(uint256)": {
        "details": "using only for owner engine",
        "params": {
          "engineId": "engine id"
        }
      },
      "renounceOwnership()": {
        "details": "Leaves the contract without owner. It will not be possible to call `onlyOwner` functions anymore. Can only be called by the current owner. NOTE: Renouncing ownership will leave the contract without an owner, thereby removing any functionality that is only available to the owner."
      },
      "startRace(uint256)": {
        "params": {
          "_carId": "car id"
        }
      },
      "switchChassis(uint256,uint256)": {
        "params": {
          "carId": "car id",
          "chassisId": "chassis id"
        }
      },
      "switchEngine(uint256,uint256)": {
        "params": {
          "carId": "car id",
          "engineId": "engine id"
        }
      },
      "transferCarFrom(address,address,uint256)": {
        "details": "call function for moving car after payment",
        "params": {
          "_from": "sender's address",
          "_to": "address of the recipient",
          "_tokenId": "token id"
        }
      },
      "transferChassisFrom(address,address,uint256)": {
        "details": "call function for moving chassis after payment",
        "params": {
          "_from": "sender's address",
          "_to": "address of the recipient",
          "_tokenId": "token id"
        }
      },
      "transferEngineFrom(address,address,uint256)": {
        "details": "call function for moving engine from sender after payment",
        "params": {
          "_from": "sender's address",
          "_to": "address of the recipient",
          "_tokenId": "engine id token"
        }
      },
      "transferOwnership(address)": {
        "details": "Transfers ownership of the contract to a new account (`newOwner`). Can only be called by the current owner."
      },
      "upgradeCapacity(uint256,uint8)": {
        "params": {
          "_counts": "size",
          "_fuelStatonId": "fuel station id"
        }
      },
      "upgradeConsumtion(uint256)": {
        "params": {
          "_engineId": "engine id"
        }
      },
      "upgradeDurability(uint256,uint8)": {
        "params": {
          "_chassisId": "chassis id",
          "_counts": "size"
        }
      },
      "upgradeHorsePowers(uint256,uint8)": {
        "params": {
          "_counts": "size",
          "_engineId": "engine id"
        }
      },
      "upgradeProductionPerHour(uint256,uint8)": {
        "params": {
          "_counts": "size",
          "_fuelStatonId": "fuel station id"
        }
      }
    },
    "title": "token owner",
    "version": 1
  },
  "userdoc": {
    "kind": "user",
    "methods": {
      "balanceOfCars(address)": {
        "notice": "number of user cars"
      },
      "balanceOfChassis(address)": {
        "notice": "number of user chassis"
      },
      "balanceOfEngines(address)": {
        "notice": "number of user engines"
      },
      "commitAnswer(uint256,uint256[])": {
        "notice": "commit ans"
      },
      "createCar(string)": {
        "notice": "creating car"
      },
      "createCustomCar(string,uint16,uint8,uint32,uint8,uint256)": {
        "notice": "customer car creation    (    )"
      },
      "createCustomChassis(uint32,uint256)": {
        "notice": "customer chassis creation"
      },
      "createCustomEngine(uint16,uint8,uint256)": {
        "notice": "customer engine creation"
      },
      "detachChassis(uint256,uint256)": {
        "notice": "removal of the old chassis"
      },
      "detachEngine(uint256,uint256)": {
        "notice": "removal of the old engine"
      },
      "findRoom(uint256)": {
        "notice": "search room for competition"
      },
      "getCarsByOwner(address)": {
        "notice": "list of owner cars"
      },
      "getChassisByOwner(address)": {
        "notice": "list of owner chassis"
      },
      "getClosedRoom(uint256)": {
        "notice": "get closed room"
      },
      "getEnginesByOwner(address)": {
        "notice": "list of owner engines"
      },
      "getFuelStationByOwner(address)": {
        "notice": "fuel station of owner"
      },
      "levelUp(uint256)": {
        "notice": "upgrade car level"
      },
      "ownerOfCar(uint256)": {
        "notice": "car owner"
      },
      "ownerOfChassis(uint256)": {
        "notice": "chassis owner"
      },
      "ownerOfEngine(uint256)": {
        "notice": "owner of engine"
      },
      "putCarOnMarketplace(uint256,uint256)": {
        "notice": "selling car from owner on marketplace"
      },
      "putChassisOnMarketplace(uint256,uint256)": {
        "notice": "selling chassis from owner on marketplace"
      },
      "putEngineOnMarketplace(uint256,uint256)": {
        "notice": "selling engine from owner on marketplace"
      },
      "removeCarFromMarketplace(uint256)": {
        "notice": "withdraw car from marketplace"
      },
      "removeChassisFromMarketplace(uint256)": {
        "notice": "withdraw chassis from marketplace"
      },
      "removeEngineFromMarketplace(uint256)": {
        "notice": "withdraw engine from marketplace"
      },
      "startRace(uint256)": {
        "notice": "start race"
      },
      "switchChassis(uint256,uint256)": {
        "notice": "changing chassis in owner's car"
      },
      "switchEngine(uint256,uint256)": {
        "notice": "changing engine in owner's car"
      },
      "transferCarFrom(address,address,uint256)": {
        "notice": "moving car after payment"
      },
      "transferChassisFrom(address,address,uint256)": {
        "notice": "moving chassis after payment"
      },
      "transferEngineFrom(address,address,uint256)": {
        "notice": "moving engine from sender"
      },
      "upgradeCapacity(uint256,uint8)": {
        "notice": "upgrade capacity of fuel station"
      },
      "upgradeConsumtion(uint256)": {
        "notice": "upgrade consumption"
      },
      "upgradeDurability(uint256,uint8)": {
        "notice": "upgrade durability"
      },
      "upgradeHorsePowers(uint256,uint8)": {
        "notice": "upgrade horse powers"
      },
      "upgradeProductionPerHour(uint256,uint8)": {
        "notice": "upgrade production on per hour"
      }
    },
    "version": 1
  }
}