{
  "contractName": "TokenOwnership",
  "abi": [
    {
      "anonymous": false,
      "inputs": [
        {
          "indexed": true,
          "internalType": "address",
          "name": "previousOwner",
          "type": "address"
        },
        {
          "indexed": true,
          "internalType": "address",
          "name": "newOwner",
          "type": "address"
        }
      ],
      "name": "OwnershipTransferred",
      "type": "event"
    },
    {
      "anonymous": false,
      "inputs": [
        {
          "indexed": false,
          "internalType": "uint256",
          "name": "roomId",
          "type": "uint256"
        }
      ],
      "name": "RoomClosed",
      "type": "event"
    },
    {
      "anonymous": false,
      "inputs": [
        {
          "indexed": false,
          "internalType": "uint256",
          "name": "roomId",
          "type": "uint256"
        },
        {
          "indexed": false,
          "internalType": "uint256",
          "name": "roomDNA",
          "type": "uint256"
        }
      ],
      "name": "RoomFull",
      "type": "event"
    },
    {
      "inputs": [
        {
          "internalType": "uint256",
          "name": "",
          "type": "uint256"
        }
      ],
      "name": "carToOwner",
      "outputs": [
        {
          "internalType": "address",
          "name": "",
          "type": "address"
        }
      ],
      "stateMutability": "view",
      "type": "function",
      "constant": true
    },
    {
      "inputs": [
        {
          "internalType": "uint256",
          "name": "",
          "type": "uint256"
        }
      ],
      "name": "cars",
      "outputs": [
        {
          "internalType": "string",
          "name": "model",
          "type": "string"
        },
        {
          "internalType": "uint256",
          "name": "vin",
          "type": "uint256"
        },
        {
          "internalType": "uint256",
          "name": "engineId",
          "type": "uint256"
        },
        {
          "internalType": "uint256",
          "name": "chassisId",
          "type": "uint256"
        },
        {
          "internalType": "uint8",
          "name": "carLevel",
          "type": "uint8"
        },
        {
          "internalType": "uint256",
          "name": "mileage",
          "type": "uint256"
        },
        {
          "internalType": "uint256",
          "name": "winCountOnCurrentLevel",
          "type": "uint256"
        },
        {
          "internalType": "uint256",
          "name": "lossCountOnCurrentLevel",
          "type": "uint256"
        },
        {
          "internalType": "uint256",
          "name": "id",
          "type": "uint256"
        }
      ],
      "stateMutability": "view",
      "type": "function",
      "constant": true
    },
    {
      "inputs": [
        {
          "internalType": "uint256",
          "name": "",
          "type": "uint256"
        }
      ],
      "name": "chassis",
      "outputs": [
        {
          "internalType": "uint256",
          "name": "id",
          "type": "uint256"
        },
        {
          "internalType": "uint32",
          "name": "durability",
          "type": "uint32"
        },
        {
          "internalType": "uint32",
          "name": "resource",
          "type": "uint32"
        }
      ],
      "stateMutability": "view",
      "type": "function",
      "constant": true
    },
    {
      "inputs": [
        {
          "internalType": "uint256",
          "name": "",
          "type": "uint256"
        }
      ],
      "name": "chassisToOwner",
      "outputs": [
        {
          "internalType": "address",
          "name": "",
          "type": "address"
        }
      ],
      "stateMutability": "view",
      "type": "function",
      "constant": true
    },
    {
      "inputs": [
        {
          "internalType": "uint256",
          "name": "roomId",
          "type": "uint256"
        },
        {
          "internalType": "uint256[]",
          "name": "answer",
          "type": "uint256[]"
        }
      ],
      "name": "commitAnswer",
      "outputs": [],
      "stateMutability": "nonpayable",
      "type": "function"
    },
    {
      "inputs": [
        {
          "internalType": "string",
          "name": "model",
          "type": "string"
        }
      ],
      "name": "createCar",
      "outputs": [],
      "stateMutability": "nonpayable",
      "type": "function"
    },
    {
      "inputs": [],
      "name": "createFuelStation",
      "outputs": [],
      "stateMutability": "nonpayable",
      "type": "function"
    },
    {
      "inputs": [
        {
          "internalType": "uint256",
          "name": "carId",
          "type": "uint256"
        },
        {
          "internalType": "uint256",
          "name": "chassisId",
          "type": "uint256"
        }
      ],
      "name": "detachChassis",
      "outputs": [],
      "stateMutability": "nonpayable",
      "type": "function"
    },
    {
      "inputs": [
        {
          "internalType": "uint256",
          "name": "carId",
          "type": "uint256"
        },
        {
          "internalType": "uint256",
          "name": "engineId",
          "type": "uint256"
        }
      ],
      "name": "detachEngine",
      "outputs": [],
      "stateMutability": "nonpayable",
      "type": "function"
    },
    {
      "inputs": [
        {
          "internalType": "uint256",
          "name": "",
          "type": "uint256"
        }
      ],
      "name": "engineToOwner",
      "outputs": [
        {
          "internalType": "address",
          "name": "",
          "type": "address"
        }
      ],
      "stateMutability": "view",
      "type": "function",
      "constant": true
    },
    {
      "inputs": [
        {
          "internalType": "uint256",
          "name": "",
          "type": "uint256"
        }
      ],
      "name": "engines",
      "outputs": [
        {
          "internalType": "uint256",
          "name": "id",
          "type": "uint256"
        },
        {
          "internalType": "uint16",
          "name": "horsePowers",
          "type": "uint16"
        },
        {
          "internalType": "uint8",
          "name": "consumtion",
          "type": "uint8"
        }
      ],
      "stateMutability": "view",
      "type": "function",
      "constant": true
    },
    {
      "inputs": [
        {
          "internalType": "uint256",
          "name": "carId",
          "type": "uint256"
        }
      ],
      "name": "findRoom",
      "outputs": [],
      "stateMutability": "nonpayable",
      "type": "function"
    },
    {
      "inputs": [
        {
          "internalType": "uint256",
          "name": "",
          "type": "uint256"
        }
      ],
      "name": "fuelStationToOwner",
      "outputs": [
        {
          "internalType": "address",
          "name": "",
          "type": "address"
        }
      ],
      "stateMutability": "view",
      "type": "function",
      "constant": true
    },
    {
      "inputs": [
        {
          "internalType": "address",
          "name": "_owner",
          "type": "address"
        }
      ],
      "name": "getCarsByOwner",
      "outputs": [
        {
          "components": [
            {
              "internalType": "string",
              "name": "model",
              "type": "string"
            },
            {
              "internalType": "uint256",
              "name": "vin",
              "type": "uint256"
            },
            {
              "internalType": "uint256",
              "name": "engineId",
              "type": "uint256"
            },
            {
              "internalType": "uint256",
              "name": "chassisId",
              "type": "uint256"
            },
            {
              "internalType": "uint8",
              "name": "carLevel",
              "type": "uint8"
            },
            {
              "internalType": "uint256",
              "name": "mileage",
              "type": "uint256"
            },
            {
              "internalType": "uint256",
              "name": "winCountOnCurrentLevel",
              "type": "uint256"
            },
            {
              "internalType": "uint256",
              "name": "lossCountOnCurrentLevel",
              "type": "uint256"
            },
            {
              "internalType": "uint256",
              "name": "id",
              "type": "uint256"
            }
          ],
          "internalType": "struct CarFactory.Car[]",
          "name": "",
          "type": "tuple[]"
        }
      ],
      "stateMutability": "view",
      "type": "function",
      "constant": true
    },
    {
      "inputs": [
        {
          "internalType": "address",
          "name": "_owner",
          "type": "address"
        }
      ],
      "name": "getChassisByOwner",
      "outputs": [
        {
          "components": [
            {
              "internalType": "uint256",
              "name": "id",
              "type": "uint256"
            },
            {
              "internalType": "uint32",
              "name": "durability",
              "type": "uint32"
            },
            {
              "internalType": "uint32",
              "name": "resource",
              "type": "uint32"
            }
          ],
          "internalType": "struct CarFactory.Chassis[]",
          "name": "",
          "type": "tuple[]"
        }
      ],
      "stateMutability": "view",
      "type": "function",
      "constant": true
    },
    {
      "inputs": [
        {
          "internalType": "uint256",
          "name": "roomId",
          "type": "uint256"
        }
      ],
      "name": "getClosedRoom",
      "outputs": [
        {
          "components": [
            {
              "internalType": "address",
              "name": "player",
              "type": "address"
            },
            {
              "internalType": "bool",
              "name": "correct",
              "type": "bool"
            },
            {
              "internalType": "uint256",
              "name": "time",
              "type": "uint256"
            },
            {
              "internalType": "uint256",
              "name": "carId",
              "type": "uint256"
            }
          ],
          "internalType": "struct RaceHandler.Answer[]",
          "name": "",
          "type": "tuple[]"
        }
      ],
      "stateMutability": "view",
      "type": "function",
      "constant": true
    },
    {
      "inputs": [
        {
          "internalType": "address",
          "name": "_owner",
          "type": "address"
        }
      ],
      "name": "getEnginesByOwner",
      "outputs": [
        {
          "components": [
            {
              "internalType": "uint256",
              "name": "id",
              "type": "uint256"
            },
            {
              "internalType": "uint16",
              "name": "horsePowers",
              "type": "uint16"
            },
            {
              "internalType": "uint8",
              "name": "consumtion",
              "type": "uint8"
            }
          ],
          "internalType": "struct CarFactory.Engine[]",
          "name": "",
          "type": "tuple[]"
        }
      ],
      "stateMutability": "view",
      "type": "function",
      "constant": true
    },
    {
      "inputs": [
        {
          "internalType": "address",
          "name": "_owner",
          "type": "address"
        }
      ],
      "name": "getFuelStationByOwner",
      "outputs": [
        {
          "components": [
            {
              "internalType": "uint256",
              "name": "id",
              "type": "uint256"
            },
            {
              "internalType": "uint8",
              "name": "capacity",
              "type": "uint8"
            },
            {
              "internalType": "uint8",
              "name": "productionPerHour",
              "type": "uint8"
            },
            {
              "internalType": "uint8",
              "name": "currentFullness",
              "type": "uint8"
            },
            {
              "internalType": "uint256",
              "name": "lastUpdate",
              "type": "uint256"
            }
          ],
          "internalType": "struct FuelStationFactory.FuelStation",
          "name": "",
          "type": "tuple"
        }
      ],
      "stateMutability": "view",
      "type": "function",
      "constant": true
    },
    {
      "inputs": [
        {
          "internalType": "uint256",
          "name": "",
          "type": "uint256"
        }
      ],
      "name": "idToStartedRooms",
      "outputs": [
        {
          "internalType": "uint256",
          "name": "numberPlayers",
          "type": "uint256"
        },
        {
          "internalType": "uint256",
          "name": "world",
          "type": "uint256"
        },
        {
          "internalType": "uint256",
          "name": "roomDNA",
          "type": "uint256"
        },
        {
          "internalType": "uint256",
          "name": "startTime",
          "type": "uint256"
        },
        {
          "internalType": "uint256",
          "name": "curAnswer",
          "type": "uint256"
        },
        {
          "internalType": "bool",
          "name": "closed",
          "type": "bool"
        }
      ],
      "stateMutability": "view",
      "type": "function",
      "constant": true
    },
    {
      "inputs": [
        {
          "internalType": "uint256",
          "name": "_carId",
          "type": "uint256"
        }
      ],
      "name": "levelUp",
      "outputs": [],
      "stateMutability": "payable",
      "type": "function",
      "payable": true
    },
    {
      "inputs": [
        {
          "internalType": "uint256",
          "name": "",
          "type": "uint256"
        }
      ],
      "name": "openedRooms",
      "outputs": [
        {
          "internalType": "uint256",
          "name": "id",
          "type": "uint256"
        },
        {
          "internalType": "uint256",
          "name": "playersEntered",
          "type": "uint256"
        },
        {
          "internalType": "uint256",
          "name": "world",
          "type": "uint256"
        },
        {
          "components": [
            {
              "internalType": "uint256",
              "name": "playersNeeded",
              "type": "uint256"
            },
            {
              "internalType": "uint256",
              "name": "roadsNum",
              "type": "uint256"
            },
            {
              "internalType": "uint256",
              "name": "crossId",
              "type": "uint256"
            }
          ],
          "internalType": "struct RaceHandler.Cross",
          "name": "cross",
          "type": "tuple"
        }
      ],
      "stateMutability": "view",
      "type": "function",
      "constant": true
    },
    {
      "inputs": [],
      "name": "owner",
      "outputs": [
        {
          "internalType": "address",
          "name": "",
          "type": "address"
        }
      ],
      "stateMutability": "view",
      "type": "function",
      "constant": true
    },
    {
      "inputs": [
        {
          "internalType": "address",
          "name": "",
          "type": "address"
        }
      ],
      "name": "ownerCarCount",
      "outputs": [
        {
          "internalType": "uint256",
          "name": "",
          "type": "uint256"
        }
      ],
      "stateMutability": "view",
      "type": "function",
      "constant": true
    },
    {
      "inputs": [],
      "name": "renounceOwnership",
      "outputs": [],
      "stateMutability": "nonpayable",
      "type": "function"
    },
    {
      "inputs": [
        {
          "internalType": "uint256",
          "name": "_carId",
          "type": "uint256"
        }
      ],
      "name": "startRace",
      "outputs": [],
      "stateMutability": "nonpayable",
      "type": "function"
    },
    {
      "inputs": [
        {
          "internalType": "uint256",
          "name": "",
          "type": "uint256"
        }
      ],
      "name": "stations",
      "outputs": [
        {
          "internalType": "uint256",
          "name": "id",
          "type": "uint256"
        },
        {
          "internalType": "uint8",
          "name": "capacity",
          "type": "uint8"
        },
        {
          "internalType": "uint8",
          "name": "productionPerHour",
          "type": "uint8"
        },
        {
          "internalType": "uint8",
          "name": "currentFullness",
          "type": "uint8"
        },
        {
          "internalType": "uint256",
          "name": "lastUpdate",
          "type": "uint256"
        }
      ],
      "stateMutability": "view",
      "type": "function",
      "constant": true
    },
    {
      "inputs": [
        {
          "internalType": "uint256",
          "name": "carId",
          "type": "uint256"
        },
        {
          "internalType": "uint256",
          "name": "chassisId",
          "type": "uint256"
        }
      ],
      "name": "switchChassis",
      "outputs": [],
      "stateMutability": "nonpayable",
      "type": "function"
    },
    {
      "inputs": [
        {
          "internalType": "uint256",
          "name": "carId",
          "type": "uint256"
        },
        {
          "internalType": "uint256",
          "name": "engineId",
          "type": "uint256"
        }
      ],
      "name": "switchEngine",
      "outputs": [],
      "stateMutability": "nonpayable",
      "type": "function"
    },
    {
      "inputs": [
        {
          "internalType": "address",
          "name": "newOwner",
          "type": "address"
        }
      ],
      "name": "transferOwnership",
      "outputs": [],
      "stateMutability": "nonpayable",
      "type": "function"
    },
    {
      "inputs": [
        {
          "internalType": "uint256",
          "name": "_fuelStatonId",
          "type": "uint256"
        },
        {
          "internalType": "uint8",
          "name": "_counts",
          "type": "uint8"
        }
      ],
      "name": "upgradeCapacity",
      "outputs": [],
      "stateMutability": "payable",
      "type": "function",
      "payable": true
    },
    {
      "inputs": [
        {
          "internalType": "uint256",
          "name": "_engineId",
          "type": "uint256"
        },
        {
          "internalType": "uint8",
          "name": "_counts",
          "type": "uint8"
        }
      ],
      "name": "upgradeConsumtion",
      "outputs": [],
      "stateMutability": "payable",
      "type": "function",
      "payable": true
    },
    {
      "inputs": [
        {
          "internalType": "uint256",
          "name": "_chassisId",
          "type": "uint256"
        },
        {
          "internalType": "uint8",
          "name": "_counts",
          "type": "uint8"
        }
      ],
      "name": "upgradeDurability",
      "outputs": [],
      "stateMutability": "payable",
      "type": "function",
      "payable": true
    },
    {
      "inputs": [
        {
          "internalType": "uint256",
          "name": "_engineId",
          "type": "uint256"
        },
        {
          "internalType": "uint8",
          "name": "_counts",
          "type": "uint8"
        }
      ],
      "name": "upgradeHorsePowers",
      "outputs": [],
      "stateMutability": "payable",
      "type": "function",
      "payable": true
    },
    {
      "inputs": [
        {
          "internalType": "uint256",
          "name": "_fuelStatonId",
          "type": "uint256"
        },
        {
          "internalType": "uint8",
          "name": "_counts",
          "type": "uint8"
        }
      ],
      "name": "upgradeProductionPerHour",
      "outputs": [],
      "stateMutability": "payable",
      "type": "function",
      "payable": true
    },
    {
      "inputs": [
        {
          "internalType": "address",
          "name": "_owner",
          "type": "address"
        }
      ],
      "name": "balanceOfCars",
      "outputs": [
        {
          "internalType": "uint256",
          "name": "",
          "type": "uint256"
        }
      ],
      "stateMutability": "view",
      "type": "function",
      "constant": true
    },
    {
      "inputs": [
        {
          "internalType": "uint256",
          "name": "_tokenId",
          "type": "uint256"
        }
      ],
      "name": "ownerOfCar",
      "outputs": [
        {
          "internalType": "address",
          "name": "",
          "type": "address"
        }
      ],
      "stateMutability": "view",
      "type": "function",
      "constant": true
    },
    {
      "inputs": [
        {
          "internalType": "address",
          "name": "_from",
          "type": "address"
        },
        {
          "internalType": "address",
          "name": "_to",
          "type": "address"
        },
        {
          "internalType": "uint256",
          "name": "_tokenId",
          "type": "uint256"
        }
      ],
      "name": "transferCarFrom",
      "outputs": [],
      "stateMutability": "payable",
      "type": "function",
      "payable": true
    },
    {
      "inputs": [
        {
          "internalType": "address",
          "name": "_approved",
          "type": "address"
        },
        {
          "internalType": "uint256",
          "name": "_tokenId",
          "type": "uint256"
        }
      ],
      "name": "approveCar",
      "outputs": [],
      "stateMutability": "payable",
      "type": "function",
      "payable": true
    },
    {
      "inputs": [
        {
          "internalType": "address",
          "name": "_owner",
          "type": "address"
        }
      ],
      "name": "balanceOfEngines",
      "outputs": [
        {
          "internalType": "uint256",
          "name": "",
          "type": "uint256"
        }
      ],
      "stateMutability": "view",
      "type": "function",
      "constant": true
    },
    {
      "inputs": [
        {
          "internalType": "uint256",
          "name": "_tokenId",
          "type": "uint256"
        }
      ],
      "name": "ownerOfEngine",
      "outputs": [
        {
          "internalType": "address",
          "name": "",
          "type": "address"
        }
      ],
      "stateMutability": "view",
      "type": "function",
      "constant": true
    },
    {
      "inputs": [
        {
          "internalType": "address",
          "name": "_from",
          "type": "address"
        },
        {
          "internalType": "address",
          "name": "_to",
          "type": "address"
        },
        {
          "internalType": "uint256",
          "name": "_tokenId",
          "type": "uint256"
        }
      ],
      "name": "transferEngineFrom",
      "outputs": [],
      "stateMutability": "payable",
      "type": "function",
      "payable": true
    },
    {
      "inputs": [
        {
          "internalType": "address",
          "name": "_approved",
          "type": "address"
        },
        {
          "internalType": "uint256",
          "name": "_tokenId",
          "type": "uint256"
        }
      ],
      "name": "approveEngine",
      "outputs": [],
      "stateMutability": "payable",
      "type": "function",
      "payable": true
    },
    {
      "inputs": [
        {
          "internalType": "address",
          "name": "_owner",
          "type": "address"
        }
      ],
      "name": "balanceOfChassis",
      "outputs": [
        {
          "internalType": "uint256",
          "name": "",
          "type": "uint256"
        }
      ],
      "stateMutability": "view",
      "type": "function",
      "constant": true
    },
    {
      "inputs": [
        {
          "internalType": "uint256",
          "name": "_tokenId",
          "type": "uint256"
        }
      ],
      "name": "ownerOfChassis",
      "outputs": [
        {
          "internalType": "address",
          "name": "",
          "type": "address"
        }
      ],
      "stateMutability": "view",
      "type": "function",
      "constant": true
    },
    {
      "inputs": [
        {
          "internalType": "address",
          "name": "_from",
          "type": "address"
        },
        {
          "internalType": "address",
          "name": "_to",
          "type": "address"
        },
        {
          "internalType": "uint256",
          "name": "_tokenId",
          "type": "uint256"
        }
      ],
      "name": "transferChassisFrom",
      "outputs": [],
      "stateMutability": "payable",
      "type": "function",
      "payable": true
    },
    {
      "inputs": [
        {
          "internalType": "address",
          "name": "_approved",
          "type": "address"
        },
        {
          "internalType": "uint256",
          "name": "_tokenId",
          "type": "uint256"
        }
      ],
      "name": "approveChassis",
      "outputs": [],
      "stateMutability": "payable",
      "type": "function",
      "payable": true
    }
  ],
  "bytecode": "0x60806040526000805461ffff60a01b191661014f60a21b179055600160088190556009556509184e72a00060135565b5e620f48000601455650da475abf0006015556611c37937e080006016556305f5e10060175566038d7ea4c680006018553480156200006c57600080fd5b5062000078336200024b565b60506003908155605b60049081556005805460ff1916600a179055620186a06006556201d4c1600755600b80546001908101909155600c80548201905560408051606080820183528482526020828101868152600084860181815260198054808a0182558184529651968b027f944998273e477b495144fb8794c914197f3ccb46be2900f4698fd0ef743c96958181019890985593517f944998273e477b495144fb8794c914197f3ccb46be2900f4698fd0ef743c96968086019190915591517f944998273e477b495144fb8794c914197f3ccb46be2900f4698fd0ef743c969794850155875180870189528b81528086018b8152818a018581528354808d0185558487529251928e02808b019390935590518285015551908501558751808701895260028082528187019b8c52818a018581528354808d0185558487529251928e02808b01939093559b51828501559a5190850155875180870189528b81528086018c8152818a018b81528354808d0185558487529251928e02808b019390935590518285015551908501558751958601885298855292840189815295840187815288548089018a559890915292519690970292830195909555915193810193909355519190920155601c556200029b565b600080546001600160a01b038381166001600160a01b0319831681178455604051919092169283917f8be0079c531659141344cd1fd0a4f28419497f9722a3daafe3b4186f6b6457e09190a35050565b613fcc80620002ab6000396000f3fe60806040526004361061027d5760003560e01c80637713d5211161014f578063b72c0eea116100c1578063ede6fbf51161007a578063ede6fbf514610aa7578063f2fde38b14610ac7578063f66911b114610ae7578063f7746e3614610afa578063faf4bb9814610b2f578063fb2d954f14610b4257600080fd5b8063b72c0eea146109b9578063c34cccc4146109fa578063c75bb4f414610a1a578063c85b7fed14610a47578063d1c54eea14610a67578063ea12693314610a8757600080fd5b80638b579973116101135780638b579973146108e55780638da5cb5b146108f8578063906f5f341461091657806392f859db14610929578063b3b29afd14610979578063b44a4e93146109a657600080fd5b80637713d521146108495780637c62360f146108765780637ec5c75c14610889578063859092671461089c57806387d6b9b2146108af57600080fd5b80632cb03a3a116101f3578063594193d7116101ac578063594193d7146107455780635c426aff1461077b5780635dcc4cc6146107b15780636b606d9b146107e75780636f206fc114610807578063715018a61461083457600080fd5b80632cb03a3a146105d557806333ca504b1461060b5780633521c426146106415780633dfd6f541461066e57806344901490146106a45780634e31f910146106da57600080fd5b80630e0f7049116102455780630e0f7049146103d55780631c5dde0e146103e85780631e85ab9b1461042a578063224370f01461043d57806324d822bf14610571578063254dc0651461059157600080fd5b806302b677451461028257806303f2e05b146102d55780630418394e146102ea578063081315ff1461036c5780630ce90ec2146103c2575b600080fd5b34801561028e57600080fd5b506102b861029d366004613624565b6000908152600d60205260409020546001600160a01b031690565b6040516001600160a01b0390911681526020015b60405180910390f35b6102e86102e336600461363d565b610b62565b005b3480156102f657600080fd5b5061033d610305366004613624565b601e60205260009081526040902080546001820154600283015460038401546005850154600690950154939492939192909160ff1686565b6040805196875260208701959095529385019290925260608401526080830152151560a082015260c0016102cc565b34801561037857600080fd5b5061038c610387366004613624565b610c41565b604080519485526020808601949094528481019290925280516060850152918201516080840152015160a082015260c0016102cc565b6102e86103d0366004613624565b610c9f565b6102e86103e336600461368f565b610dfa565b3480156103f457600080fd5b50610408610403366004613624565b610e4d565b6040805193845263ffffffff92831660208501529116908201526060016102cc565b6102e861043836600461368f565b610e8d565b34801561044957600080fd5b506102e8600180546040805160a0810182528281526000805460ff600160a01b820481166020808601828152600160a81b90940483168688019081526060870192835263ffffffff421660808801908152898b018b559986529551600389027fb10e2d527612073b26eecdfd717e6a320cf44b4afac2b0732d9fcbe2b7fa0cf681019190915593517fb10e2d527612073b26eecdfd717e6a320cf44b4afac2b0732d9fcbe2b7fa0cf785018054975193518516620100000262ff0000199486166101000261ffff19909916929095169190911796909617919091169190911790935594517fb10e2d527612073b26eecdfd717e6a320cf44b4afac2b0732d9fcbe2b7fa0cf8909501949094559183526002909152902080546001600160a01b03191633179055565b34801561057d57600080fd5b506102e861058c366004613624565b610ee1565b34801561059d57600080fd5b506105c76105ac3660046136b9565b6001600160a01b031660009081526012602052604090205490565b6040519081526020016102cc565b3480156105e157600080fd5b506105c76105f03660046136b9565b6001600160a01b031660009081526010602052604090205490565b34801561061757600080fd5b506102b8610626366004613624565b600d602052600090815260409020546001600160a01b031681565b34801561064d57600080fd5b5061066161065c366004613624565b611098565b6040516102cc91906136d4565b34801561067a57600080fd5b506102b8610689366004613624565b6000908152600e60205260409020546001600160a01b031690565b3480156106b057600080fd5b506102b86106bf366004613624565b600f602052600090815260409020546001600160a01b031681565b3480156106e657600080fd5b506106fa6106f53660046136b9565b61118f565b6040516102cc9190600060a0820190508251825260ff602084015116602083015260ff604084015116604083015260ff60608401511660608301526080830151608083015292915050565b34801561075157600080fd5b506102b8610760366004613624565b6002602052600090815260409020546001600160a01b031681565b34801561078757600080fd5b506102b8610796366004613624565b6000908152600f60205260409020546001600160a01b031690565b3480156107bd57600080fd5b506102b86107cc366004613624565b600e602052600090815260409020546001600160a01b031681565b3480156107f357600080fd5b506102e8610802366004613743565b611276565b34801561081357600080fd5b506108276108223660046136b9565b61135c565b6040516102cc9190613765565b34801561084057600080fd5b506102e86114b0565b34801561085557600080fd5b506108696108643660046136b9565b6114c4565b6040516102cc91906137bb565b6102e861088436600461363d565b61160c565b6102e861089736600461380e565b6116ec565b6102e86108aa36600461363d565b611743565b3480156108bb57600080fd5b506105c76108ca3660046136b9565b6001600160a01b031660009081526011602052604090205490565b6102e86108f336600461380e565b6117fc565b34801561090457600080fd5b506000546001600160a01b03166102b8565b6102e861092436600461363d565b61184d565b34801561093557600080fd5b50610949610944366004613624565b6118fa565b6040805195865260ff9485166020870152928416928501929092529091166060830152608082015260a0016102cc565b34801561098557600080fd5b506105c76109943660046136b9565b60106020526000908152604090205481565b6102e86109b436600461368f565b611946565b3480156109c557600080fd5b506109d96109d4366004613624565b61199a565b6040805193845261ffff909216602084015260ff16908201526060016102cc565b348015610a0657600080fd5b506102e8610a15366004613743565b6119d7565b348015610a2657600080fd5b50610a3a610a353660046136b9565b611ab1565b6040516102cc91906138a6565b348015610a5357600080fd5b506102e8610a623660046139b7565b611cef565b348015610a7357600080fd5b506102e8610a82366004613743565b611eec565b348015610a9357600080fd5b506102e8610aa2366004613743565b611fb7565b348015610ab357600080fd5b506102e8610ac2366004613a69565b612077565b348015610ad357600080fd5b506102e8610ae23660046136b9565b612245565b6102e8610af536600461380e565b6122be565b348015610b0657600080fd5b50610b1a610b15366004613624565b612310565b6040516102cc99989796959493929190613afe565b6102e8610b3d36600461363d565b6123fd565b348015610b4e57600080fd5b506102e8610b5d366004613624565b6124d2565b6000828152600f602052604090205482906001600160a01b03163314610b8757600080fd5b601754600c8481548110610b9d57610b9d613b55565b6000918252602090912060016002909202010154610bc49063ffffffff1660ff8516613b81565b63ffffffff16610bd49190613bad565b3414610bdf57600080fd5b8160ff16600c8481548110610bf657610bf6613b55565b6000918252602082206001600290920201018054909190610c1e90849063ffffffff16613bcc565b92506101000a81548163ffffffff021916908363ffffffff160217905550505050565b601d8181548110610c5157600080fd5b60009182526020918290206006909102018054600182015460028301546040805160608101825260038601548152600486015496810196909652600590940154938501939093529093509184565b600a808281548110610cb357610cb3613b55565b6000918252602090912060046009909202010154610cd4919060ff16613c0a565b60ff16601854610ce49190613bad565b34148015610d4d5750600a8181548110610d0057610d00613b55565b6000918252602090912060046009909202010154610d229060ff166001613c2c565b60ff16600a8281548110610d3857610d38613b55565b90600052602060002090600902016006015410155b610d5657600080fd5b600a8181548110610d6957610d69613b55565b600091825260208220600460099092020101805460ff1691610d8a83613c51565b91906101000a81548160ff021916908360ff160217905550506000600a8281548110610db857610db8613b55565b9060005260206000209060090201600601819055506000600a8281548110610de257610de2613b55565b90600052602060002090600902016007018190555050565b6000818152600e602052604090205481906001600160a01b03163314610e1f57600080fd5b506000908152602080526040902080546001600160a01b0319166001600160a01b0392909216919091179055565b600c8181548110610e5d57600080fd5b60009182526020909120600290910201805460019091015490915063ffffffff8082169164010000000090041683565b6000818152600f602052604090205481906001600160a01b03163314610eb257600080fd5b50600090815260216020526040902080546001600160a01b0319166001600160a01b0392909216919091179055565b6000818152600d602052604090205481906001600160a01b03163314610f0657600080fd5b6000600a808481548110610f1c57610f1c613b55565b6000918252602090912060046009909202010154610f3d919060ff16613c0a565b610f4890600a613c70565b610f53906002613c93565b9050610f5f83826129e4565b8015610fc657508060ff16600c600a8581548110610f7f57610f7f613b55565b90600052602060002090600902016003015481548110610fa157610fa1613b55565b6000918252602090912060029091020160010154640100000000900463ffffffff1610155b610fcf57600080fd5b8060ff16600c600a8581548110610fe857610fe8613b55565b9060005260206000209060090201600301548154811061100a5761100a613b55565b906000526020600020906002020160010160048282829054906101000a900463ffffffff166110399190613cbc565b92506101000a81548163ffffffff021916908363ffffffff1602179055508060ff16600a848154811061106e5761106e613b55565b9060005260206000209060090201600501600082825461108e9190613ce1565b9091555050505050565b6000818152601e602052604090206006015460609060ff166110f35760405162461bcd60e51b815260206004820152600f60248201526e1c9bdbdb481b9bdd0818db1bdcd959608a1b60448201526064015b60405180910390fd5b6000828152601e6020908152604080832060040180548251818502810185019093528083529193909284015b82821015611184576000848152602090819020604080516080810182526003860290920180546001600160a01b0381168452600160a01b900460ff1615158385015260018082015492840192909252600201546060830152908352909201910161111f565b505050509050919050565b6040805160a081018252600080825260208201819052918101829052606081018290526080810182905290805b600154811015611201576000818152600260205260409020546001600160a01b038086169116036111ef57809150611201565b806111f981613cf9565b9150506111bc565b506001818154811061121557611215613b55565b60009182526020918290206040805160a081018252600390930290910180548352600181015460ff80821695850195909552610100810485169284019290925262010000909104909216606082015260029091015460808201529392505050565b6000818152600f602052604090205481906001600160a01b0316331461129b57600080fd5b6000838152600d602052604090205483906001600160a01b031633146112c057600080fd5b82600a85815481106112d4576112d4613b55565b9060005260206000209060090201600301541461132c5760405162461bcd60e51b8152602060048201526016602482015275195b99da5b99481a5cc81b9bdd08185d1d1858da195960521b60448201526064016110ea565b6000600a858154811061134157611341613b55565b90600052602060002090600902016003018190555050505050565b6001600160a01b0381166000908152601160205260408120546060919067ffffffffffffffff81111561139157611391613970565b6040519080825280602002602001820160405280156113dc57816020015b60408051606081018252600080825260208083018290529282015282526000199092019101816113af5790505b5090506000805b600c548110156114a7576000818152600f60205260409020546001600160a01b0380871691160361149557600c818154811061142157611421613b55565b6000918252602091829020604080516060810182526002909302909101805483526001015463ffffffff80821694840194909452640100000000900490921691810191909152835184908490811061147b5761147b613b55565b6020026020010181905250818061149190613cf9565b9250505b8061149f81613cf9565b9150506113e3565b50909392505050565b6114b8612b88565b6114c26000612be2565b565b6001600160a01b0381166000908152601160205260408120546060919067ffffffffffffffff8111156114f9576114f9613970565b60405190808252806020026020018201604052801561154457816020015b60408051606081018252600080825260208083018290529282015282526000199092019101816115175790505b5090506000805b600b548110156114a7576000818152600e60205260409020546001600160a01b038087169116036115fa57600b818154811061158957611589613b55565b600091825260209182902060408051606081018252600293909302909101805483526001015461ffff8116938301939093526201000090920460ff169181019190915283518490849081106115e0576115e0613b55565b602002602001018190525081806115f690613cf9565b9250505b8061160481613cf9565b91505061154b565b6000828152600e602052604090205482906001600160a01b0316331461163157600080fd5b600b838154811061164457611644613b55565b600091825260209091206002909102016001015461166c9062010000900460ff16600a613c70565b611677906002613dee565b6016546116849190613bad565b341461168f57600080fd5b81600b84815481106116a3576116a3613b55565b906000526020600020906002020160010160028282829054906101000a900460ff166116cf9190613c70565b92506101000a81548160ff021916908360ff160217905550505050565b6000818152600d60205260409020546001600160a01b038481169116148061172a57506000818152601f60205260409020546001600160a01b031633145b61173357600080fd5b61173e838383612c32565b505050565b60008281526002602052604090205482906001600160a01b0316331461176857600080fd5b6014546001848154811061177e5761177e613b55565b60009182526020909120600390910201600101546117a490610100900460ff1684613c93565b60ff166117b19190613bad565b34146117bc57600080fd5b81600184815481106117d0576117d0613b55565b906000526020600020906003020160010160018282829054906101000a900460ff166116cf9190613c2c565b6000818152600e60205260409020546001600160a01b0384811691161480611839575060008181526020805260409020546001600160a01b031633145b61184257600080fd5b61173e838383612de5565b60008281526002602052604090205482906001600160a01b0316331461187257600080fd5b6013546001848154811061188857611888613b55565b60009182526020909120600160039092020101546118a99060ff1684613c93565b60ff166118b69190613bad565b34146118c157600080fd5b81600184815481106118d5576118d5613b55565b60009182526020822060016003909202010180549091906116cf90849060ff16613c2c565b6001818154811061190a57600080fd5b600091825260209091206003909102018054600182015460029092015490925060ff808316926101008104821692620100009091049091169085565b6000818152600d602052604090205481906001600160a01b0316331461196b57600080fd5b506000908152601f6020526040902080546001600160a01b0319166001600160a01b0392909216919091179055565b600b81815481106119aa57600080fd5b60009182526020909120600290910201805460019091015490915061ffff81169062010000900460ff1683565b6000818152600e602052604090205481906001600160a01b031633146119fc57600080fd5b6000838152600d602052604090205483906001600160a01b03163314611a2157600080fd5b82600a8581548110611a3557611a35613b55565b90600052602060002090600902016002015403611a825760405162461bcd60e51b815260206004820152600b60248201526a73616d6520656e67696e6560a81b60448201526064016110ea565b82600a8581548110611a9657611a96613b55565b90600052602060002090600902016002018190555050505050565b6001600160a01b0381166000908152601060205260408120546060919067ffffffffffffffff811115611ae657611ae6613970565b604051908082528060200260200182016040528015611b6957816020015b611b5660405180610120016040528060608152602001600081526020016000815260200160008152602001600060ff168152602001600081526020016000815260200160008152602001600081525090565b815260200190600190039081611b045790505b5090506000805b600a548110156114a7576000818152600d60205260409020546001600160a01b03808716911603611cdd57600a8181548110611bae57611bae613b55565b906000526020600020906009020160405180610120016040529081600082018054611bd890613dfd565b80601f0160208091040260200160405190810160405280929190818152602001828054611c0490613dfd565b8015611c515780601f10611c2657610100808354040283529160200191611c51565b820191906000526020600020905b815481529060010190602001808311611c3457829003601f168201915b5050509183525050600182015460208201526002820154604082015260038201546060820152600482015460ff166080820152600582015460a0820152600682015460c0820152600782015460e0820152600890910154610100909101528351849084908110611cc357611cc3613b55565b60200260200101819052508180611cd990613cf9565b9250505b80611ce781613cf9565b915050611b70565b336000908152601a60205260409020548214611d3d5760405162461bcd60e51b815260206004820152600d60248201526c6e6f7420796f757220726f6f6d60981b60448201526064016110ea565b6000828152601e6020526040808220600201549051634e31f59760e11b815290919073__PDDLib________________________________90639c63eb2e90611d8b9085908790600401613e37565b602060405180830381865af4158015611da8573d6000803e3d6000fd5b505050506040513d601f19601f82011682018060405250810190611dcc9190613e85565b60408051608081018252338082528315156020808401918252428486019081526000938452601b825285842054606086019081528b8552601e8352958420600481018054600181810183558288529487208851600390920201805496511515600160a01b026001600160a81b03199097166001600160a01b03929092169190911795909517855591519284019290925594516002909201919091559088905280549254939450909290919003611ee4576040518681527f67acaceb58ff1ad2aa8b3069f69c4cd076824e06a09184b75fb197ead7040be79060200160405180910390a16000868152601e60209081526040808320600601805460ff19166001179055338352601a8252808320839055601b9091528120555b505050505050565b6000818152600e602052604090205481906001600160a01b03163314611f1157600080fd5b6000838152600d602052604090205483906001600160a01b03163314611f3657600080fd5b82600a8581548110611f4a57611f4a613b55565b90600052602060002090600902016002015414611fa25760405162461bcd60e51b8152602060048201526016602482015275195b99da5b99481a5cc81b9bdd08185d1d1858da195960521b60448201526064016110ea565b6000600a8581548110611a9657611a96613b55565b6000818152600f602052604090205481906001600160a01b03163314611fdc57600080fd5b6000838152600d602052604090205483906001600160a01b0316331461200157600080fd5b82600a858154811061201557612015613b55565b906000526020600020906009020160030154036120635760405162461bcd60e51b815260206004820152600c60248201526b73616d65206368617373697360a01b60448201526064016110ea565b82600a858154811061134157611341613b55565b336000908152601060205260409020541561209157600080fd5b60008161209d42612f4a565b6040516020016120ae929190613ea7565b60405160208183030381529060405290506000816040516020016120d29190613ecd565b6040516020818303038152906040528051906020012060001c905060006120f7612fdd565b90506000612103613111565b600a80546040805161012081018252898152602080820189905291810187905260608101859052600160808201819052600060a0830181905260c0830181905260e083018190526101008301859052908401855593909352825180519495509193600985027fc65a7bb8d6351c1cf70c95a316cc6a92839c986682d98bc35f958f4883f9d2a8019261219992849291019061358b565b506020828101516001830155604080840151600284015560608401516003840155608084015160048401805460ff191660ff90921691909117905560a0840151600584015560c0840151600684015560e08401516007840155610100909301516008909201919091556000838152600d82528281208054336001600160a01b031990911681179091558152601090915290812080549161223883613cf9565b9190505550505050505050565b61224d612b88565b6001600160a01b0381166122b25760405162461bcd60e51b815260206004820152602660248201527f4f776e61626c653a206e6577206f776e657220697320746865207a65726f206160448201526564647265737360d01b60648201526084016110ea565b6122bb81612be2565b50565b6000818152600f60205260409020546001600160a01b03848116911614806122fc57506000818152602160205260409020546001600160a01b031633145b61230557600080fd5b61173e838383613245565b600a818154811061232057600080fd5b906000526020600020906009020160009150905080600001805461234390613dfd565b80601f016020809104026020016040519081016040528092919081815260200182805461236f90613dfd565b80156123bc5780601f10612391576101008083540402835291602001916123bc565b820191906000526020600020905b81548152906001019060200180831161239f57829003601f168201915b50505060018401546002850154600386015460048701546005880154600689015460078a01546008909a01549899959894975092955060ff90911693909289565b6000828152600e602052604090205482906001600160a01b0316331461242257600080fd5b601554600b848154811061243857612438613b55565b600091825260209091206001600290920201015461245d9061ffff1660ff8516613ee9565b61ffff1661246b9190613bad565b341461247657600080fd5b8160ff16600b848154811061248d5761248d613b55565b60009182526020822060016002909202010180549091906124b390849061ffff16613f0a565b92506101000a81548161ffff021916908361ffff160217905550505050565b6000818152600d602052604090205481906001600160a01b031633146124f757600080fd5b6000805b601d5481101561288157601d818154811061251857612518613b55565b906000526020600020906006020160020154600a80868154811061253e5761253e613b55565b600091825260209091206004600990920201015461255f919060ff16613c0a565b61256a906001613c2c565b60ff160361286f5760019150601d818154811061258957612589613b55565b60009182526020808320600690920290910154338352601a8252604080842091909155601b9091529020849055601d8054829081106125ca576125ca613b55565b6000918252602082206001600690920201018054916125e883613cf9565b9190505550601d818154811061260057612600613b55565b906000526020600020906006020160030160000154601d828154811061262857612628613b55565b9060005260206000209060060201600101540361286f57600073__PDDLib________________________________63c037e545601d848154811061266e5761266e613b55565b906000526020600020906006020160030160020154601d858154811061269657612696613b55565b9060005260206000209060060201600301600001546040518363ffffffff1660e01b81526004016126d1929190918252602082015260400190565b602060405180830381865af41580156126ee573d6000803e3d6000fd5b505050506040513d601f19601f820116820180604052508101906127129190613f27565b90506000601e6000601d858154811061272d5761272d613b55565b90600052602060002090600602016000015481526020019081526020016000209050601d838154811061276257612762613b55565b60009182526020909120600360069092020101548155601d80548490811061278c5761278c613b55565b6000918252602082206006918202016002908101546001850155830184905542600384015560058301919091558101805460ff19169055601d80547f2838ebeee7dc83fac85a3d6dbca0c0b6771591ada8b00f97371aa6611e631f9c9190859081106127fa576127fa613b55565b600091825260209182902060069091020154604080519182529181018590520160405180910390a1601d838154811061283557612835613b55565b6000918252602082206006909102018181556001810182905560028101829055600381018290556004810182905560050155506128819050565b8061287981613cf9565b9150506124fb565b50801561288d57505050565b601c80546000918261289e83613cf9565b909155506019549091506000906128b59042613f40565b905081601a6000336001600160a01b03166001600160a01b0316815260200190815260200160002081905550601d604051806080016040528084815260200160018152602001600a80898154811061290f5761290f613b55565b6000918252602090912060046009909202010154612930919060ff16613c0a565b61293b906001613c2c565b60ff1681526020016019848154811061295657612956613b55565b60009182526020808320604080516060808201835260039586029093018054825260018082015483870152600291820154838501529190975288548082018a5598865294839020875160069099020197885586830151948801949094558584015194870194909455939092015180519285019290925591810151600484015501516005909101555050505050565b6000828152600d60205260408120548190612a07906001600160a01b031661118f565b9050612a16816000015161333c565b6000600a8581548110612a2b57612a2b613b55565b9060005260206000209060090201600201549050600060019050600a85600b8481548110612a5b57612a5b613b55565b906000526020600020906002020160010160029054906101000a900460ff16612a849190613c93565b60ff1610612ad557600a600b8381548110612aa157612aa1613b55565b6000918252602090912060029091020160010154612ac89062010000900460ff1687613c93565b612ad29190613c0a565b90505b8060ff166001846000015181548110612af057612af0613b55565b600091825260209091206003909102016001015462010000900460ff1610612b7a57806001846000015181548110612b2a57612b2a613b55565b906000526020600020906003020160010160028282829054906101000a900460ff16612b569190613c70565b92506101000a81548160ff021916908360ff16021790555060019350505050612b82565b600093505050505b92915050565b6000546001600160a01b031633146114c25760405162461bcd60e51b815260206004820181905260248201527f4f776e61626c653a2063616c6c6572206973206e6f7420746865206f776e657260448201526064016110ea565b600080546001600160a01b038381166001600160a01b0319831681178455604051919092169283917f8be0079c531659141344cd1fd0a4f28419497f9722a3daafe3b4186f6b6457e09190a35050565b600a8181548110612c4557612c45613b55565b906000526020600020906009020160020154600014612c9d5760405162461bcd60e51b8152602060048201526014602482015273656e67696e65206d75737420626520656d70747960601b60448201526064016110ea565b600a8181548110612cb057612cb0613b55565b906000526020600020906009020160030154600014612d095760405162461bcd60e51b815260206004820152601560248201527463686173736973206d75737420626520656d70747960581b60448201526064016110ea565b6001600160a01b038316600090815260106020526040902054612d645760405162461bcd60e51b815260206004820152601360248201527234ba1034b9903cb7bab9103630b9ba1031b0b960691b60448201526064016110ea565b6001600160a01b0382166000908152601060205260408120805491612d8883613cf9565b90915550506001600160a01b0383166000908152601060205260408120805491612db183613f54565b90915550506000908152600d6020526040902080546001600160a01b0319166001600160a01b039290921691909117905550565b6000612df084611ab1565b905060008082511115612ec75760005b8251811015612e845783838281518110612e1c57612e1c613b55565b60200260200101516040015103612e7257612e72838281518110612e4257612e42613b55565b60200260200101516101000151848381518110612e6157612e61613b55565b602002602001015160400151611eec565b80612e7c81613cf9565b915050612e00565b508015612ec75760405162461bcd60e51b8152602060048201526011602482015270195b99da5b99481b9bdd08195c985cd959607a1b60448201526064016110ea565b6001600160a01b0384166000908152601160205260408120805491612eeb83613cf9565b90915550506001600160a01b0385166000908152601160205260408120805491612f1483613f54565b909155505050600091825250600e6020526040902080546001600160a01b0319166001600160a01b039290921691909117905550565b60606000612f578361349b565b600101905060008167ffffffffffffffff811115612f7757612f77613970565b6040519080825280601f01601f191660200182016040528015612fa1576020820181803683370190505b5090508181016020015b600019016f181899199a1a9b1b9c1cb0b131b232b360811b600a86061a8153600a8504945084612fab57509392505050565b600080600354600454612ff09190613f6b565b612ffa9042613f40565b6003546130079190613ce1565b60088054919250600091908261301c83613cf9565b909155506040805160608101825282815261ffff808616602080840191825260055460ff908116858701908152600b80546001810182556000918252965160029097027f0175b7a638427703f0dbe7bb9bbf987a2551717b34e79f33b5b1008d1fa01db981019790975593517f0175b7a638427703f0dbe7bb9bbf987a2551717b34e79f33b5b1008d1fa01dba90960180549151909216620100000262ffffff19909116959094169490941792909217909255338252601190529081208054929350906130e883613cf9565b90915550506000818152600e6020526040902080546001600160a01b0319163317905592915050565b6000806006546007546131249190613f6b565b61312e9042613f40565b60065461313b9190613ce1565b60098054919250600091908261315083613cf9565b909155506040805160608101825282815263ffffffff8086166020808401828152848601928352600c80546001810182556000918252955160029096027fdf6966c971051c3d54ec59162606531493a51404a002842f56009d7e5cf4a8c781019690965590517fdf6966c971051c3d54ec59162606531493a51404a002842f56009d7e5cf4a8c89095018054935185166401000000000267ffffffffffffffff199094169590941694909417919091179091553382526012905290812080549293509061321c83613cf9565b90915550506000818152600f6020526040902080546001600160a01b0319163317905592915050565b6001600160a01b038216600090815260126020526040812080549161326983613cf9565b90915550506001600160a01b038316600090815260126020526040812080549161329283613f54565b919050555060006132a284611ab1565b905060005b815181101561330b57828282815181106132c3576132c3613b55565b602002602001015160600151036132f95760008282815181106132e8576132e8613b55565b602002602001015160600181815250505b8061330381613cf9565b9150506132a7565b50506000908152600f6020526040902080546001600160a01b0319166001600160a01b039290921691909117905550565b60004290506000610e106001848154811061335957613359613b55565b906000526020600020906003020160020154836133769190613f6b565b6133809190613f82565b905060006001848154811061339757613397613b55565b60009182526020909120600390910201600101546133bd90610100900460ff1683613bad565b600185815481106133d0576133d0613b55565b60009182526020909120600390910201600101546133f7919062010000900460ff16613ce1565b90506134306001858154811061340f5761340f613b55565b600091825260209091206001600390920201015460ff908116908316613573565b6001858154811061344357613443613b55565b906000526020600020906003020160010160026101000a81548160ff021916908360ff160217905550826001858154811061348057613480613b55565b90600052602060002090600302016002018190555050505050565b60008072184f03e93ff9f4daa797ed6e38ed64bf6a1f0160401b83106134da5772184f03e93ff9f4daa797ed6e38ed64bf6a1f0160401b830492506040015b6d04ee2d6d415b85acef81000000008310613506576d04ee2d6d415b85acef8100000000830492506020015b662386f26fc10000831061352457662386f26fc10000830492506010015b6305f5e100831061353c576305f5e100830492506008015b612710831061355057612710830492506004015b60648310613562576064830492506002015b600a8310612b825760010192915050565b60008183106135825781613584565b825b9392505050565b82805461359790613dfd565b90600052602060002090601f0160209004810192826135b957600085556135ff565b82601f106135d257805160ff19168380011785556135ff565b828001600101855582156135ff579182015b828111156135ff5782518255916020019190600101906135e4565b5061360b92915061360f565b5090565b5b8082111561360b5760008155600101613610565b60006020828403121561363657600080fd5b5035919050565b6000806040838503121561365057600080fd5b82359150602083013560ff8116811461366857600080fd5b809150509250929050565b80356001600160a01b038116811461368a57600080fd5b919050565b600080604083850312156136a257600080fd5b6136ab83613673565b946020939093013593505050565b6000602082840312156136cb57600080fd5b61358482613673565b602080825282518282018190526000919060409081850190868401855b8281101561373657815180516001600160a01b0316855286810151151587860152858101518686015260609081015190850152608090930192908501906001016136f1565b5091979650505050505050565b6000806040838503121561375657600080fd5b50508035926020909101359150565b602080825282518282018190526000919060409081850190868401855b82811015613736578151805185528681015163ffffffff9081168887015290860151168585015260609093019290850190600101613782565b602080825282518282018190526000919060409081850190868401855b82811015613736578151805185528681015161ffff168786015285015160ff1685850152606090930192908501906001016137d8565b60008060006060848603121561382357600080fd5b61382c84613673565b925061383a60208501613673565b9150604084013590509250925092565b60005b8381101561386557818101518382015260200161384d565b83811115613874576000848401525b50505050565b6000815180845261389281602086016020860161384a565b601f01601f19169290920160200192915050565b60006020808301818452808551808352604092508286019150828160051b87010184880160005b8381101561396257603f19898403018552815161012081518186526138f48287018261387a565b9150508882015189860152878201518886015260608083015181870152506080808301516139268288018260ff169052565b505060a0828101519086015260c0808301519086015260e0808301519086015261010091820151919094015293860193908601906001016138cd565b509098975050505050505050565b634e487b7160e01b600052604160045260246000fd5b604051601f8201601f1916810167ffffffffffffffff811182821017156139af576139af613970565b604052919050565b600080604083850312156139ca57600080fd5b8235915060208084013567ffffffffffffffff808211156139ea57600080fd5b818601915086601f8301126139fe57600080fd5b813581811115613a1057613a10613970565b8060051b9150613a21848301613986565b8181529183018401918481019089841115613a3b57600080fd5b938501935b83851015613a5957843582529385019390850190613a40565b8096505050505050509250929050565b60006020808385031215613a7c57600080fd5b823567ffffffffffffffff80821115613a9457600080fd5b818501915085601f830112613aa857600080fd5b813581811115613aba57613aba613970565b613acc601f8201601f19168501613986565b91508082528684828501011115613ae257600080fd5b8084840185840137600090820190930192909252509392505050565b6000610120808352613b128184018d61387a565b602084019b909b5250506040810197909752606087019590955260ff93909316608086015260a085019190915260c084015260e083015261010090910152919050565b634e487b7160e01b600052603260045260246000fd5b634e487b7160e01b600052601160045260246000fd5b600063ffffffff80831681851681830481118215151615613ba457613ba4613b6b565b02949350505050565b6000816000190483118215151615613bc757613bc7613b6b565b500290565b600063ffffffff808316818516808303821115613beb57613beb613b6b565b01949350505050565b634e487b7160e01b600052601260045260246000fd5b600060ff831680613c1d57613c1d613bf4565b8060ff84160491505092915050565b600060ff821660ff84168060ff03821115613c4957613c49613b6b565b019392505050565b600060ff821660ff8103613c6757613c67613b6b565b60010192915050565b600060ff821660ff841680821015613c8a57613c8a613b6b565b90039392505050565b600060ff821660ff84168160ff0481118215151615613cb457613cb4613b6b565b029392505050565b600063ffffffff83811690831681811015613cd957613cd9613b6b565b039392505050565b60008219821115613cf457613cf4613b6b565b500190565b600060018201613d0b57613d0b613b6b565b5060010190565b600181815b80851115613d4d578160001904821115613d3357613d33613b6b565b80851615613d4057918102915b93841c9390800290613d17565b509250929050565b600082613d6457506001612b82565b81613d7157506000612b82565b8160018114613d875760028114613d9157613dad565b6001915050612b82565b60ff841115613da257613da2613b6b565b50506001821b612b82565b5060208310610133831016604e8410600b8410161715613dd0575081810a612b82565b613dda8383613d12565b8060001904821115613cb457613cb4613b6b565b600061358460ff841683613d55565b600181811c90821680613e1157607f821691505b602082108103613e3157634e487b7160e01b600052602260045260246000fd5b50919050565b6000604082018483526020604081850152818551808452606086019150828701935060005b81811015613e7857845183529383019391830191600101613e5c565b5090979650505050505050565b600060208284031215613e9757600080fd5b8151801515811461358457600080fd5b60008351613eb981846020880161384a565b835190830190613beb81836020880161384a565b60008251613edf81846020870161384a565b9190910192915050565b600061ffff80831681851681830481118215151615613ba457613ba4613b6b565b600061ffff808316818516808303821115613beb57613beb613b6b565b600060208284031215613f3957600080fd5b5051919050565b600082613f4f57613f4f613bf4565b500690565b600081613f6357613f63613b6b565b506000190190565b600082821015613f7d57613f7d613b6b565b500390565b600082613f9157613f91613bf4565b50049056fea2646970667358221220d0b9e0bc3c87e78a8d952c13c594ce0c2bcf5ca7d4449ceedc9ad8cff3a933a464736f6c634300080d0033",
  "immutableReferences": {},
  "source": "// SPDX-License-Identifier: MIT\npragma solidity ^0.8.13;\n\nimport \"./CarRacing.sol\";\n\ncontract TokenOwnership is CarRacing{\n\n    mapping (uint => address) carApprovals;\n    mapping (uint => address) engineApprovals;\n    mapping (uint => address) chassisApprovals;\n\n\n    function balanceOfCars(address _owner) external view returns (uint256) {\n        return ownerCarCount[_owner];\n    }\n    function ownerOfCar(uint256 _tokenId) external view returns(address) {\n        return carToOwner[_tokenId];\n    }\n    function _transferCar(address _from, address _to, uint256 _tokenId) private {\n        require(cars[_tokenId].engineId == 0, \"engine must be empty\");\n        require(cars[_tokenId].chassisId == 0, \"chassis must be empty\");\n        require(ownerCarCount[_from]>0, \"it is your last car\");\n        ownerCarCount[_to]++;// = ownerCarCount[_to].add(1);\n        ownerCarCount[_from]--;// = ownerCarCount[_from].sub(1);\n        carToOwner[_tokenId] = _to;\n    }\n    function transferCarFrom(address _from, address _to, uint256 _tokenId) external payable {\n        require (carToOwner[_tokenId] == _from || carApprovals[_tokenId] == msg.sender);\n        _transferCar(_from, _to, _tokenId);\n    }\n    function approveCar(address _approved, uint256 _tokenId) external payable onlyOwnerOfCar(_tokenId) {\n        carApprovals[_tokenId] = _approved;\n    }\n\n\n    function balanceOfEngines(address _owner) external view returns (uint256) {\n        return ownerEngineCount[_owner];\n    }\n    function ownerOfEngine(uint256 _tokenId) external view returns(address) {\n        return engineToOwner[_tokenId];\n    }\n    function _transferEngine(address _from, address _to, uint256 _tokenId) private {\n        Car[] memory carr = getCarsByOwner(_from);\n        bool flag = false;\n        if(carr.length>0){\n            for(uint i = 0; i<carr.length; i++){\n                if(carr[i].engineId == _tokenId){\n                    detachEngine(carr[i].id, carr[i].engineId);\n                }\n            }\n            require(!flag, \"engine not erased\");\n        }\n\n        ownerEngineCount[_to]++;// = ownerEngineCount[_to].add(1);\n        ownerEngineCount[_from]--;// = ownerEngineCount[_from].sub(1);\n        engineToOwner[_tokenId] = _to;\n    }\n    function transferEngineFrom(address _from, address _to, uint256 _tokenId) external payable {\n        require (engineToOwner[_tokenId] == _from || engineApprovals[_tokenId] == msg.sender);\n        _transferEngine(_from, _to, _tokenId);\n    }\n    function approveEngine(address _approved, uint256 _tokenId) external payable onlyOwnerOfEngine(_tokenId) {\n        engineApprovals[_tokenId] = _approved;\n    }\n\n    \n    function balanceOfChassis(address _owner) external view returns (uint256) {\n        return ownerChassisCount[_owner];\n    }\n    function ownerOfChassis(uint256 _tokenId) external view returns(address) {\n        return chassisToOwner[_tokenId];\n    }\n    function _transferChassis(address _from, address _to, uint256 _tokenId) private {\n        ownerChassisCount[_to]++;// = ownerChassisCount[_to].add(1);\n        ownerChassisCount[_from]--;// = ownerChassisCount[_from].sub(1);\n        Car[] memory cars = getCarsByOwner(_from);\n        for(uint i = 0; i<cars.length; i++){\n            if(cars[i].chassisId == _tokenId){\n                cars[i].chassisId = 0;\n            }\n        }\n        chassisToOwner[_tokenId] = _to;\n    }\n    function transferChassisFrom(address _from, address _to, uint256 _tokenId) external payable {\n        require (chassisToOwner[_tokenId] == _from || chassisApprovals[_tokenId] == msg.sender);\n        _transferChassis(_from, _to, _tokenId);\n    }\n    function approveChassis(address _approved, uint256 _tokenId) external payable onlyOwnerOfChassis(_tokenId) {\n        chassisApprovals[_tokenId] = _approved;\n    }\n}",
  "sourcePath": "/Users/vvan/Programming/JavaScript/DriveSafely/contract/contracts/TokenOwnership.sol",
  "compiler": {
    "name": "solc",
    "version": "0.8.13+commit.abaa5c0e.Emscripten.clang"
  },
  "schemaVersion": "3.4.11",
  "updatedAt": "2023-01-09T00:14:14.815Z",
  "networkType": "ethereum",
  "devdoc": {
    "kind": "dev",
    "methods": {
      "owner()": {
        "details": "Returns the address of the current owner."
      },
      "renounceOwnership()": {
        "details": "Leaves the contract without owner. It will not be possible to call `onlyOwner` functions anymore. Can only be called by the current owner. NOTE: Renouncing ownership will leave the contract without an owner, thereby removing any functionality that is only available to the owner."
      },
      "transferOwnership(address)": {
        "details": "Transfers ownership of the contract to a new account (`newOwner`). Can only be called by the current owner."
      }
    },
    "version": 1
  },
  "userdoc": {
    "kind": "user",
    "methods": {},
    "version": 1
  }
}