{
  "contractName": "TokenOwnership",
  "abi": [
    {
      "anonymous": false,
      "inputs": [
        {
          "indexed": true,
          "internalType": "address",
          "name": "previousOwner",
          "type": "address"
        },
        {
          "indexed": true,
          "internalType": "address",
          "name": "newOwner",
          "type": "address"
        }
      ],
      "name": "OwnershipTransferred",
      "type": "event"
    },
    {
      "anonymous": false,
      "inputs": [
        {
          "indexed": false,
          "internalType": "uint256",
          "name": "roomId",
          "type": "uint256"
        }
      ],
      "name": "RoomClosed",
      "type": "event"
    },
    {
      "anonymous": false,
      "inputs": [
        {
          "indexed": false,
          "internalType": "uint256",
          "name": "roomId",
          "type": "uint256"
        },
        {
          "indexed": false,
          "internalType": "uint256",
          "name": "roomDNA",
          "type": "uint256"
        }
      ],
      "name": "RoomFull",
      "type": "event"
    },
    {
      "inputs": [
        {
          "internalType": "uint256",
          "name": "",
          "type": "uint256"
        }
      ],
      "name": "carToOwner",
      "outputs": [
        {
          "internalType": "address",
          "name": "",
          "type": "address"
        }
      ],
      "stateMutability": "view",
      "type": "function",
      "constant": true
    },
    {
      "inputs": [
        {
          "internalType": "uint256",
          "name": "",
          "type": "uint256"
        }
      ],
      "name": "carToPrice",
      "outputs": [
        {
          "internalType": "uint256",
          "name": "",
          "type": "uint256"
        }
      ],
      "stateMutability": "view",
      "type": "function",
      "constant": true
    },
    {
      "inputs": [
        {
          "internalType": "uint256",
          "name": "",
          "type": "uint256"
        }
      ],
      "name": "cars",
      "outputs": [
        {
          "internalType": "string",
          "name": "model",
          "type": "string"
        },
        {
          "internalType": "uint256",
          "name": "vin",
          "type": "uint256"
        },
        {
          "internalType": "uint256",
          "name": "engineId",
          "type": "uint256"
        },
        {
          "internalType": "uint256",
          "name": "chassisId",
          "type": "uint256"
        },
        {
          "internalType": "uint8",
          "name": "carLevel",
          "type": "uint8"
        },
        {
          "internalType": "uint256",
          "name": "mileage",
          "type": "uint256"
        },
        {
          "internalType": "uint256",
          "name": "winCountOnCurrentLevel",
          "type": "uint256"
        },
        {
          "internalType": "uint256",
          "name": "lossCountOnCurrentLevel",
          "type": "uint256"
        },
        {
          "internalType": "uint256",
          "name": "id",
          "type": "uint256"
        }
      ],
      "stateMutability": "view",
      "type": "function",
      "constant": true
    },
    {
      "inputs": [],
      "name": "carsForSaleCount",
      "outputs": [
        {
          "internalType": "uint256",
          "name": "",
          "type": "uint256"
        }
      ],
      "stateMutability": "view",
      "type": "function",
      "constant": true
    },
    {
      "inputs": [
        {
          "internalType": "uint256",
          "name": "",
          "type": "uint256"
        }
      ],
      "name": "chassis",
      "outputs": [
        {
          "internalType": "uint256",
          "name": "id",
          "type": "uint256"
        },
        {
          "internalType": "uint32",
          "name": "durability",
          "type": "uint32"
        },
        {
          "internalType": "uint32",
          "name": "resource",
          "type": "uint32"
        }
      ],
      "stateMutability": "view",
      "type": "function",
      "constant": true
    },
    {
      "inputs": [],
      "name": "chassisForSaleCount",
      "outputs": [
        {
          "internalType": "uint256",
          "name": "",
          "type": "uint256"
        }
      ],
      "stateMutability": "view",
      "type": "function",
      "constant": true
    },
    {
      "inputs": [
        {
          "internalType": "uint256",
          "name": "",
          "type": "uint256"
        }
      ],
      "name": "chassisToOwner",
      "outputs": [
        {
          "internalType": "address",
          "name": "",
          "type": "address"
        }
      ],
      "stateMutability": "view",
      "type": "function",
      "constant": true
    },
    {
      "inputs": [
        {
          "internalType": "uint256",
          "name": "",
          "type": "uint256"
        }
      ],
      "name": "chassisToPrice",
      "outputs": [
        {
          "internalType": "uint256",
          "name": "",
          "type": "uint256"
        }
      ],
      "stateMutability": "view",
      "type": "function",
      "constant": true
    },
    {
      "inputs": [
        {
          "internalType": "uint256",
          "name": "roomId",
          "type": "uint256"
        },
        {
          "internalType": "uint256[]",
          "name": "answer",
          "type": "uint256[]"
        }
      ],
      "name": "commitAnswer",
      "outputs": [],
      "stateMutability": "nonpayable",
      "type": "function"
    },
    {
      "inputs": [
        {
          "internalType": "string",
          "name": "model",
          "type": "string"
        }
      ],
      "name": "createCar",
      "outputs": [],
      "stateMutability": "nonpayable",
      "type": "function"
    },
    {
      "inputs": [
        {
          "internalType": "string",
          "name": "_model",
          "type": "string"
        },
        {
          "internalType": "uint16",
          "name": "_horsePowers",
          "type": "uint16"
        },
        {
          "internalType": "uint8",
          "name": "_consumtion",
          "type": "uint8"
        },
        {
          "internalType": "uint32",
          "name": "_durability",
          "type": "uint32"
        },
        {
          "internalType": "uint8",
          "name": "_carLevel",
          "type": "uint8"
        },
        {
          "internalType": "uint256",
          "name": "_carPrice",
          "type": "uint256"
        }
      ],
      "name": "createCustomCar",
      "outputs": [],
      "stateMutability": "nonpayable",
      "type": "function"
    },
    {
      "inputs": [
        {
          "internalType": "uint32",
          "name": "_durability",
          "type": "uint32"
        },
        {
          "internalType": "uint256",
          "name": "_chassisPrice",
          "type": "uint256"
        }
      ],
      "name": "createCustomChassis",
      "outputs": [
        {
          "internalType": "uint256",
          "name": "",
          "type": "uint256"
        }
      ],
      "stateMutability": "nonpayable",
      "type": "function"
    },
    {
      "inputs": [
        {
          "internalType": "uint16",
          "name": "_horsePowers",
          "type": "uint16"
        },
        {
          "internalType": "uint8",
          "name": "_consumtion",
          "type": "uint8"
        },
        {
          "internalType": "uint256",
          "name": "_enginePrice",
          "type": "uint256"
        }
      ],
      "name": "createCustomEngine",
      "outputs": [
        {
          "internalType": "uint256",
          "name": "",
          "type": "uint256"
        }
      ],
      "stateMutability": "nonpayable",
      "type": "function"
    },
    {
      "inputs": [],
      "name": "createFuelStation",
      "outputs": [],
      "stateMutability": "nonpayable",
      "type": "function"
    },
    {
      "inputs": [
        {
          "internalType": "uint256",
          "name": "carId",
          "type": "uint256"
        },
        {
          "internalType": "uint256",
          "name": "chassisId",
          "type": "uint256"
        }
      ],
      "name": "detachChassis",
      "outputs": [],
      "stateMutability": "nonpayable",
      "type": "function"
    },
    {
      "inputs": [
        {
          "internalType": "uint256",
          "name": "carId",
          "type": "uint256"
        },
        {
          "internalType": "uint256",
          "name": "engineId",
          "type": "uint256"
        }
      ],
      "name": "detachEngine",
      "outputs": [],
      "stateMutability": "nonpayable",
      "type": "function"
    },
    {
      "inputs": [
        {
          "internalType": "uint256",
          "name": "",
          "type": "uint256"
        }
      ],
      "name": "engineToOwner",
      "outputs": [
        {
          "internalType": "address",
          "name": "",
          "type": "address"
        }
      ],
      "stateMutability": "view",
      "type": "function",
      "constant": true
    },
    {
      "inputs": [
        {
          "internalType": "uint256",
          "name": "",
          "type": "uint256"
        }
      ],
      "name": "engineToPrice",
      "outputs": [
        {
          "internalType": "uint256",
          "name": "",
          "type": "uint256"
        }
      ],
      "stateMutability": "view",
      "type": "function",
      "constant": true
    },
    {
      "inputs": [
        {
          "internalType": "uint256",
          "name": "",
          "type": "uint256"
        }
      ],
      "name": "engines",
      "outputs": [
        {
          "internalType": "uint256",
          "name": "id",
          "type": "uint256"
        },
        {
          "internalType": "uint16",
          "name": "horsePowers",
          "type": "uint16"
        },
        {
          "internalType": "uint8",
          "name": "consumtion",
          "type": "uint8"
        }
      ],
      "stateMutability": "view",
      "type": "function",
      "constant": true
    },
    {
      "inputs": [],
      "name": "enginesForSaleCount",
      "outputs": [
        {
          "internalType": "uint256",
          "name": "",
          "type": "uint256"
        }
      ],
      "stateMutability": "view",
      "type": "function",
      "constant": true
    },
    {
      "inputs": [
        {
          "internalType": "uint256",
          "name": "carId",
          "type": "uint256"
        }
      ],
      "name": "findRoom",
      "outputs": [],
      "stateMutability": "nonpayable",
      "type": "function"
    },
    {
      "inputs": [
        {
          "internalType": "uint256",
          "name": "",
          "type": "uint256"
        }
      ],
      "name": "fuelStationToOwner",
      "outputs": [
        {
          "internalType": "address",
          "name": "",
          "type": "address"
        }
      ],
      "stateMutability": "view",
      "type": "function",
      "constant": true
    },
    {
      "inputs": [
        {
          "internalType": "address",
          "name": "_owner",
          "type": "address"
        }
      ],
      "name": "getCarsByOwner",
      "outputs": [
        {
          "components": [
            {
              "internalType": "string",
              "name": "model",
              "type": "string"
            },
            {
              "internalType": "uint256",
              "name": "vin",
              "type": "uint256"
            },
            {
              "internalType": "uint256",
              "name": "engineId",
              "type": "uint256"
            },
            {
              "internalType": "uint256",
              "name": "chassisId",
              "type": "uint256"
            },
            {
              "internalType": "uint8",
              "name": "carLevel",
              "type": "uint8"
            },
            {
              "internalType": "uint256",
              "name": "mileage",
              "type": "uint256"
            },
            {
              "internalType": "uint256",
              "name": "winCountOnCurrentLevel",
              "type": "uint256"
            },
            {
              "internalType": "uint256",
              "name": "lossCountOnCurrentLevel",
              "type": "uint256"
            },
            {
              "internalType": "uint256",
              "name": "id",
              "type": "uint256"
            }
          ],
          "internalType": "struct CarFactory.Car[]",
          "name": "",
          "type": "tuple[]"
        }
      ],
      "stateMutability": "view",
      "type": "function",
      "constant": true
    },
    {
      "inputs": [
        {
          "internalType": "address",
          "name": "_owner",
          "type": "address"
        }
      ],
      "name": "getChassisByOwner",
      "outputs": [
        {
          "components": [
            {
              "internalType": "uint256",
              "name": "id",
              "type": "uint256"
            },
            {
              "internalType": "uint32",
              "name": "durability",
              "type": "uint32"
            },
            {
              "internalType": "uint32",
              "name": "resource",
              "type": "uint32"
            }
          ],
          "internalType": "struct CarFactory.Chassis[]",
          "name": "",
          "type": "tuple[]"
        }
      ],
      "stateMutability": "view",
      "type": "function",
      "constant": true
    },
    {
      "inputs": [
        {
          "internalType": "uint256",
          "name": "roomId",
          "type": "uint256"
        }
      ],
      "name": "getClosedRoom",
      "outputs": [
        {
          "components": [
            {
              "internalType": "address",
              "name": "player",
              "type": "address"
            },
            {
              "internalType": "bool",
              "name": "correct",
              "type": "bool"
            },
            {
              "internalType": "uint256",
              "name": "time",
              "type": "uint256"
            },
            {
              "internalType": "uint256",
              "name": "carId",
              "type": "uint256"
            }
          ],
          "internalType": "struct RaceHandler.Answer[]",
          "name": "",
          "type": "tuple[]"
        }
      ],
      "stateMutability": "view",
      "type": "function",
      "constant": true
    },
    {
      "inputs": [
        {
          "internalType": "address",
          "name": "_owner",
          "type": "address"
        }
      ],
      "name": "getEnginesByOwner",
      "outputs": [
        {
          "components": [
            {
              "internalType": "uint256",
              "name": "id",
              "type": "uint256"
            },
            {
              "internalType": "uint16",
              "name": "horsePowers",
              "type": "uint16"
            },
            {
              "internalType": "uint8",
              "name": "consumtion",
              "type": "uint8"
            }
          ],
          "internalType": "struct CarFactory.Engine[]",
          "name": "",
          "type": "tuple[]"
        }
      ],
      "stateMutability": "view",
      "type": "function",
      "constant": true
    },
    {
      "inputs": [
        {
          "internalType": "address",
          "name": "_owner",
          "type": "address"
        }
      ],
      "name": "getFuelStationByOwner",
      "outputs": [
        {
          "components": [
            {
              "internalType": "uint256",
              "name": "id",
              "type": "uint256"
            },
            {
              "internalType": "uint8",
              "name": "capacity",
              "type": "uint8"
            },
            {
              "internalType": "uint8",
              "name": "productionPerHour",
              "type": "uint8"
            },
            {
              "internalType": "uint8",
              "name": "currentFullness",
              "type": "uint8"
            },
            {
              "internalType": "uint256",
              "name": "lastUpdate",
              "type": "uint256"
            }
          ],
          "internalType": "struct FuelStationFactory.FuelStation",
          "name": "",
          "type": "tuple"
        }
      ],
      "stateMutability": "view",
      "type": "function",
      "constant": true
    },
    {
      "inputs": [
        {
          "internalType": "uint256",
          "name": "",
          "type": "uint256"
        }
      ],
      "name": "idToStartedRooms",
      "outputs": [
        {
          "internalType": "uint256",
          "name": "numberPlayers",
          "type": "uint256"
        },
        {
          "internalType": "uint256",
          "name": "world",
          "type": "uint256"
        },
        {
          "internalType": "uint256",
          "name": "roomDNA",
          "type": "uint256"
        },
        {
          "internalType": "uint256",
          "name": "startTime",
          "type": "uint256"
        },
        {
          "internalType": "uint256",
          "name": "curAnswer",
          "type": "uint256"
        },
        {
          "internalType": "bool",
          "name": "closed",
          "type": "bool"
        }
      ],
      "stateMutability": "view",
      "type": "function",
      "constant": true
    },
    {
      "inputs": [
        {
          "internalType": "uint256",
          "name": "_carId",
          "type": "uint256"
        }
      ],
      "name": "levelUp",
      "outputs": [],
      "stateMutability": "payable",
      "type": "function",
      "payable": true
    },
    {
      "inputs": [
        {
          "internalType": "uint256",
          "name": "",
          "type": "uint256"
        }
      ],
      "name": "openedRooms",
      "outputs": [
        {
          "internalType": "uint256",
          "name": "id",
          "type": "uint256"
        },
        {
          "internalType": "uint256",
          "name": "playersEntered",
          "type": "uint256"
        },
        {
          "internalType": "uint256",
          "name": "world",
          "type": "uint256"
        },
        {
          "components": [
            {
              "internalType": "uint256",
              "name": "playersNeeded",
              "type": "uint256"
            },
            {
              "internalType": "uint256",
              "name": "roadsNum",
              "type": "uint256"
            },
            {
              "internalType": "uint256",
              "name": "crossId",
              "type": "uint256"
            }
          ],
          "internalType": "struct RaceHandler.Cross",
          "name": "cross",
          "type": "tuple"
        }
      ],
      "stateMutability": "view",
      "type": "function",
      "constant": true
    },
    {
      "inputs": [],
      "name": "owner",
      "outputs": [
        {
          "internalType": "address",
          "name": "",
          "type": "address"
        }
      ],
      "stateMutability": "view",
      "type": "function",
      "constant": true
    },
    {
      "inputs": [
        {
          "internalType": "address",
          "name": "",
          "type": "address"
        }
      ],
      "name": "ownerCarCount",
      "outputs": [
        {
          "internalType": "uint256",
          "name": "",
          "type": "uint256"
        }
      ],
      "stateMutability": "view",
      "type": "function",
      "constant": true
    },
    {
      "inputs": [
        {
          "internalType": "address",
          "name": "",
          "type": "address"
        }
      ],
      "name": "ownerChassisCount",
      "outputs": [
        {
          "internalType": "uint256",
          "name": "",
          "type": "uint256"
        }
      ],
      "stateMutability": "view",
      "type": "function",
      "constant": true
    },
    {
      "inputs": [
        {
          "internalType": "address",
          "name": "",
          "type": "address"
        }
      ],
      "name": "ownerEngineCount",
      "outputs": [
        {
          "internalType": "uint256",
          "name": "",
          "type": "uint256"
        }
      ],
      "stateMutability": "view",
      "type": "function",
      "constant": true
    },
    {
      "inputs": [],
      "name": "renounceOwnership",
      "outputs": [],
      "stateMutability": "nonpayable",
      "type": "function"
    },
    {
      "inputs": [
        {
          "internalType": "uint256",
          "name": "_carId",
          "type": "uint256"
        }
      ],
      "name": "startRace",
      "outputs": [],
      "stateMutability": "nonpayable",
      "type": "function"
    },
    {
      "inputs": [
        {
          "internalType": "uint256",
          "name": "",
          "type": "uint256"
        }
      ],
      "name": "stations",
      "outputs": [
        {
          "internalType": "uint256",
          "name": "id",
          "type": "uint256"
        },
        {
          "internalType": "uint8",
          "name": "capacity",
          "type": "uint8"
        },
        {
          "internalType": "uint8",
          "name": "productionPerHour",
          "type": "uint8"
        },
        {
          "internalType": "uint8",
          "name": "currentFullness",
          "type": "uint8"
        },
        {
          "internalType": "uint256",
          "name": "lastUpdate",
          "type": "uint256"
        }
      ],
      "stateMutability": "view",
      "type": "function",
      "constant": true
    },
    {
      "inputs": [
        {
          "internalType": "uint256",
          "name": "carId",
          "type": "uint256"
        },
        {
          "internalType": "uint256",
          "name": "chassisId",
          "type": "uint256"
        }
      ],
      "name": "switchChassis",
      "outputs": [],
      "stateMutability": "nonpayable",
      "type": "function"
    },
    {
      "inputs": [
        {
          "internalType": "uint256",
          "name": "carId",
          "type": "uint256"
        },
        {
          "internalType": "uint256",
          "name": "engineId",
          "type": "uint256"
        }
      ],
      "name": "switchEngine",
      "outputs": [],
      "stateMutability": "nonpayable",
      "type": "function"
    },
    {
      "inputs": [
        {
          "internalType": "address",
          "name": "newOwner",
          "type": "address"
        }
      ],
      "name": "transferOwnership",
      "outputs": [],
      "stateMutability": "nonpayable",
      "type": "function"
    },
    {
      "inputs": [
        {
          "internalType": "uint256",
          "name": "_fuelStatonId",
          "type": "uint256"
        },
        {
          "internalType": "uint8",
          "name": "_counts",
          "type": "uint8"
        }
      ],
      "name": "upgradeCapacity",
      "outputs": [],
      "stateMutability": "payable",
      "type": "function",
      "payable": true
    },
    {
      "inputs": [
        {
          "internalType": "uint256",
          "name": "_engineId",
          "type": "uint256"
        },
        {
          "internalType": "uint8",
          "name": "_counts",
          "type": "uint8"
        }
      ],
      "name": "upgradeConsumtion",
      "outputs": [],
      "stateMutability": "payable",
      "type": "function",
      "payable": true
    },
    {
      "inputs": [
        {
          "internalType": "uint256",
          "name": "_chassisId",
          "type": "uint256"
        },
        {
          "internalType": "uint8",
          "name": "_counts",
          "type": "uint8"
        }
      ],
      "name": "upgradeDurability",
      "outputs": [],
      "stateMutability": "payable",
      "type": "function",
      "payable": true
    },
    {
      "inputs": [
        {
          "internalType": "uint256",
          "name": "_engineId",
          "type": "uint256"
        },
        {
          "internalType": "uint8",
          "name": "_counts",
          "type": "uint8"
        }
      ],
      "name": "upgradeHorsePowers",
      "outputs": [],
      "stateMutability": "payable",
      "type": "function",
      "payable": true
    },
    {
      "inputs": [
        {
          "internalType": "uint256",
          "name": "_fuelStatonId",
          "type": "uint256"
        },
        {
          "internalType": "uint8",
          "name": "_counts",
          "type": "uint8"
        }
      ],
      "name": "upgradeProductionPerHour",
      "outputs": [],
      "stateMutability": "payable",
      "type": "function",
      "payable": true
    },
    {
      "inputs": [
        {
          "internalType": "address",
          "name": "_chassisOwnership",
          "type": "address"
        },
        {
          "internalType": "address",
          "name": "_engineOwnership",
          "type": "address"
        },
        {
          "internalType": "address",
          "name": "_carOwnership",
          "type": "address"
        }
      ],
      "name": "init",
      "outputs": [],
      "stateMutability": "nonpayable",
      "type": "function"
    },
    {
      "inputs": [
        {
          "internalType": "address",
          "name": "_owner",
          "type": "address"
        }
      ],
      "name": "balanceOfCars",
      "outputs": [
        {
          "internalType": "uint256",
          "name": "",
          "type": "uint256"
        }
      ],
      "stateMutability": "view",
      "type": "function",
      "constant": true
    },
    {
      "inputs": [
        {
          "internalType": "uint256",
          "name": "_tokenId",
          "type": "uint256"
        }
      ],
      "name": "ownerOfCar",
      "outputs": [
        {
          "internalType": "address",
          "name": "",
          "type": "address"
        }
      ],
      "stateMutability": "view",
      "type": "function",
      "constant": true
    },
    {
      "inputs": [
        {
          "internalType": "address",
          "name": "_from",
          "type": "address"
        },
        {
          "internalType": "address",
          "name": "_to",
          "type": "address"
        },
        {
          "internalType": "uint256",
          "name": "_tokenId",
          "type": "uint256"
        }
      ],
      "name": "transferCarFrom",
      "outputs": [],
      "stateMutability": "payable",
      "type": "function",
      "payable": true
    },
    {
      "inputs": [
        {
          "internalType": "address",
          "name": "_owner",
          "type": "address"
        }
      ],
      "name": "balanceOfEngines",
      "outputs": [
        {
          "internalType": "uint256",
          "name": "",
          "type": "uint256"
        }
      ],
      "stateMutability": "view",
      "type": "function",
      "constant": true
    },
    {
      "inputs": [
        {
          "internalType": "uint256",
          "name": "_tokenId",
          "type": "uint256"
        }
      ],
      "name": "ownerOfEngine",
      "outputs": [
        {
          "internalType": "address",
          "name": "",
          "type": "address"
        }
      ],
      "stateMutability": "view",
      "type": "function",
      "constant": true
    },
    {
      "inputs": [
        {
          "internalType": "address",
          "name": "_from",
          "type": "address"
        },
        {
          "internalType": "address",
          "name": "_to",
          "type": "address"
        },
        {
          "internalType": "uint256",
          "name": "_tokenId",
          "type": "uint256"
        }
      ],
      "name": "transferEngineFrom",
      "outputs": [],
      "stateMutability": "payable",
      "type": "function",
      "payable": true
    },
    {
      "inputs": [
        {
          "internalType": "address",
          "name": "_owner",
          "type": "address"
        }
      ],
      "name": "balanceOfChassis",
      "outputs": [
        {
          "internalType": "uint256",
          "name": "",
          "type": "uint256"
        }
      ],
      "stateMutability": "view",
      "type": "function",
      "constant": true
    },
    {
      "inputs": [
        {
          "internalType": "uint256",
          "name": "_tokenId",
          "type": "uint256"
        }
      ],
      "name": "ownerOfChassis",
      "outputs": [
        {
          "internalType": "address",
          "name": "",
          "type": "address"
        }
      ],
      "stateMutability": "view",
      "type": "function",
      "constant": true
    },
    {
      "inputs": [
        {
          "internalType": "address",
          "name": "_from",
          "type": "address"
        },
        {
          "internalType": "address",
          "name": "_to",
          "type": "address"
        },
        {
          "internalType": "uint256",
          "name": "_tokenId",
          "type": "uint256"
        }
      ],
      "name": "transferChassisFrom",
      "outputs": [],
      "stateMutability": "nonpayable",
      "type": "function"
    },
    {
      "inputs": [
        {
          "internalType": "uint256",
          "name": "chassisId",
          "type": "uint256"
        },
        {
          "internalType": "uint256",
          "name": "price",
          "type": "uint256"
        }
      ],
      "name": "putChassisOnMarketplace",
      "outputs": [],
      "stateMutability": "nonpayable",
      "type": "function"
    },
    {
      "inputs": [
        {
          "internalType": "uint256",
          "name": "chassisId",
          "type": "uint256"
        }
      ],
      "name": "removeChassisFromMarketplace",
      "outputs": [],
      "stateMutability": "nonpayable",
      "type": "function"
    },
    {
      "inputs": [
        {
          "internalType": "uint256",
          "name": "engineId",
          "type": "uint256"
        },
        {
          "internalType": "uint256",
          "name": "price",
          "type": "uint256"
        }
      ],
      "name": "putEngineOnMarketplace",
      "outputs": [],
      "stateMutability": "nonpayable",
      "type": "function"
    },
    {
      "inputs": [
        {
          "internalType": "uint256",
          "name": "engineId",
          "type": "uint256"
        }
      ],
      "name": "removeEngineFromMarketplace",
      "outputs": [],
      "stateMutability": "nonpayable",
      "type": "function"
    },
    {
      "inputs": [
        {
          "internalType": "uint256",
          "name": "carId",
          "type": "uint256"
        },
        {
          "internalType": "uint256",
          "name": "price",
          "type": "uint256"
        }
      ],
      "name": "putCarOnMarketplace",
      "outputs": [],
      "stateMutability": "nonpayable",
      "type": "function"
    },
    {
      "inputs": [
        {
          "internalType": "uint256",
          "name": "carId",
          "type": "uint256"
        }
      ],
      "name": "removeCarFromMarketplace",
      "outputs": [],
      "stateMutability": "nonpayable",
      "type": "function"
    },
    {
      "inputs": [],
      "name": "getCarsForSale",
      "outputs": [
        {
          "components": [
            {
              "internalType": "string",
              "name": "model",
              "type": "string"
            },
            {
              "internalType": "uint256",
              "name": "vin",
              "type": "uint256"
            },
            {
              "internalType": "uint256",
              "name": "engineId",
              "type": "uint256"
            },
            {
              "internalType": "uint256",
              "name": "chassisId",
              "type": "uint256"
            },
            {
              "internalType": "uint8",
              "name": "carLevel",
              "type": "uint8"
            },
            {
              "internalType": "uint256",
              "name": "mileage",
              "type": "uint256"
            },
            {
              "internalType": "uint256",
              "name": "winCountOnCurrentLevel",
              "type": "uint256"
            },
            {
              "internalType": "uint256",
              "name": "lossCountOnCurrentLevel",
              "type": "uint256"
            },
            {
              "internalType": "uint256",
              "name": "id",
              "type": "uint256"
            }
          ],
          "internalType": "struct CarFactory.Car[]",
          "name": "",
          "type": "tuple[]"
        }
      ],
      "stateMutability": "view",
      "type": "function",
      "constant": true
    },
    {
      "inputs": [],
      "name": "getEnginesForSale",
      "outputs": [
        {
          "components": [
            {
              "internalType": "uint256",
              "name": "id",
              "type": "uint256"
            },
            {
              "internalType": "uint16",
              "name": "horsePowers",
              "type": "uint16"
            },
            {
              "internalType": "uint8",
              "name": "consumtion",
              "type": "uint8"
            }
          ],
          "internalType": "struct CarFactory.Engine[]",
          "name": "",
          "type": "tuple[]"
        }
      ],
      "stateMutability": "view",
      "type": "function",
      "constant": true
    },
    {
      "inputs": [],
      "name": "getChassisForSale",
      "outputs": [
        {
          "components": [
            {
              "internalType": "uint256",
              "name": "id",
              "type": "uint256"
            },
            {
              "internalType": "uint32",
              "name": "durability",
              "type": "uint32"
            },
            {
              "internalType": "uint32",
              "name": "resource",
              "type": "uint32"
            }
          ],
          "internalType": "struct CarFactory.Chassis[]",
          "name": "",
          "type": "tuple[]"
        }
      ],
      "stateMutability": "view",
      "type": "function",
      "constant": true
    }
  ],
  "bytecode": "0x60806040526000805461ffff60a01b191661014f60a21b17815560088190556009819055600a556001600b819055600c556509184e72a00060195565b5e620f48000601a55650da475abf000601b556611c37937e08000601c556305f5e100601d5566038d7ea4c68000601e553480156200007957600080fd5b50620000853362000258565b60506003908155605b60049081556005805460ff1916600a179055620186a06006556201d4c1600755600e80546001908101909155600f805482019055604080516060808201835284825260208281018681526000848601818152601f8054808a0182558184529651968b027fa03837a25210ee280c2113ff4b77ca23440b19d4866cca721c801278fd08d8078181019890985593517fa03837a25210ee280c2113ff4b77ca23440b19d4866cca721c801278fd08d8088086019190915591517fa03837a25210ee280c2113ff4b77ca23440b19d4866cca721c801278fd08d80994850155875180870189528b81528086018b8152818a018581528354808d0185558487529251928e02808b019390935590518285015551908501558751808701895260028082528187019b8c52818a018581528354808d0185558487529251928e02808b01939093559b51828501559a5190850155875180870189528b81528086018c8152818a018b81528354808d0185558487529251928e02808b019390935590518285015551908501558751958601885298855292840189815295840187815288548089018a559890915292519690970292830195909555915193810193909355519190920155602255620002a8565b600080546001600160a01b038381166001600160a01b0319831681178455604051919092169283917f8be0079c531659141344cd1fd0a4f28419497f9722a3daafe3b4186f6b6457e09190a35050565b61529e80620002b86000396000f3fe6080604052600436106103c35760003560e01c80637ec5c75c116101f2578063c34cccc41161010d578063ede6fbf5116100a0578063f85993b91161006f578063f85993b914610e9e578063faf4bb9814610ecb578063fb2d954f14610ede578063fb33250f14610efe57600080fd5b8063ede6fbf514610e09578063f2fde38b14610e29578063f66911b114610e49578063f7746e3614610e6957600080fd5b8063d7086fab116100dc578063d7086fab14610d89578063d720be4a14610da9578063e215a7e414610dc9578063ea12693314610de957600080fd5b8063c34cccc414610d09578063c75bb4f414610d29578063c85b7fed14610d49578063d1c54eea14610d6957600080fd5b8063906f5f3411610185578063b3b29afd11610154578063b3b29afd14610c66578063b72c0eea14610c93578063b972486f14610cd4578063bfcc971614610ce957600080fd5b8063906f5f3414610bc057806392f859db14610bd3578063982b691c14610c23578063aa11b68114610c3957600080fd5b806387d6b9b2116101c157806387d6b9b214610b3957806389895f7714610b6f5780638b57997314610b8f5780638da5cb5b14610ba257600080fd5b80637ec5c75c14610ab95780637fb2aa4d14610acc5780638590926714610af95780638776601914610b0c57600080fd5b80633521c426116102e25780635c426aff11610275578063715018a611610244578063715018a614610a4f57806376b4646d14610a645780637713d52114610a865780637c62360f14610aa657600080fd5b80635c426aff146109965780635dcc4cc6146109cc5780636b606d9b14610a025780636f206fc114610a2257600080fd5b80634ced3056116102b15780634ced3056146108b55780634e31f910146108d5578063567754e414610940578063594193d71461096057600080fd5b80633521c426146107fa5780633dfd6f5414610827578063449014901461085d578063491d61c21461089357600080fd5b80631702bf421161035a57806324d822bf1161032957806324d822bf14610738578063254dc065146107585780632cb03a3a1461078e57806333ca504b146107c457600080fd5b80631702bf421461058c578063184b9559146105a25780631c5dde0e146105c2578063224370f01461060457600080fd5b80630a0176fc116103965780630a0176fc146105085780630c0cd532146105435780630ce90ec21461055957806314ed04501461056c57600080fd5b806302b67745146103c857806303f2e05b1461041b5780630418394e14610430578063081315ff146104b2575b600080fd5b3480156103d457600080fd5b506103fe6103e336600461476d565b6000908152601060205260409020546001600160a01b031690565b6040516001600160a01b0390911681526020015b60405180910390f35b61042e61042936600461479c565b610f1e565b005b34801561043c57600080fd5b5061048361044b36600461476d565b602460205260009081526040902080546001820154600283015460038401546005850154600690950154939492939192909160ff1686565b6040805196875260208701959095529385019290925260608401526080830152151560a082015260c001610412565b3480156104be57600080fd5b506104d26104cd36600461476d565b611054565b604080519485526020808601949094528481019290925280516060850152918201516080840152015160a082015260c001610412565b34801561051457600080fd5b5061053561052336600461476d565b60186020526000908152604090205481565b604051908152602001610412565b34801561054f57600080fd5b50610535600a5481565b61042e61056736600461476d565b6110b2565b34801561057857600080fd5b5061042e61058736600461476d565b611223565b34801561059857600080fd5b5061053560085481565b3480156105ae57600080fd5b5061042e6105bd3660046147df565b611284565b3480156105ce57600080fd5b506105e26105dd36600461476d565b6112cb565b6040805193845263ffffffff9283166020850152911690820152606001610412565b34801561061057600080fd5b5061042e600180546040805160a0810182528281526000805460ff600160a01b820481166020808601828152600160a81b90940483168688019081526060870192835263ffffffff421660808801908152898b018b559986529551600389027fb10e2d527612073b26eecdfd717e6a320cf44b4afac2b0732d9fcbe2b7fa0cf681019190915593517fb10e2d527612073b26eecdfd717e6a320cf44b4afac2b0732d9fcbe2b7fa0cf785018054975193518516620100000262ff0000199486166101000261ffff19909916929095169190911796909617919091169190911790935594517fb10e2d527612073b26eecdfd717e6a320cf44b4afac2b0732d9fcbe2b7fa0cf8909501949094559183526002909152902080546001600160a01b03191633179055565b34801561074457600080fd5b5061042e61075336600461476d565b61130b565b34801561076457600080fd5b50610535610773366004614822565b6001600160a01b031660009081526015602052604090205490565b34801561079a57600080fd5b506105356107a9366004614822565b6001600160a01b031660009081526013602052604090205490565b3480156107d057600080fd5b506103fe6107df36600461476d565b6010602052600090815260409020546001600160a01b031681565b34801561080657600080fd5b5061081a61081536600461476d565b6114c3565b604051610412919061483d565b34801561083357600080fd5b506103fe61084236600461476d565b6000908152601160205260409020546001600160a01b031690565b34801561086957600080fd5b506103fe61087836600461476d565b6012602052600090815260409020546001600160a01b031681565b34801561089f57600080fd5b506108a86115b5565b60405161041291906148ac565b3480156108c157600080fd5b5061042e6108d036600461476d565b6116dd565b3480156108e157600080fd5b506108f56108f0366004614822565b611751565b6040516104129190600060a0820190508251825260ff602084015116602083015260ff604084015116604083015260ff60608401511660608301526080830151608083015292915050565b34801561094c57600080fd5b5061042e61095b36600461476d565b611838565b34801561096c57600080fd5b506103fe61097b36600461476d565b6002602052600090815260409020546001600160a01b031681565b3480156109a257600080fd5b506103fe6109b136600461476d565b6000908152601260205260409020546001600160a01b031690565b3480156109d857600080fd5b506103fe6109e736600461476d565b6011602052600090815260409020546001600160a01b031681565b348015610a0e57600080fd5b5061042e610a1d3660046148ff565b611899565b348015610a2e57600080fd5b50610a42610a3d366004614822565b611999565b6040516104129190614921565b348015610a5b57600080fd5b5061042e611aed565b348015610a7057600080fd5b50610a79611b01565b60405161041291906149d3565b348015610a9257600080fd5b506108a8610aa1366004614822565b611ccd565b61042e610ab436600461479c565b611e15565b61042e610ac7366004614a9d565b611f30565b348015610ad857600080fd5b50610535610ae7366004614822565b60146020526000908152604090205481565b61042e610b0736600461479c565b611fd8565b348015610b1857600080fd5b50610535610b27366004614822565b60156020526000908152604090205481565b348015610b4557600080fd5b50610535610b54366004614822565b6001600160a01b031660009081526014602052604090205490565b348015610b7b57600080fd5b5061042e610b8a3660046148ff565b6120cc565b61042e610b9d366004614a9d565b61214f565b348015610bae57600080fd5b506000546001600160a01b03166103fe565b61042e610bce36600461479c565b6121da565b348015610bdf57600080fd5b50610bf3610bee36600461476d565b6122c2565b6040805195865260ff9485166020870152928416928501929092529091166060830152608082015260a001610412565b348015610c2f57600080fd5b5061053560095481565b348015610c4557600080fd5b50610535610c5436600461476d565b60166020526000908152604090205481565b348015610c7257600080fd5b50610535610c81366004614822565b60136020526000908152604090205481565b348015610c9f57600080fd5b50610cb3610cae36600461476d565b61230e565b6040805193845261ffff909216602084015260ff1690820152606001610412565b348015610ce057600080fd5b50610a4261234b565b348015610cf557600080fd5b50610535610d04366004614aed565b61246e565b348015610d1557600080fd5b5061042e610d243660046148ff565b6125b3565b348015610d3557600080fd5b50610a79610d44366004614822565b612703565b348015610d5557600080fd5b5061042e610d64366004614b5e565b6128f7565b348015610d7557600080fd5b5061042e610d843660046148ff565b612af2565b348015610d9557600080fd5b50610535610da4366004614c22565b612bd8565b348015610db557600080fd5b5061042e610dc43660046148ff565b612d34565b348015610dd557600080fd5b5061042e610de43660046148ff565b612dca565b348015610df557600080fd5b5061042e610e043660046148ff565b612e4d565b348015610e1557600080fd5b5061042e610e24366004614cbe565b612fb1565b348015610e3557600080fd5b5061042e610e44366004614822565b61317f565b348015610e5557600080fd5b5061042e610e64366004614a9d565b6131f8565b348015610e7557600080fd5b50610e89610e8436600461476d565b613283565b60405161041299989796959493929190614cf3565b348015610eaa57600080fd5b50610535610eb936600461476d565b60176020526000908152604090205481565b61042e610ed936600461479c565b613370565b348015610eea57600080fd5b5061042e610ef936600461476d565b613480565b348015610f0a57600080fd5b5061042e610f19366004614d4a565b613993565b60008281526012602052604090205482906001600160a01b03163314610f5f5760405162461bcd60e51b8152600401610f5690614dd2565b60405180910390fd5b601d54600f8481548110610f7557610f75614e00565b6000918252602090912060016002909202010154610f9c9063ffffffff1660ff8516614e2c565b63ffffffff16610fac9190614e58565b3414610fb757600080fd5b600080546040516001600160a01b03909116913480156108fc02929091818181858888f19350505050158015610ff1573d6000803e3d6000fd5b508160ff16600f848154811061100957611009614e00565b600091825260208220600160029092020101805490919061103190849063ffffffff16614e77565b92506101000a81548163ffffffff021916908363ffffffff160217905550505050565b6023818154811061106457600080fd5b60009182526020918290206006909102018054600182015460028301546040805160608101825260038601548152600486015496810196909652600590940154938501939093529093509184565b6000600a600d83815481106110c9576110c9614e00565b60009182526020909120600460099092020101546110ea919060ff16614eb5565b6110f5906001614ed7565b60ff16601e546111059190614e58565b90508034146111435760405162461bcd60e51b815260206004820152600a6024820152691ddc9bdb99c818dbdcdd60b21b6044820152606401610f56565b600080546040516001600160a01b03909116913480156108fc02929091818181858888f1935050505015801561117d573d6000803e3d6000fd5b50600d828154811061119157611191614e00565b600091825260208220600460099092020101805460ff16916111b283614efc565b91906101000a81548160ff021916908360ff160217905550506000600d83815481106111e0576111e0614e00565b9060005260206000209060090201600601819055506000600d838154811061120a5761120a614e00565b9060005260206000209060090201600701819055505050565b60008181526011602052604090205481906001600160a01b0316331461124857600080fd5b6000828152601760205260409020541561127257600a805490600061126c83614f1b565b91905055505b50600090815260176020526040812055565b61128c613b79565b602580546001600160a01b039485166001600160a01b031991821617909155602680549385169382169390931790925560278054919093169116179055565b600f81815481106112db57600080fd5b60009182526020909120600290910201805460019091015490915063ffffffff8082169164010000000090041683565b60008181526010602052604090205481906001600160a01b0316331461133057600080fd5b6000600a600d848154811061134757611347614e00565b6000918252602090912060046009909202010154611368919060ff16614eb5565b61137390600a614f32565b61137e906002614f55565b905061138a8382613bd3565b80156113f157508060ff16600f600d85815481106113aa576113aa614e00565b906000526020600020906009020160030154815481106113cc576113cc614e00565b6000918252602090912060029091020160010154640100000000900463ffffffff1610155b6113fa57600080fd5b8060ff16600f600d858154811061141357611413614e00565b9060005260206000209060090201600301548154811061143557611435614e00565b906000526020600020906002020160010160048282829054906101000a900463ffffffff166114649190614f7e565b92506101000a81548163ffffffff021916908363ffffffff1602179055508060ff16600d848154811061149957611499614e00565b906000526020600020906009020160050160008282546114b99190614fa3565b9091555050505050565b60008181526024602052604090206006015460609060ff166115195760405162461bcd60e51b815260206004820152600f60248201526e1c9bdbdb481b9bdd0818db1bdcd959608a1b6044820152606401610f56565b600082815260246020908152604080832060040180548251818502810185019093528083529193909284015b828210156115aa576000848152602090819020604080516080810182526003860290920180546001600160a01b0381168452600160a01b900460ff16151583850152600180820154928401929092526002015460608301529083529092019101611545565b505050509050919050565b60606000600a5467ffffffffffffffff8111156115d4576115d4614b17565b60405190808252806020026020018201604052801561161f57816020015b60408051606081018252600080825260208083018290529282015282526000199092019101816115f25790505b5090506000805b600e548110156116d557600081815260176020526040902054156116c357600e818154811061165757611657614e00565b600091825260209182902060408051606081018252600293909302909101805483526001015461ffff8116938301939093526201000090920460ff169181019190915283836116a581614fbb565b9450815181106116b7576116b7614e00565b60200260200101819052505b806116cd81614fbb565b915050611626565b509092915050565b60008181526012602052604090205481906001600160a01b031633146117155760405162461bcd60e51b8152600401610f5690614dd2565b6000828152601860205260409020541561173f576009805490600061173983614f1b565b91905055505b50600090815260186020526040812055565b6040805160a081018252600080825260208201819052918101829052606081018290526080810182905290805b6001548110156117c3576000818152600260205260409020546001600160a01b038086169116036117b1578091506117c3565b806117bb81614fbb565b91505061177e565b50600181815481106117d7576117d7614e00565b60009182526020918290206040805160a081018252600390930290910180548352600181015460ff80821695850195909552610100810485169284019290925262010000909104909216606082015260029091015460808201529392505050565b60008181526010602052604090205481906001600160a01b0316331461185d57600080fd5b60008281526016602052604090205415611887576008805490600061188183614f1b565b91905055505b50600090815260166020526040812055565b60008181526012602052604090205481906001600160a01b031633146118d15760405162461bcd60e51b8152600401610f5690614dd2565b60008381526010602052604090205483906001600160a01b031633146118f657600080fd5b82600d858154811061190a5761190a614e00565b906000526020600020906009020160030154146119695760405162461bcd60e51b815260206004820152601860248201527f6368617373697320617265206e6f7420617474616368656400000000000000006044820152606401610f56565b6000600d858154811061197e5761197e614e00565b90600052602060002090600902016003018190555050505050565b6001600160a01b0381166000908152601560205260408120546060919067ffffffffffffffff8111156119ce576119ce614b17565b604051908082528060200260200182016040528015611a1957816020015b60408051606081018252600080825260208083018290529282015282526000199092019101816119ec5790505b5090506000805b600f54811015611ae4576000818152601260205260409020546001600160a01b03808716911603611ad257600f8181548110611a5e57611a5e614e00565b6000918252602091829020604080516060810182526002909302909101805483526001015463ffffffff808216948401949094526401000000009004909216918101919091528351849084908110611ab857611ab8614e00565b60200260200101819052508180611ace90614fbb565b9250505b80611adc81614fbb565b915050611a20565b50909392505050565b611af5613b79565b611aff6000613d75565b565b6060600060085467ffffffffffffffff811115611b2057611b20614b17565b604051908082528060200260200182016040528015611b5957816020015b611b46614685565b815260200190600190039081611b3e5790505b5090506000805b600d548110156116d55760008181526016602052604090205415611cbb57600d8181548110611b9157611b91614e00565b906000526020600020906009020160405180610120016040529081600082018054611bbb90614fd4565b80601f0160208091040260200160405190810160405280929190818152602001828054611be790614fd4565b8015611c345780601f10611c0957610100808354040283529160200191611c34565b820191906000526020600020905b815481529060010190602001808311611c1757829003601f168201915b5050509183525050600182015460208201526002820154604082015260038201546060820152600482015460ff166080820152600582015460a0820152600682015460c0820152600782015460e0820152600890910154610100909101528383611c9d81614fbb565b945081518110611caf57611caf614e00565b60200260200101819052505b80611cc581614fbb565b915050611b60565b6001600160a01b0381166000908152601460205260408120546060919067ffffffffffffffff811115611d0257611d02614b17565b604051908082528060200260200182016040528015611d4d57816020015b6040805160608101825260008082526020808301829052928201528252600019909201910181611d205790505b5090506000805b600e54811015611ae4576000818152601160205260409020546001600160a01b03808716911603611e0357600e8181548110611d9257611d92614e00565b600091825260209182902060408051606081018252600293909302909101805483526001015461ffff8116938301939093526201000090920460ff16918101919091528351849084908110611de957611de9614e00565b60200260200101819052508180611dff90614fbb565b9250505b80611e0d81614fbb565b915050611d54565b60008281526011602052604090205482906001600160a01b03163314611e3a57600080fd5b600e8381548110611e4d57611e4d614e00565b6000918252602090912060029091020160010154611e759062010000900460ff16600a614f32565b611e809060026150ea565b601c54611e8d9190614e58565b3414611e9857600080fd5b600080546040516001600160a01b03909116913480156108fc02929091818181858888f19350505050158015611ed2573d6000803e3d6000fd5b5081600e8481548110611ee757611ee7614e00565b906000526020600020906002020160010160028282829054906101000a900460ff16611f139190614f32565b92506101000a81548160ff021916908360ff160217905550505050565b6027546001600160a01b03163314611f8a5760405162461bcd60e51b815260206004820152601960248201527f796f7520617265206e6f7420636172206f776e657273686970000000000000006044820152606401610f56565b6000818152601060205260409020546001600160a01b0384811691161480611fbf575060008181526016602052604090205415155b611fc857600080fd5b611fd3838383613dc5565b505050565b60008281526002602052604090205482906001600160a01b03163314611ffd57600080fd5b601a546001848154811061201357612013614e00565b600091825260209091206003909102016001015461203990610100900460ff1684614f55565b60ff166120469190614e58565b341461205157600080fd5b600080546040516001600160a01b03909116913480156108fc02929091818181858888f1935050505015801561208b573d6000803e3d6000fd5b5081600184815481106120a0576120a0614e00565b906000526020600020906003020160010160018282829054906101000a900460ff16611f139190614ed7565b60008281526011602052604090205482906001600160a01b031633146120f157600080fd5b600082116121115760405162461bcd60e51b8152600401610f56906150f9565b600083815260176020526040812054900361213c57600a805490600061213683614fbb565b91905055505b5060009182526017602052604090912055565b6026546001600160a01b031633146121a95760405162461bcd60e51b815260206004820152601c60248201527f796f7520617265206e6f7420656e67696e65206f776e657273686970000000006044820152606401610f56565b6000818152601160205260409020546001600160a01b038481169116146121cf57600080fd5b611fd3838383613f4f565b60008281526002602052604090205482906001600160a01b031633146121ff57600080fd5b6019546001848154811061221557612215614e00565b60009182526020909120600160039092020101546122369060ff1684614f55565b60ff166122439190614e58565b341461224e57600080fd5b600080546040516001600160a01b03909116913480156108fc02929091818181858888f19350505050158015612288573d6000803e3d6000fd5b50816001848154811061229d5761229d614e00565b6000918252602082206001600390920201018054909190611f1390849060ff16614ed7565b600181815481106122d257600080fd5b600091825260209091206003909102018054600182015460029092015490925060ff808316926101008104821692620100009091049091169085565b600e818154811061231e57600080fd5b60009182526020909120600290910201805460019091015490915061ffff81169062010000900460ff1683565b6060600060095467ffffffffffffffff81111561236a5761236a614b17565b6040519080825280602002602001820160405280156123b557816020015b60408051606081018252600080825260208083018290529282015282526000199092019101816123885790505b5090506000805b600f548110156116d5576000818152601860205260409020541561245c57600f81815481106123ed576123ed614e00565b6000918252602091829020604080516060810182526002909302909101805483526001015463ffffffff80821694840194909452640100000000900490921691810191909152838361243e81614fbb565b94508151811061245057612450614e00565b60200260200101819052505b8061246681614fbb565b9150506123bc565b6000612478613b79565b600c80546000918261248983614fbb565b909155506040805160608101825282815263ffffffff8781166020808401828152848601928352600f80546001810182556000918252955160029096027f8d1108e10bcb7c27dddfc02ed9d693a074039d026cf4ea4240b40f7d581ac80281019690965590517f8d1108e10bcb7c27dddfc02ed9d693a074039d026cf4ea4240b40f7d581ac8039095018054935185166401000000000267ffffffffffffffff1990941695909416949094179190911790915581546001600160a01b031682526015905290812080549293509061255f83614fbb565b9091555050600080548282526012602052604090912080546001600160a01b0319166001600160a01b0390921691909117905582156125aa5760008181526018602052604090208390555b90505b92915050565b60008181526011602052604090205481906001600160a01b031633146125d857600080fd5b60008381526010602052604090205483906001600160a01b031633146125fd57600080fd5b82600d858154811061261157612611614e00565b9060005260206000209060090201600201540361265e5760405162461bcd60e51b815260206004820152600b60248201526a73616d6520656e67696e6560a81b6044820152606401610f56565b600061266933612703565b905060005b81518110156126d2578482828151811061268a5761268a614e00565b602002602001015160400151036126c05760008282815181106126af576126af614e00565b602002602001015160400181815250505b806126ca81614fbb565b91505061266e565b5083600d86815481106126e7576126e7614e00565b9060005260206000209060090201600201819055505050505050565b6001600160a01b0381166000908152601360205260408120546060919067ffffffffffffffff81111561273857612738614b17565b60405190808252806020026020018201604052801561277157816020015b61275e614685565b8152602001906001900390816127565790505b5090506000805b600d54811015611ae4576000818152601060205260409020546001600160a01b038087169116036128e557600d81815481106127b6576127b6614e00565b9060005260206000209060090201604051806101200160405290816000820180546127e090614fd4565b80601f016020809104026020016040519081016040528092919081815260200182805461280c90614fd4565b80156128595780601f1061282e57610100808354040283529160200191612859565b820191906000526020600020905b81548152906001019060200180831161283c57829003601f168201915b5050509183525050600182015460208201526002820154604082015260038201546060820152600482015460ff166080820152600582015460a0820152600682015460c0820152600782015460e08201526008909101546101009091015283518490849081106128cb576128cb614e00565b602002602001018190525081806128e190614fbb565b9250505b806128ef81614fbb565b915050612778565b33600090815260208052604090205482146129445760405162461bcd60e51b815260206004820152600d60248201526c6e6f7420796f757220726f6f6d60981b6044820152606401610f56565b600082815260246020526040808220600201549051634e31f59760e11b815290919073__PDDLib________________________________90639c63eb2e906129929085908790600401615120565b602060405180830381865af41580156129af573d6000803e3d6000fd5b505050506040513d601f19601f820116820180604052508101906129d3919061516e565b604080516080810182523380825283151560208084019182524284860190815260009384526021825285842054606086019081528b855260248352958420600481018054600181810183558288529487208851600390920201805496511515600160a01b026001600160a81b03199097166001600160a01b03929092169190911795909517855591519284019290925594516002909201919091559088905280549254939450909290919003612aea576040518681527f67acaceb58ff1ad2aa8b3069f69c4cd076824e06a09184b75fb197ead7040be79060200160405180910390a16000868152602460209081526040808320600601805460ff1916600117905533835281805280832083905560219091528120555b505050505050565b60008181526011602052604090205481906001600160a01b03163314612b1757600080fd5b60008381526010602052604090205483906001600160a01b03163314612b3c57600080fd5b82600d8581548110612b5057612b50614e00565b90600052602060002090600902016002015414612ba85760405162461bcd60e51b8152602060048201526016602482015275195b99da5b99481a5cc81b9bdd08185d1d1858da195960521b6044820152606401610f56565b6000600d8581548110612bbd57612bbd614e00565b90600052602060002090600902016002018190555050505050565b6000612be2613b79565b600b805460009182612bf383614fbb565b909155506040805160608101825282815261ffff8089166020830190815260ff808a16948401948552600e80546001810182556000918252945160029095027fbb7b4a454dc3493923482f07822329ed19e8244eff582cc204f8554c3620c3fd81019590955591517fbb7b4a454dc3493923482f07822329ed19e8244eff582cc204f8554c3620c3fe90940180549551909116620100000262ffffff19909516939092169290921792909217909155909150601490612cba6000546001600160a01b031690565b6001600160a01b0316815260208101919091526040016000908120805491612ce183614fbb565b9091555050600080548282526011602052604090912080546001600160a01b0319166001600160a01b039092169190911790558215612d2c5760008181526017602052604090208390555b949350505050565b60008281526012602052604090205482906001600160a01b03163314612d6c5760405162461bcd60e51b8152600401610f5690614dd2565b60008211612d8c5760405162461bcd60e51b8152600401610f56906150f9565b6000838152601860205260408120549003612db75760098054906000612db183614fbb565b91905055505b5060009182526018602052604090912055565b60008281526010602052604090205482906001600160a01b03163314612def57600080fd5b60008211612e0f5760405162461bcd60e51b8152600401610f56906150f9565b6000838152601660205260408120549003612e3a5760088054906000612e3483614fbb565b91905055505b5060009182526016602052604090912055565b60008181526012602052604090205481906001600160a01b03163314612e855760405162461bcd60e51b8152600401610f5690614dd2565b60008381526010602052604090205483906001600160a01b03163314612eaa57600080fd5b82600d8581548110612ebe57612ebe614e00565b90600052602060002090600902016003015403612f0c5760405162461bcd60e51b815260206004820152600c60248201526b73616d65206368617373697360a01b6044820152606401610f56565b6000612f1733612703565b905060005b8151811015612f805784828281518110612f3857612f38614e00565b60200260200101516060015103612f6e576000828281518110612f5d57612f5d614e00565b602002602001015160600181815250505b80612f7881614fbb565b915050612f1c565b5083600d8681548110612f9557612f95614e00565b9060005260206000209060090201600301819055505050505050565b3360009081526013602052604090205415612fcb57600080fd5b600081612fd742614046565b604051602001612fe8929190615190565b604051602081830303815290604052905060008160405160200161300c91906151b6565b6040516020818303038152906040528051906020012060001c905060006130316140d9565b9050600061303d61420d565b600d80546040805161012081018252898152602080820189905291810187905260608101859052600160808201819052600060a0830181905260c0830181905260e083018190526101008301859052908401855593909352825180519495509193600985027fd7b6990105719101dabeb77144f2a3385c8033acd3af97e9423a695e81ad1eb501926130d39284929101906146d4565b506020828101516001830155604080840151600284015560608401516003840155608084015160048401805460ff191660ff90921691909117905560a0840151600584015560c0840151600684015560e08401516007840155610100909301516008909201919091556000838152601082528281208054336001600160a01b031990911681179091558152601390915290812080549161317283614fbb565b9190505550505050505050565b613187613b79565b6001600160a01b0381166131ec5760405162461bcd60e51b815260206004820152602660248201527f4f776e61626c653a206e6577206f776e657220697320746865207a65726f206160448201526564647265737360d01b6064820152608401610f56565b6131f581613d75565b50565b6025546001600160a01b031633146132525760405162461bcd60e51b815260206004820152601d60248201527f796f7520617265206e6f742063686173736973206f776e6572736869700000006044820152606401610f56565b6000818152601260205260409020546001600160a01b0384811691161461327857600080fd5b611fd3838383614341565b600d818154811061329357600080fd5b90600052602060002090600902016000915090508060000180546132b690614fd4565b80601f01602080910402602001604051908101604052809291908181526020018280546132e290614fd4565b801561332f5780601f106133045761010080835404028352916020019161332f565b820191906000526020600020905b81548152906001019060200180831161331257829003601f168201915b50505060018401546002850154600386015460048701546005880154600689015460078a01546008909a01549899959894975092955060ff90911693909289565b60008281526011602052604090205482906001600160a01b0316331461339557600080fd5b601b54600e84815481106133ab576133ab614e00565b60009182526020909120600160029092020101546133d09061ffff1660ff85166151d2565b61ffff166133de9190614e58565b34146133e957600080fd5b600080546040516001600160a01b03909116913480156108fc02929091818181858888f19350505050158015613423573d6000803e3d6000fd5b508160ff16600e848154811061343b5761343b614e00565b600091825260208220600160029092020101805490919061346190849061ffff166151f3565b92506101000a81548161ffff021916908361ffff160217905550505050565b60008181526010602052604090205481906001600160a01b031633146134a557600080fd5b6000805b60235481101561382f57602381815481106134c6576134c6614e00565b906000526020600020906006020160020154600a600d86815481106134ed576134ed614e00565b600091825260209091206004600990920201015461350e919060ff16614eb5565b613519906001614ed7565b60ff160361381d57600191506023818154811061353857613538614e00565b6000918252602080832060069092029091015433835281805260408084209190915560219091529020849055602380548290811061357857613578614e00565b60009182526020822060016006909202010180549161359683614fbb565b9190505550602381815481106135ae576135ae614e00565b906000526020600020906006020160030160000154602382815481106135d6576135d6614e00565b9060005260206000209060060201600101540361381d57600073__PDDLib________________________________63c037e5456023848154811061361c5761361c614e00565b9060005260206000209060060201600301600201546023858154811061364457613644614e00565b9060005260206000209060060201600301600001546040518363ffffffff1660e01b815260040161367f929190918252602082015260400190565b602060405180830381865af415801561369c573d6000803e3d6000fd5b505050506040513d601f19601f820116820180604052508101906136c09190615210565b9050600060246000602385815481106136db576136db614e00565b906000526020600020906006020160000154815260200190815260200160002090506023838154811061371057613710614e00565b60009182526020909120600360069092020101548155602380548490811061373a5761373a614e00565b6000918252602082206006918202016002908101546001850155830184905542600384015560058301919091558101805460ff19169055602380547f2838ebeee7dc83fac85a3d6dbca0c0b6771591ada8b00f97371aa6611e631f9c9190859081106137a8576137a8614e00565b600091825260209182902060069091020154604080519182529181018590520160405180910390a1602383815481106137e3576137e3614e00565b60009182526020822060069091020181815560018101829055600281018290556003810182905560048101829055600501555061382f9050565b8061382781614fbb565b9150506134a9565b50801561383b57505050565b602280546000918261384c83614fbb565b90915550601f549091506000906138639042615229565b90508160206000336001600160a01b03166001600160a01b03168152602001908152602001600020819055506023604051806080016040528084815260200160018152602001600a600d89815481106138be576138be614e00565b60009182526020909120600460099092020101546138df919060ff16614eb5565b6138ea906001614ed7565b60ff168152602001601f848154811061390557613905614e00565b60009182526020808320604080516060808201835260039586029093018054825260018082015483870152600291820154838501529190975288548082018a5598865294839020875160069099020197885586830151948801949094558584015194870194909455939092015180519285019290925591810151600484015501516005909101555050505050565b61399b613b79565b6000866139a742614046565b6040516020016139b8929190615190565b60405160208183030381529060405290506000816040516020016139dc91906151b6565b6040516020818303038152906040528051906020012060001c90506000613a0588886000612bd8565b90506000613a1487600061246e565b600d805460408051610120810182528e815260208082018990529181018790526060810185905260ff8b166080820152600060a0820181905260c0820181905260e08201819052610100820184905260018401855593909352825180519495509193600985027fd7b6990105719101dabeb77144f2a3385c8033acd3af97e9423a695e81ad1eb50192613aab9284929101906146d4565b506020828101516001830155604080840151600284015560608401516003840155608084015160048401805460ff90921660ff1990921691909117905560a0840151600584015560c0840151600684015560e0840151600784015561010090930151600890920191909155600080548482526010835283822080546001600160a01b0319166001600160a01b0392831617905581541681526013909152908120805491613b5783614fbb565b9091555050600090815260166020526040902094909455505050505050505050565b6000546001600160a01b03163314611aff5760405162461bcd60e51b815260206004820181905260248201527f4f776e61626c653a2063616c6c6572206973206e6f7420746865206f776e65726044820152606401610f56565b6000828152601060205260408120548190613bf6906001600160a01b0316611751565b9050613c058160000151614438565b6000600d8581548110613c1a57613c1a614e00565b9060005260206000209060090201600201549050600060019050600a85600e8481548110613c4a57613c4a614e00565b906000526020600020906002020160010160029054906101000a900460ff16613c739190614f55565b60ff1610613cc457600a600e8381548110613c9057613c90614e00565b6000918252602090912060029091020160010154613cb79062010000900460ff1687614f55565b613cc19190614eb5565b90505b8060ff166001846000015181548110613cdf57613cdf614e00565b600091825260209091206003909102016001015462010000900460ff1610613d6957806001846000015181548110613d1957613d19614e00565b906000526020600020906003020160010160028282829054906101000a900460ff16613d459190614f32565b92506101000a81548160ff021916908360ff160217905550600193505050506125ad565b600093505050506125ad565b600080546001600160a01b038381166001600160a01b0319831681178455604051919092169283917f8be0079c531659141344cd1fd0a4f28419497f9722a3daafe3b4186f6b6457e09190a35050565b6001600160a01b038316600090815260136020526040902054613e205760405162461bcd60e51b815260206004820152601360248201527234ba1034b9903cb7bab9103630b9ba1031b0b960691b6044820152606401610f56565b600d8181548110613e3357613e33614e00565b906000526020600020906009020160030154600014613e77576000600d8281548110613e6157613e61614e00565b9060005260206000209060090201600301819055505b600d8181548110613e8a57613e8a614e00565b906000526020600020906009020160020154600014613ece576000600d8281548110613eb857613eb8614e00565b9060005260206000209060090201600201819055505b6001600160a01b0382166000908152601360205260408120805491613ef283614fbb565b90915550506001600160a01b0383166000908152601360205260408120805491613f1b83614f1b565b9091555050600090815260106020526040902080546001600160a01b0319166001600160a01b039290921691909117905550565b6000613f5a84612703565b905060005b8151811015613fc35782828281518110613f7b57613f7b614e00565b60200260200101516040015103613fb1576000828281518110613fa057613fa0614e00565b602002602001015160400181815250505b80613fbb81614fbb565b915050613f5f565b506001600160a01b0383166000908152601460205260408120805491613fe883614fbb565b90915550506001600160a01b038416600090815260146020526040812080549161401183614f1b565b909155505050600090815260116020526040902080546001600160a01b0319166001600160a01b039290921691909117905550565b6060600061405383614597565b600101905060008167ffffffffffffffff81111561407357614073614b17565b6040519080825280601f01601f19166020018201604052801561409d576020820181803683370190505b5090508181016020015b600019016f181899199a1a9b1b9c1cb0b131b232b360811b600a86061a8153600a85049450846140a757509392505050565b6000806003546004546140ec919061523d565b6140f69042615229565b6003546141039190614fa3565b600b8054919250600091908261411883614fbb565b909155506040805160608101825282815261ffff808616602080840191825260055460ff908116858701908152600e80546001810182556000918252965160029097027fbb7b4a454dc3493923482f07822329ed19e8244eff582cc204f8554c3620c3fd81019790975593517fbb7b4a454dc3493923482f07822329ed19e8244eff582cc204f8554c3620c3fe90960180549151909216620100000262ffffff19909116959094169490941792909217909255338252601490529081208054929350906141e483614fbb565b9091555050600081815260116020526040902080546001600160a01b0319163317905592915050565b600080600654600754614220919061523d565b61422a9042615229565b6006546142379190614fa3565b600c8054919250600091908261424c83614fbb565b909155506040805160608101825282815263ffffffff8086166020808401828152848601928352600f80546001810182556000918252955160029096027f8d1108e10bcb7c27dddfc02ed9d693a074039d026cf4ea4240b40f7d581ac80281019690965590517f8d1108e10bcb7c27dddfc02ed9d693a074039d026cf4ea4240b40f7d581ac8039095018054935185166401000000000267ffffffffffffffff199094169590941694909417919091179091553382526015905290812080549293509061431883614fbb565b9091555050600081815260126020526040902080546001600160a01b0319163317905592915050565b6001600160a01b038216600090815260156020526040812080549161436583614fbb565b90915550506001600160a01b038316600090815260156020526040812080549161438e83614f1b565b9190505550600061439e84612703565b905060005b815181101561440757828282815181106143bf576143bf614e00565b602002602001015160600151036143f55760008282815181106143e4576143e4614e00565b602002602001015160600181815250505b806143ff81614fbb565b9150506143a3565b5050600090815260126020526040902080546001600160a01b0319166001600160a01b039290921691909117905550565b60004290506000610e106001848154811061445557614455614e00565b90600052602060002090600302016002015483614472919061523d565b61447c9190615254565b905060006001848154811061449357614493614e00565b60009182526020909120600390910201600101546144b990610100900460ff1683614e58565b600185815481106144cc576144cc614e00565b60009182526020909120600390910201600101546144f3919062010000900460ff16614fa3565b905061452c6001858154811061450b5761450b614e00565b600091825260209091206001600390920201015460ff90811690831661466f565b6001858154811061453f5761453f614e00565b906000526020600020906003020160010160026101000a81548160ff021916908360ff160217905550826001858154811061457c5761457c614e00565b90600052602060002090600302016002018190555050505050565b60008072184f03e93ff9f4daa797ed6e38ed64bf6a1f0160401b83106145d65772184f03e93ff9f4daa797ed6e38ed64bf6a1f0160401b830492506040015b6d04ee2d6d415b85acef81000000008310614602576d04ee2d6d415b85acef8100000000830492506020015b662386f26fc10000831061462057662386f26fc10000830492506010015b6305f5e1008310614638576305f5e100830492506008015b612710831061464c57612710830492506004015b6064831061465e576064830492506002015b600a83106125ad5760010192915050565b600081831061467e57816125aa565b5090919050565b60405180610120016040528060608152602001600081526020016000815260200160008152602001600060ff168152602001600081526020016000815260200160008152602001600081525090565b8280546146e090614fd4565b90600052602060002090601f0160209004810192826147025760008555614748565b82601f1061471b57805160ff1916838001178555614748565b82800160010185558215614748579182015b8281111561474857825182559160200191906001019061472d565b50614754929150614758565b5090565b5b808211156147545760008155600101614759565b60006020828403121561477f57600080fd5b5035919050565b803560ff8116811461479757600080fd5b919050565b600080604083850312156147af57600080fd5b823591506147bf60208401614786565b90509250929050565b80356001600160a01b038116811461479757600080fd5b6000806000606084860312156147f457600080fd5b6147fd846147c8565b925061480b602085016147c8565b9150614819604085016147c8565b90509250925092565b60006020828403121561483457600080fd5b6125aa826147c8565b602080825282518282018190526000919060409081850190868401855b8281101561489f57815180516001600160a01b03168552868101511515878601528581015186860152606090810151908501526080909301929085019060010161485a565b5091979650505050505050565b602080825282518282018190526000919060409081850190868401855b8281101561489f578151805185528681015161ffff168786015285015160ff1685850152606090930192908501906001016148c9565b6000806040838503121561491257600080fd5b50508035926020909101359150565b602080825282518282018190526000919060409081850190868401855b8281101561489f578151805185528681015163ffffffff908116888701529086015116858501526060909301929085019060010161493e565b60005b8381101561499257818101518382015260200161497a565b838111156149a1576000848401525b50505050565b600081518084526149bf816020860160208601614977565b601f01601f19169290920160200192915050565b60006020808301818452808551808352604092508286019150828160051b87010184880160005b83811015614a8f57603f1989840301855281516101208151818652614a21828701826149a7565b915050888201518986015287820151888601526060808301518187015250608080830151614a538288018260ff169052565b505060a0828101519086015260c0808301519086015260e0808301519086015261010091820151919094015293860193908601906001016149fa565b509098975050505050505050565b600080600060608486031215614ab257600080fd5b614abb846147c8565b9250614ac9602085016147c8565b9150604084013590509250925092565b803563ffffffff8116811461479757600080fd5b60008060408385031215614b0057600080fd5b614b0983614ad9565b946020939093013593505050565b634e487b7160e01b600052604160045260246000fd5b604051601f8201601f1916810167ffffffffffffffff81118282101715614b5657614b56614b17565b604052919050565b60008060408385031215614b7157600080fd5b8235915060208084013567ffffffffffffffff80821115614b9157600080fd5b818601915086601f830112614ba557600080fd5b813581811115614bb757614bb7614b17565b8060051b9150614bc8848301614b2d565b8181529183018401918481019089841115614be257600080fd5b938501935b83851015614c0057843582529385019390850190614be7565b8096505050505050509250929050565b803561ffff8116811461479757600080fd5b600080600060608486031215614c3757600080fd5b614c4084614c10565b9250614ac960208501614786565b600082601f830112614c5f57600080fd5b813567ffffffffffffffff811115614c7957614c79614b17565b614c8c601f8201601f1916602001614b2d565b818152846020838601011115614ca157600080fd5b816020850160208301376000918101602001919091529392505050565b600060208284031215614cd057600080fd5b813567ffffffffffffffff811115614ce757600080fd5b612d2c84828501614c4e565b6000610120808352614d078184018d6149a7565b602084019b909b5250506040810197909752606087019590955260ff93909316608086015260a085019190915260c084015260e083015261010090910152919050565b60008060008060008060c08789031215614d6357600080fd5b863567ffffffffffffffff811115614d7a57600080fd5b614d8689828a01614c4e565b965050614d9560208801614c10565b9450614da360408801614786565b9350614db160608801614ad9565b9250614dbf60808801614786565b915060a087013590509295509295509295565b6020808252601490820152730c6d0c2e6e6d2e640dcdee840f2deeae4407c74560631b604082015260600190565b634e487b7160e01b600052603260045260246000fd5b634e487b7160e01b600052601160045260246000fd5b600063ffffffff80831681851681830481118215151615614e4f57614e4f614e16565b02949350505050565b6000816000190483118215151615614e7257614e72614e16565b500290565b600063ffffffff808316818516808303821115614e9657614e96614e16565b01949350505050565b634e487b7160e01b600052601260045260246000fd5b600060ff831680614ec857614ec8614e9f565b8060ff84160491505092915050565b600060ff821660ff84168060ff03821115614ef457614ef4614e16565b019392505050565b600060ff821660ff8103614f1257614f12614e16565b60010192915050565b600081614f2a57614f2a614e16565b506000190190565b600060ff821660ff841680821015614f4c57614f4c614e16565b90039392505050565b600060ff821660ff84168160ff0481118215151615614f7657614f76614e16565b029392505050565b600063ffffffff83811690831681811015614f9b57614f9b614e16565b039392505050565b60008219821115614fb657614fb6614e16565b500190565b600060018201614fcd57614fcd614e16565b5060010190565b600181811c90821680614fe857607f821691505b60208210810361500857634e487b7160e01b600052602260045260246000fd5b50919050565b600181815b8085111561504957816000190482111561502f5761502f614e16565b8085161561503c57918102915b93841c9390800290615013565b509250929050565b600082615060575060016125ad565b8161506d575060006125ad565b8160018114615083576002811461508d576150a9565b60019150506125ad565b60ff84111561509e5761509e614e16565b50506001821b6125ad565b5060208310610133831016604e8410600b84101617156150cc575081810a6125ad565b6150d6838361500e565b8060001904821115614f7657614f76614e16565b60006125aa60ff841683615051565b6020808252600d908201526c696e76616c696420707269636560981b604082015260600190565b6000604082018483526020604081850152818551808452606086019150828701935060005b8181101561516157845183529383019391830191600101615145565b5090979650505050505050565b60006020828403121561518057600080fd5b815180151581146125aa57600080fd5b600083516151a2818460208801614977565b835190830190614e96818360208801614977565b600082516151c8818460208701614977565b9190910192915050565b600061ffff80831681851681830481118215151615614e4f57614e4f614e16565b600061ffff808316818516808303821115614e9657614e96614e16565b60006020828403121561522257600080fd5b5051919050565b60008261523857615238614e9f565b500690565b60008282101561524f5761524f614e16565b500390565b60008261526357615263614e9f565b50049056fea2646970667358221220443e21f6fe5221f5b7e3acd28c3c31977bd2a71406b0a0ba072f74dbaf31e11264736f6c634300080d0033",
  "immutableReferences": {},
  "source": "// SPDX-License-Identifier: MIT\npragma solidity ^0.8.13;\n\nimport \"./CarRacing.sol\";\n\ncontract TokenOwnership is CarRacing{\n\n\n    address chassisOwnership;\n    address engineOwnership;\n    address carOwnership;\n\n    // constructor(address _chassisOwnership, address _engineOwnership, address _carOwnership){\n    //     chassisOwnership = _chassisOwnership;\n    //     engineOwnership = _engineOwnership;\n    //     carOwnership = _carOwnership;\n    // }\n    function init(address _chassisOwnership, address _engineOwnership, address _carOwnership) public onlyOwner{\n        chassisOwnership = _chassisOwnership;\n        engineOwnership = _engineOwnership;\n        carOwnership = _carOwnership;\n    }\n\n    function balanceOfCars(address _owner) external view returns (uint256) {\n        return ownerCarCount[_owner];\n    }\n    function ownerOfCar(uint256 _tokenId) external view returns(address) {\n        return carToOwner[_tokenId];\n    }\n    function _transferCar(address _from, address _to, uint256 _tokenId) private {\n        require(ownerCarCount[_from]>0, \"it is your last car\");\n        if(cars[_tokenId].chassisId != 0){\n            cars[_tokenId].chassisId = 0;\n        }\n        if(cars[_tokenId].engineId != 0){\n            cars[_tokenId].engineId = 0;\n        }\n        ownerCarCount[_to]++;// = ownerCarCount[_to].add(1);\n        ownerCarCount[_from]--;// = ownerCarCount[_from].sub(1);\n        carToOwner[_tokenId] = _to;\n    }\n    function transferCarFrom(address _from, address _to, uint256 _tokenId) external payable {\n        require(msg.sender == carOwnership, \"you are not car ownership\");\n        require (carToOwner[_tokenId] == _from || carToPrice[_tokenId] != 0);\n        _transferCar(_from, _to, _tokenId);\n    }\n\n\n    function balanceOfEngines(address _owner) external view returns (uint256) {\n        return ownerEngineCount[_owner];\n    }\n    function ownerOfEngine(uint256 _tokenId) external view returns(address) {\n        return engineToOwner[_tokenId];\n    }\n    function _transferEngine(address _from, address _to, uint256 _tokenId) private {\n        Car[] memory cars = getCarsByOwner(_from);\n        \n        for(uint i = 0; i<cars.length; i++){\n            if(cars[i].engineId == _tokenId){\n                cars[i].engineId = 0;\n            }\n        }\n        ownerEngineCount[_to]++;// = ownerEngineCount[_to].add(1);\n        ownerEngineCount[_from]--;// = ownerEngineCount[_from].sub(1);\n        engineToOwner[_tokenId] = _to;\n    }\n    function transferEngineFrom(address _from, address _to, uint256 _tokenId) external payable {\n        require(msg.sender == engineOwnership, \"you are not engine ownership\");\n        require (engineToOwner[_tokenId] == _from);\n        _transferEngine(_from, _to, _tokenId);\n    }\n\n    \n    function balanceOfChassis(address _owner) external view returns (uint256) {\n        return ownerChassisCount[_owner];\n    }\n    function ownerOfChassis(uint256 _tokenId) external view returns(address) {\n        return chassisToOwner[_tokenId];\n    }\n    function _transferChassis(address _from, address _to, uint256 _tokenId) private {\n        ownerChassisCount[_to]++;// = ownerChassisCount[_to].add(1);\n        ownerChassisCount[_from]--;// = ownerChassisCount[_from].sub(1);\n        Car[] memory cars = getCarsByOwner(_from);\n        for(uint i = 0; i<cars.length; i++){\n            if(cars[i].chassisId == _tokenId){\n                cars[i].chassisId = 0;\n            }\n        }\n        chassisToOwner[_tokenId] = _to;\n    }\n    function transferChassisFrom(address _from, address _to, uint256 _tokenId) external {\n        require(msg.sender == chassisOwnership, \"you are not chassis ownership\");\n        require (chassisToOwner[_tokenId] == _from);\n        _transferChassis(_from, _to, _tokenId);\n    }\n\n\n    function putChassisOnMarketplace(uint chassisId, uint price) public onlyOwnerOfChassis(chassisId){\n        require(price>0, \"invalid price\");\n        if(chassisToPrice[chassisId]==0){\n            chassisForSaleCount++;\n        }\n        chassisToPrice[chassisId] = price;\n    }\n    function removeChassisFromMarketplace(uint chassisId) public onlyOwnerOfChassis(chassisId){\n        if(chassisToPrice[chassisId]!=0){\n            chassisForSaleCount--;\n        }\n        chassisToPrice[chassisId] = 0;\n    }\n\n    function putEngineOnMarketplace(uint engineId, uint price) public onlyOwnerOfEngine(engineId){\n        require(price>0, \"invalid price\");\n        if(engineToPrice[engineId]==0){\n            enginesForSaleCount++;\n        }\n        engineToPrice[engineId] = price;\n    }\n    function removeEngineFromMarketplace(uint engineId) public onlyOwnerOfEngine(engineId){\n        if(engineToPrice[engineId]!=0){\n            enginesForSaleCount--;\n        }\n        engineToPrice[engineId] = 0;\n    }\n\n    function putCarOnMarketplace(uint carId, uint price) public onlyOwnerOfCar(carId){\n        require(price>0, \"invalid price\");\n        if(carToPrice[carId]==0){\n            carsForSaleCount++;\n        }\n        carToPrice[carId] = price;\n    }\n    function removeCarFromMarketplace(uint carId) public onlyOwnerOfCar(carId){\n        if(carToPrice[carId]!=0){\n            carsForSaleCount--;\n        }\n        carToPrice[carId] = 0;\n    }\n\n\n    function getCarsForSale() public view returns(Car[] memory){\n        Car[] memory res = new Car[](carsForSaleCount);\n        uint c = 0;\n        for(uint i = 0; i<cars.length; i++){\n            if(carToPrice[i]!=0){\n                res[c++] = cars[i];\n            }\n        }\n        return res;\n    }\n\n    function getEnginesForSale() public view returns(Engine[] memory){\n        Engine[] memory res = new Engine[](enginesForSaleCount);\n        uint c = 0;\n        for(uint i = 0; i<engines.length; i++){\n            if(engineToPrice[i]!=0){\n                res[c++] = engines[i];\n            }\n        }\n        return res;\n    }\n\n    function getChassisForSale() public view returns(Chassis[] memory){\n        Chassis[] memory res = new Chassis[](chassisForSaleCount);\n        uint c = 0;\n        for(uint i = 0; i<chassis.length; i++){\n            if(chassisToPrice[i]!=0){\n                res[c++] = chassis[i];\n            }\n        }\n        return res;\n    }\n\n}",
  "sourcePath": "/Users/vvan/Programming/JavaScript/DriveSafely/contract/contracts/TokenOwnership.sol",
  "compiler": {
    "name": "solc",
    "version": "0.8.13+commit.abaa5c0e.Emscripten.clang"
  },
  "schemaVersion": "3.4.11",
  "updatedAt": "2023-01-11T13:50:04.648Z",
  "networkType": "ethereum",
  "devdoc": {
    "kind": "dev",
    "methods": {
      "owner()": {
        "details": "Returns the address of the current owner."
      },
      "renounceOwnership()": {
        "details": "Leaves the contract without owner. It will not be possible to call `onlyOwner` functions anymore. Can only be called by the current owner. NOTE: Renouncing ownership will leave the contract without an owner, thereby removing any functionality that is only available to the owner."
      },
      "transferOwnership(address)": {
        "details": "Transfers ownership of the contract to a new account (`newOwner`). Can only be called by the current owner."
      }
    },
    "version": 1
  },
  "userdoc": {
    "kind": "user",
    "methods": {},
    "version": 1
  }
}