{
  "contractName": "TokenOwnership",
  "abi": [
    {
      "anonymous": false,
      "inputs": [
        {
          "indexed": true,
          "internalType": "address",
          "name": "previousOwner",
          "type": "address"
        },
        {
          "indexed": true,
          "internalType": "address",
          "name": "newOwner",
          "type": "address"
        }
      ],
      "name": "OwnershipTransferred",
      "type": "event"
    },
    {
      "anonymous": false,
      "inputs": [
        {
          "indexed": false,
          "internalType": "uint256",
          "name": "roomId",
          "type": "uint256"
        }
      ],
      "name": "RoomClosed",
      "type": "event"
    },
    {
      "anonymous": false,
      "inputs": [
        {
          "indexed": false,
          "internalType": "uint256",
          "name": "roomId",
          "type": "uint256"
        },
        {
          "indexed": false,
          "internalType": "uint256",
          "name": "roomDNA",
          "type": "uint256"
        }
      ],
      "name": "RoomFull",
      "type": "event"
    },
    {
      "inputs": [
        {
          "internalType": "uint256",
          "name": "",
          "type": "uint256"
        }
      ],
      "name": "carToOwner",
      "outputs": [
        {
          "internalType": "address",
          "name": "",
          "type": "address"
        }
      ],
      "stateMutability": "view",
      "type": "function",
      "constant": true
    },
    {
      "inputs": [
        {
          "internalType": "uint256",
          "name": "",
          "type": "uint256"
        }
      ],
      "name": "carToPrice",
      "outputs": [
        {
          "internalType": "uint256",
          "name": "",
          "type": "uint256"
        }
      ],
      "stateMutability": "view",
      "type": "function",
      "constant": true
    },
    {
      "inputs": [
        {
          "internalType": "uint256",
          "name": "",
          "type": "uint256"
        }
      ],
      "name": "cars",
      "outputs": [
        {
          "internalType": "string",
          "name": "model",
          "type": "string"
        },
        {
          "internalType": "uint256",
          "name": "vin",
          "type": "uint256"
        },
        {
          "internalType": "uint256",
          "name": "engineId",
          "type": "uint256"
        },
        {
          "internalType": "uint256",
          "name": "chassisId",
          "type": "uint256"
        },
        {
          "internalType": "uint8",
          "name": "carLevel",
          "type": "uint8"
        },
        {
          "internalType": "uint256",
          "name": "mileage",
          "type": "uint256"
        },
        {
          "internalType": "uint256",
          "name": "winCountOnCurrentLevel",
          "type": "uint256"
        },
        {
          "internalType": "uint256",
          "name": "lossCountOnCurrentLevel",
          "type": "uint256"
        },
        {
          "internalType": "uint256",
          "name": "id",
          "type": "uint256"
        }
      ],
      "stateMutability": "view",
      "type": "function",
      "constant": true
    },
    {
      "inputs": [],
      "name": "carsForSaleCount",
      "outputs": [
        {
          "internalType": "uint256",
          "name": "",
          "type": "uint256"
        }
      ],
      "stateMutability": "view",
      "type": "function",
      "constant": true
    },
    {
      "inputs": [
        {
          "internalType": "uint256",
          "name": "",
          "type": "uint256"
        }
      ],
      "name": "chassis",
      "outputs": [
        {
          "internalType": "uint256",
          "name": "id",
          "type": "uint256"
        },
        {
          "internalType": "uint32",
          "name": "durability",
          "type": "uint32"
        },
        {
          "internalType": "uint32",
          "name": "resource",
          "type": "uint32"
        }
      ],
      "stateMutability": "view",
      "type": "function",
      "constant": true
    },
    {
      "inputs": [],
      "name": "chassisForSaleCount",
      "outputs": [
        {
          "internalType": "uint256",
          "name": "",
          "type": "uint256"
        }
      ],
      "stateMutability": "view",
      "type": "function",
      "constant": true
    },
    {
      "inputs": [
        {
          "internalType": "uint256",
          "name": "",
          "type": "uint256"
        }
      ],
      "name": "chassisToOwner",
      "outputs": [
        {
          "internalType": "address",
          "name": "",
          "type": "address"
        }
      ],
      "stateMutability": "view",
      "type": "function",
      "constant": true
    },
    {
      "inputs": [
        {
          "internalType": "uint256",
          "name": "",
          "type": "uint256"
        }
      ],
      "name": "chassisToPrice",
      "outputs": [
        {
          "internalType": "uint256",
          "name": "",
          "type": "uint256"
        }
      ],
      "stateMutability": "view",
      "type": "function",
      "constant": true
    },
    {
      "inputs": [
        {
          "internalType": "uint256",
          "name": "roomId",
          "type": "uint256"
        },
        {
          "internalType": "uint256[]",
          "name": "answer",
          "type": "uint256[]"
        }
      ],
      "name": "commitAnswer",
      "outputs": [],
      "stateMutability": "nonpayable",
      "type": "function"
    },
    {
      "inputs": [
        {
          "internalType": "string",
          "name": "model",
          "type": "string"
        }
      ],
      "name": "createCar",
      "outputs": [],
      "stateMutability": "nonpayable",
      "type": "function"
    },
    {
      "inputs": [
        {
          "internalType": "string",
          "name": "_model",
          "type": "string"
        },
        {
          "internalType": "uint16",
          "name": "_horsePowers",
          "type": "uint16"
        },
        {
          "internalType": "uint8",
          "name": "_consumtion",
          "type": "uint8"
        },
        {
          "internalType": "uint32",
          "name": "_durability",
          "type": "uint32"
        },
        {
          "internalType": "uint8",
          "name": "_carLevel",
          "type": "uint8"
        },
        {
          "internalType": "uint256",
          "name": "_carPrice",
          "type": "uint256"
        }
      ],
      "name": "createCustomCar",
      "outputs": [],
      "stateMutability": "nonpayable",
      "type": "function"
    },
    {
      "inputs": [
        {
          "internalType": "uint32",
          "name": "_durability",
          "type": "uint32"
        },
        {
          "internalType": "uint256",
          "name": "_chassisPrice",
          "type": "uint256"
        }
      ],
      "name": "createCustomChassis",
      "outputs": [
        {
          "internalType": "uint256",
          "name": "",
          "type": "uint256"
        }
      ],
      "stateMutability": "nonpayable",
      "type": "function"
    },
    {
      "inputs": [
        {
          "internalType": "uint16",
          "name": "_horsePowers",
          "type": "uint16"
        },
        {
          "internalType": "uint8",
          "name": "_consumtion",
          "type": "uint8"
        },
        {
          "internalType": "uint256",
          "name": "_enginePrice",
          "type": "uint256"
        }
      ],
      "name": "createCustomEngine",
      "outputs": [
        {
          "internalType": "uint256",
          "name": "",
          "type": "uint256"
        }
      ],
      "stateMutability": "nonpayable",
      "type": "function"
    },
    {
      "inputs": [],
      "name": "createFuelStation",
      "outputs": [],
      "stateMutability": "nonpayable",
      "type": "function"
    },
    {
      "inputs": [
        {
          "internalType": "uint256",
          "name": "carId",
          "type": "uint256"
        },
        {
          "internalType": "uint256",
          "name": "chassisId",
          "type": "uint256"
        }
      ],
      "name": "detachChassis",
      "outputs": [],
      "stateMutability": "nonpayable",
      "type": "function"
    },
    {
      "inputs": [
        {
          "internalType": "uint256",
          "name": "carId",
          "type": "uint256"
        },
        {
          "internalType": "uint256",
          "name": "engineId",
          "type": "uint256"
        }
      ],
      "name": "detachEngine",
      "outputs": [],
      "stateMutability": "nonpayable",
      "type": "function"
    },
    {
      "inputs": [
        {
          "internalType": "uint256",
          "name": "",
          "type": "uint256"
        }
      ],
      "name": "engineToOwner",
      "outputs": [
        {
          "internalType": "address",
          "name": "",
          "type": "address"
        }
      ],
      "stateMutability": "view",
      "type": "function",
      "constant": true
    },
    {
      "inputs": [
        {
          "internalType": "uint256",
          "name": "",
          "type": "uint256"
        }
      ],
      "name": "engineToPrice",
      "outputs": [
        {
          "internalType": "uint256",
          "name": "",
          "type": "uint256"
        }
      ],
      "stateMutability": "view",
      "type": "function",
      "constant": true
    },
    {
      "inputs": [
        {
          "internalType": "uint256",
          "name": "",
          "type": "uint256"
        }
      ],
      "name": "engines",
      "outputs": [
        {
          "internalType": "uint256",
          "name": "id",
          "type": "uint256"
        },
        {
          "internalType": "uint16",
          "name": "horsePowers",
          "type": "uint16"
        },
        {
          "internalType": "uint8",
          "name": "consumtion",
          "type": "uint8"
        }
      ],
      "stateMutability": "view",
      "type": "function",
      "constant": true
    },
    {
      "inputs": [],
      "name": "enginesForSaleCount",
      "outputs": [
        {
          "internalType": "uint256",
          "name": "",
          "type": "uint256"
        }
      ],
      "stateMutability": "view",
      "type": "function",
      "constant": true
    },
    {
      "inputs": [
        {
          "internalType": "address",
          "name": "user",
          "type": "address"
        },
        {
          "internalType": "uint256",
          "name": "carId",
          "type": "uint256"
        }
      ],
      "name": "findRoom",
      "outputs": [],
      "stateMutability": "nonpayable",
      "type": "function"
    },
    {
      "inputs": [
        {
          "internalType": "uint256",
          "name": "",
          "type": "uint256"
        }
      ],
      "name": "fuelStationToOwner",
      "outputs": [
        {
          "internalType": "address",
          "name": "",
          "type": "address"
        }
      ],
      "stateMutability": "view",
      "type": "function",
      "constant": true
    },
    {
      "inputs": [
        {
          "internalType": "uint256",
          "name": "_fuelStatonId",
          "type": "uint256"
        },
        {
          "internalType": "uint8",
          "name": "_counts",
          "type": "uint8"
        }
      ],
      "name": "getCapacityUpgradeCost",
      "outputs": [
        {
          "internalType": "uint256",
          "name": "",
          "type": "uint256"
        }
      ],
      "stateMutability": "view",
      "type": "function",
      "constant": true
    },
    {
      "inputs": [
        {
          "internalType": "address",
          "name": "_owner",
          "type": "address"
        }
      ],
      "name": "getCarsByOwner",
      "outputs": [
        {
          "components": [
            {
              "internalType": "string",
              "name": "model",
              "type": "string"
            },
            {
              "internalType": "uint256",
              "name": "vin",
              "type": "uint256"
            },
            {
              "internalType": "uint256",
              "name": "engineId",
              "type": "uint256"
            },
            {
              "internalType": "uint256",
              "name": "chassisId",
              "type": "uint256"
            },
            {
              "internalType": "uint8",
              "name": "carLevel",
              "type": "uint8"
            },
            {
              "internalType": "uint256",
              "name": "mileage",
              "type": "uint256"
            },
            {
              "internalType": "uint256",
              "name": "winCountOnCurrentLevel",
              "type": "uint256"
            },
            {
              "internalType": "uint256",
              "name": "lossCountOnCurrentLevel",
              "type": "uint256"
            },
            {
              "internalType": "uint256",
              "name": "id",
              "type": "uint256"
            }
          ],
          "internalType": "struct CarFactory.Car[]",
          "name": "",
          "type": "tuple[]"
        }
      ],
      "stateMutability": "view",
      "type": "function",
      "constant": true
    },
    {
      "inputs": [
        {
          "internalType": "address",
          "name": "_owner",
          "type": "address"
        }
      ],
      "name": "getChassisByOwner",
      "outputs": [
        {
          "components": [
            {
              "internalType": "uint256",
              "name": "id",
              "type": "uint256"
            },
            {
              "internalType": "uint32",
              "name": "durability",
              "type": "uint32"
            },
            {
              "internalType": "uint32",
              "name": "resource",
              "type": "uint32"
            }
          ],
          "internalType": "struct CarFactory.Chassis[]",
          "name": "",
          "type": "tuple[]"
        }
      ],
      "stateMutability": "view",
      "type": "function",
      "constant": true
    },
    {
      "inputs": [
        {
          "internalType": "uint256",
          "name": "roomId",
          "type": "uint256"
        }
      ],
      "name": "getClosedRoom",
      "outputs": [
        {
          "components": [
            {
              "internalType": "address",
              "name": "player",
              "type": "address"
            },
            {
              "internalType": "bool",
              "name": "correct",
              "type": "bool"
            },
            {
              "internalType": "uint256",
              "name": "time",
              "type": "uint256"
            },
            {
              "internalType": "uint256",
              "name": "carId",
              "type": "uint256"
            }
          ],
          "internalType": "struct RaceHandler.Answer[]",
          "name": "",
          "type": "tuple[]"
        }
      ],
      "stateMutability": "view",
      "type": "function",
      "constant": true
    },
    {
      "inputs": [
        {
          "internalType": "uint256",
          "name": "_engineId",
          "type": "uint256"
        }
      ],
      "name": "getConsumtionUpgradeCost",
      "outputs": [
        {
          "internalType": "uint256",
          "name": "",
          "type": "uint256"
        }
      ],
      "stateMutability": "view",
      "type": "function",
      "constant": true
    },
    {
      "inputs": [
        {
          "internalType": "uint256",
          "name": "_chassisId",
          "type": "uint256"
        },
        {
          "internalType": "uint8",
          "name": "_counts",
          "type": "uint8"
        }
      ],
      "name": "getDurabilityUpgradeCost",
      "outputs": [
        {
          "internalType": "uint256",
          "name": "",
          "type": "uint256"
        }
      ],
      "stateMutability": "view",
      "type": "function",
      "constant": true
    },
    {
      "inputs": [
        {
          "internalType": "address",
          "name": "_owner",
          "type": "address"
        }
      ],
      "name": "getEnginesByOwner",
      "outputs": [
        {
          "components": [
            {
              "internalType": "uint256",
              "name": "id",
              "type": "uint256"
            },
            {
              "internalType": "uint16",
              "name": "horsePowers",
              "type": "uint16"
            },
            {
              "internalType": "uint8",
              "name": "consumtion",
              "type": "uint8"
            }
          ],
          "internalType": "struct CarFactory.Engine[]",
          "name": "",
          "type": "tuple[]"
        }
      ],
      "stateMutability": "view",
      "type": "function",
      "constant": true
    },
    {
      "inputs": [
        {
          "internalType": "address",
          "name": "_owner",
          "type": "address"
        }
      ],
      "name": "getFuelStationByOwner",
      "outputs": [
        {
          "components": [
            {
              "internalType": "uint256",
              "name": "id",
              "type": "uint256"
            },
            {
              "internalType": "uint8",
              "name": "capacity",
              "type": "uint8"
            },
            {
              "internalType": "uint8",
              "name": "productionPerHour",
              "type": "uint8"
            },
            {
              "internalType": "uint8",
              "name": "currentFullness",
              "type": "uint8"
            },
            {
              "internalType": "uint256",
              "name": "lastUpdate",
              "type": "uint256"
            }
          ],
          "internalType": "struct FuelStationFactory.FuelStation",
          "name": "",
          "type": "tuple"
        }
      ],
      "stateMutability": "view",
      "type": "function",
      "constant": true
    },
    {
      "inputs": [
        {
          "internalType": "uint256",
          "name": "_engineId",
          "type": "uint256"
        },
        {
          "internalType": "uint8",
          "name": "_counts",
          "type": "uint8"
        }
      ],
      "name": "getHorsePowersUpgradeCost",
      "outputs": [
        {
          "internalType": "uint256",
          "name": "",
          "type": "uint256"
        }
      ],
      "stateMutability": "view",
      "type": "function",
      "constant": true
    },
    {
      "inputs": [
        {
          "internalType": "uint256",
          "name": "_carId",
          "type": "uint256"
        }
      ],
      "name": "getLevelUpCost",
      "outputs": [
        {
          "internalType": "uint256",
          "name": "",
          "type": "uint256"
        }
      ],
      "stateMutability": "view",
      "type": "function",
      "constant": true
    },
    {
      "inputs": [
        {
          "internalType": "uint256",
          "name": "_fuelStatonId",
          "type": "uint256"
        },
        {
          "internalType": "uint8",
          "name": "_counts",
          "type": "uint8"
        }
      ],
      "name": "getProductionPerHourUpgradeCost",
      "outputs": [
        {
          "internalType": "uint256",
          "name": "",
          "type": "uint256"
        }
      ],
      "stateMutability": "view",
      "type": "function",
      "constant": true
    },
    {
      "inputs": [
        {
          "internalType": "uint256",
          "name": "",
          "type": "uint256"
        }
      ],
      "name": "idToStartedRooms",
      "outputs": [
        {
          "internalType": "uint256",
          "name": "numberPlayers",
          "type": "uint256"
        },
        {
          "internalType": "uint256",
          "name": "world",
          "type": "uint256"
        },
        {
          "internalType": "uint256",
          "name": "roomDNA",
          "type": "uint256"
        },
        {
          "internalType": "uint256",
          "name": "startTime",
          "type": "uint256"
        },
        {
          "internalType": "uint256",
          "name": "curAnswer",
          "type": "uint256"
        },
        {
          "internalType": "bool",
          "name": "closed",
          "type": "bool"
        }
      ],
      "stateMutability": "view",
      "type": "function",
      "constant": true
    },
    {
      "inputs": [
        {
          "internalType": "uint256",
          "name": "_carId",
          "type": "uint256"
        }
      ],
      "name": "levelUp",
      "outputs": [],
      "stateMutability": "payable",
      "type": "function",
      "payable": true
    },
    {
      "inputs": [
        {
          "internalType": "uint256",
          "name": "",
          "type": "uint256"
        }
      ],
      "name": "openedRooms",
      "outputs": [
        {
          "internalType": "uint256",
          "name": "id",
          "type": "uint256"
        },
        {
          "internalType": "uint256",
          "name": "playersEntered",
          "type": "uint256"
        },
        {
          "internalType": "uint256",
          "name": "world",
          "type": "uint256"
        },
        {
          "components": [
            {
              "internalType": "uint256",
              "name": "playersNeeded",
              "type": "uint256"
            },
            {
              "internalType": "uint256",
              "name": "crossId",
              "type": "uint256"
            }
          ],
          "internalType": "struct RaceHandler.Cross",
          "name": "cross",
          "type": "tuple"
        },
        {
          "internalType": "uint256",
          "name": "roomSeed",
          "type": "uint256"
        }
      ],
      "stateMutability": "view",
      "type": "function",
      "constant": true
    },
    {
      "inputs": [],
      "name": "owner",
      "outputs": [
        {
          "internalType": "address",
          "name": "",
          "type": "address"
        }
      ],
      "stateMutability": "view",
      "type": "function",
      "constant": true
    },
    {
      "inputs": [
        {
          "internalType": "address",
          "name": "",
          "type": "address"
        }
      ],
      "name": "ownerCarCount",
      "outputs": [
        {
          "internalType": "uint256",
          "name": "",
          "type": "uint256"
        }
      ],
      "stateMutability": "view",
      "type": "function",
      "constant": true
    },
    {
      "inputs": [
        {
          "internalType": "address",
          "name": "",
          "type": "address"
        }
      ],
      "name": "ownerChassisCount",
      "outputs": [
        {
          "internalType": "uint256",
          "name": "",
          "type": "uint256"
        }
      ],
      "stateMutability": "view",
      "type": "function",
      "constant": true
    },
    {
      "inputs": [
        {
          "internalType": "address",
          "name": "",
          "type": "address"
        }
      ],
      "name": "ownerEngineCount",
      "outputs": [
        {
          "internalType": "uint256",
          "name": "",
          "type": "uint256"
        }
      ],
      "stateMutability": "view",
      "type": "function",
      "constant": true
    },
    {
      "inputs": [
        {
          "internalType": "address",
          "name": "reciever",
          "type": "address"
        }
      ],
      "name": "payToWinner",
      "outputs": [],
      "stateMutability": "payable",
      "type": "function",
      "payable": true
    },
    {
      "inputs": [
        {
          "internalType": "address",
          "name": "",
          "type": "address"
        }
      ],
      "name": "playersToCars",
      "outputs": [
        {
          "internalType": "uint256",
          "name": "",
          "type": "uint256"
        }
      ],
      "stateMutability": "view",
      "type": "function",
      "constant": true
    },
    {
      "inputs": [
        {
          "internalType": "address",
          "name": "",
          "type": "address"
        }
      ],
      "name": "playersToRooms",
      "outputs": [
        {
          "internalType": "uint256",
          "name": "",
          "type": "uint256"
        }
      ],
      "stateMutability": "view",
      "type": "function",
      "constant": true
    },
    {
      "inputs": [],
      "name": "renounceOwnership",
      "outputs": [],
      "stateMutability": "nonpayable",
      "type": "function"
    },
    {
      "inputs": [
        {
          "internalType": "uint256",
          "name": "",
          "type": "uint256"
        }
      ],
      "name": "roomIdToRoomDNA",
      "outputs": [
        {
          "internalType": "uint256",
          "name": "",
          "type": "uint256"
        }
      ],
      "stateMutability": "view",
      "type": "function",
      "constant": true
    },
    {
      "inputs": [
        {
          "internalType": "uint256",
          "name": "_carId",
          "type": "uint256"
        }
      ],
      "name": "startRace",
      "outputs": [],
      "stateMutability": "nonpayable",
      "type": "function"
    },
    {
      "inputs": [
        {
          "internalType": "uint256",
          "name": "",
          "type": "uint256"
        }
      ],
      "name": "stations",
      "outputs": [
        {
          "internalType": "uint256",
          "name": "id",
          "type": "uint256"
        },
        {
          "internalType": "uint8",
          "name": "capacity",
          "type": "uint8"
        },
        {
          "internalType": "uint8",
          "name": "productionPerHour",
          "type": "uint8"
        },
        {
          "internalType": "uint8",
          "name": "currentFullness",
          "type": "uint8"
        },
        {
          "internalType": "uint256",
          "name": "lastUpdate",
          "type": "uint256"
        }
      ],
      "stateMutability": "view",
      "type": "function",
      "constant": true
    },
    {
      "inputs": [
        {
          "internalType": "uint256",
          "name": "carId",
          "type": "uint256"
        },
        {
          "internalType": "uint256",
          "name": "chassisId",
          "type": "uint256"
        }
      ],
      "name": "switchChassis",
      "outputs": [],
      "stateMutability": "nonpayable",
      "type": "function"
    },
    {
      "inputs": [
        {
          "internalType": "uint256",
          "name": "carId",
          "type": "uint256"
        },
        {
          "internalType": "uint256",
          "name": "engineId",
          "type": "uint256"
        }
      ],
      "name": "switchEngine",
      "outputs": [],
      "stateMutability": "nonpayable",
      "type": "function"
    },
    {
      "inputs": [
        {
          "internalType": "address",
          "name": "newOwner",
          "type": "address"
        }
      ],
      "name": "transferOwnership",
      "outputs": [],
      "stateMutability": "nonpayable",
      "type": "function"
    },
    {
      "inputs": [
        {
          "internalType": "uint256",
          "name": "_fuelStatonId",
          "type": "uint256"
        },
        {
          "internalType": "uint8",
          "name": "_counts",
          "type": "uint8"
        }
      ],
      "name": "upgradeCapacity",
      "outputs": [],
      "stateMutability": "payable",
      "type": "function",
      "payable": true
    },
    {
      "inputs": [
        {
          "internalType": "uint256",
          "name": "_engineId",
          "type": "uint256"
        }
      ],
      "name": "upgradeConsumtion",
      "outputs": [],
      "stateMutability": "payable",
      "type": "function",
      "payable": true
    },
    {
      "inputs": [
        {
          "internalType": "uint256",
          "name": "_chassisId",
          "type": "uint256"
        },
        {
          "internalType": "uint8",
          "name": "_counts",
          "type": "uint8"
        }
      ],
      "name": "upgradeDurability",
      "outputs": [],
      "stateMutability": "payable",
      "type": "function",
      "payable": true
    },
    {
      "inputs": [
        {
          "internalType": "uint256",
          "name": "_engineId",
          "type": "uint256"
        },
        {
          "internalType": "uint8",
          "name": "_counts",
          "type": "uint8"
        }
      ],
      "name": "upgradeHorsePowers",
      "outputs": [],
      "stateMutability": "payable",
      "type": "function",
      "payable": true
    },
    {
      "inputs": [
        {
          "internalType": "uint256",
          "name": "_fuelStatonId",
          "type": "uint256"
        },
        {
          "internalType": "uint8",
          "name": "_counts",
          "type": "uint8"
        }
      ],
      "name": "upgradeProductionPerHour",
      "outputs": [],
      "stateMutability": "payable",
      "type": "function",
      "payable": true
    },
    {
      "inputs": [
        {
          "internalType": "address",
          "name": "_chassisOwnership",
          "type": "address"
        },
        {
          "internalType": "address",
          "name": "_engineOwnership",
          "type": "address"
        },
        {
          "internalType": "address",
          "name": "_carOwnership",
          "type": "address"
        }
      ],
      "name": "init",
      "outputs": [],
      "stateMutability": "nonpayable",
      "type": "function"
    },
    {
      "inputs": [
        {
          "internalType": "address",
          "name": "_owner",
          "type": "address"
        }
      ],
      "name": "balanceOfCars",
      "outputs": [
        {
          "internalType": "uint256",
          "name": "",
          "type": "uint256"
        }
      ],
      "stateMutability": "view",
      "type": "function",
      "constant": true
    },
    {
      "inputs": [
        {
          "internalType": "uint256",
          "name": "_tokenId",
          "type": "uint256"
        }
      ],
      "name": "ownerOfCar",
      "outputs": [
        {
          "internalType": "address",
          "name": "",
          "type": "address"
        }
      ],
      "stateMutability": "view",
      "type": "function",
      "constant": true
    },
    {
      "inputs": [
        {
          "internalType": "address",
          "name": "_from",
          "type": "address"
        },
        {
          "internalType": "address",
          "name": "_to",
          "type": "address"
        },
        {
          "internalType": "uint256",
          "name": "_tokenId",
          "type": "uint256"
        }
      ],
      "name": "transferCarFrom",
      "outputs": [],
      "stateMutability": "nonpayable",
      "type": "function"
    },
    {
      "inputs": [
        {
          "internalType": "address",
          "name": "_owner",
          "type": "address"
        }
      ],
      "name": "balanceOfEngines",
      "outputs": [
        {
          "internalType": "uint256",
          "name": "",
          "type": "uint256"
        }
      ],
      "stateMutability": "view",
      "type": "function",
      "constant": true
    },
    {
      "inputs": [
        {
          "internalType": "uint256",
          "name": "_tokenId",
          "type": "uint256"
        }
      ],
      "name": "ownerOfEngine",
      "outputs": [
        {
          "internalType": "address",
          "name": "",
          "type": "address"
        }
      ],
      "stateMutability": "view",
      "type": "function",
      "constant": true
    },
    {
      "inputs": [
        {
          "internalType": "address",
          "name": "_from",
          "type": "address"
        },
        {
          "internalType": "address",
          "name": "_to",
          "type": "address"
        },
        {
          "internalType": "uint256",
          "name": "_tokenId",
          "type": "uint256"
        }
      ],
      "name": "transferEngineFrom",
      "outputs": [],
      "stateMutability": "nonpayable",
      "type": "function"
    },
    {
      "inputs": [
        {
          "internalType": "address",
          "name": "_owner",
          "type": "address"
        }
      ],
      "name": "balanceOfChassis",
      "outputs": [
        {
          "internalType": "uint256",
          "name": "",
          "type": "uint256"
        }
      ],
      "stateMutability": "view",
      "type": "function",
      "constant": true
    },
    {
      "inputs": [
        {
          "internalType": "uint256",
          "name": "_tokenId",
          "type": "uint256"
        }
      ],
      "name": "ownerOfChassis",
      "outputs": [
        {
          "internalType": "address",
          "name": "",
          "type": "address"
        }
      ],
      "stateMutability": "view",
      "type": "function",
      "constant": true
    },
    {
      "inputs": [
        {
          "internalType": "address",
          "name": "_from",
          "type": "address"
        },
        {
          "internalType": "address",
          "name": "_to",
          "type": "address"
        },
        {
          "internalType": "uint256",
          "name": "_tokenId",
          "type": "uint256"
        }
      ],
      "name": "transferChassisFrom",
      "outputs": [],
      "stateMutability": "nonpayable",
      "type": "function"
    },
    {
      "inputs": [
        {
          "internalType": "uint256",
          "name": "chassisId",
          "type": "uint256"
        },
        {
          "internalType": "uint256",
          "name": "price",
          "type": "uint256"
        }
      ],
      "name": "putChassisOnMarketplace",
      "outputs": [],
      "stateMutability": "nonpayable",
      "type": "function"
    },
    {
      "inputs": [
        {
          "internalType": "uint256",
          "name": "chassisId",
          "type": "uint256"
        }
      ],
      "name": "removeChassisFromMarketplace",
      "outputs": [],
      "stateMutability": "nonpayable",
      "type": "function"
    },
    {
      "inputs": [
        {
          "internalType": "uint256",
          "name": "engineId",
          "type": "uint256"
        },
        {
          "internalType": "uint256",
          "name": "price",
          "type": "uint256"
        }
      ],
      "name": "putEngineOnMarketplace",
      "outputs": [],
      "stateMutability": "nonpayable",
      "type": "function"
    },
    {
      "inputs": [
        {
          "internalType": "uint256",
          "name": "engineId",
          "type": "uint256"
        }
      ],
      "name": "removeEngineFromMarketplace",
      "outputs": [],
      "stateMutability": "nonpayable",
      "type": "function"
    },
    {
      "inputs": [
        {
          "internalType": "uint256",
          "name": "carId",
          "type": "uint256"
        },
        {
          "internalType": "uint256",
          "name": "price",
          "type": "uint256"
        }
      ],
      "name": "putCarOnMarketplace",
      "outputs": [],
      "stateMutability": "nonpayable",
      "type": "function"
    },
    {
      "inputs": [
        {
          "internalType": "uint256",
          "name": "carId",
          "type": "uint256"
        }
      ],
      "name": "removeCarFromMarketplace",
      "outputs": [],
      "stateMutability": "nonpayable",
      "type": "function"
    },
    {
      "inputs": [],
      "name": "getCarsForSale",
      "outputs": [
        {
          "components": [
            {
              "internalType": "string",
              "name": "model",
              "type": "string"
            },
            {
              "internalType": "uint256",
              "name": "vin",
              "type": "uint256"
            },
            {
              "internalType": "uint256",
              "name": "engineId",
              "type": "uint256"
            },
            {
              "internalType": "uint256",
              "name": "chassisId",
              "type": "uint256"
            },
            {
              "internalType": "uint8",
              "name": "carLevel",
              "type": "uint8"
            },
            {
              "internalType": "uint256",
              "name": "mileage",
              "type": "uint256"
            },
            {
              "internalType": "uint256",
              "name": "winCountOnCurrentLevel",
              "type": "uint256"
            },
            {
              "internalType": "uint256",
              "name": "lossCountOnCurrentLevel",
              "type": "uint256"
            },
            {
              "internalType": "uint256",
              "name": "id",
              "type": "uint256"
            }
          ],
          "internalType": "struct CarFactory.Car[]",
          "name": "",
          "type": "tuple[]"
        }
      ],
      "stateMutability": "view",
      "type": "function",
      "constant": true
    },
    {
      "inputs": [],
      "name": "getEnginesForSale",
      "outputs": [
        {
          "components": [
            {
              "internalType": "uint256",
              "name": "id",
              "type": "uint256"
            },
            {
              "internalType": "uint16",
              "name": "horsePowers",
              "type": "uint16"
            },
            {
              "internalType": "uint8",
              "name": "consumtion",
              "type": "uint8"
            }
          ],
          "internalType": "struct CarFactory.Engine[]",
          "name": "",
          "type": "tuple[]"
        }
      ],
      "stateMutability": "view",
      "type": "function",
      "constant": true
    },
    {
      "inputs": [],
      "name": "getChassisForSale",
      "outputs": [
        {
          "components": [
            {
              "internalType": "uint256",
              "name": "id",
              "type": "uint256"
            },
            {
              "internalType": "uint32",
              "name": "durability",
              "type": "uint32"
            },
            {
              "internalType": "uint32",
              "name": "resource",
              "type": "uint32"
            }
          ],
          "internalType": "struct CarFactory.Chassis[]",
          "name": "",
          "type": "tuple[]"
        }
      ],
      "stateMutability": "view",
      "type": "function",
      "constant": true
    }
  ],
  "bytecode": "0x6000805461ffff60a01b191661014f60a21b17815560088190556009819055600a9081556001600b819055600c556509184e72a000601981905565b5e620f48000601a55650da475abf000601b556611c37937e08000601c556305f5e100601d5566038d7ea4c68000601e556101c060405260809081526512309ce5400060a05265246139ca800060c0526548c27395000060e052659184e72a00006101005266012309ce54000061012052660246139ca800006101405266048c2739500000610160526609184e72a00000610180526612309ce54000006101a052620000ea916020919062000199565b50348015620000f857600080fd5b50620001043362000149565b6050600355605b6004556005805460ff1916600a179055620186a06006556201d4c1600755600e80546001908101909155600f8054820181556000526023556200020b565b600080546001600160a01b038381166001600160a01b0319831681178455604051919092169283917f8be0079c531659141344cd1fd0a4f28419497f9722a3daafe3b4186f6b6457e09190a35050565b828054828255906000526020600020908101928215620001e2579160200282015b82811115620001e2578251829066ffffffffffffff16905591602001919060010190620001ba565b50620001f0929150620001f4565b5090565b5b80821115620001f05760008155600101620001f5565b615ce1806200021b6000396000f3fe6080604052600436106104315760003560e01c80637fb2aa4d11610229578063bf9bc0b21161012e578063e215a7e4116100b6578063f66911b11161007a578063f66911b114611048578063f7746e3614611068578063f85993b91461109d578063faf4bb98146110ca578063fb33250f146110dd57600080fd5b8063e215a7e414610f9b578063ea12693314610fbb578063ede6fbf514610fdb578063f2fde38b14610ffb578063f33281731461101b57600080fd5b8063c85b7fed116100fd578063c85b7fed14610efb578063d1c54eea14610f1b578063d7086fab14610f3b578063d720be4a14610f5b578063df750c5214610f7b57600080fd5b8063bf9bc0b214610e7b578063bfcc971614610e9b578063c34cccc414610ebb578063c75bb4f414610edb57600080fd5b806392f859db116101b1578063aca7413111610180578063aca7413114610dab578063b3b29afd14610dd8578063b72c0eea14610e05578063b972486f14610e46578063bf5070d314610e5b57600080fd5b806392f859db14610cf8578063982b691c14610d48578063a351a4a714610d5e578063aa11b68114610d7e57600080fd5b806389895f77116101f857806389895f7714610c745780638b57997314610c945780638da5cb5b14610cb45780638ff90c6b14610cd2578063906f5f3414610ce557600080fd5b80637fb2aa4d14610bd15780638590926714610bfe5780638776601914610c1157806387d6b9b214610c3e57600080fd5b80632cb03a3a1161033a578063594193d7116102c2578063715018a611610286578063715018a614610b3a57806376997de014610b4f57806376b4646d14610b6f5780637713d52114610b915780637ec5c75c14610bb157600080fd5b8063594193d714610a4b5780635c426aff14610a815780635dcc4cc614610ab75780636b606d9b14610aed5780636f206fc114610b0d57600080fd5b806344901490116103095780634490149014610948578063491d61c21461097e5780634ced3056146109a05780634e31f910146109c0578063567754e414610a2b57600080fd5b80632cb03a3a1461087957806333ca504b146108af5780633521c426146108e55780633dfd6f541461091257600080fd5b8063184b9559116103bd578063224370f01161038c578063224370f0146106bc57806324d822bf146107f0578063254dc0651461081057806328ae4034146108465780632ca4769e1461085957600080fd5b8063184b95591461060d5780631a56afda1461062d5780631c2fab781461064d5780631c5dde0e1461067a57600080fd5b80630a0176fc116104045780630a0176fc146105735780630c0cd532146105ae5780630ce90ec2146105c457806314ed0450146105d75780631702bf42146105f757600080fd5b806302b677451461043657806303f2e05b146104895780630418394e1461049e578063081315ff14610520575b600080fd5b34801561044257600080fd5b5061046c6104513660046150ef565b6000908152601060205260409020546001600160a01b031690565b6040516001600160a01b0390911681526020015b60405180910390f35b61049c61049736600461511e565b6110fd565b005b3480156104aa57600080fd5b506104f16104b93660046150ef565b602560205260009081526040902080546001820154600283015460038401546005850154600690950154939492939192909160ff1686565b6040805196875260208701959095529385019290925260608401526080830152151560a082015260c001610480565b34801561052c57600080fd5b5061054061053b3660046150ef565b611203565b604080519586526020808701959095528501929092528051606085015290910151608083015260a082015260c001610480565b34801561057f57600080fd5b506105a061058e3660046150ef565b60186020526000908152604090205481565b604051908152602001610480565b3480156105ba57600080fd5b506105a0600a5481565b61049c6105d23660046150ef565b61125b565b3480156105e357600080fd5b5061049c6105f23660046150ef565b611361565b34801561060357600080fd5b506105a060085481565b34801561061957600080fd5b5061049c610628366004615161565b6113d5565b34801561063957600080fd5b506105a061064836600461511e565b61141c565b34801561065957600080fd5b506105a06106683660046151a4565b60216020526000908152604090205481565b34801561068657600080fd5b5061069a6106953660046150ef565b61146e565b6040805193845263ffffffff9283166020850152911690820152606001610480565b3480156106c857600080fd5b5061049c600180546040805160a0810182528281526000805460ff600160a01b820481166020808601828152600160a81b90940483168688019081526060870192835263ffffffff421660808801908152898b018b559986529551600389027fb10e2d527612073b26eecdfd717e6a320cf44b4afac2b0732d9fcbe2b7fa0cf681019190915593517fb10e2d527612073b26eecdfd717e6a320cf44b4afac2b0732d9fcbe2b7fa0cf785018054975193518516620100000262ff0000199486166101000261ffff19909916929095169190911796909617919091169190911790935594517fb10e2d527612073b26eecdfd717e6a320cf44b4afac2b0732d9fcbe2b7fa0cf8909501949094559183526002909152902080546001600160a01b03191633179055565b3480156107fc57600080fd5b5061049c61080b3660046150ef565b6114ae565b34801561081c57600080fd5b506105a061082b3660046151a4565b6001600160a01b031660009081526015602052604090205490565b61049c6108543660046151a4565b6117fc565b34801561086557600080fd5b506105a061087436600461511e565b61183d565b34801561088557600080fd5b506105a06108943660046151a4565b6001600160a01b031660009081526013602052604090205490565b3480156108bb57600080fd5b5061046c6108ca3660046150ef565b6010602052600090815260409020546001600160a01b031681565b3480156108f157600080fd5b506109056109003660046150ef565b61187f565b60405161048091906151bf565b34801561091e57600080fd5b5061046c61092d3660046150ef565b6000908152601160205260409020546001600160a01b031690565b34801561095457600080fd5b5061046c6109633660046150ef565b6012602052600090815260409020546001600160a01b031681565b34801561098a57600080fd5b50610993611971565b604051610480919061522e565b3480156109ac57600080fd5b5061049c6109bb3660046150ef565b611a9a565b3480156109cc57600080fd5b506109e06109db3660046151a4565b611b0e565b6040516104809190600060a0820190508251825260ff602084015116602083015260ff604084015116604083015260ff60608401511660608301526080830151608083015292915050565b348015610a3757600080fd5b5061049c610a463660046150ef565b611bf5565b348015610a5757600080fd5b5061046c610a663660046150ef565b6002602052600090815260409020546001600160a01b031681565b348015610a8d57600080fd5b5061046c610a9c3660046150ef565b6000908152601260205260409020546001600160a01b031690565b348015610ac357600080fd5b5061046c610ad23660046150ef565b6011602052600090815260409020546001600160a01b031681565b348015610af957600080fd5b5061049c610b08366004615281565b611c69565b348015610b1957600080fd5b50610b2d610b283660046151a4565b611d7c565b60405161048091906152a3565b348015610b4657600080fd5b5061049c611ed0565b348015610b5b57600080fd5b506105a0610b6a36600461511e565b611ee4565b348015610b7b57600080fd5b50610b84611f21565b6040516104809190615355565b348015610b9d57600080fd5b50610993610bac3660046151a4565b6120ed565b348015610bbd57600080fd5b5061049c610bcc36600461541f565b612235565b348015610bdd57600080fd5b506105a0610bec3660046151a4565b60146020526000908152604090205481565b61049c610c0c36600461511e565b6122dd565b348015610c1d57600080fd5b506105a0610c2c3660046151a4565b60156020526000908152604090205481565b348015610c4a57600080fd5b506105a0610c593660046151a4565b6001600160a01b031660009081526014602052604090205490565b348015610c8057600080fd5b5061049c610c8f366004615281565b6123c2565b348015610ca057600080fd5b5061049c610caf36600461541f565b6124e1565b348015610cc057600080fd5b506000546001600160a01b031661046c565b61049c610ce03660046150ef565b61256c565b61049c610cf336600461511e565b61265e565b348015610d0457600080fd5b50610d18610d133660046150ef565b61271f565b6040805195865260ff9485166020870152928416928501929092529091166060830152608082015260a001610480565b348015610d5457600080fd5b506105a060095481565b348015610d6a57600080fd5b5061049c610d7936600461545b565b61276b565b348015610d8a57600080fd5b506105a0610d993660046150ef565b60166020526000908152604090205481565b348015610db757600080fd5b506105a0610dc63660046150ef565b60266020526000908152604090205481565b348015610de457600080fd5b506105a0610df33660046151a4565b60136020526000908152604090205481565b348015610e1157600080fd5b50610e25610e203660046150ef565b612d51565b6040805193845261ffff909216602084015260ff1690820152606001610480565b348015610e5257600080fd5b50610b2d612d8e565b348015610e6757600080fd5b506105a0610e7636600461511e565b612eb2565b348015610e8757600080fd5b506105a0610e963660046150ef565b612eef565b348015610ea757600080fd5b506105a0610eb6366004615499565b612f42565b348015610ec757600080fd5b5061049c610ed6366004615281565b613097565b348015610ee757600080fd5b50610b84610ef63660046151a4565b61320d565b348015610f0757600080fd5b5061049c610f163660046154fc565b613401565b348015610f2757600080fd5b5061049c610f36366004615281565b61368e565b348015610f4757600080fd5b506105a0610f563660046155c0565b61379a565b348015610f6757600080fd5b5061049c610f76366004615281565b613909565b348015610f8757600080fd5b506105a0610f963660046150ef565b613a28565b348015610fa757600080fd5b5061049c610fb6366004615281565b613a80565b348015610fc757600080fd5b5061049c610fd6366004615281565b613b9f565b348015610fe757600080fd5b5061049c610ff636600461565c565b613d16565b34801561100757600080fd5b5061049c6110163660046151a4565b613ee4565b34801561102757600080fd5b506105a06110363660046151a4565b60226020526000908152604090205481565b34801561105457600080fd5b5061049c61106336600461541f565b613f5d565b34801561107457600080fd5b506110886110833660046150ef565b613fe8565b60405161048099989796959493929190615691565b3480156110a957600080fd5b506105a06110b83660046150ef565b60176020526000908152604090205481565b61049c6110d836600461511e565b6140d5565b3480156110e957600080fd5b5061049c6110f83660046156e8565b6141cc565b60008281526012602052604090205482906001600160a01b0316331461113e5760405162461bcd60e51b815260040161113590615770565b60405180910390fd5b611148838361141c565b34146111665760405162461bcd60e51b8152600401611135906157b2565b600080546040516001600160a01b03909116913480156108fc02929091818181858888f193505050501580156111a0573d6000803e3d6000fd5b508160ff16600f84815481106111b8576111b86157d6565b60009182526020822060016002909202010180549091906111e090849063ffffffff16615802565b92506101000a81548163ffffffff021916908363ffffffff160217905550505050565b6024818154811061121357600080fd5b60009182526020918290206006909102018054600182015460028301546040805180820190915260038501548152600485015495810195909552600590930154919450929085565b61126481612eef565b34146112825760405162461bcd60e51b8152600401611135906157b2565b600080546040516001600160a01b03909116913480156108fc02929091818181858888f193505050501580156112bc573d6000803e3d6000fd5b50600d81815481106112d0576112d06157d6565b600091825260208220600460099092020101805460ff16916112f18361582a565b91906101000a81548160ff021916908360ff160217905550506000600d828154811061131f5761131f6157d6565b9060005260206000209060090201600601819055506000600d8281548110611349576113496157d6565b90600052602060002090600902016007018190555050565b60008181526011602052604090205481906001600160a01b031633146113995760405162461bcd60e51b815260040161113590615849565b600082815260176020526040902054156113c357600a80549060006113bd8361588a565b91905055505b50600090815260176020526040812055565b6113dd6143c6565b602780546001600160a01b039485166001600160a01b031991821617909155602880549385169382169390931790925560298054919093169116179055565b6000601d54600f8481548110611434576114346157d6565b600091825260209091206001600290920201015461145b9063ffffffff1660ff85166158a1565b61146591906158a1565b90505b92915050565b600f818154811061147e57600080fd5b60009182526020909120600290910201805460019091015490915063ffffffff8082169164010000000090041683565b60008181526010602052604090205481906001600160a01b031633146114e65760405162461bcd60e51b8152600401611135906158c0565b6000600a600d84815481106114fd576114fd6157d6565b600091825260209091206004600990920201015461151e919060ff1661590d565b61152990600a61592f565b611534906002615952565b336000908152602260205260409020549091501561158a5760405162461bcd60e51b815260206004820152601360248201527263617220616c726561647920696e207261636560681b6044820152606401611135565b600d838154811061159d5761159d6157d6565b9060005260206000209060090201600301546000036115eb5760405162461bcd60e51b815260206004820152600a6024820152696e6f206368617373697360b01b6044820152606401611135565b600d83815481106115fe576115fe6157d6565b90600052602060002090600902016002015460000361164b5760405162461bcd60e51b81526020600482015260096024820152686e6f20656e67696e6560b81b6044820152606401611135565b6116558382614420565b6116935760405162461bcd60e51b815260206004820152600f60248201526e1b9bdd08195b9bdd59da08199d595b608a1b6044820152606401611135565b8060ff16600f600d85815481106116ac576116ac6157d6565b906000526020600020906009020160030154815481106116ce576116ce6157d6565b6000918252602090912060029091020160010154640100000000900463ffffffff1610156117295760405162461bcd60e51b81526020600482015260086024820152677265736f7572636560c01b6044820152606401611135565b611733338461276b565b8060ff16600f600d858154811061174c5761174c6157d6565b9060005260206000209060090201600301548154811061176e5761176e6157d6565b906000526020600020906002020160010160048282829054906101000a900463ffffffff1661179d919061597b565b92506101000a81548163ffffffff021916908363ffffffff1602179055508060ff16600d84815481106117d2576117d26157d6565b906000526020600020906009020160050160008282546117f291906159a0565b9091555050505050565b6118046143c6565b6040516001600160a01b038216903480156108fc02916000818181858888f19350505050158015611839573d6000803e3d6000fd5b5050565b6000601a5460018481548110611855576118556157d6565b600091825260209091206001600390920201015461145b9060ff61010090910481169085166158a1565b60008181526025602052604090206006015460609060ff166118d55760405162461bcd60e51b815260206004820152600f60248201526e1c9bdbdb481b9bdd0818db1bdcd959608a1b6044820152606401611135565b600082815260256020908152604080832060040180548251818502810185019093528083529193909284015b82821015611966576000848152602090819020604080516080810182526003860290920180546001600160a01b0381168452600160a01b900460ff16151583850152600180820154928401929092526002015460608301529083529092019101611901565b505050509050919050565b60606000600a5467ffffffffffffffff811115611990576119906154b5565b6040519080825280602002602001820160405280156119db57816020015b60408051606081018252600080825260208083018290529282015282526000199092019101816119ae5790505b509050600060015b600e54811015611a925760008181526017602052604090205415611a8057600e8181548110611a1457611a146157d6565b600091825260209182902060408051606081018252600293909302909101805483526001015461ffff8116938301939093526201000090920460ff16918101919091528383611a62816159b8565b945081518110611a7457611a746157d6565b60200260200101819052505b80611a8a816159b8565b9150506119e3565b509092915050565b60008181526012602052604090205481906001600160a01b03163314611ad25760405162461bcd60e51b815260040161113590615770565b60008281526018602052604090205415611afc5760098054906000611af68361588a565b91905055505b50600090815260186020526040812055565b6040805160a081018252600080825260208201819052918101829052606081018290526080810182905290805b600154811015611b80576000818152600260205260409020546001600160a01b03808616911603611b6e57809150611b80565b80611b78816159b8565b915050611b3b565b5060018181548110611b9457611b946157d6565b60009182526020918290206040805160a081018252600390930290910180548352600181015460ff80821695850195909552610100810485169284019290925262010000909104909216606082015260029091015460808201529392505050565b60008181526010602052604090205481906001600160a01b03163314611c2d5760405162461bcd60e51b8152600401611135906158c0565b60008281526016602052604090205415611c575760088054906000611c518361588a565b91905055505b50600090815260166020526040812055565b60008181526012602052604090205481906001600160a01b03163314611ca15760405162461bcd60e51b815260040161113590615770565b60008381526010602052604090205483906001600160a01b03163314611cd95760405162461bcd60e51b8152600401611135906158c0565b82600d8581548110611ced57611ced6157d6565b90600052602060002090600902016003015414611d4c5760405162461bcd60e51b815260206004820152601860248201527f6368617373697320617265206e6f7420617474616368656400000000000000006044820152606401611135565b6000600d8581548110611d6157611d616157d6565b90600052602060002090600902016003018190555050505050565b6001600160a01b0381166000908152601560205260408120546060919067ffffffffffffffff811115611db157611db16154b5565b604051908082528060200260200182016040528015611dfc57816020015b6040805160608101825260008082526020808301829052928201528252600019909201910181611dcf5790505b5090506000805b600f54811015611ec7576000818152601260205260409020546001600160a01b03808716911603611eb557600f8181548110611e4157611e416157d6565b6000918252602091829020604080516060810182526002909302909101805483526001015463ffffffff808216948401949094526401000000009004909216918101919091528351849084908110611e9b57611e9b6157d6565b60200260200101819052508180611eb1906159b8565b9250505b80611ebf816159b8565b915050611e03565b50909392505050565b611ed86143c6565b611ee260006145c2565b565b600060195460018481548110611efc57611efc6157d6565b600091825260209091206001600390920201015461145b9060ff9081169085166158a1565b6060600060085467ffffffffffffffff811115611f4057611f406154b5565b604051908082528060200260200182016040528015611f7957816020015b611f66615007565b815260200190600190039081611f5e5790505b5090506000805b600d54811015611a9257600081815260166020526040902054156120db57600d8181548110611fb157611fb16157d6565b906000526020600020906009020160405180610120016040529081600082018054611fdb906159d1565b80601f0160208091040260200160405190810160405280929190818152602001828054612007906159d1565b80156120545780601f1061202957610100808354040283529160200191612054565b820191906000526020600020905b81548152906001019060200180831161203757829003601f168201915b5050509183525050600182015460208201526002820154604082015260038201546060820152600482015460ff166080820152600582015460a0820152600682015460c0820152600782015460e08201526008909101546101009091015283836120bd816159b8565b9450815181106120cf576120cf6157d6565b60200260200101819052505b806120e5816159b8565b915050611f80565b6001600160a01b0381166000908152601460205260408120546060919067ffffffffffffffff811115612122576121226154b5565b60405190808252806020026020018201604052801561216d57816020015b60408051606081018252600080825260208083018290529282015282526000199092019101816121405790505b5090506000805b600e54811015611ec7576000818152601160205260409020546001600160a01b0380871691160361222357600e81815481106121b2576121b26157d6565b600091825260209182902060408051606081018252600293909302909101805483526001015461ffff8116938301939093526201000090920460ff16918101919091528351849084908110612209576122096157d6565b6020026020010181905250818061221f906159b8565b9250505b8061222d816159b8565b915050612174565b6029546001600160a01b0316331461228f5760405162461bcd60e51b815260206004820152601960248201527f796f7520617265206e6f7420636172206f776e657273686970000000000000006044820152606401611135565b6000818152601060205260409020546001600160a01b03848116911614806122c4575060008181526016602052604090205415155b6122cd57600080fd5b6122d8838383614612565b505050565b60008281526002602052604090205482906001600160a01b0316331461230257600080fd5b61230c838361183d565b341461232a5760405162461bcd60e51b8152600401611135906157b2565b600080546040516001600160a01b03909116913480156108fc02929091818181858888f19350505050158015612364573d6000803e3d6000fd5b508160018481548110612379576123796157d6565b906000526020600020906003020160010160018282829054906101000a900460ff166123a59190615a0b565b92506101000a81548160ff021916908360ff160217905550505050565b60008281526011602052604090205482906001600160a01b031633146123fa5760405162461bcd60e51b815260040161113590615849565b6000838152601160209081526040808320546001600160a01b0316835260149091529020546001108061243757506000546001600160a01b031633145b6124835760405162461bcd60e51b815260206004820152601b60248201527f796f752063616e27742073616c65206c61737420656e67696e652100000000006044820152606401611135565b600082116124a35760405162461bcd60e51b815260040161113590615a30565b60008381526017602052604081205490036124ce57600a80549060006124c8836159b8565b91905055505b5060009182526017602052604090912055565b6028546001600160a01b0316331461253b5760405162461bcd60e51b815260206004820152601c60248201527f796f7520617265206e6f7420656e67696e65206f776e657273686970000000006044820152606401611135565b6000818152601160205260409020546001600160a01b0384811691161461256157600080fd5b6122d88383836147c2565b60008181526011602052604090205481906001600160a01b031633146125a45760405162461bcd60e51b815260040161113590615849565b6125ad82613a28565b34146125cb5760405162461bcd60e51b8152600401611135906157b2565b600080546040516001600160a01b03909116913480156108fc02929091818181858888f19350505050158015612605573d6000803e3d6000fd5b50600e8281548110612619576126196157d6565b60009182526020909120600291820201600101805462010000900460ff169161264183615a57565b91906101000a81548160ff021916908360ff160217905550505050565b60008281526002602052604090205482906001600160a01b0316331461268357600080fd5b61268d8383611ee4565b34146126ab5760405162461bcd60e51b8152600401611135906157b2565b600080546040516001600160a01b03909116913480156108fc02929091818181858888f193505050501580156126e5573d6000803e3d6000fd5b5081600184815481106126fa576126fa6157d6565b60009182526020822060016003909202010180549091906123a590849060ff16615a0b565b6001818154811061272f57600080fd5b600091825260209091206003909102018054600182015460029092015490925060ff808316926101008104821692620100009091049091169085565b60008181526010602052604090205481906001600160a01b031633146127a35760405162461bcd60e51b8152600401611135906158c0565b6000805b602454811015612bd557602481815481106127c4576127c46157d6565b906000526020600020906006020160020154600a600d86815481106127eb576127eb6157d6565b600091825260209091206004600990920201015461280c919060ff1661590d565b612817906001615a0b565b60ff1603612bc3576001915060248181548110612836576128366157d6565b600091825260208083206006909202909101546001600160a01b038816835260218252604080842091909155602290915290208490556024805482908110612880576128806157d6565b60009182526020822060016006909202010180549161289e836159b8565b91905055506064600d85815481106128b8576128b86157d6565b9060005260206000209060090201600101546128d49190615a74565b602482815481106128e7576128e76157d6565b9060005260206000209060060201600501600082825461290791906159a0565b90915550506024805482908110612920576129206157d6565b90600052602060002090600602016003016000015460248281548110612948576129486157d6565b90600052602060002090600602016001015403612bc357600073__PDDLib________________________________63c9827d866024848154811061298e5761298e6157d6565b906000526020600020906006020160030160010154602485815481106129b6576129b66157d6565b9060005260206000209060060201600301600001546129f8602487815481106129e1576129e16157d6565b90600052602060002090600602016005015461493d565b6040518463ffffffff1660e01b8152600401612a1693929190615a88565b602060405180830381865af4158015612a33573d6000803e3d6000fd5b505050506040513d601f19601f82011682018060405250810190612a579190615ab0565b905060006025600060248581548110612a7257612a726157d6565b9060005260206000209060060201600001548152602001908152602001600020905060248381548110612aa757612aa76157d6565b600091825260209091206003600690920201015481556024805484908110612ad157612ad16157d6565b600091825260208083206006928302016002908101546001860155840185905542600385015560058401839055908301805460ff191690558482526026905260409020829055602480547f2838ebeee7dc83fac85a3d6dbca0c0b6771591ada8b00f97371aa6611e631f9c919085908110612b4e57612b4e6157d6565b600091825260209182902060069091020154604080519182529181018590520160405180910390a160248381548110612b8957612b896157d6565b600091825260208220600690910201818155600181018290556002810182905560038101829055600481018290556005015550612bd59050565b80612bcd816159b8565b9150506127a7565b508015612be25750505050565b6023805460009182612bf3836159b8565b91905055905060006040518060400160405280600542612c139190615a74565b612c1e9060026159a0565b8152602001612c2e600242615a74565b81525090508160216000336001600160a01b03166001600160a01b031681526020019081526020016000208190555060246040518060a0016040528084815260200160018152602001600a600d8981548110612c8c57612c8c6157d6565b6000918252602090912060046009909202010154612cad919060ff1661590d565b612cb8906001615a0b565b60ff1681526020018381526020016064600d8981548110612cdb57612cdb6157d6565b906000526020600020906009020160010154612cf79190615a74565b90528154600181810184556000938452602093849020835160069093020191825583830151908201556040820151600282015560608201518051600383015590920151600483015560800151600590910155505050505050565b600e8181548110612d6157600080fd5b60009182526020909120600290910201805460019091015490915061ffff81169062010000900460ff1683565b6060600060095467ffffffffffffffff811115612dad57612dad6154b5565b604051908082528060200260200182016040528015612df857816020015b6040805160608101825260008082526020808301829052928201528252600019909201910181612dcb5790505b509050600060015b600f54811015611a925760008181526018602052604090205415612ea057600f8181548110612e3157612e316157d6565b6000918252602091829020604080516060810182526002909302909101805483526001015463ffffffff808216948401949094526401000000009004909216918101919091528383612e82816159b8565b945081518110612e9457612e946157d6565b60200260200101819052505b80612eaa816159b8565b915050612e00565b6000601b54600e8481548110612eca57612eca6157d6565b600091825260209091206001600290920201015461145b9061ffff1660ff85166158a1565b6000600a600d8381548110612f0657612f066157d6565b6000918252602090912060046009909202010154612f27919060ff1661590d565b612f32906001615a0b565b60ff16601e5461146891906158a1565b6000612f4c6143c6565b600c805460009182612f5d836159b8565b909155506040805160608101825282815263ffffffff8781166020808401828152848601928352600f80546001810182556000918252955160029096027f8d1108e10bcb7c27dddfc02ed9d693a074039d026cf4ea4240b40f7d581ac80281019690965590517f8d1108e10bcb7c27dddfc02ed9d693a074039d026cf4ea4240b40f7d581ac8039095018054935185166401000000000267ffffffffffffffff1990941695909416949094179190911790915581546001600160a01b0316825260159052908120805492935090613033836159b8565b9091555050600080548282526012602052604090912080546001600160a01b0319166001600160a01b039092169190911790558215611465576000818152601860205260408120849055600980549161308b836159b8565b91905055509392505050565b60008181526011602052604090205481906001600160a01b031633146130cf5760405162461bcd60e51b815260040161113590615849565b60008381526010602052604090205483906001600160a01b031633146131075760405162461bcd60e51b8152600401611135906158c0565b82600d858154811061311b5761311b6157d6565b906000526020600020906009020160020154036131685760405162461bcd60e51b815260206004820152600b60248201526a73616d6520656e67696e6560a81b6044820152606401611135565b60006131733361320d565b905060005b81518110156131dc5784828281518110613194576131946157d6565b602002602001015160400151036131ca5760008282815181106131b9576131b96157d6565b602002602001015160400181815250505b806131d4816159b8565b915050613178565b5083600d86815481106131f1576131f16157d6565b9060005260206000209060090201600201819055505050505050565b6001600160a01b0381166000908152601360205260408120546060919067ffffffffffffffff811115613242576132426154b5565b60405190808252806020026020018201604052801561327b57816020015b613268615007565b8152602001906001900390816132605790505b5090506000805b600d54811015611ec7576000818152601060205260409020546001600160a01b038087169116036133ef57600d81815481106132c0576132c06157d6565b9060005260206000209060090201604051806101200160405290816000820180546132ea906159d1565b80601f0160208091040260200160405190810160405280929190818152602001828054613316906159d1565b80156133635780601f1061333857610100808354040283529160200191613363565b820191906000526020600020905b81548152906001019060200180831161334657829003601f168201915b5050509183525050600182015460208201526002820154604082015260038201546060820152600482015460ff166080820152600582015460a0820152600682015460c0820152600782015460e08201526008909101546101009091015283518490849081106133d5576133d56157d6565b602002602001018190525081806133eb906159b8565b9250505b806133f9816159b8565b915050613282565b33600090815260216020526040902054821461344f5760405162461bcd60e51b815260206004820152600d60248201526c6e6f7420796f757220726f6f6d60981b6044820152606401611135565b600082815260256020526040808220600201549051634e31f59760e11b815290919073__PDDLib________________________________90639c63eb2e9061349d9085908790600401615ac9565b602060405180830381865af41580156134ba573d6000803e3d6000fd5b505050506040513d601f19601f820116820180604052508101906134de9190615b17565b604080516080810182523380825283151560208084019182524284860190815260009384526022825285842054606086019081528b855260258352958420600481018054600181810183558288529487208851600390920201805496511515600160a01b026001600160a81b03199097166001600160a01b03929092169190911795909517855591519284019290925594516002909201919091559088905280549254939450909290919003613686576040518681527f67acaceb58ff1ad2aa8b3069f69c4cd076824e06a09184b75fb197ead7040be79060200160405180910390a16000868152602560209081526040808320600601805460ff191660011790553383526021825280832083905560229091528120819055805b600088815260256020526040902054811015613672576000888152602560205260409020600401805482908110613632576136326157d6565b6000918252602090912060039091020154600160a01b900460ff1615613660578161365c816159b8565b9250505b8061366a816159b8565b9150506135f9565b50806000036136845750505050505050565b505b505050505050565b60008181526011602052604090205481906001600160a01b031633146136c65760405162461bcd60e51b815260040161113590615849565b60008381526010602052604090205483906001600160a01b031633146136fe5760405162461bcd60e51b8152600401611135906158c0565b82600d8581548110613712576137126157d6565b9060005260206000209060090201600201541461376a5760405162461bcd60e51b8152602060048201526016602482015275195b99da5b99481a5cc81b9bdd08185d1d1858da195960521b6044820152606401611135565b6000600d858154811061377f5761377f6157d6565b90600052602060002090600902016002018190555050505050565b60006137a46143c6565b600b8054600091826137b5836159b8565b909155506040805160608101825282815261ffff8089166020830190815260ff808a16948401948552600e80546001810182556000918252945160029095027fbb7b4a454dc3493923482f07822329ed19e8244eff582cc204f8554c3620c3fd81019590955591517fbb7b4a454dc3493923482f07822329ed19e8244eff582cc204f8554c3620c3fe90940180549551909116620100000262ffffff1990951693909216929092179290921790915590915060149061387c6000546001600160a01b031690565b6001600160a01b03168152602081019190915260400160009081208054916138a3836159b8565b9091555050600080548282526011602052604090912080546001600160a01b0319166001600160a01b039092169190911790558215613901576000818152601760205260408120849055600a8054916138fb836159b8565b91905055505b949350505050565b60008281526012602052604090205482906001600160a01b031633146139415760405162461bcd60e51b815260040161113590615770565b6000838152601260209081526040808320546001600160a01b0316835260159091529020546001108061397e57506000546001600160a01b031633145b6139ca5760405162461bcd60e51b815260206004820152601c60248201527f796f752063616e27742073616c65206c617374206368617373697321000000006044820152606401611135565b600082116139ea5760405162461bcd60e51b815260040161113590615a30565b6000838152601860205260408120549003613a155760098054906000613a0f836159b8565b91905055505b5060009182526018602052604090912055565b6000601c54600e8381548110613a4057613a406157d6565b6000918252602090912060029091020160010154613a689062010000900460ff16600a61592f565b613a769060ff166002615c15565b61146891906158a1565b60008281526010602052604090205482906001600160a01b03163314613ab85760405162461bcd60e51b8152600401611135906158c0565b6000838152601060209081526040808320546001600160a01b03168352601390915290205460011080613af557506000546001600160a01b031633145b613b415760405162461bcd60e51b815260206004820152601860248201527f796f752063616e27742073616c65206c617374206361722100000000000000006044820152606401611135565b60008211613b615760405162461bcd60e51b815260040161113590615a30565b6000838152601660205260408120549003613b8c5760088054906000613b86836159b8565b91905055505b5060009182526016602052604090912055565b60008181526012602052604090205481906001600160a01b03163314613bd75760405162461bcd60e51b815260040161113590615770565b60008381526010602052604090205483906001600160a01b03163314613c0f5760405162461bcd60e51b8152600401611135906158c0565b82600d8581548110613c2357613c236157d6565b90600052602060002090600902016003015403613c715760405162461bcd60e51b815260206004820152600c60248201526b73616d65206368617373697360a01b6044820152606401611135565b6000613c7c3361320d565b905060005b8151811015613ce55784828281518110613c9d57613c9d6157d6565b60200260200101516060015103613cd3576000828281518110613cc257613cc26157d6565b602002602001015160600181815250505b80613cdd816159b8565b915050613c81565b5083600d8681548110613cfa57613cfa6157d6565b9060005260206000209060090201600301819055505050505050565b3360009081526013602052604090205415613d3057600080fd5b600081613d3c4261493d565b604051602001613d4d929190615c21565b6040516020818303038152906040529050600081604051602001613d719190615c47565b6040516020818303038152906040528051906020012060001c90506000613d966149d0565b90506000613da2614b04565b600d80546040805161012081018252898152602080820189905291810187905260608101859052600160808201819052600060a0830181905260c0830181905260e083018190526101008301859052908401855593909352825180519495509193600985027fd7b6990105719101dabeb77144f2a3385c8033acd3af97e9423a695e81ad1eb50192613e38928492910190615056565b506020828101516001830155604080840151600284015560608401516003840155608084015160048401805460ff191660ff90921691909117905560a0840151600584015560c0840151600684015560e08401516007840155610100909301516008909201919091556000838152601082528281208054336001600160a01b0319909116811790915581526013909152908120805491613ed7836159b8565b9190505550505050505050565b613eec6143c6565b6001600160a01b038116613f515760405162461bcd60e51b815260206004820152602660248201527f4f776e61626c653a206e6577206f776e657220697320746865207a65726f206160448201526564647265737360d01b6064820152608401611135565b613f5a816145c2565b50565b6027546001600160a01b03163314613fb75760405162461bcd60e51b815260206004820152601d60248201527f796f7520617265206e6f742063686173736973206f776e6572736869700000006044820152606401611135565b6000818152601260205260409020546001600160a01b03848116911614613fdd57600080fd5b6122d8838383614c38565b600d8181548110613ff857600080fd5b906000526020600020906009020160009150905080600001805461401b906159d1565b80601f0160208091040260200160405190810160405280929190818152602001828054614047906159d1565b80156140945780601f1061406957610100808354040283529160200191614094565b820191906000526020600020905b81548152906001019060200180831161407757829003601f168201915b50505060018401546002850154600386015460048701546005880154600689015460078a01546008909a01549899959894975092955060ff90911693909289565b60008281526011602052604090205482906001600160a01b0316331461410d5760405162461bcd60e51b815260040161113590615849565b6141178383612eb2565b34146141355760405162461bcd60e51b8152600401611135906157b2565b600080546040516001600160a01b03909116913480156108fc02929091818181858888f1935050505015801561416f573d6000803e3d6000fd5b508160ff16600e8481548110614187576141876157d6565b60009182526020822060016002909202010180549091906141ad90849061ffff16615c63565b92506101000a81548161ffff021916908361ffff160217905550505050565b6141d46143c6565b6000866141e04261493d565b6040516020016141f1929190615c21565b60405160208183030381529060405290506000816040516020016142159190615c47565b6040516020818303038152906040528051906020012060001c9050600061423e8888600061379a565b9050600061424d876000612f42565b600d805460408051610120810182528e815260208082018990529181018790526060810185905260ff8b166080820152600060a0820181905260c0820181905260e08201819052610100820184905260018401855593909352825180519495509193600985027fd7b6990105719101dabeb77144f2a3385c8033acd3af97e9423a695e81ad1eb501926142e4928492910190615056565b506020828101516001830155604080840151600284015560608401516003840155608084015160048401805460ff90921660ff1990921691909117905560a0840151600584015560c0840151600684015560e0840151600784015561010090930151600890920191909155600080548482526010835283822080546001600160a01b0319166001600160a01b0392831617905581541681526013909152908120805491614390836159b8565b9091555050600081815260166020526040812087905560088054916143b4836159b8565b91905055505050505050505050505050565b6000546001600160a01b03163314611ee25760405162461bcd60e51b815260206004820181905260248201527f4f776e61626c653a2063616c6c6572206973206e6f7420746865206f776e65726044820152606401611135565b6000828152601060205260408120548190614443906001600160a01b0316611b0e565b90506144528160000151614dba565b6000600d8581548110614467576144676157d6565b9060005260206000209060090201600201549050600060019050600a85600e8481548110614497576144976157d6565b906000526020600020906002020160010160029054906101000a900460ff166144c09190615952565b60ff161061451157600a600e83815481106144dd576144dd6157d6565b60009182526020909120600290910201600101546145049062010000900460ff1687615952565b61450e919061590d565b90505b8060ff16600184600001518154811061452c5761452c6157d6565b600091825260209091206003909102016001015462010000900460ff16106145b657806001846000015181548110614566576145666157d6565b906000526020600020906003020160010160028282829054906101000a900460ff16614592919061592f565b92506101000a81548160ff021916908360ff16021790555060019350505050611468565b60009350505050611468565b600080546001600160a01b038381166001600160a01b0319831681178455604051919092169283917f8be0079c531659141344cd1fd0a4f28419497f9722a3daafe3b4186f6b6457e09190a35050565b6001600160a01b03831660009081526013602052604090205415158061464557506000546001600160a01b038481169116145b6146875760405162461bcd60e51b815260206004820152601360248201527234ba1034b9903cb7bab9103630b9ba1031b0b960691b6044820152606401611135565b600d818154811061469a5761469a6157d6565b9060005260206000209060090201600301546000146146de576000600d82815481106146c8576146c86157d6565b9060005260206000209060090201600301819055505b600d81815481106146f1576146f16157d6565b906000526020600020906009020160020154600014614735576000600d828154811061471f5761471f6157d6565b9060005260206000209060090201600201819055505b6001600160a01b0382166000908152601360205260408120805491614759836159b8565b90915550506001600160a01b03831660009081526013602052604081208054916147828361588a565b9091555050600090815260106020908152604080832080546001600160a01b0319166001600160a01b039590951694909417909355601690529081205550565b6001600160a01b0383166000908152601460205260409020541515806147f557506000546001600160a01b038481169116145b61483a5760405162461bcd60e51b8152602060048201526016602482015275697420697320796f7572206c61737420656e67696e6560501b6044820152606401611135565b60006148458461320d565b905060005b81518110156148ae5782828281518110614866576148666157d6565b6020026020010151604001510361489c57600082828151811061488b5761488b6157d6565b602002602001015160400181815250505b806148a6816159b8565b91505061484a565b506001600160a01b03831660009081526014602052604081208054916148d3836159b8565b90915550506001600160a01b03841660009081526014602052604081208054916148fc8361588a565b909155505050600090815260116020908152604080832080546001600160a01b0319166001600160a01b039590951694909417909355601790529081205550565b6060600061494a83614f19565b600101905060008167ffffffffffffffff81111561496a5761496a6154b5565b6040519080825280601f01601f191660200182016040528015614994576020820181803683370190505b5090508181016020015b600019016f181899199a1a9b1b9c1cb0b131b232b360811b600a86061a8153600a850494508461499e57509392505050565b6000806003546004546149e39190615c80565b6149ed9042615a74565b6003546149fa91906159a0565b600b80549192506000919082614a0f836159b8565b909155506040805160608101825282815261ffff808616602080840191825260055460ff908116858701908152600e80546001810182556000918252965160029097027fbb7b4a454dc3493923482f07822329ed19e8244eff582cc204f8554c3620c3fd81019790975593517fbb7b4a454dc3493923482f07822329ed19e8244eff582cc204f8554c3620c3fe90960180549151909216620100000262ffffff1990911695909416949094179290921790925533825260149052908120805492935090614adb836159b8565b9091555050600081815260116020526040902080546001600160a01b0319163317905592915050565b600080600654600754614b179190615c80565b614b219042615a74565b600654614b2e91906159a0565b600c80549192506000919082614b43836159b8565b909155506040805160608101825282815263ffffffff8086166020808401828152848601928352600f80546001810182556000918252955160029096027f8d1108e10bcb7c27dddfc02ed9d693a074039d026cf4ea4240b40f7d581ac80281019690965590517f8d1108e10bcb7c27dddfc02ed9d693a074039d026cf4ea4240b40f7d581ac8039095018054935185166401000000000267ffffffffffffffff1990941695909416949094179190911790915533825260159052908120805492935090614c0f836159b8565b9091555050600081815260126020526040902080546001600160a01b0319163317905592915050565b6001600160a01b038316600090815260156020526040902054151580614c6b57506000546001600160a01b038481169116145b614cb75760405162461bcd60e51b815260206004820152601760248201527f697420697320796f7572206c61737420636861737369730000000000000000006044820152606401611135565b6001600160a01b0382166000908152601560205260408120805491614cdb836159b8565b90915550506001600160a01b0383166000908152601560205260408120805491614d048361588a565b91905055506000614d148461320d565b905060005b8151811015614d7d5782828281518110614d3557614d356157d6565b60200260200101516060015103614d6b576000828281518110614d5a57614d5a6157d6565b602002602001015160600181815250505b80614d75816159b8565b915050614d19565b5050600090815260126020908152604080832080546001600160a01b0319166001600160a01b039590951694909417909355601890529081205550565b60004290506000610e1060018481548110614dd757614dd76157d6565b90600052602060002090600302016002015483614df49190615c80565b614dfe9190615c97565b9050600060018481548110614e1557614e156157d6565b6000918252602090912060039091020160010154614e3b90610100900460ff16836158a1565b60018581548110614e4e57614e4e6157d6565b6000918252602090912060039091020160010154614e75919062010000900460ff166159a0565b9050614eae60018581548110614e8d57614e8d6157d6565b600091825260209091206001600390920201015460ff908116908316614ff1565b60018581548110614ec157614ec16157d6565b906000526020600020906003020160010160026101000a81548160ff021916908360ff1602179055508260018581548110614efe57614efe6157d6565b90600052602060002090600302016002018190555050505050565b60008072184f03e93ff9f4daa797ed6e38ed64bf6a1f0160401b8310614f585772184f03e93ff9f4daa797ed6e38ed64bf6a1f0160401b830492506040015b6d04ee2d6d415b85acef81000000008310614f84576d04ee2d6d415b85acef8100000000830492506020015b662386f26fc100008310614fa257662386f26fc10000830492506010015b6305f5e1008310614fba576305f5e100830492506008015b6127108310614fce57612710830492506004015b60648310614fe0576064830492506002015b600a83106114685760010192915050565b60008183106150005781611465565b5090919050565b60405180610120016040528060608152602001600081526020016000815260200160008152602001600060ff168152602001600081526020016000815260200160008152602001600081525090565b828054615062906159d1565b90600052602060002090601f01602090048101928261508457600085556150ca565b82601f1061509d57805160ff19168380011785556150ca565b828001600101855582156150ca579182015b828111156150ca5782518255916020019190600101906150af565b506150d69291506150da565b5090565b5b808211156150d657600081556001016150db565b60006020828403121561510157600080fd5b5035919050565b803560ff8116811461511957600080fd5b919050565b6000806040838503121561513157600080fd5b8235915061514160208401615108565b90509250929050565b80356001600160a01b038116811461511957600080fd5b60008060006060848603121561517657600080fd5b61517f8461514a565b925061518d6020850161514a565b915061519b6040850161514a565b90509250925092565b6000602082840312156151b657600080fd5b6114658261514a565b602080825282518282018190526000919060409081850190868401855b8281101561522157815180516001600160a01b0316855286810151151587860152858101518686015260609081015190850152608090930192908501906001016151dc565b5091979650505050505050565b602080825282518282018190526000919060409081850190868401855b82811015615221578151805185528681015161ffff168786015285015160ff16858501526060909301929085019060010161524b565b6000806040838503121561529457600080fd5b50508035926020909101359150565b602080825282518282018190526000919060409081850190868401855b82811015615221578151805185528681015163ffffffff90811688870152908601511685850152606090930192908501906001016152c0565b60005b838110156153145781810151838201526020016152fc565b83811115615323576000848401525b50505050565b600081518084526153418160208601602086016152f9565b601f01601f19169290920160200192915050565b60006020808301818452808551808352604092508286019150828160051b87010184880160005b8381101561541157603f19898403018552815161012081518186526153a382870182615329565b9150508882015189860152878201518886015260608083015181870152506080808301516153d58288018260ff169052565b505060a0828101519086015260c0808301519086015260e08083015190860152610100918201519190940152938601939086019060010161537c565b509098975050505050505050565b60008060006060848603121561543457600080fd5b61543d8461514a565b925061544b6020850161514a565b9150604084013590509250925092565b6000806040838503121561546e57600080fd5b6154778361514a565b946020939093013593505050565b803563ffffffff8116811461511957600080fd5b600080604083850312156154ac57600080fd5b61547783615485565b634e487b7160e01b600052604160045260246000fd5b604051601f8201601f1916810167ffffffffffffffff811182821017156154f4576154f46154b5565b604052919050565b6000806040838503121561550f57600080fd5b8235915060208084013567ffffffffffffffff8082111561552f57600080fd5b818601915086601f83011261554357600080fd5b813581811115615555576155556154b5565b8060051b91506155668483016154cb565b818152918301840191848101908984111561558057600080fd5b938501935b8385101561559e57843582529385019390850190615585565b8096505050505050509250929050565b803561ffff8116811461511957600080fd5b6000806000606084860312156155d557600080fd5b6155de846155ae565b925061544b60208501615108565b600082601f8301126155fd57600080fd5b813567ffffffffffffffff811115615617576156176154b5565b61562a601f8201601f19166020016154cb565b81815284602083860101111561563f57600080fd5b816020850160208301376000918101602001919091529392505050565b60006020828403121561566e57600080fd5b813567ffffffffffffffff81111561568557600080fd5b613901848285016155ec565b60006101208083526156a58184018d615329565b602084019b909b5250506040810197909752606087019590955260ff93909316608086015260a085019190915260c084015260e083015261010090910152919050565b60008060008060008060c0878903121561570157600080fd5b863567ffffffffffffffff81111561571857600080fd5b61572489828a016155ec565b965050615733602088016155ae565b945061574160408801615108565b935061574f60608801615485565b925061575d60808801615108565b915060a087013590509295509295509295565b60208082526022908201527f796f75277265206e6f74206f776e657220666f72207468697320436861737369604082015261732160f01b606082015260800190565b6020808252600a90820152691ddc9bdb99c818dbdcdd60b21b604082015260600190565b634e487b7160e01b600052603260045260246000fd5b634e487b7160e01b600052601160045260246000fd5b600063ffffffff808316818516808303821115615821576158216157ec565b01949350505050565b600060ff821660ff8103615840576158406157ec565b60010192915050565b60208082526021908201527f796f75277265206e6f74206f776e657220666f72207468697320456e67696e656040820152602160f81b606082015260800190565b600081615899576158996157ec565b506000190190565b60008160001904831182151516156158bb576158bb6157ec565b500290565b6020808252601e908201527f796f75277265206e6f74206f776e657220666f72207468697320436172210000604082015260600190565b634e487b7160e01b600052601260045260246000fd5b600060ff831680615920576159206158f7565b8060ff84160491505092915050565b600060ff821660ff841680821015615949576159496157ec565b90039392505050565b600060ff821660ff84168160ff0481118215151615615973576159736157ec565b029392505050565b600063ffffffff83811690831681811015615998576159986157ec565b039392505050565b600082198211156159b3576159b36157ec565b500190565b6000600182016159ca576159ca6157ec565b5060010190565b600181811c908216806159e557607f821691505b602082108103615a0557634e487b7160e01b600052602260045260246000fd5b50919050565b600060ff821660ff84168060ff03821115615a2857615a286157ec565b019392505050565b6020808252600d908201526c696e76616c696420707269636560981b604082015260600190565b600060ff821680615a6a57615a6a6157ec565b6000190192915050565b600082615a8357615a836158f7565b500690565b838152826020820152606060408201526000615aa76060830184615329565b95945050505050565b600060208284031215615ac257600080fd5b5051919050565b6000604082018483526020604081850152818551808452606086019150828701935060005b81811015615b0a57845183529383019391830191600101615aee565b5090979650505050505050565b600060208284031215615b2957600080fd5b8151801515811461146557600080fd5b600181815b80851115615b74578160001904821115615b5a57615b5a6157ec565b80851615615b6757918102915b93841c9390800290615b3e565b509250929050565b600082615b8b57506001611468565b81615b9857506000611468565b8160018114615bae5760028114615bb857615bd4565b6001915050611468565b60ff841115615bc957615bc96157ec565b50506001821b611468565b5060208310610133831016604e8410600b8410161715615bf7575081810a611468565b615c018383615b39565b8060001904821115615973576159736157ec565b60006114658383615b7c565b60008351615c338184602088016152f9565b8351908301906158218183602088016152f9565b60008251615c598184602087016152f9565b9190910192915050565b600061ffff808316818516808303821115615821576158216157ec565b600082821015615c9257615c926157ec565b500390565b600082615ca657615ca66158f7565b50049056fea2646970667358221220908d962f166912462b3c0fd78b0f04ea531090d43e9e29623687fa1632577a4a64736f6c634300080d0033",
  "immutableReferences": {},
  "source": "// SPDX-License-Identifier: MIT\npragma solidity ^0.8.13;\n\nimport \"./CarRacing.sol\";\n\n/// @title token owner\ncontract TokenOwnership is CarRacing{\n\n\n\n    address chassisOwnership;\n    address engineOwnership;\n    address carOwnership;\n\n    function init(address _chassisOwnership, address _engineOwnership, address _carOwnership) public onlyOwner{\n        chassisOwnership = _chassisOwnership;\n        engineOwnership = _engineOwnership;\n        carOwnership = _carOwnership;\n    }\n\n    /// @notice number of user cars\n    /// @param _owner owner address\n    /// @return uint256 number of cars\n    function balanceOfCars(address _owner) external view returns (uint256) {\n        return ownerCarCount[_owner];\n    }\n\n    /// @notice car owner\n    /// @param _tokenId car id token\n    /// @return address owner adress\n    function ownerOfCar(uint256 _tokenId) external view returns(address) {\n        return carToOwner[_tokenId];\n    }\n\n    /// @notice car token transfer\n    /// @param _from sender's address\n    /// @param _to address of the recipient\n    /// @param _tokenId car id token\n    /// @dev the car is sold disassembled (without chassis and engine), chassis and engine remain with the sender\n    function _transferCar(address _from, address _to, uint256 _tokenId) private {\n        require(ownerCarCount[_from]>0 || _from==owner(), \"it is your last car\");\n\n        if(cars[_tokenId].chassisId != 0){\n            cars[_tokenId].chassisId = 0;\n        }\n        if(cars[_tokenId].engineId != 0){\n            cars[_tokenId].engineId = 0;\n        }\n        ownerCarCount[_to]++;// = ownerCarCount[_to].add(1);\n        ownerCarCount[_from]--;// = ownerCarCount[_from].sub(1);\n        carToOwner[_tokenId] = _to;\n        delete carToPrice[_tokenId];\n    }\n    \n    /// @notice moving car after payment\n    /// @param _from sender's address\n    /// @param _to address of the recipient\n    /// @param _tokenId token id\n    /// @dev call function for moving car after payment\n    function transferCarFrom(address _from, address _to, uint256 _tokenId) external {\n        require(msg.sender == carOwnership, \"you are not car ownership\");\n        require (carToOwner[_tokenId] == _from || carToPrice[_tokenId] != 0);\n        _transferCar(_from, _to, _tokenId);\n    }\n\n\n    /// @notice number of user engines\n    /// @param _owner owner address\n    /// @return uint256 number of owner engine\n    function balanceOfEngines(address _owner) external view returns (uint256) {\n        return ownerEngineCount[_owner];\n    }\n\n    /// @notice owner of engine\n    /// @param _tokenId token id\n    /// @return address owner address\n    function ownerOfEngine(uint256 _tokenId) external view returns(address) {\n        return engineToOwner[_tokenId];\n    }\n\n    /// @notice engine token transfer\n    /// @param _from sender's address\n    /// @param _to address of the recipient\n    /// @param _tokenId engine id token\n    function _transferEngine(address _from, address _to, uint256 _tokenId) private {\n        require(ownerEngineCount[_from]>0 || _from==owner(), \"it is your last engine\");\n\n        Car[] memory cars = getCarsByOwner(_from);\n        \n        for(uint i = 0; i<cars.length; i++){\n            if(cars[i].engineId == _tokenId){\n                cars[i].engineId = 0;\n            }\n        }\n        ownerEngineCount[_to]++;// = ownerEngineCount[_to].add(1);\n        ownerEngineCount[_from]--;// = ownerEngineCount[_from].sub(1);\n        engineToOwner[_tokenId] = _to;\n        \n        delete engineToPrice[_tokenId];\n    }\n\n    /// @notice moving engine from sender\n    /// @param _from sender's address\n    /// @param _to address of the recipient\n    /// @param _tokenId engine id token\n    /// @dev call function for moving engine from sender after payment\n    function transferEngineFrom(address _from, address _to, uint256 _tokenId) external {\n        require(msg.sender == engineOwnership, \"you are not engine ownership\");\n        require (engineToOwner[_tokenId] == _from);\n        _transferEngine(_from, _to, _tokenId);\n    }\n    \n\n    /// @notice number of user chassis\n    /// @param _owner owner address\n    /// @return uint256 number of owner chassis\n    function balanceOfChassis(address _owner) external view returns (uint256) {\n        return ownerChassisCount[_owner];\n    }\n\n    /// @notice chassis owner\n    /// @param _tokenId chassis id token\n    /// @return address owner adress\n    function ownerOfChassis(uint256 _tokenId) external view returns(address) {\n        return chassisToOwner[_tokenId];\n    }\n\n    /// @notice transfer chassis\n    /// @param _from sender's address\n    /// @param _to address of the recipient\n    /// @param _tokenId chassis id token\n    /// @dev add chassis to recipient\n    function _transferChassis(address _from, address _to, uint256 _tokenId) private {\n        require(ownerChassisCount[_from]>0 || _from==owner(), \"it is your last chassis\");\n\n        ownerChassisCount[_to]++;// = ownerChassisCount[_to].add(1);\n        ownerChassisCount[_from]--;// = ownerChassisCount[_from].sub(1);\n        Car[] memory cars = getCarsByOwner(_from);\n        for(uint i = 0; i<cars.length; i++){\n            if(cars[i].chassisId == _tokenId){\n                cars[i].chassisId = 0;\n            }\n        }\n        chassisToOwner[_tokenId] = _to;\n\n        delete chassisToPrice[_tokenId];\n    }\n\n    /// @notice moving chassis after payment\n    /// @param _from sender's address\n    /// @param _to address of the recipient\n    /// @param _tokenId token id\n    /// @dev call function for moving chassis after payment\n    function transferChassisFrom(address _from, address _to, uint256 _tokenId) external {\n        require(msg.sender == chassisOwnership, \"you are not chassis ownership\");\n        require (chassisToOwner[_tokenId] == _from);\n        _transferChassis(_from, _to, _tokenId);\n    }\n\n\n    /// @notice selling chassis from owner on marketplace\n    /// @param chassisId chassis id\n    /// @param price chassis cost\n    /// @dev using only for owner chassis\n    function putChassisOnMarketplace(uint chassisId, uint price) public onlyOwnerOfChassis(chassisId){\n        require(ownerChassisCount[chassisToOwner[chassisId]] > 1 || msg.sender == owner(), \"you can't sale last chassis!\");\n        require(price>0, \"invalid price\");\n        if(chassisToPrice[chassisId]==0){\n            chassisForSaleCount++;\n        }\n        chassisToPrice[chassisId] = price;\n    }\n\n    /// @notice withdraw chassis from marketplace\n    /// @param chassisId chassis id\n    /// @dev using only for owner chassis\n    function removeChassisFromMarketplace(uint chassisId) public onlyOwnerOfChassis(chassisId){\n        if(chassisToPrice[chassisId]!=0){\n            chassisForSaleCount--;\n        }\n        chassisToPrice[chassisId] = 0;\n    }\n\n    /// @notice selling engine from owner on marketplace\n    /// @param engineId engine id\n    /// @param price engine cost\n    /// @dev using only for owner engine\n    function putEngineOnMarketplace(uint engineId, uint price) public onlyOwnerOfEngine(engineId){\n        require(ownerEngineCount[engineToOwner[engineId]] > 1 || msg.sender == owner(), \"you can't sale last engine!\");\n        require(price>0, \"invalid price\");\n        if(engineToPrice[engineId]==0){\n            enginesForSaleCount++;\n        }\n        engineToPrice[engineId] = price;\n    }\n\n    /// @notice withdraw engine from marketplace\n    /// @param engineId engine id\n    /// @dev using only for owner engine\n    function removeEngineFromMarketplace(uint engineId) public onlyOwnerOfEngine(engineId){\n        if(engineToPrice[engineId]!=0){\n            enginesForSaleCount--;\n        }\n        engineToPrice[engineId] = 0;\n    }\n\n    /// @notice selling car from owner on marketplace\n    /// @param carId car id\n    /// @param price car cost\n    /// @dev using only for owner car\n    function putCarOnMarketplace(uint carId, uint price) public onlyOwnerOfCar(carId){\n        require(ownerCarCount[carToOwner[carId]] > 1 || msg.sender == owner(), \"you can't sale last car!\");\n        require(price>0, \"invalid price\");\n        if(carToPrice[carId]==0){\n            carsForSaleCount++;\n        }\n        carToPrice[carId] = price;\n    }\n\n    /// @notice withdraw car from marketplace\n    /// @param carId car id\n    /// @dev using only for owner car\n    function removeCarFromMarketplace(uint carId) public onlyOwnerOfCar(carId){\n        if(carToPrice[carId]!=0){\n            carsForSaleCount--;\n        }\n        carToPrice[carId] = 0;\n    }\n\n\n    function getCarsForSale() public view returns(Car[] memory){\n        Car[] memory res = new Car[](carsForSaleCount);\n        uint c = 0;\n        for(uint i = 0; i<cars.length; i++){\n            if(carToPrice[i]!=0){\n                res[c++] = cars[i];\n            }\n        }\n        return res;\n    }\n\n    function getEnginesForSale() public view returns(Engine[] memory){\n        Engine[] memory res = new Engine[](enginesForSaleCount);\n        uint c = 0;\n        for(uint i = 1; i<engines.length; i++){\n            if(engineToPrice[i]!=0){\n                res[c++] = engines[i];\n            }\n        }\n        return res;\n    }\n\n    function getChassisForSale() public view returns(Chassis[] memory){\n        Chassis[] memory res = new Chassis[](chassisForSaleCount);\n        uint c = 0;\n        for(uint i = 1; i<chassis.length; i++){\n            if(chassisToPrice[i]!=0){\n                res[c++] = chassis[i];\n            }\n        }\n        return res;\n    }\n\n}",
  "sourcePath": "/Users/vvan/Programming/JavaScript/DriveSafely/contract/contracts/TokenOwnership.sol",
  "compiler": {
    "name": "solc",
    "version": "0.8.13+commit.abaa5c0e.Emscripten.clang"
  },
  "schemaVersion": "3.4.11",
  "updatedAt": "2023-01-12T23:42:32.749Z",
  "networkType": "ethereum",
  "devdoc": {
    "kind": "dev",
    "methods": {
      "balanceOfCars(address)": {
        "params": {
          "_owner": "owner address"
        },
        "returns": {
          "_0": "uint256 number of cars"
        }
      },
      "balanceOfChassis(address)": {
        "params": {
          "_owner": "owner address"
        },
        "returns": {
          "_0": "uint256 number of owner chassis"
        }
      },
      "balanceOfEngines(address)": {
        "params": {
          "_owner": "owner address"
        },
        "returns": {
          "_0": "uint256 number of owner engine"
        }
      },
      "commitAnswer(uint256,uint256[])": {
        "params": {
          "answer": "?",
          "roomId": "room id"
        }
      },
      "createCar(string)": {
        "details": "creating new car for user",
        "params": {
          "model": "car model"
        }
      },
      "createCustomCar(string,uint16,uint8,uint32,uint8,uint256)": {
        "details": "creation car for customer with different characteristics",
        "params": {
          "_carLevel": "car level",
          "_carPrice": "car price",
          "_consumtion": "car consumtion",
          "_durability": "car durability",
          "_horsePowers": "car horse powers",
          "_model": "car model"
        }
      },
      "createCustomChassis(uint32,uint256)": {
        "params": {
          "_chassisPrice": "chassis price",
          "_durability": "car durability"
        },
        "returns": {
          "_0": "id new chassis"
        }
      },
      "createCustomEngine(uint16,uint8,uint256)": {
        "params": {
          "_consumtion": "car consumtion",
          "_enginePrice": "car engine price",
          "_horsePowers": "car horse powers"
        },
        "returns": {
          "_0": "id new engine"
        }
      },
      "detachChassis(uint256,uint256)": {
        "details": "for installation new chassis",
        "params": {
          "carId": "car id",
          "chassisId": "chassis id"
        }
      },
      "detachEngine(uint256,uint256)": {
        "details": "for installation new engine",
        "params": {
          "carId": "car id",
          "engineId": "engine id"
        }
      },
      "findRoom(address,uint256)": {
        "details": "if exist appropriate room for current user, user start competition in this room, else add new room",
        "params": {
          "carId": "car id"
        }
      },
      "getCapacityUpgradeCost(uint256,uint8)": {
        "params": {
          "_counts": "size",
          "_fuelStatonId": "fuel station id"
        },
        "returns": {
          "_0": "uint new capacity"
        }
      },
      "getCarsByOwner(address)": {
        "params": {
          "_owner": "owner's address"
        },
        "returns": {
          "_0": "Car[] memory owner's list of cars"
        }
      },
      "getChassisByOwner(address)": {
        "params": {
          "_owner": "owner's address"
        },
        "returns": {
          "_0": "Chassis[] memory owner's list of chassis"
        }
      },
      "getClosedRoom(uint256)": {
        "details": "called after receiving the event about sending the last response to the room",
        "params": {
          "roomId": "room id"
        },
        "returns": {
          "_0": "Answer[] memory list with player response, player, player car and response time"
        }
      },
      "getEnginesByOwner(address)": {
        "params": {
          "_owner": "owner's address"
        },
        "returns": {
          "_0": "Engine[] memory owner's list of engines"
        }
      },
      "getFuelStationByOwner(address)": {
        "details": "exist only one",
        "params": {
          "_owner": "owner's address"
        },
        "returns": {
          "_0": "FuelStation memory one owner fuel station"
        }
      },
      "levelUp(uint256)": {
        "params": {
          "_carId": "car id"
        }
      },
      "owner()": {
        "details": "Returns the address of the current owner."
      },
      "ownerOfCar(uint256)": {
        "params": {
          "_tokenId": "car id token"
        },
        "returns": {
          "_0": "address owner adress"
        }
      },
      "ownerOfChassis(uint256)": {
        "params": {
          "_tokenId": "chassis id token"
        },
        "returns": {
          "_0": "address owner adress"
        }
      },
      "ownerOfEngine(uint256)": {
        "params": {
          "_tokenId": "token id"
        },
        "returns": {
          "_0": "address owner address"
        }
      },
      "putCarOnMarketplace(uint256,uint256)": {
        "details": "using only for owner car",
        "params": {
          "carId": "car id",
          "price": "car cost"
        }
      },
      "putChassisOnMarketplace(uint256,uint256)": {
        "details": "using only for owner chassis",
        "params": {
          "chassisId": "chassis id",
          "price": "chassis cost"
        }
      },
      "putEngineOnMarketplace(uint256,uint256)": {
        "details": "using only for owner engine",
        "params": {
          "engineId": "engine id",
          "price": "engine cost"
        }
      },
      "removeCarFromMarketplace(uint256)": {
        "details": "using only for owner car",
        "params": {
          "carId": "car id"
        }
      },
      "removeChassisFromMarketplace(uint256)": {
        "details": "using only for owner chassis",
        "params": {
          "chassisId": "chassis id"
        }
      },
      "removeEngineFromMarketplace(uint256)": {
        "details": "using only for owner engine",
        "params": {
          "engineId": "engine id"
        }
      },
      "renounceOwnership()": {
        "details": "Leaves the contract without owner. It will not be possible to call `onlyOwner` functions anymore. Can only be called by the current owner. NOTE: Renouncing ownership will leave the contract without an owner, thereby removing any functionality that is only available to the owner."
      },
      "startRace(uint256)": {
        "params": {
          "_carId": "car id"
        }
      },
      "switchChassis(uint256,uint256)": {
        "params": {
          "carId": "car id",
          "chassisId": "chassis id"
        }
      },
      "switchEngine(uint256,uint256)": {
        "params": {
          "carId": "car id",
          "engineId": "engine id"
        }
      },
      "transferCarFrom(address,address,uint256)": {
        "details": "call function for moving car after payment",
        "params": {
          "_from": "sender's address",
          "_to": "address of the recipient",
          "_tokenId": "token id"
        }
      },
      "transferChassisFrom(address,address,uint256)": {
        "details": "call function for moving chassis after payment",
        "params": {
          "_from": "sender's address",
          "_to": "address of the recipient",
          "_tokenId": "token id"
        }
      },
      "transferEngineFrom(address,address,uint256)": {
        "details": "call function for moving engine from sender after payment",
        "params": {
          "_from": "sender's address",
          "_to": "address of the recipient",
          "_tokenId": "engine id token"
        }
      },
      "transferOwnership(address)": {
        "details": "Transfers ownership of the contract to a new account (`newOwner`). Can only be called by the current owner."
      },
      "upgradeCapacity(uint256,uint8)": {
        "params": {
          "_counts": "size",
          "_fuelStatonId": "fuel station id"
        }
      },
      "upgradeConsumtion(uint256)": {
        "params": {
          "_engineId": "engine id"
        }
      },
      "upgradeDurability(uint256,uint8)": {
        "params": {
          "_chassisId": "chassis id",
          "_counts": "size"
        }
      },
      "upgradeHorsePowers(uint256,uint8)": {
        "params": {
          "_counts": "size",
          "_engineId": "engine id"
        }
      },
      "upgradeProductionPerHour(uint256,uint8)": {
        "params": {
          "_counts": "size",
          "_fuelStatonId": "fuel station id"
        }
      }
    },
    "title": "token owner",
    "version": 1
  },
  "userdoc": {
    "kind": "user",
    "methods": {
      "balanceOfCars(address)": {
        "notice": "number of user cars"
      },
      "balanceOfChassis(address)": {
        "notice": "number of user chassis"
      },
      "balanceOfEngines(address)": {
        "notice": "number of user engines"
      },
      "commitAnswer(uint256,uint256[])": {
        "notice": "commit ans"
      },
      "createCar(string)": {
        "notice": "creating car"
      },
      "createCustomCar(string,uint16,uint8,uint32,uint8,uint256)": {
        "notice": "customer car creation    (    )"
      },
      "createCustomChassis(uint32,uint256)": {
        "notice": "customer chassis creation"
      },
      "createCustomEngine(uint16,uint8,uint256)": {
        "notice": "customer engine creation"
      },
      "detachChassis(uint256,uint256)": {
        "notice": "removal of the old chassis"
      },
      "detachEngine(uint256,uint256)": {
        "notice": "removal of the old engine"
      },
      "findRoom(address,uint256)": {
        "notice": "search room for competition"
      },
      "getCapacityUpgradeCost(uint256,uint8)": {
        "notice": "upgrade capacity"
      },
      "getCarsByOwner(address)": {
        "notice": "list of owner cars"
      },
      "getChassisByOwner(address)": {
        "notice": "list of owner chassis"
      },
      "getClosedRoom(uint256)": {
        "notice": "get closed room"
      },
      "getEnginesByOwner(address)": {
        "notice": "list of owner engines"
      },
      "getFuelStationByOwner(address)": {
        "notice": "fuel station of owner"
      },
      "levelUp(uint256)": {
        "notice": "upgrade car level"
      },
      "ownerOfCar(uint256)": {
        "notice": "car owner"
      },
      "ownerOfChassis(uint256)": {
        "notice": "chassis owner"
      },
      "ownerOfEngine(uint256)": {
        "notice": "owner of engine"
      },
      "putCarOnMarketplace(uint256,uint256)": {
        "notice": "selling car from owner on marketplace"
      },
      "putChassisOnMarketplace(uint256,uint256)": {
        "notice": "selling chassis from owner on marketplace"
      },
      "putEngineOnMarketplace(uint256,uint256)": {
        "notice": "selling engine from owner on marketplace"
      },
      "removeCarFromMarketplace(uint256)": {
        "notice": "withdraw car from marketplace"
      },
      "removeChassisFromMarketplace(uint256)": {
        "notice": "withdraw chassis from marketplace"
      },
      "removeEngineFromMarketplace(uint256)": {
        "notice": "withdraw engine from marketplace"
      },
      "startRace(uint256)": {
        "notice": "start race"
      },
      "switchChassis(uint256,uint256)": {
        "notice": "changing chassis in owner's car"
      },
      "switchEngine(uint256,uint256)": {
        "notice": "changing engine in owner's car"
      },
      "transferCarFrom(address,address,uint256)": {
        "notice": "moving car after payment"
      },
      "transferChassisFrom(address,address,uint256)": {
        "notice": "moving chassis after payment"
      },
      "transferEngineFrom(address,address,uint256)": {
        "notice": "moving engine from sender"
      },
      "upgradeCapacity(uint256,uint8)": {
        "notice": "upgrade capacity of fuel station"
      },
      "upgradeConsumtion(uint256)": {
        "notice": "upgrade consumption"
      },
      "upgradeDurability(uint256,uint8)": {
        "notice": "upgrade durability"
      },
      "upgradeHorsePowers(uint256,uint8)": {
        "notice": "upgrade horse powers"
      },
      "upgradeProductionPerHour(uint256,uint8)": {
        "notice": "upgrade production on per hour"
      }
    },
    "version": 1
  }
}