{
  "contractName": "TokenOwnership",
  "abi": [
    {
      "anonymous": false,
      "inputs": [
        {
          "indexed": true,
          "internalType": "address",
          "name": "previousOwner",
          "type": "address"
        },
        {
          "indexed": true,
          "internalType": "address",
          "name": "newOwner",
          "type": "address"
        }
      ],
      "name": "OwnershipTransferred",
      "type": "event"
    },
    {
      "anonymous": false,
      "inputs": [
        {
          "indexed": false,
          "internalType": "uint256",
          "name": "roomId",
          "type": "uint256"
        }
      ],
      "name": "RoomClosed",
      "type": "event"
    },
    {
      "anonymous": false,
      "inputs": [
        {
          "indexed": false,
          "internalType": "uint256",
          "name": "roomId",
          "type": "uint256"
        },
        {
          "indexed": false,
          "internalType": "uint256",
          "name": "roomDNA",
          "type": "uint256"
        }
      ],
      "name": "RoomFull",
      "type": "event"
    },
    {
      "inputs": [
        {
          "internalType": "uint256",
          "name": "",
          "type": "uint256"
        }
      ],
      "name": "carToOwner",
      "outputs": [
        {
          "internalType": "address",
          "name": "",
          "type": "address"
        }
      ],
      "stateMutability": "view",
      "type": "function"
    },
    {
      "inputs": [
        {
          "internalType": "uint256",
          "name": "",
          "type": "uint256"
        }
      ],
      "name": "cars",
      "outputs": [
        {
          "internalType": "string",
          "name": "model",
          "type": "string"
        },
        {
          "internalType": "uint256",
          "name": "vin",
          "type": "uint256"
        },
        {
          "internalType": "uint256",
          "name": "engineId",
          "type": "uint256"
        },
        {
          "internalType": "uint256",
          "name": "chassisId",
          "type": "uint256"
        },
        {
          "internalType": "uint8",
          "name": "carLevel",
          "type": "uint8"
        },
        {
          "internalType": "uint256",
          "name": "mileage",
          "type": "uint256"
        },
        {
          "internalType": "uint256",
          "name": "winCountOnCurrentLevel",
          "type": "uint256"
        },
        {
          "internalType": "uint256",
          "name": "lossCountOnCurrentLevel",
          "type": "uint256"
        }
      ],
      "stateMutability": "view",
      "type": "function"
    },
    {
      "inputs": [
        {
          "internalType": "uint256",
          "name": "",
          "type": "uint256"
        }
      ],
      "name": "chassis",
      "outputs": [
        {
          "internalType": "uint256",
          "name": "id",
          "type": "uint256"
        },
        {
          "internalType": "uint32",
          "name": "durability",
          "type": "uint32"
        },
        {
          "internalType": "uint32",
          "name": "resource",
          "type": "uint32"
        }
      ],
      "stateMutability": "view",
      "type": "function"
    },
    {
      "inputs": [
        {
          "internalType": "uint256",
          "name": "",
          "type": "uint256"
        }
      ],
      "name": "chassisToOwner",
      "outputs": [
        {
          "internalType": "address",
          "name": "",
          "type": "address"
        }
      ],
      "stateMutability": "view",
      "type": "function"
    },
    {
      "inputs": [
        {
          "internalType": "uint256",
          "name": "roomId",
          "type": "uint256"
        },
        {
          "internalType": "uint256[]",
          "name": "answer",
          "type": "uint256[]"
        }
      ],
      "name": "commitAnswer",
      "outputs": [],
      "stateMutability": "nonpayable",
      "type": "function"
    },
    {
      "inputs": [],
      "name": "createCar",
      "outputs": [],
      "stateMutability": "nonpayable",
      "type": "function"
    },
    {
      "inputs": [],
      "name": "createFuelStation",
      "outputs": [],
      "stateMutability": "nonpayable",
      "type": "function"
    },
    {
      "inputs": [
        {
          "internalType": "uint256",
          "name": "",
          "type": "uint256"
        }
      ],
      "name": "engineToOwner",
      "outputs": [
        {
          "internalType": "address",
          "name": "",
          "type": "address"
        }
      ],
      "stateMutability": "view",
      "type": "function"
    },
    {
      "inputs": [
        {
          "internalType": "uint256",
          "name": "",
          "type": "uint256"
        }
      ],
      "name": "engines",
      "outputs": [
        {
          "internalType": "uint256",
          "name": "id",
          "type": "uint256"
        },
        {
          "internalType": "uint16",
          "name": "horsePowers",
          "type": "uint16"
        },
        {
          "internalType": "uint8",
          "name": "consumtion",
          "type": "uint8"
        }
      ],
      "stateMutability": "view",
      "type": "function"
    },
    {
      "inputs": [
        {
          "internalType": "uint256",
          "name": "carId",
          "type": "uint256"
        }
      ],
      "name": "findRoom",
      "outputs": [],
      "stateMutability": "nonpayable",
      "type": "function"
    },
    {
      "inputs": [
        {
          "internalType": "uint256",
          "name": "",
          "type": "uint256"
        }
      ],
      "name": "fuelStationToOwner",
      "outputs": [
        {
          "internalType": "address",
          "name": "",
          "type": "address"
        }
      ],
      "stateMutability": "view",
      "type": "function"
    },
    {
      "inputs": [
        {
          "internalType": "address",
          "name": "_owner",
          "type": "address"
        }
      ],
      "name": "getCarsByOwner",
      "outputs": [
        {
          "components": [
            {
              "internalType": "string",
              "name": "model",
              "type": "string"
            },
            {
              "internalType": "uint256",
              "name": "vin",
              "type": "uint256"
            },
            {
              "internalType": "uint256",
              "name": "engineId",
              "type": "uint256"
            },
            {
              "internalType": "uint256",
              "name": "chassisId",
              "type": "uint256"
            },
            {
              "internalType": "uint8",
              "name": "carLevel",
              "type": "uint8"
            },
            {
              "internalType": "uint256",
              "name": "mileage",
              "type": "uint256"
            },
            {
              "internalType": "uint256",
              "name": "winCountOnCurrentLevel",
              "type": "uint256"
            },
            {
              "internalType": "uint256",
              "name": "lossCountOnCurrentLevel",
              "type": "uint256"
            }
          ],
          "internalType": "struct CarFactory.Car[]",
          "name": "",
          "type": "tuple[]"
        }
      ],
      "stateMutability": "view",
      "type": "function"
    },
    {
      "inputs": [
        {
          "internalType": "address",
          "name": "_owner",
          "type": "address"
        }
      ],
      "name": "getChassisByOwner",
      "outputs": [
        {
          "internalType": "uint256[]",
          "name": "",
          "type": "uint256[]"
        }
      ],
      "stateMutability": "view",
      "type": "function"
    },
    {
      "inputs": [
        {
          "internalType": "uint256",
          "name": "roomId",
          "type": "uint256"
        }
      ],
      "name": "getClosedRoom",
      "outputs": [
        {
          "components": [
            {
              "internalType": "address",
              "name": "player",
              "type": "address"
            },
            {
              "internalType": "bool",
              "name": "correct",
              "type": "bool"
            },
            {
              "internalType": "uint256",
              "name": "time",
              "type": "uint256"
            },
            {
              "internalType": "uint256",
              "name": "carId",
              "type": "uint256"
            }
          ],
          "internalType": "struct RaceHandler.Answer[]",
          "name": "",
          "type": "tuple[]"
        }
      ],
      "stateMutability": "view",
      "type": "function"
    },
    {
      "inputs": [
        {
          "internalType": "address",
          "name": "_owner",
          "type": "address"
        }
      ],
      "name": "getEnginesByOwner",
      "outputs": [
        {
          "internalType": "uint256[]",
          "name": "",
          "type": "uint256[]"
        }
      ],
      "stateMutability": "view",
      "type": "function"
    },
    {
      "inputs": [
        {
          "internalType": "address",
          "name": "_owner",
          "type": "address"
        }
      ],
      "name": "getFuelStationByOwner",
      "outputs": [
        {
          "internalType": "uint256",
          "name": "",
          "type": "uint256"
        }
      ],
      "stateMutability": "view",
      "type": "function"
    },
    {
      "inputs": [
        {
          "internalType": "uint256",
          "name": "",
          "type": "uint256"
        }
      ],
      "name": "idToStartedRooms",
      "outputs": [
        {
          "internalType": "uint256",
          "name": "numberPlayers",
          "type": "uint256"
        },
        {
          "internalType": "uint256",
          "name": "world",
          "type": "uint256"
        },
        {
          "internalType": "uint256",
          "name": "roomDNA",
          "type": "uint256"
        },
        {
          "internalType": "uint256",
          "name": "startTime",
          "type": "uint256"
        },
        {
          "internalType": "uint256",
          "name": "curAnswer",
          "type": "uint256"
        },
        {
          "internalType": "bool",
          "name": "closed",
          "type": "bool"
        }
      ],
      "stateMutability": "view",
      "type": "function"
    },
    {
      "inputs": [
        {
          "internalType": "uint256",
          "name": "_carId",
          "type": "uint256"
        }
      ],
      "name": "levelUp",
      "outputs": [],
      "stateMutability": "payable",
      "type": "function"
    },
    {
      "inputs": [
        {
          "internalType": "uint256",
          "name": "",
          "type": "uint256"
        }
      ],
      "name": "openedRooms",
      "outputs": [
        {
          "internalType": "uint256",
          "name": "id",
          "type": "uint256"
        },
        {
          "internalType": "uint256",
          "name": "playersEntered",
          "type": "uint256"
        },
        {
          "internalType": "uint256",
          "name": "world",
          "type": "uint256"
        },
        {
          "components": [
            {
              "internalType": "uint256",
              "name": "playersNeeded",
              "type": "uint256"
            },
            {
              "internalType": "uint256",
              "name": "roadsNum",
              "type": "uint256"
            },
            {
              "internalType": "uint256",
              "name": "crossId",
              "type": "uint256"
            }
          ],
          "internalType": "struct RaceHandler.Cross",
          "name": "cross",
          "type": "tuple"
        }
      ],
      "stateMutability": "view",
      "type": "function"
    },
    {
      "inputs": [],
      "name": "owner",
      "outputs": [
        {
          "internalType": "address",
          "name": "",
          "type": "address"
        }
      ],
      "stateMutability": "view",
      "type": "function"
    },
    {
      "inputs": [
        {
          "internalType": "address",
          "name": "",
          "type": "address"
        }
      ],
      "name": "ownerCarCount",
      "outputs": [
        {
          "internalType": "uint256",
          "name": "",
          "type": "uint256"
        }
      ],
      "stateMutability": "view",
      "type": "function"
    },
    {
      "inputs": [],
      "name": "renounceOwnership",
      "outputs": [],
      "stateMutability": "nonpayable",
      "type": "function"
    },
    {
      "inputs": [
        {
          "internalType": "uint256",
          "name": "_carId",
          "type": "uint256"
        }
      ],
      "name": "startRace",
      "outputs": [],
      "stateMutability": "nonpayable",
      "type": "function"
    },
    {
      "inputs": [
        {
          "internalType": "uint256",
          "name": "",
          "type": "uint256"
        }
      ],
      "name": "stations",
      "outputs": [
        {
          "internalType": "uint256",
          "name": "id",
          "type": "uint256"
        },
        {
          "internalType": "uint8",
          "name": "capacity",
          "type": "uint8"
        },
        {
          "internalType": "uint8",
          "name": "productionPerHour",
          "type": "uint8"
        },
        {
          "internalType": "uint8",
          "name": "currentFullness",
          "type": "uint8"
        },
        {
          "internalType": "uint256",
          "name": "lastUpdate",
          "type": "uint256"
        }
      ],
      "stateMutability": "view",
      "type": "function"
    },
    {
      "inputs": [
        {
          "internalType": "address",
          "name": "newOwner",
          "type": "address"
        }
      ],
      "name": "transferOwnership",
      "outputs": [],
      "stateMutability": "nonpayable",
      "type": "function"
    },
    {
      "inputs": [
        {
          "internalType": "uint256",
          "name": "_fuelStatonId",
          "type": "uint256"
        },
        {
          "internalType": "uint8",
          "name": "_counts",
          "type": "uint8"
        }
      ],
      "name": "upgradeCapacity",
      "outputs": [],
      "stateMutability": "payable",
      "type": "function"
    },
    {
      "inputs": [
        {
          "internalType": "uint256",
          "name": "_engineId",
          "type": "uint256"
        },
        {
          "internalType": "uint8",
          "name": "_counts",
          "type": "uint8"
        }
      ],
      "name": "upgradeConsumtion",
      "outputs": [],
      "stateMutability": "payable",
      "type": "function"
    },
    {
      "inputs": [
        {
          "internalType": "uint256",
          "name": "_chassisId",
          "type": "uint256"
        },
        {
          "internalType": "uint8",
          "name": "_counts",
          "type": "uint8"
        }
      ],
      "name": "upgradeDurability",
      "outputs": [],
      "stateMutability": "payable",
      "type": "function"
    },
    {
      "inputs": [
        {
          "internalType": "uint256",
          "name": "_engineId",
          "type": "uint256"
        },
        {
          "internalType": "uint8",
          "name": "_counts",
          "type": "uint8"
        }
      ],
      "name": "upgradeHorsePowers",
      "outputs": [],
      "stateMutability": "payable",
      "type": "function"
    },
    {
      "inputs": [
        {
          "internalType": "uint256",
          "name": "_fuelStatonId",
          "type": "uint256"
        },
        {
          "internalType": "uint8",
          "name": "_counts",
          "type": "uint8"
        }
      ],
      "name": "upgradeProductionPerHour",
      "outputs": [],
      "stateMutability": "payable",
      "type": "function"
    },
    {
      "inputs": [
        {
          "internalType": "address",
          "name": "_owner",
          "type": "address"
        }
      ],
      "name": "balanceOfCars",
      "outputs": [
        {
          "internalType": "uint256",
          "name": "",
          "type": "uint256"
        }
      ],
      "stateMutability": "view",
      "type": "function"
    },
    {
      "inputs": [
        {
          "internalType": "uint256",
          "name": "_tokenId",
          "type": "uint256"
        }
      ],
      "name": "ownerOfCar",
      "outputs": [
        {
          "internalType": "address",
          "name": "",
          "type": "address"
        }
      ],
      "stateMutability": "view",
      "type": "function"
    },
    {
      "inputs": [
        {
          "internalType": "address",
          "name": "_from",
          "type": "address"
        },
        {
          "internalType": "address",
          "name": "_to",
          "type": "address"
        },
        {
          "internalType": "uint256",
          "name": "_tokenId",
          "type": "uint256"
        }
      ],
      "name": "transferCarFrom",
      "outputs": [],
      "stateMutability": "payable",
      "type": "function"
    },
    {
      "inputs": [
        {
          "internalType": "address",
          "name": "_approved",
          "type": "address"
        },
        {
          "internalType": "uint256",
          "name": "_tokenId",
          "type": "uint256"
        }
      ],
      "name": "approveCar",
      "outputs": [],
      "stateMutability": "payable",
      "type": "function"
    },
    {
      "inputs": [
        {
          "internalType": "address",
          "name": "_owner",
          "type": "address"
        }
      ],
      "name": "balanceOfEngines",
      "outputs": [
        {
          "internalType": "uint256",
          "name": "",
          "type": "uint256"
        }
      ],
      "stateMutability": "view",
      "type": "function"
    },
    {
      "inputs": [
        {
          "internalType": "uint256",
          "name": "_tokenId",
          "type": "uint256"
        }
      ],
      "name": "ownerOfEngine",
      "outputs": [
        {
          "internalType": "address",
          "name": "",
          "type": "address"
        }
      ],
      "stateMutability": "view",
      "type": "function"
    },
    {
      "inputs": [
        {
          "internalType": "address",
          "name": "_from",
          "type": "address"
        },
        {
          "internalType": "address",
          "name": "_to",
          "type": "address"
        },
        {
          "internalType": "uint256",
          "name": "_tokenId",
          "type": "uint256"
        }
      ],
      "name": "transferEngineFrom",
      "outputs": [],
      "stateMutability": "payable",
      "type": "function"
    },
    {
      "inputs": [
        {
          "internalType": "address",
          "name": "_approved",
          "type": "address"
        },
        {
          "internalType": "uint256",
          "name": "_tokenId",
          "type": "uint256"
        }
      ],
      "name": "approveEngine",
      "outputs": [],
      "stateMutability": "payable",
      "type": "function"
    },
    {
      "inputs": [
        {
          "internalType": "address",
          "name": "_owner",
          "type": "address"
        }
      ],
      "name": "balanceOfChassis",
      "outputs": [
        {
          "internalType": "uint256",
          "name": "",
          "type": "uint256"
        }
      ],
      "stateMutability": "view",
      "type": "function"
    },
    {
      "inputs": [
        {
          "internalType": "uint256",
          "name": "_tokenId",
          "type": "uint256"
        }
      ],
      "name": "ownerOfChassis",
      "outputs": [
        {
          "internalType": "address",
          "name": "",
          "type": "address"
        }
      ],
      "stateMutability": "view",
      "type": "function"
    },
    {
      "inputs": [
        {
          "internalType": "address",
          "name": "_from",
          "type": "address"
        },
        {
          "internalType": "address",
          "name": "_to",
          "type": "address"
        },
        {
          "internalType": "uint256",
          "name": "_tokenId",
          "type": "uint256"
        }
      ],
      "name": "transferChassisFrom",
      "outputs": [],
      "stateMutability": "payable",
      "type": "function"
    },
    {
      "inputs": [
        {
          "internalType": "address",
          "name": "_approved",
          "type": "address"
        },
        {
          "internalType": "uint256",
          "name": "_tokenId",
          "type": "uint256"
        }
      ],
      "name": "approveChassis",
      "outputs": [],
      "stateMutability": "payable",
      "type": "function"
    }
  ],
  "bytecode": "0x6080604052603c600060146101000a81548160ff021916908360ff1602179055506005600060156101000a81548160ff021916908360ff160217905550600160085560016009556509184e72a00060135565b5e620f48000601455650da475abf0006015556611c37937e080006016556305f5e10060175566038d7ea4c680006018553480156200008f57600080fd5b50620000b0620000a46200034760201b60201c565b6200034f60201b60201c565b6050600381905550605b600481905550600a600560006101000a81548160ff021916908360ff160217905550620186a06006819055506201d4c1600781905550600b60018160018154018082558091505003906000526020600020905050600c600181600181540180825580915050039060005260206000209050506019604051806060016040528060048152602001600481526020016000815250908060018154018082558091505060019003906000526020600020906003020160009091909190915060008201518160000155602082015181600101556040820151816002015550506019604051806060016040528060038152602001600481526020016000815250908060018154018082558091505060019003906000526020600020906003020160009091909190915060008201518160000155602082015181600101556040820151816002015550506019604051806060016040528060028152602001600481526020016000815250908060018154018082558091505060019003906000526020600020906003020160009091909190915060008201518160000155602082015181600101556040820151816002015550506019604051806060016040528060038152602001600381526020016001815250908060018154018082558091505060019003906000526020600020906003020160009091909190915060008201518160000155602082015181600101556040820151816002015550506019604051806060016040528060028152602001600381526020016001815250908060018154018082558091505060019003906000526020600020906003020160009091909190915060008201518160000155602082015181600101556040820151816002015550506001601c8190555062000413565b600033905090565b60008060009054906101000a900473ffffffffffffffffffffffffffffffffffffffff169050816000806101000a81548173ffffffffffffffffffffffffffffffffffffffff021916908373ffffffffffffffffffffffffffffffffffffffff1602179055508173ffffffffffffffffffffffffffffffffffffffff168173ffffffffffffffffffffffffffffffffffffffff167f8be0079c531659141344cd1fd0a4f28419497f9722a3daafe3b4186f6b6457e060405160405180910390a35050565b615b3e80620004236000396000f3fe6080604052600436106102515760003560e01c8063715018a611610139578063b3b29afd116100b6578063e77100d41161007a578063e77100d41461092a578063f2fde38b14610941578063f66911b11461096a578063f7746e3614610986578063faf4bb98146109ca578063fb2d954f146109e657610251565b8063b3b29afd1461082c578063b44a4e9314610869578063b72c0eea14610885578063c75bb4f4146108c4578063c85b7fed1461090157610251565b806387d6b9b2116100fd57806387d6b9b21461074b5780638b579973146107885780638da5cb5b146107a4578063906f5f34146107cf57806392f859db146107eb57610251565b8063715018a6146106a35780637713d521146106ba5780637c62360f146106f75780637ec5c75c14610713578063859092671461072f57610251565b8063254dc065116101d2578063449014901161019657806344901490146105355780634e31f91014610572578063594193d7146105af5780635c426aff146105ec5780635dcc4cc6146106295780636f206fc11461066657610251565b8063254dc065146104045780632cb03a3a1461044157806333ca504b1461047e5780633521c426146104bb5780633dfd6f54146104f857610251565b80630e0f7049116102195780630e0f70491461034d5780631c5dde0e146103695780631e85ab9b146103a8578063224370f0146103c457806324d822bf146103db57610251565b806302b677451461025657806303f2e05b146102935780630418394e146102af578063081315ff146102f15780630ce90ec214610331575b600080fd5b34801561026257600080fd5b5061027d600480360381019061027891906144a2565b610a0f565b60405161028a9190614510565b60405180910390f35b6102ad60048036038101906102a89190614564565b610a4c565b005b3480156102bb57600080fd5b506102d660048036038101906102d191906144a2565b610b84565b6040516102e8969594939291906145ce565b60405180910390f35b3480156102fd57600080fd5b50610318600480360381019061031391906144a2565b610bcd565b6040516103289493929190614680565b60405180910390f35b61034b600480360381019061034691906144a2565b610c35565b005b610367600480360381019061036291906146f1565b610db4565b005b34801561037557600080fd5b50610390600480360381019061038b91906144a2565b610e77565b60405161039f93929190614750565b60405180910390f35b6103c260048036038101906103bd91906146f1565b610ed1565b005b3480156103d057600080fd5b506103d9610f94565b005b3480156103e757600080fd5b5061040260048036038101906103fd91906144a2565b611100565b005b34801561041057600080fd5b5061042b60048036038101906104269190614787565b611316565b60405161043891906147b4565b60405180910390f35b34801561044d57600080fd5b5061046860048036038101906104639190614787565b61135f565b60405161047591906147b4565b60405180910390f35b34801561048a57600080fd5b506104a560048036038101906104a091906144a2565b6113a8565b6040516104b29190614510565b60405180910390f35b3480156104c757600080fd5b506104e260048036038101906104dd91906144a2565b6113db565b6040516104ef91906148f1565b60405180910390f35b34801561050457600080fd5b5061051f600480360381019061051a91906144a2565b611538565b60405161052c9190614510565b60405180910390f35b34801561054157600080fd5b5061055c600480360381019061055791906144a2565b611575565b6040516105699190614510565b60405180910390f35b34801561057e57600080fd5b5061059960048036038101906105949190614787565b6115a8565b6040516105a691906147b4565b60405180910390f35b3480156105bb57600080fd5b506105d660048036038101906105d191906144a2565b611646565b6040516105e39190614510565b60405180910390f35b3480156105f857600080fd5b50610613600480360381019061060e91906144a2565b611679565b6040516106209190614510565b60405180910390f35b34801561063557600080fd5b50610650600480360381019061064b91906144a2565b6116b6565b60405161065d9190614510565b60405180910390f35b34801561067257600080fd5b5061068d60048036038101906106889190614787565b6116e9565b60405161069a91906149c2565b60405180910390f35b3480156106af57600080fd5b506106b861183b565b005b3480156106c657600080fd5b506106e160048036038101906106dc9190614787565b61184f565b6040516106ee91906149c2565b60405180910390f35b610711600480360381019061070c9190614564565b6119a1565b005b61072d600480360381019061072891906149e4565b611ace565b005b61074960048036038101906107449190614564565b611bb2565b005b34801561075757600080fd5b50610772600480360381019061076d9190614787565b611cd5565b60405161077f91906147b4565b60405180910390f35b6107a2600480360381019061079d91906149e4565b611d1e565b005b3480156107b057600080fd5b506107b9611e02565b6040516107c69190614510565b60405180910390f35b6107e960048036038101906107e49190614564565b611e2b565b005b3480156107f757600080fd5b50610812600480360381019061080d91906144a2565b611f4e565b604051610823959493929190614a46565b60405180910390f35b34801561083857600080fd5b50610853600480360381019061084e9190614787565b611fbb565b60405161086091906147b4565b60405180910390f35b610883600480360381019061087e91906146f1565b611fd3565b005b34801561089157600080fd5b506108ac60048036038101906108a791906144a2565b612096565b6040516108bb93929190614ab6565b60405180910390f35b3480156108d057600080fd5b506108eb60048036038101906108e69190614787565b6120eb565b6040516108f89190614d07565b60405180910390f35b34801561090d57600080fd5b5061092860048036038101906109239190614e71565b61235f565b005b34801561093657600080fd5b5061093f6126e2565b005b34801561094d57600080fd5b5061096860048036038101906109639190614787565b61297d565b005b610984600480360381019061097f91906149e4565b612a00565b005b34801561099257600080fd5b506109ad60048036038101906109a891906144a2565b612ae4565b6040516109c1989796959493929190614f17565b60405180910390f35b6109e460048036038101906109df9190614564565b612bd1565b005b3480156109f257600080fd5b50610a0d6004803603810190610a0891906144a2565b612cff565b005b6000600d600083815260200190815260200160002060009054906101000a900473ffffffffffffffffffffffffffffffffffffffff169050919050565b81600f600082815260200190815260200160002060009054906101000a900473ffffffffffffffffffffffffffffffffffffffff1673ffffffffffffffffffffffffffffffffffffffff163373ffffffffffffffffffffffffffffffffffffffff1614610ab857600080fd5b601754600c8481548110610acf57610ace614f9c565b5b906000526020600020906002020160010160009054906101000a900463ffffffff168360ff16610aff9190614ffa565b63ffffffff16610b0f9190615038565b3414610b1a57600080fd5b8160ff16600c8481548110610b3257610b31614f9c565b5b906000526020600020906002020160010160008282829054906101000a900463ffffffff16610b619190615092565b92506101000a81548163ffffffff021916908363ffffffff160217905550505050565b601e6020528060005260406000206000915090508060000154908060010154908060020154908060030154908060050154908060060160009054906101000a900460ff16905086565b601d8181548110610bdd57600080fd5b9060005260206000209060060201600091509050806000015490806001015490806002015490806003016040518060600160405290816000820154815260200160018201548152602001600282015481525050905084565b600a808281548110610c4a57610c49614f9c565b5b906000526020600020906008020160040160009054906101000a900460ff16610c7391906150fb565b60ff16601854610c839190615038565b34148015610cf757506001600a8281548110610ca257610ca1614f9c565b5b906000526020600020906008020160040160009054906101000a900460ff16610ccb919061512c565b60ff16600a8281548110610ce257610ce1614f9c565b5b90600052602060002090600802016006015410155b610d0057600080fd5b600a8181548110610d1457610d13614f9c565b5b9060005260206000209060080201600401600081819054906101000a900460ff1680929190610d4290615163565b91906101000a81548160ff021916908360ff160217905550506000600a8281548110610d7157610d70614f9c565b5b9060005260206000209060080201600601819055506000600a8281548110610d9c57610d9b614f9c565b5b90600052602060002090600802016007018190555050565b80600e600082815260200190815260200160002060009054906101000a900473ffffffffffffffffffffffffffffffffffffffff1673ffffffffffffffffffffffffffffffffffffffff163373ffffffffffffffffffffffffffffffffffffffff1614610e2057600080fd5b826020600084815260200190815260200160002060006101000a81548173ffffffffffffffffffffffffffffffffffffffff021916908373ffffffffffffffffffffffffffffffffffffffff160217905550505050565b600c8181548110610e8757600080fd5b90600052602060002090600202016000915090508060000154908060010160009054906101000a900463ffffffff16908060010160049054906101000a900463ffffffff16905083565b80600f600082815260200190815260200160002060009054906101000a900473ffffffffffffffffffffffffffffffffffffffff1673ffffffffffffffffffffffffffffffffffffffff163373ffffffffffffffffffffffffffffffffffffffff1614610f3d57600080fd5b826021600084815260200190815260200160002060006101000a81548173ffffffffffffffffffffffffffffffffffffffff021916908373ffffffffffffffffffffffffffffffffffffffff160217905550505050565b60003390506000600180549050905060016040518060a00160405280838152602001600060149054906101000a900460ff1660ff168152602001600060159054906101000a900460ff1660ff168152602001600060149054906101000a900460ff1660ff1681526020014263ffffffff1681525090806001815401808255809150506001900390600052602060002090600302016000909190919091506000820151816000015560208201518160010160006101000a81548160ff021916908360ff16021790555060408201518160010160016101000a81548160ff021916908360ff16021790555060608201518160010160026101000a81548160ff021916908360ff160217905550608082015181600201555050816002600083815260200190815260200160002060006101000a81548173ffffffffffffffffffffffffffffffffffffffff021916908373ffffffffffffffffffffffffffffffffffffffff1602179055505050565b80600d600082815260200190815260200160002060009054906101000a900473ffffffffffffffffffffffffffffffffffffffff1673ffffffffffffffffffffffffffffffffffffffff163373ffffffffffffffffffffffffffffffffffffffff161461116c57600080fd5b6000600a80848154811061118357611182614f9c565b5b906000526020600020906008020160040160009054906101000a900460ff166111ac91906150fb565b600a6111b8919061518c565b60026111c491906151c0565b90506111d08382613360565b801561123f57508060ff16600c600a85815481106111f1576111f0614f9c565b5b9060005260206000209060080201600301548154811061121457611213614f9c565b5b906000526020600020906002020160010160049054906101000a900463ffffffff1663ffffffff1610155b61124857600080fd5b8060ff16600c600a858154811061126257611261614f9c565b5b9060005260206000209060080201600301548154811061128557611284614f9c565b5b906000526020600020906002020160010160048282829054906101000a900463ffffffff166112b491906151fb565b92506101000a81548163ffffffff021916908363ffffffff1602179055508060ff16600a84815481106112ea576112e9614f9c565b5b9060005260206000209060080201600501600082825461130a919061522f565b92505081905550505050565b6000601260008373ffffffffffffffffffffffffffffffffffffffff1673ffffffffffffffffffffffffffffffffffffffff168152602001908152602001600020549050919050565b6000601060008373ffffffffffffffffffffffffffffffffffffffff1673ffffffffffffffffffffffffffffffffffffffff168152602001908152602001600020549050919050565b600d6020528060005260406000206000915054906101000a900473ffffffffffffffffffffffffffffffffffffffff1681565b6060601e600083815260200190815260200160002060060160009054906101000a900460ff16611440576040517f08c379a0000000000000000000000000000000000000000000000000000000008152600401611437906152d1565b60405180910390fd5b601e6000838152602001908152602001600020600401805480602002602001604051908101604052809291908181526020016000905b8282101561152d57838290600052602060002090600302016040518060800160405290816000820160009054906101000a900473ffffffffffffffffffffffffffffffffffffffff1673ffffffffffffffffffffffffffffffffffffffff1673ffffffffffffffffffffffffffffffffffffffff1681526020016000820160149054906101000a900460ff161515151581526020016001820154815260200160028201548152505081526020019060010190611476565b505050509050919050565b6000600e600083815260200190815260200160002060009054906101000a900473ffffffffffffffffffffffffffffffffffffffff169050919050565b600f6020528060005260406000206000915054906101000a900473ffffffffffffffffffffffffffffffffffffffff1681565b60008060005b60018054905081101561163c578373ffffffffffffffffffffffffffffffffffffffff166002600083815260200190815260200160002060009054906101000a900473ffffffffffffffffffffffffffffffffffffffff1673ffffffffffffffffffffffffffffffffffffffff16036116295780915061163c565b8080611634906152f1565b9150506115ae565b5080915050919050565b60026020528060005260406000206000915054906101000a900473ffffffffffffffffffffffffffffffffffffffff1681565b6000600f600083815260200190815260200160002060009054906101000a900473ffffffffffffffffffffffffffffffffffffffff169050919050565b600e6020528060005260406000206000915054906101000a900473ffffffffffffffffffffffffffffffffffffffff1681565b60606000601160008473ffffffffffffffffffffffffffffffffffffffff1673ffffffffffffffffffffffffffffffffffffffff1681526020019081526020016000205467ffffffffffffffff81111561174657611745614d2e565b5b6040519080825280602002602001820160405280156117745781602001602082028036833780820191505090505b5090506000805b600c80549050811015611830578473ffffffffffffffffffffffffffffffffffffffff16600f600083815260200190815260200160002060009054906101000a900473ffffffffffffffffffffffffffffffffffffffff1673ffffffffffffffffffffffffffffffffffffffff160361181d578083838151811061180257611801614f9c565b5b6020026020010181815250508180611819906152f1565b9250505b8080611828906152f1565b91505061177b565b508192505050919050565b611843613521565b61184d600061359f565b565b60606000601160008473ffffffffffffffffffffffffffffffffffffffff1673ffffffffffffffffffffffffffffffffffffffff1681526020019081526020016000205467ffffffffffffffff8111156118ac576118ab614d2e565b5b6040519080825280602002602001820160405280156118da5781602001602082028036833780820191505090505b5090506000805b600b80549050811015611996578473ffffffffffffffffffffffffffffffffffffffff16600e600083815260200190815260200160002060009054906101000a900473ffffffffffffffffffffffffffffffffffffffff1673ffffffffffffffffffffffffffffffffffffffff1603611983578083838151811061196857611967614f9c565b5b602002602001018181525050818061197f906152f1565b9250505b808061198e906152f1565b9150506118e1565b508192505050919050565b81600e600082815260200190815260200160002060009054906101000a900473ffffffffffffffffffffffffffffffffffffffff1673ffffffffffffffffffffffffffffffffffffffff163373ffffffffffffffffffffffffffffffffffffffff1614611a0d57600080fd5b600b8381548110611a2157611a20614f9c565b5b906000526020600020906002020160010160029054906101000a900460ff16600a611a4c919061518c565b6002611a58919061546c565b601654611a659190615038565b3414611a7057600080fd5b81600b8481548110611a8557611a84614f9c565b5b906000526020600020906002020160010160028282829054906101000a900460ff16611ab1919061518c565b92506101000a81548160ff021916908360ff160217905550505050565b8273ffffffffffffffffffffffffffffffffffffffff16600d600083815260200190815260200160002060009054906101000a900473ffffffffffffffffffffffffffffffffffffffff1673ffffffffffffffffffffffffffffffffffffffff161480611b9957503373ffffffffffffffffffffffffffffffffffffffff16601f600083815260200190815260200160002060009054906101000a900473ffffffffffffffffffffffffffffffffffffffff1673ffffffffffffffffffffffffffffffffffffffff16145b611ba257600080fd5b611bad838383613663565b505050565b816002600082815260200190815260200160002060009054906101000a900473ffffffffffffffffffffffffffffffffffffffff1673ffffffffffffffffffffffffffffffffffffffff163373ffffffffffffffffffffffffffffffffffffffff1614611c1e57600080fd5b60145460018481548110611c3557611c34614f9c565b5b906000526020600020906003020160010160019054906101000a900460ff1683611c5f91906151c0565b60ff16611c6c9190615038565b3414611c7757600080fd5b8160018481548110611c8c57611c8b614f9c565b5b906000526020600020906003020160010160018282829054906101000a900460ff16611cb8919061512c565b92506101000a81548160ff021916908360ff160217905550505050565b6000601160008373ffffffffffffffffffffffffffffffffffffffff1673ffffffffffffffffffffffffffffffffffffffff168152602001908152602001600020549050919050565b8273ffffffffffffffffffffffffffffffffffffffff16600e600083815260200190815260200160002060009054906101000a900473ffffffffffffffffffffffffffffffffffffffff1673ffffffffffffffffffffffffffffffffffffffff161480611de957503373ffffffffffffffffffffffffffffffffffffffff166020600083815260200190815260200160002060009054906101000a900473ffffffffffffffffffffffffffffffffffffffff1673ffffffffffffffffffffffffffffffffffffffff16145b611df257600080fd5b611dfd838383613938565b505050565b60008060009054906101000a900473ffffffffffffffffffffffffffffffffffffffff16905090565b816002600082815260200190815260200160002060009054906101000a900473ffffffffffffffffffffffffffffffffffffffff1673ffffffffffffffffffffffffffffffffffffffff163373ffffffffffffffffffffffffffffffffffffffff1614611e9757600080fd5b60135460018481548110611eae57611ead614f9c565b5b906000526020600020906003020160010160009054906101000a900460ff1683611ed891906151c0565b60ff16611ee59190615038565b3414611ef057600080fd5b8160018481548110611f0557611f04614f9c565b5b906000526020600020906003020160010160008282829054906101000a900460ff16611f31919061512c565b92506101000a81548160ff021916908360ff160217905550505050565b60018181548110611f5e57600080fd5b90600052602060002090600302016000915090508060000154908060010160009054906101000a900460ff16908060010160019054906101000a900460ff16908060010160029054906101000a900460ff16908060020154905085565b60106020528060005260406000206000915090505481565b80600d600082815260200190815260200160002060009054906101000a900473ffffffffffffffffffffffffffffffffffffffff1673ffffffffffffffffffffffffffffffffffffffff163373ffffffffffffffffffffffffffffffffffffffff161461203f57600080fd5b82601f600084815260200190815260200160002060006101000a81548173ffffffffffffffffffffffffffffffffffffffff021916908373ffffffffffffffffffffffffffffffffffffffff160217905550505050565b600b81815481106120a657600080fd5b90600052602060002090600202016000915090508060000154908060010160009054906101000a900461ffff16908060010160029054906101000a900460ff16905083565b60606000601060008473ffffffffffffffffffffffffffffffffffffffff1673ffffffffffffffffffffffffffffffffffffffff1681526020019081526020016000205467ffffffffffffffff81111561214857612147614d2e565b5b60405190808252806020026020018201604052801561218157816020015b61216e61436d565b8152602001906001900390816121665790505b5090506000805b600c80549050811015612354578473ffffffffffffffffffffffffffffffffffffffff16600d600083815260200190815260200160002060009054906101000a900473ffffffffffffffffffffffffffffffffffffffff1673ffffffffffffffffffffffffffffffffffffffff160361234157600a818154811061220f5761220e614f9c565b5b906000526020600020906008020160405180610100016040529081600082018054612239906154e6565b80601f0160208091040260200160405190810160405280929190818152602001828054612265906154e6565b80156122b25780601f10612287576101008083540402835291602001916122b2565b820191906000526020600020905b81548152906001019060200180831161229557829003601f168201915b505050505081526020016001820154815260200160028201548152602001600382015481526020016004820160009054906101000a900460ff1660ff1660ff168152602001600582015481526020016006820154815260200160078201548152505083838151811061232757612326614f9c565b5b6020026020010181905250818061233d906152f1565b9250505b808061234c906152f1565b915050612188565b508192505050919050565b81601a60003373ffffffffffffffffffffffffffffffffffffffff1673ffffffffffffffffffffffffffffffffffffffff16815260200190815260200160002054146123e0576040517f08c379a00000000000000000000000000000000000000000000000000000000081526004016123d790615563565b60405180910390fd5b6000601e6000848152602001908152602001600020600201549050600073__PDDLib________________________________639c63eb2e83856040518363ffffffff1660e01b8152600401612436929190615628565b602060405180830381865af4158015612453573d6000803e3d6000fd5b505050506040513d601f19601f820116820180604052508101906124779190615684565b9050600060405180608001604052803373ffffffffffffffffffffffffffffffffffffffff1681526020018315158152602001428152602001601b60003373ffffffffffffffffffffffffffffffffffffffff1673ffffffffffffffffffffffffffffffffffffffff1681526020019081526020016000205481525090506000601e600087815260200190815260200160002090508060040182908060018154018082558091505060019003906000526020600020906003020160009091909190915060008201518160000160006101000a81548173ffffffffffffffffffffffffffffffffffffffff021916908373ffffffffffffffffffffffffffffffffffffffff16021790555060208201518160000160146101000a81548160ff02191690831515021790555060408201518160010155606082015181600201555050601e600087815260200190815260200160002060000154601e600088815260200190815260200160002060040180549050036126da577f67acaceb58ff1ad2aa8b3069f69c4cd076824e06a09184b75fb197ead7040be78660405161261c91906147b4565b60405180910390a16001601e600088815260200190815260200160002060060160006101000a81548160ff021916908315150217905550601a60003373ffffffffffffffffffffffffffffffffffffffff1673ffffffffffffffffffffffffffffffffffffffff16815260200190815260200160002060009055601b60003373ffffffffffffffffffffffffffffffffffffffff1673ffffffffffffffffffffffffffffffffffffffff168152602001908152602001600020600090555b505050505050565b6000601060003373ffffffffffffffffffffffffffffffffffffffff1673ffffffffffffffffffffffffffffffffffffffff168152602001908152602001600020541461272e57600080fd5b60006040518060400160405280600581526020017f6d6f64656c000000000000000000000000000000000000000000000000000000815250905060008161277442613abb565b6040516020016127859291906156ed565b60405160208183030381529060405290506000816040516020016127a99190615711565b6040516020818303038152906040528051906020012060001c905060006127ce613b89565b905060006127da613d2c565b90506000600a805490509050600a604051806101000160405280888152602001868152602001858152602001848152602001600160ff168152602001600081526020016000815260200160008152509080600181540180825580915050600190039060005260206000209060080201600090919091909150600082015181600001908051906020019061286e9291906143b5565b5060208201518160010155604082015181600201556060820151816003015560808201518160040160006101000a81548160ff021916908360ff16021790555060a0820151816005015560c0820151816006015560e08201518160070155505033600d600083815260200190815260200160002060006101000a81548173ffffffffffffffffffffffffffffffffffffffff021916908373ffffffffffffffffffffffffffffffffffffffff160217905550601060003373ffffffffffffffffffffffffffffffffffffffff1673ffffffffffffffffffffffffffffffffffffffff1681526020019081526020016000206000815480929190612970906152f1565b9190505550505050505050565b612985613521565b600073ffffffffffffffffffffffffffffffffffffffff168173ffffffffffffffffffffffffffffffffffffffff16036129f4576040517f08c379a00000000000000000000000000000000000000000000000000000000081526004016129eb9061579a565b60405180910390fd5b6129fd8161359f565b50565b8273ffffffffffffffffffffffffffffffffffffffff16600f600083815260200190815260200160002060009054906101000a900473ffffffffffffffffffffffffffffffffffffffff1673ffffffffffffffffffffffffffffffffffffffff161480612acb57503373ffffffffffffffffffffffffffffffffffffffff166021600083815260200190815260200160002060009054906101000a900473ffffffffffffffffffffffffffffffffffffffff1673ffffffffffffffffffffffffffffffffffffffff16145b612ad457600080fd5b612adf838383613ecf565b505050565b600a8181548110612af457600080fd5b9060005260206000209060080201600091509050806000018054612b17906154e6565b80601f0160208091040260200160405190810160405280929190818152602001828054612b43906154e6565b8015612b905780601f10612b6557610100808354040283529160200191612b90565b820191906000526020600020905b815481529060010190602001808311612b7357829003601f168201915b5050505050908060010154908060020154908060030154908060040160009054906101000a900460ff16908060050154908060060154908060070154905088565b81600e600082815260200190815260200160002060009054906101000a900473ffffffffffffffffffffffffffffffffffffffff1673ffffffffffffffffffffffffffffffffffffffff163373ffffffffffffffffffffffffffffffffffffffff1614612c3d57600080fd5b601554600b8481548110612c5457612c53614f9c565b5b906000526020600020906002020160010160009054906101000a900461ffff168360ff16612c8291906157ba565b61ffff16612c909190615038565b3414612c9b57600080fd5b8160ff16600b8481548110612cb357612cb2614f9c565b5b906000526020600020906002020160010160008282829054906101000a900461ffff16612ce091906157f6565b92506101000a81548161ffff021916908361ffff160217905550505050565b80600d600082815260200190815260200160002060009054906101000a900473ffffffffffffffffffffffffffffffffffffffff1673ffffffffffffffffffffffffffffffffffffffff163373ffffffffffffffffffffffffffffffffffffffff1614612d6b57600080fd5b6000805b601d805490508110156131ab57601d8181548110612d9057612d8f614f9c565b5b9060005260206000209060060201600201546001600a808781548110612db957612db8614f9c565b5b906000526020600020906008020160040160009054906101000a900460ff16612de291906150fb565b612dec919061512c565b60ff16036131985760019150601d8181548110612e0c57612e0b614f9c565b5b906000526020600020906006020160000154601a60003373ffffffffffffffffffffffffffffffffffffffff1673ffffffffffffffffffffffffffffffffffffffff1681526020019081526020016000208190555083601b60003373ffffffffffffffffffffffffffffffffffffffff1673ffffffffffffffffffffffffffffffffffffffff16815260200190815260200160002081905550601d8181548110612eb957612eb8614f9c565b5b90600052602060002090600602016001016000815480929190612edb906152f1565b9190505550601d8181548110612ef457612ef3614f9c565b5b906000526020600020906006020160030160000154601d8281548110612f1d57612f1c614f9c565b5b9060005260206000209060060201600101540361319757600073__PDDLib________________________________63c037e545601d8481548110612f6457612f63614f9c565b5b906000526020600020906006020160030160020154601d8581548110612f8d57612f8c614f9c565b5b9060005260206000209060060201600301600001546040518363ffffffff1660e01b8152600401612fbf92919061582e565b602060405180830381865af4158015612fdc573d6000803e3d6000fd5b505050506040513d601f19601f82011682018060405250810190613000919061586c565b90506000601e6000601d858154811061301c5761301b614f9c565b5b90600052602060002090600602016000015481526020019081526020016000209050601d838154811061305257613051614f9c565b5b9060005260206000209060060201600301600001548160000181905550601d838154811061308357613082614f9c565b5b90600052602060002090600602016002015481600101819055508181600201819055504281600301819055506000816005018190555060008160060160006101000a81548160ff0219169083151502179055507f2838ebeee7dc83fac85a3d6dbca0c0b6771591ada8b00f97371aa6611e631f9c601d848154811061310b5761310a614f9c565b5b9060005260206000209060060201600001548360405161312c929190615899565b60405180910390a1601d838154811061314857613147614f9c565b5b90600052602060002090600602016000808201600090556001820160009055600282016000905560038201600080820160009055600182016000905560028201600090555050505050506131ab565b5b80806131a3906152f1565b915050612d6f565b5080156131b8575061335c565b6000601c60008154809291906131cd906152f1565b9190505590506000601980549050426131e691906158c2565b905081601a60003373ffffffffffffffffffffffffffffffffffffffff1673ffffffffffffffffffffffffffffffffffffffff16815260200190815260200160002081905550601d6040518060800160405280848152602001600181526020016001600a808a8154811061325d5761325c614f9c565b5b906000526020600020906008020160040160009054906101000a900460ff1661328691906150fb565b613290919061512c565b60ff168152602001601984815481106132ac576132ab614f9c565b5b906000526020600020906003020160405180606001604052908160008201548152602001600182015481526020016002820154815250508152509080600181540180825580915050600190039060005260206000209060060201600090919091909150600082015181600001556020820151816001015560408201518160020155606082015181600301600082015181600001556020820151816001015560408201518160020155505050505050505b5050565b60008061339f600d600086815260200190815260200160002060009054906101000a900473ffffffffffffffffffffffffffffffffffffffff166115a8565b90506133aa81614052565b6000600a85815481106133c0576133bf614f9c565b5b9060005260206000209060080201600201549050600060019050600a85600b84815481106133f1576133f0614f9c565b5b906000526020600020906002020160010160029054906101000a900460ff1661341a91906151c0565b60ff161061346f57600a600b838154811061343857613437614f9c565b5b906000526020600020906002020160010160029054906101000a900460ff168661346291906151c0565b61346c91906150fb565b90505b8060ff166001848154811061348757613486614f9c565b5b906000526020600020906003020160010160029054906101000a900460ff1660ff16106135135780600184815481106134c3576134c2614f9c565b5b906000526020600020906003020160010160028282829054906101000a900460ff166134ef919061518c565b92506101000a81548160ff021916908360ff1602179055506001935050505061351b565b600093505050505b92915050565b6135296141cd565b73ffffffffffffffffffffffffffffffffffffffff16613547611e02565b73ffffffffffffffffffffffffffffffffffffffff161461359d576040517f08c379a00000000000000000000000000000000000000000000000000000000081526004016135949061593f565b60405180910390fd5b565b60008060009054906101000a900473ffffffffffffffffffffffffffffffffffffffff169050816000806101000a81548173ffffffffffffffffffffffffffffffffffffffff021916908373ffffffffffffffffffffffffffffffffffffffff1602179055508173ffffffffffffffffffffffffffffffffffffffff168173ffffffffffffffffffffffffffffffffffffffff167f8be0079c531659141344cd1fd0a4f28419497f9722a3daafe3b4186f6b6457e060405160405180910390a35050565b6000600a828154811061367957613678614f9c565b5b906000526020600020906008020160020154146136cb576040517f08c379a00000000000000000000000000000000000000000000000000000000081526004016136c2906159ab565b60405180910390fd5b6000600a82815481106136e1576136e0614f9c565b5b90600052602060002090600802016003015414613733576040517f08c379a000000000000000000000000000000000000000000000000000000000815260040161372a90615a17565b60405180910390fd5b6000601060008573ffffffffffffffffffffffffffffffffffffffff1673ffffffffffffffffffffffffffffffffffffffff16815260200190815260200160002054116137b5576040517f08c379a00000000000000000000000000000000000000000000000000000000081526004016137ac90615a83565b60405180910390fd5b6138086001601060008573ffffffffffffffffffffffffffffffffffffffff1673ffffffffffffffffffffffffffffffffffffffff168152602001908152602001600020546141d590919063ffffffff16565b601060008473ffffffffffffffffffffffffffffffffffffffff1673ffffffffffffffffffffffffffffffffffffffff1681526020019081526020016000208190555061389e6001601060008673ffffffffffffffffffffffffffffffffffffffff1673ffffffffffffffffffffffffffffffffffffffff168152602001908152602001600020546141eb90919063ffffffff16565b601060008573ffffffffffffffffffffffffffffffffffffffff1673ffffffffffffffffffffffffffffffffffffffff1681526020019081526020016000208190555081600d600083815260200190815260200160002060006101000a81548173ffffffffffffffffffffffffffffffffffffffff021916908373ffffffffffffffffffffffffffffffffffffffff160217905550505050565b61398b6001601160008573ffffffffffffffffffffffffffffffffffffffff1673ffffffffffffffffffffffffffffffffffffffff168152602001908152602001600020546141d590919063ffffffff16565b601160008473ffffffffffffffffffffffffffffffffffffffff1673ffffffffffffffffffffffffffffffffffffffff16815260200190815260200160002081905550613a216001601160008673ffffffffffffffffffffffffffffffffffffffff1673ffffffffffffffffffffffffffffffffffffffff168152602001908152602001600020546141eb90919063ffffffff16565b601160008573ffffffffffffffffffffffffffffffffffffffff1673ffffffffffffffffffffffffffffffffffffffff1681526020019081526020016000208190555081600e600083815260200190815260200160002060006101000a81548173ffffffffffffffffffffffffffffffffffffffff021916908373ffffffffffffffffffffffffffffffffffffffff160217905550505050565b606060006001613aca84614201565b01905060008167ffffffffffffffff811115613ae957613ae8614d2e565b5b6040519080825280601f01601f191660200182016040528015613b1b5781602001600182028036833780820191505090505b509050600082602001820190505b600115613b7e578080600190039150507f3031323334353637383961626364656600000000000000000000000000000000600a86061a8153600a8581613b7257613b716150cc565b5b04945060008503613b29575b819350505050919050565b600080600354600454613b9c9190615aa3565b42613ba791906158c2565b600354613bb4919061522f565b9050600060086000815480929190613bcb906152f1565b919050559050600b60405180606001604052808381526020018461ffff168152602001600560009054906101000a900460ff1660ff1681525090806001815401808255809150506001900390600052602060002090600202016000909190919091506000820151816000015560208201518160010160006101000a81548161ffff021916908361ffff16021790555060408201518160010160026101000a81548160ff021916908360ff1602179055505050601160003373ffffffffffffffffffffffffffffffffffffffff1673ffffffffffffffffffffffffffffffffffffffff1681526020019081526020016000206000815480929190613ccd906152f1565b919050555033600e600083815260200190815260200160002060006101000a81548173ffffffffffffffffffffffffffffffffffffffff021916908373ffffffffffffffffffffffffffffffffffffffff160217905550809250505090565b600080600654600754613d3f9190615aa3565b42613d4a91906158c2565b600654613d57919061522f565b9050600060096000815480929190613d6e906152f1565b919050559050600c60405180606001604052808381526020018463ffffffff1681526020018463ffffffff1681525090806001815401808255809150506001900390600052602060002090600202016000909190919091506000820151816000015560208201518160010160006101000a81548163ffffffff021916908363ffffffff16021790555060408201518160010160046101000a81548163ffffffff021916908363ffffffff1602179055505050601260003373ffffffffffffffffffffffffffffffffffffffff1673ffffffffffffffffffffffffffffffffffffffff1681526020019081526020016000206000815480929190613e70906152f1565b919050555033600f600083815260200190815260200160002060006101000a81548173ffffffffffffffffffffffffffffffffffffffff021916908373ffffffffffffffffffffffffffffffffffffffff160217905550809250505090565b613f226001601260008573ffffffffffffffffffffffffffffffffffffffff1673ffffffffffffffffffffffffffffffffffffffff168152602001908152602001600020546141d590919063ffffffff16565b601260008473ffffffffffffffffffffffffffffffffffffffff1673ffffffffffffffffffffffffffffffffffffffff16815260200190815260200160002081905550613fb86001601260008673ffffffffffffffffffffffffffffffffffffffff1673ffffffffffffffffffffffffffffffffffffffff168152602001908152602001600020546141eb90919063ffffffff16565b601260008573ffffffffffffffffffffffffffffffffffffffff1673ffffffffffffffffffffffffffffffffffffffff1681526020019081526020016000208190555081600f600083815260200190815260200160002060006101000a81548173ffffffffffffffffffffffffffffffffffffffff021916908373ffffffffffffffffffffffffffffffffffffffff160217905550505050565b60004290506000610e10600184815481106140705761406f614f9c565b5b9060005260206000209060030201600201548361408d9190615aa3565b6140979190615ad7565b90506000600184815481106140af576140ae614f9c565b5b906000526020600020906003020160010160019054906101000a900460ff1660ff16826140dc9190615038565b600185815481106140f0576140ef614f9c565b5b906000526020600020906003020160010160029054906101000a900460ff1660ff1661411c919061522f565b90506141606001858154811061413557614134614f9c565b5b906000526020600020906003020160010160009054906101000a900460ff1660ff168260ff16614354565b6001858154811061417457614173614f9c565b5b906000526020600020906003020160010160026101000a81548160ff021916908360ff16021790555082600185815481106141b2576141b1614f9c565b5b90600052602060002090600302016002018190555050505050565b600033905090565b600081836141e3919061522f565b905092915050565b600081836141f99190615aa3565b905092915050565b600080600090507a184f03e93ff9f4daa797ed6e38ed64bf6a1f010000000000000000831061425f577a184f03e93ff9f4daa797ed6e38ed64bf6a1f0100000000000000008381614255576142546150cc565b5b0492506040810190505b6d04ee2d6d415b85acef8100000000831061429c576d04ee2d6d415b85acef81000000008381614292576142916150cc565b5b0492506020810190505b662386f26fc1000083106142cb57662386f26fc1000083816142c1576142c06150cc565b5b0492506010810190505b6305f5e10083106142f4576305f5e10083816142ea576142e96150cc565b5b0492506008810190505b612710831061431957612710838161430f5761430e6150cc565b5b0492506004810190505b6064831061433c5760648381614332576143316150cc565b5b0492506002810190505b600a831061434b576001810190505b80915050919050565b60008183106143635781614365565b825b905092915050565b60405180610100016040528060608152602001600081526020016000815260200160008152602001600060ff1681526020016000815260200160008152602001600081525090565b8280546143c1906154e6565b90600052602060002090601f0160209004810192826143e3576000855561442a565b82601f106143fc57805160ff191683800117855561442a565b8280016001018555821561442a579182015b8281111561442957825182559160200191906001019061440e565b5b509050614437919061443b565b5090565b5b8082111561445457600081600090555060010161443c565b5090565b6000604051905090565b600080fd5b600080fd5b6000819050919050565b61447f8161446c565b811461448a57600080fd5b50565b60008135905061449c81614476565b92915050565b6000602082840312156144b8576144b7614462565b5b60006144c68482850161448d565b91505092915050565b600073ffffffffffffffffffffffffffffffffffffffff82169050919050565b60006144fa826144cf565b9050919050565b61450a816144ef565b82525050565b60006020820190506145256000830184614501565b92915050565b600060ff82169050919050565b6145418161452b565b811461454c57600080fd5b50565b60008135905061455e81614538565b92915050565b6000806040838503121561457b5761457a614462565b5b60006145898582860161448d565b925050602061459a8582860161454f565b9150509250929050565b6145ad8161446c565b82525050565b60008115159050919050565b6145c8816145b3565b82525050565b600060c0820190506145e360008301896145a4565b6145f060208301886145a4565b6145fd60408301876145a4565b61460a60608301866145a4565b61461760808301856145a4565b61462460a08301846145bf565b979650505050505050565b6146388161446c565b82525050565b606082016000820151614654600085018261462f565b506020820151614667602085018261462f565b50604082015161467a604085018261462f565b50505050565b600060c08201905061469560008301876145a4565b6146a260208301866145a4565b6146af60408301856145a4565b6146bc606083018461463e565b95945050505050565b6146ce816144ef565b81146146d957600080fd5b50565b6000813590506146eb816146c5565b92915050565b6000806040838503121561470857614707614462565b5b6000614716858286016146dc565b92505060206147278582860161448d565b9150509250929050565b600063ffffffff82169050919050565b61474a81614731565b82525050565b600060608201905061476560008301866145a4565b6147726020830185614741565b61477f6040830184614741565b949350505050565b60006020828403121561479d5761479c614462565b5b60006147ab848285016146dc565b91505092915050565b60006020820190506147c960008301846145a4565b92915050565b600081519050919050565b600082825260208201905092915050565b6000819050602082019050919050565b614804816144ef565b82525050565b614813816145b3565b82525050565b60808201600082015161482f60008501826147fb565b506020820151614842602085018261480a565b506040820151614855604085018261462f565b506060820151614868606085018261462f565b50505050565b600061487a8383614819565b60808301905092915050565b6000602082019050919050565b600061489e826147cf565b6148a881856147da565b93506148b3836147eb565b8060005b838110156148e45781516148cb888261486e565b97506148d683614886565b9250506001810190506148b7565b5085935050505092915050565b6000602082019050818103600083015261490b8184614893565b905092915050565b600081519050919050565b600082825260208201905092915050565b6000819050602082019050919050565b600061494b838361462f565b60208301905092915050565b6000602082019050919050565b600061496f82614913565b614979818561491e565b93506149848361492f565b8060005b838110156149b557815161499c888261493f565b97506149a783614957565b925050600181019050614988565b5085935050505092915050565b600060208201905081810360008301526149dc8184614964565b905092915050565b6000806000606084860312156149fd576149fc614462565b5b6000614a0b868287016146dc565b9350506020614a1c868287016146dc565b9250506040614a2d8682870161448d565b9150509250925092565b614a408161452b565b82525050565b600060a082019050614a5b60008301886145a4565b614a686020830187614a37565b614a756040830186614a37565b614a826060830185614a37565b614a8f60808301846145a4565b9695505050505050565b600061ffff82169050919050565b614ab081614a99565b82525050565b6000606082019050614acb60008301866145a4565b614ad86020830185614aa7565b614ae56040830184614a37565b949350505050565b600081519050919050565b600082825260208201905092915050565b6000819050602082019050919050565b600081519050919050565b600082825260208201905092915050565b60005b83811015614b53578082015181840152602081019050614b38565b83811115614b62576000848401525b50505050565b6000601f19601f8301169050919050565b6000614b8482614b19565b614b8e8185614b24565b9350614b9e818560208601614b35565b614ba781614b68565b840191505092915050565b614bbb8161452b565b82525050565b6000610100830160008301518482036000860152614bdf8282614b79565b9150506020830151614bf4602086018261462f565b506040830151614c07604086018261462f565b506060830151614c1a606086018261462f565b506080830151614c2d6080860182614bb2565b5060a0830151614c4060a086018261462f565b5060c0830151614c5360c086018261462f565b5060e0830151614c6660e086018261462f565b508091505092915050565b6000614c7d8383614bc1565b905092915050565b6000602082019050919050565b6000614c9d82614aed565b614ca78185614af8565b935083602082028501614cb985614b09565b8060005b85811015614cf55784840389528151614cd68582614c71565b9450614ce183614c85565b925060208a01995050600181019050614cbd565b50829750879550505050505092915050565b60006020820190508181036000830152614d218184614c92565b905092915050565b600080fd5b7f4e487b7100000000000000000000000000000000000000000000000000000000600052604160045260246000fd5b614d6682614b68565b810181811067ffffffffffffffff82111715614d8557614d84614d2e565b5b80604052505050565b6000614d98614458565b9050614da48282614d5d565b919050565b600067ffffffffffffffff821115614dc457614dc3614d2e565b5b602082029050602081019050919050565b600080fd5b6000614ded614de884614da9565b614d8e565b90508083825260208201905060208402830185811115614e1057614e0f614dd5565b5b835b81811015614e395780614e25888261448d565b845260208401935050602081019050614e12565b5050509392505050565b600082601f830112614e5857614e57614d29565b5b8135614e68848260208601614dda565b91505092915050565b60008060408385031215614e8857614e87614462565b5b6000614e968582860161448d565b925050602083013567ffffffffffffffff811115614eb757614eb6614467565b5b614ec385828601614e43565b9150509250929050565b600082825260208201905092915050565b6000614ee982614b19565b614ef38185614ecd565b9350614f03818560208601614b35565b614f0c81614b68565b840191505092915050565b6000610100820190508181036000830152614f32818b614ede565b9050614f41602083018a6145a4565b614f4e60408301896145a4565b614f5b60608301886145a4565b614f686080830187614a37565b614f7560a08301866145a4565b614f8260c08301856145a4565b614f8f60e08301846145a4565b9998505050505050505050565b7f4e487b7100000000000000000000000000000000000000000000000000000000600052603260045260246000fd5b7f4e487b7100000000000000000000000000000000000000000000000000000000600052601160045260246000fd5b600061500582614731565b915061501083614731565b92508163ffffffff048311821515161561502d5761502c614fcb565b5b828202905092915050565b60006150438261446c565b915061504e8361446c565b9250817fffffffffffffffffffffffffffffffffffffffffffffffffffffffffffffffff048311821515161561508757615086614fcb565b5b828202905092915050565b600061509d82614731565b91506150a883614731565b92508263ffffffff038211156150c1576150c0614fcb565b5b828201905092915050565b7f4e487b7100000000000000000000000000000000000000000000000000000000600052601260045260246000fd5b60006151068261452b565b91506151118361452b565b925082615121576151206150cc565b5b828204905092915050565b60006151378261452b565b91506151428361452b565b92508260ff0382111561515857615157614fcb565b5b828201905092915050565b600061516e8261452b565b915060ff820361518157615180614fcb565b5b600182019050919050565b60006151978261452b565b91506151a28361452b565b9250828210156151b5576151b4614fcb565b5b828203905092915050565b60006151cb8261452b565b91506151d68361452b565b92508160ff04831182151516156151f0576151ef614fcb565b5b828202905092915050565b600061520682614731565b915061521183614731565b92508282101561522457615223614fcb565b5b828203905092915050565b600061523a8261446c565b91506152458361446c565b9250827fffffffffffffffffffffffffffffffffffffffffffffffffffffffffffffffff0382111561527a57615279614fcb565b5b828201905092915050565b7f726f6f6d206e6f7420636c6f7365640000000000000000000000000000000000600082015250565b60006152bb600f83614ecd565b91506152c682615285565b602082019050919050565b600060208201905081810360008301526152ea816152ae565b9050919050565b60006152fc8261446c565b91507fffffffffffffffffffffffffffffffffffffffffffffffffffffffffffffffff820361532e5761532d614fcb565b5b600182019050919050565b60008160011c9050919050565b6000808291508390505b60018511156153905780860481111561536c5761536b614fcb565b5b600185161561537b5780820291505b808102905061538985615339565b9450615350565b94509492505050565b6000826153a95760019050615465565b816153b75760009050615465565b81600181146153cd57600281146153d757615406565b6001915050615465565b60ff8411156153e9576153e8614fcb565b5b8360020a915084821115615400576153ff614fcb565b5b50615465565b5060208310610133831016604e8410600b841016171561543b5782820a90508381111561543657615435614fcb565b5b615465565b6154488484846001615346565b9250905081840481111561545f5761545e614fcb565b5b81810290505b9392505050565b60006154778261446c565b91506154828361452b565b92506154af7fffffffffffffffffffffffffffffffffffffffffffffffffffffffffffffffff8484615399565b905092915050565b7f4e487b7100000000000000000000000000000000000000000000000000000000600052602260045260246000fd5b600060028204905060018216806154fe57607f821691505b602082108103615511576155106154b7565b5b50919050565b7f6e6f7420796f757220726f6f6d00000000000000000000000000000000000000600082015250565b600061554d600d83614ecd565b915061555882615517565b602082019050919050565b6000602082019050818103600083015261557c81615540565b9050919050565b61558c8161446c565b82525050565b600082825260208201905092915050565b6155ac8161446c565b82525050565b60006155be83836155a3565b60208301905092915050565b60006155d582614913565b6155df8185615592565b93506155ea8361492f565b8060005b8381101561561b57815161560288826155b2565b975061560d83614957565b9250506001810190506155ee565b5085935050505092915050565b600060408201905061563d6000830185615583565b818103602083015261564f81846155ca565b90509392505050565b615661816145b3565b811461566c57600080fd5b50565b60008151905061567e81615658565b92915050565b60006020828403121561569a57615699614462565b5b60006156a88482850161566f565b91505092915050565b600081905092915050565b60006156c782614b19565b6156d181856156b1565b93506156e1818560208601614b35565b80840191505092915050565b60006156f982856156bc565b915061570582846156bc565b91508190509392505050565b600061571d82846156bc565b915081905092915050565b7f4f776e61626c653a206e6577206f776e657220697320746865207a65726f206160008201527f6464726573730000000000000000000000000000000000000000000000000000602082015250565b6000615784602683614ecd565b915061578f82615728565b604082019050919050565b600060208201905081810360008301526157b381615777565b9050919050565b60006157c582614a99565b91506157d083614a99565b92508161ffff04831182151516156157eb576157ea614fcb565b5b828202905092915050565b600061580182614a99565b915061580c83614a99565b92508261ffff0382111561582357615822614fcb565b5b828201905092915050565b60006040820190506158436000830185615583565b6158506020830184615583565b9392505050565b60008151905061586681614476565b92915050565b60006020828403121561588257615881614462565b5b600061589084828501615857565b91505092915050565b60006040820190506158ae60008301856145a4565b6158bb60208301846145a4565b9392505050565b60006158cd8261446c565b91506158d88361446c565b9250826158e8576158e76150cc565b5b828206905092915050565b7f4f776e61626c653a2063616c6c6572206973206e6f7420746865206f776e6572600082015250565b6000615929602083614ecd565b9150615934826158f3565b602082019050919050565b600060208201905081810360008301526159588161591c565b9050919050565b7f656e67696e65206d75737420626520656d707479000000000000000000000000600082015250565b6000615995601483614ecd565b91506159a08261595f565b602082019050919050565b600060208201905081810360008301526159c481615988565b9050919050565b7f63686173736973206d75737420626520656d7074790000000000000000000000600082015250565b6000615a01601583614ecd565b9150615a0c826159cb565b602082019050919050565b60006020820190508181036000830152615a30816159f4565b9050919050565b7f697420697320796f7572206c6173742063617200000000000000000000000000600082015250565b6000615a6d601383614ecd565b9150615a7882615a37565b602082019050919050565b60006020820190508181036000830152615a9c81615a60565b9050919050565b6000615aae8261446c565b9150615ab98361446c565b925082821015615acc57615acb614fcb565b5b828203905092915050565b6000615ae28261446c565b9150615aed8361446c565b925082615afd57615afc6150cc565b5b82820490509291505056fea26469706673582212206d4e5f59eca2979dfc126673befc9eaf16409ddb1945f790a2a94545b88d86e364736f6c634300080d0033",
  "immutableReferences": {},
  "source": "// SPDX-License-Identifier: MIT\npragma solidity ^0.8.13;\n\nimport \"../node_modules/@openzeppelin/contracts/utils/math/SafeMath.sol\";\nimport \"./CarRacing.sol\";\n\ncontract TokenOwnership is CarRacing{\n    using SafeMath for uint256;\n\n    mapping (uint => address) carApprovals;\n    mapping (uint => address) engineApprovals;\n    mapping (uint => address) chassisApprovals;\n\n\n    function balanceOfCars(address _owner) external view returns (uint256) {\n        return ownerCarCount[_owner];\n    }\n    function ownerOfCar(uint256 _tokenId) external view returns(address) {\n        return carToOwner[_tokenId];\n    }\n    function _transferCar(address _from, address _to, uint256 _tokenId) private {\n        require(cars[_tokenId].engineId == 0, \"engine must be empty\");\n        require(cars[_tokenId].chassisId == 0, \"chassis must be empty\");\n        require(ownerCarCount[_from]>0, \"it is your last car\");\n        ownerCarCount[_to] = ownerCarCount[_to].add(1);\n        ownerCarCount[_from] = ownerCarCount[_from].sub(1);\n        carToOwner[_tokenId] = _to;\n    }\n    function transferCarFrom(address _from, address _to, uint256 _tokenId) external payable {\n        require (carToOwner[_tokenId] == _from || carApprovals[_tokenId] == msg.sender);\n        _transferCar(_from, _to, _tokenId);\n    }\n    function approveCar(address _approved, uint256 _tokenId) external payable onlyOwnerOfCar(_tokenId) {\n        carApprovals[_tokenId] = _approved;\n    }\n\n\n    function balanceOfEngines(address _owner) external view returns (uint256) {\n        return ownerEngineCount[_owner];\n    }\n    function ownerOfEngine(uint256 _tokenId) external view returns(address) {\n        return engineToOwner[_tokenId];\n    }\n    function _transferEngine(address _from, address _to, uint256 _tokenId) private {\n        ownerEngineCount[_to] = ownerEngineCount[_to].add(1);\n        ownerEngineCount[_from] = ownerEngineCount[_from].sub(1);\n        engineToOwner[_tokenId] = _to;\n    }\n    function transferEngineFrom(address _from, address _to, uint256 _tokenId) external payable {\n        require (engineToOwner[_tokenId] == _from || engineApprovals[_tokenId] == msg.sender);\n        _transferEngine(_from, _to, _tokenId);\n    }\n    function approveEngine(address _approved, uint256 _tokenId) external payable onlyOwnerOfEngine(_tokenId) {\n        engineApprovals[_tokenId] = _approved;\n    }\n\n    \n    function balanceOfChassis(address _owner) external view returns (uint256) {\n        return ownerChassisCount[_owner];\n    }\n    function ownerOfChassis(uint256 _tokenId) external view returns(address) {\n        return chassisToOwner[_tokenId];\n    }\n    function _transferChassis(address _from, address _to, uint256 _tokenId) private {\n        ownerChassisCount[_to] = ownerChassisCount[_to].add(1);\n        ownerChassisCount[_from] = ownerChassisCount[_from].sub(1);\n        chassisToOwner[_tokenId] = _to;\n    }\n    function transferChassisFrom(address _from, address _to, uint256 _tokenId) external payable {\n        require (chassisToOwner[_tokenId] == _from || chassisApprovals[_tokenId] == msg.sender);\n        _transferChassis(_from, _to, _tokenId);\n    }\n    function approveChassis(address _approved, uint256 _tokenId) external payable onlyOwnerOfChassis(_tokenId) {\n        chassisApprovals[_tokenId] = _approved;\n    }\n}",
  "sourcePath": "/Users/vvan/Programming/JavaScript/DriveSafely/contract/contracts/TokenOwnership.sol",
  "compiler": {
    "name": "solc",
    "version": "0.8.13+commit.abaa5c0e.Emscripten.clang"
  },
  "schemaVersion": "3.4.11",
  "updatedAt": "2023-01-08T10:01:25.146Z",
  "devdoc": {
    "kind": "dev",
    "methods": {
      "owner()": {
        "details": "Returns the address of the current owner."
      },
      "renounceOwnership()": {
        "details": "Leaves the contract without owner. It will not be possible to call `onlyOwner` functions anymore. Can only be called by the current owner. NOTE: Renouncing ownership will leave the contract without an owner, thereby removing any functionality that is only available to the owner."
      },
      "transferOwnership(address)": {
        "details": "Transfers ownership of the contract to a new account (`newOwner`). Can only be called by the current owner."
      }
    },
    "version": 1
  },
  "userdoc": {
    "kind": "user",
    "methods": {},
    "version": 1
  }
}