{
  "contractName": "TokenOwnership",
  "abi": [
    {
      "anonymous": false,
      "inputs": [
        {
          "indexed": true,
          "internalType": "address",
          "name": "previousOwner",
          "type": "address"
        },
        {
          "indexed": true,
          "internalType": "address",
          "name": "newOwner",
          "type": "address"
        }
      ],
      "name": "OwnershipTransferred",
      "type": "event"
    },
    {
      "anonymous": false,
      "inputs": [
        {
          "indexed": false,
          "internalType": "uint256",
          "name": "roomId",
          "type": "uint256"
        }
      ],
      "name": "RoomClosed",
      "type": "event"
    },
    {
      "anonymous": false,
      "inputs": [
        {
          "indexed": false,
          "internalType": "uint256",
          "name": "roomId",
          "type": "uint256"
        },
        {
          "indexed": false,
          "internalType": "uint256",
          "name": "roomDNA",
          "type": "uint256"
        }
      ],
      "name": "RoomFull",
      "type": "event"
    },
    {
      "inputs": [
        {
          "internalType": "uint256",
          "name": "",
          "type": "uint256"
        }
      ],
      "name": "carToOwner",
      "outputs": [
        {
          "internalType": "address",
          "name": "",
          "type": "address"
        }
      ],
      "stateMutability": "view",
      "type": "function",
      "constant": true
    },
    {
      "inputs": [
        {
          "internalType": "uint256",
          "name": "",
          "type": "uint256"
        }
      ],
      "name": "carToPrice",
      "outputs": [
        {
          "internalType": "uint256",
          "name": "",
          "type": "uint256"
        }
      ],
      "stateMutability": "view",
      "type": "function",
      "constant": true
    },
    {
      "inputs": [
        {
          "internalType": "uint256",
          "name": "",
          "type": "uint256"
        }
      ],
      "name": "cars",
      "outputs": [
        {
          "internalType": "string",
          "name": "model",
          "type": "string"
        },
        {
          "internalType": "uint256",
          "name": "vin",
          "type": "uint256"
        },
        {
          "internalType": "uint256",
          "name": "engineId",
          "type": "uint256"
        },
        {
          "internalType": "uint256",
          "name": "chassisId",
          "type": "uint256"
        },
        {
          "internalType": "uint8",
          "name": "carLevel",
          "type": "uint8"
        },
        {
          "internalType": "uint256",
          "name": "mileage",
          "type": "uint256"
        },
        {
          "internalType": "uint256",
          "name": "winCountOnCurrentLevel",
          "type": "uint256"
        },
        {
          "internalType": "uint256",
          "name": "lossCountOnCurrentLevel",
          "type": "uint256"
        },
        {
          "internalType": "uint256",
          "name": "id",
          "type": "uint256"
        }
      ],
      "stateMutability": "view",
      "type": "function",
      "constant": true
    },
    {
      "inputs": [
        {
          "internalType": "uint256",
          "name": "",
          "type": "uint256"
        }
      ],
      "name": "chassis",
      "outputs": [
        {
          "internalType": "uint256",
          "name": "id",
          "type": "uint256"
        },
        {
          "internalType": "uint32",
          "name": "durability",
          "type": "uint32"
        },
        {
          "internalType": "uint32",
          "name": "resource",
          "type": "uint32"
        }
      ],
      "stateMutability": "view",
      "type": "function",
      "constant": true
    },
    {
      "inputs": [
        {
          "internalType": "uint256",
          "name": "",
          "type": "uint256"
        }
      ],
      "name": "chassisToOwner",
      "outputs": [
        {
          "internalType": "address",
          "name": "",
          "type": "address"
        }
      ],
      "stateMutability": "view",
      "type": "function",
      "constant": true
    },
    {
      "inputs": [
        {
          "internalType": "uint256",
          "name": "",
          "type": "uint256"
        }
      ],
      "name": "chassisToPrice",
      "outputs": [
        {
          "internalType": "uint256",
          "name": "",
          "type": "uint256"
        }
      ],
      "stateMutability": "view",
      "type": "function",
      "constant": true
    },
    {
      "inputs": [
        {
          "internalType": "uint256",
          "name": "roomId",
          "type": "uint256"
        },
        {
          "internalType": "uint256[]",
          "name": "answer",
          "type": "uint256[]"
        }
      ],
      "name": "commitAnswer",
      "outputs": [],
      "stateMutability": "nonpayable",
      "type": "function"
    },
    {
      "inputs": [
        {
          "internalType": "string",
          "name": "model",
          "type": "string"
        }
      ],
      "name": "createCar",
      "outputs": [],
      "stateMutability": "nonpayable",
      "type": "function"
    },
    {
      "inputs": [
        {
          "internalType": "string",
          "name": "_model",
          "type": "string"
        },
        {
          "internalType": "uint16",
          "name": "_horsePowers",
          "type": "uint16"
        },
        {
          "internalType": "uint8",
          "name": "_consumtion",
          "type": "uint8"
        },
        {
          "internalType": "uint32",
          "name": "_durability",
          "type": "uint32"
        },
        {
          "internalType": "uint8",
          "name": "_carLevel",
          "type": "uint8"
        },
        {
          "internalType": "uint256",
          "name": "_carPrice",
          "type": "uint256"
        }
      ],
      "name": "createCustomCar",
      "outputs": [],
      "stateMutability": "nonpayable",
      "type": "function"
    },
    {
      "inputs": [
        {
          "internalType": "uint32",
          "name": "_durability",
          "type": "uint32"
        },
        {
          "internalType": "uint256",
          "name": "_chassisPrice",
          "type": "uint256"
        }
      ],
      "name": "createCustomChassis",
      "outputs": [
        {
          "internalType": "uint256",
          "name": "",
          "type": "uint256"
        }
      ],
      "stateMutability": "nonpayable",
      "type": "function"
    },
    {
      "inputs": [
        {
          "internalType": "uint16",
          "name": "_horsePowers",
          "type": "uint16"
        },
        {
          "internalType": "uint8",
          "name": "_consumtion",
          "type": "uint8"
        },
        {
          "internalType": "uint256",
          "name": "_enginePrice",
          "type": "uint256"
        }
      ],
      "name": "createCustomEngine",
      "outputs": [
        {
          "internalType": "uint256",
          "name": "",
          "type": "uint256"
        }
      ],
      "stateMutability": "nonpayable",
      "type": "function"
    },
    {
      "inputs": [],
      "name": "createFuelStation",
      "outputs": [],
      "stateMutability": "nonpayable",
      "type": "function"
    },
    {
      "inputs": [
        {
          "internalType": "uint256",
          "name": "carId",
          "type": "uint256"
        },
        {
          "internalType": "uint256",
          "name": "chassisId",
          "type": "uint256"
        }
      ],
      "name": "detachChassis",
      "outputs": [],
      "stateMutability": "nonpayable",
      "type": "function"
    },
    {
      "inputs": [
        {
          "internalType": "uint256",
          "name": "carId",
          "type": "uint256"
        },
        {
          "internalType": "uint256",
          "name": "engineId",
          "type": "uint256"
        }
      ],
      "name": "detachEngine",
      "outputs": [],
      "stateMutability": "nonpayable",
      "type": "function"
    },
    {
      "inputs": [
        {
          "internalType": "uint256",
          "name": "",
          "type": "uint256"
        }
      ],
      "name": "engineToOwner",
      "outputs": [
        {
          "internalType": "address",
          "name": "",
          "type": "address"
        }
      ],
      "stateMutability": "view",
      "type": "function",
      "constant": true
    },
    {
      "inputs": [
        {
          "internalType": "uint256",
          "name": "",
          "type": "uint256"
        }
      ],
      "name": "engineToPrice",
      "outputs": [
        {
          "internalType": "uint256",
          "name": "",
          "type": "uint256"
        }
      ],
      "stateMutability": "view",
      "type": "function",
      "constant": true
    },
    {
      "inputs": [
        {
          "internalType": "uint256",
          "name": "",
          "type": "uint256"
        }
      ],
      "name": "engines",
      "outputs": [
        {
          "internalType": "uint256",
          "name": "id",
          "type": "uint256"
        },
        {
          "internalType": "uint16",
          "name": "horsePowers",
          "type": "uint16"
        },
        {
          "internalType": "uint8",
          "name": "consumtion",
          "type": "uint8"
        }
      ],
      "stateMutability": "view",
      "type": "function",
      "constant": true
    },
    {
      "inputs": [
        {
          "internalType": "uint256",
          "name": "carId",
          "type": "uint256"
        }
      ],
      "name": "findRoom",
      "outputs": [],
      "stateMutability": "nonpayable",
      "type": "function"
    },
    {
      "inputs": [
        {
          "internalType": "uint256",
          "name": "",
          "type": "uint256"
        }
      ],
      "name": "fuelStationToOwner",
      "outputs": [
        {
          "internalType": "address",
          "name": "",
          "type": "address"
        }
      ],
      "stateMutability": "view",
      "type": "function",
      "constant": true
    },
    {
      "inputs": [
        {
          "internalType": "address",
          "name": "_owner",
          "type": "address"
        }
      ],
      "name": "getCarsByOwner",
      "outputs": [
        {
          "components": [
            {
              "internalType": "string",
              "name": "model",
              "type": "string"
            },
            {
              "internalType": "uint256",
              "name": "vin",
              "type": "uint256"
            },
            {
              "internalType": "uint256",
              "name": "engineId",
              "type": "uint256"
            },
            {
              "internalType": "uint256",
              "name": "chassisId",
              "type": "uint256"
            },
            {
              "internalType": "uint8",
              "name": "carLevel",
              "type": "uint8"
            },
            {
              "internalType": "uint256",
              "name": "mileage",
              "type": "uint256"
            },
            {
              "internalType": "uint256",
              "name": "winCountOnCurrentLevel",
              "type": "uint256"
            },
            {
              "internalType": "uint256",
              "name": "lossCountOnCurrentLevel",
              "type": "uint256"
            },
            {
              "internalType": "uint256",
              "name": "id",
              "type": "uint256"
            }
          ],
          "internalType": "struct CarFactory.Car[]",
          "name": "",
          "type": "tuple[]"
        }
      ],
      "stateMutability": "view",
      "type": "function",
      "constant": true
    },
    {
      "inputs": [
        {
          "internalType": "address",
          "name": "_owner",
          "type": "address"
        }
      ],
      "name": "getChassisByOwner",
      "outputs": [
        {
          "components": [
            {
              "internalType": "uint256",
              "name": "id",
              "type": "uint256"
            },
            {
              "internalType": "uint32",
              "name": "durability",
              "type": "uint32"
            },
            {
              "internalType": "uint32",
              "name": "resource",
              "type": "uint32"
            }
          ],
          "internalType": "struct CarFactory.Chassis[]",
          "name": "",
          "type": "tuple[]"
        }
      ],
      "stateMutability": "view",
      "type": "function",
      "constant": true
    },
    {
      "inputs": [
        {
          "internalType": "uint256",
          "name": "roomId",
          "type": "uint256"
        }
      ],
      "name": "getClosedRoom",
      "outputs": [
        {
          "components": [
            {
              "internalType": "address",
              "name": "player",
              "type": "address"
            },
            {
              "internalType": "bool",
              "name": "correct",
              "type": "bool"
            },
            {
              "internalType": "uint256",
              "name": "time",
              "type": "uint256"
            },
            {
              "internalType": "uint256",
              "name": "carId",
              "type": "uint256"
            }
          ],
          "internalType": "struct RaceHandler.Answer[]",
          "name": "",
          "type": "tuple[]"
        }
      ],
      "stateMutability": "view",
      "type": "function",
      "constant": true
    },
    {
      "inputs": [
        {
          "internalType": "uint256",
          "name": "_carId",
          "type": "uint256"
        }
      ],
      "name": "getCost",
      "outputs": [
        {
          "internalType": "uint256",
          "name": "",
          "type": "uint256"
        }
      ],
      "stateMutability": "view",
      "type": "function",
      "constant": true
    },
    {
      "inputs": [
        {
          "internalType": "address",
          "name": "_owner",
          "type": "address"
        }
      ],
      "name": "getEnginesByOwner",
      "outputs": [
        {
          "components": [
            {
              "internalType": "uint256",
              "name": "id",
              "type": "uint256"
            },
            {
              "internalType": "uint16",
              "name": "horsePowers",
              "type": "uint16"
            },
            {
              "internalType": "uint8",
              "name": "consumtion",
              "type": "uint8"
            }
          ],
          "internalType": "struct CarFactory.Engine[]",
          "name": "",
          "type": "tuple[]"
        }
      ],
      "stateMutability": "view",
      "type": "function",
      "constant": true
    },
    {
      "inputs": [
        {
          "internalType": "address",
          "name": "_owner",
          "type": "address"
        }
      ],
      "name": "getFuelStationByOwner",
      "outputs": [
        {
          "components": [
            {
              "internalType": "uint256",
              "name": "id",
              "type": "uint256"
            },
            {
              "internalType": "uint8",
              "name": "capacity",
              "type": "uint8"
            },
            {
              "internalType": "uint8",
              "name": "productionPerHour",
              "type": "uint8"
            },
            {
              "internalType": "uint8",
              "name": "currentFullness",
              "type": "uint8"
            },
            {
              "internalType": "uint256",
              "name": "lastUpdate",
              "type": "uint256"
            }
          ],
          "internalType": "struct FuelStationFactory.FuelStation",
          "name": "",
          "type": "tuple"
        }
      ],
      "stateMutability": "view",
      "type": "function",
      "constant": true
    },
    {
      "inputs": [
        {
          "internalType": "uint256",
          "name": "",
          "type": "uint256"
        }
      ],
      "name": "idToStartedRooms",
      "outputs": [
        {
          "internalType": "uint256",
          "name": "numberPlayers",
          "type": "uint256"
        },
        {
          "internalType": "uint256",
          "name": "world",
          "type": "uint256"
        },
        {
          "internalType": "uint256",
          "name": "roomDNA",
          "type": "uint256"
        },
        {
          "internalType": "uint256",
          "name": "startTime",
          "type": "uint256"
        },
        {
          "internalType": "uint256",
          "name": "curAnswer",
          "type": "uint256"
        },
        {
          "internalType": "bool",
          "name": "closed",
          "type": "bool"
        }
      ],
      "stateMutability": "view",
      "type": "function",
      "constant": true
    },
    {
      "inputs": [
        {
          "internalType": "uint256",
          "name": "_carId",
          "type": "uint256"
        }
      ],
      "name": "levelUp",
      "outputs": [],
      "stateMutability": "payable",
      "type": "function",
      "payable": true
    },
    {
      "inputs": [
        {
          "internalType": "uint256",
          "name": "",
          "type": "uint256"
        }
      ],
      "name": "openedRooms",
      "outputs": [
        {
          "internalType": "uint256",
          "name": "id",
          "type": "uint256"
        },
        {
          "internalType": "uint256",
          "name": "playersEntered",
          "type": "uint256"
        },
        {
          "internalType": "uint256",
          "name": "world",
          "type": "uint256"
        },
        {
          "components": [
            {
              "internalType": "uint256",
              "name": "playersNeeded",
              "type": "uint256"
            },
            {
              "internalType": "uint256",
              "name": "roadsNum",
              "type": "uint256"
            },
            {
              "internalType": "uint256",
              "name": "crossId",
              "type": "uint256"
            }
          ],
          "internalType": "struct RaceHandler.Cross",
          "name": "cross",
          "type": "tuple"
        }
      ],
      "stateMutability": "view",
      "type": "function",
      "constant": true
    },
    {
      "inputs": [],
      "name": "owner",
      "outputs": [
        {
          "internalType": "address",
          "name": "",
          "type": "address"
        }
      ],
      "stateMutability": "view",
      "type": "function",
      "constant": true
    },
    {
      "inputs": [
        {
          "internalType": "address",
          "name": "",
          "type": "address"
        }
      ],
      "name": "ownerCarCount",
      "outputs": [
        {
          "internalType": "uint256",
          "name": "",
          "type": "uint256"
        }
      ],
      "stateMutability": "view",
      "type": "function",
      "constant": true
    },
    {
      "inputs": [
        {
          "internalType": "address",
          "name": "",
          "type": "address"
        }
      ],
      "name": "ownerChassisCount",
      "outputs": [
        {
          "internalType": "uint256",
          "name": "",
          "type": "uint256"
        }
      ],
      "stateMutability": "view",
      "type": "function",
      "constant": true
    },
    {
      "inputs": [
        {
          "internalType": "address",
          "name": "",
          "type": "address"
        }
      ],
      "name": "ownerEngineCount",
      "outputs": [
        {
          "internalType": "uint256",
          "name": "",
          "type": "uint256"
        }
      ],
      "stateMutability": "view",
      "type": "function",
      "constant": true
    },
    {
      "inputs": [],
      "name": "renounceOwnership",
      "outputs": [],
      "stateMutability": "nonpayable",
      "type": "function"
    },
    {
      "inputs": [
        {
          "internalType": "uint256",
          "name": "_carId",
          "type": "uint256"
        }
      ],
      "name": "startRace",
      "outputs": [],
      "stateMutability": "nonpayable",
      "type": "function"
    },
    {
      "inputs": [
        {
          "internalType": "uint256",
          "name": "",
          "type": "uint256"
        }
      ],
      "name": "stations",
      "outputs": [
        {
          "internalType": "uint256",
          "name": "id",
          "type": "uint256"
        },
        {
          "internalType": "uint8",
          "name": "capacity",
          "type": "uint8"
        },
        {
          "internalType": "uint8",
          "name": "productionPerHour",
          "type": "uint8"
        },
        {
          "internalType": "uint8",
          "name": "currentFullness",
          "type": "uint8"
        },
        {
          "internalType": "uint256",
          "name": "lastUpdate",
          "type": "uint256"
        }
      ],
      "stateMutability": "view",
      "type": "function",
      "constant": true
    },
    {
      "inputs": [
        {
          "internalType": "uint256",
          "name": "carId",
          "type": "uint256"
        },
        {
          "internalType": "uint256",
          "name": "chassisId",
          "type": "uint256"
        }
      ],
      "name": "switchChassis",
      "outputs": [],
      "stateMutability": "nonpayable",
      "type": "function"
    },
    {
      "inputs": [
        {
          "internalType": "uint256",
          "name": "carId",
          "type": "uint256"
        },
        {
          "internalType": "uint256",
          "name": "engineId",
          "type": "uint256"
        }
      ],
      "name": "switchEngine",
      "outputs": [],
      "stateMutability": "nonpayable",
      "type": "function"
    },
    {
      "inputs": [
        {
          "internalType": "address",
          "name": "newOwner",
          "type": "address"
        }
      ],
      "name": "transferOwnership",
      "outputs": [],
      "stateMutability": "nonpayable",
      "type": "function"
    },
    {
      "inputs": [
        {
          "internalType": "uint256",
          "name": "_fuelStatonId",
          "type": "uint256"
        },
        {
          "internalType": "uint8",
          "name": "_counts",
          "type": "uint8"
        }
      ],
      "name": "upgradeCapacity",
      "outputs": [],
      "stateMutability": "payable",
      "type": "function",
      "payable": true
    },
    {
      "inputs": [
        {
          "internalType": "uint256",
          "name": "_engineId",
          "type": "uint256"
        },
        {
          "internalType": "uint8",
          "name": "_counts",
          "type": "uint8"
        }
      ],
      "name": "upgradeConsumtion",
      "outputs": [],
      "stateMutability": "payable",
      "type": "function",
      "payable": true
    },
    {
      "inputs": [
        {
          "internalType": "uint256",
          "name": "_chassisId",
          "type": "uint256"
        },
        {
          "internalType": "uint8",
          "name": "_counts",
          "type": "uint8"
        }
      ],
      "name": "upgradeDurability",
      "outputs": [],
      "stateMutability": "payable",
      "type": "function",
      "payable": true
    },
    {
      "inputs": [
        {
          "internalType": "uint256",
          "name": "_engineId",
          "type": "uint256"
        },
        {
          "internalType": "uint8",
          "name": "_counts",
          "type": "uint8"
        }
      ],
      "name": "upgradeHorsePowers",
      "outputs": [],
      "stateMutability": "payable",
      "type": "function",
      "payable": true
    },
    {
      "inputs": [
        {
          "internalType": "uint256",
          "name": "_fuelStatonId",
          "type": "uint256"
        },
        {
          "internalType": "uint8",
          "name": "_counts",
          "type": "uint8"
        }
      ],
      "name": "upgradeProductionPerHour",
      "outputs": [],
      "stateMutability": "payable",
      "type": "function",
      "payable": true
    },
    {
      "inputs": [
        {
          "internalType": "address",
          "name": "_owner",
          "type": "address"
        }
      ],
      "name": "balanceOfCars",
      "outputs": [
        {
          "internalType": "uint256",
          "name": "",
          "type": "uint256"
        }
      ],
      "stateMutability": "view",
      "type": "function",
      "constant": true
    },
    {
      "inputs": [
        {
          "internalType": "uint256",
          "name": "_tokenId",
          "type": "uint256"
        }
      ],
      "name": "ownerOfCar",
      "outputs": [
        {
          "internalType": "address",
          "name": "",
          "type": "address"
        }
      ],
      "stateMutability": "view",
      "type": "function",
      "constant": true
    },
    {
      "inputs": [
        {
          "internalType": "address",
          "name": "_from",
          "type": "address"
        },
        {
          "internalType": "address",
          "name": "_to",
          "type": "address"
        },
        {
          "internalType": "uint256",
          "name": "_tokenId",
          "type": "uint256"
        }
      ],
      "name": "transferCarFrom",
      "outputs": [],
      "stateMutability": "payable",
      "type": "function",
      "payable": true
    },
    {
      "inputs": [
        {
          "internalType": "address",
          "name": "_approved",
          "type": "address"
        },
        {
          "internalType": "uint256",
          "name": "_tokenId",
          "type": "uint256"
        }
      ],
      "name": "approveCar",
      "outputs": [],
      "stateMutability": "payable",
      "type": "function",
      "payable": true
    },
    {
      "inputs": [
        {
          "internalType": "address",
          "name": "_owner",
          "type": "address"
        }
      ],
      "name": "balanceOfEngines",
      "outputs": [
        {
          "internalType": "uint256",
          "name": "",
          "type": "uint256"
        }
      ],
      "stateMutability": "view",
      "type": "function",
      "constant": true
    },
    {
      "inputs": [
        {
          "internalType": "uint256",
          "name": "_tokenId",
          "type": "uint256"
        }
      ],
      "name": "ownerOfEngine",
      "outputs": [
        {
          "internalType": "address",
          "name": "",
          "type": "address"
        }
      ],
      "stateMutability": "view",
      "type": "function",
      "constant": true
    },
    {
      "inputs": [
        {
          "internalType": "address",
          "name": "_from",
          "type": "address"
        },
        {
          "internalType": "address",
          "name": "_to",
          "type": "address"
        },
        {
          "internalType": "uint256",
          "name": "_tokenId",
          "type": "uint256"
        }
      ],
      "name": "transferEngineFrom",
      "outputs": [],
      "stateMutability": "payable",
      "type": "function",
      "payable": true
    },
    {
      "inputs": [
        {
          "internalType": "address",
          "name": "_approved",
          "type": "address"
        },
        {
          "internalType": "uint256",
          "name": "_tokenId",
          "type": "uint256"
        }
      ],
      "name": "approveEngine",
      "outputs": [],
      "stateMutability": "payable",
      "type": "function",
      "payable": true
    },
    {
      "inputs": [
        {
          "internalType": "address",
          "name": "_owner",
          "type": "address"
        }
      ],
      "name": "balanceOfChassis",
      "outputs": [
        {
          "internalType": "uint256",
          "name": "",
          "type": "uint256"
        }
      ],
      "stateMutability": "view",
      "type": "function",
      "constant": true
    },
    {
      "inputs": [
        {
          "internalType": "uint256",
          "name": "_tokenId",
          "type": "uint256"
        }
      ],
      "name": "ownerOfChassis",
      "outputs": [
        {
          "internalType": "address",
          "name": "",
          "type": "address"
        }
      ],
      "stateMutability": "view",
      "type": "function",
      "constant": true
    },
    {
      "inputs": [
        {
          "internalType": "address",
          "name": "_from",
          "type": "address"
        },
        {
          "internalType": "address",
          "name": "_to",
          "type": "address"
        },
        {
          "internalType": "uint256",
          "name": "_tokenId",
          "type": "uint256"
        }
      ],
      "name": "transferChassisFrom",
      "outputs": [],
      "stateMutability": "payable",
      "type": "function",
      "payable": true
    },
    {
      "inputs": [
        {
          "internalType": "address",
          "name": "_approved",
          "type": "address"
        },
        {
          "internalType": "uint256",
          "name": "_tokenId",
          "type": "uint256"
        }
      ],
      "name": "approveChassis",
      "outputs": [],
      "stateMutability": "payable",
      "type": "function",
      "payable": true
    },
    {
      "inputs": [
        {
          "internalType": "uint256",
          "name": "chassisId",
          "type": "uint256"
        },
        {
          "internalType": "uint256",
          "name": "price",
          "type": "uint256"
        }
      ],
      "name": "putChassisOnMarketplace",
      "outputs": [],
      "stateMutability": "nonpayable",
      "type": "function"
    },
    {
      "inputs": [
        {
          "internalType": "uint256",
          "name": "chassisId",
          "type": "uint256"
        }
      ],
      "name": "removeChassisFromMarketplace",
      "outputs": [],
      "stateMutability": "nonpayable",
      "type": "function"
    },
    {
      "inputs": [
        {
          "internalType": "uint256",
          "name": "engineId",
          "type": "uint256"
        },
        {
          "internalType": "uint256",
          "name": "price",
          "type": "uint256"
        }
      ],
      "name": "putEngineOnMarketplace",
      "outputs": [],
      "stateMutability": "nonpayable",
      "type": "function"
    },
    {
      "inputs": [
        {
          "internalType": "uint256",
          "name": "engineId",
          "type": "uint256"
        }
      ],
      "name": "removeEngineFromMarketplace",
      "outputs": [],
      "stateMutability": "nonpayable",
      "type": "function"
    },
    {
      "inputs": [
        {
          "internalType": "uint256",
          "name": "carId",
          "type": "uint256"
        },
        {
          "internalType": "uint256",
          "name": "price",
          "type": "uint256"
        }
      ],
      "name": "putCarOnMarketplace",
      "outputs": [],
      "stateMutability": "nonpayable",
      "type": "function"
    },
    {
      "inputs": [
        {
          "internalType": "uint256",
          "name": "carId",
          "type": "uint256"
        }
      ],
      "name": "removeCarFromMarketplace",
      "outputs": [],
      "stateMutability": "nonpayable",
      "type": "function"
    }
  ],
  "bytecode": "0x60806040526000805461ffff60a01b191661014f60a21b179055600160088190556009556509184e72a00060165565b5e620f48000601755650da475abf0006018556611c37937e080006019556305f5e100601a5566038d7ea4c68000601b553480156200006c57600080fd5b5062000078336200024b565b60506003908155605b60049081556005805460ff1916600a179055620186a06006556201d4c1600755600b80546001908101909155600c805482019055604080516060808201835284825260208281018681526000848601818152601c8054808a0182558184529651968b027f0e4562a10381dec21b205ed72637e6b1b523bdd0e4d4d50af5cd23dd4500a2118181019890985593517f0e4562a10381dec21b205ed72637e6b1b523bdd0e4d4d50af5cd23dd4500a2128086019190915591517f0e4562a10381dec21b205ed72637e6b1b523bdd0e4d4d50af5cd23dd4500a21394850155875180870189528b81528086018b8152818a018581528354808d0185558487529251928e02808b019390935590518285015551908501558751808701895260028082528187019b8c52818a018581528354808d0185558487529251928e02808b01939093559b51828501559a5190850155875180870189528b81528086018c8152818a018b81528354808d0185558487529251928e02808b019390935590518285015551908501558751958601885298855292840189815295840187815288548089018a559890915292519690970292830195909555915193810193909355519190920155601f556200029b565b600080546001600160a01b038381166001600160a01b0319831681178455604051919092169283917f8be0079c531659141344cd1fd0a4f28419497f9722a3daafe3b4186f6b6457e09190a35050565b614d3680620002ab6000396000f3fe6080604052600436106103a25760003560e01c80637ec5c75c116101e7578063c34cccc41161010d578063ede6fbf5116100a0578063f85993b91161006f578063f85993b914610e28578063faf4bb9814610e55578063fb2d954f14610e68578063fb33250f14610e8857600080fd5b8063ede6fbf514610da0578063f2fde38b14610dc0578063f66911b114610de0578063f7746e3614610df357600080fd5b8063d7086fab116100dc578063d7086fab14610d20578063d720be4a14610d40578063e215a7e414610d60578063ea12693314610d8057600080fd5b8063c34cccc414610c93578063c75bb4f414610cb3578063c85b7fed14610ce0578063d1c54eea14610d0057600080fd5b80638da5cb5b11610185578063b3b29afd11610154578063b3b29afd14610bf2578063b44a4e9314610c1f578063b72c0eea14610c32578063bfcc971614610c7357600080fd5b80638da5cb5b14610b44578063906f5f3414610b6257806392f859db14610b75578063aa11b68114610bc557600080fd5b806387766019116101c15780638776601914610aae57806387d6b9b214610adb57806389895f7714610b115780638b57997314610b3157600080fd5b80637ec5c75c14610a5b5780637fb2aa4d14610a6e5780638590926714610a9b57600080fd5b80633521c426116102cc5780635a4dd47d1161026a5780636f206fc1116102395780636f206fc1146109d9578063715018a614610a065780637713d52114610a1b5780637c62360f14610a4857600080fd5b80635a4dd47d1461092d5780635c426aff1461094d5780635dcc4cc6146109835780636b606d9b146109b957600080fd5b80634ced3056116102a65780634ced30561461084c5780634e31f9101461086c578063567754e4146108d7578063594193d7146108f757600080fd5b80633521c426146107b35780633dfd6f54146107e0578063449014901461081657600080fd5b806314ed04501161034457806324d822bf1161031357806324d822bf146106f1578063254dc065146107115780632cb03a3a1461074757806333ca504b1461077d57600080fd5b806314ed0450146105485780631c5dde0e146105685780631e85ab9b146105aa578063224370f0146105bd57600080fd5b8063081315ff11610380578063081315ff146104915780630a0176fc146104e75780630ce90ec2146105225780630e0f70491461053557600080fd5b806302b67745146103a757806303f2e05b146103fa5780630418394e1461040f575b600080fd5b3480156103b357600080fd5b506103dd6103c2366004614253565b6000908152600d60205260409020546001600160a01b031690565b6040516001600160a01b0390911681526020015b60405180910390f35b61040d610408366004614282565b610ea8565b005b34801561041b57600080fd5b5061046261042a366004614253565b602160205260009081526040902080546001820154600283015460038401546005850154600690950154939492939192909160ff1686565b6040805196875260208701959095529385019290925260608401526080830152151560a082015260c0016103f1565b34801561049d57600080fd5b506104b16104ac366004614253565b610fde565b604080519485526020808601949094528481019290925280516060850152918201516080840152015160a082015260c0016103f1565b3480156104f357600080fd5b50610514610502366004614253565b60156020526000908152604090205481565b6040519081526020016103f1565b61040d610530366004614253565b61103c565b61040d6105433660046142c5565b6111ac565b34801561055457600080fd5b5061040d610563366004614253565b611200565b34801561057457600080fd5b50610588610583366004614253565b611237565b6040805193845263ffffffff92831660208501529116908201526060016103f1565b61040d6105b83660046142c5565b611277565b3480156105c957600080fd5b5061040d600180546040805160a0810182528281526000805460ff600160a01b820481166020808601828152600160a81b90940483168688019081526060870192835263ffffffff421660808801908152898b018b559986529551600389027fb10e2d527612073b26eecdfd717e6a320cf44b4afac2b0732d9fcbe2b7fa0cf681019190915593517fb10e2d527612073b26eecdfd717e6a320cf44b4afac2b0732d9fcbe2b7fa0cf785018054975193518516620100000262ff0000199486166101000261ffff19909916929095169190911796909617919091169190911790935594517fb10e2d527612073b26eecdfd717e6a320cf44b4afac2b0732d9fcbe2b7fa0cf8909501949094559183526002909152902080546001600160a01b03191633179055565b3480156106fd57600080fd5b5061040d61070c366004614253565b6112de565b34801561071d57600080fd5b5061051461072c3660046142ef565b6001600160a01b031660009081526012602052604090205490565b34801561075357600080fd5b506105146107623660046142ef565b6001600160a01b031660009081526010602052604090205490565b34801561078957600080fd5b506103dd610798366004614253565b600d602052600090815260409020546001600160a01b031681565b3480156107bf57600080fd5b506107d36107ce366004614253565b611495565b6040516103f1919061430a565b3480156107ec57600080fd5b506103dd6107fb366004614253565b6000908152600e60205260409020546001600160a01b031690565b34801561082257600080fd5b506103dd610831366004614253565b600f602052600090815260409020546001600160a01b031681565b34801561085857600080fd5b5061040d610867366004614253565b611587565b34801561087857600080fd5b5061088c6108873660046142ef565b6115bf565b6040516103f19190600060a0820190508251825260ff602084015116602083015260ff604084015116604083015260ff60608401511660608301526080830151608083015292915050565b3480156108e357600080fd5b5061040d6108f2366004614253565b6116a6565b34801561090357600080fd5b506103dd610912366004614253565b6002602052600090815260409020546001600160a01b031681565b34801561093957600080fd5b50610514610948366004614253565b6116cb565b34801561095957600080fd5b506103dd610968366004614253565b6000908152600f60205260409020546001600160a01b031690565b34801561098f57600080fd5b506103dd61099e366004614253565b600e602052600090815260409020546001600160a01b031681565b3480156109c557600080fd5b5061040d6109d4366004614379565b611725565b3480156109e557600080fd5b506109f96109f43660046142ef565b611825565b6040516103f1919061439b565b348015610a1257600080fd5b5061040d611979565b348015610a2757600080fd5b50610a3b610a363660046142ef565b61198d565b6040516103f191906143f1565b61040d610a56366004614282565b611ad5565b61040d610a69366004614444565b611bf0565b348015610a7a57600080fd5b50610514610a893660046142ef565b60116020526000908152604090205481565b61040d610aa9366004614282565b611c3e565b348015610aba57600080fd5b50610514610ac93660046142ef565b60126020526000908152604090205481565b348015610ae757600080fd5b50610514610af63660046142ef565b6001600160a01b031660009081526011602052604090205490565b348015610b1d57600080fd5b5061040d610b2c366004614379565b611d32565b61040d610b3f366004614444565b611daa565b348015610b5057600080fd5b506000546001600160a01b03166103dd565b61040d610b70366004614282565b611dfc565b348015610b8157600080fd5b50610b95610b90366004614253565b611ee4565b6040805195865260ff9485166020870152928416928501929092529091166060830152608082015260a0016103f1565b348015610bd157600080fd5b50610514610be0366004614253565b60136020526000908152604090205481565b348015610bfe57600080fd5b50610514610c0d3660046142ef565b60106020526000908152604090205481565b61040d610c2d3660046142c5565b611f30565b348015610c3e57600080fd5b50610c52610c4d366004614253565b611f84565b6040805193845261ffff909216602084015260ff16908201526060016103f1565b348015610c7f57600080fd5b50610514610c8e366004614494565b611fc1565b348015610c9f57600080fd5b5061040d610cae366004614379565b612106565b348015610cbf57600080fd5b50610cd3610cce3660046142ef565b612256565b6040516103f1919061450c565b348015610cec57600080fd5b5061040d610cfb36600461461d565b612494565b348015610d0c57600080fd5b5061040d610d1b366004614379565b612691565b348015610d2c57600080fd5b50610514610d3b3660046146e1565b612777565b348015610d4c57600080fd5b5061040d610d5b366004614379565b6128d3565b348015610d6c57600080fd5b5061040d610d7b366004614379565b61292d565b348015610d8c57600080fd5b5061040d610d9b366004614379565b612952565b348015610dac57600080fd5b5061040d610dbb36600461477d565b612ab6565b348015610dcc57600080fd5b5061040d610ddb3660046142ef565b612c84565b61040d610dee366004614444565b612cfd565b348015610dff57600080fd5b50610e13610e0e366004614253565b612d4f565b6040516103f1999897969594939291906147b2565b348015610e3457600080fd5b50610514610e43366004614253565b60146020526000908152604090205481565b61040d610e63366004614282565b612e3c565b348015610e7457600080fd5b5061040d610e83366004614253565b612f4c565b348015610e9457600080fd5b5061040d610ea3366004614809565b61345a565b6000828152600f602052604090205482906001600160a01b03163314610ee95760405162461bcd60e51b8152600401610ee090614891565b60405180910390fd5b601a54600c8481548110610eff57610eff6148bf565b6000918252602090912060016002909202010154610f269063ffffffff1660ff85166148eb565b63ffffffff16610f369190614917565b3414610f4157600080fd5b600080546040516001600160a01b03909116913480156108fc02929091818181858888f19350505050158015610f7b573d6000803e3d6000fd5b508160ff16600c8481548110610f9357610f936148bf565b6000918252602082206001600290920201018054909190610fbb90849063ffffffff16614936565b92506101000a81548163ffffffff021916908363ffffffff160217905550505050565b60208181548110610fee57600080fd5b60009182526020918290206006909102018054600182015460028301546040805160608101825260038601548152600486015496810196909652600590940154938501939093529093509184565b6000600a808381548110611052576110526148bf565b6000918252602090912060046009909202010154611073919060ff16614974565b61107e906001614996565b60ff16601b5461108e9190614917565b90508034146110cc5760405162461bcd60e51b815260206004820152600a6024820152691ddc9bdb99c818dbdcdd60b21b6044820152606401610ee0565b600080546040516001600160a01b03909116913480156108fc02929091818181858888f19350505050158015611106573d6000803e3d6000fd5b50600a828154811061111a5761111a6148bf565b600091825260208220600460099092020101805460ff169161113b836149bb565b91906101000a81548160ff021916908360ff160217905550506000600a8381548110611169576111696148bf565b9060005260206000209060090201600601819055506000600a8381548110611193576111936148bf565b9060005260206000209060090201600701819055505050565b6000818152600e602052604090205481906001600160a01b031633146111d157600080fd5b50600090815260236020526040902080546001600160a01b0319166001600160a01b0392909216919091179055565b6000818152600e602052604090205481906001600160a01b0316331461122557600080fd5b50600090815260156020526040812055565b600c818154811061124757600080fd5b60009182526020909120600290910201805460019091015490915063ffffffff8082169164010000000090041683565b6000818152600f602052604090205481906001600160a01b031633146112af5760405162461bcd60e51b8152600401610ee090614891565b50600090815260246020526040902080546001600160a01b0319166001600160a01b0392909216919091179055565b6000818152600d602052604090205481906001600160a01b0316331461130357600080fd5b6000600a808481548110611319576113196148bf565b600091825260209091206004600990920201015461133a919060ff16614974565b61134590600a6149da565b6113509060026149fd565b905061135c8382613640565b80156113c357508060ff16600c600a858154811061137c5761137c6148bf565b9060005260206000209060090201600301548154811061139e5761139e6148bf565b6000918252602090912060029091020160010154640100000000900463ffffffff1610155b6113cc57600080fd5b8060ff16600c600a85815481106113e5576113e56148bf565b90600052602060002090600902016003015481548110611407576114076148bf565b906000526020600020906002020160010160048282829054906101000a900463ffffffff166114369190614a26565b92506101000a81548163ffffffff021916908363ffffffff1602179055508060ff16600a848154811061146b5761146b6148bf565b9060005260206000209060090201600501600082825461148b9190614a4b565b9091555050505050565b60008181526021602052604090206006015460609060ff166114eb5760405162461bcd60e51b815260206004820152600f60248201526e1c9bdbdb481b9bdd0818db1bdcd959608a1b6044820152606401610ee0565b600082815260216020908152604080832060040180548251818502810185019093528083529193909284015b8282101561157c576000848152602090819020604080516080810182526003860290920180546001600160a01b0381168452600160a01b900460ff16151583850152600180820154928401929092526002015460608301529083529092019101611517565b505050509050919050565b6000818152600f602052604090205481906001600160a01b031633146112255760405162461bcd60e51b8152600401610ee090614891565b6040805160a081018252600080825260208201819052918101829052606081018290526080810182905290805b600154811015611631576000818152600260205260409020546001600160a01b0380861691160361161f57809150611631565b8061162981614a63565b9150506115ec565b5060018181548110611645576116456148bf565b60009182526020918290206040805160a081018252600390930290910180548352600181015460ff80821695850195909552610100810485169284019290925262010000909104909216606082015260029091015460808201529392505050565b6000818152600d602052604090205481906001600160a01b0316331461122557600080fd5b600080600a8084815481106116e2576116e26148bf565b6000918252602090912060046009909202010154611703919060ff16614974565b61170e906001614996565b60ff16601b5461171e9190614917565b9392505050565b6000818152600f602052604090205481906001600160a01b0316331461175d5760405162461bcd60e51b8152600401610ee090614891565b6000838152600d602052604090205483906001600160a01b0316331461178257600080fd5b82600a8581548110611796576117966148bf565b906000526020600020906009020160030154146117f55760405162461bcd60e51b815260206004820152601860248201527f6368617373697320617265206e6f7420617474616368656400000000000000006044820152606401610ee0565b6000600a858154811061180a5761180a6148bf565b90600052602060002090600902016003018190555050505050565b6001600160a01b0381166000908152601160205260408120546060919067ffffffffffffffff81111561185a5761185a6145d6565b6040519080825280602002602001820160405280156118a557816020015b60408051606081018252600080825260208083018290529282015282526000199092019101816118785790505b5090506000805b600c54811015611970576000818152600f60205260409020546001600160a01b0380871691160361195e57600c81815481106118ea576118ea6148bf565b6000918252602091829020604080516060810182526002909302909101805483526001015463ffffffff808216948401949094526401000000009004909216918101919091528351849084908110611944576119446148bf565b6020026020010181905250818061195a90614a63565b9250505b8061196881614a63565b9150506118ac565b50909392505050565b6119816137e2565b61198b600061383c565b565b6001600160a01b0381166000908152601160205260408120546060919067ffffffffffffffff8111156119c2576119c26145d6565b604051908082528060200260200182016040528015611a0d57816020015b60408051606081018252600080825260208083018290529282015282526000199092019101816119e05790505b5090506000805b600b54811015611970576000818152600e60205260409020546001600160a01b03808716911603611ac357600b8181548110611a5257611a526148bf565b600091825260209182902060408051606081018252600293909302909101805483526001015461ffff8116938301939093526201000090920460ff16918101919091528351849084908110611aa957611aa96148bf565b60200260200101819052508180611abf90614a63565b9250505b80611acd81614a63565b915050611a14565b6000828152600e602052604090205482906001600160a01b03163314611afa57600080fd5b600b8381548110611b0d57611b0d6148bf565b6000918252602090912060029091020160010154611b359062010000900460ff16600a6149da565b611b40906002614b58565b601954611b4d9190614917565b3414611b5857600080fd5b600080546040516001600160a01b03909116913480156108fc02929091818181858888f19350505050158015611b92573d6000803e3d6000fd5b5081600b8481548110611ba757611ba76148bf565b906000526020600020906002020160010160028282829054906101000a900460ff16611bd391906149da565b92506101000a81548160ff021916908360ff160217905550505050565b6000818152600d60205260409020546001600160a01b0384811691161480611c25575060008181526013602052604090205415155b611c2e57600080fd5b611c3983838361388c565b505050565b60008281526002602052604090205482906001600160a01b03163314611c6357600080fd5b60175460018481548110611c7957611c796148bf565b6000918252602090912060039091020160010154611c9f90610100900460ff16846149fd565b60ff16611cac9190614917565b3414611cb757600080fd5b600080546040516001600160a01b03909116913480156108fc02929091818181858888f19350505050158015611cf1573d6000803e3d6000fd5b508160018481548110611d0657611d066148bf565b906000526020600020906003020160010160018282829054906101000a900460ff16611bd39190614996565b6000828152600e602052604090205482906001600160a01b03163314611d5757600080fd5b60008211611d975760405162461bcd60e51b815260206004820152600d60248201526c696e76616c696420707269636560981b6044820152606401610ee0565b5060009182526015602052604090912055565b6000818152600e60205260409020546001600160a01b0384811691161480611de857506000818152602360205260409020546001600160a01b031633145b611df157600080fd5b611c39838383613a16565b60008281526002602052604090205482906001600160a01b03163314611e2157600080fd5b60165460018481548110611e3757611e376148bf565b6000918252602090912060016003909202010154611e589060ff16846149fd565b60ff16611e659190614917565b3414611e7057600080fd5b600080546040516001600160a01b03909116913480156108fc02929091818181858888f19350505050158015611eaa573d6000803e3d6000fd5b508160018481548110611ebf57611ebf6148bf565b6000918252602082206001600390920201018054909190611bd390849060ff16614996565b60018181548110611ef457600080fd5b600091825260209091206003909102018054600182015460029092015490925060ff808316926101008104821692620100009091049091169085565b6000818152600d602052604090205481906001600160a01b03163314611f5557600080fd5b50600090815260226020526040902080546001600160a01b0319166001600160a01b0392909216919091179055565b600b8181548110611f9457600080fd5b60009182526020909120600290910201805460019091015490915061ffff81169062010000900460ff1683565b6000611fcb6137e2565b6009805460009182611fdc83614a63565b909155506040805160608101825282815263ffffffff8781166020808401828152848601928352600c80546001810182556000918252955160029096027fdf6966c971051c3d54ec59162606531493a51404a002842f56009d7e5cf4a8c781019690965590517fdf6966c971051c3d54ec59162606531493a51404a002842f56009d7e5cf4a8c89095018054935185166401000000000267ffffffffffffffff1990941695909416949094179190911790915581546001600160a01b03168252601290529081208054929350906120b283614a63565b909155505060008054828252600f602052604090912080546001600160a01b0319166001600160a01b0390921691909117905582156120fd5760008181526015602052604090208390555b90505b92915050565b6000818152600e602052604090205481906001600160a01b0316331461212b57600080fd5b6000838152600d602052604090205483906001600160a01b0316331461215057600080fd5b82600a8581548110612164576121646148bf565b906000526020600020906009020160020154036121b15760405162461bcd60e51b815260206004820152600b60248201526a73616d6520656e67696e6560a81b6044820152606401610ee0565b60006121bc33612256565b905060005b815181101561222557848282815181106121dd576121dd6148bf565b60200260200101516040015103612213576000828281518110612202576122026148bf565b602002602001015160400181815250505b8061221d81614a63565b9150506121c1565b5083600a868154811061223a5761223a6148bf565b9060005260206000209060090201600201819055505050505050565b6001600160a01b0381166000908152601060205260408120546060919067ffffffffffffffff81111561228b5761228b6145d6565b60405190808252806020026020018201604052801561230e57816020015b6122fb60405180610120016040528060608152602001600081526020016000815260200160008152602001600060ff168152602001600081526020016000815260200160008152602001600081525090565b8152602001906001900390816122a95790505b5090506000805b600a54811015611970576000818152600d60205260409020546001600160a01b0380871691160361248257600a8181548110612353576123536148bf565b90600052602060002090600902016040518061012001604052908160008201805461237d90614b67565b80601f01602080910402602001604051908101604052809291908181526020018280546123a990614b67565b80156123f65780601f106123cb576101008083540402835291602001916123f6565b820191906000526020600020905b8154815290600101906020018083116123d957829003601f168201915b5050509183525050600182015460208201526002820154604082015260038201546060820152600482015460ff166080820152600582015460a0820152600682015460c0820152600782015460e0820152600890910154610100909101528351849084908110612468576124686148bf565b6020026020010181905250818061247e90614a63565b9250505b8061248c81614a63565b915050612315565b336000908152601d602052604090205482146124e25760405162461bcd60e51b815260206004820152600d60248201526c6e6f7420796f757220726f6f6d60981b6044820152606401610ee0565b600082815260216020526040808220600201549051634e31f59760e11b815290919073__PDDLib________________________________90639c63eb2e906125309085908790600401614ba1565b602060405180830381865af415801561254d573d6000803e3d6000fd5b505050506040513d601f19601f820116820180604052508101906125719190614bef565b60408051608081018252338082528315156020808401918252428486019081526000938452601e825285842054606086019081528b855260218352958420600481018054600181810183558288529487208851600390920201805496511515600160a01b026001600160a81b03199097166001600160a01b03929092169190911795909517855591519284019290925594516002909201919091559088905280549254939450909290919003612689576040518681527f67acaceb58ff1ad2aa8b3069f69c4cd076824e06a09184b75fb197ead7040be79060200160405180910390a16000868152602160209081526040808320600601805460ff19166001179055338352601d8252808320839055601e9091528120555b505050505050565b6000818152600e602052604090205481906001600160a01b031633146126b657600080fd5b6000838152600d602052604090205483906001600160a01b031633146126db57600080fd5b82600a85815481106126ef576126ef6148bf565b906000526020600020906009020160020154146127475760405162461bcd60e51b8152602060048201526016602482015275195b99da5b99481a5cc81b9bdd08185d1d1858da195960521b6044820152606401610ee0565b6000600a858154811061275c5761275c6148bf565b90600052602060002090600902016002018190555050505050565b60006127816137e2565b600880546000918261279283614a63565b909155506040805160608101825282815261ffff8089166020830190815260ff808a16948401948552600b80546001810182556000918252945160029095027f0175b7a638427703f0dbe7bb9bbf987a2551717b34e79f33b5b1008d1fa01db981019590955591517f0175b7a638427703f0dbe7bb9bbf987a2551717b34e79f33b5b1008d1fa01dba90940180549551909116620100000262ffffff199095169390921692909217929092179091559091506011906128596000546001600160a01b031690565b6001600160a01b031681526020810191909152604001600090812080549161288083614a63565b909155505060008054828252600e602052604090912080546001600160a01b0319166001600160a01b0390921691909117905582156128cb5760008181526014602052604090208390555b949350505050565b6128db6137e2565b6000811161291b5760405162461bcd60e51b815260206004820152600d60248201526c696e76616c696420707269636560981b6044820152606401610ee0565b60009182526015602052604090912055565b6000828152600d602052604090205482906001600160a01b03163314611d5757600080fd5b6000818152600f602052604090205481906001600160a01b0316331461298a5760405162461bcd60e51b8152600401610ee090614891565b6000838152600d602052604090205483906001600160a01b031633146129af57600080fd5b82600a85815481106129c3576129c36148bf565b90600052602060002090600902016003015403612a115760405162461bcd60e51b815260206004820152600c60248201526b73616d65206368617373697360a01b6044820152606401610ee0565b6000612a1c33612256565b905060005b8151811015612a855784828281518110612a3d57612a3d6148bf565b60200260200101516060015103612a73576000828281518110612a6257612a626148bf565b602002602001015160600181815250505b80612a7d81614a63565b915050612a21565b5083600a8681548110612a9a57612a9a6148bf565b9060005260206000209060090201600301819055505050505050565b3360009081526010602052604090205415612ad057600080fd5b600081612adc42613b7b565b604051602001612aed929190614c11565b6040516020818303038152906040529050600081604051602001612b119190614c37565b6040516020818303038152906040528051906020012060001c90506000612b36613c0e565b90506000612b42613d42565b600a80546040805161012081018252898152602080820189905291810187905260608101859052600160808201819052600060a0830181905260c0830181905260e083018190526101008301859052908401855593909352825180519495509193600985027fc65a7bb8d6351c1cf70c95a316cc6a92839c986682d98bc35f958f4883f9d2a80192612bd89284929101906141ba565b506020828101516001830155604080840151600284015560608401516003840155608084015160048401805460ff191660ff90921691909117905560a0840151600584015560c0840151600684015560e08401516007840155610100909301516008909201919091556000838152600d82528281208054336001600160a01b0319909116811790915581526010909152908120805491612c7783614a63565b9190505550505050505050565b612c8c6137e2565b6001600160a01b038116612cf15760405162461bcd60e51b815260206004820152602660248201527f4f776e61626c653a206e6577206f776e657220697320746865207a65726f206160448201526564647265737360d01b6064820152608401610ee0565b612cfa8161383c565b50565b6000818152600f60205260409020546001600160a01b0384811691161480612d3b57506000818152602460205260409020546001600160a01b031633145b612d4457600080fd5b611c39838383613e76565b600a8181548110612d5f57600080fd5b9060005260206000209060090201600091509050806000018054612d8290614b67565b80601f0160208091040260200160405190810160405280929190818152602001828054612dae90614b67565b8015612dfb5780601f10612dd057610100808354040283529160200191612dfb565b820191906000526020600020905b815481529060010190602001808311612dde57829003601f168201915b50505060018401546002850154600386015460048701546005880154600689015460078a01546008909a01549899959894975092955060ff90911693909289565b6000828152600e602052604090205482906001600160a01b03163314612e6157600080fd5b601854600b8481548110612e7757612e776148bf565b6000918252602090912060016002909202010154612e9c9061ffff1660ff8516614c53565b61ffff16612eaa9190614917565b3414612eb557600080fd5b600080546040516001600160a01b03909116913480156108fc02929091818181858888f19350505050158015612eef573d6000803e3d6000fd5b508160ff16600b8481548110612f0757612f076148bf565b6000918252602082206001600290920201018054909190612f2d90849061ffff16614c74565b92506101000a81548161ffff021916908361ffff160217905550505050565b6000818152600d602052604090205481906001600160a01b03163314612f7157600080fd5b6000805b6020548110156132f75760208181548110612f9257612f926148bf565b906000526020600020906006020160020154600a808681548110612fb857612fb86148bf565b6000918252602090912060046009909202010154612fd9919060ff16614974565b612fe4906001614996565b60ff16036132e5576001915060208181548110613003576130036148bf565b60009182526020808320600690920290910154338352601d8252604080842091909155601e8252909120859055805482908110613042576130426148bf565b60009182526020822060016006909202010180549161306083614a63565b919050555060208181548110613078576130786148bf565b906000526020600020906006020160030160000154602082815481106130a0576130a06148bf565b906000526020600020906006020160010154036132e557600073__PDDLib________________________________63c037e545602084815481106130e6576130e66148bf565b9060005260206000209060060201600301600201546020858154811061310e5761310e6148bf565b9060005260206000209060060201600301600001546040518363ffffffff1660e01b8152600401613149929190918252602082015260400190565b602060405180830381865af4158015613166573d6000803e3d6000fd5b505050506040513d601f19601f8201168201806040525081019061318a9190614c91565b9050600060216000602085815481106131a5576131a56148bf565b90600052602060002090600602016000015481526020019081526020016000209050602083815481106131da576131da6148bf565b6000918252602091829020600360069092020101548255805484908110613203576132036148bf565b600091825260208083206006928302016002908101546001860155840185905542600385015560058401929092558201805460ff1916905580547f2838ebeee7dc83fac85a3d6dbca0c0b6771591ada8b00f97371aa6611e631f9c919085908110613270576132706148bf565b600091825260209182902060069091020154604080519182529181018590520160405180910390a1602083815481106132ab576132ab6148bf565b6000918252602082206006909102018181556001810182905560028101829055600381018290556004810182905560050155506132f79050565b806132ef81614a63565b915050612f75565b50801561330357505050565b601f80546000918261331483614a63565b90915550601c5490915060009061332b9042614caa565b905081601d6000336001600160a01b03166001600160a01b03168152602001908152602001600020819055506020604051806080016040528084815260200160018152602001600a808981548110613385576133856148bf565b60009182526020909120600460099092020101546133a6919060ff16614974565b6133b1906001614996565b60ff168152602001601c84815481106133cc576133cc6148bf565b60009182526020808320604080516060808201835260039586029093018054825260018082015483870152600291820154838501529190975288548082018a5598865294839020875160069099020197885586830151948801949094558584015194870194909455939092015180519285019290925591810151600484015501516005909101555050505050565b6134626137e2565b60008661346e42613b7b565b60405160200161347f929190614c11565b60405160208183030381529060405290506000816040516020016134a39190614c37565b6040516020818303038152906040528051906020012060001c905060006134cc88886000612777565b905060006134db876000611fc1565b600a805460408051610120810182528e815260208082018990529181018790526060810185905260ff8b166080820152600060a0820181905260c0820181905260e08201819052610100820184905260018401855593909352825180519495509193600985027fc65a7bb8d6351c1cf70c95a316cc6a92839c986682d98bc35f958f4883f9d2a801926135729284929101906141ba565b506020828101516001830155604080840151600284015560608401516003840155608084015160048401805460ff90921660ff1990921691909117905560a0840151600584015560c0840151600684015560e084015160078401556101009093015160089092019190915560008054848252600d835283822080546001600160a01b0319166001600160a01b039283161790558154168152601090915290812080549161361e83614a63565b9091555050600090815260136020526040902094909455505050505050505050565b6000828152600d60205260408120548190613663906001600160a01b03166115bf565b90506136728160000151613f6d565b6000600a8581548110613687576136876148bf565b9060005260206000209060090201600201549050600060019050600a85600b84815481106136b7576136b76148bf565b906000526020600020906002020160010160029054906101000a900460ff166136e091906149fd565b60ff161061373157600a600b83815481106136fd576136fd6148bf565b60009182526020909120600290910201600101546137249062010000900460ff16876149fd565b61372e9190614974565b90505b8060ff16600184600001518154811061374c5761374c6148bf565b600091825260209091206003909102016001015462010000900460ff16106137d657806001846000015181548110613786576137866148bf565b906000526020600020906003020160010160028282829054906101000a900460ff166137b291906149da565b92506101000a81548160ff021916908360ff16021790555060019350505050612100565b60009350505050612100565b6000546001600160a01b0316331461198b5760405162461bcd60e51b815260206004820181905260248201527f4f776e61626c653a2063616c6c6572206973206e6f7420746865206f776e65726044820152606401610ee0565b600080546001600160a01b038381166001600160a01b0319831681178455604051919092169283917f8be0079c531659141344cd1fd0a4f28419497f9722a3daafe3b4186f6b6457e09190a35050565b6001600160a01b0383166000908152601060205260409020546138e75760405162461bcd60e51b815260206004820152601360248201527234ba1034b9903cb7bab9103630b9ba1031b0b960691b6044820152606401610ee0565b600a81815481106138fa576138fa6148bf565b90600052602060002090600902016003015460001461393e576000600a8281548110613928576139286148bf565b9060005260206000209060090201600301819055505b600a8181548110613951576139516148bf565b906000526020600020906009020160020154600014613995576000600a828154811061397f5761397f6148bf565b9060005260206000209060090201600201819055505b6001600160a01b03821660009081526010602052604081208054916139b983614a63565b90915550506001600160a01b03831660009081526010602052604081208054916139e283614cbe565b90915550506000908152600d6020526040902080546001600160a01b0319166001600160a01b039290921691909117905550565b6000613a2184612256565b905060008082511115613af85760005b8251811015613ab55783838281518110613a4d57613a4d6148bf565b60200260200101516040015103613aa357613aa3838281518110613a7357613a736148bf565b60200260200101516101000151848381518110613a9257613a926148bf565b602002602001015160400151612691565b80613aad81614a63565b915050613a31565b508015613af85760405162461bcd60e51b8152602060048201526011602482015270195b99da5b99481b9bdd08195c985cd959607a1b6044820152606401610ee0565b6001600160a01b0384166000908152601160205260408120805491613b1c83614a63565b90915550506001600160a01b0385166000908152601160205260408120805491613b4583614cbe565b909155505050600091825250600e6020526040902080546001600160a01b0319166001600160a01b039290921691909117905550565b60606000613b88836140cc565b600101905060008167ffffffffffffffff811115613ba857613ba86145d6565b6040519080825280601f01601f191660200182016040528015613bd2576020820181803683370190505b5090508181016020015b600019016f181899199a1a9b1b9c1cb0b131b232b360811b600a86061a8153600a8504945084613bdc57509392505050565b600080600354600454613c219190614cd5565b613c2b9042614caa565b600354613c389190614a4b565b600880549192506000919082613c4d83614a63565b909155506040805160608101825282815261ffff808616602080840191825260055460ff908116858701908152600b80546001810182556000918252965160029097027f0175b7a638427703f0dbe7bb9bbf987a2551717b34e79f33b5b1008d1fa01db981019790975593517f0175b7a638427703f0dbe7bb9bbf987a2551717b34e79f33b5b1008d1fa01dba90960180549151909216620100000262ffffff1990911695909416949094179290921790925533825260119052908120805492935090613d1983614a63565b90915550506000818152600e6020526040902080546001600160a01b0319163317905592915050565b600080600654600754613d559190614cd5565b613d5f9042614caa565b600654613d6c9190614a4b565b600980549192506000919082613d8183614a63565b909155506040805160608101825282815263ffffffff8086166020808401828152848601928352600c80546001810182556000918252955160029096027fdf6966c971051c3d54ec59162606531493a51404a002842f56009d7e5cf4a8c781019690965590517fdf6966c971051c3d54ec59162606531493a51404a002842f56009d7e5cf4a8c89095018054935185166401000000000267ffffffffffffffff1990941695909416949094179190911790915533825260129052908120805492935090613e4d83614a63565b90915550506000818152600f6020526040902080546001600160a01b0319163317905592915050565b6001600160a01b0382166000908152601260205260408120805491613e9a83614a63565b90915550506001600160a01b0383166000908152601260205260408120805491613ec383614cbe565b91905055506000613ed384612256565b905060005b8151811015613f3c5782828281518110613ef457613ef46148bf565b60200260200101516060015103613f2a576000828281518110613f1957613f196148bf565b602002602001015160600181815250505b80613f3481614a63565b915050613ed8565b50506000908152600f6020526040902080546001600160a01b0319166001600160a01b039290921691909117905550565b60004290506000610e1060018481548110613f8a57613f8a6148bf565b90600052602060002090600302016002015483613fa79190614cd5565b613fb19190614cec565b9050600060018481548110613fc857613fc86148bf565b6000918252602090912060039091020160010154613fee90610100900460ff1683614917565b60018581548110614001576140016148bf565b6000918252602090912060039091020160010154614028919062010000900460ff16614a4b565b905061406160018581548110614040576140406148bf565b600091825260209091206001600390920201015460ff9081169083166141a4565b60018581548110614074576140746148bf565b906000526020600020906003020160010160026101000a81548160ff021916908360ff16021790555082600185815481106140b1576140b16148bf565b90600052602060002090600302016002018190555050505050565b60008072184f03e93ff9f4daa797ed6e38ed64bf6a1f0160401b831061410b5772184f03e93ff9f4daa797ed6e38ed64bf6a1f0160401b830492506040015b6d04ee2d6d415b85acef81000000008310614137576d04ee2d6d415b85acef8100000000830492506020015b662386f26fc10000831061415557662386f26fc10000830492506010015b6305f5e100831061416d576305f5e100830492506008015b612710831061418157612710830492506004015b60648310614193576064830492506002015b600a83106121005760010192915050565b60008183106141b357816120fd565b5090919050565b8280546141c690614b67565b90600052602060002090601f0160209004810192826141e8576000855561422e565b82601f1061420157805160ff191683800117855561422e565b8280016001018555821561422e579182015b8281111561422e578251825591602001919060010190614213565b5061423a92915061423e565b5090565b5b8082111561423a576000815560010161423f565b60006020828403121561426557600080fd5b5035919050565b803560ff8116811461427d57600080fd5b919050565b6000806040838503121561429557600080fd5b823591506142a56020840161426c565b90509250929050565b80356001600160a01b038116811461427d57600080fd5b600080604083850312156142d857600080fd5b6142e1836142ae565b946020939093013593505050565b60006020828403121561430157600080fd5b6120fd826142ae565b602080825282518282018190526000919060409081850190868401855b8281101561436c57815180516001600160a01b031685528681015115158786015285810151868601526060908101519085015260809093019290850190600101614327565b5091979650505050505050565b6000806040838503121561438c57600080fd5b50508035926020909101359150565b602080825282518282018190526000919060409081850190868401855b8281101561436c578151805185528681015163ffffffff90811688870152908601511685850152606090930192908501906001016143b8565b602080825282518282018190526000919060409081850190868401855b8281101561436c578151805185528681015161ffff168786015285015160ff16858501526060909301929085019060010161440e565b60008060006060848603121561445957600080fd5b614462846142ae565b9250614470602085016142ae565b9150604084013590509250925092565b803563ffffffff8116811461427d57600080fd5b600080604083850312156144a757600080fd5b6142e183614480565b60005b838110156144cb5781810151838201526020016144b3565b838111156144da576000848401525b50505050565b600081518084526144f88160208601602086016144b0565b601f01601f19169290920160200192915050565b60006020808301818452808551808352604092508286019150828160051b87010184880160005b838110156145c857603f198984030185528151610120815181865261455a828701826144e0565b91505088820151898601528782015188860152606080830151818701525060808083015161458c8288018260ff169052565b505060a0828101519086015260c0808301519086015260e080830151908601526101009182015191909401529386019390860190600101614533565b509098975050505050505050565b634e487b7160e01b600052604160045260246000fd5b604051601f8201601f1916810167ffffffffffffffff81118282101715614615576146156145d6565b604052919050565b6000806040838503121561463057600080fd5b8235915060208084013567ffffffffffffffff8082111561465057600080fd5b818601915086601f83011261466457600080fd5b813581811115614676576146766145d6565b8060051b91506146878483016145ec565b81815291830184019184810190898411156146a157600080fd5b938501935b838510156146bf578435825293850193908501906146a6565b8096505050505050509250929050565b803561ffff8116811461427d57600080fd5b6000806000606084860312156146f657600080fd5b6146ff846146cf565b92506144706020850161426c565b600082601f83011261471e57600080fd5b813567ffffffffffffffff811115614738576147386145d6565b61474b601f8201601f19166020016145ec565b81815284602083860101111561476057600080fd5b816020850160208301376000918101602001919091529392505050565b60006020828403121561478f57600080fd5b813567ffffffffffffffff8111156147a657600080fd5b6128cb8482850161470d565b60006101208083526147c68184018d6144e0565b602084019b909b5250506040810197909752606087019590955260ff93909316608086015260a085019190915260c084015260e083015261010090910152919050565b60008060008060008060c0878903121561482257600080fd5b863567ffffffffffffffff81111561483957600080fd5b61484589828a0161470d565b965050614854602088016146cf565b94506148626040880161426c565b935061487060608801614480565b925061487e6080880161426c565b915060a087013590509295509295509295565b6020808252601490820152730c6d0c2e6e6d2e640dcdee840f2deeae4407c74560631b604082015260600190565b634e487b7160e01b600052603260045260246000fd5b634e487b7160e01b600052601160045260246000fd5b600063ffffffff8083168185168183048111821515161561490e5761490e6148d5565b02949350505050565b6000816000190483118215151615614931576149316148d5565b500290565b600063ffffffff808316818516808303821115614955576149556148d5565b01949350505050565b634e487b7160e01b600052601260045260246000fd5b600060ff8316806149875761498761495e565b8060ff84160491505092915050565b600060ff821660ff84168060ff038211156149b3576149b36148d5565b019392505050565b600060ff821660ff81036149d1576149d16148d5565b60010192915050565b600060ff821660ff8416808210156149f4576149f46148d5565b90039392505050565b600060ff821660ff84168160ff0481118215151615614a1e57614a1e6148d5565b029392505050565b600063ffffffff83811690831681811015614a4357614a436148d5565b039392505050565b60008219821115614a5e57614a5e6148d5565b500190565b600060018201614a7557614a756148d5565b5060010190565b600181815b80851115614ab7578160001904821115614a9d57614a9d6148d5565b80851615614aaa57918102915b93841c9390800290614a81565b509250929050565b600082614ace57506001612100565b81614adb57506000612100565b8160018114614af15760028114614afb57614b17565b6001915050612100565b60ff841115614b0c57614b0c6148d5565b50506001821b612100565b5060208310610133831016604e8410600b8410161715614b3a575081810a612100565b614b448383614a7c565b8060001904821115614a1e57614a1e6148d5565b60006120fd60ff841683614abf565b600181811c90821680614b7b57607f821691505b602082108103614b9b57634e487b7160e01b600052602260045260246000fd5b50919050565b6000604082018483526020604081850152818551808452606086019150828701935060005b81811015614be257845183529383019391830191600101614bc6565b5090979650505050505050565b600060208284031215614c0157600080fd5b815180151581146120fd57600080fd5b60008351614c238184602088016144b0565b8351908301906149558183602088016144b0565b60008251614c498184602087016144b0565b9190910192915050565b600061ffff8083168185168183048111821515161561490e5761490e6148d5565b600061ffff808316818516808303821115614955576149556148d5565b600060208284031215614ca357600080fd5b5051919050565b600082614cb957614cb961495e565b500690565b600081614ccd57614ccd6148d5565b506000190190565b600082821015614ce757614ce76148d5565b500390565b600082614cfb57614cfb61495e565b50049056fea2646970667358221220ebec94651e77c4cd8477e2595249e77cd4f62068c168d95251f7d3239077544964736f6c634300080d0033",
  "immutableReferences": {},
  "source": "// SPDX-License-Identifier: MIT\npragma solidity ^0.8.13;\n\nimport \"./CarRacing.sol\";\n\ncontract TokenOwnership is CarRacing{\n\n    mapping (uint => address) carApprovals;\n    mapping (uint => address) engineApprovals;\n    mapping (uint => address) chassisApprovals;\n\n\n    function balanceOfCars(address _owner) external view returns (uint256) {\n        return ownerCarCount[_owner];\n    }\n    function ownerOfCar(uint256 _tokenId) external view returns(address) {\n        return carToOwner[_tokenId];\n    }\n    function _transferCar(address _from, address _to, uint256 _tokenId) private {\n        require(ownerCarCount[_from]>0, \"it is your last car\");\n        if(cars[_tokenId].chassisId != 0){\n            cars[_tokenId].chassisId = 0;\n        }\n        if(cars[_tokenId].engineId != 0){\n            cars[_tokenId].engineId = 0;\n        }\n        ownerCarCount[_to]++;// = ownerCarCount[_to].add(1);\n        ownerCarCount[_from]--;// = ownerCarCount[_from].sub(1);\n        carToOwner[_tokenId] = _to;\n    }\n    function transferCarFrom(address _from, address _to, uint256 _tokenId) external payable {\n        require (carToOwner[_tokenId] == _from || carToPrice[_tokenId] != 0);\n        _transferCar(_from, _to, _tokenId);\n    }\n    function approveCar(address _approved, uint256 _tokenId) external payable onlyOwnerOfCar(_tokenId) {\n        carApprovals[_tokenId] = _approved;\n    }\n\n\n    function balanceOfEngines(address _owner) external view returns (uint256) {\n        return ownerEngineCount[_owner];\n    }\n    function ownerOfEngine(uint256 _tokenId) external view returns(address) {\n        return engineToOwner[_tokenId];\n    }\n    function _transferEngine(address _from, address _to, uint256 _tokenId) private {\n        Car[] memory carr = getCarsByOwner(_from);\n        bool flag = false;\n        if(carr.length>0){\n            for(uint i = 0; i<carr.length; i++){\n                if(carr[i].engineId == _tokenId){\n                    detachEngine(carr[i].id, carr[i].engineId);\n                }\n            }\n            require(!flag, \"engine not erased\");\n        }\n\n        ownerEngineCount[_to]++;// = ownerEngineCount[_to].add(1);\n        ownerEngineCount[_from]--;// = ownerEngineCount[_from].sub(1);\n        engineToOwner[_tokenId] = _to;\n    }\n    function transferEngineFrom(address _from, address _to, uint256 _tokenId) external payable {\n        require (engineToOwner[_tokenId] == _from || engineApprovals[_tokenId] == msg.sender);\n        _transferEngine(_from, _to, _tokenId);\n    }\n    function approveEngine(address _approved, uint256 _tokenId) external payable onlyOwnerOfEngine(_tokenId) {\n        engineApprovals[_tokenId] = _approved;\n    }\n\n    \n    function balanceOfChassis(address _owner) external view returns (uint256) {\n        return ownerChassisCount[_owner];\n    }\n    function ownerOfChassis(uint256 _tokenId) external view returns(address) {\n        return chassisToOwner[_tokenId];\n    }\n    function _transferChassis(address _from, address _to, uint256 _tokenId) private {\n        ownerChassisCount[_to]++;// = ownerChassisCount[_to].add(1);\n        ownerChassisCount[_from]--;// = ownerChassisCount[_from].sub(1);\n        Car[] memory cars = getCarsByOwner(_from);\n        for(uint i = 0; i<cars.length; i++){\n            if(cars[i].chassisId == _tokenId){\n                cars[i].chassisId = 0;\n            }\n        }\n        chassisToOwner[_tokenId] = _to;\n    }\n    function transferChassisFrom(address _from, address _to, uint256 _tokenId) external payable {\n        require (chassisToOwner[_tokenId] == _from || chassisApprovals[_tokenId] == msg.sender);\n        _transferChassis(_from, _to, _tokenId);\n    }\n    function approveChassis(address _approved, uint256 _tokenId) external payable onlyOwnerOfChassis(_tokenId) {\n        chassisApprovals[_tokenId] = _approved;\n    }\n\n\n    function putChassisOnMarketplace(uint chassisId, uint price) public onlyOwner{// onlyOwnerOfChassis(chassisId){\n\n        require(price>0, \"invalid price\");\n        chassisToPrice[chassisId] = price;\n    }\n    function removeChassisFromMarketplace(uint chassisId) public onlyOwnerOfChassis(chassisId){\n        chassisToPrice[chassisId] = 0;\n    }\n\n    function putEngineOnMarketplace(uint engineId, uint price) public onlyOwnerOfEngine(engineId){\n        require(price>0, \"invalid price\");\n        chassisToPrice[engineId] = price;\n    }\n    function removeEngineFromMarketplace(uint engineId) public onlyOwnerOfEngine(engineId){\n        chassisToPrice[engineId] = 0;\n    }\n\n    function putCarOnMarketplace(uint carId, uint price) public onlyOwnerOfCar(carId){\n        require(price>0, \"invalid price\");\n        chassisToPrice[carId] = price;\n    }\n    function removeCarFromMarketplace(uint carId) public onlyOwnerOfCar(carId){\n        chassisToPrice[carId] = 0;\n    }\n\n    // function putOnMarketPlace(uint _carId) public onlyOwnerOfCar(_carId) {\n\n    // }\n}",
  "sourcePath": "/Users/vvan/Programming/JavaScript/DriveSafely/contract/contracts/TokenOwnership.sol",
  "compiler": {
    "name": "solc",
    "version": "0.8.13+commit.abaa5c0e.Emscripten.clang"
  },
  "schemaVersion": "3.4.11",
  "updatedAt": "2023-01-10T16:55:08.801Z",
  "networkType": "ethereum",
  "devdoc": {
    "kind": "dev",
    "methods": {
      "owner()": {
        "details": "Returns the address of the current owner."
      },
      "renounceOwnership()": {
        "details": "Leaves the contract without owner. It will not be possible to call `onlyOwner` functions anymore. Can only be called by the current owner. NOTE: Renouncing ownership will leave the contract without an owner, thereby removing any functionality that is only available to the owner."
      },
      "transferOwnership(address)": {
        "details": "Transfers ownership of the contract to a new account (`newOwner`). Can only be called by the current owner."
      }
    },
    "version": 1
  },
  "userdoc": {
    "kind": "user",
    "methods": {},
    "version": 1
  }
}