{
  "contractName": "TokenOwnership",
  "abi": [
    {
      "anonymous": false,
      "inputs": [
        {
          "indexed": true,
          "internalType": "address",
          "name": "previousOwner",
          "type": "address"
        },
        {
          "indexed": true,
          "internalType": "address",
          "name": "newOwner",
          "type": "address"
        }
      ],
      "name": "OwnershipTransferred",
      "type": "event"
    },
    {
      "anonymous": false,
      "inputs": [
        {
          "indexed": false,
          "internalType": "uint256",
          "name": "roomId",
          "type": "uint256"
        }
      ],
      "name": "RoomClosed",
      "type": "event"
    },
    {
      "anonymous": false,
      "inputs": [
        {
          "indexed": false,
          "internalType": "uint256",
          "name": "roomId",
          "type": "uint256"
        },
        {
          "indexed": false,
          "internalType": "uint256",
          "name": "roomDNA",
          "type": "uint256"
        }
      ],
      "name": "RoomFull",
      "type": "event"
    },
    {
      "inputs": [
        {
          "internalType": "uint256",
          "name": "",
          "type": "uint256"
        }
      ],
      "name": "carToOwner",
      "outputs": [
        {
          "internalType": "address",
          "name": "",
          "type": "address"
        }
      ],
      "stateMutability": "view",
      "type": "function",
      "constant": true
    },
    {
      "inputs": [
        {
          "internalType": "uint256",
          "name": "",
          "type": "uint256"
        }
      ],
      "name": "carToPrice",
      "outputs": [
        {
          "internalType": "uint256",
          "name": "",
          "type": "uint256"
        }
      ],
      "stateMutability": "view",
      "type": "function",
      "constant": true
    },
    {
      "inputs": [
        {
          "internalType": "uint256",
          "name": "",
          "type": "uint256"
        }
      ],
      "name": "cars",
      "outputs": [
        {
          "internalType": "string",
          "name": "model",
          "type": "string"
        },
        {
          "internalType": "uint256",
          "name": "vin",
          "type": "uint256"
        },
        {
          "internalType": "uint256",
          "name": "engineId",
          "type": "uint256"
        },
        {
          "internalType": "uint256",
          "name": "chassisId",
          "type": "uint256"
        },
        {
          "internalType": "uint8",
          "name": "carLevel",
          "type": "uint8"
        },
        {
          "internalType": "uint256",
          "name": "mileage",
          "type": "uint256"
        },
        {
          "internalType": "uint256",
          "name": "winCountOnCurrentLevel",
          "type": "uint256"
        },
        {
          "internalType": "uint256",
          "name": "lossCountOnCurrentLevel",
          "type": "uint256"
        },
        {
          "internalType": "uint256",
          "name": "id",
          "type": "uint256"
        }
      ],
      "stateMutability": "view",
      "type": "function",
      "constant": true
    },
    {
      "inputs": [],
      "name": "carsForSaleCount",
      "outputs": [
        {
          "internalType": "uint256",
          "name": "",
          "type": "uint256"
        }
      ],
      "stateMutability": "view",
      "type": "function",
      "constant": true
    },
    {
      "inputs": [
        {
          "internalType": "uint256",
          "name": "",
          "type": "uint256"
        }
      ],
      "name": "chassis",
      "outputs": [
        {
          "internalType": "uint256",
          "name": "id",
          "type": "uint256"
        },
        {
          "internalType": "uint32",
          "name": "durability",
          "type": "uint32"
        },
        {
          "internalType": "uint32",
          "name": "resource",
          "type": "uint32"
        }
      ],
      "stateMutability": "view",
      "type": "function",
      "constant": true
    },
    {
      "inputs": [],
      "name": "chassisForSaleCount",
      "outputs": [
        {
          "internalType": "uint256",
          "name": "",
          "type": "uint256"
        }
      ],
      "stateMutability": "view",
      "type": "function",
      "constant": true
    },
    {
      "inputs": [
        {
          "internalType": "uint256",
          "name": "",
          "type": "uint256"
        }
      ],
      "name": "chassisToOwner",
      "outputs": [
        {
          "internalType": "address",
          "name": "",
          "type": "address"
        }
      ],
      "stateMutability": "view",
      "type": "function",
      "constant": true
    },
    {
      "inputs": [
        {
          "internalType": "uint256",
          "name": "",
          "type": "uint256"
        }
      ],
      "name": "chassisToPrice",
      "outputs": [
        {
          "internalType": "uint256",
          "name": "",
          "type": "uint256"
        }
      ],
      "stateMutability": "view",
      "type": "function",
      "constant": true
    },
    {
      "inputs": [
        {
          "internalType": "uint256",
          "name": "roomId",
          "type": "uint256"
        },
        {
          "internalType": "uint256[]",
          "name": "answer",
          "type": "uint256[]"
        }
      ],
      "name": "commitAnswer",
      "outputs": [],
      "stateMutability": "nonpayable",
      "type": "function"
    },
    {
      "inputs": [
        {
          "internalType": "string",
          "name": "model",
          "type": "string"
        }
      ],
      "name": "createCar",
      "outputs": [],
      "stateMutability": "nonpayable",
      "type": "function"
    },
    {
      "inputs": [
        {
          "internalType": "string",
          "name": "_model",
          "type": "string"
        },
        {
          "internalType": "uint16",
          "name": "_horsePowers",
          "type": "uint16"
        },
        {
          "internalType": "uint8",
          "name": "_consumtion",
          "type": "uint8"
        },
        {
          "internalType": "uint32",
          "name": "_durability",
          "type": "uint32"
        },
        {
          "internalType": "uint8",
          "name": "_carLevel",
          "type": "uint8"
        },
        {
          "internalType": "uint256",
          "name": "_carPrice",
          "type": "uint256"
        }
      ],
      "name": "createCustomCar",
      "outputs": [],
      "stateMutability": "nonpayable",
      "type": "function"
    },
    {
      "inputs": [
        {
          "internalType": "uint32",
          "name": "_durability",
          "type": "uint32"
        },
        {
          "internalType": "uint256",
          "name": "_chassisPrice",
          "type": "uint256"
        }
      ],
      "name": "createCustomChassis",
      "outputs": [
        {
          "internalType": "uint256",
          "name": "",
          "type": "uint256"
        }
      ],
      "stateMutability": "nonpayable",
      "type": "function"
    },
    {
      "inputs": [
        {
          "internalType": "uint16",
          "name": "_horsePowers",
          "type": "uint16"
        },
        {
          "internalType": "uint8",
          "name": "_consumtion",
          "type": "uint8"
        },
        {
          "internalType": "uint256",
          "name": "_enginePrice",
          "type": "uint256"
        }
      ],
      "name": "createCustomEngine",
      "outputs": [
        {
          "internalType": "uint256",
          "name": "",
          "type": "uint256"
        }
      ],
      "stateMutability": "nonpayable",
      "type": "function"
    },
    {
      "inputs": [],
      "name": "createFuelStation",
      "outputs": [],
      "stateMutability": "nonpayable",
      "type": "function"
    },
    {
      "inputs": [
        {
          "internalType": "uint256",
          "name": "carId",
          "type": "uint256"
        },
        {
          "internalType": "uint256",
          "name": "chassisId",
          "type": "uint256"
        }
      ],
      "name": "detachChassis",
      "outputs": [],
      "stateMutability": "nonpayable",
      "type": "function"
    },
    {
      "inputs": [
        {
          "internalType": "uint256",
          "name": "carId",
          "type": "uint256"
        },
        {
          "internalType": "uint256",
          "name": "engineId",
          "type": "uint256"
        }
      ],
      "name": "detachEngine",
      "outputs": [],
      "stateMutability": "nonpayable",
      "type": "function"
    },
    {
      "inputs": [
        {
          "internalType": "uint256",
          "name": "",
          "type": "uint256"
        }
      ],
      "name": "engineToOwner",
      "outputs": [
        {
          "internalType": "address",
          "name": "",
          "type": "address"
        }
      ],
      "stateMutability": "view",
      "type": "function",
      "constant": true
    },
    {
      "inputs": [
        {
          "internalType": "uint256",
          "name": "",
          "type": "uint256"
        }
      ],
      "name": "engineToPrice",
      "outputs": [
        {
          "internalType": "uint256",
          "name": "",
          "type": "uint256"
        }
      ],
      "stateMutability": "view",
      "type": "function",
      "constant": true
    },
    {
      "inputs": [
        {
          "internalType": "uint256",
          "name": "",
          "type": "uint256"
        }
      ],
      "name": "engines",
      "outputs": [
        {
          "internalType": "uint256",
          "name": "id",
          "type": "uint256"
        },
        {
          "internalType": "uint16",
          "name": "horsePowers",
          "type": "uint16"
        },
        {
          "internalType": "uint8",
          "name": "consumtion",
          "type": "uint8"
        }
      ],
      "stateMutability": "view",
      "type": "function",
      "constant": true
    },
    {
      "inputs": [],
      "name": "enginesForSaleCount",
      "outputs": [
        {
          "internalType": "uint256",
          "name": "",
          "type": "uint256"
        }
      ],
      "stateMutability": "view",
      "type": "function",
      "constant": true
    },
    {
      "inputs": [
        {
          "internalType": "uint256",
          "name": "carId",
          "type": "uint256"
        }
      ],
      "name": "findRoom",
      "outputs": [],
      "stateMutability": "nonpayable",
      "type": "function"
    },
    {
      "inputs": [
        {
          "internalType": "uint256",
          "name": "",
          "type": "uint256"
        }
      ],
      "name": "fuelStationToOwner",
      "outputs": [
        {
          "internalType": "address",
          "name": "",
          "type": "address"
        }
      ],
      "stateMutability": "view",
      "type": "function",
      "constant": true
    },
    {
      "inputs": [
        {
          "internalType": "address",
          "name": "_owner",
          "type": "address"
        }
      ],
      "name": "getCarsByOwner",
      "outputs": [
        {
          "components": [
            {
              "internalType": "string",
              "name": "model",
              "type": "string"
            },
            {
              "internalType": "uint256",
              "name": "vin",
              "type": "uint256"
            },
            {
              "internalType": "uint256",
              "name": "engineId",
              "type": "uint256"
            },
            {
              "internalType": "uint256",
              "name": "chassisId",
              "type": "uint256"
            },
            {
              "internalType": "uint8",
              "name": "carLevel",
              "type": "uint8"
            },
            {
              "internalType": "uint256",
              "name": "mileage",
              "type": "uint256"
            },
            {
              "internalType": "uint256",
              "name": "winCountOnCurrentLevel",
              "type": "uint256"
            },
            {
              "internalType": "uint256",
              "name": "lossCountOnCurrentLevel",
              "type": "uint256"
            },
            {
              "internalType": "uint256",
              "name": "id",
              "type": "uint256"
            }
          ],
          "internalType": "struct CarFactory.Car[]",
          "name": "",
          "type": "tuple[]"
        }
      ],
      "stateMutability": "view",
      "type": "function",
      "constant": true
    },
    {
      "inputs": [
        {
          "internalType": "address",
          "name": "_owner",
          "type": "address"
        }
      ],
      "name": "getChassisByOwner",
      "outputs": [
        {
          "components": [
            {
              "internalType": "uint256",
              "name": "id",
              "type": "uint256"
            },
            {
              "internalType": "uint32",
              "name": "durability",
              "type": "uint32"
            },
            {
              "internalType": "uint32",
              "name": "resource",
              "type": "uint32"
            }
          ],
          "internalType": "struct CarFactory.Chassis[]",
          "name": "",
          "type": "tuple[]"
        }
      ],
      "stateMutability": "view",
      "type": "function",
      "constant": true
    },
    {
      "inputs": [
        {
          "internalType": "uint256",
          "name": "roomId",
          "type": "uint256"
        }
      ],
      "name": "getClosedRoom",
      "outputs": [
        {
          "components": [
            {
              "internalType": "address",
              "name": "player",
              "type": "address"
            },
            {
              "internalType": "bool",
              "name": "correct",
              "type": "bool"
            },
            {
              "internalType": "uint256",
              "name": "time",
              "type": "uint256"
            },
            {
              "internalType": "uint256",
              "name": "carId",
              "type": "uint256"
            }
          ],
          "internalType": "struct RaceHandler.Answer[]",
          "name": "",
          "type": "tuple[]"
        }
      ],
      "stateMutability": "view",
      "type": "function",
      "constant": true
    },
    {
      "inputs": [
        {
          "internalType": "address",
          "name": "_owner",
          "type": "address"
        }
      ],
      "name": "getEnginesByOwner",
      "outputs": [
        {
          "components": [
            {
              "internalType": "uint256",
              "name": "id",
              "type": "uint256"
            },
            {
              "internalType": "uint16",
              "name": "horsePowers",
              "type": "uint16"
            },
            {
              "internalType": "uint8",
              "name": "consumtion",
              "type": "uint8"
            }
          ],
          "internalType": "struct CarFactory.Engine[]",
          "name": "",
          "type": "tuple[]"
        }
      ],
      "stateMutability": "view",
      "type": "function",
      "constant": true
    },
    {
      "inputs": [
        {
          "internalType": "address",
          "name": "_owner",
          "type": "address"
        }
      ],
      "name": "getFuelStationByOwner",
      "outputs": [
        {
          "components": [
            {
              "internalType": "uint256",
              "name": "id",
              "type": "uint256"
            },
            {
              "internalType": "uint8",
              "name": "capacity",
              "type": "uint8"
            },
            {
              "internalType": "uint8",
              "name": "productionPerHour",
              "type": "uint8"
            },
            {
              "internalType": "uint8",
              "name": "currentFullness",
              "type": "uint8"
            },
            {
              "internalType": "uint256",
              "name": "lastUpdate",
              "type": "uint256"
            }
          ],
          "internalType": "struct FuelStationFactory.FuelStation",
          "name": "",
          "type": "tuple"
        }
      ],
      "stateMutability": "view",
      "type": "function",
      "constant": true
    },
    {
      "inputs": [
        {
          "internalType": "uint256",
          "name": "",
          "type": "uint256"
        }
      ],
      "name": "idToStartedRooms",
      "outputs": [
        {
          "internalType": "uint256",
          "name": "numberPlayers",
          "type": "uint256"
        },
        {
          "internalType": "uint256",
          "name": "world",
          "type": "uint256"
        },
        {
          "internalType": "uint256",
          "name": "roomDNA",
          "type": "uint256"
        },
        {
          "internalType": "uint256",
          "name": "startTime",
          "type": "uint256"
        },
        {
          "internalType": "uint256",
          "name": "curAnswer",
          "type": "uint256"
        },
        {
          "internalType": "bool",
          "name": "closed",
          "type": "bool"
        }
      ],
      "stateMutability": "view",
      "type": "function",
      "constant": true
    },
    {
      "inputs": [
        {
          "internalType": "uint256",
          "name": "_carId",
          "type": "uint256"
        }
      ],
      "name": "levelUp",
      "outputs": [],
      "stateMutability": "payable",
      "type": "function",
      "payable": true
    },
    {
      "inputs": [
        {
          "internalType": "uint256",
          "name": "",
          "type": "uint256"
        }
      ],
      "name": "openedRooms",
      "outputs": [
        {
          "internalType": "uint256",
          "name": "id",
          "type": "uint256"
        },
        {
          "internalType": "uint256",
          "name": "playersEntered",
          "type": "uint256"
        },
        {
          "internalType": "uint256",
          "name": "world",
          "type": "uint256"
        },
        {
          "components": [
            {
              "internalType": "uint256",
              "name": "playersNeeded",
              "type": "uint256"
            },
            {
              "internalType": "uint256",
              "name": "roadsNum",
              "type": "uint256"
            },
            {
              "internalType": "uint256",
              "name": "crossId",
              "type": "uint256"
            }
          ],
          "internalType": "struct RaceHandler.Cross",
          "name": "cross",
          "type": "tuple"
        }
      ],
      "stateMutability": "view",
      "type": "function",
      "constant": true
    },
    {
      "inputs": [],
      "name": "owner",
      "outputs": [
        {
          "internalType": "address",
          "name": "",
          "type": "address"
        }
      ],
      "stateMutability": "view",
      "type": "function",
      "constant": true
    },
    {
      "inputs": [
        {
          "internalType": "address",
          "name": "",
          "type": "address"
        }
      ],
      "name": "ownerCarCount",
      "outputs": [
        {
          "internalType": "uint256",
          "name": "",
          "type": "uint256"
        }
      ],
      "stateMutability": "view",
      "type": "function",
      "constant": true
    },
    {
      "inputs": [
        {
          "internalType": "address",
          "name": "",
          "type": "address"
        }
      ],
      "name": "ownerChassisCount",
      "outputs": [
        {
          "internalType": "uint256",
          "name": "",
          "type": "uint256"
        }
      ],
      "stateMutability": "view",
      "type": "function",
      "constant": true
    },
    {
      "inputs": [
        {
          "internalType": "address",
          "name": "",
          "type": "address"
        }
      ],
      "name": "ownerEngineCount",
      "outputs": [
        {
          "internalType": "uint256",
          "name": "",
          "type": "uint256"
        }
      ],
      "stateMutability": "view",
      "type": "function",
      "constant": true
    },
    {
      "inputs": [],
      "name": "renounceOwnership",
      "outputs": [],
      "stateMutability": "nonpayable",
      "type": "function"
    },
    {
      "inputs": [
        {
          "internalType": "uint256",
          "name": "_carId",
          "type": "uint256"
        }
      ],
      "name": "startRace",
      "outputs": [],
      "stateMutability": "nonpayable",
      "type": "function"
    },
    {
      "inputs": [
        {
          "internalType": "uint256",
          "name": "",
          "type": "uint256"
        }
      ],
      "name": "stations",
      "outputs": [
        {
          "internalType": "uint256",
          "name": "id",
          "type": "uint256"
        },
        {
          "internalType": "uint8",
          "name": "capacity",
          "type": "uint8"
        },
        {
          "internalType": "uint8",
          "name": "productionPerHour",
          "type": "uint8"
        },
        {
          "internalType": "uint8",
          "name": "currentFullness",
          "type": "uint8"
        },
        {
          "internalType": "uint256",
          "name": "lastUpdate",
          "type": "uint256"
        }
      ],
      "stateMutability": "view",
      "type": "function",
      "constant": true
    },
    {
      "inputs": [
        {
          "internalType": "uint256",
          "name": "carId",
          "type": "uint256"
        },
        {
          "internalType": "uint256",
          "name": "chassisId",
          "type": "uint256"
        }
      ],
      "name": "switchChassis",
      "outputs": [],
      "stateMutability": "nonpayable",
      "type": "function"
    },
    {
      "inputs": [
        {
          "internalType": "uint256",
          "name": "carId",
          "type": "uint256"
        },
        {
          "internalType": "uint256",
          "name": "engineId",
          "type": "uint256"
        }
      ],
      "name": "switchEngine",
      "outputs": [],
      "stateMutability": "nonpayable",
      "type": "function"
    },
    {
      "inputs": [
        {
          "internalType": "address",
          "name": "newOwner",
          "type": "address"
        }
      ],
      "name": "transferOwnership",
      "outputs": [],
      "stateMutability": "nonpayable",
      "type": "function"
    },
    {
      "inputs": [
        {
          "internalType": "uint256",
          "name": "_fuelStatonId",
          "type": "uint256"
        },
        {
          "internalType": "uint8",
          "name": "_counts",
          "type": "uint8"
        }
      ],
      "name": "upgradeCapacity",
      "outputs": [],
      "stateMutability": "payable",
      "type": "function",
      "payable": true
    },
    {
      "inputs": [
        {
          "internalType": "uint256",
          "name": "_engineId",
          "type": "uint256"
        },
        {
          "internalType": "uint8",
          "name": "_counts",
          "type": "uint8"
        }
      ],
      "name": "upgradeConsumtion",
      "outputs": [],
      "stateMutability": "payable",
      "type": "function",
      "payable": true
    },
    {
      "inputs": [
        {
          "internalType": "uint256",
          "name": "_chassisId",
          "type": "uint256"
        },
        {
          "internalType": "uint8",
          "name": "_counts",
          "type": "uint8"
        }
      ],
      "name": "upgradeDurability",
      "outputs": [],
      "stateMutability": "payable",
      "type": "function",
      "payable": true
    },
    {
      "inputs": [
        {
          "internalType": "uint256",
          "name": "_engineId",
          "type": "uint256"
        },
        {
          "internalType": "uint8",
          "name": "_counts",
          "type": "uint8"
        }
      ],
      "name": "upgradeHorsePowers",
      "outputs": [],
      "stateMutability": "payable",
      "type": "function",
      "payable": true
    },
    {
      "inputs": [
        {
          "internalType": "uint256",
          "name": "_fuelStatonId",
          "type": "uint256"
        },
        {
          "internalType": "uint8",
          "name": "_counts",
          "type": "uint8"
        }
      ],
      "name": "upgradeProductionPerHour",
      "outputs": [],
      "stateMutability": "payable",
      "type": "function",
      "payable": true
    },
    {
      "inputs": [
        {
          "internalType": "address",
          "name": "_chassisOwnership",
          "type": "address"
        },
        {
          "internalType": "address",
          "name": "_engineOwnership",
          "type": "address"
        },
        {
          "internalType": "address",
          "name": "_carOwnership",
          "type": "address"
        }
      ],
      "name": "init",
      "outputs": [],
      "stateMutability": "nonpayable",
      "type": "function"
    },
    {
      "inputs": [
        {
          "internalType": "address",
          "name": "_owner",
          "type": "address"
        }
      ],
      "name": "balanceOfCars",
      "outputs": [
        {
          "internalType": "uint256",
          "name": "",
          "type": "uint256"
        }
      ],
      "stateMutability": "view",
      "type": "function",
      "constant": true
    },
    {
      "inputs": [
        {
          "internalType": "uint256",
          "name": "_tokenId",
          "type": "uint256"
        }
      ],
      "name": "ownerOfCar",
      "outputs": [
        {
          "internalType": "address",
          "name": "",
          "type": "address"
        }
      ],
      "stateMutability": "view",
      "type": "function",
      "constant": true
    },
    {
      "inputs": [
        {
          "internalType": "address",
          "name": "_from",
          "type": "address"
        },
        {
          "internalType": "address",
          "name": "_to",
          "type": "address"
        },
        {
          "internalType": "uint256",
          "name": "_tokenId",
          "type": "uint256"
        }
      ],
      "name": "transferCarFrom",
      "outputs": [],
      "stateMutability": "payable",
      "type": "function",
      "payable": true
    },
    {
      "inputs": [
        {
          "internalType": "address",
          "name": "_owner",
          "type": "address"
        }
      ],
      "name": "balanceOfEngines",
      "outputs": [
        {
          "internalType": "uint256",
          "name": "",
          "type": "uint256"
        }
      ],
      "stateMutability": "view",
      "type": "function",
      "constant": true
    },
    {
      "inputs": [
        {
          "internalType": "uint256",
          "name": "_tokenId",
          "type": "uint256"
        }
      ],
      "name": "ownerOfEngine",
      "outputs": [
        {
          "internalType": "address",
          "name": "",
          "type": "address"
        }
      ],
      "stateMutability": "view",
      "type": "function",
      "constant": true
    },
    {
      "inputs": [
        {
          "internalType": "address",
          "name": "_from",
          "type": "address"
        },
        {
          "internalType": "address",
          "name": "_to",
          "type": "address"
        },
        {
          "internalType": "uint256",
          "name": "_tokenId",
          "type": "uint256"
        }
      ],
      "name": "transferEngineFrom",
      "outputs": [],
      "stateMutability": "payable",
      "type": "function",
      "payable": true
    },
    {
      "inputs": [
        {
          "internalType": "address",
          "name": "_owner",
          "type": "address"
        }
      ],
      "name": "balanceOfChassis",
      "outputs": [
        {
          "internalType": "uint256",
          "name": "",
          "type": "uint256"
        }
      ],
      "stateMutability": "view",
      "type": "function",
      "constant": true
    },
    {
      "inputs": [
        {
          "internalType": "uint256",
          "name": "_tokenId",
          "type": "uint256"
        }
      ],
      "name": "ownerOfChassis",
      "outputs": [
        {
          "internalType": "address",
          "name": "",
          "type": "address"
        }
      ],
      "stateMutability": "view",
      "type": "function",
      "constant": true
    },
    {
      "inputs": [
        {
          "internalType": "address",
          "name": "_from",
          "type": "address"
        },
        {
          "internalType": "address",
          "name": "_to",
          "type": "address"
        },
        {
          "internalType": "uint256",
          "name": "_tokenId",
          "type": "uint256"
        }
      ],
      "name": "transferChassisFrom",
      "outputs": [],
      "stateMutability": "nonpayable",
      "type": "function"
    },
    {
      "inputs": [
        {
          "internalType": "uint256",
          "name": "chassisId",
          "type": "uint256"
        },
        {
          "internalType": "uint256",
          "name": "price",
          "type": "uint256"
        }
      ],
      "name": "putChassisOnMarketplace",
      "outputs": [],
      "stateMutability": "nonpayable",
      "type": "function"
    },
    {
      "inputs": [
        {
          "internalType": "uint256",
          "name": "chassisId",
          "type": "uint256"
        }
      ],
      "name": "removeChassisFromMarketplace",
      "outputs": [],
      "stateMutability": "nonpayable",
      "type": "function"
    },
    {
      "inputs": [
        {
          "internalType": "uint256",
          "name": "engineId",
          "type": "uint256"
        },
        {
          "internalType": "uint256",
          "name": "price",
          "type": "uint256"
        }
      ],
      "name": "putEngineOnMarketplace",
      "outputs": [],
      "stateMutability": "nonpayable",
      "type": "function"
    },
    {
      "inputs": [
        {
          "internalType": "uint256",
          "name": "engineId",
          "type": "uint256"
        }
      ],
      "name": "removeEngineFromMarketplace",
      "outputs": [],
      "stateMutability": "nonpayable",
      "type": "function"
    },
    {
      "inputs": [
        {
          "internalType": "uint256",
          "name": "carId",
          "type": "uint256"
        },
        {
          "internalType": "uint256",
          "name": "price",
          "type": "uint256"
        }
      ],
      "name": "putCarOnMarketplace",
      "outputs": [],
      "stateMutability": "nonpayable",
      "type": "function"
    },
    {
      "inputs": [
        {
          "internalType": "uint256",
          "name": "carId",
          "type": "uint256"
        }
      ],
      "name": "removeCarFromMarketplace",
      "outputs": [],
      "stateMutability": "nonpayable",
      "type": "function"
    },
    {
      "inputs": [],
      "name": "getCarsForSale",
      "outputs": [
        {
          "components": [
            {
              "internalType": "string",
              "name": "model",
              "type": "string"
            },
            {
              "internalType": "uint256",
              "name": "vin",
              "type": "uint256"
            },
            {
              "internalType": "uint256",
              "name": "engineId",
              "type": "uint256"
            },
            {
              "internalType": "uint256",
              "name": "chassisId",
              "type": "uint256"
            },
            {
              "internalType": "uint8",
              "name": "carLevel",
              "type": "uint8"
            },
            {
              "internalType": "uint256",
              "name": "mileage",
              "type": "uint256"
            },
            {
              "internalType": "uint256",
              "name": "winCountOnCurrentLevel",
              "type": "uint256"
            },
            {
              "internalType": "uint256",
              "name": "lossCountOnCurrentLevel",
              "type": "uint256"
            },
            {
              "internalType": "uint256",
              "name": "id",
              "type": "uint256"
            }
          ],
          "internalType": "struct CarFactory.Car[]",
          "name": "",
          "type": "tuple[]"
        }
      ],
      "stateMutability": "view",
      "type": "function",
      "constant": true
    },
    {
      "inputs": [],
      "name": "getEnginesForSale",
      "outputs": [
        {
          "components": [
            {
              "internalType": "uint256",
              "name": "id",
              "type": "uint256"
            },
            {
              "internalType": "uint16",
              "name": "horsePowers",
              "type": "uint16"
            },
            {
              "internalType": "uint8",
              "name": "consumtion",
              "type": "uint8"
            }
          ],
          "internalType": "struct CarFactory.Engine[]",
          "name": "",
          "type": "tuple[]"
        }
      ],
      "stateMutability": "view",
      "type": "function",
      "constant": true
    },
    {
      "inputs": [],
      "name": "getChassisForSale",
      "outputs": [
        {
          "components": [
            {
              "internalType": "uint256",
              "name": "id",
              "type": "uint256"
            },
            {
              "internalType": "uint32",
              "name": "durability",
              "type": "uint32"
            },
            {
              "internalType": "uint32",
              "name": "resource",
              "type": "uint32"
            }
          ],
          "internalType": "struct CarFactory.Chassis[]",
          "name": "",
          "type": "tuple[]"
        }
      ],
      "stateMutability": "view",
      "type": "function",
      "constant": true
    }
  ],
  "bytecode": "0x6000805461ffff60a01b191661014f60a21b17815560088190556009819055600a9081556001600b819055600c556509184e72a000601981905565b5e620f48000601a55650da475abf000601b556611c37937e08000601c556305f5e100601d5566038d7ea4c68000601e556101c060405260809081526512309ce5400060a05265246139ca800060c0526548c27395000060e052659184e72a00006101005266012309ce54000061012052660246139ca800006101405266048c2739500000610160526609184e72a00000610180526612309ce54000006101a052620000ea916020919062000327565b50348015620000f857600080fd5b506200010433620002d7565b60506003908155605b60049081556005805460ff1916600a179055620186a06006556201d4c1600755600e80546001908101909155600f805482019055604080516060808201835284825260208281018681526000848601818152601f8054808a0182558184529651968b027fa03837a25210ee280c2113ff4b77ca23440b19d4866cca721c801278fd08d8078181019890985593517fa03837a25210ee280c2113ff4b77ca23440b19d4866cca721c801278fd08d8088086019190915591517fa03837a25210ee280c2113ff4b77ca23440b19d4866cca721c801278fd08d80994850155875180870189528b81528086018b8152818a018581528354808d0185558487529251928e02808b019390935590518285015551908501558751808701895260028082528187019b8c52818a018581528354808d0185558487529251928e02808b01939093559b51828501559a5190850155875180870189528b81528086018c8152818a018b81528354808d0185558487529251928e02808b019390935590518285015551908501558751958601885298855292840189815295840187815288548089018a55989091529251969097029283019590955591519381019390935551919092015560235562000399565b600080546001600160a01b038381166001600160a01b0319831681178455604051919092169283917f8be0079c531659141344cd1fd0a4f28419497f9722a3daafe3b4186f6b6457e09190a35050565b82805482825590600052602060002090810192821562000370579160200282015b8281111562000370578251829066ffffffffffffff1690559160200191906001019062000348565b506200037e92915062000382565b5090565b5b808211156200037e576000815560010162000383565b61561a80620003a96000396000f3fe6080604052600436106103c35760003560e01c80637ec5c75c116101f2578063c34cccc41161010d578063ede6fbf5116100a0578063f85993b91161006f578063f85993b914610e9e578063faf4bb9814610ecb578063fb2d954f14610ede578063fb33250f14610efe57600080fd5b8063ede6fbf514610e09578063f2fde38b14610e29578063f66911b114610e49578063f7746e3614610e6957600080fd5b8063d7086fab116100dc578063d7086fab14610d89578063d720be4a14610da9578063e215a7e414610dc9578063ea12693314610de957600080fd5b8063c34cccc414610d09578063c75bb4f414610d29578063c85b7fed14610d49578063d1c54eea14610d6957600080fd5b8063906f5f3411610185578063b3b29afd11610154578063b3b29afd14610c66578063b72c0eea14610c93578063b972486f14610cd4578063bfcc971614610ce957600080fd5b8063906f5f3414610bc057806392f859db14610bd3578063982b691c14610c23578063aa11b68114610c3957600080fd5b806387d6b9b2116101c157806387d6b9b214610b3957806389895f7714610b6f5780638b57997314610b8f5780638da5cb5b14610ba257600080fd5b80637ec5c75c14610ab95780637fb2aa4d14610acc5780638590926714610af95780638776601914610b0c57600080fd5b80633521c426116102e25780635c426aff11610275578063715018a611610244578063715018a614610a4f57806376b4646d14610a645780637713d52114610a865780637c62360f14610aa657600080fd5b80635c426aff146109965780635dcc4cc6146109cc5780636b606d9b14610a025780636f206fc114610a2257600080fd5b80634ced3056116102b15780634ced3056146108b55780634e31f910146108d5578063567754e414610940578063594193d71461096057600080fd5b80633521c426146107fa5780633dfd6f5414610827578063449014901461085d578063491d61c21461089357600080fd5b80631702bf421161035a57806324d822bf1161032957806324d822bf14610738578063254dc065146107585780632cb03a3a1461078e57806333ca504b146107c457600080fd5b80631702bf421461058c578063184b9559146105a25780631c5dde0e146105c2578063224370f01461060457600080fd5b80630a0176fc116103965780630a0176fc146105085780630c0cd532146105435780630ce90ec21461055957806314ed04501461056c57600080fd5b806302b67745146103c857806303f2e05b1461041b5780630418394e14610430578063081315ff146104b2575b600080fd5b3480156103d457600080fd5b506103fe6103e3366004614ae9565b6000908152601060205260409020546001600160a01b031690565b6040516001600160a01b0390911681526020015b60405180910390f35b61042e610429366004614b18565b610f1e565b005b34801561043c57600080fd5b5061048361044b366004614ae9565b602560205260009081526040902080546001820154600283015460038401546005850154600690950154939492939192909160ff1686565b6040805196875260208701959095529385019290925260608401526080830152151560a082015260c001610412565b3480156104be57600080fd5b506104d26104cd366004614ae9565b611054565b604080519485526020808601949094528481019290925280516060850152918201516080840152015160a082015260c001610412565b34801561051457600080fd5b50610535610523366004614ae9565b60186020526000908152604090205481565b604051908152602001610412565b34801561054f57600080fd5b50610535600a5481565b61042e610567366004614ae9565b6110b2565b34801561057857600080fd5b5061042e610587366004614ae9565b611223565b34801561059857600080fd5b5061053560085481565b3480156105ae57600080fd5b5061042e6105bd366004614b5b565b611284565b3480156105ce57600080fd5b506105e26105dd366004614ae9565b6112cb565b6040805193845263ffffffff9283166020850152911690820152606001610412565b34801561061057600080fd5b5061042e600180546040805160a0810182528281526000805460ff600160a01b820481166020808601828152600160a81b90940483168688019081526060870192835263ffffffff421660808801908152898b018b559986529551600389027fb10e2d527612073b26eecdfd717e6a320cf44b4afac2b0732d9fcbe2b7fa0cf681019190915593517fb10e2d527612073b26eecdfd717e6a320cf44b4afac2b0732d9fcbe2b7fa0cf785018054975193518516620100000262ff0000199486166101000261ffff19909916929095169190911796909617919091169190911790935594517fb10e2d527612073b26eecdfd717e6a320cf44b4afac2b0732d9fcbe2b7fa0cf8909501949094559183526002909152902080546001600160a01b03191633179055565b34801561074457600080fd5b5061042e610753366004614ae9565b61130b565b34801561076457600080fd5b50610535610773366004614b9e565b6001600160a01b031660009081526015602052604090205490565b34801561079a57600080fd5b506105356107a9366004614b9e565b6001600160a01b031660009081526013602052604090205490565b3480156107d057600080fd5b506103fe6107df366004614ae9565b6010602052600090815260409020546001600160a01b031681565b34801561080657600080fd5b5061081a610815366004614ae9565b61163c565b6040516104129190614bb9565b34801561083357600080fd5b506103fe610842366004614ae9565b6000908152601160205260409020546001600160a01b031690565b34801561086957600080fd5b506103fe610878366004614ae9565b6012602052600090815260409020546001600160a01b031681565b34801561089f57600080fd5b506108a861172e565b6040516104129190614c28565b3480156108c157600080fd5b5061042e6108d0366004614ae9565b611856565b3480156108e157600080fd5b506108f56108f0366004614b9e565b6118ca565b6040516104129190600060a0820190508251825260ff602084015116602083015260ff604084015116604083015260ff60608401511660608301526080830151608083015292915050565b34801561094c57600080fd5b5061042e61095b366004614ae9565b6119b1565b34801561096c57600080fd5b506103fe61097b366004614ae9565b6002602052600090815260409020546001600160a01b031681565b3480156109a257600080fd5b506103fe6109b1366004614ae9565b6000908152601260205260409020546001600160a01b031690565b3480156109d857600080fd5b506103fe6109e7366004614ae9565b6011602052600090815260409020546001600160a01b031681565b348015610a0e57600080fd5b5061042e610a1d366004614c7b565b611a12565b348015610a2e57600080fd5b50610a42610a3d366004614b9e565b611b12565b6040516104129190614c9d565b348015610a5b57600080fd5b5061042e611c66565b348015610a7057600080fd5b50610a79611c7a565b6040516104129190614d4f565b348015610a9257600080fd5b506108a8610aa1366004614b9e565b611e46565b61042e610ab4366004614b18565b611f8e565b61042e610ac7366004614e19565b6120a9565b348015610ad857600080fd5b50610535610ae7366004614b9e565b60146020526000908152604090205481565b61042e610b07366004614b18565b612151565b348015610b1857600080fd5b50610535610b27366004614b9e565b60156020526000908152604090205481565b348015610b4557600080fd5b50610535610b54366004614b9e565b6001600160a01b031660009081526014602052604090205490565b348015610b7b57600080fd5b5061042e610b8a366004614c7b565b612245565b61042e610b9d366004614e19565b6122c8565b348015610bae57600080fd5b506000546001600160a01b03166103fe565b61042e610bce366004614b18565b612353565b348015610bdf57600080fd5b50610bf3610bee366004614ae9565b61243c565b6040805195865260ff9485166020870152928416928501929092529091166060830152608082015260a001610412565b348015610c2f57600080fd5b5061053560095481565b348015610c4557600080fd5b50610535610c54366004614ae9565b60166020526000908152604090205481565b348015610c7257600080fd5b50610535610c81366004614b9e565b60136020526000908152604090205481565b348015610c9f57600080fd5b50610cb3610cae366004614ae9565b612488565b6040805193845261ffff909216602084015260ff1690820152606001610412565b348015610ce057600080fd5b50610a426124c5565b348015610cf557600080fd5b50610535610d04366004614e69565b6125e8565b348015610d1557600080fd5b5061042e610d24366004614c7b565b612740565b348015610d3557600080fd5b50610a79610d44366004614b9e565b612890565b348015610d5557600080fd5b5061042e610d64366004614eda565b612a84565b348015610d7557600080fd5b5061042e610d84366004614c7b565b612d11565b348015610d9557600080fd5b50610535610da4366004614f9e565b612df7565b348015610db557600080fd5b5061042e610dc4366004614c7b565b612f66565b348015610dd557600080fd5b5061042e610de4366004614c7b565b612ffc565b348015610df557600080fd5b5061042e610e04366004614c7b565b61307f565b348015610e1557600080fd5b5061042e610e2436600461503a565b6131e3565b348015610e3557600080fd5b5061042e610e44366004614b9e565b6133b1565b348015610e5557600080fd5b5061042e610e64366004614e19565b61342a565b348015610e7557600080fd5b50610e89610e84366004614ae9565b6134b5565b6040516104129998979695949392919061506f565b348015610eaa57600080fd5b50610535610eb9366004614ae9565b60176020526000908152604090205481565b61042e610ed9366004614b18565b6135a2565b348015610eea57600080fd5b5061042e610ef9366004614ae9565b6136b2565b348015610f0a57600080fd5b5061042e610f193660046150c6565b613bc6565b60008281526012602052604090205482906001600160a01b03163314610f5f5760405162461bcd60e51b8152600401610f569061514e565b60405180910390fd5b601d54600f8481548110610f7557610f7561517c565b6000918252602090912060016002909202010154610f9c9063ffffffff1660ff85166151a8565b63ffffffff16610fac91906151d4565b3414610fb757600080fd5b600080546040516001600160a01b03909116913480156108fc02929091818181858888f19350505050158015610ff1573d6000803e3d6000fd5b508160ff16600f84815481106110095761100961517c565b600091825260208220600160029092020101805490919061103190849063ffffffff166151f3565b92506101000a81548163ffffffff021916908363ffffffff160217905550505050565b6024818154811061106457600080fd5b60009182526020918290206006909102018054600182015460028301546040805160608101825260038601548152600486015496810196909652600590940154938501939093529093509184565b6000600a600d83815481106110c9576110c961517c565b60009182526020909120600460099092020101546110ea919060ff16615231565b6110f5906001615253565b60ff16601e5461110591906151d4565b90508034146111435760405162461bcd60e51b815260206004820152600a6024820152691ddc9bdb99c818dbdcdd60b21b6044820152606401610f56565b600080546040516001600160a01b03909116913480156108fc02929091818181858888f1935050505015801561117d573d6000803e3d6000fd5b50600d82815481106111915761119161517c565b600091825260208220600460099092020101805460ff16916111b283615278565b91906101000a81548160ff021916908360ff160217905550506000600d83815481106111e0576111e061517c565b9060005260206000209060090201600601819055506000600d838154811061120a5761120a61517c565b9060005260206000209060090201600701819055505050565b60008181526011602052604090205481906001600160a01b0316331461124857600080fd5b6000828152601760205260409020541561127257600a805490600061126c83615297565b91905055505b50600090815260176020526040812055565b61128c613dc0565b602680546001600160a01b039485166001600160a01b031991821617909155602780549385169382169390931790925560288054919093169116179055565b600f81815481106112db57600080fd5b60009182526020909120600290910201805460019091015490915063ffffffff8082169164010000000090041683565b60008181526010602052604090205481906001600160a01b0316331461133057600080fd5b6000600a600d84815481106113475761134761517c565b6000918252602090912060046009909202010154611368919060ff16615231565b61137390600a6152ae565b61137e9060026152d1565b33600090815260226020526040902054909150156113d45760405162461bcd60e51b815260206004820152601360248201527263617220616c726561647920696e207261636560681b6044820152606401610f56565b600d83815481106113e7576113e761517c565b9060005260206000209060090201600301546000036114355760405162461bcd60e51b815260206004820152600a6024820152696e6f206368617373697360b01b6044820152606401610f56565b600d83815481106114485761144861517c565b9060005260206000209060090201600201546000036114955760405162461bcd60e51b81526020600482015260096024820152686e6f20656e67696e6560b81b6044820152606401610f56565b61149f8382613e1a565b6114dd5760405162461bcd60e51b815260206004820152600f60248201526e1b9bdd08195b9bdd59da08199d595b608a1b6044820152606401610f56565b8060ff16600f600d85815481106114f6576114f661517c565b906000526020600020906009020160030154815481106115185761151861517c565b6000918252602090912060029091020160010154640100000000900463ffffffff1610156115735760405162461bcd60e51b81526020600482015260086024820152677265736f7572636560c01b6044820152606401610f56565b8060ff16600f600d858154811061158c5761158c61517c565b906000526020600020906009020160030154815481106115ae576115ae61517c565b906000526020600020906002020160010160048282829054906101000a900463ffffffff166115dd91906152fa565b92506101000a81548163ffffffff021916908363ffffffff1602179055508060ff16600d84815481106116125761161261517c565b90600052602060002090600902016005016000828254611632919061531f565b9091555050505050565b60008181526025602052604090206006015460609060ff166116925760405162461bcd60e51b815260206004820152600f60248201526e1c9bdbdb481b9bdd0818db1bdcd959608a1b6044820152606401610f56565b600082815260256020908152604080832060040180548251818502810185019093528083529193909284015b82821015611723576000848152602090819020604080516080810182526003860290920180546001600160a01b0381168452600160a01b900460ff161515838501526001808201549284019290925260020154606083015290835290920191016116be565b505050509050919050565b60606000600a5467ffffffffffffffff81111561174d5761174d614e93565b60405190808252806020026020018201604052801561179857816020015b604080516060810182526000808252602080830182905292820152825260001990920191018161176b5790505b509050600060015b600e54811161184e576000818152601760205260409020541561183c57600e81815481106117d0576117d061517c565b600091825260209182902060408051606081018252600293909302909101805483526001015461ffff8116938301939093526201000090920460ff1691810191909152838361181e81615337565b9450815181106118305761183061517c565b60200260200101819052505b8061184681615337565b9150506117a0565b509092915050565b60008181526012602052604090205481906001600160a01b0316331461188e5760405162461bcd60e51b8152600401610f569061514e565b600082815260186020526040902054156118b857600980549060006118b283615297565b91905055505b50600090815260186020526040812055565b6040805160a081018252600080825260208201819052918101829052606081018290526080810182905290805b60015481101561193c576000818152600260205260409020546001600160a01b0380861691160361192a5780915061193c565b8061193481615337565b9150506118f7565b50600181815481106119505761195061517c565b60009182526020918290206040805160a081018252600390930290910180548352600181015460ff80821695850195909552610100810485169284019290925262010000909104909216606082015260029091015460808201529392505050565b60008181526010602052604090205481906001600160a01b031633146119d657600080fd5b60008281526016602052604090205415611a0057600880549060006119fa83615297565b91905055505b50600090815260166020526040812055565b60008181526012602052604090205481906001600160a01b03163314611a4a5760405162461bcd60e51b8152600401610f569061514e565b60008381526010602052604090205483906001600160a01b03163314611a6f57600080fd5b82600d8581548110611a8357611a8361517c565b90600052602060002090600902016003015414611ae25760405162461bcd60e51b815260206004820152601860248201527f6368617373697320617265206e6f7420617474616368656400000000000000006044820152606401610f56565b6000600d8581548110611af757611af761517c565b90600052602060002090600902016003018190555050505050565b6001600160a01b0381166000908152601560205260408120546060919067ffffffffffffffff811115611b4757611b47614e93565b604051908082528060200260200182016040528015611b9257816020015b6040805160608101825260008082526020808301829052928201528252600019909201910181611b655790505b5090506000805b600f54811015611c5d576000818152601260205260409020546001600160a01b03808716911603611c4b57600f8181548110611bd757611bd761517c565b6000918252602091829020604080516060810182526002909302909101805483526001015463ffffffff808216948401949094526401000000009004909216918101919091528351849084908110611c3157611c3161517c565b60200260200101819052508180611c4790615337565b9250505b80611c5581615337565b915050611b99565b50909392505050565b611c6e613dc0565b611c786000613fbc565b565b6060600060085467ffffffffffffffff811115611c9957611c99614e93565b604051908082528060200260200182016040528015611cd257816020015b611cbf614a01565b815260200190600190039081611cb75790505b5090506000805b600d5481101561184e5760008181526016602052604090205415611e3457600d8181548110611d0a57611d0a61517c565b906000526020600020906009020160405180610120016040529081600082018054611d3490615350565b80601f0160208091040260200160405190810160405280929190818152602001828054611d6090615350565b8015611dad5780601f10611d8257610100808354040283529160200191611dad565b820191906000526020600020905b815481529060010190602001808311611d9057829003601f168201915b5050509183525050600182015460208201526002820154604082015260038201546060820152600482015460ff166080820152600582015460a0820152600682015460c0820152600782015460e0820152600890910154610100909101528383611e1681615337565b945081518110611e2857611e2861517c565b60200260200101819052505b80611e3e81615337565b915050611cd9565b6001600160a01b0381166000908152601460205260408120546060919067ffffffffffffffff811115611e7b57611e7b614e93565b604051908082528060200260200182016040528015611ec657816020015b6040805160608101825260008082526020808301829052928201528252600019909201910181611e995790505b5090506000805b600e54811015611c5d576000818152601160205260409020546001600160a01b03808716911603611f7c57600e8181548110611f0b57611f0b61517c565b600091825260209182902060408051606081018252600293909302909101805483526001015461ffff8116938301939093526201000090920460ff16918101919091528351849084908110611f6257611f6261517c565b60200260200101819052508180611f7890615337565b9250505b80611f8681615337565b915050611ecd565b60008281526011602052604090205482906001600160a01b03163314611fb357600080fd5b600e8381548110611fc657611fc661517c565b6000918252602090912060029091020160010154611fee9062010000900460ff16600a6152ae565b611ff9906002615466565b601c5461200691906151d4565b341461201157600080fd5b600080546040516001600160a01b03909116913480156108fc02929091818181858888f1935050505015801561204b573d6000803e3d6000fd5b5081600e84815481106120605761206061517c565b906000526020600020906002020160010160028282829054906101000a900460ff1661208c91906152ae565b92506101000a81548160ff021916908360ff160217905550505050565b6028546001600160a01b031633146121035760405162461bcd60e51b815260206004820152601960248201527f796f7520617265206e6f7420636172206f776e657273686970000000000000006044820152606401610f56565b6000818152601060205260409020546001600160a01b0384811691161480612138575060008181526016602052604090205415155b61214157600080fd5b61214c83838361400c565b505050565b60008281526002602052604090205482906001600160a01b0316331461217657600080fd5b601a546001848154811061218c5761218c61517c565b60009182526020909120600390910201600101546121b290610100900460ff16846152d1565b60ff166121bf91906151d4565b34146121ca57600080fd5b600080546040516001600160a01b03909116913480156108fc02929091818181858888f19350505050158015612204573d6000803e3d6000fd5b5081600184815481106122195761221961517c565b906000526020600020906003020160010160018282829054906101000a900460ff1661208c9190615253565b60008281526011602052604090205482906001600160a01b0316331461226a57600080fd5b6000821161228a5760405162461bcd60e51b8152600401610f5690615475565b60008381526017602052604081205490036122b557600a80549060006122af83615337565b91905055505b5060009182526017602052604090912055565b6027546001600160a01b031633146123225760405162461bcd60e51b815260206004820152601c60248201527f796f7520617265206e6f7420656e67696e65206f776e657273686970000000006044820152606401610f56565b6000818152601160205260409020546001600160a01b0384811691161461234857600080fd5b61214c8383836141bc565b60008281526002602052604090205482906001600160a01b0316331461237857600080fd5b6019546001848154811061238e5761238e61517c565b60009182526020909120600160039092020101546123b39060ff9081169085166151d4565b6123bd91906151d4565b34146123c857600080fd5b600080546040516001600160a01b03909116913480156108fc02929091818181858888f19350505050158015612402573d6000803e3d6000fd5b5081600184815481106124175761241761517c565b600091825260208220600160039092020101805490919061208c90849060ff16615253565b6001818154811061244c57600080fd5b600091825260209091206003909102018054600182015460029092015490925060ff808316926101008104821692620100009091049091169085565b600e818154811061249857600080fd5b60009182526020909120600290910201805460019091015490915061ffff81169062010000900460ff1683565b6060600060095467ffffffffffffffff8111156124e4576124e4614e93565b60405190808252806020026020018201604052801561252f57816020015b60408051606081018252600080825260208083018290529282015282526000199092019101816125025790505b509050600060015b600f54811161184e57600081815260186020526040902054156125d657600f81815481106125675761256761517c565b6000918252602091829020604080516060810182526002909302909101805483526001015463ffffffff8082169484019490945264010000000090049092169181019190915283836125b881615337565b9450815181106125ca576125ca61517c565b60200260200101819052505b806125e081615337565b915050612537565b60006125f2613dc0565b600c80546000918261260383615337565b909155506040805160608101825282815263ffffffff8781166020808401828152848601928352600f80546001810182556000918252955160029096027f8d1108e10bcb7c27dddfc02ed9d693a074039d026cf4ea4240b40f7d581ac80281019690965590517f8d1108e10bcb7c27dddfc02ed9d693a074039d026cf4ea4240b40f7d581ac8039095018054935185166401000000000267ffffffffffffffff1990941695909416949094179190911790915581546001600160a01b03168252601590529081208054929350906126d983615337565b9091555050600080548282526012602052604090912080546001600160a01b0319166001600160a01b039092169190911790558215612737576000818152601860205260408120849055600980549161273183615337565b91905055505b90505b92915050565b60008181526011602052604090205481906001600160a01b0316331461276557600080fd5b60008381526010602052604090205483906001600160a01b0316331461278a57600080fd5b82600d858154811061279e5761279e61517c565b906000526020600020906009020160020154036127eb5760405162461bcd60e51b815260206004820152600b60248201526a73616d6520656e67696e6560a81b6044820152606401610f56565b60006127f633612890565b905060005b815181101561285f57848282815181106128175761281761517c565b6020026020010151604001510361284d57600082828151811061283c5761283c61517c565b602002602001015160400181815250505b8061285781615337565b9150506127fb565b5083600d86815481106128745761287461517c565b9060005260206000209060090201600201819055505050505050565b6001600160a01b0381166000908152601360205260408120546060919067ffffffffffffffff8111156128c5576128c5614e93565b6040519080825280602002602001820160405280156128fe57816020015b6128eb614a01565b8152602001906001900390816128e35790505b5090506000805b600d54811015611c5d576000818152601060205260409020546001600160a01b03808716911603612a7257600d81815481106129435761294361517c565b90600052602060002090600902016040518061012001604052908160008201805461296d90615350565b80601f016020809104026020016040519081016040528092919081815260200182805461299990615350565b80156129e65780601f106129bb576101008083540402835291602001916129e6565b820191906000526020600020905b8154815290600101906020018083116129c957829003601f168201915b5050509183525050600182015460208201526002820154604082015260038201546060820152600482015460ff166080820152600582015460a0820152600682015460c0820152600782015460e0820152600890910154610100909101528351849084908110612a5857612a5861517c565b60200260200101819052508180612a6e90615337565b9250505b80612a7c81615337565b915050612905565b336000908152602160205260409020548214612ad25760405162461bcd60e51b815260206004820152600d60248201526c6e6f7420796f757220726f6f6d60981b6044820152606401610f56565b600082815260256020526040808220600201549051634e31f59760e11b815290919073__PDDLib________________________________90639c63eb2e90612b20908590879060040161549c565b602060405180830381865af4158015612b3d573d6000803e3d6000fd5b505050506040513d601f19601f82011682018060405250810190612b6191906154ea565b604080516080810182523380825283151560208084019182524284860190815260009384526022825285842054606086019081528b855260258352958420600481018054600181810183558288529487208851600390920201805496511515600160a01b026001600160a81b03199097166001600160a01b03929092169190911795909517855591519284019290925594516002909201919091559088905280549254939450909290919003612d09576040518681527f67acaceb58ff1ad2aa8b3069f69c4cd076824e06a09184b75fb197ead7040be79060200160405180910390a16000868152602560209081526040808320600601805460ff191660011790553383526021825280832083905560229091528120819055805b600088815260256020526040902054811015612cf5576000888152602560205260409020600401805482908110612cb557612cb561517c565b6000918252602090912060039091020154600160a01b900460ff1615612ce35781612cdf81615337565b9250505b80612ced81615337565b915050612c7c565b5080600003612d075750505050505050565b505b505050505050565b60008181526011602052604090205481906001600160a01b03163314612d3657600080fd5b60008381526010602052604090205483906001600160a01b03163314612d5b57600080fd5b82600d8581548110612d6f57612d6f61517c565b90600052602060002090600902016002015414612dc75760405162461bcd60e51b8152602060048201526016602482015275195b99da5b99481a5cc81b9bdd08185d1d1858da195960521b6044820152606401610f56565b6000600d8581548110612ddc57612ddc61517c565b90600052602060002090600902016002018190555050505050565b6000612e01613dc0565b600b805460009182612e1283615337565b909155506040805160608101825282815261ffff8089166020830190815260ff808a16948401948552600e80546001810182556000918252945160029095027fbb7b4a454dc3493923482f07822329ed19e8244eff582cc204f8554c3620c3fd81019590955591517fbb7b4a454dc3493923482f07822329ed19e8244eff582cc204f8554c3620c3fe90940180549551909116620100000262ffffff19909516939092169290921792909217909155909150601490612ed96000546001600160a01b031690565b6001600160a01b0316815260208101919091526040016000908120805491612f0083615337565b9091555050600080548282526011602052604090912080546001600160a01b0319166001600160a01b039092169190911790558215612f5e576000818152601760205260408120849055600a805491612f5883615337565b91905055505b949350505050565b60008281526012602052604090205482906001600160a01b03163314612f9e5760405162461bcd60e51b8152600401610f569061514e565b60008211612fbe5760405162461bcd60e51b8152600401610f5690615475565b6000838152601860205260408120549003612fe95760098054906000612fe383615337565b91905055505b5060009182526018602052604090912055565b60008281526010602052604090205482906001600160a01b0316331461302157600080fd5b600082116130415760405162461bcd60e51b8152600401610f5690615475565b600083815260166020526040812054900361306c576008805490600061306683615337565b91905055505b5060009182526016602052604090912055565b60008181526012602052604090205481906001600160a01b031633146130b75760405162461bcd60e51b8152600401610f569061514e565b60008381526010602052604090205483906001600160a01b031633146130dc57600080fd5b82600d85815481106130f0576130f061517c565b9060005260206000209060090201600301540361313e5760405162461bcd60e51b815260206004820152600c60248201526b73616d65206368617373697360a01b6044820152606401610f56565b600061314933612890565b905060005b81518110156131b2578482828151811061316a5761316a61517c565b602002602001015160600151036131a057600082828151811061318f5761318f61517c565b602002602001015160600181815250505b806131aa81615337565b91505061314e565b5083600d86815481106131c7576131c761517c565b9060005260206000209060090201600301819055505050505050565b33600090815260136020526040902054156131fd57600080fd5b60008161320942614337565b60405160200161321a92919061550c565b604051602081830303815290604052905060008160405160200161323e9190615532565b6040516020818303038152906040528051906020012060001c905060006132636143ca565b9050600061326f6144fe565b600d80546040805161012081018252898152602080820189905291810187905260608101859052600160808201819052600060a0830181905260c0830181905260e083018190526101008301859052908401855593909352825180519495509193600985027fd7b6990105719101dabeb77144f2a3385c8033acd3af97e9423a695e81ad1eb50192613305928492910190614a50565b506020828101516001830155604080840151600284015560608401516003840155608084015160048401805460ff191660ff90921691909117905560a0840151600584015560c0840151600684015560e08401516007840155610100909301516008909201919091556000838152601082528281208054336001600160a01b03199091168117909155815260139091529081208054916133a483615337565b9190505550505050505050565b6133b9613dc0565b6001600160a01b03811661341e5760405162461bcd60e51b815260206004820152602660248201527f4f776e61626c653a206e6577206f776e657220697320746865207a65726f206160448201526564647265737360d01b6064820152608401610f56565b61342781613fbc565b50565b6026546001600160a01b031633146134845760405162461bcd60e51b815260206004820152601d60248201527f796f7520617265206e6f742063686173736973206f776e6572736869700000006044820152606401610f56565b6000818152601260205260409020546001600160a01b038481169116146134aa57600080fd5b61214c838383614632565b600d81815481106134c557600080fd5b90600052602060002090600902016000915090508060000180546134e890615350565b80601f016020809104026020016040519081016040528092919081815260200182805461351490615350565b80156135615780601f1061353657610100808354040283529160200191613561565b820191906000526020600020905b81548152906001019060200180831161354457829003601f168201915b50505060018401546002850154600386015460048701546005880154600689015460078a01546008909a01549899959894975092955060ff90911693909289565b60008281526011602052604090205482906001600160a01b031633146135c757600080fd5b601b54600e84815481106135dd576135dd61517c565b60009182526020909120600160029092020101546136029061ffff1660ff851661554e565b61ffff1661361091906151d4565b341461361b57600080fd5b600080546040516001600160a01b03909116913480156108fc02929091818181858888f19350505050158015613655573d6000803e3d6000fd5b508160ff16600e848154811061366d5761366d61517c565b600091825260208220600160029092020101805490919061369390849061ffff1661556f565b92506101000a81548161ffff021916908361ffff160217905550505050565b60008181526010602052604090205481906001600160a01b031633146136d757600080fd5b6000805b602454811015613a6257602481815481106136f8576136f861517c565b906000526020600020906006020160020154600a600d868154811061371f5761371f61517c565b6000918252602090912060046009909202010154613740919060ff16615231565b61374b906001615253565b60ff1603613a5057600191506024818154811061376a5761376a61517c565b60009182526020808320600690920290910154338352602182526040808420919091556022909152902084905560248054829081106137ab576137ab61517c565b6000918252602082206001600690920201018054916137c983615337565b9190505550602481815481106137e1576137e161517c565b906000526020600020906006020160030160000154602482815481106138095761380961517c565b90600052602060002090600602016001015403613a5057600073__PDDLib________________________________63c037e5456024848154811061384f5761384f61517c565b906000526020600020906006020160030160020154602485815481106138775761387761517c565b9060005260206000209060060201600301600001546040518363ffffffff1660e01b81526004016138b2929190918252602082015260400190565b602060405180830381865af41580156138cf573d6000803e3d6000fd5b505050506040513d601f19601f820116820180604052508101906138f3919061558c565b90506000602560006024858154811061390e5761390e61517c565b90600052602060002090600602016000015481526020019081526020016000209050602483815481106139435761394361517c565b60009182526020909120600360069092020101548155602480548490811061396d5761396d61517c565b6000918252602082206006918202016002908101546001850155830184905542600384015560058301919091558101805460ff19169055602480547f2838ebeee7dc83fac85a3d6dbca0c0b6771591ada8b00f97371aa6611e631f9c9190859081106139db576139db61517c565b600091825260209182902060069091020154604080519182529181018590520160405180910390a160248381548110613a1657613a1661517c565b600091825260208220600690910201818155600181018290556002810182905560038101829055600481018290556005015550613a629050565b80613a5a81615337565b9150506136db565b508015613a6e57505050565b6023805460009182613a7f83615337565b90915550601f54909150600090613a9690426155a5565b90508160216000336001600160a01b03166001600160a01b03168152602001908152602001600020819055506024604051806080016040528084815260200160018152602001600a600d8981548110613af157613af161517c565b6000918252602090912060046009909202010154613b12919060ff16615231565b613b1d906001615253565b60ff168152602001601f8481548110613b3857613b3861517c565b60009182526020808320604080516060808201835260039586029093018054825260018082015483870152600291820154838501529190975288548082018a5598865294839020875160069099020197885586830151948801949094558584015194870194909455939092015180519285019290925591810151600484015501516005909101555050505050565b613bce613dc0565b600086613bda42614337565b604051602001613beb92919061550c565b6040516020818303038152906040529050600081604051602001613c0f9190615532565b6040516020818303038152906040528051906020012060001c90506000613c3888886000612df7565b90506000613c478760006125e8565b600d805460408051610120810182528e815260208082018990529181018790526060810185905260ff8b166080820152600060a0820181905260c0820181905260e08201819052610100820184905260018401855593909352825180519495509193600985027fd7b6990105719101dabeb77144f2a3385c8033acd3af97e9423a695e81ad1eb50192613cde928492910190614a50565b506020828101516001830155604080840151600284015560608401516003840155608084015160048401805460ff90921660ff1990921691909117905560a0840151600584015560c0840151600684015560e0840151600784015561010090930151600890920191909155600080548482526010835283822080546001600160a01b0319166001600160a01b0392831617905581541681526013909152908120805491613d8a83615337565b909155505060008181526016602052604081208790556008805491613dae83615337565b91905055505050505050505050505050565b6000546001600160a01b03163314611c785760405162461bcd60e51b815260206004820181905260248201527f4f776e61626c653a2063616c6c6572206973206e6f7420746865206f776e65726044820152606401610f56565b6000828152601060205260408120548190613e3d906001600160a01b03166118ca565b9050613e4c81600001516147b4565b6000600d8581548110613e6157613e6161517c565b9060005260206000209060090201600201549050600060019050600a85600e8481548110613e9157613e9161517c565b906000526020600020906002020160010160029054906101000a900460ff16613eba91906152d1565b60ff1610613f0b57600a600e8381548110613ed757613ed761517c565b6000918252602090912060029091020160010154613efe9062010000900460ff16876152d1565b613f089190615231565b90505b8060ff166001846000015181548110613f2657613f2661517c565b600091825260209091206003909102016001015462010000900460ff1610613fb057806001846000015181548110613f6057613f6061517c565b906000526020600020906003020160010160028282829054906101000a900460ff16613f8c91906152ae565b92506101000a81548160ff021916908360ff1602179055506001935050505061273a565b6000935050505061273a565b600080546001600160a01b038381166001600160a01b0319831681178455604051919092169283917f8be0079c531659141344cd1fd0a4f28419497f9722a3daafe3b4186f6b6457e09190a35050565b6001600160a01b03831660009081526013602052604090205415158061403f57506000546001600160a01b038481169116145b6140815760405162461bcd60e51b815260206004820152601360248201527234ba1034b9903cb7bab9103630b9ba1031b0b960691b6044820152606401610f56565b600d81815481106140945761409461517c565b9060005260206000209060090201600301546000146140d8576000600d82815481106140c2576140c261517c565b9060005260206000209060090201600301819055505b600d81815481106140eb576140eb61517c565b90600052602060002090600902016002015460001461412f576000600d82815481106141195761411961517c565b9060005260206000209060090201600201819055505b6001600160a01b038216600090815260136020526040812080549161415383615337565b90915550506001600160a01b038316600090815260136020526040812080549161417c83615297565b9091555050600090815260106020908152604080832080546001600160a01b0319166001600160a01b039590951694909417909355601690529081205550565b6001600160a01b0383166000908152601460205260409020541515806141ef57506000546001600160a01b038481169116145b6142345760405162461bcd60e51b8152602060048201526016602482015275697420697320796f7572206c61737420656e67696e6560501b6044820152606401610f56565b600061423f84612890565b905060005b81518110156142a857828282815181106142605761426061517c565b602002602001015160400151036142965760008282815181106142855761428561517c565b602002602001015160400181815250505b806142a081615337565b915050614244565b506001600160a01b03831660009081526014602052604081208054916142cd83615337565b90915550506001600160a01b03841660009081526014602052604081208054916142f683615297565b909155505050600090815260116020908152604080832080546001600160a01b0319166001600160a01b039590951694909417909355601790529081205550565b6060600061434483614913565b600101905060008167ffffffffffffffff81111561436457614364614e93565b6040519080825280601f01601f19166020018201604052801561438e576020820181803683370190505b5090508181016020015b600019016f181899199a1a9b1b9c1cb0b131b232b360811b600a86061a8153600a850494508461439857509392505050565b6000806003546004546143dd91906155b9565b6143e790426155a5565b6003546143f4919061531f565b600b8054919250600091908261440983615337565b909155506040805160608101825282815261ffff808616602080840191825260055460ff908116858701908152600e80546001810182556000918252965160029097027fbb7b4a454dc3493923482f07822329ed19e8244eff582cc204f8554c3620c3fd81019790975593517fbb7b4a454dc3493923482f07822329ed19e8244eff582cc204f8554c3620c3fe90960180549151909216620100000262ffffff19909116959094169490941792909217909255338252601490529081208054929350906144d583615337565b9091555050600081815260116020526040902080546001600160a01b0319163317905592915050565b60008060065460075461451191906155b9565b61451b90426155a5565b600654614528919061531f565b600c8054919250600091908261453d83615337565b909155506040805160608101825282815263ffffffff8086166020808401828152848601928352600f80546001810182556000918252955160029096027f8d1108e10bcb7c27dddfc02ed9d693a074039d026cf4ea4240b40f7d581ac80281019690965590517f8d1108e10bcb7c27dddfc02ed9d693a074039d026cf4ea4240b40f7d581ac8039095018054935185166401000000000267ffffffffffffffff199094169590941694909417919091179091553382526015905290812080549293509061460983615337565b9091555050600081815260126020526040902080546001600160a01b0319163317905592915050565b6001600160a01b03831660009081526015602052604090205415158061466557506000546001600160a01b038481169116145b6146b15760405162461bcd60e51b815260206004820152601760248201527f697420697320796f7572206c61737420636861737369730000000000000000006044820152606401610f56565b6001600160a01b03821660009081526015602052604081208054916146d583615337565b90915550506001600160a01b03831660009081526015602052604081208054916146fe83615297565b9190505550600061470e84612890565b905060005b8151811015614777578282828151811061472f5761472f61517c565b602002602001015160600151036147655760008282815181106147545761475461517c565b602002602001015160600181815250505b8061476f81615337565b915050614713565b5050600090815260126020908152604080832080546001600160a01b0319166001600160a01b039590951694909417909355601890529081205550565b60004290506000610e10600184815481106147d1576147d161517c565b906000526020600020906003020160020154836147ee91906155b9565b6147f891906155d0565b905060006001848154811061480f5761480f61517c565b600091825260209091206003909102016001015461483590610100900460ff16836151d4565b600185815481106148485761484861517c565b600091825260209091206003909102016001015461486f919062010000900460ff1661531f565b90506148a8600185815481106148875761488761517c565b600091825260209091206001600390920201015460ff9081169083166149eb565b600185815481106148bb576148bb61517c565b906000526020600020906003020160010160026101000a81548160ff021916908360ff16021790555082600185815481106148f8576148f861517c565b90600052602060002090600302016002018190555050505050565b60008072184f03e93ff9f4daa797ed6e38ed64bf6a1f0160401b83106149525772184f03e93ff9f4daa797ed6e38ed64bf6a1f0160401b830492506040015b6d04ee2d6d415b85acef8100000000831061497e576d04ee2d6d415b85acef8100000000830492506020015b662386f26fc10000831061499c57662386f26fc10000830492506010015b6305f5e10083106149b4576305f5e100830492506008015b61271083106149c857612710830492506004015b606483106149da576064830492506002015b600a831061273a5760010192915050565b60008183106149fa5781612737565b5090919050565b60405180610120016040528060608152602001600081526020016000815260200160008152602001600060ff168152602001600081526020016000815260200160008152602001600081525090565b828054614a5c90615350565b90600052602060002090601f016020900481019282614a7e5760008555614ac4565b82601f10614a9757805160ff1916838001178555614ac4565b82800160010185558215614ac4579182015b82811115614ac4578251825591602001919060010190614aa9565b50614ad0929150614ad4565b5090565b5b80821115614ad05760008155600101614ad5565b600060208284031215614afb57600080fd5b5035919050565b803560ff81168114614b1357600080fd5b919050565b60008060408385031215614b2b57600080fd5b82359150614b3b60208401614b02565b90509250929050565b80356001600160a01b0381168114614b1357600080fd5b600080600060608486031215614b7057600080fd5b614b7984614b44565b9250614b8760208501614b44565b9150614b9560408501614b44565b90509250925092565b600060208284031215614bb057600080fd5b61273782614b44565b602080825282518282018190526000919060409081850190868401855b82811015614c1b57815180516001600160a01b031685528681015115158786015285810151868601526060908101519085015260809093019290850190600101614bd6565b5091979650505050505050565b602080825282518282018190526000919060409081850190868401855b82811015614c1b578151805185528681015161ffff168786015285015160ff168585015260609093019290850190600101614c45565b60008060408385031215614c8e57600080fd5b50508035926020909101359150565b602080825282518282018190526000919060409081850190868401855b82811015614c1b578151805185528681015163ffffffff9081168887015290860151168585015260609093019290850190600101614cba565b60005b83811015614d0e578181015183820152602001614cf6565b83811115614d1d576000848401525b50505050565b60008151808452614d3b816020860160208601614cf3565b601f01601f19169290920160200192915050565b60006020808301818452808551808352604092508286019150828160051b87010184880160005b83811015614e0b57603f1989840301855281516101208151818652614d9d82870182614d23565b915050888201518986015287820151888601526060808301518187015250608080830151614dcf8288018260ff169052565b505060a0828101519086015260c0808301519086015260e080830151908601526101009182015191909401529386019390860190600101614d76565b509098975050505050505050565b600080600060608486031215614e2e57600080fd5b614e3784614b44565b9250614e4560208501614b44565b9150604084013590509250925092565b803563ffffffff81168114614b1357600080fd5b60008060408385031215614e7c57600080fd5b614e8583614e55565b946020939093013593505050565b634e487b7160e01b600052604160045260246000fd5b604051601f8201601f1916810167ffffffffffffffff81118282101715614ed257614ed2614e93565b604052919050565b60008060408385031215614eed57600080fd5b8235915060208084013567ffffffffffffffff80821115614f0d57600080fd5b818601915086601f830112614f2157600080fd5b813581811115614f3357614f33614e93565b8060051b9150614f44848301614ea9565b8181529183018401918481019089841115614f5e57600080fd5b938501935b83851015614f7c57843582529385019390850190614f63565b8096505050505050509250929050565b803561ffff81168114614b1357600080fd5b600080600060608486031215614fb357600080fd5b614fbc84614f8c565b9250614e4560208501614b02565b600082601f830112614fdb57600080fd5b813567ffffffffffffffff811115614ff557614ff5614e93565b615008601f8201601f1916602001614ea9565b81815284602083860101111561501d57600080fd5b816020850160208301376000918101602001919091529392505050565b60006020828403121561504c57600080fd5b813567ffffffffffffffff81111561506357600080fd5b612f5e84828501614fca565b60006101208083526150838184018d614d23565b602084019b909b5250506040810197909752606087019590955260ff93909316608086015260a085019190915260c084015260e083015261010090910152919050565b60008060008060008060c087890312156150df57600080fd5b863567ffffffffffffffff8111156150f657600080fd5b61510289828a01614fca565b96505061511160208801614f8c565b945061511f60408801614b02565b935061512d60608801614e55565b925061513b60808801614b02565b915060a087013590509295509295509295565b6020808252601490820152730c6d0c2e6e6d2e640dcdee840f2deeae4407c74560631b604082015260600190565b634e487b7160e01b600052603260045260246000fd5b634e487b7160e01b600052601160045260246000fd5b600063ffffffff808316818516818304811182151516156151cb576151cb615192565b02949350505050565b60008160001904831182151516156151ee576151ee615192565b500290565b600063ffffffff80831681851680830382111561521257615212615192565b01949350505050565b634e487b7160e01b600052601260045260246000fd5b600060ff8316806152445761524461521b565b8060ff84160491505092915050565b600060ff821660ff84168060ff0382111561527057615270615192565b019392505050565b600060ff821660ff810361528e5761528e615192565b60010192915050565b6000816152a6576152a6615192565b506000190190565b600060ff821660ff8416808210156152c8576152c8615192565b90039392505050565b600060ff821660ff84168160ff04811182151516156152f2576152f2615192565b029392505050565b600063ffffffff8381169083168181101561531757615317615192565b039392505050565b6000821982111561533257615332615192565b500190565b60006001820161534957615349615192565b5060010190565b600181811c9082168061536457607f821691505b60208210810361538457634e487b7160e01b600052602260045260246000fd5b50919050565b600181815b808511156153c55781600019048211156153ab576153ab615192565b808516156153b857918102915b93841c939080029061538f565b509250929050565b6000826153dc5750600161273a565b816153e95750600061273a565b81600181146153ff576002811461540957615425565b600191505061273a565b60ff84111561541a5761541a615192565b50506001821b61273a565b5060208310610133831016604e8410600b8410161715615448575081810a61273a565b615452838361538a565b80600019048211156152f2576152f2615192565b600061273760ff8416836153cd565b6020808252600d908201526c696e76616c696420707269636560981b604082015260600190565b6000604082018483526020604081850152818551808452606086019150828701935060005b818110156154dd578451835293830193918301916001016154c1565b5090979650505050505050565b6000602082840312156154fc57600080fd5b8151801515811461273757600080fd5b6000835161551e818460208801614cf3565b835190830190615212818360208801614cf3565b60008251615544818460208701614cf3565b9190910192915050565b600061ffff808316818516818304811182151516156151cb576151cb615192565b600061ffff80831681851680830382111561521257615212615192565b60006020828403121561559e57600080fd5b5051919050565b6000826155b4576155b461521b565b500690565b6000828210156155cb576155cb615192565b500390565b6000826155df576155df61521b565b50049056fea2646970667358221220acdf05a6b53cd4683250d7245d63677fccf000c407bbf461ca117dc1cbe271b264736f6c634300080d0033",
  "immutableReferences": {},
  "source": "// SPDX-License-Identifier: MIT\npragma solidity ^0.8.13;\n\nimport \"./CarRacing.sol\";\n\ncontract TokenOwnership is CarRacing{\n\n\n    address chassisOwnership;\n    address engineOwnership;\n    address carOwnership;\n\n    function init(address _chassisOwnership, address _engineOwnership, address _carOwnership) public onlyOwner{\n        chassisOwnership = _chassisOwnership;\n        engineOwnership = _engineOwnership;\n        carOwnership = _carOwnership;\n    }\n\n    function balanceOfCars(address _owner) external view returns (uint256) {\n        return ownerCarCount[_owner];\n    }\n    function ownerOfCar(uint256 _tokenId) external view returns(address) {\n        return carToOwner[_tokenId];\n    }\n    function _transferCar(address _from, address _to, uint256 _tokenId) private {\n        require(ownerCarCount[_from]>0 || _from==owner(), \"it is your last car\");\n\n        if(cars[_tokenId].chassisId != 0){\n            cars[_tokenId].chassisId = 0;\n        }\n        if(cars[_tokenId].engineId != 0){\n            cars[_tokenId].engineId = 0;\n        }\n        ownerCarCount[_to]++;// = ownerCarCount[_to].add(1);\n        ownerCarCount[_from]--;// = ownerCarCount[_from].sub(1);\n        carToOwner[_tokenId] = _to;\n        delete carToPrice[_tokenId];\n    }\n    function transferCarFrom(address _from, address _to, uint256 _tokenId) external payable {\n        require(msg.sender == carOwnership, \"you are not car ownership\");\n        require (carToOwner[_tokenId] == _from || carToPrice[_tokenId] != 0);\n        _transferCar(_from, _to, _tokenId);\n    }\n\n\n    function balanceOfEngines(address _owner) external view returns (uint256) {\n        return ownerEngineCount[_owner];\n    }\n    function ownerOfEngine(uint256 _tokenId) external view returns(address) {\n        return engineToOwner[_tokenId];\n    }\n    function _transferEngine(address _from, address _to, uint256 _tokenId) private {\n        require(ownerEngineCount[_from]>0 || _from==owner(), \"it is your last engine\");\n\n        Car[] memory cars = getCarsByOwner(_from);\n        \n        for(uint i = 0; i<cars.length; i++){\n            if(cars[i].engineId == _tokenId){\n                cars[i].engineId = 0;\n            }\n        }\n        ownerEngineCount[_to]++;// = ownerEngineCount[_to].add(1);\n        ownerEngineCount[_from]--;// = ownerEngineCount[_from].sub(1);\n        engineToOwner[_tokenId] = _to;\n        \n        delete engineToPrice[_tokenId];\n    }\n    function transferEngineFrom(address _from, address _to, uint256 _tokenId) external payable {\n        require(msg.sender == engineOwnership, \"you are not engine ownership\");\n        require (engineToOwner[_tokenId] == _from);\n        _transferEngine(_from, _to, _tokenId);\n    }\n\n    \n    function balanceOfChassis(address _owner) external view returns (uint256) {\n        return ownerChassisCount[_owner];\n    }\n    function ownerOfChassis(uint256 _tokenId) external view returns(address) {\n        return chassisToOwner[_tokenId];\n    }\n    function _transferChassis(address _from, address _to, uint256 _tokenId) private {\n        require(ownerChassisCount[_from]>0 || _from==owner(), \"it is your last chassis\");\n\n        ownerChassisCount[_to]++;// = ownerChassisCount[_to].add(1);\n        ownerChassisCount[_from]--;// = ownerChassisCount[_from].sub(1);\n        Car[] memory cars = getCarsByOwner(_from);\n        for(uint i = 0; i<cars.length; i++){\n            if(cars[i].chassisId == _tokenId){\n                cars[i].chassisId = 0;\n            }\n        }\n        chassisToOwner[_tokenId] = _to;\n\n        delete chassisToPrice[_tokenId];\n    }\n    function transferChassisFrom(address _from, address _to, uint256 _tokenId) external {\n        require(msg.sender == chassisOwnership, \"you are not chassis ownership\");\n        require (chassisToOwner[_tokenId] == _from);\n        _transferChassis(_from, _to, _tokenId);\n    }\n\n\n    function putChassisOnMarketplace(uint chassisId, uint price) public onlyOwnerOfChassis(chassisId){\n        require(price>0, \"invalid price\");\n        if(chassisToPrice[chassisId]==0){\n            chassisForSaleCount++;\n        }\n        chassisToPrice[chassisId] = price;\n    }\n    function removeChassisFromMarketplace(uint chassisId) public onlyOwnerOfChassis(chassisId){\n        if(chassisToPrice[chassisId]!=0){\n            chassisForSaleCount--;\n        }\n        chassisToPrice[chassisId] = 0;\n    }\n\n    function putEngineOnMarketplace(uint engineId, uint price) public onlyOwnerOfEngine(engineId){\n        require(price>0, \"invalid price\");\n        if(engineToPrice[engineId]==0){\n            enginesForSaleCount++;\n        }\n        engineToPrice[engineId] = price;\n    }\n    function removeEngineFromMarketplace(uint engineId) public onlyOwnerOfEngine(engineId){\n        if(engineToPrice[engineId]!=0){\n            enginesForSaleCount--;\n        }\n        engineToPrice[engineId] = 0;\n    }\n\n    function putCarOnMarketplace(uint carId, uint price) public onlyOwnerOfCar(carId){\n        require(price>0, \"invalid price\");\n        if(carToPrice[carId]==0){\n            carsForSaleCount++;\n        }\n        carToPrice[carId] = price;\n    }\n    function removeCarFromMarketplace(uint carId) public onlyOwnerOfCar(carId){\n        if(carToPrice[carId]!=0){\n            carsForSaleCount--;\n        }\n        carToPrice[carId] = 0;\n    }\n\n\n    function getCarsForSale() public view returns(Car[] memory){\n        Car[] memory res = new Car[](carsForSaleCount);\n        uint c = 0;\n        for(uint i = 0; i<cars.length; i++){\n            if(carToPrice[i]!=0){\n                res[c++] = cars[i];\n            }\n        }\n        return res;\n    }\n\n    function getEnginesForSale() public view returns(Engine[] memory){\n        Engine[] memory res = new Engine[](enginesForSaleCount);\n        uint c = 0;\n        for(uint i = 1; i<=engines.length; i++){\n            if(engineToPrice[i]!=0){\n                res[c++] = engines[i];\n            }\n        }\n        return res;\n    }\n\n    function getChassisForSale() public view returns(Chassis[] memory){\n        Chassis[] memory res = new Chassis[](chassisForSaleCount);\n        uint c = 0;\n        for(uint i = 1; i<=chassis.length; i++){\n            if(chassisToPrice[i]!=0){\n                res[c++] = chassis[i];\n            }\n        }\n        return res;\n    }\n\n}",
  "sourcePath": "/Users/vvan/Programming/JavaScript/DriveSafely/contract/contracts/TokenOwnership.sol",
  "compiler": {
    "name": "solc",
    "version": "0.8.13+commit.abaa5c0e.Emscripten.clang"
  },
  "schemaVersion": "3.4.11",
  "updatedAt": "2023-01-12T05:49:46.596Z",
  "networkType": "ethereum",
  "devdoc": {
    "kind": "dev",
    "methods": {
      "owner()": {
        "details": "Returns the address of the current owner."
      },
      "renounceOwnership()": {
        "details": "Leaves the contract without owner. It will not be possible to call `onlyOwner` functions anymore. Can only be called by the current owner. NOTE: Renouncing ownership will leave the contract without an owner, thereby removing any functionality that is only available to the owner."
      },
      "transferOwnership(address)": {
        "details": "Transfers ownership of the contract to a new account (`newOwner`). Can only be called by the current owner."
      }
    },
    "version": 1
  },
  "userdoc": {
    "kind": "user",
    "methods": {},
    "version": 1
  }
}