{
  "contractName": "TokenOwnership",
  "abi": [
    {
      "inputs": [
        {
          "internalType": "address",
          "name": "_chassisOwnership",
          "type": "address"
        },
        {
          "internalType": "address",
          "name": "_engineOwnership",
          "type": "address"
        },
        {
          "internalType": "address",
          "name": "_carOwnership",
          "type": "address"
        }
      ],
      "stateMutability": "nonpayable",
      "type": "constructor"
    },
    {
      "anonymous": false,
      "inputs": [
        {
          "indexed": true,
          "internalType": "address",
          "name": "previousOwner",
          "type": "address"
        },
        {
          "indexed": true,
          "internalType": "address",
          "name": "newOwner",
          "type": "address"
        }
      ],
      "name": "OwnershipTransferred",
      "type": "event"
    },
    {
      "anonymous": false,
      "inputs": [
        {
          "indexed": false,
          "internalType": "uint256",
          "name": "roomId",
          "type": "uint256"
        }
      ],
      "name": "RoomClosed",
      "type": "event"
    },
    {
      "anonymous": false,
      "inputs": [
        {
          "indexed": false,
          "internalType": "uint256",
          "name": "roomId",
          "type": "uint256"
        },
        {
          "indexed": false,
          "internalType": "uint256",
          "name": "roomDNA",
          "type": "uint256"
        }
      ],
      "name": "RoomFull",
      "type": "event"
    },
    {
      "inputs": [
        {
          "internalType": "uint256",
          "name": "",
          "type": "uint256"
        }
      ],
      "name": "carToOwner",
      "outputs": [
        {
          "internalType": "address",
          "name": "",
          "type": "address"
        }
      ],
      "stateMutability": "view",
      "type": "function",
      "constant": true
    },
    {
      "inputs": [
        {
          "internalType": "uint256",
          "name": "",
          "type": "uint256"
        }
      ],
      "name": "carToPrice",
      "outputs": [
        {
          "internalType": "uint256",
          "name": "",
          "type": "uint256"
        }
      ],
      "stateMutability": "view",
      "type": "function",
      "constant": true
    },
    {
      "inputs": [
        {
          "internalType": "uint256",
          "name": "",
          "type": "uint256"
        }
      ],
      "name": "cars",
      "outputs": [
        {
          "internalType": "string",
          "name": "model",
          "type": "string"
        },
        {
          "internalType": "uint256",
          "name": "vin",
          "type": "uint256"
        },
        {
          "internalType": "uint256",
          "name": "engineId",
          "type": "uint256"
        },
        {
          "internalType": "uint256",
          "name": "chassisId",
          "type": "uint256"
        },
        {
          "internalType": "uint8",
          "name": "carLevel",
          "type": "uint8"
        },
        {
          "internalType": "uint256",
          "name": "mileage",
          "type": "uint256"
        },
        {
          "internalType": "uint256",
          "name": "winCountOnCurrentLevel",
          "type": "uint256"
        },
        {
          "internalType": "uint256",
          "name": "lossCountOnCurrentLevel",
          "type": "uint256"
        },
        {
          "internalType": "uint256",
          "name": "id",
          "type": "uint256"
        }
      ],
      "stateMutability": "view",
      "type": "function",
      "constant": true
    },
    {
      "inputs": [
        {
          "internalType": "uint256",
          "name": "",
          "type": "uint256"
        }
      ],
      "name": "chassis",
      "outputs": [
        {
          "internalType": "uint256",
          "name": "id",
          "type": "uint256"
        },
        {
          "internalType": "uint32",
          "name": "durability",
          "type": "uint32"
        },
        {
          "internalType": "uint32",
          "name": "resource",
          "type": "uint32"
        }
      ],
      "stateMutability": "view",
      "type": "function",
      "constant": true
    },
    {
      "inputs": [
        {
          "internalType": "uint256",
          "name": "",
          "type": "uint256"
        }
      ],
      "name": "chassisToOwner",
      "outputs": [
        {
          "internalType": "address",
          "name": "",
          "type": "address"
        }
      ],
      "stateMutability": "view",
      "type": "function",
      "constant": true
    },
    {
      "inputs": [
        {
          "internalType": "uint256",
          "name": "",
          "type": "uint256"
        }
      ],
      "name": "chassisToPrice",
      "outputs": [
        {
          "internalType": "uint256",
          "name": "",
          "type": "uint256"
        }
      ],
      "stateMutability": "view",
      "type": "function",
      "constant": true
    },
    {
      "inputs": [
        {
          "internalType": "uint256",
          "name": "roomId",
          "type": "uint256"
        },
        {
          "internalType": "uint256[]",
          "name": "answer",
          "type": "uint256[]"
        }
      ],
      "name": "commitAnswer",
      "outputs": [],
      "stateMutability": "nonpayable",
      "type": "function"
    },
    {
      "inputs": [
        {
          "internalType": "string",
          "name": "model",
          "type": "string"
        }
      ],
      "name": "createCar",
      "outputs": [],
      "stateMutability": "nonpayable",
      "type": "function"
    },
    {
      "inputs": [
        {
          "internalType": "string",
          "name": "_model",
          "type": "string"
        },
        {
          "internalType": "uint16",
          "name": "_horsePowers",
          "type": "uint16"
        },
        {
          "internalType": "uint8",
          "name": "_consumtion",
          "type": "uint8"
        },
        {
          "internalType": "uint32",
          "name": "_durability",
          "type": "uint32"
        },
        {
          "internalType": "uint8",
          "name": "_carLevel",
          "type": "uint8"
        },
        {
          "internalType": "uint256",
          "name": "_carPrice",
          "type": "uint256"
        }
      ],
      "name": "createCustomCar",
      "outputs": [],
      "stateMutability": "nonpayable",
      "type": "function"
    },
    {
      "inputs": [
        {
          "internalType": "uint32",
          "name": "_durability",
          "type": "uint32"
        },
        {
          "internalType": "uint256",
          "name": "_chassisPrice",
          "type": "uint256"
        }
      ],
      "name": "createCustomChassis",
      "outputs": [
        {
          "internalType": "uint256",
          "name": "",
          "type": "uint256"
        }
      ],
      "stateMutability": "nonpayable",
      "type": "function"
    },
    {
      "inputs": [
        {
          "internalType": "uint16",
          "name": "_horsePowers",
          "type": "uint16"
        },
        {
          "internalType": "uint8",
          "name": "_consumtion",
          "type": "uint8"
        },
        {
          "internalType": "uint256",
          "name": "_enginePrice",
          "type": "uint256"
        }
      ],
      "name": "createCustomEngine",
      "outputs": [
        {
          "internalType": "uint256",
          "name": "",
          "type": "uint256"
        }
      ],
      "stateMutability": "nonpayable",
      "type": "function"
    },
    {
      "inputs": [],
      "name": "createFuelStation",
      "outputs": [],
      "stateMutability": "nonpayable",
      "type": "function"
    },
    {
      "inputs": [
        {
          "internalType": "uint256",
          "name": "carId",
          "type": "uint256"
        },
        {
          "internalType": "uint256",
          "name": "chassisId",
          "type": "uint256"
        }
      ],
      "name": "detachChassis",
      "outputs": [],
      "stateMutability": "nonpayable",
      "type": "function"
    },
    {
      "inputs": [
        {
          "internalType": "uint256",
          "name": "carId",
          "type": "uint256"
        },
        {
          "internalType": "uint256",
          "name": "engineId",
          "type": "uint256"
        }
      ],
      "name": "detachEngine",
      "outputs": [],
      "stateMutability": "nonpayable",
      "type": "function"
    },
    {
      "inputs": [
        {
          "internalType": "uint256",
          "name": "",
          "type": "uint256"
        }
      ],
      "name": "engineToOwner",
      "outputs": [
        {
          "internalType": "address",
          "name": "",
          "type": "address"
        }
      ],
      "stateMutability": "view",
      "type": "function",
      "constant": true
    },
    {
      "inputs": [
        {
          "internalType": "uint256",
          "name": "",
          "type": "uint256"
        }
      ],
      "name": "engineToPrice",
      "outputs": [
        {
          "internalType": "uint256",
          "name": "",
          "type": "uint256"
        }
      ],
      "stateMutability": "view",
      "type": "function",
      "constant": true
    },
    {
      "inputs": [
        {
          "internalType": "uint256",
          "name": "",
          "type": "uint256"
        }
      ],
      "name": "engines",
      "outputs": [
        {
          "internalType": "uint256",
          "name": "id",
          "type": "uint256"
        },
        {
          "internalType": "uint16",
          "name": "horsePowers",
          "type": "uint16"
        },
        {
          "internalType": "uint8",
          "name": "consumtion",
          "type": "uint8"
        }
      ],
      "stateMutability": "view",
      "type": "function",
      "constant": true
    },
    {
      "inputs": [
        {
          "internalType": "uint256",
          "name": "carId",
          "type": "uint256"
        }
      ],
      "name": "findRoom",
      "outputs": [],
      "stateMutability": "nonpayable",
      "type": "function"
    },
    {
      "inputs": [
        {
          "internalType": "uint256",
          "name": "",
          "type": "uint256"
        }
      ],
      "name": "fuelStationToOwner",
      "outputs": [
        {
          "internalType": "address",
          "name": "",
          "type": "address"
        }
      ],
      "stateMutability": "view",
      "type": "function",
      "constant": true
    },
    {
      "inputs": [
        {
          "internalType": "address",
          "name": "_owner",
          "type": "address"
        }
      ],
      "name": "getCarsByOwner",
      "outputs": [
        {
          "components": [
            {
              "internalType": "string",
              "name": "model",
              "type": "string"
            },
            {
              "internalType": "uint256",
              "name": "vin",
              "type": "uint256"
            },
            {
              "internalType": "uint256",
              "name": "engineId",
              "type": "uint256"
            },
            {
              "internalType": "uint256",
              "name": "chassisId",
              "type": "uint256"
            },
            {
              "internalType": "uint8",
              "name": "carLevel",
              "type": "uint8"
            },
            {
              "internalType": "uint256",
              "name": "mileage",
              "type": "uint256"
            },
            {
              "internalType": "uint256",
              "name": "winCountOnCurrentLevel",
              "type": "uint256"
            },
            {
              "internalType": "uint256",
              "name": "lossCountOnCurrentLevel",
              "type": "uint256"
            },
            {
              "internalType": "uint256",
              "name": "id",
              "type": "uint256"
            }
          ],
          "internalType": "struct CarFactory.Car[]",
          "name": "",
          "type": "tuple[]"
        }
      ],
      "stateMutability": "view",
      "type": "function",
      "constant": true
    },
    {
      "inputs": [
        {
          "internalType": "address",
          "name": "_owner",
          "type": "address"
        }
      ],
      "name": "getChassisByOwner",
      "outputs": [
        {
          "components": [
            {
              "internalType": "uint256",
              "name": "id",
              "type": "uint256"
            },
            {
              "internalType": "uint32",
              "name": "durability",
              "type": "uint32"
            },
            {
              "internalType": "uint32",
              "name": "resource",
              "type": "uint32"
            }
          ],
          "internalType": "struct CarFactory.Chassis[]",
          "name": "",
          "type": "tuple[]"
        }
      ],
      "stateMutability": "view",
      "type": "function",
      "constant": true
    },
    {
      "inputs": [
        {
          "internalType": "uint256",
          "name": "roomId",
          "type": "uint256"
        }
      ],
      "name": "getClosedRoom",
      "outputs": [
        {
          "components": [
            {
              "internalType": "address",
              "name": "player",
              "type": "address"
            },
            {
              "internalType": "bool",
              "name": "correct",
              "type": "bool"
            },
            {
              "internalType": "uint256",
              "name": "time",
              "type": "uint256"
            },
            {
              "internalType": "uint256",
              "name": "carId",
              "type": "uint256"
            }
          ],
          "internalType": "struct RaceHandler.Answer[]",
          "name": "",
          "type": "tuple[]"
        }
      ],
      "stateMutability": "view",
      "type": "function",
      "constant": true
    },
    {
      "inputs": [
        {
          "internalType": "address",
          "name": "_owner",
          "type": "address"
        }
      ],
      "name": "getEnginesByOwner",
      "outputs": [
        {
          "components": [
            {
              "internalType": "uint256",
              "name": "id",
              "type": "uint256"
            },
            {
              "internalType": "uint16",
              "name": "horsePowers",
              "type": "uint16"
            },
            {
              "internalType": "uint8",
              "name": "consumtion",
              "type": "uint8"
            }
          ],
          "internalType": "struct CarFactory.Engine[]",
          "name": "",
          "type": "tuple[]"
        }
      ],
      "stateMutability": "view",
      "type": "function",
      "constant": true
    },
    {
      "inputs": [
        {
          "internalType": "address",
          "name": "_owner",
          "type": "address"
        }
      ],
      "name": "getFuelStationByOwner",
      "outputs": [
        {
          "components": [
            {
              "internalType": "uint256",
              "name": "id",
              "type": "uint256"
            },
            {
              "internalType": "uint8",
              "name": "capacity",
              "type": "uint8"
            },
            {
              "internalType": "uint8",
              "name": "productionPerHour",
              "type": "uint8"
            },
            {
              "internalType": "uint8",
              "name": "currentFullness",
              "type": "uint8"
            },
            {
              "internalType": "uint256",
              "name": "lastUpdate",
              "type": "uint256"
            }
          ],
          "internalType": "struct FuelStationFactory.FuelStation",
          "name": "",
          "type": "tuple"
        }
      ],
      "stateMutability": "view",
      "type": "function",
      "constant": true
    },
    {
      "inputs": [
        {
          "internalType": "uint256",
          "name": "",
          "type": "uint256"
        }
      ],
      "name": "idToStartedRooms",
      "outputs": [
        {
          "internalType": "uint256",
          "name": "numberPlayers",
          "type": "uint256"
        },
        {
          "internalType": "uint256",
          "name": "world",
          "type": "uint256"
        },
        {
          "internalType": "uint256",
          "name": "roomDNA",
          "type": "uint256"
        },
        {
          "internalType": "uint256",
          "name": "startTime",
          "type": "uint256"
        },
        {
          "internalType": "uint256",
          "name": "curAnswer",
          "type": "uint256"
        },
        {
          "internalType": "bool",
          "name": "closed",
          "type": "bool"
        }
      ],
      "stateMutability": "view",
      "type": "function",
      "constant": true
    },
    {
      "inputs": [
        {
          "internalType": "uint256",
          "name": "_carId",
          "type": "uint256"
        }
      ],
      "name": "levelUp",
      "outputs": [],
      "stateMutability": "payable",
      "type": "function",
      "payable": true
    },
    {
      "inputs": [
        {
          "internalType": "uint256",
          "name": "",
          "type": "uint256"
        }
      ],
      "name": "openedRooms",
      "outputs": [
        {
          "internalType": "uint256",
          "name": "id",
          "type": "uint256"
        },
        {
          "internalType": "uint256",
          "name": "playersEntered",
          "type": "uint256"
        },
        {
          "internalType": "uint256",
          "name": "world",
          "type": "uint256"
        },
        {
          "components": [
            {
              "internalType": "uint256",
              "name": "playersNeeded",
              "type": "uint256"
            },
            {
              "internalType": "uint256",
              "name": "roadsNum",
              "type": "uint256"
            },
            {
              "internalType": "uint256",
              "name": "crossId",
              "type": "uint256"
            }
          ],
          "internalType": "struct RaceHandler.Cross",
          "name": "cross",
          "type": "tuple"
        }
      ],
      "stateMutability": "view",
      "type": "function",
      "constant": true
    },
    {
      "inputs": [],
      "name": "owner",
      "outputs": [
        {
          "internalType": "address",
          "name": "",
          "type": "address"
        }
      ],
      "stateMutability": "view",
      "type": "function",
      "constant": true
    },
    {
      "inputs": [
        {
          "internalType": "address",
          "name": "",
          "type": "address"
        }
      ],
      "name": "ownerCarCount",
      "outputs": [
        {
          "internalType": "uint256",
          "name": "",
          "type": "uint256"
        }
      ],
      "stateMutability": "view",
      "type": "function",
      "constant": true
    },
    {
      "inputs": [
        {
          "internalType": "address",
          "name": "",
          "type": "address"
        }
      ],
      "name": "ownerChassisCount",
      "outputs": [
        {
          "internalType": "uint256",
          "name": "",
          "type": "uint256"
        }
      ],
      "stateMutability": "view",
      "type": "function",
      "constant": true
    },
    {
      "inputs": [
        {
          "internalType": "address",
          "name": "",
          "type": "address"
        }
      ],
      "name": "ownerEngineCount",
      "outputs": [
        {
          "internalType": "uint256",
          "name": "",
          "type": "uint256"
        }
      ],
      "stateMutability": "view",
      "type": "function",
      "constant": true
    },
    {
      "inputs": [],
      "name": "renounceOwnership",
      "outputs": [],
      "stateMutability": "nonpayable",
      "type": "function"
    },
    {
      "inputs": [
        {
          "internalType": "uint256",
          "name": "_carId",
          "type": "uint256"
        }
      ],
      "name": "startRace",
      "outputs": [],
      "stateMutability": "nonpayable",
      "type": "function"
    },
    {
      "inputs": [
        {
          "internalType": "uint256",
          "name": "",
          "type": "uint256"
        }
      ],
      "name": "stations",
      "outputs": [
        {
          "internalType": "uint256",
          "name": "id",
          "type": "uint256"
        },
        {
          "internalType": "uint8",
          "name": "capacity",
          "type": "uint8"
        },
        {
          "internalType": "uint8",
          "name": "productionPerHour",
          "type": "uint8"
        },
        {
          "internalType": "uint8",
          "name": "currentFullness",
          "type": "uint8"
        },
        {
          "internalType": "uint256",
          "name": "lastUpdate",
          "type": "uint256"
        }
      ],
      "stateMutability": "view",
      "type": "function",
      "constant": true
    },
    {
      "inputs": [
        {
          "internalType": "uint256",
          "name": "carId",
          "type": "uint256"
        },
        {
          "internalType": "uint256",
          "name": "chassisId",
          "type": "uint256"
        }
      ],
      "name": "switchChassis",
      "outputs": [],
      "stateMutability": "nonpayable",
      "type": "function"
    },
    {
      "inputs": [
        {
          "internalType": "uint256",
          "name": "carId",
          "type": "uint256"
        },
        {
          "internalType": "uint256",
          "name": "engineId",
          "type": "uint256"
        }
      ],
      "name": "switchEngine",
      "outputs": [],
      "stateMutability": "nonpayable",
      "type": "function"
    },
    {
      "inputs": [
        {
          "internalType": "address",
          "name": "newOwner",
          "type": "address"
        }
      ],
      "name": "transferOwnership",
      "outputs": [],
      "stateMutability": "nonpayable",
      "type": "function"
    },
    {
      "inputs": [
        {
          "internalType": "uint256",
          "name": "_fuelStatonId",
          "type": "uint256"
        },
        {
          "internalType": "uint8",
          "name": "_counts",
          "type": "uint8"
        }
      ],
      "name": "upgradeCapacity",
      "outputs": [],
      "stateMutability": "payable",
      "type": "function",
      "payable": true
    },
    {
      "inputs": [
        {
          "internalType": "uint256",
          "name": "_engineId",
          "type": "uint256"
        },
        {
          "internalType": "uint8",
          "name": "_counts",
          "type": "uint8"
        }
      ],
      "name": "upgradeConsumtion",
      "outputs": [],
      "stateMutability": "payable",
      "type": "function",
      "payable": true
    },
    {
      "inputs": [
        {
          "internalType": "uint256",
          "name": "_chassisId",
          "type": "uint256"
        },
        {
          "internalType": "uint8",
          "name": "_counts",
          "type": "uint8"
        }
      ],
      "name": "upgradeDurability",
      "outputs": [],
      "stateMutability": "payable",
      "type": "function",
      "payable": true
    },
    {
      "inputs": [
        {
          "internalType": "uint256",
          "name": "_engineId",
          "type": "uint256"
        },
        {
          "internalType": "uint8",
          "name": "_counts",
          "type": "uint8"
        }
      ],
      "name": "upgradeHorsePowers",
      "outputs": [],
      "stateMutability": "payable",
      "type": "function",
      "payable": true
    },
    {
      "inputs": [
        {
          "internalType": "uint256",
          "name": "_fuelStatonId",
          "type": "uint256"
        },
        {
          "internalType": "uint8",
          "name": "_counts",
          "type": "uint8"
        }
      ],
      "name": "upgradeProductionPerHour",
      "outputs": [],
      "stateMutability": "payable",
      "type": "function",
      "payable": true
    },
    {
      "inputs": [
        {
          "internalType": "address",
          "name": "_owner",
          "type": "address"
        }
      ],
      "name": "balanceOfCars",
      "outputs": [
        {
          "internalType": "uint256",
          "name": "",
          "type": "uint256"
        }
      ],
      "stateMutability": "view",
      "type": "function",
      "constant": true
    },
    {
      "inputs": [
        {
          "internalType": "uint256",
          "name": "_tokenId",
          "type": "uint256"
        }
      ],
      "name": "ownerOfCar",
      "outputs": [
        {
          "internalType": "address",
          "name": "",
          "type": "address"
        }
      ],
      "stateMutability": "view",
      "type": "function",
      "constant": true
    },
    {
      "inputs": [
        {
          "internalType": "address",
          "name": "_from",
          "type": "address"
        },
        {
          "internalType": "address",
          "name": "_to",
          "type": "address"
        },
        {
          "internalType": "uint256",
          "name": "_tokenId",
          "type": "uint256"
        }
      ],
      "name": "transferCarFrom",
      "outputs": [],
      "stateMutability": "payable",
      "type": "function",
      "payable": true
    },
    {
      "inputs": [
        {
          "internalType": "address",
          "name": "_owner",
          "type": "address"
        }
      ],
      "name": "balanceOfEngines",
      "outputs": [
        {
          "internalType": "uint256",
          "name": "",
          "type": "uint256"
        }
      ],
      "stateMutability": "view",
      "type": "function",
      "constant": true
    },
    {
      "inputs": [
        {
          "internalType": "uint256",
          "name": "_tokenId",
          "type": "uint256"
        }
      ],
      "name": "ownerOfEngine",
      "outputs": [
        {
          "internalType": "address",
          "name": "",
          "type": "address"
        }
      ],
      "stateMutability": "view",
      "type": "function",
      "constant": true
    },
    {
      "inputs": [
        {
          "internalType": "address",
          "name": "_from",
          "type": "address"
        },
        {
          "internalType": "address",
          "name": "_to",
          "type": "address"
        },
        {
          "internalType": "uint256",
          "name": "_tokenId",
          "type": "uint256"
        }
      ],
      "name": "transferEngineFrom",
      "outputs": [],
      "stateMutability": "payable",
      "type": "function",
      "payable": true
    },
    {
      "inputs": [
        {
          "internalType": "address",
          "name": "_owner",
          "type": "address"
        }
      ],
      "name": "balanceOfChassis",
      "outputs": [
        {
          "internalType": "uint256",
          "name": "",
          "type": "uint256"
        }
      ],
      "stateMutability": "view",
      "type": "function",
      "constant": true
    },
    {
      "inputs": [
        {
          "internalType": "uint256",
          "name": "_tokenId",
          "type": "uint256"
        }
      ],
      "name": "ownerOfChassis",
      "outputs": [
        {
          "internalType": "address",
          "name": "",
          "type": "address"
        }
      ],
      "stateMutability": "view",
      "type": "function",
      "constant": true
    },
    {
      "inputs": [
        {
          "internalType": "address",
          "name": "_from",
          "type": "address"
        },
        {
          "internalType": "address",
          "name": "_to",
          "type": "address"
        },
        {
          "internalType": "uint256",
          "name": "_tokenId",
          "type": "uint256"
        }
      ],
      "name": "transferChassisFrom",
      "outputs": [],
      "stateMutability": "nonpayable",
      "type": "function"
    },
    {
      "inputs": [
        {
          "internalType": "uint256",
          "name": "chassisId",
          "type": "uint256"
        },
        {
          "internalType": "uint256",
          "name": "price",
          "type": "uint256"
        }
      ],
      "name": "putChassisOnMarketplace",
      "outputs": [],
      "stateMutability": "nonpayable",
      "type": "function"
    },
    {
      "inputs": [
        {
          "internalType": "uint256",
          "name": "chassisId",
          "type": "uint256"
        }
      ],
      "name": "removeChassisFromMarketplace",
      "outputs": [],
      "stateMutability": "nonpayable",
      "type": "function"
    },
    {
      "inputs": [
        {
          "internalType": "uint256",
          "name": "engineId",
          "type": "uint256"
        },
        {
          "internalType": "uint256",
          "name": "price",
          "type": "uint256"
        }
      ],
      "name": "putEngineOnMarketplace",
      "outputs": [],
      "stateMutability": "nonpayable",
      "type": "function"
    },
    {
      "inputs": [
        {
          "internalType": "uint256",
          "name": "engineId",
          "type": "uint256"
        }
      ],
      "name": "removeEngineFromMarketplace",
      "outputs": [],
      "stateMutability": "nonpayable",
      "type": "function"
    },
    {
      "inputs": [
        {
          "internalType": "uint256",
          "name": "carId",
          "type": "uint256"
        },
        {
          "internalType": "uint256",
          "name": "price",
          "type": "uint256"
        }
      ],
      "name": "putCarOnMarketplace",
      "outputs": [],
      "stateMutability": "nonpayable",
      "type": "function"
    },
    {
      "inputs": [
        {
          "internalType": "uint256",
          "name": "carId",
          "type": "uint256"
        }
      ],
      "name": "removeCarFromMarketplace",
      "outputs": [],
      "stateMutability": "nonpayable",
      "type": "function"
    }
  ],
  "bytecode": "0x60806040526000805461ffff60a01b191661014f60a21b179055600160088190556009556509184e72a00060165565b5e620f48000601755650da475abf0006018556611c37937e080006019556305f5e100601a5566038d7ea4c68000601b553480156200006c57600080fd5b5060405162004ee638038062004ee68339810160408190526200008f9162000317565b6200009a33620002aa565b60506003908155605b60049081556005805460ff1916600a179055620186a06006556201d4c1600755600b80546001908101909155600c805482019055604080516060808201835284825260208281018681526000848601818152601c8054808a0182558184529651968b027f0e4562a10381dec21b205ed72637e6b1b523bdd0e4d4d50af5cd23dd4500a2118181019890985593517f0e4562a10381dec21b205ed72637e6b1b523bdd0e4d4d50af5cd23dd4500a2128086019190915591517f0e4562a10381dec21b205ed72637e6b1b523bdd0e4d4d50af5cd23dd4500a21394850155875180870189528b81528086018b8152818a018581528354808d0185558487529251928e02808b019390935590518285015551908501558751808701895260028082528187019b8c52818a018581528354808d0185558487529251928e02808b01939093559b51828501559a5190850155875180870189528b81528086018c8152818a018b81528354808d0185558487529251928e02808b019390935590518285015551908501558751958601885298855292840189815295840187815288548089018a559890915292519690970292830195909555915193810193909355519190920155601f55602280546001600160a01b039485166001600160a01b03199182161790915560238054938516938216939093179092556024805491909316911617905562000361565b600080546001600160a01b038381166001600160a01b0319831681178455604051919092169283917f8be0079c531659141344cd1fd0a4f28419497f9722a3daafe3b4186f6b6457e09190a35050565b80516001600160a01b03811681146200031257600080fd5b919050565b6000806000606084860312156200032d57600080fd5b6200033884620002fa565b92506200034860208501620002fa565b91506200035860408501620002fa565b90509250925092565b614b7580620003716000396000f3fe6080604052600436106103765760003560e01c80637fb2aa4d116101d1578063c75bb4f411610102578063ede6fbf5116100a0578063f85993b91161006f578063f85993b914610db0578063faf4bb9814610ddd578063fb2d954f14610df0578063fb33250f14610e1057600080fd5b8063ede6fbf514610d1b578063f2fde38b14610d3b578063f66911b114610d5b578063f7746e3614610d7b57600080fd5b8063d7086fab116100dc578063d7086fab14610c9b578063d720be4a14610cbb578063e215a7e414610cdb578063ea12693314610cfb57600080fd5b8063c75bb4f414610c2e578063c85b7fed14610c5b578063d1c54eea14610c7b57600080fd5b8063906f5f341161016f578063b3b29afd11610149578063b3b29afd14610b80578063b72c0eea14610bad578063bfcc971614610bee578063c34cccc414610c0e57600080fd5b8063906f5f3414610af057806392f859db14610b03578063aa11b68114610b5357600080fd5b806387d6b9b2116101ab57806387d6b9b214610a6957806389895f7714610a9f5780638b57997314610abf5780638da5cb5b14610ad257600080fd5b80637fb2aa4d146109fc5780638590926714610a295780638776601914610a3c57600080fd5b80633dfd6f54116102ab5780635dcc4cc611610249578063715018a611610223578063715018a6146109945780637713d521146109a95780637c62360f146109d65780637ec5c75c146109e957600080fd5b80635dcc4cc6146109115780636b606d9b146109475780636f206fc11461096757600080fd5b80634e31f910116102855780634e31f9101461081a578063567754e414610885578063594193d7146108a55780635c426aff146108db57600080fd5b80633dfd6f541461078e57806344901490146107c45780634ced3056146107fa57600080fd5b80631c5dde0e11610318578063254dc065116102f2578063254dc065146106bf5780632cb03a3a146106f557806333ca504b1461072b5780633521c4261461076157600080fd5b80631c5dde0e14610529578063224370f01461056b57806324d822bf1461069f57600080fd5b8063081315ff11610354578063081315ff146104655780630a0176fc146104bb5780630ce90ec2146104f657806314ed04501461050957600080fd5b806302b677451461037b57806303f2e05b146103ce5780630418394e146103e3575b600080fd5b34801561038757600080fd5b506103b16103963660046140ae565b6000908152600d60205260409020546001600160a01b031690565b6040516001600160a01b0390911681526020015b60405180910390f35b6103e16103dc3660046140dd565b610e30565b005b3480156103ef57600080fd5b506104366103fe3660046140ae565b602160205260009081526040902080546001820154600283015460038401546005850154600690950154939492939192909160ff1686565b6040805196875260208701959095529385019290925260608401526080830152151560a082015260c0016103c5565b34801561047157600080fd5b506104856104803660046140ae565b610f66565b604080519485526020808601949094528481019290925280516060850152918201516080840152015160a082015260c0016103c5565b3480156104c757600080fd5b506104e86104d63660046140ae565b60156020526000908152604090205481565b6040519081526020016103c5565b6103e16105043660046140ae565b610fc4565b34801561051557600080fd5b506103e16105243660046140ae565b611134565b34801561053557600080fd5b506105496105443660046140ae565b61116b565b6040805193845263ffffffff92831660208501529116908201526060016103c5565b34801561057757600080fd5b506103e1600180546040805160a0810182528281526000805460ff600160a01b820481166020808601828152600160a81b90940483168688019081526060870192835263ffffffff421660808801908152898b018b559986529551600389027fb10e2d527612073b26eecdfd717e6a320cf44b4afac2b0732d9fcbe2b7fa0cf681019190915593517fb10e2d527612073b26eecdfd717e6a320cf44b4afac2b0732d9fcbe2b7fa0cf785018054975193518516620100000262ff0000199486166101000261ffff19909916929095169190911796909617919091169190911790935594517fb10e2d527612073b26eecdfd717e6a320cf44b4afac2b0732d9fcbe2b7fa0cf8909501949094559183526002909152902080546001600160a01b03191633179055565b3480156106ab57600080fd5b506103e16106ba3660046140ae565b6111ab565b3480156106cb57600080fd5b506104e86106da366004614120565b6001600160a01b031660009081526012602052604090205490565b34801561070157600080fd5b506104e8610710366004614120565b6001600160a01b031660009081526010602052604090205490565b34801561073757600080fd5b506103b16107463660046140ae565b600d602052600090815260409020546001600160a01b031681565b34801561076d57600080fd5b5061078161077c3660046140ae565b611362565b6040516103c5919061413b565b34801561079a57600080fd5b506103b16107a93660046140ae565b6000908152600e60205260409020546001600160a01b031690565b3480156107d057600080fd5b506103b16107df3660046140ae565b600f602052600090815260409020546001600160a01b031681565b34801561080657600080fd5b506103e16108153660046140ae565b611454565b34801561082657600080fd5b5061083a610835366004614120565b61148c565b6040516103c59190600060a0820190508251825260ff602084015116602083015260ff604084015116604083015260ff60608401511660608301526080830151608083015292915050565b34801561089157600080fd5b506103e16108a03660046140ae565b611573565b3480156108b157600080fd5b506103b16108c03660046140ae565b6002602052600090815260409020546001600160a01b031681565b3480156108e757600080fd5b506103b16108f63660046140ae565b6000908152600f60205260409020546001600160a01b031690565b34801561091d57600080fd5b506103b161092c3660046140ae565b600e602052600090815260409020546001600160a01b031681565b34801561095357600080fd5b506103e16109623660046141aa565b611598565b34801561097357600080fd5b50610987610982366004614120565b611698565b6040516103c591906141cc565b3480156109a057600080fd5b506103e16117ec565b3480156109b557600080fd5b506109c96109c4366004614120565b611800565b6040516103c59190614222565b6103e16109e43660046140dd565b611948565b6103e16109f7366004614275565b611a63565b348015610a0857600080fd5b506104e8610a17366004614120565b60116020526000908152604090205481565b6103e1610a373660046140dd565b611b0b565b348015610a4857600080fd5b506104e8610a57366004614120565b60126020526000908152604090205481565b348015610a7557600080fd5b506104e8610a84366004614120565b6001600160a01b031660009081526011602052604090205490565b348015610aab57600080fd5b506103e1610aba3660046141aa565b611bff565b6103e1610acd366004614275565b611c77565b348015610ade57600080fd5b506000546001600160a01b03166103b1565b6103e1610afe3660046140dd565b611d02565b348015610b0f57600080fd5b50610b23610b1e3660046140ae565b611dea565b6040805195865260ff9485166020870152928416928501929092529091166060830152608082015260a0016103c5565b348015610b5f57600080fd5b506104e8610b6e3660046140ae565b60136020526000908152604090205481565b348015610b8c57600080fd5b506104e8610b9b366004614120565b60106020526000908152604090205481565b348015610bb957600080fd5b50610bcd610bc83660046140ae565b611e36565b6040805193845261ffff909216602084015260ff16908201526060016103c5565b348015610bfa57600080fd5b506104e8610c093660046142c5565b611e73565b348015610c1a57600080fd5b506103e1610c293660046141aa565b611fb8565b348015610c3a57600080fd5b50610c4e610c49366004614120565b612108565b6040516103c5919061434b565b348015610c6757600080fd5b506103e1610c7636600461445c565b612346565b348015610c8757600080fd5b506103e1610c963660046141aa565b612543565b348015610ca757600080fd5b506104e8610cb6366004614520565b612629565b348015610cc757600080fd5b506103e1610cd63660046141aa565b612785565b348015610ce757600080fd5b506103e1610cf63660046141aa565b6127bd565b348015610d0757600080fd5b506103e1610d163660046141aa565b6127e2565b348015610d2757600080fd5b506103e1610d363660046145bc565b612946565b348015610d4757600080fd5b506103e1610d56366004614120565b612b14565b348015610d6757600080fd5b506103e1610d76366004614275565b612b8d565b348015610d8757600080fd5b50610d9b610d963660046140ae565b612c18565b6040516103c5999897969594939291906145f1565b348015610dbc57600080fd5b506104e8610dcb3660046140ae565b60146020526000908152604090205481565b6103e1610deb3660046140dd565b612d05565b348015610dfc57600080fd5b506103e1610e0b3660046140ae565b612e15565b348015610e1c57600080fd5b506103e1610e2b366004614648565b613323565b6000828152600f602052604090205482906001600160a01b03163314610e715760405162461bcd60e51b8152600401610e68906146d0565b60405180910390fd5b601a54600c8481548110610e8757610e876146fe565b6000918252602090912060016002909202010154610eae9063ffffffff1660ff851661472a565b63ffffffff16610ebe9190614756565b3414610ec957600080fd5b600080546040516001600160a01b03909116913480156108fc02929091818181858888f19350505050158015610f03573d6000803e3d6000fd5b508160ff16600c8481548110610f1b57610f1b6146fe565b6000918252602082206001600290920201018054909190610f4390849063ffffffff16614775565b92506101000a81548163ffffffff021916908363ffffffff160217905550505050565b60208181548110610f7657600080fd5b60009182526020918290206006909102018054600182015460028301546040805160608101825260038601548152600486015496810196909652600590940154938501939093529093509184565b6000600a808381548110610fda57610fda6146fe565b6000918252602090912060046009909202010154610ffb919060ff166147b3565b6110069060016147d5565b60ff16601b546110169190614756565b90508034146110545760405162461bcd60e51b815260206004820152600a6024820152691ddc9bdb99c818dbdcdd60b21b6044820152606401610e68565b600080546040516001600160a01b03909116913480156108fc02929091818181858888f1935050505015801561108e573d6000803e3d6000fd5b50600a82815481106110a2576110a26146fe565b600091825260208220600460099092020101805460ff16916110c3836147fa565b91906101000a81548160ff021916908360ff160217905550506000600a83815481106110f1576110f16146fe565b9060005260206000209060090201600601819055506000600a838154811061111b5761111b6146fe565b9060005260206000209060090201600701819055505050565b6000818152600e602052604090205481906001600160a01b0316331461115957600080fd5b50600090815260156020526040812055565b600c818154811061117b57600080fd5b60009182526020909120600290910201805460019091015490915063ffffffff8082169164010000000090041683565b6000818152600d602052604090205481906001600160a01b031633146111d057600080fd5b6000600a8084815481106111e6576111e66146fe565b6000918252602090912060046009909202010154611207919060ff166147b3565b61121290600a614819565b61121d90600261483c565b90506112298382613509565b801561129057508060ff16600c600a8581548110611249576112496146fe565b9060005260206000209060090201600301548154811061126b5761126b6146fe565b6000918252602090912060029091020160010154640100000000900463ffffffff1610155b61129957600080fd5b8060ff16600c600a85815481106112b2576112b26146fe565b906000526020600020906009020160030154815481106112d4576112d46146fe565b906000526020600020906002020160010160048282829054906101000a900463ffffffff166113039190614865565b92506101000a81548163ffffffff021916908363ffffffff1602179055508060ff16600a8481548110611338576113386146fe565b90600052602060002090600902016005016000828254611358919061488a565b9091555050505050565b60008181526021602052604090206006015460609060ff166113b85760405162461bcd60e51b815260206004820152600f60248201526e1c9bdbdb481b9bdd0818db1bdcd959608a1b6044820152606401610e68565b600082815260216020908152604080832060040180548251818502810185019093528083529193909284015b82821015611449576000848152602090819020604080516080810182526003860290920180546001600160a01b0381168452600160a01b900460ff161515838501526001808201549284019290925260020154606083015290835290920191016113e4565b505050509050919050565b6000818152600f602052604090205481906001600160a01b031633146111595760405162461bcd60e51b8152600401610e68906146d0565b6040805160a081018252600080825260208201819052918101829052606081018290526080810182905290805b6001548110156114fe576000818152600260205260409020546001600160a01b038086169116036114ec578091506114fe565b806114f6816148a2565b9150506114b9565b5060018181548110611512576115126146fe565b60009182526020918290206040805160a081018252600390930290910180548352600181015460ff80821695850195909552610100810485169284019290925262010000909104909216606082015260029091015460808201529392505050565b6000818152600d602052604090205481906001600160a01b0316331461115957600080fd5b6000818152600f602052604090205481906001600160a01b031633146115d05760405162461bcd60e51b8152600401610e68906146d0565b6000838152600d602052604090205483906001600160a01b031633146115f557600080fd5b82600a8581548110611609576116096146fe565b906000526020600020906009020160030154146116685760405162461bcd60e51b815260206004820152601860248201527f6368617373697320617265206e6f7420617474616368656400000000000000006044820152606401610e68565b6000600a858154811061167d5761167d6146fe565b90600052602060002090600902016003018190555050505050565b6001600160a01b0381166000908152601260205260408120546060919067ffffffffffffffff8111156116cd576116cd614415565b60405190808252806020026020018201604052801561171857816020015b60408051606081018252600080825260208083018290529282015282526000199092019101816116eb5790505b5090506000805b600c548110156117e3576000818152600f60205260409020546001600160a01b038087169116036117d157600c818154811061175d5761175d6146fe565b6000918252602091829020604080516060810182526002909302909101805483526001015463ffffffff8082169484019490945264010000000090049092169181019190915283518490849081106117b7576117b76146fe565b602002602001018190525081806117cd906148a2565b9250505b806117db816148a2565b91505061171f565b50909392505050565b6117f46136ab565b6117fe6000613705565b565b6001600160a01b0381166000908152601160205260408120546060919067ffffffffffffffff81111561183557611835614415565b60405190808252806020026020018201604052801561188057816020015b60408051606081018252600080825260208083018290529282015282526000199092019101816118535790505b5090506000805b600b548110156117e3576000818152600e60205260409020546001600160a01b0380871691160361193657600b81815481106118c5576118c56146fe565b600091825260209182902060408051606081018252600293909302909101805483526001015461ffff8116938301939093526201000090920460ff1691810191909152835184908490811061191c5761191c6146fe565b60200260200101819052508180611932906148a2565b9250505b80611940816148a2565b915050611887565b6000828152600e602052604090205482906001600160a01b0316331461196d57600080fd5b600b8381548110611980576119806146fe565b60009182526020909120600290910201600101546119a89062010000900460ff16600a614819565b6119b3906002614997565b6019546119c09190614756565b34146119cb57600080fd5b600080546040516001600160a01b03909116913480156108fc02929091818181858888f19350505050158015611a05573d6000803e3d6000fd5b5081600b8481548110611a1a57611a1a6146fe565b906000526020600020906002020160010160028282829054906101000a900460ff16611a469190614819565b92506101000a81548160ff021916908360ff160217905550505050565b6024546001600160a01b03163314611abd5760405162461bcd60e51b815260206004820152601960248201527f796f7520617265206e6f7420636172206f776e657273686970000000000000006044820152606401610e68565b6000818152600d60205260409020546001600160a01b0384811691161480611af2575060008181526013602052604090205415155b611afb57600080fd5b611b06838383613755565b505050565b60008281526002602052604090205482906001600160a01b03163314611b3057600080fd5b60175460018481548110611b4657611b466146fe565b6000918252602090912060039091020160010154611b6c90610100900460ff168461483c565b60ff16611b799190614756565b3414611b8457600080fd5b600080546040516001600160a01b03909116913480156108fc02929091818181858888f19350505050158015611bbe573d6000803e3d6000fd5b508160018481548110611bd357611bd36146fe565b906000526020600020906003020160010160018282829054906101000a900460ff16611a4691906147d5565b6000828152600e602052604090205482906001600160a01b03163314611c2457600080fd5b60008211611c645760405162461bcd60e51b815260206004820152600d60248201526c696e76616c696420707269636560981b6044820152606401610e68565b5060009182526015602052604090912055565b6023546001600160a01b03163314611cd15760405162461bcd60e51b815260206004820152601c60248201527f796f7520617265206e6f7420656e67696e65206f776e657273686970000000006044820152606401610e68565b6000818152600e60205260409020546001600160a01b03848116911614611cf757600080fd5b611b068383836138df565b60008281526002602052604090205482906001600160a01b03163314611d2757600080fd5b60165460018481548110611d3d57611d3d6146fe565b6000918252602090912060016003909202010154611d5e9060ff168461483c565b60ff16611d6b9190614756565b3414611d7657600080fd5b600080546040516001600160a01b03909116913480156108fc02929091818181858888f19350505050158015611db0573d6000803e3d6000fd5b508160018481548110611dc557611dc56146fe565b6000918252602082206001600390920201018054909190611a4690849060ff166147d5565b60018181548110611dfa57600080fd5b600091825260209091206003909102018054600182015460029092015490925060ff808316926101008104821692620100009091049091169085565b600b8181548110611e4657600080fd5b60009182526020909120600290910201805460019091015490915061ffff81169062010000900460ff1683565b6000611e7d6136ab565b6009805460009182611e8e836148a2565b909155506040805160608101825282815263ffffffff8781166020808401828152848601928352600c80546001810182556000918252955160029096027fdf6966c971051c3d54ec59162606531493a51404a002842f56009d7e5cf4a8c781019690965590517fdf6966c971051c3d54ec59162606531493a51404a002842f56009d7e5cf4a8c89095018054935185166401000000000267ffffffffffffffff1990941695909416949094179190911790915581546001600160a01b0316825260129052908120805492935090611f64836148a2565b909155505060008054828252600f602052604090912080546001600160a01b0319166001600160a01b039092169190911790558215611faf5760008181526015602052604090208390555b90505b92915050565b6000818152600e602052604090205481906001600160a01b03163314611fdd57600080fd5b6000838152600d602052604090205483906001600160a01b0316331461200257600080fd5b82600a8581548110612016576120166146fe565b906000526020600020906009020160020154036120635760405162461bcd60e51b815260206004820152600b60248201526a73616d6520656e67696e6560a81b6044820152606401610e68565b600061206e33612108565b905060005b81518110156120d7578482828151811061208f5761208f6146fe565b602002602001015160400151036120c55760008282815181106120b4576120b46146fe565b602002602001015160400181815250505b806120cf816148a2565b915050612073565b5083600a86815481106120ec576120ec6146fe565b9060005260206000209060090201600201819055505050505050565b6001600160a01b0381166000908152601060205260408120546060919067ffffffffffffffff81111561213d5761213d614415565b6040519080825280602002602001820160405280156121c057816020015b6121ad60405180610120016040528060608152602001600081526020016000815260200160008152602001600060ff168152602001600081526020016000815260200160008152602001600081525090565b81526020019060019003908161215b5790505b5090506000805b600a548110156117e3576000818152600d60205260409020546001600160a01b0380871691160361233457600a8181548110612205576122056146fe565b90600052602060002090600902016040518061012001604052908160008201805461222f906149a6565b80601f016020809104026020016040519081016040528092919081815260200182805461225b906149a6565b80156122a85780601f1061227d576101008083540402835291602001916122a8565b820191906000526020600020905b81548152906001019060200180831161228b57829003601f168201915b5050509183525050600182015460208201526002820154604082015260038201546060820152600482015460ff166080820152600582015460a0820152600682015460c0820152600782015460e082015260089091015461010090910152835184908490811061231a5761231a6146fe565b60200260200101819052508180612330906148a2565b9250505b8061233e816148a2565b9150506121c7565b336000908152601d602052604090205482146123945760405162461bcd60e51b815260206004820152600d60248201526c6e6f7420796f757220726f6f6d60981b6044820152606401610e68565b600082815260216020526040808220600201549051634e31f59760e11b815290919073__PDDLib________________________________90639c63eb2e906123e290859087906004016149e0565b602060405180830381865af41580156123ff573d6000803e3d6000fd5b505050506040513d601f19601f820116820180604052508101906124239190614a2e565b60408051608081018252338082528315156020808401918252428486019081526000938452601e825285842054606086019081528b855260218352958420600481018054600181810183558288529487208851600390920201805496511515600160a01b026001600160a81b03199097166001600160a01b0392909216919091179590951785559151928401929092559451600290920191909155908890528054925493945090929091900361253b576040518681527f67acaceb58ff1ad2aa8b3069f69c4cd076824e06a09184b75fb197ead7040be79060200160405180910390a16000868152602160209081526040808320600601805460ff19166001179055338352601d8252808320839055601e9091528120555b505050505050565b6000818152600e602052604090205481906001600160a01b0316331461256857600080fd5b6000838152600d602052604090205483906001600160a01b0316331461258d57600080fd5b82600a85815481106125a1576125a16146fe565b906000526020600020906009020160020154146125f95760405162461bcd60e51b8152602060048201526016602482015275195b99da5b99481a5cc81b9bdd08185d1d1858da195960521b6044820152606401610e68565b6000600a858154811061260e5761260e6146fe565b90600052602060002090600902016002018190555050505050565b60006126336136ab565b6008805460009182612644836148a2565b909155506040805160608101825282815261ffff8089166020830190815260ff808a16948401948552600b80546001810182556000918252945160029095027f0175b7a638427703f0dbe7bb9bbf987a2551717b34e79f33b5b1008d1fa01db981019590955591517f0175b7a638427703f0dbe7bb9bbf987a2551717b34e79f33b5b1008d1fa01dba90940180549551909116620100000262ffffff1990951693909216929092179290921790915590915060119061270b6000546001600160a01b031690565b6001600160a01b0316815260208101919091526040016000908120805491612732836148a2565b909155505060008054828252600e602052604090912080546001600160a01b0319166001600160a01b03909216919091179055821561277d5760008181526014602052604090208390555b949350505050565b6000828152600f602052604090205482906001600160a01b03163314611c245760405162461bcd60e51b8152600401610e68906146d0565b6000828152600d602052604090205482906001600160a01b03163314611c2457600080fd5b6000818152600f602052604090205481906001600160a01b0316331461281a5760405162461bcd60e51b8152600401610e68906146d0565b6000838152600d602052604090205483906001600160a01b0316331461283f57600080fd5b82600a8581548110612853576128536146fe565b906000526020600020906009020160030154036128a15760405162461bcd60e51b815260206004820152600c60248201526b73616d65206368617373697360a01b6044820152606401610e68565b60006128ac33612108565b905060005b815181101561291557848282815181106128cd576128cd6146fe565b602002602001015160600151036129035760008282815181106128f2576128f26146fe565b602002602001015160600181815250505b8061290d816148a2565b9150506128b1565b5083600a868154811061292a5761292a6146fe565b9060005260206000209060090201600301819055505050505050565b336000908152601060205260409020541561296057600080fd5b60008161296c426139d6565b60405160200161297d929190614a50565b60405160208183030381529060405290506000816040516020016129a19190614a76565b6040516020818303038152906040528051906020012060001c905060006129c6613a69565b905060006129d2613b9d565b600a80546040805161012081018252898152602080820189905291810187905260608101859052600160808201819052600060a0830181905260c0830181905260e083018190526101008301859052908401855593909352825180519495509193600985027fc65a7bb8d6351c1cf70c95a316cc6a92839c986682d98bc35f958f4883f9d2a80192612a68928492910190614015565b506020828101516001830155604080840151600284015560608401516003840155608084015160048401805460ff191660ff90921691909117905560a0840151600584015560c0840151600684015560e08401516007840155610100909301516008909201919091556000838152600d82528281208054336001600160a01b0319909116811790915581526010909152908120805491612b07836148a2565b9190505550505050505050565b612b1c6136ab565b6001600160a01b038116612b815760405162461bcd60e51b815260206004820152602660248201527f4f776e61626c653a206e6577206f776e657220697320746865207a65726f206160448201526564647265737360d01b6064820152608401610e68565b612b8a81613705565b50565b6022546001600160a01b03163314612be75760405162461bcd60e51b815260206004820152601d60248201527f796f7520617265206e6f742063686173736973206f776e6572736869700000006044820152606401610e68565b6000818152600f60205260409020546001600160a01b03848116911614612c0d57600080fd5b611b06838383613cd1565b600a8181548110612c2857600080fd5b9060005260206000209060090201600091509050806000018054612c4b906149a6565b80601f0160208091040260200160405190810160405280929190818152602001828054612c77906149a6565b8015612cc45780601f10612c9957610100808354040283529160200191612cc4565b820191906000526020600020905b815481529060010190602001808311612ca757829003601f168201915b50505060018401546002850154600386015460048701546005880154600689015460078a01546008909a01549899959894975092955060ff90911693909289565b6000828152600e602052604090205482906001600160a01b03163314612d2a57600080fd5b601854600b8481548110612d4057612d406146fe565b6000918252602090912060016002909202010154612d659061ffff1660ff8516614a92565b61ffff16612d739190614756565b3414612d7e57600080fd5b600080546040516001600160a01b03909116913480156108fc02929091818181858888f19350505050158015612db8573d6000803e3d6000fd5b508160ff16600b8481548110612dd057612dd06146fe565b6000918252602082206001600290920201018054909190612df690849061ffff16614ab3565b92506101000a81548161ffff021916908361ffff160217905550505050565b6000818152600d602052604090205481906001600160a01b03163314612e3a57600080fd5b6000805b6020548110156131c05760208181548110612e5b57612e5b6146fe565b906000526020600020906006020160020154600a808681548110612e8157612e816146fe565b6000918252602090912060046009909202010154612ea2919060ff166147b3565b612ead9060016147d5565b60ff16036131ae576001915060208181548110612ecc57612ecc6146fe565b60009182526020808320600690920290910154338352601d8252604080842091909155601e8252909120859055805482908110612f0b57612f0b6146fe565b600091825260208220600160069092020101805491612f29836148a2565b919050555060208181548110612f4157612f416146fe565b90600052602060002090600602016003016000015460208281548110612f6957612f696146fe565b906000526020600020906006020160010154036131ae57600073__PDDLib________________________________63c037e54560208481548110612faf57612faf6146fe565b90600052602060002090600602016003016002015460208581548110612fd757612fd76146fe565b9060005260206000209060060201600301600001546040518363ffffffff1660e01b8152600401613012929190918252602082015260400190565b602060405180830381865af415801561302f573d6000803e3d6000fd5b505050506040513d601f19601f820116820180604052508101906130539190614ad0565b90506000602160006020858154811061306e5761306e6146fe565b90600052602060002090600602016000015481526020019081526020016000209050602083815481106130a3576130a36146fe565b60009182526020918290206003600690920201015482558054849081106130cc576130cc6146fe565b600091825260208083206006928302016002908101546001860155840185905542600385015560058401929092558201805460ff1916905580547f2838ebeee7dc83fac85a3d6dbca0c0b6771591ada8b00f97371aa6611e631f9c919085908110613139576131396146fe565b600091825260209182902060069091020154604080519182529181018590520160405180910390a160208381548110613174576131746146fe565b6000918252602082206006909102018181556001810182905560028101829055600381018290556004810182905560050155506131c09050565b806131b8816148a2565b915050612e3e565b5080156131cc57505050565b601f8054600091826131dd836148a2565b90915550601c549091506000906131f49042614ae9565b905081601d6000336001600160a01b03166001600160a01b03168152602001908152602001600020819055506020604051806080016040528084815260200160018152602001600a80898154811061324e5761324e6146fe565b600091825260209091206004600990920201015461326f919060ff166147b3565b61327a9060016147d5565b60ff168152602001601c8481548110613295576132956146fe565b60009182526020808320604080516060808201835260039586029093018054825260018082015483870152600291820154838501529190975288548082018a5598865294839020875160069099020197885586830151948801949094558584015194870194909455939092015180519285019290925591810151600484015501516005909101555050505050565b61332b6136ab565b600086613337426139d6565b604051602001613348929190614a50565b604051602081830303815290604052905060008160405160200161336c9190614a76565b6040516020818303038152906040528051906020012060001c9050600061339588886000612629565b905060006133a4876000611e73565b600a805460408051610120810182528e815260208082018990529181018790526060810185905260ff8b166080820152600060a0820181905260c0820181905260e08201819052610100820184905260018401855593909352825180519495509193600985027fc65a7bb8d6351c1cf70c95a316cc6a92839c986682d98bc35f958f4883f9d2a8019261343b928492910190614015565b506020828101516001830155604080840151600284015560608401516003840155608084015160048401805460ff90921660ff1990921691909117905560a0840151600584015560c0840151600684015560e084015160078401556101009093015160089092019190915560008054848252600d835283822080546001600160a01b0319166001600160a01b03928316179055815416815260109091529081208054916134e7836148a2565b9091555050600090815260136020526040902094909455505050505050505050565b6000828152600d6020526040812054819061352c906001600160a01b031661148c565b905061353b8160000151613dc8565b6000600a8581548110613550576135506146fe565b9060005260206000209060090201600201549050600060019050600a85600b8481548110613580576135806146fe565b906000526020600020906002020160010160029054906101000a900460ff166135a9919061483c565b60ff16106135fa57600a600b83815481106135c6576135c66146fe565b60009182526020909120600290910201600101546135ed9062010000900460ff168761483c565b6135f791906147b3565b90505b8060ff166001846000015181548110613615576136156146fe565b600091825260209091206003909102016001015462010000900460ff161061369f5780600184600001518154811061364f5761364f6146fe565b906000526020600020906003020160010160028282829054906101000a900460ff1661367b9190614819565b92506101000a81548160ff021916908360ff16021790555060019350505050611fb2565b60009350505050611fb2565b6000546001600160a01b031633146117fe5760405162461bcd60e51b815260206004820181905260248201527f4f776e61626c653a2063616c6c6572206973206e6f7420746865206f776e65726044820152606401610e68565b600080546001600160a01b038381166001600160a01b0319831681178455604051919092169283917f8be0079c531659141344cd1fd0a4f28419497f9722a3daafe3b4186f6b6457e09190a35050565b6001600160a01b0383166000908152601060205260409020546137b05760405162461bcd60e51b815260206004820152601360248201527234ba1034b9903cb7bab9103630b9ba1031b0b960691b6044820152606401610e68565b600a81815481106137c3576137c36146fe565b906000526020600020906009020160030154600014613807576000600a82815481106137f1576137f16146fe565b9060005260206000209060090201600301819055505b600a818154811061381a5761381a6146fe565b90600052602060002090600902016002015460001461385e576000600a8281548110613848576138486146fe565b9060005260206000209060090201600201819055505b6001600160a01b0382166000908152601060205260408120805491613882836148a2565b90915550506001600160a01b03831660009081526010602052604081208054916138ab83614afd565b90915550506000908152600d6020526040902080546001600160a01b0319166001600160a01b039290921691909117905550565b60006138ea84612108565b905060005b8151811015613953578282828151811061390b5761390b6146fe565b60200260200101516040015103613941576000828281518110613930576139306146fe565b602002602001015160400181815250505b8061394b816148a2565b9150506138ef565b506001600160a01b0383166000908152601160205260408120805491613978836148a2565b90915550506001600160a01b03841660009081526011602052604081208054916139a183614afd565b9091555050506000908152600e6020526040902080546001600160a01b0319166001600160a01b039290921691909117905550565b606060006139e383613f27565b600101905060008167ffffffffffffffff811115613a0357613a03614415565b6040519080825280601f01601f191660200182016040528015613a2d576020820181803683370190505b5090508181016020015b600019016f181899199a1a9b1b9c1cb0b131b232b360811b600a86061a8153600a8504945084613a3757509392505050565b600080600354600454613a7c9190614b14565b613a869042614ae9565b600354613a93919061488a565b600880549192506000919082613aa8836148a2565b909155506040805160608101825282815261ffff808616602080840191825260055460ff908116858701908152600b80546001810182556000918252965160029097027f0175b7a638427703f0dbe7bb9bbf987a2551717b34e79f33b5b1008d1fa01db981019790975593517f0175b7a638427703f0dbe7bb9bbf987a2551717b34e79f33b5b1008d1fa01dba90960180549151909216620100000262ffffff1990911695909416949094179290921790925533825260119052908120805492935090613b74836148a2565b90915550506000818152600e6020526040902080546001600160a01b0319163317905592915050565b600080600654600754613bb09190614b14565b613bba9042614ae9565b600654613bc7919061488a565b600980549192506000919082613bdc836148a2565b909155506040805160608101825282815263ffffffff8086166020808401828152848601928352600c80546001810182556000918252955160029096027fdf6966c971051c3d54ec59162606531493a51404a002842f56009d7e5cf4a8c781019690965590517fdf6966c971051c3d54ec59162606531493a51404a002842f56009d7e5cf4a8c89095018054935185166401000000000267ffffffffffffffff1990941695909416949094179190911790915533825260129052908120805492935090613ca8836148a2565b90915550506000818152600f6020526040902080546001600160a01b0319163317905592915050565b6001600160a01b0382166000908152601260205260408120805491613cf5836148a2565b90915550506001600160a01b0383166000908152601260205260408120805491613d1e83614afd565b91905055506000613d2e84612108565b905060005b8151811015613d975782828281518110613d4f57613d4f6146fe565b60200260200101516060015103613d85576000828281518110613d7457613d746146fe565b602002602001015160600181815250505b80613d8f816148a2565b915050613d33565b50506000908152600f6020526040902080546001600160a01b0319166001600160a01b039290921691909117905550565b60004290506000610e1060018481548110613de557613de56146fe565b90600052602060002090600302016002015483613e029190614b14565b613e0c9190614b2b565b9050600060018481548110613e2357613e236146fe565b6000918252602090912060039091020160010154613e4990610100900460ff1683614756565b60018581548110613e5c57613e5c6146fe565b6000918252602090912060039091020160010154613e83919062010000900460ff1661488a565b9050613ebc60018581548110613e9b57613e9b6146fe565b600091825260209091206001600390920201015460ff908116908316613fff565b60018581548110613ecf57613ecf6146fe565b906000526020600020906003020160010160026101000a81548160ff021916908360ff1602179055508260018581548110613f0c57613f0c6146fe565b90600052602060002090600302016002018190555050505050565b60008072184f03e93ff9f4daa797ed6e38ed64bf6a1f0160401b8310613f665772184f03e93ff9f4daa797ed6e38ed64bf6a1f0160401b830492506040015b6d04ee2d6d415b85acef81000000008310613f92576d04ee2d6d415b85acef8100000000830492506020015b662386f26fc100008310613fb057662386f26fc10000830492506010015b6305f5e1008310613fc8576305f5e100830492506008015b6127108310613fdc57612710830492506004015b60648310613fee576064830492506002015b600a8310611fb25760010192915050565b600081831061400e5781611faf565b5090919050565b828054614021906149a6565b90600052602060002090601f0160209004810192826140435760008555614089565b82601f1061405c57805160ff1916838001178555614089565b82800160010185558215614089579182015b8281111561408957825182559160200191906001019061406e565b50614095929150614099565b5090565b5b80821115614095576000815560010161409a565b6000602082840312156140c057600080fd5b5035919050565b803560ff811681146140d857600080fd5b919050565b600080604083850312156140f057600080fd5b82359150614100602084016140c7565b90509250929050565b80356001600160a01b03811681146140d857600080fd5b60006020828403121561413257600080fd5b611faf82614109565b602080825282518282018190526000919060409081850190868401855b8281101561419d57815180516001600160a01b031685528681015115158786015285810151868601526060908101519085015260809093019290850190600101614158565b5091979650505050505050565b600080604083850312156141bd57600080fd5b50508035926020909101359150565b602080825282518282018190526000919060409081850190868401855b8281101561419d578151805185528681015163ffffffff90811688870152908601511685850152606090930192908501906001016141e9565b602080825282518282018190526000919060409081850190868401855b8281101561419d578151805185528681015161ffff168786015285015160ff16858501526060909301929085019060010161423f565b60008060006060848603121561428a57600080fd5b61429384614109565b92506142a160208501614109565b9150604084013590509250925092565b803563ffffffff811681146140d857600080fd5b600080604083850312156142d857600080fd5b6142e1836142b1565b946020939093013593505050565b60005b8381101561430a5781810151838201526020016142f2565b83811115614319576000848401525b50505050565b600081518084526143378160208601602086016142ef565b601f01601f19169290920160200192915050565b60006020808301818452808551808352604092508286019150828160051b87010184880160005b8381101561440757603f19898403018552815161012081518186526143998287018261431f565b9150508882015189860152878201518886015260608083015181870152506080808301516143cb8288018260ff169052565b505060a0828101519086015260c0808301519086015260e080830151908601526101009182015191909401529386019390860190600101614372565b509098975050505050505050565b634e487b7160e01b600052604160045260246000fd5b604051601f8201601f1916810167ffffffffffffffff8111828210171561445457614454614415565b604052919050565b6000806040838503121561446f57600080fd5b8235915060208084013567ffffffffffffffff8082111561448f57600080fd5b818601915086601f8301126144a357600080fd5b8135818111156144b5576144b5614415565b8060051b91506144c684830161442b565b81815291830184019184810190898411156144e057600080fd5b938501935b838510156144fe578435825293850193908501906144e5565b8096505050505050509250929050565b803561ffff811681146140d857600080fd5b60008060006060848603121561453557600080fd5b61453e8461450e565b92506142a1602085016140c7565b600082601f83011261455d57600080fd5b813567ffffffffffffffff81111561457757614577614415565b61458a601f8201601f191660200161442b565b81815284602083860101111561459f57600080fd5b816020850160208301376000918101602001919091529392505050565b6000602082840312156145ce57600080fd5b813567ffffffffffffffff8111156145e557600080fd5b61277d8482850161454c565b60006101208083526146058184018d61431f565b602084019b909b5250506040810197909752606087019590955260ff93909316608086015260a085019190915260c084015260e083015261010090910152919050565b60008060008060008060c0878903121561466157600080fd5b863567ffffffffffffffff81111561467857600080fd5b61468489828a0161454c565b9650506146936020880161450e565b94506146a1604088016140c7565b93506146af606088016142b1565b92506146bd608088016140c7565b915060a087013590509295509295509295565b6020808252601490820152730c6d0c2e6e6d2e640dcdee840f2deeae4407c74560631b604082015260600190565b634e487b7160e01b600052603260045260246000fd5b634e487b7160e01b600052601160045260246000fd5b600063ffffffff8083168185168183048111821515161561474d5761474d614714565b02949350505050565b600081600019048311821515161561477057614770614714565b500290565b600063ffffffff80831681851680830382111561479457614794614714565b01949350505050565b634e487b7160e01b600052601260045260246000fd5b600060ff8316806147c6576147c661479d565b8060ff84160491505092915050565b600060ff821660ff84168060ff038211156147f2576147f2614714565b019392505050565b600060ff821660ff810361481057614810614714565b60010192915050565b600060ff821660ff84168082101561483357614833614714565b90039392505050565b600060ff821660ff84168160ff048111821515161561485d5761485d614714565b029392505050565b600063ffffffff8381169083168181101561488257614882614714565b039392505050565b6000821982111561489d5761489d614714565b500190565b6000600182016148b4576148b4614714565b5060010190565b600181815b808511156148f65781600019048211156148dc576148dc614714565b808516156148e957918102915b93841c93908002906148c0565b509250929050565b60008261490d57506001611fb2565b8161491a57506000611fb2565b8160018114614930576002811461493a57614956565b6001915050611fb2565b60ff84111561494b5761494b614714565b50506001821b611fb2565b5060208310610133831016604e8410600b8410161715614979575081810a611fb2565b61498383836148bb565b806000190482111561485d5761485d614714565b6000611faf60ff8416836148fe565b600181811c908216806149ba57607f821691505b6020821081036149da57634e487b7160e01b600052602260045260246000fd5b50919050565b6000604082018483526020604081850152818551808452606086019150828701935060005b81811015614a2157845183529383019391830191600101614a05565b5090979650505050505050565b600060208284031215614a4057600080fd5b81518015158114611faf57600080fd5b60008351614a628184602088016142ef565b8351908301906147948183602088016142ef565b60008251614a888184602087016142ef565b9190910192915050565b600061ffff8083168185168183048111821515161561474d5761474d614714565b600061ffff80831681851680830382111561479457614794614714565b600060208284031215614ae257600080fd5b5051919050565b600082614af857614af861479d565b500690565b600081614b0c57614b0c614714565b506000190190565b600082821015614b2657614b26614714565b500390565b600082614b3a57614b3a61479d565b50049056fea2646970667358221220f7377493a80b78169914203210715bace641781f34aacc48ec0dae0d3fa2db6c64736f6c634300080d0033",
  "immutableReferences": {},
  "source": "// SPDX-License-Identifier: MIT\npragma solidity ^0.8.13;\n\nimport \"./CarRacing.sol\";\n\ncontract TokenOwnership is CarRacing{\n\n\n    address chassisOwnership;\n    address engineOwnership;\n    address carOwnership;\n\n    constructor(address _chassisOwnership, address _engineOwnership, address _carOwnership){\n        chassisOwnership = _chassisOwnership;\n        engineOwnership = _engineOwnership;\n        carOwnership = _carOwnership;\n    }\n\n\n    function balanceOfCars(address _owner) external view returns (uint256) {\n        return ownerCarCount[_owner];\n    }\n    function ownerOfCar(uint256 _tokenId) external view returns(address) {\n        return carToOwner[_tokenId];\n    }\n    function _transferCar(address _from, address _to, uint256 _tokenId) private {\n        require(ownerCarCount[_from]>0, \"it is your last car\");\n        if(cars[_tokenId].chassisId != 0){\n            cars[_tokenId].chassisId = 0;\n        }\n        if(cars[_tokenId].engineId != 0){\n            cars[_tokenId].engineId = 0;\n        }\n        ownerCarCount[_to]++;// = ownerCarCount[_to].add(1);\n        ownerCarCount[_from]--;// = ownerCarCount[_from].sub(1);\n        carToOwner[_tokenId] = _to;\n    }\n    function transferCarFrom(address _from, address _to, uint256 _tokenId) external payable {\n        require(msg.sender == carOwnership, \"you are not car ownership\");\n        require (carToOwner[_tokenId] == _from || carToPrice[_tokenId] != 0);\n        _transferCar(_from, _to, _tokenId);\n    }\n\n\n    function balanceOfEngines(address _owner) external view returns (uint256) {\n        return ownerEngineCount[_owner];\n    }\n    function ownerOfEngine(uint256 _tokenId) external view returns(address) {\n        return engineToOwner[_tokenId];\n    }\n    function _transferEngine(address _from, address _to, uint256 _tokenId) private {\n        Car[] memory cars = getCarsByOwner(_from);\n        \n        for(uint i = 0; i<cars.length; i++){\n            if(cars[i].engineId == _tokenId){\n                cars[i].engineId = 0;\n            }\n        }\n        ownerEngineCount[_to]++;// = ownerEngineCount[_to].add(1);\n        ownerEngineCount[_from]--;// = ownerEngineCount[_from].sub(1);\n        engineToOwner[_tokenId] = _to;\n    }\n    function transferEngineFrom(address _from, address _to, uint256 _tokenId) external payable {\n        require(msg.sender == engineOwnership, \"you are not engine ownership\");\n        require (engineToOwner[_tokenId] == _from);\n        _transferEngine(_from, _to, _tokenId);\n    }\n\n    \n    function balanceOfChassis(address _owner) external view returns (uint256) {\n        return ownerChassisCount[_owner];\n    }\n    function ownerOfChassis(uint256 _tokenId) external view returns(address) {\n        return chassisToOwner[_tokenId];\n    }\n    function _transferChassis(address _from, address _to, uint256 _tokenId) private {\n        ownerChassisCount[_to]++;// = ownerChassisCount[_to].add(1);\n        ownerChassisCount[_from]--;// = ownerChassisCount[_from].sub(1);\n        Car[] memory cars = getCarsByOwner(_from);\n        for(uint i = 0; i<cars.length; i++){\n            if(cars[i].chassisId == _tokenId){\n                cars[i].chassisId = 0;\n            }\n        }\n        chassisToOwner[_tokenId] = _to;\n    }\n    function transferChassisFrom(address _from, address _to, uint256 _tokenId) external {\n        require(msg.sender == chassisOwnership, \"you are not chassis ownership\");\n        require (chassisToOwner[_tokenId] == _from);\n        _transferChassis(_from, _to, _tokenId);\n    }\n\n\n    function putChassisOnMarketplace(uint chassisId, uint price) public onlyOwnerOfChassis(chassisId){\n        require(price>0, \"invalid price\");\n        chassisToPrice[chassisId] = price;\n    }\n    function removeChassisFromMarketplace(uint chassisId) public onlyOwnerOfChassis(chassisId){\n        chassisToPrice[chassisId] = 0;\n    }\n\n    function putEngineOnMarketplace(uint engineId, uint price) public onlyOwnerOfEngine(engineId){\n        require(price>0, \"invalid price\");\n        chassisToPrice[engineId] = price;\n    }\n    function removeEngineFromMarketplace(uint engineId) public onlyOwnerOfEngine(engineId){\n        chassisToPrice[engineId] = 0;\n    }\n\n    function putCarOnMarketplace(uint carId, uint price) public onlyOwnerOfCar(carId){\n        require(price>0, \"invalid price\");\n        chassisToPrice[carId] = price;\n    }\n    function removeCarFromMarketplace(uint carId) public onlyOwnerOfCar(carId){\n        chassisToPrice[carId] = 0;\n    }\n\n}",
  "sourcePath": "/Users/vvan/Programming/JavaScript/DriveSafely/contract/contracts/TokenOwnership.sol",
  "compiler": {
    "name": "solc",
    "version": "0.8.13+commit.abaa5c0e.Emscripten.clang"
  },
  "schemaVersion": "3.4.11",
  "updatedAt": "2023-01-11T11:15:32.746Z",
  "networkType": "ethereum",
  "devdoc": {
    "kind": "dev",
    "methods": {
      "owner()": {
        "details": "Returns the address of the current owner."
      },
      "renounceOwnership()": {
        "details": "Leaves the contract without owner. It will not be possible to call `onlyOwner` functions anymore. Can only be called by the current owner. NOTE: Renouncing ownership will leave the contract without an owner, thereby removing any functionality that is only available to the owner."
      },
      "transferOwnership(address)": {
        "details": "Transfers ownership of the contract to a new account (`newOwner`). Can only be called by the current owner."
      }
    },
    "version": 1
  },
  "userdoc": {
    "kind": "user",
    "methods": {},
    "version": 1
  }
}