{
  "contractName": "TokenOwnership",
  "abi": [
    {
      "anonymous": false,
      "inputs": [
        {
          "indexed": true,
          "internalType": "address",
          "name": "previousOwner",
          "type": "address"
        },
        {
          "indexed": true,
          "internalType": "address",
          "name": "newOwner",
          "type": "address"
        }
      ],
      "name": "OwnershipTransferred",
      "type": "event"
    },
    {
      "anonymous": false,
      "inputs": [
        {
          "indexed": false,
          "internalType": "uint256",
          "name": "roomId",
          "type": "uint256"
        }
      ],
      "name": "RoomClosed",
      "type": "event"
    },
    {
      "anonymous": false,
      "inputs": [
        {
          "indexed": false,
          "internalType": "uint256",
          "name": "roomId",
          "type": "uint256"
        },
        {
          "indexed": false,
          "internalType": "uint256",
          "name": "roomDNA",
          "type": "uint256"
        }
      ],
      "name": "RoomFull",
      "type": "event"
    },
    {
      "inputs": [
        {
          "internalType": "uint256",
          "name": "",
          "type": "uint256"
        }
      ],
      "name": "carToOwner",
      "outputs": [
        {
          "internalType": "address",
          "name": "",
          "type": "address"
        }
      ],
      "stateMutability": "view",
      "type": "function",
      "constant": true
    },
    {
      "inputs": [
        {
          "internalType": "uint256",
          "name": "",
          "type": "uint256"
        }
      ],
      "name": "carToPrice",
      "outputs": [
        {
          "internalType": "uint256",
          "name": "",
          "type": "uint256"
        }
      ],
      "stateMutability": "view",
      "type": "function",
      "constant": true
    },
    {
      "inputs": [
        {
          "internalType": "uint256",
          "name": "",
          "type": "uint256"
        }
      ],
      "name": "cars",
      "outputs": [
        {
          "internalType": "string",
          "name": "model",
          "type": "string"
        },
        {
          "internalType": "uint256",
          "name": "vin",
          "type": "uint256"
        },
        {
          "internalType": "uint256",
          "name": "engineId",
          "type": "uint256"
        },
        {
          "internalType": "uint256",
          "name": "chassisId",
          "type": "uint256"
        },
        {
          "internalType": "uint8",
          "name": "carLevel",
          "type": "uint8"
        },
        {
          "internalType": "uint256",
          "name": "mileage",
          "type": "uint256"
        },
        {
          "internalType": "uint256",
          "name": "winCountOnCurrentLevel",
          "type": "uint256"
        },
        {
          "internalType": "uint256",
          "name": "lossCountOnCurrentLevel",
          "type": "uint256"
        },
        {
          "internalType": "uint256",
          "name": "id",
          "type": "uint256"
        }
      ],
      "stateMutability": "view",
      "type": "function",
      "constant": true
    },
    {
      "inputs": [
        {
          "internalType": "uint256",
          "name": "",
          "type": "uint256"
        }
      ],
      "name": "chassis",
      "outputs": [
        {
          "internalType": "uint256",
          "name": "id",
          "type": "uint256"
        },
        {
          "internalType": "uint32",
          "name": "durability",
          "type": "uint32"
        },
        {
          "internalType": "uint32",
          "name": "resource",
          "type": "uint32"
        }
      ],
      "stateMutability": "view",
      "type": "function",
      "constant": true
    },
    {
      "inputs": [
        {
          "internalType": "uint256",
          "name": "",
          "type": "uint256"
        }
      ],
      "name": "chassisToOwner",
      "outputs": [
        {
          "internalType": "address",
          "name": "",
          "type": "address"
        }
      ],
      "stateMutability": "view",
      "type": "function",
      "constant": true
    },
    {
      "inputs": [
        {
          "internalType": "uint256",
          "name": "",
          "type": "uint256"
        }
      ],
      "name": "chassisToPrice",
      "outputs": [
        {
          "internalType": "uint256",
          "name": "",
          "type": "uint256"
        }
      ],
      "stateMutability": "view",
      "type": "function",
      "constant": true
    },
    {
      "inputs": [
        {
          "internalType": "uint256",
          "name": "roomId",
          "type": "uint256"
        },
        {
          "internalType": "uint256[]",
          "name": "answer",
          "type": "uint256[]"
        }
      ],
      "name": "commitAnswer",
      "outputs": [],
      "stateMutability": "nonpayable",
      "type": "function"
    },
    {
      "inputs": [
        {
          "internalType": "string",
          "name": "model",
          "type": "string"
        }
      ],
      "name": "createCar",
      "outputs": [],
      "stateMutability": "nonpayable",
      "type": "function"
    },
    {
      "inputs": [
        {
          "internalType": "string",
          "name": "_model",
          "type": "string"
        },
        {
          "internalType": "uint16",
          "name": "_horsePowers",
          "type": "uint16"
        },
        {
          "internalType": "uint8",
          "name": "_consumtion",
          "type": "uint8"
        },
        {
          "internalType": "uint32",
          "name": "_durability",
          "type": "uint32"
        },
        {
          "internalType": "uint8",
          "name": "_carLevel",
          "type": "uint8"
        },
        {
          "internalType": "uint256",
          "name": "_carPrice",
          "type": "uint256"
        }
      ],
      "name": "createCustomCar",
      "outputs": [],
      "stateMutability": "nonpayable",
      "type": "function"
    },
    {
      "inputs": [
        {
          "internalType": "uint32",
          "name": "_durability",
          "type": "uint32"
        },
        {
          "internalType": "uint256",
          "name": "_chassisPrice",
          "type": "uint256"
        }
      ],
      "name": "createCustomChassis",
      "outputs": [
        {
          "internalType": "uint256",
          "name": "",
          "type": "uint256"
        }
      ],
      "stateMutability": "nonpayable",
      "type": "function"
    },
    {
      "inputs": [
        {
          "internalType": "uint16",
          "name": "_horsePowers",
          "type": "uint16"
        },
        {
          "internalType": "uint8",
          "name": "_consumtion",
          "type": "uint8"
        },
        {
          "internalType": "uint256",
          "name": "_enginePrice",
          "type": "uint256"
        }
      ],
      "name": "createCustomEngine",
      "outputs": [
        {
          "internalType": "uint256",
          "name": "",
          "type": "uint256"
        }
      ],
      "stateMutability": "nonpayable",
      "type": "function"
    },
    {
      "inputs": [],
      "name": "createFuelStation",
      "outputs": [],
      "stateMutability": "nonpayable",
      "type": "function"
    },
    {
      "inputs": [
        {
          "internalType": "uint256",
          "name": "carId",
          "type": "uint256"
        },
        {
          "internalType": "uint256",
          "name": "chassisId",
          "type": "uint256"
        }
      ],
      "name": "detachChassis",
      "outputs": [],
      "stateMutability": "nonpayable",
      "type": "function"
    },
    {
      "inputs": [
        {
          "internalType": "uint256",
          "name": "carId",
          "type": "uint256"
        },
        {
          "internalType": "uint256",
          "name": "engineId",
          "type": "uint256"
        }
      ],
      "name": "detachEngine",
      "outputs": [],
      "stateMutability": "nonpayable",
      "type": "function"
    },
    {
      "inputs": [
        {
          "internalType": "uint256",
          "name": "",
          "type": "uint256"
        }
      ],
      "name": "engineToOwner",
      "outputs": [
        {
          "internalType": "address",
          "name": "",
          "type": "address"
        }
      ],
      "stateMutability": "view",
      "type": "function",
      "constant": true
    },
    {
      "inputs": [
        {
          "internalType": "uint256",
          "name": "",
          "type": "uint256"
        }
      ],
      "name": "engineToPrice",
      "outputs": [
        {
          "internalType": "uint256",
          "name": "",
          "type": "uint256"
        }
      ],
      "stateMutability": "view",
      "type": "function",
      "constant": true
    },
    {
      "inputs": [
        {
          "internalType": "uint256",
          "name": "",
          "type": "uint256"
        }
      ],
      "name": "engines",
      "outputs": [
        {
          "internalType": "uint256",
          "name": "id",
          "type": "uint256"
        },
        {
          "internalType": "uint16",
          "name": "horsePowers",
          "type": "uint16"
        },
        {
          "internalType": "uint8",
          "name": "consumtion",
          "type": "uint8"
        }
      ],
      "stateMutability": "view",
      "type": "function",
      "constant": true
    },
    {
      "inputs": [
        {
          "internalType": "uint256",
          "name": "carId",
          "type": "uint256"
        }
      ],
      "name": "findRoom",
      "outputs": [],
      "stateMutability": "nonpayable",
      "type": "function"
    },
    {
      "inputs": [
        {
          "internalType": "uint256",
          "name": "",
          "type": "uint256"
        }
      ],
      "name": "fuelStationToOwner",
      "outputs": [
        {
          "internalType": "address",
          "name": "",
          "type": "address"
        }
      ],
      "stateMutability": "view",
      "type": "function",
      "constant": true
    },
    {
      "inputs": [
        {
          "internalType": "address",
          "name": "_owner",
          "type": "address"
        }
      ],
      "name": "getCarsByOwner",
      "outputs": [
        {
          "components": [
            {
              "internalType": "string",
              "name": "model",
              "type": "string"
            },
            {
              "internalType": "uint256",
              "name": "vin",
              "type": "uint256"
            },
            {
              "internalType": "uint256",
              "name": "engineId",
              "type": "uint256"
            },
            {
              "internalType": "uint256",
              "name": "chassisId",
              "type": "uint256"
            },
            {
              "internalType": "uint8",
              "name": "carLevel",
              "type": "uint8"
            },
            {
              "internalType": "uint256",
              "name": "mileage",
              "type": "uint256"
            },
            {
              "internalType": "uint256",
              "name": "winCountOnCurrentLevel",
              "type": "uint256"
            },
            {
              "internalType": "uint256",
              "name": "lossCountOnCurrentLevel",
              "type": "uint256"
            },
            {
              "internalType": "uint256",
              "name": "id",
              "type": "uint256"
            }
          ],
          "internalType": "struct CarFactory.Car[]",
          "name": "",
          "type": "tuple[]"
        }
      ],
      "stateMutability": "view",
      "type": "function",
      "constant": true
    },
    {
      "inputs": [
        {
          "internalType": "address",
          "name": "_owner",
          "type": "address"
        }
      ],
      "name": "getChassisByOwner",
      "outputs": [
        {
          "components": [
            {
              "internalType": "uint256",
              "name": "id",
              "type": "uint256"
            },
            {
              "internalType": "uint32",
              "name": "durability",
              "type": "uint32"
            },
            {
              "internalType": "uint32",
              "name": "resource",
              "type": "uint32"
            }
          ],
          "internalType": "struct CarFactory.Chassis[]",
          "name": "",
          "type": "tuple[]"
        }
      ],
      "stateMutability": "view",
      "type": "function",
      "constant": true
    },
    {
      "inputs": [
        {
          "internalType": "uint256",
          "name": "roomId",
          "type": "uint256"
        }
      ],
      "name": "getClosedRoom",
      "outputs": [
        {
          "components": [
            {
              "internalType": "address",
              "name": "player",
              "type": "address"
            },
            {
              "internalType": "bool",
              "name": "correct",
              "type": "bool"
            },
            {
              "internalType": "uint256",
              "name": "time",
              "type": "uint256"
            },
            {
              "internalType": "uint256",
              "name": "carId",
              "type": "uint256"
            }
          ],
          "internalType": "struct RaceHandler.Answer[]",
          "name": "",
          "type": "tuple[]"
        }
      ],
      "stateMutability": "view",
      "type": "function",
      "constant": true
    },
    {
      "inputs": [
        {
          "internalType": "address",
          "name": "_owner",
          "type": "address"
        }
      ],
      "name": "getEnginesByOwner",
      "outputs": [
        {
          "components": [
            {
              "internalType": "uint256",
              "name": "id",
              "type": "uint256"
            },
            {
              "internalType": "uint16",
              "name": "horsePowers",
              "type": "uint16"
            },
            {
              "internalType": "uint8",
              "name": "consumtion",
              "type": "uint8"
            }
          ],
          "internalType": "struct CarFactory.Engine[]",
          "name": "",
          "type": "tuple[]"
        }
      ],
      "stateMutability": "view",
      "type": "function",
      "constant": true
    },
    {
      "inputs": [
        {
          "internalType": "address",
          "name": "_owner",
          "type": "address"
        }
      ],
      "name": "getFuelStationByOwner",
      "outputs": [
        {
          "components": [
            {
              "internalType": "uint256",
              "name": "id",
              "type": "uint256"
            },
            {
              "internalType": "uint8",
              "name": "capacity",
              "type": "uint8"
            },
            {
              "internalType": "uint8",
              "name": "productionPerHour",
              "type": "uint8"
            },
            {
              "internalType": "uint8",
              "name": "currentFullness",
              "type": "uint8"
            },
            {
              "internalType": "uint256",
              "name": "lastUpdate",
              "type": "uint256"
            }
          ],
          "internalType": "struct FuelStationFactory.FuelStation",
          "name": "",
          "type": "tuple"
        }
      ],
      "stateMutability": "view",
      "type": "function",
      "constant": true
    },
    {
      "inputs": [
        {
          "internalType": "uint256",
          "name": "",
          "type": "uint256"
        }
      ],
      "name": "idToStartedRooms",
      "outputs": [
        {
          "internalType": "uint256",
          "name": "numberPlayers",
          "type": "uint256"
        },
        {
          "internalType": "uint256",
          "name": "world",
          "type": "uint256"
        },
        {
          "internalType": "uint256",
          "name": "roomDNA",
          "type": "uint256"
        },
        {
          "internalType": "uint256",
          "name": "startTime",
          "type": "uint256"
        },
        {
          "internalType": "uint256",
          "name": "curAnswer",
          "type": "uint256"
        },
        {
          "internalType": "bool",
          "name": "closed",
          "type": "bool"
        }
      ],
      "stateMutability": "view",
      "type": "function",
      "constant": true
    },
    {
      "inputs": [
        {
          "internalType": "uint256",
          "name": "_carId",
          "type": "uint256"
        }
      ],
      "name": "levelUp",
      "outputs": [],
      "stateMutability": "payable",
      "type": "function",
      "payable": true
    },
    {
      "inputs": [
        {
          "internalType": "uint256",
          "name": "",
          "type": "uint256"
        }
      ],
      "name": "openedRooms",
      "outputs": [
        {
          "internalType": "uint256",
          "name": "id",
          "type": "uint256"
        },
        {
          "internalType": "uint256",
          "name": "playersEntered",
          "type": "uint256"
        },
        {
          "internalType": "uint256",
          "name": "world",
          "type": "uint256"
        },
        {
          "components": [
            {
              "internalType": "uint256",
              "name": "playersNeeded",
              "type": "uint256"
            },
            {
              "internalType": "uint256",
              "name": "roadsNum",
              "type": "uint256"
            },
            {
              "internalType": "uint256",
              "name": "crossId",
              "type": "uint256"
            }
          ],
          "internalType": "struct RaceHandler.Cross",
          "name": "cross",
          "type": "tuple"
        }
      ],
      "stateMutability": "view",
      "type": "function",
      "constant": true
    },
    {
      "inputs": [],
      "name": "owner",
      "outputs": [
        {
          "internalType": "address",
          "name": "",
          "type": "address"
        }
      ],
      "stateMutability": "view",
      "type": "function",
      "constant": true
    },
    {
      "inputs": [
        {
          "internalType": "address",
          "name": "",
          "type": "address"
        }
      ],
      "name": "ownerCarCount",
      "outputs": [
        {
          "internalType": "uint256",
          "name": "",
          "type": "uint256"
        }
      ],
      "stateMutability": "view",
      "type": "function",
      "constant": true
    },
    {
      "inputs": [
        {
          "internalType": "address",
          "name": "",
          "type": "address"
        }
      ],
      "name": "ownerChassisCount",
      "outputs": [
        {
          "internalType": "uint256",
          "name": "",
          "type": "uint256"
        }
      ],
      "stateMutability": "view",
      "type": "function",
      "constant": true
    },
    {
      "inputs": [
        {
          "internalType": "address",
          "name": "",
          "type": "address"
        }
      ],
      "name": "ownerEngineCount",
      "outputs": [
        {
          "internalType": "uint256",
          "name": "",
          "type": "uint256"
        }
      ],
      "stateMutability": "view",
      "type": "function",
      "constant": true
    },
    {
      "inputs": [],
      "name": "renounceOwnership",
      "outputs": [],
      "stateMutability": "nonpayable",
      "type": "function"
    },
    {
      "inputs": [
        {
          "internalType": "uint256",
          "name": "_carId",
          "type": "uint256"
        }
      ],
      "name": "startRace",
      "outputs": [],
      "stateMutability": "nonpayable",
      "type": "function"
    },
    {
      "inputs": [
        {
          "internalType": "uint256",
          "name": "",
          "type": "uint256"
        }
      ],
      "name": "stations",
      "outputs": [
        {
          "internalType": "uint256",
          "name": "id",
          "type": "uint256"
        },
        {
          "internalType": "uint8",
          "name": "capacity",
          "type": "uint8"
        },
        {
          "internalType": "uint8",
          "name": "productionPerHour",
          "type": "uint8"
        },
        {
          "internalType": "uint8",
          "name": "currentFullness",
          "type": "uint8"
        },
        {
          "internalType": "uint256",
          "name": "lastUpdate",
          "type": "uint256"
        }
      ],
      "stateMutability": "view",
      "type": "function",
      "constant": true
    },
    {
      "inputs": [
        {
          "internalType": "uint256",
          "name": "carId",
          "type": "uint256"
        },
        {
          "internalType": "uint256",
          "name": "chassisId",
          "type": "uint256"
        }
      ],
      "name": "switchChassis",
      "outputs": [],
      "stateMutability": "nonpayable",
      "type": "function"
    },
    {
      "inputs": [
        {
          "internalType": "uint256",
          "name": "carId",
          "type": "uint256"
        },
        {
          "internalType": "uint256",
          "name": "engineId",
          "type": "uint256"
        }
      ],
      "name": "switchEngine",
      "outputs": [],
      "stateMutability": "nonpayable",
      "type": "function"
    },
    {
      "inputs": [
        {
          "internalType": "address",
          "name": "newOwner",
          "type": "address"
        }
      ],
      "name": "transferOwnership",
      "outputs": [],
      "stateMutability": "nonpayable",
      "type": "function"
    },
    {
      "inputs": [
        {
          "internalType": "uint256",
          "name": "_fuelStatonId",
          "type": "uint256"
        },
        {
          "internalType": "uint8",
          "name": "_counts",
          "type": "uint8"
        }
      ],
      "name": "upgradeCapacity",
      "outputs": [],
      "stateMutability": "payable",
      "type": "function",
      "payable": true
    },
    {
      "inputs": [
        {
          "internalType": "uint256",
          "name": "_engineId",
          "type": "uint256"
        },
        {
          "internalType": "uint8",
          "name": "_counts",
          "type": "uint8"
        }
      ],
      "name": "upgradeConsumtion",
      "outputs": [],
      "stateMutability": "payable",
      "type": "function",
      "payable": true
    },
    {
      "inputs": [
        {
          "internalType": "uint256",
          "name": "_chassisId",
          "type": "uint256"
        },
        {
          "internalType": "uint8",
          "name": "_counts",
          "type": "uint8"
        }
      ],
      "name": "upgradeDurability",
      "outputs": [],
      "stateMutability": "payable",
      "type": "function",
      "payable": true
    },
    {
      "inputs": [
        {
          "internalType": "uint256",
          "name": "_engineId",
          "type": "uint256"
        },
        {
          "internalType": "uint8",
          "name": "_counts",
          "type": "uint8"
        }
      ],
      "name": "upgradeHorsePowers",
      "outputs": [],
      "stateMutability": "payable",
      "type": "function",
      "payable": true
    },
    {
      "inputs": [
        {
          "internalType": "uint256",
          "name": "_fuelStatonId",
          "type": "uint256"
        },
        {
          "internalType": "uint8",
          "name": "_counts",
          "type": "uint8"
        }
      ],
      "name": "upgradeProductionPerHour",
      "outputs": [],
      "stateMutability": "payable",
      "type": "function",
      "payable": true
    },
    {
      "inputs": [
        {
          "internalType": "address",
          "name": "_chassisOwnership",
          "type": "address"
        },
        {
          "internalType": "address",
          "name": "_engineOwnership",
          "type": "address"
        },
        {
          "internalType": "address",
          "name": "_carOwnership",
          "type": "address"
        }
      ],
      "name": "init",
      "outputs": [],
      "stateMutability": "nonpayable",
      "type": "function"
    },
    {
      "inputs": [
        {
          "internalType": "address",
          "name": "_owner",
          "type": "address"
        }
      ],
      "name": "balanceOfCars",
      "outputs": [
        {
          "internalType": "uint256",
          "name": "",
          "type": "uint256"
        }
      ],
      "stateMutability": "view",
      "type": "function",
      "constant": true
    },
    {
      "inputs": [
        {
          "internalType": "uint256",
          "name": "_tokenId",
          "type": "uint256"
        }
      ],
      "name": "ownerOfCar",
      "outputs": [
        {
          "internalType": "address",
          "name": "",
          "type": "address"
        }
      ],
      "stateMutability": "view",
      "type": "function",
      "constant": true
    },
    {
      "inputs": [
        {
          "internalType": "address",
          "name": "_from",
          "type": "address"
        },
        {
          "internalType": "address",
          "name": "_to",
          "type": "address"
        },
        {
          "internalType": "uint256",
          "name": "_tokenId",
          "type": "uint256"
        }
      ],
      "name": "transferCarFrom",
      "outputs": [],
      "stateMutability": "payable",
      "type": "function",
      "payable": true
    },
    {
      "inputs": [
        {
          "internalType": "address",
          "name": "_owner",
          "type": "address"
        }
      ],
      "name": "balanceOfEngines",
      "outputs": [
        {
          "internalType": "uint256",
          "name": "",
          "type": "uint256"
        }
      ],
      "stateMutability": "view",
      "type": "function",
      "constant": true
    },
    {
      "inputs": [
        {
          "internalType": "uint256",
          "name": "_tokenId",
          "type": "uint256"
        }
      ],
      "name": "ownerOfEngine",
      "outputs": [
        {
          "internalType": "address",
          "name": "",
          "type": "address"
        }
      ],
      "stateMutability": "view",
      "type": "function",
      "constant": true
    },
    {
      "inputs": [
        {
          "internalType": "address",
          "name": "_from",
          "type": "address"
        },
        {
          "internalType": "address",
          "name": "_to",
          "type": "address"
        },
        {
          "internalType": "uint256",
          "name": "_tokenId",
          "type": "uint256"
        }
      ],
      "name": "transferEngineFrom",
      "outputs": [],
      "stateMutability": "payable",
      "type": "function",
      "payable": true
    },
    {
      "inputs": [
        {
          "internalType": "address",
          "name": "_owner",
          "type": "address"
        }
      ],
      "name": "balanceOfChassis",
      "outputs": [
        {
          "internalType": "uint256",
          "name": "",
          "type": "uint256"
        }
      ],
      "stateMutability": "view",
      "type": "function",
      "constant": true
    },
    {
      "inputs": [
        {
          "internalType": "uint256",
          "name": "_tokenId",
          "type": "uint256"
        }
      ],
      "name": "ownerOfChassis",
      "outputs": [
        {
          "internalType": "address",
          "name": "",
          "type": "address"
        }
      ],
      "stateMutability": "view",
      "type": "function",
      "constant": true
    },
    {
      "inputs": [
        {
          "internalType": "address",
          "name": "_from",
          "type": "address"
        },
        {
          "internalType": "address",
          "name": "_to",
          "type": "address"
        },
        {
          "internalType": "uint256",
          "name": "_tokenId",
          "type": "uint256"
        }
      ],
      "name": "transferChassisFrom",
      "outputs": [],
      "stateMutability": "nonpayable",
      "type": "function"
    },
    {
      "inputs": [
        {
          "internalType": "uint256",
          "name": "chassisId",
          "type": "uint256"
        },
        {
          "internalType": "uint256",
          "name": "price",
          "type": "uint256"
        }
      ],
      "name": "putChassisOnMarketplace",
      "outputs": [],
      "stateMutability": "nonpayable",
      "type": "function"
    },
    {
      "inputs": [
        {
          "internalType": "uint256",
          "name": "chassisId",
          "type": "uint256"
        }
      ],
      "name": "removeChassisFromMarketplace",
      "outputs": [],
      "stateMutability": "nonpayable",
      "type": "function"
    },
    {
      "inputs": [
        {
          "internalType": "uint256",
          "name": "engineId",
          "type": "uint256"
        },
        {
          "internalType": "uint256",
          "name": "price",
          "type": "uint256"
        }
      ],
      "name": "putEngineOnMarketplace",
      "outputs": [],
      "stateMutability": "nonpayable",
      "type": "function"
    },
    {
      "inputs": [
        {
          "internalType": "uint256",
          "name": "engineId",
          "type": "uint256"
        }
      ],
      "name": "removeEngineFromMarketplace",
      "outputs": [],
      "stateMutability": "nonpayable",
      "type": "function"
    },
    {
      "inputs": [
        {
          "internalType": "uint256",
          "name": "carId",
          "type": "uint256"
        },
        {
          "internalType": "uint256",
          "name": "price",
          "type": "uint256"
        }
      ],
      "name": "putCarOnMarketplace",
      "outputs": [],
      "stateMutability": "nonpayable",
      "type": "function"
    },
    {
      "inputs": [
        {
          "internalType": "uint256",
          "name": "carId",
          "type": "uint256"
        }
      ],
      "name": "removeCarFromMarketplace",
      "outputs": [],
      "stateMutability": "nonpayable",
      "type": "function"
    }
  ],
  "bytecode": "0x60806040526000805461ffff60a01b191661014f60a21b179055600160088190556009556509184e72a00060165565b5e620f48000601755650da475abf0006018556611c37937e080006019556305f5e100601a5566038d7ea4c68000601b553480156200006c57600080fd5b5062000078336200024b565b60506003908155605b60049081556005805460ff1916600a179055620186a06006556201d4c1600755600b80546001908101909155600c805482019055604080516060808201835284825260208281018681526000848601818152601c8054808a0182558184529651968b027f0e4562a10381dec21b205ed72637e6b1b523bdd0e4d4d50af5cd23dd4500a2118181019890985593517f0e4562a10381dec21b205ed72637e6b1b523bdd0e4d4d50af5cd23dd4500a2128086019190915591517f0e4562a10381dec21b205ed72637e6b1b523bdd0e4d4d50af5cd23dd4500a21394850155875180870189528b81528086018b8152818a018581528354808d0185558487529251928e02808b019390935590518285015551908501558751808701895260028082528187019b8c52818a018581528354808d0185558487529251928e02808b01939093559b51828501559a5190850155875180870189528b81528086018c8152818a018b81528354808d0185558487529251928e02808b019390935590518285015551908501558751958601885298855292840189815295840187815288548089018a559890915292519690970292830195909555915193810193909355519190920155601f556200029b565b600080546001600160a01b038381166001600160a01b0319831681178455604051919092169283917f8be0079c531659141344cd1fd0a4f28419497f9722a3daafe3b4186f6b6457e09190a35050565b614c2a80620002ab6000396000f3fe6080604052600436106103815760003560e01c80637fb2aa4d116101d1578063c75bb4f411610102578063ede6fbf5116100a0578063f85993b91161006f578063f85993b914610ddb578063faf4bb9814610e08578063fb2d954f14610e1b578063fb33250f14610e3b57600080fd5b8063ede6fbf514610d46578063f2fde38b14610d66578063f66911b114610d86578063f7746e3614610da657600080fd5b8063d7086fab116100dc578063d7086fab14610cc6578063d720be4a14610ce6578063e215a7e414610d06578063ea12693314610d2657600080fd5b8063c75bb4f414610c59578063c85b7fed14610c86578063d1c54eea14610ca657600080fd5b8063906f5f341161016f578063b3b29afd11610149578063b3b29afd14610bab578063b72c0eea14610bd8578063bfcc971614610c19578063c34cccc414610c3957600080fd5b8063906f5f3414610b1b57806392f859db14610b2e578063aa11b68114610b7e57600080fd5b806387d6b9b2116101ab57806387d6b9b214610a9457806389895f7714610aca5780638b57997314610aea5780638da5cb5b14610afd57600080fd5b80637fb2aa4d14610a275780638590926714610a545780638776601914610a6757600080fd5b80633521c426116102b65780635c426aff11610254578063715018a611610223578063715018a6146109bf5780637713d521146109d45780637c62360f14610a015780637ec5c75c14610a1457600080fd5b80635c426aff146109065780635dcc4cc61461093c5780636b606d9b146109725780636f206fc11461099257600080fd5b80634ced3056116102905780634ced3056146108255780634e31f91014610845578063567754e4146108b0578063594193d7146108d057600080fd5b80633521c4261461078c5780633dfd6f54146107b957806344901490146107ef57600080fd5b8063184b95591161032357806324d822bf116102fd57806324d822bf146106ca578063254dc065146106ea5780632cb03a3a1461072057806333ca504b1461075657600080fd5b8063184b9559146105345780631c5dde0e14610554578063224370f01461059657600080fd5b8063081315ff1161035f578063081315ff146104705780630a0176fc146104c65780630ce90ec21461050157806314ed04501461051457600080fd5b806302b677451461038657806303f2e05b146103d95780630418394e146103ee575b600080fd5b34801561039257600080fd5b506103bc6103a1366004614120565b6000908152600d60205260409020546001600160a01b031690565b6040516001600160a01b0390911681526020015b60405180910390f35b6103ec6103e736600461414f565b610e5b565b005b3480156103fa57600080fd5b50610441610409366004614120565b602160205260009081526040902080546001820154600283015460038401546005850154600690950154939492939192909160ff1686565b6040805196875260208701959095529385019290925260608401526080830152151560a082015260c0016103d0565b34801561047c57600080fd5b5061049061048b366004614120565b610f91565b604080519485526020808601949094528481019290925280516060850152918201516080840152015160a082015260c0016103d0565b3480156104d257600080fd5b506104f36104e1366004614120565b60156020526000908152604090205481565b6040519081526020016103d0565b6103ec61050f366004614120565b610fef565b34801561052057600080fd5b506103ec61052f366004614120565b61115f565b34801561054057600080fd5b506103ec61054f366004614192565b611196565b34801561056057600080fd5b5061057461056f366004614120565b6111dd565b6040805193845263ffffffff92831660208501529116908201526060016103d0565b3480156105a257600080fd5b506103ec600180546040805160a0810182528281526000805460ff600160a01b820481166020808601828152600160a81b90940483168688019081526060870192835263ffffffff421660808801908152898b018b559986529551600389027fb10e2d527612073b26eecdfd717e6a320cf44b4afac2b0732d9fcbe2b7fa0cf681019190915593517fb10e2d527612073b26eecdfd717e6a320cf44b4afac2b0732d9fcbe2b7fa0cf785018054975193518516620100000262ff0000199486166101000261ffff19909916929095169190911796909617919091169190911790935594517fb10e2d527612073b26eecdfd717e6a320cf44b4afac2b0732d9fcbe2b7fa0cf8909501949094559183526002909152902080546001600160a01b03191633179055565b3480156106d657600080fd5b506103ec6106e5366004614120565b61121d565b3480156106f657600080fd5b506104f36107053660046141d5565b6001600160a01b031660009081526012602052604090205490565b34801561072c57600080fd5b506104f361073b3660046141d5565b6001600160a01b031660009081526010602052604090205490565b34801561076257600080fd5b506103bc610771366004614120565b600d602052600090815260409020546001600160a01b031681565b34801561079857600080fd5b506107ac6107a7366004614120565b6113d4565b6040516103d091906141f0565b3480156107c557600080fd5b506103bc6107d4366004614120565b6000908152600e60205260409020546001600160a01b031690565b3480156107fb57600080fd5b506103bc61080a366004614120565b600f602052600090815260409020546001600160a01b031681565b34801561083157600080fd5b506103ec610840366004614120565b6114c6565b34801561085157600080fd5b506108656108603660046141d5565b6114fe565b6040516103d09190600060a0820190508251825260ff602084015116602083015260ff604084015116604083015260ff60608401511660608301526080830151608083015292915050565b3480156108bc57600080fd5b506103ec6108cb366004614120565b6115e5565b3480156108dc57600080fd5b506103bc6108eb366004614120565b6002602052600090815260409020546001600160a01b031681565b34801561091257600080fd5b506103bc610921366004614120565b6000908152600f60205260409020546001600160a01b031690565b34801561094857600080fd5b506103bc610957366004614120565b600e602052600090815260409020546001600160a01b031681565b34801561097e57600080fd5b506103ec61098d36600461425f565b61160a565b34801561099e57600080fd5b506109b26109ad3660046141d5565b61170a565b6040516103d09190614281565b3480156109cb57600080fd5b506103ec61185e565b3480156109e057600080fd5b506109f46109ef3660046141d5565b611872565b6040516103d091906142d7565b6103ec610a0f36600461414f565b6119ba565b6103ec610a2236600461432a565b611ad5565b348015610a3357600080fd5b506104f3610a423660046141d5565b60116020526000908152604090205481565b6103ec610a6236600461414f565b611b7d565b348015610a7357600080fd5b506104f3610a823660046141d5565b60126020526000908152604090205481565b348015610aa057600080fd5b506104f3610aaf3660046141d5565b6001600160a01b031660009081526011602052604090205490565b348015610ad657600080fd5b506103ec610ae536600461425f565b611c71565b6103ec610af836600461432a565b611ce9565b348015610b0957600080fd5b506000546001600160a01b03166103bc565b6103ec610b2936600461414f565b611d74565b348015610b3a57600080fd5b50610b4e610b49366004614120565b611e5c565b6040805195865260ff9485166020870152928416928501929092529091166060830152608082015260a0016103d0565b348015610b8a57600080fd5b506104f3610b99366004614120565b60136020526000908152604090205481565b348015610bb757600080fd5b506104f3610bc63660046141d5565b60106020526000908152604090205481565b348015610be457600080fd5b50610bf8610bf3366004614120565b611ea8565b6040805193845261ffff909216602084015260ff16908201526060016103d0565b348015610c2557600080fd5b506104f3610c3436600461437a565b611ee5565b348015610c4557600080fd5b506103ec610c5436600461425f565b61202a565b348015610c6557600080fd5b50610c79610c743660046141d5565b61217a565b6040516103d09190614400565b348015610c9257600080fd5b506103ec610ca1366004614511565b6123b8565b348015610cb257600080fd5b506103ec610cc136600461425f565b6125b5565b348015610cd257600080fd5b506104f3610ce13660046145d5565b61269b565b348015610cf257600080fd5b506103ec610d0136600461425f565b6127f7565b348015610d1257600080fd5b506103ec610d2136600461425f565b61282f565b348015610d3257600080fd5b506103ec610d4136600461425f565b612854565b348015610d5257600080fd5b506103ec610d61366004614671565b6129b8565b348015610d7257600080fd5b506103ec610d813660046141d5565b612b86565b348015610d9257600080fd5b506103ec610da136600461432a565b612bff565b348015610db257600080fd5b50610dc6610dc1366004614120565b612c8a565b6040516103d0999897969594939291906146a6565b348015610de757600080fd5b506104f3610df6366004614120565b60146020526000908152604090205481565b6103ec610e1636600461414f565b612d77565b348015610e2757600080fd5b506103ec610e36366004614120565b612e87565b348015610e4757600080fd5b506103ec610e563660046146fd565b613395565b6000828152600f602052604090205482906001600160a01b03163314610e9c5760405162461bcd60e51b8152600401610e9390614785565b60405180910390fd5b601a54600c8481548110610eb257610eb26147b3565b6000918252602090912060016002909202010154610ed99063ffffffff1660ff85166147df565b63ffffffff16610ee9919061480b565b3414610ef457600080fd5b600080546040516001600160a01b03909116913480156108fc02929091818181858888f19350505050158015610f2e573d6000803e3d6000fd5b508160ff16600c8481548110610f4657610f466147b3565b6000918252602082206001600290920201018054909190610f6e90849063ffffffff1661482a565b92506101000a81548163ffffffff021916908363ffffffff160217905550505050565b60208181548110610fa157600080fd5b60009182526020918290206006909102018054600182015460028301546040805160608101825260038601548152600486015496810196909652600590940154938501939093529093509184565b6000600a808381548110611005576110056147b3565b6000918252602090912060046009909202010154611026919060ff16614868565b61103190600161488a565b60ff16601b54611041919061480b565b905080341461107f5760405162461bcd60e51b815260206004820152600a6024820152691ddc9bdb99c818dbdcdd60b21b6044820152606401610e93565b600080546040516001600160a01b03909116913480156108fc02929091818181858888f193505050501580156110b9573d6000803e3d6000fd5b50600a82815481106110cd576110cd6147b3565b600091825260208220600460099092020101805460ff16916110ee836148af565b91906101000a81548160ff021916908360ff160217905550506000600a838154811061111c5761111c6147b3565b9060005260206000209060090201600601819055506000600a8381548110611146576111466147b3565b9060005260206000209060090201600701819055505050565b6000818152600e602052604090205481906001600160a01b0316331461118457600080fd5b50600090815260156020526040812055565b61119e61357b565b602280546001600160a01b039485166001600160a01b031991821617909155602380549385169382169390931790925560248054919093169116179055565b600c81815481106111ed57600080fd5b60009182526020909120600290910201805460019091015490915063ffffffff8082169164010000000090041683565b6000818152600d602052604090205481906001600160a01b0316331461124257600080fd5b6000600a808481548110611258576112586147b3565b6000918252602090912060046009909202010154611279919060ff16614868565b61128490600a6148ce565b61128f9060026148f1565b905061129b83826135d5565b801561130257508060ff16600c600a85815481106112bb576112bb6147b3565b906000526020600020906009020160030154815481106112dd576112dd6147b3565b6000918252602090912060029091020160010154640100000000900463ffffffff1610155b61130b57600080fd5b8060ff16600c600a8581548110611324576113246147b3565b90600052602060002090600902016003015481548110611346576113466147b3565b906000526020600020906002020160010160048282829054906101000a900463ffffffff16611375919061491a565b92506101000a81548163ffffffff021916908363ffffffff1602179055508060ff16600a84815481106113aa576113aa6147b3565b906000526020600020906009020160050160008282546113ca919061493f565b9091555050505050565b60008181526021602052604090206006015460609060ff1661142a5760405162461bcd60e51b815260206004820152600f60248201526e1c9bdbdb481b9bdd0818db1bdcd959608a1b6044820152606401610e93565b600082815260216020908152604080832060040180548251818502810185019093528083529193909284015b828210156114bb576000848152602090819020604080516080810182526003860290920180546001600160a01b0381168452600160a01b900460ff16151583850152600180820154928401929092526002015460608301529083529092019101611456565b505050509050919050565b6000818152600f602052604090205481906001600160a01b031633146111845760405162461bcd60e51b8152600401610e9390614785565b6040805160a081018252600080825260208201819052918101829052606081018290526080810182905290805b600154811015611570576000818152600260205260409020546001600160a01b0380861691160361155e57809150611570565b8061156881614957565b91505061152b565b5060018181548110611584576115846147b3565b60009182526020918290206040805160a081018252600390930290910180548352600181015460ff80821695850195909552610100810485169284019290925262010000909104909216606082015260029091015460808201529392505050565b6000818152600d602052604090205481906001600160a01b0316331461118457600080fd5b6000818152600f602052604090205481906001600160a01b031633146116425760405162461bcd60e51b8152600401610e9390614785565b6000838152600d602052604090205483906001600160a01b0316331461166757600080fd5b82600a858154811061167b5761167b6147b3565b906000526020600020906009020160030154146116da5760405162461bcd60e51b815260206004820152601860248201527f6368617373697320617265206e6f7420617474616368656400000000000000006044820152606401610e93565b6000600a85815481106116ef576116ef6147b3565b90600052602060002090600902016003018190555050505050565b6001600160a01b0381166000908152601260205260408120546060919067ffffffffffffffff81111561173f5761173f6144ca565b60405190808252806020026020018201604052801561178a57816020015b604080516060810182526000808252602080830182905292820152825260001990920191018161175d5790505b5090506000805b600c54811015611855576000818152600f60205260409020546001600160a01b0380871691160361184357600c81815481106117cf576117cf6147b3565b6000918252602091829020604080516060810182526002909302909101805483526001015463ffffffff808216948401949094526401000000009004909216918101919091528351849084908110611829576118296147b3565b6020026020010181905250818061183f90614957565b9250505b8061184d81614957565b915050611791565b50909392505050565b61186661357b565b6118706000613777565b565b6001600160a01b0381166000908152601160205260408120546060919067ffffffffffffffff8111156118a7576118a76144ca565b6040519080825280602002602001820160405280156118f257816020015b60408051606081018252600080825260208083018290529282015282526000199092019101816118c55790505b5090506000805b600b54811015611855576000818152600e60205260409020546001600160a01b038087169116036119a857600b8181548110611937576119376147b3565b600091825260209182902060408051606081018252600293909302909101805483526001015461ffff8116938301939093526201000090920460ff1691810191909152835184908490811061198e5761198e6147b3565b602002602001018190525081806119a490614957565b9250505b806119b281614957565b9150506118f9565b6000828152600e602052604090205482906001600160a01b031633146119df57600080fd5b600b83815481106119f2576119f26147b3565b6000918252602090912060029091020160010154611a1a9062010000900460ff16600a6148ce565b611a25906002614a4c565b601954611a32919061480b565b3414611a3d57600080fd5b600080546040516001600160a01b03909116913480156108fc02929091818181858888f19350505050158015611a77573d6000803e3d6000fd5b5081600b8481548110611a8c57611a8c6147b3565b906000526020600020906002020160010160028282829054906101000a900460ff16611ab891906148ce565b92506101000a81548160ff021916908360ff160217905550505050565b6024546001600160a01b03163314611b2f5760405162461bcd60e51b815260206004820152601960248201527f796f7520617265206e6f7420636172206f776e657273686970000000000000006044820152606401610e93565b6000818152600d60205260409020546001600160a01b0384811691161480611b64575060008181526013602052604090205415155b611b6d57600080fd5b611b788383836137c7565b505050565b60008281526002602052604090205482906001600160a01b03163314611ba257600080fd5b60175460018481548110611bb857611bb86147b3565b6000918252602090912060039091020160010154611bde90610100900460ff16846148f1565b60ff16611beb919061480b565b3414611bf657600080fd5b600080546040516001600160a01b03909116913480156108fc02929091818181858888f19350505050158015611c30573d6000803e3d6000fd5b508160018481548110611c4557611c456147b3565b906000526020600020906003020160010160018282829054906101000a900460ff16611ab8919061488a565b6000828152600e602052604090205482906001600160a01b03163314611c9657600080fd5b60008211611cd65760405162461bcd60e51b815260206004820152600d60248201526c696e76616c696420707269636560981b6044820152606401610e93565b5060009182526015602052604090912055565b6023546001600160a01b03163314611d435760405162461bcd60e51b815260206004820152601c60248201527f796f7520617265206e6f7420656e67696e65206f776e657273686970000000006044820152606401610e93565b6000818152600e60205260409020546001600160a01b03848116911614611d6957600080fd5b611b78838383613951565b60008281526002602052604090205482906001600160a01b03163314611d9957600080fd5b60165460018481548110611daf57611daf6147b3565b6000918252602090912060016003909202010154611dd09060ff16846148f1565b60ff16611ddd919061480b565b3414611de857600080fd5b600080546040516001600160a01b03909116913480156108fc02929091818181858888f19350505050158015611e22573d6000803e3d6000fd5b508160018481548110611e3757611e376147b3565b6000918252602082206001600390920201018054909190611ab890849060ff1661488a565b60018181548110611e6c57600080fd5b600091825260209091206003909102018054600182015460029092015490925060ff808316926101008104821692620100009091049091169085565b600b8181548110611eb857600080fd5b60009182526020909120600290910201805460019091015490915061ffff81169062010000900460ff1683565b6000611eef61357b565b6009805460009182611f0083614957565b909155506040805160608101825282815263ffffffff8781166020808401828152848601928352600c80546001810182556000918252955160029096027fdf6966c971051c3d54ec59162606531493a51404a002842f56009d7e5cf4a8c781019690965590517fdf6966c971051c3d54ec59162606531493a51404a002842f56009d7e5cf4a8c89095018054935185166401000000000267ffffffffffffffff1990941695909416949094179190911790915581546001600160a01b0316825260129052908120805492935090611fd683614957565b909155505060008054828252600f602052604090912080546001600160a01b0319166001600160a01b0390921691909117905582156120215760008181526015602052604090208390555b90505b92915050565b6000818152600e602052604090205481906001600160a01b0316331461204f57600080fd5b6000838152600d602052604090205483906001600160a01b0316331461207457600080fd5b82600a8581548110612088576120886147b3565b906000526020600020906009020160020154036120d55760405162461bcd60e51b815260206004820152600b60248201526a73616d6520656e67696e6560a81b6044820152606401610e93565b60006120e03361217a565b905060005b81518110156121495784828281518110612101576121016147b3565b60200260200101516040015103612137576000828281518110612126576121266147b3565b602002602001015160400181815250505b8061214181614957565b9150506120e5565b5083600a868154811061215e5761215e6147b3565b9060005260206000209060090201600201819055505050505050565b6001600160a01b0381166000908152601060205260408120546060919067ffffffffffffffff8111156121af576121af6144ca565b60405190808252806020026020018201604052801561223257816020015b61221f60405180610120016040528060608152602001600081526020016000815260200160008152602001600060ff168152602001600081526020016000815260200160008152602001600081525090565b8152602001906001900390816121cd5790505b5090506000805b600a54811015611855576000818152600d60205260409020546001600160a01b038087169116036123a657600a8181548110612277576122776147b3565b9060005260206000209060090201604051806101200160405290816000820180546122a190614a5b565b80601f01602080910402602001604051908101604052809291908181526020018280546122cd90614a5b565b801561231a5780601f106122ef5761010080835404028352916020019161231a565b820191906000526020600020905b8154815290600101906020018083116122fd57829003601f168201915b5050509183525050600182015460208201526002820154604082015260038201546060820152600482015460ff166080820152600582015460a0820152600682015460c0820152600782015460e082015260089091015461010090910152835184908490811061238c5761238c6147b3565b602002602001018190525081806123a290614957565b9250505b806123b081614957565b915050612239565b336000908152601d602052604090205482146124065760405162461bcd60e51b815260206004820152600d60248201526c6e6f7420796f757220726f6f6d60981b6044820152606401610e93565b600082815260216020526040808220600201549051634e31f59760e11b815290919073__PDDLib________________________________90639c63eb2e906124549085908790600401614a95565b602060405180830381865af4158015612471573d6000803e3d6000fd5b505050506040513d601f19601f820116820180604052508101906124959190614ae3565b60408051608081018252338082528315156020808401918252428486019081526000938452601e825285842054606086019081528b855260218352958420600481018054600181810183558288529487208851600390920201805496511515600160a01b026001600160a81b03199097166001600160a01b039290921691909117959095178555915192840192909255945160029092019190915590889052805492549394509092909190036125ad576040518681527f67acaceb58ff1ad2aa8b3069f69c4cd076824e06a09184b75fb197ead7040be79060200160405180910390a16000868152602160209081526040808320600601805460ff19166001179055338352601d8252808320839055601e9091528120555b505050505050565b6000818152600e602052604090205481906001600160a01b031633146125da57600080fd5b6000838152600d602052604090205483906001600160a01b031633146125ff57600080fd5b82600a8581548110612613576126136147b3565b9060005260206000209060090201600201541461266b5760405162461bcd60e51b8152602060048201526016602482015275195b99da5b99481a5cc81b9bdd08185d1d1858da195960521b6044820152606401610e93565b6000600a8581548110612680576126806147b3565b90600052602060002090600902016002018190555050505050565b60006126a561357b565b60088054600091826126b683614957565b909155506040805160608101825282815261ffff8089166020830190815260ff808a16948401948552600b80546001810182556000918252945160029095027f0175b7a638427703f0dbe7bb9bbf987a2551717b34e79f33b5b1008d1fa01db981019590955591517f0175b7a638427703f0dbe7bb9bbf987a2551717b34e79f33b5b1008d1fa01dba90940180549551909116620100000262ffffff1990951693909216929092179290921790915590915060119061277d6000546001600160a01b031690565b6001600160a01b03168152602081019190915260400160009081208054916127a483614957565b909155505060008054828252600e602052604090912080546001600160a01b0319166001600160a01b0390921691909117905582156127ef5760008181526014602052604090208390555b949350505050565b6000828152600f602052604090205482906001600160a01b03163314611c965760405162461bcd60e51b8152600401610e9390614785565b6000828152600d602052604090205482906001600160a01b03163314611c9657600080fd5b6000818152600f602052604090205481906001600160a01b0316331461288c5760405162461bcd60e51b8152600401610e9390614785565b6000838152600d602052604090205483906001600160a01b031633146128b157600080fd5b82600a85815481106128c5576128c56147b3565b906000526020600020906009020160030154036129135760405162461bcd60e51b815260206004820152600c60248201526b73616d65206368617373697360a01b6044820152606401610e93565b600061291e3361217a565b905060005b8151811015612987578482828151811061293f5761293f6147b3565b60200260200101516060015103612975576000828281518110612964576129646147b3565b602002602001015160600181815250505b8061297f81614957565b915050612923565b5083600a868154811061299c5761299c6147b3565b9060005260206000209060090201600301819055505050505050565b33600090815260106020526040902054156129d257600080fd5b6000816129de42613a48565b6040516020016129ef929190614b05565b6040516020818303038152906040529050600081604051602001612a139190614b2b565b6040516020818303038152906040528051906020012060001c90506000612a38613adb565b90506000612a44613c0f565b600a80546040805161012081018252898152602080820189905291810187905260608101859052600160808201819052600060a0830181905260c0830181905260e083018190526101008301859052908401855593909352825180519495509193600985027fc65a7bb8d6351c1cf70c95a316cc6a92839c986682d98bc35f958f4883f9d2a80192612ada928492910190614087565b506020828101516001830155604080840151600284015560608401516003840155608084015160048401805460ff191660ff90921691909117905560a0840151600584015560c0840151600684015560e08401516007840155610100909301516008909201919091556000838152600d82528281208054336001600160a01b0319909116811790915581526010909152908120805491612b7983614957565b9190505550505050505050565b612b8e61357b565b6001600160a01b038116612bf35760405162461bcd60e51b815260206004820152602660248201527f4f776e61626c653a206e6577206f776e657220697320746865207a65726f206160448201526564647265737360d01b6064820152608401610e93565b612bfc81613777565b50565b6022546001600160a01b03163314612c595760405162461bcd60e51b815260206004820152601d60248201527f796f7520617265206e6f742063686173736973206f776e6572736869700000006044820152606401610e93565b6000818152600f60205260409020546001600160a01b03848116911614612c7f57600080fd5b611b78838383613d43565b600a8181548110612c9a57600080fd5b9060005260206000209060090201600091509050806000018054612cbd90614a5b565b80601f0160208091040260200160405190810160405280929190818152602001828054612ce990614a5b565b8015612d365780601f10612d0b57610100808354040283529160200191612d36565b820191906000526020600020905b815481529060010190602001808311612d1957829003601f168201915b50505060018401546002850154600386015460048701546005880154600689015460078a01546008909a01549899959894975092955060ff90911693909289565b6000828152600e602052604090205482906001600160a01b03163314612d9c57600080fd5b601854600b8481548110612db257612db26147b3565b6000918252602090912060016002909202010154612dd79061ffff1660ff8516614b47565b61ffff16612de5919061480b565b3414612df057600080fd5b600080546040516001600160a01b03909116913480156108fc02929091818181858888f19350505050158015612e2a573d6000803e3d6000fd5b508160ff16600b8481548110612e4257612e426147b3565b6000918252602082206001600290920201018054909190612e6890849061ffff16614b68565b92506101000a81548161ffff021916908361ffff160217905550505050565b6000818152600d602052604090205481906001600160a01b03163314612eac57600080fd5b6000805b6020548110156132325760208181548110612ecd57612ecd6147b3565b906000526020600020906006020160020154600a808681548110612ef357612ef36147b3565b6000918252602090912060046009909202010154612f14919060ff16614868565b612f1f90600161488a565b60ff1603613220576001915060208181548110612f3e57612f3e6147b3565b60009182526020808320600690920290910154338352601d8252604080842091909155601e8252909120859055805482908110612f7d57612f7d6147b3565b600091825260208220600160069092020101805491612f9b83614957565b919050555060208181548110612fb357612fb36147b3565b90600052602060002090600602016003016000015460208281548110612fdb57612fdb6147b3565b9060005260206000209060060201600101540361322057600073__PDDLib________________________________63c037e54560208481548110613021576130216147b3565b90600052602060002090600602016003016002015460208581548110613049576130496147b3565b9060005260206000209060060201600301600001546040518363ffffffff1660e01b8152600401613084929190918252602082015260400190565b602060405180830381865af41580156130a1573d6000803e3d6000fd5b505050506040513d601f19601f820116820180604052508101906130c59190614b85565b9050600060216000602085815481106130e0576130e06147b3565b9060005260206000209060060201600001548152602001908152602001600020905060208381548110613115576131156147b3565b600091825260209182902060036006909202010154825580548490811061313e5761313e6147b3565b600091825260208083206006928302016002908101546001860155840185905542600385015560058401929092558201805460ff1916905580547f2838ebeee7dc83fac85a3d6dbca0c0b6771591ada8b00f97371aa6611e631f9c9190859081106131ab576131ab6147b3565b600091825260209182902060069091020154604080519182529181018590520160405180910390a1602083815481106131e6576131e66147b3565b6000918252602082206006909102018181556001810182905560028101829055600381018290556004810182905560050155506132329050565b8061322a81614957565b915050612eb0565b50801561323e57505050565b601f80546000918261324f83614957565b90915550601c549091506000906132669042614b9e565b905081601d6000336001600160a01b03166001600160a01b03168152602001908152602001600020819055506020604051806080016040528084815260200160018152602001600a8089815481106132c0576132c06147b3565b60009182526020909120600460099092020101546132e1919060ff16614868565b6132ec90600161488a565b60ff168152602001601c8481548110613307576133076147b3565b60009182526020808320604080516060808201835260039586029093018054825260018082015483870152600291820154838501529190975288548082018a5598865294839020875160069099020197885586830151948801949094558584015194870194909455939092015180519285019290925591810151600484015501516005909101555050505050565b61339d61357b565b6000866133a942613a48565b6040516020016133ba929190614b05565b60405160208183030381529060405290506000816040516020016133de9190614b2b565b6040516020818303038152906040528051906020012060001c905060006134078888600061269b565b90506000613416876000611ee5565b600a805460408051610120810182528e815260208082018990529181018790526060810185905260ff8b166080820152600060a0820181905260c0820181905260e08201819052610100820184905260018401855593909352825180519495509193600985027fc65a7bb8d6351c1cf70c95a316cc6a92839c986682d98bc35f958f4883f9d2a801926134ad928492910190614087565b506020828101516001830155604080840151600284015560608401516003840155608084015160048401805460ff90921660ff1990921691909117905560a0840151600584015560c0840151600684015560e084015160078401556101009093015160089092019190915560008054848252600d835283822080546001600160a01b0319166001600160a01b039283161790558154168152601090915290812080549161355983614957565b9091555050600090815260136020526040902094909455505050505050505050565b6000546001600160a01b031633146118705760405162461bcd60e51b815260206004820181905260248201527f4f776e61626c653a2063616c6c6572206973206e6f7420746865206f776e65726044820152606401610e93565b6000828152600d602052604081205481906135f8906001600160a01b03166114fe565b90506136078160000151613e3a565b6000600a858154811061361c5761361c6147b3565b9060005260206000209060090201600201549050600060019050600a85600b848154811061364c5761364c6147b3565b906000526020600020906002020160010160029054906101000a900460ff1661367591906148f1565b60ff16106136c657600a600b8381548110613692576136926147b3565b60009182526020909120600290910201600101546136b99062010000900460ff16876148f1565b6136c39190614868565b90505b8060ff1660018460000151815481106136e1576136e16147b3565b600091825260209091206003909102016001015462010000900460ff161061376b5780600184600001518154811061371b5761371b6147b3565b906000526020600020906003020160010160028282829054906101000a900460ff1661374791906148ce565b92506101000a81548160ff021916908360ff16021790555060019350505050612024565b60009350505050612024565b600080546001600160a01b038381166001600160a01b0319831681178455604051919092169283917f8be0079c531659141344cd1fd0a4f28419497f9722a3daafe3b4186f6b6457e09190a35050565b6001600160a01b0383166000908152601060205260409020546138225760405162461bcd60e51b815260206004820152601360248201527234ba1034b9903cb7bab9103630b9ba1031b0b960691b6044820152606401610e93565b600a8181548110613835576138356147b3565b906000526020600020906009020160030154600014613879576000600a8281548110613863576138636147b3565b9060005260206000209060090201600301819055505b600a818154811061388c5761388c6147b3565b9060005260206000209060090201600201546000146138d0576000600a82815481106138ba576138ba6147b3565b9060005260206000209060090201600201819055505b6001600160a01b03821660009081526010602052604081208054916138f483614957565b90915550506001600160a01b038316600090815260106020526040812080549161391d83614bb2565b90915550506000908152600d6020526040902080546001600160a01b0319166001600160a01b039290921691909117905550565b600061395c8461217a565b905060005b81518110156139c5578282828151811061397d5761397d6147b3565b602002602001015160400151036139b35760008282815181106139a2576139a26147b3565b602002602001015160400181815250505b806139bd81614957565b915050613961565b506001600160a01b03831660009081526011602052604081208054916139ea83614957565b90915550506001600160a01b0384166000908152601160205260408120805491613a1383614bb2565b9091555050506000908152600e6020526040902080546001600160a01b0319166001600160a01b039290921691909117905550565b60606000613a5583613f99565b600101905060008167ffffffffffffffff811115613a7557613a756144ca565b6040519080825280601f01601f191660200182016040528015613a9f576020820181803683370190505b5090508181016020015b600019016f181899199a1a9b1b9c1cb0b131b232b360811b600a86061a8153600a8504945084613aa957509392505050565b600080600354600454613aee9190614bc9565b613af89042614b9e565b600354613b05919061493f565b600880549192506000919082613b1a83614957565b909155506040805160608101825282815261ffff808616602080840191825260055460ff908116858701908152600b80546001810182556000918252965160029097027f0175b7a638427703f0dbe7bb9bbf987a2551717b34e79f33b5b1008d1fa01db981019790975593517f0175b7a638427703f0dbe7bb9bbf987a2551717b34e79f33b5b1008d1fa01dba90960180549151909216620100000262ffffff1990911695909416949094179290921790925533825260119052908120805492935090613be683614957565b90915550506000818152600e6020526040902080546001600160a01b0319163317905592915050565b600080600654600754613c229190614bc9565b613c2c9042614b9e565b600654613c39919061493f565b600980549192506000919082613c4e83614957565b909155506040805160608101825282815263ffffffff8086166020808401828152848601928352600c80546001810182556000918252955160029096027fdf6966c971051c3d54ec59162606531493a51404a002842f56009d7e5cf4a8c781019690965590517fdf6966c971051c3d54ec59162606531493a51404a002842f56009d7e5cf4a8c89095018054935185166401000000000267ffffffffffffffff1990941695909416949094179190911790915533825260129052908120805492935090613d1a83614957565b90915550506000818152600f6020526040902080546001600160a01b0319163317905592915050565b6001600160a01b0382166000908152601260205260408120805491613d6783614957565b90915550506001600160a01b0383166000908152601260205260408120805491613d9083614bb2565b91905055506000613da08461217a565b905060005b8151811015613e095782828281518110613dc157613dc16147b3565b60200260200101516060015103613df7576000828281518110613de657613de66147b3565b602002602001015160600181815250505b80613e0181614957565b915050613da5565b50506000908152600f6020526040902080546001600160a01b0319166001600160a01b039290921691909117905550565b60004290506000610e1060018481548110613e5757613e576147b3565b90600052602060002090600302016002015483613e749190614bc9565b613e7e9190614be0565b9050600060018481548110613e9557613e956147b3565b6000918252602090912060039091020160010154613ebb90610100900460ff168361480b565b60018581548110613ece57613ece6147b3565b6000918252602090912060039091020160010154613ef5919062010000900460ff1661493f565b9050613f2e60018581548110613f0d57613f0d6147b3565b600091825260209091206001600390920201015460ff908116908316614071565b60018581548110613f4157613f416147b3565b906000526020600020906003020160010160026101000a81548160ff021916908360ff1602179055508260018581548110613f7e57613f7e6147b3565b90600052602060002090600302016002018190555050505050565b60008072184f03e93ff9f4daa797ed6e38ed64bf6a1f0160401b8310613fd85772184f03e93ff9f4daa797ed6e38ed64bf6a1f0160401b830492506040015b6d04ee2d6d415b85acef81000000008310614004576d04ee2d6d415b85acef8100000000830492506020015b662386f26fc10000831061402257662386f26fc10000830492506010015b6305f5e100831061403a576305f5e100830492506008015b612710831061404e57612710830492506004015b60648310614060576064830492506002015b600a83106120245760010192915050565b60008183106140805781612021565b5090919050565b82805461409390614a5b565b90600052602060002090601f0160209004810192826140b557600085556140fb565b82601f106140ce57805160ff19168380011785556140fb565b828001600101855582156140fb579182015b828111156140fb5782518255916020019190600101906140e0565b5061410792915061410b565b5090565b5b80821115614107576000815560010161410c565b60006020828403121561413257600080fd5b5035919050565b803560ff8116811461414a57600080fd5b919050565b6000806040838503121561416257600080fd5b8235915061417260208401614139565b90509250929050565b80356001600160a01b038116811461414a57600080fd5b6000806000606084860312156141a757600080fd5b6141b08461417b565b92506141be6020850161417b565b91506141cc6040850161417b565b90509250925092565b6000602082840312156141e757600080fd5b6120218261417b565b602080825282518282018190526000919060409081850190868401855b8281101561425257815180516001600160a01b03168552868101511515878601528581015186860152606090810151908501526080909301929085019060010161420d565b5091979650505050505050565b6000806040838503121561427257600080fd5b50508035926020909101359150565b602080825282518282018190526000919060409081850190868401855b82811015614252578151805185528681015163ffffffff908116888701529086015116858501526060909301929085019060010161429e565b602080825282518282018190526000919060409081850190868401855b82811015614252578151805185528681015161ffff168786015285015160ff1685850152606090930192908501906001016142f4565b60008060006060848603121561433f57600080fd5b6143488461417b565b92506143566020850161417b565b9150604084013590509250925092565b803563ffffffff8116811461414a57600080fd5b6000806040838503121561438d57600080fd5b61439683614366565b946020939093013593505050565b60005b838110156143bf5781810151838201526020016143a7565b838111156143ce576000848401525b50505050565b600081518084526143ec8160208601602086016143a4565b601f01601f19169290920160200192915050565b60006020808301818452808551808352604092508286019150828160051b87010184880160005b838110156144bc57603f198984030185528151610120815181865261444e828701826143d4565b9150508882015189860152878201518886015260608083015181870152506080808301516144808288018260ff169052565b505060a0828101519086015260c0808301519086015260e080830151908601526101009182015191909401529386019390860190600101614427565b509098975050505050505050565b634e487b7160e01b600052604160045260246000fd5b604051601f8201601f1916810167ffffffffffffffff81118282101715614509576145096144ca565b604052919050565b6000806040838503121561452457600080fd5b8235915060208084013567ffffffffffffffff8082111561454457600080fd5b818601915086601f83011261455857600080fd5b81358181111561456a5761456a6144ca565b8060051b915061457b8483016144e0565b818152918301840191848101908984111561459557600080fd5b938501935b838510156145b35784358252938501939085019061459a565b8096505050505050509250929050565b803561ffff8116811461414a57600080fd5b6000806000606084860312156145ea57600080fd5b6145f3846145c3565b925061435660208501614139565b600082601f83011261461257600080fd5b813567ffffffffffffffff81111561462c5761462c6144ca565b61463f601f8201601f19166020016144e0565b81815284602083860101111561465457600080fd5b816020850160208301376000918101602001919091529392505050565b60006020828403121561468357600080fd5b813567ffffffffffffffff81111561469a57600080fd5b6127ef84828501614601565b60006101208083526146ba8184018d6143d4565b602084019b909b5250506040810197909752606087019590955260ff93909316608086015260a085019190915260c084015260e083015261010090910152919050565b60008060008060008060c0878903121561471657600080fd5b863567ffffffffffffffff81111561472d57600080fd5b61473989828a01614601565b965050614748602088016145c3565b945061475660408801614139565b935061476460608801614366565b925061477260808801614139565b915060a087013590509295509295509295565b6020808252601490820152730c6d0c2e6e6d2e640dcdee840f2deeae4407c74560631b604082015260600190565b634e487b7160e01b600052603260045260246000fd5b634e487b7160e01b600052601160045260246000fd5b600063ffffffff80831681851681830481118215151615614802576148026147c9565b02949350505050565b6000816000190483118215151615614825576148256147c9565b500290565b600063ffffffff808316818516808303821115614849576148496147c9565b01949350505050565b634e487b7160e01b600052601260045260246000fd5b600060ff83168061487b5761487b614852565b8060ff84160491505092915050565b600060ff821660ff84168060ff038211156148a7576148a76147c9565b019392505050565b600060ff821660ff81036148c5576148c56147c9565b60010192915050565b600060ff821660ff8416808210156148e8576148e86147c9565b90039392505050565b600060ff821660ff84168160ff0481118215151615614912576149126147c9565b029392505050565b600063ffffffff83811690831681811015614937576149376147c9565b039392505050565b60008219821115614952576149526147c9565b500190565b600060018201614969576149696147c9565b5060010190565b600181815b808511156149ab578160001904821115614991576149916147c9565b8085161561499e57918102915b93841c9390800290614975565b509250929050565b6000826149c257506001612024565b816149cf57506000612024565b81600181146149e557600281146149ef57614a0b565b6001915050612024565b60ff841115614a0057614a006147c9565b50506001821b612024565b5060208310610133831016604e8410600b8410161715614a2e575081810a612024565b614a388383614970565b8060001904821115614912576149126147c9565b600061202160ff8416836149b3565b600181811c90821680614a6f57607f821691505b602082108103614a8f57634e487b7160e01b600052602260045260246000fd5b50919050565b6000604082018483526020604081850152818551808452606086019150828701935060005b81811015614ad657845183529383019391830191600101614aba565b5090979650505050505050565b600060208284031215614af557600080fd5b8151801515811461202157600080fd5b60008351614b178184602088016143a4565b8351908301906148498183602088016143a4565b60008251614b3d8184602087016143a4565b9190910192915050565b600061ffff80831681851681830481118215151615614802576148026147c9565b600061ffff808316818516808303821115614849576148496147c9565b600060208284031215614b9757600080fd5b5051919050565b600082614bad57614bad614852565b500690565b600081614bc157614bc16147c9565b506000190190565b600082821015614bdb57614bdb6147c9565b500390565b600082614bef57614bef614852565b50049056fea26469706673582212204c757f17f93dbefc8d62b5ec5f3285bb728ef725b6fa3e7330ffe99cb28039f664736f6c634300080d0033",
  "immutableReferences": {},
  "source": "// SPDX-License-Identifier: MIT\npragma solidity ^0.8.13;\n\nimport \"./CarRacing.sol\";\n\ncontract TokenOwnership is CarRacing{\n\n\n    address chassisOwnership;\n    address engineOwnership;\n    address carOwnership;\n\n    // constructor(address _chassisOwnership, address _engineOwnership, address _carOwnership){\n    //     chassisOwnership = _chassisOwnership;\n    //     engineOwnership = _engineOwnership;\n    //     carOwnership = _carOwnership;\n    // }\n    function init(address _chassisOwnership, address _engineOwnership, address _carOwnership) public onlyOwner{\n        chassisOwnership = _chassisOwnership;\n        engineOwnership = _engineOwnership;\n        carOwnership = _carOwnership;\n    }\n\n    function balanceOfCars(address _owner) external view returns (uint256) {\n        return ownerCarCount[_owner];\n    }\n    function ownerOfCar(uint256 _tokenId) external view returns(address) {\n        return carToOwner[_tokenId];\n    }\n    function _transferCar(address _from, address _to, uint256 _tokenId) private {\n        require(ownerCarCount[_from]>0, \"it is your last car\");\n        if(cars[_tokenId].chassisId != 0){\n            cars[_tokenId].chassisId = 0;\n        }\n        if(cars[_tokenId].engineId != 0){\n            cars[_tokenId].engineId = 0;\n        }\n        ownerCarCount[_to]++;// = ownerCarCount[_to].add(1);\n        ownerCarCount[_from]--;// = ownerCarCount[_from].sub(1);\n        carToOwner[_tokenId] = _to;\n    }\n    function transferCarFrom(address _from, address _to, uint256 _tokenId) external payable {\n        require(msg.sender == carOwnership, \"you are not car ownership\");\n        require (carToOwner[_tokenId] == _from || carToPrice[_tokenId] != 0);\n        _transferCar(_from, _to, _tokenId);\n    }\n\n\n    function balanceOfEngines(address _owner) external view returns (uint256) {\n        return ownerEngineCount[_owner];\n    }\n    function ownerOfEngine(uint256 _tokenId) external view returns(address) {\n        return engineToOwner[_tokenId];\n    }\n    function _transferEngine(address _from, address _to, uint256 _tokenId) private {\n        Car[] memory cars = getCarsByOwner(_from);\n        \n        for(uint i = 0; i<cars.length; i++){\n            if(cars[i].engineId == _tokenId){\n                cars[i].engineId = 0;\n            }\n        }\n        ownerEngineCount[_to]++;// = ownerEngineCount[_to].add(1);\n        ownerEngineCount[_from]--;// = ownerEngineCount[_from].sub(1);\n        engineToOwner[_tokenId] = _to;\n    }\n    function transferEngineFrom(address _from, address _to, uint256 _tokenId) external payable {\n        require(msg.sender == engineOwnership, \"you are not engine ownership\");\n        require (engineToOwner[_tokenId] == _from);\n        _transferEngine(_from, _to, _tokenId);\n    }\n\n    \n    function balanceOfChassis(address _owner) external view returns (uint256) {\n        return ownerChassisCount[_owner];\n    }\n    function ownerOfChassis(uint256 _tokenId) external view returns(address) {\n        return chassisToOwner[_tokenId];\n    }\n    function _transferChassis(address _from, address _to, uint256 _tokenId) private {\n        ownerChassisCount[_to]++;// = ownerChassisCount[_to].add(1);\n        ownerChassisCount[_from]--;// = ownerChassisCount[_from].sub(1);\n        Car[] memory cars = getCarsByOwner(_from);\n        for(uint i = 0; i<cars.length; i++){\n            if(cars[i].chassisId == _tokenId){\n                cars[i].chassisId = 0;\n            }\n        }\n        chassisToOwner[_tokenId] = _to;\n    }\n    function transferChassisFrom(address _from, address _to, uint256 _tokenId) external {\n        require(msg.sender == chassisOwnership, \"you are not chassis ownership\");\n        require (chassisToOwner[_tokenId] == _from);\n        _transferChassis(_from, _to, _tokenId);\n    }\n\n\n    function putChassisOnMarketplace(uint chassisId, uint price) public onlyOwnerOfChassis(chassisId){\n        require(price>0, \"invalid price\");\n        chassisToPrice[chassisId] = price;\n    }\n    function removeChassisFromMarketplace(uint chassisId) public onlyOwnerOfChassis(chassisId){\n        chassisToPrice[chassisId] = 0;\n    }\n\n    function putEngineOnMarketplace(uint engineId, uint price) public onlyOwnerOfEngine(engineId){\n        require(price>0, \"invalid price\");\n        chassisToPrice[engineId] = price;\n    }\n    function removeEngineFromMarketplace(uint engineId) public onlyOwnerOfEngine(engineId){\n        chassisToPrice[engineId] = 0;\n    }\n\n    function putCarOnMarketplace(uint carId, uint price) public onlyOwnerOfCar(carId){\n        require(price>0, \"invalid price\");\n        chassisToPrice[carId] = price;\n    }\n    function removeCarFromMarketplace(uint carId) public onlyOwnerOfCar(carId){\n        chassisToPrice[carId] = 0;\n    }\n\n}",
  "sourcePath": "/Users/vvan/Programming/JavaScript/DriveSafely/contract/contracts/TokenOwnership.sol",
  "compiler": {
    "name": "solc",
    "version": "0.8.13+commit.abaa5c0e.Emscripten.clang"
  },
  "schemaVersion": "3.4.11",
  "updatedAt": "2023-01-11T13:14:03.600Z",
  "networkType": "ethereum",
  "devdoc": {
    "kind": "dev",
    "methods": {
      "owner()": {
        "details": "Returns the address of the current owner."
      },
      "renounceOwnership()": {
        "details": "Leaves the contract without owner. It will not be possible to call `onlyOwner` functions anymore. Can only be called by the current owner. NOTE: Renouncing ownership will leave the contract without an owner, thereby removing any functionality that is only available to the owner."
      },
      "transferOwnership(address)": {
        "details": "Transfers ownership of the contract to a new account (`newOwner`). Can only be called by the current owner."
      }
    },
    "version": 1
  },
  "userdoc": {
    "kind": "user",
    "methods": {},
    "version": 1
  }
}