{
  "contractName": "TokenOwnership",
  "abi": [
    {
      "anonymous": false,
      "inputs": [
        {
          "indexed": true,
          "internalType": "address",
          "name": "previousOwner",
          "type": "address"
        },
        {
          "indexed": true,
          "internalType": "address",
          "name": "newOwner",
          "type": "address"
        }
      ],
      "name": "OwnershipTransferred",
      "type": "event"
    },
    {
      "anonymous": false,
      "inputs": [
        {
          "indexed": false,
          "internalType": "uint256",
          "name": "roomId",
          "type": "uint256"
        }
      ],
      "name": "RoomClosed",
      "type": "event"
    },
    {
      "anonymous": false,
      "inputs": [
        {
          "indexed": false,
          "internalType": "uint256",
          "name": "roomId",
          "type": "uint256"
        },
        {
          "indexed": false,
          "internalType": "uint256",
          "name": "roomDNA",
          "type": "uint256"
        }
      ],
      "name": "RoomFull",
      "type": "event"
    },
    {
      "inputs": [
        {
          "internalType": "uint256",
          "name": "",
          "type": "uint256"
        }
      ],
      "name": "carApprovals",
      "outputs": [
        {
          "internalType": "address",
          "name": "",
          "type": "address"
        }
      ],
      "stateMutability": "view",
      "type": "function",
      "constant": true
    },
    {
      "inputs": [
        {
          "internalType": "uint256",
          "name": "",
          "type": "uint256"
        }
      ],
      "name": "carToOwner",
      "outputs": [
        {
          "internalType": "address",
          "name": "",
          "type": "address"
        }
      ],
      "stateMutability": "view",
      "type": "function",
      "constant": true
    },
    {
      "inputs": [
        {
          "internalType": "uint256",
          "name": "",
          "type": "uint256"
        }
      ],
      "name": "carToPrice",
      "outputs": [
        {
          "internalType": "uint256",
          "name": "",
          "type": "uint256"
        }
      ],
      "stateMutability": "view",
      "type": "function",
      "constant": true
    },
    {
      "inputs": [
        {
          "internalType": "uint256",
          "name": "",
          "type": "uint256"
        }
      ],
      "name": "cars",
      "outputs": [
        {
          "internalType": "string",
          "name": "model",
          "type": "string"
        },
        {
          "internalType": "uint256",
          "name": "vin",
          "type": "uint256"
        },
        {
          "internalType": "uint256",
          "name": "engineId",
          "type": "uint256"
        },
        {
          "internalType": "uint256",
          "name": "chassisId",
          "type": "uint256"
        },
        {
          "internalType": "uint8",
          "name": "carLevel",
          "type": "uint8"
        },
        {
          "internalType": "uint256",
          "name": "mileage",
          "type": "uint256"
        },
        {
          "internalType": "uint256",
          "name": "winCountOnCurrentLevel",
          "type": "uint256"
        },
        {
          "internalType": "uint256",
          "name": "lossCountOnCurrentLevel",
          "type": "uint256"
        },
        {
          "internalType": "uint256",
          "name": "id",
          "type": "uint256"
        }
      ],
      "stateMutability": "view",
      "type": "function",
      "constant": true
    },
    {
      "inputs": [
        {
          "internalType": "uint256",
          "name": "",
          "type": "uint256"
        }
      ],
      "name": "chassis",
      "outputs": [
        {
          "internalType": "uint256",
          "name": "id",
          "type": "uint256"
        },
        {
          "internalType": "uint32",
          "name": "durability",
          "type": "uint32"
        },
        {
          "internalType": "uint32",
          "name": "resource",
          "type": "uint32"
        }
      ],
      "stateMutability": "view",
      "type": "function",
      "constant": true
    },
    {
      "inputs": [
        {
          "internalType": "uint256",
          "name": "",
          "type": "uint256"
        }
      ],
      "name": "chassisApprovals",
      "outputs": [
        {
          "internalType": "address",
          "name": "",
          "type": "address"
        }
      ],
      "stateMutability": "view",
      "type": "function",
      "constant": true
    },
    {
      "inputs": [
        {
          "internalType": "uint256",
          "name": "",
          "type": "uint256"
        }
      ],
      "name": "chassisToOwner",
      "outputs": [
        {
          "internalType": "address",
          "name": "",
          "type": "address"
        }
      ],
      "stateMutability": "view",
      "type": "function",
      "constant": true
    },
    {
      "inputs": [
        {
          "internalType": "uint256",
          "name": "",
          "type": "uint256"
        }
      ],
      "name": "chassisToPrice",
      "outputs": [
        {
          "internalType": "uint256",
          "name": "",
          "type": "uint256"
        }
      ],
      "stateMutability": "view",
      "type": "function",
      "constant": true
    },
    {
      "inputs": [
        {
          "internalType": "uint256",
          "name": "roomId",
          "type": "uint256"
        },
        {
          "internalType": "uint256[]",
          "name": "answer",
          "type": "uint256[]"
        }
      ],
      "name": "commitAnswer",
      "outputs": [],
      "stateMutability": "nonpayable",
      "type": "function"
    },
    {
      "inputs": [
        {
          "internalType": "string",
          "name": "model",
          "type": "string"
        }
      ],
      "name": "createCar",
      "outputs": [],
      "stateMutability": "nonpayable",
      "type": "function"
    },
    {
      "inputs": [
        {
          "internalType": "string",
          "name": "_model",
          "type": "string"
        },
        {
          "internalType": "uint16",
          "name": "_horsePowers",
          "type": "uint16"
        },
        {
          "internalType": "uint8",
          "name": "_consumtion",
          "type": "uint8"
        },
        {
          "internalType": "uint32",
          "name": "_durability",
          "type": "uint32"
        },
        {
          "internalType": "uint8",
          "name": "_carLevel",
          "type": "uint8"
        },
        {
          "internalType": "uint256",
          "name": "_carPrice",
          "type": "uint256"
        }
      ],
      "name": "createCustomCar",
      "outputs": [],
      "stateMutability": "nonpayable",
      "type": "function"
    },
    {
      "inputs": [
        {
          "internalType": "uint32",
          "name": "_durability",
          "type": "uint32"
        },
        {
          "internalType": "uint256",
          "name": "_chassisPrice",
          "type": "uint256"
        }
      ],
      "name": "createCustomChassis",
      "outputs": [
        {
          "internalType": "uint256",
          "name": "",
          "type": "uint256"
        }
      ],
      "stateMutability": "nonpayable",
      "type": "function"
    },
    {
      "inputs": [
        {
          "internalType": "uint16",
          "name": "_horsePowers",
          "type": "uint16"
        },
        {
          "internalType": "uint8",
          "name": "_consumtion",
          "type": "uint8"
        },
        {
          "internalType": "uint256",
          "name": "_enginePrice",
          "type": "uint256"
        }
      ],
      "name": "createCustomEngine",
      "outputs": [
        {
          "internalType": "uint256",
          "name": "",
          "type": "uint256"
        }
      ],
      "stateMutability": "nonpayable",
      "type": "function"
    },
    {
      "inputs": [],
      "name": "createFuelStation",
      "outputs": [],
      "stateMutability": "nonpayable",
      "type": "function"
    },
    {
      "inputs": [
        {
          "internalType": "uint256",
          "name": "carId",
          "type": "uint256"
        },
        {
          "internalType": "uint256",
          "name": "chassisId",
          "type": "uint256"
        }
      ],
      "name": "detachChassis",
      "outputs": [],
      "stateMutability": "nonpayable",
      "type": "function"
    },
    {
      "inputs": [
        {
          "internalType": "uint256",
          "name": "carId",
          "type": "uint256"
        },
        {
          "internalType": "uint256",
          "name": "engineId",
          "type": "uint256"
        }
      ],
      "name": "detachEngine",
      "outputs": [],
      "stateMutability": "nonpayable",
      "type": "function"
    },
    {
      "inputs": [
        {
          "internalType": "uint256",
          "name": "",
          "type": "uint256"
        }
      ],
      "name": "engineApprovals",
      "outputs": [
        {
          "internalType": "address",
          "name": "",
          "type": "address"
        }
      ],
      "stateMutability": "view",
      "type": "function",
      "constant": true
    },
    {
      "inputs": [
        {
          "internalType": "uint256",
          "name": "",
          "type": "uint256"
        }
      ],
      "name": "engineToOwner",
      "outputs": [
        {
          "internalType": "address",
          "name": "",
          "type": "address"
        }
      ],
      "stateMutability": "view",
      "type": "function",
      "constant": true
    },
    {
      "inputs": [
        {
          "internalType": "uint256",
          "name": "",
          "type": "uint256"
        }
      ],
      "name": "engineToPrice",
      "outputs": [
        {
          "internalType": "uint256",
          "name": "",
          "type": "uint256"
        }
      ],
      "stateMutability": "view",
      "type": "function",
      "constant": true
    },
    {
      "inputs": [
        {
          "internalType": "uint256",
          "name": "",
          "type": "uint256"
        }
      ],
      "name": "engines",
      "outputs": [
        {
          "internalType": "uint256",
          "name": "id",
          "type": "uint256"
        },
        {
          "internalType": "uint16",
          "name": "horsePowers",
          "type": "uint16"
        },
        {
          "internalType": "uint8",
          "name": "consumtion",
          "type": "uint8"
        }
      ],
      "stateMutability": "view",
      "type": "function",
      "constant": true
    },
    {
      "inputs": [
        {
          "internalType": "uint256",
          "name": "carId",
          "type": "uint256"
        }
      ],
      "name": "findRoom",
      "outputs": [],
      "stateMutability": "nonpayable",
      "type": "function"
    },
    {
      "inputs": [
        {
          "internalType": "uint256",
          "name": "",
          "type": "uint256"
        }
      ],
      "name": "fuelStationToOwner",
      "outputs": [
        {
          "internalType": "address",
          "name": "",
          "type": "address"
        }
      ],
      "stateMutability": "view",
      "type": "function",
      "constant": true
    },
    {
      "inputs": [
        {
          "internalType": "address",
          "name": "_owner",
          "type": "address"
        }
      ],
      "name": "getCarsByOwner",
      "outputs": [
        {
          "components": [
            {
              "internalType": "string",
              "name": "model",
              "type": "string"
            },
            {
              "internalType": "uint256",
              "name": "vin",
              "type": "uint256"
            },
            {
              "internalType": "uint256",
              "name": "engineId",
              "type": "uint256"
            },
            {
              "internalType": "uint256",
              "name": "chassisId",
              "type": "uint256"
            },
            {
              "internalType": "uint8",
              "name": "carLevel",
              "type": "uint8"
            },
            {
              "internalType": "uint256",
              "name": "mileage",
              "type": "uint256"
            },
            {
              "internalType": "uint256",
              "name": "winCountOnCurrentLevel",
              "type": "uint256"
            },
            {
              "internalType": "uint256",
              "name": "lossCountOnCurrentLevel",
              "type": "uint256"
            },
            {
              "internalType": "uint256",
              "name": "id",
              "type": "uint256"
            }
          ],
          "internalType": "struct CarFactory.Car[]",
          "name": "",
          "type": "tuple[]"
        }
      ],
      "stateMutability": "view",
      "type": "function",
      "constant": true
    },
    {
      "inputs": [
        {
          "internalType": "address",
          "name": "_owner",
          "type": "address"
        }
      ],
      "name": "getChassisByOwner",
      "outputs": [
        {
          "components": [
            {
              "internalType": "uint256",
              "name": "id",
              "type": "uint256"
            },
            {
              "internalType": "uint32",
              "name": "durability",
              "type": "uint32"
            },
            {
              "internalType": "uint32",
              "name": "resource",
              "type": "uint32"
            }
          ],
          "internalType": "struct CarFactory.Chassis[]",
          "name": "",
          "type": "tuple[]"
        }
      ],
      "stateMutability": "view",
      "type": "function",
      "constant": true
    },
    {
      "inputs": [
        {
          "internalType": "uint256",
          "name": "roomId",
          "type": "uint256"
        }
      ],
      "name": "getClosedRoom",
      "outputs": [
        {
          "components": [
            {
              "internalType": "address",
              "name": "player",
              "type": "address"
            },
            {
              "internalType": "bool",
              "name": "correct",
              "type": "bool"
            },
            {
              "internalType": "uint256",
              "name": "time",
              "type": "uint256"
            },
            {
              "internalType": "uint256",
              "name": "carId",
              "type": "uint256"
            }
          ],
          "internalType": "struct RaceHandler.Answer[]",
          "name": "",
          "type": "tuple[]"
        }
      ],
      "stateMutability": "view",
      "type": "function",
      "constant": true
    },
    {
      "inputs": [
        {
          "internalType": "address",
          "name": "_owner",
          "type": "address"
        }
      ],
      "name": "getEnginesByOwner",
      "outputs": [
        {
          "components": [
            {
              "internalType": "uint256",
              "name": "id",
              "type": "uint256"
            },
            {
              "internalType": "uint16",
              "name": "horsePowers",
              "type": "uint16"
            },
            {
              "internalType": "uint8",
              "name": "consumtion",
              "type": "uint8"
            }
          ],
          "internalType": "struct CarFactory.Engine[]",
          "name": "",
          "type": "tuple[]"
        }
      ],
      "stateMutability": "view",
      "type": "function",
      "constant": true
    },
    {
      "inputs": [
        {
          "internalType": "address",
          "name": "_owner",
          "type": "address"
        }
      ],
      "name": "getFuelStationByOwner",
      "outputs": [
        {
          "components": [
            {
              "internalType": "uint256",
              "name": "id",
              "type": "uint256"
            },
            {
              "internalType": "uint8",
              "name": "capacity",
              "type": "uint8"
            },
            {
              "internalType": "uint8",
              "name": "productionPerHour",
              "type": "uint8"
            },
            {
              "internalType": "uint8",
              "name": "currentFullness",
              "type": "uint8"
            },
            {
              "internalType": "uint256",
              "name": "lastUpdate",
              "type": "uint256"
            }
          ],
          "internalType": "struct FuelStationFactory.FuelStation",
          "name": "",
          "type": "tuple"
        }
      ],
      "stateMutability": "view",
      "type": "function",
      "constant": true
    },
    {
      "inputs": [
        {
          "internalType": "uint256",
          "name": "",
          "type": "uint256"
        }
      ],
      "name": "idToStartedRooms",
      "outputs": [
        {
          "internalType": "uint256",
          "name": "numberPlayers",
          "type": "uint256"
        },
        {
          "internalType": "uint256",
          "name": "world",
          "type": "uint256"
        },
        {
          "internalType": "uint256",
          "name": "roomDNA",
          "type": "uint256"
        },
        {
          "internalType": "uint256",
          "name": "startTime",
          "type": "uint256"
        },
        {
          "internalType": "uint256",
          "name": "curAnswer",
          "type": "uint256"
        },
        {
          "internalType": "bool",
          "name": "closed",
          "type": "bool"
        }
      ],
      "stateMutability": "view",
      "type": "function",
      "constant": true
    },
    {
      "inputs": [
        {
          "internalType": "uint256",
          "name": "_carId",
          "type": "uint256"
        }
      ],
      "name": "levelUp",
      "outputs": [],
      "stateMutability": "payable",
      "type": "function",
      "payable": true
    },
    {
      "inputs": [
        {
          "internalType": "uint256",
          "name": "",
          "type": "uint256"
        }
      ],
      "name": "openedRooms",
      "outputs": [
        {
          "internalType": "uint256",
          "name": "id",
          "type": "uint256"
        },
        {
          "internalType": "uint256",
          "name": "playersEntered",
          "type": "uint256"
        },
        {
          "internalType": "uint256",
          "name": "world",
          "type": "uint256"
        },
        {
          "components": [
            {
              "internalType": "uint256",
              "name": "playersNeeded",
              "type": "uint256"
            },
            {
              "internalType": "uint256",
              "name": "roadsNum",
              "type": "uint256"
            },
            {
              "internalType": "uint256",
              "name": "crossId",
              "type": "uint256"
            }
          ],
          "internalType": "struct RaceHandler.Cross",
          "name": "cross",
          "type": "tuple"
        }
      ],
      "stateMutability": "view",
      "type": "function",
      "constant": true
    },
    {
      "inputs": [],
      "name": "owner",
      "outputs": [
        {
          "internalType": "address",
          "name": "",
          "type": "address"
        }
      ],
      "stateMutability": "view",
      "type": "function",
      "constant": true
    },
    {
      "inputs": [
        {
          "internalType": "address",
          "name": "",
          "type": "address"
        }
      ],
      "name": "ownerCarCount",
      "outputs": [
        {
          "internalType": "uint256",
          "name": "",
          "type": "uint256"
        }
      ],
      "stateMutability": "view",
      "type": "function",
      "constant": true
    },
    {
      "inputs": [
        {
          "internalType": "address",
          "name": "",
          "type": "address"
        }
      ],
      "name": "ownerChassisCount",
      "outputs": [
        {
          "internalType": "uint256",
          "name": "",
          "type": "uint256"
        }
      ],
      "stateMutability": "view",
      "type": "function",
      "constant": true
    },
    {
      "inputs": [
        {
          "internalType": "address",
          "name": "",
          "type": "address"
        }
      ],
      "name": "ownerEngineCount",
      "outputs": [
        {
          "internalType": "uint256",
          "name": "",
          "type": "uint256"
        }
      ],
      "stateMutability": "view",
      "type": "function",
      "constant": true
    },
    {
      "inputs": [],
      "name": "renounceOwnership",
      "outputs": [],
      "stateMutability": "nonpayable",
      "type": "function"
    },
    {
      "inputs": [
        {
          "internalType": "uint256",
          "name": "_carId",
          "type": "uint256"
        }
      ],
      "name": "startRace",
      "outputs": [],
      "stateMutability": "nonpayable",
      "type": "function"
    },
    {
      "inputs": [
        {
          "internalType": "uint256",
          "name": "",
          "type": "uint256"
        }
      ],
      "name": "stations",
      "outputs": [
        {
          "internalType": "uint256",
          "name": "id",
          "type": "uint256"
        },
        {
          "internalType": "uint8",
          "name": "capacity",
          "type": "uint8"
        },
        {
          "internalType": "uint8",
          "name": "productionPerHour",
          "type": "uint8"
        },
        {
          "internalType": "uint8",
          "name": "currentFullness",
          "type": "uint8"
        },
        {
          "internalType": "uint256",
          "name": "lastUpdate",
          "type": "uint256"
        }
      ],
      "stateMutability": "view",
      "type": "function",
      "constant": true
    },
    {
      "inputs": [
        {
          "internalType": "uint256",
          "name": "carId",
          "type": "uint256"
        },
        {
          "internalType": "uint256",
          "name": "chassisId",
          "type": "uint256"
        }
      ],
      "name": "switchChassis",
      "outputs": [],
      "stateMutability": "nonpayable",
      "type": "function"
    },
    {
      "inputs": [
        {
          "internalType": "uint256",
          "name": "carId",
          "type": "uint256"
        },
        {
          "internalType": "uint256",
          "name": "engineId",
          "type": "uint256"
        }
      ],
      "name": "switchEngine",
      "outputs": [],
      "stateMutability": "nonpayable",
      "type": "function"
    },
    {
      "inputs": [
        {
          "internalType": "address",
          "name": "newOwner",
          "type": "address"
        }
      ],
      "name": "transferOwnership",
      "outputs": [],
      "stateMutability": "nonpayable",
      "type": "function"
    },
    {
      "inputs": [
        {
          "internalType": "uint256",
          "name": "_fuelStatonId",
          "type": "uint256"
        },
        {
          "internalType": "uint8",
          "name": "_counts",
          "type": "uint8"
        }
      ],
      "name": "upgradeCapacity",
      "outputs": [],
      "stateMutability": "payable",
      "type": "function",
      "payable": true
    },
    {
      "inputs": [
        {
          "internalType": "uint256",
          "name": "_engineId",
          "type": "uint256"
        },
        {
          "internalType": "uint8",
          "name": "_counts",
          "type": "uint8"
        }
      ],
      "name": "upgradeConsumtion",
      "outputs": [],
      "stateMutability": "payable",
      "type": "function",
      "payable": true
    },
    {
      "inputs": [
        {
          "internalType": "uint256",
          "name": "_chassisId",
          "type": "uint256"
        },
        {
          "internalType": "uint8",
          "name": "_counts",
          "type": "uint8"
        }
      ],
      "name": "upgradeDurability",
      "outputs": [],
      "stateMutability": "payable",
      "type": "function",
      "payable": true
    },
    {
      "inputs": [
        {
          "internalType": "uint256",
          "name": "_engineId",
          "type": "uint256"
        },
        {
          "internalType": "uint8",
          "name": "_counts",
          "type": "uint8"
        }
      ],
      "name": "upgradeHorsePowers",
      "outputs": [],
      "stateMutability": "payable",
      "type": "function",
      "payable": true
    },
    {
      "inputs": [
        {
          "internalType": "uint256",
          "name": "_fuelStatonId",
          "type": "uint256"
        },
        {
          "internalType": "uint8",
          "name": "_counts",
          "type": "uint8"
        }
      ],
      "name": "upgradeProductionPerHour",
      "outputs": [],
      "stateMutability": "payable",
      "type": "function",
      "payable": true
    },
    {
      "inputs": [
        {
          "internalType": "address",
          "name": "_owner",
          "type": "address"
        }
      ],
      "name": "balanceOfCars",
      "outputs": [
        {
          "internalType": "uint256",
          "name": "",
          "type": "uint256"
        }
      ],
      "stateMutability": "view",
      "type": "function",
      "constant": true
    },
    {
      "inputs": [
        {
          "internalType": "uint256",
          "name": "_tokenId",
          "type": "uint256"
        }
      ],
      "name": "ownerOfCar",
      "outputs": [
        {
          "internalType": "address",
          "name": "",
          "type": "address"
        }
      ],
      "stateMutability": "view",
      "type": "function",
      "constant": true
    },
    {
      "inputs": [
        {
          "internalType": "address",
          "name": "_from",
          "type": "address"
        },
        {
          "internalType": "address",
          "name": "_to",
          "type": "address"
        },
        {
          "internalType": "uint256",
          "name": "_tokenId",
          "type": "uint256"
        }
      ],
      "name": "transferCarFrom",
      "outputs": [],
      "stateMutability": "payable",
      "type": "function",
      "payable": true
    },
    {
      "inputs": [
        {
          "internalType": "address",
          "name": "_approved",
          "type": "address"
        },
        {
          "internalType": "uint256",
          "name": "_tokenId",
          "type": "uint256"
        }
      ],
      "name": "approveCar",
      "outputs": [],
      "stateMutability": "payable",
      "type": "function",
      "payable": true
    },
    {
      "inputs": [
        {
          "internalType": "address",
          "name": "_owner",
          "type": "address"
        }
      ],
      "name": "balanceOfEngines",
      "outputs": [
        {
          "internalType": "uint256",
          "name": "",
          "type": "uint256"
        }
      ],
      "stateMutability": "view",
      "type": "function",
      "constant": true
    },
    {
      "inputs": [
        {
          "internalType": "uint256",
          "name": "_tokenId",
          "type": "uint256"
        }
      ],
      "name": "ownerOfEngine",
      "outputs": [
        {
          "internalType": "address",
          "name": "",
          "type": "address"
        }
      ],
      "stateMutability": "view",
      "type": "function",
      "constant": true
    },
    {
      "inputs": [
        {
          "internalType": "address",
          "name": "_from",
          "type": "address"
        },
        {
          "internalType": "address",
          "name": "_to",
          "type": "address"
        },
        {
          "internalType": "uint256",
          "name": "_tokenId",
          "type": "uint256"
        }
      ],
      "name": "transferEngineFrom",
      "outputs": [],
      "stateMutability": "payable",
      "type": "function",
      "payable": true
    },
    {
      "inputs": [
        {
          "internalType": "address",
          "name": "_approved",
          "type": "address"
        },
        {
          "internalType": "uint256",
          "name": "_tokenId",
          "type": "uint256"
        }
      ],
      "name": "approveEngine",
      "outputs": [],
      "stateMutability": "payable",
      "type": "function",
      "payable": true
    },
    {
      "inputs": [
        {
          "internalType": "address",
          "name": "_owner",
          "type": "address"
        }
      ],
      "name": "balanceOfChassis",
      "outputs": [
        {
          "internalType": "uint256",
          "name": "",
          "type": "uint256"
        }
      ],
      "stateMutability": "view",
      "type": "function",
      "constant": true
    },
    {
      "inputs": [
        {
          "internalType": "uint256",
          "name": "_tokenId",
          "type": "uint256"
        }
      ],
      "name": "ownerOfChassis",
      "outputs": [
        {
          "internalType": "address",
          "name": "",
          "type": "address"
        }
      ],
      "stateMutability": "view",
      "type": "function",
      "constant": true
    },
    {
      "inputs": [
        {
          "internalType": "address",
          "name": "_from",
          "type": "address"
        },
        {
          "internalType": "address",
          "name": "_to",
          "type": "address"
        },
        {
          "internalType": "uint256",
          "name": "_tokenId",
          "type": "uint256"
        }
      ],
      "name": "transferChassisFrom",
      "outputs": [],
      "stateMutability": "nonpayable",
      "type": "function"
    },
    {
      "inputs": [
        {
          "internalType": "address",
          "name": "_approved",
          "type": "address"
        },
        {
          "internalType": "uint256",
          "name": "_tokenId",
          "type": "uint256"
        }
      ],
      "name": "approveChassis",
      "outputs": [],
      "stateMutability": "payable",
      "type": "function",
      "payable": true
    },
    {
      "inputs": [
        {
          "internalType": "uint256",
          "name": "chassisId",
          "type": "uint256"
        },
        {
          "internalType": "uint256",
          "name": "price",
          "type": "uint256"
        }
      ],
      "name": "putChassisOnMarketplace",
      "outputs": [],
      "stateMutability": "nonpayable",
      "type": "function"
    },
    {
      "inputs": [
        {
          "internalType": "uint256",
          "name": "chassisId",
          "type": "uint256"
        }
      ],
      "name": "removeChassisFromMarketplace",
      "outputs": [],
      "stateMutability": "nonpayable",
      "type": "function"
    },
    {
      "inputs": [
        {
          "internalType": "uint256",
          "name": "engineId",
          "type": "uint256"
        },
        {
          "internalType": "uint256",
          "name": "price",
          "type": "uint256"
        }
      ],
      "name": "putEngineOnMarketplace",
      "outputs": [],
      "stateMutability": "nonpayable",
      "type": "function"
    },
    {
      "inputs": [
        {
          "internalType": "uint256",
          "name": "engineId",
          "type": "uint256"
        }
      ],
      "name": "removeEngineFromMarketplace",
      "outputs": [],
      "stateMutability": "nonpayable",
      "type": "function"
    },
    {
      "inputs": [
        {
          "internalType": "uint256",
          "name": "carId",
          "type": "uint256"
        },
        {
          "internalType": "uint256",
          "name": "price",
          "type": "uint256"
        }
      ],
      "name": "putCarOnMarketplace",
      "outputs": [],
      "stateMutability": "nonpayable",
      "type": "function"
    },
    {
      "inputs": [
        {
          "internalType": "uint256",
          "name": "carId",
          "type": "uint256"
        }
      ],
      "name": "removeCarFromMarketplace",
      "outputs": [],
      "stateMutability": "nonpayable",
      "type": "function"
    }
  ],
  "bytecode": "0x60806040526000805461ffff60a01b191661014f60a21b179055600160088190556009556509184e72a00060165565b5e620f48000601755650da475abf0006018556611c37937e080006019556305f5e100601a5566038d7ea4c68000601b553480156200006c57600080fd5b5062000078336200024b565b60506003908155605b60049081556005805460ff1916600a179055620186a06006556201d4c1600755600b80546001908101909155600c805482019055604080516060808201835284825260208281018681526000848601818152601c8054808a0182558184529651968b027f0e4562a10381dec21b205ed72637e6b1b523bdd0e4d4d50af5cd23dd4500a2118181019890985593517f0e4562a10381dec21b205ed72637e6b1b523bdd0e4d4d50af5cd23dd4500a2128086019190915591517f0e4562a10381dec21b205ed72637e6b1b523bdd0e4d4d50af5cd23dd4500a21394850155875180870189528b81528086018b8152818a018581528354808d0185558487529251928e02808b019390935590518285015551908501558751808701895260028082528187019b8c52818a018581528354808d0185558487529251928e02808b01939093559b51828501559a5190850155875180870189528b81528086018c8152818a018b81528354808d0185558487529251928e02808b019390935590518285015551908501558751958601885298855292840189815295840187815288548089018a559890915292519690970292830195909555915193810193909355519190920155601f556200029b565b600080546001600160a01b038381166001600160a01b0319831681178455604051919092169283917f8be0079c531659141344cd1fd0a4f28419497f9722a3daafe3b4186f6b6457e09190a35050565b614caf80620002ab6000396000f3fe6080604052600436106103b85760003560e01c80637ec5c75c116101f2578063c75bb4f41161010d578063ede6fbf5116100a0578063f85993b91161006f578063f85993b914610ecd578063faf4bb9814610efa578063fb2d954f14610f0d578063fb33250f14610f2d57600080fd5b8063ede6fbf514610e38578063f2fde38b14610e58578063f66911b114610e78578063f7746e3614610e9857600080fd5b8063d720be4a116100dc578063d720be4a14610da2578063dffaf98e14610dc2578063e215a7e414610df8578063ea12693314610e1857600080fd5b8063c75bb4f414610d15578063c85b7fed14610d42578063d1c54eea14610d62578063d7086fab14610d8257600080fd5b8063906f5f3411610185578063b44a4e9311610154578063b44a4e9314610c81578063b72c0eea14610c94578063bfcc971614610cd5578063c34cccc414610cf557600080fd5b8063906f5f3414610bc457806392f859db14610bd7578063aa11b68114610c27578063b3b29afd14610c5457600080fd5b806387d6b9b2116101c157806387d6b9b214610b3d57806389895f7714610b735780638b57997314610b935780638da5cb5b14610ba657600080fd5b80637ec5c75c14610abd5780637fb2aa4d14610ad05780638590926714610afd5780638776601914610b1057600080fd5b80633521c426116102e25780635c426aff11610275578063715018a611610244578063715018a614610a325780637492c08d14610a475780637713d52114610a7d5780637c62360f14610aaa57600080fd5b80635c426aff146109795780635dcc4cc6146109af5780636b606d9b146109e55780636f206fc114610a0557600080fd5b80634ced3056116102b15780634ced3056146108985780634e31f910146108b8578063567754e414610923578063594193d71461094357600080fd5b80633521c426146107c95780633dfd6f54146107f6578063449014901461082c5780634be45b4c1461086257600080fd5b806314ed04501161035a57806324d822bf1161032957806324d822bf14610707578063254dc065146107275780632cb03a3a1461075d57806333ca504b1461079357600080fd5b806314ed04501461055e5780631c5dde0e1461057e5780631e85ab9b146105c0578063224370f0146105d357600080fd5b8063081315ff11610396578063081315ff146104a75780630a0176fc146104fd5780630ce90ec2146105385780630e0f70491461054b57600080fd5b806302b67745146103bd57806303f2e05b146104105780630418394e14610425575b600080fd5b3480156103c957600080fd5b506103f36103d83660046141cc565b6000908152600d60205260409020546001600160a01b031690565b6040516001600160a01b0390911681526020015b60405180910390f35b61042361041e3660046141fb565b610f4d565b005b34801561043157600080fd5b506104786104403660046141cc565b602160205260009081526040902080546001820154600283015460038401546005850154600690950154939492939192909160ff1686565b6040805196875260208701959095529385019290925260608401526080830152151560a082015260c001610407565b3480156104b357600080fd5b506104c76104c23660046141cc565b611083565b604080519485526020808601949094528481019290925280516060850152918201516080840152015160a082015260c001610407565b34801561050957600080fd5b5061052a6105183660046141cc565b60156020526000908152604090205481565b604051908152602001610407565b6104236105463660046141cc565b6110e1565b61042361055936600461423e565b611251565b34801561056a57600080fd5b506104236105793660046141cc565b6112a5565b34801561058a57600080fd5b5061059e6105993660046141cc565b6112dc565b6040805193845263ffffffff9283166020850152911690820152606001610407565b6104236105ce36600461423e565b61131c565b3480156105df57600080fd5b50610423600180546040805160a0810182528281526000805460ff600160a01b820481166020808601828152600160a81b90940483168688019081526060870192835263ffffffff421660808801908152898b018b559986529551600389027fb10e2d527612073b26eecdfd717e6a320cf44b4afac2b0732d9fcbe2b7fa0cf681019190915593517fb10e2d527612073b26eecdfd717e6a320cf44b4afac2b0732d9fcbe2b7fa0cf785018054975193518516620100000262ff0000199486166101000261ffff19909916929095169190911796909617919091169190911790935594517fb10e2d527612073b26eecdfd717e6a320cf44b4afac2b0732d9fcbe2b7fa0cf8909501949094559183526002909152902080546001600160a01b03191633179055565b34801561071357600080fd5b506104236107223660046141cc565b611383565b34801561073357600080fd5b5061052a610742366004614268565b6001600160a01b031660009081526012602052604090205490565b34801561076957600080fd5b5061052a610778366004614268565b6001600160a01b031660009081526010602052604090205490565b34801561079f57600080fd5b506103f36107ae3660046141cc565b600d602052600090815260409020546001600160a01b031681565b3480156107d557600080fd5b506107e96107e43660046141cc565b61153a565b6040516104079190614283565b34801561080257600080fd5b506103f36108113660046141cc565b6000908152600e60205260409020546001600160a01b031690565b34801561083857600080fd5b506103f36108473660046141cc565b600f602052600090815260409020546001600160a01b031681565b34801561086e57600080fd5b506103f361087d3660046141cc565b6023602052600090815260409020546001600160a01b031681565b3480156108a457600080fd5b506104236108b33660046141cc565b61162c565b3480156108c457600080fd5b506108d86108d3366004614268565b611664565b6040516104079190600060a0820190508251825260ff602084015116602083015260ff604084015116604083015260ff60608401511660608301526080830151608083015292915050565b34801561092f57600080fd5b5061042361093e3660046141cc565b61174b565b34801561094f57600080fd5b506103f361095e3660046141cc565b6002602052600090815260409020546001600160a01b031681565b34801561098557600080fd5b506103f36109943660046141cc565b6000908152600f60205260409020546001600160a01b031690565b3480156109bb57600080fd5b506103f36109ca3660046141cc565b600e602052600090815260409020546001600160a01b031681565b3480156109f157600080fd5b50610423610a003660046142f2565b611770565b348015610a1157600080fd5b50610a25610a20366004614268565b611870565b6040516104079190614314565b348015610a3e57600080fd5b506104236119c4565b348015610a5357600080fd5b506103f3610a623660046141cc565b6022602052600090815260409020546001600160a01b031681565b348015610a8957600080fd5b50610a9d610a98366004614268565b6119d8565b604051610407919061436a565b610423610ab83660046141fb565b611b20565b610423610acb3660046143bd565b611c3b565b348015610adc57600080fd5b5061052a610aeb366004614268565b60116020526000908152604090205481565b610423610b0b3660046141fb565b611c89565b348015610b1c57600080fd5b5061052a610b2b366004614268565b60126020526000908152604090205481565b348015610b4957600080fd5b5061052a610b58366004614268565b6001600160a01b031660009081526011602052604090205490565b348015610b7f57600080fd5b50610423610b8e3660046142f2565b611d7d565b610423610ba13660046143bd565b611df5565b348015610bb257600080fd5b506000546001600160a01b03166103f3565b610423610bd23660046141fb565b611e26565b348015610be357600080fd5b50610bf7610bf23660046141cc565b611f0e565b6040805195865260ff9485166020870152928416928501929092529091166060830152608082015260a001610407565b348015610c3357600080fd5b5061052a610c423660046141cc565b60136020526000908152604090205481565b348015610c6057600080fd5b5061052a610c6f366004614268565b60106020526000908152604090205481565b610423610c8f36600461423e565b611f5a565b348015610ca057600080fd5b50610cb4610caf3660046141cc565b611fae565b6040805193845261ffff909216602084015260ff1690820152606001610407565b348015610ce157600080fd5b5061052a610cf036600461440d565b611feb565b348015610d0157600080fd5b50610423610d103660046142f2565b612130565b348015610d2157600080fd5b50610d35610d30366004614268565b612280565b6040516104079190614485565b348015610d4e57600080fd5b50610423610d5d366004614596565b6124be565b348015610d6e57600080fd5b50610423610d7d3660046142f2565b6126bb565b348015610d8e57600080fd5b5061052a610d9d36600461465a565b6127a1565b348015610dae57600080fd5b50610423610dbd3660046142f2565b6128fd565b348015610dce57600080fd5b506103f3610ddd3660046141cc565b6024602052600090815260409020546001600160a01b031681565b348015610e0457600080fd5b50610423610e133660046142f2565b612935565b348015610e2457600080fd5b50610423610e333660046142f2565b61295a565b348015610e4457600080fd5b50610423610e533660046146f6565b612abe565b348015610e6457600080fd5b50610423610e73366004614268565b612c8c565b348015610e8457600080fd5b50610423610e933660046143bd565b612d05565b348015610ea457600080fd5b50610eb8610eb33660046141cc565b612d36565b6040516104079998979695949392919061472b565b348015610ed957600080fd5b5061052a610ee83660046141cc565b60146020526000908152604090205481565b610423610f083660046141fb565b612e23565b348015610f1957600080fd5b50610423610f283660046141cc565b612f33565b348015610f3957600080fd5b50610423610f48366004614782565b613441565b6000828152600f602052604090205482906001600160a01b03163314610f8e5760405162461bcd60e51b8152600401610f859061480a565b60405180910390fd5b601a54600c8481548110610fa457610fa4614838565b6000918252602090912060016002909202010154610fcb9063ffffffff1660ff8516614864565b63ffffffff16610fdb9190614890565b3414610fe657600080fd5b600080546040516001600160a01b03909116913480156108fc02929091818181858888f19350505050158015611020573d6000803e3d6000fd5b508160ff16600c848154811061103857611038614838565b600091825260208220600160029092020101805490919061106090849063ffffffff166148af565b92506101000a81548163ffffffff021916908363ffffffff160217905550505050565b6020818154811061109357600080fd5b60009182526020918290206006909102018054600182015460028301546040805160608101825260038601548152600486015496810196909652600590940154938501939093529093509184565b6000600a8083815481106110f7576110f7614838565b6000918252602090912060046009909202010154611118919060ff166148ed565b61112390600161490f565b60ff16601b546111339190614890565b90508034146111715760405162461bcd60e51b815260206004820152600a6024820152691ddc9bdb99c818dbdcdd60b21b6044820152606401610f85565b600080546040516001600160a01b03909116913480156108fc02929091818181858888f193505050501580156111ab573d6000803e3d6000fd5b50600a82815481106111bf576111bf614838565b600091825260208220600460099092020101805460ff16916111e083614934565b91906101000a81548160ff021916908360ff160217905550506000600a838154811061120e5761120e614838565b9060005260206000209060090201600601819055506000600a838154811061123857611238614838565b9060005260206000209060090201600701819055505050565b6000818152600e602052604090205481906001600160a01b0316331461127657600080fd5b50600090815260236020526040902080546001600160a01b0319166001600160a01b0392909216919091179055565b6000818152600e602052604090205481906001600160a01b031633146112ca57600080fd5b50600090815260156020526040812055565b600c81815481106112ec57600080fd5b60009182526020909120600290910201805460019091015490915063ffffffff8082169164010000000090041683565b6000818152600f602052604090205481906001600160a01b031633146113545760405162461bcd60e51b8152600401610f859061480a565b50600090815260246020526040902080546001600160a01b0319166001600160a01b0392909216919091179055565b6000818152600d602052604090205481906001600160a01b031633146113a857600080fd5b6000600a8084815481106113be576113be614838565b60009182526020909120600460099092020101546113df919060ff166148ed565b6113ea90600a614953565b6113f5906002614976565b90506114018382613627565b801561146857508060ff16600c600a858154811061142157611421614838565b9060005260206000209060090201600301548154811061144357611443614838565b6000918252602090912060029091020160010154640100000000900463ffffffff1610155b61147157600080fd5b8060ff16600c600a858154811061148a5761148a614838565b906000526020600020906009020160030154815481106114ac576114ac614838565b906000526020600020906002020160010160048282829054906101000a900463ffffffff166114db919061499f565b92506101000a81548163ffffffff021916908363ffffffff1602179055508060ff16600a848154811061151057611510614838565b9060005260206000209060090201600501600082825461153091906149c4565b9091555050505050565b60008181526021602052604090206006015460609060ff166115905760405162461bcd60e51b815260206004820152600f60248201526e1c9bdbdb481b9bdd0818db1bdcd959608a1b6044820152606401610f85565b600082815260216020908152604080832060040180548251818502810185019093528083529193909284015b82821015611621576000848152602090819020604080516080810182526003860290920180546001600160a01b0381168452600160a01b900460ff161515838501526001808201549284019290925260020154606083015290835290920191016115bc565b505050509050919050565b6000818152600f602052604090205481906001600160a01b031633146112ca5760405162461bcd60e51b8152600401610f859061480a565b6040805160a081018252600080825260208201819052918101829052606081018290526080810182905290805b6001548110156116d6576000818152600260205260409020546001600160a01b038086169116036116c4578091506116d6565b806116ce816149dc565b915050611691565b50600181815481106116ea576116ea614838565b60009182526020918290206040805160a081018252600390930290910180548352600181015460ff80821695850195909552610100810485169284019290925262010000909104909216606082015260029091015460808201529392505050565b6000818152600d602052604090205481906001600160a01b031633146112ca57600080fd5b6000818152600f602052604090205481906001600160a01b031633146117a85760405162461bcd60e51b8152600401610f859061480a565b6000838152600d602052604090205483906001600160a01b031633146117cd57600080fd5b82600a85815481106117e1576117e1614838565b906000526020600020906009020160030154146118405760405162461bcd60e51b815260206004820152601860248201527f6368617373697320617265206e6f7420617474616368656400000000000000006044820152606401610f85565b6000600a858154811061185557611855614838565b90600052602060002090600902016003018190555050505050565b6001600160a01b0381166000908152601260205260408120546060919067ffffffffffffffff8111156118a5576118a561454f565b6040519080825280602002602001820160405280156118f057816020015b60408051606081018252600080825260208083018290529282015282526000199092019101816118c35790505b5090506000805b600c548110156119bb576000818152600f60205260409020546001600160a01b038087169116036119a957600c818154811061193557611935614838565b6000918252602091829020604080516060810182526002909302909101805483526001015463ffffffff80821694840194909452640100000000900490921691810191909152835184908490811061198f5761198f614838565b602002602001018190525081806119a5906149dc565b9250505b806119b3816149dc565b9150506118f7565b50909392505050565b6119cc6137c9565b6119d66000613823565b565b6001600160a01b0381166000908152601160205260408120546060919067ffffffffffffffff811115611a0d57611a0d61454f565b604051908082528060200260200182016040528015611a5857816020015b6040805160608101825260008082526020808301829052928201528252600019909201910181611a2b5790505b5090506000805b600b548110156119bb576000818152600e60205260409020546001600160a01b03808716911603611b0e57600b8181548110611a9d57611a9d614838565b600091825260209182902060408051606081018252600293909302909101805483526001015461ffff8116938301939093526201000090920460ff16918101919091528351849084908110611af457611af4614838565b60200260200101819052508180611b0a906149dc565b9250505b80611b18816149dc565b915050611a5f565b6000828152600e602052604090205482906001600160a01b03163314611b4557600080fd5b600b8381548110611b5857611b58614838565b6000918252602090912060029091020160010154611b809062010000900460ff16600a614953565b611b8b906002614ad1565b601954611b989190614890565b3414611ba357600080fd5b600080546040516001600160a01b03909116913480156108fc02929091818181858888f19350505050158015611bdd573d6000803e3d6000fd5b5081600b8481548110611bf257611bf2614838565b906000526020600020906002020160010160028282829054906101000a900460ff16611c1e9190614953565b92506101000a81548160ff021916908360ff160217905550505050565b6000818152600d60205260409020546001600160a01b0384811691161480611c70575060008181526013602052604090205415155b611c7957600080fd5b611c84838383613873565b505050565b60008281526002602052604090205482906001600160a01b03163314611cae57600080fd5b60175460018481548110611cc457611cc4614838565b6000918252602090912060039091020160010154611cea90610100900460ff1684614976565b60ff16611cf79190614890565b3414611d0257600080fd5b600080546040516001600160a01b03909116913480156108fc02929091818181858888f19350505050158015611d3c573d6000803e3d6000fd5b508160018481548110611d5157611d51614838565b906000526020600020906003020160010160018282829054906101000a900460ff16611c1e919061490f565b6000828152600e602052604090205482906001600160a01b03163314611da257600080fd5b60008211611de25760405162461bcd60e51b815260206004820152600d60248201526c696e76616c696420707269636560981b6044820152606401610f85565b5060009182526015602052604090912055565b6000818152600e60205260409020546001600160a01b03848116911614611e1b57600080fd5b611c848383836139fd565b60008281526002602052604090205482906001600160a01b03163314611e4b57600080fd5b60165460018481548110611e6157611e61614838565b6000918252602090912060016003909202010154611e829060ff1684614976565b60ff16611e8f9190614890565b3414611e9a57600080fd5b600080546040516001600160a01b03909116913480156108fc02929091818181858888f19350505050158015611ed4573d6000803e3d6000fd5b508160018481548110611ee957611ee9614838565b6000918252602082206001600390920201018054909190611c1e90849060ff1661490f565b60018181548110611f1e57600080fd5b600091825260209091206003909102018054600182015460029092015490925060ff808316926101008104821692620100009091049091169085565b6000818152600d602052604090205481906001600160a01b03163314611f7f57600080fd5b50600090815260226020526040902080546001600160a01b0319166001600160a01b0392909216919091179055565b600b8181548110611fbe57600080fd5b60009182526020909120600290910201805460019091015490915061ffff81169062010000900460ff1683565b6000611ff56137c9565b6009805460009182612006836149dc565b909155506040805160608101825282815263ffffffff8781166020808401828152848601928352600c80546001810182556000918252955160029096027fdf6966c971051c3d54ec59162606531493a51404a002842f56009d7e5cf4a8c781019690965590517fdf6966c971051c3d54ec59162606531493a51404a002842f56009d7e5cf4a8c89095018054935185166401000000000267ffffffffffffffff1990941695909416949094179190911790915581546001600160a01b03168252601290529081208054929350906120dc836149dc565b909155505060008054828252600f602052604090912080546001600160a01b0319166001600160a01b0390921691909117905582156121275760008181526015602052604090208390555b90505b92915050565b6000818152600e602052604090205481906001600160a01b0316331461215557600080fd5b6000838152600d602052604090205483906001600160a01b0316331461217a57600080fd5b82600a858154811061218e5761218e614838565b906000526020600020906009020160020154036121db5760405162461bcd60e51b815260206004820152600b60248201526a73616d6520656e67696e6560a81b6044820152606401610f85565b60006121e633612280565b905060005b815181101561224f578482828151811061220757612207614838565b6020026020010151604001510361223d57600082828151811061222c5761222c614838565b602002602001015160400181815250505b80612247816149dc565b9150506121eb565b5083600a868154811061226457612264614838565b9060005260206000209060090201600201819055505050505050565b6001600160a01b0381166000908152601060205260408120546060919067ffffffffffffffff8111156122b5576122b561454f565b60405190808252806020026020018201604052801561233857816020015b61232560405180610120016040528060608152602001600081526020016000815260200160008152602001600060ff168152602001600081526020016000815260200160008152602001600081525090565b8152602001906001900390816122d35790505b5090506000805b600a548110156119bb576000818152600d60205260409020546001600160a01b038087169116036124ac57600a818154811061237d5761237d614838565b9060005260206000209060090201604051806101200160405290816000820180546123a790614ae0565b80601f01602080910402602001604051908101604052809291908181526020018280546123d390614ae0565b80156124205780601f106123f557610100808354040283529160200191612420565b820191906000526020600020905b81548152906001019060200180831161240357829003601f168201915b5050509183525050600182015460208201526002820154604082015260038201546060820152600482015460ff166080820152600582015460a0820152600682015460c0820152600782015460e082015260089091015461010090910152835184908490811061249257612492614838565b602002602001018190525081806124a8906149dc565b9250505b806124b6816149dc565b91505061233f565b336000908152601d6020526040902054821461250c5760405162461bcd60e51b815260206004820152600d60248201526c6e6f7420796f757220726f6f6d60981b6044820152606401610f85565b600082815260216020526040808220600201549051634e31f59760e11b815290919073__PDDLib________________________________90639c63eb2e9061255a9085908790600401614b1a565b602060405180830381865af4158015612577573d6000803e3d6000fd5b505050506040513d601f19601f8201168201806040525081019061259b9190614b68565b60408051608081018252338082528315156020808401918252428486019081526000938452601e825285842054606086019081528b855260218352958420600481018054600181810183558288529487208851600390920201805496511515600160a01b026001600160a81b03199097166001600160a01b039290921691909117959095178555915192840192909255945160029092019190915590889052805492549394509092909190036126b3576040518681527f67acaceb58ff1ad2aa8b3069f69c4cd076824e06a09184b75fb197ead7040be79060200160405180910390a16000868152602160209081526040808320600601805460ff19166001179055338352601d8252808320839055601e9091528120555b505050505050565b6000818152600e602052604090205481906001600160a01b031633146126e057600080fd5b6000838152600d602052604090205483906001600160a01b0316331461270557600080fd5b82600a858154811061271957612719614838565b906000526020600020906009020160020154146127715760405162461bcd60e51b8152602060048201526016602482015275195b99da5b99481a5cc81b9bdd08185d1d1858da195960521b6044820152606401610f85565b6000600a858154811061278657612786614838565b90600052602060002090600902016002018190555050505050565b60006127ab6137c9565b60088054600091826127bc836149dc565b909155506040805160608101825282815261ffff8089166020830190815260ff808a16948401948552600b80546001810182556000918252945160029095027f0175b7a638427703f0dbe7bb9bbf987a2551717b34e79f33b5b1008d1fa01db981019590955591517f0175b7a638427703f0dbe7bb9bbf987a2551717b34e79f33b5b1008d1fa01dba90940180549551909116620100000262ffffff199095169390921692909217929092179091559091506011906128836000546001600160a01b031690565b6001600160a01b03168152602081019190915260400160009081208054916128aa836149dc565b909155505060008054828252600e602052604090912080546001600160a01b0319166001600160a01b0390921691909117905582156128f55760008181526014602052604090208390555b949350505050565b6000828152600f602052604090205482906001600160a01b03163314611da25760405162461bcd60e51b8152600401610f859061480a565b6000828152600d602052604090205482906001600160a01b03163314611da257600080fd5b6000818152600f602052604090205481906001600160a01b031633146129925760405162461bcd60e51b8152600401610f859061480a565b6000838152600d602052604090205483906001600160a01b031633146129b757600080fd5b82600a85815481106129cb576129cb614838565b90600052602060002090600902016003015403612a195760405162461bcd60e51b815260206004820152600c60248201526b73616d65206368617373697360a01b6044820152606401610f85565b6000612a2433612280565b905060005b8151811015612a8d5784828281518110612a4557612a45614838565b60200260200101516060015103612a7b576000828281518110612a6a57612a6a614838565b602002602001015160600181815250505b80612a85816149dc565b915050612a29565b5083600a8681548110612aa257612aa2614838565b9060005260206000209060090201600301819055505050505050565b3360009081526010602052604090205415612ad857600080fd5b600081612ae442613af4565b604051602001612af5929190614b8a565b6040516020818303038152906040529050600081604051602001612b199190614bb0565b6040516020818303038152906040528051906020012060001c90506000612b3e613b87565b90506000612b4a613cbb565b600a80546040805161012081018252898152602080820189905291810187905260608101859052600160808201819052600060a0830181905260c0830181905260e083018190526101008301859052908401855593909352825180519495509193600985027fc65a7bb8d6351c1cf70c95a316cc6a92839c986682d98bc35f958f4883f9d2a80192612be0928492910190614133565b506020828101516001830155604080840151600284015560608401516003840155608084015160048401805460ff191660ff90921691909117905560a0840151600584015560c0840151600684015560e08401516007840155610100909301516008909201919091556000838152600d82528281208054336001600160a01b0319909116811790915581526010909152908120805491612c7f836149dc565b9190505550505050505050565b612c946137c9565b6001600160a01b038116612cf95760405162461bcd60e51b815260206004820152602660248201527f4f776e61626c653a206e6577206f776e657220697320746865207a65726f206160448201526564647265737360d01b6064820152608401610f85565b612d0281613823565b50565b6000818152600f60205260409020546001600160a01b03848116911614612d2b57600080fd5b611c84838383613def565b600a8181548110612d4657600080fd5b9060005260206000209060090201600091509050806000018054612d6990614ae0565b80601f0160208091040260200160405190810160405280929190818152602001828054612d9590614ae0565b8015612de25780601f10612db757610100808354040283529160200191612de2565b820191906000526020600020905b815481529060010190602001808311612dc557829003601f168201915b50505060018401546002850154600386015460048701546005880154600689015460078a01546008909a01549899959894975092955060ff90911693909289565b6000828152600e602052604090205482906001600160a01b03163314612e4857600080fd5b601854600b8481548110612e5e57612e5e614838565b6000918252602090912060016002909202010154612e839061ffff1660ff8516614bcc565b61ffff16612e919190614890565b3414612e9c57600080fd5b600080546040516001600160a01b03909116913480156108fc02929091818181858888f19350505050158015612ed6573d6000803e3d6000fd5b508160ff16600b8481548110612eee57612eee614838565b6000918252602082206001600290920201018054909190612f1490849061ffff16614bed565b92506101000a81548161ffff021916908361ffff160217905550505050565b6000818152600d602052604090205481906001600160a01b03163314612f5857600080fd5b6000805b6020548110156132de5760208181548110612f7957612f79614838565b906000526020600020906006020160020154600a808681548110612f9f57612f9f614838565b6000918252602090912060046009909202010154612fc0919060ff166148ed565b612fcb90600161490f565b60ff16036132cc576001915060208181548110612fea57612fea614838565b60009182526020808320600690920290910154338352601d8252604080842091909155601e825290912085905580548290811061302957613029614838565b600091825260208220600160069092020101805491613047836149dc565b91905055506020818154811061305f5761305f614838565b9060005260206000209060060201600301600001546020828154811061308757613087614838565b906000526020600020906006020160010154036132cc57600073__PDDLib________________________________63c037e545602084815481106130cd576130cd614838565b906000526020600020906006020160030160020154602085815481106130f5576130f5614838565b9060005260206000209060060201600301600001546040518363ffffffff1660e01b8152600401613130929190918252602082015260400190565b602060405180830381865af415801561314d573d6000803e3d6000fd5b505050506040513d601f19601f820116820180604052508101906131719190614c0a565b90506000602160006020858154811061318c5761318c614838565b90600052602060002090600602016000015481526020019081526020016000209050602083815481106131c1576131c1614838565b60009182526020918290206003600690920201015482558054849081106131ea576131ea614838565b600091825260208083206006928302016002908101546001860155840185905542600385015560058401929092558201805460ff1916905580547f2838ebeee7dc83fac85a3d6dbca0c0b6771591ada8b00f97371aa6611e631f9c91908590811061325757613257614838565b600091825260209182902060069091020154604080519182529181018590520160405180910390a16020838154811061329257613292614838565b6000918252602082206006909102018181556001810182905560028101829055600381018290556004810182905560050155506132de9050565b806132d6816149dc565b915050612f5c565b5080156132ea57505050565b601f8054600091826132fb836149dc565b90915550601c549091506000906133129042614c23565b905081601d6000336001600160a01b03166001600160a01b03168152602001908152602001600020819055506020604051806080016040528084815260200160018152602001600a80898154811061336c5761336c614838565b600091825260209091206004600990920201015461338d919060ff166148ed565b61339890600161490f565b60ff168152602001601c84815481106133b3576133b3614838565b60009182526020808320604080516060808201835260039586029093018054825260018082015483870152600291820154838501529190975288548082018a5598865294839020875160069099020197885586830151948801949094558584015194870194909455939092015180519285019290925591810151600484015501516005909101555050505050565b6134496137c9565b60008661345542613af4565b604051602001613466929190614b8a565b604051602081830303815290604052905060008160405160200161348a9190614bb0565b6040516020818303038152906040528051906020012060001c905060006134b3888860006127a1565b905060006134c2876000611feb565b600a805460408051610120810182528e815260208082018990529181018790526060810185905260ff8b166080820152600060a0820181905260c0820181905260e08201819052610100820184905260018401855593909352825180519495509193600985027fc65a7bb8d6351c1cf70c95a316cc6a92839c986682d98bc35f958f4883f9d2a80192613559928492910190614133565b506020828101516001830155604080840151600284015560608401516003840155608084015160048401805460ff90921660ff1990921691909117905560a0840151600584015560c0840151600684015560e084015160078401556101009093015160089092019190915560008054848252600d835283822080546001600160a01b0319166001600160a01b0392831617905581541681526010909152908120805491613605836149dc565b9091555050600090815260136020526040902094909455505050505050505050565b6000828152600d6020526040812054819061364a906001600160a01b0316611664565b90506136598160000151613ee6565b6000600a858154811061366e5761366e614838565b9060005260206000209060090201600201549050600060019050600a85600b848154811061369e5761369e614838565b906000526020600020906002020160010160029054906101000a900460ff166136c79190614976565b60ff161061371857600a600b83815481106136e4576136e4614838565b600091825260209091206002909102016001015461370b9062010000900460ff1687614976565b61371591906148ed565b90505b8060ff16600184600001518154811061373357613733614838565b600091825260209091206003909102016001015462010000900460ff16106137bd5780600184600001518154811061376d5761376d614838565b906000526020600020906003020160010160028282829054906101000a900460ff166137999190614953565b92506101000a81548160ff021916908360ff1602179055506001935050505061212a565b6000935050505061212a565b6000546001600160a01b031633146119d65760405162461bcd60e51b815260206004820181905260248201527f4f776e61626c653a2063616c6c6572206973206e6f7420746865206f776e65726044820152606401610f85565b600080546001600160a01b038381166001600160a01b0319831681178455604051919092169283917f8be0079c531659141344cd1fd0a4f28419497f9722a3daafe3b4186f6b6457e09190a35050565b6001600160a01b0383166000908152601060205260409020546138ce5760405162461bcd60e51b815260206004820152601360248201527234ba1034b9903cb7bab9103630b9ba1031b0b960691b6044820152606401610f85565b600a81815481106138e1576138e1614838565b906000526020600020906009020160030154600014613925576000600a828154811061390f5761390f614838565b9060005260206000209060090201600301819055505b600a818154811061393857613938614838565b90600052602060002090600902016002015460001461397c576000600a828154811061396657613966614838565b9060005260206000209060090201600201819055505b6001600160a01b03821660009081526010602052604081208054916139a0836149dc565b90915550506001600160a01b03831660009081526010602052604081208054916139c983614c37565b90915550506000908152600d6020526040902080546001600160a01b0319166001600160a01b039290921691909117905550565b6000613a0884612280565b905060005b8151811015613a715782828281518110613a2957613a29614838565b60200260200101516040015103613a5f576000828281518110613a4e57613a4e614838565b602002602001015160400181815250505b80613a69816149dc565b915050613a0d565b506001600160a01b0383166000908152601160205260408120805491613a96836149dc565b90915550506001600160a01b0384166000908152601160205260408120805491613abf83614c37565b9091555050506000908152600e6020526040902080546001600160a01b0319166001600160a01b039290921691909117905550565b60606000613b0183614045565b600101905060008167ffffffffffffffff811115613b2157613b2161454f565b6040519080825280601f01601f191660200182016040528015613b4b576020820181803683370190505b5090508181016020015b600019016f181899199a1a9b1b9c1cb0b131b232b360811b600a86061a8153600a8504945084613b5557509392505050565b600080600354600454613b9a9190614c4e565b613ba49042614c23565b600354613bb191906149c4565b600880549192506000919082613bc6836149dc565b909155506040805160608101825282815261ffff808616602080840191825260055460ff908116858701908152600b80546001810182556000918252965160029097027f0175b7a638427703f0dbe7bb9bbf987a2551717b34e79f33b5b1008d1fa01db981019790975593517f0175b7a638427703f0dbe7bb9bbf987a2551717b34e79f33b5b1008d1fa01dba90960180549151909216620100000262ffffff1990911695909416949094179290921790925533825260119052908120805492935090613c92836149dc565b90915550506000818152600e6020526040902080546001600160a01b0319163317905592915050565b600080600654600754613cce9190614c4e565b613cd89042614c23565b600654613ce591906149c4565b600980549192506000919082613cfa836149dc565b909155506040805160608101825282815263ffffffff8086166020808401828152848601928352600c80546001810182556000918252955160029096027fdf6966c971051c3d54ec59162606531493a51404a002842f56009d7e5cf4a8c781019690965590517fdf6966c971051c3d54ec59162606531493a51404a002842f56009d7e5cf4a8c89095018054935185166401000000000267ffffffffffffffff1990941695909416949094179190911790915533825260129052908120805492935090613dc6836149dc565b90915550506000818152600f6020526040902080546001600160a01b0319163317905592915050565b6001600160a01b0382166000908152601260205260408120805491613e13836149dc565b90915550506001600160a01b0383166000908152601260205260408120805491613e3c83614c37565b91905055506000613e4c84612280565b905060005b8151811015613eb55782828281518110613e6d57613e6d614838565b60200260200101516060015103613ea3576000828281518110613e9257613e92614838565b602002602001015160600181815250505b80613ead816149dc565b915050613e51565b50506000908152600f6020526040902080546001600160a01b0319166001600160a01b039290921691909117905550565b60004290506000610e1060018481548110613f0357613f03614838565b90600052602060002090600302016002015483613f209190614c4e565b613f2a9190614c65565b9050600060018481548110613f4157613f41614838565b6000918252602090912060039091020160010154613f6790610100900460ff1683614890565b60018581548110613f7a57613f7a614838565b6000918252602090912060039091020160010154613fa1919062010000900460ff166149c4565b9050613fda60018581548110613fb957613fb9614838565b600091825260209091206001600390920201015460ff90811690831661411d565b60018581548110613fed57613fed614838565b906000526020600020906003020160010160026101000a81548160ff021916908360ff160217905550826001858154811061402a5761402a614838565b90600052602060002090600302016002018190555050505050565b60008072184f03e93ff9f4daa797ed6e38ed64bf6a1f0160401b83106140845772184f03e93ff9f4daa797ed6e38ed64bf6a1f0160401b830492506040015b6d04ee2d6d415b85acef810000000083106140b0576d04ee2d6d415b85acef8100000000830492506020015b662386f26fc1000083106140ce57662386f26fc10000830492506010015b6305f5e10083106140e6576305f5e100830492506008015b61271083106140fa57612710830492506004015b6064831061410c576064830492506002015b600a831061212a5760010192915050565b600081831061412c5781612127565b5090919050565b82805461413f90614ae0565b90600052602060002090601f01602090048101928261416157600085556141a7565b82601f1061417a57805160ff19168380011785556141a7565b828001600101855582156141a7579182015b828111156141a757825182559160200191906001019061418c565b506141b39291506141b7565b5090565b5b808211156141b357600081556001016141b8565b6000602082840312156141de57600080fd5b5035919050565b803560ff811681146141f657600080fd5b919050565b6000806040838503121561420e57600080fd5b8235915061421e602084016141e5565b90509250929050565b80356001600160a01b03811681146141f657600080fd5b6000806040838503121561425157600080fd5b61425a83614227565b946020939093013593505050565b60006020828403121561427a57600080fd5b61212782614227565b602080825282518282018190526000919060409081850190868401855b828110156142e557815180516001600160a01b0316855286810151151587860152858101518686015260609081015190850152608090930192908501906001016142a0565b5091979650505050505050565b6000806040838503121561430557600080fd5b50508035926020909101359150565b602080825282518282018190526000919060409081850190868401855b828110156142e5578151805185528681015163ffffffff9081168887015290860151168585015260609093019290850190600101614331565b602080825282518282018190526000919060409081850190868401855b828110156142e5578151805185528681015161ffff168786015285015160ff168585015260609093019290850190600101614387565b6000806000606084860312156143d257600080fd5b6143db84614227565b92506143e960208501614227565b9150604084013590509250925092565b803563ffffffff811681146141f657600080fd5b6000806040838503121561442057600080fd5b61425a836143f9565b60005b8381101561444457818101518382015260200161442c565b83811115614453576000848401525b50505050565b60008151808452614471816020860160208601614429565b601f01601f19169290920160200192915050565b60006020808301818452808551808352604092508286019150828160051b87010184880160005b8381101561454157603f19898403018552815161012081518186526144d382870182614459565b9150508882015189860152878201518886015260608083015181870152506080808301516145058288018260ff169052565b505060a0828101519086015260c0808301519086015260e0808301519086015261010091820151919094015293860193908601906001016144ac565b509098975050505050505050565b634e487b7160e01b600052604160045260246000fd5b604051601f8201601f1916810167ffffffffffffffff8111828210171561458e5761458e61454f565b604052919050565b600080604083850312156145a957600080fd5b8235915060208084013567ffffffffffffffff808211156145c957600080fd5b818601915086601f8301126145dd57600080fd5b8135818111156145ef576145ef61454f565b8060051b9150614600848301614565565b818152918301840191848101908984111561461a57600080fd5b938501935b838510156146385784358252938501939085019061461f565b8096505050505050509250929050565b803561ffff811681146141f657600080fd5b60008060006060848603121561466f57600080fd5b61467884614648565b92506143e9602085016141e5565b600082601f83011261469757600080fd5b813567ffffffffffffffff8111156146b1576146b161454f565b6146c4601f8201601f1916602001614565565b8181528460208386010111156146d957600080fd5b816020850160208301376000918101602001919091529392505050565b60006020828403121561470857600080fd5b813567ffffffffffffffff81111561471f57600080fd5b6128f584828501614686565b600061012080835261473f8184018d614459565b602084019b909b5250506040810197909752606087019590955260ff93909316608086015260a085019190915260c084015260e083015261010090910152919050565b60008060008060008060c0878903121561479b57600080fd5b863567ffffffffffffffff8111156147b257600080fd5b6147be89828a01614686565b9650506147cd60208801614648565b94506147db604088016141e5565b93506147e9606088016143f9565b92506147f7608088016141e5565b915060a087013590509295509295509295565b6020808252601490820152730c6d0c2e6e6d2e640dcdee840f2deeae4407c74560631b604082015260600190565b634e487b7160e01b600052603260045260246000fd5b634e487b7160e01b600052601160045260246000fd5b600063ffffffff808316818516818304811182151516156148875761488761484e565b02949350505050565b60008160001904831182151516156148aa576148aa61484e565b500290565b600063ffffffff8083168185168083038211156148ce576148ce61484e565b01949350505050565b634e487b7160e01b600052601260045260246000fd5b600060ff831680614900576149006148d7565b8060ff84160491505092915050565b600060ff821660ff84168060ff0382111561492c5761492c61484e565b019392505050565b600060ff821660ff810361494a5761494a61484e565b60010192915050565b600060ff821660ff84168082101561496d5761496d61484e565b90039392505050565b600060ff821660ff84168160ff04811182151516156149975761499761484e565b029392505050565b600063ffffffff838116908316818110156149bc576149bc61484e565b039392505050565b600082198211156149d7576149d761484e565b500190565b6000600182016149ee576149ee61484e565b5060010190565b600181815b80851115614a30578160001904821115614a1657614a1661484e565b80851615614a2357918102915b93841c93908002906149fa565b509250929050565b600082614a475750600161212a565b81614a545750600061212a565b8160018114614a6a5760028114614a7457614a90565b600191505061212a565b60ff841115614a8557614a8561484e565b50506001821b61212a565b5060208310610133831016604e8410600b8410161715614ab3575081810a61212a565b614abd83836149f5565b80600019048211156149975761499761484e565b600061212760ff841683614a38565b600181811c90821680614af457607f821691505b602082108103614b1457634e487b7160e01b600052602260045260246000fd5b50919050565b6000604082018483526020604081850152818551808452606086019150828701935060005b81811015614b5b57845183529383019391830191600101614b3f565b5090979650505050505050565b600060208284031215614b7a57600080fd5b8151801515811461212757600080fd5b60008351614b9c818460208801614429565b8351908301906148ce818360208801614429565b60008251614bc2818460208701614429565b9190910192915050565b600061ffff808316818516818304811182151516156148875761488761484e565b600061ffff8083168185168083038211156148ce576148ce61484e565b600060208284031215614c1c57600080fd5b5051919050565b600082614c3257614c326148d7565b500690565b600081614c4657614c4661484e565b506000190190565b600082821015614c6057614c6061484e565b500390565b600082614c7457614c746148d7565b50049056fea2646970667358221220fc9a4d13fd7bdb42a3180f2e1e8dd7b81bded8698a3b5f3ee1729f75560c9e3e64736f6c634300080d0033",
  "immutableReferences": {},
  "source": "// SPDX-License-Identifier: MIT\npragma solidity ^0.8.13;\n\nimport \"./CarRacing.sol\";\n\ncontract TokenOwnership is CarRacing{\n\n    mapping (uint => address) public carApprovals;\n    mapping (uint => address) public engineApprovals;\n    mapping (uint => address) public chassisApprovals;\n\n\n    function balanceOfCars(address _owner) external view returns (uint256) {\n        return ownerCarCount[_owner];\n    }\n    function ownerOfCar(uint256 _tokenId) external view returns(address) {\n        return carToOwner[_tokenId];\n    }\n    function _transferCar(address _from, address _to, uint256 _tokenId) private {\n        require(ownerCarCount[_from]>0, \"it is your last car\");\n        if(cars[_tokenId].chassisId != 0){\n            cars[_tokenId].chassisId = 0;\n        }\n        if(cars[_tokenId].engineId != 0){\n            cars[_tokenId].engineId = 0;\n        }\n        ownerCarCount[_to]++;// = ownerCarCount[_to].add(1);\n        ownerCarCount[_from]--;// = ownerCarCount[_from].sub(1);\n        carToOwner[_tokenId] = _to;\n    }\n    function transferCarFrom(address _from, address _to, uint256 _tokenId) external payable {\n        require (carToOwner[_tokenId] == _from || carToPrice[_tokenId] != 0);\n        _transferCar(_from, _to, _tokenId);\n    }\n    function approveCar(address _approved, uint256 _tokenId) external payable onlyOwnerOfCar(_tokenId) {\n        carApprovals[_tokenId] = _approved;\n    }\n\n\n    function balanceOfEngines(address _owner) external view returns (uint256) {\n        return ownerEngineCount[_owner];\n    }\n    function ownerOfEngine(uint256 _tokenId) external view returns(address) {\n        return engineToOwner[_tokenId];\n    }\n    function _transferEngine(address _from, address _to, uint256 _tokenId) private {\n        Car[] memory cars = getCarsByOwner(_from);\n        \n        for(uint i = 0; i<cars.length; i++){\n            if(cars[i].engineId == _tokenId){\n                cars[i].engineId = 0;\n            }\n        }\n        ownerEngineCount[_to]++;// = ownerEngineCount[_to].add(1);\n        ownerEngineCount[_from]--;// = ownerEngineCount[_from].sub(1);\n        engineToOwner[_tokenId] = _to;\n    }\n    function transferEngineFrom(address _from, address _to, uint256 _tokenId) external payable {\n        require (engineToOwner[_tokenId] == _from);\n        _transferEngine(_from, _to, _tokenId);\n    }\n\n    function approveEngine(address _approved, uint256 _tokenId) external payable onlyOwnerOfEngine(_tokenId) {\n        engineApprovals[_tokenId] = _approved;\n    }\n\n    \n    function balanceOfChassis(address _owner) external view returns (uint256) {\n        return ownerChassisCount[_owner];\n    }\n    function ownerOfChassis(uint256 _tokenId) external view returns(address) {\n        return chassisToOwner[_tokenId];\n    }\n    function _transferChassis(address _from, address _to, uint256 _tokenId) private {\n        ownerChassisCount[_to]++;// = ownerChassisCount[_to].add(1);\n        ownerChassisCount[_from]--;// = ownerChassisCount[_from].sub(1);\n        Car[] memory cars = getCarsByOwner(_from);\n        for(uint i = 0; i<cars.length; i++){\n            if(cars[i].chassisId == _tokenId){\n                cars[i].chassisId = 0;\n            }\n        }\n        chassisToOwner[_tokenId] = _to;\n    }\n    function transferChassisFrom(address _from, address _to, uint256 _tokenId) external {\n        require (chassisToOwner[_tokenId] == _from);\n        _transferChassis(_from, _to, _tokenId);\n    }\n    function approveChassis(address _approved, uint256 _tokenId) external payable onlyOwnerOfChassis(_tokenId) {\n        chassisApprovals[_tokenId] = _approved;\n    }\n\n\n    function putChassisOnMarketplace(uint chassisId, uint price) public onlyOwnerOfChassis(chassisId){\n\n        require(price>0, \"invalid price\");\n        chassisToPrice[chassisId] = price;\n    }\n    function removeChassisFromMarketplace(uint chassisId) public onlyOwnerOfChassis(chassisId){\n        chassisToPrice[chassisId] = 0;\n    }\n\n    function putEngineOnMarketplace(uint engineId, uint price) public onlyOwnerOfEngine(engineId){\n        require(price>0, \"invalid price\");\n        chassisToPrice[engineId] = price;\n    }\n    function removeEngineFromMarketplace(uint engineId) public onlyOwnerOfEngine(engineId){\n        chassisToPrice[engineId] = 0;\n    }\n\n    function putCarOnMarketplace(uint carId, uint price) public onlyOwnerOfCar(carId){\n        require(price>0, \"invalid price\");\n        chassisToPrice[carId] = price;\n    }\n    function removeCarFromMarketplace(uint carId) public onlyOwnerOfCar(carId){\n        chassisToPrice[carId] = 0;\n    }\n\n}",
  "sourcePath": "/Users/vvan/Programming/JavaScript/DriveSafely/contract/contracts/TokenOwnership.sol",
  "compiler": {
    "name": "solc",
    "version": "0.8.13+commit.abaa5c0e.Emscripten.clang"
  },
  "schemaVersion": "3.4.11",
  "updatedAt": "2023-01-11T07:58:12.075Z",
  "networkType": "ethereum",
  "devdoc": {
    "kind": "dev",
    "methods": {
      "owner()": {
        "details": "Returns the address of the current owner."
      },
      "renounceOwnership()": {
        "details": "Leaves the contract without owner. It will not be possible to call `onlyOwner` functions anymore. Can only be called by the current owner. NOTE: Renouncing ownership will leave the contract without an owner, thereby removing any functionality that is only available to the owner."
      },
      "transferOwnership(address)": {
        "details": "Transfers ownership of the contract to a new account (`newOwner`). Can only be called by the current owner."
      }
    },
    "version": 1
  },
  "userdoc": {
    "kind": "user",
    "methods": {},
    "version": 1
  }
}