{
  "contractName": "TokenOwnership",
  "abi": [
    {
      "inputs": [],
      "stateMutability": "nonpayable",
      "type": "constructor"
    },
    {
      "anonymous": false,
      "inputs": [
        {
          "indexed": true,
          "internalType": "address",
          "name": "previousOwner",
          "type": "address"
        },
        {
          "indexed": true,
          "internalType": "address",
          "name": "newOwner",
          "type": "address"
        }
      ],
      "name": "OwnershipTransferred",
      "type": "event"
    },
    {
      "anonymous": false,
      "inputs": [
        {
          "indexed": false,
          "internalType": "uint256",
          "name": "roomId",
          "type": "uint256"
        }
      ],
      "name": "RoomClosed",
      "type": "event"
    },
    {
      "anonymous": false,
      "inputs": [
        {
          "indexed": false,
          "internalType": "uint256",
          "name": "roomId",
          "type": "uint256"
        },
        {
          "indexed": false,
          "internalType": "uint256",
          "name": "roomDNA",
          "type": "uint256"
        }
      ],
      "name": "RoomFull",
      "type": "event"
    },
    {
      "inputs": [
        {
          "internalType": "uint256",
          "name": "",
          "type": "uint256"
        }
      ],
      "name": "carToOwner",
      "outputs": [
        {
          "internalType": "address",
          "name": "",
          "type": "address"
        }
      ],
      "stateMutability": "view",
      "type": "function"
    },
    {
      "inputs": [
        {
          "internalType": "uint256",
          "name": "",
          "type": "uint256"
        }
      ],
      "name": "cars",
      "outputs": [
        {
          "internalType": "string",
          "name": "model",
          "type": "string"
        },
        {
          "internalType": "uint256",
          "name": "vin",
          "type": "uint256"
        },
        {
          "internalType": "uint256",
          "name": "engineId",
          "type": "uint256"
        },
        {
          "internalType": "uint256",
          "name": "chassisId",
          "type": "uint256"
        },
        {
          "internalType": "uint8",
          "name": "carLevel",
          "type": "uint8"
        },
        {
          "internalType": "uint256",
          "name": "mileage",
          "type": "uint256"
        },
        {
          "internalType": "uint256",
          "name": "winCountOnCurrentLevel",
          "type": "uint256"
        },
        {
          "internalType": "uint256",
          "name": "lossCountOnCurrentLevel",
          "type": "uint256"
        },
        {
          "internalType": "uint256",
          "name": "id",
          "type": "uint256"
        }
      ],
      "stateMutability": "view",
      "type": "function"
    },
    {
      "inputs": [
        {
          "internalType": "uint256",
          "name": "",
          "type": "uint256"
        }
      ],
      "name": "chassis",
      "outputs": [
        {
          "internalType": "uint256",
          "name": "id",
          "type": "uint256"
        },
        {
          "internalType": "uint32",
          "name": "durability",
          "type": "uint32"
        },
        {
          "internalType": "uint32",
          "name": "resource",
          "type": "uint32"
        }
      ],
      "stateMutability": "view",
      "type": "function"
    },
    {
      "inputs": [
        {
          "internalType": "uint256",
          "name": "",
          "type": "uint256"
        }
      ],
      "name": "chassisToOwner",
      "outputs": [
        {
          "internalType": "address",
          "name": "",
          "type": "address"
        }
      ],
      "stateMutability": "view",
      "type": "function"
    },
    {
      "inputs": [
        {
          "internalType": "uint256",
          "name": "roomId",
          "type": "uint256"
        },
        {
          "internalType": "uint256[]",
          "name": "answer",
          "type": "uint256[]"
        }
      ],
      "name": "commitAnswer",
      "outputs": [],
      "stateMutability": "nonpayable",
      "type": "function"
    },
    {
      "inputs": [
        {
          "internalType": "string",
          "name": "model",
          "type": "string"
        }
      ],
      "name": "createCar",
      "outputs": [],
      "stateMutability": "nonpayable",
      "type": "function"
    },
    {
      "inputs": [],
      "name": "createFuelStation",
      "outputs": [],
      "stateMutability": "nonpayable",
      "type": "function"
    },
    {
      "inputs": [
        {
          "internalType": "uint256",
          "name": "",
          "type": "uint256"
        }
      ],
      "name": "engineToOwner",
      "outputs": [
        {
          "internalType": "address",
          "name": "",
          "type": "address"
        }
      ],
      "stateMutability": "view",
      "type": "function"
    },
    {
      "inputs": [
        {
          "internalType": "uint256",
          "name": "",
          "type": "uint256"
        }
      ],
      "name": "engines",
      "outputs": [
        {
          "internalType": "uint256",
          "name": "id",
          "type": "uint256"
        },
        {
          "internalType": "uint16",
          "name": "horsePowers",
          "type": "uint16"
        },
        {
          "internalType": "uint8",
          "name": "consumtion",
          "type": "uint8"
        }
      ],
      "stateMutability": "view",
      "type": "function"
    },
    {
      "inputs": [
        {
          "internalType": "uint256",
          "name": "carId",
          "type": "uint256"
        }
      ],
      "name": "findRoom",
      "outputs": [],
      "stateMutability": "nonpayable",
      "type": "function"
    },
    {
      "inputs": [
        {
          "internalType": "uint256",
          "name": "",
          "type": "uint256"
        }
      ],
      "name": "fuelStationToOwner",
      "outputs": [
        {
          "internalType": "address",
          "name": "",
          "type": "address"
        }
      ],
      "stateMutability": "view",
      "type": "function"
    },
    {
      "inputs": [
        {
          "internalType": "address",
          "name": "_owner",
          "type": "address"
        }
      ],
      "name": "getCarsByOwner",
      "outputs": [
        {
          "components": [
            {
              "internalType": "string",
              "name": "model",
              "type": "string"
            },
            {
              "internalType": "uint256",
              "name": "vin",
              "type": "uint256"
            },
            {
              "internalType": "uint256",
              "name": "engineId",
              "type": "uint256"
            },
            {
              "internalType": "uint256",
              "name": "chassisId",
              "type": "uint256"
            },
            {
              "internalType": "uint8",
              "name": "carLevel",
              "type": "uint8"
            },
            {
              "internalType": "uint256",
              "name": "mileage",
              "type": "uint256"
            },
            {
              "internalType": "uint256",
              "name": "winCountOnCurrentLevel",
              "type": "uint256"
            },
            {
              "internalType": "uint256",
              "name": "lossCountOnCurrentLevel",
              "type": "uint256"
            },
            {
              "internalType": "uint256",
              "name": "id",
              "type": "uint256"
            }
          ],
          "internalType": "struct CarFactory.Car[]",
          "name": "",
          "type": "tuple[]"
        }
      ],
      "stateMutability": "view",
      "type": "function"
    },
    {
      "inputs": [
        {
          "internalType": "address",
          "name": "_owner",
          "type": "address"
        }
      ],
      "name": "getChassisByOwner",
      "outputs": [
        {
          "components": [
            {
              "internalType": "uint256",
              "name": "id",
              "type": "uint256"
            },
            {
              "internalType": "uint32",
              "name": "durability",
              "type": "uint32"
            },
            {
              "internalType": "uint32",
              "name": "resource",
              "type": "uint32"
            }
          ],
          "internalType": "struct CarFactory.Chassis[]",
          "name": "",
          "type": "tuple[]"
        }
      ],
      "stateMutability": "view",
      "type": "function"
    },
    {
      "inputs": [
        {
          "internalType": "uint256",
          "name": "roomId",
          "type": "uint256"
        }
      ],
      "name": "getClosedRoom",
      "outputs": [
        {
          "components": [
            {
              "internalType": "address",
              "name": "player",
              "type": "address"
            },
            {
              "internalType": "bool",
              "name": "correct",
              "type": "bool"
            },
            {
              "internalType": "uint256",
              "name": "time",
              "type": "uint256"
            },
            {
              "internalType": "uint256",
              "name": "carId",
              "type": "uint256"
            }
          ],
          "internalType": "struct RaceHandler.Answer[]",
          "name": "",
          "type": "tuple[]"
        }
      ],
      "stateMutability": "view",
      "type": "function"
    },
    {
      "inputs": [
        {
          "internalType": "address",
          "name": "_owner",
          "type": "address"
        }
      ],
      "name": "getEnginesByOwner",
      "outputs": [
        {
          "components": [
            {
              "internalType": "uint256",
              "name": "id",
              "type": "uint256"
            },
            {
              "internalType": "uint16",
              "name": "horsePowers",
              "type": "uint16"
            },
            {
              "internalType": "uint8",
              "name": "consumtion",
              "type": "uint8"
            }
          ],
          "internalType": "struct CarFactory.Engine[]",
          "name": "",
          "type": "tuple[]"
        }
      ],
      "stateMutability": "view",
      "type": "function"
    },
    {
      "inputs": [
        {
          "internalType": "address",
          "name": "_owner",
          "type": "address"
        }
      ],
      "name": "getFuelStationByOwner",
      "outputs": [
        {
          "components": [
            {
              "internalType": "uint256",
              "name": "id",
              "type": "uint256"
            },
            {
              "internalType": "uint8",
              "name": "capacity",
              "type": "uint8"
            },
            {
              "internalType": "uint8",
              "name": "productionPerHour",
              "type": "uint8"
            },
            {
              "internalType": "uint8",
              "name": "currentFullness",
              "type": "uint8"
            },
            {
              "internalType": "uint256",
              "name": "lastUpdate",
              "type": "uint256"
            }
          ],
          "internalType": "struct FuelStationFactory.FuelStation",
          "name": "",
          "type": "tuple"
        }
      ],
      "stateMutability": "view",
      "type": "function"
    },
    {
      "inputs": [
        {
          "internalType": "uint256",
          "name": "",
          "type": "uint256"
        }
      ],
      "name": "idToStartedRooms",
      "outputs": [
        {
          "internalType": "uint256",
          "name": "numberPlayers",
          "type": "uint256"
        },
        {
          "internalType": "uint256",
          "name": "world",
          "type": "uint256"
        },
        {
          "internalType": "uint256",
          "name": "roomDNA",
          "type": "uint256"
        },
        {
          "internalType": "uint256",
          "name": "startTime",
          "type": "uint256"
        },
        {
          "internalType": "uint256",
          "name": "curAnswer",
          "type": "uint256"
        },
        {
          "internalType": "bool",
          "name": "closed",
          "type": "bool"
        }
      ],
      "stateMutability": "view",
      "type": "function"
    },
    {
      "inputs": [
        {
          "internalType": "uint256",
          "name": "_carId",
          "type": "uint256"
        }
      ],
      "name": "levelUp",
      "outputs": [],
      "stateMutability": "payable",
      "type": "function"
    },
    {
      "inputs": [
        {
          "internalType": "uint256",
          "name": "",
          "type": "uint256"
        }
      ],
      "name": "openedRooms",
      "outputs": [
        {
          "internalType": "uint256",
          "name": "id",
          "type": "uint256"
        },
        {
          "internalType": "uint256",
          "name": "playersEntered",
          "type": "uint256"
        },
        {
          "internalType": "uint256",
          "name": "world",
          "type": "uint256"
        },
        {
          "components": [
            {
              "internalType": "uint256",
              "name": "playersNeeded",
              "type": "uint256"
            },
            {
              "internalType": "uint256",
              "name": "roadsNum",
              "type": "uint256"
            },
            {
              "internalType": "uint256",
              "name": "crossId",
              "type": "uint256"
            }
          ],
          "internalType": "struct RaceHandler.Cross",
          "name": "cross",
          "type": "tuple"
        }
      ],
      "stateMutability": "view",
      "type": "function"
    },
    {
      "inputs": [],
      "name": "owner",
      "outputs": [
        {
          "internalType": "address",
          "name": "",
          "type": "address"
        }
      ],
      "stateMutability": "view",
      "type": "function"
    },
    {
      "inputs": [
        {
          "internalType": "address",
          "name": "",
          "type": "address"
        }
      ],
      "name": "ownerCarCount",
      "outputs": [
        {
          "internalType": "uint256",
          "name": "",
          "type": "uint256"
        }
      ],
      "stateMutability": "view",
      "type": "function"
    },
    {
      "inputs": [],
      "name": "renounceOwnership",
      "outputs": [],
      "stateMutability": "nonpayable",
      "type": "function"
    },
    {
      "inputs": [
        {
          "internalType": "uint256",
          "name": "_carId",
          "type": "uint256"
        }
      ],
      "name": "startRace",
      "outputs": [],
      "stateMutability": "nonpayable",
      "type": "function"
    },
    {
      "inputs": [
        {
          "internalType": "uint256",
          "name": "",
          "type": "uint256"
        }
      ],
      "name": "stations",
      "outputs": [
        {
          "internalType": "uint256",
          "name": "id",
          "type": "uint256"
        },
        {
          "internalType": "uint8",
          "name": "capacity",
          "type": "uint8"
        },
        {
          "internalType": "uint8",
          "name": "productionPerHour",
          "type": "uint8"
        },
        {
          "internalType": "uint8",
          "name": "currentFullness",
          "type": "uint8"
        },
        {
          "internalType": "uint256",
          "name": "lastUpdate",
          "type": "uint256"
        }
      ],
      "stateMutability": "view",
      "type": "function"
    },
    {
      "inputs": [
        {
          "internalType": "uint256",
          "name": "carId",
          "type": "uint256"
        },
        {
          "internalType": "uint256",
          "name": "chassisId",
          "type": "uint256"
        }
      ],
      "name": "switchChassis",
      "outputs": [],
      "stateMutability": "nonpayable",
      "type": "function"
    },
    {
      "inputs": [
        {
          "internalType": "uint256",
          "name": "carId",
          "type": "uint256"
        },
        {
          "internalType": "uint256",
          "name": "engineId",
          "type": "uint256"
        }
      ],
      "name": "switchEngine",
      "outputs": [],
      "stateMutability": "nonpayable",
      "type": "function"
    },
    {
      "inputs": [
        {
          "internalType": "address",
          "name": "newOwner",
          "type": "address"
        }
      ],
      "name": "transferOwnership",
      "outputs": [],
      "stateMutability": "nonpayable",
      "type": "function"
    },
    {
      "inputs": [
        {
          "internalType": "uint256",
          "name": "_fuelStatonId",
          "type": "uint256"
        },
        {
          "internalType": "uint8",
          "name": "_counts",
          "type": "uint8"
        }
      ],
      "name": "upgradeCapacity",
      "outputs": [],
      "stateMutability": "payable",
      "type": "function"
    },
    {
      "inputs": [
        {
          "internalType": "uint256",
          "name": "_engineId",
          "type": "uint256"
        },
        {
          "internalType": "uint8",
          "name": "_counts",
          "type": "uint8"
        }
      ],
      "name": "upgradeConsumtion",
      "outputs": [],
      "stateMutability": "payable",
      "type": "function"
    },
    {
      "inputs": [
        {
          "internalType": "uint256",
          "name": "_chassisId",
          "type": "uint256"
        },
        {
          "internalType": "uint8",
          "name": "_counts",
          "type": "uint8"
        }
      ],
      "name": "upgradeDurability",
      "outputs": [],
      "stateMutability": "payable",
      "type": "function"
    },
    {
      "inputs": [
        {
          "internalType": "uint256",
          "name": "_engineId",
          "type": "uint256"
        },
        {
          "internalType": "uint8",
          "name": "_counts",
          "type": "uint8"
        }
      ],
      "name": "upgradeHorsePowers",
      "outputs": [],
      "stateMutability": "payable",
      "type": "function"
    },
    {
      "inputs": [
        {
          "internalType": "uint256",
          "name": "_fuelStatonId",
          "type": "uint256"
        },
        {
          "internalType": "uint8",
          "name": "_counts",
          "type": "uint8"
        }
      ],
      "name": "upgradeProductionPerHour",
      "outputs": [],
      "stateMutability": "payable",
      "type": "function"
    },
    {
      "inputs": [
        {
          "internalType": "address",
          "name": "_owner",
          "type": "address"
        }
      ],
      "name": "balanceOfCars",
      "outputs": [
        {
          "internalType": "uint256",
          "name": "",
          "type": "uint256"
        }
      ],
      "stateMutability": "view",
      "type": "function"
    },
    {
      "inputs": [
        {
          "internalType": "uint256",
          "name": "_tokenId",
          "type": "uint256"
        }
      ],
      "name": "ownerOfCar",
      "outputs": [
        {
          "internalType": "address",
          "name": "",
          "type": "address"
        }
      ],
      "stateMutability": "view",
      "type": "function"
    },
    {
      "inputs": [
        {
          "internalType": "address",
          "name": "_from",
          "type": "address"
        },
        {
          "internalType": "address",
          "name": "_to",
          "type": "address"
        },
        {
          "internalType": "uint256",
          "name": "_tokenId",
          "type": "uint256"
        }
      ],
      "name": "transferCarFrom",
      "outputs": [],
      "stateMutability": "payable",
      "type": "function"
    },
    {
      "inputs": [
        {
          "internalType": "address",
          "name": "_approved",
          "type": "address"
        },
        {
          "internalType": "uint256",
          "name": "_tokenId",
          "type": "uint256"
        }
      ],
      "name": "approveCar",
      "outputs": [],
      "stateMutability": "payable",
      "type": "function"
    },
    {
      "inputs": [
        {
          "internalType": "address",
          "name": "_owner",
          "type": "address"
        }
      ],
      "name": "balanceOfEngines",
      "outputs": [
        {
          "internalType": "uint256",
          "name": "",
          "type": "uint256"
        }
      ],
      "stateMutability": "view",
      "type": "function"
    },
    {
      "inputs": [
        {
          "internalType": "uint256",
          "name": "_tokenId",
          "type": "uint256"
        }
      ],
      "name": "ownerOfEngine",
      "outputs": [
        {
          "internalType": "address",
          "name": "",
          "type": "address"
        }
      ],
      "stateMutability": "view",
      "type": "function"
    },
    {
      "inputs": [
        {
          "internalType": "address",
          "name": "_from",
          "type": "address"
        },
        {
          "internalType": "address",
          "name": "_to",
          "type": "address"
        },
        {
          "internalType": "uint256",
          "name": "_tokenId",
          "type": "uint256"
        }
      ],
      "name": "transferEngineFrom",
      "outputs": [],
      "stateMutability": "payable",
      "type": "function"
    },
    {
      "inputs": [
        {
          "internalType": "address",
          "name": "_approved",
          "type": "address"
        },
        {
          "internalType": "uint256",
          "name": "_tokenId",
          "type": "uint256"
        }
      ],
      "name": "approveEngine",
      "outputs": [],
      "stateMutability": "payable",
      "type": "function"
    },
    {
      "inputs": [
        {
          "internalType": "address",
          "name": "_owner",
          "type": "address"
        }
      ],
      "name": "balanceOfChassis",
      "outputs": [
        {
          "internalType": "uint256",
          "name": "",
          "type": "uint256"
        }
      ],
      "stateMutability": "view",
      "type": "function"
    },
    {
      "inputs": [
        {
          "internalType": "uint256",
          "name": "_tokenId",
          "type": "uint256"
        }
      ],
      "name": "ownerOfChassis",
      "outputs": [
        {
          "internalType": "address",
          "name": "",
          "type": "address"
        }
      ],
      "stateMutability": "view",
      "type": "function"
    },
    {
      "inputs": [
        {
          "internalType": "address",
          "name": "_from",
          "type": "address"
        },
        {
          "internalType": "address",
          "name": "_to",
          "type": "address"
        },
        {
          "internalType": "uint256",
          "name": "_tokenId",
          "type": "uint256"
        }
      ],
      "name": "transferChassisFrom",
      "outputs": [],
      "stateMutability": "payable",
      "type": "function"
    },
    {
      "inputs": [
        {
          "internalType": "address",
          "name": "_approved",
          "type": "address"
        },
        {
          "internalType": "uint256",
          "name": "_tokenId",
          "type": "uint256"
        }
      ],
      "name": "approveChassis",
      "outputs": [],
      "stateMutability": "payable",
      "type": "function"
    }
  ],
  "bytecode": "0x6080604052603c600060146101000a81548160ff021916908360ff1602179055506005600060156101000a81548160ff021916908360ff160217905550600160085560016009556509184e72a00060135565b5e620f48000601455650da475abf0006015556611c37937e080006016556305f5e10060175566038d7ea4c680006018553480156200008f57600080fd5b50620000b0620000a46200034760201b60201c565b6200034f60201b60201c565b6050600381905550605b600481905550600a600560006101000a81548160ff021916908360ff160217905550620186a06006819055506201d4c1600781905550600b60018160018154018082558091505003906000526020600020905050600c600181600181540180825580915050039060005260206000209050506019604051806060016040528060048152602001600481526020016000815250908060018154018082558091505060019003906000526020600020906003020160009091909190915060008201518160000155602082015181600101556040820151816002015550506019604051806060016040528060038152602001600481526020016000815250908060018154018082558091505060019003906000526020600020906003020160009091909190915060008201518160000155602082015181600101556040820151816002015550506019604051806060016040528060028152602001600481526020016000815250908060018154018082558091505060019003906000526020600020906003020160009091909190915060008201518160000155602082015181600101556040820151816002015550506019604051806060016040528060038152602001600381526020016001815250908060018154018082558091505060019003906000526020600020906003020160009091909190915060008201518160000155602082015181600101556040820151816002015550506019604051806060016040528060028152602001600381526020016001815250908060018154018082558091505060019003906000526020600020906003020160009091909190915060008201518160000155602082015181600101556040820151816002015550506001601c8190555062000413565b600033905090565b60008060009054906101000a900473ffffffffffffffffffffffffffffffffffffffff169050816000806101000a81548173ffffffffffffffffffffffffffffffffffffffff021916908373ffffffffffffffffffffffffffffffffffffffff1602179055508173ffffffffffffffffffffffffffffffffffffffff168173ffffffffffffffffffffffffffffffffffffffff167f8be0079c531659141344cd1fd0a4f28419497f9722a3daafe3b4186f6b6457e060405160405180910390a35050565b61648980620004236000396000f3fe6080604052600436106102675760003560e01c80637713d52111610144578063b72c0eea116100b6578063ede6fbf51161007a578063ede6fbf514610992578063f2fde38b146109bb578063f66911b1146109e4578063f7746e3614610a00578063faf4bb9814610a45578063fb2d954f14610a6157610267565b8063b72c0eea1461089b578063c34cccc4146108da578063c75bb4f414610903578063c85b7fed14610940578063ea1269331461096957610267565b80638b579973116101085780638b5799731461079e5780638da5cb5b146107ba578063906f5f34146107e557806392f859db14610801578063b3b29afd14610842578063b44a4e931461087f57610267565b80637713d521146106d05780637c62360f1461070d5780637ec5c75c14610729578063859092671461074557806387d6b9b21461076157610267565b80632cb03a3a116101dd5780634e31f910116101a15780634e31f91014610588578063594193d7146105c55780635c426aff146106025780635dcc4cc61461063f5780636f206fc11461067c578063715018a6146106b957610267565b80632cb03a3a1461045757806333ca504b146104945780633521c426146104d15780633dfd6f541461050e578063449014901461054b57610267565b80630e0f70491161022f5780630e0f7049146103635780631c5dde0e1461037f5780631e85ab9b146103be578063224370f0146103da57806324d822bf146103f1578063254dc0651461041a57610267565b806302b677451461026c57806303f2e05b146102a95780630418394e146102c5578063081315ff146103075780630ce90ec214610347575b600080fd5b34801561027857600080fd5b50610293600480360381019061028e919061496c565b610a8a565b6040516102a091906149da565b60405180910390f35b6102c360048036038101906102be9190614a2e565b610ac7565b005b3480156102d157600080fd5b506102ec60048036038101906102e7919061496c565b610bff565b6040516102fe96959493929190614a98565b60405180910390f35b34801561031357600080fd5b5061032e6004803603810190610329919061496c565b610c48565b60405161033e9493929190614b4a565b60405180910390f35b610361600480360381019061035c919061496c565b610cb0565b005b61037d60048036038101906103789190614bbb565b610e2f565b005b34801561038b57600080fd5b506103a660048036038101906103a1919061496c565b610ef2565b6040516103b593929190614c1a565b60405180910390f35b6103d860048036038101906103d39190614bbb565b610f4c565b005b3480156103e657600080fd5b506103ef61100f565b005b3480156103fd57600080fd5b506104186004803603810190610413919061496c565b61117b565b005b34801561042657600080fd5b50610441600480360381019061043c9190614c51565b611391565b60405161044e9190614c7e565b60405180910390f35b34801561046357600080fd5b5061047e60048036038101906104799190614c51565b6113da565b60405161048b9190614c7e565b60405180910390f35b3480156104a057600080fd5b506104bb60048036038101906104b6919061496c565b611423565b6040516104c891906149da565b60405180910390f35b3480156104dd57600080fd5b506104f860048036038101906104f3919061496c565b611456565b6040516105059190614dbb565b60405180910390f35b34801561051a57600080fd5b506105356004803603810190610530919061496c565b6115b3565b60405161054291906149da565b60405180910390f35b34801561055757600080fd5b50610572600480360381019061056d919061496c565b6115f0565b60405161057f91906149da565b60405180910390f35b34801561059457600080fd5b506105af60048036038101906105aa9190614c51565b611623565b6040516105bc9190614e54565b60405180910390f35b3480156105d157600080fd5b506105ec60048036038101906105e7919061496c565b611762565b6040516105f991906149da565b60405180910390f35b34801561060e57600080fd5b506106296004803603810190610624919061496c565b611795565b60405161063691906149da565b60405180910390f35b34801561064b57600080fd5b506106666004803603810190610661919061496c565b6117d2565b60405161067391906149da565b60405180910390f35b34801561068857600080fd5b506106a3600480360381019061069e9190614c51565b611805565b6040516106b09190614f6f565b60405180910390f35b3480156106c557600080fd5b506106ce6119e3565b005b3480156106dc57600080fd5b506106f760048036038101906106f29190614c51565b6119f7565b604051610704919061509f565b60405180910390f35b61072760048036038101906107229190614a2e565b611bc6565b005b610743600480360381019061073e91906150c1565b611cf3565b005b61075f600480360381019061075a9190614a2e565b611dd7565b005b34801561076d57600080fd5b5061078860048036038101906107839190614c51565b611efa565b6040516107959190614c7e565b60405180910390f35b6107b860048036038101906107b391906150c1565b611f43565b005b3480156107c657600080fd5b506107cf612027565b6040516107dc91906149da565b60405180910390f35b6107ff60048036038101906107fa9190614a2e565b612050565b005b34801561080d57600080fd5b506108286004803603810190610823919061496c565b612173565b604051610839959493929190615123565b60405180910390f35b34801561084e57600080fd5b5061086960048036038101906108649190614c51565b6121e0565b6040516108769190614c7e565b60405180910390f35b61089960048036038101906108949190614bbb565b6121f8565b005b3480156108a757600080fd5b506108c260048036038101906108bd919061496c565b6122bb565b6040516108d193929190615185565b60405180910390f35b3480156108e657600080fd5b5061090160048036038101906108fc91906151bc565b612310565b005b34801561090f57600080fd5b5061092a60048036038101906109259190614c51565b61247f565b604051610937919061541c565b60405180910390f35b34801561094c57600080fd5b5061096760048036038101906109629190615586565b6126fd565b005b34801561097557600080fd5b50610990600480360381019061098b91906151bc565b612a80565b005b34801561099e57600080fd5b506109b960048036038101906109b49190615697565b612bef565b005b3480156109c757600080fd5b506109e260048036038101906109dd9190614c51565b612e61565b005b6109fe60048036038101906109f991906150c1565b612ee4565b005b348015610a0c57600080fd5b50610a276004803603810190610a22919061496c565b612fc8565b604051610a3c9998979695949392919061572a565b60405180910390f35b610a5f6004803603810190610a5a9190614a2e565b6130bb565b005b348015610a6d57600080fd5b50610a886004803603810190610a83919061496c565b6131e9565b005b6000600d600083815260200190815260200160002060009054906101000a900473ffffffffffffffffffffffffffffffffffffffff169050919050565b81600f600082815260200190815260200160002060009054906101000a900473ffffffffffffffffffffffffffffffffffffffff1673ffffffffffffffffffffffffffffffffffffffff163373ffffffffffffffffffffffffffffffffffffffff1614610b3357600080fd5b601754600c8481548110610b4a57610b496157be565b5b906000526020600020906002020160010160009054906101000a900463ffffffff168360ff16610b7a919061581c565b63ffffffff16610b8a919061585a565b3414610b9557600080fd5b8160ff16600c8481548110610bad57610bac6157be565b5b906000526020600020906002020160010160008282829054906101000a900463ffffffff16610bdc91906158b4565b92506101000a81548163ffffffff021916908363ffffffff160217905550505050565b601e6020528060005260406000206000915090508060000154908060010154908060020154908060030154908060050154908060060160009054906101000a900460ff16905086565b601d8181548110610c5857600080fd5b9060005260206000209060060201600091509050806000015490806001015490806002015490806003016040518060600160405290816000820154815260200160018201548152602001600282015481525050905084565b600a808281548110610cc557610cc46157be565b5b906000526020600020906009020160040160009054906101000a900460ff16610cee919061591d565b60ff16601854610cfe919061585a565b34148015610d7257506001600a8281548110610d1d57610d1c6157be565b5b906000526020600020906009020160040160009054906101000a900460ff16610d46919061594e565b60ff16600a8281548110610d5d57610d5c6157be565b5b90600052602060002090600902016006015410155b610d7b57600080fd5b600a8181548110610d8f57610d8e6157be565b5b9060005260206000209060090201600401600081819054906101000a900460ff1680929190610dbd90615985565b91906101000a81548160ff021916908360ff160217905550506000600a8281548110610dec57610deb6157be565b5b9060005260206000209060090201600601819055506000600a8281548110610e1757610e166157be565b5b90600052602060002090600902016007018190555050565b80600e600082815260200190815260200160002060009054906101000a900473ffffffffffffffffffffffffffffffffffffffff1673ffffffffffffffffffffffffffffffffffffffff163373ffffffffffffffffffffffffffffffffffffffff1614610e9b57600080fd5b826020600084815260200190815260200160002060006101000a81548173ffffffffffffffffffffffffffffffffffffffff021916908373ffffffffffffffffffffffffffffffffffffffff160217905550505050565b600c8181548110610f0257600080fd5b90600052602060002090600202016000915090508060000154908060010160009054906101000a900463ffffffff16908060010160049054906101000a900463ffffffff16905083565b80600f600082815260200190815260200160002060009054906101000a900473ffffffffffffffffffffffffffffffffffffffff1673ffffffffffffffffffffffffffffffffffffffff163373ffffffffffffffffffffffffffffffffffffffff1614610fb857600080fd5b826021600084815260200190815260200160002060006101000a81548173ffffffffffffffffffffffffffffffffffffffff021916908373ffffffffffffffffffffffffffffffffffffffff160217905550505050565b60003390506000600180549050905060016040518060a00160405280838152602001600060149054906101000a900460ff1660ff168152602001600060159054906101000a900460ff1660ff168152602001600060149054906101000a900460ff1660ff1681526020014263ffffffff1681525090806001815401808255809150506001900390600052602060002090600302016000909190919091506000820151816000015560208201518160010160006101000a81548160ff021916908360ff16021790555060408201518160010160016101000a81548160ff021916908360ff16021790555060608201518160010160026101000a81548160ff021916908360ff160217905550608082015181600201555050816002600083815260200190815260200160002060006101000a81548173ffffffffffffffffffffffffffffffffffffffff021916908373ffffffffffffffffffffffffffffffffffffffff1602179055505050565b80600d600082815260200190815260200160002060009054906101000a900473ffffffffffffffffffffffffffffffffffffffff1673ffffffffffffffffffffffffffffffffffffffff163373ffffffffffffffffffffffffffffffffffffffff16146111e757600080fd5b6000600a8084815481106111fe576111fd6157be565b5b906000526020600020906009020160040160009054906101000a900460ff16611227919061591d565b600a61123391906159ae565b600261123f91906159e2565b905061124b838261384a565b80156112ba57508060ff16600c600a858154811061126c5761126b6157be565b5b9060005260206000209060090201600301548154811061128f5761128e6157be565b5b906000526020600020906002020160010160049054906101000a900463ffffffff1663ffffffff1610155b6112c357600080fd5b8060ff16600c600a85815481106112dd576112dc6157be565b5b90600052602060002090600902016003015481548110611300576112ff6157be565b5b906000526020600020906002020160010160048282829054906101000a900463ffffffff1661132f9190615a1d565b92506101000a81548163ffffffff021916908363ffffffff1602179055508060ff16600a8481548110611365576113646157be565b5b906000526020600020906009020160050160008282546113859190615a51565b92505081905550505050565b6000601260008373ffffffffffffffffffffffffffffffffffffffff1673ffffffffffffffffffffffffffffffffffffffff168152602001908152602001600020549050919050565b6000601060008373ffffffffffffffffffffffffffffffffffffffff1673ffffffffffffffffffffffffffffffffffffffff168152602001908152602001600020549050919050565b600d6020528060005260406000206000915054906101000a900473ffffffffffffffffffffffffffffffffffffffff1681565b6060601e600083815260200190815260200160002060060160009054906101000a900460ff166114bb576040517f08c379a00000000000000000000000000000000000000000000000000000000081526004016114b290615af3565b60405180910390fd5b601e6000838152602001908152602001600020600401805480602002602001604051908101604052809291908181526020016000905b828210156115a857838290600052602060002090600302016040518060800160405290816000820160009054906101000a900473ffffffffffffffffffffffffffffffffffffffff1673ffffffffffffffffffffffffffffffffffffffff1673ffffffffffffffffffffffffffffffffffffffff1681526020016000820160149054906101000a900460ff1615151515815260200160018201548152602001600282015481525050815260200190600101906114f1565b505050509050919050565b6000600e600083815260200190815260200160002060009054906101000a900473ffffffffffffffffffffffffffffffffffffffff169050919050565b600f6020528060005260406000206000915054906101000a900473ffffffffffffffffffffffffffffffffffffffff1681565b61162b6147a3565b600080600090505b6001805490508110156116c1578373ffffffffffffffffffffffffffffffffffffffff166002600083815260200190815260200160002060009054906101000a900473ffffffffffffffffffffffffffffffffffffffff1673ffffffffffffffffffffffffffffffffffffffff16036116ae578091506116c1565b80806116b990615b13565b915050611633565b50600181815481106116d6576116d56157be565b5b90600052602060002090600302016040518060a0016040529081600082015481526020016001820160009054906101000a900460ff1660ff1660ff1681526020016001820160019054906101000a900460ff1660ff1660ff1681526020016001820160029054906101000a900460ff1660ff1660ff168152602001600282015481525050915050919050565b60026020528060005260406000206000915054906101000a900473ffffffffffffffffffffffffffffffffffffffff1681565b6000600f600083815260200190815260200160002060009054906101000a900473ffffffffffffffffffffffffffffffffffffffff169050919050565b600e6020528060005260406000206000915054906101000a900473ffffffffffffffffffffffffffffffffffffffff1681565b60606000601160008473ffffffffffffffffffffffffffffffffffffffff1673ffffffffffffffffffffffffffffffffffffffff1681526020019081526020016000205467ffffffffffffffff81111561186257611861615443565b5b60405190808252806020026020018201604052801561189b57816020015b6118886147db565b8152602001906001900390816118805790505b5090506000805b600c805490508110156119d8578473ffffffffffffffffffffffffffffffffffffffff16600f600083815260200190815260200160002060009054906101000a900473ffffffffffffffffffffffffffffffffffffffff1673ffffffffffffffffffffffffffffffffffffffff16036119c557600c8181548110611929576119286157be565b5b9060005260206000209060020201604051806060016040529081600082015481526020016001820160009054906101000a900463ffffffff1663ffffffff1663ffffffff1681526020016001820160049054906101000a900463ffffffff1663ffffffff1663ffffffff16815250508383815181106119ab576119aa6157be565b5b602002602001018190525081806119c190615b13565b9250505b80806119d090615b13565b9150506118a2565b508192505050919050565b6119eb613a17565b6119f56000613a95565b565b60606000601160008473ffffffffffffffffffffffffffffffffffffffff1673ffffffffffffffffffffffffffffffffffffffff1681526020019081526020016000205467ffffffffffffffff811115611a5457611a53615443565b5b604051908082528060200260200182016040528015611a8d57816020015b611a7a614808565b815260200190600190039081611a725790505b5090506000805b600b80549050811015611bbb578473ffffffffffffffffffffffffffffffffffffffff16600e600083815260200190815260200160002060009054906101000a900473ffffffffffffffffffffffffffffffffffffffff1673ffffffffffffffffffffffffffffffffffffffff1603611ba857600b8181548110611b1b57611b1a6157be565b5b9060005260206000209060020201604051806060016040529081600082015481526020016001820160009054906101000a900461ffff1661ffff1661ffff1681526020016001820160029054906101000a900460ff1660ff1660ff1681525050838381518110611b8e57611b8d6157be565b5b60200260200101819052508180611ba490615b13565b9250505b8080611bb390615b13565b915050611a94565b508192505050919050565b81600e600082815260200190815260200160002060009054906101000a900473ffffffffffffffffffffffffffffffffffffffff1673ffffffffffffffffffffffffffffffffffffffff163373ffffffffffffffffffffffffffffffffffffffff1614611c3257600080fd5b600b8381548110611c4657611c456157be565b5b906000526020600020906002020160010160029054906101000a900460ff16600a611c7191906159ae565b6002611c7d9190615c8e565b601654611c8a919061585a565b3414611c9557600080fd5b81600b8481548110611caa57611ca96157be565b5b906000526020600020906002020160010160028282829054906101000a900460ff16611cd691906159ae565b92506101000a81548160ff021916908360ff160217905550505050565b8273ffffffffffffffffffffffffffffffffffffffff16600d600083815260200190815260200160002060009054906101000a900473ffffffffffffffffffffffffffffffffffffffff1673ffffffffffffffffffffffffffffffffffffffff161480611dbe57503373ffffffffffffffffffffffffffffffffffffffff16601f600083815260200190815260200160002060009054906101000a900473ffffffffffffffffffffffffffffffffffffffff1673ffffffffffffffffffffffffffffffffffffffff16145b611dc757600080fd5b611dd2838383613b59565b505050565b816002600082815260200190815260200160002060009054906101000a900473ffffffffffffffffffffffffffffffffffffffff1673ffffffffffffffffffffffffffffffffffffffff163373ffffffffffffffffffffffffffffffffffffffff1614611e4357600080fd5b60145460018481548110611e5a57611e596157be565b5b906000526020600020906003020160010160019054906101000a900460ff1683611e8491906159e2565b60ff16611e91919061585a565b3414611e9c57600080fd5b8160018481548110611eb157611eb06157be565b5b906000526020600020906003020160010160018282829054906101000a900460ff16611edd919061594e565b92506101000a81548160ff021916908360ff160217905550505050565b6000601160008373ffffffffffffffffffffffffffffffffffffffff1673ffffffffffffffffffffffffffffffffffffffff168152602001908152602001600020549050919050565b8273ffffffffffffffffffffffffffffffffffffffff16600e600083815260200190815260200160002060009054906101000a900473ffffffffffffffffffffffffffffffffffffffff1673ffffffffffffffffffffffffffffffffffffffff16148061200e57503373ffffffffffffffffffffffffffffffffffffffff166020600083815260200190815260200160002060009054906101000a900473ffffffffffffffffffffffffffffffffffffffff1673ffffffffffffffffffffffffffffffffffffffff16145b61201757600080fd5b612022838383613dac565b505050565b60008060009054906101000a900473ffffffffffffffffffffffffffffffffffffffff16905090565b816002600082815260200190815260200160002060009054906101000a900473ffffffffffffffffffffffffffffffffffffffff1673ffffffffffffffffffffffffffffffffffffffff163373ffffffffffffffffffffffffffffffffffffffff16146120bc57600080fd5b601354600184815481106120d3576120d26157be565b5b906000526020600020906003020160010160009054906101000a900460ff16836120fd91906159e2565b60ff1661210a919061585a565b341461211557600080fd5b816001848154811061212a576121296157be565b5b906000526020600020906003020160010160008282829054906101000a900460ff16612156919061594e565b92506101000a81548160ff021916908360ff160217905550505050565b6001818154811061218357600080fd5b90600052602060002090600302016000915090508060000154908060010160009054906101000a900460ff16908060010160019054906101000a900460ff16908060010160029054906101000a900460ff16908060020154905085565b60106020528060005260406000206000915090505481565b80600d600082815260200190815260200160002060009054906101000a900473ffffffffffffffffffffffffffffffffffffffff1673ffffffffffffffffffffffffffffffffffffffff163373ffffffffffffffffffffffffffffffffffffffff161461226457600080fd5b82601f600084815260200190815260200160002060006101000a81548173ffffffffffffffffffffffffffffffffffffffff021916908373ffffffffffffffffffffffffffffffffffffffff160217905550505050565b600b81815481106122cb57600080fd5b90600052602060002090600202016000915090508060000154908060010160009054906101000a900461ffff16908060010160029054906101000a900460ff16905083565b80600e600082815260200190815260200160002060009054906101000a900473ffffffffffffffffffffffffffffffffffffffff1673ffffffffffffffffffffffffffffffffffffffff163373ffffffffffffffffffffffffffffffffffffffff161461237c57600080fd5b82600d600082815260200190815260200160002060009054906101000a900473ffffffffffffffffffffffffffffffffffffffff1673ffffffffffffffffffffffffffffffffffffffff163373ffffffffffffffffffffffffffffffffffffffff16146123e857600080fd5b82600a85815481106123fd576123fc6157be565b5b9060005260206000209060090201600201540361244f576040517f08c379a000000000000000000000000000000000000000000000000000000000815260040161244690615d25565b60405180910390fd5b82600a8581548110612464576124636157be565b5b90600052602060002090600902016002018190555050505050565b60606000601060008473ffffffffffffffffffffffffffffffffffffffff1673ffffffffffffffffffffffffffffffffffffffff1681526020019081526020016000205467ffffffffffffffff8111156124dc576124db615443565b5b60405190808252806020026020018201604052801561251557816020015b612502614830565b8152602001906001900390816124fa5790505b5090506000805b600c805490508110156126f2578473ffffffffffffffffffffffffffffffffffffffff16600d600083815260200190815260200160002060009054906101000a900473ffffffffffffffffffffffffffffffffffffffff1673ffffffffffffffffffffffffffffffffffffffff16036126df57600a81815481106125a3576125a26157be565b5b9060005260206000209060090201604051806101200160405290816000820180546125cd90615d74565b80601f01602080910402602001604051908101604052809291908181526020018280546125f990615d74565b80156126465780601f1061261b57610100808354040283529160200191612646565b820191906000526020600020905b81548152906001019060200180831161262957829003601f168201915b505050505081526020016001820154815260200160028201548152602001600382015481526020016004820160009054906101000a900460ff1660ff1660ff1681526020016005820154815260200160068201548152602001600782015481526020016008820154815250508383815181106126c5576126c46157be565b5b602002602001018190525081806126db90615b13565b9250505b80806126ea90615b13565b91505061251c565b508192505050919050565b81601a60003373ffffffffffffffffffffffffffffffffffffffff1673ffffffffffffffffffffffffffffffffffffffff168152602001908152602001600020541461277e576040517f08c379a000000000000000000000000000000000000000000000000000000000815260040161277590615df1565b60405180910390fd5b6000601e6000848152602001908152602001600020600201549050600073__PDDLib________________________________639c63eb2e83856040518363ffffffff1660e01b81526004016127d4929190615ede565b602060405180830381865af41580156127f1573d6000803e3d6000fd5b505050506040513d601f19601f820116820180604052508101906128159190615f3a565b9050600060405180608001604052803373ffffffffffffffffffffffffffffffffffffffff1681526020018315158152602001428152602001601b60003373ffffffffffffffffffffffffffffffffffffffff1673ffffffffffffffffffffffffffffffffffffffff1681526020019081526020016000205481525090506000601e600087815260200190815260200160002090508060040182908060018154018082558091505060019003906000526020600020906003020160009091909190915060008201518160000160006101000a81548173ffffffffffffffffffffffffffffffffffffffff021916908373ffffffffffffffffffffffffffffffffffffffff16021790555060208201518160000160146101000a81548160ff02191690831515021790555060408201518160010155606082015181600201555050601e600087815260200190815260200160002060000154601e60008881526020019081526020016000206004018054905003612a78577f67acaceb58ff1ad2aa8b3069f69c4cd076824e06a09184b75fb197ead7040be7866040516129ba9190614c7e565b60405180910390a16001601e600088815260200190815260200160002060060160006101000a81548160ff021916908315150217905550601a60003373ffffffffffffffffffffffffffffffffffffffff1673ffffffffffffffffffffffffffffffffffffffff16815260200190815260200160002060009055601b60003373ffffffffffffffffffffffffffffffffffffffff1673ffffffffffffffffffffffffffffffffffffffff168152602001908152602001600020600090555b505050505050565b80600f600082815260200190815260200160002060009054906101000a900473ffffffffffffffffffffffffffffffffffffffff1673ffffffffffffffffffffffffffffffffffffffff163373ffffffffffffffffffffffffffffffffffffffff1614612aec57600080fd5b82600d600082815260200190815260200160002060009054906101000a900473ffffffffffffffffffffffffffffffffffffffff1673ffffffffffffffffffffffffffffffffffffffff163373ffffffffffffffffffffffffffffffffffffffff1614612b5857600080fd5b82600a8581548110612b6d57612b6c6157be565b5b90600052602060002090600902016003015403612bbf576040517f08c379a0000000000000000000000000000000000000000000000000000000008152600401612bb690615fb3565b60405180910390fd5b82600a8581548110612bd457612bd36157be565b5b90600052602060002090600902016003018190555050505050565b6000601060003373ffffffffffffffffffffffffffffffffffffffff1673ffffffffffffffffffffffffffffffffffffffff1681526020019081526020016000205414612c3b57600080fd5b600081612c4742613f26565b604051602001612c5892919061600f565b6040516020818303038152906040529050600081604051602001612c7c9190616033565b6040516020818303038152906040528051906020012060001c90506000612ca1613ff4565b90506000612cad614197565b90506000600a805490509050600a604051806101200160405280888152602001868152602001858152602001848152602001600160ff1681526020016000815260200160008152602001600081526020018381525090806001815401808255809150506001900390600052602060002090600902016000909190919091506000820151816000019080519060200190612d4792919061487f565b5060208201518160010155604082015181600201556060820151816003015560808201518160040160006101000a81548160ff021916908360ff16021790555060a0820151816005015560c0820151816006015560e082015181600701556101008201518160080155505033600d600083815260200190815260200160002060006101000a81548173ffffffffffffffffffffffffffffffffffffffff021916908373ffffffffffffffffffffffffffffffffffffffff160217905550601060003373ffffffffffffffffffffffffffffffffffffffff1673ffffffffffffffffffffffffffffffffffffffff1681526020019081526020016000206000815480929190612e5490615b13565b9190505550505050505050565b612e69613a17565b600073ffffffffffffffffffffffffffffffffffffffff168173ffffffffffffffffffffffffffffffffffffffff1603612ed8576040517f08c379a0000000000000000000000000000000000000000000000000000000008152600401612ecf906160bc565b60405180910390fd5b612ee181613a95565b50565b8273ffffffffffffffffffffffffffffffffffffffff16600f600083815260200190815260200160002060009054906101000a900473ffffffffffffffffffffffffffffffffffffffff1673ffffffffffffffffffffffffffffffffffffffff161480612faf57503373ffffffffffffffffffffffffffffffffffffffff166021600083815260200190815260200160002060009054906101000a900473ffffffffffffffffffffffffffffffffffffffff1673ffffffffffffffffffffffffffffffffffffffff16145b612fb857600080fd5b612fc383838361433a565b505050565b600a8181548110612fd857600080fd5b9060005260206000209060090201600091509050806000018054612ffb90615d74565b80601f016020809104026020016040519081016040528092919081815260200182805461302790615d74565b80156130745780601f1061304957610100808354040283529160200191613074565b820191906000526020600020905b81548152906001019060200180831161305757829003601f168201915b5050505050908060010154908060020154908060030154908060040160009054906101000a900460ff16908060050154908060060154908060070154908060080154905089565b81600e600082815260200190815260200160002060009054906101000a900473ffffffffffffffffffffffffffffffffffffffff1673ffffffffffffffffffffffffffffffffffffffff163373ffffffffffffffffffffffffffffffffffffffff161461312757600080fd5b601554600b848154811061313e5761313d6157be565b5b906000526020600020906002020160010160009054906101000a900461ffff168360ff1661316c91906160dc565b61ffff1661317a919061585a565b341461318557600080fd5b8160ff16600b848154811061319d5761319c6157be565b5b906000526020600020906002020160010160008282829054906101000a900461ffff166131ca9190616118565b92506101000a81548161ffff021916908361ffff160217905550505050565b80600d600082815260200190815260200160002060009054906101000a900473ffffffffffffffffffffffffffffffffffffffff1673ffffffffffffffffffffffffffffffffffffffff163373ffffffffffffffffffffffffffffffffffffffff161461325557600080fd5b6000805b601d8054905081101561369557601d818154811061327a576132796157be565b5b9060005260206000209060060201600201546001600a8087815481106132a3576132a26157be565b5b906000526020600020906009020160040160009054906101000a900460ff166132cc919061591d565b6132d6919061594e565b60ff16036136825760019150601d81815481106132f6576132f56157be565b5b906000526020600020906006020160000154601a60003373ffffffffffffffffffffffffffffffffffffffff1673ffffffffffffffffffffffffffffffffffffffff1681526020019081526020016000208190555083601b60003373ffffffffffffffffffffffffffffffffffffffff1673ffffffffffffffffffffffffffffffffffffffff16815260200190815260200160002081905550601d81815481106133a3576133a26157be565b5b906000526020600020906006020160010160008154809291906133c590615b13565b9190505550601d81815481106133de576133dd6157be565b5b906000526020600020906006020160030160000154601d8281548110613407576134066157be565b5b9060005260206000209060060201600101540361368157600073__PDDLib________________________________63c037e545601d848154811061344e5761344d6157be565b5b906000526020600020906006020160030160020154601d8581548110613477576134766157be565b5b9060005260206000209060060201600301600001546040518363ffffffff1660e01b81526004016134a9929190616150565b602060405180830381865af41580156134c6573d6000803e3d6000fd5b505050506040513d601f19601f820116820180604052508101906134ea919061618e565b90506000601e6000601d8581548110613506576135056157be565b5b90600052602060002090600602016000015481526020019081526020016000209050601d838154811061353c5761353b6157be565b5b9060005260206000209060060201600301600001548160000181905550601d838154811061356d5761356c6157be565b5b90600052602060002090600602016002015481600101819055508181600201819055504281600301819055506000816005018190555060008160060160006101000a81548160ff0219169083151502179055507f2838ebeee7dc83fac85a3d6dbca0c0b6771591ada8b00f97371aa6611e631f9c601d84815481106135f5576135f46157be565b5b906000526020600020906006020160000154836040516136169291906161bb565b60405180910390a1601d8381548110613632576136316157be565b5b9060005260206000209060060201600080820160009055600182016000905560028201600090556003820160008082016000905560018201600090556002820160009055505050505050613695565b5b808061368d90615b13565b915050613259565b5080156136a25750613846565b6000601c60008154809291906136b790615b13565b9190505590506000601980549050426136d091906161e4565b905081601a60003373ffffffffffffffffffffffffffffffffffffffff1673ffffffffffffffffffffffffffffffffffffffff16815260200190815260200160002081905550601d6040518060800160405280848152602001600181526020016001600a808a81548110613747576137466157be565b5b906000526020600020906009020160040160009054906101000a900460ff16613770919061591d565b61377a919061594e565b60ff16815260200160198481548110613796576137956157be565b5b906000526020600020906003020160405180606001604052908160008201548152602001600182015481526020016002820154815250508152509080600181540180825580915050600190039060005260206000209060060201600090919091909150600082015181600001556020820151816001015560408201518160020155606082015181600301600082015181600001556020820151816001015560408201518160020155505050505050505b5050565b600080613889600d600086815260200190815260200160002060009054906101000a900473ffffffffffffffffffffffffffffffffffffffff16611623565b905061389881600001516144b4565b6000600a85815481106138ae576138ad6157be565b5b9060005260206000209060090201600201549050600060019050600a85600b84815481106138df576138de6157be565b5b906000526020600020906002020160010160029054906101000a900460ff1661390891906159e2565b60ff161061395d57600a600b8381548110613926576139256157be565b5b906000526020600020906002020160010160029054906101000a900460ff168661395091906159e2565b61395a919061591d565b90505b8060ff166001846000015181548110613979576139786157be565b5b906000526020600020906003020160010160029054906101000a900460ff1660ff1610613a09578060018460000151815481106139b9576139b86157be565b5b906000526020600020906003020160010160028282829054906101000a900460ff166139e591906159ae565b92506101000a81548160ff021916908360ff16021790555060019350505050613a11565b600093505050505b92915050565b613a1f61462f565b73ffffffffffffffffffffffffffffffffffffffff16613a3d612027565b73ffffffffffffffffffffffffffffffffffffffff1614613a93576040517f08c379a0000000000000000000000000000000000000000000000000000000008152600401613a8a90616261565b60405180910390fd5b565b60008060009054906101000a900473ffffffffffffffffffffffffffffffffffffffff169050816000806101000a81548173ffffffffffffffffffffffffffffffffffffffff021916908373ffffffffffffffffffffffffffffffffffffffff1602179055508173ffffffffffffffffffffffffffffffffffffffff168173ffffffffffffffffffffffffffffffffffffffff167f8be0079c531659141344cd1fd0a4f28419497f9722a3daafe3b4186f6b6457e060405160405180910390a35050565b6000600a8281548110613b6f57613b6e6157be565b5b90600052602060002090600902016002015414613bc1576040517f08c379a0000000000000000000000000000000000000000000000000000000008152600401613bb8906162cd565b60405180910390fd5b6000600a8281548110613bd757613bd66157be565b5b90600052602060002090600902016003015414613c29576040517f08c379a0000000000000000000000000000000000000000000000000000000008152600401613c2090616339565b60405180910390fd5b6000601060008573ffffffffffffffffffffffffffffffffffffffff1673ffffffffffffffffffffffffffffffffffffffff1681526020019081526020016000205411613cab576040517f08c379a0000000000000000000000000000000000000000000000000000000008152600401613ca2906163a5565b60405180910390fd5b601060008373ffffffffffffffffffffffffffffffffffffffff1673ffffffffffffffffffffffffffffffffffffffff1681526020019081526020016000206000815480929190613cfb90615b13565b9190505550601060008473ffffffffffffffffffffffffffffffffffffffff1673ffffffffffffffffffffffffffffffffffffffff1681526020019081526020016000206000815480929190613d50906163c5565b919050555081600d600083815260200190815260200160002060006101000a81548173ffffffffffffffffffffffffffffffffffffffff021916908373ffffffffffffffffffffffffffffffffffffffff160217905550505050565b601160008373ffffffffffffffffffffffffffffffffffffffff1673ffffffffffffffffffffffffffffffffffffffff1681526020019081526020016000206000815480929190613dfc90615b13565b9190505550601160008473ffffffffffffffffffffffffffffffffffffffff1673ffffffffffffffffffffffffffffffffffffffff1681526020019081526020016000206000815480929190613e51906163c5565b91905055506000613e618461247f565b905060005b8151811015613ecd5782828281518110613e8357613e826157be565b5b60200260200101516040015103613eba576000828281518110613ea957613ea86157be565b5b602002602001015160400181815250505b8080613ec590615b13565b915050613e66565b5082600e600084815260200190815260200160002060006101000a81548173ffffffffffffffffffffffffffffffffffffffff021916908373ffffffffffffffffffffffffffffffffffffffff16021790555050505050565b606060006001613f3584614637565b01905060008167ffffffffffffffff811115613f5457613f53615443565b5b6040519080825280601f01601f191660200182016040528015613f865781602001600182028036833780820191505090505b509050600082602001820190505b600115613fe9578080600190039150507f3031323334353637383961626364656600000000000000000000000000000000600a86061a8153600a8581613fdd57613fdc6158ee565b5b04945060008503613f94575b819350505050919050565b60008060035460045461400791906163ee565b4261401291906161e4565b60035461401f9190615a51565b905060006008600081548092919061403690615b13565b919050559050600b60405180606001604052808381526020018461ffff168152602001600560009054906101000a900460ff1660ff1681525090806001815401808255809150506001900390600052602060002090600202016000909190919091506000820151816000015560208201518160010160006101000a81548161ffff021916908361ffff16021790555060408201518160010160026101000a81548160ff021916908360ff1602179055505050601160003373ffffffffffffffffffffffffffffffffffffffff1673ffffffffffffffffffffffffffffffffffffffff168152602001908152602001600020600081548092919061413890615b13565b919050555033600e600083815260200190815260200160002060006101000a81548173ffffffffffffffffffffffffffffffffffffffff021916908373ffffffffffffffffffffffffffffffffffffffff160217905550809250505090565b6000806006546007546141aa91906163ee565b426141b591906161e4565b6006546141c29190615a51565b90506000600960008154809291906141d990615b13565b919050559050600c60405180606001604052808381526020018463ffffffff1681526020018463ffffffff1681525090806001815401808255809150506001900390600052602060002090600202016000909190919091506000820151816000015560208201518160010160006101000a81548163ffffffff021916908363ffffffff16021790555060408201518160010160046101000a81548163ffffffff021916908363ffffffff1602179055505050601260003373ffffffffffffffffffffffffffffffffffffffff1673ffffffffffffffffffffffffffffffffffffffff16815260200190815260200160002060008154809291906142db90615b13565b919050555033600f600083815260200190815260200160002060006101000a81548173ffffffffffffffffffffffffffffffffffffffff021916908373ffffffffffffffffffffffffffffffffffffffff160217905550809250505090565b601260008373ffffffffffffffffffffffffffffffffffffffff1673ffffffffffffffffffffffffffffffffffffffff168152602001908152602001600020600081548092919061438a90615b13565b9190505550601260008473ffffffffffffffffffffffffffffffffffffffff1673ffffffffffffffffffffffffffffffffffffffff16815260200190815260200160002060008154809291906143df906163c5565b919050555060006143ef8461247f565b905060005b815181101561445b5782828281518110614411576144106157be565b5b60200260200101516060015103614448576000828281518110614437576144366157be565b5b602002602001015160600181815250505b808061445390615b13565b9150506143f4565b5082600f600084815260200190815260200160002060006101000a81548173ffffffffffffffffffffffffffffffffffffffff021916908373ffffffffffffffffffffffffffffffffffffffff16021790555050505050565b60004290506000610e10600184815481106144d2576144d16157be565b5b906000526020600020906003020160020154836144ef91906163ee565b6144f99190616422565b9050600060018481548110614511576145106157be565b5b906000526020600020906003020160010160019054906101000a900460ff1660ff168261453e919061585a565b60018581548110614552576145516157be565b5b906000526020600020906003020160010160029054906101000a900460ff1660ff1661457e9190615a51565b90506145c260018581548110614597576145966157be565b5b906000526020600020906003020160010160009054906101000a900460ff1660ff168260ff1661478a565b600185815481106145d6576145d56157be565b5b906000526020600020906003020160010160026101000a81548160ff021916908360ff1602179055508260018581548110614614576146136157be565b5b90600052602060002090600302016002018190555050505050565b600033905090565b600080600090507a184f03e93ff9f4daa797ed6e38ed64bf6a1f0100000000000000008310614695577a184f03e93ff9f4daa797ed6e38ed64bf6a1f010000000000000000838161468b5761468a6158ee565b5b0492506040810190505b6d04ee2d6d415b85acef810000000083106146d2576d04ee2d6d415b85acef810000000083816146c8576146c76158ee565b5b0492506020810190505b662386f26fc10000831061470157662386f26fc1000083816146f7576146f66158ee565b5b0492506010810190505b6305f5e100831061472a576305f5e10083816147205761471f6158ee565b5b0492506008810190505b612710831061474f576127108381614745576147446158ee565b5b0492506004810190505b606483106147725760648381614768576147676158ee565b5b0492506002810190505b600a8310614781576001810190505b80915050919050565b6000818310614799578161479b565b825b905092915050565b6040518060a0016040528060008152602001600060ff168152602001600060ff168152602001600060ff168152602001600081525090565b604051806060016040528060008152602001600063ffffffff168152602001600063ffffffff1681525090565b604051806060016040528060008152602001600061ffff168152602001600060ff1681525090565b60405180610120016040528060608152602001600081526020016000815260200160008152602001600060ff168152602001600081526020016000815260200160008152602001600081525090565b82805461488b90615d74565b90600052602060002090601f0160209004810192826148ad57600085556148f4565b82601f106148c657805160ff19168380011785556148f4565b828001600101855582156148f4579182015b828111156148f35782518255916020019190600101906148d8565b5b5090506149019190614905565b5090565b5b8082111561491e576000816000905550600101614906565b5090565b6000604051905090565b600080fd5b600080fd5b6000819050919050565b61494981614936565b811461495457600080fd5b50565b60008135905061496681614940565b92915050565b6000602082840312156149825761498161492c565b5b600061499084828501614957565b91505092915050565b600073ffffffffffffffffffffffffffffffffffffffff82169050919050565b60006149c482614999565b9050919050565b6149d4816149b9565b82525050565b60006020820190506149ef60008301846149cb565b92915050565b600060ff82169050919050565b614a0b816149f5565b8114614a1657600080fd5b50565b600081359050614a2881614a02565b92915050565b60008060408385031215614a4557614a4461492c565b5b6000614a5385828601614957565b9250506020614a6485828601614a19565b9150509250929050565b614a7781614936565b82525050565b60008115159050919050565b614a9281614a7d565b82525050565b600060c082019050614aad6000830189614a6e565b614aba6020830188614a6e565b614ac76040830187614a6e565b614ad46060830186614a6e565b614ae16080830185614a6e565b614aee60a0830184614a89565b979650505050505050565b614b0281614936565b82525050565b606082016000820151614b1e6000850182614af9565b506020820151614b316020850182614af9565b506040820151614b446040850182614af9565b50505050565b600060c082019050614b5f6000830187614a6e565b614b6c6020830186614a6e565b614b796040830185614a6e565b614b866060830184614b08565b95945050505050565b614b98816149b9565b8114614ba357600080fd5b50565b600081359050614bb581614b8f565b92915050565b60008060408385031215614bd257614bd161492c565b5b6000614be085828601614ba6565b9250506020614bf185828601614957565b9150509250929050565b600063ffffffff82169050919050565b614c1481614bfb565b82525050565b6000606082019050614c2f6000830186614a6e565b614c3c6020830185614c0b565b614c496040830184614c0b565b949350505050565b600060208284031215614c6757614c6661492c565b5b6000614c7584828501614ba6565b91505092915050565b6000602082019050614c936000830184614a6e565b92915050565b600081519050919050565b600082825260208201905092915050565b6000819050602082019050919050565b614cce816149b9565b82525050565b614cdd81614a7d565b82525050565b608082016000820151614cf96000850182614cc5565b506020820151614d0c6020850182614cd4565b506040820151614d1f6040850182614af9565b506060820151614d326060850182614af9565b50505050565b6000614d448383614ce3565b60808301905092915050565b6000602082019050919050565b6000614d6882614c99565b614d728185614ca4565b9350614d7d83614cb5565b8060005b83811015614dae578151614d958882614d38565b9750614da083614d50565b925050600181019050614d81565b5085935050505092915050565b60006020820190508181036000830152614dd58184614d5d565b905092915050565b614de6816149f5565b82525050565b60a082016000820151614e026000850182614af9565b506020820151614e156020850182614ddd565b506040820151614e286040850182614ddd565b506060820151614e3b6060850182614ddd565b506080820151614e4e6080850182614af9565b50505050565b600060a082019050614e696000830184614dec565b92915050565b600081519050919050565b600082825260208201905092915050565b6000819050602082019050919050565b614ea481614bfb565b82525050565b606082016000820151614ec06000850182614af9565b506020820151614ed36020850182614e9b565b506040820151614ee66040850182614e9b565b50505050565b6000614ef88383614eaa565b60608301905092915050565b6000602082019050919050565b6000614f1c82614e6f565b614f268185614e7a565b9350614f3183614e8b565b8060005b83811015614f62578151614f498882614eec565b9750614f5483614f04565b925050600181019050614f35565b5085935050505092915050565b60006020820190508181036000830152614f898184614f11565b905092915050565b600081519050919050565b600082825260208201905092915050565b6000819050602082019050919050565b600061ffff82169050919050565b614fd481614fbd565b82525050565b606082016000820151614ff06000850182614af9565b5060208201516150036020850182614fcb565b5060408201516150166040850182614ddd565b50505050565b60006150288383614fda565b60608301905092915050565b6000602082019050919050565b600061504c82614f91565b6150568185614f9c565b935061506183614fad565b8060005b83811015615092578151615079888261501c565b975061508483615034565b925050600181019050615065565b5085935050505092915050565b600060208201905081810360008301526150b98184615041565b905092915050565b6000806000606084860312156150da576150d961492c565b5b60006150e886828701614ba6565b93505060206150f986828701614ba6565b925050604061510a86828701614957565b9150509250925092565b61511d816149f5565b82525050565b600060a0820190506151386000830188614a6e565b6151456020830187615114565b6151526040830186615114565b61515f6060830185615114565b61516c6080830184614a6e565b9695505050505050565b61517f81614fbd565b82525050565b600060608201905061519a6000830186614a6e565b6151a76020830185615176565b6151b46040830184615114565b949350505050565b600080604083850312156151d3576151d261492c565b5b60006151e185828601614957565b92505060206151f285828601614957565b9150509250929050565b600081519050919050565b600082825260208201905092915050565b6000819050602082019050919050565b600081519050919050565b600082825260208201905092915050565b60005b83811015615262578082015181840152602081019050615247565b83811115615271576000848401525b50505050565b6000601f19601f8301169050919050565b600061529382615228565b61529d8185615233565b93506152ad818560208601615244565b6152b681615277565b840191505092915050565b60006101208301600083015184820360008601526152df8282615288565b91505060208301516152f46020860182614af9565b5060408301516153076040860182614af9565b50606083015161531a6060860182614af9565b50608083015161532d6080860182614ddd565b5060a083015161534060a0860182614af9565b5060c083015161535360c0860182614af9565b5060e083015161536660e0860182614af9565b5061010083015161537b610100860182614af9565b508091505092915050565b600061539283836152c1565b905092915050565b6000602082019050919050565b60006153b2826151fc565b6153bc8185615207565b9350836020820285016153ce85615218565b8060005b8581101561540a57848403895281516153eb8582615386565b94506153f68361539a565b925060208a019950506001810190506153d2565b50829750879550505050505092915050565b6000602082019050818103600083015261543681846153a7565b905092915050565b600080fd5b7f4e487b7100000000000000000000000000000000000000000000000000000000600052604160045260246000fd5b61547b82615277565b810181811067ffffffffffffffff8211171561549a57615499615443565b5b80604052505050565b60006154ad614922565b90506154b98282615472565b919050565b600067ffffffffffffffff8211156154d9576154d8615443565b5b602082029050602081019050919050565b600080fd5b60006155026154fd846154be565b6154a3565b90508083825260208201905060208402830185811115615525576155246154ea565b5b835b8181101561554e578061553a8882614957565b845260208401935050602081019050615527565b5050509392505050565b600082601f83011261556d5761556c61543e565b5b813561557d8482602086016154ef565b91505092915050565b6000806040838503121561559d5761559c61492c565b5b60006155ab85828601614957565b925050602083013567ffffffffffffffff8111156155cc576155cb614931565b5b6155d885828601615558565b9150509250929050565b600080fd5b600067ffffffffffffffff82111561560257615601615443565b5b61560b82615277565b9050602081019050919050565b82818337600083830152505050565b600061563a615635846155e7565b6154a3565b905082815260208101848484011115615656576156556155e2565b5b615661848285615618565b509392505050565b600082601f83011261567e5761567d61543e565b5b813561568e848260208601615627565b91505092915050565b6000602082840312156156ad576156ac61492c565b5b600082013567ffffffffffffffff8111156156cb576156ca614931565b5b6156d784828501615669565b91505092915050565b600082825260208201905092915050565b60006156fc82615228565b61570681856156e0565b9350615716818560208601615244565b61571f81615277565b840191505092915050565b6000610120820190508181036000830152615745818c6156f1565b9050615754602083018b614a6e565b615761604083018a614a6e565b61576e6060830189614a6e565b61577b6080830188615114565b61578860a0830187614a6e565b61579560c0830186614a6e565b6157a260e0830185614a6e565b6157b0610100830184614a6e565b9a9950505050505050505050565b7f4e487b7100000000000000000000000000000000000000000000000000000000600052603260045260246000fd5b7f4e487b7100000000000000000000000000000000000000000000000000000000600052601160045260246000fd5b600061582782614bfb565b915061583283614bfb565b92508163ffffffff048311821515161561584f5761584e6157ed565b5b828202905092915050565b600061586582614936565b915061587083614936565b9250817fffffffffffffffffffffffffffffffffffffffffffffffffffffffffffffffff04831182151516156158a9576158a86157ed565b5b828202905092915050565b60006158bf82614bfb565b91506158ca83614bfb565b92508263ffffffff038211156158e3576158e26157ed565b5b828201905092915050565b7f4e487b7100000000000000000000000000000000000000000000000000000000600052601260045260246000fd5b6000615928826149f5565b9150615933836149f5565b925082615943576159426158ee565b5b828204905092915050565b6000615959826149f5565b9150615964836149f5565b92508260ff0382111561597a576159796157ed565b5b828201905092915050565b6000615990826149f5565b915060ff82036159a3576159a26157ed565b5b600182019050919050565b60006159b9826149f5565b91506159c4836149f5565b9250828210156159d7576159d66157ed565b5b828203905092915050565b60006159ed826149f5565b91506159f8836149f5565b92508160ff0483118215151615615a1257615a116157ed565b5b828202905092915050565b6000615a2882614bfb565b9150615a3383614bfb565b925082821015615a4657615a456157ed565b5b828203905092915050565b6000615a5c82614936565b9150615a6783614936565b9250827fffffffffffffffffffffffffffffffffffffffffffffffffffffffffffffffff03821115615a9c57615a9b6157ed565b5b828201905092915050565b7f726f6f6d206e6f7420636c6f7365640000000000000000000000000000000000600082015250565b6000615add600f836156e0565b9150615ae882615aa7565b602082019050919050565b60006020820190508181036000830152615b0c81615ad0565b9050919050565b6000615b1e82614936565b91507fffffffffffffffffffffffffffffffffffffffffffffffffffffffffffffffff8203615b5057615b4f6157ed565b5b600182019050919050565b60008160011c9050919050565b6000808291508390505b6001851115615bb257808604811115615b8e57615b8d6157ed565b5b6001851615615b9d5780820291505b8081029050615bab85615b5b565b9450615b72565b94509492505050565b600082615bcb5760019050615c87565b81615bd95760009050615c87565b8160018114615bef5760028114615bf957615c28565b6001915050615c87565b60ff841115615c0b57615c0a6157ed565b5b8360020a915084821115615c2257615c216157ed565b5b50615c87565b5060208310610133831016604e8410600b8410161715615c5d5782820a905083811115615c5857615c576157ed565b5b615c87565b615c6a8484846001615b68565b92509050818404811115615c8157615c806157ed565b5b81810290505b9392505050565b6000615c9982614936565b9150615ca4836149f5565b9250615cd17fffffffffffffffffffffffffffffffffffffffffffffffffffffffffffffffff8484615bbb565b905092915050565b7f73616d6520656e67696e65000000000000000000000000000000000000000000600082015250565b6000615d0f600b836156e0565b9150615d1a82615cd9565b602082019050919050565b60006020820190508181036000830152615d3e81615d02565b9050919050565b7f4e487b7100000000000000000000000000000000000000000000000000000000600052602260045260246000fd5b60006002820490506001821680615d8c57607f821691505b602082108103615d9f57615d9e615d45565b5b50919050565b7f6e6f7420796f757220726f6f6d00000000000000000000000000000000000000600082015250565b6000615ddb600d836156e0565b9150615de682615da5565b602082019050919050565b60006020820190508181036000830152615e0a81615dce565b9050919050565b615e1a81614936565b82525050565b600081519050919050565b600082825260208201905092915050565b6000819050602082019050919050565b615e5581614936565b82525050565b6000615e678383615e4c565b60208301905092915050565b6000602082019050919050565b6000615e8b82615e20565b615e958185615e2b565b9350615ea083615e3c565b8060005b83811015615ed1578151615eb88882615e5b565b9750615ec383615e73565b925050600181019050615ea4565b5085935050505092915050565b6000604082019050615ef36000830185615e11565b8181036020830152615f058184615e80565b90509392505050565b615f1781614a7d565b8114615f2257600080fd5b50565b600081519050615f3481615f0e565b92915050565b600060208284031215615f5057615f4f61492c565b5b6000615f5e84828501615f25565b91505092915050565b7f73616d6520636861737369730000000000000000000000000000000000000000600082015250565b6000615f9d600c836156e0565b9150615fa882615f67565b602082019050919050565b60006020820190508181036000830152615fcc81615f90565b9050919050565b600081905092915050565b6000615fe982615228565b615ff38185615fd3565b9350616003818560208601615244565b80840191505092915050565b600061601b8285615fde565b91506160278284615fde565b91508190509392505050565b600061603f8284615fde565b915081905092915050565b7f4f776e61626c653a206e6577206f776e657220697320746865207a65726f206160008201527f6464726573730000000000000000000000000000000000000000000000000000602082015250565b60006160a66026836156e0565b91506160b18261604a565b604082019050919050565b600060208201905081810360008301526160d581616099565b9050919050565b60006160e782614fbd565b91506160f283614fbd565b92508161ffff048311821515161561610d5761610c6157ed565b5b828202905092915050565b600061612382614fbd565b915061612e83614fbd565b92508261ffff03821115616145576161446157ed565b5b828201905092915050565b60006040820190506161656000830185615e11565b6161726020830184615e11565b9392505050565b60008151905061618881614940565b92915050565b6000602082840312156161a4576161a361492c565b5b60006161b284828501616179565b91505092915050565b60006040820190506161d06000830185614a6e565b6161dd6020830184614a6e565b9392505050565b60006161ef82614936565b91506161fa83614936565b92508261620a576162096158ee565b5b828206905092915050565b7f4f776e61626c653a2063616c6c6572206973206e6f7420746865206f776e6572600082015250565b600061624b6020836156e0565b915061625682616215565b602082019050919050565b6000602082019050818103600083015261627a8161623e565b9050919050565b7f656e67696e65206d75737420626520656d707479000000000000000000000000600082015250565b60006162b76014836156e0565b91506162c282616281565b602082019050919050565b600060208201905081810360008301526162e6816162aa565b9050919050565b7f63686173736973206d75737420626520656d7074790000000000000000000000600082015250565b60006163236015836156e0565b915061632e826162ed565b602082019050919050565b6000602082019050818103600083015261635281616316565b9050919050565b7f697420697320796f7572206c6173742063617200000000000000000000000000600082015250565b600061638f6013836156e0565b915061639a82616359565b602082019050919050565b600060208201905081810360008301526163be81616382565b9050919050565b60006163d082614936565b9150600082036163e3576163e26157ed565b5b600182039050919050565b60006163f982614936565b915061640483614936565b925082821015616417576164166157ed565b5b828203905092915050565b600061642d82614936565b915061643883614936565b925082616448576164476158ee565b5b82820490509291505056fea264697066735822122074ffe43b3161626742075de3857a7590a4322082a7756d06569562d1b030a81d64736f6c634300080d0033",
  "immutableReferences": {},
  "source": "// SPDX-License-Identifier: MIT\npragma solidity ^0.8.13;\n\nimport \"./CarRacing.sol\";\n\ncontract TokenOwnership is CarRacing{\n\n    mapping (uint => address) carApprovals;\n    mapping (uint => address) engineApprovals;\n    mapping (uint => address) chassisApprovals;\n\n    constructor(){}\n\n    function balanceOfCars(address _owner) external view returns (uint256) {\n        return ownerCarCount[_owner];\n    }\n    function ownerOfCar(uint256 _tokenId) external view returns(address) {\n        return carToOwner[_tokenId];\n    }\n    function _transferCar(address _from, address _to, uint256 _tokenId) private {\n        require(cars[_tokenId].engineId == 0, \"engine must be empty\");\n        require(cars[_tokenId].chassisId == 0, \"chassis must be empty\");\n        require(ownerCarCount[_from]>0, \"it is your last car\");\n        ownerCarCount[_to]++;// = ownerCarCount[_to].add(1);\n        ownerCarCount[_from]--;// = ownerCarCount[_from].sub(1);\n        carToOwner[_tokenId] = _to;\n    }\n    function transferCarFrom(address _from, address _to, uint256 _tokenId) external payable {\n        require (carToOwner[_tokenId] == _from || carApprovals[_tokenId] == msg.sender);\n        _transferCar(_from, _to, _tokenId);\n    }\n    function approveCar(address _approved, uint256 _tokenId) external payable onlyOwnerOfCar(_tokenId) {\n        carApprovals[_tokenId] = _approved;\n    }\n\n\n    function balanceOfEngines(address _owner) external view returns (uint256) {\n        return ownerEngineCount[_owner];\n    }\n    function ownerOfEngine(uint256 _tokenId) external view returns(address) {\n        return engineToOwner[_tokenId];\n    }\n    function _transferEngine(address _from, address _to, uint256 _tokenId) private {\n        ownerEngineCount[_to]++;// = ownerEngineCount[_to].add(1);\n        ownerEngineCount[_from]--;// = ownerEngineCount[_from].sub(1);\n        Car[] memory cars = getCarsByOwner(_from);\n        for(uint i = 0; i<cars.length; i++){\n            if(cars[i].engineId == _tokenId){\n                cars[i].engineId = 0;\n            }\n        }\n        engineToOwner[_tokenId] = _to;\n    }\n    function transferEngineFrom(address _from, address _to, uint256 _tokenId) external payable {\n        require (engineToOwner[_tokenId] == _from || engineApprovals[_tokenId] == msg.sender);\n        _transferEngine(_from, _to, _tokenId);\n    }\n    function approveEngine(address _approved, uint256 _tokenId) external payable onlyOwnerOfEngine(_tokenId) {\n        engineApprovals[_tokenId] = _approved;\n    }\n\n    \n    function balanceOfChassis(address _owner) external view returns (uint256) {\n        return ownerChassisCount[_owner];\n    }\n    function ownerOfChassis(uint256 _tokenId) external view returns(address) {\n        return chassisToOwner[_tokenId];\n    }\n    function _transferChassis(address _from, address _to, uint256 _tokenId) private {\n        ownerChassisCount[_to]++;// = ownerChassisCount[_to].add(1);\n        ownerChassisCount[_from]--;// = ownerChassisCount[_from].sub(1);\n        Car[] memory cars = getCarsByOwner(_from);\n        for(uint i = 0; i<cars.length; i++){\n            if(cars[i].chassisId == _tokenId){\n                cars[i].chassisId = 0;\n            }\n        }\n        chassisToOwner[_tokenId] = _to;\n    }\n    function transferChassisFrom(address _from, address _to, uint256 _tokenId) external payable {\n        require (chassisToOwner[_tokenId] == _from || chassisApprovals[_tokenId] == msg.sender);\n        _transferChassis(_from, _to, _tokenId);\n    }\n    function approveChassis(address _approved, uint256 _tokenId) external payable onlyOwnerOfChassis(_tokenId) {\n        chassisApprovals[_tokenId] = _approved;\n    }\n}",
  "sourcePath": "/Users/vvan/Programming/JavaScript/DriveSafely/contract/contracts/TokenOwnership.sol",
  "compiler": {
    "name": "solc",
    "version": "0.8.13+commit.abaa5c0e.Emscripten.clang"
  },
  "schemaVersion": "3.4.11",
  "updatedAt": "2023-01-08T15:51:32.260Z",
  "networkType": "ethereum",
  "devdoc": {
    "kind": "dev",
    "methods": {
      "owner()": {
        "details": "Returns the address of the current owner."
      },
      "renounceOwnership()": {
        "details": "Leaves the contract without owner. It will not be possible to call `onlyOwner` functions anymore. Can only be called by the current owner. NOTE: Renouncing ownership will leave the contract without an owner, thereby removing any functionality that is only available to the owner."
      },
      "transferOwnership(address)": {
        "details": "Transfers ownership of the contract to a new account (`newOwner`). Can only be called by the current owner."
      }
    },
    "version": 1
  },
  "userdoc": {
    "kind": "user",
    "methods": {},
    "version": 1
  }
}