{
  "contractName": "CarRacing",
  "abi": [
    {
      "anonymous": false,
      "inputs": [
        {
          "indexed": true,
          "internalType": "address",
          "name": "previousOwner",
          "type": "address"
        },
        {
          "indexed": true,
          "internalType": "address",
          "name": "newOwner",
          "type": "address"
        }
      ],
      "name": "OwnershipTransferred",
      "type": "event"
    },
    {
      "anonymous": false,
      "inputs": [
        {
          "indexed": false,
          "internalType": "uint256",
          "name": "roomId",
          "type": "uint256"
        }
      ],
      "name": "RoomClosed",
      "type": "event"
    },
    {
      "anonymous": false,
      "inputs": [
        {
          "indexed": false,
          "internalType": "uint256",
          "name": "roomId",
          "type": "uint256"
        },
        {
          "indexed": false,
          "internalType": "uint256",
          "name": "roomDNA",
          "type": "uint256"
        }
      ],
      "name": "RoomFull",
      "type": "event"
    },
    {
      "inputs": [
        {
          "internalType": "uint256",
          "name": "",
          "type": "uint256"
        }
      ],
      "name": "carToOwner",
      "outputs": [
        {
          "internalType": "address",
          "name": "",
          "type": "address"
        }
      ],
      "stateMutability": "view",
      "type": "function",
      "constant": true
    },
    {
      "inputs": [
        {
          "internalType": "uint256",
          "name": "",
          "type": "uint256"
        }
      ],
      "name": "cars",
      "outputs": [
        {
          "internalType": "string",
          "name": "model",
          "type": "string"
        },
        {
          "internalType": "uint256",
          "name": "vin",
          "type": "uint256"
        },
        {
          "internalType": "uint256",
          "name": "engineId",
          "type": "uint256"
        },
        {
          "internalType": "uint256",
          "name": "chassisId",
          "type": "uint256"
        },
        {
          "internalType": "uint8",
          "name": "carLevel",
          "type": "uint8"
        },
        {
          "internalType": "uint256",
          "name": "mileage",
          "type": "uint256"
        },
        {
          "internalType": "uint256",
          "name": "winCountOnCurrentLevel",
          "type": "uint256"
        },
        {
          "internalType": "uint256",
          "name": "lossCountOnCurrentLevel",
          "type": "uint256"
        }
      ],
      "stateMutability": "view",
      "type": "function",
      "constant": true
    },
    {
      "inputs": [
        {
          "internalType": "uint256",
          "name": "",
          "type": "uint256"
        }
      ],
      "name": "chassis",
      "outputs": [
        {
          "internalType": "uint256",
          "name": "id",
          "type": "uint256"
        },
        {
          "internalType": "uint32",
          "name": "durability",
          "type": "uint32"
        },
        {
          "internalType": "uint32",
          "name": "resource",
          "type": "uint32"
        }
      ],
      "stateMutability": "view",
      "type": "function",
      "constant": true
    },
    {
      "inputs": [
        {
          "internalType": "uint256",
          "name": "",
          "type": "uint256"
        }
      ],
      "name": "chassisToOwner",
      "outputs": [
        {
          "internalType": "address",
          "name": "",
          "type": "address"
        }
      ],
      "stateMutability": "view",
      "type": "function",
      "constant": true
    },
    {
      "inputs": [
        {
          "internalType": "uint256",
          "name": "roomId",
          "type": "uint256"
        },
        {
          "internalType": "uint256[]",
          "name": "answer",
          "type": "uint256[]"
        }
      ],
      "name": "commitAnswer",
      "outputs": [],
      "stateMutability": "nonpayable",
      "type": "function"
    },
    {
      "inputs": [],
      "name": "createCar",
      "outputs": [],
      "stateMutability": "nonpayable",
      "type": "function"
    },
    {
      "inputs": [],
      "name": "createFuelStation",
      "outputs": [],
      "stateMutability": "nonpayable",
      "type": "function"
    },
    {
      "inputs": [
        {
          "internalType": "uint256",
          "name": "",
          "type": "uint256"
        }
      ],
      "name": "engineToOwner",
      "outputs": [
        {
          "internalType": "address",
          "name": "",
          "type": "address"
        }
      ],
      "stateMutability": "view",
      "type": "function",
      "constant": true
    },
    {
      "inputs": [
        {
          "internalType": "uint256",
          "name": "",
          "type": "uint256"
        }
      ],
      "name": "engines",
      "outputs": [
        {
          "internalType": "uint256",
          "name": "id",
          "type": "uint256"
        },
        {
          "internalType": "uint16",
          "name": "horsePowers",
          "type": "uint16"
        },
        {
          "internalType": "uint8",
          "name": "consumtion",
          "type": "uint8"
        }
      ],
      "stateMutability": "view",
      "type": "function",
      "constant": true
    },
    {
      "inputs": [
        {
          "internalType": "uint256",
          "name": "carId",
          "type": "uint256"
        }
      ],
      "name": "findRoom",
      "outputs": [],
      "stateMutability": "nonpayable",
      "type": "function"
    },
    {
      "inputs": [
        {
          "internalType": "uint256",
          "name": "",
          "type": "uint256"
        }
      ],
      "name": "fuelStationToOwner",
      "outputs": [
        {
          "internalType": "address",
          "name": "",
          "type": "address"
        }
      ],
      "stateMutability": "view",
      "type": "function",
      "constant": true
    },
    {
      "inputs": [
        {
          "internalType": "address",
          "name": "_owner",
          "type": "address"
        }
      ],
      "name": "getCarsByOwner",
      "outputs": [
        {
          "components": [
            {
              "internalType": "string",
              "name": "model",
              "type": "string"
            },
            {
              "internalType": "uint256",
              "name": "vin",
              "type": "uint256"
            },
            {
              "internalType": "uint256",
              "name": "engineId",
              "type": "uint256"
            },
            {
              "internalType": "uint256",
              "name": "chassisId",
              "type": "uint256"
            },
            {
              "internalType": "uint8",
              "name": "carLevel",
              "type": "uint8"
            },
            {
              "internalType": "uint256",
              "name": "mileage",
              "type": "uint256"
            },
            {
              "internalType": "uint256",
              "name": "winCountOnCurrentLevel",
              "type": "uint256"
            },
            {
              "internalType": "uint256",
              "name": "lossCountOnCurrentLevel",
              "type": "uint256"
            }
          ],
          "internalType": "struct CarFactory.Car[]",
          "name": "",
          "type": "tuple[]"
        }
      ],
      "stateMutability": "view",
      "type": "function",
      "constant": true
    },
    {
      "inputs": [
        {
          "internalType": "address",
          "name": "_owner",
          "type": "address"
        }
      ],
      "name": "getChassisByOwner",
      "outputs": [
        {
          "internalType": "uint256[]",
          "name": "",
          "type": "uint256[]"
        }
      ],
      "stateMutability": "view",
      "type": "function",
      "constant": true
    },
    {
      "inputs": [
        {
          "internalType": "uint256",
          "name": "roomId",
          "type": "uint256"
        }
      ],
      "name": "getClosedRoom",
      "outputs": [
        {
          "components": [
            {
              "internalType": "address",
              "name": "player",
              "type": "address"
            },
            {
              "internalType": "bool",
              "name": "correct",
              "type": "bool"
            },
            {
              "internalType": "uint256",
              "name": "time",
              "type": "uint256"
            },
            {
              "internalType": "uint256",
              "name": "carId",
              "type": "uint256"
            }
          ],
          "internalType": "struct RaceHandler.Answer[]",
          "name": "",
          "type": "tuple[]"
        }
      ],
      "stateMutability": "view",
      "type": "function",
      "constant": true
    },
    {
      "inputs": [
        {
          "internalType": "address",
          "name": "_owner",
          "type": "address"
        }
      ],
      "name": "getEnginesByOwner",
      "outputs": [
        {
          "internalType": "uint256[]",
          "name": "",
          "type": "uint256[]"
        }
      ],
      "stateMutability": "view",
      "type": "function",
      "constant": true
    },
    {
      "inputs": [
        {
          "internalType": "address",
          "name": "_owner",
          "type": "address"
        }
      ],
      "name": "getFuelStationByOwner",
      "outputs": [
        {
          "internalType": "uint256",
          "name": "",
          "type": "uint256"
        }
      ],
      "stateMutability": "view",
      "type": "function",
      "constant": true
    },
    {
      "inputs": [
        {
          "internalType": "uint256",
          "name": "",
          "type": "uint256"
        }
      ],
      "name": "idToStartedRooms",
      "outputs": [
        {
          "internalType": "uint256",
          "name": "numberPlayers",
          "type": "uint256"
        },
        {
          "internalType": "uint256",
          "name": "world",
          "type": "uint256"
        },
        {
          "internalType": "uint256",
          "name": "roomDNA",
          "type": "uint256"
        },
        {
          "internalType": "uint256",
          "name": "startTime",
          "type": "uint256"
        },
        {
          "internalType": "uint256",
          "name": "curAnswer",
          "type": "uint256"
        },
        {
          "internalType": "bool",
          "name": "closed",
          "type": "bool"
        }
      ],
      "stateMutability": "view",
      "type": "function",
      "constant": true
    },
    {
      "inputs": [
        {
          "internalType": "uint256",
          "name": "_carId",
          "type": "uint256"
        }
      ],
      "name": "levelUp",
      "outputs": [],
      "stateMutability": "payable",
      "type": "function",
      "payable": true
    },
    {
      "inputs": [
        {
          "internalType": "uint256",
          "name": "",
          "type": "uint256"
        }
      ],
      "name": "openedRooms",
      "outputs": [
        {
          "internalType": "uint256",
          "name": "id",
          "type": "uint256"
        },
        {
          "internalType": "uint256",
          "name": "playersEntered",
          "type": "uint256"
        },
        {
          "internalType": "uint256",
          "name": "world",
          "type": "uint256"
        },
        {
          "components": [
            {
              "internalType": "uint256",
              "name": "playersNeeded",
              "type": "uint256"
            },
            {
              "internalType": "uint256",
              "name": "roadsNum",
              "type": "uint256"
            },
            {
              "internalType": "uint256",
              "name": "crossId",
              "type": "uint256"
            }
          ],
          "internalType": "struct RaceHandler.Cross",
          "name": "cross",
          "type": "tuple"
        }
      ],
      "stateMutability": "view",
      "type": "function",
      "constant": true
    },
    {
      "inputs": [],
      "name": "owner",
      "outputs": [
        {
          "internalType": "address",
          "name": "",
          "type": "address"
        }
      ],
      "stateMutability": "view",
      "type": "function",
      "constant": true
    },
    {
      "inputs": [],
      "name": "renounceOwnership",
      "outputs": [],
      "stateMutability": "nonpayable",
      "type": "function"
    },
    {
      "inputs": [
        {
          "internalType": "uint256",
          "name": "",
          "type": "uint256"
        }
      ],
      "name": "stations",
      "outputs": [
        {
          "internalType": "uint256",
          "name": "id",
          "type": "uint256"
        },
        {
          "internalType": "uint8",
          "name": "capacity",
          "type": "uint8"
        },
        {
          "internalType": "uint8",
          "name": "productionPerHour",
          "type": "uint8"
        },
        {
          "internalType": "uint8",
          "name": "currentFullness",
          "type": "uint8"
        },
        {
          "internalType": "uint256",
          "name": "lastUpdate",
          "type": "uint256"
        }
      ],
      "stateMutability": "view",
      "type": "function",
      "constant": true
    },
    {
      "inputs": [
        {
          "internalType": "address",
          "name": "newOwner",
          "type": "address"
        }
      ],
      "name": "transferOwnership",
      "outputs": [],
      "stateMutability": "nonpayable",
      "type": "function"
    },
    {
      "inputs": [
        {
          "internalType": "uint256",
          "name": "_fuelStatonId",
          "type": "uint256"
        },
        {
          "internalType": "uint8",
          "name": "_counts",
          "type": "uint8"
        }
      ],
      "name": "upgradeCapacity",
      "outputs": [],
      "stateMutability": "payable",
      "type": "function",
      "payable": true
    },
    {
      "inputs": [
        {
          "internalType": "uint256",
          "name": "_engineId",
          "type": "uint256"
        },
        {
          "internalType": "uint8",
          "name": "_counts",
          "type": "uint8"
        }
      ],
      "name": "upgradeConsumtion",
      "outputs": [],
      "stateMutability": "payable",
      "type": "function",
      "payable": true
    },
    {
      "inputs": [
        {
          "internalType": "uint256",
          "name": "_chassisId",
          "type": "uint256"
        },
        {
          "internalType": "uint8",
          "name": "_counts",
          "type": "uint8"
        }
      ],
      "name": "upgradeDurability",
      "outputs": [],
      "stateMutability": "payable",
      "type": "function",
      "payable": true
    },
    {
      "inputs": [
        {
          "internalType": "uint256",
          "name": "_engineId",
          "type": "uint256"
        },
        {
          "internalType": "uint8",
          "name": "_counts",
          "type": "uint8"
        }
      ],
      "name": "upgradeHorsePowers",
      "outputs": [],
      "stateMutability": "payable",
      "type": "function",
      "payable": true
    },
    {
      "inputs": [
        {
          "internalType": "uint256",
          "name": "_fuelStatonId",
          "type": "uint256"
        },
        {
          "internalType": "uint8",
          "name": "_counts",
          "type": "uint8"
        }
      ],
      "name": "upgradeProductionPerHour",
      "outputs": [],
      "stateMutability": "payable",
      "type": "function",
      "payable": true
    },
    {
      "inputs": [
        {
          "internalType": "uint256",
          "name": "_carId",
          "type": "uint256"
        }
      ],
      "name": "startRace",
      "outputs": [],
      "stateMutability": "nonpayable",
      "type": "function"
    }
  ],
  "bytecode": "0x6080604052603c600060146101000a81548160ff021916908360ff1602179055506005600060156101000a81548160ff021916908360ff160217905550600160085560016009556509184e72a00060135565b5e620f48000601455650da475abf0006015556611c37937e080006016556305f5e10060175566038d7ea4c680006018553480156200008f57600080fd5b50620000b0620000a46200034760201b60201c565b6200034f60201b60201c565b6050600381905550605b600481905550600a600560006101000a81548160ff021916908360ff160217905550620186a06006819055506201d4c1600781905550600b60018160018154018082558091505003906000526020600020905050600c600181600181540180825580915050039060005260206000209050506019604051806060016040528060048152602001600481526020016000815250908060018154018082558091505060019003906000526020600020906003020160009091909190915060008201518160000155602082015181600101556040820151816002015550506019604051806060016040528060038152602001600481526020016000815250908060018154018082558091505060019003906000526020600020906003020160009091909190915060008201518160000155602082015181600101556040820151816002015550506019604051806060016040528060028152602001600481526020016000815250908060018154018082558091505060019003906000526020600020906003020160009091909190915060008201518160000155602082015181600101556040820151816002015550506019604051806060016040528060038152602001600381526020016001815250908060018154018082558091505060019003906000526020600020906003020160009091909190915060008201518160000155602082015181600101556040820151816002015550506019604051806060016040528060028152602001600381526020016001815250908060018154018082558091505060019003906000526020600020906003020160009091909190915060008201518160000155602082015181600101556040820151816002015550506001601c8190555062000413565b600033905090565b60008060009054906101000a900473ffffffffffffffffffffffffffffffffffffffff169050816000806101000a81548173ffffffffffffffffffffffffffffffffffffffff021916908373ffffffffffffffffffffffffffffffffffffffff1602179055508173ffffffffffffffffffffffffffffffffffffffff168173ffffffffffffffffffffffffffffffffffffffff167f8be0079c531659141344cd1fd0a4f28419497f9722a3daafe3b4186f6b6457e060405160405180910390a35050565b6149df80620004236000396000f3fe6080604052600436106101c25760003560e01c8063715018a6116100f7578063b72c0eea11610095578063f2fde38b11610064578063f2fde38b1461067b578063f7746e36146106a4578063faf4bb98146106e8578063fb2d954f14610704576101c2565b8063b72c0eea146105bf578063c75bb4f4146105fe578063c85b7fed1461063b578063e77100d414610664576101c2565b806385909267116100d1578063859092671461051b5780638da5cb5b14610537578063906f5f341461056257806392f859db1461057e576101c2565b8063715018a6146104ab5780637713d521146104c25780637c62360f146104ff576101c2565b806333ca504b116101645780634e31f9101161013e5780634e31f910146103b7578063594193d7146103f45780635dcc4cc6146104315780636f206fc11461046e576101c2565b806333ca504b146103005780633521c4261461033d578063449014901461037a576101c2565b80630ce90ec2116101a05780630ce90ec2146102655780631c5dde0e14610281578063224370f0146102c057806324d822bf146102d7576101c2565b806303f2e05b146101c75780630418394e146101e3578063081315ff14610225575b600080fd5b6101e160048036038101906101dc9190613553565b61072d565b005b3480156101ef57600080fd5b5061020a60048036038101906102059190613593565b610865565b60405161021c969594939291906135ea565b60405180910390f35b34801561023157600080fd5b5061024c60048036038101906102479190613593565b6108ae565b60405161025c949392919061369c565b60405180910390f35b61027f600480360381019061027a9190613593565b610916565b005b34801561028d57600080fd5b506102a860048036038101906102a39190613593565b610a95565b6040516102b793929190613700565b60405180910390f35b3480156102cc57600080fd5b506102d5610aef565b005b3480156102e357600080fd5b506102fe60048036038101906102f99190613593565b610c5b565b005b34801561030c57600080fd5b5061032760048036038101906103229190613593565b610e71565b6040516103349190613778565b60405180910390f35b34801561034957600080fd5b50610364600480360381019061035f9190613593565b610ea4565b60405161037191906138b5565b60405180910390f35b34801561038657600080fd5b506103a1600480360381019061039c9190613593565b611001565b6040516103ae9190613778565b60405180910390f35b3480156103c357600080fd5b506103de60048036038101906103d99190613903565b611034565b6040516103eb9190613930565b60405180910390f35b34801561040057600080fd5b5061041b60048036038101906104169190613593565b6110d2565b6040516104289190613778565b60405180910390f35b34801561043d57600080fd5b5061045860048036038101906104539190613593565b611105565b6040516104659190613778565b60405180910390f35b34801561047a57600080fd5b5061049560048036038101906104909190613903565b611138565b6040516104a291906139fa565b60405180910390f35b3480156104b757600080fd5b506104c061128a565b005b3480156104ce57600080fd5b506104e960048036038101906104e49190613903565b61129e565b6040516104f691906139fa565b60405180910390f35b61051960048036038101906105149190613553565b6113f0565b005b61053560048036038101906105309190613553565b61151d565b005b34801561054357600080fd5b5061054c611640565b6040516105599190613778565b60405180910390f35b61057c60048036038101906105779190613553565b611669565b005b34801561058a57600080fd5b506105a560048036038101906105a09190613593565b61178c565b6040516105b6959493929190613a2b565b60405180910390f35b3480156105cb57600080fd5b506105e660048036038101906105e19190613593565b6117f9565b6040516105f593929190613a9b565b60405180910390f35b34801561060a57600080fd5b5061062560048036038101906106209190613903565b61184e565b6040516106329190613cec565b60405180910390f35b34801561064757600080fd5b50610662600480360381019061065d9190613e56565b611ac2565b005b34801561067057600080fd5b50610679611e45565b005b34801561068757600080fd5b506106a2600480360381019061069d9190613903565b6120e0565b005b3480156106b057600080fd5b506106cb60048036038101906106c69190613593565b612163565b6040516106df989796959493929190613efc565b60405180910390f35b61070260048036038101906106fd9190613553565b612250565b005b34801561071057600080fd5b5061072b60048036038101906107269190613593565b61237e565b005b81600f600082815260200190815260200160002060009054906101000a900473ffffffffffffffffffffffffffffffffffffffff1673ffffffffffffffffffffffffffffffffffffffff163373ffffffffffffffffffffffffffffffffffffffff161461079957600080fd5b601754600c84815481106107b0576107af613f81565b5b906000526020600020906002020160010160009054906101000a900463ffffffff168360ff166107e09190613fdf565b63ffffffff166107f0919061401d565b34146107fb57600080fd5b8160ff16600c848154811061081357610812613f81565b5b906000526020600020906002020160010160008282829054906101000a900463ffffffff166108429190614077565b92506101000a81548163ffffffff021916908363ffffffff160217905550505050565b601e6020528060005260406000206000915090508060000154908060010154908060020154908060030154908060050154908060060160009054906101000a900460ff16905086565b601d81815481106108be57600080fd5b9060005260206000209060060201600091509050806000015490806001015490806002015490806003016040518060600160405290816000820154815260200160018201548152602001600282015481525050905084565b600a80828154811061092b5761092a613f81565b5b906000526020600020906008020160040160009054906101000a900460ff1661095491906140e0565b60ff16601854610964919061401d565b341480156109d857506001600a828154811061098357610982613f81565b5b906000526020600020906008020160040160009054906101000a900460ff166109ac9190614111565b60ff16600a82815481106109c3576109c2613f81565b5b90600052602060002090600802016006015410155b6109e157600080fd5b600a81815481106109f5576109f4613f81565b5b9060005260206000209060080201600401600081819054906101000a900460ff1680929190610a2390614148565b91906101000a81548160ff021916908360ff160217905550506000600a8281548110610a5257610a51613f81565b5b9060005260206000209060080201600601819055506000600a8281548110610a7d57610a7c613f81565b5b90600052602060002090600802016007018190555050565b600c8181548110610aa557600080fd5b90600052602060002090600202016000915090508060000154908060010160009054906101000a900463ffffffff16908060010160049054906101000a900463ffffffff16905083565b60003390506000600180549050905060016040518060a00160405280838152602001600060149054906101000a900460ff1660ff168152602001600060159054906101000a900460ff1660ff168152602001600060149054906101000a900460ff1660ff1681526020014263ffffffff1681525090806001815401808255809150506001900390600052602060002090600302016000909190919091506000820151816000015560208201518160010160006101000a81548160ff021916908360ff16021790555060408201518160010160016101000a81548160ff021916908360ff16021790555060608201518160010160026101000a81548160ff021916908360ff160217905550608082015181600201555050816002600083815260200190815260200160002060006101000a81548173ffffffffffffffffffffffffffffffffffffffff021916908373ffffffffffffffffffffffffffffffffffffffff1602179055505050565b80600d600082815260200190815260200160002060009054906101000a900473ffffffffffffffffffffffffffffffffffffffff1673ffffffffffffffffffffffffffffffffffffffff163373ffffffffffffffffffffffffffffffffffffffff1614610cc757600080fd5b6000600a808481548110610cde57610cdd613f81565b5b906000526020600020906008020160040160009054906101000a900460ff16610d0791906140e0565b600a610d139190614171565b6002610d1f91906141a5565b9050610d2b83826129df565b8015610d9a57508060ff16600c600a8581548110610d4c57610d4b613f81565b5b90600052602060002090600802016003015481548110610d6f57610d6e613f81565b5b906000526020600020906002020160010160049054906101000a900463ffffffff1663ffffffff1610155b610da357600080fd5b8060ff16600c600a8581548110610dbd57610dbc613f81565b5b90600052602060002090600802016003015481548110610de057610ddf613f81565b5b906000526020600020906002020160010160048282829054906101000a900463ffffffff16610e0f91906141e0565b92506101000a81548163ffffffff021916908363ffffffff1602179055508060ff16600a8481548110610e4557610e44613f81565b5b90600052602060002090600802016005016000828254610e659190614214565b92505081905550505050565b600d6020528060005260406000206000915054906101000a900473ffffffffffffffffffffffffffffffffffffffff1681565b6060601e600083815260200190815260200160002060060160009054906101000a900460ff16610f09576040517f08c379a0000000000000000000000000000000000000000000000000000000008152600401610f00906142b6565b60405180910390fd5b601e6000838152602001908152602001600020600401805480602002602001604051908101604052809291908181526020016000905b82821015610ff657838290600052602060002090600302016040518060800160405290816000820160009054906101000a900473ffffffffffffffffffffffffffffffffffffffff1673ffffffffffffffffffffffffffffffffffffffff1673ffffffffffffffffffffffffffffffffffffffff1681526020016000820160149054906101000a900460ff161515151581526020016001820154815260200160028201548152505081526020019060010190610f3f565b505050509050919050565b600f6020528060005260406000206000915054906101000a900473ffffffffffffffffffffffffffffffffffffffff1681565b60008060005b6001805490508110156110c8578373ffffffffffffffffffffffffffffffffffffffff166002600083815260200190815260200160002060009054906101000a900473ffffffffffffffffffffffffffffffffffffffff1673ffffffffffffffffffffffffffffffffffffffff16036110b5578091506110c8565b80806110c0906142d6565b91505061103a565b5080915050919050565b60026020528060005260406000206000915054906101000a900473ffffffffffffffffffffffffffffffffffffffff1681565b600e6020528060005260406000206000915054906101000a900473ffffffffffffffffffffffffffffffffffffffff1681565b60606000601160008473ffffffffffffffffffffffffffffffffffffffff1673ffffffffffffffffffffffffffffffffffffffff1681526020019081526020016000205467ffffffffffffffff81111561119557611194613d13565b5b6040519080825280602002602001820160405280156111c35781602001602082028036833780820191505090505b5090506000805b600c8054905081101561127f578473ffffffffffffffffffffffffffffffffffffffff16600f600083815260200190815260200160002060009054906101000a900473ffffffffffffffffffffffffffffffffffffffff1673ffffffffffffffffffffffffffffffffffffffff160361126c578083838151811061125157611250613f81565b5b6020026020010181815250508180611268906142d6565b9250505b8080611277906142d6565b9150506111ca565b508192505050919050565b611292612ba0565b61129c6000612c1e565b565b60606000601160008473ffffffffffffffffffffffffffffffffffffffff1673ffffffffffffffffffffffffffffffffffffffff1681526020019081526020016000205467ffffffffffffffff8111156112fb576112fa613d13565b5b6040519080825280602002602001820160405280156113295781602001602082028036833780820191505090505b5090506000805b600b805490508110156113e5578473ffffffffffffffffffffffffffffffffffffffff16600e600083815260200190815260200160002060009054906101000a900473ffffffffffffffffffffffffffffffffffffffff1673ffffffffffffffffffffffffffffffffffffffff16036113d257808383815181106113b7576113b6613f81565b5b60200260200101818152505081806113ce906142d6565b9250505b80806113dd906142d6565b915050611330565b508192505050919050565b81600e600082815260200190815260200160002060009054906101000a900473ffffffffffffffffffffffffffffffffffffffff1673ffffffffffffffffffffffffffffffffffffffff163373ffffffffffffffffffffffffffffffffffffffff161461145c57600080fd5b600b83815481106114705761146f613f81565b5b906000526020600020906002020160010160029054906101000a900460ff16600a61149b9190614171565b60026114a79190614451565b6016546114b4919061401d565b34146114bf57600080fd5b81600b84815481106114d4576114d3613f81565b5b906000526020600020906002020160010160028282829054906101000a900460ff166115009190614171565b92506101000a81548160ff021916908360ff160217905550505050565b816002600082815260200190815260200160002060009054906101000a900473ffffffffffffffffffffffffffffffffffffffff1673ffffffffffffffffffffffffffffffffffffffff163373ffffffffffffffffffffffffffffffffffffffff161461158957600080fd5b601454600184815481106115a05761159f613f81565b5b906000526020600020906003020160010160019054906101000a900460ff16836115ca91906141a5565b60ff166115d7919061401d565b34146115e257600080fd5b81600184815481106115f7576115f6613f81565b5b906000526020600020906003020160010160018282829054906101000a900460ff166116239190614111565b92506101000a81548160ff021916908360ff160217905550505050565b60008060009054906101000a900473ffffffffffffffffffffffffffffffffffffffff16905090565b816002600082815260200190815260200160002060009054906101000a900473ffffffffffffffffffffffffffffffffffffffff1673ffffffffffffffffffffffffffffffffffffffff163373ffffffffffffffffffffffffffffffffffffffff16146116d557600080fd5b601354600184815481106116ec576116eb613f81565b5b906000526020600020906003020160010160009054906101000a900460ff168361171691906141a5565b60ff16611723919061401d565b341461172e57600080fd5b816001848154811061174357611742613f81565b5b906000526020600020906003020160010160008282829054906101000a900460ff1661176f9190614111565b92506101000a81548160ff021916908360ff160217905550505050565b6001818154811061179c57600080fd5b90600052602060002090600302016000915090508060000154908060010160009054906101000a900460ff16908060010160019054906101000a900460ff16908060010160029054906101000a900460ff16908060020154905085565b600b818154811061180957600080fd5b90600052602060002090600202016000915090508060000154908060010160009054906101000a900461ffff16908060010160029054906101000a900460ff16905083565b60606000601060008473ffffffffffffffffffffffffffffffffffffffff1673ffffffffffffffffffffffffffffffffffffffff1681526020019081526020016000205467ffffffffffffffff8111156118ab576118aa613d13565b5b6040519080825280602002602001820160405280156118e457816020015b6118d16133e5565b8152602001906001900390816118c95790505b5090506000805b600c80549050811015611ab7578473ffffffffffffffffffffffffffffffffffffffff16600d600083815260200190815260200160002060009054906101000a900473ffffffffffffffffffffffffffffffffffffffff1673ffffffffffffffffffffffffffffffffffffffff1603611aa457600a818154811061197257611971613f81565b5b90600052602060002090600802016040518061010001604052908160008201805461199c906144cb565b80601f01602080910402602001604051908101604052809291908181526020018280546119c8906144cb565b8015611a155780601f106119ea57610100808354040283529160200191611a15565b820191906000526020600020905b8154815290600101906020018083116119f857829003601f168201915b505050505081526020016001820154815260200160028201548152602001600382015481526020016004820160009054906101000a900460ff1660ff1660ff1681526020016005820154815260200160068201548152602001600782015481525050838381518110611a8a57611a89613f81565b5b60200260200101819052508180611aa0906142d6565b9250505b8080611aaf906142d6565b9150506118eb565b508192505050919050565b81601a60003373ffffffffffffffffffffffffffffffffffffffff1673ffffffffffffffffffffffffffffffffffffffff1681526020019081526020016000205414611b43576040517f08c379a0000000000000000000000000000000000000000000000000000000008152600401611b3a90614548565b60405180910390fd5b6000601e6000848152602001908152602001600020600201549050600073__PDDLib________________________________639c63eb2e83856040518363ffffffff1660e01b8152600401611b9992919061460d565b602060405180830381865af4158015611bb6573d6000803e3d6000fd5b505050506040513d601f19601f82011682018060405250810190611bda9190614669565b9050600060405180608001604052803373ffffffffffffffffffffffffffffffffffffffff1681526020018315158152602001428152602001601b60003373ffffffffffffffffffffffffffffffffffffffff1673ffffffffffffffffffffffffffffffffffffffff1681526020019081526020016000205481525090506000601e600087815260200190815260200160002090508060040182908060018154018082558091505060019003906000526020600020906003020160009091909190915060008201518160000160006101000a81548173ffffffffffffffffffffffffffffffffffffffff021916908373ffffffffffffffffffffffffffffffffffffffff16021790555060208201518160000160146101000a81548160ff02191690831515021790555060408201518160010155606082015181600201555050601e600087815260200190815260200160002060000154601e60008881526020019081526020016000206004018054905003611e3d577f67acaceb58ff1ad2aa8b3069f69c4cd076824e06a09184b75fb197ead7040be786604051611d7f9190613930565b60405180910390a16001601e600088815260200190815260200160002060060160006101000a81548160ff021916908315150217905550601a60003373ffffffffffffffffffffffffffffffffffffffff1673ffffffffffffffffffffffffffffffffffffffff16815260200190815260200160002060009055601b60003373ffffffffffffffffffffffffffffffffffffffff1673ffffffffffffffffffffffffffffffffffffffff168152602001908152602001600020600090555b505050505050565b6000601060003373ffffffffffffffffffffffffffffffffffffffff1673ffffffffffffffffffffffffffffffffffffffff1681526020019081526020016000205414611e9157600080fd5b60006040518060400160405280600581526020017f6d6f64656c0000000000000000000000000000000000000000000000000000008152509050600081611ed742612ce2565b604051602001611ee89291906146d2565b6040516020818303038152906040529050600081604051602001611f0c91906146f6565b6040516020818303038152906040528051906020012060001c90506000611f31612db0565b90506000611f3d612f53565b90506000600a805490509050600a604051806101000160405280888152602001868152602001858152602001848152602001600160ff1681526020016000815260200160008152602001600081525090806001815401808255809150506001900390600052602060002090600802016000909190919091506000820151816000019080519060200190611fd192919061342d565b5060208201518160010155604082015181600201556060820151816003015560808201518160040160006101000a81548160ff021916908360ff16021790555060a0820151816005015560c0820151816006015560e08201518160070155505033600d600083815260200190815260200160002060006101000a81548173ffffffffffffffffffffffffffffffffffffffff021916908373ffffffffffffffffffffffffffffffffffffffff160217905550601060003373ffffffffffffffffffffffffffffffffffffffff1673ffffffffffffffffffffffffffffffffffffffff16815260200190815260200160002060008154809291906120d3906142d6565b9190505550505050505050565b6120e8612ba0565b600073ffffffffffffffffffffffffffffffffffffffff168173ffffffffffffffffffffffffffffffffffffffff1603612157576040517f08c379a000000000000000000000000000000000000000000000000000000000815260040161214e9061477f565b60405180910390fd5b61216081612c1e565b50565b600a818154811061217357600080fd5b9060005260206000209060080201600091509050806000018054612196906144cb565b80601f01602080910402602001604051908101604052809291908181526020018280546121c2906144cb565b801561220f5780601f106121e45761010080835404028352916020019161220f565b820191906000526020600020905b8154815290600101906020018083116121f257829003601f168201915b5050505050908060010154908060020154908060030154908060040160009054906101000a900460ff16908060050154908060060154908060070154905088565b81600e600082815260200190815260200160002060009054906101000a900473ffffffffffffffffffffffffffffffffffffffff1673ffffffffffffffffffffffffffffffffffffffff163373ffffffffffffffffffffffffffffffffffffffff16146122bc57600080fd5b601554600b84815481106122d3576122d2613f81565b5b906000526020600020906002020160010160009054906101000a900461ffff168360ff16612301919061479f565b61ffff1661230f919061401d565b341461231a57600080fd5b8160ff16600b848154811061233257612331613f81565b5b906000526020600020906002020160010160008282829054906101000a900461ffff1661235f91906147db565b92506101000a81548161ffff021916908361ffff160217905550505050565b80600d600082815260200190815260200160002060009054906101000a900473ffffffffffffffffffffffffffffffffffffffff1673ffffffffffffffffffffffffffffffffffffffff163373ffffffffffffffffffffffffffffffffffffffff16146123ea57600080fd5b6000805b601d8054905081101561282a57601d818154811061240f5761240e613f81565b5b9060005260206000209060060201600201546001600a80878154811061243857612437613f81565b5b906000526020600020906008020160040160009054906101000a900460ff1661246191906140e0565b61246b9190614111565b60ff16036128175760019150601d818154811061248b5761248a613f81565b5b906000526020600020906006020160000154601a60003373ffffffffffffffffffffffffffffffffffffffff1673ffffffffffffffffffffffffffffffffffffffff1681526020019081526020016000208190555083601b60003373ffffffffffffffffffffffffffffffffffffffff1673ffffffffffffffffffffffffffffffffffffffff16815260200190815260200160002081905550601d818154811061253857612537613f81565b5b9060005260206000209060060201600101600081548092919061255a906142d6565b9190505550601d818154811061257357612572613f81565b5b906000526020600020906006020160030160000154601d828154811061259c5761259b613f81565b5b9060005260206000209060060201600101540361281657600073__PDDLib________________________________63c037e545601d84815481106125e3576125e2613f81565b5b906000526020600020906006020160030160020154601d858154811061260c5761260b613f81565b5b9060005260206000209060060201600301600001546040518363ffffffff1660e01b815260040161263e929190614813565b602060405180830381865af415801561265b573d6000803e3d6000fd5b505050506040513d601f19601f8201168201806040525081019061267f9190614851565b90506000601e6000601d858154811061269b5761269a613f81565b5b90600052602060002090600602016000015481526020019081526020016000209050601d83815481106126d1576126d0613f81565b5b9060005260206000209060060201600301600001548160000181905550601d838154811061270257612701613f81565b5b90600052602060002090600602016002015481600101819055508181600201819055504281600301819055506000816005018190555060008160060160006101000a81548160ff0219169083151502179055507f2838ebeee7dc83fac85a3d6dbca0c0b6771591ada8b00f97371aa6611e631f9c601d848154811061278a57612789613f81565b5b906000526020600020906006020160000154836040516127ab92919061487e565b60405180910390a1601d83815481106127c7576127c6613f81565b5b906000526020600020906006020160008082016000905560018201600090556002820160009055600382016000808201600090556001820160009055600282016000905550505050505061282a565b5b8080612822906142d6565b9150506123ee565b50801561283757506129db565b6000601c600081548092919061284c906142d6565b91905055905060006019805490504261286591906148a7565b905081601a60003373ffffffffffffffffffffffffffffffffffffffff1673ffffffffffffffffffffffffffffffffffffffff16815260200190815260200160002081905550601d6040518060800160405280848152602001600181526020016001600a808a815481106128dc576128db613f81565b5b906000526020600020906008020160040160009054906101000a900460ff1661290591906140e0565b61290f9190614111565b60ff1681526020016019848154811061292b5761292a613f81565b5b906000526020600020906003020160405180606001604052908160008201548152602001600182015481526020016002820154815250508152509080600181540180825580915050600190039060005260206000209060060201600090919091909150600082015181600001556020820151816001015560408201518160020155606082015181600301600082015181600001556020820151816001015560408201518160020155505050505050505b5050565b600080612a1e600d600086815260200190815260200160002060009054906101000a900473ffffffffffffffffffffffffffffffffffffffff16611034565b9050612a29816130f6565b6000600a8581548110612a3f57612a3e613f81565b5b9060005260206000209060080201600201549050600060019050600a85600b8481548110612a7057612a6f613f81565b5b906000526020600020906002020160010160029054906101000a900460ff16612a9991906141a5565b60ff1610612aee57600a600b8381548110612ab757612ab6613f81565b5b906000526020600020906002020160010160029054906101000a900460ff1686612ae191906141a5565b612aeb91906140e0565b90505b8060ff1660018481548110612b0657612b05613f81565b5b906000526020600020906003020160010160029054906101000a900460ff1660ff1610612b92578060018481548110612b4257612b41613f81565b5b906000526020600020906003020160010160028282829054906101000a900460ff16612b6e9190614171565b92506101000a81548160ff021916908360ff16021790555060019350505050612b9a565b600093505050505b92915050565b612ba8613271565b73ffffffffffffffffffffffffffffffffffffffff16612bc6611640565b73ffffffffffffffffffffffffffffffffffffffff1614612c1c576040517f08c379a0000000000000000000000000000000000000000000000000000000008152600401612c1390614924565b60405180910390fd5b565b60008060009054906101000a900473ffffffffffffffffffffffffffffffffffffffff169050816000806101000a81548173ffffffffffffffffffffffffffffffffffffffff021916908373ffffffffffffffffffffffffffffffffffffffff1602179055508173ffffffffffffffffffffffffffffffffffffffff168173ffffffffffffffffffffffffffffffffffffffff167f8be0079c531659141344cd1fd0a4f28419497f9722a3daafe3b4186f6b6457e060405160405180910390a35050565b606060006001612cf184613279565b01905060008167ffffffffffffffff811115612d1057612d0f613d13565b5b6040519080825280601f01601f191660200182016040528015612d425781602001600182028036833780820191505090505b509050600082602001820190505b600115612da5578080600190039150507f3031323334353637383961626364656600000000000000000000000000000000600a86061a8153600a8581612d9957612d986140b1565b5b04945060008503612d50575b819350505050919050565b600080600354600454612dc39190614944565b42612dce91906148a7565b600354612ddb9190614214565b9050600060086000815480929190612df2906142d6565b919050559050600b60405180606001604052808381526020018461ffff168152602001600560009054906101000a900460ff1660ff1681525090806001815401808255809150506001900390600052602060002090600202016000909190919091506000820151816000015560208201518160010160006101000a81548161ffff021916908361ffff16021790555060408201518160010160026101000a81548160ff021916908360ff1602179055505050601160003373ffffffffffffffffffffffffffffffffffffffff1673ffffffffffffffffffffffffffffffffffffffff1681526020019081526020016000206000815480929190612ef4906142d6565b919050555033600e600083815260200190815260200160002060006101000a81548173ffffffffffffffffffffffffffffffffffffffff021916908373ffffffffffffffffffffffffffffffffffffffff160217905550809250505090565b600080600654600754612f669190614944565b42612f7191906148a7565b600654612f7e9190614214565b9050600060096000815480929190612f95906142d6565b919050559050600c60405180606001604052808381526020018463ffffffff1681526020018463ffffffff1681525090806001815401808255809150506001900390600052602060002090600202016000909190919091506000820151816000015560208201518160010160006101000a81548163ffffffff021916908363ffffffff16021790555060408201518160010160046101000a81548163ffffffff021916908363ffffffff1602179055505050601260003373ffffffffffffffffffffffffffffffffffffffff1673ffffffffffffffffffffffffffffffffffffffff1681526020019081526020016000206000815480929190613097906142d6565b919050555033600f600083815260200190815260200160002060006101000a81548173ffffffffffffffffffffffffffffffffffffffff021916908373ffffffffffffffffffffffffffffffffffffffff160217905550809250505090565b60004290506000610e106001848154811061311457613113613f81565b5b906000526020600020906003020160020154836131319190614944565b61313b9190614978565b905060006001848154811061315357613152613f81565b5b906000526020600020906003020160010160019054906101000a900460ff1660ff1682613180919061401d565b6001858154811061319457613193613f81565b5b906000526020600020906003020160010160029054906101000a900460ff1660ff166131c09190614214565b9050613204600185815481106131d9576131d8613f81565b5b906000526020600020906003020160010160009054906101000a900460ff1660ff168260ff166133cc565b6001858154811061321857613217613f81565b5b906000526020600020906003020160010160026101000a81548160ff021916908360ff160217905550826001858154811061325657613255613f81565b5b90600052602060002090600302016002018190555050505050565b600033905090565b600080600090507a184f03e93ff9f4daa797ed6e38ed64bf6a1f01000000000000000083106132d7577a184f03e93ff9f4daa797ed6e38ed64bf6a1f01000000000000000083816132cd576132cc6140b1565b5b0492506040810190505b6d04ee2d6d415b85acef81000000008310613314576d04ee2d6d415b85acef8100000000838161330a576133096140b1565b5b0492506020810190505b662386f26fc10000831061334357662386f26fc100008381613339576133386140b1565b5b0492506010810190505b6305f5e100831061336c576305f5e1008381613362576133616140b1565b5b0492506008810190505b6127108310613391576127108381613387576133866140b1565b5b0492506004810190505b606483106133b457606483816133aa576133a96140b1565b5b0492506002810190505b600a83106133c3576001810190505b80915050919050565b60008183106133db57816133dd565b825b905092915050565b60405180610100016040528060608152602001600081526020016000815260200160008152602001600060ff1681526020016000815260200160008152602001600081525090565b828054613439906144cb565b90600052602060002090601f01602090048101928261345b57600085556134a2565b82601f1061347457805160ff19168380011785556134a2565b828001600101855582156134a2579182015b828111156134a1578251825591602001919060010190613486565b5b5090506134af91906134b3565b5090565b5b808211156134cc5760008160009055506001016134b4565b5090565b6000604051905090565b600080fd5b600080fd5b6000819050919050565b6134f7816134e4565b811461350257600080fd5b50565b600081359050613514816134ee565b92915050565b600060ff82169050919050565b6135308161351a565b811461353b57600080fd5b50565b60008135905061354d81613527565b92915050565b6000806040838503121561356a576135696134da565b5b600061357885828601613505565b92505060206135898582860161353e565b9150509250929050565b6000602082840312156135a9576135a86134da565b5b60006135b784828501613505565b91505092915050565b6135c9816134e4565b82525050565b60008115159050919050565b6135e4816135cf565b82525050565b600060c0820190506135ff60008301896135c0565b61360c60208301886135c0565b61361960408301876135c0565b61362660608301866135c0565b61363360808301856135c0565b61364060a08301846135db565b979650505050505050565b613654816134e4565b82525050565b606082016000820151613670600085018261364b565b506020820151613683602085018261364b565b506040820151613696604085018261364b565b50505050565b600060c0820190506136b160008301876135c0565b6136be60208301866135c0565b6136cb60408301856135c0565b6136d8606083018461365a565b95945050505050565b600063ffffffff82169050919050565b6136fa816136e1565b82525050565b600060608201905061371560008301866135c0565b61372260208301856136f1565b61372f60408301846136f1565b949350505050565b600073ffffffffffffffffffffffffffffffffffffffff82169050919050565b600061376282613737565b9050919050565b61377281613757565b82525050565b600060208201905061378d6000830184613769565b92915050565b600081519050919050565b600082825260208201905092915050565b6000819050602082019050919050565b6137c881613757565b82525050565b6137d7816135cf565b82525050565b6080820160008201516137f360008501826137bf565b50602082015161380660208501826137ce565b506040820151613819604085018261364b565b50606082015161382c606085018261364b565b50505050565b600061383e83836137dd565b60808301905092915050565b6000602082019050919050565b600061386282613793565b61386c818561379e565b9350613877836137af565b8060005b838110156138a857815161388f8882613832565b975061389a8361384a565b92505060018101905061387b565b5085935050505092915050565b600060208201905081810360008301526138cf8184613857565b905092915050565b6138e081613757565b81146138eb57600080fd5b50565b6000813590506138fd816138d7565b92915050565b600060208284031215613919576139186134da565b5b6000613927848285016138ee565b91505092915050565b600060208201905061394560008301846135c0565b92915050565b600081519050919050565b600082825260208201905092915050565b6000819050602082019050919050565b6000613983838361364b565b60208301905092915050565b6000602082019050919050565b60006139a78261394b565b6139b18185613956565b93506139bc83613967565b8060005b838110156139ed5781516139d48882613977565b97506139df8361398f565b9250506001810190506139c0565b5085935050505092915050565b60006020820190508181036000830152613a14818461399c565b905092915050565b613a258161351a565b82525050565b600060a082019050613a4060008301886135c0565b613a4d6020830187613a1c565b613a5a6040830186613a1c565b613a676060830185613a1c565b613a7460808301846135c0565b9695505050505050565b600061ffff82169050919050565b613a9581613a7e565b82525050565b6000606082019050613ab060008301866135c0565b613abd6020830185613a8c565b613aca6040830184613a1c565b949350505050565b600081519050919050565b600082825260208201905092915050565b6000819050602082019050919050565b600081519050919050565b600082825260208201905092915050565b60005b83811015613b38578082015181840152602081019050613b1d565b83811115613b47576000848401525b50505050565b6000601f19601f8301169050919050565b6000613b6982613afe565b613b738185613b09565b9350613b83818560208601613b1a565b613b8c81613b4d565b840191505092915050565b613ba08161351a565b82525050565b6000610100830160008301518482036000860152613bc48282613b5e565b9150506020830151613bd9602086018261364b565b506040830151613bec604086018261364b565b506060830151613bff606086018261364b565b506080830151613c126080860182613b97565b5060a0830151613c2560a086018261364b565b5060c0830151613c3860c086018261364b565b5060e0830151613c4b60e086018261364b565b508091505092915050565b6000613c628383613ba6565b905092915050565b6000602082019050919050565b6000613c8282613ad2565b613c8c8185613add565b935083602082028501613c9e85613aee565b8060005b85811015613cda5784840389528151613cbb8582613c56565b9450613cc683613c6a565b925060208a01995050600181019050613ca2565b50829750879550505050505092915050565b60006020820190508181036000830152613d068184613c77565b905092915050565b600080fd5b7f4e487b7100000000000000000000000000000000000000000000000000000000600052604160045260246000fd5b613d4b82613b4d565b810181811067ffffffffffffffff82111715613d6a57613d69613d13565b5b80604052505050565b6000613d7d6134d0565b9050613d898282613d42565b919050565b600067ffffffffffffffff821115613da957613da8613d13565b5b602082029050602081019050919050565b600080fd5b6000613dd2613dcd84613d8e565b613d73565b90508083825260208201905060208402830185811115613df557613df4613dba565b5b835b81811015613e1e5780613e0a8882613505565b845260208401935050602081019050613df7565b5050509392505050565b600082601f830112613e3d57613e3c613d0e565b5b8135613e4d848260208601613dbf565b91505092915050565b60008060408385031215613e6d57613e6c6134da565b5b6000613e7b85828601613505565b925050602083013567ffffffffffffffff811115613e9c57613e9b6134df565b5b613ea885828601613e28565b9150509250929050565b600082825260208201905092915050565b6000613ece82613afe565b613ed88185613eb2565b9350613ee8818560208601613b1a565b613ef181613b4d565b840191505092915050565b6000610100820190508181036000830152613f17818b613ec3565b9050613f26602083018a6135c0565b613f3360408301896135c0565b613f4060608301886135c0565b613f4d6080830187613a1c565b613f5a60a08301866135c0565b613f6760c08301856135c0565b613f7460e08301846135c0565b9998505050505050505050565b7f4e487b7100000000000000000000000000000000000000000000000000000000600052603260045260246000fd5b7f4e487b7100000000000000000000000000000000000000000000000000000000600052601160045260246000fd5b6000613fea826136e1565b9150613ff5836136e1565b92508163ffffffff048311821515161561401257614011613fb0565b5b828202905092915050565b6000614028826134e4565b9150614033836134e4565b9250817fffffffffffffffffffffffffffffffffffffffffffffffffffffffffffffffff048311821515161561406c5761406b613fb0565b5b828202905092915050565b6000614082826136e1565b915061408d836136e1565b92508263ffffffff038211156140a6576140a5613fb0565b5b828201905092915050565b7f4e487b7100000000000000000000000000000000000000000000000000000000600052601260045260246000fd5b60006140eb8261351a565b91506140f68361351a565b925082614106576141056140b1565b5b828204905092915050565b600061411c8261351a565b91506141278361351a565b92508260ff0382111561413d5761413c613fb0565b5b828201905092915050565b60006141538261351a565b915060ff820361416657614165613fb0565b5b600182019050919050565b600061417c8261351a565b91506141878361351a565b92508282101561419a57614199613fb0565b5b828203905092915050565b60006141b08261351a565b91506141bb8361351a565b92508160ff04831182151516156141d5576141d4613fb0565b5b828202905092915050565b60006141eb826136e1565b91506141f6836136e1565b92508282101561420957614208613fb0565b5b828203905092915050565b600061421f826134e4565b915061422a836134e4565b9250827fffffffffffffffffffffffffffffffffffffffffffffffffffffffffffffffff0382111561425f5761425e613fb0565b5b828201905092915050565b7f726f6f6d206e6f7420636c6f7365640000000000000000000000000000000000600082015250565b60006142a0600f83613eb2565b91506142ab8261426a565b602082019050919050565b600060208201905081810360008301526142cf81614293565b9050919050565b60006142e1826134e4565b91507fffffffffffffffffffffffffffffffffffffffffffffffffffffffffffffffff820361431357614312613fb0565b5b600182019050919050565b60008160011c9050919050565b6000808291508390505b60018511156143755780860481111561435157614350613fb0565b5b60018516156143605780820291505b808102905061436e8561431e565b9450614335565b94509492505050565b60008261438e576001905061444a565b8161439c576000905061444a565b81600181146143b257600281146143bc576143eb565b600191505061444a565b60ff8411156143ce576143cd613fb0565b5b8360020a9150848211156143e5576143e4613fb0565b5b5061444a565b5060208310610133831016604e8410600b84101617156144205782820a90508381111561441b5761441a613fb0565b5b61444a565b61442d848484600161432b565b9250905081840481111561444457614443613fb0565b5b81810290505b9392505050565b600061445c826134e4565b91506144678361351a565b92506144947fffffffffffffffffffffffffffffffffffffffffffffffffffffffffffffffff848461437e565b905092915050565b7f4e487b7100000000000000000000000000000000000000000000000000000000600052602260045260246000fd5b600060028204905060018216806144e357607f821691505b6020821081036144f6576144f561449c565b5b50919050565b7f6e6f7420796f757220726f6f6d00000000000000000000000000000000000000600082015250565b6000614532600d83613eb2565b915061453d826144fc565b602082019050919050565b6000602082019050818103600083015261456181614525565b9050919050565b614571816134e4565b82525050565b600082825260208201905092915050565b614591816134e4565b82525050565b60006145a38383614588565b60208301905092915050565b60006145ba8261394b565b6145c48185614577565b93506145cf83613967565b8060005b838110156146005781516145e78882614597565b97506145f28361398f565b9250506001810190506145d3565b5085935050505092915050565b60006040820190506146226000830185614568565b818103602083015261463481846145af565b90509392505050565b614646816135cf565b811461465157600080fd5b50565b6000815190506146638161463d565b92915050565b60006020828403121561467f5761467e6134da565b5b600061468d84828501614654565b91505092915050565b600081905092915050565b60006146ac82613afe565b6146b68185614696565b93506146c6818560208601613b1a565b80840191505092915050565b60006146de82856146a1565b91506146ea82846146a1565b91508190509392505050565b600061470282846146a1565b915081905092915050565b7f4f776e61626c653a206e6577206f776e657220697320746865207a65726f206160008201527f6464726573730000000000000000000000000000000000000000000000000000602082015250565b6000614769602683613eb2565b91506147748261470d565b604082019050919050565b600060208201905081810360008301526147988161475c565b9050919050565b60006147aa82613a7e565b91506147b583613a7e565b92508161ffff04831182151516156147d0576147cf613fb0565b5b828202905092915050565b60006147e682613a7e565b91506147f183613a7e565b92508261ffff0382111561480857614807613fb0565b5b828201905092915050565b60006040820190506148286000830185614568565b6148356020830184614568565b9392505050565b60008151905061484b816134ee565b92915050565b600060208284031215614867576148666134da565b5b60006148758482850161483c565b91505092915050565b600060408201905061489360008301856135c0565b6148a060208301846135c0565b9392505050565b60006148b2826134e4565b91506148bd836134e4565b9250826148cd576148cc6140b1565b5b828206905092915050565b7f4f776e61626c653a2063616c6c6572206973206e6f7420746865206f776e6572600082015250565b600061490e602083613eb2565b9150614919826148d8565b602082019050919050565b6000602082019050818103600083015261493d81614901565b9050919050565b600061494f826134e4565b915061495a836134e4565b92508282101561496d5761496c613fb0565b5b828203905092915050565b6000614983826134e4565b915061498e836134e4565b92508261499e5761499d6140b1565b5b82820490509291505056fea264697066735822122013a9481c33f0a3af1269041461a85d62fd88c2d13c924b6b2f879e365b22931464736f6c634300080d0033",
  "immutableReferences": {},
  "source": "// SPDX-License-Identifier: MIT\npragma solidity ^0.8.13;\nimport \"./RaceHandler.sol\";\n\ncontract CarRacing is RaceHandler{\n\n    function _isEnoughFuel(uint _carId, uint8 duration) private returns(bool){\n        uint stationId = getFuelStationByOwner(carToOwner[_carId]);\n        _refreshFuel(stationId);\n        uint engineId = cars[_carId].engineId;\n        uint8 liters= 1;\n        if (engines[engineId].consumtion * duration >= 10)\n            liters = duration * engines[engineId].consumtion / 10;\n\n        if (stations[stationId].currentFullness >= liters) {\n            stations[stationId].currentFullness -= liters;\n            return true;\n        }\n        else\n            return false;\n    }\n\n    function _refreshFuel(uint _fuelStationId) private {\n        uint curTime = block.timestamp;\n        uint wholeHours = (curTime - stations[_fuelStationId].lastUpdate) / 3600;\n        uint8 newFullness = uint8(stations[_fuelStationId].currentFullness + wholeHours * stations[_fuelStationId].productionPerHour);\n        stations[_fuelStationId].currentFullness = uint8(Math.min(stations[_fuelStationId].capacity, newFullness));\n        stations[_fuelStationId].lastUpdate = curTime;\n    }\n\n\n    function startRace(uint _carId) external onlyOwnerOfCar(_carId) {\n        uint8 durToNextCrossroad = 2 * (10 - cars[_carId].carLevel / 10);\n\n        require(_isEnoughFuel(_carId, durToNextCrossroad) && chassis[cars[_carId].chassisId].resource >= durToNextCrossroad);\n        // TODO\n\n        chassis[cars[_carId].chassisId].resource -= durToNextCrossroad;\n        cars[_carId].mileage += durToNextCrossroad;\n    }\n\n}",
  "sourcePath": "/Users/vvan/Programming/JavaScript/DriveSafely/contract/contracts/CarRacing.sol",
  "compiler": {
    "name": "solc",
    "version": "0.8.13+commit.abaa5c0e.Emscripten.clang"
  },
  "schemaVersion": "3.4.11",
  "updatedAt": "2023-01-08T08:00:07.889Z",
  "networkType": "ethereum",
  "devdoc": {
    "kind": "dev",
    "methods": {
      "owner()": {
        "details": "Returns the address of the current owner."
      },
      "renounceOwnership()": {
        "details": "Leaves the contract without owner. It will not be possible to call `onlyOwner` functions anymore. Can only be called by the current owner. NOTE: Renouncing ownership will leave the contract without an owner, thereby removing any functionality that is only available to the owner."
      },
      "transferOwnership(address)": {
        "details": "Transfers ownership of the contract to a new account (`newOwner`). Can only be called by the current owner."
      }
    },
    "version": 1
  },
  "userdoc": {
    "kind": "user",
    "methods": {},
    "version": 1
  }
}